{
  "_format": "hh-sol-artifact-1",
  "contractName": "FastUpdateIncentiveManager",
  "sourceName": "contracts/fastUpdates/implementation/FastUpdateIncentiveManager.sol",
  "abi": [
    {
      "inputs": [
        {
          "internalType": "contract IGovernanceSettings",
          "name": "_governanceSettings",
          "type": "address"
        },
        {
          "internalType": "address",
          "name": "_initialGovernance",
          "type": "address"
        },
        {
          "internalType": "address",
          "name": "_addressUpdater",
          "type": "address"
        },
        {
          "internalType": "SampleSize",
          "name": "_ss",
          "type": "uint256"
        },
        {
          "internalType": "Range",
          "name": "_r",
          "type": "uint256"
        },
        {
          "internalType": "SampleSize",
          "name": "_sil",
          "type": "uint256"
        },
        {
          "internalType": "Range",
          "name": "_ril",
          "type": "uint256"
        },
        {
          "internalType": "Fee",
          "name": "_x",
          "type": "uint256"
        },
        {
          "internalType": "Fee",
          "name": "_rip",
          "type": "uint256"
        },
        {
          "internalType": "uint256",
          "name": "_dur",
          "type": "uint256"
        }
      ],
      "stateMutability": "nonpayable",
      "type": "constructor"
    },
    {
      "anonymous": false,
      "inputs": [
        {
          "indexed": false,
          "internalType": "uint256",
          "name": "authorizedAmountWei",
          "type": "uint256"
        }
      ],
      "name": "DailyAuthorizedInflationSet",
      "type": "event"
    },
    {
      "anonymous": false,
      "inputs": [
        {
          "indexed": false,
          "internalType": "bytes4",
          "name": "selector",
          "type": "bytes4"
        },
        {
          "indexed": false,
          "internalType": "uint256",
          "name": "allowedAfterTimestamp",
          "type": "uint256"
        },
        {
          "indexed": false,
          "internalType": "bytes",
          "name": "encodedCall",
          "type": "bytes"
        }
      ],
      "name": "GovernanceCallTimelocked",
      "type": "event"
    },
    {
      "anonymous": false,
      "inputs": [
        {
          "indexed": false,
          "internalType": "address",
          "name": "initialGovernance",
          "type": "address"
        }
      ],
      "name": "GovernanceInitialised",
      "type": "event"
    },
    {
      "anonymous": false,
      "inputs": [
        {
          "indexed": false,
          "internalType": "address",
          "name": "governanceSettings",
          "type": "address"
        }
      ],
      "name": "GovernedProductionModeEntered",
      "type": "event"
    },
    {
      "anonymous": false,
      "inputs": [
        {
          "indexed": true,
          "internalType": "uint24",
          "name": "rewardEpochId",
          "type": "uint24"
        },
        {
          "indexed": false,
          "internalType": "Range",
          "name": "rangeIncrease",
          "type": "uint256"
        },
        {
          "indexed": false,
          "internalType": "SampleSize",
          "name": "sampleSizeIncrease",
          "type": "uint256"
        },
        {
          "indexed": false,
          "internalType": "Fee",
          "name": "offerAmount",
          "type": "uint256"
        }
      ],
      "name": "IncentiveOffered",
      "type": "event"
    },
    {
      "anonymous": false,
      "inputs": [
        {
          "indexed": false,
          "internalType": "uint256",
          "name": "amountReceivedWei",
          "type": "uint256"
        }
      ],
      "name": "InflationReceived",
      "type": "event"
    },
    {
      "anonymous": false,
      "inputs": [
        {
          "indexed": true,
          "internalType": "uint24",
          "name": "rewardEpochId",
          "type": "uint24"
        },
        {
          "components": [
            {
              "internalType": "bytes21",
              "name": "feedId",
              "type": "bytes21"
            },
            {
              "internalType": "uint32",
              "name": "rewardBandValue",
              "type": "uint32"
            },
            {
              "internalType": "uint24",
              "name": "inflationShare",
              "type": "uint24"
            }
          ],
          "indexed": false,
          "internalType": "struct IFastUpdatesConfiguration.FeedConfiguration[]",
          "name": "feedConfigurations",
          "type": "tuple[]"
        },
        {
          "indexed": false,
          "internalType": "uint256",
          "name": "amount",
          "type": "uint256"
        }
      ],
      "name": "InflationRewardsOffered",
      "type": "event"
    },
    {
      "anonymous": false,
      "inputs": [
        {
          "indexed": false,
          "internalType": "bytes4",
          "name": "selector",
          "type": "bytes4"
        },
        {
          "indexed": false,
          "internalType": "uint256",
          "name": "timestamp",
          "type": "uint256"
        }
      ],
      "name": "TimelockedGovernanceCallCanceled",
      "type": "event"
    },
    {
      "anonymous": false,
      "inputs": [
        {
          "indexed": false,
          "internalType": "bytes4",
          "name": "selector",
          "type": "bytes4"
        },
        {
          "indexed": false,
          "internalType": "uint256",
          "name": "timestamp",
          "type": "uint256"
        }
      ],
      "name": "TimelockedGovernanceCallExecuted",
      "type": "event"
    },
    {
      "inputs": [],
      "name": "advance",
      "outputs": [],
      "stateMutability": "nonpayable",
      "type": "function"
    },
    {
      "inputs": [
        {
          "internalType": "bytes4",
          "name": "_selector",
          "type": "bytes4"
        }
      ],
      "name": "cancelGovernanceCall",
      "outputs": [],
      "stateMutability": "nonpayable",
      "type": "function"
    },
    {
      "inputs": [],
      "name": "dailyAuthorizedInflation",
      "outputs": [
        {
          "internalType": "uint256",
          "name": "",
          "type": "uint256"
        }
      ],
      "stateMutability": "view",
      "type": "function"
    },
    {
      "inputs": [
        {
          "internalType": "bytes4",
          "name": "_selector",
          "type": "bytes4"
        }
      ],
      "name": "executeGovernanceCall",
      "outputs": [],
      "stateMutability": "nonpayable",
      "type": "function"
    },
    {
      "inputs": [],
      "name": "fastUpdater",
      "outputs": [
        {
          "internalType": "address",
          "name": "",
          "type": "address"
        }
      ],
      "stateMutability": "view",
      "type": "function"
    },
    {
      "inputs": [],
      "name": "fastUpdatesConfiguration",
      "outputs": [
        {
          "internalType": "contract IFastUpdatesConfiguration",
          "name": "",
          "type": "address"
        }
      ],
      "stateMutability": "view",
      "type": "function"
    },
    {
      "inputs": [],
      "name": "flareSystemsManager",
      "outputs": [
        {
          "internalType": "contract IIFlareSystemsManager",
          "name": "",
          "type": "address"
        }
      ],
      "stateMutability": "view",
      "type": "function"
    },
    {
      "inputs": [],
      "name": "getAddressUpdater",
      "outputs": [
        {
          "internalType": "address",
          "name": "_addressUpdater",
          "type": "address"
        }
      ],
      "stateMutability": "view",
      "type": "function"
    },
    {
      "inputs": [],
      "name": "getBaseScale",
      "outputs": [
        {
          "internalType": "Scale",
          "name": "",
          "type": "uint256"
        }
      ],
      "stateMutability": "view",
      "type": "function"
    },
    {
      "inputs": [],
      "name": "getContractName",
      "outputs": [
        {
          "internalType": "string",
          "name": "",
          "type": "string"
        }
      ],
      "stateMutability": "pure",
      "type": "function"
    },
    {
      "inputs": [],
      "name": "getCurrentSampleSizeIncreasePrice",
      "outputs": [
        {
          "internalType": "Fee",
          "name": "",
          "type": "uint256"
        }
      ],
      "stateMutability": "view",
      "type": "function"
    },
    {
      "inputs": [],
      "name": "getExpectedBalance",
      "outputs": [
        {
          "internalType": "uint256",
          "name": "",
          "type": "uint256"
        }
      ],
      "stateMutability": "view",
      "type": "function"
    },
    {
      "inputs": [],
      "name": "getExpectedSampleSize",
      "outputs": [
        {
          "internalType": "SampleSize",
          "name": "",
          "type": "uint256"
        }
      ],
      "stateMutability": "view",
      "type": "function"
    },
    {
      "inputs": [],
      "name": "getIncentiveDuration",
      "outputs": [
        {
          "internalType": "uint256",
          "name": "",
          "type": "uint256"
        }
      ],
      "stateMutability": "view",
      "type": "function"
    },
    {
      "inputs": [],
      "name": "getInflationAddress",
      "outputs": [
        {
          "internalType": "address",
          "name": "",
          "type": "address"
        }
      ],
      "stateMutability": "view",
      "type": "function"
    },
    {
      "inputs": [],
      "name": "getPrecision",
      "outputs": [
        {
          "internalType": "Precision",
          "name": "",
          "type": "uint256"
        }
      ],
      "stateMutability": "view",
      "type": "function"
    },
    {
      "inputs": [],
      "name": "getRange",
      "outputs": [
        {
          "internalType": "Range",
          "name": "",
          "type": "uint256"
        }
      ],
      "stateMutability": "view",
      "type": "function"
    },
    {
      "inputs": [],
      "name": "getScale",
      "outputs": [
        {
          "internalType": "Scale",
          "name": "",
          "type": "uint256"
        }
      ],
      "stateMutability": "view",
      "type": "function"
    },
    {
      "inputs": [],
      "name": "getTokenPoolSupplyData",
      "outputs": [
        {
          "internalType": "uint256",
          "name": "_lockedFundsWei",
          "type": "uint256"
        },
        {
          "internalType": "uint256",
          "name": "_totalInflationAuthorizedWei",
          "type": "uint256"
        },
        {
          "internalType": "uint256",
          "name": "_totalClaimedWei",
          "type": "uint256"
        }
      ],
      "stateMutability": "view",
      "type": "function"
    },
    {
      "inputs": [],
      "name": "governance",
      "outputs": [
        {
          "internalType": "address",
          "name": "",
          "type": "address"
        }
      ],
      "stateMutability": "view",
      "type": "function"
    },
    {
      "inputs": [],
      "name": "governanceSettings",
      "outputs": [
        {
          "internalType": "contract IGovernanceSettings",
          "name": "",
          "type": "address"
        }
      ],
      "stateMutability": "view",
      "type": "function"
    },
    {
      "inputs": [
        {
          "internalType": "contract IGovernanceSettings",
          "name": "_governanceSettings",
          "type": "address"
        },
        {
          "internalType": "address",
          "name": "_initialGovernance",
          "type": "address"
        }
      ],
      "name": "initialise",
      "outputs": [],
      "stateMutability": "nonpayable",
      "type": "function"
    },
    {
      "inputs": [
        {
          "internalType": "address",
          "name": "_address",
          "type": "address"
        }
      ],
      "name": "isExecutor",
      "outputs": [
        {
          "internalType": "bool",
          "name": "",
          "type": "bool"
        }
      ],
      "stateMutability": "view",
      "type": "function"
    },
    {
      "inputs": [],
      "name": "lastInflationAuthorizationReceivedTs",
      "outputs": [
        {
          "internalType": "uint256",
          "name": "",
          "type": "uint256"
        }
      ],
      "stateMutability": "view",
      "type": "function"
    },
    {
      "inputs": [],
      "name": "lastInflationReceivedTs",
      "outputs": [
        {
          "internalType": "uint256",
          "name": "",
          "type": "uint256"
        }
      ],
      "stateMutability": "view",
      "type": "function"
    },
    {
      "inputs": [
        {
          "components": [
            {
              "internalType": "Range",
              "name": "rangeIncrease",
              "type": "uint256"
            },
            {
              "internalType": "Range",
              "name": "rangeLimit",
              "type": "uint256"
            }
          ],
          "internalType": "struct IFastUpdateIncentiveManager.IncentiveOffer",
          "name": "_offer",
          "type": "tuple"
        }
      ],
      "name": "offerIncentive",
      "outputs": [],
      "stateMutability": "payable",
      "type": "function"
    },
    {
      "inputs": [],
      "name": "productionMode",
      "outputs": [
        {
          "internalType": "bool",
          "name": "",
          "type": "bool"
        }
      ],
      "stateMutability": "view",
      "type": "function"
    },
    {
      "inputs": [],
      "name": "rangeIncreaseLimit",
      "outputs": [
        {
          "internalType": "Range",
          "name": "",
          "type": "uint256"
        }
      ],
      "stateMutability": "view",
      "type": "function"
    },
    {
      "inputs": [],
      "name": "rangeIncreasePrice",
      "outputs": [
        {
          "internalType": "Fee",
          "name": "",
          "type": "uint256"
        }
      ],
      "stateMutability": "view",
      "type": "function"
    },
    {
      "inputs": [],
      "name": "receiveInflation",
      "outputs": [],
      "stateMutability": "payable",
      "type": "function"
    },
    {
      "inputs": [],
      "name": "rewardManager",
      "outputs": [
        {
          "internalType": "contract IIRewardManager",
          "name": "",
          "type": "address"
        }
      ],
      "stateMutability": "view",
      "type": "function"
    },
    {
      "inputs": [],
      "name": "sampleIncreaseLimit",
      "outputs": [
        {
          "internalType": "SampleSize",
          "name": "",
          "type": "uint256"
        }
      ],
      "stateMutability": "view",
      "type": "function"
    },
    {
      "inputs": [
        {
          "internalType": "uint256",
          "name": "_toAuthorizeWei",
          "type": "uint256"
        }
      ],
      "name": "setDailyAuthorizedInflation",
      "outputs": [],
      "stateMutability": "nonpayable",
      "type": "function"
    },
    {
      "inputs": [
        {
          "internalType": "SampleSize",
          "name": "_ss",
          "type": "uint256"
        },
        {
          "internalType": "Range",
          "name": "_r",
          "type": "uint256"
        },
        {
          "internalType": "Fee",
          "name": "_x",
          "type": "uint256"
        },
        {
          "internalType": "uint256",
          "name": "_dur",
          "type": "uint256"
        }
      ],
      "name": "setIncentiveParameters",
      "outputs": [],
      "stateMutability": "nonpayable",
      "type": "function"
    },
    {
      "inputs": [
        {
          "internalType": "Range",
          "name": "_lim",
          "type": "uint256"
        }
      ],
      "name": "setRangeIncreaseLimit",
      "outputs": [],
      "stateMutability": "nonpayable",
      "type": "function"
    },
    {
      "inputs": [
        {
          "internalType": "Fee",
          "name": "_price",
          "type": "uint256"
        }
      ],
      "name": "setRangeIncreasePrice",
      "outputs": [],
      "stateMutability": "nonpayable",
      "type": "function"
    },
    {
      "inputs": [
        {
          "internalType": "SampleSize",
          "name": "_lim",
          "type": "uint256"
        }
      ],
      "name": "setSampleIncreaseLimit",
      "outputs": [],
      "stateMutability": "nonpayable",
      "type": "function"
    },
    {
      "inputs": [],
      "name": "switchToProductionMode",
      "outputs": [],
      "stateMutability": "nonpayable",
      "type": "function"
    },
    {
      "inputs": [
        {
          "internalType": "bytes4",
          "name": "selector",
          "type": "bytes4"
        }
      ],
      "name": "timelockedCalls",
      "outputs": [
        {
          "internalType": "uint256",
          "name": "allowedAfterTimestamp",
          "type": "uint256"
        },
        {
          "internalType": "bytes",
          "name": "encodedCall",
          "type": "bytes"
        }
      ],
      "stateMutability": "view",
      "type": "function"
    },
    {
      "inputs": [],
      "name": "totalInflationAuthorizedWei",
      "outputs": [
        {
          "internalType": "uint256",
          "name": "",
          "type": "uint256"
        }
      ],
      "stateMutability": "view",
      "type": "function"
    },
    {
      "inputs": [],
      "name": "totalInflationReceivedWei",
      "outputs": [
        {
          "internalType": "uint256",
          "name": "",
          "type": "uint256"
        }
      ],
      "stateMutability": "view",
      "type": "function"
    },
    {
      "inputs": [],
      "name": "totalInflationRewardsOfferedWei",
      "outputs": [
        {
          "internalType": "uint256",
          "name": "",
          "type": "uint256"
        }
      ],
      "stateMutability": "view",
      "type": "function"
    },
    {
      "inputs": [
        {
          "internalType": "uint24",
          "name": "_currentRewardEpochId",
          "type": "uint24"
        },
        {
          "internalType": "uint64",
          "name": "_currentRewardEpochExpectedEndTs",
          "type": "uint64"
        },
        {
          "internalType": "uint64",
          "name": "_rewardEpochDurationSeconds",
          "type": "uint64"
        }
      ],
      "name": "triggerRewardEpochSwitchover",
      "outputs": [],
      "stateMutability": "nonpayable",
      "type": "function"
    },
    {
      "inputs": [
        {
          "internalType": "bytes32[]",
          "name": "_contractNameHashes",
          "type": "bytes32[]"
        },
        {
          "internalType": "address[]",
          "name": "_contractAddresses",
          "type": "address[]"
        }
      ],
      "name": "updateContractAddresses",
      "outputs": [],
      "stateMutability": "nonpayable",
      "type": "function"
    }
  ],
  "bytecode": "0x60806040523480156200001157600080fd5b5060405162003e2938038062003e29833981016040819052620000349162000a54565b898989808084848d8d8b8a806200004b81620000fb565b506200005a848484846200017c565b505050506200007082826200029c60201b60201c565b506200009c9050817f714f205b2abd25bef1d06a1af944e38c113fe6160375c4e1d6d5cf28848e771955565b5050505050620000b48685846200041160201b60201c565b620000c084886200054d565b620000cb85620005d3565b620000d68462000631565b620000e1826200068f565b620000eb620006ed565b5050505050505050505062000b3d565b60008111620001775760405162461bcd60e51b815260206004820152603b60248201527f43697263756c61724c6973744d616e616765723a2063697263756c6172206c6560448201527f6e677468206d7573742062652067726561746572207468616e2030000000000060648201526084015b60405180910390fd5b600055565b620001878462000709565b620001928362000767565b828411620001ef5760405162461bcd60e51b815260206004820152602360248201527f52616e6765206d757374206265206c657373207468616e2073616d706c652073604482015262697a6560e81b60648201526084016200016e565b60006066620001ff8587620007b7565b901c11620002765760405162461bcd60e51b815260206004820152603760248201527f507265636973696f6e2076616c7565206f662075706461746573206e6565647360448201527f20746f206265206174206c6561737420325e282d32352900000000000000000060648201526084016200016e565b6200028182620007dd565b6200028c81620000fb565b620002966200083b565b50505050565b600754600160a01b900460ff1615620002f85760405162461bcd60e51b815260206004820152601460248201527f696e697469616c6973656420213d2066616c736500000000000000000000000060448201526064016200016e565b6001600160a01b038216620003505760405162461bcd60e51b815260206004820152601860248201527f676f7665726e616e63652073657474696e6773207a65726f000000000000000060448201526064016200016e565b6001600160a01b0381166200039b5760405162461bcd60e51b815260206004820152601060248201526f5f676f7665726e616e6365207a65726f60801b60448201526064016200016e565b600780546001600160a01b038481166001600160a81b031990921691909117600160a01b17909155600880549183166001600160a01b0319909216821790556040519081527f9789733827840833afc031fb2ef9ab6894271f77bad2085687cf4ae5c7bee4db9060200160405180910390a15050565b81831115620004895760405162461bcd60e51b815260206004820152603560248201527f52616e67652063616e6e6f742062652067726561746572207468616e2074686560448201527f2072616e676520696e637265617365206c696d6974000000000000000000000060648201526084016200016e565b620004ae6000620004aa83620004a3620f42408862000b04565b0260781c90565b1190565b620005485760405162461bcd60e51b815260206004820152605d60248201527f52616e676520696e63726561736520707269636520746f6f206c6f772c20726160448201527f6e676520696e637265617365206f662031652d36206f6620626173652072616e60648201527f67652073686f756c6420636f7374206174206c65617374203120776569000000608482015260a4016200016e565b505050565b818111620005cf5760405162461bcd60e51b815260206004820152604260248201527f506172616d65746572732073686f756c64206e6f7420616c6c6f77206d616b6960448201527f6e672074686520707265636973696f6e2067726561746572207468616e203130606482015261302560f01b608482015260a4016200016e565b5050565b620005de8162000984565b6200062c5760405162461bcd60e51b815260206004820152601f60248201527f53616d706c6520696e637265617365206c696d697420746f6f206c617267650060448201526064016200016e565b601555565b6200063c8162000984565b6200068a5760405162461bcd60e51b815260206004820152601e60248201527f52616e676520696e637265617365206c696d697420746f6f206c61726765000060448201526064016200016e565b601655565b6200069a8162000984565b620006e85760405162461bcd60e51b815260206004820152601e60248201527f52616e676520696e63726561736520707269636520746f6f206c61726765000060448201526064016200016e565b601755565b62000704620006fb6200099a565b6001607f1b0190565b601855565b620007148162000984565b620007625760405162461bcd60e51b815260206004820152601560248201527f53616d706c652073697a6520746f6f206c61726765000000000000000000000060448201526064016200016e565b600455565b620007728162000984565b620007b25760405162461bcd60e51b815260206004820152600f60248201526e52616e676520746f6f206c6172676560881b60448201526064016200016e565b600555565b6000607f83901b8282818381620007d257620007d262000aee565b049695505050505050565b620007e88162000984565b620008365760405162461bcd60e51b815260206004820152601c60248201527f457863657373206f666665722076616c756520746f6f206c617267650000000060448201526064016200016e565b600655565b6200084960016000620009b7565b6200085760026000620009b7565b6200086560036000620009b7565b6000546001600160401b0381111562000882576200088262000b27565b604051908082528060200260200182016040528015620008ac578160200160208202803683370190505b508051620008c391600191602090910190620009d7565b506000546001600160401b03811115620008e157620008e162000b27565b6040519080825280602002602001820160405280156200090b578160200160208202803683370190505b5080516200092291600291602090910190620009d7565b506000546001600160401b0381111562000940576200094062000b27565b6040519080825280602002602001820160405280156200096a578160200160208202803683370190505b5080516200098191600391602090910190620009d7565b50565b60006200099482600160801b1190565b92915050565b6000620009b2600554600454620007b760201b60201c565b905090565b508054600082559060005260206000209081019062000981919062000a27565b82805482825590600052602060002090810192821562000a15579160200282015b8281111562000a15578251825591602001919060010190620009f8565b5062000a2392915062000a27565b5090565b5b8082111562000a23576000815560010162000a28565b6001600160a01b03811681146200098157600080fd5b6000806000806000806000806000806101408b8d03121562000a7557600080fd5b8a5162000a828162000a3e565b60208c0151909a5062000a958162000a3e565b60408c015190995062000aa88162000a3e565b8098505060608b0151965060808b0151955060a08b0151945060c08b0151935060e08b015192506101008b015191506101208b015190509295989b9194979a5092959850565b634e487b7160e01b600052601260045260246000fd5b60008262000b2257634e487b7160e01b600052601260045260246000fd5b500490565b634e487b7160e01b600052604160045260246000fd5b6132dc8062000b4d6000396000f3fe6080604052600436106102675760003560e01c80639670c0bc11610144578063dd8dca9f116100b6578063ed39d3f81161007a578063ed39d3f8146106b5578063ef88bf13146106d3578063f5a98383146106f3578063f5f5ba7214610708578063f7690bfe14610754578063faae7fc91461077457600080fd5b8063dd8dca9f1461061a578063debfda301461062f578063e17f212e1461065f578063e273956314610680578063ea105ac7146106a057600080fd5b8063b5cddab811610108578063b5cddab814610583578063bd76b69c14610598578063c10f489a146105ae578063d0c1c393146105ce578063d29a4fa9146105e4578063d4ab8f941461060457600080fd5b80639670c0bc1461050e5780639b85961f14610523578063a5555aea14610538578063af04cd3b1461054e578063b00c0b761461056357600080fd5b80635ff27079116101dd57806374e6310e116101a157806374e6310e1461045557806374f3eff91461048357806375d71307146104995780637a68533f146104b9578063864578e8146104ce57806391f25679146104ee57600080fd5b80635ff27079146103ca57806362354e03146103ea57806367fc40291461040a5780636d62b4131461042a578063708e34ce1461043f57600080fd5b80632de490c31161022f5780632de490c31461032d5780633624718014610342578063473252c41461035557806352545a7c1461036b5780635267a15d146103815780635aa6e675146103b557600080fd5b806306201f1d1461026c5780630d6e9537146102765780630f4ef8a61461029657806312afcf0b146102d35780632dafdbbf146102f7575b600080fd5b610274610794565b005b34801561028257600080fd5b50610274610291366004612a38565b6107f6565b3480156102a257600080fd5b506012546102b6906001600160a01b031681565b6040516001600160a01b0390911681526020015b60405180910390f35b3480156102df57600080fd5b506102e9600d5481565b6040519081526020016102ca565b34801561030357600080fd5b50610312600a54601454600092565b604080519384526020840192909252908201526060016102ca565b34801561033957600080fd5b506006546102e9565b610274610350366004612a51565b610866565b34801561036157600080fd5b506102e9600c5481565b34801561037757600080fd5b506102e960175481565b34801561038d57600080fd5b507f714f205b2abd25bef1d06a1af944e38c113fe6160375c4e1d6d5cf28848e7719546102b6565b3480156103c157600080fd5b506102b66109f3565b3480156103d657600080fd5b506102746103e5366004612a63565b610a93565b3480156103f657600080fd5b506007546102b6906001600160a01b031681565b34801561041657600080fd5b50610274610425366004612a63565b610d21565b34801561043657600080fd5b506004546102e9565b34801561044b57600080fd5b506102e9600e5481565b34801561046157600080fd5b50610475610470366004612a63565b610e02565b6040516102ca929190612add565b34801561048f57600080fd5b506102e960165481565b3480156104a557600080fd5b506102746104b4366004612afe565b610ea7565b3480156104c557600080fd5b506018546102e9565b3480156104da57600080fd5b506102746104e9366004612a38565b610f15565b3480156104fa57600080fd5b50610274610509366004612b5d565b610f8c565b34801561051a57600080fd5b506102e9610ff1565b34801561052f57600080fd5b506005546102e9565b34801561054457600080fd5b506102e9600b5481565b34801561055a57600080fd5b506102e9610ffb565b34801561056f57600080fd5b5061027461057e366004612cbc565b611005565b34801561058f57600080fd5b506102e96110e0565b3480156105a457600080fd5b506102e960145481565b3480156105ba57600080fd5b506013546102b6906001600160a01b031681565b3480156105da57600080fd5b506102e9600a5481565b3480156105f057600080fd5b506011546102b6906001600160a01b031681565b34801561061057600080fd5b506102e960155481565b34801561062657600080fd5b506000546102e9565b34801561063b57600080fd5b5061064f61064a366004612d74565b6110f6565b60405190151581526020016102ca565b34801561066b57600080fd5b5060075461064f90600160a81b900460ff1681565b34801561068c57600080fd5b5061027461069b366004612a38565b611181565b3480156106ac57600080fd5b506102746111d9565b3480156106c157600080fd5b50600f546001600160a01b03166102b6565b3480156106df57600080fd5b506102746106ee366004612d91565b61122f565b3480156106ff57600080fd5b50610274611395565b34801561071457600080fd5b50604080518082018252601a81527f46617374557064617465496e63656e746976654d616e61676572000000000000602082015290516102ca9190612dca565b34801561076057600080fd5b5061027461076f366004612a38565b61145b565b34801561078057600080fd5b506010546102b6906001600160a01b031681565b61079c611493565b6107a46114fb565b34600b546107b29190612df3565b600b5542600d556040513481527f95c4e29cc99bc027cfc3cd719d6fd973d5f0317061885fbb322b9b17d8d35d379060200160405180910390a16107f4611546565b565b600754600160b01b900460ff16806108185750600754600160a81b900460ff16155b156108585761082561158d565b600061083c60055461083760026115c5565b900390565b905061084b8160165484611607565b6108548261172e565b5050565b610863600036611788565b50565b61086e611493565b600080600061087c846118d8565b9250925092506000601260009054906101000a90046001600160a01b03166001600160a01b031663705626976040518163ffffffff1660e01b8152600401602060405180830381865afa1580156108d7573d6000803e3d6000fd5b505050506040513d601f19601f820116820180604052508101906108fb9190612e06565b60125460405163a02e86e560e01b815262ffffff83166004820152600060248201529192506001600160a01b03169063a02e86e59086906044016000604051808303818588803b15801561094e57600080fd5b505af1158015610962573d6000803e3d6000fd5b5050604080518781526020810187905290810188905262ffffff851693507f1c5543607841f3a87aa841c3bfa973bf64f4d545b1d9c12af3cd5831ecf826039250606001905060405180910390a2336108fc6109be8634612e23565b6040518115909202916000818181858888f193505050501580156109e6573d6000803e3d6000fd5b5050505050610863611546565b600754600090600160a81b900460ff16610a1757506008546001600160a01b031690565b600760009054906101000a90046001600160a01b03166001600160a01b031663732524946040518163ffffffff1660e01b8152600401602060405180830381865afa158015610a6a573d6000803e3d6000fd5b505050506040513d601f19601f82011682018060405250810190610a8e9190612e36565b905090565b610a9c336110f6565b610add5760405162461bcd60e51b815260206004820152600d60248201526c37b7363c9032bc32b1baba37b960991b60448201526064015b60405180910390fd5b6001600160e01b0319811660009081526009602052604081208054909103610b475760405162461bcd60e51b815260206004820152601a60248201527f74696d656c6f636b3a20696e76616c69642073656c6563746f720000000000006044820152606401610ad4565b8054421015610b985760405162461bcd60e51b815260206004820152601960248201527f74696d656c6f636b3a206e6f7420616c6c6f77656420796574000000000000006044820152606401610ad4565b6000816001018054610ba990612e53565b80601f0160208091040260200160405190810160405280929190818152602001828054610bd590612e53565b8015610c225780601f10610bf757610100808354040283529160200191610c22565b820191906000526020600020905b815481529060010190602001808311610c0557829003601f168201915b505050506001600160e01b0319851660009081526009602052604081208181559293509050610c546001830182612980565b50506007805460ff60b01b1916600160b01b1790556040516000903090610c7c908490612e87565b6000604051808303816000865af19150503d8060008114610cb9576040519150601f19603f3d011682016040523d82523d6000602084013e610cbe565b606091505b50506007805460ff60b01b19169055604080516001600160e01b0319871681524260208201529192507fa7326b57fc9cfe267aaea5e7f0b01757154d265620a0585819416ee9ddd2c438910160405180910390a1610d1b81611af6565b50505050565b610d29611b13565b6001600160e01b031981166000908152600960205260408120549003610d915760405162461bcd60e51b815260206004820152601a60248201527f74696d656c6f636b3a20696e76616c69642073656c6563746f720000000000006044820152606401610ad4565b604080516001600160e01b0319831681524260208201527f7735b2391c38a81419c513e30ca578db7158eadd7101511b23e221c654d19cf8910160405180910390a16001600160e01b03198116600090815260096020526040812081815590610dfd6001830182612980565b505050565b60096020526000908152604090208054600182018054919291610e2490612e53565b80601f0160208091040260200160405190810160405280929190818152602001828054610e5090612e53565b8015610e9d5780601f10610e7257610100808354040283529160200191610e9d565b820191906000526020600020905b815481529060010190602001808311610e8057829003601f168201915b5050505050905082565b600754600160b01b900460ff1680610ec95750600754600160a81b900460ff16155b15610f0a57610ed661158d565b610ee583601654601754611607565b610ef160165485611b6d565b610efd84848484611bed565b610f05611cf7565b610d1b565b610d1b600036611788565b600754600160b01b900460ff1680610f375750600754600160a81b900460ff16155b1561085857610f4461158d565b6000610f5660055461083760026115c5565b9050610f658183601754611607565b6000610f776004546108376001611d07565b9050610f838382611b6d565b610dfd83611d34565b6010546001600160a01b03163314610fe65760405162461bcd60e51b815260206004820152601960248201527f6f6e6c7920666c6172652073797374656d206d616e61676572000000000000006044820152606401610ad4565b610dfd838383611d8e565b6000610a8e611f6b565b6000610a8e611f7b565b7f714f205b2abd25bef1d06a1af944e38c113fe6160375c4e1d6d5cf28848e7719546001600160a01b0316336001600160a01b03161461107e5760405162461bcd60e51b815260206004820152601460248201527337b7363c9030b2323932b9b9903ab83230ba32b960611b6044820152606401610ad4565b6110d66110b283836040518060400160405280600e81526020016d20b2323932b9b9aab83230ba32b960911b815250611f8d565b7f714f205b2abd25bef1d06a1af944e38c113fe6160375c4e1d6d5cf28848e771955565b610854828261206a565b6000610a8e6110ed611f6b565b6001607f1b0190565b600754600090600160a01b900460ff16801561117b5750600754604051630debfda360e41b81526001600160a01b0384811660048301529091169063debfda3090602401602060405180830381865afa158015611157573d6000803e3d6000fd5b505050506040513d601f19601f8201168201806040525081019061117b9190612ea3565b92915050565b6111896114fb565b600e819055600a5461119c908290612df3565b600a5542600c556040518181527f187f32a0f765499f15b3bb52ed0aebf6015059f230f2ace7e701e60a476695959060200160405180910390a150565b6011546001600160a01b031633146112275760405162461bcd60e51b815260206004820152601160248201527037b7363c903330b9ba103ab83230ba32b960791b6044820152606401610ad4565b6107f4612182565b600754600160a01b900460ff16156112805760405162461bcd60e51b8152602060048201526014602482015273696e697469616c6973656420213d2066616c736560601b6044820152606401610ad4565b6001600160a01b0382166112d65760405162461bcd60e51b815260206004820152601860248201527f676f7665726e616e63652073657474696e6773207a65726f00000000000000006044820152606401610ad4565b6001600160a01b03811661131f5760405162461bcd60e51b815260206004820152601060248201526f5f676f7665726e616e6365207a65726f60801b6044820152606401610ad4565b600780546001600160a01b038481166001600160a81b031990921691909117600160a01b17909155600880549183166001600160a01b0319909216821790556040519081527f9789733827840833afc031fb2ef9ab6894271f77bad2085687cf4ae5c7bee4db9060200160405180910390a15050565b61139d611b13565b600754600160a81b900460ff16156113f75760405162461bcd60e51b815260206004820152601a60248201527f616c726561647920696e2070726f64756374696f6e206d6f64650000000000006044820152606401610ad4565b600880546001600160a01b031916905560078054600160a81b60ff60a81b198216179091556040516001600160a01b0390911681527f83af113638b5422f9e977cebc0aaf0eaf2188eb9a8baae7f9d46c42b33a1560c9060200160405180910390a1565b600754600160b01b900460ff168061147d5750600754600160a81b900460ff16155b156108585761148a61158d565b6108638161225b565b60003461149e611f7b565b6114a89190612df3565b905047818111156114eb5761dead6108fc6114c38484612e23565b6040518115909202916000818181858888f19350505050158015610dfd573d6000803e3d6000fd5b8181101561085457610854612ec5565b600f546001600160a01b031633146107f45760405162461bcd60e51b815260206004820152600e60248201526d696e666c6174696f6e206f6e6c7960901b6044820152606401610ad4565b61154e611f7b565b47146107f45760405162461bcd60e51b815260206004820152600e60248201526d6f7574206f662062616c616e636560901b6044820152606401610ad4565b600754600160b01b900460ff16156115bd573330146115ae576115ae612ec5565b6007805460ff60b01b19169055565b6107f4611b13565b6000805b8254811015611601576115f7828483815481106115e8576115e8612edb565b90600052602060002001540190565b91506001016115c9565b50919050565b818311156116755760405162461bcd60e51b815260206004820152603560248201527f52616e67652063616e6e6f742062652067726561746572207468616e20746865604482015274081c985b99d9481a5b98dc99585cd9481b1a5b5a5d605a1b6064820152608401610ad4565b61169660006116928361168b620f424088612f07565b0260781c90565b1190565b610dfd5760405162461bcd60e51b815260206004820152605d60248201527f52616e676520696e63726561736520707269636520746f6f206c6f772c20726160448201527f6e676520696e637265617365206f662031652d36206f6620626173652072616e60648201527f67652073686f756c6420636f7374206174206c65617374203120776569000000608482015260a401610ad4565b611737816122b5565b6117835760405162461bcd60e51b815260206004820152601e60248201527f52616e676520696e63726561736520707269636520746f6f206c6172676500006044820152606401610ad4565b601755565b611790611b13565b60075460408051636221a54b60e01b815290518435926000926001600160a01b0390911691636221a54b916004808201926020929091908290030181865afa1580156117e0573d6000803e3d6000fd5b505050506040513d601f19601f820116820180604052508101906118049190612f1b565b905060006118128242612df3565b9050604051806040016040528082815260200186868080601f01602080910402602001604051908101604052809392919081815260200183838082843760009201829052509390945250506001600160e01b031986168152600960209081526040909120835181559083015190915060018201906118909082612f82565b509050507fed948300a3694aa01d4a6b258bfd664350193d770c0b51f8387277f6d83ea3b6838287876040516118c99493929190613041565b60405180910390a15050505050565b600080803460781c1561193e5760405162461bcd60e51b815260206004820152602860248201527f496e63656e74697665206f666665722076616c75652063617070656420617420604482015267313230206269747360c01b6064820152608401610ad4565b61194884356122b5565b6119945760405162461bcd60e51b815260206004820152601860248201527f52616e676520696e63726561736520746f6f206c6172676500000000000000006044820152606401610ad4565b60055434935084359250820160208501358111156119ed578460200135905060006119c0826005541190565b6119ce5760055482036119d1565b60005b90506119e86119e082866122c4565b860260801c90565b945092505b601654811115611a2e5760165490506000611a09826005541190565b611a17576005548203611a1a565b60005b9050611a296119e082866122c4565b945092505b6000611a3e601754850260781c90565b905084811115611aac5760405162461bcd60e51b815260206004820152603360248201527f496e73756666696369656e7420636f6e747269627574696f6e20746f2070617960448201527220666f722072616e676520696e63726561736560681b6064820152608401610ad4565b611ab5846122e7565b808503858214611aec57611ac88161238b565b611ae1611ad7826006546122c4565b6015540260801c90565b9350611aec8461241d565b5050509193909250565b3d604051818101604052816000823e8215611b0f578181f35b8181fd5b611b1b6109f3565b6001600160a01b0316336001600160a01b0316146107f45760405162461bcd60e51b815260206004820152600f60248201526e6f6e6c7920676f7665726e616e636560881b6044820152606401610ad4565b8181116108545760405162461bcd60e51b815260206004820152604260248201527f506172616d65746572732073686f756c64206e6f7420616c6c6f77206d616b6960448201527f6e672074686520707265636973696f6e2067726561746572207468616e203130606482015261302560f01b608482015260a401610ad4565b611bf6846124a7565b611bff836124f9565b828411611c5a5760405162461bcd60e51b815260206004820152602360248201527f52616e6765206d757374206265206c657373207468616e2073616d706c652073604482015262697a6560e81b6064820152608401610ad4565b60006066611c688587612545565b901c11611cdd5760405162461bcd60e51b815260206004820152603760248201527f507265636973696f6e2076616c7565206f662075706461746573206e6565647360448201527f20746f206265206174206c6561737420325e282d3235290000000000000000006064820152608401610ad4565b611ce68261255d565b611cef816125b7565b610d1b612632565b611d026110ed611f6b565b601855565b6000805b825481101561160157611d2a828483815481106115e8576115e8612edb565b9150600101611d0b565b611d3d816122b5565b611d895760405162461bcd60e51b815260206004820152601e60248201527f52616e676520696e637265617365206c696d697420746f6f206c6172676500006044820152606401610ad4565b601655565b6000611d9b826002613087565b611da590846130b2565b6001600160401b031690506000611dde62015180600d54611dc69190612df3565b611dd085876130b2565b6001600160401b0316612760565b90506000611e106001600160401b038516611df98585612e23565b601454600b54611e099190612e23565b9190612776565b90506000611e1f8760016130d9565b90506000601360009054906101000a90046001600160a01b03166001600160a01b03166331038aad6040518163ffffffff1660e01b8152600401600060405180830381865afa158015611e76573d6000803e3d6000fd5b505050506040513d6000823e601f3d908101601f19168201604052611e9e91908101906130f5565b90508162ffffff167f58575ff9908663af0451165c3cefcb802da242d63261f6d9df3be0e05366e4da8285604051611ed79291906131e9565b60405180910390a28260146000828254611ef19190612df3565b909155505060125460405163a02e86e560e01b815262ffffff84166004820152600160248201526001600160a01b039091169063a02e86e59085906044016000604051808303818588803b158015611f4857600080fd5b505af1158015611f5c573d6000803e3d6000fd5b50505050505050505050505050565b6000610a8e600554600454612545565b6000601454600b54610a8e9190612e23565b60008082604051602001611fa19190612dca565b6040516020818303038152906040528051906020012090506000805b865181101561201957868181518110611fd857611fd8612edb565b6020026020010151830361200757858181518110611ff857611ff8612edb565b60200260200101519150612019565b8061201181613262565b915050611fbd565b506001600160a01b03811661205f5760405162461bcd60e51b815260206004820152600c60248201526b61646472657373207a65726f60a01b6044820152606401610ad4565b9150505b9392505050565b612074828261289c565b6120a282826040518060400160405280600b81526020016a2330b9ba2ab83230ba32b960a91b815250611f8d565b601160006101000a8154816001600160a01b0302191690836001600160a01b031602179055506120f882826040518060400160405280600d81526020016c2932bbb0b93226b0b730b3b2b960991b815250611f8d565b601260006101000a8154816001600160a01b0302191690836001600160a01b0316021790555061215e82826040518060400160405280601881526020017f4661737455706461746573436f6e66696775726174696f6e0000000000000000815250611f8d565b601380546001600160a01b0319166001600160a01b03929092169190911790555050565b6121b26006546003612192612900565b815481106121a2576121a2612edb565b9060005260206000200154900390565b6006556005546121c6906002612192612900565b6005556004546121da906001612192612900565b600455600060016121e9612900565b815481106121f9576121f9612edb565b906000526020600020018190555060006002612213612900565b8154811061222357612223612edb565b90600052602060002001819055506000600361223d612900565b8154811061224d5761224d612edb565b600091825260209091200155565b612264816122b5565b6122b05760405162461bcd60e51b815260206004820152601f60248201527f53616d706c6520696e637265617365206c696d697420746f6f206c61726765006044820152606401610ad4565b601555565b600061117b82600160801b1190565b6000608083901b82828183816122dc576122dc612ef1565b049695505050505050565b61231460026122f461290c565b8154811061230457612304612edb565b9060005260206000200154820190565b600261231e61290c565b8154811061232e5761232e612edb565b6000918252602090912001556005548101600581905561234d906122b5565b6108635760405162461bcd60e51b815260206004820152600f60248201526e52616e676520746f6f206c6172676560881b6044820152606401610ad4565b61239860036122f461290c565b60036123a261290c565b815481106123b2576123b2612edb565b600091825260209091200155600654810160068190556123d1906122b5565b6108635760405162461bcd60e51b815260206004820152601c60248201527f457863657373206f666665722076616c756520746f6f206c61726765000000006044820152606401610ad4565b61242a60016122f461290c565b600161243461290c565b8154811061244457612444612edb565b60009182526020909120015560045481016004819055612463906122b5565b6108635760405162461bcd60e51b815260206004820152601560248201527453616d706c652073697a6520746f6f206c6172676560581b6044820152606401610ad4565b6124b0816122b5565b6124f45760405162461bcd60e51b815260206004820152601560248201527453616d706c652073697a6520746f6f206c6172676560581b6044820152606401610ad4565b600455565b612502816122b5565b6125405760405162461bcd60e51b815260206004820152600f60248201526e52616e676520746f6f206c6172676560881b6044820152606401610ad4565b600555565b6000607f83901b82828183816122dc576122dc612ef1565b612566816122b5565b6125b25760405162461bcd60e51b815260206004820152601c60248201527f457863657373206f666665722076616c756520746f6f206c61726765000000006044820152606401610ad4565b600655565b6000811161262d5760405162461bcd60e51b815260206004820152603b60248201527f43697263756c61724c6973744d616e616765723a2063697263756c6172206c6560448201527f6e677468206d7573742062652067726561746572207468616e203000000000006064820152608401610ad4565b600055565b61263e600160006129ba565b61264a600260006129ba565b612656600360006129ba565b6000546001600160401b0381111561267057612670612ba2565b604051908082528060200260200182016040528015612699578160200160208202803683370190505b5080516126ae916001916020909101906129d8565b506000546001600160401b038111156126c9576126c9612ba2565b6040519080825280602002602001820160405280156126f2578160200160208202803683370190505b508051612707916002916020909101906129d8565b506000546001600160401b0381111561272257612722612ba2565b60405190808252806020026020018201604052801561274b578160200160208202803683370190505b508051610863916003916020909101906129d8565b600081831161276f5781612063565b5090919050565b60008082116127ba5760405162461bcd60e51b815260206004820152601060248201526f4469766973696f6e206279207a65726f60801b6044820152606401610ad4565b836000036127ca57506000612063565b838302838582816127dd576127dd612ef1565b04036127fb578281816127f2576127f2612ef1565b04915050612063565b5060006128088386612f07565b90506000612816848761327b565b905060006128248587612f07565b90506000612832868861327b565b90508561283f828561328f565b6128499190612f07565b612853838561328f565b61285d838761328f565b88612868868961328f565b612872919061328f565b61287c9190612df3565b6128869190612df3565b6128909190612df3565b98975050505050505050565b6128a68282612918565b6128dc828260405180604001604052806013815260200172233630b932a9bcb9ba32b6b9a6b0b730b3b2b960691b815250611f8d565b601080546001600160a01b0319166001600160a01b03929092169190911790555050565b6000610a8e6001612968565b6000610a8e6000612968565b61294482826040518060400160405280600981526020016824b7333630ba34b7b760b91b815250611f8d565b600f80546001600160a01b0319166001600160a01b03929092169190911790555050565b600080546129764384612df3565b61117b919061327b565b50805461298c90612e53565b6000825580601f1061299c575050565b601f0160209004906000526020600020908101906108639190612a23565b50805460008255906000526020600020908101906108639190612a23565b828054828255906000526020600020908101928215612a13579160200282015b82811115612a135782518255916020019190600101906129f8565b50612a1f929150612a23565b5090565b5b80821115612a1f5760008155600101612a24565b600060208284031215612a4a57600080fd5b5035919050565b60006040828403121561160157600080fd5b600060208284031215612a7557600080fd5b81356001600160e01b03198116811461206357600080fd5b60005b83811015612aa8578181015183820152602001612a90565b50506000910152565b60008151808452612ac9816020860160208601612a8d565b601f01601f19169290920160200192915050565b828152604060208201526000612af66040830184612ab1565b949350505050565b60008060008060808587031215612b1457600080fd5b5050823594602084013594506040840135936060013592509050565b62ffffff8116811461086357600080fd5b80356001600160401b0381168114612b5857600080fd5b919050565b600080600060608486031215612b7257600080fd5b8335612b7d81612b30565b9250612b8b60208501612b41565b9150612b9960408501612b41565b90509250925092565b634e487b7160e01b600052604160045260246000fd5b604051606081016001600160401b0381118282101715612bda57612bda612ba2565b60405290565b604051601f8201601f191681016001600160401b0381118282101715612c0857612c08612ba2565b604052919050565b60006001600160401b03821115612c2957612c29612ba2565b5060051b60200190565b6001600160a01b038116811461086357600080fd5b600082601f830112612c5957600080fd5b81356020612c6e612c6983612c10565b612be0565b82815260059290921b84018101918181019086841115612c8d57600080fd5b8286015b84811015612cb1578035612ca481612c33565b8352918301918301612c91565b509695505050505050565b60008060408385031215612ccf57600080fd5b82356001600160401b0380821115612ce657600080fd5b818501915085601f830112612cfa57600080fd5b81356020612d0a612c6983612c10565b82815260059290921b84018101918181019089841115612d2957600080fd5b948201945b83861015612d4757853582529482019490820190612d2e565b96505086013592505080821115612d5d57600080fd5b50612d6a85828601612c48565b9150509250929050565b600060208284031215612d8657600080fd5b813561206381612c33565b60008060408385031215612da457600080fd5b8235612daf81612c33565b91506020830135612dbf81612c33565b809150509250929050565b6020815260006120636020830184612ab1565b634e487b7160e01b600052601160045260246000fd5b8082018082111561117b5761117b612ddd565b600060208284031215612e1857600080fd5b815161206381612b30565b8181038181111561117b5761117b612ddd565b600060208284031215612e4857600080fd5b815161206381612c33565b600181811c90821680612e6757607f821691505b60208210810361160157634e487b7160e01b600052602260045260246000fd5b60008251612e99818460208701612a8d565b9190910192915050565b600060208284031215612eb557600080fd5b8151801515811461206357600080fd5b634e487b7160e01b600052600160045260246000fd5b634e487b7160e01b600052603260045260246000fd5b634e487b7160e01b600052601260045260246000fd5b600082612f1657612f16612ef1565b500490565b600060208284031215612f2d57600080fd5b5051919050565b601f821115610dfd57600081815260208120601f850160051c81016020861015612f5b5750805b601f850160051c820191505b81811015612f7a57828155600101612f67565b505050505050565b81516001600160401b03811115612f9b57612f9b612ba2565b612faf81612fa98454612e53565b84612f34565b602080601f831160018114612fe45760008415612fcc5750858301515b600019600386901b1c1916600185901b178555612f7a565b600085815260208120601f198616915b8281101561301357888601518255948401946001909101908401612ff4565b50858210156130315787850151600019600388901b60f8161c191681555b5050505050600190811b01905550565b63ffffffff60e01b8516815283602082015260606040820152816060820152818360808301376000818301608090810191909152601f909201601f191601019392505050565b6001600160401b038181168382160280821691908281146130aa576130aa612ddd565b505092915050565b6001600160401b038281168282160390808211156130d2576130d2612ddd565b5092915050565b62ffffff8181168382160190808211156130d2576130d2612ddd565b6000602080838503121561310857600080fd5b82516001600160401b0381111561311e57600080fd5b8301601f8101851361312f57600080fd5b805161313d612c6982612c10565b8181526060918202830184019184820191908884111561315c57600080fd5b938501935b838510156131dd5780858a0312156131795760008081fd5b613181612bb8565b85516affffffffffffffffffffff198116811461319e5760008081fd5b81528587015163ffffffff811681146131b75760008081fd5b818801526040868101516131ca81612b30565b9082015283529384019391850191613161565b50979650505050505050565b6040808252835182820181905260009190606090818501906020808901865b8381101561324e57815180516affffffffffffffffffffff191686528381015163ffffffff168487015287015162ffffff16878601529385019390820190600101613208565b505095909501959095525092949350505050565b60006001820161327457613274612ddd565b5060010190565b60008261328a5761328a612ef1565b500690565b808202811582820484141761117b5761117b612ddd56fea264697066735822122026b1ad371c79d9151c39dcfe3beb7c10ad2592c237d2b2cdf13f4d19fd1535a264736f6c63430008140033",
  "linkReferences": {},
  "deployedLinkReferences": {}
}