{
  "_format": "hh-sol-artifact-1",
  "contractName": "FastUpdater",
  "sourceName": "contracts/fastUpdates/implementation/FastUpdater.sol",
  "abi": [
    {
      "inputs": [
        {
          "internalType": "contract IGovernanceSettings",
          "name": "_governanceSettings",
          "type": "address"
        },
        {
          "internalType": "address",
          "name": "_initialGovernance",
          "type": "address"
        },
        {
          "internalType": "address",
          "name": "_addressUpdater",
          "type": "address"
        },
        {
          "internalType": "address",
          "name": "_flareDaemon",
          "type": "address"
        },
        {
          "internalType": "uint32",
          "name": "_firstVotingRoundStartTs",
          "type": "uint32"
        },
        {
          "internalType": "uint8",
          "name": "_votingEpochDurationSeconds",
          "type": "uint8"
        },
        {
          "internalType": "uint8",
          "name": "_submissionWindow",
          "type": "uint8"
        }
      ],
      "stateMutability": "nonpayable",
      "type": "constructor"
    },
    {
      "inputs": [],
      "name": "ECDSAInvalidSignature",
      "type": "error"
    },
    {
      "inputs": [
        {
          "internalType": "uint256",
          "name": "length",
          "type": "uint256"
        }
      ],
      "name": "ECDSAInvalidSignatureLength",
      "type": "error"
    },
    {
      "inputs": [
        {
          "internalType": "bytes32",
          "name": "s",
          "type": "bytes32"
        }
      ],
      "name": "ECDSAInvalidSignatureS",
      "type": "error"
    },
    {
      "anonymous": false,
      "inputs": [
        {
          "indexed": true,
          "internalType": "uint256",
          "name": "index",
          "type": "uint256"
        }
      ],
      "name": "FastUpdateFeedRemoved",
      "type": "event"
    },
    {
      "anonymous": false,
      "inputs": [
        {
          "indexed": true,
          "internalType": "uint256",
          "name": "votingRoundId",
          "type": "uint256"
        },
        {
          "indexed": true,
          "internalType": "uint256",
          "name": "index",
          "type": "uint256"
        },
        {
          "indexed": true,
          "internalType": "bytes21",
          "name": "id",
          "type": "bytes21"
        },
        {
          "indexed": false,
          "internalType": "uint256",
          "name": "value",
          "type": "uint256"
        },
        {
          "indexed": false,
          "internalType": "int8",
          "name": "decimals",
          "type": "int8"
        }
      ],
      "name": "FastUpdateFeedReset",
      "type": "event"
    },
    {
      "anonymous": false,
      "inputs": [
        {
          "indexed": true,
          "internalType": "uint256",
          "name": "votingEpochId",
          "type": "uint256"
        },
        {
          "indexed": false,
          "internalType": "uint256[]",
          "name": "feeds",
          "type": "uint256[]"
        },
        {
          "indexed": false,
          "internalType": "int8[]",
          "name": "decimals",
          "type": "int8[]"
        }
      ],
      "name": "FastUpdateFeeds",
      "type": "event"
    },
    {
      "anonymous": false,
      "inputs": [
        {
          "indexed": true,
          "internalType": "uint32",
          "name": "votingRoundId",
          "type": "uint32"
        },
        {
          "indexed": true,
          "internalType": "address",
          "name": "signingPolicyAddress",
          "type": "address"
        }
      ],
      "name": "FastUpdateFeedsSubmitted",
      "type": "event"
    },
    {
      "anonymous": false,
      "inputs": [
        {
          "indexed": false,
          "internalType": "bytes4",
          "name": "selector",
          "type": "bytes4"
        },
        {
          "indexed": false,
          "internalType": "uint256",
          "name": "allowedAfterTimestamp",
          "type": "uint256"
        },
        {
          "indexed": false,
          "internalType": "bytes",
          "name": "encodedCall",
          "type": "bytes"
        }
      ],
      "name": "GovernanceCallTimelocked",
      "type": "event"
    },
    {
      "anonymous": false,
      "inputs": [
        {
          "indexed": false,
          "internalType": "address",
          "name": "initialGovernance",
          "type": "address"
        }
      ],
      "name": "GovernanceInitialised",
      "type": "event"
    },
    {
      "anonymous": false,
      "inputs": [
        {
          "indexed": false,
          "internalType": "address",
          "name": "governanceSettings",
          "type": "address"
        }
      ],
      "name": "GovernedProductionModeEntered",
      "type": "event"
    },
    {
      "anonymous": false,
      "inputs": [
        {
          "indexed": false,
          "internalType": "bytes4",
          "name": "selector",
          "type": "bytes4"
        },
        {
          "indexed": false,
          "internalType": "uint256",
          "name": "timestamp",
          "type": "uint256"
        }
      ],
      "name": "TimelockedGovernanceCallCanceled",
      "type": "event"
    },
    {
      "anonymous": false,
      "inputs": [
        {
          "indexed": false,
          "internalType": "bytes4",
          "name": "selector",
          "type": "bytes4"
        },
        {
          "indexed": false,
          "internalType": "uint256",
          "name": "timestamp",
          "type": "uint256"
        }
      ],
      "name": "TimelockedGovernanceCallExecuted",
      "type": "event"
    },
    {
      "inputs": [],
      "name": "MAX_BLOCKS_HISTORY",
      "outputs": [
        {
          "internalType": "uint256",
          "name": "",
          "type": "uint256"
        }
      ],
      "stateMutability": "view",
      "type": "function"
    },
    {
      "inputs": [],
      "name": "MAX_FEED_AGE_IN_VOTING_EPOCHS",
      "outputs": [
        {
          "internalType": "uint256",
          "name": "",
          "type": "uint256"
        }
      ],
      "stateMutability": "view",
      "type": "function"
    },
    {
      "inputs": [
        {
          "internalType": "uint256",
          "name": "_blockNum",
          "type": "uint256"
        }
      ],
      "name": "blockScoreCutoff",
      "outputs": [
        {
          "internalType": "uint256",
          "name": "_cutoff",
          "type": "uint256"
        }
      ],
      "stateMutability": "view",
      "type": "function"
    },
    {
      "inputs": [
        {
          "internalType": "bytes4",
          "name": "_selector",
          "type": "bytes4"
        }
      ],
      "name": "cancelGovernanceCall",
      "outputs": [],
      "stateMutability": "nonpayable",
      "type": "function"
    },
    {
      "inputs": [],
      "name": "currentRewardEpochId",
      "outputs": [
        {
          "internalType": "uint24",
          "name": "",
          "type": "uint24"
        }
      ],
      "stateMutability": "view",
      "type": "function"
    },
    {
      "inputs": [],
      "name": "currentScoreCutoff",
      "outputs": [
        {
          "internalType": "uint256",
          "name": "_cutoff",
          "type": "uint256"
        }
      ],
      "stateMutability": "view",
      "type": "function"
    },
    {
      "inputs": [
        {
          "internalType": "address",
          "name": "_signingPolicyAddress",
          "type": "address"
        }
      ],
      "name": "currentSortitionWeight",
      "outputs": [
        {
          "internalType": "uint256",
          "name": "_weight",
          "type": "uint256"
        }
      ],
      "stateMutability": "view",
      "type": "function"
    },
    {
      "inputs": [],
      "name": "daemonize",
      "outputs": [
        {
          "internalType": "bool",
          "name": "",
          "type": "bool"
        }
      ],
      "stateMutability": "nonpayable",
      "type": "function"
    },
    {
      "inputs": [
        {
          "internalType": "bytes4",
          "name": "_selector",
          "type": "bytes4"
        }
      ],
      "name": "executeGovernanceCall",
      "outputs": [],
      "stateMutability": "nonpayable",
      "type": "function"
    },
    {
      "inputs": [],
      "name": "fastUpdateIncentiveManager",
      "outputs": [
        {
          "internalType": "contract IIFastUpdateIncentiveManager",
          "name": "",
          "type": "address"
        }
      ],
      "stateMutability": "view",
      "type": "function"
    },
    {
      "inputs": [],
      "name": "fastUpdatesConfiguration",
      "outputs": [
        {
          "internalType": "contract IFastUpdatesConfiguration",
          "name": "",
          "type": "address"
        }
      ],
      "stateMutability": "view",
      "type": "function"
    },
    {
      "inputs": [],
      "name": "fetchAllCurrentFeeds",
      "outputs": [
        {
          "internalType": "bytes21[]",
          "name": "_feedIds",
          "type": "bytes21[]"
        },
        {
          "internalType": "uint256[]",
          "name": "_feeds",
          "type": "uint256[]"
        },
        {
          "internalType": "int8[]",
          "name": "_decimals",
          "type": "int8[]"
        },
        {
          "internalType": "uint64",
          "name": "_timestamp",
          "type": "uint64"
        }
      ],
      "stateMutability": "view",
      "type": "function"
    },
    {
      "inputs": [
        {
          "internalType": "uint256[]",
          "name": "_indices",
          "type": "uint256[]"
        }
      ],
      "name": "fetchCurrentFeeds",
      "outputs": [
        {
          "internalType": "uint256[]",
          "name": "_feeds",
          "type": "uint256[]"
        },
        {
          "internalType": "int8[]",
          "name": "_decimals",
          "type": "int8[]"
        },
        {
          "internalType": "uint64",
          "name": "_timestamp",
          "type": "uint64"
        }
      ],
      "stateMutability": "view",
      "type": "function"
    },
    {
      "inputs": [],
      "name": "firstVotingRoundStartTs",
      "outputs": [
        {
          "internalType": "uint64",
          "name": "",
          "type": "uint64"
        }
      ],
      "stateMutability": "view",
      "type": "function"
    },
    {
      "inputs": [],
      "name": "flareDaemon",
      "outputs": [
        {
          "internalType": "address",
          "name": "",
          "type": "address"
        }
      ],
      "stateMutability": "view",
      "type": "function"
    },
    {
      "inputs": [],
      "name": "flareSystemsManager",
      "outputs": [
        {
          "internalType": "contract IFlareSystemsManager",
          "name": "",
          "type": "address"
        }
      ],
      "stateMutability": "view",
      "type": "function"
    },
    {
      "inputs": [],
      "name": "ftsoFeedPublisher",
      "outputs": [
        {
          "internalType": "contract IFtsoFeedPublisher",
          "name": "",
          "type": "address"
        }
      ],
      "stateMutability": "view",
      "type": "function"
    },
    {
      "inputs": [],
      "name": "getAddressUpdater",
      "outputs": [
        {
          "internalType": "address",
          "name": "_addressUpdater",
          "type": "address"
        }
      ],
      "stateMutability": "view",
      "type": "function"
    },
    {
      "inputs": [],
      "name": "getContractName",
      "outputs": [
        {
          "internalType": "string",
          "name": "",
          "type": "string"
        }
      ],
      "stateMutability": "pure",
      "type": "function"
    },
    {
      "inputs": [],
      "name": "governance",
      "outputs": [
        {
          "internalType": "address",
          "name": "",
          "type": "address"
        }
      ],
      "stateMutability": "view",
      "type": "function"
    },
    {
      "inputs": [],
      "name": "governanceSettings",
      "outputs": [
        {
          "internalType": "contract IGovernanceSettings",
          "name": "",
          "type": "address"
        }
      ],
      "stateMutability": "view",
      "type": "function"
    },
    {
      "inputs": [
        {
          "internalType": "contract IGovernanceSettings",
          "name": "_governanceSettings",
          "type": "address"
        },
        {
          "internalType": "address",
          "name": "_initialGovernance",
          "type": "address"
        }
      ],
      "name": "initialise",
      "outputs": [],
      "stateMutability": "nonpayable",
      "type": "function"
    },
    {
      "inputs": [
        {
          "internalType": "address",
          "name": "_address",
          "type": "address"
        }
      ],
      "name": "isExecutor",
      "outputs": [
        {
          "internalType": "bool",
          "name": "",
          "type": "bool"
        }
      ],
      "stateMutability": "view",
      "type": "function"
    },
    {
      "inputs": [
        {
          "internalType": "uint256",
          "name": "_historySize",
          "type": "uint256"
        }
      ],
      "name": "numberOfUpdates",
      "outputs": [
        {
          "internalType": "uint256[]",
          "name": "_noOfUpdates",
          "type": "uint256[]"
        }
      ],
      "stateMutability": "view",
      "type": "function"
    },
    {
      "inputs": [
        {
          "internalType": "uint256",
          "name": "_blockNumber",
          "type": "uint256"
        }
      ],
      "name": "numberOfUpdatesInBlock",
      "outputs": [
        {
          "internalType": "uint256",
          "name": "",
          "type": "uint256"
        }
      ],
      "stateMutability": "view",
      "type": "function"
    },
    {
      "inputs": [],
      "name": "productionMode",
      "outputs": [
        {
          "internalType": "bool",
          "name": "",
          "type": "bool"
        }
      ],
      "stateMutability": "view",
      "type": "function"
    },
    {
      "inputs": [
        {
          "internalType": "uint256[]",
          "name": "_indices",
          "type": "uint256[]"
        }
      ],
      "name": "removeFeeds",
      "outputs": [],
      "stateMutability": "nonpayable",
      "type": "function"
    },
    {
      "inputs": [
        {
          "internalType": "uint256[]",
          "name": "_indices",
          "type": "uint256[]"
        }
      ],
      "name": "resetFeeds",
      "outputs": [],
      "stateMutability": "nonpayable",
      "type": "function"
    },
    {
      "inputs": [
        {
          "internalType": "uint8",
          "name": "_submissionWindow",
          "type": "uint8"
        }
      ],
      "name": "setSubmissionWindow",
      "outputs": [],
      "stateMutability": "nonpayable",
      "type": "function"
    },
    {
      "inputs": [],
      "name": "submissionWindow",
      "outputs": [
        {
          "internalType": "uint8",
          "name": "",
          "type": "uint8"
        }
      ],
      "stateMutability": "view",
      "type": "function"
    },
    {
      "inputs": [
        {
          "components": [
            {
              "internalType": "uint256",
              "name": "sortitionBlock",
              "type": "uint256"
            },
            {
              "components": [
                {
                  "internalType": "uint256",
                  "name": "replicate",
                  "type": "uint256"
                },
                {
                  "components": [
                    {
                      "internalType": "uint256",
                      "name": "x",
                      "type": "uint256"
                    },
                    {
                      "internalType": "uint256",
                      "name": "y",
                      "type": "uint256"
                    }
                  ],
                  "internalType": "struct Bn256.G1Point",
                  "name": "gamma",
                  "type": "tuple"
                },
                {
                  "internalType": "uint256",
                  "name": "c",
                  "type": "uint256"
                },
                {
                  "internalType": "uint256",
                  "name": "s",
                  "type": "uint256"
                }
              ],
              "internalType": "struct SortitionCredential",
              "name": "sortitionCredential",
              "type": "tuple"
            },
            {
              "internalType": "bytes",
              "name": "deltas",
              "type": "bytes"
            },
            {
              "components": [
                {
                  "internalType": "uint8",
                  "name": "v",
                  "type": "uint8"
                },
                {
                  "internalType": "bytes32",
                  "name": "r",
                  "type": "bytes32"
                },
                {
                  "internalType": "bytes32",
                  "name": "s",
                  "type": "bytes32"
                }
              ],
              "internalType": "struct IFastUpdater.Signature",
              "name": "signature",
              "type": "tuple"
            }
          ],
          "internalType": "struct IFastUpdater.FastUpdates",
          "name": "_updates",
          "type": "tuple"
        }
      ],
      "name": "submitUpdates",
      "outputs": [],
      "stateMutability": "nonpayable",
      "type": "function"
    },
    {
      "inputs": [],
      "name": "switchToFallbackMode",
      "outputs": [
        {
          "internalType": "bool",
          "name": "",
          "type": "bool"
        }
      ],
      "stateMutability": "view",
      "type": "function"
    },
    {
      "inputs": [],
      "name": "switchToProductionMode",
      "outputs": [],
      "stateMutability": "nonpayable",
      "type": "function"
    },
    {
      "inputs": [
        {
          "internalType": "bytes4",
          "name": "selector",
          "type": "bytes4"
        }
      ],
      "name": "timelockedCalls",
      "outputs": [
        {
          "internalType": "uint256",
          "name": "allowedAfterTimestamp",
          "type": "uint256"
        },
        {
          "internalType": "bytes",
          "name": "encodedCall",
          "type": "bytes"
        }
      ],
      "stateMutability": "view",
      "type": "function"
    },
    {
      "inputs": [
        {
          "internalType": "bytes32[]",
          "name": "_contractNameHashes",
          "type": "bytes32[]"
        },
        {
          "internalType": "address[]",
          "name": "_contractAddresses",
          "type": "address[]"
        }
      ],
      "name": "updateContractAddresses",
      "outputs": [],
      "stateMutability": "nonpayable",
      "type": "function"
    },
    {
      "inputs": [
        {
          "internalType": "address",
          "name": "_voter",
          "type": "address"
        },
        {
          "internalType": "bytes32",
          "name": "_part1",
          "type": "bytes32"
        },
        {
          "internalType": "bytes32",
          "name": "_part2",
          "type": "bytes32"
        },
        {
          "internalType": "bytes",
          "name": "_verificationData",
          "type": "bytes"
        }
      ],
      "name": "verifyPublicKey",
      "outputs": [],
      "stateMutability": "view",
      "type": "function"
    },
    {
      "inputs": [],
      "name": "voterRegistry",
      "outputs": [
        {
          "internalType": "contract IIVoterRegistry",
          "name": "",
          "type": "address"
        }
      ],
      "stateMutability": "view",
      "type": "function"
    },
    {
      "inputs": [],
      "name": "votingEpochDurationSeconds",
      "outputs": [
        {
          "internalType": "uint64",
          "name": "",
          "type": "uint64"
        }
      ],
      "stateMutability": "view",
      "type": "function"
    }
  ],
  "bytecode": "0x60e06040526001607f1b600e553480156200001957600080fd5b5060405162006026380380620060268339810160408190526200003c91620005aa565b8487876200004b8282620001d1565b50620000779050817f714f205b2abd25bef1d06a1af944e38c113fe6160375c4e1d6d5cf28848e771955565b506001600160a01b038416620000c85760405162461bcd60e51b8152602060048201526011602482015270666c617265206461656d6f6e207a65726f60781b60448201526064015b60405180910390fd5b60008260ff16116200011d5760405162461bcd60e51b815260206004820152601a60248201527f766f74696e672065706f6368206475726174696f6e207a65726f0000000000006044820152606401620000bf565b6001600160a01b03841660c05263ffffffff831660805260ff821660a0526200014562000346565b6005805463ffffffff929092166401000000000263ffffffff60201b1990921691909117905562000176816200037e565b62000180620003e9565b604080516103e8808252617d20820190925290816020015b6060815260200190600190039081620001985750508051620001c391600f916020909101906200045d565b505050505050505062000837565b600054600160a01b900460ff16156200022d5760405162461bcd60e51b815260206004820152601460248201527f696e697469616c6973656420213d2066616c73650000000000000000000000006044820152606401620000bf565b6001600160a01b038216620002855760405162461bcd60e51b815260206004820152601860248201527f676f7665726e616e63652073657474696e6773207a65726f00000000000000006044820152606401620000bf565b6001600160a01b038116620002d05760405162461bcd60e51b815260206004820152601060248201526f5f676f7665726e616e6365207a65726f60801b6044820152606401620000bf565b600080546001600160a01b038481166001600160a81b031990921691909117600160a01b17909155600180549183166001600160a01b0319909216821790556040519081527f9789733827840833afc031fb2ef9ab6894271f77bad2085687cf4ae5c7bee4db9060200160405180910390a15050565b600060a0516001600160401b03166080516001600160401b0316426200036d919062000681565b6200037991906200069d565b905090565b60648160ff1610620003d35760405162461bcd60e51b815260206004820152601960248201527f5375626d697373696f6e2077696e646f7720746f6f20626967000000000000006044820152606401620000bf565b6005805460ff191660ff92909216919091179055565b600554620003fc9060ff166001620006c0565b60ff166001600160401b0381111562000419576200041962000655565b60405190808252806020026020018201604052801562000443578160200160208202803683370190505b5080516200045a91600d91602090910190620004ba565b50565b828054828255906000526020600020908101928215620004a8579160200282015b82811115620004a857825182906200049790826200076b565b50916020019190600101906200047e565b50620004b692915062000506565b5090565b828054828255906000526020600020908101928215620004f8579160200282015b82811115620004f8578251825591602001919060010190620004db565b50620004b692915062000527565b80821115620004b65760006200051d82826200053e565b5060010162000506565b5b80821115620004b6576000815560010162000528565b5080546200054c90620006dc565b6000825580601f106200055d575050565b601f0160209004906000526020600020908101906200045a919062000527565b6001600160a01b03811681146200045a57600080fd5b805160ff81168114620005a557600080fd5b919050565b600080600080600080600060e0888a031215620005c657600080fd5b8751620005d3816200057d565b6020890151909750620005e6816200057d565b6040890151909650620005f9816200057d565b60608901519095506200060c816200057d565b608089015190945063ffffffff811681146200062757600080fd5b92506200063760a0890162000593565b91506200064760c0890162000593565b905092959891949750929550565b634e487b7160e01b600052604160045260246000fd5b634e487b7160e01b600052601160045260246000fd5b818103818111156200069757620006976200066b565b92915050565b600082620006bb57634e487b7160e01b600052601260045260246000fd5b500490565b60ff81811683821601908111156200069757620006976200066b565b600181811c90821680620006f157607f821691505b6020821081036200071257634e487b7160e01b600052602260045260246000fd5b50919050565b601f8211156200076657600081815260208120601f850160051c81016020861015620007415750805b601f850160051c820191505b8181101562000762578281556001016200074d565b5050505b505050565b81516001600160401b0381111562000787576200078762000655565b6200079f81620007988454620006dc565b8462000718565b602080601f831160018114620007d75760008415620007be5750858301515b600019600386901b1c1916600185901b17855562000762565b600085815260208120601f198616915b828110156200080857888601518255948401946001909101908401620007e7565b5085821015620008275787850151600019600388901b60f8161c191681555b5050505050600190811b01905550565b60805160a05160c0516157a3620008836000396000818161042d01528181611c8a01526125c601526000818161030b015261336d01526000818161053c015261339701526157a36000f3fe608060405234801561001057600080fd5b50600436106102325760003560e01c8063a107753211610130578063e17f212e116100b8578063ef88bf131161007c578063ef88bf131461055e578063f5a9838314610571578063f5f5ba7214610579578063faae7fc9146105a6578063fc79c300146105b957600080fd5b8063e17f212e146104dc578063e22fdece146104f0578063e36da7b7146104f8578063e621dbc714610518578063e8d0e70a1461053757600080fd5b8063be60040e116100ff578063be60040e14610488578063c10f489a1461049b578063c1bff139146104ae578063dcb1476e146104b6578063debfda30146104c957600080fd5b8063a107753214610428578063a14634a71461044f578063abfaf17014610462578063b00c0b761461047557600080fd5b80635ff27079116101be57806370473f2f1161018257806370473f2f146103b157806374e6310e146103c45780637925eaca146103e55780637fe3341a146103f85780638e0e9f7c1461040057600080fd5b80635ff270791461034d57806362354e031461036057806363f921db1461037357806367fc4029146103865780636d0e8c341461039957600080fd5b80634691377f116102055780634691377f146102b4578063470e91df146102cc5780635267a15d146102df5780635a832088146103065780635aa6e6751461034557600080fd5b80630799fe75146102375780630a1660511461025257806329bfe39d1461026757806345a15d3c14610292575b600080fd5b61023f6105cc565b6040519081526020015b60405180910390f35b6102656102603660046146cb565b6105db565b005b60095461027a906001600160a01b031681565b6040516001600160a01b039091168152602001610249565b6102a56102a03660046146ee565b610635565b604051610249939291906147dc565b6102bc610aba565b604051610249949392919061481b565b6102656102da3660046148a2565b610c56565b7f714f205b2abd25bef1d06a1af944e38c113fe6160375c4e1d6d5cf28848e77195461027a565b61032d7f000000000000000000000000000000000000000000000000000000000000000081565b6040516001600160401b039091168152602001610249565b61027a611225565b61026561035b3660046148dd565b6112bc565b60005461027a906001600160a01b031681565b6102656103813660046146ee565b611542565b6102656103943660046148dd565b611b9c565b6103a1611c7d565b6040519015158152602001610249565b6102656103bf36600461498a565b611fc2565b6103d76103d23660046148dd565b6120c3565b604051610249929190614a94565b60075461027a906001600160a01b031681565b61023f601481565b60055461041490610100900462ffffff1681565b60405162ffffff9091168152602001610249565b61027a7f000000000000000000000000000000000000000000000000000000000000000081565b61023f61045d366004614aad565b612168565b610265610470366004614aed565b61218a565b610265610483366004614bf1565b612385565b60085461027a906001600160a01b031681565b600a5461027a906001600160a01b031681565b61023f606481565b61023f6104c4366004614ca9565b612460565b6103a16104d7366004614aad565b612530565b6000546103a190600160a81b900460ff1681565b6103a16125b9565b61050b610506366004614ca9565b61262d565b6040516102499190614cc2565b6005546105259060ff1681565b60405160ff9091168152602001610249565b61032d7f000000000000000000000000000000000000000000000000000000000000000081565b61026561056c366004614cd5565b612724565b61026561288a565b604080518082018252600b81526a2330b9ba2ab83230ba32b960a91b602082015290516102499190614d0e565b60065461027a906001600160a01b031681565b61023f6105c7366004614ca9565b612950565b60006105d66129e4565b905090565b600054600160b01b900460ff16806105fd5750600054600160a81b900460ff16155b1561062a5761060a612be2565b61061381612c1c565b61061f600d6000614613565b610627612c85565b50565b610627600036612cee565b6060806000836001600160401b038111156106525761065261491c565b60405190808252806020026020018201604052801561067b578160200160208202803683370190505b5060405160048082525491935090600080600019600184160161074857602084206060850152600283049250602089853760208451046020850152828451106106c357600080fd5b602084015160608501510154915060005b888110156107425760208082028b01863760208551049150838551106106f957600080fd5b602085510660408601526020850151821461071f57816020860152816060860151015492505b604085015160080283901b60f81c602082810289010181905291506001016106d4565b50600192505b6001831661079d576002603f84160492915060005b8881101561079b5760208082028b0186378385511061077b57600080fd5b845160080283901b60f81c6020828102890101819052915060010161075d565b505b505050506107a9612e3a565b9050836001600160401b038111156107c3576107c361491c565b6040519080825280602002602001820160405280156107ec578160200160208202803683370190505b50600e546040516003547fc2575a0e9e593c00f959f8c92f12db2869c3395a3b0502d05e2516446f71f85b60a08301527f8d1108e10bcb7c27dddfc02ed9d693a074039d026cf4ea4240b40f7d581ac802606083015260105460c083015292955090916008026000808060208b8637845160088104602087018190526007909116604087015260a08601510154915060005b8a8110156108ee5760208082028d0187378486511061089c57600080fd5b6008865104915060088651066040870152602086015182146108c9578160208701528160a0870151015492505b8260206040880151021b91508160e01c6020820260208c01015260018101905061087e565b506011545b60c08601518114610aac57606086015181016080870181905254945060001960018616016109fd5760206080870181812090526002909504948c87376080865104602087015260048502865110156109545760208601516080870151015493505b60005b8b8110156109f75760208082028e0188376080875104925060048602875110156109ef5760808751066040880152602087015183146109a157826020880152826080880151015494505b604087015160020285901b60fe1c925060001983016109d15760208181028c010180518902607f81901c90915293505b600383036109ef5760208181028c01018051607f1b89810490915293505b600101610957565b50600194505b60018516610a9d576002603f86160494935060208c87376080865104602087015260005b8b811015610a9b5760208082028e0188376004860287511015610a93578651607f166040880181905260020285901b60fe1c92506000198301610a755760208181028c010180518902607f81901c90915293505b60038303610a935760208181028c01018051607f1b89810490915293505b600101610a21565b505b6103e8600182010690506108f3565b505050505050509250925092565b60608060606000600a60009054906101000a90046001600160a01b03166001600160a01b0316630c518dce6040518163ffffffff1660e01b8152600401600060405180830381865afa158015610b14573d6000803e3d6000fd5b505050506040513d6000823e601f3d908101601f19168201604052610b3c9190810190614d3e565b935060048054610b4b90614dca565b9050845114610b5c57610b5c614dfe565b600084516001600160401b03811115610b7757610b7761491c565b604051908082528060200260200182016040528015610ba0578160200160208202803683370190505b50905060005b8151811015610bdf5780828281518110610bc257610bc2614e14565b602090810291909101015280610bd781614e40565b915050610ba6565b50604051631168574f60e21b815230906345a15d3c90610c03908490600401614cc2565b600060405180830381865afa158015610c20573d6000803e3d6000fd5b505050506040513d6000823e601f3d908101601f19168201604052610c489190810190614ee4565b969791969095509350915050565b60055460ff811690610100810462ffffff1690640100000000900463ffffffff16610c82838535614faf565b4310610cec5760405162461bcd60e51b815260206004820152602e60248201527f55706461746573206e6f206c6f6e67657220616363657074656420666f72207460448201526d686520676976656e20626c6f636b60901b60648201526084015b60405180910390fd5b8335431015610d535760405162461bcd60e51b815260206004820152602d60248201527f55706461746573206e6f742079657420617661696c61626c6520666f7220746860448201526c6520676976656e20626c6f636b60981b6064820152608401610ce3565b600354610d61906008614fc2565b610d6e60c0860186614fd9565b610d7a91506004614fc2565b1115610dd25760405162461bcd60e51b815260206004820152602160248201527f4d6f72652075706461746573207468616e20617661696c61626c6520666565646044820152607360f81b6064820152608401610ce3565b60006002853560208701610de960c0890189614fd9565b604051602001610dfc9493929190615048565b60408051601f1981840301815290829052610e1691615091565b602060405180830381855afa158015610e33573d6000803e3d6000fd5b5050506040513d601f19601f82011682018060405250810190610e5691906150ad565b7f19457468657265756d205369676e6564204d6573736167653a0a3332000000006000908152601c829052603c812091925060e0870190610eae83610e9f6101008b01856146cb565b84602001358560400135612e94565b90506001600160a01b038116610f065760405162461bcd60e51b815260206004820152601860248201527f45434453413a20696e76616c6964207369676e617475726500000000000000006044820152606401610ce3565b600080610f138389612ec2565b6040805160a081019182905260065463e0d4ea3760e01b90925260a481018c90529294509092506000919081906001600160a01b031663e0d4ea3760c48301602060405180830381865afa158015610f6f573d6000803e3d6000fd5b505050506040513d601f19601f82011682018060405250810190610f9391906150ad565b81528c356020820152604001600d610fac8d6001614faf565b610fb7908f356150dc565b81548110610fc757610fc7614e14565b6000918252602080832090910154835282810186905260409283018790528e35808352600b8252838320845189518185015289840151958101959095526060850191909152908f013560808401529293509060029060a00160408051601f198184030181529082905261103991615091565b602060405180830381855afa158015611056573d6000803e3d6000fd5b5050506040513d601f19601f8201168201806040525081019061107991906150ad565b905060005b8254811015611104578183828154811061109a5761109a614e14565b9060005260206000200154036110f25760405162461bcd60e51b815260206004820152601b60248201527f7375626d697373696f6e20616c72656164792070726f766964656400000000006044820152606401610ce3565b806110fc81614e40565b91505061107e565b5081819080600181540180825580915050600190039060005260206000200160009091909190915055600061114c848f60200180360381019061114791906150f0565b612ff0565b5090508061119c5760405162461bcd60e51b815260206004820152601760248201527f736f72746974696f6e2070726f6f6620696e76616c69640000000000000000006044820152606401610ce3565b6111b48e8060c001906111af9190614fd9565b6130a3565b436000908152600c602052604081208054600192906111d4908490614faf565b90915550506040516001600160a01b0388169063ffffffff8d16907f63db91b14b3d088c677f046180aefcea7a236649704d90ce810cde455d38d93690600090a35050505050505050505050505050565b60008054600160a81b900460ff1661124757506001546001600160a01b031690565b60008054906101000a90046001600160a01b03166001600160a01b031663732524946040518163ffffffff1660e01b8152600401602060405180830381865afa158015611298573d6000803e3d6000fd5b505050506040513d601f19601f820116820180604052508101906105d6919061517e565b6112c533612530565b6113015760405162461bcd60e51b815260206004820152600d60248201526c37b7363c9032bc32b1baba37b960991b6044820152606401610ce3565b6001600160e01b031981166000908152600260205260408120805490910361136b5760405162461bcd60e51b815260206004820152601a60248201527f74696d656c6f636b3a20696e76616c69642073656c6563746f720000000000006044820152606401610ce3565b80544210156113bc5760405162461bcd60e51b815260206004820152601960248201527f74696d656c6f636b3a206e6f7420616c6c6f77656420796574000000000000006044820152606401610ce3565b60008160010180546113cd90614dca565b80601f01602080910402602001604051908101604052809291908181526020018280546113f990614dca565b80156114465780601f1061141b57610100808354040283529160200191611446565b820191906000526020600020905b81548152906001019060200180831161142957829003601f168201915b505050506001600160e01b03198516600090815260026020526040812081815592935090506114786001830182614631565b50506000805460ff60b01b1916600160b01b178155604051309061149d908490615091565b6000604051808303816000865af19150503d80600081146114da576040519150601f19603f3d011682016040523d82523d6000602084013e6114df565b606091505b50506000805460ff60b01b19169055604080516001600160e01b0319871681524260208201529192507fa7326b57fc9cfe267aaea5e7f0b01757154d265620a0585819416ee9ddd2c438910160405180910390a161153c816130f5565b50505050565b600a546001600160a01b0316331480611573575061155e611225565b6001600160a01b0316336001600160a01b0316145b6115d55760405162461bcd60e51b815260206004820152602d60248201527f6f6e6c792066617374207570646174657320636f6e66696775726174696f6e2060448201526c6f7220676f7665726e616e636560981b6064820152608401610ce3565b6115dd613112565b6000805b8281101561163757818484838181106115fc576115fc614e14565b9050602002013511156116255783838281811061161b5761161b614e14565b9050602002013591505b8061162f81614e40565b9150506115e1565b5060006004805461164790614dca565b9150505b8181116116c657600460018180548061166390614dca565b80601f81036116825783600052602060002060ff1984168155603f9350505b506002820183556001810192505050038154600116156116b15790600052602060002090602091828204019190065b508190506116be81614e40565b91505061164b565b506003545b6116d660088361519b565b81116116fa57600380546001018155600052806116f281614e40565b9150506116cb565b506004805461170890614dca565b600354909150611719906008614fc2565b101561172757611727614dfe565b6000611731613369565b63ffffffff1690506000600760009054906101000a90046001600160a01b03166001600160a01b0316637a68533f6040518163ffffffff1660e01b8152600401602060405180830381865afa15801561178e573d6000803e3d6000fd5b505050506040513d601f19601f820116820180604052508101906117b291906150ad565b905060008060005b86811015611b9257600a546000906001600160a01b031663931028368a8a858181106117e8576117e8614e14565b905060200201356040518263ffffffff1660e01b815260040161180d91815260200190565b602060405180830381865afa15801561182a573d6000803e3d6000fd5b505050506040513d601f19601f8201168201806040525081019061184e91906151af565b90506001600160581b0319811661189d5760405162461bcd60e51b81526020600482015260136024820152721a5b99195e081b9bdd081cdd5c1c1bdc9d1959606a1b6044820152606401610ce3565b6009546040516326e5ec9360e21b81526001600160581b0319831660048201526000916001600160a01b031690639b97b24c9060240160a060405180830381865afa1580156118f0573d6000803e3d6000fd5b505050506040513d601f19601f8201168201806040525081019061191491906151dc565b9050866014826000015163ffffffff1661192e9190614faf565b1161196a5760405162461bcd60e51b815260206004820152600c60248201526b19995959081d1bdbc81bdb1960a21b6044820152606401610ce3565b6000816040015160030b136119c15760405162461bcd60e51b815260206004820152601b60248201527f666565642076616c7565207a65726f206f72206e6567617469766500000000006044820152606401610ce3565b6119da816040015163ffffffff168260800151886133d4565b9095509350600060088b8b868181106119f5576119f5614e14565b90506020020135611a06919061519b565b9050600060088c8c87818110611a1e57611a1e614e14565b90506020020135611a2f91906150dc565b611a3a90600761527c565b611a45906020614fc2565b6003805491925063ffffffff831b199189841b91839186908110611a6b57611a6b614e14565b9060005260206000200154161760038481548110611a8b57611a8b614e14565b90600052602060002001819055508660f81b60048e8e89818110611ab157611ab1614e14565b905060200201358154611ac390614dca565b8110611ad157611ad1614e14565b815460011615611af05790600052602060002090602091828204019190065b601f036101000a81548160ff02191690600160f81b84040217905550846affffffffffffffffffffff19168d8d88818110611b2d57611b2d614e14565b905060200201358b7ffa800fadb5e7b72652da40bcd7ca9a96cd4e53c9ea4c68b8afbba027e77a7cf58b8b604051611b7292919091825260000b602082015260400190565b60405180910390a450505050508080611b8a90614e40565b9150506117ba565b5050505050505050565b611ba46134b6565b6001600160e01b031981166000908152600260205260408120549003611c0c5760405162461bcd60e51b815260206004820152601a60248201527f74696d656c6f636b3a20696e76616c69642073656c6563746f720000000000006044820152606401610ce3565b604080516001600160e01b0319831681524260208201527f7735b2391c38a81419c513e30ca578db7158eadd7101511b23e221c654d19cf8910160405180910390a16001600160e01b03198116600090815260026020526040812081815590611c786001830182614631565b505050565b6000336001600160a01b037f00000000000000000000000000000000000000000000000000000000000000001614611ceb5760405162461bcd60e51b815260206004820152601160248201527037b7363c90333630b932903230b2b6b7b760791b6044820152606401610ce3565b611cf3613112565b6000611cfd613369565b60055490915063ffffffff64010000000090910481169082161115611d9957600080611d27613510565b6005805467ffffffff00000000191664010000000063ffffffff8816021790559092509050611d5760018461528f565b63ffffffff167f7195d3bbca575b55b0f4b62da395f7224b75225d9c08741d216e6cf10a83eabe8383604051611d8e9291906152ac565b60405180910390a250505b60065460408051637056269760e01b815290516000926001600160a01b03169163705626979160048083019260209291908290030181865afa158015611de3573d6000803e3d6000fd5b505050506040513d601f19601f82011682018060405250810190611e0791906152d1565b60055490915062ffffff8083166101009092041614611e4157611e28613818565b6005805463ffffff00191661010062ffffff8416021790555b611e49613a31565b600760009054906101000a90046001600160a01b03166001600160a01b031663ea105ac76040518163ffffffff1660e01b8152600401600060405180830381600087803b158015611e9957600080fd5b505af1158015611ead573d6000803e3d6000fd5b505060058054436001600160401b03908116600160c01b026001600160c01b034292909216600160801b02919091166fffffffffffffffffffffffffffffffff9092169190911717905550611f0290506129e4565b600554600d90611f169060ff1660016152f6565b60ff16611f24436001614faf565b611f2e91906150dc565b81548110611f3e57611f3e614e14565b60009182526020918290200191909155600754604080516316b9bb5760e31b815290516001600160a01b039092169263b5cddab8926004808401938290030181865afa158015611f92573d6000803e3d6000fd5b505050506040513d601f19601f82011682018060405250810190611fb691906150ad565b600e5550600191505090565b600080600083806020019051810190611fdb919061530f565b6040805180820190915289815260208101899052929550909350915061200081613ab7565b61200957600080fd5b604080518082019091528381526020810183905261202681613ab7565b61202f57600080fd5b6040516bffffffffffffffffffffffff1960608b901b1660208201526120b890839060029060340160408051601f198184030181529082905261207191615091565b602060405180830381855afa15801561208e573d6000803e3d6000fd5b5050506040513d601f19601f820116820180604052508101906120b191906150ad565b8784613b02565b505050505050505050565b600260205260009081526040902080546001820180549192916120e590614dca565b80601f016020809104026020016040519081016040528092919081815260200182805461211190614dca565b801561215e5780601f106121335761010080835404028352916020019161215e565b820191906000526020600020905b81548152906001019060200180831161214157829003601f168201915b5050505050905082565b600554600090612183908390610100900462ffffff16612ec2565b9392505050565b600a546001600160a01b031633146121e45760405162461bcd60e51b815260206004820152601f60248201527f6f6e6c792066617374207570646174657320636f6e66696775726174696f6e006044820152606401610ce3565b6121ec613112565b60005b8151811015612381576000600883838151811061220e5761220e614e14565b6020026020010151612220919061519b565b90506000600884848151811061223857612238614e14565b602002602001015161224a91906150dc565b61225590600761527c565b612260906020614fc2565b6003805491925063ffffffff831b19918291908590811061228357612283614e14565b906000526020600020015416600384815481106122a2576122a2614e14565b9060005260206000200181905550600060f81b60048686815181106122c9576122c9614e14565b602002602001015181546122dc90614dca565b81106122ea576122ea614e14565b8154600116156123095790600052602060002090602091828204019190065b601f036101000a81548160ff02191690600160f81b8404021790555084848151811061233757612337614e14565b60200260200101517f5a17f564b9fd53c971695a2e033e0cd39ee8ad08d8117242cdecad8b017335c860405160405180910390a2505050808061237990614e40565b9150506121ef565b5050565b7f714f205b2abd25bef1d06a1af944e38c113fe6160375c4e1d6d5cf28848e7719546001600160a01b0316336001600160a01b0316146123fe5760405162461bcd60e51b815260206004820152601460248201527337b7363c9030b2323932b9b9903ab83230ba32b960611b6044820152606401610ce3565b61245661243283836040518060400160405280600e81526020016d20b2323932b9b9aab83230ba32b960911b815250613c3b565b7f714f205b2abd25bef1d06a1af944e38c113fe6160375c4e1d6d5cf28848e771955565b6123818282613d16565b600061246d436001614faf565b821115801561248a57506005546124879060ff1683614faf565b43105b6124ed5760405162461bcd60e51b815260206004820152602e60248201527f73636f7265206375746f6666206e6f7420617661696c61626c6520666f72207460448201526d686520676976656e20626c6f636b60901b6064820152608401610ce3565b600554600d906125019060ff1660016152f6565b61250e9060ff16846150dc565b8154811061251e5761251e614e14565b90600052602060002001549050919050565b60008054600160a01b900460ff1680156125b35750600054604051630debfda360e41b81526001600160a01b0384811660048301529091169063debfda3090602401602060405180830381865afa15801561258f573d6000803e3d6000fd5b505050506040513d601f19601f820116820180604052508101906125b3919061533d565b92915050565b6000336001600160a01b037f000000000000000000000000000000000000000000000000000000000000000016146126275760405162461bcd60e51b815260206004820152601160248201527037b7363c90333630b932903230b2b6b7b760791b6044820152606401610ce3565b50600090565b6060606482111580156126405750438211155b6126835760405162461bcd60e51b8152602060048201526014602482015273486973746f72792073697a6520746f6f2062696760601b6044820152606401610ce3565b816001600160401b0381111561269b5761269b61491c565b6040519080825280602002602001820160405280156126c4578160200160208202803683370190505b50905060005b8281101561271e57600c60006126e0834361527c565b81526020019081526020016000205482828151811061270157612701614e14565b60209081029190910101528061271681614e40565b9150506126ca565b50919050565b600054600160a01b900460ff16156127755760405162461bcd60e51b8152602060048201526014602482015273696e697469616c6973656420213d2066616c736560601b6044820152606401610ce3565b6001600160a01b0382166127cb5760405162461bcd60e51b815260206004820152601860248201527f676f7665726e616e63652073657474696e6773207a65726f00000000000000006044820152606401610ce3565b6001600160a01b0381166128145760405162461bcd60e51b815260206004820152601060248201526f5f676f7665726e616e6365207a65726f60801b6044820152606401610ce3565b600080546001600160a01b038481166001600160a81b031990921691909117600160a01b17909155600180549183166001600160a01b0319909216821790556040519081527f9789733827840833afc031fb2ef9ab6894271f77bad2085687cf4ae5c7bee4db9060200160405180910390a15050565b6128926134b6565b600054600160a81b900460ff16156128ec5760405162461bcd60e51b815260206004820152601a60248201527f616c726561647920696e2070726f64756374696f6e206d6f64650000000000006044820152606401610ce3565b600180546001600160a01b031916905560008054600160a81b60ff60a81b198216179091556040516001600160a01b0390911681527f83af113638b5422f9e977cebc0aaf0eaf2188eb9a8baae7f9d46c42b33a1560c9060200160405180910390a1565b60004361295e606484614faf565b11801561296b5750438211155b6129d15760405162461bcd60e51b815260206004820152603160248201527f54686520676976656e20626c6f636b206973206e6f206c6f6e676572206f72206044820152706e6f742079657420617661696c61626c6560781b6064820152608401610ce3565b506000908152600c602052604090205490565b600080600760009054906101000a90046001600160a01b03166001600160a01b0316636d62b4136040518163ffffffff1660e01b8152600401602060405180830381865afa158015612a3a573d6000803e3d6000fd5b505050506040513d601f19601f82011682018060405250810190612a5e91906150ad565b90506078600c612a6e8183614faf565b612a7a9061010061527c565b612a85906002614fc2565b612a8f919061527c565b612a99919061527c565b81612aa6600c6078614faf565b612ab29061010061527c565b612abd906002614fc2565b60008051602061574e833981519152901c612ad89190614fc2565b901b9150612ae8600c6078614faf565b612af49061010061527c565b612b00600c6078614faf565b612b0a919061527c565b816001612b19600c6078614faf565b612b259061010061527c565b612b30906002615443565b612b3a919061527c565b612b46600c6078614faf565b612b529061010061527c565b60008051602061574e833981519152901c16612b6e9190614fc2565b612b79911c83614faf565b9150612b87600c6078614faf565b816001612b96600c6078614faf565b612ba29061010061527c565b612bad906002615443565b612bb7919061527c565b60008051602061574e83398151915216612bd19190614fc2565b612bdc911c83614faf565b91505090565b600054600160b01b900460ff1615612c1257333014612c0357612c03614dfe565b6000805460ff60b01b19169055565b612c1a6134b6565b565b60648160ff1610612c6f5760405162461bcd60e51b815260206004820152601960248201527f5375626d697373696f6e2077696e646f7720746f6f20626967000000000000006044820152606401610ce3565b6005805460ff191660ff92909216919091179055565b600554612c969060ff1660016152f6565b60ff166001600160401b03811115612cb057612cb061491c565b604051908082528060200260200182016040528015612cd9578160200160208202803683370190505b50805161062791600d9160209091019061466b565b612cf66134b6565b6000805460408051636221a54b60e01b81529051853593926001600160a01b031691636221a54b9160048083019260209291908290030181865afa158015612d42573d6000803e3d6000fd5b505050506040513d601f19601f82011682018060405250810190612d6691906150ad565b90506000612d748242614faf565b9050604051806040016040528082815260200186868080601f01602080910402602001604051908101604052809392919081815260200183838082843760009201829052509390945250506001600160e01b03198616815260026020908152604090912083518155908301519091506001820190612df2908261549d565b509050507fed948300a3694aa01d4a6b258bfd664350193d770c0b51f8387277f6d83ea3b683828787604051612e2b949392919061555c565b60405180910390a15050505050565b600060105460115403612e6357506005546801000000000000000090046001600160401b031690565b436000908152600c602052604090205415612e7d57504290565b50600554600160801b90046001600160401b031690565b600080600080612ea688888888613eec565b925092509250612eb68282613fbb565b50909695505050505050565b60408051808201909152600080825260208201526008546040516344b571d960e01b8152600481018490526001600160a01b03858116602483015260009283928392839283929116906344b571d990604401608060405180830381865afa158015612f31573d6000803e3d6000fd5b505050506040513d601f19601f82011682018060405250810190612f559190615585565b9296509094509250905083151580612f6c57508215155b612fb85760405162461bcd60e51b815260206004820152601960248201527f5075626c6963206b6579206e6f742072656769737465726564000000000000006044820152606401610ce3565b60408051808201909152848152602081018490529550612fe361ffff80841690611000908416614074565b9450505050509250929050565b60008083606001518360000151106130705760405162461bcd60e51b815260206004820152603f60248201527f43726564656e7469616c2773207265706c69636174652076616c75652069732060448201527f6e6f74206c657373207468616e2070726f7669646572277320776569676874006064820152608401610ce3565b600061307c85856140b4565b602085015151909150818015613096575085604001518111155b93509150505b9250929050565b8181600f601054815481106130ba576130ba614e14565b9060005260206000200191826130d19291906155cb565b506103e860105460016130e49190614faf565b6130ee91906150dc565b6010555050565b3d604051818101604052816000823e821561310e578181f35b8181fd5b61311a612e3a565b600560086101000a8154816001600160401b0302191690836001600160401b031602179055506000600e549050604051602081016040820160608301601054608085015260008060008060008060038752602087208752600f89526011545b60808b015181146133535760208a208101808a52549150600019600183160161328a5760208920895260028204915060005b6001602060018503040181101561328457808a510154935060005b61010081101561327b5783600882046020840201101561327b576010810460108302018a51015497506000955060005b60088110156132655760208181028a901b60e01c9850830260088304018511156132465785821b60fe1c99506000198a0161323357968e02607f1c965b60038a0361324657607f9790971b8e9004965b6020810260e0039790971b9695871795600291909101906001016131f6565b508560108083030460108402018b5101556131c6565b506001016131ab565b50600191505b60018216613344579091506002603f8316049060005b610100811015613342578260088204101561334257601081048951015496506000945060005b6008811015613331576020810288901b60e01c9650600882048411156133125784821b60fe1c985060001989016132ff57958d02607f1c955b6003890361331257607f9690961b8d9004955b6020810260e0039690961b9594861794600291909101906001016132c6565b50846010808303048a5101556132a0565b505b6103e860018201069050613179565b5050505050505050505060808101516011555050565b60007f00000000000000000000000000000000000000000000000000000000000000006001600160401b03167f00000000000000000000000000000000000000000000000000000000000000006001600160401b0316426133ca919061527c565b6105d6919061519b565b600080846000036133e95750839050826134ae565b8484601d82901c158015906134025750607f198160000b135b1561342257613412600a8361519b565b915061341f60018261568a565b90505b6000607f6134308785614fc2565b901c90506000613440848361527c565b90505b600381901c1580156134585750607f8360000b125b80156134665750601c84901c155b156134a65761347684600a614fc2565b93506134838360016156ab565b9250607f6134918886614fc2565b901c915061349f848361527c565b9050613443565b509193509150505b935093915050565b6134be611225565b6001600160a01b0316336001600160a01b031614612c1a5760405162461bcd60e51b815260206004820152600f60248201526e6f6e6c7920676f7665726e616e636560881b6044820152606401610ce3565b6060806004805461352090614dca565b90506001600160401b038111156135395761353961491c565b604051908082528060200260200182016040528015613562578160200160208202803683370190505b5091506004805461357290614dca565b90506001600160401b0381111561358b5761358b61491c565b6040519080825280602002602001820160405280156135b4578160200160208202803683370190505b5090506000806008600480546135c990614dca565b6135d492915061519b565b905060005b818110156136ed576000600382815481106135f6576135f6614e14565b600091825260208220015491505b60088110156136d85760008161361b856008614fc2565b6136259190614faf565b9050600481815461363590614dca565b811061364357613643614e14565b8154600116156136625790600052602060002090602091828204019190065b9054901a600160f81b0260f81c87828151811061368157613681614e14565b60009290920b60209283029190910182015261369e908390614fc2565b955060e08684901b901c8882815181106136ba576136ba614e14565b602090810291909101015250806136d081614e40565b915050613604565b505080806136e590614e40565b9150506135d9565b506008600480546136fd90614dca565b6137089291506150dc565b156138125760006003828154811061372257613722614e14565b6000918252602082200154915061373a836008614fc2565b90505b6004805461374a90614dca565b905081101561380f57600481815461376190614dca565b811061376f5761376f614e14565b81546001161561378e5790600052602060002090602091828204019190065b9054901a600160f81b0260f81c8582815181106137ad576137ad614e14565b60009290920b602092830291909101909101526137cb6008826150dc565b6137d6906020614fc2565b935060e08483901b901c8682815181106137f2576137f2614e14565b60209081029190910101528061380781614e40565b91505061373d565b50505b50509091565b60075460408051637a68533f60e01b815290516000926001600160a01b031691637a68533f9160048083019260209291908290030181865afa158015613862573d6000803e3d6000fd5b505050506040513d601f19601f8201168201806040525081019061388691906150ad565b905060008080805b600354811015613a2a57600381815481106138ab576138ab614e14565b9060005260206000200154925060005b60088110156139f757806138d0836008614fc2565b6138da9190614faf565b9450600480546138e990614dca565b90508510156139f7576000600486815461390290614dca565b811061391057613910614e14565b81546001161561392f5790600052602060002090602091828204019190065b9054600160f81b911a0260f81c9050600061394b83600761527c565b613956906020614fc2565b63ffffffff811b878116821c965090915061397286848b6133d4565b6004805484199a909a1683861b179992985090945060f885901b918a9061399890614dca565b81106139a6576139a6614e14565b8154600116156139c55790600052602060002090602091828204019190065b601f036101000a81548160ff02191690600160f81b8404021790555050505080806139ef90614e40565b9150506138bb565b508260038281548110613a0c57613a0c614e14565b60009182526020909120015580613a2281614e40565b91505061388e565b5050505050565b600554600160c01b90046001600160401b03166064811015613a505750565b805b4381101561238157600b6000613a6960648461527c565b81526020019081526020016000206000613a839190614613565b600c6000613a9260648461527c565b8152602001908152602001600020600090558080613aaf90614e40565b915050613a52565b600060008051602061574e833981519152613ad783600001516003614296565b613ae2906003614faf565b613aec91906150dc565b613afb83602001516002614296565b1492915050565b60007f30644e72e131a029b85045b68181585d2833e84879b9709143e1f593f0000001855160208088015185518683015160408051948501959095529383019190915260608201889052608082015260a081019190915260c0016040516020818303038152906040528051906020012060001c613b7f91906150dc565b90506000613bb8613bb2604080518082018252600080825260209182015281518083019092526001825260029082015290565b856142ee565b90506000613bc687846142ee565b90506000613bd48383614335565b80518651919250148015613bef575080602001518560200151145b611b925760405162461bcd60e51b815260206004820152601d60248201527f7075626c6963206b657920766572696669636174696f6e206572726f720000006044820152606401610ce3565b60008082604051602001613c4f9190614d0e565b6040516020818303038152906040528051906020012090506000805b8651811015613cc757868181518110613c8657613c86614e14565b60200260200101518303613cb557858181518110613ca657613ca6614e14565b60200260200101519150613cc7565b80613cbf81614e40565b915050613c6b565b506001600160a01b038116613d0d5760405162461bcd60e51b815260206004820152600c60248201526b61646472657373207a65726f60a01b6044820152606401610ce3565b95945050505050565b613d4c828260405180604001604052806013815260200172233630b932a9bcb9ba32b6b9a6b0b730b3b2b960691b815250613c3b565b600660006101000a8154816001600160a01b0302191690836001600160a01b03160217905550613db282826040518060400160405280601a81526020017f46617374557064617465496e63656e746976654d616e61676572000000000000815250613c3b565b600760006101000a8154816001600160a01b0302191690836001600160a01b03160217905550613e0882826040518060400160405280600d81526020016c566f746572526567697374727960981b815250613c3b565b600860006101000a8154816001600160a01b0302191690836001600160a01b03160217905550613e62828260405180604001604052806011815260200170233a39b7a332b2b2283ab13634b9b432b960791b815250613c3b565b600960006101000a8154816001600160a01b0302191690836001600160a01b03160217905550613ec882826040518060400160405280601881526020017f4661737455706461746573436f6e66696775726174696f6e0000000000000000815250613c3b565b600a80546001600160a01b0319166001600160a01b03929092169190911790555050565b600080807f7fffffffffffffffffffffffffffffff5d576e7357a4501ddfe92f46681b20a0841115613f275750600091506003905082613fb1565b604080516000808252602082018084528a905260ff891692820192909252606081018790526080810186905260019060a0016020604051602081039080840390855afa158015613f7b573d6000803e3d6000fd5b5050604051601f1901519150506001600160a01b038116613fa757506000925060019150829050613fb1565b9250600091508190505b9450945094915050565b6000826003811115613fcf57613fcf6156cc565b03613fd8575050565b6001826003811115613fec57613fec6156cc565b0361400a5760405163f645eedf60e01b815260040160405180910390fd5b600282600381111561401e5761401e6156cc565b0361403f5760405163fce698f760e01b815260048101829052602401610ce3565b6003826003811115614053576140536156cc565b03612381576040516335e2f38360e21b815260048101829052602401610ce3565b600080614082858585614380565b905060008380614094576140946150c6565b858709905080156140a857816001016140aa565b815b9695505050505050565b60006140c38360800151613ab7565b6140cc57600080fd5b6140d98260200151613ab7565b6140e257600080fd5b60006141376140f9856080015185604001516142ee565b614132614128604080518082018252600080825260209182015281518083019092526001825260029082015290565b86606001516142ee565b614335565b845160208087015186516040519495506000946141669493019283526020830191909152604082015260600190565b60405160208183030381529060405290506000614182826144a6565b905060006141a961419b876020015188604001516142ee565b6141328489606001516142ee565b9050600060026141db604080518082018252600080825260209182015281518083019092526001825260029082015290565b848a608001518a6020015189876040516020016141fd969594939291906156e2565b60408051601f198184030181529082905261421791615091565b602060405180830381855afa158015614234573d6000803e3d6000fd5b5050506040513d601f19601f8201168201806040525081019061425791906150ad565b90506142837f30644e72e131a029b85045b68181585d2833e84879b9709143e1f593f0000001826150dc565b6040880151149550505050505092915050565b600060405160208101602081526020808201526020604082015284606082015283608082015260008051602061574e83398151915260a082015260208260c0836005600019fa6142e557600080fd5b50519392505050565b604080518082019091526000808252602082015260405183518152602084015160208201528260408201526040826060836007600019fa61432e57600080fd5b5092915050565b6040805180820190915260008082526020820152604051835181526020840151602082015282516040820152602083015160608201526040826080836006600019fa61432e57600080fd5b60008082116143c45760405162461bcd60e51b815260206004820152601060248201526f4469766973696f6e206279207a65726f60801b6044820152606401610ce3565b836000036143d457506000612183565b838302838582816143e7576143e76150c6565b0403614405578281816143fc576143fc6150c6565b04915050612183565b506000614412838661519b565b9050600061442084876150dc565b9050600061442e858761519b565b9050600061443c86886150dc565b9050856144498285614fc2565b614453919061519b565b61445d8385614fc2565b6144678387614fc2565b886144728689614fc2565b61447c9190614fc2565b6144869190614faf565b6144909190614faf565b61449a9190614faf565b98975050505050505050565b604080518082019091526000808252602082015260006002836040516144cc9190615091565b602060405180830381855afa1580156144e9573d6000803e3d6000fd5b5050506040513d601f19601f8201168201806040525081019061450c91906150ad565b9050600061452860008051602061574e833981519152836150dc565b905060005b61453682614569565b90508015614557576040805180820190915291825260208201529392505050565b614562600183614faf565b915061452d565b60008060008051602061574e833981519152614586846003614296565b614591906003614faf565b61459b91906150dc565b905060006145cd8260026145be600160008051602061574e83398151915261527c565b6145c8919061519b565b614296565b90508060011415806145dd575081155b156145ec575060009392505050565b61460b8260046145be60008051602061574e8339815191526001614faf565b949350505050565b508054600082559060005260206000209081019061062791906146b6565b50805461463d90614dca565b6000825580601f1061464d575050565b601f01602090049060005260206000209081019061062791906146b6565b8280548282559060005260206000209081019282156146a6579160200282015b828111156146a657825182559160200191906001019061468b565b506146b29291506146b6565b5090565b5b808211156146b257600081556001016146b7565b6000602082840312156146dd57600080fd5b813560ff8116811461218357600080fd5b6000806020838503121561470157600080fd5b82356001600160401b038082111561471857600080fd5b818501915085601f83011261472c57600080fd5b81358181111561473b57600080fd5b8660208260051b850101111561475057600080fd5b60209290920196919550909350505050565b600081518084526020808501945080840160005b8381101561479257815187529582019590820190600101614776565b509495945050505050565b60008151808452602080850194508084016000805b848110156147d0578251820b885296830196918301916001016147b2565b50959695505050505050565b6060815260006147ef6060830186614762565b8281036020840152614801818661479d565b9150506001600160401b0383166040830152949350505050565b6080808252855190820181905260009060209060a0840190828901845b8281101561485e5781516001600160581b03191684529284019290840190600101614838565b505050838103828501526148728188614762565b9150508281036040840152614887818661479d565b9150506001600160401b038316606083015295945050505050565b6000602082840312156148b457600080fd5b81356001600160401b038111156148ca57600080fd5b8201610140818503121561218357600080fd5b6000602082840312156148ef57600080fd5b81356001600160e01b03198116811461218357600080fd5b6001600160a01b038116811461062757600080fd5b634e487b7160e01b600052604160045260246000fd5b604080519081016001600160401b03811182821017156149545761495461491c565b60405290565b604051601f8201601f191681016001600160401b03811182821017156149825761498261491c565b604052919050565b600080600080608085870312156149a057600080fd5b84356149ab81614907565b935060208581013593506040860135925060608601356001600160401b03808211156149d657600080fd5b818801915088601f8301126149ea57600080fd5b8135818111156149fc576149fc61491c565b614a0e601f8201601f1916850161495a565b91508082528984828501011115614a2457600080fd5b808484018584013760008482840101525080935050505092959194509250565b60005b83811015614a5f578181015183820152602001614a47565b50506000910152565b60008151808452614a80816020860160208601614a44565b601f01601f19169290920160200192915050565b82815260406020820152600061460b6040830184614a68565b600060208284031215614abf57600080fd5b813561218381614907565b60006001600160401b03821115614ae357614ae361491c565b5060051b60200190565b60006020808385031215614b0057600080fd5b82356001600160401b03811115614b1657600080fd5b8301601f81018513614b2757600080fd5b8035614b3a614b3582614aca565b61495a565b81815260059190911b82018301908381019087831115614b5957600080fd5b928401925b82841015614b7757833582529284019290840190614b5e565b979650505050505050565b600082601f830112614b9357600080fd5b81356020614ba3614b3583614aca565b82815260059290921b84018101918181019086841115614bc257600080fd5b8286015b84811015614be6578035614bd981614907565b8352918301918301614bc6565b509695505050505050565b60008060408385031215614c0457600080fd5b82356001600160401b0380821115614c1b57600080fd5b818501915085601f830112614c2f57600080fd5b81356020614c3f614b3583614aca565b82815260059290921b84018101918181019089841115614c5e57600080fd5b948201945b83861015614c7c57853582529482019490820190614c63565b96505086013592505080821115614c9257600080fd5b50614c9f85828601614b82565b9150509250929050565b600060208284031215614cbb57600080fd5b5035919050565b6020815260006121836020830184614762565b60008060408385031215614ce857600080fd5b8235614cf381614907565b91506020830135614d0381614907565b809150509250929050565b6020815260006121836020830184614a68565b80516001600160581b031981168114614d3957600080fd5b919050565b60006020808385031215614d5157600080fd5b82516001600160401b03811115614d6757600080fd5b8301601f81018513614d7857600080fd5b8051614d86614b3582614aca565b81815260059190911b82018301908381019087831115614da557600080fd5b928401925b82841015614b7757614dbb84614d21565b82529284019290840190614daa565b600181811c90821680614dde57607f821691505b60208210810361271e57634e487b7160e01b600052602260045260246000fd5b634e487b7160e01b600052600160045260246000fd5b634e487b7160e01b600052603260045260246000fd5b634e487b7160e01b600052601160045260246000fd5b600060018201614e5257614e52614e2a565b5060010190565b8051600081900b8114614d3957600080fd5b600082601f830112614e7c57600080fd5b81516020614e8c614b3583614aca565b82815260059290921b84018101918181019086841115614eab57600080fd5b8286015b84811015614be657614ec081614e59565b8352918301918301614eaf565b80516001600160401b0381168114614d3957600080fd5b600080600060608486031215614ef957600080fd5b83516001600160401b0380821115614f1057600080fd5b818601915086601f830112614f2457600080fd5b81516020614f34614b3583614aca565b82815260059290921b8401810191818101908a841115614f5357600080fd5b948201945b83861015614f7157855182529482019490820190614f58565b91890151919750909350505080821115614f8a57600080fd5b50614f9786828701614e6b565b925050614fa660408501614ecd565b90509250925092565b808201808211156125b3576125b3614e2a565b80820281158282048414176125b3576125b3614e2a565b6000808335601e19843603018112614ff057600080fd5b8301803591506001600160401b0382111561500a57600080fd5b60200191503681900382131561309c57600080fd5b81835281816020850137506000828201602090810191909152601f909101601f19169091010190565b84815283356020820152602084013560408201526040840135606082015260608401356080820152608084013560a082015260e060c082015260006140aa60e08301848661501f565b600082516150a3818460208701614a44565b9190910192915050565b6000602082840312156150bf57600080fd5b5051919050565b634e487b7160e01b600052601260045260246000fd5b6000826150eb576150eb6150c6565b500690565b600081830360a081121561510357600080fd5b604051608081018181106001600160401b03821117156151255761512561491c565b604090815284358252601f198301121561513e57600080fd5b615146614932565b915060208401358252604084013560208301528160208201526060840135604082015260808401356060820152809250505092915050565b60006020828403121561519057600080fd5b815161218381614907565b6000826151aa576151aa6150c6565b500490565b6000602082840312156151c157600080fd5b61218382614d21565b805161ffff81168114614d3957600080fd5b600060a082840312156151ee57600080fd5b60405160a081018181106001600160401b03821117156152105761521061491c565b604052825163ffffffff8116811461522757600080fd5b815261523560208401614d21565b602082015260408301518060030b811461524e57600080fd5b604082015261525f606084016151ca565b606082015261527060808401614e59565b60808201529392505050565b818103818111156125b3576125b3614e2a565b63ffffffff82811682821603908082111561432e5761432e614e2a565b6040815260006152bf6040830185614762565b8281036020840152613d0d818561479d565b6000602082840312156152e357600080fd5b815162ffffff8116811461218357600080fd5b60ff81811683821601908111156125b3576125b3614e2a565b60008060006060848603121561532457600080fd5b8351925060208401519150604084015190509250925092565b60006020828403121561534f57600080fd5b8151801515811461218357600080fd5b600181815b8085111561539a57816000190482111561538057615380614e2a565b8085161561538d57918102915b93841c9390800290615364565b509250929050565b6000826153b1575060016125b3565b816153be575060006125b3565b81600181146153d457600281146153de576153fa565b60019150506125b3565b60ff8411156153ef576153ef614e2a565b50506001821b6125b3565b5060208310610133831016604e8410600b841016171561541d575081810a6125b3565b615427838361535f565b806000190482111561543b5761543b614e2a565b029392505050565b600061218383836153a2565b601f821115611c7857600081815260208120601f850160051c810160208610156154765750805b601f850160051c820191505b8181101561549557828155600101615482565b505050505050565b81516001600160401b038111156154b6576154b661491c565b6154ca816154c48454614dca565b8461544f565b602080601f8311600181146154ff57600084156154e75750858301515b600019600386901b1c1916600185901b178555615495565b600085815260208120601f198616915b8281101561552e5788860151825594840194600190910190840161550f565b508582101561554c5787850151600019600388901b60f8161c191681555b5050505050600190811b01905550565b63ffffffff60e01b851681528360208201526060604082015260006140aa60608301848661501f565b6000806000806080858703121561559b57600080fd5b84519350602085015192506155b2604086016151ca565b91506155c0606086016151ca565b905092959194509250565b6001600160401b038311156155e2576155e261491c565b6155f6836155f08354614dca565b8361544f565b6000601f84116001811461562a57600085156156125750838201355b600019600387901b1c1916600186901b178355613a2a565b600083815260209020601f19861690835b8281101561565b578685013582556020948501946001909201910161563b565b50868210156156785760001960f88860031b161c19848701351681555b505060018560011b0183555050505050565b600082810b9082900b03607f198112607f821317156125b3576125b3614e2a565b600081810b9083900b01607f8113607f19821217156125b3576125b3614e2a565b634e487b7160e01b600052602160045260246000fd5b865181526020808801518183015286516040830152868101516060830152855160808301528581015160a0830152845160c08301528481015160e083015283516101008301528381015161012083015282516101408301528201516101608201526101808101614b7756fe30644e72e131a029b85045b68181585d97816a916871ca8d3c208c16d87cfd47a2646970667358221220b0944797805d97f9d7a9ea9b77c9a650ef2929101a8a365e4d647a134fcbf06764736f6c63430008140033",
  "linkReferences": {},
  "deployedLinkReferences": {}
}