{
  "_format": "hh-sol-artifact-1",
  "contractName": "FdcHub",
  "sourceName": "contracts/fdc/implementation/FdcHub.sol",
  "abi": [
    {
      "inputs": [
        {
          "internalType": "contract IGovernanceSettings",
          "name": "_governanceSettings",
          "type": "address"
        },
        {
          "internalType": "address",
          "name": "_initialGovernance",
          "type": "address"
        },
        {
          "internalType": "address",
          "name": "_addressUpdater",
          "type": "address"
        },
        {
          "internalType": "uint8",
          "name": "_requestsOffsetSeconds",
          "type": "uint8"
        }
      ],
      "stateMutability": "nonpayable",
      "type": "constructor"
    },
    {
      "anonymous": false,
      "inputs": [
        {
          "indexed": false,
          "internalType": "bytes",
          "name": "data",
          "type": "bytes"
        },
        {
          "indexed": false,
          "internalType": "uint256",
          "name": "fee",
          "type": "uint256"
        }
      ],
      "name": "AttestationRequest",
      "type": "event"
    },
    {
      "anonymous": false,
      "inputs": [
        {
          "indexed": false,
          "internalType": "uint256",
          "name": "authorizedAmountWei",
          "type": "uint256"
        }
      ],
      "name": "DailyAuthorizedInflationSet",
      "type": "event"
    },
    {
      "anonymous": false,
      "inputs": [
        {
          "indexed": false,
          "internalType": "bytes4",
          "name": "selector",
          "type": "bytes4"
        },
        {
          "indexed": false,
          "internalType": "uint256",
          "name": "allowedAfterTimestamp",
          "type": "uint256"
        },
        {
          "indexed": false,
          "internalType": "bytes",
          "name": "encodedCall",
          "type": "bytes"
        }
      ],
      "name": "GovernanceCallTimelocked",
      "type": "event"
    },
    {
      "anonymous": false,
      "inputs": [
        {
          "indexed": false,
          "internalType": "address",
          "name": "initialGovernance",
          "type": "address"
        }
      ],
      "name": "GovernanceInitialised",
      "type": "event"
    },
    {
      "anonymous": false,
      "inputs": [
        {
          "indexed": false,
          "internalType": "address",
          "name": "governanceSettings",
          "type": "address"
        }
      ],
      "name": "GovernedProductionModeEntered",
      "type": "event"
    },
    {
      "anonymous": false,
      "inputs": [
        {
          "indexed": false,
          "internalType": "uint256",
          "name": "amountReceivedWei",
          "type": "uint256"
        }
      ],
      "name": "InflationReceived",
      "type": "event"
    },
    {
      "anonymous": false,
      "inputs": [
        {
          "indexed": true,
          "internalType": "uint24",
          "name": "rewardEpochId",
          "type": "uint24"
        },
        {
          "components": [
            {
              "internalType": "bytes32",
              "name": "attestationType",
              "type": "bytes32"
            },
            {
              "internalType": "bytes32",
              "name": "source",
              "type": "bytes32"
            },
            {
              "internalType": "uint24",
              "name": "inflationShare",
              "type": "uint24"
            },
            {
              "internalType": "uint8",
              "name": "minRequestsThreshold",
              "type": "uint8"
            },
            {
              "internalType": "uint224",
              "name": "mode",
              "type": "uint224"
            }
          ],
          "indexed": false,
          "internalType": "struct IFdcInflationConfigurations.FdcConfiguration[]",
          "name": "fdcConfigurations",
          "type": "tuple[]"
        },
        {
          "indexed": false,
          "internalType": "uint256",
          "name": "amount",
          "type": "uint256"
        }
      ],
      "name": "InflationRewardsOffered",
      "type": "event"
    },
    {
      "anonymous": false,
      "inputs": [
        {
          "indexed": false,
          "internalType": "uint8",
          "name": "requestsOffsetSeconds",
          "type": "uint8"
        }
      ],
      "name": "RequestsOffsetSet",
      "type": "event"
    },
    {
      "anonymous": false,
      "inputs": [
        {
          "indexed": false,
          "internalType": "bytes4",
          "name": "selector",
          "type": "bytes4"
        },
        {
          "indexed": false,
          "internalType": "uint256",
          "name": "timestamp",
          "type": "uint256"
        }
      ],
      "name": "TimelockedGovernanceCallCanceled",
      "type": "event"
    },
    {
      "anonymous": false,
      "inputs": [
        {
          "indexed": false,
          "internalType": "bytes4",
          "name": "selector",
          "type": "bytes4"
        },
        {
          "indexed": false,
          "internalType": "uint256",
          "name": "timestamp",
          "type": "uint256"
        }
      ],
      "name": "TimelockedGovernanceCallExecuted",
      "type": "event"
    },
    {
      "inputs": [
        {
          "internalType": "bytes4",
          "name": "_selector",
          "type": "bytes4"
        }
      ],
      "name": "cancelGovernanceCall",
      "outputs": [],
      "stateMutability": "nonpayable",
      "type": "function"
    },
    {
      "inputs": [],
      "name": "dailyAuthorizedInflation",
      "outputs": [
        {
          "internalType": "uint256",
          "name": "",
          "type": "uint256"
        }
      ],
      "stateMutability": "view",
      "type": "function"
    },
    {
      "inputs": [
        {
          "internalType": "bytes4",
          "name": "_selector",
          "type": "bytes4"
        }
      ],
      "name": "executeGovernanceCall",
      "outputs": [],
      "stateMutability": "nonpayable",
      "type": "function"
    },
    {
      "inputs": [],
      "name": "fdcInflationConfigurations",
      "outputs": [
        {
          "internalType": "contract IFdcInflationConfigurations",
          "name": "",
          "type": "address"
        }
      ],
      "stateMutability": "view",
      "type": "function"
    },
    {
      "inputs": [],
      "name": "fdcRequestFeeConfigurations",
      "outputs": [
        {
          "internalType": "contract IFdcRequestFeeConfigurations",
          "name": "",
          "type": "address"
        }
      ],
      "stateMutability": "view",
      "type": "function"
    },
    {
      "inputs": [],
      "name": "flareSystemsManager",
      "outputs": [
        {
          "internalType": "contract IIFlareSystemsManager",
          "name": "",
          "type": "address"
        }
      ],
      "stateMutability": "view",
      "type": "function"
    },
    {
      "inputs": [],
      "name": "getAddressUpdater",
      "outputs": [
        {
          "internalType": "address",
          "name": "_addressUpdater",
          "type": "address"
        }
      ],
      "stateMutability": "view",
      "type": "function"
    },
    {
      "inputs": [],
      "name": "getContractName",
      "outputs": [
        {
          "internalType": "string",
          "name": "",
          "type": "string"
        }
      ],
      "stateMutability": "pure",
      "type": "function"
    },
    {
      "inputs": [],
      "name": "getExpectedBalance",
      "outputs": [
        {
          "internalType": "uint256",
          "name": "",
          "type": "uint256"
        }
      ],
      "stateMutability": "view",
      "type": "function"
    },
    {
      "inputs": [],
      "name": "getInflationAddress",
      "outputs": [
        {
          "internalType": "address",
          "name": "",
          "type": "address"
        }
      ],
      "stateMutability": "view",
      "type": "function"
    },
    {
      "inputs": [],
      "name": "getTokenPoolSupplyData",
      "outputs": [
        {
          "internalType": "uint256",
          "name": "_lockedFundsWei",
          "type": "uint256"
        },
        {
          "internalType": "uint256",
          "name": "_totalInflationAuthorizedWei",
          "type": "uint256"
        },
        {
          "internalType": "uint256",
          "name": "_totalClaimedWei",
          "type": "uint256"
        }
      ],
      "stateMutability": "view",
      "type": "function"
    },
    {
      "inputs": [],
      "name": "governance",
      "outputs": [
        {
          "internalType": "address",
          "name": "",
          "type": "address"
        }
      ],
      "stateMutability": "view",
      "type": "function"
    },
    {
      "inputs": [],
      "name": "governanceSettings",
      "outputs": [
        {
          "internalType": "contract IGovernanceSettings",
          "name": "",
          "type": "address"
        }
      ],
      "stateMutability": "view",
      "type": "function"
    },
    {
      "inputs": [
        {
          "internalType": "contract IGovernanceSettings",
          "name": "_governanceSettings",
          "type": "address"
        },
        {
          "internalType": "address",
          "name": "_initialGovernance",
          "type": "address"
        }
      ],
      "name": "initialise",
      "outputs": [],
      "stateMutability": "nonpayable",
      "type": "function"
    },
    {
      "inputs": [
        {
          "internalType": "address",
          "name": "_address",
          "type": "address"
        }
      ],
      "name": "isExecutor",
      "outputs": [
        {
          "internalType": "bool",
          "name": "",
          "type": "bool"
        }
      ],
      "stateMutability": "view",
      "type": "function"
    },
    {
      "inputs": [],
      "name": "lastInflationAuthorizationReceivedTs",
      "outputs": [
        {
          "internalType": "uint256",
          "name": "",
          "type": "uint256"
        }
      ],
      "stateMutability": "view",
      "type": "function"
    },
    {
      "inputs": [],
      "name": "lastInflationReceivedTs",
      "outputs": [
        {
          "internalType": "uint256",
          "name": "",
          "type": "uint256"
        }
      ],
      "stateMutability": "view",
      "type": "function"
    },
    {
      "inputs": [],
      "name": "productionMode",
      "outputs": [
        {
          "internalType": "bool",
          "name": "",
          "type": "bool"
        }
      ],
      "stateMutability": "view",
      "type": "function"
    },
    {
      "inputs": [],
      "name": "receiveInflation",
      "outputs": [],
      "stateMutability": "payable",
      "type": "function"
    },
    {
      "inputs": [
        {
          "internalType": "bytes",
          "name": "_data",
          "type": "bytes"
        }
      ],
      "name": "requestAttestation",
      "outputs": [],
      "stateMutability": "payable",
      "type": "function"
    },
    {
      "inputs": [],
      "name": "requestsOffsetSeconds",
      "outputs": [
        {
          "internalType": "uint8",
          "name": "",
          "type": "uint8"
        }
      ],
      "stateMutability": "view",
      "type": "function"
    },
    {
      "inputs": [],
      "name": "rewardManager",
      "outputs": [
        {
          "internalType": "contract IIRewardManager",
          "name": "",
          "type": "address"
        }
      ],
      "stateMutability": "view",
      "type": "function"
    },
    {
      "inputs": [
        {
          "internalType": "uint256",
          "name": "_toAuthorizeWei",
          "type": "uint256"
        }
      ],
      "name": "setDailyAuthorizedInflation",
      "outputs": [],
      "stateMutability": "nonpayable",
      "type": "function"
    },
    {
      "inputs": [
        {
          "internalType": "uint8",
          "name": "_requestsOffsetSeconds",
          "type": "uint8"
        }
      ],
      "name": "setRequestsOffset",
      "outputs": [],
      "stateMutability": "nonpayable",
      "type": "function"
    },
    {
      "inputs": [],
      "name": "switchToProductionMode",
      "outputs": [],
      "stateMutability": "nonpayable",
      "type": "function"
    },
    {
      "inputs": [
        {
          "internalType": "bytes4",
          "name": "selector",
          "type": "bytes4"
        }
      ],
      "name": "timelockedCalls",
      "outputs": [
        {
          "internalType": "uint256",
          "name": "allowedAfterTimestamp",
          "type": "uint256"
        },
        {
          "internalType": "bytes",
          "name": "encodedCall",
          "type": "bytes"
        }
      ],
      "stateMutability": "view",
      "type": "function"
    },
    {
      "inputs": [],
      "name": "totalInflationAuthorizedWei",
      "outputs": [
        {
          "internalType": "uint256",
          "name": "",
          "type": "uint256"
        }
      ],
      "stateMutability": "view",
      "type": "function"
    },
    {
      "inputs": [],
      "name": "totalInflationReceivedWei",
      "outputs": [
        {
          "internalType": "uint256",
          "name": "",
          "type": "uint256"
        }
      ],
      "stateMutability": "view",
      "type": "function"
    },
    {
      "inputs": [],
      "name": "totalInflationRewardsOfferedWei",
      "outputs": [
        {
          "internalType": "uint256",
          "name": "",
          "type": "uint256"
        }
      ],
      "stateMutability": "view",
      "type": "function"
    },
    {
      "inputs": [
        {
          "internalType": "uint24",
          "name": "_currentRewardEpochId",
          "type": "uint24"
        },
        {
          "internalType": "uint64",
          "name": "_currentRewardEpochExpectedEndTs",
          "type": "uint64"
        },
        {
          "internalType": "uint64",
          "name": "_rewardEpochDurationSeconds",
          "type": "uint64"
        }
      ],
      "name": "triggerRewardEpochSwitchover",
      "outputs": [],
      "stateMutability": "nonpayable",
      "type": "function"
    },
    {
      "inputs": [
        {
          "internalType": "bytes32[]",
          "name": "_contractNameHashes",
          "type": "bytes32[]"
        },
        {
          "internalType": "address[]",
          "name": "_contractAddresses",
          "type": "address[]"
        }
      ],
      "name": "updateContractAddresses",
      "outputs": [],
      "stateMutability": "nonpayable",
      "type": "function"
    }
  ],
  "bytecode": "0x60806040523480156200001157600080fd5b5060405162002a3b38038062002a3b83398101604081905262000034916200026d565b83838380808484620000478282620000db565b50620000739050817f714f205b2abd25bef1d06a1af944e38c113fe6160375c4e1d6d5cf28848e771955565b5050600d805460ff60a01b1916600160a01b60ff8716908102919091179091556040519081527f5d5d031078427b5a6de8e1f2973a0edacfca00cc17bb10fc99b4c726df1f1f4c93506020019150620000c99050565b60405180910390a150505050620002da565b600054600160a01b900460ff16156200013b5760405162461bcd60e51b815260206004820152601460248201527f696e697469616c6973656420213d2066616c736500000000000000000000000060448201526064015b60405180910390fd5b6001600160a01b038216620001935760405162461bcd60e51b815260206004820152601860248201527f676f7665726e616e63652073657474696e6773207a65726f0000000000000000604482015260640162000132565b6001600160a01b038116620001de5760405162461bcd60e51b815260206004820152601060248201526f5f676f7665726e616e6365207a65726f60801b604482015260640162000132565b600080546001600160a01b038481166001600160a81b031990921691909117600160a01b17909155600180549183166001600160a01b0319909216821790556040519081527f9789733827840833afc031fb2ef9ab6894271f77bad2085687cf4ae5c7bee4db9060200160405180910390a15050565b6001600160a01b03811681146200026a57600080fd5b50565b600080600080608085870312156200028457600080fd5b8451620002918162000254565b6020860151909450620002a48162000254565b6040860151909350620002b78162000254565b606086015190925060ff81168114620002cf57600080fd5b939692955090935050565b61275180620002ea6000396000f3fe6080604052600436106101d85760003560e01c806391f2567911610102578063debfda3011610095578063ef88bf1311610064578063ef88bf131461054d578063f5a983831461056d578063f5f5ba7214610582578063faae7fc9146105b757600080fd5b8063debfda30146104be578063e17f212e146104ee578063e27395631461050f578063ed39d3f81461052f57600080fd5b8063b00c0b76116100d1578063b00c0b7614610452578063bd76b69c14610472578063bfda608614610488578063d0c1c393146104a857600080fd5b806391f25679146103d457806394d019f1146103f4578063a5555aea14610427578063af04cd3b1461043d57600080fd5b80635267a15d1161017a5780636238f354116101495780636238f3541461035d57806367fc402914610370578063708e34ce1461039057806374e6310e146103a657600080fd5b80635267a15d146102d45780635aa6e675146103085780635ff270791461031d57806362354e031461033d57600080fd5b806312afcf0b116101b657806312afcf0b146102445780632dafdbbf14610268578063473252c41461029e5780634c5a1d28146102b457600080fd5b806306201f1d146101dd5780630f4ef8a6146101e7578063116ea70214610224575b600080fd5b6101e56105d7565b005b3480156101f357600080fd5b50600d54610207906001600160a01b031681565b6040516001600160a01b0390911681526020015b60405180910390f35b34801561023057600080fd5b50600c54610207906001600160a01b031681565b34801561025057600080fd5b5061025a60065481565b60405190815260200161021b565b34801561027457600080fd5b50610283600354600a54600092565b6040805193845260208401929092529082015260600161021b565b3480156102aa57600080fd5b5061025a60055481565b3480156102c057600080fd5b50600b54610207906001600160a01b031681565b3480156102e057600080fd5b507f714f205b2abd25bef1d06a1af944e38c113fe6160375c4e1d6d5cf28848e771954610207565b34801561031457600080fd5b50610207610639565b34801561032957600080fd5b506101e5610338366004611d8f565b6106d5565b34801561034957600080fd5b50600054610207906001600160a01b031681565b6101e561036b366004611db9565b610960565b34801561037c57600080fd5b506101e561038b366004611d8f565b610d3c565b34801561039c57600080fd5b5061025a60075481565b3480156103b257600080fd5b506103c66103c1366004611d8f565b610e1d565b60405161021b929190611e7a565b3480156103e057600080fd5b506101e56103ef366004611ec1565b610ec2565b34801561040057600080fd5b50600d5461041590600160a01b900460ff1681565b60405160ff909116815260200161021b565b34801561043357600080fd5b5061025a60045481565b34801561044957600080fd5b5061025a610f27565b34801561045e57600080fd5b506101e561046d366004612026565b610f31565b34801561047e57600080fd5b5061025a600a5481565b34801561049457600080fd5b506101e56104a33660046120ed565b61100c565b3480156104b457600080fd5b5061025a60035481565b3480156104ca57600080fd5b506104de6104d936600461210a565b61115f565b604051901515815260200161021b565b3480156104fa57600080fd5b506000546104de90600160a81b900460ff1681565b34801561051b57600080fd5b506101e561052a366004612127565b6111e8565b34801561053b57600080fd5b506008546001600160a01b0316610207565b34801561055957600080fd5b506101e5610568366004612140565b611240565b34801561057957600080fd5b506101e56113a6565b34801561058e57600080fd5b506040805180820182526006815265233231a43ab160d11b6020820152905161021b9190612179565b3480156105c357600080fd5b50600954610207906001600160a01b031681565b6105df61146c565b6105e76114d4565b346004546105f591906121a2565b600455426006556040513481527f95c4e29cc99bc027cfc3cd719d6fd973d5f0317061885fbb322b9b17d8d35d379060200160405180910390a161063761151f565b565b60008054600160a81b900460ff1661065b57506001546001600160a01b031690565b60008054906101000a90046001600160a01b03166001600160a01b031663732524946040518163ffffffff1660e01b8152600401602060405180830381865afa1580156106ac573d6000803e3d6000fd5b505050506040513d601f19601f820116820180604052508101906106d091906121b5565b905090565b6106de3361115f565b61071f5760405162461bcd60e51b815260206004820152600d60248201526c37b7363c9032bc32b1baba37b960991b60448201526064015b60405180910390fd5b6001600160e01b03198116600090815260026020526040812080549091036107895760405162461bcd60e51b815260206004820152601a60248201527f74696d656c6f636b3a20696e76616c69642073656c6563746f720000000000006044820152606401610716565b80544210156107da5760405162461bcd60e51b815260206004820152601960248201527f74696d656c6f636b3a206e6f7420616c6c6f77656420796574000000000000006044820152606401610716565b60008160010180546107eb906121d2565b80601f0160208091040260200160405190810160405280929190818152602001828054610817906121d2565b80156108645780601f1061083957610100808354040283529160200191610864565b820191906000526020600020905b81548152906001019060200180831161084757829003601f168201915b505050506001600160e01b03198516600090815260026020526040812081815592935090506108966001830182611d41565b50506000805460ff60b01b1916600160b01b17815560405130906108bb90849061220c565b6000604051808303816000865af19150503d80600081146108f8576040519150601f19603f3d011682016040523d82523d6000602084013e6108fd565b606091505b50506000805460ff60b01b19169055604080516001600160e01b0319871681524260208201529192507fa7326b57fc9cfe267aaea5e7f0b01757154d265620a0585819416ee9ddd2c438910160405180910390a161095a81611566565b50505050565b61096861146c565b600c54604051630507923b60e11b81526000916001600160a01b031690630a0f24769061099b9086908690600401612251565b602060405180830381865afa1580156109b8573d6000803e3d6000fd5b505050506040513d601f19601f820116820180604052508101906109dc9190612265565b905080341015610a545760405162461bcd60e51b815260206004820152603d60248201527f66656520746f206c6f772c2063616c6c2067657452657175657374466565207460448201527f6f20676574207468652072657175697265642066656520616d6f756e740000006064820152608401610716565b60095460408051637056269760e01b815290516000926001600160a01b03169163705626979160048083019260209291908290030181865afa158015610a9e573d6000803e3d6000fd5b505050506040513d601f19601f82011682018060405250810190610ac2919061227e565b90506000600960009054906101000a90046001600160a01b03166001600160a01b031663ed54fd636040518163ffffffff1660e01b8152600401602060405180830381865afa158015610b19573d6000803e3d6000fd5b505050506040513d601f19601f82011682018060405250810190610b3d919061229b565b600d54909150610b5790600160a01b900460ff16826122b8565b6001600160401b03164210610c87576009546001600160a01b03166375d2187a610b828460016122df565b6040516001600160e01b031960e084901b16815262ffffff9091166004820152602401602060405180830381865afa925050508015610bde575060408051601f3d908101601f19168201909252610bdb918101906122fb565b60015b15610c8757600960009054906101000a90046001600160a01b03166001600160a01b0316634134520b6040518163ffffffff1660e01b8152600401602060405180830381865afa158015610c36573d6000803e3d6000fd5b505050506040513d601f19601f82011682018060405250810190610c5a91906122fb565b610c65906001612321565b63ffffffff168163ffffffff1611610c8557610c826001846122df565b92505b505b600d5460405163a02e86e560e01b815262ffffff84166004820152600060248201526001600160a01b039091169063a02e86e59034906044016000604051808303818588803b158015610cd957600080fd5b505af1158015610ced573d6000803e3d6000fd5b50505050507f251377668af6553101c9bb094ba89c0c536783e005e203625e6cd57345918cc9858534604051610d259392919061233e565b60405180910390a1505050610d3861151f565b5050565b610d44611583565b6001600160e01b031981166000908152600260205260408120549003610dac5760405162461bcd60e51b815260206004820152601a60248201527f74696d656c6f636b3a20696e76616c69642073656c6563746f720000000000006044820152606401610716565b604080516001600160e01b0319831681524260208201527f7735b2391c38a81419c513e30ca578db7158eadd7101511b23e221c654d19cf8910160405180910390a16001600160e01b03198116600090815260026020526040812081815590610e186001830182611d41565b505050565b60026020526000908152604090208054600182018054919291610e3f906121d2565b80601f0160208091040260200160405190810160405280929190818152602001828054610e6b906121d2565b8015610eb85780601f10610e8d57610100808354040283529160200191610eb8565b820191906000526020600020905b815481529060010190602001808311610e9b57829003601f168201915b5050505050905082565b6009546001600160a01b03163314610f1c5760405162461bcd60e51b815260206004820152601960248201527f6f6e6c7920666c6172652073797374656d206d616e61676572000000000000006044820152606401610716565b610e188383836115dd565b60006106d06117b4565b7f714f205b2abd25bef1d06a1af944e38c113fe6160375c4e1d6d5cf28848e7719546001600160a01b0316336001600160a01b031614610faa5760405162461bcd60e51b815260206004820152601460248201527337b7363c9030b2323932b9b9903ab83230ba32b960611b6044820152606401610716565b611002610fde83836040518060400160405280600e81526020016d20b2323932b9b9aab83230ba32b960911b8152506117c6565b7f714f205b2abd25bef1d06a1af944e38c113fe6160375c4e1d6d5cf28848e771955565b610d3882826118a3565b600054600160b01b900460ff168061102e5750600054600160a81b900460ff16155b156111515761103b6119cd565b600960009054906101000a90046001600160a01b03166001600160a01b0316635a8320886040518163ffffffff1660e01b8152600401602060405180830381865afa15801561108e573d6000803e3d6000fd5b505050506040513d601f19601f820116820180604052508101906110b2919061229b565b6001600160401b03168160ff16106110fd5760405162461bcd60e51b815260206004820152600e60248201526d1a5b9d985b1a59081bd9999cd95d60921b6044820152606401610716565b600d805460ff60a01b1916600160a01b60ff8416908102919091179091556040519081527f5d5d031078427b5a6de8e1f2973a0edacfca00cc17bb10fc99b4c726df1f1f4c9060200160405180910390a150565b61115c600036611a05565b50565b60008054600160a01b900460ff1680156111e25750600054604051630debfda360e41b81526001600160a01b0384811660048301529091169063debfda3090602401602060405180830381865afa1580156111be573d6000803e3d6000fd5b505050506040513d601f19601f820116820180604052508101906111e29190612362565b92915050565b6111f06114d4565b60078190556003546112039082906121a2565b600355426005556040518181527f187f32a0f765499f15b3bb52ed0aebf6015059f230f2ace7e701e60a476695959060200160405180910390a150565b600054600160a01b900460ff16156112915760405162461bcd60e51b8152602060048201526014602482015273696e697469616c6973656420213d2066616c736560601b6044820152606401610716565b6001600160a01b0382166112e75760405162461bcd60e51b815260206004820152601860248201527f676f7665726e616e63652073657474696e6773207a65726f00000000000000006044820152606401610716565b6001600160a01b0381166113305760405162461bcd60e51b815260206004820152601060248201526f5f676f7665726e616e6365207a65726f60801b6044820152606401610716565b600080546001600160a01b038481166001600160a81b031990921691909117600160a01b17909155600180549183166001600160a01b0319909216821790556040519081527f9789733827840833afc031fb2ef9ab6894271f77bad2085687cf4ae5c7bee4db9060200160405180910390a15050565b6113ae611583565b600054600160a81b900460ff16156114085760405162461bcd60e51b815260206004820152601a60248201527f616c726561647920696e2070726f64756374696f6e206d6f64650000000000006044820152606401610716565b600180546001600160a01b031916905560008054600160a81b60ff60a81b198216179091556040516001600160a01b0390911681527f83af113638b5422f9e977cebc0aaf0eaf2188eb9a8baae7f9d46c42b33a1560c9060200160405180910390a1565b6000346114776117b4565b61148191906121a2565b905047818111156114c45761dead6108fc61149c8484612384565b6040518115909202916000818181858888f19350505050158015610e18573d6000803e3d6000fd5b81811015610d3857610d38612397565b6008546001600160a01b031633146106375760405162461bcd60e51b815260206004820152600e60248201526d696e666c6174696f6e206f6e6c7960901b6044820152606401610716565b6115276117b4565b47146106375760405162461bcd60e51b815260206004820152600e60248201526d6f7574206f662062616c616e636560901b6044820152606401610716565b3d604051818101604052816000823e821561157f578181f35b8181fd5b61158b610639565b6001600160a01b0316336001600160a01b0316146106375760405162461bcd60e51b815260206004820152600f60248201526e6f6e6c7920676f7665726e616e636560881b6044820152606401610716565b60006115ea8260026123ad565b6115f490846122b8565b6001600160401b03169050600061162d6201518060065461161591906121a2565b61161f85876122b8565b6001600160401b0316611b51565b9050600061165f6001600160401b0385166116488585612384565b600a546004546116589190612384565b9190611b67565b9050600061166e8760016122df565b90508062ffffff167fedcf03eed469135e307ec8dc425dc2c49560d3014b724a532f6f468fcc975df8600b60009054906101000a90046001600160a01b03166001600160a01b03166345bd2e196040518163ffffffff1660e01b8152600401600060405180830381865afa1580156116ea573d6000803e3d6000fd5b505050506040513d6000823e601f3d908101601f1916820160405261171291908101906123d8565b846040516117219291906124d1565b60405180910390a281600a600082825461173b91906121a2565b9091555050600d5460405163a02e86e560e01b815262ffffff83166004820152600160248201526001600160a01b039091169063a02e86e59084906044016000604051808303818588803b15801561179257600080fd5b505af11580156117a6573d6000803e3d6000fd5b505050505050505050505050565b6000600a546004546106d09190612384565b600080826040516020016117da9190612179565b6040516020818303038152906040528051906020012090506000805b86518110156118525786818151811061181157611811612557565b602002602001015183036118405785818151811061183157611831612557565b60200260200101519150611852565b8061184a8161256d565b9150506117f6565b506001600160a01b0381166118985760405162461bcd60e51b815260206004820152600c60248201526b61646472657373207a65726f60a01b6044820152606401610716565b9150505b9392505050565b6118ad8282611c8d565b6118ed82826040518060400160405280601a81526020017f466463496e666c6174696f6e436f6e66696775726174696f6e730000000000008152506117c6565b600b60006101000a8154816001600160a01b0302191690836001600160a01b0316021790555061195382826040518060400160405280601b81526020017f46646352657175657374466565436f6e66696775726174696f6e7300000000008152506117c6565b600c60006101000a8154816001600160a01b0302191690836001600160a01b031602179055506119a982826040518060400160405280600d81526020016c2932bbb0b93226b0b730b3b2b960991b8152506117c6565b600d80546001600160a01b0319166001600160a01b03929092169190911790555050565b600054600160b01b900460ff16156119fd573330146119ee576119ee612397565b6000805460ff60b01b19169055565b610637611583565b611a0d611583565b6000805460408051636221a54b60e01b81529051853593926001600160a01b031691636221a54b9160048083019260209291908290030181865afa158015611a59573d6000803e3d6000fd5b505050506040513d601f19601f82011682018060405250810190611a7d9190612265565b90506000611a8b82426121a2565b9050604051806040016040528082815260200186868080601f01602080910402602001604051908101604052809392919081815260200183838082843760009201829052509390945250506001600160e01b03198616815260026020908152604090912083518155908301519091506001820190611b0990826125d4565b509050507fed948300a3694aa01d4a6b258bfd664350193d770c0b51f8387277f6d83ea3b683828787604051611b429493929190612693565b60405180910390a15050505050565b6000818311611b60578161189c565b5090919050565b6000808211611bab5760405162461bcd60e51b815260206004820152601060248201526f4469766973696f6e206279207a65726f60801b6044820152606401610716565b83600003611bbb5750600061189c565b83830283858281611bce57611bce6126c6565b0403611bec57828181611be357611be36126c6565b0491505061189c565b506000611bf983866126dc565b90506000611c0784876126f0565b90506000611c1585876126dc565b90506000611c2386886126f0565b905085611c308285612704565b611c3a91906126dc565b611c448385612704565b611c4e8387612704565b88611c598689612704565b611c639190612704565b611c6d91906121a2565b611c7791906121a2565b611c8191906121a2565b98975050505050505050565b611c978282611cf1565b611ccd828260405180604001604052806013815260200172233630b932a9bcb9ba32b6b9a6b0b730b3b2b960691b8152506117c6565b600980546001600160a01b0319166001600160a01b03929092169190911790555050565b611d1d82826040518060400160405280600981526020016824b7333630ba34b7b760b91b8152506117c6565b600880546001600160a01b0319166001600160a01b03929092169190911790555050565b508054611d4d906121d2565b6000825580601f10611d5d575050565b601f01602090049060005260206000209081019061115c91905b80821115611d8b5760008155600101611d77565b5090565b600060208284031215611da157600080fd5b81356001600160e01b03198116811461189c57600080fd5b60008060208385031215611dcc57600080fd5b82356001600160401b0380821115611de357600080fd5b818501915085601f830112611df757600080fd5b813581811115611e0657600080fd5b866020828501011115611e1857600080fd5b60209290920196919550909350505050565b60005b83811015611e45578181015183820152602001611e2d565b50506000910152565b60008151808452611e66816020860160208601611e2a565b601f01601f19169290920160200192915050565b828152604060208201526000611e936040830184611e4e565b949350505050565b62ffffff8116811461115c57600080fd5b6001600160401b038116811461115c57600080fd5b600080600060608486031215611ed657600080fd5b8335611ee181611e9b565b92506020840135611ef181611eac565b91506040840135611f0181611eac565b809150509250925092565b634e487b7160e01b600052604160045260246000fd5b60405160a081016001600160401b0381118282101715611f4457611f44611f0c565b60405290565b604051601f8201601f191681016001600160401b0381118282101715611f7257611f72611f0c565b604052919050565b60006001600160401b03821115611f9357611f93611f0c565b5060051b60200190565b6001600160a01b038116811461115c57600080fd5b600082601f830112611fc357600080fd5b81356020611fd8611fd383611f7a565b611f4a565b82815260059290921b84018101918181019086841115611ff757600080fd5b8286015b8481101561201b57803561200e81611f9d565b8352918301918301611ffb565b509695505050505050565b6000806040838503121561203957600080fd5b82356001600160401b038082111561205057600080fd5b818501915085601f83011261206457600080fd5b81356020612074611fd383611f7a565b82815260059290921b8401810191818101908984111561209357600080fd5b948201945b838610156120b157853582529482019490820190612098565b965050860135925050808211156120c757600080fd5b506120d485828601611fb2565b9150509250929050565b60ff8116811461115c57600080fd5b6000602082840312156120ff57600080fd5b813561189c816120de565b60006020828403121561211c57600080fd5b813561189c81611f9d565b60006020828403121561213957600080fd5b5035919050565b6000806040838503121561215357600080fd5b823561215e81611f9d565b9150602083013561216e81611f9d565b809150509250929050565b60208152600061189c6020830184611e4e565b634e487b7160e01b600052601160045260246000fd5b808201808211156111e2576111e261218c565b6000602082840312156121c757600080fd5b815161189c81611f9d565b600181811c908216806121e657607f821691505b60208210810361220657634e487b7160e01b600052602260045260246000fd5b50919050565b6000825161221e818460208701611e2a565b9190910192915050565b81835281816020850137506000828201602090810191909152601f909101601f19169091010190565b602081526000611e93602083018486612228565b60006020828403121561227757600080fd5b5051919050565b60006020828403121561229057600080fd5b815161189c81611e9b565b6000602082840312156122ad57600080fd5b815161189c81611eac565b6001600160401b038281168282160390808211156122d8576122d861218c565b5092915050565b62ffffff8181168382160190808211156122d8576122d861218c565b60006020828403121561230d57600080fd5b815163ffffffff8116811461189c57600080fd5b63ffffffff8181168382160190808211156122d8576122d861218c565b604081526000612352604083018587612228565b9050826020830152949350505050565b60006020828403121561237457600080fd5b8151801515811461189c57600080fd5b818103818111156111e2576111e261218c565b634e487b7160e01b600052600160045260246000fd5b6001600160401b038181168382160280821691908281146123d0576123d061218c565b505092915050565b600060208083850312156123eb57600080fd5b82516001600160401b0381111561240157600080fd5b8301601f8101851361241257600080fd5b8051612420611fd382611f7a565b81815260a0918202830184019184820191908884111561243f57600080fd5b938501935b838510156124c55780858a03121561245c5760008081fd5b612464611f22565b85518152868601518782015260408087015161247f81611e9b565b90820152606086810151612492816120de565b908201526080868101516001600160e01b03811681146124b25760008081fd5b9082015283529384019391850191612444565b50979650505050505050565b6040808252835182820181905260009190606090818501906020808901865b838110156125435781518051865283810151848701528781015162ffffff16888701528681015160ff16878701526080908101516001600160e01b03169086015260a090940193908201906001016124f0565b505095909501959095525092949350505050565b634e487b7160e01b600052603260045260246000fd5b60006001820161257f5761257f61218c565b5060010190565b601f821115610e1857600081815260208120601f850160051c810160208610156125ad5750805b601f850160051c820191505b818110156125cc578281556001016125b9565b505050505050565b81516001600160401b038111156125ed576125ed611f0c565b612601816125fb84546121d2565b84612586565b602080601f831160018114612636576000841561261e5750858301515b600019600386901b1c1916600185901b1785556125cc565b600085815260208120601f198616915b8281101561266557888601518255948401946001909101908401612646565b50858210156126835787850151600019600388901b60f8161c191681555b5050505050600190811b01905550565b63ffffffff60e01b851681528360208201526060604082015260006126bc606083018486612228565b9695505050505050565b634e487b7160e01b600052601260045260246000fd5b6000826126eb576126eb6126c6565b500490565b6000826126ff576126ff6126c6565b500690565b80820281158282048414176111e2576111e261218c56fea2646970667358221220a46f0657f639e56c214d7ad7de679384f5f991aa0f939781ee8c2f428f5bf30b64736f6c63430008140033",
  "linkReferences": {},
  "deployedLinkReferences": {}
}