{
  "_format": "hh-sol-artifact-1",
  "contractName": "FlareSystemManager",
  "sourceName": "contracts/protocol/implementation/FlareSystemManager.sol",
  "abi": [
    {
      "inputs": [
        {
          "internalType": "contract IGovernanceSettings",
          "name": "_governanceSettings",
          "type": "address"
        },
        {
          "internalType": "address",
          "name": "_initialGovernance",
          "type": "address"
        },
        {
          "internalType": "address",
          "name": "_addressUpdater",
          "type": "address"
        },
        {
          "internalType": "address",
          "name": "_flareDaemon",
          "type": "address"
        },
        {
          "components": [
            {
              "internalType": "uint16",
              "name": "randomAcquisitionMaxDurationSeconds",
              "type": "uint16"
            },
            {
              "internalType": "uint16",
              "name": "randomAcquisitionMaxDurationBlocks",
              "type": "uint16"
            },
            {
              "internalType": "uint16",
              "name": "newSigningPolicyInitializationStartSeconds",
              "type": "uint16"
            },
            {
              "internalType": "uint8",
              "name": "newSigningPolicyMinNumberOfVotingRoundsDelay",
              "type": "uint8"
            },
            {
              "internalType": "uint16",
              "name": "voterRegistrationMinDurationSeconds",
              "type": "uint16"
            },
            {
              "internalType": "uint16",
              "name": "voterRegistrationMinDurationBlocks",
              "type": "uint16"
            },
            {
              "internalType": "uint24",
              "name": "signingPolicyThresholdPPM",
              "type": "uint24"
            },
            {
              "internalType": "uint16",
              "name": "signingPolicyMinNumberOfVoters",
              "type": "uint16"
            },
            {
              "internalType": "uint32",
              "name": "rewardExpiryOffsetSeconds",
              "type": "uint32"
            }
          ],
          "internalType": "struct FlareSystemManager.Settings",
          "name": "_settings",
          "type": "tuple"
        },
        {
          "internalType": "uint32",
          "name": "_firstVotingRoundStartTs",
          "type": "uint32"
        },
        {
          "internalType": "uint8",
          "name": "_votingEpochDurationSeconds",
          "type": "uint8"
        },
        {
          "internalType": "uint32",
          "name": "_firstRewardEpochStartVotingRoundId",
          "type": "uint32"
        },
        {
          "internalType": "uint16",
          "name": "_rewardEpochDurationInVotingEpochs",
          "type": "uint16"
        },
        {
          "components": [
            {
              "internalType": "uint16",
              "name": "initialRandomVotePowerBlockSelectionSize",
              "type": "uint16"
            },
            {
              "internalType": "uint24",
              "name": "initialRewardEpochId",
              "type": "uint24"
            },
            {
              "internalType": "uint16",
              "name": "initialRewardEpochThreshold",
              "type": "uint16"
            }
          ],
          "internalType": "struct FlareSystemManager.InitialSettings",
          "name": "_initialSettings",
          "type": "tuple"
        }
      ],
      "stateMutability": "nonpayable",
      "type": "constructor"
    },
    {
      "inputs": [],
      "name": "ECDSAInvalidSignature",
      "type": "error"
    },
    {
      "inputs": [
        {
          "internalType": "uint256",
          "name": "length",
          "type": "uint256"
        }
      ],
      "name": "ECDSAInvalidSignatureLength",
      "type": "error"
    },
    {
      "inputs": [
        {
          "internalType": "bytes32",
          "name": "s",
          "type": "bytes32"
        }
      ],
      "name": "ECDSAInvalidSignatureS",
      "type": "error"
    },
    {
      "inputs": [
        {
          "internalType": "uint8",
          "name": "bits",
          "type": "uint8"
        },
        {
          "internalType": "uint256",
          "name": "value",
          "type": "uint256"
        }
      ],
      "name": "SafeCastOverflowedUintDowncast",
      "type": "error"
    },
    {
      "anonymous": false,
      "inputs": [
        {
          "indexed": false,
          "internalType": "uint24",
          "name": "rewardEpochId",
          "type": "uint24"
        }
      ],
      "name": "ClosingExpiredRewardEpochFailed",
      "type": "event"
    },
    {
      "anonymous": false,
      "inputs": [
        {
          "indexed": false,
          "internalType": "bytes4",
          "name": "selector",
          "type": "bytes4"
        },
        {
          "indexed": false,
          "internalType": "uint256",
          "name": "allowedAfterTimestamp",
          "type": "uint256"
        },
        {
          "indexed": false,
          "internalType": "bytes",
          "name": "encodedCall",
          "type": "bytes"
        }
      ],
      "name": "GovernanceCallTimelocked",
      "type": "event"
    },
    {
      "anonymous": false,
      "inputs": [
        {
          "indexed": false,
          "internalType": "address",
          "name": "initialGovernance",
          "type": "address"
        }
      ],
      "name": "GovernanceInitialised",
      "type": "event"
    },
    {
      "anonymous": false,
      "inputs": [
        {
          "indexed": false,
          "internalType": "address",
          "name": "governanceSettings",
          "type": "address"
        }
      ],
      "name": "GovernedProductionModeEntered",
      "type": "event"
    },
    {
      "anonymous": false,
      "inputs": [
        {
          "indexed": false,
          "internalType": "uint24",
          "name": "rewardEpochId",
          "type": "uint24"
        },
        {
          "indexed": false,
          "internalType": "uint64",
          "name": "timestamp",
          "type": "uint64"
        }
      ],
      "name": "RandomAcquisitionStarted",
      "type": "event"
    },
    {
      "anonymous": false,
      "inputs": [
        {
          "indexed": false,
          "internalType": "uint24",
          "name": "rewardEpochId",
          "type": "uint24"
        },
        {
          "indexed": false,
          "internalType": "uint32",
          "name": "startVotingRoundId",
          "type": "uint32"
        },
        {
          "indexed": false,
          "internalType": "uint64",
          "name": "timestamp",
          "type": "uint64"
        }
      ],
      "name": "RewardEpochStarted",
      "type": "event"
    },
    {
      "anonymous": false,
      "inputs": [
        {
          "indexed": false,
          "internalType": "uint24",
          "name": "rewardEpochId",
          "type": "uint24"
        },
        {
          "indexed": false,
          "internalType": "address",
          "name": "signingPolicyAddress",
          "type": "address"
        },
        {
          "indexed": false,
          "internalType": "address",
          "name": "voter",
          "type": "address"
        },
        {
          "indexed": false,
          "internalType": "bytes32",
          "name": "rewardsHash",
          "type": "bytes32"
        },
        {
          "indexed": false,
          "internalType": "uint256",
          "name": "noOfWeightBasedClaims",
          "type": "uint256"
        },
        {
          "indexed": false,
          "internalType": "uint64",
          "name": "timestamp",
          "type": "uint64"
        },
        {
          "indexed": false,
          "internalType": "bool",
          "name": "thresholdReached",
          "type": "bool"
        }
      ],
      "name": "RewardsSigned",
      "type": "event"
    },
    {
      "anonymous": false,
      "inputs": [
        {
          "indexed": false,
          "internalType": "uint64",
          "name": "blockNumber",
          "type": "uint64"
        }
      ],
      "name": "SettingCleanUpBlockNumberFailed",
      "type": "event"
    },
    {
      "anonymous": false,
      "inputs": [
        {
          "indexed": false,
          "internalType": "uint24",
          "name": "rewardEpochId",
          "type": "uint24"
        },
        {
          "indexed": false,
          "internalType": "address",
          "name": "signingPolicyAddress",
          "type": "address"
        },
        {
          "indexed": false,
          "internalType": "address",
          "name": "voter",
          "type": "address"
        },
        {
          "indexed": false,
          "internalType": "uint64",
          "name": "timestamp",
          "type": "uint64"
        },
        {
          "indexed": false,
          "internalType": "bool",
          "name": "thresholdReached",
          "type": "bool"
        }
      ],
      "name": "SigningPolicySigned",
      "type": "event"
    },
    {
      "anonymous": false,
      "inputs": [
        {
          "indexed": false,
          "internalType": "bytes4",
          "name": "selector",
          "type": "bytes4"
        },
        {
          "indexed": false,
          "internalType": "uint256",
          "name": "timestamp",
          "type": "uint256"
        }
      ],
      "name": "TimelockedGovernanceCallCanceled",
      "type": "event"
    },
    {
      "anonymous": false,
      "inputs": [
        {
          "indexed": false,
          "internalType": "bytes4",
          "name": "selector",
          "type": "bytes4"
        },
        {
          "indexed": false,
          "internalType": "uint256",
          "name": "timestamp",
          "type": "uint256"
        }
      ],
      "name": "TimelockedGovernanceCallExecuted",
      "type": "event"
    },
    {
      "anonymous": false,
      "inputs": [
        {
          "indexed": false,
          "internalType": "uint24",
          "name": "rewardEpochId",
          "type": "uint24"
        }
      ],
      "name": "TriggeringVoterRegistrationFailed",
      "type": "event"
    },
    {
      "anonymous": false,
      "inputs": [
        {
          "indexed": false,
          "internalType": "uint24",
          "name": "rewardEpochId",
          "type": "uint24"
        },
        {
          "indexed": false,
          "internalType": "address",
          "name": "signingPolicyAddress",
          "type": "address"
        },
        {
          "indexed": false,
          "internalType": "address",
          "name": "voter",
          "type": "address"
        },
        {
          "indexed": false,
          "internalType": "bytes32",
          "name": "uptimeVoteHash",
          "type": "bytes32"
        },
        {
          "indexed": false,
          "internalType": "uint64",
          "name": "timestamp",
          "type": "uint64"
        },
        {
          "indexed": false,
          "internalType": "bool",
          "name": "thresholdReached",
          "type": "bool"
        }
      ],
      "name": "UptimeVoteSigned",
      "type": "event"
    },
    {
      "anonymous": false,
      "inputs": [
        {
          "indexed": false,
          "internalType": "uint24",
          "name": "rewardEpochId",
          "type": "uint24"
        },
        {
          "indexed": false,
          "internalType": "uint64",
          "name": "votePowerBlock",
          "type": "uint64"
        },
        {
          "indexed": false,
          "internalType": "uint64",
          "name": "timestamp",
          "type": "uint64"
        }
      ],
      "name": "VotePowerBlockSelected",
      "type": "event"
    },
    {
      "inputs": [
        {
          "internalType": "bytes4",
          "name": "_selector",
          "type": "bytes4"
        }
      ],
      "name": "cancelGovernanceCall",
      "outputs": [],
      "stateMutability": "nonpayable",
      "type": "function"
    },
    {
      "inputs": [
        {
          "internalType": "uint24",
          "name": "_signingPolicyThresholdPPM",
          "type": "uint24"
        },
        {
          "internalType": "uint16",
          "name": "_signingPolicyMinNumberOfVoters",
          "type": "uint16"
        }
      ],
      "name": "changeSigningPolicySettings",
      "outputs": [],
      "stateMutability": "nonpayable",
      "type": "function"
    },
    {
      "inputs": [],
      "name": "cleanupBlockNumberManager",
      "outputs": [
        {
          "internalType": "contract ICleanupBlockNumberManager",
          "name": "",
          "type": "address"
        }
      ],
      "stateMutability": "view",
      "type": "function"
    },
    {
      "inputs": [],
      "name": "currentRewardEpochExpectedEndTs",
      "outputs": [
        {
          "internalType": "uint64",
          "name": "",
          "type": "uint64"
        }
      ],
      "stateMutability": "view",
      "type": "function"
    },
    {
      "inputs": [],
      "name": "daemonize",
      "outputs": [
        {
          "internalType": "bool",
          "name": "",
          "type": "bool"
        }
      ],
      "stateMutability": "nonpayable",
      "type": "function"
    },
    {
      "inputs": [
        {
          "internalType": "bytes4",
          "name": "_selector",
          "type": "bytes4"
        }
      ],
      "name": "executeGovernanceCall",
      "outputs": [],
      "stateMutability": "nonpayable",
      "type": "function"
    },
    {
      "inputs": [],
      "name": "firstRewardEpochStartTs",
      "outputs": [
        {
          "internalType": "uint64",
          "name": "",
          "type": "uint64"
        }
      ],
      "stateMutability": "view",
      "type": "function"
    },
    {
      "inputs": [],
      "name": "firstVotingRoundStartTs",
      "outputs": [
        {
          "internalType": "uint64",
          "name": "",
          "type": "uint64"
        }
      ],
      "stateMutability": "view",
      "type": "function"
    },
    {
      "inputs": [],
      "name": "flareDaemon",
      "outputs": [
        {
          "internalType": "address",
          "name": "",
          "type": "address"
        }
      ],
      "stateMutability": "view",
      "type": "function"
    },
    {
      "inputs": [],
      "name": "getAddressUpdater",
      "outputs": [
        {
          "internalType": "address",
          "name": "_addressUpdater",
          "type": "address"
        }
      ],
      "stateMutability": "view",
      "type": "function"
    },
    {
      "inputs": [],
      "name": "getContractName",
      "outputs": [
        {
          "internalType": "string",
          "name": "",
          "type": "string"
        }
      ],
      "stateMutability": "pure",
      "type": "function"
    },
    {
      "inputs": [],
      "name": "getCurrentRandom",
      "outputs": [
        {
          "internalType": "uint256",
          "name": "_currentRandom",
          "type": "uint256"
        }
      ],
      "stateMutability": "view",
      "type": "function"
    },
    {
      "inputs": [],
      "name": "getCurrentRandomWithQuality",
      "outputs": [
        {
          "internalType": "uint256",
          "name": "_currentRandom",
          "type": "uint256"
        },
        {
          "internalType": "bool",
          "name": "_secureRandom",
          "type": "bool"
        }
      ],
      "stateMutability": "view",
      "type": "function"
    },
    {
      "inputs": [],
      "name": "getCurrentRewardEpochId",
      "outputs": [
        {
          "internalType": "uint24",
          "name": "_currentRewardEpochId",
          "type": "uint24"
        }
      ],
      "stateMutability": "view",
      "type": "function"
    },
    {
      "inputs": [
        {
          "internalType": "uint24",
          "name": "_rewardEpochId",
          "type": "uint24"
        }
      ],
      "name": "getRandomAcquisitionInfo",
      "outputs": [
        {
          "internalType": "uint64",
          "name": "_randomAcquisitionStartTs",
          "type": "uint64"
        },
        {
          "internalType": "uint64",
          "name": "_randomAcquisitionStartBlock",
          "type": "uint64"
        },
        {
          "internalType": "uint64",
          "name": "_randomAcquisitionEndTs",
          "type": "uint64"
        },
        {
          "internalType": "uint64",
          "name": "_randomAcquisitionEndBlock",
          "type": "uint64"
        }
      ],
      "stateMutability": "view",
      "type": "function"
    },
    {
      "inputs": [
        {
          "internalType": "uint24",
          "name": "_rewardEpochId",
          "type": "uint24"
        }
      ],
      "name": "getRewarEpochStartInfo",
      "outputs": [
        {
          "internalType": "uint64",
          "name": "_rewardEpochStartTs",
          "type": "uint64"
        },
        {
          "internalType": "uint64",
          "name": "_rewardEpochStartBlock",
          "type": "uint64"
        }
      ],
      "stateMutability": "view",
      "type": "function"
    },
    {
      "inputs": [],
      "name": "getRewardEpochSwitchoverTriggerContracts",
      "outputs": [
        {
          "internalType": "contract IRewardEpochSwitchoverTrigger[]",
          "name": "",
          "type": "address[]"
        }
      ],
      "stateMutability": "view",
      "type": "function"
    },
    {
      "inputs": [
        {
          "internalType": "uint24",
          "name": "_rewardEpochId",
          "type": "uint24"
        }
      ],
      "name": "getRewardsSignInfo",
      "outputs": [
        {
          "internalType": "uint64",
          "name": "_rewardsSignStartTs",
          "type": "uint64"
        },
        {
          "internalType": "uint64",
          "name": "_rewardsSignStartBlock",
          "type": "uint64"
        },
        {
          "internalType": "uint64",
          "name": "_rewardsSignEndTs",
          "type": "uint64"
        },
        {
          "internalType": "uint64",
          "name": "_rewardsSignEndBlock",
          "type": "uint64"
        }
      ],
      "stateMutability": "view",
      "type": "function"
    },
    {
      "inputs": [
        {
          "internalType": "uint256",
          "name": "_rewardEpochId",
          "type": "uint256"
        }
      ],
      "name": "getSeed",
      "outputs": [
        {
          "internalType": "uint256",
          "name": "",
          "type": "uint256"
        }
      ],
      "stateMutability": "view",
      "type": "function"
    },
    {
      "inputs": [
        {
          "internalType": "uint24",
          "name": "_rewardEpochId",
          "type": "uint24"
        }
      ],
      "name": "getSigningPolicySignInfo",
      "outputs": [
        {
          "internalType": "uint64",
          "name": "_signingPolicySignStartTs",
          "type": "uint64"
        },
        {
          "internalType": "uint64",
          "name": "_signingPolicySignStartBlock",
          "type": "uint64"
        },
        {
          "internalType": "uint64",
          "name": "_signingPolicySignEndTs",
          "type": "uint64"
        },
        {
          "internalType": "uint64",
          "name": "_signingPolicySignEndBlock",
          "type": "uint64"
        }
      ],
      "stateMutability": "view",
      "type": "function"
    },
    {
      "inputs": [
        {
          "internalType": "uint256",
          "name": "_rewardEpochId",
          "type": "uint256"
        }
      ],
      "name": "getStartVotingRoundId",
      "outputs": [
        {
          "internalType": "uint32",
          "name": "",
          "type": "uint32"
        }
      ],
      "stateMutability": "view",
      "type": "function"
    },
    {
      "inputs": [
        {
          "internalType": "uint256",
          "name": "_rewardEpochId",
          "type": "uint256"
        }
      ],
      "name": "getThreshold",
      "outputs": [
        {
          "internalType": "uint16",
          "name": "",
          "type": "uint16"
        }
      ],
      "stateMutability": "view",
      "type": "function"
    },
    {
      "inputs": [
        {
          "internalType": "uint256",
          "name": "_rewardEpochId",
          "type": "uint256"
        }
      ],
      "name": "getVotePowerBlock",
      "outputs": [
        {
          "internalType": "uint64",
          "name": "_votePowerBlock",
          "type": "uint64"
        }
      ],
      "stateMutability": "view",
      "type": "function"
    },
    {
      "inputs": [
        {
          "internalType": "uint256",
          "name": "_rewardEpochId",
          "type": "uint256"
        }
      ],
      "name": "getVoterRegistrationData",
      "outputs": [
        {
          "internalType": "uint256",
          "name": "_votePowerBlock",
          "type": "uint256"
        },
        {
          "internalType": "bool",
          "name": "_enabled",
          "type": "bool"
        }
      ],
      "stateMutability": "view",
      "type": "function"
    },
    {
      "inputs": [
        {
          "internalType": "uint24",
          "name": "_rewardEpochId",
          "type": "uint24"
        },
        {
          "internalType": "address",
          "name": "_voter",
          "type": "address"
        }
      ],
      "name": "getVoterRewardsSignInfo",
      "outputs": [
        {
          "internalType": "uint64",
          "name": "_rewardsSignTs",
          "type": "uint64"
        },
        {
          "internalType": "uint64",
          "name": "_rewardsSignBlock",
          "type": "uint64"
        }
      ],
      "stateMutability": "view",
      "type": "function"
    },
    {
      "inputs": [
        {
          "internalType": "uint24",
          "name": "_rewardEpochId",
          "type": "uint24"
        },
        {
          "internalType": "address",
          "name": "_voter",
          "type": "address"
        }
      ],
      "name": "getVoterSigningPolicySignInfo",
      "outputs": [
        {
          "internalType": "uint64",
          "name": "_signingPolicySignTs",
          "type": "uint64"
        },
        {
          "internalType": "uint64",
          "name": "_signingPolicySignBlock",
          "type": "uint64"
        }
      ],
      "stateMutability": "view",
      "type": "function"
    },
    {
      "inputs": [
        {
          "internalType": "uint24",
          "name": "_rewardEpochId",
          "type": "uint24"
        },
        {
          "internalType": "address",
          "name": "_voter",
          "type": "address"
        }
      ],
      "name": "getVoterUptimeVoteSignInfo",
      "outputs": [
        {
          "internalType": "uint64",
          "name": "_uptimeVoteSignTs",
          "type": "uint64"
        },
        {
          "internalType": "uint64",
          "name": "_uptimeVoteSignBlock",
          "type": "uint64"
        }
      ],
      "stateMutability": "view",
      "type": "function"
    },
    {
      "inputs": [],
      "name": "governance",
      "outputs": [
        {
          "internalType": "address",
          "name": "",
          "type": "address"
        }
      ],
      "stateMutability": "view",
      "type": "function"
    },
    {
      "inputs": [],
      "name": "governanceSettings",
      "outputs": [
        {
          "internalType": "contract IGovernanceSettings",
          "name": "",
          "type": "address"
        }
      ],
      "stateMutability": "view",
      "type": "function"
    },
    {
      "inputs": [],
      "name": "initialRandomVotePowerBlockSelectionSize",
      "outputs": [
        {
          "internalType": "uint64",
          "name": "",
          "type": "uint64"
        }
      ],
      "stateMutability": "view",
      "type": "function"
    },
    {
      "inputs": [
        {
          "internalType": "contract IGovernanceSettings",
          "name": "_governanceSettings",
          "type": "address"
        },
        {
          "internalType": "address",
          "name": "_initialGovernance",
          "type": "address"
        }
      ],
      "name": "initialise",
      "outputs": [],
      "stateMutability": "nonpayable",
      "type": "function"
    },
    {
      "inputs": [
        {
          "internalType": "address",
          "name": "_address",
          "type": "address"
        }
      ],
      "name": "isExecutor",
      "outputs": [
        {
          "internalType": "bool",
          "name": "",
          "type": "bool"
        }
      ],
      "stateMutability": "view",
      "type": "function"
    },
    {
      "inputs": [],
      "name": "isVoterRegistrationEnabled",
      "outputs": [
        {
          "internalType": "bool",
          "name": "",
          "type": "bool"
        }
      ],
      "stateMutability": "view",
      "type": "function"
    },
    {
      "inputs": [],
      "name": "lastInitializedVotingRoundId",
      "outputs": [
        {
          "internalType": "uint32",
          "name": "",
          "type": "uint32"
        }
      ],
      "stateMutability": "view",
      "type": "function"
    },
    {
      "inputs": [],
      "name": "newSigningPolicyInitializationStartSeconds",
      "outputs": [
        {
          "internalType": "uint64",
          "name": "",
          "type": "uint64"
        }
      ],
      "stateMutability": "view",
      "type": "function"
    },
    {
      "inputs": [],
      "name": "newSigningPolicyMinNumberOfVotingRoundsDelay",
      "outputs": [
        {
          "internalType": "uint32",
          "name": "",
          "type": "uint32"
        }
      ],
      "stateMutability": "view",
      "type": "function"
    },
    {
      "inputs": [
        {
          "internalType": "uint256",
          "name": "",
          "type": "uint256"
        }
      ],
      "name": "noOfWeightBasedClaims",
      "outputs": [
        {
          "internalType": "uint256",
          "name": "",
          "type": "uint256"
        }
      ],
      "stateMutability": "view",
      "type": "function"
    },
    {
      "inputs": [],
      "name": "productionMode",
      "outputs": [
        {
          "internalType": "bool",
          "name": "",
          "type": "bool"
        }
      ],
      "stateMutability": "view",
      "type": "function"
    },
    {
      "inputs": [],
      "name": "randomAcquisitionMaxDurationBlocks",
      "outputs": [
        {
          "internalType": "uint64",
          "name": "",
          "type": "uint64"
        }
      ],
      "stateMutability": "view",
      "type": "function"
    },
    {
      "inputs": [],
      "name": "randomAcquisitionMaxDurationSeconds",
      "outputs": [
        {
          "internalType": "uint64",
          "name": "",
          "type": "uint64"
        }
      ],
      "stateMutability": "view",
      "type": "function"
    },
    {
      "inputs": [],
      "name": "relay",
      "outputs": [
        {
          "internalType": "contract Relay",
          "name": "",
          "type": "address"
        }
      ],
      "stateMutability": "view",
      "type": "function"
    },
    {
      "inputs": [],
      "name": "rewardEpochDurationSeconds",
      "outputs": [
        {
          "internalType": "uint64",
          "name": "",
          "type": "uint64"
        }
      ],
      "stateMutability": "view",
      "type": "function"
    },
    {
      "inputs": [],
      "name": "rewardEpochIdToExpireNext",
      "outputs": [
        {
          "internalType": "uint24",
          "name": "",
          "type": "uint24"
        }
      ],
      "stateMutability": "view",
      "type": "function"
    },
    {
      "inputs": [],
      "name": "rewardExpiryOffsetSeconds",
      "outputs": [
        {
          "internalType": "uint32",
          "name": "",
          "type": "uint32"
        }
      ],
      "stateMutability": "view",
      "type": "function"
    },
    {
      "inputs": [],
      "name": "rewardManager",
      "outputs": [
        {
          "internalType": "contract RewardManager",
          "name": "",
          "type": "address"
        }
      ],
      "stateMutability": "view",
      "type": "function"
    },
    {
      "inputs": [
        {
          "internalType": "uint256",
          "name": "",
          "type": "uint256"
        }
      ],
      "name": "rewardsHash",
      "outputs": [
        {
          "internalType": "bytes32",
          "name": "",
          "type": "bytes32"
        }
      ],
      "stateMutability": "view",
      "type": "function"
    },
    {
      "inputs": [
        {
          "internalType": "contract IRewardEpochSwitchoverTrigger[]",
          "name": "_contracts",
          "type": "address[]"
        }
      ],
      "name": "setRewardEpochSwitchoverTriggerContracts",
      "outputs": [],
      "stateMutability": "nonpayable",
      "type": "function"
    },
    {
      "inputs": [
        {
          "internalType": "uint24",
          "name": "_rewardEpochId",
          "type": "uint24"
        },
        {
          "internalType": "uint64",
          "name": "_noOfWeightBasedClaims",
          "type": "uint64"
        },
        {
          "internalType": "bytes32",
          "name": "_rewardsHash",
          "type": "bytes32"
        }
      ],
      "name": "setRewardsData",
      "outputs": [],
      "stateMutability": "nonpayable",
      "type": "function"
    },
    {
      "inputs": [
        {
          "internalType": "bool",
          "name": "_triggerExpirationAndCleanup",
          "type": "bool"
        }
      ],
      "name": "setTriggerExpirationAndCleanup",
      "outputs": [],
      "stateMutability": "nonpayable",
      "type": "function"
    },
    {
      "inputs": [
        {
          "internalType": "contract IVoterRegistrationTrigger",
          "name": "_contract",
          "type": "address"
        }
      ],
      "name": "setVoterRegistrationTriggerContract",
      "outputs": [],
      "stateMutability": "nonpayable",
      "type": "function"
    },
    {
      "inputs": [
        {
          "internalType": "uint24",
          "name": "_rewardEpochId",
          "type": "uint24"
        },
        {
          "internalType": "bytes32",
          "name": "_newSigningPolicyHash",
          "type": "bytes32"
        },
        {
          "components": [
            {
              "internalType": "uint8",
              "name": "v",
              "type": "uint8"
            },
            {
              "internalType": "bytes32",
              "name": "r",
              "type": "bytes32"
            },
            {
              "internalType": "bytes32",
              "name": "s",
              "type": "bytes32"
            }
          ],
          "internalType": "struct FlareSystemManager.Signature",
          "name": "_signature",
          "type": "tuple"
        }
      ],
      "name": "signNewSigningPolicy",
      "outputs": [],
      "stateMutability": "nonpayable",
      "type": "function"
    },
    {
      "inputs": [
        {
          "internalType": "uint24",
          "name": "_rewardEpochId",
          "type": "uint24"
        },
        {
          "internalType": "uint64",
          "name": "_noOfWeightBasedClaims",
          "type": "uint64"
        },
        {
          "internalType": "bytes32",
          "name": "_rewardsHash",
          "type": "bytes32"
        },
        {
          "components": [
            {
              "internalType": "uint8",
              "name": "v",
              "type": "uint8"
            },
            {
              "internalType": "bytes32",
              "name": "r",
              "type": "bytes32"
            },
            {
              "internalType": "bytes32",
              "name": "s",
              "type": "bytes32"
            }
          ],
          "internalType": "struct FlareSystemManager.Signature",
          "name": "_signature",
          "type": "tuple"
        }
      ],
      "name": "signRewards",
      "outputs": [],
      "stateMutability": "nonpayable",
      "type": "function"
    },
    {
      "inputs": [
        {
          "internalType": "uint24",
          "name": "_rewardEpochId",
          "type": "uint24"
        },
        {
          "internalType": "bytes32",
          "name": "_uptimeVoteHash",
          "type": "bytes32"
        },
        {
          "components": [
            {
              "internalType": "uint8",
              "name": "v",
              "type": "uint8"
            },
            {
              "internalType": "bytes32",
              "name": "r",
              "type": "bytes32"
            },
            {
              "internalType": "bytes32",
              "name": "s",
              "type": "bytes32"
            }
          ],
          "internalType": "struct FlareSystemManager.Signature",
          "name": "_signature",
          "type": "tuple"
        }
      ],
      "name": "signUptimeVote",
      "outputs": [],
      "stateMutability": "nonpayable",
      "type": "function"
    },
    {
      "inputs": [],
      "name": "signingPolicyMinNumberOfVoters",
      "outputs": [
        {
          "internalType": "uint16",
          "name": "",
          "type": "uint16"
        }
      ],
      "stateMutability": "view",
      "type": "function"
    },
    {
      "inputs": [],
      "name": "signingPolicyThresholdPPM",
      "outputs": [
        {
          "internalType": "uint24",
          "name": "",
          "type": "uint24"
        }
      ],
      "stateMutability": "view",
      "type": "function"
    },
    {
      "inputs": [],
      "name": "submission",
      "outputs": [
        {
          "internalType": "contract Submission",
          "name": "",
          "type": "address"
        }
      ],
      "stateMutability": "view",
      "type": "function"
    },
    {
      "inputs": [],
      "name": "switchToFallbackMode",
      "outputs": [
        {
          "internalType": "bool",
          "name": "",
          "type": "bool"
        }
      ],
      "stateMutability": "pure",
      "type": "function"
    },
    {
      "inputs": [],
      "name": "switchToProductionMode",
      "outputs": [],
      "stateMutability": "nonpayable",
      "type": "function"
    },
    {
      "inputs": [
        {
          "internalType": "bytes4",
          "name": "",
          "type": "bytes4"
        }
      ],
      "name": "timelockedCalls",
      "outputs": [
        {
          "internalType": "uint256",
          "name": "allowedAfterTimestamp",
          "type": "uint256"
        },
        {
          "internalType": "bytes",
          "name": "encodedCall",
          "type": "bytes"
        }
      ],
      "stateMutability": "view",
      "type": "function"
    },
    {
      "inputs": [],
      "name": "triggerExpirationAndCleanup",
      "outputs": [
        {
          "internalType": "bool",
          "name": "",
          "type": "bool"
        }
      ],
      "stateMutability": "view",
      "type": "function"
    },
    {
      "inputs": [
        {
          "internalType": "bytes32[]",
          "name": "_contractNameHashes",
          "type": "bytes32[]"
        },
        {
          "internalType": "address[]",
          "name": "_contractAddresses",
          "type": "address[]"
        }
      ],
      "name": "updateContractAddresses",
      "outputs": [],
      "stateMutability": "nonpayable",
      "type": "function"
    },
    {
      "inputs": [
        {
          "components": [
            {
              "internalType": "uint16",
              "name": "randomAcquisitionMaxDurationSeconds",
              "type": "uint16"
            },
            {
              "internalType": "uint16",
              "name": "randomAcquisitionMaxDurationBlocks",
              "type": "uint16"
            },
            {
              "internalType": "uint16",
              "name": "newSigningPolicyInitializationStartSeconds",
              "type": "uint16"
            },
            {
              "internalType": "uint8",
              "name": "newSigningPolicyMinNumberOfVotingRoundsDelay",
              "type": "uint8"
            },
            {
              "internalType": "uint16",
              "name": "voterRegistrationMinDurationSeconds",
              "type": "uint16"
            },
            {
              "internalType": "uint16",
              "name": "voterRegistrationMinDurationBlocks",
              "type": "uint16"
            },
            {
              "internalType": "uint24",
              "name": "signingPolicyThresholdPPM",
              "type": "uint24"
            },
            {
              "internalType": "uint16",
              "name": "signingPolicyMinNumberOfVoters",
              "type": "uint16"
            },
            {
              "internalType": "uint32",
              "name": "rewardExpiryOffsetSeconds",
              "type": "uint32"
            }
          ],
          "internalType": "struct FlareSystemManager.Settings",
          "name": "_settings",
          "type": "tuple"
        }
      ],
      "name": "updateSettings",
      "outputs": [],
      "stateMutability": "nonpayable",
      "type": "function"
    },
    {
      "inputs": [
        {
          "internalType": "uint256",
          "name": "",
          "type": "uint256"
        }
      ],
      "name": "uptimeVoteHash",
      "outputs": [
        {
          "internalType": "bytes32",
          "name": "",
          "type": "bytes32"
        }
      ],
      "stateMutability": "view",
      "type": "function"
    },
    {
      "inputs": [],
      "name": "voterRegistrationMinDurationBlocks",
      "outputs": [
        {
          "internalType": "uint64",
          "name": "",
          "type": "uint64"
        }
      ],
      "stateMutability": "view",
      "type": "function"
    },
    {
      "inputs": [],
      "name": "voterRegistrationMinDurationSeconds",
      "outputs": [
        {
          "internalType": "uint64",
          "name": "",
          "type": "uint64"
        }
      ],
      "stateMutability": "view",
      "type": "function"
    },
    {
      "inputs": [],
      "name": "voterRegistrationTriggerContract",
      "outputs": [
        {
          "internalType": "contract IVoterRegistrationTrigger",
          "name": "",
          "type": "address"
        }
      ],
      "stateMutability": "view",
      "type": "function"
    },
    {
      "inputs": [],
      "name": "voterRegistry",
      "outputs": [
        {
          "internalType": "contract VoterRegistry",
          "name": "",
          "type": "address"
        }
      ],
      "stateMutability": "view",
      "type": "function"
    },
    {
      "inputs": [],
      "name": "votingEpochDurationSeconds",
      "outputs": [
        {
          "internalType": "uint64",
          "name": "",
          "type": "uint64"
        }
      ],
      "stateMutability": "view",
      "type": "function"
    }
  ],
  "bytecode": "0x6101406040526008805460ff60a81b191690553480156200001f57600080fd5b5060405162006372380380620063728339810160408190526200004291620007aa565b878a8a6200005182826200037f565b506200007d9050817f714f205b2abd25bef1d06a1af944e38c113fe6160375c4e1d6d5cf28848e771955565b506001600160a01b038716620000ce5760405162461bcd60e51b8152602060048201526011602482015270666c617265206461656d6f6e207a65726f60781b60448201526064015b60405180910390fd5b60008261ffff1611620001245760405162461bcd60e51b815260206004820152601a60248201527f7265776172642065706f6368206475726174696f6e207a65726f0000000000006044820152606401620000c5565b60008460ff1611620001795760405162461bcd60e51b815260206004820152601a60248201527f766f74696e672065706f6368206475726174696f6e207a65726f0000000000006044820152606401620000c5565b805161ffff16620001bb5760405162461bcd60e51b815260206004820152600b60248201526a7a65726f20626c6f636b7360a81b6044820152606401620000c5565b620001c686620004f4565b6001600160a01b03871660805263ffffffff851660e05260ff8416610100819052620001f390846200095e565b620001ff908662000989565b63ffffffff1660a0526200021b60ff851661ffff8416620009b0565b6001600160401b031660c0819052815161ffff166101205260208201516009805462ffffff60201b191664010000000062ffffff84160217905562000262906001620009d6565b62ffffff16620002739190620009b0565b60a051620002829190620009f5565b60088054600160b01b600160f01b031916600160b01b6001600160401b03939093169290920291909117905560408181015160208084015162ffffff1660009081526003909152829020600401805461ffff60601b19166c0100000000000000000000000061ffff93841602179055908701516200030291164262000a18565b600854600160b01b90046001600160401b0316116200036f5760405162461bcd60e51b815260206004820152602260248201527f7265776172642065706f636820656e64206e6f7420696e207468652066757475604482015261726560f01b6064820152608401620000c5565b5050505050505050505062000a34565b600054600160a01b900460ff1615620003db5760405162461bcd60e51b815260206004820152601460248201527f696e697469616c6973656420213d2066616c73650000000000000000000000006044820152606401620000c5565b6001600160a01b038216620004335760405162461bcd60e51b815260206004820152601860248201527f676f7665726e616e63652073657474696e6773207a65726f00000000000000006044820152606401620000c5565b6001600160a01b0381166200047e5760405162461bcd60e51b815260206004820152601060248201526f5f676f7665726e616e6365207a65726f60801b6044820152606401620000c5565b600080546001600160a01b038481166001600160a81b031990921691909117600160a01b17909155600180549183166001600160a01b0319909216821790556040519081527f9789733827840833afc031fb2ef9ab6894271f77bad2085687cf4ae5c7bee4db9060200160405180910390a15050565b620f42408160c0015162ffffff161115620005475760405162461bcd60e51b81526020600482015260126024820152710e8d0e4cae6d0ded8c840e8dede40d0d2ced60731b6044820152606401620000c5565b60008160e0015161ffff16116200058f5760405162461bcd60e51b815260206004820152600b60248201526a7a65726f20766f7465727360a81b6044820152606401620000c5565b80516007805460208401516040850151606086015161010087015161ffff9687166001600160801b0319958616179387166801000000000000000090810294909417600160801b600160e01b031916928716600160801b90810263ffffffff60c01b19169390931760ff909216600160c01b02919091176001600160e01b0316600160e01b63ffffffff909216919091021790935560808501516008805460a088015160c089015160e09099015193881691909516179386169092029290921764ffffffffff60801b191662ffffff90951690920261ffff60981b191693909317600160981b9390921692909202179055565b6001600160a01b03811681146200069857600080fd5b50565b60405161012081016001600160401b0381118282101715620006cd57634e487b7160e01b600052604160045260246000fd5b60405290565b805161ffff81168114620006e657600080fd5b919050565b805160ff81168114620006e657600080fd5b805162ffffff81168114620006e657600080fd5b805163ffffffff81168114620006e657600080fd5b6000606082840312156200073957600080fd5b604051606081016001600160401b03811182821017156200076a57634e487b7160e01b600052604160045260246000fd5b6040529050806200077b83620006d3565b81526200078b60208401620006fd565b60208201526200079e60408401620006d3565b60408201525092915050565b6000806000806000806000806000808a8c03610280811215620007cc57600080fd5b8b51620007d98162000682565b60208d0151909b50620007ec8162000682565b60408d0151909a50620007ff8162000682565b60608d0151909950620008128162000682565b9750610120607f1982018113156200082957600080fd5b620008336200069b565b91506200084360808e01620006d3565b82526200085360a08e01620006d3565b60208301526200086660c08e01620006d3565b60408301526200087960e08e01620006eb565b60608301526101006200088e818f01620006d3565b6080840152620008a0828f01620006d3565b60a0840152620008b46101408f01620006fd565b60c0840152620008c86101608f01620006d3565b60e0840152620008dc6101808f0162000711565b90830152509550620008f26101a08c0162000711565b9450620009036101c08c01620006eb565b9350620009146101e08c0162000711565b9250620009256102008c01620006d3565b9150620009378c6102208d0162000726565b90509295989b9194979a5092959850565b634e487b7160e01b600052601160045260246000fd5b63ffffffff81811683821602808216919082811462000981576200098162000948565b505092915050565b63ffffffff818116838216019080821115620009a957620009a962000948565b5092915050565b6001600160401b0381811683821602808216919082811462000981576200098162000948565b62ffffff818116838216019080821115620009a957620009a962000948565b6001600160401b03818116838216019080821115620009a957620009a962000948565b8082018082111562000a2e5762000a2e62000948565b92915050565b60805160a05160c05160e05161010051610120516158a862000aca60003960008181610bdb0152613cc301526000818161071601528181613ac50152614826015260008181610c3001528181613aef01526147e101526000818161087001528181611eae01528181613b3a01526142c90152600081816108490152613b6401526000818161096501526119da01526158a86000f3fe608060405234801561001057600080fd5b50600436106103fc5760003560e01c806388e49ac711610215578063d10e807f11610125578063e0d4ea37116100b8578063ed54fd6311610087578063ed54fd6314610c52578063ef88bf1314610c6c578063f21d630414610c7f578063f5a9838314610c95578063f5f5ba7214610c9d57600080fd5b8063e0d4ea3714610bfd578063e17f212e14610c10578063e22fdece14610c24578063e8d0e70a14610c2b57600080fd5b8063dac4319d116100f4578063dac4319d14610b5c578063dc5a422514610bb0578063debfda3014610bc3578063ded7c4b814610bd657600080fd5b8063d10e807f14610ac9578063d2e9ad7114610ae3578063d346691114610b34578063d89601fd14610b5457600080fd5b8063a978fb6b116101a8578063b59589d111610177578063b59589d1146109f5578063b6c25af014610a08578063be60040e14610a59578063c263221614610a73578063cd69ef1514610a8657600080fd5b8063a978fb6b146109b1578063ab25ac5b146109b9578063aec84ab6146109cc578063b00c0b76146109e257600080fd5b80639b760d13116101e45780639b760d131461094c578063a107753214610960578063a219fe0214610987578063a733d54b1461099a57600080fd5b806388e49ac714610892578063898805c1146108a55780638f8f9f3a146108b85780639a7590971461093957600080fd5b80635267a15d1161031057806367fc4029116102a3578063705626971161027257806370562697146107f457806374e6310e1461081057806375d2187a1461083157806379e047ed1461084457806385f3c9c91461086b57600080fd5b806367fc4029146107ac5780636aeffddc146107bf5780636b4c7bd6146107d95780636d0e8c34146107ec57600080fd5b806362354e03116102df57806362354e0314610753578063647006e21461076657806365b05d661461078657806367daec891461079957600080fd5b80635267a15d146106ea5780635a832088146107115780635aa6e675146107385780635ff270791461074057600080fd5b80632e3645f8116103935780634683153111610362578063468315311461066c578063490344f4146106815780634eac870f1461069b5780634eaee307146106ae5780634f923d37146106da57600080fd5b80632e3645f81461059d578063388a4c3d146105c557806341c05ad5146105f35780634615d5e91461065957600080fd5b80631703a788116103cf5780631703a788146104895780631916e915146104b157806324eb64de146105775780632a576f8d1461058a57600080fd5b806306886f411461040157806309505d2514610416578063098e7ff6146104335780630f4ef8a61461045e575b600080fd5b61041461040f366004614aa9565b610cd1565b005b61041e610e68565b60405190151581526020015b60405180910390f35b600754610446906001600160401b031681565b6040516001600160401b03909116815260200161042a565b600c54610471906001600160a01b031681565b6040516001600160a01b03909116815260200161042a565b61049c610497366004614b1d565b610ea5565b6040805192835290151560208301520161042a565b6105576104bf366004614b5e565b62ffffff919091166000818152600360209081526040808320600683528184205460058452828520548351808601979097528684019190915260608087019190915282518087039091018152608090950182528451948301949094208352600890930181528282206001600160a01b03909416825260019093019092529020546001600160401b0380821692600160401b9092041690565b604080516001600160401b0393841681529290911660208301520161042a565b610414610585366004614b95565b610ed5565b610414610598366004614bc9565b610f30565b6008546105b290600160981b900461ffff1681565b60405161ffff909116815260200161042a565b6105e56105d3366004614b1d565b60066020526000908152604090205481565b60405190815260200161042a565b610557610601366004614b5e565b62ffffff90911660009081526003602090815260408083206004835281842054845260070182528083206001600160a01b0390941683526001909301905220546001600160401b0380821692600160401b9092041690565b6105b2610667366004614b1d565b61102b565b6106746110bc565b60405161042a9190614c05565b60075461044690600160401b90046001600160401b031681565b600d54610471906001600160a01b031681565b6007546106c590600160e01b900463ffffffff1681565b60405163ffffffff909116815260200161042a565b6009546106c59063ffffffff1681565b7f714f205b2abd25bef1d06a1af944e38c113fe6160375c4e1d6d5cf28848e771954610471565b6104467f000000000000000000000000000000000000000000000000000000000000000081565b61047161111e565b61041461074e366004614c46565b6111ba565b600054610471906001600160a01b031681565b6105e5610774366004614b1d565b60056020526000908152604090205481565b610414610794366004614d28565b61143a565b6104146107a7366004614dec565b611472565b6104146107ba366004614c46565b6114bb565b60075461044690600160801b90046001600160401b031681565b6104146107e7366004614e1b565b611597565b61041e6119cd565b6107fc61244a565b60405162ffffff909116815260200161042a565b61082361081e366004614c46565b612479565b60405161042a929190614ea8565b6106c561083f366004614b1d565b61251e565b6104467f000000000000000000000000000000000000000000000000000000000000000081565b6104467f000000000000000000000000000000000000000000000000000000000000000081565b600e54610471906001600160a01b031681565b6104146108b3366004614ec9565b6125ad565b6109066108c6366004614ef5565b62ffffff166000908152600360205260409020546001600160401b0380821692600160401b8304821692600160801b8104831692600160c01b9091041690565b604080516001600160401b039586168152938516602085015291841691830191909152909116606082015260800161042a565b600a54610471906001600160a01b031681565b60085461041e90600160a81b900460ff1681565b6104717f000000000000000000000000000000000000000000000000000000000000000081565b600854610446906001600160401b031681565b6007546106c590600160c01b900463ffffffff1681565b61049c6126a1565b6104146109c7366004614f10565b6126b6565b6009546107fc90600160201b900462ffffff1681565b6104146109f0366004614ff5565b612bf5565b600b54610471906001600160a01b031681565b610906610a16366004614ef5565b62ffffff166000908152600360205260409020600201546001600160401b0380821692600160401b8304821692600160801b8104831692600160c01b9091041690565b60095461047190600160381b90046001600160a01b031681565b610446610a81366004614b1d565b612cd0565b610557610a94366004614ef5565b62ffffff166000908152600360205260409020600401546001600160401b03600160701b8204811692600160b01b9092041690565b60085461044690600160401b90046001600160401b031681565b610906610af1366004614ef5565b62ffffff166000908152600360205260409020600101546001600160401b0380821692600160401b8304821692600160801b8104831692600160c01b9091041690565b6105e5610b42366004614b1d565b60046020526000908152604090205481565b6105e5612d4c565b610557610b6a366004614b5e565b62ffffff90911660009081526003602090815260408083206001600160a01b0390941683526006909301905220546001600160401b0380821692600160401b9092041690565b610414610bbe366004614e1b565b612d5e565b61041e610bd1366004614b95565b6131db565b6104467f000000000000000000000000000000000000000000000000000000000000000081565b6105e5610c0b366004614b1d565b613264565b60005461041e90600160a81b900460ff1681565b600061041e565b6104467f000000000000000000000000000000000000000000000000000000000000000081565b60085461044690600160b01b90046001600160401b031681565b610414610c7a3660046150ad565b6132e4565b6008546107fc90600160801b900462ffffff1681565b61041461344a565b6040805180820182526012815271233630b932a9bcb9ba32b6a6b0b730b3b2b960711b6020820152905161042a91906150cb565b600054600160b01b900460ff1680610cf35750600054600160a81b900460ff16155b15610e5957610d00613510565b610d0c600f6000614a40565b8060005b81811015610e53576000848483818110610d2c57610d2c6150de565b9050602002016020810190610d419190614b95565b90506000610d5083600161510a565b90505b83811015610df057858582818110610d6d57610d6d6150de565b9050602002016020810190610d829190614b95565b6001600160a01b0316826001600160a01b031603610dde5760405162461bcd60e51b81526020600482015260146024820152736475706c69636174656420636f6e74726163747360601b60448201526064015b60405180910390fd5b80610de88161511d565b915050610d53565b50600f80546001810182556000919091527f8d1108e10bcb7c27dddfc02ed9d693a074039d026cf4ea4240b40f7d581ac8020180546001600160a01b0319166001600160a01b039290921691909117905580610e4b8161511d565b915050610d10565b50505050565b610e6460003661354a565b5050565b600080610e7361244a565b610e7e906001615136565b62ffffff166000818152600360205260409020909150610e9f908290613696565b91505090565b600081815260036020526040812060048101546001600160401b03169190610ece908490613696565b9050915091565b600054600160b01b900460ff1680610ef75750600054600160a81b900460ff16155b15610f2257610f04613510565b600e80546001600160a01b0319166001600160a01b03831617905550565b610f2d60003661354a565b50565b600054600160b01b900460ff1680610f525750600054600160a81b900460ff16155b1561101b57610f5f613510565b610f6761244a565b62ffffff168362ffffff1610610f8f5760405162461bcd60e51b8152600401610dd590615159565b62ffffff83166000908152600560209081526040808320849055600690915290206001600160401b03831690557f80df246a47153e3604b0026fcf53ec85ea48178efd4f3cad24f9a1e1da2dd52a83610fe661111e565b610fee61111e565b8486610ff9426137b0565b600160405161100e9796959493929190615186565b60405180910390a1505050565b61102660003661354a565b505050565b60008181526003602052604081206001015482906001600160401b031682036110965760405162461bcd60e51b815260206004820181905260248201527f7265776172642065706f6368206e6f7420696e697469616c697a6564207965746044820152606401610dd5565b600083815260036020526040902060040154600160601b900461ffff1691505b50919050565b6060600f80548060200260200160405190810160405280929190818152602001828054801561111457602002820191906000526020600020905b81546001600160a01b031681526001909101906020018083116110f6575b5050505050905090565b60008054600160a81b900460ff1661114057506001546001600160a01b031690565b60008054906101000a90046001600160a01b03166001600160a01b031663732524946040518163ffffffff1660e01b8152600401602060405180830381865afa158015611191573d6000803e3d6000fd5b505050506040513d601f19601f820116820180604052508101906111b591906151d6565b905090565b6111c3336131db565b6111ff5760405162461bcd60e51b815260206004820152600d60248201526c37b7363c9032bc32b1baba37b960991b6044820152606401610dd5565b6001600160e01b03198116600090815260026020526040812080549091036112695760405162461bcd60e51b815260206004820152601a60248201527f74696d656c6f636b3a20696e76616c69642073656c6563746f720000000000006044820152606401610dd5565b80544210156112ba5760405162461bcd60e51b815260206004820152601960248201527f74696d656c6f636b3a206e6f7420616c6c6f77656420796574000000000000006044820152606401610dd5565b60008160010180546112cb906151f3565b80601f01602080910402602001604051908101604052809291908181526020018280546112f7906151f3565b80156113445780601f1061131957610100808354040283529160200191611344565b820191906000526020600020905b81548152906001019060200180831161132757829003601f168201915b505050506001600160e01b03198516600090815260026020526040812081815592935090506113766001830182614a5e565b50506000805460ff60b01b1916600160b01b178155604051309061139b908490615227565b6000604051808303816000865af19150503d80600081146113d8576040519150601f19603f3d011682016040523d82523d6000602084013e6113dd565b606091505b50506000805460ff60b01b19169055604080516001600160e01b0319871681524260208201529192507fa7326b57fc9cfe267aaea5e7f0b01757154d265620a0585819416ee9ddd2c438910160405180910390a1610e53816137ea565b600054600160b01b900460ff168061145c5750600054600160a81b900460ff16155b15610f2257611469613510565b610f2d81613807565b600054600160b01b900460ff16806114945750600054600160a81b900460ff16155b15610f22576114a1613510565b6008805460ff60a81b1916600160a81b8315150217905550565b6114c3613991565b6001600160e01b03198116600090815260026020526040812054900361152b5760405162461bcd60e51b815260206004820152601a60248201527f74696d656c6f636b3a20696e76616c69642073656c6563746f720000000000006044820152606401610dd5565b604080516001600160e01b0319831681524260208201527f7735b2391c38a81419c513e30ca578db7158eadd7101511b23e221c654d19cf8910160405180910390a16001600160e01b031981166000908152600260205260408120818155906110266001830182614a5e565b81158015906115ad5750816115ab846139eb565b145b6115f95760405162461bcd60e51b815260206004820152601f60248201527f6e6577207369676e696e6720706f6c696379206861736820696e76616c6964006044820152606401610dd5565b6000600381611609600187615243565b62ffffff16815260208101919091526040016000206001810154909150600160801b90046001600160401b03161561168d5760405162461bcd60e51b815260206004820152602160248201527f6e6577207369676e696e6720706f6c69637920616c7265616479207369676e656044820152601960fa1b6064820152608401610dd5565b600061169884613a5d565b905060006116bc826116ad602087018761525f565b86602001358760400135613a90565b6009549091506000908190600160381b90046001600160a01b0316638c6457286116e760018b615243565b6040516001600160e01b031960e084901b16815262ffffff90911660048201526001600160a01b03861660248201526044016040805180830381865afa158015611735573d6000803e3d6000fd5b505050506040513d601f19601f820116820180604052508101906117599190615285565b90925090506001600160a01b0382166117845760405162461bcd60e51b8152600401610dd5906152b4565b6001600160a01b03821660009081526006860160205260409020546001600160401b0316156117f55760405162461bcd60e51b815260206004820152601e60248201527f7369676e696e67206164647265737320616c7265616479207369676e656400006044820152606401610dd5565b6040518060400160405280611809426137b0565b6001600160401b03168152602001611820436137b0565b6001600160401b039081169091526001600160a01b0384166000908152600688016020908152604082208451815495909201518416600160401b026001600160801b031990951691909316179290921790556004860154600587015461ffff600160601b909204821691611896918591166152df565b61ffff161190508015611918576118ac426137b0565b8660010160106101000a8154816001600160401b0302191690836001600160401b031602179055506118dd436137b0565b6001870180546001600160401b0392909216600160c01b026001600160c01b0390921691909117905560058601805461ffff1916905561194e565b60058601805483919060009061193390849061ffff166152df565b92506101000a81548161ffff021916908361ffff1602179055505b7f154b0214ae62d8a5548c1eac25fabd87c38b04932a217732e1022f3118da67f389858561197b426137b0565b6040805162ffffff9590951685526001600160a01b03938416602086015291909216908301526001600160401b03166060820152821515608082015260a00160405180910390a1505050505050505050565b6000336001600160a01b037f00000000000000000000000000000000000000000000000000000000000000001614611a3b5760405162461bcd60e51b815260206004820152601160248201527037b7363c90333630b932903230b2b6b7b760791b6044820152606401610dd5565b6000611a45613abe565b90506000611a51613b31565b600754600854919250611a7f916001600160401b03600160801b909204821691600160b01b909104166152fa565b6001600160401b0316421061205a576000611a9b826001615136565b90506000611aa8826139eb565b03611e9e5762ffffff81166000908152600360205260408120805490916001600160401b039091169003611bea57611adf426137b0565b815467ffffffffffffffff19166001600160401b0391909116178155611b04436137b0565b815467ffffffffffffffff60401b1916600160401b6001600160401b039290921691909102178155600954604051635213182360e01b815262ffffff84166004820152600160381b9091046001600160a01b031690635213182390602401600060405180830381600087803b158015611b7c57600080fd5b505af1158015611b90573d6000803e3d6000fd5b505050507ff9991783e5e480e42d9a54d3f35f4321857f8f0ebeb3742d326dce28b112670882611bbf426137b0565b6040805162ffffff90931683526001600160401b0390911660208301520160405180910390a1611e9c565b8054600160801b90046001600160401b0316600003611e23576000806000611c10613bc5565b865492955090935091506000906001600160401b03908116908316118015611c355750825b15611c4b57611c448685613c54565b9050611d06565b60075485544391611c73916001600160401b03600160401b928390048116929091041661531a565b6001600160401b0316108015611cac575060075485544291611ca1916001600160401b03918216911661531a565b6001600160401b0316105b15611d06575062ffffff86166000908152600360205260409020600401546001600160401b03168015611cf95762ffffff8716600090815260036020819052604090912001549350611d06565b611d038685613c54565b90505b6001600160401b03811615611e1a5743816001600160401b031610611d2d57611d2d61533a565b611d36426137b0565b85546001600160401b0391909116600160801b0267ffffffffffffffff60801b19909116178555611d66436137b0565b85546001600160c01b0316600160c01b6001600160401b039283160217865560048601805467ffffffffffffffff1916918316919091179055600385018490557ff21722dbe044a7cea0f6d81c871cae750971e36c9dd10999e46f2b46f26ac7ff8682611dd2426137b0565b6040805162ffffff90941684526001600160401b03928316602085015291169082015260600160405180910390a1600e546001600160a01b031615611e1a57611e1a86613d3e565b50505050611e9c565b611e328262ffffff1682613696565b611e9c57611e3f426137b0565b60018201805467ffffffffffffffff19166001600160401b0392909216919091179055611e6b436137b0565b8160010160086101000a8154816001600160401b0302191690836001600160401b03160217905550611e9c82613dd9565b505b611ea781613fc6565b15612058577f0000000000000000000000000000000000000000000000000000000000000000600860168282829054906101000a90046001600160401b0316611ef0919061531a565b92506101000a8154816001600160401b0302191690836001600160401b03160217905550611f1d426137b0565b62ffffff8216600090815260036020526040902060040180546001600160401b0392909216600160701b0267ffffffffffffffff60701b19909216919091179055611f67436137b0565b62ffffff8216600090815260036020526040902060040180546001600160401b0392909216600160b01b0267ffffffffffffffff60b01b1990921691909117908190557f4abb62ab1e4c42a11b90e4e45b92af1274f74cc634b759518e8c99e000d8be6d90829063ffffffff600160401b90910416611fe5426137b0565b6040805162ffffff909416845263ffffffff90921660208401526001600160401b03169082015260600160405180910390a1600854600160a81b900460ff161561203a5761203281614036565b61203a6141b1565b600854612058908290600160b01b90046001600160401b0316614273565b505b60095463ffffffff908116908316111561229d576009805463ffffffff191663ffffffff84161790819055604051637c2cb92160e01b815262ffffff8316600482015260609182918291600160381b90046001600160a01b031690637c2cb92190602401600060405180830381865afa1580156120db573d6000803e3d6000fd5b505050506040513d6000823e601f3d908101601f1916820160405261210391908101906153b4565b600954604051635b0dabfd60e11b815262ffffff87166004820152919350600160381b90046001600160a01b03169063b61b57fa90602401600060405180830381865afa158015612158573d6000803e3d6000fd5b505050506040513d6000823e601f3d908101601f1916820160405261218091908101906153b4565b90508362ffffff16612190613b31565b62ffffff16111561222d57600954600160381b90046001600160a01b0316637c2cb9216121be866001615136565b6040516001600160e01b031960e084901b16815262ffffff9091166004820152602401600060405180830381865afa1580156121fe573d6000803e3d6000fd5b505050506040513d6000823e601f3d908101601f1916820160405261222691908101906153b4565b9250612231565b8192505b600a5460405163f8ae8a2f60e01b81526001600160a01b039091169063f8ae8a2f9061226790869086908290879060040161542c565b600060405180830381600087803b15801561228157600080fd5b505af1158015612295573d6000803e3d6000fd5b505050505050505b600854600160a81b900460ff1661244057600c546040805163deea13e760e01b815290516000926001600160a01b03169163deea13e79160048083019260209291908290030181865afa1580156122f8573d6000803e3d6000fd5b505050506040513d601f19601f8201168201806040525081019061231c9190615479565b90505b600954600160201b900462ffffff166000908152600360205260409020600401546001600160401b031681111561243e57600c54600954604051636b60edf760e11b8152600160201b90910462ffffff1660048201526001600160a01b039091169063d6c1dbee90602401600060405180830381600087803b1580156123a457600080fd5b505af19250505080156123b5575060015b61240057600954604051600160201b90910462ffffff1681527fc0cded1f60001401da804c8a7703c1e8dc60521fca0f0f9853e2f1984b5410ba9060200160405180910390a161243e565b60098054600160201b900462ffffff1690600461241c83615492565b91906101000a81548162ffffff021916908362ffffff1602179055505061231f565b505b6001925050505b90565b6000612454613b31565b9050612469612464826001615136565b613fc6565b15612447576111b5600182615136565b6002602052600090815260409020805460018201805491929161249b906151f3565b80601f01602080910402602001604051908101604052809291908181526020018280546124c7906151f3565b80156125145780601f106124e957610100808354040283529160200191612514565b820191906000526020600020905b8154815290600101906020018083116124f757829003601f168201915b5050505050905082565b60008181526003602052604081206001015482906001600160401b031682036125895760405162461bcd60e51b815260206004820181905260248201527f7265776172642065706f6368206e6f7420696e697469616c697a6564207965746044820152606401610dd5565b5050600090815260036020526040902060040154600160401b900463ffffffff1690565b600054600160b01b900460ff16806125cf5750600054600160a81b900460ff16155b15610e59576125dc613510565b620f42408262ffffff1611156126295760405162461bcd60e51b81526020600482015260126024820152710e8d0e4cae6d0ded8c840e8dede40d0d2ced60731b6044820152606401610dd5565b60008161ffff161161266b5760405162461bcd60e51b815260206004820152600b60248201526a7a65726f20766f7465727360a81b6044820152606401610dd5565b6008805464ffffffffff60801b1916600160801b62ffffff85160261ffff60981b191617600160981b61ffff8416021790555050565b6000806126ac613bc5565b5090939092509050565b816126f75760405162461bcd60e51b8152602060048201526011602482015270726577617264732068617368207a65726f60781b6044820152606401610dd5565b62ffffff8416600090815260036020526040902061271361244a565b62ffffff168562ffffff161061273b5760405162461bcd60e51b8152600401610dd590615159565b6001810154600160801b90046001600160401b03166000036127a95760405162461bcd60e51b815260206004820152602160248201527f6e6577207369676e696e6720706f6c696379206e6f74207369676e65642079656044820152601d60fa1b6064820152608401610dd5565b62ffffff851660009081526004602052604090205461280a5760405162461bcd60e51b815260206004820152601f60248201527f757074696d6520766f74652068617368206e6f74207369676e656420796574006044820152606401610dd5565b62ffffff85166000908152600560205260409020541561286c5760405162461bcd60e51b815260206004820152601b60248201527f72657761726473206861736820616c7265616479207369676e656400000000006044820152606401610dd5565b6040805162ffffff871660208201526001600160401b038616918101919091526060810184905260009060800160405160208183030381529060405280519060200120905060006128bc82613a5d565b905060006128e0826128d1602088018861525f565b87602001358860400135613a90565b60095460405163118c8ae560e31b815262ffffff8b1660048201526001600160a01b0380841660248301529293506000928392600160381b90041690638c645728906044016040805180830381865afa158015612941573d6000803e3d6000fd5b505050506040513d601f19601f820116820180604052508101906129659190615285565b90925090506001600160a01b0382166129905760405162461bcd60e51b8152600401610dd5906152b4565b600085815260088701602090815260408083206001600160a01b03861684526001019091529020546001600160401b031615612a055760405162461bcd60e51b81526020600482015260146024820152731d9bdd195c88185b1c9958591e481cda59db995960621b6044820152606401610dd5565b6040518060400160405280612a19426137b0565b6001600160401b03168152602001612a30436137b0565b6001600160401b03908116909152600087815260088901602081815260408084206001600160a01b038916855260018101835290842086518154978401518716600160401b026001600160801b03199098169616959095179590951790935560048a01548983529252915461ffff600160601b909204821691612ab5918591166152df565b61ffff161190508015612b5e57612acb426137b0565b8760020160106101000a8154816001600160401b0302191690836001600160401b03160217905550612afc436137b0565b6002880180546001600160c01b0316600160c01b6001600160401b039384160217905562ffffff8c1660009081526005602090815260408083208d905560068252808320938e1690935588825260088a01905220805461ffff19169055612b9d565b600086815260088801602052604081208054849290612b8290849061ffff166152df565b92506101000a81548161ffff021916908361ffff1602179055505b7f80df246a47153e3604b0026fcf53ec85ea48178efd4f3cad24f9a1e1da2dd52a8b85858c8e612bcc426137b0565b87604051612be09796959493929190615186565b60405180910390a15050505050505050505050565b7f714f205b2abd25bef1d06a1af944e38c113fe6160375c4e1d6d5cf28848e7719546001600160a01b0316336001600160a01b031614612c6e5760405162461bcd60e51b815260206004820152601460248201527337b7363c9030b2323932b9b9903ab83230ba32b960611b6044820152606401610dd5565b612cc6612ca283836040518060400160405280600e81526020016d20b2323932b9b9aab83230ba32b960911b815250614348565b7f714f205b2abd25bef1d06a1af944e38c113fe6160375c4e1d6d5cf28848e771955565b610e648282614423565b6000818152600360205260408120600401546001600160401b031690819003612d475760405162461bcd60e51b8152602060048201526024808201527f766f746520706f77657220626c6f636b206e6f7420696e697469616c697a6564604482015263081e595d60e21b6064820152608401610dd5565b919050565b6000612d56613bc5565b509092915050565b81612da35760405162461bcd60e51b8152602060048201526015602482015274757074696d6520766f74652068617368207a65726f60581b6044820152606401610dd5565b62ffffff83166000908152600360205260409020612dbf61244a565b62ffffff168462ffffff1610612de75760405162461bcd60e51b8152600401610dd590615159565b62ffffff841660009081526004602052604090205415612e495760405162461bcd60e51b815260206004820152601f60248201527f757074696d6520766f7465206861736820616c7265616479207369676e6564006044820152606401610dd5565b6040805162ffffff861660208201529081018490526000906060016040516020818303038152906040528051906020012090506000612e8782613a5d565b90506000612e9c826128d1602088018861525f565b60095460405163118c8ae560e31b815262ffffff8a1660048201526001600160a01b0380841660248301529293506000928392600160381b90041690638c645728906044016040805180830381865afa158015612efd573d6000803e3d6000fd5b505050506040513d601f19601f82011682018060405250810190612f219190615285565b90925090506001600160a01b038216612f4c5760405162461bcd60e51b8152600401610dd5906152b4565b600088815260078701602090815260408083206001600160a01b03861684526001019091529020546001600160401b031615612fc15760405162461bcd60e51b81526020600482015260146024820152731d9bdd195c88185b1c9958591e481cda59db995960621b6044820152606401610dd5565b6040518060400160405280612fd5426137b0565b6001600160401b03168152602001612fec436137b0565b6001600160401b0390811690915260008a815260078901602081815260408084206001600160a01b038916855260018101835290842086518154978401518716600160401b026001600160801b03199098169616959095179590951790935560048a01548c83529252915461ffff600160601b909204821691613071918591166152df565b61ffff16119050801561311557613087426137b0565b60028801805467ffffffffffffffff19166001600160401b03929092169190911790556130b3436137b0565b6002880180546001600160401b0392909216600160401b0267ffffffffffffffff60401b1990921691909117905562ffffff8a1660009081526004602090815260408083208c90558b835260078a019091529020805461ffff19169055613154565b60008981526007880160205260408120805484929061313990849061ffff166152df565b92506101000a81548161ffff021916908361ffff1602179055505b7f5506337d1266599f8b64675a1c8321701657ca2f2f70be0e0c58302b6c22e7978a85858c613182426137b0565b6040805162ffffff9690961686526001600160a01b039485166020870152929093168483015260608401526001600160401b03909116608083015283151560a0830152519081900360c00190a150505050505050505050565b60008054600160a01b900460ff16801561325e5750600054604051630debfda360e41b81526001600160a01b0384811660048301529091169063debfda3090602401602060405180830381865afa15801561323a573d6000803e3d6000fd5b505050506040513d601f19601f8201168201806040525081019061325e91906154b4565b92915050565b6000818152600360205260408120600401546001600160401b031681036132cd5760405162461bcd60e51b815260206004820152601860248201527f73656564206e6f7420696e697469616c697a65642079657400000000000000006044820152606401610dd5565b506000908152600360208190526040909120015490565b600054600160a01b900460ff16156133355760405162461bcd60e51b8152602060048201526014602482015273696e697469616c6973656420213d2066616c736560601b6044820152606401610dd5565b6001600160a01b03821661338b5760405162461bcd60e51b815260206004820152601860248201527f676f7665726e616e63652073657474696e6773207a65726f00000000000000006044820152606401610dd5565b6001600160a01b0381166133d45760405162461bcd60e51b815260206004820152601060248201526f5f676f7665726e616e6365207a65726f60801b6044820152606401610dd5565b600080546001600160a01b038481166001600160a81b031990921691909117600160a01b17909155600180549183166001600160a01b0319909216821790556040519081527f9789733827840833afc031fb2ef9ab6894271f77bad2085687cf4ae5c7bee4db9060200160405180910390a15050565b613452613991565b600054600160a81b900460ff16156134ac5760405162461bcd60e51b815260206004820152601a60248201527f616c726561647920696e2070726f64756374696f6e206d6f64650000000000006044820152606401610dd5565b600180546001600160a01b031916905560008054600160a81b60ff60a81b198216179091556040516001600160a01b0390911681527f83af113638b5422f9e977cebc0aaf0eaf2188eb9a8baae7f9d46c42b33a1560c9060200160405180910390a1565b600054600160b01b900460ff1615613540573330146135315761353161533a565b6000805460ff60b01b19169055565b613548613991565b565b613552613991565b6000805460408051636221a54b60e01b81529051853593926001600160a01b031691636221a54b9160048083019260209291908290030181865afa15801561359e573d6000803e3d6000fd5b505050506040513d601f19601f820116820180604052508101906135c29190615479565b905060006135d0824261510a565b9050604051806040016040528082815260200186868080601f01602080910402602001604051908101604052809392919081815260200183838082843760009201829052509390945250506001600160e01b0319861681526002602090815260409091208351815590830151909150600182019061364e908261551f565b509050507fed948300a3694aa01d4a6b258bfd664350193d770c0b51f8387277f6d83ea3b68382878760405161368794939291906155de565b60405180910390a15050505050565b8054600090600160801b90046001600160401b0316158015906137a9575060085482546136d6916001600160401b0390811691600160801b90041661531a565b6001600160401b03164211158061371e57506008548254613711916001600160401b03600160401b909104811691600160c01b90041661531a565b6001600160401b03164311155b806137a95750600854600954604051630da7a50d60e21b815260048101869052600160981b90920461ffff1691600160381b9091046001600160a01b03169063369e943490602401602060405180830381865afa158015613783573d6000803e3d6000fd5b505050506040513d601f19601f820116820180604052508101906137a79190615479565b105b9392505050565b60006001600160401b038211156137e657604080516306dfcc6560e41b8152600481019190915260248101839052604401610dd5565b5090565b3d604051818101604052816000823e8215613803578181f35b8181fd5b620f42408160c0015162ffffff1611156138585760405162461bcd60e51b81526020600482015260126024820152710e8d0e4cae6d0ded8c840e8dede40d0d2ced60731b6044820152606401610dd5565b60008160e0015161ffff161161389e5760405162461bcd60e51b815260206004820152600b60248201526a7a65726f20766f7465727360a81b6044820152606401610dd5565b80516007805460208401516040850151606086015161010087015161ffff9687166001600160801b031995861617938716600160401b908102949094176bffffffffffffffffffffffff60801b1916928716600160801b90810263ffffffff60c01b19169390931760ff909216600160c01b02919091176001600160e01b0316600160e01b63ffffffff909216919091021790935560808501516008805460a088015160c089015160e09099015193881691909516179386169092029290921764ffffffffff60801b191662ffffff90951690920261ffff60981b191693909317600160981b9390921692909202179055565b61399961111e565b6001600160a01b0316336001600160a01b0316146135485760405162461bcd60e51b815260206004820152600f60248201526e6f6e6c7920676f7665726e616e636560881b6044820152606401610dd5565b600b54604051630c85bf0760e01b815262ffffff831660048201526000916001600160a01b031690630c85bf0790602401602060405180830381865afa158015613a39573d6000803e3d6000fd5b505050506040513d601f19601f8201168201806040525081019061325e9190615479565b7f19457468657265756d205369676e6564204d6573736167653a0a3332000000006000908152601c91909152603c902090565b600080600080613aa2888888886145d4565b925092509250613ab282826146a3565b50909695505050505050565b60006111b57f00000000000000000000000000000000000000000000000000000000000000006001600160401b03167f00000000000000000000000000000000000000000000000000000000000000006001600160401b031642613b229190615624565b613b2c919061564d565b61475c565b60006111b560017f00000000000000000000000000000000000000000000000000000000000000006001600160401b03167f0000000000000000000000000000000000000000000000000000000000000000600860169054906101000a90046001600160401b0316613ba391906152fa565b6001600160401b0316613bb6919061564d565b613bc09190615624565b61478d565b6000806000600b60009054906101000a90046001600160a01b03166001600160a01b031663dbdff2c16040518163ffffffff1660e01b8152600401606060405180830381865afa158015613c1d573d6000803e3d6000fd5b505050506040513d601f19601f82011682018060405250810190613c419190615661565b919590945063ffffffff90911692509050565b600080600381613c65600187615243565b62ffffff9081168252602080830193909352604091820160009081205491881681526003909352908220546001600160401b03600160401b92839004811694509190041690828103613cfc57613cf5613cf0836001600160401b03167f00000000000000000000000000000000000000000000000000000000000000006001600160401b03166147bd565b6137b0565b9050613d09565b613d0683836152fa565b90505b6000613d1e6001600160401b038316876156a4565b9050613d29816137b0565b613d3390846152fa565b979650505050505050565b600e54604051637b83fb0960e11b815262ffffff831660048201526001600160a01b039091169063f707f61290602401600060405180830381600087803b158015613d8857600080fd5b505af1925050508015613d99575060015b610f2d5760405162ffffff821681527f449d255b9c487823db86822a857f218d40682abada12acee2483788dc2fa975a906020015b60405180910390a150565b62ffffff81166000818152600360209081526040808320815160c0810183529283018490529082018390526060808301939093526080820183905260a082019290925291825290613e286147d3565b63ffffffff16602082015260095460405163c452e47f60e01b815262ffffff85166004820152600091600160381b90046001600160a01b03169063c452e47f906024016000604051808303816000875af1158015613e8a573d6000803e3d6000fd5b505050506040513d6000823e601f3d908101601f19168201604052613eb291908101906156b8565b60a0850191909152608084019190915260085461ffff9091169150613ef190613eec908390600160801b900462ffffff16620f42406148ab565b6148eb565b61ffff166040838101829052600385015460608501526020840151600480870180546dffffffffffff00000000000000001916600160401b63ffffffff9094169390930261ffff60601b191692909217600160601b909402939093179055600b549051638353412560e01b81526001600160a01b0390911691638353412591613f7c91869101615782565b6020604051808303816000875af1158015613f9b573d6000803e3d6000fd5b505050506040513d601f19601f82011682018060405250810190613fbf9190615479565b5050505050565b600854600090600160b01b90046001600160401b03164210801590613ff457506000613ff1836139eb565b14155b801561325e575062ffffff8216600090815260036020526040902060040154600160401b900463ffffffff16614028613abe565b63ffffffff16101592915050565b60075460009061405390600160e01b900463ffffffff1642615624565b90505b60095462ffffff808416600160201b909204161080156140bf5750600954819060039060009061409390600160201b900462ffffff166001615136565b62ffffff168152602081019190915260400160002060040154600160701b90046001600160401b031611155b15610e6457600c54600954604051636b60edf760e11b8152600160201b90910462ffffff1660048201526001600160a01b039091169063d6c1dbee90602401600060405180830381600087803b15801561411857600080fd5b505af1925050508015614129575060015b61417357600954604051600160201b90910462ffffff1681527fc0cded1f60001401da804c8a7703c1e8dc60521fca0f0f9853e2f1984b5410ba9060200160405180910390a15050565b60098054600160201b900462ffffff1690600461418f83615492565b91906101000a81548162ffffff021916908362ffffff16021790555050614056565b600954600160201b900462ffffff1660009081526003602052604090819020600490810154600d54925163cbc31cf760e01b81526001600160401b0390911691810182905290916001600160a01b03169063cbc31cf790602401600060405180830381600087803b15801561422557600080fd5b505af1925050508015614236575060015b610f2d576040516001600160401b03821681527fe9a7be2e41a6b0b36d253d56488c6844e611be2bffd8dd4b69b89a078f41fecc90602001613dce565b60005b600f5481101561102657600f8181548110614293576142936150de565b6000918252602090912001546040516391f2567960e01b815262ffffff851660048201526001600160401b0380851660248301527f00000000000000000000000000000000000000000000000000000000000000001660448201526001600160a01b03909116906391f2567990606401600060405180830381600087803b15801561431d57600080fd5b505af1158015614331573d6000803e3d6000fd5b5050505080806143409061511d565b915050614276565b6000808260405160200161435c91906150cb565b6040516020818303038152906040528051906020012090506000805b86518110156143d457868181518110614393576143936150de565b602002602001015183036143c2578581815181106143b3576143b36150de565b602002602001015191506143d4565b806143cc8161511d565b915050614378565b506001600160a01b03811661441a5760405162461bcd60e51b815260206004820152600c60248201526b61646472657373207a65726f60a01b6044820152606401610dd5565b95945050505050565b61445382826040518060400160405280600d81526020016c566f746572526567697374727960981b815250614348565b600960076101000a8154816001600160a01b0302191690836001600160a01b031602179055506144a682826040518060400160405280600a81526020016929bab136b4b9b9b4b7b760b11b815250614348565b600a60006101000a8154816001600160a01b0302191690836001600160a01b031602179055506144f482826040518060400160405280600581526020016452656c617960d81b815250614348565b600b60006101000a8154816001600160a01b0302191690836001600160a01b0316021790555061454a82826040518060400160405280600d81526020016c2932bbb0b93226b0b730b3b2b960991b815250614348565b600c60006101000a8154816001600160a01b0302191690836001600160a01b031602179055506145b082826040518060400160405280601981526020017f436c65616e7570426c6f636b4e756d6265724d616e6167657200000000000000815250614348565b600d80546001600160a01b0319166001600160a01b03929092169190911790555050565b600080807f7fffffffffffffffffffffffffffffff5d576e7357a4501ddfe92f46681b20a084111561460f5750600091506003905082614699565b604080516000808252602082018084528a905260ff891692820192909252606081018790526080810186905260019060a0016020604051602081039080840390855afa158015614663573d6000803e3d6000fd5b5050604051601f1901519150506001600160a01b03811661468f57506000925060019150829050614699565b9250600091508190505b9450945094915050565b60008260038111156146b7576146b7615828565b036146c0575050565b60018260038111156146d4576146d4615828565b036146f25760405163f645eedf60e01b815260040160405180910390fd5b600282600381111561470657614706615828565b036147275760405163fce698f760e01b815260048101829052602401610dd5565b600382600381111561473b5761473b615828565b03610e64576040516335e2f38360e21b815260048101829052602401610dd5565b600063ffffffff8211156137e6576040516306dfcc6560e41b81526020600482015260248101839052604401610dd5565b600062ffffff8211156137e6576040516306dfcc6560e41b81526018600482015260248101839052604401610dd5565b60008183106147cc57816137a9565b5090919050565b6008546000908190614816907f000000000000000000000000000000000000000000000000000000000000000090600160b01b90046001600160401b03166152fa565b6001600160401b031690506148597f00000000000000000000000000000000000000000000000000000000000000006001600160401b031682613b2c919061564d565b600754909250600090600160c01b900463ffffffff16614877613abe565b614881919061583e565b61488c90600161583e565b90508063ffffffff168363ffffffff1610156148a6578092505b505090565b6000806148b985858561491a565b9050600083806148cb576148cb615637565b858709905080156148df57816001016148e1565b815b9695505050505050565b600061ffff8211156137e6576040516306dfcc6560e41b81526010600482015260248101839052604401610dd5565b600080821161495e5760405162461bcd60e51b815260206004820152601060248201526f4469766973696f6e206279207a65726f60801b6044820152606401610dd5565b8360000361496e575060006137a9565b8383028385828161498157614981615637565b040361499f5782818161499657614996615637565b049150506137a9565b5060006149ac838661564d565b905060006149ba84876156a4565b905060006149c8858761564d565b905060006149d686886156a4565b9050856149e3828561585b565b6149ed919061564d565b6149f7838561585b565b614a01838761585b565b88614a0c868961585b565b614a16919061585b565b614a20919061510a565b614a2a919061510a565b614a34919061510a565b98975050505050505050565b5080546000825590600052602060002090810190610f2d9190614a94565b508054614a6a906151f3565b6000825580601f10614a7a575050565b601f016020900490600052602060002090810190610f2d91905b5b808211156137e65760008155600101614a95565b60008060208385031215614abc57600080fd5b82356001600160401b0380821115614ad357600080fd5b818501915085601f830112614ae757600080fd5b813581811115614af657600080fd5b8660208260051b8501011115614b0b57600080fd5b60209290920196919550909350505050565b600060208284031215614b2f57600080fd5b5035919050565b803562ffffff81168114612d4757600080fd5b6001600160a01b0381168114610f2d57600080fd5b60008060408385031215614b7157600080fd5b614b7a83614b36565b91506020830135614b8a81614b49565b809150509250929050565b600060208284031215614ba757600080fd5b81356137a981614b49565b80356001600160401b0381168114612d4757600080fd5b600080600060608486031215614bde57600080fd5b614be784614b36565b9250614bf560208501614bb2565b9150604084013590509250925092565b6020808252825182820181905260009190848201906040850190845b81811015613ab25783516001600160a01b031683529284019291840191600101614c21565b600060208284031215614c5857600080fd5b81356001600160e01b0319811681146137a957600080fd5b634e487b7160e01b600052604160045260246000fd5b60405161012081016001600160401b0381118282101715614ca957614ca9614c70565b60405290565b604051601f8201601f191681016001600160401b0381118282101715614cd757614cd7614c70565b604052919050565b61ffff81168114610f2d57600080fd5b8035612d4781614cdf565b803560ff81168114612d4757600080fd5b63ffffffff81168114610f2d57600080fd5b8035612d4781614d0b565b60006101208284031215614d3b57600080fd5b614d43614c86565b614d4c83614cef565b8152614d5a60208401614cef565b6020820152614d6b60408401614cef565b6040820152614d7c60608401614cfa565b6060820152614d8d60808401614cef565b6080820152614d9e60a08401614cef565b60a0820152614daf60c08401614b36565b60c0820152614dc060e08401614cef565b60e0820152610100614dd3818501614d1d565b908201529392505050565b8015158114610f2d57600080fd5b600060208284031215614dfe57600080fd5b81356137a981614dde565b6000606082840312156110b657600080fd5b600080600060a08486031215614e3057600080fd5b614e3984614b36565b925060208401359150614e4f8560408601614e09565b90509250925092565b60005b83811015614e73578181015183820152602001614e5b565b50506000910152565b60008151808452614e94816020860160208601614e58565b601f01601f19169290920160200192915050565b828152604060208201526000614ec16040830184614e7c565b949350505050565b60008060408385031215614edc57600080fd5b614ee583614b36565b91506020830135614b8a81614cdf565b600060208284031215614f0757600080fd5b6137a982614b36565b60008060008060c08587031215614f2657600080fd5b614f2f85614b36565b9350614f3d60208601614bb2565b925060408501359150614f538660608701614e09565b905092959194509250565b60006001600160401b03821115614f7757614f77614c70565b5060051b60200190565b600082601f830112614f9257600080fd5b81356020614fa7614fa283614f5e565b614caf565b82815260059290921b84018101918181019086841115614fc657600080fd5b8286015b84811015614fea578035614fdd81614b49565b8352918301918301614fca565b509695505050505050565b6000806040838503121561500857600080fd5b82356001600160401b038082111561501f57600080fd5b818501915085601f83011261503357600080fd5b81356020615043614fa283614f5e565b82815260059290921b8401810191818101908984111561506257600080fd5b948201945b8386101561508057853582529482019490820190615067565b9650508601359250508082111561509657600080fd5b506150a385828601614f81565b9150509250929050565b600080604083850312156150c057600080fd5b8235614b7a81614b49565b6020815260006137a96020830184614e7c565b634e487b7160e01b600052603260045260246000fd5b634e487b7160e01b600052601160045260246000fd5b8082018082111561325e5761325e6150f4565b60006001820161512f5761512f6150f4565b5060010190565b62ffffff818116838216019080821115615152576151526150f4565b5092915050565b602080825260139082015272195c1bd8da081b9bdd08195b991959081e595d606a1b604082015260600190565b62ffffff9790971687526001600160a01b03958616602088015293909416604086015260608501919091526001600160401b03908116608085015290911660a0830152151560c082015260e00190565b6000602082840312156151e857600080fd5b81516137a981614b49565b600181811c9082168061520757607f821691505b6020821081036110b657634e487b7160e01b600052602260045260246000fd5b60008251615239818460208701614e58565b9190910192915050565b62ffffff828116828216039080821115615152576151526150f4565b60006020828403121561527157600080fd5b6137a982614cfa565b8051612d4781614cdf565b6000806040838503121561529857600080fd5b82516152a381614b49565b6020840151909250614b8a81614cdf565b6020808252601190820152701cda59db985d1d5c99481a5b9d985b1a59607a1b604082015260600190565b61ffff818116838216019080821115615152576151526150f4565b6001600160401b03828116828216039080821115615152576151526150f4565b6001600160401b03818116838216019080821115615152576151526150f4565b634e487b7160e01b600052600160045260246000fd5b600082601f83011261536157600080fd5b81516020615371614fa283614f5e565b82815260059290921b8401810191818101908684111561539057600080fd5b8286015b84811015614fea5780516153a781614b49565b8352918301918301615394565b6000602082840312156153c657600080fd5b81516001600160401b038111156153dc57600080fd5b614ec184828501615350565b600081518084526020808501945080840160005b838110156154215781516001600160a01b0316875295820195908201906001016153fc565b509495945050505050565b60808152600061543f60808301876153e8565b828103602084015261545181876153e8565b9050828103604084015261546581866153e8565b90508281036060840152613d3381856153e8565b60006020828403121561548b57600080fd5b5051919050565b600062ffffff8083168181036154aa576154aa6150f4565b6001019392505050565b6000602082840312156154c657600080fd5b81516137a981614dde565b601f82111561102657600081815260208120601f850160051c810160208610156154f85750805b601f850160051c820191505b8181101561551757828155600101615504565b505050505050565b81516001600160401b0381111561553857615538614c70565b61554c8161554684546151f3565b846154d1565b602080601f83116001811461558157600084156155695750858301515b600019600386901b1c1916600185901b178555615517565b600085815260208120601f198616915b828110156155b057888601518255948401946001909101908401615591565b50858210156155ce5787850151600019600388901b60f8161c191681555b5050505050600190811b01905550565b63ffffffff60e01b8516815283602082015260606040820152816060820152818360808301376000818301608090810191909152601f909201601f191601019392505050565b8181038181111561325e5761325e6150f4565b634e487b7160e01b600052601260045260246000fd5b60008261565c5761565c615637565b500490565b60008060006060848603121561567657600080fd5b83519250602084015161568881614dde565b604085015190925061569981614d0b565b809150509250925092565b6000826156b3576156b3615637565b500690565b6000806000606084860312156156cd57600080fd5b83516001600160401b03808211156156e457600080fd5b6156f087838801615350565b945060209150818601518181111561570757600080fd5b86019050601f8101871361571a57600080fd5b8051615728614fa282614f5e565b81815260059190911b8201830190838101908983111561574757600080fd5b928401925b8284101561576e57835161575f81614cdf565b8252928401929084019061574c565b8096505050505050614e4f6040850161527a565b6000602080835262ffffff8451168184015263ffffffff81850151166040840152604084015161ffff8082166060860152606086015160808601526080860151915060c060a08601526157d860e08601836153e8565b60a0870151868203601f190160c0880152805180835290850193506000918501905b8083101561581c578451841682529385019360019290920191908501906157fa565b50979650505050505050565b634e487b7160e01b600052602160045260246000fd5b63ffffffff818116838216019080821115615152576151526150f4565b808202811582820484141761325e5761325e6150f456fea26469706673582212202e43a836b4f949d707b30043de67cf494ff19a723915cc4df4d2617dc0dc80ba64736f6c63430008140033",
  "linkReferences": {},
  "deployedLinkReferences": {}
}