{
  "_format": "hh-sol-artifact-1",
  "contractName": "FlareSystemsManager",
  "sourceName": "contracts/protocol/implementation/FlareSystemsManager.sol",
  "abi": [
    {
      "inputs": [
        {
          "internalType": "contract IGovernanceSettings",
          "name": "_governanceSettings",
          "type": "address"
        },
        {
          "internalType": "address",
          "name": "_initialGovernance",
          "type": "address"
        },
        {
          "internalType": "address",
          "name": "_addressUpdater",
          "type": "address"
        },
        {
          "internalType": "address",
          "name": "_flareDaemon",
          "type": "address"
        },
        {
          "components": [
            {
              "internalType": "uint16",
              "name": "randomAcquisitionMaxDurationSeconds",
              "type": "uint16"
            },
            {
              "internalType": "uint16",
              "name": "randomAcquisitionMaxDurationBlocks",
              "type": "uint16"
            },
            {
              "internalType": "uint16",
              "name": "newSigningPolicyInitializationStartSeconds",
              "type": "uint16"
            },
            {
              "internalType": "uint8",
              "name": "newSigningPolicyMinNumberOfVotingRoundsDelay",
              "type": "uint8"
            },
            {
              "internalType": "uint16",
              "name": "voterRegistrationMinDurationSeconds",
              "type": "uint16"
            },
            {
              "internalType": "uint16",
              "name": "voterRegistrationMinDurationBlocks",
              "type": "uint16"
            },
            {
              "internalType": "uint16",
              "name": "submitUptimeVoteMinDurationSeconds",
              "type": "uint16"
            },
            {
              "internalType": "uint16",
              "name": "submitUptimeVoteMinDurationBlocks",
              "type": "uint16"
            },
            {
              "internalType": "uint24",
              "name": "signingPolicyThresholdPPM",
              "type": "uint24"
            },
            {
              "internalType": "uint16",
              "name": "signingPolicyMinNumberOfVoters",
              "type": "uint16"
            },
            {
              "internalType": "uint32",
              "name": "rewardExpiryOffsetSeconds",
              "type": "uint32"
            }
          ],
          "internalType": "struct FlareSystemsManager.Settings",
          "name": "_settings",
          "type": "tuple"
        },
        {
          "internalType": "uint32",
          "name": "_firstVotingRoundStartTs",
          "type": "uint32"
        },
        {
          "internalType": "uint8",
          "name": "_votingEpochDurationSeconds",
          "type": "uint8"
        },
        {
          "internalType": "uint32",
          "name": "_firstRewardEpochStartVotingRoundId",
          "type": "uint32"
        },
        {
          "internalType": "uint16",
          "name": "_rewardEpochDurationInVotingEpochs",
          "type": "uint16"
        },
        {
          "components": [
            {
              "internalType": "uint16",
              "name": "initialRandomVotePowerBlockSelectionSize",
              "type": "uint16"
            },
            {
              "internalType": "uint24",
              "name": "initialRewardEpochId",
              "type": "uint24"
            },
            {
              "internalType": "uint16",
              "name": "initialRewardEpochThreshold",
              "type": "uint16"
            }
          ],
          "internalType": "struct FlareSystemsManager.InitialSettings",
          "name": "_initialSettings",
          "type": "tuple"
        }
      ],
      "stateMutability": "nonpayable",
      "type": "constructor"
    },
    {
      "inputs": [],
      "name": "ECDSAInvalidSignature",
      "type": "error"
    },
    {
      "inputs": [
        {
          "internalType": "uint256",
          "name": "length",
          "type": "uint256"
        }
      ],
      "name": "ECDSAInvalidSignatureLength",
      "type": "error"
    },
    {
      "inputs": [
        {
          "internalType": "bytes32",
          "name": "s",
          "type": "bytes32"
        }
      ],
      "name": "ECDSAInvalidSignatureS",
      "type": "error"
    },
    {
      "inputs": [
        {
          "internalType": "uint8",
          "name": "bits",
          "type": "uint8"
        },
        {
          "internalType": "uint256",
          "name": "value",
          "type": "uint256"
        }
      ],
      "name": "SafeCastOverflowedUintDowncast",
      "type": "error"
    },
    {
      "anonymous": false,
      "inputs": [
        {
          "indexed": false,
          "internalType": "uint24",
          "name": "rewardEpochId",
          "type": "uint24"
        }
      ],
      "name": "ClosingExpiredRewardEpochFailed",
      "type": "event"
    },
    {
      "anonymous": false,
      "inputs": [
        {
          "indexed": false,
          "internalType": "bytes4",
          "name": "selector",
          "type": "bytes4"
        },
        {
          "indexed": false,
          "internalType": "uint256",
          "name": "allowedAfterTimestamp",
          "type": "uint256"
        },
        {
          "indexed": false,
          "internalType": "bytes",
          "name": "encodedCall",
          "type": "bytes"
        }
      ],
      "name": "GovernanceCallTimelocked",
      "type": "event"
    },
    {
      "anonymous": false,
      "inputs": [
        {
          "indexed": false,
          "internalType": "address",
          "name": "initialGovernance",
          "type": "address"
        }
      ],
      "name": "GovernanceInitialised",
      "type": "event"
    },
    {
      "anonymous": false,
      "inputs": [
        {
          "indexed": false,
          "internalType": "address",
          "name": "governanceSettings",
          "type": "address"
        }
      ],
      "name": "GovernedProductionModeEntered",
      "type": "event"
    },
    {
      "anonymous": false,
      "inputs": [
        {
          "indexed": true,
          "internalType": "uint24",
          "name": "rewardEpochId",
          "type": "uint24"
        },
        {
          "indexed": false,
          "internalType": "uint64",
          "name": "timestamp",
          "type": "uint64"
        }
      ],
      "name": "RandomAcquisitionStarted",
      "type": "event"
    },
    {
      "anonymous": false,
      "inputs": [
        {
          "indexed": true,
          "internalType": "uint24",
          "name": "rewardEpochId",
          "type": "uint24"
        },
        {
          "indexed": false,
          "internalType": "uint32",
          "name": "startVotingRoundId",
          "type": "uint32"
        },
        {
          "indexed": false,
          "internalType": "uint64",
          "name": "timestamp",
          "type": "uint64"
        }
      ],
      "name": "RewardEpochStarted",
      "type": "event"
    },
    {
      "anonymous": false,
      "inputs": [
        {
          "indexed": true,
          "internalType": "uint24",
          "name": "rewardEpochId",
          "type": "uint24"
        },
        {
          "indexed": true,
          "internalType": "address",
          "name": "signingPolicyAddress",
          "type": "address"
        },
        {
          "indexed": true,
          "internalType": "address",
          "name": "voter",
          "type": "address"
        },
        {
          "indexed": false,
          "internalType": "bytes32",
          "name": "rewardsHash",
          "type": "bytes32"
        },
        {
          "components": [
            {
              "internalType": "uint256",
              "name": "rewardManagerId",
              "type": "uint256"
            },
            {
              "internalType": "uint256",
              "name": "noOfWeightBasedClaims",
              "type": "uint256"
            }
          ],
          "indexed": false,
          "internalType": "struct IFlareSystemsManager.NumberOfWeightBasedClaims[]",
          "name": "noOfWeightBasedClaims",
          "type": "tuple[]"
        },
        {
          "indexed": false,
          "internalType": "uint64",
          "name": "timestamp",
          "type": "uint64"
        },
        {
          "indexed": false,
          "internalType": "bool",
          "name": "thresholdReached",
          "type": "bool"
        }
      ],
      "name": "RewardsSigned",
      "type": "event"
    },
    {
      "anonymous": false,
      "inputs": [
        {
          "indexed": false,
          "internalType": "uint64",
          "name": "blockNumber",
          "type": "uint64"
        }
      ],
      "name": "SettingCleanUpBlockNumberFailed",
      "type": "event"
    },
    {
      "anonymous": false,
      "inputs": [
        {
          "indexed": true,
          "internalType": "uint24",
          "name": "rewardEpochId",
          "type": "uint24"
        },
        {
          "indexed": false,
          "internalType": "uint64",
          "name": "timestamp",
          "type": "uint64"
        }
      ],
      "name": "SignUptimeVoteEnabled",
      "type": "event"
    },
    {
      "anonymous": false,
      "inputs": [
        {
          "indexed": true,
          "internalType": "uint24",
          "name": "rewardEpochId",
          "type": "uint24"
        },
        {
          "indexed": true,
          "internalType": "address",
          "name": "signingPolicyAddress",
          "type": "address"
        },
        {
          "indexed": true,
          "internalType": "address",
          "name": "voter",
          "type": "address"
        },
        {
          "indexed": false,
          "internalType": "uint64",
          "name": "timestamp",
          "type": "uint64"
        },
        {
          "indexed": false,
          "internalType": "bool",
          "name": "thresholdReached",
          "type": "bool"
        }
      ],
      "name": "SigningPolicySigned",
      "type": "event"
    },
    {
      "anonymous": false,
      "inputs": [
        {
          "indexed": false,
          "internalType": "bytes4",
          "name": "selector",
          "type": "bytes4"
        },
        {
          "indexed": false,
          "internalType": "uint256",
          "name": "timestamp",
          "type": "uint256"
        }
      ],
      "name": "TimelockedGovernanceCallCanceled",
      "type": "event"
    },
    {
      "anonymous": false,
      "inputs": [
        {
          "indexed": false,
          "internalType": "bytes4",
          "name": "selector",
          "type": "bytes4"
        },
        {
          "indexed": false,
          "internalType": "uint256",
          "name": "timestamp",
          "type": "uint256"
        }
      ],
      "name": "TimelockedGovernanceCallExecuted",
      "type": "event"
    },
    {
      "anonymous": false,
      "inputs": [
        {
          "indexed": false,
          "internalType": "uint24",
          "name": "rewardEpochId",
          "type": "uint24"
        }
      ],
      "name": "TriggeringVoterRegistrationFailed",
      "type": "event"
    },
    {
      "anonymous": false,
      "inputs": [
        {
          "indexed": true,
          "internalType": "uint24",
          "name": "rewardEpochId",
          "type": "uint24"
        },
        {
          "indexed": true,
          "internalType": "address",
          "name": "signingPolicyAddress",
          "type": "address"
        },
        {
          "indexed": true,
          "internalType": "address",
          "name": "voter",
          "type": "address"
        },
        {
          "indexed": false,
          "internalType": "bytes32",
          "name": "uptimeVoteHash",
          "type": "bytes32"
        },
        {
          "indexed": false,
          "internalType": "uint64",
          "name": "timestamp",
          "type": "uint64"
        },
        {
          "indexed": false,
          "internalType": "bool",
          "name": "thresholdReached",
          "type": "bool"
        }
      ],
      "name": "UptimeVoteSigned",
      "type": "event"
    },
    {
      "anonymous": false,
      "inputs": [
        {
          "indexed": true,
          "internalType": "uint24",
          "name": "rewardEpochId",
          "type": "uint24"
        },
        {
          "indexed": true,
          "internalType": "address",
          "name": "signingPolicyAddress",
          "type": "address"
        },
        {
          "indexed": true,
          "internalType": "address",
          "name": "voter",
          "type": "address"
        },
        {
          "indexed": false,
          "internalType": "bytes20[]",
          "name": "nodeIds",
          "type": "bytes20[]"
        },
        {
          "indexed": false,
          "internalType": "uint64",
          "name": "timestamp",
          "type": "uint64"
        }
      ],
      "name": "UptimeVoteSubmitted",
      "type": "event"
    },
    {
      "anonymous": false,
      "inputs": [
        {
          "indexed": true,
          "internalType": "uint24",
          "name": "rewardEpochId",
          "type": "uint24"
        },
        {
          "indexed": false,
          "internalType": "uint64",
          "name": "votePowerBlock",
          "type": "uint64"
        },
        {
          "indexed": false,
          "internalType": "uint64",
          "name": "timestamp",
          "type": "uint64"
        }
      ],
      "name": "VotePowerBlockSelected",
      "type": "event"
    },
    {
      "inputs": [
        {
          "internalType": "bytes4",
          "name": "_selector",
          "type": "bytes4"
        }
      ],
      "name": "cancelGovernanceCall",
      "outputs": [],
      "stateMutability": "nonpayable",
      "type": "function"
    },
    {
      "inputs": [],
      "name": "cleanupBlockNumberManager",
      "outputs": [
        {
          "internalType": "contract IICleanupBlockNumberManager",
          "name": "",
          "type": "address"
        }
      ],
      "stateMutability": "view",
      "type": "function"
    },
    {
      "inputs": [],
      "name": "currentRewardEpochExpectedEndTs",
      "outputs": [
        {
          "internalType": "uint64",
          "name": "",
          "type": "uint64"
        }
      ],
      "stateMutability": "view",
      "type": "function"
    },
    {
      "inputs": [],
      "name": "daemonize",
      "outputs": [
        {
          "internalType": "bool",
          "name": "",
          "type": "bool"
        }
      ],
      "stateMutability": "nonpayable",
      "type": "function"
    },
    {
      "inputs": [
        {
          "internalType": "bytes4",
          "name": "_selector",
          "type": "bytes4"
        }
      ],
      "name": "executeGovernanceCall",
      "outputs": [],
      "stateMutability": "nonpayable",
      "type": "function"
    },
    {
      "inputs": [],
      "name": "firstRewardEpochStartTs",
      "outputs": [
        {
          "internalType": "uint64",
          "name": "",
          "type": "uint64"
        }
      ],
      "stateMutability": "view",
      "type": "function"
    },
    {
      "inputs": [],
      "name": "firstVotingRoundStartTs",
      "outputs": [
        {
          "internalType": "uint64",
          "name": "",
          "type": "uint64"
        }
      ],
      "stateMutability": "view",
      "type": "function"
    },
    {
      "inputs": [],
      "name": "flareDaemon",
      "outputs": [
        {
          "internalType": "address",
          "name": "",
          "type": "address"
        }
      ],
      "stateMutability": "view",
      "type": "function"
    },
    {
      "inputs": [],
      "name": "getAddressUpdater",
      "outputs": [
        {
          "internalType": "address",
          "name": "_addressUpdater",
          "type": "address"
        }
      ],
      "stateMutability": "view",
      "type": "function"
    },
    {
      "inputs": [],
      "name": "getContractName",
      "outputs": [
        {
          "internalType": "string",
          "name": "",
          "type": "string"
        }
      ],
      "stateMutability": "pure",
      "type": "function"
    },
    {
      "inputs": [],
      "name": "getCurrentRewardEpoch",
      "outputs": [
        {
          "internalType": "uint256",
          "name": "",
          "type": "uint256"
        }
      ],
      "stateMutability": "view",
      "type": "function"
    },
    {
      "inputs": [],
      "name": "getCurrentRewardEpochId",
      "outputs": [
        {
          "internalType": "uint24",
          "name": "",
          "type": "uint24"
        }
      ],
      "stateMutability": "view",
      "type": "function"
    },
    {
      "inputs": [],
      "name": "getCurrentVotingEpochId",
      "outputs": [
        {
          "internalType": "uint32",
          "name": "",
          "type": "uint32"
        }
      ],
      "stateMutability": "view",
      "type": "function"
    },
    {
      "inputs": [
        {
          "internalType": "uint24",
          "name": "_rewardEpochId",
          "type": "uint24"
        }
      ],
      "name": "getRandomAcquisitionInfo",
      "outputs": [
        {
          "internalType": "uint64",
          "name": "_randomAcquisitionStartTs",
          "type": "uint64"
        },
        {
          "internalType": "uint64",
          "name": "_randomAcquisitionStartBlock",
          "type": "uint64"
        },
        {
          "internalType": "uint64",
          "name": "_randomAcquisitionEndTs",
          "type": "uint64"
        },
        {
          "internalType": "uint64",
          "name": "_randomAcquisitionEndBlock",
          "type": "uint64"
        }
      ],
      "stateMutability": "view",
      "type": "function"
    },
    {
      "inputs": [
        {
          "internalType": "uint24",
          "name": "_rewardEpochId",
          "type": "uint24"
        }
      ],
      "name": "getRewardEpochStartInfo",
      "outputs": [
        {
          "internalType": "uint64",
          "name": "_rewardEpochStartTs",
          "type": "uint64"
        },
        {
          "internalType": "uint64",
          "name": "_rewardEpochStartBlock",
          "type": "uint64"
        }
      ],
      "stateMutability": "view",
      "type": "function"
    },
    {
      "inputs": [],
      "name": "getRewardEpochSwitchoverTriggerContracts",
      "outputs": [
        {
          "internalType": "contract IIRewardEpochSwitchoverTrigger[]",
          "name": "",
          "type": "address[]"
        }
      ],
      "stateMutability": "view",
      "type": "function"
    },
    {
      "inputs": [
        {
          "internalType": "uint24",
          "name": "_rewardEpochId",
          "type": "uint24"
        }
      ],
      "name": "getRewardsSignInfo",
      "outputs": [
        {
          "internalType": "uint64",
          "name": "_rewardsSignStartTs",
          "type": "uint64"
        },
        {
          "internalType": "uint64",
          "name": "_rewardsSignStartBlock",
          "type": "uint64"
        },
        {
          "internalType": "uint64",
          "name": "_rewardsSignEndTs",
          "type": "uint64"
        },
        {
          "internalType": "uint64",
          "name": "_rewardsSignEndBlock",
          "type": "uint64"
        }
      ],
      "stateMutability": "view",
      "type": "function"
    },
    {
      "inputs": [
        {
          "internalType": "uint256",
          "name": "_rewardEpochId",
          "type": "uint256"
        }
      ],
      "name": "getSeed",
      "outputs": [
        {
          "internalType": "uint256",
          "name": "",
          "type": "uint256"
        }
      ],
      "stateMutability": "view",
      "type": "function"
    },
    {
      "inputs": [
        {
          "internalType": "uint24",
          "name": "_rewardEpochId",
          "type": "uint24"
        }
      ],
      "name": "getSigningPolicySignInfo",
      "outputs": [
        {
          "internalType": "uint64",
          "name": "_signingPolicySignStartTs",
          "type": "uint64"
        },
        {
          "internalType": "uint64",
          "name": "_signingPolicySignStartBlock",
          "type": "uint64"
        },
        {
          "internalType": "uint64",
          "name": "_signingPolicySignEndTs",
          "type": "uint64"
        },
        {
          "internalType": "uint64",
          "name": "_signingPolicySignEndBlock",
          "type": "uint64"
        }
      ],
      "stateMutability": "view",
      "type": "function"
    },
    {
      "inputs": [
        {
          "internalType": "uint256",
          "name": "_rewardEpochId",
          "type": "uint256"
        }
      ],
      "name": "getStartVotingRoundId",
      "outputs": [
        {
          "internalType": "uint32",
          "name": "",
          "type": "uint32"
        }
      ],
      "stateMutability": "view",
      "type": "function"
    },
    {
      "inputs": [
        {
          "internalType": "uint256",
          "name": "_rewardEpochId",
          "type": "uint256"
        }
      ],
      "name": "getThreshold",
      "outputs": [
        {
          "internalType": "uint16",
          "name": "",
          "type": "uint16"
        }
      ],
      "stateMutability": "view",
      "type": "function"
    },
    {
      "inputs": [
        {
          "internalType": "uint24",
          "name": "_rewardEpochId",
          "type": "uint24"
        }
      ],
      "name": "getUptimeVoteSignStartInfo",
      "outputs": [
        {
          "internalType": "uint64",
          "name": "_uptimeVoteSignStartTs",
          "type": "uint64"
        },
        {
          "internalType": "uint64",
          "name": "_uptimeVoteSignStartBlock",
          "type": "uint64"
        }
      ],
      "stateMutability": "view",
      "type": "function"
    },
    {
      "inputs": [
        {
          "internalType": "uint256",
          "name": "_rewardEpochId",
          "type": "uint256"
        }
      ],
      "name": "getVotePowerBlock",
      "outputs": [
        {
          "internalType": "uint64",
          "name": "_votePowerBlock",
          "type": "uint64"
        }
      ],
      "stateMutability": "view",
      "type": "function"
    },
    {
      "inputs": [
        {
          "internalType": "uint256",
          "name": "_rewardEpochId",
          "type": "uint256"
        }
      ],
      "name": "getVoterRegistrationData",
      "outputs": [
        {
          "internalType": "uint256",
          "name": "_votePowerBlock",
          "type": "uint256"
        },
        {
          "internalType": "bool",
          "name": "_enabled",
          "type": "bool"
        }
      ],
      "stateMutability": "view",
      "type": "function"
    },
    {
      "inputs": [
        {
          "internalType": "uint24",
          "name": "_rewardEpochId",
          "type": "uint24"
        },
        {
          "internalType": "address",
          "name": "_voter",
          "type": "address"
        }
      ],
      "name": "getVoterRewardsSignInfo",
      "outputs": [
        {
          "internalType": "uint64",
          "name": "_rewardsSignTs",
          "type": "uint64"
        },
        {
          "internalType": "uint64",
          "name": "_rewardsSignBlock",
          "type": "uint64"
        }
      ],
      "stateMutability": "view",
      "type": "function"
    },
    {
      "inputs": [
        {
          "internalType": "uint24",
          "name": "_rewardEpochId",
          "type": "uint24"
        },
        {
          "internalType": "address",
          "name": "_voter",
          "type": "address"
        }
      ],
      "name": "getVoterSigningPolicySignInfo",
      "outputs": [
        {
          "internalType": "uint64",
          "name": "_signingPolicySignTs",
          "type": "uint64"
        },
        {
          "internalType": "uint64",
          "name": "_signingPolicySignBlock",
          "type": "uint64"
        }
      ],
      "stateMutability": "view",
      "type": "function"
    },
    {
      "inputs": [
        {
          "internalType": "uint24",
          "name": "_rewardEpochId",
          "type": "uint24"
        },
        {
          "internalType": "address",
          "name": "_voter",
          "type": "address"
        }
      ],
      "name": "getVoterUptimeVoteSignInfo",
      "outputs": [
        {
          "internalType": "uint64",
          "name": "_uptimeVoteSignTs",
          "type": "uint64"
        },
        {
          "internalType": "uint64",
          "name": "_uptimeVoteSignBlock",
          "type": "uint64"
        }
      ],
      "stateMutability": "view",
      "type": "function"
    },
    {
      "inputs": [
        {
          "internalType": "uint24",
          "name": "_rewardEpochId",
          "type": "uint24"
        },
        {
          "internalType": "address",
          "name": "_voter",
          "type": "address"
        }
      ],
      "name": "getVoterUptimeVoteSubmitInfo",
      "outputs": [
        {
          "internalType": "uint64",
          "name": "_uptimeVoteSubmitTs",
          "type": "uint64"
        },
        {
          "internalType": "uint64",
          "name": "_uptimeVoteSubmitBlock",
          "type": "uint64"
        }
      ],
      "stateMutability": "view",
      "type": "function"
    },
    {
      "inputs": [],
      "name": "governance",
      "outputs": [
        {
          "internalType": "address",
          "name": "",
          "type": "address"
        }
      ],
      "stateMutability": "view",
      "type": "function"
    },
    {
      "inputs": [],
      "name": "governanceSettings",
      "outputs": [
        {
          "internalType": "contract IGovernanceSettings",
          "name": "",
          "type": "address"
        }
      ],
      "stateMutability": "view",
      "type": "function"
    },
    {
      "inputs": [],
      "name": "initialRandomVotePowerBlockSelectionSize",
      "outputs": [
        {
          "internalType": "uint64",
          "name": "",
          "type": "uint64"
        }
      ],
      "stateMutability": "view",
      "type": "function"
    },
    {
      "inputs": [
        {
          "internalType": "contract IGovernanceSettings",
          "name": "_governanceSettings",
          "type": "address"
        },
        {
          "internalType": "address",
          "name": "_initialGovernance",
          "type": "address"
        }
      ],
      "name": "initialise",
      "outputs": [],
      "stateMutability": "nonpayable",
      "type": "function"
    },
    {
      "inputs": [
        {
          "internalType": "address",
          "name": "_address",
          "type": "address"
        }
      ],
      "name": "isExecutor",
      "outputs": [
        {
          "internalType": "bool",
          "name": "",
          "type": "bool"
        }
      ],
      "stateMutability": "view",
      "type": "function"
    },
    {
      "inputs": [],
      "name": "isVoterRegistrationEnabled",
      "outputs": [
        {
          "internalType": "bool",
          "name": "",
          "type": "bool"
        }
      ],
      "stateMutability": "view",
      "type": "function"
    },
    {
      "inputs": [],
      "name": "lastInitializedVotingRoundId",
      "outputs": [
        {
          "internalType": "uint32",
          "name": "",
          "type": "uint32"
        }
      ],
      "stateMutability": "view",
      "type": "function"
    },
    {
      "inputs": [],
      "name": "newSigningPolicyInitializationStartSeconds",
      "outputs": [
        {
          "internalType": "uint64",
          "name": "",
          "type": "uint64"
        }
      ],
      "stateMutability": "view",
      "type": "function"
    },
    {
      "inputs": [],
      "name": "newSigningPolicyMinNumberOfVotingRoundsDelay",
      "outputs": [
        {
          "internalType": "uint32",
          "name": "",
          "type": "uint32"
        }
      ],
      "stateMutability": "view",
      "type": "function"
    },
    {
      "inputs": [
        {
          "internalType": "uint256",
          "name": "rewardEpochId",
          "type": "uint256"
        },
        {
          "internalType": "uint256",
          "name": "rewardManagerId",
          "type": "uint256"
        }
      ],
      "name": "noOfWeightBasedClaims",
      "outputs": [
        {
          "internalType": "uint256",
          "name": "",
          "type": "uint256"
        }
      ],
      "stateMutability": "view",
      "type": "function"
    },
    {
      "inputs": [
        {
          "internalType": "uint256",
          "name": "rewardEpochId",
          "type": "uint256"
        }
      ],
      "name": "noOfWeightBasedClaimsHash",
      "outputs": [
        {
          "internalType": "bytes32",
          "name": "",
          "type": "bytes32"
        }
      ],
      "stateMutability": "view",
      "type": "function"
    },
    {
      "inputs": [],
      "name": "productionMode",
      "outputs": [
        {
          "internalType": "bool",
          "name": "",
          "type": "bool"
        }
      ],
      "stateMutability": "view",
      "type": "function"
    },
    {
      "inputs": [],
      "name": "randomAcquisitionMaxDurationBlocks",
      "outputs": [
        {
          "internalType": "uint64",
          "name": "",
          "type": "uint64"
        }
      ],
      "stateMutability": "view",
      "type": "function"
    },
    {
      "inputs": [],
      "name": "randomAcquisitionMaxDurationSeconds",
      "outputs": [
        {
          "internalType": "uint64",
          "name": "",
          "type": "uint64"
        }
      ],
      "stateMutability": "view",
      "type": "function"
    },
    {
      "inputs": [],
      "name": "relay",
      "outputs": [
        {
          "internalType": "contract IIRelay",
          "name": "",
          "type": "address"
        }
      ],
      "stateMutability": "view",
      "type": "function"
    },
    {
      "inputs": [],
      "name": "rewardEpochDurationSeconds",
      "outputs": [
        {
          "internalType": "uint64",
          "name": "",
          "type": "uint64"
        }
      ],
      "stateMutability": "view",
      "type": "function"
    },
    {
      "inputs": [],
      "name": "rewardEpochIdToExpireNext",
      "outputs": [
        {
          "internalType": "uint24",
          "name": "",
          "type": "uint24"
        }
      ],
      "stateMutability": "view",
      "type": "function"
    },
    {
      "inputs": [],
      "name": "rewardExpiryOffsetSeconds",
      "outputs": [
        {
          "internalType": "uint32",
          "name": "",
          "type": "uint32"
        }
      ],
      "stateMutability": "view",
      "type": "function"
    },
    {
      "inputs": [],
      "name": "rewardManager",
      "outputs": [
        {
          "internalType": "contract IIRewardManager",
          "name": "",
          "type": "address"
        }
      ],
      "stateMutability": "view",
      "type": "function"
    },
    {
      "inputs": [
        {
          "internalType": "uint256",
          "name": "rewardEpochId",
          "type": "uint256"
        }
      ],
      "name": "rewardsHash",
      "outputs": [
        {
          "internalType": "bytes32",
          "name": "",
          "type": "bytes32"
        }
      ],
      "stateMutability": "view",
      "type": "function"
    },
    {
      "inputs": [
        {
          "internalType": "contract IIRewardEpochSwitchoverTrigger[]",
          "name": "_contracts",
          "type": "address[]"
        }
      ],
      "name": "setRewardEpochSwitchoverTriggerContracts",
      "outputs": [],
      "stateMutability": "nonpayable",
      "type": "function"
    },
    {
      "inputs": [
        {
          "internalType": "uint24",
          "name": "_rewardEpochId",
          "type": "uint24"
        },
        {
          "components": [
            {
              "internalType": "uint256",
              "name": "rewardManagerId",
              "type": "uint256"
            },
            {
              "internalType": "uint256",
              "name": "noOfWeightBasedClaims",
              "type": "uint256"
            }
          ],
          "internalType": "struct IFlareSystemsManager.NumberOfWeightBasedClaims[]",
          "name": "_noOfWeightBasedClaims",
          "type": "tuple[]"
        },
        {
          "internalType": "bytes32",
          "name": "_rewardsHash",
          "type": "bytes32"
        }
      ],
      "name": "setRewardsData",
      "outputs": [],
      "stateMutability": "nonpayable",
      "type": "function"
    },
    {
      "inputs": [
        {
          "internalType": "bool",
          "name": "_submit3Aligned",
          "type": "bool"
        }
      ],
      "name": "setSubmit3Aligned",
      "outputs": [],
      "stateMutability": "nonpayable",
      "type": "function"
    },
    {
      "inputs": [
        {
          "internalType": "bool",
          "name": "_triggerExpirationAndCleanup",
          "type": "bool"
        }
      ],
      "name": "setTriggerExpirationAndCleanup",
      "outputs": [],
      "stateMutability": "nonpayable",
      "type": "function"
    },
    {
      "inputs": [
        {
          "internalType": "contract IIVoterRegistrationTrigger",
          "name": "_contract",
          "type": "address"
        }
      ],
      "name": "setVoterRegistrationTriggerContract",
      "outputs": [],
      "stateMutability": "nonpayable",
      "type": "function"
    },
    {
      "inputs": [
        {
          "internalType": "uint24",
          "name": "_rewardEpochId",
          "type": "uint24"
        },
        {
          "internalType": "bytes32",
          "name": "_newSigningPolicyHash",
          "type": "bytes32"
        },
        {
          "components": [
            {
              "internalType": "uint8",
              "name": "v",
              "type": "uint8"
            },
            {
              "internalType": "bytes32",
              "name": "r",
              "type": "bytes32"
            },
            {
              "internalType": "bytes32",
              "name": "s",
              "type": "bytes32"
            }
          ],
          "internalType": "struct IFlareSystemsManager.Signature",
          "name": "_signature",
          "type": "tuple"
        }
      ],
      "name": "signNewSigningPolicy",
      "outputs": [],
      "stateMutability": "nonpayable",
      "type": "function"
    },
    {
      "inputs": [
        {
          "internalType": "uint24",
          "name": "_rewardEpochId",
          "type": "uint24"
        },
        {
          "components": [
            {
              "internalType": "uint256",
              "name": "rewardManagerId",
              "type": "uint256"
            },
            {
              "internalType": "uint256",
              "name": "noOfWeightBasedClaims",
              "type": "uint256"
            }
          ],
          "internalType": "struct IFlareSystemsManager.NumberOfWeightBasedClaims[]",
          "name": "_noOfWeightBasedClaims",
          "type": "tuple[]"
        },
        {
          "internalType": "bytes32",
          "name": "_rewardsHash",
          "type": "bytes32"
        },
        {
          "components": [
            {
              "internalType": "uint8",
              "name": "v",
              "type": "uint8"
            },
            {
              "internalType": "bytes32",
              "name": "r",
              "type": "bytes32"
            },
            {
              "internalType": "bytes32",
              "name": "s",
              "type": "bytes32"
            }
          ],
          "internalType": "struct IFlareSystemsManager.Signature",
          "name": "_signature",
          "type": "tuple"
        }
      ],
      "name": "signRewards",
      "outputs": [],
      "stateMutability": "nonpayable",
      "type": "function"
    },
    {
      "inputs": [
        {
          "internalType": "uint24",
          "name": "_rewardEpochId",
          "type": "uint24"
        },
        {
          "internalType": "bytes32",
          "name": "_uptimeVoteHash",
          "type": "bytes32"
        },
        {
          "components": [
            {
              "internalType": "uint8",
              "name": "v",
              "type": "uint8"
            },
            {
              "internalType": "bytes32",
              "name": "r",
              "type": "bytes32"
            },
            {
              "internalType": "bytes32",
              "name": "s",
              "type": "bytes32"
            }
          ],
          "internalType": "struct IFlareSystemsManager.Signature",
          "name": "_signature",
          "type": "tuple"
        }
      ],
      "name": "signUptimeVote",
      "outputs": [],
      "stateMutability": "nonpayable",
      "type": "function"
    },
    {
      "inputs": [],
      "name": "signingPolicyMinNumberOfVoters",
      "outputs": [
        {
          "internalType": "uint16",
          "name": "",
          "type": "uint16"
        }
      ],
      "stateMutability": "view",
      "type": "function"
    },
    {
      "inputs": [],
      "name": "signingPolicyThresholdPPM",
      "outputs": [
        {
          "internalType": "uint24",
          "name": "",
          "type": "uint24"
        }
      ],
      "stateMutability": "view",
      "type": "function"
    },
    {
      "inputs": [],
      "name": "submission",
      "outputs": [
        {
          "internalType": "contract IISubmission",
          "name": "",
          "type": "address"
        }
      ],
      "stateMutability": "view",
      "type": "function"
    },
    {
      "inputs": [],
      "name": "submit3Aligned",
      "outputs": [
        {
          "internalType": "bool",
          "name": "",
          "type": "bool"
        }
      ],
      "stateMutability": "view",
      "type": "function"
    },
    {
      "inputs": [
        {
          "internalType": "uint24",
          "name": "_rewardEpochId",
          "type": "uint24"
        },
        {
          "internalType": "bytes20[]",
          "name": "_nodeIds",
          "type": "bytes20[]"
        },
        {
          "components": [
            {
              "internalType": "uint8",
              "name": "v",
              "type": "uint8"
            },
            {
              "internalType": "bytes32",
              "name": "r",
              "type": "bytes32"
            },
            {
              "internalType": "bytes32",
              "name": "s",
              "type": "bytes32"
            }
          ],
          "internalType": "struct IFlareSystemsManager.Signature",
          "name": "_signature",
          "type": "tuple"
        }
      ],
      "name": "submitUptimeVote",
      "outputs": [],
      "stateMutability": "nonpayable",
      "type": "function"
    },
    {
      "inputs": [],
      "name": "submitUptimeVoteMinDurationBlocks",
      "outputs": [
        {
          "internalType": "uint64",
          "name": "",
          "type": "uint64"
        }
      ],
      "stateMutability": "view",
      "type": "function"
    },
    {
      "inputs": [],
      "name": "submitUptimeVoteMinDurationSeconds",
      "outputs": [
        {
          "internalType": "uint64",
          "name": "",
          "type": "uint64"
        }
      ],
      "stateMutability": "view",
      "type": "function"
    },
    {
      "inputs": [],
      "name": "switchToFallbackMode",
      "outputs": [
        {
          "internalType": "bool",
          "name": "",
          "type": "bool"
        }
      ],
      "stateMutability": "view",
      "type": "function"
    },
    {
      "inputs": [],
      "name": "switchToProductionMode",
      "outputs": [],
      "stateMutability": "nonpayable",
      "type": "function"
    },
    {
      "inputs": [
        {
          "internalType": "bytes4",
          "name": "selector",
          "type": "bytes4"
        }
      ],
      "name": "timelockedCalls",
      "outputs": [
        {
          "internalType": "uint256",
          "name": "allowedAfterTimestamp",
          "type": "uint256"
        },
        {
          "internalType": "bytes",
          "name": "encodedCall",
          "type": "bytes"
        }
      ],
      "stateMutability": "view",
      "type": "function"
    },
    {
      "inputs": [],
      "name": "triggerExpirationAndCleanup",
      "outputs": [
        {
          "internalType": "bool",
          "name": "",
          "type": "bool"
        }
      ],
      "stateMutability": "view",
      "type": "function"
    },
    {
      "inputs": [
        {
          "internalType": "bytes32[]",
          "name": "_contractNameHashes",
          "type": "bytes32[]"
        },
        {
          "internalType": "address[]",
          "name": "_contractAddresses",
          "type": "address[]"
        }
      ],
      "name": "updateContractAddresses",
      "outputs": [],
      "stateMutability": "nonpayable",
      "type": "function"
    },
    {
      "inputs": [
        {
          "components": [
            {
              "internalType": "uint16",
              "name": "randomAcquisitionMaxDurationSeconds",
              "type": "uint16"
            },
            {
              "internalType": "uint16",
              "name": "randomAcquisitionMaxDurationBlocks",
              "type": "uint16"
            },
            {
              "internalType": "uint16",
              "name": "newSigningPolicyInitializationStartSeconds",
              "type": "uint16"
            },
            {
              "internalType": "uint8",
              "name": "newSigningPolicyMinNumberOfVotingRoundsDelay",
              "type": "uint8"
            },
            {
              "internalType": "uint16",
              "name": "voterRegistrationMinDurationSeconds",
              "type": "uint16"
            },
            {
              "internalType": "uint16",
              "name": "voterRegistrationMinDurationBlocks",
              "type": "uint16"
            },
            {
              "internalType": "uint16",
              "name": "submitUptimeVoteMinDurationSeconds",
              "type": "uint16"
            },
            {
              "internalType": "uint16",
              "name": "submitUptimeVoteMinDurationBlocks",
              "type": "uint16"
            },
            {
              "internalType": "uint24",
              "name": "signingPolicyThresholdPPM",
              "type": "uint24"
            },
            {
              "internalType": "uint16",
              "name": "signingPolicyMinNumberOfVoters",
              "type": "uint16"
            },
            {
              "internalType": "uint32",
              "name": "rewardExpiryOffsetSeconds",
              "type": "uint32"
            }
          ],
          "internalType": "struct FlareSystemsManager.Settings",
          "name": "_settings",
          "type": "tuple"
        }
      ],
      "name": "updateSettings",
      "outputs": [],
      "stateMutability": "nonpayable",
      "type": "function"
    },
    {
      "inputs": [
        {
          "internalType": "uint256",
          "name": "rewardEpochId",
          "type": "uint256"
        }
      ],
      "name": "uptimeVoteHash",
      "outputs": [
        {
          "internalType": "bytes32",
          "name": "",
          "type": "bytes32"
        }
      ],
      "stateMutability": "view",
      "type": "function"
    },
    {
      "inputs": [],
      "name": "voterRegistrationMinDurationBlocks",
      "outputs": [
        {
          "internalType": "uint64",
          "name": "",
          "type": "uint64"
        }
      ],
      "stateMutability": "view",
      "type": "function"
    },
    {
      "inputs": [],
      "name": "voterRegistrationMinDurationSeconds",
      "outputs": [
        {
          "internalType": "uint64",
          "name": "",
          "type": "uint64"
        }
      ],
      "stateMutability": "view",
      "type": "function"
    },
    {
      "inputs": [],
      "name": "voterRegistrationTriggerContract",
      "outputs": [
        {
          "internalType": "contract IIVoterRegistrationTrigger",
          "name": "",
          "type": "address"
        }
      ],
      "stateMutability": "view",
      "type": "function"
    },
    {
      "inputs": [],
      "name": "voterRegistry",
      "outputs": [
        {
          "internalType": "contract IIVoterRegistry",
          "name": "",
          "type": "address"
        }
      ],
      "stateMutability": "view",
      "type": "function"
    },
    {
      "inputs": [],
      "name": "votingEpochDurationSeconds",
      "outputs": [
        {
          "internalType": "uint64",
          "name": "",
          "type": "uint64"
        }
      ],
      "stateMutability": "view",
      "type": "function"
    }
  ],
  "bytecode": "0x610140604052600a805461ffff60281b1916650100000000001790553480156200002857600080fd5b5060405162006b5738038062006b578339810160408190526200004b916200091e565b878a8a6200005a8282620003c2565b50620000869050817f714f205b2abd25bef1d06a1af944e38c113fe6160375c4e1d6d5cf28848e771955565b506001600160a01b038716620000d75760405162461bcd60e51b8152602060048201526011602482015270666c617265206461656d6f6e207a65726f60781b60448201526064015b60405180910390fd5b60008261ffff16116200012d5760405162461bcd60e51b815260206004820152601a60248201527f7265776172642065706f6368206475726174696f6e207a65726f0000000000006044820152606401620000ce565b60008460ff1611620001825760405162461bcd60e51b815260206004820152601a60248201527f766f74696e672065706f6368206475726174696f6e207a65726f0000000000006044820152606401620000ce565b805161ffff16620001c45760405162461bcd60e51b815260206004820152600b60248201526a7a65726f20626c6f636b7360a81b6044820152606401620000ce565b620001cf8662000537565b6001600160a01b03871660805263ffffffff851660e05260ff8416610100819052620001fc908462000afb565b62000208908662000b26565b63ffffffff1660a0526200022460ff851661ffff841662000b4d565b6001600160401b031660c052805161ffff166101205260208101516200024c90600162000b73565b600a8054602084015165ffffffffffff60981b19909116600160981b62ffffff9485160262ffffff60b01b191617600160b01b9382169390930292909217905560c051906200029d90600162000b73565b62ffffff16620002ae919062000b4d565b60a051620002bd919062000b92565b600a8054600160381b600160781b0319166701000000000000006001600160401b03939093169290920291909117905560408181015160208084015162ffffff1660009081526003909152829020600501805461ffff60601b19166c0100000000000000000000000061ffff93841602179055908701516200034191164262000bb5565b600a5467010000000000000090046001600160401b031611620003b25760405162461bcd60e51b815260206004820152602260248201527f7265776172642065706f636820656e64206e6f7420696e207468652066757475604482015261726560f01b6064820152608401620000ce565b5050505050505050505062000beb565b600054600160a01b900460ff16156200041e5760405162461bcd60e51b815260206004820152601460248201527f696e697469616c6973656420213d2066616c73650000000000000000000000006044820152606401620000ce565b6001600160a01b038216620004765760405162461bcd60e51b815260206004820152601860248201527f676f7665726e616e63652073657474696e6773207a65726f00000000000000006044820152606401620000ce565b6001600160a01b038116620004c15760405162461bcd60e51b815260206004820152601060248201526f5f676f7665726e616e6365207a65726f60801b6044820152606401620000ce565b600080546001600160a01b038481166001600160a81b031990921691909117600160a01b17909155600180549183166001600160a01b0319909216821790556040519081527f9789733827840833afc031fb2ef9ab6894271f77bad2085687cf4ae5c7bee4db9060200160405180910390a15050565b620f424081610100015162ffffff1611156200058b5760405162461bcd60e51b81526020600482015260126024820152710e8d0e4cae6d0ded8c840e8dede40d0d2ced60731b6044820152606401620000ce565b600081610120015161ffff161180156200063b5750600b546001600160a01b031615806200063b575080610120015161ffff16600b60009054906101000a90046001600160a01b03166001600160a01b031663d5e50a636040518163ffffffff1660e01b8152600401602060405180830381865afa15801562000612573d6000803e3d6000fd5b505050506040513d601f19601f8201168201806040525081019062000638919062000bd1565b10155b620006895760405162461bcd60e51b815260206004820152601860248201527f696e76616c6964206e756d626572206f6620766f7465727300000000000000006044820152606401620000ce565b4281610140015163ffffffff161115620006d85760405162461bcd60e51b815260206004820152600f60248201526e65787069727920746f6f206c6f6e6760881b6044820152606401620000ce565b80516008805460208401516040850151606086015161014087015161ffff9687166001600160801b0319958616179387166801000000000000000090810294909417600160801b600160e01b031916928716600160801b90810263ffffffff60c01b19169390931760ff909216600160c01b908102929092176001600160e01b0316600160e01b63ffffffff909216919091021790945560808601516009805460a089015160c08a015160e08b0151948a169290971691909117908816909402939093176001600160801b03169386169091026001600160c01b031692909217918416909202179055610100820151600a80546101209094015162ffffff90921664ffffffffff199094169390931763010000009190921602179055565b6001600160a01b03811681146200080c57600080fd5b50565b60405161016081016001600160401b03811182821017156200084157634e487b7160e01b600052604160045260246000fd5b60405290565b805161ffff811681146200085a57600080fd5b919050565b805160ff811681146200085a57600080fd5b805162ffffff811681146200085a57600080fd5b805163ffffffff811681146200085a57600080fd5b600060608284031215620008ad57600080fd5b604051606081016001600160401b0381118282101715620008de57634e487b7160e01b600052604160045260246000fd5b604052905080620008ef8362000847565b8152620008ff6020840162000871565b6020820152620009126040840162000847565b60408201525092915050565b6000806000806000806000806000808a8c036102c08112156200094057600080fd5b8b516200094d81620007f6565b60208d0151909b506200096081620007f6565b60408d0151909a506200097381620007f6565b60608d01519099506200098681620007f6565b9750610160607f19820112156200099c57600080fd5b50620009a76200080f565b620009b560808d0162000847565b8152620009c560a08d0162000847565b6020820152620009d860c08d0162000847565b6040820152620009eb60e08d016200085f565b6060820152620009ff6101008d0162000847565b608082015261012062000a14818e0162000847565b60a083015261014062000a29818f0162000847565b60c084015262000a3d6101608f0162000847565b60e084015262000a516101808f0162000871565b61010084015262000a666101a08f0162000847565b8284015262000a796101c08f0162000885565b9083015250955062000a8f6101e08c0162000885565b945062000aa06102008c016200085f565b935062000ab16102208c0162000885565b925062000ac26102408c0162000847565b915062000ad48c6102608d016200089a565b90509295989b9194979a5092959850565b634e487b7160e01b600052601160045260246000fd5b63ffffffff81811683821602808216919082811462000b1e5762000b1e62000ae5565b505092915050565b63ffffffff81811683821601908082111562000b465762000b4662000ae5565b5092915050565b6001600160401b0381811683821602808216919082811462000b1e5762000b1e62000ae5565b62ffffff81811683821601908082111562000b465762000b4662000ae5565b6001600160401b0381811683821601908082111562000b465762000b4662000ae5565b8082018082111562000bcb5762000bcb62000ae5565b92915050565b60006020828403121562000be457600080fd5b5051919050565b60805160a05160c05160e0516101005161012051615ed662000c8160003960008181610c540152613bbd01526000818161070c015281816137160152614b5f015260008181610cb2015281816137400152614b1a01526000818161088101528181611def0152818161357001526141ac01526000818161085a015261359a0152600081816109890152613aed0152615ed66000f3fe608060405234801561001057600080fd5b50600436106104485760003560e01c806388e49ac711610241578063d10e807f1161013b578063e0d4ea37116100c3578063ed54fd6311610087578063ed54fd6314610cd4578063ef88bf1314610cee578063f21d630414610d01578063f5a9838314610d10578063f5f5ba7214610d1857600080fd5b8063e0d4ea3714610c76578063e17f212e14610c89578063e22fdece14610c9d578063e7c830d414610ca5578063e8d0e70a14610cad57600080fd5b8063d8a01a0a1161010a578063d8a01a0a14610bbb578063dac4319d14610bd5578063dc5a422514610c29578063debfda3014610c3c578063ded7c4b814610c4f57600080fd5b8063d10e807f14610b1d578063d2e9ad7114610b37578063d346691114610b88578063d4be6faa14610ba857600080fd5b8063a733d54b116101c9578063be60040e1161018d578063be60040e14610a75578063c00a1a9714610a88578063c263221614610a9b578063c581e79114610aae578063c9f1d2aa14610ad957600080fd5b8063a733d54b146109d1578063aec84ab6146109e8578063b00c0b76146109fe578063b59589d114610a11578063b6c25af014610a2457600080fd5b80639b760d13116102105780639b760d131461095d5780639dd6850f14610971578063a107753214610984578063a219fe02146109ab578063a72b826e146109be57600080fd5b806388e49ac7146108a35780638f8f9f3a146108b65780638fbaf860146109375780639a7590971461094a57600080fd5b80634f923d371161035257806367fc4029116102da57806374e6310e1161029e57806374e6310e1461080157806375d2187a14610822578063787173e71461083557806379e047ed1461085557806385f3c9c91461087c57600080fd5b806367fc40291461079d5780636aeffddc146107b05780636b4c7bd6146107ca5780636d0e8c34146107dd57806370562697146107e557600080fd5b80635aa6e675116103215780635aa6e6751461072e5780635ff270791461073657806362354e0314610749578063647006e21461075c57806367daec891461078a57600080fd5b80634f923d37146106755780635267a15d1461068c57806359db0e2f146106b35780635a8320881461070757600080fd5b80632e3645f8116103d557806346831531116103a45780634683153114610602578063490344f4146106175780634c528765146106315780634eac870f1461064b5780634eaee3071461065e57600080fd5b80632e3645f8146105975780634134520b146105bf57806341c05ad5146105dc5780634615d5e9146105ef57600080fd5b80630f4ef8a61161041c5780630f4ef8a614610508578063107d8ffb146105335780631703a788146105495780631916e9151461057157806324eb64de1461058457600080fd5b8062ddae531461044d57806306886f41146104b057806309505d25146104c5578063098e7ff6146104dd575b600080fd5b61048b61045b366004614f7d565b62ffffff16600090815260036020819052604090912001546001600160401b0380821692600160401b9092041690565b604080516001600160401b039384168152929091166020830152015b60405180910390f35b6104c36104be366004614fe3565b610d4d565b005b6104cd610ee4565b60405190151581526020016104a7565b6008546104f0906001600160401b031681565b6040516001600160401b0390911681526020016104a7565b600e5461051b906001600160a01b031681565b6040516001600160a01b0390911681526020016104a7565b600a546104cd9065010000000000900460ff1681565b61055c610557366004615024565b610f21565b604080519283529015156020830152016104a7565b61048b61057f366004615052565b610f51565b6104c3610592366004615089565b611053565b600a546105ac906301000000900461ffff1681565b60405161ffff90911681526020016104a7565b6105c76110ae565b60405163ffffffff90911681526020016104a7565b61048b6105ea366004615052565b6110bd565b6105ac6105fd366004615024565b611123565b61060a611155565b6040516104a791906150a6565b6008546104f090600160401b90046001600160401b031681565b6009546104f090600160801b90046001600160401b031681565b600f5461051b906001600160a01b031681565b6008546105c790600160e01b900463ffffffff1681565b600a546105c790600160781b900463ffffffff1681565b7f714f205b2abd25bef1d06a1af944e38c113fe6160375c4e1d6d5cf28848e77195461051b565b61048b6106c1366004615052565b62ffffff90911660009081526003602090815260408083206001600160a01b0390941683526009909301905220546001600160401b0380821692600160401b9092041690565b6104f07f000000000000000000000000000000000000000000000000000000000000000081565b61051b6111b7565b6104c36107443660046150e7565b61124e565b60005461051b906001600160a01b031681565b61077c61076a366004615024565b60056020526000908152604090205481565b6040519081526020016104a7565b6104c361079836600461511f565b6114ce565b6104c36107ab3660046150e7565b61151a565b6008546104f090600160801b90046001600160401b031681565b6104c36107d836600461514e565b6115fb565b6104cd611917565b6107ed612589565b60405162ffffff90911681526020016104a7565b61081461080f3660046150e7565b612593565b6040516104a79291906151db565b6105c7610830366004615024565b612638565b61077c610843366004615024565b60076020526000908152604090205481565b6104f07f000000000000000000000000000000000000000000000000000000000000000081565b6104f07f000000000000000000000000000000000000000000000000000000000000000081565b60105461051b906001600160a01b031681565b6109046108c4366004614f7d565b62ffffff166000908152600360205260409020546001600160401b0380821692600160401b8304821692600160801b8104831692600160c01b9091041690565b604080516001600160401b03958616815293851660208501529184169183019190915290911660608201526080016104a7565b6104c36109453660046152ab565b612668565b600c5461051b906001600160a01b031681565b600a546104cd90600160301b900460ff1681565b6104c361097f366004615385565b6126a0565b61051b7f000000000000000000000000000000000000000000000000000000000000000081565b6009546104f0906001600160401b031681565b6104c36109cc36600461511f565b612826565b6008546105c790600160c01b900463ffffffff1681565b600a546107ed90600160981b900462ffffff1681565b6104c3610a0c366004615481565b612873565b600d5461051b906001600160a01b031681565b610904610a32366004614f7d565b62ffffff166000908152600360205260409020600201546001600160401b0380821692600160401b8304821692600160801b8104831692600160c01b9091041690565b600b5461051b906001600160a01b031681565b6104c3610a9636600461557d565b61294e565b6104f0610aa9366004615024565b612c21565b61077c610abc3660046155eb565b600660209081526000928352604080842090915290825290205481565b61048b610ae7366004614f7d565b62ffffff16600090815260036020819052604090912001546001600160401b03600160801b8204811692600160c01b9092041690565b6009546104f090600160401b90046001600160401b031681565b610904610b45366004614f7d565b62ffffff166000908152600360205260409020600101546001600160401b0380821692600160401b8304821692600160801b8104831692600160c01b9091041690565b61077c610b96366004615024565b60046020526000908152604090205481565b6104c3610bb636600461560d565b612c9d565b6009546104f090600160c01b90046001600160401b031681565b61048b610be3366004615052565b62ffffff90911660009081526003602090815260408083206001600160a01b0390941683526007909301905220546001600160401b0380821692600160401b9092041690565b6104c3610c3736600461514e565b612ccd565b6104cd610c4a366004615089565b613089565b6104f07f000000000000000000000000000000000000000000000000000000000000000081565b61077c610c84366004615024565b613112565b6000546104cd90600160a81b900460ff1681565b6104cd613191565b61077c6131a1565b6104f07f000000000000000000000000000000000000000000000000000000000000000081565b600a546104f090600160381b90046001600160401b031681565b6104c3610cfc366004615666565b6131b5565b600a546107ed9062ffffff1681565b6104c361331b565b6040805180820182526013815272233630b932a9bcb9ba32b6b9a6b0b730b3b2b960691b602082015290516104a79190615684565b600054600160b01b900460ff1680610d6f5750600054600160a81b900460ff16155b15610ed557610d7c6133e1565b610d8860116000614f01565b8060005b81811015610ecf576000848483818110610da857610da8615697565b9050602002016020810190610dbd9190615089565b90506000610dcc8360016156c3565b90505b83811015610e6c57858582818110610de957610de9615697565b9050602002016020810190610dfe9190615089565b6001600160a01b0316826001600160a01b031603610e5a5760405162461bcd60e51b81526020600482015260146024820152736475706c69636174656420636f6e74726163747360601b60448201526064015b60405180910390fd5b80610e64816156d6565b915050610dcf565b50601180546001810182556000919091527f31ecc21a745e3968a04e9570e4425bc18fa8019c68028196b546d1669c200c680180546001600160a01b0319166001600160a01b039290921691909117905580610ec7816156d6565b915050610d8c565b50505050565b610ee060003661341b565b5050565b600080610eef613567565b610efa9060016156ef565b62ffffff166000818152600360205260409020909150610f1b9082906135fb565b91505090565b600081815260036020526040812060058101546001600160401b03169190610f4a9084906135fb565b9050915091565b62ffffff82166000908152600560205260408120548190610fb45760405162461bcd60e51b815260206004820152601b60248201527f726577617264732068617368206e6f74207369676e65642079657400000000006044820152606401610e51565b62ffffff841660008181526003602090815260408083206007835281842054600584528285205483519485019690965291830191909152606082019390935260800160408051601f1981840301815291815281516020928301206000908152600b90940182528084206001600160a01b039097168452600190960190525092909220546001600160401b0380821695600160401b909204169350915050565b600054600160b01b900460ff16806110755750600054600160a81b900460ff16155b156110a0576110826133e1565b601080546001600160a01b0319166001600160a01b03831617905550565b6110ab60003661341b565b50565b60006110b861370f565b905090565b6000806110c984613782565b505062ffffff909116600090815260036020908152604080832060048352818420548452600a0182528083206001600160a01b0390941683526001909301905220546001600160401b0380821692600160401b9092041690565b60008161112f816137e3565b600083815260036020526040902060050154600160601b900461ffff1691505b50919050565b606060118054806020026020016040519081016040528092919081815260200182805480156111ad57602002820191906000526020600020905b81546001600160a01b0316815260019091019060200180831161118f575b5050505050905090565b60008054600160a81b900460ff166111d957506001546001600160a01b031690565b60008054906101000a90046001600160a01b03166001600160a01b031663732524946040518163ffffffff1660e01b8152600401602060405180830381865afa15801561122a573d6000803e3d6000fd5b505050506040513d601f19601f820116820180604052508101906110b89190615712565b61125733613089565b6112935760405162461bcd60e51b815260206004820152600d60248201526c37b7363c9032bc32b1baba37b960991b6044820152606401610e51565b6001600160e01b03198116600090815260026020526040812080549091036112fd5760405162461bcd60e51b815260206004820152601a60248201527f74696d656c6f636b3a20696e76616c69642073656c6563746f720000000000006044820152606401610e51565b805442101561134e5760405162461bcd60e51b815260206004820152601960248201527f74696d656c6f636b3a206e6f7420616c6c6f77656420796574000000000000006044820152606401610e51565b600081600101805461135f9061572f565b80601f016020809104026020016040519081016040528092919081815260200182805461138b9061572f565b80156113d85780601f106113ad576101008083540402835291602001916113d8565b820191906000526020600020905b8154815290600101906020018083116113bb57829003601f168201915b505050506001600160e01b031985166000908152600260205260408120818155929350905061140a6001830182614f1f565b50506000805460ff60b01b1916600160b01b178155604051309061142f908490615763565b6000604051808303816000865af19150503d806000811461146c576040519150601f19603f3d011682016040523d82523d6000602084013e611471565b606091505b50506000805460ff60b01b19169055604080516001600160e01b0319871681524260208201529192507fa7326b57fc9cfe267aaea5e7f0b01757154d265620a0585819416ee9ddd2c438910160405180910390a1610ecf8161384c565b600054600160b01b900460ff16806114f05750600054600160a81b900460ff16155b156110a0576114fd6133e1565b600a805466ff0000000000001916600160301b8315150217905550565b611522613869565b6001600160e01b03198116600090815260026020526040812054900361158a5760405162461bcd60e51b815260206004820152601a60248201527f74696d656c6f636b3a20696e76616c69642073656c6563746f720000000000006044820152606401610e51565b604080516001600160e01b0319831681524260208201527f7735b2391c38a81419c513e30ca578db7158eadd7101511b23e221c654d19cf8910160405180910390a16001600160e01b031981166000908152600260205260408120818155906115f66001830182614f1f565b505050565b811580159061161157508161160f846138c3565b145b61165d5760405162461bcd60e51b815260206004820152601f60248201527f6e6577207369676e696e6720706f6c696379206861736820696e76616c6964006044820152606401610e51565b62ffffff831660009081526003602052604090206001810154600160801b90046001600160401b0316156116dd5760405162461bcd60e51b815260206004820152602160248201527f6e6577207369676e696e6720706f6c69637920616c7265616479207369676e656044820152601960fa1b6064820152608401610e51565b600080806116f66116ef60018961577f565b8787613935565b6001600160a01b0382166000908152600788016020526040902054929550909350915061172b906001600160401b0316613a5a565b604051806040016040528061173f42613aa8565b6001600160401b0316815260200161175643613aa8565b6001600160401b039081169091526001600160a01b0384166000908152600787016020908152604082208451815495909201518416600160401b026001600160801b031990951691909316179290921790556003816117b660018b61577f565b62ffffff168152602081019190915260400160002060050154600686015461ffff600160601b9092048216916117ee9185911661579b565b61ffff1611905080156118705761180442613aa8565b8560010160106101000a8154816001600160401b0302191690836001600160401b0316021790555061183543613aa8565b6001860180546001600160401b0392909216600160c01b026001600160c01b0390921691909117905560068501805461ffff191690556118a6565b60068501805483919060009061188b90849061ffff1661579b565b92506101000a81548161ffff021916908361ffff1602179055505b826001600160a01b0316846001600160a01b03168962ffffff167f154b0214ae62d8a5548c1eac25fabd87c38b04932a217732e1022f3118da67f36118ea42613aa8565b604080516001600160401b0390921682528615156020830152015b60405180910390a45050505050505050565b6000611921613ae2565b600061192b61370f565b90506000611937613567565b600854600a549192508291611966916001600160401b03600160801b909104811691600160381b9004166157b6565b6001600160401b03164210611f805760006119828360016156ef565b9050600061198f826138c3565b03611ddc5762ffffff81166000908152600360205260408120805490916001600160401b039091169003611ac4576119c642613aa8565b815467ffffffffffffffff19166001600160401b03919091161781556119eb43613aa8565b81546001600160401b0391909116600160401b0267ffffffffffffffff60401b19909116178155600b54604051635213182360e01b815262ffffff841660048201526001600160a01b0390911690635213182390602401600060405180830381600087803b158015611a5c57600080fd5b505af1158015611a70573d6000803e3d6000fd5b505050508162ffffff167ff9991783e5e480e42d9a54d3f35f4321857f8f0ebeb3742d326dce28b1126708611aa442613aa8565b6040516001600160401b03909116815260200160405180910390a2611dda565b8054600160801b90046001600160401b0316600003611d61576000806000600d60009054906101000a90046001600160a01b03166001600160a01b031663dbdff2c16040518163ffffffff1660e01b8152600401606060405180830381865afa158015611b35573d6000803e3d6000fd5b505050506040513d601f19601f82011682018060405250810190611b5991906157d6565b865492955090935091506000906001600160401b031682118015611b7a5750825b15611b9057611b898685613b4e565b9050611c4a565b60085485544391611bb8916001600160401b03600160401b928390048116929091041661580f565b6001600160401b0316108015611bf1575060085485544291611be6916001600160401b03918216911661580f565b6001600160401b0316105b15611c4a575062ffffff87166000908152600360205260409020600501546001600160401b03168015611c3d5762ffffff88166000908152600360205260409020600401549350611c4a565b611c478685613b4e565b90505b6001600160401b03811615611d585743816001600160401b031610611c7157611c7161582f565b611c7a42613aa8565b85546001600160401b0391909116600160801b0267ffffffffffffffff60801b19909116178555611caa43613aa8565b85546001600160c01b0316600160c01b6001600160401b039283160217865560058601805467ffffffffffffffff19169183169190911790556004850184905562ffffff86167ff21722dbe044a7cea0f6d81c871cae750971e36c9dd10999e46f2b46f26ac7ff82611d1b42613aa8565b604080516001600160401b0393841681529290911660208301520160405180910390a26010546001600160a01b031615611d5857611d5886613c38565b50505050611dda565b611d708262ffffff16826135fb565b611dda57611d7d42613aa8565b60018201805467ffffffffffffffff19166001600160401b0392909216919091179055611da943613aa8565b8160010160086101000a8154816001600160401b0302191690836001600160401b03160217905550611dda82613cd3565b505b611de581613eb2565b15611f7e578092507f0000000000000000000000000000000000000000000000000000000000000000600a60078282829054906101000a90046001600160401b0316611e31919061580f565b92506101000a8154816001600160401b0302191690836001600160401b03160217905550611e5e42613aa8565b62ffffff8416600090815260036020819052604090912001805467ffffffffffffffff19166001600160401b0392909216919091179055611e9e43613aa8565b62ffffff84166000818152600360208190526040909120908101805467ffffffffffffffff60401b1916600160401b6001600160401b039590951685021790556005015490917f4abb62ab1e4c42a11b90e4e45b92af1274f74cc634b759518e8c99e000d8be6d910463ffffffff16611f1642613aa8565b6040805163ffffffff90931683526001600160401b0390911660208301520160405180910390a2600a54600160301b900460ff1615611f6057611f5883613f22565b611f60614096565b600a54611f7e908490600160381b90046001600160401b0316614156565b505b600a5463ffffffff600160781b909104811690841611156121c757600a805463ffffffff60781b1916600160781b63ffffffff861602179055600b54604051637c2cb92160e01b815262ffffff83166004820152606091829182916001600160a01b031690637c2cb92190602401600060405180830381865afa15801561200b573d6000803e3d6000fd5b505050506040513d6000823e601f3d908101601f1916820160405261203391908101906158a9565b600b54604051635b0dabfd60e11b815262ffffff871660048201529193506001600160a01b03169063b61b57fa90602401600060405180830381865afa158015612081573d6000803e3d6000fd5b505050506040513d6000823e601f3d908101601f191682016040526120a991908101906158a9565b90508362ffffff168562ffffff16111561213957600b54604051637c2cb92160e01b815262ffffff871660048201526001600160a01b0390911690637c2cb92190602401600060405180830381865afa15801561210a573d6000803e3d6000fd5b505050506040513d6000823e601f3d908101601f1916820160405261213291908101906158a9565b925061213d565b8192505b600c54600a546001600160a01b039091169063f8ae8a2f908590859065010000000000900460ff1661216f5785612171565b865b856040518563ffffffff1660e01b81526004016121919493929190615921565b600060405180830381600087803b1580156121ab57600080fd5b505af11580156121bf573d6000803e3d6000fd5b505050505050505b600a546000906121e490600160b01b900462ffffff1660016156ef565b90508062ffffff168362ffffff16118015612225575062ffffff811660009081526003602081905260409091200154600160801b90046001600160401b0316155b156123bf57600060038161223a8460016156ef565b62ffffff168152602081019190915260400160002060095460038201549192504291612279916001600160401b03600160801b9091048116911661580f565b6001600160401b03161080156122c45750600954600382015443916122b9916001600160401b03600160c01b909204821691600160401b9091041661580f565b6001600160401b0316105b156123bd57600a805462ffffff60b01b1916600160b01b62ffffff8516021790556122ee42613aa8565b62ffffff831660009081526003602081905260409091200180546001600160401b0392909216600160801b0267ffffffffffffffff60801b1990921691909117905561233943613aa8565b62ffffff831660008181526003602081905260409091200180546001600160401b0393909316600160c01b026001600160c01b03909316929092179091557f235cef7d085c1e59545613282d239e56eb0cd056135aa46b8c658cf54a0785616123a142613aa8565b6040516001600160401b03909116815260200160405180910390a25b505b600a54600160301b900460ff1661257e57600e546040805163deea13e760e01b815290516000926001600160a01b03169163deea13e79160048083019260209291908290030181865afa15801561241a573d6000803e3d6000fd5b505050506040513d601f19601f8201168201806040525081019061243e919061596e565b90505b600a5462ffffff808616600160981b909204161080156124895750600a54600160981b900462ffffff166000908152600360205260409020600501546001600160401b031681115b1561257c57600e54600a54604051636b60edf760e11b8152600160981b90910462ffffff1660048201526001600160a01b039091169063d6c1dbee90602401600060405180830381600087803b1580156124e257600080fd5b505af19250505080156124f3575060015b61253e57600a54604051600160981b90910462ffffff1681527fc0cded1f60001401da804c8a7703c1e8dc60521fca0f0f9853e2f1984b5410ba9060200160405180910390a161257c565b600a8054600160981b900462ffffff1690601361255a83615987565b91906101000a81548162ffffff021916908362ffffff16021790555050612441565b505b600194505050505090565b60006110b8613567565b600260205260009081526040902080546001820180549192916125b59061572f565b80601f01602080910402602001604051908101604052809291908181526020018280546125e19061572f565b801561262e5780601f106126035761010080835404028352916020019161262e565b820191906000526020600020905b81548152906001019060200180831161261157829003601f168201915b5050505050905082565b600081612644816137e3565b5050600090815260036020526040902060050154600160401b900463ffffffff1690565b600054600160b01b900460ff168061268a5750600054600160a81b900460ff16155b156110a0576126976133e1565b6110ab8161422b565b6126a9846144e8565b62ffffff8416600090815260036020819052604090912090810154600160801b90046001600160401b0316156127215760405162461bcd60e51b815260206004820181905260248201527f7375626d697420757074696d6520766f746520616c726561647920656e6465646044820152606401610e51565b6000858585604051602001612738939291906159fe565b60405160208183030381529060405280519060200120905060008061275e888487613935565b5091509150604051806040016040528061277742613aa8565b6001600160401b0316815260200161278e43613aa8565b6001600160401b039081169091526001600160a01b03808416600081815260098901602090815260409091208551815496909201518516600160401b026001600160801b0319909616919094161793909317909155831662ffffff8a167fed370d61eb315e1d46d979894585530b99f94dab64c0d40366685aebe39e3db08a8a61281742613aa8565b60405161190593929190615a1d565b600054600160b01b900460ff16806128485750600054600160a81b900460ff16155b156110a0576128556133e1565b600a805465ff00000000001916650100000000008315150217905550565b7f714f205b2abd25bef1d06a1af944e38c113fe6160375c4e1d6d5cf28848e7719546001600160a01b0316336001600160a01b0316146128ec5760405162461bcd60e51b815260206004820152601460248201527337b7363c9030b2323932b9b9903ab83230ba32b960611b6044820152606401610e51565b61294461292083836040518060400160405280600e81526020016d20b2323932b9b9aab83230ba32b960911b81525061453e565b7f714f205b2abd25bef1d06a1af944e38c113fe6160375c4e1d6d5cf28848e771955565b610ee08282614619565b61295885836147ca565b61296185613782565b62ffffff8516600090815260056020526040902054156129c35760405162461bcd60e51b815260206004820152601b60248201527f72657761726473206861736820616c7265616479207369676e656400000000006044820152606401610e51565b60008585856040516020016129d9929190615a80565b60408051601f19818403018152828252805160209182012062ffffff90941690830152810191909152606081018490526080016040516020818303038152906040528051906020012090506000806000612a34898587613935565b62ffffff8c1660009081526003602090815260408083208a8452600b810183528184206001600160a01b038716855260010190925290912054939650919450925090612a88906001600160401b0316613a5a565b6040518060400160405280612a9c42613aa8565b6001600160401b03168152602001612ab343613aa8565b6001600160401b039081169091526000878152600b8401602081815260408084206001600160a01b038a16855260018101835290842086518154978401518716600160401b026001600160801b03199098169616959095179590951790935560058501548983529252915461ffff600160601b909204821691612b389186911661579b565b61ffff161190508015612bc657612b4e42613aa8565b8260020160106101000a8154816001600160401b0302191690836001600160401b03160217905550612b7f43613aa8565b6002830180546001600160401b0392909216600160c01b026001600160c01b039092169190911790556000868152600b830160205260409020805461ffff19169055612c05565b6000868152600b8301602052604081208054859290612bea90849061ffff1661579b565b92506101000a81548161ffff021916908361ffff1602179055505b612c148b86868b8e8e8761489c565b5050505050505050505050565b6000818152600360205260408120600501546001600160401b031690819003612c985760405162461bcd60e51b8152602060048201526024808201527f766f746520706f77657220626c6f636b206e6f7420696e697469616c697a6564604482015263081e595d60e21b6064820152608401610e51565b919050565b612ca5613869565b612caf84826147ca565b610ecf84612cbb6111b7565b612cc36111b7565b848787600161489c565b81612d125760405162461bcd60e51b8152602060048201526015602482015274757074696d6520766f74652068617368207a65726f60581b6044820152606401610e51565b612d1b836144e8565b62ffffff831660009081526003602081905260408220908101549091600160801b9091046001600160401b03169003612d965760405162461bcd60e51b815260206004820181905260248201527f7369676e20757074696d6520766f7465206e6f742073746172746564207965746044820152606401610e51565b62ffffff841660009081526004602052604090205415612df85760405162461bcd60e51b815260206004820152601f60248201527f757074696d6520766f7465206861736820616c7265616479207369676e6564006044820152606401610e51565b6040805162ffffff861660208201529081018490526000906060016040516020818303038152906040528051906020012090506000806000612e3b888588613935565b60008a8152600a8901602090815260408083206001600160a01b03861684526001019091529020549295509093509150612e7d906001600160401b0316613a5a565b6040518060400160405280612e9142613aa8565b6001600160401b03168152602001612ea843613aa8565b6001600160401b039081169091526000898152600a8801602081815260408084206001600160a01b038916855260018101835290842086518154978401518716600160401b026001600160801b03199098169616959095179590951790935560058901548b83529252915461ffff600160601b909204821691612f2d9185911661579b565b61ffff161190508015612fd157612f4342613aa8565b60028701805467ffffffffffffffff19166001600160401b0392909216919091179055612f6f43613aa8565b6002870180546001600160401b0392909216600160401b0267ffffffffffffffff60401b1990921691909117905562ffffff891660009081526004602090815260408083208b90558a8352600a89019091529020805461ffff19169055613010565b6000888152600a8701602052604081208054849290612ff590849061ffff1661579b565b92506101000a81548161ffff021916908361ffff1602179055505b826001600160a01b0316846001600160a01b03168a62ffffff167f5506337d1266599f8b64675a1c8321701657ca2f2f70be0e0c58302b6c22e7978b61305542613aa8565b604080519283526001600160401b0390911660208301528615159082015260600160405180910390a4505050505050505050565b60008054600160a01b900460ff16801561310c5750600054604051630debfda360e41b81526001600160a01b0384811660048301529091169063debfda3090602401602060405180830381865afa1580156130e8573d6000803e3d6000fd5b505050506040513d601f19601f8201168201806040525081019061310c9190615a94565b92915050565b6000818152600360205260408120600501546001600160401b0316810361317b5760405162461bcd60e51b815260206004820152601860248201527f73656564206e6f7420696e697469616c697a65642079657400000000000000006044820152606401610e51565b5060009081526003602052604090206004015490565b600061319b613ae2565b50600090565b60006131ab613567565b62ffffff16905090565b600054600160a01b900460ff16156132065760405162461bcd60e51b8152602060048201526014602482015273696e697469616c6973656420213d2066616c736560601b6044820152606401610e51565b6001600160a01b03821661325c5760405162461bcd60e51b815260206004820152601860248201527f676f7665726e616e63652073657474696e6773207a65726f00000000000000006044820152606401610e51565b6001600160a01b0381166132a55760405162461bcd60e51b815260206004820152601060248201526f5f676f7665726e616e6365207a65726f60801b6044820152606401610e51565b600080546001600160a01b038481166001600160a81b031990921691909117600160a01b17909155600180549183166001600160a01b0319909216821790556040519081527f9789733827840833afc031fb2ef9ab6894271f77bad2085687cf4ae5c7bee4db9060200160405180910390a15050565b613323613869565b600054600160a81b900460ff161561337d5760405162461bcd60e51b815260206004820152601a60248201527f616c726561647920696e2070726f64756374696f6e206d6f64650000000000006044820152606401610e51565b600180546001600160a01b031916905560008054600160a81b60ff60a81b198216179091556040516001600160a01b0390911681527f83af113638b5422f9e977cebc0aaf0eaf2188eb9a8baae7f9d46c42b33a1560c9060200160405180910390a1565b600054600160b01b900460ff1615613411573330146134025761340261582f565b6000805460ff60b01b19169055565b613419613869565b565b613423613869565b6000805460408051636221a54b60e01b81529051853593926001600160a01b031691636221a54b9160048083019260209291908290030181865afa15801561346f573d6000803e3d6000fd5b505050506040513d601f19601f82011682018060405250810190613493919061596e565b905060006134a182426156c3565b9050604051806040016040528082815260200186868080601f01602080910402602001604051908101604052809392919081815260200183838082843760009201829052509390945250506001600160e01b0319861681526002602090815260409091208351815590830151909150600182019061351f9082615aff565b509050507fed948300a3694aa01d4a6b258bfd664350193d770c0b51f8387277f6d83ea3b6838287876040516135589493929190615bbe565b60405180910390a15050505050565b60006110b860017f00000000000000000000000000000000000000000000000000000000000000006001600160401b03167f0000000000000000000000000000000000000000000000000000000000000000600a60079054906101000a90046001600160401b03166135d991906157b6565b6001600160401b03166135ec9190615c1a565b6135f69190615c2e565b614a67565b8054600090600160801b90046001600160401b0316158015906137085750600954825461363b916001600160401b0390811691600160801b90041661580f565b6001600160401b03164211158061368357506009548254613676916001600160401b03600160401b909104811691600160c01b90041661580f565b6001600160401b03164311155b806137085750600a54600b54604051630da7a50d60e21b815260048101869052630100000090920461ffff16916001600160a01b039091169063369e943490602401602060405180830381865afa1580156136e2573d6000803e3d6000fd5b505050506040513d601f19601f82011682018060405250810190613706919061596e565b105b9392505050565b60006110b87f00000000000000000000000000000000000000000000000000000000000000006001600160401b03167f00000000000000000000000000000000000000000000000000000000000000006001600160401b0316426137739190615c2e565b61377d9190615c1a565b614a97565b62ffffff81166000908152600460205260409020546110ab5760405162461bcd60e51b815260206004820152601f60248201527f757074696d6520766f74652068617368206e6f74207369676e656420796574006044820152606401610e51565b6000818152600360205260408120600101546001600160401b031690036110ab5760405162461bcd60e51b815260206004820181905260248201527f7265776172642065706f6368206e6f7420696e697469616c697a6564207965746044820152606401610e51565b3d604051818101604052816000823e8215613865578181f35b8181fd5b6138716111b7565b6001600160a01b0316336001600160a01b0316146134195760405162461bcd60e51b815260206004820152600f60248201526e6f6e6c7920676f7665726e616e636560881b6044820152606401610e51565b600d54604051630c85bf0760e01b815262ffffff831660048201526000916001600160a01b031690630c85bf0790602401602060405180830381865afa158015613911573d6000803e3d6000fd5b505050506040513d601f19601f8201168201806040525081019061310c919061596e565b7f19457468657265756d205369676e6564204d6573736167653a0a3332000000006000908152601c839052603c812081908190613988906139796020870187615c41565b86602001358760400135614ac8565b600b5460405163118c8ae560e31b815262ffffff891660048201526001600160a01b038084166024830152929550911690638c645728906044016040805180830381865afa1580156139de573d6000803e3d6000fd5b505050506040513d601f19601f82011682018060405250810190613a029190615c67565b90925090506001600160a01b038216613a515760405162461bcd60e51b81526020600482015260116024820152701cda59db985d1d5c99481a5b9d985b1a59607a1b6044820152606401610e51565b93509350939050565b6001600160401b038116156110ab5760405162461bcd60e51b81526020600482015260146024820152731d9bdd195c88185b1c9958591e481cda59db995960621b6044820152606401610e51565b60006001600160401b03821115613ade57604080516306dfcc6560e41b8152600481019190915260248101839052604401610e51565b5090565b336001600160a01b037f000000000000000000000000000000000000000000000000000000000000000016146134195760405162461bcd60e51b815260206004820152601160248201527037b7363c90333630b932903230b2b6b7b760791b6044820152606401610e51565b600080600381613b5f60018761577f565b62ffffff9081168252602080830193909352604091820160009081205491881681526003909352908220546001600160401b03600160401b92839004811694509190041690828103613bf657613bef613bea836001600160401b03167f00000000000000000000000000000000000000000000000000000000000000006001600160401b0316614af6565b613aa8565b9050613c03565b613c0083836157b6565b90505b6000613c186001600160401b03831687615c96565b9050613c2381613aa8565b613c2d90846157b6565b979650505050505050565b601054604051637b83fb0960e11b815262ffffff831660048201526001600160a01b039091169063f707f61290602401600060405180830381600087803b158015613c8257600080fd5b505af1925050508015613c93575060015b6110ab5760405162ffffff821681527f449d255b9c487823db86822a857f218d40682abada12acee2483788dc2fa975a906020015b60405180910390a150565b62ffffff81166000818152600360209081526040808320815160c0810183529283018490529082018390526060808301939093526080820183905260a082019290925291825290613d22614b0c565b63ffffffff166020820152600b5460405163c452e47f60e01b815262ffffff851660048201526000916001600160a01b03169063c452e47f906024016000604051808303816000875af1158015613d7d573d6000803e3d6000fd5b505050506040513d6000823e601f3d908101601f19168201604052613da59190810190615caa565b60a08501919091526080840191909152600a5461ffff9091169150613ddd90613dd890839062ffffff16620f4240614be4565b614c24565b61ffff16604080840182905260048086015460608601526020850151600587018054600160601b90950261ffff60601b1963ffffffff909316600160401b02929092166dffffffffffff0000000000000000199095169490941717909255600d549051638353412560e01b81526001600160a01b0390911691638353412591613e6891869101615d74565b6020604051808303816000875af1158015613e87573d6000803e3d6000fd5b505050506040513d601f19601f82011682018060405250810190613eab919061596e565b5050505050565b600a54600090600160381b90046001600160401b03164210801590613ee057506000613edd836138c3565b14155b801561310c575062ffffff8216600090815260036020526040902060050154600160401b900463ffffffff16613f1461370f565b63ffffffff16101592915050565b600854600090613f3f90600160e01b900463ffffffff1642615c2e565b90505b600a5462ffffff808416600160981b90920416108015613fa45750600a548190600390600090613f7f90600160981b900462ffffff1660016156ef565b62ffffff1681526020810191909152604001600020600301546001600160401b031611155b15610ee057600e54600a54604051636b60edf760e11b8152600160981b90910462ffffff1660048201526001600160a01b039091169063d6c1dbee90602401600060405180830381600087803b158015613ffd57600080fd5b505af192505050801561400e575060015b61405857600a54604051600160981b90910462ffffff1681527fc0cded1f60001401da804c8a7703c1e8dc60521fca0f0f9853e2f1984b5410ba9060200160405180910390a15050565b600a8054600160981b900462ffffff1690601361407483615987565b91906101000a81548162ffffff021916908362ffffff16021790555050613f42565b600a54600160981b900462ffffff166000908152600360205260409081902060050154600f54915163cbc31cf760e01b81526001600160401b0390911660048201819052916001600160a01b03169063cbc31cf790602401600060405180830381600087803b15801561410857600080fd5b505af1925050508015614119575060015b6110ab576040516001600160401b03821681527fe9a7be2e41a6b0b36d253d56488c6844e611be2bffd8dd4b69b89a078f41fecc90602001613cc8565b60005b6011548110156115f6576011818154811061417657614176615697565b6000918252602090912001546040516391f2567960e01b815262ffffff851660048201526001600160401b0380851660248301527f00000000000000000000000000000000000000000000000000000000000000001660448201526001600160a01b03909116906391f2567990606401600060405180830381600087803b15801561420057600080fd5b505af1158015614214573d6000803e3d6000fd5b505050508080614223906156d6565b915050614159565b620f424081610100015162ffffff16111561427d5760405162461bcd60e51b81526020600482015260126024820152710e8d0e4cae6d0ded8c840e8dede40d0d2ced60731b6044820152606401610e51565b600081610120015161ffff161180156143285750600b546001600160a01b03161580614328575080610120015161ffff16600b60009054906101000a90046001600160a01b03166001600160a01b031663d5e50a636040518163ffffffff1660e01b8152600401602060405180830381865afa158015614301573d6000803e3d6000fd5b505050506040513d601f19601f82011682018060405250810190614325919061596e565b10155b6143745760405162461bcd60e51b815260206004820152601860248201527f696e76616c6964206e756d626572206f6620766f7465727300000000000000006044820152606401610e51565b4281610140015163ffffffff1611156143c15760405162461bcd60e51b815260206004820152600f60248201526e65787069727920746f6f206c6f6e6760881b6044820152606401610e51565b80516008805460208401516040850151606086015161014087015161ffff9687166001600160801b031995861617938716600160401b908102949094176bffffffffffffffffffffffff60801b1916928716600160801b90810263ffffffff60c01b19169390931760ff909216600160c01b908102929092176001600160e01b0316600160e01b63ffffffff909216919091021790945560808601516009805460a089015160c08a015160e08b0151948a169290971691909117908816909402939093176fffffffffffffffffffffffffffffffff169386169091026001600160c01b031692909217918416909202179055610100820151600a80546101209094015162ffffff90921664ffffffffff199094169390931763010000009190921602179055565b6144f0613567565b62ffffff168162ffffff16106110ab5760405162461bcd60e51b8152602060048201526013602482015272195c1bd8da081b9bdd08195b991959081e595d606a1b6044820152606401610e51565b600080826040516020016145529190615684565b6040516020818303038152906040528051906020012090506000805b86518110156145ca5786818151811061458957614589615697565b602002602001015183036145b8578581815181106145a9576145a9615697565b602002602001015191506145ca565b806145c2816156d6565b91505061456e565b506001600160a01b0381166146105760405162461bcd60e51b815260206004820152600c60248201526b61646472657373207a65726f60a01b6044820152606401610e51565b95945050505050565b61464982826040518060400160405280600d81526020016c566f746572526567697374727960981b81525061453e565b600b60006101000a8154816001600160a01b0302191690836001600160a01b0316021790555061469c82826040518060400160405280600a81526020016929bab136b4b9b9b4b7b760b11b81525061453e565b600c60006101000a8154816001600160a01b0302191690836001600160a01b031602179055506146ea82826040518060400160405280600581526020016452656c617960d81b81525061453e565b600d60006101000a8154816001600160a01b0302191690836001600160a01b0316021790555061474082826040518060400160405280600d81526020016c2932bbb0b93226b0b730b3b2b960991b81525061453e565b600e60006101000a8154816001600160a01b0302191690836001600160a01b031602179055506147a682826040518060400160405280601981526020017f436c65616e7570426c6f636b4e756d6265724d616e616765720000000000000081525061453e565b600f80546001600160a01b0319166001600160a01b03929092169190911790555050565b8061480b5760405162461bcd60e51b8152602060048201526011602482015270726577617264732068617368207a65726f60781b6044820152606401610e51565b614814826144e8565b600360006148238460016156ef565b62ffffff1681526020810191909152604001600090812060010154600160801b90046001600160401b03169003610ee05760405162461bcd60e51b815260206004820152601d60248201527f7369676e696e6720706f6c696379206e6f74207369676e6564207965740000006044820152606401610e51565b80156149fd5762ffffff871660009081526005602090815260409182902086905590516148cd918591859101615a80565b60408051601f19818403018152918152815160209283012062ffffff8a1660009081526007909352908220555b828110156149fb57600084848381811061491657614916615697565b604002919091013591505081158061495257508484614936600185615c2e565b81811061494557614945615697565b9050604002016000013581115b61499e5760405162461bcd60e51b815260206004820181905260248201527f726577617264206d616e61676572206964206e6f7420696e6372656173696e676044820152606401610e51565b8484838181106149b0576149b0615697565b90506040020160200135600660008b62ffffff1681526020019081526020016000206000838152602001908152602001600020819055505080806149f3906156d6565b9150506148fa565b505b846001600160a01b0316866001600160a01b03168862ffffff167f81b5504045130d3b82498ff414ad58271e85bbde420cc85aa66d91eff9af30fb878787614a4442613aa8565b88604051614a56959493929190615e1a565b60405180910390a450505050505050565b600062ffffff821115613ade576040516306dfcc6560e41b81526018600482015260248101839052604401610e51565b600063ffffffff821115613ade576040516306dfcc6560e41b81526020600482015260248101839052604401610e51565b600080600080614ada88888888614c53565b925092509250614aea8282614d22565b50909695505050505050565b6000818310614b055781613708565b5090919050565b600a546000908190614b4f907f000000000000000000000000000000000000000000000000000000000000000090600160381b90046001600160401b03166157b6565b6001600160401b03169050614b927f00000000000000000000000000000000000000000000000000000000000000006001600160401b03168261377d9190615c1a565b600854909250600090600160c01b900463ffffffff16614bb061370f565b614bba9190615e56565b614bc5906001615e56565b90508063ffffffff168363ffffffff161015614bdf578092505b505090565b600080614bf2858585614ddb565b905060008380614c0457614c04615c04565b85870990508015614c185781600101614c1a565b815b9695505050505050565b600061ffff821115613ade576040516306dfcc6560e41b81526010600482015260248101839052604401610e51565b600080807f7fffffffffffffffffffffffffffffff5d576e7357a4501ddfe92f46681b20a0841115614c8e5750600091506003905082614d18565b604080516000808252602082018084528a905260ff891692820192909252606081018790526080810186905260019060a0016020604051602081039080840390855afa158015614ce2573d6000803e3d6000fd5b5050604051601f1901519150506001600160a01b038116614d0e57506000925060019150829050614d18565b9250600091508190505b9450945094915050565b6000826003811115614d3657614d36615e73565b03614d3f575050565b6001826003811115614d5357614d53615e73565b03614d715760405163f645eedf60e01b815260040160405180910390fd5b6002826003811115614d8557614d85615e73565b03614da65760405163fce698f760e01b815260048101829052602401610e51565b6003826003811115614dba57614dba615e73565b03610ee0576040516335e2f38360e21b815260048101829052602401610e51565b6000808211614e1f5760405162461bcd60e51b815260206004820152601060248201526f4469766973696f6e206279207a65726f60801b6044820152606401610e51565b83600003614e2f57506000613708565b83830283858281614e4257614e42615c04565b0403614e6057828181614e5757614e57615c04565b04915050613708565b506000614e6d8386615c1a565b90506000614e7b8487615c96565b90506000614e898587615c1a565b90506000614e978688615c96565b905085614ea48285615e89565b614eae9190615c1a565b614eb88385615e89565b614ec28387615e89565b88614ecd8689615e89565b614ed79190615e89565b614ee191906156c3565b614eeb91906156c3565b614ef591906156c3565b98975050505050505050565b50805460008255906000526020600020908101906110ab9190614f55565b508054614f2b9061572f565b6000825580601f10614f3b575050565b601f0160209004906000526020600020908101906110ab91905b5b80821115613ade5760008155600101614f56565b803562ffffff81168114612c9857600080fd5b600060208284031215614f8f57600080fd5b61370882614f6a565b60008083601f840112614faa57600080fd5b5081356001600160401b03811115614fc157600080fd5b6020830191508360208260051b8501011115614fdc57600080fd5b9250929050565b60008060208385031215614ff657600080fd5b82356001600160401b0381111561500c57600080fd5b61501885828601614f98565b90969095509350505050565b60006020828403121561503657600080fd5b5035919050565b6001600160a01b03811681146110ab57600080fd5b6000806040838503121561506557600080fd5b61506e83614f6a565b9150602083013561507e8161503d565b809150509250929050565b60006020828403121561509b57600080fd5b81356137088161503d565b6020808252825182820181905260009190848201906040850190845b81811015614aea5783516001600160a01b0316835292840192918401916001016150c2565b6000602082840312156150f957600080fd5b81356001600160e01b03198116811461370857600080fd5b80151581146110ab57600080fd5b60006020828403121561513157600080fd5b813561370881615111565b60006060828403121561114f57600080fd5b600080600060a0848603121561516357600080fd5b61516c84614f6a565b925060208401359150615182856040860161513c565b90509250925092565b60005b838110156151a657818101518382015260200161518e565b50506000910152565b600081518084526151c781602086016020860161518b565b601f01601f19169290920160200192915050565b8281526040602082015260006151f460408301846151af565b949350505050565b634e487b7160e01b600052604160045260246000fd5b60405161016081016001600160401b0381118282101715615235576152356151fc565b60405290565b604051601f8201601f191681016001600160401b0381118282101715615263576152636151fc565b604052919050565b61ffff811681146110ab57600080fd5b8035612c988161526b565b803560ff81168114612c9857600080fd5b803563ffffffff81168114612c9857600080fd5b600061016082840312156152be57600080fd5b6152c6615212565b6152cf8361527b565b81526152dd6020840161527b565b60208201526152ee6040840161527b565b60408201526152ff60608401615286565b60608201526153106080840161527b565b608082015261532160a0840161527b565b60a082015261533260c0840161527b565b60c082015261534360e0840161527b565b60e0820152610100615356818501614f6a565b9082015261012061536884820161527b565b9082015261014061537a848201615297565b908201529392505050565b60008060008060a0858703121561539b57600080fd5b6153a485614f6a565b935060208501356001600160401b038111156153bf57600080fd5b6153cb87828801614f98565b90945092506153df9050866040870161513c565b905092959194509250565b60006001600160401b03821115615403576154036151fc565b5060051b60200190565b600082601f83011261541e57600080fd5b8135602061543361542e836153ea565b61523b565b82815260059290921b8401810191818101908684111561545257600080fd5b8286015b848110156154765780356154698161503d565b8352918301918301615456565b509695505050505050565b6000806040838503121561549457600080fd5b82356001600160401b03808211156154ab57600080fd5b818501915085601f8301126154bf57600080fd5b813560206154cf61542e836153ea565b82815260059290921b840181019181810190898411156154ee57600080fd5b948201945b8386101561550c578535825294820194908201906154f3565b9650508601359250508082111561552257600080fd5b5061552f8582860161540d565b9150509250929050565b60008083601f84011261554b57600080fd5b5081356001600160401b0381111561556257600080fd5b6020830191508360208260061b8501011115614fdc57600080fd5b600080600080600060c0868803121561559557600080fd5b61559e86614f6a565b945060208601356001600160401b038111156155b957600080fd5b6155c588828901615539565b909550935050604086013591506155df876060880161513c565b90509295509295909350565b600080604083850312156155fe57600080fd5b50508035926020909101359150565b6000806000806060858703121561562357600080fd5b61562c85614f6a565b935060208501356001600160401b0381111561564757600080fd5b61565387828801615539565b9598909750949560400135949350505050565b6000806040838503121561567957600080fd5b823561506e8161503d565b60208152600061370860208301846151af565b634e487b7160e01b600052603260045260246000fd5b634e487b7160e01b600052601160045260246000fd5b8082018082111561310c5761310c6156ad565b6000600182016156e8576156e86156ad565b5060010190565b62ffffff81811683821601908082111561570b5761570b6156ad565b5092915050565b60006020828403121561572457600080fd5b81516137088161503d565b600181811c9082168061574357607f821691505b60208210810361114f57634e487b7160e01b600052602260045260246000fd5b6000825161577581846020870161518b565b9190910192915050565b62ffffff82811682821603908082111561570b5761570b6156ad565b61ffff81811683821601908082111561570b5761570b6156ad565b6001600160401b0382811682821603908082111561570b5761570b6156ad565b6000806000606084860312156157eb57600080fd5b8351925060208401516157fd81615111565b80925050604084015190509250925092565b6001600160401b0381811683821601908082111561570b5761570b6156ad565b634e487b7160e01b600052600160045260246000fd5b600082601f83011261585657600080fd5b8151602061586661542e836153ea565b82815260059290921b8401810191818101908684111561588557600080fd5b8286015b8481101561547657805161589c8161503d565b8352918301918301615889565b6000602082840312156158bb57600080fd5b81516001600160401b038111156158d157600080fd5b6151f484828501615845565b600081518084526020808501945080840160005b838110156159165781516001600160a01b0316875295820195908201906001016158f1565b509495945050505050565b60808152600061593460808301876158dd565b828103602084015261594681876158dd565b9050828103604084015261595a81866158dd565b90508281036060840152613c2d81856158dd565b60006020828403121561598057600080fd5b5051919050565b600062ffffff80831681810361599f5761599f6156ad565b6001019392505050565b818352600060208085019450826000805b868110156159f25782356bffffffffffffffffffffffff1981168082146159df578384fd5b89525096830196918301916001016159ba565b50959695505050505050565b62ffffff841681526040602082015260006146106040830184866159a9565b604081526000615a316040830185876159a9565b90506001600160401b0383166020830152949350505050565b8183526000602080850194508260005b858110156159165781358752828201358388015260409687019690910190600101615a5a565b6020815260006151f4602083018486615a4a565b600060208284031215615aa657600080fd5b815161370881615111565b601f8211156115f657600081815260208120601f850160051c81016020861015615ad85750805b601f850160051c820191505b81811015615af757828155600101615ae4565b505050505050565b81516001600160401b03811115615b1857615b186151fc565b615b2c81615b26845461572f565b84615ab1565b602080601f831160018114615b615760008415615b495750858301515b600019600386901b1c1916600185901b178555615af7565b600085815260208120601f198616915b82811015615b9057888601518255948401946001909101908401615b71565b5085821015615bae5787850151600019600388901b60f8161c191681555b5050505050600190811b01905550565b63ffffffff60e01b8516815283602082015260606040820152816060820152818360808301376000818301608090810191909152601f909201601f191601019392505050565b634e487b7160e01b600052601260045260246000fd5b600082615c2957615c29615c04565b500490565b8181038181111561310c5761310c6156ad565b600060208284031215615c5357600080fd5b61370882615286565b8051612c988161526b565b60008060408385031215615c7a57600080fd5b8251615c858161503d565b602084015190925061507e8161526b565b600082615ca557615ca5615c04565b500690565b600080600060608486031215615cbf57600080fd5b83516001600160401b0380821115615cd657600080fd5b615ce287838801615845565b9450602091508186015181811115615cf957600080fd5b86019050601f81018713615d0c57600080fd5b8051615d1a61542e826153ea565b81815260059190911b82018301908381019089831115615d3957600080fd5b928401925b82841015615d60578351615d518161526b565b82529284019290840190615d3e565b809650505050505061518260408501615c5c565b6000602080835262ffffff8451168184015263ffffffff81850151166040840152604084015161ffff8082166060860152606086015160808601526080860151915060c060a0860152615dca60e08601836158dd565b60a0870151868203601f190160c0880152805180835290850193506000918501905b80831015615e0e57845184168252938501936001929092019190850190615dec565b50979650505050505050565b858152608060208201526000615e34608083018688615a4a565b6001600160401b03949094166040830152509015156060909101529392505050565b63ffffffff81811683821601908082111561570b5761570b6156ad565b634e487b7160e01b600052602160045260246000fd5b808202811582820484141761310c5761310c6156ad56fea2646970667358221220f0293bdaecfe535df5c5c23c0356aaff684fc12a11cfd148dbb3b7313385c52c64736f6c63430008140033",
  "linkReferences": {},
  "deployedLinkReferences": {}
}