{
  "_format": "hh-sol-artifact-1",
  "contractName": "FlareSystemCalculator",
  "sourceName": "contracts/protocol/implementation/FlareSystemCalculator.sol",
  "abi": [
    {
      "inputs": [
        {
          "internalType": "contract IGovernanceSettings",
          "name": "_governanceSettings",
          "type": "address"
        },
        {
          "internalType": "address",
          "name": "_initialGovernance",
          "type": "address"
        },
        {
          "internalType": "address",
          "name": "_addressUpdater",
          "type": "address"
        },
        {
          "internalType": "uint24",
          "name": "_wNatCapPPM",
          "type": "uint24"
        },
        {
          "internalType": "uint64",
          "name": "_signingPolicySignNonPunishableDurationSeconds",
          "type": "uint64"
        },
        {
          "internalType": "uint64",
          "name": "_signingPolicySignNonPunishableDurationBlocks",
          "type": "uint64"
        },
        {
          "internalType": "uint64",
          "name": "_signingPolicySignNoRewardsDurationBlocks",
          "type": "uint64"
        }
      ],
      "stateMutability": "nonpayable",
      "type": "constructor"
    },
    {
      "anonymous": false,
      "inputs": [
        {
          "indexed": false,
          "internalType": "bytes4",
          "name": "selector",
          "type": "bytes4"
        },
        {
          "indexed": false,
          "internalType": "uint256",
          "name": "allowedAfterTimestamp",
          "type": "uint256"
        },
        {
          "indexed": false,
          "internalType": "bytes",
          "name": "encodedCall",
          "type": "bytes"
        }
      ],
      "name": "GovernanceCallTimelocked",
      "type": "event"
    },
    {
      "anonymous": false,
      "inputs": [
        {
          "indexed": false,
          "internalType": "address",
          "name": "initialGovernance",
          "type": "address"
        }
      ],
      "name": "GovernanceInitialised",
      "type": "event"
    },
    {
      "anonymous": false,
      "inputs": [
        {
          "indexed": false,
          "internalType": "address",
          "name": "governanceSettings",
          "type": "address"
        }
      ],
      "name": "GovernedProductionModeEntered",
      "type": "event"
    },
    {
      "anonymous": false,
      "inputs": [
        {
          "indexed": false,
          "internalType": "bytes4",
          "name": "selector",
          "type": "bytes4"
        },
        {
          "indexed": false,
          "internalType": "uint256",
          "name": "timestamp",
          "type": "uint256"
        }
      ],
      "name": "TimelockedGovernanceCallCanceled",
      "type": "event"
    },
    {
      "anonymous": false,
      "inputs": [
        {
          "indexed": false,
          "internalType": "bytes4",
          "name": "selector",
          "type": "bytes4"
        },
        {
          "indexed": false,
          "internalType": "uint256",
          "name": "timestamp",
          "type": "uint256"
        }
      ],
      "name": "TimelockedGovernanceCallExecuted",
      "type": "event"
    },
    {
      "anonymous": false,
      "inputs": [
        {
          "indexed": false,
          "internalType": "address",
          "name": "voter",
          "type": "address"
        },
        {
          "indexed": false,
          "internalType": "uint24",
          "name": "rewardEpochId",
          "type": "uint24"
        },
        {
          "indexed": false,
          "internalType": "uint256",
          "name": "wNatWeight",
          "type": "uint256"
        },
        {
          "indexed": false,
          "internalType": "uint256",
          "name": "wNatCappedWeight",
          "type": "uint256"
        },
        {
          "indexed": false,
          "internalType": "bytes20[]",
          "name": "nodeIds",
          "type": "bytes20[]"
        },
        {
          "indexed": false,
          "internalType": "uint256[]",
          "name": "nodeWeights",
          "type": "uint256[]"
        },
        {
          "indexed": false,
          "internalType": "uint16",
          "name": "delegationFeeBIPS",
          "type": "uint16"
        }
      ],
      "name": "VoterRegistrationInfo",
      "type": "event"
    },
    {
      "inputs": [
        {
          "internalType": "uint24",
          "name": "_rewardEpochId",
          "type": "uint24"
        },
        {
          "internalType": "address",
          "name": "_voter",
          "type": "address"
        }
      ],
      "name": "calculateBurnFactorPPM",
      "outputs": [
        {
          "internalType": "uint256",
          "name": "",
          "type": "uint256"
        }
      ],
      "stateMutability": "view",
      "type": "function"
    },
    {
      "inputs": [
        {
          "internalType": "address",
          "name": "_voter",
          "type": "address"
        },
        {
          "internalType": "address",
          "name": "_delegationAddress",
          "type": "address"
        },
        {
          "internalType": "uint24",
          "name": "_rewardEpochId",
          "type": "uint24"
        },
        {
          "internalType": "uint256",
          "name": "_votePowerBlockNumber",
          "type": "uint256"
        }
      ],
      "name": "calculateRegistrationWeight",
      "outputs": [
        {
          "internalType": "uint256",
          "name": "_registrationWeight",
          "type": "uint256"
        }
      ],
      "stateMutability": "nonpayable",
      "type": "function"
    },
    {
      "inputs": [
        {
          "internalType": "bytes4",
          "name": "_selector",
          "type": "bytes4"
        }
      ],
      "name": "cancelGovernanceCall",
      "outputs": [],
      "stateMutability": "nonpayable",
      "type": "function"
    },
    {
      "inputs": [],
      "name": "enablePChainStakeMirror",
      "outputs": [],
      "stateMutability": "nonpayable",
      "type": "function"
    },
    {
      "inputs": [],
      "name": "entityManager",
      "outputs": [
        {
          "internalType": "contract EntityManager",
          "name": "",
          "type": "address"
        }
      ],
      "stateMutability": "view",
      "type": "function"
    },
    {
      "inputs": [
        {
          "internalType": "bytes4",
          "name": "_selector",
          "type": "bytes4"
        }
      ],
      "name": "executeGovernanceCall",
      "outputs": [],
      "stateMutability": "nonpayable",
      "type": "function"
    },
    {
      "inputs": [],
      "name": "flareSystemManager",
      "outputs": [
        {
          "internalType": "contract FlareSystemManager",
          "name": "",
          "type": "address"
        }
      ],
      "stateMutability": "view",
      "type": "function"
    },
    {
      "inputs": [],
      "name": "getAddressUpdater",
      "outputs": [
        {
          "internalType": "address",
          "name": "_addressUpdater",
          "type": "address"
        }
      ],
      "stateMutability": "view",
      "type": "function"
    },
    {
      "inputs": [],
      "name": "governance",
      "outputs": [
        {
          "internalType": "address",
          "name": "",
          "type": "address"
        }
      ],
      "stateMutability": "view",
      "type": "function"
    },
    {
      "inputs": [],
      "name": "governanceSettings",
      "outputs": [
        {
          "internalType": "contract IGovernanceSettings",
          "name": "",
          "type": "address"
        }
      ],
      "stateMutability": "view",
      "type": "function"
    },
    {
      "inputs": [
        {
          "internalType": "contract IGovernanceSettings",
          "name": "_governanceSettings",
          "type": "address"
        },
        {
          "internalType": "address",
          "name": "_initialGovernance",
          "type": "address"
        }
      ],
      "name": "initialise",
      "outputs": [],
      "stateMutability": "nonpayable",
      "type": "function"
    },
    {
      "inputs": [
        {
          "internalType": "address",
          "name": "_address",
          "type": "address"
        }
      ],
      "name": "isExecutor",
      "outputs": [
        {
          "internalType": "bool",
          "name": "",
          "type": "bool"
        }
      ],
      "stateMutability": "view",
      "type": "function"
    },
    {
      "inputs": [],
      "name": "pChainStakeMirror",
      "outputs": [
        {
          "internalType": "contract IPChainStakeMirror",
          "name": "",
          "type": "address"
        }
      ],
      "stateMutability": "view",
      "type": "function"
    },
    {
      "inputs": [],
      "name": "pChainStakeMirrorEnabled",
      "outputs": [
        {
          "internalType": "bool",
          "name": "",
          "type": "bool"
        }
      ],
      "stateMutability": "view",
      "type": "function"
    },
    {
      "inputs": [],
      "name": "productionMode",
      "outputs": [
        {
          "internalType": "bool",
          "name": "",
          "type": "bool"
        }
      ],
      "stateMutability": "view",
      "type": "function"
    },
    {
      "inputs": [
        {
          "internalType": "uint24",
          "name": "_wNatCapPPM",
          "type": "uint24"
        }
      ],
      "name": "setWNatCapPPM",
      "outputs": [],
      "stateMutability": "nonpayable",
      "type": "function"
    },
    {
      "inputs": [],
      "name": "signingPolicySignNoRewardsDurationBlocks",
      "outputs": [
        {
          "internalType": "uint64",
          "name": "",
          "type": "uint64"
        }
      ],
      "stateMutability": "view",
      "type": "function"
    },
    {
      "inputs": [],
      "name": "signingPolicySignNonPunishableDurationBlocks",
      "outputs": [
        {
          "internalType": "uint64",
          "name": "",
          "type": "uint64"
        }
      ],
      "stateMutability": "view",
      "type": "function"
    },
    {
      "inputs": [],
      "name": "signingPolicySignNonPunishableDurationSeconds",
      "outputs": [
        {
          "internalType": "uint64",
          "name": "",
          "type": "uint64"
        }
      ],
      "stateMutability": "view",
      "type": "function"
    },
    {
      "inputs": [
        {
          "internalType": "uint256",
          "name": "_x",
          "type": "uint256"
        }
      ],
      "name": "sqrt",
      "outputs": [
        {
          "internalType": "uint128",
          "name": "",
          "type": "uint128"
        }
      ],
      "stateMutability": "pure",
      "type": "function"
    },
    {
      "inputs": [],
      "name": "switchToProductionMode",
      "outputs": [],
      "stateMutability": "nonpayable",
      "type": "function"
    },
    {
      "inputs": [
        {
          "internalType": "bytes4",
          "name": "",
          "type": "bytes4"
        }
      ],
      "name": "timelockedCalls",
      "outputs": [
        {
          "internalType": "uint256",
          "name": "allowedAfterTimestamp",
          "type": "uint256"
        },
        {
          "internalType": "bytes",
          "name": "encodedCall",
          "type": "bytes"
        }
      ],
      "stateMutability": "view",
      "type": "function"
    },
    {
      "inputs": [
        {
          "internalType": "bytes32[]",
          "name": "_contractNameHashes",
          "type": "bytes32[]"
        },
        {
          "internalType": "address[]",
          "name": "_contractAddresses",
          "type": "address[]"
        }
      ],
      "name": "updateContractAddresses",
      "outputs": [],
      "stateMutability": "nonpayable",
      "type": "function"
    },
    {
      "inputs": [],
      "name": "voterRegistry",
      "outputs": [
        {
          "internalType": "contract VoterRegistry",
          "name": "",
          "type": "address"
        }
      ],
      "stateMutability": "view",
      "type": "function"
    },
    {
      "inputs": [],
      "name": "wNat",
      "outputs": [
        {
          "internalType": "contract IWNat",
          "name": "",
          "type": "address"
        }
      ],
      "stateMutability": "view",
      "type": "function"
    },
    {
      "inputs": [],
      "name": "wNatCapPPM",
      "outputs": [
        {
          "internalType": "uint24",
          "name": "",
          "type": "uint24"
        }
      ],
      "stateMutability": "view",
      "type": "function"
    },
    {
      "inputs": [],
      "name": "wNatDelegationFee",
      "outputs": [
        {
          "internalType": "contract WNatDelegationFee",
          "name": "",
          "type": "address"
        }
      ],
      "stateMutability": "view",
      "type": "function"
    }
  ],
  "bytecode": "0x60806040523480156200001157600080fd5b5060405162002830380380620028308339810160408190526200003491620002f5565b8487876200004382826200014a565b506200006f9050817f714f205b2abd25bef1d06a1af944e38c113fe6160375c4e1d6d5cf28848e771955565b50620f42408462ffffff161115620000ce5760405162461bcd60e51b815260206004820152601460248201527f5f774e617443617050504d20746f6f206869676800000000000000000000000060448201526064015b60405180910390fd5b600880546001600160401b03948516600160b81b02600160b81b600160f81b031962ffffff909716600160a01b0296909616600160a01b600160f81b031990911617949094179093556009805493831668010000000000000000026001600160801b03199094169190921617919091179055506200039c915050565b600054600160a01b900460ff1615620001a65760405162461bcd60e51b815260206004820152601460248201527f696e697469616c6973656420213d2066616c73650000000000000000000000006044820152606401620000c5565b6001600160a01b038216620001fe5760405162461bcd60e51b815260206004820152601860248201527f676f7665726e616e63652073657474696e6773207a65726f00000000000000006044820152606401620000c5565b6001600160a01b038116620002495760405162461bcd60e51b815260206004820152601060248201526f5f676f7665726e616e6365207a65726f60801b6044820152606401620000c5565b600080546001600160a01b038481166001600160a81b031990921691909117600160a01b17909155600180549183166001600160a01b0319909216821790556040519081527f9789733827840833afc031fb2ef9ab6894271f77bad2085687cf4ae5c7bee4db9060200160405180910390a15050565b6001600160a01b0381168114620002d557600080fd5b50565b80516001600160401b0381168114620002f057600080fd5b919050565b600080600080600080600060e0888a0312156200031157600080fd5b87516200031e81620002bf565b60208901519097506200033181620002bf565b60408901519096506200034481620002bf565b606089015190955062ffffff811681146200035e57600080fd5b93506200036e60808901620002d8565b92506200037e60a08901620002d8565b91506200038e60c08901620002d8565b905092959891949750929550565b61248480620003ac6000396000f3fe608060405234801561001057600080fd5b50600436106101a95760003560e01c806387c5ab51116100f9578063b00c0b7611610097578063debfda3011610071578063debfda3014610402578063e17f212e14610415578063ef88bf1314610429578063f5a983831461043c57600080fd5b8063b00c0b76146103c9578063bb25d5df146103dc578063be60040e146103ef57600080fd5b806396ca1472116100d357806396ca14721461037a5780639dd1018c146103945780639edbf007146103ae578063b006b4e3146103c157600080fd5b806387c5ab511461032957806387fd1ba11461033c5780639350f57c1461036757600080fd5b80635ff2707911610166578063677342ce11610140578063677342ce146102a657806367fc4029146102d157806374e6310e146102e45780637bf756c91461030557600080fd5b80635ff270791461026d57806362354e031461028057806362d9c89a1461029357600080fd5b80633d7cf608146101ae57806350b1d61b146101c35780635267a15d146101f357806357b58c5f1461021a5780635aa6e6751461023b5780635edf759614610243575b600080fd5b6101c16101bc366004611b25565b610444565b005b6004546101d6906001600160a01b031681565b6040516001600160a01b0390911681526020015b60405180910390f35b7f714f205b2abd25bef1d06a1af944e38c113fe6160375c4e1d6d5cf28848e7719546101d6565b61022d610228366004611b55565b6104f4565b6040519081526020016101ea565b6101d661091a565b60085461025990600160a01b900462ffffff1681565b60405162ffffff90911681526020016101ea565b6101c161027b366004611ba4565b6109b6565b6000546101d6906001600160a01b031681565b6007546101d6906001600160a01b031681565b6102b96102b4366004611bce565b610c3c565b6040516001600160801b0390911681526020016101ea565b6101c16102df366004611ba4565b610c4d565b6102f76102f2366004611ba4565b610d2e565b6040516101ea929190611c37565b60075461031990600160a01b900460ff1681565b60405190151581526020016101ea565b6005546101d6906001600160a01b031681565b60095461034f906001600160401b031681565b6040516001600160401b0390911681526020016101ea565b61022d610375366004611c58565b610dd3565b60085461034f90600160b81b90046001600160401b031681565b60095461034f90600160401b90046001600160401b031681565b6008546101d6906001600160a01b031681565b6101c1611072565b6101c16103d7366004611d6c565b6110c3565b6003546101d6906001600160a01b031681565b6006546101d6906001600160a01b031681565b610319610410366004611e24565b6111a2565b60005461031990600160a81b900460ff1681565b6101c1610437366004611e41565b611225565b6101c161138b565b600054600160b01b900460ff16806104665750600054600160a81b900460ff16155b156104e657610473611451565b620f42408162ffffff1611156104c75760405162461bcd60e51b81526020600482015260146024820152730beee9cc2e886c2e0a0a09a40e8dede40d0d2ced60631b60448201526064015b60405180910390fd5b6008805462ffffff60a01b1916600160a01b62ffffff84160217905550565b6104f1600036611489565b50565b6006546000906001600160a01b031633146105475760405162461bcd60e51b81526020600482015260136024820152726f6e6c7920766f74657220726567697374727960681b60448201526064016104be565b60048054604051632da5f2f960e11b81526001600160a01b03888116938201939093526024810185905260009290911690635b4be5f290604401600060405180830381865afa15801561059e573d6000803e3d6000fd5b505050506040513d6000823e601f3d908101601f191682016040526105c69190810190611e5f565b6007549091506060906001600160a01b0316156106a15760075460405163a9e7019960e01b81526001600160a01b039091169063a9e701999061060f9085908890600401611f55565b600060405180830381865afa15801561062c573d6000803e3d6000fd5b505050506040513d6000823e601f3d908101601f191682016040526106549190810190611f77565b905060005b815181101561069b5781818151811061067457610674611ffc565b6020026020010151846106879190612028565b9350806106938161203b565b915050610659565b506106e7565b81516001600160401b038111156106ba576106ba611c8f565b6040519080825280602002602001820160405280156106e3578160200160208202803683370190505b5090505b600854604051631f2d513560e11b8152600481018690526000916001600160a01b031690633e5aa26a90602401602060405180830381865afa158015610731573d6000803e3d6000fd5b505050506040513d601f19601f820116820180604052508101906107559190612054565b600854909150600090620f42409061077990600160a01b900462ffffff168461206d565b6107839190612084565b600854604051631257fcdb60e31b81526001600160a01b038b81166004830152602482018a9052929350600092909116906392bfe6d890604401602060405180830381865afa1580156107da573d6000803e3d6000fd5b505050506040513d601f19601f820116820180604052508101906107fe9190612054565b9050600061080c83836115d5565b60055460405163d700e0cf60e01b81526001600160a01b038e8116600483015262ffffff8d1660248301529293506000929091169063d700e0cf90604401602060405180830381865afa158015610867573d6000803e3d6000fd5b505050506040513d601f19601f8201168201806040525081019061088b91906120a6565b905061089f61089a838a612028565b6115ed565b6001600160801b031697506108b3886115ed565b6108c6906001600160801b03168961206d565b97507f553ba727fce4bab95d341c5ee4f447f233ef7509a64d40fe458e224c20cf9f9d8c8b85858b8b8760405161090397969594939291906120ca565b60405180910390a150505050505050949350505050565b60008054600160a81b900460ff1661093c57506001546001600160a01b031690565b60008054906101000a90046001600160a01b03166001600160a01b031663732524946040518163ffffffff1660e01b8152600401602060405180830381865afa15801561098d573d6000803e3d6000fd5b505050506040513d601f19601f820116820180604052508101906109b19190612158565b905090565b6109bf336111a2565b6109fb5760405162461bcd60e51b815260206004820152600d60248201526c37b7363c9032bc32b1baba37b960991b60448201526064016104be565b6001600160e01b0319811660009081526002602052604081208054909103610a655760405162461bcd60e51b815260206004820152601a60248201527f74696d656c6f636b3a20696e76616c69642073656c6563746f7200000000000060448201526064016104be565b8054421015610ab65760405162461bcd60e51b815260206004820152601960248201527f74696d656c6f636b3a206e6f7420616c6c6f776564207965740000000000000060448201526064016104be565b6000816001018054610ac790612175565b80601f0160208091040260200160405190810160405280929190818152602001828054610af390612175565b8015610b405780601f10610b1557610100808354040283529160200191610b40565b820191906000526020600020905b815481529060010190602001808311610b2357829003601f168201915b505050506001600160e01b0319851660009081526002602052604081208181559293509050610b726001830182611ac4565b50506000805460ff60b01b1916600160b01b1781556040513090610b979084906121af565b6000604051808303816000865af19150503d8060008114610bd4576040519150601f19603f3d011682016040523d82523d6000602084013e610bd9565b606091505b50506000805460ff60b01b19169055604080516001600160e01b0319871681524260208201529192507fa7326b57fc9cfe267aaea5e7f0b01757154d265620a0585819416ee9ddd2c438910160405180910390a1610c368161176e565b50505050565b6000610c47826115ed565b92915050565b610c5561178b565b6001600160e01b031981166000908152600260205260408120549003610cbd5760405162461bcd60e51b815260206004820152601a60248201527f74696d656c6f636b3a20696e76616c69642073656c6563746f7200000000000060448201526064016104be565b604080516001600160e01b0319831681524260208201527f7735b2391c38a81419c513e30ca578db7158eadd7101511b23e221c654d19cf8910160405180910390a16001600160e01b03198116600090815260026020526040812081815590610d296001830182611ac4565b505050565b60026020526000908152604090208054600182018054919291610d5090612175565b80601f0160208091040260200160405190810160405280929190818152602001828054610d7c90612175565b8015610dc95780601f10610d9e57610100808354040283529160200191610dc9565b820191906000526020600020905b815481529060010190602001808311610dac57829003601f168201915b5050505050905082565b60035460405163d2e9ad7160e01b815262ffffff8416600482015260009182918291829182916001600160a01b03169063d2e9ad7190602401608060405180830381865afa158015610e29573d6000803e3d6000fd5b505050506040513d601f19601f82011682018060405250810190610e4d91906121e2565b9350935093509350816001600160401b0316600003610eae5760405162461bcd60e51b815260206004820152601d60248201527f7369676e696e6720706f6c696379206e6f74207369676e65642079657400000060448201526064016104be565b600854600160b81b90046001600160401b0316610ecb8584612236565b6001600160401b031611610ee6576000945050505050610c47565b600954600090610eff906001600160401b03168561225d565b9050806001600160401b0316826001600160401b031611610f2857600095505050505050610c47565b60035460405163dac4319d60e01b815262ffffff8a1660048201526001600160a01b038981166024830152600092169063dac4319d906044016040805180830381865afa158015610f7d573d6000803e3d6000fd5b505050506040513d601f19601f82011682018060405250810190610fa1919061227d565b915050806001600160401b0316600003610fb85750815b816001600160401b0316816001600160401b031611610fe05760009650505050505050610c47565b6000610fec8383612236565b6009546001600160401b039182169250600160401b900416811061101c57620f4240975050505050505050610c47565b600954600090600160401b90046001600160401b031661103f620f42408461206d565b6110499190612084565b9050620f4240611059828061206d565b6110639190612084565b9b9a5050505050505050505050565b600054600160b01b900460ff16806110945750600054600160a81b900460ff16155b156110b6576110a1611451565b6007805460ff60a01b1916600160a01b179055565b6110c1600036611489565b565b7f714f205b2abd25bef1d06a1af944e38c113fe6160375c4e1d6d5cf28848e7719546001600160a01b0316336001600160a01b03161461113c5760405162461bcd60e51b815260206004820152601460248201527337b7363c9030b2323932b9b9903ab83230ba32b960611b60448201526064016104be565b61119461117083836040518060400160405280600e81526020016d20b2323932b9b9aab83230ba32b960911b8152506117e5565b7f714f205b2abd25bef1d06a1af944e38c113fe6160375c4e1d6d5cf28848e771955565b61119e82826118b7565b5050565b60008054600160a01b900460ff168015610c475750600054604051630debfda360e41b81526001600160a01b0384811660048301529091169063debfda3090602401602060405180830381865afa158015611201573d6000803e3d6000fd5b505050506040513d601f19601f82011682018060405250810190610c4791906122b0565b600054600160a01b900460ff16156112765760405162461bcd60e51b8152602060048201526014602482015273696e697469616c6973656420213d2066616c736560601b60448201526064016104be565b6001600160a01b0382166112cc5760405162461bcd60e51b815260206004820152601860248201527f676f7665726e616e63652073657474696e6773207a65726f000000000000000060448201526064016104be565b6001600160a01b0381166113155760405162461bcd60e51b815260206004820152601060248201526f5f676f7665726e616e6365207a65726f60801b60448201526064016104be565b600080546001600160a01b038481166001600160a81b031990921691909117600160a01b17909155600180549183166001600160a01b0319909216821790556040519081527f9789733827840833afc031fb2ef9ab6894271f77bad2085687cf4ae5c7bee4db9060200160405180910390a15050565b61139361178b565b600054600160a81b900460ff16156113ed5760405162461bcd60e51b815260206004820152601a60248201527f616c726561647920696e2070726f64756374696f6e206d6f646500000000000060448201526064016104be565b600180546001600160a01b031916905560008054600160a81b60ff60a81b198216179091556040516001600160a01b0390911681527f83af113638b5422f9e977cebc0aaf0eaf2188eb9a8baae7f9d46c42b33a1560c9060200160405180910390a1565b600054600160b01b900460ff161561148157333014611472576114726122d2565b6000805460ff60b01b19169055565b6110c161178b565b61149161178b565b6000805460408051636221a54b60e01b81529051853593926001600160a01b031691636221a54b9160048083019260209291908290030181865afa1580156114dd573d6000803e3d6000fd5b505050506040513d601f19601f820116820180604052508101906115019190612054565b9050600061150f8242612028565b9050604051806040016040528082815260200186868080601f01602080910402602001604051908101604052809392919081815260200183838082843760009201829052509390945250506001600160e01b0319861681526002602090815260409091208351815590830151909150600182019061158d9082612336565b509050507fed948300a3694aa01d4a6b258bfd664350193d770c0b51f8387277f6d83ea3b6838287876040516115c694939291906123f5565b60405180910390a15050505050565b60008183106115e457816115e6565b825b9392505050565b6000816000036115ff57506000919050565b816001600160801b82106116185760809190911c9060401b5b600160401b821061162e5760409190911c9060201b5b64010000000082106116455760209190911c9060101b5b62010000821061165a5760109190911c9060081b5b610100821061166e5760089190911c9060041b5b601082106116815760049190911c9060021b5b6004821061168d5760011b5b60016116998286612084565b6116a39083612028565b901c905060016116b38286612084565b6116bd9083612028565b901c905060016116cd8286612084565b6116d79083612028565b901c905060016116e78286612084565b6116f19083612028565b901c905060016117018286612084565b61170b9083612028565b901c9050600161171b8286612084565b6117259083612028565b901c905060016117358286612084565b61173f9083612028565b901c9050600061174f8286612084565b905080821061175e5780611760565b815b95945050505050565b919050565b3d604051818101604052816000823e8215611787578181f35b8181fd5b61179361091a565b6001600160a01b0316336001600160a01b0316146110c15760405162461bcd60e51b815260206004820152600f60248201526e6f6e6c7920676f7665726e616e636560881b60448201526064016104be565b600080826040516020016117f9919061243b565b6040516020818303038152906040528051906020012090506000805b86518110156118715786818151811061183057611830611ffc565b6020026020010151830361185f5785818151811061185057611850611ffc565b60200260200101519150611871565b806118698161203b565b915050611815565b506001600160a01b0381166117605760405162461bcd60e51b815260206004820152600c60248201526b61646472657373207a65726f60a01b60448201526064016104be565b6118ec828260405180604001604052806012815260200171233630b932a9bcb9ba32b6a6b0b730b3b2b960711b8152506117e5565b600360006101000a8154816001600160a01b0302191690836001600160a01b0316021790555061194282826040518060400160405280600d81526020016c22b73a34ba3ca6b0b730b3b2b960991b8152506117e5565b600460006101000a8154816001600160a01b0302191690836001600160a01b0316021790555061199c828260405180604001604052806011815260200170574e617444656c65676174696f6e46656560781b8152506117e5565b600560006101000a8154816001600160a01b0302191690836001600160a01b031602179055506119f282826040518060400160405280600d81526020016c566f746572526567697374727960981b8152506117e5565b600680546001600160a01b0319166001600160a01b0392909216919091179055600754600160a01b900460ff1615611a7957611a588282604051806040016040528060118152602001702821b430b4b729ba30b5b2a6b4b93937b960791b8152506117e5565b600780546001600160a01b0319166001600160a01b03929092169190911790555b611aa082826040518060400160405280600481526020016315d3985d60e21b8152506117e5565b600880546001600160a01b0319166001600160a01b03929092169190911790555050565b508054611ad090612175565b6000825580601f10611ae0575050565b601f0160209004906000526020600020908101906104f191905b80821115611b0e5760008155600101611afa565b5090565b803562ffffff8116811461176957600080fd5b600060208284031215611b3757600080fd5b6115e682611b12565b6001600160a01b03811681146104f157600080fd5b60008060008060808587031215611b6b57600080fd5b8435611b7681611b40565b93506020850135611b8681611b40565b9250611b9460408601611b12565b9396929550929360600135925050565b600060208284031215611bb657600080fd5b81356001600160e01b0319811681146115e657600080fd5b600060208284031215611be057600080fd5b5035919050565b60005b83811015611c02578181015183820152602001611bea565b50506000910152565b60008151808452611c23816020860160208601611be7565b601f01601f19169290920160200192915050565b828152604060208201526000611c506040830184611c0b565b949350505050565b60008060408385031215611c6b57600080fd5b611c7483611b12565b91506020830135611c8481611b40565b809150509250929050565b634e487b7160e01b600052604160045260246000fd5b604051601f8201601f191681016001600160401b0381118282101715611ccd57611ccd611c8f565b604052919050565b60006001600160401b03821115611cee57611cee611c8f565b5060051b60200190565b600082601f830112611d0957600080fd5b81356020611d1e611d1983611cd5565b611ca5565b82815260059290921b84018101918181019086841115611d3d57600080fd5b8286015b84811015611d61578035611d5481611b40565b8352918301918301611d41565b509695505050505050565b60008060408385031215611d7f57600080fd5b82356001600160401b0380821115611d9657600080fd5b818501915085601f830112611daa57600080fd5b81356020611dba611d1983611cd5565b82815260059290921b84018101918181019089841115611dd957600080fd5b948201945b83861015611df757853582529482019490820190611dde565b96505086013592505080821115611e0d57600080fd5b50611e1a85828601611cf8565b9150509250929050565b600060208284031215611e3657600080fd5b81356115e681611b40565b60008060408385031215611e5457600080fd5b8235611c7481611b40565b60006020808385031215611e7257600080fd5b82516001600160401b03811115611e8857600080fd5b8301601f81018513611e9957600080fd5b8051611ea7611d1982611cd5565b81815260059190911b82018301908381019087831115611ec657600080fd5b928401925b82841015611f005783516bffffffffffffffffffffffff1981168114611ef15760008081fd5b82529284019290840190611ecb565b979650505050505050565b600081518084526020808501945080840160005b83811015611f4a5781516bffffffffffffffffffffffff191687529582019590820190600101611f1f565b509495945050505050565b604081526000611f686040830185611f0b565b90508260208301529392505050565b60006020808385031215611f8a57600080fd5b82516001600160401b03811115611fa057600080fd5b8301601f81018513611fb157600080fd5b8051611fbf611d1982611cd5565b81815260059190911b82018301908381019087831115611fde57600080fd5b928401925b82841015611f0057835182529284019290840190611fe3565b634e487b7160e01b600052603260045260246000fd5b634e487b7160e01b600052601160045260246000fd5b80820180821115610c4757610c47612012565b60006001820161204d5761204d612012565b5060010190565b60006020828403121561206657600080fd5b5051919050565b8082028115828204841417610c4757610c47612012565b6000826120a157634e487b7160e01b600052601260045260246000fd5b500490565b6000602082840312156120b857600080fd5b815161ffff811681146115e657600080fd5b60018060a01b03881681526000602062ffffff89168184015287604084015286606084015260e0608084015261210360e0840187611f0b565b83810360a085015285518082528287019183019060005b818110156121365783518352928401929184019160010161211a565b505061ffff861660c0860152925061214c915050565b98975050505050505050565b60006020828403121561216a57600080fd5b81516115e681611b40565b600181811c9082168061218957607f821691505b6020821081036121a957634e487b7160e01b600052602260045260246000fd5b50919050565b600082516121c1818460208701611be7565b9190910192915050565b80516001600160401b038116811461176957600080fd5b600080600080608085870312156121f857600080fd5b612201856121cb565b935061220f602086016121cb565b925061221d604086016121cb565b915061222b606086016121cb565b905092959194509250565b6001600160401b0382811682821603908082111561225657612256612012565b5092915050565b6001600160401b0381811683821601908082111561225657612256612012565b6000806040838503121561229057600080fd5b612299836121cb565b91506122a7602084016121cb565b90509250929050565b6000602082840312156122c257600080fd5b815180151581146115e657600080fd5b634e487b7160e01b600052600160045260246000fd5b601f821115610d2957600081815260208120601f850160051c8101602086101561230f5750805b601f850160051c820191505b8181101561232e5782815560010161231b565b505050505050565b81516001600160401b0381111561234f5761234f611c8f565b6123638161235d8454612175565b846122e8565b602080601f83116001811461239857600084156123805750858301515b600019600386901b1c1916600185901b17855561232e565b600085815260208120601f198616915b828110156123c7578886015182559484019460019091019084016123a8565b50858210156123e55787850151600019600388901b60f8161c191681555b5050505050600190811b01905550565b63ffffffff60e01b8516815283602082015260606040820152816060820152818360808301376000818301608090810191909152601f909201601f191601019392505050565b6020815260006115e66020830184611c0b56fea26469706673582212201a8721d30bb0a6cf4d1997d3bdb74351ebc900cbd31a567eba5199373323169664736f6c63430008140033",
  "linkReferences": {},
  "deployedLinkReferences": {}
}