{
  "_format": "hh-sol-artifact-1",
  "contractName": "FlareSystemManager",
  "sourceName": "contracts/protocol/implementation/FlareSystemManager.sol",
  "abi": [
    {
      "inputs": [
        {
          "internalType": "contract IGovernanceSettings",
          "name": "_governanceSettings",
          "type": "address"
        },
        {
          "internalType": "address",
          "name": "_initialGovernance",
          "type": "address"
        },
        {
          "internalType": "address",
          "name": "_addressUpdater",
          "type": "address"
        },
        {
          "internalType": "address",
          "name": "_flareDaemon",
          "type": "address"
        },
        {
          "components": [
            {
              "internalType": "uint16",
              "name": "randomAcquisitionMaxDurationSeconds",
              "type": "uint16"
            },
            {
              "internalType": "uint16",
              "name": "randomAcquisitionMaxDurationBlocks",
              "type": "uint16"
            },
            {
              "internalType": "uint16",
              "name": "newSigningPolicyInitializationStartSeconds",
              "type": "uint16"
            },
            {
              "internalType": "uint8",
              "name": "newSigningPolicyMinNumberOfVotingRoundsDelay",
              "type": "uint8"
            },
            {
              "internalType": "uint16",
              "name": "voterRegistrationMinDurationSeconds",
              "type": "uint16"
            },
            {
              "internalType": "uint16",
              "name": "voterRegistrationMinDurationBlocks",
              "type": "uint16"
            },
            {
              "internalType": "uint24",
              "name": "signingPolicyThresholdPPM",
              "type": "uint24"
            },
            {
              "internalType": "uint16",
              "name": "signingPolicyMinNumberOfVoters",
              "type": "uint16"
            },
            {
              "internalType": "uint32",
              "name": "rewardExpiryOffsetSeconds",
              "type": "uint32"
            }
          ],
          "internalType": "struct FlareSystemManager.Settings",
          "name": "_settings",
          "type": "tuple"
        },
        {
          "internalType": "uint32",
          "name": "_firstVotingRoundStartTs",
          "type": "uint32"
        },
        {
          "internalType": "uint8",
          "name": "_votingEpochDurationSeconds",
          "type": "uint8"
        },
        {
          "internalType": "uint32",
          "name": "_firstRewardEpochStartVotingRoundId",
          "type": "uint32"
        },
        {
          "internalType": "uint16",
          "name": "_rewardEpochDurationInVotingEpochs",
          "type": "uint16"
        },
        {
          "components": [
            {
              "internalType": "uint16",
              "name": "initialRandomVotePowerBlockSelectionSize",
              "type": "uint16"
            },
            {
              "internalType": "uint24",
              "name": "initialRewardEpochId",
              "type": "uint24"
            },
            {
              "internalType": "uint16",
              "name": "initialRewardEpochThreshold",
              "type": "uint16"
            }
          ],
          "internalType": "struct FlareSystemManager.InitialSettings",
          "name": "_initialSettings",
          "type": "tuple"
        }
      ],
      "stateMutability": "nonpayable",
      "type": "constructor"
    },
    {
      "inputs": [],
      "name": "ECDSAInvalidSignature",
      "type": "error"
    },
    {
      "inputs": [
        {
          "internalType": "uint256",
          "name": "length",
          "type": "uint256"
        }
      ],
      "name": "ECDSAInvalidSignatureLength",
      "type": "error"
    },
    {
      "inputs": [
        {
          "internalType": "bytes32",
          "name": "s",
          "type": "bytes32"
        }
      ],
      "name": "ECDSAInvalidSignatureS",
      "type": "error"
    },
    {
      "inputs": [
        {
          "internalType": "uint8",
          "name": "bits",
          "type": "uint8"
        },
        {
          "internalType": "uint256",
          "name": "value",
          "type": "uint256"
        }
      ],
      "name": "SafeCastOverflowedUintDowncast",
      "type": "error"
    },
    {
      "anonymous": false,
      "inputs": [
        {
          "indexed": false,
          "internalType": "uint24",
          "name": "rewardEpochId",
          "type": "uint24"
        }
      ],
      "name": "ClosingExpiredRewardEpochFailed",
      "type": "event"
    },
    {
      "anonymous": false,
      "inputs": [
        {
          "indexed": false,
          "internalType": "bytes4",
          "name": "selector",
          "type": "bytes4"
        },
        {
          "indexed": false,
          "internalType": "uint256",
          "name": "allowedAfterTimestamp",
          "type": "uint256"
        },
        {
          "indexed": false,
          "internalType": "bytes",
          "name": "encodedCall",
          "type": "bytes"
        }
      ],
      "name": "GovernanceCallTimelocked",
      "type": "event"
    },
    {
      "anonymous": false,
      "inputs": [
        {
          "indexed": false,
          "internalType": "address",
          "name": "initialGovernance",
          "type": "address"
        }
      ],
      "name": "GovernanceInitialised",
      "type": "event"
    },
    {
      "anonymous": false,
      "inputs": [
        {
          "indexed": false,
          "internalType": "address",
          "name": "governanceSettings",
          "type": "address"
        }
      ],
      "name": "GovernedProductionModeEntered",
      "type": "event"
    },
    {
      "anonymous": false,
      "inputs": [
        {
          "indexed": false,
          "internalType": "uint24",
          "name": "rewardEpochId",
          "type": "uint24"
        },
        {
          "indexed": false,
          "internalType": "uint64",
          "name": "timestamp",
          "type": "uint64"
        }
      ],
      "name": "RandomAcquisitionStarted",
      "type": "event"
    },
    {
      "anonymous": false,
      "inputs": [
        {
          "indexed": false,
          "internalType": "uint24",
          "name": "rewardEpochId",
          "type": "uint24"
        },
        {
          "indexed": false,
          "internalType": "uint32",
          "name": "startVotingRoundId",
          "type": "uint32"
        },
        {
          "indexed": false,
          "internalType": "uint64",
          "name": "timestamp",
          "type": "uint64"
        }
      ],
      "name": "RewardEpochStarted",
      "type": "event"
    },
    {
      "anonymous": false,
      "inputs": [
        {
          "indexed": false,
          "internalType": "uint24",
          "name": "rewardEpochId",
          "type": "uint24"
        },
        {
          "indexed": false,
          "internalType": "address",
          "name": "signingPolicyAddress",
          "type": "address"
        },
        {
          "indexed": false,
          "internalType": "address",
          "name": "voter",
          "type": "address"
        },
        {
          "indexed": false,
          "internalType": "bytes32",
          "name": "rewardsHash",
          "type": "bytes32"
        },
        {
          "indexed": false,
          "internalType": "uint256",
          "name": "noOfWeightBasedClaims",
          "type": "uint256"
        },
        {
          "indexed": false,
          "internalType": "uint64",
          "name": "timestamp",
          "type": "uint64"
        },
        {
          "indexed": false,
          "internalType": "bool",
          "name": "thresholdReached",
          "type": "bool"
        }
      ],
      "name": "RewardsSigned",
      "type": "event"
    },
    {
      "anonymous": false,
      "inputs": [
        {
          "indexed": false,
          "internalType": "uint64",
          "name": "blockNumber",
          "type": "uint64"
        }
      ],
      "name": "SettingCleanUpBlockNumberFailed",
      "type": "event"
    },
    {
      "anonymous": false,
      "inputs": [
        {
          "indexed": false,
          "internalType": "uint24",
          "name": "rewardEpochId",
          "type": "uint24"
        },
        {
          "indexed": false,
          "internalType": "address",
          "name": "signingPolicyAddress",
          "type": "address"
        },
        {
          "indexed": false,
          "internalType": "address",
          "name": "voter",
          "type": "address"
        },
        {
          "indexed": false,
          "internalType": "uint64",
          "name": "timestamp",
          "type": "uint64"
        },
        {
          "indexed": false,
          "internalType": "bool",
          "name": "thresholdReached",
          "type": "bool"
        }
      ],
      "name": "SigningPolicySigned",
      "type": "event"
    },
    {
      "anonymous": false,
      "inputs": [
        {
          "indexed": false,
          "internalType": "bytes4",
          "name": "selector",
          "type": "bytes4"
        },
        {
          "indexed": false,
          "internalType": "uint256",
          "name": "timestamp",
          "type": "uint256"
        }
      ],
      "name": "TimelockedGovernanceCallCanceled",
      "type": "event"
    },
    {
      "anonymous": false,
      "inputs": [
        {
          "indexed": false,
          "internalType": "bytes4",
          "name": "selector",
          "type": "bytes4"
        },
        {
          "indexed": false,
          "internalType": "uint256",
          "name": "timestamp",
          "type": "uint256"
        }
      ],
      "name": "TimelockedGovernanceCallExecuted",
      "type": "event"
    },
    {
      "anonymous": false,
      "inputs": [
        {
          "indexed": false,
          "internalType": "uint24",
          "name": "rewardEpochId",
          "type": "uint24"
        }
      ],
      "name": "TriggeringVoterRegistrationFailed",
      "type": "event"
    },
    {
      "anonymous": false,
      "inputs": [
        {
          "indexed": false,
          "internalType": "uint24",
          "name": "rewardEpochId",
          "type": "uint24"
        },
        {
          "indexed": false,
          "internalType": "address",
          "name": "signingPolicyAddress",
          "type": "address"
        },
        {
          "indexed": false,
          "internalType": "address",
          "name": "voter",
          "type": "address"
        },
        {
          "indexed": false,
          "internalType": "bytes32",
          "name": "uptimeVoteHash",
          "type": "bytes32"
        },
        {
          "indexed": false,
          "internalType": "uint64",
          "name": "timestamp",
          "type": "uint64"
        },
        {
          "indexed": false,
          "internalType": "bool",
          "name": "thresholdReached",
          "type": "bool"
        }
      ],
      "name": "UptimeVoteSigned",
      "type": "event"
    },
    {
      "anonymous": false,
      "inputs": [
        {
          "indexed": false,
          "internalType": "uint24",
          "name": "rewardEpochId",
          "type": "uint24"
        },
        {
          "indexed": false,
          "internalType": "uint64",
          "name": "votePowerBlock",
          "type": "uint64"
        },
        {
          "indexed": false,
          "internalType": "uint64",
          "name": "timestamp",
          "type": "uint64"
        }
      ],
      "name": "VotePowerBlockSelected",
      "type": "event"
    },
    {
      "inputs": [
        {
          "internalType": "bytes4",
          "name": "_selector",
          "type": "bytes4"
        }
      ],
      "name": "cancelGovernanceCall",
      "outputs": [],
      "stateMutability": "nonpayable",
      "type": "function"
    },
    {
      "inputs": [
        {
          "internalType": "uint24",
          "name": "_signingPolicyThresholdPPM",
          "type": "uint24"
        },
        {
          "internalType": "uint16",
          "name": "_signingPolicyMinNumberOfVoters",
          "type": "uint16"
        }
      ],
      "name": "changeSigningPolicySettings",
      "outputs": [],
      "stateMutability": "nonpayable",
      "type": "function"
    },
    {
      "inputs": [],
      "name": "cleanupBlockNumberManager",
      "outputs": [
        {
          "internalType": "contract ICleanupBlockNumberManager",
          "name": "",
          "type": "address"
        }
      ],
      "stateMutability": "view",
      "type": "function"
    },
    {
      "inputs": [],
      "name": "currentRewardEpochExpectedEndTs",
      "outputs": [
        {
          "internalType": "uint64",
          "name": "",
          "type": "uint64"
        }
      ],
      "stateMutability": "view",
      "type": "function"
    },
    {
      "inputs": [],
      "name": "daemonize",
      "outputs": [
        {
          "internalType": "bool",
          "name": "",
          "type": "bool"
        }
      ],
      "stateMutability": "nonpayable",
      "type": "function"
    },
    {
      "inputs": [
        {
          "internalType": "bytes4",
          "name": "_selector",
          "type": "bytes4"
        }
      ],
      "name": "executeGovernanceCall",
      "outputs": [],
      "stateMutability": "nonpayable",
      "type": "function"
    },
    {
      "inputs": [],
      "name": "firstRewardEpochStartTs",
      "outputs": [
        {
          "internalType": "uint64",
          "name": "",
          "type": "uint64"
        }
      ],
      "stateMutability": "view",
      "type": "function"
    },
    {
      "inputs": [],
      "name": "firstVotingRoundStartTs",
      "outputs": [
        {
          "internalType": "uint64",
          "name": "",
          "type": "uint64"
        }
      ],
      "stateMutability": "view",
      "type": "function"
    },
    {
      "inputs": [],
      "name": "flareDaemon",
      "outputs": [
        {
          "internalType": "address",
          "name": "",
          "type": "address"
        }
      ],
      "stateMutability": "view",
      "type": "function"
    },
    {
      "inputs": [],
      "name": "getAddressUpdater",
      "outputs": [
        {
          "internalType": "address",
          "name": "_addressUpdater",
          "type": "address"
        }
      ],
      "stateMutability": "view",
      "type": "function"
    },
    {
      "inputs": [],
      "name": "getContractName",
      "outputs": [
        {
          "internalType": "string",
          "name": "",
          "type": "string"
        }
      ],
      "stateMutability": "pure",
      "type": "function"
    },
    {
      "inputs": [],
      "name": "getCurrentRandom",
      "outputs": [
        {
          "internalType": "uint256",
          "name": "_currentRandom",
          "type": "uint256"
        }
      ],
      "stateMutability": "view",
      "type": "function"
    },
    {
      "inputs": [],
      "name": "getCurrentRandomWithQuality",
      "outputs": [
        {
          "internalType": "uint256",
          "name": "_currentRandom",
          "type": "uint256"
        },
        {
          "internalType": "bool",
          "name": "_isSecureRandom",
          "type": "bool"
        }
      ],
      "stateMutability": "view",
      "type": "function"
    },
    {
      "inputs": [],
      "name": "getCurrentRewardEpochId",
      "outputs": [
        {
          "internalType": "uint24",
          "name": "_currentRewardEpochId",
          "type": "uint24"
        }
      ],
      "stateMutability": "view",
      "type": "function"
    },
    {
      "inputs": [
        {
          "internalType": "uint24",
          "name": "_rewardEpochId",
          "type": "uint24"
        }
      ],
      "name": "getRandomAcquisitionInfo",
      "outputs": [
        {
          "internalType": "uint64",
          "name": "_randomAcquisitionStartTs",
          "type": "uint64"
        },
        {
          "internalType": "uint64",
          "name": "_randomAcquisitionStartBlock",
          "type": "uint64"
        },
        {
          "internalType": "uint64",
          "name": "_randomAcquisitionEndTs",
          "type": "uint64"
        },
        {
          "internalType": "uint64",
          "name": "_randomAcquisitionEndBlock",
          "type": "uint64"
        }
      ],
      "stateMutability": "view",
      "type": "function"
    },
    {
      "inputs": [
        {
          "internalType": "uint24",
          "name": "_rewardEpochId",
          "type": "uint24"
        }
      ],
      "name": "getRewarEpochStartInfo",
      "outputs": [
        {
          "internalType": "uint64",
          "name": "_rewardEpochStartTs",
          "type": "uint64"
        },
        {
          "internalType": "uint64",
          "name": "_rewardEpochStartBlock",
          "type": "uint64"
        }
      ],
      "stateMutability": "view",
      "type": "function"
    },
    {
      "inputs": [],
      "name": "getRewardEpochSwitchoverTriggerContracts",
      "outputs": [
        {
          "internalType": "contract IRewardEpochSwitchoverTrigger[]",
          "name": "",
          "type": "address[]"
        }
      ],
      "stateMutability": "view",
      "type": "function"
    },
    {
      "inputs": [
        {
          "internalType": "uint24",
          "name": "_rewardEpochId",
          "type": "uint24"
        }
      ],
      "name": "getRewardsSignInfo",
      "outputs": [
        {
          "internalType": "uint64",
          "name": "_rewardsSignStartTs",
          "type": "uint64"
        },
        {
          "internalType": "uint64",
          "name": "_rewardsSignStartBlock",
          "type": "uint64"
        },
        {
          "internalType": "uint64",
          "name": "_rewardsSignEndTs",
          "type": "uint64"
        },
        {
          "internalType": "uint64",
          "name": "_rewardsSignEndBlock",
          "type": "uint64"
        }
      ],
      "stateMutability": "view",
      "type": "function"
    },
    {
      "inputs": [
        {
          "internalType": "uint256",
          "name": "_rewardEpochId",
          "type": "uint256"
        }
      ],
      "name": "getSeed",
      "outputs": [
        {
          "internalType": "uint256",
          "name": "",
          "type": "uint256"
        }
      ],
      "stateMutability": "view",
      "type": "function"
    },
    {
      "inputs": [
        {
          "internalType": "uint24",
          "name": "_rewardEpochId",
          "type": "uint24"
        }
      ],
      "name": "getSigningPolicySignInfo",
      "outputs": [
        {
          "internalType": "uint64",
          "name": "_signingPolicySignStartTs",
          "type": "uint64"
        },
        {
          "internalType": "uint64",
          "name": "_signingPolicySignStartBlock",
          "type": "uint64"
        },
        {
          "internalType": "uint64",
          "name": "_signingPolicySignEndTs",
          "type": "uint64"
        },
        {
          "internalType": "uint64",
          "name": "_signingPolicySignEndBlock",
          "type": "uint64"
        }
      ],
      "stateMutability": "view",
      "type": "function"
    },
    {
      "inputs": [
        {
          "internalType": "uint256",
          "name": "_rewardEpochId",
          "type": "uint256"
        }
      ],
      "name": "getStartVotingRoundId",
      "outputs": [
        {
          "internalType": "uint32",
          "name": "",
          "type": "uint32"
        }
      ],
      "stateMutability": "view",
      "type": "function"
    },
    {
      "inputs": [
        {
          "internalType": "uint256",
          "name": "_rewardEpochId",
          "type": "uint256"
        }
      ],
      "name": "getThreshold",
      "outputs": [
        {
          "internalType": "uint16",
          "name": "",
          "type": "uint16"
        }
      ],
      "stateMutability": "view",
      "type": "function"
    },
    {
      "inputs": [
        {
          "internalType": "uint256",
          "name": "_rewardEpochId",
          "type": "uint256"
        }
      ],
      "name": "getVotePowerBlock",
      "outputs": [
        {
          "internalType": "uint64",
          "name": "_votePowerBlock",
          "type": "uint64"
        }
      ],
      "stateMutability": "view",
      "type": "function"
    },
    {
      "inputs": [
        {
          "internalType": "uint256",
          "name": "_rewardEpochId",
          "type": "uint256"
        }
      ],
      "name": "getVoterRegistrationData",
      "outputs": [
        {
          "internalType": "uint256",
          "name": "_votePowerBlock",
          "type": "uint256"
        },
        {
          "internalType": "bool",
          "name": "_enabled",
          "type": "bool"
        }
      ],
      "stateMutability": "view",
      "type": "function"
    },
    {
      "inputs": [
        {
          "internalType": "uint24",
          "name": "_rewardEpochId",
          "type": "uint24"
        },
        {
          "internalType": "address",
          "name": "_voter",
          "type": "address"
        }
      ],
      "name": "getVoterRewardsSignInfo",
      "outputs": [
        {
          "internalType": "uint64",
          "name": "_rewardsSignTs",
          "type": "uint64"
        },
        {
          "internalType": "uint64",
          "name": "_rewardsSignBlock",
          "type": "uint64"
        }
      ],
      "stateMutability": "view",
      "type": "function"
    },
    {
      "inputs": [
        {
          "internalType": "uint24",
          "name": "_rewardEpochId",
          "type": "uint24"
        },
        {
          "internalType": "address",
          "name": "_voter",
          "type": "address"
        }
      ],
      "name": "getVoterSigningPolicySignInfo",
      "outputs": [
        {
          "internalType": "uint64",
          "name": "_signingPolicySignTs",
          "type": "uint64"
        },
        {
          "internalType": "uint64",
          "name": "_signingPolicySignBlock",
          "type": "uint64"
        }
      ],
      "stateMutability": "view",
      "type": "function"
    },
    {
      "inputs": [
        {
          "internalType": "uint24",
          "name": "_rewardEpochId",
          "type": "uint24"
        },
        {
          "internalType": "address",
          "name": "_voter",
          "type": "address"
        }
      ],
      "name": "getVoterUptimeVoteSignInfo",
      "outputs": [
        {
          "internalType": "uint64",
          "name": "_uptimeVoteSignTs",
          "type": "uint64"
        },
        {
          "internalType": "uint64",
          "name": "_uptimeVoteSignBlock",
          "type": "uint64"
        }
      ],
      "stateMutability": "view",
      "type": "function"
    },
    {
      "inputs": [],
      "name": "governance",
      "outputs": [
        {
          "internalType": "address",
          "name": "",
          "type": "address"
        }
      ],
      "stateMutability": "view",
      "type": "function"
    },
    {
      "inputs": [],
      "name": "governanceSettings",
      "outputs": [
        {
          "internalType": "contract IGovernanceSettings",
          "name": "",
          "type": "address"
        }
      ],
      "stateMutability": "view",
      "type": "function"
    },
    {
      "inputs": [],
      "name": "initialRandomVotePowerBlockSelectionSize",
      "outputs": [
        {
          "internalType": "uint64",
          "name": "",
          "type": "uint64"
        }
      ],
      "stateMutability": "view",
      "type": "function"
    },
    {
      "inputs": [
        {
          "internalType": "contract IGovernanceSettings",
          "name": "_governanceSettings",
          "type": "address"
        },
        {
          "internalType": "address",
          "name": "_initialGovernance",
          "type": "address"
        }
      ],
      "name": "initialise",
      "outputs": [],
      "stateMutability": "nonpayable",
      "type": "function"
    },
    {
      "inputs": [
        {
          "internalType": "address",
          "name": "_address",
          "type": "address"
        }
      ],
      "name": "isExecutor",
      "outputs": [
        {
          "internalType": "bool",
          "name": "",
          "type": "bool"
        }
      ],
      "stateMutability": "view",
      "type": "function"
    },
    {
      "inputs": [],
      "name": "isVoterRegistrationEnabled",
      "outputs": [
        {
          "internalType": "bool",
          "name": "",
          "type": "bool"
        }
      ],
      "stateMutability": "view",
      "type": "function"
    },
    {
      "inputs": [],
      "name": "lastInitializedVotingRoundId",
      "outputs": [
        {
          "internalType": "uint32",
          "name": "",
          "type": "uint32"
        }
      ],
      "stateMutability": "view",
      "type": "function"
    },
    {
      "inputs": [],
      "name": "newSigningPolicyInitializationStartSeconds",
      "outputs": [
        {
          "internalType": "uint64",
          "name": "",
          "type": "uint64"
        }
      ],
      "stateMutability": "view",
      "type": "function"
    },
    {
      "inputs": [],
      "name": "newSigningPolicyMinNumberOfVotingRoundsDelay",
      "outputs": [
        {
          "internalType": "uint32",
          "name": "",
          "type": "uint32"
        }
      ],
      "stateMutability": "view",
      "type": "function"
    },
    {
      "inputs": [
        {
          "internalType": "uint256",
          "name": "",
          "type": "uint256"
        }
      ],
      "name": "noOfWeightBasedClaims",
      "outputs": [
        {
          "internalType": "uint256",
          "name": "",
          "type": "uint256"
        }
      ],
      "stateMutability": "view",
      "type": "function"
    },
    {
      "inputs": [],
      "name": "productionMode",
      "outputs": [
        {
          "internalType": "bool",
          "name": "",
          "type": "bool"
        }
      ],
      "stateMutability": "view",
      "type": "function"
    },
    {
      "inputs": [],
      "name": "randomAcquisitionMaxDurationBlocks",
      "outputs": [
        {
          "internalType": "uint64",
          "name": "",
          "type": "uint64"
        }
      ],
      "stateMutability": "view",
      "type": "function"
    },
    {
      "inputs": [],
      "name": "randomAcquisitionMaxDurationSeconds",
      "outputs": [
        {
          "internalType": "uint64",
          "name": "",
          "type": "uint64"
        }
      ],
      "stateMutability": "view",
      "type": "function"
    },
    {
      "inputs": [],
      "name": "relay",
      "outputs": [
        {
          "internalType": "contract Relay",
          "name": "",
          "type": "address"
        }
      ],
      "stateMutability": "view",
      "type": "function"
    },
    {
      "inputs": [],
      "name": "rewardEpochDurationSeconds",
      "outputs": [
        {
          "internalType": "uint64",
          "name": "",
          "type": "uint64"
        }
      ],
      "stateMutability": "view",
      "type": "function"
    },
    {
      "inputs": [],
      "name": "rewardEpochIdToExpireNext",
      "outputs": [
        {
          "internalType": "uint24",
          "name": "",
          "type": "uint24"
        }
      ],
      "stateMutability": "view",
      "type": "function"
    },
    {
      "inputs": [],
      "name": "rewardExpiryOffsetSeconds",
      "outputs": [
        {
          "internalType": "uint32",
          "name": "",
          "type": "uint32"
        }
      ],
      "stateMutability": "view",
      "type": "function"
    },
    {
      "inputs": [],
      "name": "rewardManager",
      "outputs": [
        {
          "internalType": "contract RewardManager",
          "name": "",
          "type": "address"
        }
      ],
      "stateMutability": "view",
      "type": "function"
    },
    {
      "inputs": [
        {
          "internalType": "uint256",
          "name": "",
          "type": "uint256"
        }
      ],
      "name": "rewardsHash",
      "outputs": [
        {
          "internalType": "bytes32",
          "name": "",
          "type": "bytes32"
        }
      ],
      "stateMutability": "view",
      "type": "function"
    },
    {
      "inputs": [
        {
          "internalType": "contract IRewardEpochSwitchoverTrigger[]",
          "name": "_contracts",
          "type": "address[]"
        }
      ],
      "name": "setRewardEpochSwitchoverTriggerContracts",
      "outputs": [],
      "stateMutability": "nonpayable",
      "type": "function"
    },
    {
      "inputs": [
        {
          "internalType": "uint24",
          "name": "_rewardEpochId",
          "type": "uint24"
        },
        {
          "internalType": "uint64",
          "name": "_noOfWeightBasedClaims",
          "type": "uint64"
        },
        {
          "internalType": "bytes32",
          "name": "_rewardsHash",
          "type": "bytes32"
        }
      ],
      "name": "setRewardsData",
      "outputs": [],
      "stateMutability": "nonpayable",
      "type": "function"
    },
    {
      "inputs": [
        {
          "internalType": "bool",
          "name": "_triggerExpirationAndCleanup",
          "type": "bool"
        }
      ],
      "name": "setTriggerExpirationAndCleanup",
      "outputs": [],
      "stateMutability": "nonpayable",
      "type": "function"
    },
    {
      "inputs": [
        {
          "internalType": "contract IVoterRegistrationTrigger",
          "name": "_contract",
          "type": "address"
        }
      ],
      "name": "setVoterRegistrationTriggerContract",
      "outputs": [],
      "stateMutability": "nonpayable",
      "type": "function"
    },
    {
      "inputs": [
        {
          "internalType": "uint24",
          "name": "_rewardEpochId",
          "type": "uint24"
        },
        {
          "internalType": "bytes32",
          "name": "_newSigningPolicyHash",
          "type": "bytes32"
        },
        {
          "components": [
            {
              "internalType": "uint8",
              "name": "v",
              "type": "uint8"
            },
            {
              "internalType": "bytes32",
              "name": "r",
              "type": "bytes32"
            },
            {
              "internalType": "bytes32",
              "name": "s",
              "type": "bytes32"
            }
          ],
          "internalType": "struct FlareSystemManager.Signature",
          "name": "_signature",
          "type": "tuple"
        }
      ],
      "name": "signNewSigningPolicy",
      "outputs": [],
      "stateMutability": "nonpayable",
      "type": "function"
    },
    {
      "inputs": [
        {
          "internalType": "uint24",
          "name": "_rewardEpochId",
          "type": "uint24"
        },
        {
          "internalType": "uint64",
          "name": "_noOfWeightBasedClaims",
          "type": "uint64"
        },
        {
          "internalType": "bytes32",
          "name": "_rewardsHash",
          "type": "bytes32"
        },
        {
          "components": [
            {
              "internalType": "uint8",
              "name": "v",
              "type": "uint8"
            },
            {
              "internalType": "bytes32",
              "name": "r",
              "type": "bytes32"
            },
            {
              "internalType": "bytes32",
              "name": "s",
              "type": "bytes32"
            }
          ],
          "internalType": "struct FlareSystemManager.Signature",
          "name": "_signature",
          "type": "tuple"
        }
      ],
      "name": "signRewards",
      "outputs": [],
      "stateMutability": "nonpayable",
      "type": "function"
    },
    {
      "inputs": [
        {
          "internalType": "uint24",
          "name": "_rewardEpochId",
          "type": "uint24"
        },
        {
          "internalType": "bytes32",
          "name": "_uptimeVoteHash",
          "type": "bytes32"
        },
        {
          "components": [
            {
              "internalType": "uint8",
              "name": "v",
              "type": "uint8"
            },
            {
              "internalType": "bytes32",
              "name": "r",
              "type": "bytes32"
            },
            {
              "internalType": "bytes32",
              "name": "s",
              "type": "bytes32"
            }
          ],
          "internalType": "struct FlareSystemManager.Signature",
          "name": "_signature",
          "type": "tuple"
        }
      ],
      "name": "signUptimeVote",
      "outputs": [],
      "stateMutability": "nonpayable",
      "type": "function"
    },
    {
      "inputs": [],
      "name": "signingPolicyMinNumberOfVoters",
      "outputs": [
        {
          "internalType": "uint16",
          "name": "",
          "type": "uint16"
        }
      ],
      "stateMutability": "view",
      "type": "function"
    },
    {
      "inputs": [],
      "name": "signingPolicyThresholdPPM",
      "outputs": [
        {
          "internalType": "uint24",
          "name": "",
          "type": "uint24"
        }
      ],
      "stateMutability": "view",
      "type": "function"
    },
    {
      "inputs": [],
      "name": "submission",
      "outputs": [
        {
          "internalType": "contract Submission",
          "name": "",
          "type": "address"
        }
      ],
      "stateMutability": "view",
      "type": "function"
    },
    {
      "inputs": [],
      "name": "switchToFallbackMode",
      "outputs": [
        {
          "internalType": "bool",
          "name": "",
          "type": "bool"
        }
      ],
      "stateMutability": "pure",
      "type": "function"
    },
    {
      "inputs": [],
      "name": "switchToProductionMode",
      "outputs": [],
      "stateMutability": "nonpayable",
      "type": "function"
    },
    {
      "inputs": [
        {
          "internalType": "bytes4",
          "name": "",
          "type": "bytes4"
        }
      ],
      "name": "timelockedCalls",
      "outputs": [
        {
          "internalType": "uint256",
          "name": "allowedAfterTimestamp",
          "type": "uint256"
        },
        {
          "internalType": "bytes",
          "name": "encodedCall",
          "type": "bytes"
        }
      ],
      "stateMutability": "view",
      "type": "function"
    },
    {
      "inputs": [],
      "name": "triggerExpirationAndCleanup",
      "outputs": [
        {
          "internalType": "bool",
          "name": "",
          "type": "bool"
        }
      ],
      "stateMutability": "view",
      "type": "function"
    },
    {
      "inputs": [
        {
          "internalType": "bytes32[]",
          "name": "_contractNameHashes",
          "type": "bytes32[]"
        },
        {
          "internalType": "address[]",
          "name": "_contractAddresses",
          "type": "address[]"
        }
      ],
      "name": "updateContractAddresses",
      "outputs": [],
      "stateMutability": "nonpayable",
      "type": "function"
    },
    {
      "inputs": [
        {
          "components": [
            {
              "internalType": "uint16",
              "name": "randomAcquisitionMaxDurationSeconds",
              "type": "uint16"
            },
            {
              "internalType": "uint16",
              "name": "randomAcquisitionMaxDurationBlocks",
              "type": "uint16"
            },
            {
              "internalType": "uint16",
              "name": "newSigningPolicyInitializationStartSeconds",
              "type": "uint16"
            },
            {
              "internalType": "uint8",
              "name": "newSigningPolicyMinNumberOfVotingRoundsDelay",
              "type": "uint8"
            },
            {
              "internalType": "uint16",
              "name": "voterRegistrationMinDurationSeconds",
              "type": "uint16"
            },
            {
              "internalType": "uint16",
              "name": "voterRegistrationMinDurationBlocks",
              "type": "uint16"
            },
            {
              "internalType": "uint24",
              "name": "signingPolicyThresholdPPM",
              "type": "uint24"
            },
            {
              "internalType": "uint16",
              "name": "signingPolicyMinNumberOfVoters",
              "type": "uint16"
            },
            {
              "internalType": "uint32",
              "name": "rewardExpiryOffsetSeconds",
              "type": "uint32"
            }
          ],
          "internalType": "struct FlareSystemManager.Settings",
          "name": "_settings",
          "type": "tuple"
        }
      ],
      "name": "updateSettings",
      "outputs": [],
      "stateMutability": "nonpayable",
      "type": "function"
    },
    {
      "inputs": [
        {
          "internalType": "uint256",
          "name": "",
          "type": "uint256"
        }
      ],
      "name": "uptimeVoteHash",
      "outputs": [
        {
          "internalType": "bytes32",
          "name": "",
          "type": "bytes32"
        }
      ],
      "stateMutability": "view",
      "type": "function"
    },
    {
      "inputs": [],
      "name": "voterRegistrationMinDurationBlocks",
      "outputs": [
        {
          "internalType": "uint64",
          "name": "",
          "type": "uint64"
        }
      ],
      "stateMutability": "view",
      "type": "function"
    },
    {
      "inputs": [],
      "name": "voterRegistrationMinDurationSeconds",
      "outputs": [
        {
          "internalType": "uint64",
          "name": "",
          "type": "uint64"
        }
      ],
      "stateMutability": "view",
      "type": "function"
    },
    {
      "inputs": [],
      "name": "voterRegistrationTriggerContract",
      "outputs": [
        {
          "internalType": "contract IVoterRegistrationTrigger",
          "name": "",
          "type": "address"
        }
      ],
      "stateMutability": "view",
      "type": "function"
    },
    {
      "inputs": [],
      "name": "voterRegistry",
      "outputs": [
        {
          "internalType": "contract VoterRegistry",
          "name": "",
          "type": "address"
        }
      ],
      "stateMutability": "view",
      "type": "function"
    },
    {
      "inputs": [],
      "name": "votingEpochDurationSeconds",
      "outputs": [
        {
          "internalType": "uint64",
          "name": "",
          "type": "uint64"
        }
      ],
      "stateMutability": "view",
      "type": "function"
    }
  ],
  "bytecode": "0x6101406040526008805460ff60a81b191690553480156200001f57600080fd5b5060405162006396380380620063968339810160408190526200004291620007c4565b878a8a62000051828262000399565b506200007d9050817f714f205b2abd25bef1d06a1af944e38c113fe6160375c4e1d6d5cf28848e771955565b506001600160a01b038716620000ce5760405162461bcd60e51b8152602060048201526011602482015270666c617265206461656d6f6e207a65726f60781b60448201526064015b60405180910390fd5b60008261ffff1611620001245760405162461bcd60e51b815260206004820152601a60248201527f7265776172642065706f6368206475726174696f6e207a65726f0000000000006044820152606401620000c5565b60008460ff1611620001795760405162461bcd60e51b815260206004820152601a60248201527f766f74696e672065706f6368206475726174696f6e207a65726f0000000000006044820152606401620000c5565b805161ffff16620001bb5760405162461bcd60e51b815260206004820152600b60248201526a7a65726f20626c6f636b7360a81b6044820152606401620000c5565b620001c6866200050e565b6001600160a01b03871660805263ffffffff851660e05260ff8416610100819052620001f3908462000978565b620001ff9086620009a3565b63ffffffff1660a0526200021b60ff851661ffff8416620009ca565b6001600160401b031660c052805161ffff1661012052602081015162000243906001620009f0565b6009805462ffffff929092166401000000000262ffffff60201b1990921691909117905560c05160208201516200027c906001620009f0565b62ffffff166200028d9190620009ca565b60a0516200029c919062000a0f565b60088054600160b01b600160f01b031916600160b01b6001600160401b03939093169290920291909117905560408181015160208084015162ffffff1660009081526003909152829020600401805461ffff60601b19166c0100000000000000000000000061ffff93841602179055908701516200031c91164262000a32565b600854600160b01b90046001600160401b031611620003895760405162461bcd60e51b815260206004820152602260248201527f7265776172642065706f636820656e64206e6f7420696e207468652066757475604482015261726560f01b6064820152608401620000c5565b5050505050505050505062000a4e565b600054600160a01b900460ff1615620003f55760405162461bcd60e51b815260206004820152601460248201527f696e697469616c6973656420213d2066616c73650000000000000000000000006044820152606401620000c5565b6001600160a01b0382166200044d5760405162461bcd60e51b815260206004820152601860248201527f676f7665726e616e63652073657474696e6773207a65726f00000000000000006044820152606401620000c5565b6001600160a01b038116620004985760405162461bcd60e51b815260206004820152601060248201526f5f676f7665726e616e6365207a65726f60801b6044820152606401620000c5565b600080546001600160a01b038481166001600160a81b031990921691909117600160a01b17909155600180549183166001600160a01b0319909216821790556040519081527f9789733827840833afc031fb2ef9ab6894271f77bad2085687cf4ae5c7bee4db9060200160405180910390a15050565b620f42408160c0015162ffffff161115620005615760405162461bcd60e51b81526020600482015260126024820152710e8d0e4cae6d0ded8c840e8dede40d0d2ced60731b6044820152606401620000c5565b60008160e0015161ffff1611620005a95760405162461bcd60e51b815260206004820152600b60248201526a7a65726f20766f7465727360a81b6044820152606401620000c5565b80516007805460208401516040850151606086015161010087015161ffff9687166001600160801b0319958616179387166801000000000000000090810294909417600160801b600160e01b031916928716600160801b90810263ffffffff60c01b19169390931760ff909216600160c01b02919091176001600160e01b0316600160e01b63ffffffff909216919091021790935560808501516008805460a088015160c089015160e09099015193881691909516179386169092029290921764ffffffffff60801b191662ffffff90951690920261ffff60981b191693909317600160981b9390921692909202179055565b6001600160a01b0381168114620006b257600080fd5b50565b60405161012081016001600160401b0381118282101715620006e757634e487b7160e01b600052604160045260246000fd5b60405290565b805161ffff811681146200070057600080fd5b919050565b805160ff811681146200070057600080fd5b805162ffffff811681146200070057600080fd5b805163ffffffff811681146200070057600080fd5b6000606082840312156200075357600080fd5b604051606081016001600160401b03811182821017156200078457634e487b7160e01b600052604160045260246000fd5b6040529050806200079583620006ed565b8152620007a56020840162000717565b6020820152620007b860408401620006ed565b60408201525092915050565b6000806000806000806000806000808a8c03610280811215620007e657600080fd5b8b51620007f3816200069c565b60208d0151909b5062000806816200069c565b60408d0151909a5062000819816200069c565b60608d01519099506200082c816200069c565b9750610120607f1982018113156200084357600080fd5b6200084d620006b5565b91506200085d60808e01620006ed565b82526200086d60a08e01620006ed565b60208301526200088060c08e01620006ed565b60408301526200089360e08e0162000705565b6060830152610100620008a8818f01620006ed565b6080840152620008ba828f01620006ed565b60a0840152620008ce6101408f0162000717565b60c0840152620008e26101608f01620006ed565b60e0840152620008f66101808f016200072b565b908301525095506200090c6101a08c016200072b565b94506200091d6101c08c0162000705565b93506200092e6101e08c016200072b565b92506200093f6102008c01620006ed565b9150620009518c6102208d0162000740565b90509295989b9194979a5092959850565b634e487b7160e01b600052601160045260246000fd5b63ffffffff8181168382160280821691908281146200099b576200099b62000962565b505092915050565b63ffffffff818116838216019080821115620009c357620009c362000962565b5092915050565b6001600160401b038181168382160280821691908281146200099b576200099b62000962565b62ffffff818116838216019080821115620009c357620009c362000962565b6001600160401b03818116838216019080821115620009c357620009c362000962565b8082018082111562000a485762000a4862000962565b92915050565b60805160a05160c05160e05161010051610120516158b262000ae460003960008181610bdb0152613ccd01526000818161071601528181613acf0152614830015260008181610c3001528181613af901526147eb01526000818161087001528181611e8e01528181613b4401526142d30152600081816108490152613b6e01526000818161096501526119b601526158b26000f3fe608060405234801561001057600080fd5b50600436106103fc5760003560e01c806388e49ac711610215578063d10e807f11610125578063e0d4ea37116100b8578063ed54fd6311610087578063ed54fd6314610c52578063ef88bf1314610c6c578063f21d630414610c7f578063f5a9838314610c95578063f5f5ba7214610c9d57600080fd5b8063e0d4ea3714610bfd578063e17f212e14610c10578063e22fdece14610c24578063e8d0e70a14610c2b57600080fd5b8063dac4319d116100f4578063dac4319d14610b5c578063dc5a422514610bb0578063debfda3014610bc3578063ded7c4b814610bd657600080fd5b8063d10e807f14610ac9578063d2e9ad7114610ae3578063d346691114610b34578063d89601fd14610b5457600080fd5b8063a978fb6b116101a8578063b59589d111610177578063b59589d1146109f5578063b6c25af014610a08578063be60040e14610a59578063c263221614610a73578063cd69ef1514610a8657600080fd5b8063a978fb6b146109b1578063ab25ac5b146109b9578063aec84ab6146109cc578063b00c0b76146109e257600080fd5b80639b760d13116101e45780639b760d131461094c578063a107753214610960578063a219fe0214610987578063a733d54b1461099a57600080fd5b806388e49ac714610892578063898805c1146108a55780638f8f9f3a146108b85780639a7590971461093957600080fd5b80635267a15d1161031057806367fc4029116102a3578063705626971161027257806370562697146107f457806374e6310e1461081057806375d2187a1461083157806379e047ed1461084457806385f3c9c91461086b57600080fd5b806367fc4029146107ac5780636aeffddc146107bf5780636b4c7bd6146107d95780636d0e8c34146107ec57600080fd5b806362354e03116102df57806362354e0314610753578063647006e21461076657806365b05d661461078657806367daec891461079957600080fd5b80635267a15d146106ea5780635a832088146107115780635aa6e675146107385780635ff270791461074057600080fd5b80632e3645f8116103935780634683153111610362578063468315311461066c578063490344f4146106815780634eac870f1461069b5780634eaee307146106ae5780634f923d37146106da57600080fd5b80632e3645f81461059d578063388a4c3d146105c557806341c05ad5146105f35780634615d5e91461065957600080fd5b80631703a788116103cf5780631703a788146104895780631916e915146104b157806324eb64de146105775780632a576f8d1461058a57600080fd5b806306886f411461040157806309505d2514610416578063098e7ff6146104335780630f4ef8a61461045e575b600080fd5b61041461040f366004614ab3565b610cd1565b005b61041e610e68565b60405190151581526020015b60405180910390f35b600754610446906001600160401b031681565b6040516001600160401b03909116815260200161042a565b600c54610471906001600160a01b031681565b6040516001600160a01b03909116815260200161042a565b61049c610497366004614b27565b610ea5565b6040805192835290151560208301520161042a565b6105576104bf366004614b68565b62ffffff919091166000818152600360209081526040808320600683528184205460058452828520548351808601979097528684019190915260608087019190915282518087039091018152608090950182528451948301949094208352600890930181528282206001600160a01b03909416825260019093019092529020546001600160401b0380821692600160401b9092041690565b604080516001600160401b0393841681529290911660208301520161042a565b610414610585366004614b9f565b610ed5565b610414610598366004614bd3565b610f30565b6008546105b290600160981b900461ffff1681565b60405161ffff909116815260200161042a565b6105e56105d3366004614b27565b60066020526000908152604090205481565b60405190815260200161042a565b610557610601366004614b68565b62ffffff90911660009081526003602090815260408083206004835281842054845260070182528083206001600160a01b0390941683526001909301905220546001600160401b0380821692600160401b9092041690565b6105b2610667366004614b27565b610ff4565b610674611085565b60405161042a9190614c0f565b60075461044690600160401b90046001600160401b031681565b600d54610471906001600160a01b031681565b6007546106c590600160e01b900463ffffffff1681565b60405163ffffffff909116815260200161042a565b6009546106c59063ffffffff1681565b7f714f205b2abd25bef1d06a1af944e38c113fe6160375c4e1d6d5cf28848e771954610471565b6104467f000000000000000000000000000000000000000000000000000000000000000081565b6104716110e7565b61041461074e366004614c50565b611183565b600054610471906001600160a01b031681565b6105e5610774366004614b27565b60056020526000908152604090205481565b610414610794366004614d32565b611403565b6104146107a7366004614df6565b61143b565b6104146107ba366004614c50565b611484565b60075461044690600160801b90046001600160401b031681565b6104146107e7366004614e25565b611565565b61041e6119a9565b6107fc612430565b60405162ffffff909116815260200161042a565b61082361081e366004614c50565b61245f565b60405161042a929190614eb2565b6106c561083f366004614b27565b612504565b6104467f000000000000000000000000000000000000000000000000000000000000000081565b6104467f000000000000000000000000000000000000000000000000000000000000000081565b600e54610471906001600160a01b031681565b6104146108b3366004614ed3565b612593565b6109066108c6366004614eff565b62ffffff166000908152600360205260409020546001600160401b0380821692600160401b8304821692600160801b8104831692600160c01b9091041690565b604080516001600160401b039586168152938516602085015291841691830191909152909116606082015260800161042a565b600a54610471906001600160a01b031681565b60085461041e90600160a81b900460ff1681565b6104717f000000000000000000000000000000000000000000000000000000000000000081565b600854610446906001600160401b031681565b6007546106c590600160c01b900463ffffffff1681565b61049c612687565b6104146109c7366004614f1a565b61269c565b6009546107fc90600160201b900462ffffff1681565b6104146109f0366004614fff565b612bff565b600b54610471906001600160a01b031681565b610906610a16366004614eff565b62ffffff166000908152600360205260409020600201546001600160401b0380821692600160401b8304821692600160801b8104831692600160c01b9091041690565b60095461047190600160381b90046001600160a01b031681565b610446610a81366004614b27565b612cda565b610557610a94366004614eff565b62ffffff166000908152600360205260409020600401546001600160401b03600160701b8204811692600160b01b9092041690565b60085461044690600160401b90046001600160401b031681565b610906610af1366004614eff565b62ffffff166000908152600360205260409020600101546001600160401b0380821692600160401b8304821692600160801b8104831692600160c01b9091041690565b6105e5610b42366004614b27565b60046020526000908152604090205481565b6105e5612d56565b610557610b6a366004614b68565b62ffffff90911660009081526003602090815260408083206001600160a01b0390941683526006909301905220546001600160401b0380821692600160401b9092041690565b610414610bbe366004614e25565b612d68565b61041e610bd1366004614b9f565b6131e5565b6104467f000000000000000000000000000000000000000000000000000000000000000081565b6105e5610c0b366004614b27565b61326e565b60005461041e90600160a81b900460ff1681565b600061041e565b6104467f000000000000000000000000000000000000000000000000000000000000000081565b60085461044690600160b01b90046001600160401b031681565b610414610c7a3660046150b7565b6132ee565b6008546107fc90600160801b900462ffffff1681565b610414613454565b6040805180820182526012815271233630b932a9bcb9ba32b6a6b0b730b3b2b960711b6020820152905161042a91906150d5565b600054600160b01b900460ff1680610cf35750600054600160a81b900460ff16155b15610e5957610d0061351a565b610d0c600f6000614a4a565b8060005b81811015610e53576000848483818110610d2c57610d2c6150e8565b9050602002016020810190610d419190614b9f565b90506000610d50836001615114565b90505b83811015610df057858582818110610d6d57610d6d6150e8565b9050602002016020810190610d829190614b9f565b6001600160a01b0316826001600160a01b031603610dde5760405162461bcd60e51b81526020600482015260146024820152736475706c69636174656420636f6e74726163747360601b60448201526064015b60405180910390fd5b80610de881615127565b915050610d53565b50600f80546001810182556000919091527f8d1108e10bcb7c27dddfc02ed9d693a074039d026cf4ea4240b40f7d581ac8020180546001600160a01b0319166001600160a01b039290921691909117905580610e4b81615127565b915050610d10565b50505050565b610e64600036613554565b5050565b600080610e73612430565b610e7e906001615140565b62ffffff166000818152600360205260409020909150610e9f9082906136a0565b91505090565b600081815260036020526040812060048101546001600160401b03169190610ece9084906136a0565b9050915091565b600054600160b01b900460ff1680610ef75750600054600160a81b900460ff16155b15610f2257610f0461351a565b600e80546001600160a01b0319166001600160a01b03831617905550565b610f2d600036613554565b50565b610f386137ba565b610f40612430565b62ffffff168362ffffff1610610f685760405162461bcd60e51b8152600401610dd590615163565b62ffffff83166000908152600560209081526040808320849055600690915290206001600160401b03831690557f80df246a47153e3604b0026fcf53ec85ea48178efd4f3cad24f9a1e1da2dd52a83610fbf6110e7565b610fc76110e7565b8486610fd242613814565b6001604051610fe79796959493929190615190565b60405180910390a1505050565b60008181526003602052604081206001015482906001600160401b0316820361105f5760405162461bcd60e51b815260206004820181905260248201527f7265776172642065706f6368206e6f7420696e697469616c697a6564207965746044820152606401610dd5565b600083815260036020526040902060040154600160601b900461ffff1691505b50919050565b6060600f8054806020026020016040519081016040528092919081815260200182805480156110dd57602002820191906000526020600020905b81546001600160a01b031681526001909101906020018083116110bf575b5050505050905090565b60008054600160a81b900460ff1661110957506001546001600160a01b031690565b60008054906101000a90046001600160a01b03166001600160a01b031663732524946040518163ffffffff1660e01b8152600401602060405180830381865afa15801561115a573d6000803e3d6000fd5b505050506040513d601f19601f8201168201806040525081019061117e91906151e0565b905090565b61118c336131e5565b6111c85760405162461bcd60e51b815260206004820152600d60248201526c37b7363c9032bc32b1baba37b960991b6044820152606401610dd5565b6001600160e01b03198116600090815260026020526040812080549091036112325760405162461bcd60e51b815260206004820152601a60248201527f74696d656c6f636b3a20696e76616c69642073656c6563746f720000000000006044820152606401610dd5565b80544210156112835760405162461bcd60e51b815260206004820152601960248201527f74696d656c6f636b3a206e6f7420616c6c6f77656420796574000000000000006044820152606401610dd5565b6000816001018054611294906151fd565b80601f01602080910402602001604051908101604052809291908181526020018280546112c0906151fd565b801561130d5780601f106112e25761010080835404028352916020019161130d565b820191906000526020600020905b8154815290600101906020018083116112f057829003601f168201915b505050506001600160e01b031985166000908152600260205260408120818155929350905061133f6001830182614a68565b50506000805460ff60b01b1916600160b01b1781556040513090611364908490615231565b6000604051808303816000865af19150503d80600081146113a1576040519150601f19603f3d011682016040523d82523d6000602084013e6113a6565b606091505b50506000805460ff60b01b19169055604080516001600160e01b0319871681524260208201529192507fa7326b57fc9cfe267aaea5e7f0b01757154d265620a0585819416ee9ddd2c438910160405180910390a1610e538161384e565b600054600160b01b900460ff16806114255750600054600160a81b900460ff16155b15610f225761143261351a565b610f2d8161386b565b600054600160b01b900460ff168061145d5750600054600160a81b900460ff16155b15610f225761146a61351a565b6008805460ff60a81b1916600160a81b8315150217905550565b61148c6137ba565b6001600160e01b0319811660009081526002602052604081205490036114f45760405162461bcd60e51b815260206004820152601a60248201527f74696d656c6f636b3a20696e76616c69642073656c6563746f720000000000006044820152606401610dd5565b604080516001600160e01b0319831681524260208201527f7735b2391c38a81419c513e30ca578db7158eadd7101511b23e221c654d19cf8910160405180910390a16001600160e01b031981166000908152600260205260408120818155906115606001830182614a68565b505050565b811580159061157b575081611579846139f5565b145b6115c75760405162461bcd60e51b815260206004820152601f60248201527f6e6577207369676e696e6720706f6c696379206861736820696e76616c6964006044820152606401610dd5565b62ffffff831660009081526003602052604090206001810154600160801b90046001600160401b0316156116475760405162461bcd60e51b815260206004820152602160248201527f6e6577207369676e696e6720706f6c69637920616c7265616479207369676e656044820152601960fa1b6064820152608401610dd5565b600061165284613a67565b9050600061167682611667602087018761524d565b86602001358760400135613a9a565b6009549091506000908190600160381b90046001600160a01b0316638c6457286116a160018b615268565b6040516001600160e01b031960e084901b16815262ffffff90911660048201526001600160a01b03861660248201526044016040805180830381865afa1580156116ef573d6000803e3d6000fd5b505050506040513d601f19601f82011682018060405250810190611713919061528f565b90925090506001600160a01b03821661173e5760405162461bcd60e51b8152600401610dd5906152be565b6001600160a01b03821660009081526006860160205260409020546001600160401b0316156117af5760405162461bcd60e51b815260206004820152601e60248201527f7369676e696e67206164647265737320616c7265616479207369676e656400006044820152606401610dd5565b60405180604001604052806117c342613814565b6001600160401b031681526020016117da43613814565b6001600160401b039081169091526001600160a01b0384166000908152600688016020908152604082208451815495909201518416600160401b026001600160801b0319909516919093161792909217905560038161183a60018c615268565b62ffffff168152602081019190915260400160002060040154600587015461ffff600160601b909204821691611872918591166152e9565b61ffff1611905080156118f45761188842613814565b8660010160106101000a8154816001600160401b0302191690836001600160401b031602179055506118b943613814565b6001870180546001600160401b0392909216600160c01b026001600160c01b0390921691909117905560058601805461ffff1916905561192a565b60058601805483919060009061190f90849061ffff166152e9565b92506101000a81548161ffff021916908361ffff1602179055505b7f154b0214ae62d8a5548c1eac25fabd87c38b04932a217732e1022f3118da67f389858561195742613814565b6040805162ffffff9590951685526001600160a01b03938416602086015291909216908301526001600160401b03166060820152821515608082015260a00160405180910390a1505050505050505050565b6000336001600160a01b037f00000000000000000000000000000000000000000000000000000000000000001614611a175760405162461bcd60e51b815260206004820152601160248201527037b7363c90333630b932903230b2b6b7b760791b6044820152606401610dd5565b6000611a21613ac8565b90506000611a2d613b3b565b6007546008549192508291611a5c916001600160401b03600160801b909104811691600160b01b900416615304565b6001600160401b0316421061203a576000611a78836001615140565b90506000611a85826139f5565b03611e7b5762ffffff81166000908152600360205260408120805490916001600160401b039091169003611bc757611abc42613814565b815467ffffffffffffffff19166001600160401b0391909116178155611ae143613814565b815467ffffffffffffffff60401b1916600160401b6001600160401b039290921691909102178155600954604051635213182360e01b815262ffffff84166004820152600160381b9091046001600160a01b031690635213182390602401600060405180830381600087803b158015611b5957600080fd5b505af1158015611b6d573d6000803e3d6000fd5b505050507ff9991783e5e480e42d9a54d3f35f4321857f8f0ebeb3742d326dce28b112670882611b9c42613814565b6040805162ffffff90931683526001600160401b0390911660208301520160405180910390a1611e79565b8054600160801b90046001600160401b0316600003611e00576000806000611bed613bcf565b865492955090935091506000906001600160401b03908116908316118015611c125750825b15611c2857611c218685613c5e565b9050611ce3565b60075485544391611c50916001600160401b03600160401b9283900481169290910416615324565b6001600160401b0316108015611c89575060075485544291611c7e916001600160401b039182169116615324565b6001600160401b0316105b15611ce3575062ffffff87166000908152600360205260409020600401546001600160401b03168015611cd65762ffffff8816600090815260036020819052604090912001549350611ce3565b611ce08685613c5e565b90505b6001600160401b03811615611df75743816001600160401b031610611d0a57611d0a615344565b611d1342613814565b85546001600160401b0391909116600160801b0267ffffffffffffffff60801b19909116178555611d4343613814565b85546001600160c01b0316600160c01b6001600160401b039283160217865560048601805467ffffffffffffffff1916918316919091179055600385018490557ff21722dbe044a7cea0f6d81c871cae750971e36c9dd10999e46f2b46f26ac7ff8682611daf42613814565b6040805162ffffff90941684526001600160401b03928316602085015291169082015260600160405180910390a1600e546001600160a01b031615611df757611df786613d48565b50505050611e79565b611e0f8262ffffff16826136a0565b611e7957611e1c42613814565b60018201805467ffffffffffffffff19166001600160401b0392909216919091179055611e4843613814565b8160010160086101000a8154816001600160401b0302191690836001600160401b03160217905550611e7982613de3565b505b611e8481613fd0565b15612038578092507f0000000000000000000000000000000000000000000000000000000000000000600860168282829054906101000a90046001600160401b0316611ed09190615324565b92506101000a8154816001600160401b0302191690836001600160401b03160217905550611efd42613814565b62ffffff8416600090815260036020526040902060040180546001600160401b0392909216600160701b0267ffffffffffffffff60701b19909216919091179055611f4743613814565b62ffffff8416600090815260036020526040902060040180546001600160401b0392909216600160b01b0267ffffffffffffffff60b01b1990921691909117908190557f4abb62ab1e4c42a11b90e4e45b92af1274f74cc634b759518e8c99e000d8be6d90849063ffffffff600160401b90910416611fc542613814565b6040805162ffffff909416845263ffffffff90921660208401526001600160401b03169082015260600160405180910390a1600854600160a81b900460ff161561201a5761201283614040565b61201a6141bb565b600854612038908490600160b01b90046001600160401b031661427d565b505b60095463ffffffff9081169084161115612266576009805463ffffffff191663ffffffff85161790819055604051637c2cb92160e01b815262ffffff8316600482015260609182918291600160381b90046001600160a01b031690637c2cb92190602401600060405180830381865afa1580156120bb573d6000803e3d6000fd5b505050506040513d6000823e601f3d908101601f191682016040526120e391908101906153be565b600954604051635b0dabfd60e11b815262ffffff87166004820152919350600160381b90046001600160a01b03169063b61b57fa90602401600060405180830381865afa158015612138573d6000803e3d6000fd5b505050506040513d6000823e601f3d908101601f1916820160405261216091908101906153be565b90508362ffffff168562ffffff1611156121f657600954604051637c2cb92160e01b815262ffffff87166004820152600160381b9091046001600160a01b031690637c2cb92190602401600060405180830381865afa1580156121c7573d6000803e3d6000fd5b505050506040513d6000823e601f3d908101601f191682016040526121ef91908101906153be565b92506121fa565b8192505b600a5460405163f8ae8a2f60e01b81526001600160a01b039091169063f8ae8a2f90612230908690869082908790600401615436565b600060405180830381600087803b15801561224a57600080fd5b505af115801561225e573d6000803e3d6000fd5b505050505050505b600854600160a81b900460ff1661242557600c546040805163deea13e760e01b815290516000926001600160a01b03169163deea13e79160048083019260209291908290030181865afa1580156122c1573d6000803e3d6000fd5b505050506040513d601f19601f820116820180604052508101906122e59190615483565b90505b60095462ffffff808516600160201b909204161080156123305750600954600160201b900462ffffff166000908152600360205260409020600401546001600160401b031681115b1561242357600c54600954604051636b60edf760e11b8152600160201b90910462ffffff1660048201526001600160a01b039091169063d6c1dbee90602401600060405180830381600087803b15801561238957600080fd5b505af192505050801561239a575060015b6123e557600954604051600160201b90910462ffffff1681527fc0cded1f60001401da804c8a7703c1e8dc60521fca0f0f9853e2f1984b5410ba9060200160405180910390a1612423565b60098054600160201b900462ffffff169060046124018361549c565b91906101000a81548162ffffff021916908362ffffff160217905550506122e8565b505b600193505050505b90565b600061243a613b3b565b905061244f61244a826001615140565b613fd0565b1561242d5761117e600182615140565b60026020526000908152604090208054600182018054919291612481906151fd565b80601f01602080910402602001604051908101604052809291908181526020018280546124ad906151fd565b80156124fa5780601f106124cf576101008083540402835291602001916124fa565b820191906000526020600020905b8154815290600101906020018083116124dd57829003601f168201915b5050505050905082565b60008181526003602052604081206001015482906001600160401b0316820361256f5760405162461bcd60e51b815260206004820181905260248201527f7265776172642065706f6368206e6f7420696e697469616c697a6564207965746044820152606401610dd5565b5050600090815260036020526040902060040154600160401b900463ffffffff1690565b600054600160b01b900460ff16806125b55750600054600160a81b900460ff16155b15610e59576125c261351a565b620f42408262ffffff16111561260f5760405162461bcd60e51b81526020600482015260126024820152710e8d0e4cae6d0ded8c840e8dede40d0d2ced60731b6044820152606401610dd5565b60008161ffff16116126515760405162461bcd60e51b815260206004820152600b60248201526a7a65726f20766f7465727360a81b6044820152606401610dd5565b6008805464ffffffffff60801b1916600160801b62ffffff85160261ffff60981b191617600160981b61ffff8416021790555050565b600080612692613bcf565b5090939092509050565b816126dd5760405162461bcd60e51b8152602060048201526011602482015270726577617264732068617368207a65726f60781b6044820152606401610dd5565b62ffffff841660009081526003602052604090206126f9612430565b62ffffff168562ffffff16106127215760405162461bcd60e51b8152600401610dd590615163565b60036000612730876001615140565b62ffffff1681526020810191909152604001600090812060010154600160801b90046001600160401b031690036127b35760405162461bcd60e51b815260206004820152602160248201527f6e6577207369676e696e6720706f6c696379206e6f74207369676e65642079656044820152601d60fa1b6064820152608401610dd5565b62ffffff85166000908152600460205260409020546128145760405162461bcd60e51b815260206004820152601f60248201527f757074696d6520766f74652068617368206e6f74207369676e656420796574006044820152606401610dd5565b62ffffff8516600090815260056020526040902054156128765760405162461bcd60e51b815260206004820152601b60248201527f72657761726473206861736820616c7265616479207369676e656400000000006044820152606401610dd5565b6040805162ffffff871660208201526001600160401b038616918101919091526060810184905260009060800160405160208183030381529060405280519060200120905060006128c682613a67565b905060006128ea826128db602088018861524d565b87602001358860400135613a9a565b60095460405163118c8ae560e31b815262ffffff8b1660048201526001600160a01b0380841660248301529293506000928392600160381b90041690638c645728906044016040805180830381865afa15801561294b573d6000803e3d6000fd5b505050506040513d601f19601f8201168201806040525081019061296f919061528f565b90925090506001600160a01b03821661299a5760405162461bcd60e51b8152600401610dd5906152be565b600085815260088701602090815260408083206001600160a01b03861684526001019091529020546001600160401b031615612a0f5760405162461bcd60e51b81526020600482015260146024820152731d9bdd195c88185b1c9958591e481cda59db995960621b6044820152606401610dd5565b6040518060400160405280612a2342613814565b6001600160401b03168152602001612a3a43613814565b6001600160401b03908116909152600087815260088901602081815260408084206001600160a01b038916855260018101835290842086518154978401518716600160401b026001600160801b03199098169616959095179590951790935560048a01548983529252915461ffff600160601b909204821691612abf918591166152e9565b61ffff161190508015612b6857612ad542613814565b8760020160106101000a8154816001600160401b0302191690836001600160401b03160217905550612b0643613814565b6002880180546001600160c01b0316600160c01b6001600160401b039384160217905562ffffff8c1660009081526005602090815260408083208d905560068252808320938e1690935588825260088a01905220805461ffff19169055612ba7565b600086815260088801602052604081208054849290612b8c90849061ffff166152e9565b92506101000a81548161ffff021916908361ffff1602179055505b7f80df246a47153e3604b0026fcf53ec85ea48178efd4f3cad24f9a1e1da2dd52a8b85858c8e612bd642613814565b87604051612bea9796959493929190615190565b60405180910390a15050505050505050505050565b7f714f205b2abd25bef1d06a1af944e38c113fe6160375c4e1d6d5cf28848e7719546001600160a01b0316336001600160a01b031614612c785760405162461bcd60e51b815260206004820152601460248201527337b7363c9030b2323932b9b9903ab83230ba32b960611b6044820152606401610dd5565b612cd0612cac83836040518060400160405280600e81526020016d20b2323932b9b9aab83230ba32b960911b815250614352565b7f714f205b2abd25bef1d06a1af944e38c113fe6160375c4e1d6d5cf28848e771955565b610e64828261442d565b6000818152600360205260408120600401546001600160401b031690819003612d515760405162461bcd60e51b8152602060048201526024808201527f766f746520706f77657220626c6f636b206e6f7420696e697469616c697a6564604482015263081e595d60e21b6064820152608401610dd5565b919050565b6000612d60613bcf565b509092915050565b81612dad5760405162461bcd60e51b8152602060048201526015602482015274757074696d6520766f74652068617368207a65726f60581b6044820152606401610dd5565b62ffffff83166000908152600360205260409020612dc9612430565b62ffffff168462ffffff1610612df15760405162461bcd60e51b8152600401610dd590615163565b62ffffff841660009081526004602052604090205415612e535760405162461bcd60e51b815260206004820152601f60248201527f757074696d6520766f7465206861736820616c7265616479207369676e6564006044820152606401610dd5565b6040805162ffffff861660208201529081018490526000906060016040516020818303038152906040528051906020012090506000612e9182613a67565b90506000612ea6826128db602088018861524d565b60095460405163118c8ae560e31b815262ffffff8a1660048201526001600160a01b0380841660248301529293506000928392600160381b90041690638c645728906044016040805180830381865afa158015612f07573d6000803e3d6000fd5b505050506040513d601f19601f82011682018060405250810190612f2b919061528f565b90925090506001600160a01b038216612f565760405162461bcd60e51b8152600401610dd5906152be565b600088815260078701602090815260408083206001600160a01b03861684526001019091529020546001600160401b031615612fcb5760405162461bcd60e51b81526020600482015260146024820152731d9bdd195c88185b1c9958591e481cda59db995960621b6044820152606401610dd5565b6040518060400160405280612fdf42613814565b6001600160401b03168152602001612ff643613814565b6001600160401b0390811690915260008a815260078901602081815260408084206001600160a01b038916855260018101835290842086518154978401518716600160401b026001600160801b03199098169616959095179590951790935560048a01548c83529252915461ffff600160601b90920482169161307b918591166152e9565b61ffff16119050801561311f5761309142613814565b60028801805467ffffffffffffffff19166001600160401b03929092169190911790556130bd43613814565b6002880180546001600160401b0392909216600160401b0267ffffffffffffffff60401b1990921691909117905562ffffff8a1660009081526004602090815260408083208c90558b835260078a019091529020805461ffff1916905561315e565b60008981526007880160205260408120805484929061314390849061ffff166152e9565b92506101000a81548161ffff021916908361ffff1602179055505b7f5506337d1266599f8b64675a1c8321701657ca2f2f70be0e0c58302b6c22e7978a85858c61318c42613814565b6040805162ffffff9690961686526001600160a01b039485166020870152929093168483015260608401526001600160401b03909116608083015283151560a0830152519081900360c00190a150505050505050505050565b60008054600160a01b900460ff1680156132685750600054604051630debfda360e41b81526001600160a01b0384811660048301529091169063debfda3090602401602060405180830381865afa158015613244573d6000803e3d6000fd5b505050506040513d601f19601f8201168201806040525081019061326891906154be565b92915050565b6000818152600360205260408120600401546001600160401b031681036132d75760405162461bcd60e51b815260206004820152601860248201527f73656564206e6f7420696e697469616c697a65642079657400000000000000006044820152606401610dd5565b506000908152600360208190526040909120015490565b600054600160a01b900460ff161561333f5760405162461bcd60e51b8152602060048201526014602482015273696e697469616c6973656420213d2066616c736560601b6044820152606401610dd5565b6001600160a01b0382166133955760405162461bcd60e51b815260206004820152601860248201527f676f7665726e616e63652073657474696e6773207a65726f00000000000000006044820152606401610dd5565b6001600160a01b0381166133de5760405162461bcd60e51b815260206004820152601060248201526f5f676f7665726e616e6365207a65726f60801b6044820152606401610dd5565b600080546001600160a01b038481166001600160a81b031990921691909117600160a01b17909155600180549183166001600160a01b0319909216821790556040519081527f9789733827840833afc031fb2ef9ab6894271f77bad2085687cf4ae5c7bee4db9060200160405180910390a15050565b61345c6137ba565b600054600160a81b900460ff16156134b65760405162461bcd60e51b815260206004820152601a60248201527f616c726561647920696e2070726f64756374696f6e206d6f64650000000000006044820152606401610dd5565b600180546001600160a01b031916905560008054600160a81b60ff60a81b198216179091556040516001600160a01b0390911681527f83af113638b5422f9e977cebc0aaf0eaf2188eb9a8baae7f9d46c42b33a1560c9060200160405180910390a1565b600054600160b01b900460ff161561354a5733301461353b5761353b615344565b6000805460ff60b01b19169055565b6135526137ba565b565b61355c6137ba565b6000805460408051636221a54b60e01b81529051853593926001600160a01b031691636221a54b9160048083019260209291908290030181865afa1580156135a8573d6000803e3d6000fd5b505050506040513d601f19601f820116820180604052508101906135cc9190615483565b905060006135da8242615114565b9050604051806040016040528082815260200186868080601f01602080910402602001604051908101604052809392919081815260200183838082843760009201829052509390945250506001600160e01b031986168152600260209081526040909120835181559083015190915060018201906136589082615529565b509050507fed948300a3694aa01d4a6b258bfd664350193d770c0b51f8387277f6d83ea3b68382878760405161369194939291906155e8565b60405180910390a15050505050565b8054600090600160801b90046001600160401b0316158015906137b3575060085482546136e0916001600160401b0390811691600160801b900416615324565b6001600160401b0316421115806137285750600854825461371b916001600160401b03600160401b909104811691600160c01b900416615324565b6001600160401b03164311155b806137b35750600854600954604051630da7a50d60e21b815260048101869052600160981b90920461ffff1691600160381b9091046001600160a01b03169063369e943490602401602060405180830381865afa15801561378d573d6000803e3d6000fd5b505050506040513d601f19601f820116820180604052508101906137b19190615483565b105b9392505050565b6137c26110e7565b6001600160a01b0316336001600160a01b0316146135525760405162461bcd60e51b815260206004820152600f60248201526e6f6e6c7920676f7665726e616e636560881b6044820152606401610dd5565b60006001600160401b0382111561384a57604080516306dfcc6560e41b8152600481019190915260248101839052604401610dd5565b5090565b3d604051818101604052816000823e8215613867578181f35b8181fd5b620f42408160c0015162ffffff1611156138bc5760405162461bcd60e51b81526020600482015260126024820152710e8d0e4cae6d0ded8c840e8dede40d0d2ced60731b6044820152606401610dd5565b60008160e0015161ffff16116139025760405162461bcd60e51b815260206004820152600b60248201526a7a65726f20766f7465727360a81b6044820152606401610dd5565b80516007805460208401516040850151606086015161010087015161ffff9687166001600160801b031995861617938716600160401b908102949094176bffffffffffffffffffffffff60801b1916928716600160801b90810263ffffffff60c01b19169390931760ff909216600160c01b02919091176001600160e01b0316600160e01b63ffffffff909216919091021790935560808501516008805460a088015160c089015160e09099015193881691909516179386169092029290921764ffffffffff60801b191662ffffff90951690920261ffff60981b191693909317600160981b9390921692909202179055565b600b54604051630c85bf0760e01b815262ffffff831660048201526000916001600160a01b031690630c85bf0790602401602060405180830381865afa158015613a43573d6000803e3d6000fd5b505050506040513d601f19601f820116820180604052508101906132689190615483565b7f19457468657265756d205369676e6564204d6573736167653a0a3332000000006000908152601c91909152603c902090565b600080600080613aac888888886145de565b925092509250613abc82826146ad565b50909695505050505050565b600061117e7f00000000000000000000000000000000000000000000000000000000000000006001600160401b03167f00000000000000000000000000000000000000000000000000000000000000006001600160401b031642613b2c919061562e565b613b369190615657565b614766565b600061117e60017f00000000000000000000000000000000000000000000000000000000000000006001600160401b03167f0000000000000000000000000000000000000000000000000000000000000000600860169054906101000a90046001600160401b0316613bad9190615304565b6001600160401b0316613bc09190615657565b613bca919061562e565b614797565b6000806000600b60009054906101000a90046001600160a01b03166001600160a01b031663dbdff2c16040518163ffffffff1660e01b8152600401606060405180830381865afa158015613c27573d6000803e3d6000fd5b505050506040513d601f19601f82011682018060405250810190613c4b919061566b565b919590945063ffffffff90911692509050565b600080600381613c6f600187615268565b62ffffff9081168252602080830193909352604091820160009081205491881681526003909352908220546001600160401b03600160401b92839004811694509190041690828103613d0657613cff613cfa836001600160401b03167f00000000000000000000000000000000000000000000000000000000000000006001600160401b03166147c7565b613814565b9050613d13565b613d108383615304565b90505b6000613d286001600160401b038316876156ae565b9050613d3381613814565b613d3d9084615304565b979650505050505050565b600e54604051637b83fb0960e11b815262ffffff831660048201526001600160a01b039091169063f707f61290602401600060405180830381600087803b158015613d9257600080fd5b505af1925050508015613da3575060015b610f2d5760405162ffffff821681527f449d255b9c487823db86822a857f218d40682abada12acee2483788dc2fa975a906020015b60405180910390a150565b62ffffff81166000818152600360209081526040808320815160c0810183529283018490529082018390526060808301939093526080820183905260a082019290925291825290613e326147dd565b63ffffffff16602082015260095460405163c452e47f60e01b815262ffffff85166004820152600091600160381b90046001600160a01b03169063c452e47f906024016000604051808303816000875af1158015613e94573d6000803e3d6000fd5b505050506040513d6000823e601f3d908101601f19168201604052613ebc91908101906156c2565b60a0850191909152608084019190915260085461ffff9091169150613efb90613ef6908390600160801b900462ffffff16620f42406148b5565b6148f5565b61ffff166040838101829052600385015460608501526020840151600480870180546dffffffffffff00000000000000001916600160401b63ffffffff9094169390930261ffff60601b191692909217600160601b909402939093179055600b549051638353412560e01b81526001600160a01b0390911691638353412591613f869186910161578c565b6020604051808303816000875af1158015613fa5573d6000803e3d6000fd5b505050506040513d601f19601f82011682018060405250810190613fc99190615483565b5050505050565b600854600090600160b01b90046001600160401b03164210801590613ffe57506000613ffb836139f5565b14155b8015613268575062ffffff8216600090815260036020526040902060040154600160401b900463ffffffff16614032613ac8565b63ffffffff16101592915050565b60075460009061405d90600160e01b900463ffffffff164261562e565b90505b60095462ffffff808416600160201b909204161080156140c95750600954819060039060009061409d90600160201b900462ffffff166001615140565b62ffffff168152602081019190915260400160002060040154600160701b90046001600160401b031611155b15610e6457600c54600954604051636b60edf760e11b8152600160201b90910462ffffff1660048201526001600160a01b039091169063d6c1dbee90602401600060405180830381600087803b15801561412257600080fd5b505af1925050508015614133575060015b61417d57600954604051600160201b90910462ffffff1681527fc0cded1f60001401da804c8a7703c1e8dc60521fca0f0f9853e2f1984b5410ba9060200160405180910390a15050565b60098054600160201b900462ffffff169060046141998361549c565b91906101000a81548162ffffff021916908362ffffff16021790555050614060565b600954600160201b900462ffffff1660009081526003602052604090819020600490810154600d54925163cbc31cf760e01b81526001600160401b0390911691810182905290916001600160a01b03169063cbc31cf790602401600060405180830381600087803b15801561422f57600080fd5b505af1925050508015614240575060015b610f2d576040516001600160401b03821681527fe9a7be2e41a6b0b36d253d56488c6844e611be2bffd8dd4b69b89a078f41fecc90602001613dd8565b60005b600f5481101561156057600f818154811061429d5761429d6150e8565b6000918252602090912001546040516391f2567960e01b815262ffffff851660048201526001600160401b0380851660248301527f00000000000000000000000000000000000000000000000000000000000000001660448201526001600160a01b03909116906391f2567990606401600060405180830381600087803b15801561432757600080fd5b505af115801561433b573d6000803e3d6000fd5b50505050808061434a90615127565b915050614280565b6000808260405160200161436691906150d5565b6040516020818303038152906040528051906020012090506000805b86518110156143de5786818151811061439d5761439d6150e8565b602002602001015183036143cc578581815181106143bd576143bd6150e8565b602002602001015191506143de565b806143d681615127565b915050614382565b506001600160a01b0381166144245760405162461bcd60e51b815260206004820152600c60248201526b61646472657373207a65726f60a01b6044820152606401610dd5565b95945050505050565b61445d82826040518060400160405280600d81526020016c566f746572526567697374727960981b815250614352565b600960076101000a8154816001600160a01b0302191690836001600160a01b031602179055506144b082826040518060400160405280600a81526020016929bab136b4b9b9b4b7b760b11b815250614352565b600a60006101000a8154816001600160a01b0302191690836001600160a01b031602179055506144fe82826040518060400160405280600581526020016452656c617960d81b815250614352565b600b60006101000a8154816001600160a01b0302191690836001600160a01b0316021790555061455482826040518060400160405280600d81526020016c2932bbb0b93226b0b730b3b2b960991b815250614352565b600c60006101000a8154816001600160a01b0302191690836001600160a01b031602179055506145ba82826040518060400160405280601981526020017f436c65616e7570426c6f636b4e756d6265724d616e6167657200000000000000815250614352565b600d80546001600160a01b0319166001600160a01b03929092169190911790555050565b600080807f7fffffffffffffffffffffffffffffff5d576e7357a4501ddfe92f46681b20a084111561461957506000915060039050826146a3565b604080516000808252602082018084528a905260ff891692820192909252606081018790526080810186905260019060a0016020604051602081039080840390855afa15801561466d573d6000803e3d6000fd5b5050604051601f1901519150506001600160a01b038116614699575060009250600191508290506146a3565b9250600091508190505b9450945094915050565b60008260038111156146c1576146c1615832565b036146ca575050565b60018260038111156146de576146de615832565b036146fc5760405163f645eedf60e01b815260040160405180910390fd5b600282600381111561471057614710615832565b036147315760405163fce698f760e01b815260048101829052602401610dd5565b600382600381111561474557614745615832565b03610e64576040516335e2f38360e21b815260048101829052602401610dd5565b600063ffffffff82111561384a576040516306dfcc6560e41b81526020600482015260248101839052604401610dd5565b600062ffffff82111561384a576040516306dfcc6560e41b81526018600482015260248101839052604401610dd5565b60008183106147d657816137b3565b5090919050565b6008546000908190614820907f000000000000000000000000000000000000000000000000000000000000000090600160b01b90046001600160401b0316615304565b6001600160401b031690506148637f00000000000000000000000000000000000000000000000000000000000000006001600160401b031682613b369190615657565b600754909250600090600160c01b900463ffffffff16614881613ac8565b61488b9190615848565b614896906001615848565b90508063ffffffff168363ffffffff1610156148b0578092505b505090565b6000806148c3858585614924565b9050600083806148d5576148d5615641565b858709905080156148e957816001016148eb565b815b9695505050505050565b600061ffff82111561384a576040516306dfcc6560e41b81526010600482015260248101839052604401610dd5565b60008082116149685760405162461bcd60e51b815260206004820152601060248201526f4469766973696f6e206279207a65726f60801b6044820152606401610dd5565b83600003614978575060006137b3565b8383028385828161498b5761498b615641565b04036149a9578281816149a0576149a0615641565b049150506137b3565b5060006149b68386615657565b905060006149c484876156ae565b905060006149d28587615657565b905060006149e086886156ae565b9050856149ed8285615865565b6149f79190615657565b614a018385615865565b614a0b8387615865565b88614a168689615865565b614a209190615865565b614a2a9190615114565b614a349190615114565b614a3e9190615114565b98975050505050505050565b5080546000825590600052602060002090810190610f2d9190614a9e565b508054614a74906151fd565b6000825580601f10614a84575050565b601f016020900490600052602060002090810190610f2d91905b5b8082111561384a5760008155600101614a9f565b60008060208385031215614ac657600080fd5b82356001600160401b0380821115614add57600080fd5b818501915085601f830112614af157600080fd5b813581811115614b0057600080fd5b8660208260051b8501011115614b1557600080fd5b60209290920196919550909350505050565b600060208284031215614b3957600080fd5b5035919050565b803562ffffff81168114612d5157600080fd5b6001600160a01b0381168114610f2d57600080fd5b60008060408385031215614b7b57600080fd5b614b8483614b40565b91506020830135614b9481614b53565b809150509250929050565b600060208284031215614bb157600080fd5b81356137b381614b53565b80356001600160401b0381168114612d5157600080fd5b600080600060608486031215614be857600080fd5b614bf184614b40565b9250614bff60208501614bbc565b9150604084013590509250925092565b6020808252825182820181905260009190848201906040850190845b81811015613abc5783516001600160a01b031683529284019291840191600101614c2b565b600060208284031215614c6257600080fd5b81356001600160e01b0319811681146137b357600080fd5b634e487b7160e01b600052604160045260246000fd5b60405161012081016001600160401b0381118282101715614cb357614cb3614c7a565b60405290565b604051601f8201601f191681016001600160401b0381118282101715614ce157614ce1614c7a565b604052919050565b61ffff81168114610f2d57600080fd5b8035612d5181614ce9565b803560ff81168114612d5157600080fd5b63ffffffff81168114610f2d57600080fd5b8035612d5181614d15565b60006101208284031215614d4557600080fd5b614d4d614c90565b614d5683614cf9565b8152614d6460208401614cf9565b6020820152614d7560408401614cf9565b6040820152614d8660608401614d04565b6060820152614d9760808401614cf9565b6080820152614da860a08401614cf9565b60a0820152614db960c08401614b40565b60c0820152614dca60e08401614cf9565b60e0820152610100614ddd818501614d27565b908201529392505050565b8015158114610f2d57600080fd5b600060208284031215614e0857600080fd5b81356137b381614de8565b60006060828403121561107f57600080fd5b600080600060a08486031215614e3a57600080fd5b614e4384614b40565b925060208401359150614e598560408601614e13565b90509250925092565b60005b83811015614e7d578181015183820152602001614e65565b50506000910152565b60008151808452614e9e816020860160208601614e62565b601f01601f19169290920160200192915050565b828152604060208201526000614ecb6040830184614e86565b949350505050565b60008060408385031215614ee657600080fd5b614eef83614b40565b91506020830135614b9481614ce9565b600060208284031215614f1157600080fd5b6137b382614b40565b60008060008060c08587031215614f3057600080fd5b614f3985614b40565b9350614f4760208601614bbc565b925060408501359150614f5d8660608701614e13565b905092959194509250565b60006001600160401b03821115614f8157614f81614c7a565b5060051b60200190565b600082601f830112614f9c57600080fd5b81356020614fb1614fac83614f68565b614cb9565b82815260059290921b84018101918181019086841115614fd057600080fd5b8286015b84811015614ff4578035614fe781614b53565b8352918301918301614fd4565b509695505050505050565b6000806040838503121561501257600080fd5b82356001600160401b038082111561502957600080fd5b818501915085601f83011261503d57600080fd5b8135602061504d614fac83614f68565b82815260059290921b8401810191818101908984111561506c57600080fd5b948201945b8386101561508a57853582529482019490820190615071565b965050860135925050808211156150a057600080fd5b506150ad85828601614f8b565b9150509250929050565b600080604083850312156150ca57600080fd5b8235614b8481614b53565b6020815260006137b36020830184614e86565b634e487b7160e01b600052603260045260246000fd5b634e487b7160e01b600052601160045260246000fd5b80820180821115613268576132686150fe565b600060018201615139576151396150fe565b5060010190565b62ffffff81811683821601908082111561515c5761515c6150fe565b5092915050565b602080825260139082015272195c1bd8da081b9bdd08195b991959081e595d606a1b604082015260600190565b62ffffff9790971687526001600160a01b03958616602088015293909416604086015260608501919091526001600160401b03908116608085015290911660a0830152151560c082015260e00190565b6000602082840312156151f257600080fd5b81516137b381614b53565b600181811c9082168061521157607f821691505b60208210810361107f57634e487b7160e01b600052602260045260246000fd5b60008251615243818460208701614e62565b9190910192915050565b60006020828403121561525f57600080fd5b6137b382614d04565b62ffffff82811682821603908082111561515c5761515c6150fe565b8051612d5181614ce9565b600080604083850312156152a257600080fd5b82516152ad81614b53565b6020840151909250614b9481614ce9565b6020808252601190820152701cda59db985d1d5c99481a5b9d985b1a59607a1b604082015260600190565b61ffff81811683821601908082111561515c5761515c6150fe565b6001600160401b0382811682821603908082111561515c5761515c6150fe565b6001600160401b0381811683821601908082111561515c5761515c6150fe565b634e487b7160e01b600052600160045260246000fd5b600082601f83011261536b57600080fd5b8151602061537b614fac83614f68565b82815260059290921b8401810191818101908684111561539a57600080fd5b8286015b84811015614ff45780516153b181614b53565b835291830191830161539e565b6000602082840312156153d057600080fd5b81516001600160401b038111156153e657600080fd5b614ecb8482850161535a565b600081518084526020808501945080840160005b8381101561542b5781516001600160a01b031687529582019590820190600101615406565b509495945050505050565b60808152600061544960808301876153f2565b828103602084015261545b81876153f2565b9050828103604084015261546f81866153f2565b90508281036060840152613d3d81856153f2565b60006020828403121561549557600080fd5b5051919050565b600062ffffff8083168181036154b4576154b46150fe565b6001019392505050565b6000602082840312156154d057600080fd5b81516137b381614de8565b601f82111561156057600081815260208120601f850160051c810160208610156155025750805b601f850160051c820191505b818110156155215782815560010161550e565b505050505050565b81516001600160401b0381111561554257615542614c7a565b6155568161555084546151fd565b846154db565b602080601f83116001811461558b57600084156155735750858301515b600019600386901b1c1916600185901b178555615521565b600085815260208120601f198616915b828110156155ba5788860151825594840194600190910190840161559b565b50858210156155d85787850151600019600388901b60f8161c191681555b5050505050600190811b01905550565b63ffffffff60e01b8516815283602082015260606040820152816060820152818360808301376000818301608090810191909152601f909201601f191601019392505050565b81810381811115613268576132686150fe565b634e487b7160e01b600052601260045260246000fd5b60008261566657615666615641565b500490565b60008060006060848603121561568057600080fd5b83519250602084015161569281614de8565b60408501519092506156a381614d15565b809150509250925092565b6000826156bd576156bd615641565b500690565b6000806000606084860312156156d757600080fd5b83516001600160401b03808211156156ee57600080fd5b6156fa8783880161535a565b945060209150818601518181111561571157600080fd5b86019050601f8101871361572457600080fd5b8051615732614fac82614f68565b81815260059190911b8201830190838101908983111561575157600080fd5b928401925b8284101561577857835161576981614ce9565b82529284019290840190615756565b8096505050505050614e5960408501615284565b6000602080835262ffffff8451168184015263ffffffff81850151166040840152604084015161ffff8082166060860152606086015160808601526080860151915060c060a08601526157e260e08601836153f2565b60a0870151868203601f190160c0880152805180835290850193506000918501905b8083101561582657845184168252938501936001929092019190850190615804565b50979650505050505050565b634e487b7160e01b600052602160045260246000fd5b63ffffffff81811683821601908082111561515c5761515c6150fe565b8082028115828204841417613268576132686150fe56fea2646970667358221220037253331e396955ee2673151767d7c04536f36c779e3d89e42bee7ad047f18364736f6c63430008140033",
  "linkReferences": {},
  "deployedLinkReferences": {}
}