{
  "_format": "hh-sol-artifact-1",
  "contractName": "FlareSystemsManager",
  "sourceName": "contracts/protocol/implementation/FlareSystemsManager.sol",
  "abi": [
    {
      "inputs": [
        {
          "internalType": "contract IGovernanceSettings",
          "name": "_governanceSettings",
          "type": "address"
        },
        {
          "internalType": "address",
          "name": "_initialGovernance",
          "type": "address"
        },
        {
          "internalType": "address",
          "name": "_addressUpdater",
          "type": "address"
        },
        {
          "internalType": "address",
          "name": "_flareDaemon",
          "type": "address"
        },
        {
          "components": [
            {
              "internalType": "uint16",
              "name": "randomAcquisitionMaxDurationSeconds",
              "type": "uint16"
            },
            {
              "internalType": "uint16",
              "name": "randomAcquisitionMaxDurationBlocks",
              "type": "uint16"
            },
            {
              "internalType": "uint16",
              "name": "newSigningPolicyInitializationStartSeconds",
              "type": "uint16"
            },
            {
              "internalType": "uint8",
              "name": "newSigningPolicyMinNumberOfVotingRoundsDelay",
              "type": "uint8"
            },
            {
              "internalType": "uint16",
              "name": "voterRegistrationMinDurationSeconds",
              "type": "uint16"
            },
            {
              "internalType": "uint16",
              "name": "voterRegistrationMinDurationBlocks",
              "type": "uint16"
            },
            {
              "internalType": "uint16",
              "name": "submitUptimeVoteMinDurationSeconds",
              "type": "uint16"
            },
            {
              "internalType": "uint16",
              "name": "submitUptimeVoteMinDurationBlocks",
              "type": "uint16"
            },
            {
              "internalType": "uint24",
              "name": "signingPolicyThresholdPPM",
              "type": "uint24"
            },
            {
              "internalType": "uint16",
              "name": "signingPolicyMinNumberOfVoters",
              "type": "uint16"
            },
            {
              "internalType": "uint32",
              "name": "rewardExpiryOffsetSeconds",
              "type": "uint32"
            }
          ],
          "internalType": "struct FlareSystemsManager.Settings",
          "name": "_settings",
          "type": "tuple"
        },
        {
          "internalType": "uint32",
          "name": "_firstVotingRoundStartTs",
          "type": "uint32"
        },
        {
          "internalType": "uint8",
          "name": "_votingEpochDurationSeconds",
          "type": "uint8"
        },
        {
          "internalType": "uint32",
          "name": "_firstRewardEpochStartVotingRoundId",
          "type": "uint32"
        },
        {
          "internalType": "uint16",
          "name": "_rewardEpochDurationInVotingEpochs",
          "type": "uint16"
        },
        {
          "components": [
            {
              "internalType": "uint16",
              "name": "initialRandomVotePowerBlockSelectionSize",
              "type": "uint16"
            },
            {
              "internalType": "uint24",
              "name": "initialRewardEpochId",
              "type": "uint24"
            },
            {
              "internalType": "uint16",
              "name": "initialRewardEpochThreshold",
              "type": "uint16"
            }
          ],
          "internalType": "struct FlareSystemsManager.InitialSettings",
          "name": "_initialSettings",
          "type": "tuple"
        }
      ],
      "stateMutability": "nonpayable",
      "type": "constructor"
    },
    {
      "inputs": [],
      "name": "ECDSAInvalidSignature",
      "type": "error"
    },
    {
      "inputs": [
        {
          "internalType": "uint256",
          "name": "length",
          "type": "uint256"
        }
      ],
      "name": "ECDSAInvalidSignatureLength",
      "type": "error"
    },
    {
      "inputs": [
        {
          "internalType": "bytes32",
          "name": "s",
          "type": "bytes32"
        }
      ],
      "name": "ECDSAInvalidSignatureS",
      "type": "error"
    },
    {
      "inputs": [
        {
          "internalType": "uint8",
          "name": "bits",
          "type": "uint8"
        },
        {
          "internalType": "uint256",
          "name": "value",
          "type": "uint256"
        }
      ],
      "name": "SafeCastOverflowedUintDowncast",
      "type": "error"
    },
    {
      "anonymous": false,
      "inputs": [
        {
          "indexed": false,
          "internalType": "uint24",
          "name": "rewardEpochId",
          "type": "uint24"
        }
      ],
      "name": "ClosingExpiredRewardEpochFailed",
      "type": "event"
    },
    {
      "anonymous": false,
      "inputs": [
        {
          "indexed": false,
          "internalType": "bytes4",
          "name": "selector",
          "type": "bytes4"
        },
        {
          "indexed": false,
          "internalType": "uint256",
          "name": "allowedAfterTimestamp",
          "type": "uint256"
        },
        {
          "indexed": false,
          "internalType": "bytes",
          "name": "encodedCall",
          "type": "bytes"
        }
      ],
      "name": "GovernanceCallTimelocked",
      "type": "event"
    },
    {
      "anonymous": false,
      "inputs": [
        {
          "indexed": false,
          "internalType": "address",
          "name": "initialGovernance",
          "type": "address"
        }
      ],
      "name": "GovernanceInitialised",
      "type": "event"
    },
    {
      "anonymous": false,
      "inputs": [
        {
          "indexed": false,
          "internalType": "address",
          "name": "governanceSettings",
          "type": "address"
        }
      ],
      "name": "GovernedProductionModeEntered",
      "type": "event"
    },
    {
      "anonymous": false,
      "inputs": [
        {
          "indexed": true,
          "internalType": "uint24",
          "name": "rewardEpochId",
          "type": "uint24"
        },
        {
          "indexed": false,
          "internalType": "uint64",
          "name": "timestamp",
          "type": "uint64"
        }
      ],
      "name": "RandomAcquisitionStarted",
      "type": "event"
    },
    {
      "anonymous": false,
      "inputs": [
        {
          "indexed": true,
          "internalType": "uint24",
          "name": "rewardEpochId",
          "type": "uint24"
        },
        {
          "indexed": false,
          "internalType": "uint32",
          "name": "startVotingRoundId",
          "type": "uint32"
        },
        {
          "indexed": false,
          "internalType": "uint64",
          "name": "timestamp",
          "type": "uint64"
        }
      ],
      "name": "RewardEpochStarted",
      "type": "event"
    },
    {
      "anonymous": false,
      "inputs": [
        {
          "indexed": true,
          "internalType": "uint24",
          "name": "rewardEpochId",
          "type": "uint24"
        },
        {
          "indexed": true,
          "internalType": "address",
          "name": "signingPolicyAddress",
          "type": "address"
        },
        {
          "indexed": true,
          "internalType": "address",
          "name": "voter",
          "type": "address"
        },
        {
          "indexed": false,
          "internalType": "bytes32",
          "name": "rewardsHash",
          "type": "bytes32"
        },
        {
          "indexed": false,
          "internalType": "uint256",
          "name": "noOfWeightBasedClaims",
          "type": "uint256"
        },
        {
          "indexed": false,
          "internalType": "uint64",
          "name": "timestamp",
          "type": "uint64"
        },
        {
          "indexed": false,
          "internalType": "bool",
          "name": "thresholdReached",
          "type": "bool"
        }
      ],
      "name": "RewardsSigned",
      "type": "event"
    },
    {
      "anonymous": false,
      "inputs": [
        {
          "indexed": false,
          "internalType": "uint64",
          "name": "blockNumber",
          "type": "uint64"
        }
      ],
      "name": "SettingCleanUpBlockNumberFailed",
      "type": "event"
    },
    {
      "anonymous": false,
      "inputs": [
        {
          "indexed": true,
          "internalType": "uint24",
          "name": "rewardEpochId",
          "type": "uint24"
        },
        {
          "indexed": false,
          "internalType": "uint64",
          "name": "timestamp",
          "type": "uint64"
        }
      ],
      "name": "SignUptimeVoteEnabled",
      "type": "event"
    },
    {
      "anonymous": false,
      "inputs": [
        {
          "indexed": true,
          "internalType": "uint24",
          "name": "rewardEpochId",
          "type": "uint24"
        },
        {
          "indexed": true,
          "internalType": "address",
          "name": "signingPolicyAddress",
          "type": "address"
        },
        {
          "indexed": true,
          "internalType": "address",
          "name": "voter",
          "type": "address"
        },
        {
          "indexed": false,
          "internalType": "uint64",
          "name": "timestamp",
          "type": "uint64"
        },
        {
          "indexed": false,
          "internalType": "bool",
          "name": "thresholdReached",
          "type": "bool"
        }
      ],
      "name": "SigningPolicySigned",
      "type": "event"
    },
    {
      "anonymous": false,
      "inputs": [
        {
          "indexed": false,
          "internalType": "bytes4",
          "name": "selector",
          "type": "bytes4"
        },
        {
          "indexed": false,
          "internalType": "uint256",
          "name": "timestamp",
          "type": "uint256"
        }
      ],
      "name": "TimelockedGovernanceCallCanceled",
      "type": "event"
    },
    {
      "anonymous": false,
      "inputs": [
        {
          "indexed": false,
          "internalType": "bytes4",
          "name": "selector",
          "type": "bytes4"
        },
        {
          "indexed": false,
          "internalType": "uint256",
          "name": "timestamp",
          "type": "uint256"
        }
      ],
      "name": "TimelockedGovernanceCallExecuted",
      "type": "event"
    },
    {
      "anonymous": false,
      "inputs": [
        {
          "indexed": false,
          "internalType": "uint24",
          "name": "rewardEpochId",
          "type": "uint24"
        }
      ],
      "name": "TriggeringVoterRegistrationFailed",
      "type": "event"
    },
    {
      "anonymous": false,
      "inputs": [
        {
          "indexed": true,
          "internalType": "uint24",
          "name": "rewardEpochId",
          "type": "uint24"
        },
        {
          "indexed": true,
          "internalType": "address",
          "name": "signingPolicyAddress",
          "type": "address"
        },
        {
          "indexed": true,
          "internalType": "address",
          "name": "voter",
          "type": "address"
        },
        {
          "indexed": false,
          "internalType": "bytes32",
          "name": "uptimeVoteHash",
          "type": "bytes32"
        },
        {
          "indexed": false,
          "internalType": "uint64",
          "name": "timestamp",
          "type": "uint64"
        },
        {
          "indexed": false,
          "internalType": "bool",
          "name": "thresholdReached",
          "type": "bool"
        }
      ],
      "name": "UptimeVoteSigned",
      "type": "event"
    },
    {
      "anonymous": false,
      "inputs": [
        {
          "indexed": true,
          "internalType": "uint24",
          "name": "rewardEpochId",
          "type": "uint24"
        },
        {
          "indexed": true,
          "internalType": "address",
          "name": "signingPolicyAddress",
          "type": "address"
        },
        {
          "indexed": true,
          "internalType": "address",
          "name": "voter",
          "type": "address"
        },
        {
          "indexed": false,
          "internalType": "bytes20[]",
          "name": "nodeIds",
          "type": "bytes20[]"
        },
        {
          "indexed": false,
          "internalType": "uint64",
          "name": "timestamp",
          "type": "uint64"
        }
      ],
      "name": "UptimeVoteSubmitted",
      "type": "event"
    },
    {
      "anonymous": false,
      "inputs": [
        {
          "indexed": true,
          "internalType": "uint24",
          "name": "rewardEpochId",
          "type": "uint24"
        },
        {
          "indexed": false,
          "internalType": "uint64",
          "name": "votePowerBlock",
          "type": "uint64"
        },
        {
          "indexed": false,
          "internalType": "uint64",
          "name": "timestamp",
          "type": "uint64"
        }
      ],
      "name": "VotePowerBlockSelected",
      "type": "event"
    },
    {
      "inputs": [
        {
          "internalType": "bytes4",
          "name": "_selector",
          "type": "bytes4"
        }
      ],
      "name": "cancelGovernanceCall",
      "outputs": [],
      "stateMutability": "nonpayable",
      "type": "function"
    },
    {
      "inputs": [],
      "name": "cleanupBlockNumberManager",
      "outputs": [
        {
          "internalType": "contract IICleanupBlockNumberManager",
          "name": "",
          "type": "address"
        }
      ],
      "stateMutability": "view",
      "type": "function"
    },
    {
      "inputs": [],
      "name": "currentRewardEpochExpectedEndTs",
      "outputs": [
        {
          "internalType": "uint64",
          "name": "",
          "type": "uint64"
        }
      ],
      "stateMutability": "view",
      "type": "function"
    },
    {
      "inputs": [],
      "name": "daemonize",
      "outputs": [
        {
          "internalType": "bool",
          "name": "",
          "type": "bool"
        }
      ],
      "stateMutability": "nonpayable",
      "type": "function"
    },
    {
      "inputs": [
        {
          "internalType": "bytes4",
          "name": "_selector",
          "type": "bytes4"
        }
      ],
      "name": "executeGovernanceCall",
      "outputs": [],
      "stateMutability": "nonpayable",
      "type": "function"
    },
    {
      "inputs": [],
      "name": "firstRewardEpochStartTs",
      "outputs": [
        {
          "internalType": "uint64",
          "name": "",
          "type": "uint64"
        }
      ],
      "stateMutability": "view",
      "type": "function"
    },
    {
      "inputs": [],
      "name": "firstVotingRoundStartTs",
      "outputs": [
        {
          "internalType": "uint64",
          "name": "",
          "type": "uint64"
        }
      ],
      "stateMutability": "view",
      "type": "function"
    },
    {
      "inputs": [],
      "name": "flareDaemon",
      "outputs": [
        {
          "internalType": "address",
          "name": "",
          "type": "address"
        }
      ],
      "stateMutability": "view",
      "type": "function"
    },
    {
      "inputs": [],
      "name": "getAddressUpdater",
      "outputs": [
        {
          "internalType": "address",
          "name": "_addressUpdater",
          "type": "address"
        }
      ],
      "stateMutability": "view",
      "type": "function"
    },
    {
      "inputs": [],
      "name": "getContractName",
      "outputs": [
        {
          "internalType": "string",
          "name": "",
          "type": "string"
        }
      ],
      "stateMutability": "pure",
      "type": "function"
    },
    {
      "inputs": [],
      "name": "getCurrentRewardEpoch",
      "outputs": [
        {
          "internalType": "uint256",
          "name": "",
          "type": "uint256"
        }
      ],
      "stateMutability": "view",
      "type": "function"
    },
    {
      "inputs": [],
      "name": "getCurrentRewardEpochId",
      "outputs": [
        {
          "internalType": "uint24",
          "name": "",
          "type": "uint24"
        }
      ],
      "stateMutability": "view",
      "type": "function"
    },
    {
      "inputs": [],
      "name": "getCurrentVotingEpochId",
      "outputs": [
        {
          "internalType": "uint32",
          "name": "",
          "type": "uint32"
        }
      ],
      "stateMutability": "view",
      "type": "function"
    },
    {
      "inputs": [
        {
          "internalType": "uint24",
          "name": "_rewardEpochId",
          "type": "uint24"
        }
      ],
      "name": "getRandomAcquisitionInfo",
      "outputs": [
        {
          "internalType": "uint64",
          "name": "_randomAcquisitionStartTs",
          "type": "uint64"
        },
        {
          "internalType": "uint64",
          "name": "_randomAcquisitionStartBlock",
          "type": "uint64"
        },
        {
          "internalType": "uint64",
          "name": "_randomAcquisitionEndTs",
          "type": "uint64"
        },
        {
          "internalType": "uint64",
          "name": "_randomAcquisitionEndBlock",
          "type": "uint64"
        }
      ],
      "stateMutability": "view",
      "type": "function"
    },
    {
      "inputs": [
        {
          "internalType": "uint24",
          "name": "_rewardEpochId",
          "type": "uint24"
        }
      ],
      "name": "getRewardEpochStartInfo",
      "outputs": [
        {
          "internalType": "uint64",
          "name": "_rewardEpochStartTs",
          "type": "uint64"
        },
        {
          "internalType": "uint64",
          "name": "_rewardEpochStartBlock",
          "type": "uint64"
        }
      ],
      "stateMutability": "view",
      "type": "function"
    },
    {
      "inputs": [],
      "name": "getRewardEpochSwitchoverTriggerContracts",
      "outputs": [
        {
          "internalType": "contract IIRewardEpochSwitchoverTrigger[]",
          "name": "",
          "type": "address[]"
        }
      ],
      "stateMutability": "view",
      "type": "function"
    },
    {
      "inputs": [
        {
          "internalType": "uint24",
          "name": "_rewardEpochId",
          "type": "uint24"
        }
      ],
      "name": "getRewardsSignInfo",
      "outputs": [
        {
          "internalType": "uint64",
          "name": "_rewardsSignStartTs",
          "type": "uint64"
        },
        {
          "internalType": "uint64",
          "name": "_rewardsSignStartBlock",
          "type": "uint64"
        },
        {
          "internalType": "uint64",
          "name": "_rewardsSignEndTs",
          "type": "uint64"
        },
        {
          "internalType": "uint64",
          "name": "_rewardsSignEndBlock",
          "type": "uint64"
        }
      ],
      "stateMutability": "view",
      "type": "function"
    },
    {
      "inputs": [
        {
          "internalType": "uint256",
          "name": "_rewardEpochId",
          "type": "uint256"
        }
      ],
      "name": "getSeed",
      "outputs": [
        {
          "internalType": "uint256",
          "name": "",
          "type": "uint256"
        }
      ],
      "stateMutability": "view",
      "type": "function"
    },
    {
      "inputs": [
        {
          "internalType": "uint24",
          "name": "_rewardEpochId",
          "type": "uint24"
        }
      ],
      "name": "getSigningPolicySignInfo",
      "outputs": [
        {
          "internalType": "uint64",
          "name": "_signingPolicySignStartTs",
          "type": "uint64"
        },
        {
          "internalType": "uint64",
          "name": "_signingPolicySignStartBlock",
          "type": "uint64"
        },
        {
          "internalType": "uint64",
          "name": "_signingPolicySignEndTs",
          "type": "uint64"
        },
        {
          "internalType": "uint64",
          "name": "_signingPolicySignEndBlock",
          "type": "uint64"
        }
      ],
      "stateMutability": "view",
      "type": "function"
    },
    {
      "inputs": [
        {
          "internalType": "uint256",
          "name": "_rewardEpochId",
          "type": "uint256"
        }
      ],
      "name": "getStartVotingRoundId",
      "outputs": [
        {
          "internalType": "uint32",
          "name": "",
          "type": "uint32"
        }
      ],
      "stateMutability": "view",
      "type": "function"
    },
    {
      "inputs": [
        {
          "internalType": "uint256",
          "name": "_rewardEpochId",
          "type": "uint256"
        }
      ],
      "name": "getThreshold",
      "outputs": [
        {
          "internalType": "uint16",
          "name": "",
          "type": "uint16"
        }
      ],
      "stateMutability": "view",
      "type": "function"
    },
    {
      "inputs": [
        {
          "internalType": "uint24",
          "name": "_rewardEpochId",
          "type": "uint24"
        }
      ],
      "name": "getUptimeVoteSignStartInfo",
      "outputs": [
        {
          "internalType": "uint64",
          "name": "_uptimeVoteSignStartTs",
          "type": "uint64"
        },
        {
          "internalType": "uint64",
          "name": "_uptimeVoteSignStartBlock",
          "type": "uint64"
        }
      ],
      "stateMutability": "view",
      "type": "function"
    },
    {
      "inputs": [
        {
          "internalType": "uint256",
          "name": "_rewardEpochId",
          "type": "uint256"
        }
      ],
      "name": "getVotePowerBlock",
      "outputs": [
        {
          "internalType": "uint64",
          "name": "_votePowerBlock",
          "type": "uint64"
        }
      ],
      "stateMutability": "view",
      "type": "function"
    },
    {
      "inputs": [
        {
          "internalType": "uint256",
          "name": "_rewardEpochId",
          "type": "uint256"
        }
      ],
      "name": "getVoterRegistrationData",
      "outputs": [
        {
          "internalType": "uint256",
          "name": "_votePowerBlock",
          "type": "uint256"
        },
        {
          "internalType": "bool",
          "name": "_enabled",
          "type": "bool"
        }
      ],
      "stateMutability": "view",
      "type": "function"
    },
    {
      "inputs": [
        {
          "internalType": "uint24",
          "name": "_rewardEpochId",
          "type": "uint24"
        },
        {
          "internalType": "address",
          "name": "_voter",
          "type": "address"
        }
      ],
      "name": "getVoterRewardsSignInfo",
      "outputs": [
        {
          "internalType": "uint64",
          "name": "_rewardsSignTs",
          "type": "uint64"
        },
        {
          "internalType": "uint64",
          "name": "_rewardsSignBlock",
          "type": "uint64"
        }
      ],
      "stateMutability": "view",
      "type": "function"
    },
    {
      "inputs": [
        {
          "internalType": "uint24",
          "name": "_rewardEpochId",
          "type": "uint24"
        },
        {
          "internalType": "address",
          "name": "_voter",
          "type": "address"
        }
      ],
      "name": "getVoterSigningPolicySignInfo",
      "outputs": [
        {
          "internalType": "uint64",
          "name": "_signingPolicySignTs",
          "type": "uint64"
        },
        {
          "internalType": "uint64",
          "name": "_signingPolicySignBlock",
          "type": "uint64"
        }
      ],
      "stateMutability": "view",
      "type": "function"
    },
    {
      "inputs": [
        {
          "internalType": "uint24",
          "name": "_rewardEpochId",
          "type": "uint24"
        },
        {
          "internalType": "address",
          "name": "_voter",
          "type": "address"
        }
      ],
      "name": "getVoterUptimeVoteSignInfo",
      "outputs": [
        {
          "internalType": "uint64",
          "name": "_uptimeVoteSignTs",
          "type": "uint64"
        },
        {
          "internalType": "uint64",
          "name": "_uptimeVoteSignBlock",
          "type": "uint64"
        }
      ],
      "stateMutability": "view",
      "type": "function"
    },
    {
      "inputs": [
        {
          "internalType": "uint24",
          "name": "_rewardEpochId",
          "type": "uint24"
        },
        {
          "internalType": "address",
          "name": "_voter",
          "type": "address"
        }
      ],
      "name": "getVoterUptimeVoteSubmitInfo",
      "outputs": [
        {
          "internalType": "uint64",
          "name": "_uptimeVoteSubmitTs",
          "type": "uint64"
        },
        {
          "internalType": "uint64",
          "name": "_uptimeVoteSubmitBlock",
          "type": "uint64"
        }
      ],
      "stateMutability": "view",
      "type": "function"
    },
    {
      "inputs": [],
      "name": "governance",
      "outputs": [
        {
          "internalType": "address",
          "name": "",
          "type": "address"
        }
      ],
      "stateMutability": "view",
      "type": "function"
    },
    {
      "inputs": [],
      "name": "governanceSettings",
      "outputs": [
        {
          "internalType": "contract IGovernanceSettings",
          "name": "",
          "type": "address"
        }
      ],
      "stateMutability": "view",
      "type": "function"
    },
    {
      "inputs": [],
      "name": "initialRandomVotePowerBlockSelectionSize",
      "outputs": [
        {
          "internalType": "uint64",
          "name": "",
          "type": "uint64"
        }
      ],
      "stateMutability": "view",
      "type": "function"
    },
    {
      "inputs": [
        {
          "internalType": "contract IGovernanceSettings",
          "name": "_governanceSettings",
          "type": "address"
        },
        {
          "internalType": "address",
          "name": "_initialGovernance",
          "type": "address"
        }
      ],
      "name": "initialise",
      "outputs": [],
      "stateMutability": "nonpayable",
      "type": "function"
    },
    {
      "inputs": [
        {
          "internalType": "address",
          "name": "_address",
          "type": "address"
        }
      ],
      "name": "isExecutor",
      "outputs": [
        {
          "internalType": "bool",
          "name": "",
          "type": "bool"
        }
      ],
      "stateMutability": "view",
      "type": "function"
    },
    {
      "inputs": [],
      "name": "isVoterRegistrationEnabled",
      "outputs": [
        {
          "internalType": "bool",
          "name": "",
          "type": "bool"
        }
      ],
      "stateMutability": "view",
      "type": "function"
    },
    {
      "inputs": [],
      "name": "lastInitializedVotingRoundId",
      "outputs": [
        {
          "internalType": "uint32",
          "name": "",
          "type": "uint32"
        }
      ],
      "stateMutability": "view",
      "type": "function"
    },
    {
      "inputs": [],
      "name": "newSigningPolicyInitializationStartSeconds",
      "outputs": [
        {
          "internalType": "uint64",
          "name": "",
          "type": "uint64"
        }
      ],
      "stateMutability": "view",
      "type": "function"
    },
    {
      "inputs": [],
      "name": "newSigningPolicyMinNumberOfVotingRoundsDelay",
      "outputs": [
        {
          "internalType": "uint32",
          "name": "",
          "type": "uint32"
        }
      ],
      "stateMutability": "view",
      "type": "function"
    },
    {
      "inputs": [
        {
          "internalType": "uint256",
          "name": "rewardEpochId",
          "type": "uint256"
        }
      ],
      "name": "noOfWeightBasedClaims",
      "outputs": [
        {
          "internalType": "uint256",
          "name": "",
          "type": "uint256"
        }
      ],
      "stateMutability": "view",
      "type": "function"
    },
    {
      "inputs": [],
      "name": "productionMode",
      "outputs": [
        {
          "internalType": "bool",
          "name": "",
          "type": "bool"
        }
      ],
      "stateMutability": "view",
      "type": "function"
    },
    {
      "inputs": [],
      "name": "randomAcquisitionMaxDurationBlocks",
      "outputs": [
        {
          "internalType": "uint64",
          "name": "",
          "type": "uint64"
        }
      ],
      "stateMutability": "view",
      "type": "function"
    },
    {
      "inputs": [],
      "name": "randomAcquisitionMaxDurationSeconds",
      "outputs": [
        {
          "internalType": "uint64",
          "name": "",
          "type": "uint64"
        }
      ],
      "stateMutability": "view",
      "type": "function"
    },
    {
      "inputs": [],
      "name": "relay",
      "outputs": [
        {
          "internalType": "contract IIRelay",
          "name": "",
          "type": "address"
        }
      ],
      "stateMutability": "view",
      "type": "function"
    },
    {
      "inputs": [],
      "name": "rewardEpochDurationSeconds",
      "outputs": [
        {
          "internalType": "uint64",
          "name": "",
          "type": "uint64"
        }
      ],
      "stateMutability": "view",
      "type": "function"
    },
    {
      "inputs": [],
      "name": "rewardEpochIdToExpireNext",
      "outputs": [
        {
          "internalType": "uint24",
          "name": "",
          "type": "uint24"
        }
      ],
      "stateMutability": "view",
      "type": "function"
    },
    {
      "inputs": [],
      "name": "rewardExpiryOffsetSeconds",
      "outputs": [
        {
          "internalType": "uint32",
          "name": "",
          "type": "uint32"
        }
      ],
      "stateMutability": "view",
      "type": "function"
    },
    {
      "inputs": [],
      "name": "rewardManager",
      "outputs": [
        {
          "internalType": "contract IIRewardManager",
          "name": "",
          "type": "address"
        }
      ],
      "stateMutability": "view",
      "type": "function"
    },
    {
      "inputs": [
        {
          "internalType": "uint256",
          "name": "rewardEpochId",
          "type": "uint256"
        }
      ],
      "name": "rewardsHash",
      "outputs": [
        {
          "internalType": "bytes32",
          "name": "",
          "type": "bytes32"
        }
      ],
      "stateMutability": "view",
      "type": "function"
    },
    {
      "inputs": [
        {
          "internalType": "contract IIRewardEpochSwitchoverTrigger[]",
          "name": "_contracts",
          "type": "address[]"
        }
      ],
      "name": "setRewardEpochSwitchoverTriggerContracts",
      "outputs": [],
      "stateMutability": "nonpayable",
      "type": "function"
    },
    {
      "inputs": [
        {
          "internalType": "uint24",
          "name": "_rewardEpochId",
          "type": "uint24"
        },
        {
          "internalType": "uint64",
          "name": "_noOfWeightBasedClaims",
          "type": "uint64"
        },
        {
          "internalType": "bytes32",
          "name": "_rewardsHash",
          "type": "bytes32"
        }
      ],
      "name": "setRewardsData",
      "outputs": [],
      "stateMutability": "nonpayable",
      "type": "function"
    },
    {
      "inputs": [
        {
          "internalType": "bool",
          "name": "_submit3Aligned",
          "type": "bool"
        }
      ],
      "name": "setSubmit3Aligned",
      "outputs": [],
      "stateMutability": "nonpayable",
      "type": "function"
    },
    {
      "inputs": [
        {
          "internalType": "bool",
          "name": "_triggerExpirationAndCleanup",
          "type": "bool"
        }
      ],
      "name": "setTriggerExpirationAndCleanup",
      "outputs": [],
      "stateMutability": "nonpayable",
      "type": "function"
    },
    {
      "inputs": [
        {
          "internalType": "contract IIVoterRegistrationTrigger",
          "name": "_contract",
          "type": "address"
        }
      ],
      "name": "setVoterRegistrationTriggerContract",
      "outputs": [],
      "stateMutability": "nonpayable",
      "type": "function"
    },
    {
      "inputs": [
        {
          "internalType": "uint24",
          "name": "_rewardEpochId",
          "type": "uint24"
        },
        {
          "internalType": "bytes32",
          "name": "_newSigningPolicyHash",
          "type": "bytes32"
        },
        {
          "components": [
            {
              "internalType": "uint8",
              "name": "v",
              "type": "uint8"
            },
            {
              "internalType": "bytes32",
              "name": "r",
              "type": "bytes32"
            },
            {
              "internalType": "bytes32",
              "name": "s",
              "type": "bytes32"
            }
          ],
          "internalType": "struct IFlareSystemsManager.Signature",
          "name": "_signature",
          "type": "tuple"
        }
      ],
      "name": "signNewSigningPolicy",
      "outputs": [],
      "stateMutability": "nonpayable",
      "type": "function"
    },
    {
      "inputs": [
        {
          "internalType": "uint24",
          "name": "_rewardEpochId",
          "type": "uint24"
        },
        {
          "internalType": "uint64",
          "name": "_noOfWeightBasedClaims",
          "type": "uint64"
        },
        {
          "internalType": "bytes32",
          "name": "_rewardsHash",
          "type": "bytes32"
        },
        {
          "components": [
            {
              "internalType": "uint8",
              "name": "v",
              "type": "uint8"
            },
            {
              "internalType": "bytes32",
              "name": "r",
              "type": "bytes32"
            },
            {
              "internalType": "bytes32",
              "name": "s",
              "type": "bytes32"
            }
          ],
          "internalType": "struct IFlareSystemsManager.Signature",
          "name": "_signature",
          "type": "tuple"
        }
      ],
      "name": "signRewards",
      "outputs": [],
      "stateMutability": "nonpayable",
      "type": "function"
    },
    {
      "inputs": [
        {
          "internalType": "uint24",
          "name": "_rewardEpochId",
          "type": "uint24"
        },
        {
          "internalType": "bytes32",
          "name": "_uptimeVoteHash",
          "type": "bytes32"
        },
        {
          "components": [
            {
              "internalType": "uint8",
              "name": "v",
              "type": "uint8"
            },
            {
              "internalType": "bytes32",
              "name": "r",
              "type": "bytes32"
            },
            {
              "internalType": "bytes32",
              "name": "s",
              "type": "bytes32"
            }
          ],
          "internalType": "struct IFlareSystemsManager.Signature",
          "name": "_signature",
          "type": "tuple"
        }
      ],
      "name": "signUptimeVote",
      "outputs": [],
      "stateMutability": "nonpayable",
      "type": "function"
    },
    {
      "inputs": [],
      "name": "signingPolicyMinNumberOfVoters",
      "outputs": [
        {
          "internalType": "uint16",
          "name": "",
          "type": "uint16"
        }
      ],
      "stateMutability": "view",
      "type": "function"
    },
    {
      "inputs": [],
      "name": "signingPolicyThresholdPPM",
      "outputs": [
        {
          "internalType": "uint24",
          "name": "",
          "type": "uint24"
        }
      ],
      "stateMutability": "view",
      "type": "function"
    },
    {
      "inputs": [],
      "name": "submission",
      "outputs": [
        {
          "internalType": "contract IISubmission",
          "name": "",
          "type": "address"
        }
      ],
      "stateMutability": "view",
      "type": "function"
    },
    {
      "inputs": [],
      "name": "submit3Aligned",
      "outputs": [
        {
          "internalType": "bool",
          "name": "",
          "type": "bool"
        }
      ],
      "stateMutability": "view",
      "type": "function"
    },
    {
      "inputs": [
        {
          "internalType": "uint24",
          "name": "_rewardEpochId",
          "type": "uint24"
        },
        {
          "internalType": "bytes20[]",
          "name": "_nodeIds",
          "type": "bytes20[]"
        },
        {
          "components": [
            {
              "internalType": "uint8",
              "name": "v",
              "type": "uint8"
            },
            {
              "internalType": "bytes32",
              "name": "r",
              "type": "bytes32"
            },
            {
              "internalType": "bytes32",
              "name": "s",
              "type": "bytes32"
            }
          ],
          "internalType": "struct IFlareSystemsManager.Signature",
          "name": "_signature",
          "type": "tuple"
        }
      ],
      "name": "submitUptimeVote",
      "outputs": [],
      "stateMutability": "nonpayable",
      "type": "function"
    },
    {
      "inputs": [],
      "name": "submitUptimeVoteMinDurationBlocks",
      "outputs": [
        {
          "internalType": "uint64",
          "name": "",
          "type": "uint64"
        }
      ],
      "stateMutability": "view",
      "type": "function"
    },
    {
      "inputs": [],
      "name": "submitUptimeVoteMinDurationSeconds",
      "outputs": [
        {
          "internalType": "uint64",
          "name": "",
          "type": "uint64"
        }
      ],
      "stateMutability": "view",
      "type": "function"
    },
    {
      "inputs": [],
      "name": "switchToFallbackMode",
      "outputs": [
        {
          "internalType": "bool",
          "name": "",
          "type": "bool"
        }
      ],
      "stateMutability": "view",
      "type": "function"
    },
    {
      "inputs": [],
      "name": "switchToProductionMode",
      "outputs": [],
      "stateMutability": "nonpayable",
      "type": "function"
    },
    {
      "inputs": [
        {
          "internalType": "bytes4",
          "name": "selector",
          "type": "bytes4"
        }
      ],
      "name": "timelockedCalls",
      "outputs": [
        {
          "internalType": "uint256",
          "name": "allowedAfterTimestamp",
          "type": "uint256"
        },
        {
          "internalType": "bytes",
          "name": "encodedCall",
          "type": "bytes"
        }
      ],
      "stateMutability": "view",
      "type": "function"
    },
    {
      "inputs": [],
      "name": "triggerExpirationAndCleanup",
      "outputs": [
        {
          "internalType": "bool",
          "name": "",
          "type": "bool"
        }
      ],
      "stateMutability": "view",
      "type": "function"
    },
    {
      "inputs": [
        {
          "internalType": "bytes32[]",
          "name": "_contractNameHashes",
          "type": "bytes32[]"
        },
        {
          "internalType": "address[]",
          "name": "_contractAddresses",
          "type": "address[]"
        }
      ],
      "name": "updateContractAddresses",
      "outputs": [],
      "stateMutability": "nonpayable",
      "type": "function"
    },
    {
      "inputs": [
        {
          "components": [
            {
              "internalType": "uint16",
              "name": "randomAcquisitionMaxDurationSeconds",
              "type": "uint16"
            },
            {
              "internalType": "uint16",
              "name": "randomAcquisitionMaxDurationBlocks",
              "type": "uint16"
            },
            {
              "internalType": "uint16",
              "name": "newSigningPolicyInitializationStartSeconds",
              "type": "uint16"
            },
            {
              "internalType": "uint8",
              "name": "newSigningPolicyMinNumberOfVotingRoundsDelay",
              "type": "uint8"
            },
            {
              "internalType": "uint16",
              "name": "voterRegistrationMinDurationSeconds",
              "type": "uint16"
            },
            {
              "internalType": "uint16",
              "name": "voterRegistrationMinDurationBlocks",
              "type": "uint16"
            },
            {
              "internalType": "uint16",
              "name": "submitUptimeVoteMinDurationSeconds",
              "type": "uint16"
            },
            {
              "internalType": "uint16",
              "name": "submitUptimeVoteMinDurationBlocks",
              "type": "uint16"
            },
            {
              "internalType": "uint24",
              "name": "signingPolicyThresholdPPM",
              "type": "uint24"
            },
            {
              "internalType": "uint16",
              "name": "signingPolicyMinNumberOfVoters",
              "type": "uint16"
            },
            {
              "internalType": "uint32",
              "name": "rewardExpiryOffsetSeconds",
              "type": "uint32"
            }
          ],
          "internalType": "struct FlareSystemsManager.Settings",
          "name": "_settings",
          "type": "tuple"
        }
      ],
      "name": "updateSettings",
      "outputs": [],
      "stateMutability": "nonpayable",
      "type": "function"
    },
    {
      "inputs": [
        {
          "internalType": "uint256",
          "name": "rewardEpochId",
          "type": "uint256"
        }
      ],
      "name": "uptimeVoteHash",
      "outputs": [
        {
          "internalType": "bytes32",
          "name": "",
          "type": "bytes32"
        }
      ],
      "stateMutability": "view",
      "type": "function"
    },
    {
      "inputs": [],
      "name": "voterRegistrationMinDurationBlocks",
      "outputs": [
        {
          "internalType": "uint64",
          "name": "",
          "type": "uint64"
        }
      ],
      "stateMutability": "view",
      "type": "function"
    },
    {
      "inputs": [],
      "name": "voterRegistrationMinDurationSeconds",
      "outputs": [
        {
          "internalType": "uint64",
          "name": "",
          "type": "uint64"
        }
      ],
      "stateMutability": "view",
      "type": "function"
    },
    {
      "inputs": [],
      "name": "voterRegistrationTriggerContract",
      "outputs": [
        {
          "internalType": "contract IIVoterRegistrationTrigger",
          "name": "",
          "type": "address"
        }
      ],
      "stateMutability": "view",
      "type": "function"
    },
    {
      "inputs": [],
      "name": "voterRegistry",
      "outputs": [
        {
          "internalType": "contract IIVoterRegistry",
          "name": "",
          "type": "address"
        }
      ],
      "stateMutability": "view",
      "type": "function"
    },
    {
      "inputs": [],
      "name": "votingEpochDurationSeconds",
      "outputs": [
        {
          "internalType": "uint64",
          "name": "",
          "type": "uint64"
        }
      ],
      "stateMutability": "view",
      "type": "function"
    }
  ],
  "bytecode": "0x6101406040526009805461ffff60281b1916650100000000001790553480156200002857600080fd5b5060405162006c7f38038062006c7f8339810160408190526200004b916200091e565b878a8a6200005a8282620003c2565b50620000869050817f714f205b2abd25bef1d06a1af944e38c113fe6160375c4e1d6d5cf28848e771955565b506001600160a01b038716620000d75760405162461bcd60e51b8152602060048201526011602482015270666c617265206461656d6f6e207a65726f60781b60448201526064015b60405180910390fd5b60008261ffff16116200012d5760405162461bcd60e51b815260206004820152601a60248201527f7265776172642065706f6368206475726174696f6e207a65726f0000000000006044820152606401620000ce565b60008460ff1611620001825760405162461bcd60e51b815260206004820152601a60248201527f766f74696e672065706f6368206475726174696f6e207a65726f0000000000006044820152606401620000ce565b805161ffff16620001c45760405162461bcd60e51b815260206004820152600b60248201526a7a65726f20626c6f636b7360a81b6044820152606401620000ce565b620001cf8662000537565b6001600160a01b03871660805263ffffffff851660e05260ff8416610100819052620001fc908462000afb565b62000208908662000b26565b63ffffffff1660a0526200022460ff851661ffff841662000b4d565b6001600160401b031660c052805161ffff166101205260208101516200024c90600162000b73565b60098054602084015165ffffffffffff60981b19909116600160981b62ffffff9485160262ffffff60b01b191617600160b01b9382169390930292909217905560c051906200029d90600162000b73565b62ffffff16620002ae919062000b4d565b60a051620002bd919062000b92565b60098054600160381b600160781b0319166701000000000000006001600160401b03939093169290920291909117905560408181015160208084015162ffffff1660009081526003909152829020600501805461ffff60601b19166c0100000000000000000000000061ffff93841602179055908701516200034191164262000bb5565b60095467010000000000000090046001600160401b031611620003b25760405162461bcd60e51b815260206004820152602260248201527f7265776172642065706f636820656e64206e6f7420696e207468652066757475604482015261726560f01b6064820152608401620000ce565b5050505050505050505062000beb565b600054600160a01b900460ff16156200041e5760405162461bcd60e51b815260206004820152601460248201527f696e697469616c6973656420213d2066616c73650000000000000000000000006044820152606401620000ce565b6001600160a01b038216620004765760405162461bcd60e51b815260206004820152601860248201527f676f7665726e616e63652073657474696e6773207a65726f00000000000000006044820152606401620000ce565b6001600160a01b038116620004c15760405162461bcd60e51b815260206004820152601060248201526f5f676f7665726e616e6365207a65726f60801b6044820152606401620000ce565b600080546001600160a01b038481166001600160a81b031990921691909117600160a01b17909155600180549183166001600160a01b0319909216821790556040519081527f9789733827840833afc031fb2ef9ab6894271f77bad2085687cf4ae5c7bee4db9060200160405180910390a15050565b620f424081610100015162ffffff1611156200058b5760405162461bcd60e51b81526020600482015260126024820152710e8d0e4cae6d0ded8c840e8dede40d0d2ced60731b6044820152606401620000ce565b600081610120015161ffff161180156200063b5750600a546001600160a01b031615806200063b575080610120015161ffff16600a60009054906101000a90046001600160a01b03166001600160a01b031663d5e50a636040518163ffffffff1660e01b8152600401602060405180830381865afa15801562000612573d6000803e3d6000fd5b505050506040513d601f19601f8201168201806040525081019062000638919062000bd1565b10155b620006895760405162461bcd60e51b815260206004820152601860248201527f696e76616c6964206e756d626572206f6620766f7465727300000000000000006044820152606401620000ce565b4281610140015163ffffffff161115620006d85760405162461bcd60e51b815260206004820152600f60248201526e65787069727920746f6f206c6f6e6760881b6044820152606401620000ce565b80516007805460208401516040850151606086015161014087015161ffff9687166001600160801b0319958616179387166801000000000000000090810294909417600160801b600160e01b031916928716600160801b90810263ffffffff60c01b19169390931760ff909216600160c01b908102929092176001600160e01b0316600160e01b63ffffffff909216919091021790945560808601516008805460a089015160c08a015160e08b0151948a169290971691909117908816909402939093176001600160801b03169386169091026001600160c01b031692909217918416909202179055610100820151600980546101209094015162ffffff90921664ffffffffff199094169390931763010000009190921602179055565b6001600160a01b03811681146200080c57600080fd5b50565b60405161016081016001600160401b03811182821017156200084157634e487b7160e01b600052604160045260246000fd5b60405290565b805161ffff811681146200085a57600080fd5b919050565b805160ff811681146200085a57600080fd5b805162ffffff811681146200085a57600080fd5b805163ffffffff811681146200085a57600080fd5b600060608284031215620008ad57600080fd5b604051606081016001600160401b0381118282101715620008de57634e487b7160e01b600052604160045260246000fd5b604052905080620008ef8362000847565b8152620008ff6020840162000871565b6020820152620009126040840162000847565b60408201525092915050565b6000806000806000806000806000808a8c036102c08112156200094057600080fd5b8b516200094d81620007f6565b60208d0151909b506200096081620007f6565b60408d0151909a506200097381620007f6565b60608d01519099506200098681620007f6565b9750610160607f19820112156200099c57600080fd5b50620009a76200080f565b620009b560808d0162000847565b8152620009c560a08d0162000847565b6020820152620009d860c08d0162000847565b6040820152620009eb60e08d016200085f565b6060820152620009ff6101008d0162000847565b608082015261012062000a14818e0162000847565b60a083015261014062000a29818f0162000847565b60c084015262000a3d6101608f0162000847565b60e084015262000a516101808f0162000871565b61010084015262000a666101a08f0162000847565b8284015262000a796101c08f0162000885565b9083015250955062000a8f6101e08c0162000885565b945062000aa06102008c016200085f565b935062000ab16102208c0162000885565b925062000ac26102408c0162000847565b915062000ad48c6102608d016200089a565b90509295989b9194979a5092959850565b634e487b7160e01b600052601160045260246000fd5b63ffffffff81811683821602808216919082811462000b1e5762000b1e62000ae5565b505092915050565b63ffffffff81811683821601908082111562000b465762000b4662000ae5565b5092915050565b6001600160401b0381811683821602808216919082811462000b1e5762000b1e62000ae5565b62ffffff81811683821601908082111562000b465762000b4662000ae5565b6001600160401b0381811683821601908082111562000b465762000b4662000ae5565b8082018082111562000bcb5762000bcb62000ae5565b92915050565b60006020828403121562000be457600080fd5b5051919050565b60805160a05160c05160e0516101005161012051615ff762000c8860003960008181610d0401526140c401526000818161082801528181613ef90152614ecd015260008181610d6201528181613f230152614e8801526000818161096f0152818161201501528181613c0701526146b30152600081816109480152613c31015260008181610a7701528181611ae601526137d10152615ff76000f3fe608060405234801561001057600080fd5b506004361061043d5760003560e01c806385f3c9c911610236578063c9f1d2aa1161013b578063e0d4ea37116100c3578063ed54fd6311610087578063ed54fd6314610d84578063ef88bf1314610d9e578063f21d630414610db1578063f5a9838314610dc0578063f5f5ba7214610dc857600080fd5b8063e0d4ea3714610d26578063e17f212e14610d39578063e22fdece14610d4d578063e7c830d414610d55578063e8d0e70a14610d5d57600080fd5b8063d8a01a0a1161010a578063d8a01a0a14610c6b578063dac4319d14610c85578063dc5a422514610cd9578063debfda3014610cec578063ded7c4b814610cff57600080fd5b8063c9f1d2aa14610b9c578063d10e807f14610be0578063d2e9ad7114610bfa578063d346691114610c4b57600080fd5b8063a72b826e116101be578063b00c0b761161018d578063b00c0b7614610aff578063b59589d114610b12578063b6c25af014610b25578063be60040e14610b76578063c263221614610b8957600080fd5b8063a72b826e14610aac578063a733d54b14610abf578063ab25ac5b14610ad6578063aec84ab614610ae957600080fd5b80639a759097116102055780639a75909714610a385780639b760d1314610a4b5780639dd6850f14610a5f578063a107753214610a72578063a219fe0214610a9957600080fd5b806385f3c9c91461096a57806388e49ac7146109915780638f8f9f3a146109a45780638fbaf86014610a2557600080fd5b80634eac870f11610347578063647006e2116102cf5780636d0e8c34116102935780636d0e8c34146108eb57806370562697146108f357806374e6310e1461090f57806375d2187a1461093057806379e047ed1461094357600080fd5b8063647006e21461087857806367daec891461089857806367fc4029146108ab5780636aeffddc146108be5780636b4c7bd6146108d857600080fd5b806359db0e2f1161031657806359db0e2f146107cf5780635a832088146108235780635aa6e6751461084a5780635ff270791461085257806362354e031461086557600080fd5b80634eac870f146107675780634eaee3071461077a5780634f923d37146107915780635267a15d146107a857600080fd5b80632a576f8d116103ca57806341c05ad51161039957806341c05ad5146106a55780634615d5e91461070b578063468315311461071e578063490344f4146107335780634c5287651461074d57600080fd5b80632a576f8d1461061f5780632e3645f814610632578063388a4c3d1461065a5780634134520b1461068857600080fd5b80630f4ef8a6116104115780630f4ef8a6146104fd578063107d8ffb146105285780631703a7881461053e5780631916e9151461056657806324eb64de1461060c57600080fd5b8062ddae531461044257806306886f41146104a557806309505d25146104ba578063098e7ff6146104d2575b600080fd5b610480610450366004615163565b62ffffff16600090815260036020819052604090912001546001600160401b0380821692600160401b9092041690565b604080516001600160401b039384168152929091166020830152015b60405180910390f35b6104b86104b33660046151c9565b610dfd565b005b6104c2610f94565b604051901515815260200161049c565b6007546104e5906001600160401b031681565b6040516001600160401b03909116815260200161049c565b600d54610510906001600160a01b031681565b6040516001600160a01b03909116815260200161049c565b6009546104c29065010000000000900460ff1681565b61055161054c36600461520a565b610fd1565b6040805192835290151560208301520161049c565b610480610574366004615238565b62ffffff919091166000818152600360209081526040808320600683528184205460058452828520548351808601979097528684019190915260608087019190915282518087039091018152608090950182528451948301949094208352600b90930181528282206001600160a01b03909416825260019093019092529020546001600160401b0380821692600160401b9092041690565b6104b861061a36600461526f565b611001565b6104b861062d3660046152a3565b61105c565b600954610647906301000000900461ffff1681565b60405161ffff909116815260200161049c565b61067a61066836600461520a565b60066020526000908152604090205481565b60405190815260200161049c565b610690611163565b60405163ffffffff909116815260200161049c565b6104806106b3366004615238565b62ffffff909116600090815260036020908152604080832060048352818420548452600a0182528083206001600160a01b0390941683526001909301905220546001600160401b0380821692600160401b9092041690565b61064761071936600461520a565b611172565b610726611203565b60405161049c91906152df565b6007546104e590600160401b90046001600160401b031681565b6008546104e590600160801b90046001600160401b031681565b600e54610510906001600160a01b031681565b60075461069090600160e01b900463ffffffff1681565b60095461069090600160781b900463ffffffff1681565b7f714f205b2abd25bef1d06a1af944e38c113fe6160375c4e1d6d5cf28848e771954610510565b6104806107dd366004615238565b62ffffff90911660009081526003602090815260408083206001600160a01b0390941683526009909301905220546001600160401b0380821692600160401b9092041690565b6104e57f000000000000000000000000000000000000000000000000000000000000000081565b610510611265565b6104b8610860366004615320565b6112fc565b600054610510906001600160a01b031681565b61067a61088636600461520a565b60056020526000908152604090205481565b6104b86108a6366004615358565b61157c565b6104b86108b9366004615320565b6115c8565b6007546104e590600160801b90046001600160401b031681565b6104b86108e6366004615387565b6116a9565b6104c2611ad9565b6108fb6127af565b60405162ffffff909116815260200161049c565b61092261091d366004615320565b6127b9565b60405161049c929190615414565b61069061093e36600461520a565b61285e565b6104e57f000000000000000000000000000000000000000000000000000000000000000081565b6104e57f000000000000000000000000000000000000000000000000000000000000000081565b600f54610510906001600160a01b031681565b6109f26109b2366004615163565b62ffffff166000908152600360205260409020546001600160401b0380821692600160401b8304821692600160801b8104831692600160c01b9091041690565b604080516001600160401b039586168152938516602085015291841691830191909152909116606082015260800161049c565b6104b8610a333660046154e4565b6128ed565b600b54610510906001600160a01b031681565b6009546104c290600160301b900460ff1681565b6104b8610a6d3660046155be565b612925565b6105107f000000000000000000000000000000000000000000000000000000000000000081565b6008546104e5906001600160401b031681565b6104b8610aba366004615358565b612b95565b60075461069090600160c01b900463ffffffff1681565b6104b8610ae4366004615623565b612be2565b6009546108fb90600160981b900462ffffff1681565b6104b8610b0d3660046156fd565b613098565b600c54610510906001600160a01b031681565b6109f2610b33366004615163565b62ffffff166000908152600360205260409020600201546001600160401b0380821692600160401b8304821692600160801b8104831692600160c01b9091041690565b600a54610510906001600160a01b031681565b6104e5610b9736600461520a565b613173565b610480610baa366004615163565b62ffffff16600090815260036020819052604090912001546001600160401b03600160801b8204811692600160c01b9092041690565b6008546104e590600160401b90046001600160401b031681565b6109f2610c08366004615163565b62ffffff166000908152600360205260409020600101546001600160401b0380821692600160401b8304821692600160801b8104831692600160c01b9091041690565b61067a610c5936600461520a565b60046020526000908152604090205481565b6008546104e590600160c01b90046001600160401b031681565b610480610c93366004615238565b62ffffff90911660009081526003602090815260408083206001600160a01b0390941683526007909301905220546001600160401b0380821692600160401b9092041690565b6104b8610ce7366004615387565b6131ef565b6104c2610cfa36600461526f565b6136bc565b6104e57f000000000000000000000000000000000000000000000000000000000000000081565b61067a610d3436600461520a565b613745565b6000546104c290600160a81b900460ff1681565b6104c26137c4565b61067a613838565b6104e57f000000000000000000000000000000000000000000000000000000000000000081565b6009546104e590600160381b90046001600160401b031681565b6104b8610dac3660046157b5565b61384c565b6009546108fb9062ffffff1681565b6104b86139b2565b6040805180820182526013815272233630b932a9bcb9ba32b6b9a6b0b730b3b2b960691b6020820152905161049c91906157d3565b600054600160b01b900460ff1680610e1f5750600054600160a81b900460ff16155b15610f8557610e2c613a78565b610e38601060006150e7565b8060005b81811015610f7f576000848483818110610e5857610e586157e6565b9050602002016020810190610e6d919061526f565b90506000610e7c836001615812565b90505b83811015610f1c57858582818110610e9957610e996157e6565b9050602002016020810190610eae919061526f565b6001600160a01b0316826001600160a01b031603610f0a5760405162461bcd60e51b81526020600482015260146024820152736475706c69636174656420636f6e74726163747360601b60448201526064015b60405180910390fd5b80610f1481615825565b915050610e7f565b50601080546001810182556000919091527f1b6847dc741a1b0cd08d278845f9d819d87b734759afb55fe2de5cb82a9ae6720180546001600160a01b0319166001600160a01b039290921691909117905580610f7781615825565b915050610e3c565b50505050565b610f90600036613ab2565b5050565b600080610f9f613bfe565b610faa90600161583e565b62ffffff166000818152600360205260409020909150610fcb908290613c92565b91505090565b600081815260036020526040812060058101546001600160401b03169190610ffa908490613c92565b9050915091565b600054600160b01b900460ff16806110235750600054600160a81b900460ff16155b1561104e57611030613a78565b600f80546001600160a01b0319166001600160a01b03831617905550565b611059600036613ab2565b50565b611064613da6565b806110a55760405162461bcd60e51b8152602060048201526011602482015270726577617264732068617368207a65726f60781b6044820152606401610f01565b6110ae83613e00565b62ffffff83166000908152600560209081526040808320849055600690915290206001600160401b03831690556110e3611265565b6001600160a01b03166110f4611265565b6001600160a01b03168462ffffff167f80df246a47153e3604b0026fcf53ec85ea48178efd4f3cad24f9a1e1da2dd52a848661112f42613eb8565b604080519384526001600160401b0392831660208501529116908201526001606082015260800160405180910390a4505050565b600061116d613ef2565b905090565b60008181526003602052604081206001015482906001600160401b031682036111dd5760405162461bcd60e51b815260206004820181905260248201527f7265776172642065706f6368206e6f7420696e697469616c697a6564207965746044820152606401610f01565b600083815260036020526040902060050154600160601b900461ffff1691505b50919050565b6060601080548060200260200160405190810160405280929190818152602001828054801561125b57602002820191906000526020600020905b81546001600160a01b0316815260019091019060200180831161123d575b5050505050905090565b60008054600160a81b900460ff1661128757506001546001600160a01b031690565b60008054906101000a90046001600160a01b03166001600160a01b031663732524946040518163ffffffff1660e01b8152600401602060405180830381865afa1580156112d8573d6000803e3d6000fd5b505050506040513d601f19601f8201168201806040525081019061116d9190615861565b611305336136bc565b6113415760405162461bcd60e51b815260206004820152600d60248201526c37b7363c9032bc32b1baba37b960991b6044820152606401610f01565b6001600160e01b03198116600090815260026020526040812080549091036113ab5760405162461bcd60e51b815260206004820152601a60248201527f74696d656c6f636b3a20696e76616c69642073656c6563746f720000000000006044820152606401610f01565b80544210156113fc5760405162461bcd60e51b815260206004820152601960248201527f74696d656c6f636b3a206e6f7420616c6c6f77656420796574000000000000006044820152606401610f01565b600081600101805461140d9061587e565b80601f01602080910402602001604051908101604052809291908181526020018280546114399061587e565b80156114865780601f1061145b57610100808354040283529160200191611486565b820191906000526020600020905b81548152906001019060200180831161146957829003601f168201915b505050506001600160e01b03198516600090815260026020526040812081815592935090506114b86001830182615105565b50506000805460ff60b01b1916600160b01b17815560405130906114dd9084906158b2565b6000604051808303816000865af19150503d806000811461151a576040519150601f19603f3d011682016040523d82523d6000602084013e61151f565b606091505b50506000805460ff60b01b19169055604080516001600160e01b0319871681524260208201529192507fa7326b57fc9cfe267aaea5e7f0b01757154d265620a0585819416ee9ddd2c438910160405180910390a1610f7f81613f65565b600054600160b01b900460ff168061159e5750600054600160a81b900460ff16155b1561104e576115ab613a78565b6009805466ff0000000000001916600160301b8315150217905550565b6115d0613da6565b6001600160e01b0319811660009081526002602052604081205490036116385760405162461bcd60e51b815260206004820152601a60248201527f74696d656c6f636b3a20696e76616c69642073656c6563746f720000000000006044820152606401610f01565b604080516001600160e01b0319831681524260208201527f7735b2391c38a81419c513e30ca578db7158eadd7101511b23e221c654d19cf8910160405180910390a16001600160e01b031981166000908152600260205260408120818155906116a46001830182615105565b505050565b81158015906116bf5750816116bd84613f82565b145b61170b5760405162461bcd60e51b815260206004820152601f60248201527f6e6577207369676e696e6720706f6c696379206861736820696e76616c6964006044820152606401610f01565b62ffffff831660009081526003602052604090206001810154600160801b90046001600160401b03161561178b5760405162461bcd60e51b815260206004820152602160248201527f6e6577207369676e696e6720706f6c69637920616c7265616479207369676e656044820152601960fa1b6064820152608401610f01565b600061179684613ff4565b905060006117ba826117ab60208701876158ce565b86602001358760400135614027565b600a5490915060009081906001600160a01b0316638c6457286117de60018b6158e9565b6040516001600160e01b031960e084901b16815262ffffff90911660048201526001600160a01b03861660248201526044016040805180830381865afa15801561182c573d6000803e3d6000fd5b505050506040513d601f19601f820116820180604052508101906118509190615910565b90925090506001600160a01b03821661187b5760405162461bcd60e51b8152600401610f019061593f565b6001600160a01b03821660009081526007860160205260409020546001600160401b0316156118ec5760405162461bcd60e51b815260206004820152601e60248201527f7369676e696e67206164647265737320616c7265616479207369676e656400006044820152606401610f01565b604051806040016040528061190042613eb8565b6001600160401b0316815260200161191743613eb8565b6001600160401b039081169091526001600160a01b0384166000908152600788016020908152604082208451815495909201518416600160401b026001600160801b0319909516919093161792909217905560038161197760018c6158e9565b62ffffff168152602081019190915260400160002060050154600687015461ffff600160601b9092048216916119af9185911661596a565b61ffff161190508015611a31576119c542613eb8565b8660010160106101000a8154816001600160401b0302191690836001600160401b031602179055506119f643613eb8565b6001870180546001600160401b0392909216600160c01b026001600160c01b0390921691909117905560068601805461ffff19169055611a67565b600686018054839190600090611a4c90849061ffff1661596a565b92506101000a81548161ffff021916908361ffff1602179055505b826001600160a01b0316846001600160a01b03168a62ffffff167f154b0214ae62d8a5548c1eac25fabd87c38b04932a217732e1022f3118da67f3611aab42613eb8565b604080516001600160401b0390921682528615156020830152015b60405180910390a4505050505050505050565b6000336001600160a01b037f00000000000000000000000000000000000000000000000000000000000000001614611b475760405162461bcd60e51b815260206004820152601160248201527037b7363c90333630b932903230b2b6b7b760791b6044820152606401610f01565b6000611b51613ef2565b90506000611b5d613bfe565b6007546009549192508291611b8c916001600160401b03600160801b909104811691600160381b900416615985565b6001600160401b031642106121a6576000611ba883600161583e565b90506000611bb582613f82565b036120025762ffffff81166000908152600360205260408120805490916001600160401b039091169003611cea57611bec42613eb8565b815467ffffffffffffffff19166001600160401b0391909116178155611c1143613eb8565b81546001600160401b0391909116600160401b0267ffffffffffffffff60401b19909116178155600a54604051635213182360e01b815262ffffff841660048201526001600160a01b0390911690635213182390602401600060405180830381600087803b158015611c8257600080fd5b505af1158015611c96573d6000803e3d6000fd5b505050508162ffffff167ff9991783e5e480e42d9a54d3f35f4321857f8f0ebeb3742d326dce28b1126708611cca42613eb8565b6040516001600160401b03909116815260200160405180910390a2612000565b8054600160801b90046001600160401b0316600003611f87576000806000600c60009054906101000a90046001600160a01b03166001600160a01b031663dbdff2c16040518163ffffffff1660e01b8152600401606060405180830381865afa158015611d5b573d6000803e3d6000fd5b505050506040513d601f19601f82011682018060405250810190611d7f91906159a5565b865492955090935091506000906001600160401b031682118015611da05750825b15611db657611daf8685614055565b9050611e70565b60075485544391611dde916001600160401b03600160401b92839004811692909104166159de565b6001600160401b0316108015611e17575060075485544291611e0c916001600160401b0391821691166159de565b6001600160401b0316105b15611e70575062ffffff87166000908152600360205260409020600501546001600160401b03168015611e635762ffffff88166000908152600360205260409020600401549350611e70565b611e6d8685614055565b90505b6001600160401b03811615611f7e5743816001600160401b031610611e9757611e976159fe565b611ea042613eb8565b85546001600160401b0391909116600160801b0267ffffffffffffffff60801b19909116178555611ed043613eb8565b85546001600160c01b0316600160c01b6001600160401b039283160217865560058601805467ffffffffffffffff19169183169190911790556004850184905562ffffff86167ff21722dbe044a7cea0f6d81c871cae750971e36c9dd10999e46f2b46f26ac7ff82611f4142613eb8565b604080516001600160401b0393841681529290911660208301520160405180910390a2600f546001600160a01b031615611f7e57611f7e8661413f565b50505050612000565b611f968262ffffff1682613c92565b61200057611fa342613eb8565b60018201805467ffffffffffffffff19166001600160401b0392909216919091179055611fcf43613eb8565b8160010160086101000a8154816001600160401b0302191690836001600160401b03160217905550612000826141da565b505b61200b816143b9565b156121a4578092507f0000000000000000000000000000000000000000000000000000000000000000600960078282829054906101000a90046001600160401b031661205791906159de565b92506101000a8154816001600160401b0302191690836001600160401b0316021790555061208442613eb8565b62ffffff8416600090815260036020819052604090912001805467ffffffffffffffff19166001600160401b03929092169190911790556120c443613eb8565b62ffffff84166000818152600360208190526040909120908101805467ffffffffffffffff60401b1916600160401b6001600160401b039590951685021790556005015490917f4abb62ab1e4c42a11b90e4e45b92af1274f74cc634b759518e8c99e000d8be6d910463ffffffff1661213c42613eb8565b6040805163ffffffff90931683526001600160401b0390911660208301520160405180910390a2600954600160301b900460ff16156121865761217e83614429565b61218661459d565b6009546121a4908490600160381b90046001600160401b031661465d565b505b60095463ffffffff600160781b909104811690841611156123ed576009805463ffffffff60781b1916600160781b63ffffffff861602179055600a54604051637c2cb92160e01b815262ffffff83166004820152606091829182916001600160a01b031690637c2cb92190602401600060405180830381865afa158015612231573d6000803e3d6000fd5b505050506040513d6000823e601f3d908101601f191682016040526122599190810190615a78565b600a54604051635b0dabfd60e11b815262ffffff871660048201529193506001600160a01b03169063b61b57fa90602401600060405180830381865afa1580156122a7573d6000803e3d6000fd5b505050506040513d6000823e601f3d908101601f191682016040526122cf9190810190615a78565b90508362ffffff168562ffffff16111561235f57600a54604051637c2cb92160e01b815262ffffff871660048201526001600160a01b0390911690637c2cb92190602401600060405180830381865afa158015612330573d6000803e3d6000fd5b505050506040513d6000823e601f3d908101601f191682016040526123589190810190615a78565b9250612363565b8192505b600b546009546001600160a01b039091169063f8ae8a2f908590859065010000000000900460ff166123955785612397565b865b856040518563ffffffff1660e01b81526004016123b79493929190615af0565b600060405180830381600087803b1580156123d157600080fd5b505af11580156123e5573d6000803e3d6000fd5b505050505050505b60095460009061240a90600160b01b900462ffffff16600161583e565b90508062ffffff168362ffffff1611801561244b575062ffffff811660009081526003602081905260409091200154600160801b90046001600160401b0316155b156125e557600060038161246084600161583e565b62ffffff16815260208101919091526040016000206008546003820154919250429161249f916001600160401b03600160801b909104811691166159de565b6001600160401b03161080156124ea5750600854600382015443916124df916001600160401b03600160c01b909204821691600160401b909104166159de565b6001600160401b0316105b156125e3576009805462ffffff60b01b1916600160b01b62ffffff85160217905561251442613eb8565b62ffffff831660009081526003602081905260409091200180546001600160401b0392909216600160801b0267ffffffffffffffff60801b1990921691909117905561255f43613eb8565b62ffffff831660008181526003602081905260409091200180546001600160401b0393909316600160c01b026001600160c01b03909316929092179091557f235cef7d085c1e59545613282d239e56eb0cd056135aa46b8c658cf54a0785616125c742613eb8565b6040516001600160401b03909116815260200160405180910390a25b505b600954600160301b900460ff166127a457600d546040805163deea13e760e01b815290516000926001600160a01b03169163deea13e79160048083019260209291908290030181865afa158015612640573d6000803e3d6000fd5b505050506040513d601f19601f820116820180604052508101906126649190615b3d565b90505b60095462ffffff808616600160981b909204161080156126af5750600954600160981b900462ffffff166000908152600360205260409020600501546001600160401b031681115b156127a257600d54600954604051636b60edf760e11b8152600160981b90910462ffffff1660048201526001600160a01b039091169063d6c1dbee90602401600060405180830381600087803b15801561270857600080fd5b505af1925050508015612719575060015b61276457600954604051600160981b90910462ffffff1681527fc0cded1f60001401da804c8a7703c1e8dc60521fca0f0f9853e2f1984b5410ba9060200160405180910390a16127a2565b60098054600160981b900462ffffff1690601361278083615b56565b91906101000a81548162ffffff021916908362ffffff16021790555050612667565b505b600194505050505090565b600061116d613bfe565b600260205260009081526040902080546001820180549192916127db9061587e565b80601f01602080910402602001604051908101604052809291908181526020018280546128079061587e565b80156128545780601f1061282957610100808354040283529160200191612854565b820191906000526020600020905b81548152906001019060200180831161283757829003601f168201915b5050505050905082565b60008181526003602052604081206001015482906001600160401b031682036128c95760405162461bcd60e51b815260206004820181905260248201527f7265776172642065706f6368206e6f7420696e697469616c697a6564207965746044820152606401610f01565b5050600090815260036020526040902060050154600160401b900463ffffffff1690565b600054600160b01b900460ff168061290f5750600054600160a81b900460ff16155b1561104e5761291c613a78565b61105981614732565b61292d613bfe565b62ffffff168462ffffff16106129555760405162461bcd60e51b8152600401610f0190615b78565b62ffffff8416600090815260036020819052604090912090810154600160801b90046001600160401b0316156129cd5760405162461bcd60e51b815260206004820181905260248201527f7375626d697420757074696d6520766f746520616c726561647920656e6465646044820152606401610f01565b60008585856040516020016129e493929190615bfa565b6040516020818303038152906040528051906020012090506000612a0782613ff4565b90506000612a2b82612a1c60208801886158ce565b87602001358860400135614027565b600a5460405163118c8ae560e31b815262ffffff8b1660048201526001600160a01b03808416602483015292935060009290911690638c645728906044016040805180830381865afa158015612a85573d6000803e3d6000fd5b505050506040513d601f19601f82011682018060405250810190612aa99190615910565b5090506001600160a01b038116612ad25760405162461bcd60e51b8152600401610f019061593f565b6040518060400160405280612ae642613eb8565b6001600160401b03168152602001612afd43613eb8565b6001600160401b039081169091526001600160a01b03808416600081815260098a01602090815260409091208551815496909201518516600160401b026001600160801b0319909616919094161793909317909155831662ffffff8b167fed370d61eb315e1d46d979894585530b99f94dab64c0d40366685aebe39e3db08b8b612b8642613eb8565b604051611ac693929190615c19565b600054600160b01b900460ff1680612bb75750600054600160a81b900460ff16155b1561104e57612bc4613a78565b6009805465ff00000000001916650100000000008315150217905550565b81612c235760405162461bcd60e51b8152602060048201526011602482015270726577617264732068617368207a65726f60781b6044820152606401610f01565b612c2c84613e00565b62ffffff84166000908152600360209081526040808320600490925290912054612c985760405162461bcd60e51b815260206004820152601f60248201527f757074696d6520766f74652068617368206e6f74207369676e656420796574006044820152606401610f01565b62ffffff851660009081526005602052604090205415612cfa5760405162461bcd60e51b815260206004820152601b60248201527f72657761726473206861736820616c7265616479207369676e656400000000006044820152606401610f01565b6040805162ffffff871660208201526001600160401b03861691810191909152606081018490526000906080016040516020818303038152906040528051906020012090506000612d4a82613ff4565b90506000612d5f82612a1c60208801886158ce565b600a5460405163118c8ae560e31b815262ffffff8b1660048201526001600160a01b03808416602483015292935060009283921690638c645728906044016040805180830381865afa158015612db9573d6000803e3d6000fd5b505050506040513d601f19601f82011682018060405250810190612ddd9190615910565b90925090506001600160a01b038216612e085760405162461bcd60e51b8152600401610f019061593f565b6000858152600b8701602090815260408083206001600160a01b03861684526001019091529020546001600160401b031615612e7d5760405162461bcd60e51b81526020600482015260146024820152731d9bdd195c88185b1c9958591e481cda59db995960621b6044820152606401610f01565b6040518060400160405280612e9142613eb8565b6001600160401b03168152602001612ea843613eb8565b6001600160401b039081169091526000878152600b8901602081815260408084206001600160a01b038916855260018101835290842086518154978401518716600160401b026001600160801b03199098169616959095179590951790935560058a01548983529252915461ffff600160601b909204821691612f2d9185911661596a565b61ffff161190508015612fd657612f4342613eb8565b8760020160106101000a8154816001600160401b0302191690836001600160401b03160217905550612f7443613eb8565b6002880180546001600160c01b0316600160c01b6001600160401b039384160217905562ffffff8c1660009081526005602090815260408083208d905560068252808320938e16909355888252600b8a01905220805461ffff19169055613015565b6000868152600b8801602052604081208054849290612ffa90849061ffff1661596a565b92506101000a81548161ffff021916908361ffff1602179055505b826001600160a01b0316846001600160a01b03168c62ffffff167f80df246a47153e3604b0026fcf53ec85ea48178efd4f3cad24f9a1e1da2dd52a8c8e61305b42613eb8565b604080519384526001600160401b039283166020850152911690820152851515606082015260800160405180910390a45050505050505050505050565b7f714f205b2abd25bef1d06a1af944e38c113fe6160375c4e1d6d5cf28848e7719546001600160a01b0316336001600160a01b0316146131115760405162461bcd60e51b815260206004820152601460248201527337b7363c9030b2323932b9b9903ab83230ba32b960611b6044820152606401610f01565b61316961314583836040518060400160405280600e81526020016d20b2323932b9b9aab83230ba32b960911b8152506149ef565b7f714f205b2abd25bef1d06a1af944e38c113fe6160375c4e1d6d5cf28848e771955565b610f908282614aca565b6000818152600360205260408120600501546001600160401b0316908190036131ea5760405162461bcd60e51b8152602060048201526024808201527f766f746520706f77657220626c6f636b206e6f7420696e697469616c697a6564604482015263081e595d60e21b6064820152608401610f01565b919050565b816132345760405162461bcd60e51b8152602060048201526015602482015274757074696d6520766f74652068617368207a65726f60581b6044820152606401610f01565b62ffffff83166000908152600360205260409020613250613bfe565b62ffffff168462ffffff16106132785760405162461bcd60e51b8152600401610f0190615b78565b6003810154600160801b90046001600160401b03166000036132dc5760405162461bcd60e51b815260206004820181905260248201527f7369676e20757074696d6520766f7465206e6f742073746172746564207965746044820152606401610f01565b62ffffff84166000908152600460205260409020541561333e5760405162461bcd60e51b815260206004820152601f60248201527f757074696d6520766f7465206861736820616c7265616479207369676e6564006044820152606401610f01565b6040805162ffffff86166020820152908101849052600090606001604051602081830303815290604052805190602001209050600061337c82613ff4565b9050600061339182612a1c60208801886158ce565b600a5460405163118c8ae560e31b815262ffffff8a1660048201526001600160a01b03808416602483015292935060009283921690638c645728906044016040805180830381865afa1580156133eb573d6000803e3d6000fd5b505050506040513d601f19601f8201168201806040525081019061340f9190615910565b90925090506001600160a01b03821661343a5760405162461bcd60e51b8152600401610f019061593f565b6000888152600a8701602090815260408083206001600160a01b03861684526001019091529020546001600160401b0316156134af5760405162461bcd60e51b81526020600482015260146024820152731d9bdd195c88185b1c9958591e481cda59db995960621b6044820152606401610f01565b60405180604001604052806134c342613eb8565b6001600160401b031681526020016134da43613eb8565b6001600160401b0390811690915260008a8152600a8901602081815260408084206001600160a01b038916855260018101835290842086518154978401518716600160401b026001600160801b03199098169616959095179590951790935560058a01548c83529252915461ffff600160601b90920482169161355f9185911661596a565b61ffff1611905080156136035761357542613eb8565b60028801805467ffffffffffffffff19166001600160401b03929092169190911790556135a143613eb8565b6002880180546001600160401b0392909216600160401b0267ffffffffffffffff60401b1990921691909117905562ffffff8a1660009081526004602090815260408083208c90558b8352600a8a019091529020805461ffff19169055613642565b6000898152600a880160205260408120805484929061362790849061ffff1661596a565b92506101000a81548161ffff021916908361ffff1602179055505b826001600160a01b0316846001600160a01b03168b62ffffff167f5506337d1266599f8b64675a1c8321701657ca2f2f70be0e0c58302b6c22e7978c61368742613eb8565b604080519283526001600160401b0390911660208301528615159082015260600160405180910390a450505050505050505050565b60008054600160a01b900460ff16801561373f5750600054604051630debfda360e41b81526001600160a01b0384811660048301529091169063debfda3090602401602060405180830381865afa15801561371b573d6000803e3d6000fd5b505050506040513d601f19601f8201168201806040525081019061373f9190615c46565b92915050565b6000818152600360205260408120600501546001600160401b031681036137ae5760405162461bcd60e51b815260206004820152601860248201527f73656564206e6f7420696e697469616c697a65642079657400000000000000006044820152606401610f01565b5060009081526003602052604090206004015490565b6000336001600160a01b037f000000000000000000000000000000000000000000000000000000000000000016146138325760405162461bcd60e51b815260206004820152601160248201527037b7363c90333630b932903230b2b6b7b760791b6044820152606401610f01565b50600090565b6000613842613bfe565b62ffffff16905090565b600054600160a01b900460ff161561389d5760405162461bcd60e51b8152602060048201526014602482015273696e697469616c6973656420213d2066616c736560601b6044820152606401610f01565b6001600160a01b0382166138f35760405162461bcd60e51b815260206004820152601860248201527f676f7665726e616e63652073657474696e6773207a65726f00000000000000006044820152606401610f01565b6001600160a01b03811661393c5760405162461bcd60e51b815260206004820152601060248201526f5f676f7665726e616e6365207a65726f60801b6044820152606401610f01565b600080546001600160a01b038481166001600160a81b031990921691909117600160a01b17909155600180549183166001600160a01b0319909216821790556040519081527f9789733827840833afc031fb2ef9ab6894271f77bad2085687cf4ae5c7bee4db9060200160405180910390a15050565b6139ba613da6565b600054600160a81b900460ff1615613a145760405162461bcd60e51b815260206004820152601a60248201527f616c726561647920696e2070726f64756374696f6e206d6f64650000000000006044820152606401610f01565b600180546001600160a01b031916905560008054600160a81b60ff60a81b198216179091556040516001600160a01b0390911681527f83af113638b5422f9e977cebc0aaf0eaf2188eb9a8baae7f9d46c42b33a1560c9060200160405180910390a1565b600054600160b01b900460ff1615613aa857333014613a9957613a996159fe565b6000805460ff60b01b19169055565b613ab0613da6565b565b613aba613da6565b6000805460408051636221a54b60e01b81529051853593926001600160a01b031691636221a54b9160048083019260209291908290030181865afa158015613b06573d6000803e3d6000fd5b505050506040513d601f19601f82011682018060405250810190613b2a9190615b3d565b90506000613b388242615812565b9050604051806040016040528082815260200186868080601f01602080910402602001604051908101604052809392919081815260200183838082843760009201829052509390945250506001600160e01b03198616815260026020908152604090912083518155908301519091506001820190613bb69082615cb1565b509050507fed948300a3694aa01d4a6b258bfd664350193d770c0b51f8387277f6d83ea3b683828787604051613bef9493929190615d70565b60405180910390a15050505050565b600061116d60017f00000000000000000000000000000000000000000000000000000000000000006001600160401b03167f0000000000000000000000000000000000000000000000000000000000000000600960079054906101000a90046001600160401b0316613c709190615985565b6001600160401b0316613c839190615dcc565b613c8d9190615de0565b614c7b565b8054600090600160801b90046001600160401b031615801590613d9f57506008548254613cd2916001600160401b0390811691600160801b9004166159de565b6001600160401b031642111580613d1a57506008548254613d0d916001600160401b03600160401b909104811691600160c01b9004166159de565b6001600160401b03164311155b80613d9f5750600954600a54604051630da7a50d60e21b815260048101869052630100000090920461ffff16916001600160a01b039091169063369e943490602401602060405180830381865afa158015613d79573d6000803e3d6000fd5b505050506040513d601f19601f82011682018060405250810190613d9d9190615b3d565b105b9392505050565b613dae611265565b6001600160a01b0316336001600160a01b031614613ab05760405162461bcd60e51b815260206004820152600f60248201526e6f6e6c7920676f7665726e616e636560881b6044820152606401610f01565b613e08613bfe565b62ffffff168162ffffff1610613e305760405162461bcd60e51b8152600401610f0190615b78565b60036000613e3f83600161583e565b62ffffff1681526020810191909152604001600090812060010154600160801b90046001600160401b031690036110595760405162461bcd60e51b815260206004820152601d60248201527f7369676e696e6720706f6c696379206e6f74207369676e6564207965740000006044820152606401610f01565b60006001600160401b03821115613eee57604080516306dfcc6560e41b8152600481019190915260248101839052604401610f01565b5090565b600061116d7f00000000000000000000000000000000000000000000000000000000000000006001600160401b03167f00000000000000000000000000000000000000000000000000000000000000006001600160401b031642613f569190615de0565b613f609190615dcc565b614cab565b3d604051818101604052816000823e8215613f7e578181f35b8181fd5b600c54604051630c85bf0760e01b815262ffffff831660048201526000916001600160a01b031690630c85bf0790602401602060405180830381865afa158015613fd0573d6000803e3d6000fd5b505050506040513d601f19601f8201168201806040525081019061373f9190615b3d565b7f19457468657265756d205369676e6564204d6573736167653a0a3332000000006000908152601c91909152603c902090565b60008060008061403988888888614cdc565b9250925092506140498282614dab565b50909695505050505050565b6000806003816140666001876158e9565b62ffffff9081168252602080830193909352604091820160009081205491881681526003909352908220546001600160401b03600160401b928390048116945091900416908281036140fd576140f66140f1836001600160401b03167f00000000000000000000000000000000000000000000000000000000000000006001600160401b0316614e64565b613eb8565b905061410a565b6141078383615985565b90505b600061411f6001600160401b03831687615df3565b905061412a81613eb8565b6141349084615985565b979650505050505050565b600f54604051637b83fb0960e11b815262ffffff831660048201526001600160a01b039091169063f707f61290602401600060405180830381600087803b15801561418957600080fd5b505af192505050801561419a575060015b6110595760405162ffffff821681527f449d255b9c487823db86822a857f218d40682abada12acee2483788dc2fa975a906020015b60405180910390a150565b62ffffff81166000818152600360209081526040808320815160c0810183529283018490529082018390526060808301939093526080820183905260a082019290925291825290614229614e7a565b63ffffffff166020820152600a5460405163c452e47f60e01b815262ffffff851660048201526000916001600160a01b03169063c452e47f906024016000604051808303816000875af1158015614284573d6000803e3d6000fd5b505050506040513d6000823e601f3d908101601f191682016040526142ac9190810190615e07565b60a0850191909152608084019190915260095461ffff90911691506142e4906142df90839062ffffff16620f4240614f52565b614f92565b61ffff16604080840182905260048086015460608601526020850151600587018054600160601b90950261ffff60601b1963ffffffff909316600160401b02929092166dffffffffffff0000000000000000199095169490941717909255600c549051638353412560e01b81526001600160a01b039091169163835341259161436f91869101615ed1565b6020604051808303816000875af115801561438e573d6000803e3d6000fd5b505050506040513d601f19601f820116820180604052508101906143b29190615b3d565b5050505050565b600954600090600160381b90046001600160401b031642108015906143e7575060006143e483613f82565b14155b801561373f575062ffffff8216600090815260036020526040902060050154600160401b900463ffffffff1661441b613ef2565b63ffffffff16101592915050565b60075460009061444690600160e01b900463ffffffff1642615de0565b90505b60095462ffffff808416600160981b909204161080156144ab5750600954819060039060009061448690600160981b900462ffffff16600161583e565b62ffffff1681526020810191909152604001600020600301546001600160401b031611155b15610f9057600d54600954604051636b60edf760e11b8152600160981b90910462ffffff1660048201526001600160a01b039091169063d6c1dbee90602401600060405180830381600087803b15801561450457600080fd5b505af1925050508015614515575060015b61455f57600954604051600160981b90910462ffffff1681527fc0cded1f60001401da804c8a7703c1e8dc60521fca0f0f9853e2f1984b5410ba9060200160405180910390a15050565b60098054600160981b900462ffffff1690601361457b83615b56565b91906101000a81548162ffffff021916908362ffffff16021790555050614449565b600954600160981b900462ffffff166000908152600360205260409081902060050154600e54915163cbc31cf760e01b81526001600160401b0390911660048201819052916001600160a01b03169063cbc31cf790602401600060405180830381600087803b15801561460f57600080fd5b505af1925050508015614620575060015b611059576040516001600160401b03821681527fe9a7be2e41a6b0b36d253d56488c6844e611be2bffd8dd4b69b89a078f41fecc906020016141cf565b60005b6010548110156116a4576010818154811061467d5761467d6157e6565b6000918252602090912001546040516391f2567960e01b815262ffffff851660048201526001600160401b0380851660248301527f00000000000000000000000000000000000000000000000000000000000000001660448201526001600160a01b03909116906391f2567990606401600060405180830381600087803b15801561470757600080fd5b505af115801561471b573d6000803e3d6000fd5b50505050808061472a90615825565b915050614660565b620f424081610100015162ffffff1611156147845760405162461bcd60e51b81526020600482015260126024820152710e8d0e4cae6d0ded8c840e8dede40d0d2ced60731b6044820152606401610f01565b600081610120015161ffff1611801561482f5750600a546001600160a01b0316158061482f575080610120015161ffff16600a60009054906101000a90046001600160a01b03166001600160a01b031663d5e50a636040518163ffffffff1660e01b8152600401602060405180830381865afa158015614808573d6000803e3d6000fd5b505050506040513d601f19601f8201168201806040525081019061482c9190615b3d565b10155b61487b5760405162461bcd60e51b815260206004820152601860248201527f696e76616c6964206e756d626572206f6620766f7465727300000000000000006044820152606401610f01565b4281610140015163ffffffff1611156148c85760405162461bcd60e51b815260206004820152600f60248201526e65787069727920746f6f206c6f6e6760881b6044820152606401610f01565b80516007805460208401516040850151606086015161014087015161ffff9687166001600160801b031995861617938716600160401b908102949094176bffffffffffffffffffffffff60801b1916928716600160801b90810263ffffffff60c01b19169390931760ff909216600160c01b908102929092176001600160e01b0316600160e01b63ffffffff909216919091021790945560808601516008805460a089015160c08a015160e08b0151948a169290971691909117908816909402939093176fffffffffffffffffffffffffffffffff169386169091026001600160c01b031692909217918416909202179055610100820151600980546101209094015162ffffff90921664ffffffffff199094169390931763010000009190921602179055565b60008082604051602001614a0391906157d3565b6040516020818303038152906040528051906020012090506000805b8651811015614a7b57868181518110614a3a57614a3a6157e6565b60200260200101518303614a6957858181518110614a5a57614a5a6157e6565b60200260200101519150614a7b565b80614a7381615825565b915050614a1f565b506001600160a01b038116614ac15760405162461bcd60e51b815260206004820152600c60248201526b61646472657373207a65726f60a01b6044820152606401610f01565b95945050505050565b614afa82826040518060400160405280600d81526020016c566f746572526567697374727960981b8152506149ef565b600a60006101000a8154816001600160a01b0302191690836001600160a01b03160217905550614b4d82826040518060400160405280600a81526020016929bab136b4b9b9b4b7b760b11b8152506149ef565b600b60006101000a8154816001600160a01b0302191690836001600160a01b03160217905550614b9b82826040518060400160405280600581526020016452656c617960d81b8152506149ef565b600c60006101000a8154816001600160a01b0302191690836001600160a01b03160217905550614bf182826040518060400160405280600d81526020016c2932bbb0b93226b0b730b3b2b960991b8152506149ef565b600d60006101000a8154816001600160a01b0302191690836001600160a01b03160217905550614c5782826040518060400160405280601981526020017f436c65616e7570426c6f636b4e756d6265724d616e61676572000000000000008152506149ef565b600e80546001600160a01b0319166001600160a01b03929092169190911790555050565b600062ffffff821115613eee576040516306dfcc6560e41b81526018600482015260248101839052604401610f01565b600063ffffffff821115613eee576040516306dfcc6560e41b81526020600482015260248101839052604401610f01565b600080807f7fffffffffffffffffffffffffffffff5d576e7357a4501ddfe92f46681b20a0841115614d175750600091506003905082614da1565b604080516000808252602082018084528a905260ff891692820192909252606081018790526080810186905260019060a0016020604051602081039080840390855afa158015614d6b573d6000803e3d6000fd5b5050604051601f1901519150506001600160a01b038116614d9757506000925060019150829050614da1565b9250600091508190505b9450945094915050565b6000826003811115614dbf57614dbf615f77565b03614dc8575050565b6001826003811115614ddc57614ddc615f77565b03614dfa5760405163f645eedf60e01b815260040160405180910390fd5b6002826003811115614e0e57614e0e615f77565b03614e2f5760405163fce698f760e01b815260048101829052602401610f01565b6003826003811115614e4357614e43615f77565b03610f90576040516335e2f38360e21b815260048101829052602401610f01565b6000818310614e735781613d9f565b5090919050565b6009546000908190614ebd907f000000000000000000000000000000000000000000000000000000000000000090600160381b90046001600160401b0316615985565b6001600160401b03169050614f007f00000000000000000000000000000000000000000000000000000000000000006001600160401b031682613f609190615dcc565b600754909250600090600160c01b900463ffffffff16614f1e613ef2565b614f289190615f8d565b614f33906001615f8d565b90508063ffffffff168363ffffffff161015614f4d578092505b505090565b600080614f60858585614fc1565b905060008380614f7257614f72615db6565b85870990508015614f865781600101614f88565b815b9695505050505050565b600061ffff821115613eee576040516306dfcc6560e41b81526010600482015260248101839052604401610f01565b60008082116150055760405162461bcd60e51b815260206004820152601060248201526f4469766973696f6e206279207a65726f60801b6044820152606401610f01565b8360000361501557506000613d9f565b8383028385828161502857615028615db6565b04036150465782818161503d5761503d615db6565b04915050613d9f565b5060006150538386615dcc565b905060006150618487615df3565b9050600061506f8587615dcc565b9050600061507d8688615df3565b90508561508a8285615faa565b6150949190615dcc565b61509e8385615faa565b6150a88387615faa565b886150b38689615faa565b6150bd9190615faa565b6150c79190615812565b6150d19190615812565b6150db9190615812565b98975050505050505050565b5080546000825590600052602060002090810190611059919061513b565b5080546151119061587e565b6000825580601f10615121575050565b601f01602090049060005260206000209081019061105991905b5b80821115613eee576000815560010161513c565b803562ffffff811681146131ea57600080fd5b60006020828403121561517557600080fd5b613d9f82615150565b60008083601f84011261519057600080fd5b5081356001600160401b038111156151a757600080fd5b6020830191508360208260051b85010111156151c257600080fd5b9250929050565b600080602083850312156151dc57600080fd5b82356001600160401b038111156151f257600080fd5b6151fe8582860161517e565b90969095509350505050565b60006020828403121561521c57600080fd5b5035919050565b6001600160a01b038116811461105957600080fd5b6000806040838503121561524b57600080fd5b61525483615150565b9150602083013561526481615223565b809150509250929050565b60006020828403121561528157600080fd5b8135613d9f81615223565b80356001600160401b03811681146131ea57600080fd5b6000806000606084860312156152b857600080fd5b6152c184615150565b92506152cf6020850161528c565b9150604084013590509250925092565b6020808252825182820181905260009190848201906040850190845b818110156140495783516001600160a01b0316835292840192918401916001016152fb565b60006020828403121561533257600080fd5b81356001600160e01b031981168114613d9f57600080fd5b801515811461105957600080fd5b60006020828403121561536a57600080fd5b8135613d9f8161534a565b6000606082840312156111fd57600080fd5b600080600060a0848603121561539c57600080fd5b6153a584615150565b9250602084013591506153bb8560408601615375565b90509250925092565b60005b838110156153df5781810151838201526020016153c7565b50506000910152565b600081518084526154008160208601602086016153c4565b601f01601f19169290920160200192915050565b82815260406020820152600061542d60408301846153e8565b949350505050565b634e487b7160e01b600052604160045260246000fd5b60405161016081016001600160401b038111828210171561546e5761546e615435565b60405290565b604051601f8201601f191681016001600160401b038111828210171561549c5761549c615435565b604052919050565b61ffff8116811461105957600080fd5b80356131ea816154a4565b803560ff811681146131ea57600080fd5b803563ffffffff811681146131ea57600080fd5b600061016082840312156154f757600080fd5b6154ff61544b565b615508836154b4565b8152615516602084016154b4565b6020820152615527604084016154b4565b6040820152615538606084016154bf565b6060820152615549608084016154b4565b608082015261555a60a084016154b4565b60a082015261556b60c084016154b4565b60c082015261557c60e084016154b4565b60e082015261010061558f818501615150565b908201526101206155a18482016154b4565b908201526101406155b38482016154d0565b908201529392505050565b60008060008060a085870312156155d457600080fd5b6155dd85615150565b935060208501356001600160401b038111156155f857600080fd5b6156048782880161517e565b909450925061561890508660408701615375565b905092959194509250565b60008060008060c0858703121561563957600080fd5b61564285615150565b93506156506020860161528c565b9250604085013591506156188660608701615375565b60006001600160401b0382111561567f5761567f615435565b5060051b60200190565b600082601f83011261569a57600080fd5b813560206156af6156aa83615666565b615474565b82815260059290921b840181019181810190868411156156ce57600080fd5b8286015b848110156156f25780356156e581615223565b83529183019183016156d2565b509695505050505050565b6000806040838503121561571057600080fd5b82356001600160401b038082111561572757600080fd5b818501915085601f83011261573b57600080fd5b8135602061574b6156aa83615666565b82815260059290921b8401810191818101908984111561576a57600080fd5b948201945b838610156157885785358252948201949082019061576f565b9650508601359250508082111561579e57600080fd5b506157ab85828601615689565b9150509250929050565b600080604083850312156157c857600080fd5b823561525481615223565b602081526000613d9f60208301846153e8565b634e487b7160e01b600052603260045260246000fd5b634e487b7160e01b600052601160045260246000fd5b8082018082111561373f5761373f6157fc565b600060018201615837576158376157fc565b5060010190565b62ffffff81811683821601908082111561585a5761585a6157fc565b5092915050565b60006020828403121561587357600080fd5b8151613d9f81615223565b600181811c9082168061589257607f821691505b6020821081036111fd57634e487b7160e01b600052602260045260246000fd5b600082516158c48184602087016153c4565b9190910192915050565b6000602082840312156158e057600080fd5b613d9f826154bf565b62ffffff82811682821603908082111561585a5761585a6157fc565b80516131ea816154a4565b6000806040838503121561592357600080fd5b825161592e81615223565b6020840151909250615264816154a4565b6020808252601190820152701cda59db985d1d5c99481a5b9d985b1a59607a1b604082015260600190565b61ffff81811683821601908082111561585a5761585a6157fc565b6001600160401b0382811682821603908082111561585a5761585a6157fc565b6000806000606084860312156159ba57600080fd5b8351925060208401516159cc8161534a565b80925050604084015190509250925092565b6001600160401b0381811683821601908082111561585a5761585a6157fc565b634e487b7160e01b600052600160045260246000fd5b600082601f830112615a2557600080fd5b81516020615a356156aa83615666565b82815260059290921b84018101918181019086841115615a5457600080fd5b8286015b848110156156f2578051615a6b81615223565b8352918301918301615a58565b600060208284031215615a8a57600080fd5b81516001600160401b03811115615aa057600080fd5b61542d84828501615a14565b600081518084526020808501945080840160005b83811015615ae55781516001600160a01b031687529582019590820190600101615ac0565b509495945050505050565b608081526000615b036080830187615aac565b8281036020840152615b158187615aac565b90508281036040840152615b298186615aac565b905082810360608401526141348185615aac565b600060208284031215615b4f57600080fd5b5051919050565b600062ffffff808316818103615b6e57615b6e6157fc565b6001019392505050565b602080825260139082015272195c1bd8da081b9bdd08195b991959081e595d606a1b604082015260600190565b818352600060208085019450826000805b86811015615bee5782356bffffffffffffffffffffffff198116808214615bdb578384fd5b8952509683019691830191600101615bb6565b50959695505050505050565b62ffffff84168152604060208201526000614ac1604083018486615ba5565b604081526000615c2d604083018587615ba5565b90506001600160401b0383166020830152949350505050565b600060208284031215615c5857600080fd5b8151613d9f8161534a565b601f8211156116a457600081815260208120601f850160051c81016020861015615c8a5750805b601f850160051c820191505b81811015615ca957828155600101615c96565b505050505050565b81516001600160401b03811115615cca57615cca615435565b615cde81615cd8845461587e565b84615c63565b602080601f831160018114615d135760008415615cfb5750858301515b600019600386901b1c1916600185901b178555615ca9565b600085815260208120601f198616915b82811015615d4257888601518255948401946001909101908401615d23565b5085821015615d605787850151600019600388901b60f8161c191681555b5050505050600190811b01905550565b63ffffffff60e01b8516815283602082015260606040820152816060820152818360808301376000818301608090810191909152601f909201601f191601019392505050565b634e487b7160e01b600052601260045260246000fd5b600082615ddb57615ddb615db6565b500490565b8181038181111561373f5761373f6157fc565b600082615e0257615e02615db6565b500690565b600080600060608486031215615e1c57600080fd5b83516001600160401b0380821115615e3357600080fd5b615e3f87838801615a14565b9450602091508186015181811115615e5657600080fd5b86019050601f81018713615e6957600080fd5b8051615e776156aa82615666565b81815260059190911b82018301908381019089831115615e9657600080fd5b928401925b82841015615ebd578351615eae816154a4565b82529284019290840190615e9b565b80965050505050506153bb60408501615905565b6000602080835262ffffff8451168184015263ffffffff81850151166040840152604084015161ffff8082166060860152606086015160808601526080860151915060c060a0860152615f2760e0860183615aac565b60a0870151868203601f190160c0880152805180835290850193506000918501905b80831015615f6b57845184168252938501936001929092019190850190615f49565b50979650505050505050565b634e487b7160e01b600052602160045260246000fd5b63ffffffff81811683821601908082111561585a5761585a6157fc565b808202811582820484141761373f5761373f6157fc56fea26469706673582212203a09febb995c2d434b36157338efc0fc803168d6774acf0fdbeede453f6f9bf364736f6c63430008140033",
  "linkReferences": {},
  "deployedLinkReferences": {}
}