{
  "_format": "hh-sol-artifact-1",
  "contractName": "FlareSystemManager",
  "sourceName": "contracts/protocol/implementation/FlareSystemManager.sol",
  "abi": [
    {
      "inputs": [
        {
          "internalType": "contract IGovernanceSettings",
          "name": "_governanceSettings",
          "type": "address"
        },
        {
          "internalType": "address",
          "name": "_initialGovernance",
          "type": "address"
        },
        {
          "internalType": "address",
          "name": "_addressUpdater",
          "type": "address"
        },
        {
          "internalType": "address",
          "name": "_flareDaemon",
          "type": "address"
        },
        {
          "components": [
            {
              "internalType": "uint16",
              "name": "randomAcquisitionMaxDurationSeconds",
              "type": "uint16"
            },
            {
              "internalType": "uint16",
              "name": "randomAcquisitionMaxDurationBlocks",
              "type": "uint16"
            },
            {
              "internalType": "uint16",
              "name": "newSigningPolicyInitializationStartSeconds",
              "type": "uint16"
            },
            {
              "internalType": "uint8",
              "name": "newSigningPolicyMinNumberOfVotingRoundsDelay",
              "type": "uint8"
            },
            {
              "internalType": "uint16",
              "name": "voterRegistrationMinDurationSeconds",
              "type": "uint16"
            },
            {
              "internalType": "uint16",
              "name": "voterRegistrationMinDurationBlocks",
              "type": "uint16"
            },
            {
              "internalType": "uint16",
              "name": "submitUptimeVoteMinDurationSeconds",
              "type": "uint16"
            },
            {
              "internalType": "uint16",
              "name": "submitUptimeVoteMinDurationBlocks",
              "type": "uint16"
            },
            {
              "internalType": "uint24",
              "name": "signingPolicyThresholdPPM",
              "type": "uint24"
            },
            {
              "internalType": "uint16",
              "name": "signingPolicyMinNumberOfVoters",
              "type": "uint16"
            },
            {
              "internalType": "uint32",
              "name": "rewardExpiryOffsetSeconds",
              "type": "uint32"
            }
          ],
          "internalType": "struct FlareSystemManager.Settings",
          "name": "_settings",
          "type": "tuple"
        },
        {
          "internalType": "uint32",
          "name": "_firstVotingRoundStartTs",
          "type": "uint32"
        },
        {
          "internalType": "uint8",
          "name": "_votingEpochDurationSeconds",
          "type": "uint8"
        },
        {
          "internalType": "uint32",
          "name": "_firstRewardEpochStartVotingRoundId",
          "type": "uint32"
        },
        {
          "internalType": "uint16",
          "name": "_rewardEpochDurationInVotingEpochs",
          "type": "uint16"
        },
        {
          "components": [
            {
              "internalType": "uint16",
              "name": "initialRandomVotePowerBlockSelectionSize",
              "type": "uint16"
            },
            {
              "internalType": "uint24",
              "name": "initialRewardEpochId",
              "type": "uint24"
            },
            {
              "internalType": "uint16",
              "name": "initialRewardEpochThreshold",
              "type": "uint16"
            }
          ],
          "internalType": "struct FlareSystemManager.InitialSettings",
          "name": "_initialSettings",
          "type": "tuple"
        }
      ],
      "stateMutability": "nonpayable",
      "type": "constructor"
    },
    {
      "inputs": [],
      "name": "ECDSAInvalidSignature",
      "type": "error"
    },
    {
      "inputs": [
        {
          "internalType": "uint256",
          "name": "length",
          "type": "uint256"
        }
      ],
      "name": "ECDSAInvalidSignatureLength",
      "type": "error"
    },
    {
      "inputs": [
        {
          "internalType": "bytes32",
          "name": "s",
          "type": "bytes32"
        }
      ],
      "name": "ECDSAInvalidSignatureS",
      "type": "error"
    },
    {
      "inputs": [
        {
          "internalType": "uint8",
          "name": "bits",
          "type": "uint8"
        },
        {
          "internalType": "uint256",
          "name": "value",
          "type": "uint256"
        }
      ],
      "name": "SafeCastOverflowedUintDowncast",
      "type": "error"
    },
    {
      "anonymous": false,
      "inputs": [
        {
          "indexed": false,
          "internalType": "uint24",
          "name": "rewardEpochId",
          "type": "uint24"
        }
      ],
      "name": "ClosingExpiredRewardEpochFailed",
      "type": "event"
    },
    {
      "anonymous": false,
      "inputs": [
        {
          "indexed": false,
          "internalType": "bytes4",
          "name": "selector",
          "type": "bytes4"
        },
        {
          "indexed": false,
          "internalType": "uint256",
          "name": "allowedAfterTimestamp",
          "type": "uint256"
        },
        {
          "indexed": false,
          "internalType": "bytes",
          "name": "encodedCall",
          "type": "bytes"
        }
      ],
      "name": "GovernanceCallTimelocked",
      "type": "event"
    },
    {
      "anonymous": false,
      "inputs": [
        {
          "indexed": false,
          "internalType": "address",
          "name": "initialGovernance",
          "type": "address"
        }
      ],
      "name": "GovernanceInitialised",
      "type": "event"
    },
    {
      "anonymous": false,
      "inputs": [
        {
          "indexed": false,
          "internalType": "address",
          "name": "governanceSettings",
          "type": "address"
        }
      ],
      "name": "GovernedProductionModeEntered",
      "type": "event"
    },
    {
      "anonymous": false,
      "inputs": [
        {
          "indexed": true,
          "internalType": "uint24",
          "name": "rewardEpochId",
          "type": "uint24"
        },
        {
          "indexed": false,
          "internalType": "uint64",
          "name": "timestamp",
          "type": "uint64"
        }
      ],
      "name": "RandomAcquisitionStarted",
      "type": "event"
    },
    {
      "anonymous": false,
      "inputs": [
        {
          "indexed": true,
          "internalType": "uint24",
          "name": "rewardEpochId",
          "type": "uint24"
        },
        {
          "indexed": false,
          "internalType": "uint32",
          "name": "startVotingRoundId",
          "type": "uint32"
        },
        {
          "indexed": false,
          "internalType": "uint64",
          "name": "timestamp",
          "type": "uint64"
        }
      ],
      "name": "RewardEpochStarted",
      "type": "event"
    },
    {
      "anonymous": false,
      "inputs": [
        {
          "indexed": true,
          "internalType": "uint24",
          "name": "rewardEpochId",
          "type": "uint24"
        },
        {
          "indexed": true,
          "internalType": "address",
          "name": "signingPolicyAddress",
          "type": "address"
        },
        {
          "indexed": true,
          "internalType": "address",
          "name": "voter",
          "type": "address"
        },
        {
          "indexed": false,
          "internalType": "bytes32",
          "name": "rewardsHash",
          "type": "bytes32"
        },
        {
          "indexed": false,
          "internalType": "uint256",
          "name": "noOfWeightBasedClaims",
          "type": "uint256"
        },
        {
          "indexed": false,
          "internalType": "uint64",
          "name": "timestamp",
          "type": "uint64"
        },
        {
          "indexed": false,
          "internalType": "bool",
          "name": "thresholdReached",
          "type": "bool"
        }
      ],
      "name": "RewardsSigned",
      "type": "event"
    },
    {
      "anonymous": false,
      "inputs": [
        {
          "indexed": false,
          "internalType": "uint64",
          "name": "blockNumber",
          "type": "uint64"
        }
      ],
      "name": "SettingCleanUpBlockNumberFailed",
      "type": "event"
    },
    {
      "anonymous": false,
      "inputs": [
        {
          "indexed": true,
          "internalType": "uint24",
          "name": "rewardEpochId",
          "type": "uint24"
        },
        {
          "indexed": true,
          "internalType": "address",
          "name": "signingPolicyAddress",
          "type": "address"
        },
        {
          "indexed": true,
          "internalType": "address",
          "name": "voter",
          "type": "address"
        },
        {
          "indexed": false,
          "internalType": "uint64",
          "name": "timestamp",
          "type": "uint64"
        },
        {
          "indexed": false,
          "internalType": "bool",
          "name": "thresholdReached",
          "type": "bool"
        }
      ],
      "name": "SigningPolicySigned",
      "type": "event"
    },
    {
      "anonymous": false,
      "inputs": [
        {
          "indexed": true,
          "internalType": "uint24",
          "name": "rewardEpochId",
          "type": "uint24"
        },
        {
          "indexed": false,
          "internalType": "uint64",
          "name": "timestamp",
          "type": "uint64"
        }
      ],
      "name": "SingUptimeVoteEnabled",
      "type": "event"
    },
    {
      "anonymous": false,
      "inputs": [
        {
          "indexed": false,
          "internalType": "bytes4",
          "name": "selector",
          "type": "bytes4"
        },
        {
          "indexed": false,
          "internalType": "uint256",
          "name": "timestamp",
          "type": "uint256"
        }
      ],
      "name": "TimelockedGovernanceCallCanceled",
      "type": "event"
    },
    {
      "anonymous": false,
      "inputs": [
        {
          "indexed": false,
          "internalType": "bytes4",
          "name": "selector",
          "type": "bytes4"
        },
        {
          "indexed": false,
          "internalType": "uint256",
          "name": "timestamp",
          "type": "uint256"
        }
      ],
      "name": "TimelockedGovernanceCallExecuted",
      "type": "event"
    },
    {
      "anonymous": false,
      "inputs": [
        {
          "indexed": false,
          "internalType": "uint24",
          "name": "rewardEpochId",
          "type": "uint24"
        }
      ],
      "name": "TriggeringVoterRegistrationFailed",
      "type": "event"
    },
    {
      "anonymous": false,
      "inputs": [
        {
          "indexed": true,
          "internalType": "uint24",
          "name": "rewardEpochId",
          "type": "uint24"
        },
        {
          "indexed": true,
          "internalType": "address",
          "name": "signingPolicyAddress",
          "type": "address"
        },
        {
          "indexed": true,
          "internalType": "address",
          "name": "voter",
          "type": "address"
        },
        {
          "indexed": false,
          "internalType": "bytes32",
          "name": "uptimeVoteHash",
          "type": "bytes32"
        },
        {
          "indexed": false,
          "internalType": "uint64",
          "name": "timestamp",
          "type": "uint64"
        },
        {
          "indexed": false,
          "internalType": "bool",
          "name": "thresholdReached",
          "type": "bool"
        }
      ],
      "name": "UptimeVoteSigned",
      "type": "event"
    },
    {
      "anonymous": false,
      "inputs": [
        {
          "indexed": true,
          "internalType": "uint24",
          "name": "rewardEpochId",
          "type": "uint24"
        },
        {
          "indexed": true,
          "internalType": "address",
          "name": "signingPolicyAddress",
          "type": "address"
        },
        {
          "indexed": true,
          "internalType": "address",
          "name": "voter",
          "type": "address"
        },
        {
          "indexed": false,
          "internalType": "bytes20[]",
          "name": "nodeIds",
          "type": "bytes20[]"
        },
        {
          "indexed": false,
          "internalType": "uint64",
          "name": "timestamp",
          "type": "uint64"
        }
      ],
      "name": "UptimeVoteSubmitted",
      "type": "event"
    },
    {
      "anonymous": false,
      "inputs": [
        {
          "indexed": true,
          "internalType": "uint24",
          "name": "rewardEpochId",
          "type": "uint24"
        },
        {
          "indexed": false,
          "internalType": "uint64",
          "name": "votePowerBlock",
          "type": "uint64"
        },
        {
          "indexed": false,
          "internalType": "uint64",
          "name": "timestamp",
          "type": "uint64"
        }
      ],
      "name": "VotePowerBlockSelected",
      "type": "event"
    },
    {
      "inputs": [
        {
          "internalType": "bytes4",
          "name": "_selector",
          "type": "bytes4"
        }
      ],
      "name": "cancelGovernanceCall",
      "outputs": [],
      "stateMutability": "nonpayable",
      "type": "function"
    },
    {
      "inputs": [
        {
          "internalType": "uint24",
          "name": "_signingPolicyThresholdPPM",
          "type": "uint24"
        },
        {
          "internalType": "uint16",
          "name": "_signingPolicyMinNumberOfVoters",
          "type": "uint16"
        }
      ],
      "name": "changeSigningPolicySettings",
      "outputs": [],
      "stateMutability": "nonpayable",
      "type": "function"
    },
    {
      "inputs": [],
      "name": "cleanupBlockNumberManager",
      "outputs": [
        {
          "internalType": "contract IICleanupBlockNumberManager",
          "name": "",
          "type": "address"
        }
      ],
      "stateMutability": "view",
      "type": "function"
    },
    {
      "inputs": [],
      "name": "currentRewardEpochExpectedEndTs",
      "outputs": [
        {
          "internalType": "uint64",
          "name": "",
          "type": "uint64"
        }
      ],
      "stateMutability": "view",
      "type": "function"
    },
    {
      "inputs": [],
      "name": "daemonize",
      "outputs": [
        {
          "internalType": "bool",
          "name": "",
          "type": "bool"
        }
      ],
      "stateMutability": "nonpayable",
      "type": "function"
    },
    {
      "inputs": [
        {
          "internalType": "bytes4",
          "name": "_selector",
          "type": "bytes4"
        }
      ],
      "name": "executeGovernanceCall",
      "outputs": [],
      "stateMutability": "nonpayable",
      "type": "function"
    },
    {
      "inputs": [],
      "name": "firstRewardEpochStartTs",
      "outputs": [
        {
          "internalType": "uint64",
          "name": "",
          "type": "uint64"
        }
      ],
      "stateMutability": "view",
      "type": "function"
    },
    {
      "inputs": [],
      "name": "firstVotingRoundStartTs",
      "outputs": [
        {
          "internalType": "uint64",
          "name": "",
          "type": "uint64"
        }
      ],
      "stateMutability": "view",
      "type": "function"
    },
    {
      "inputs": [],
      "name": "flareDaemon",
      "outputs": [
        {
          "internalType": "address",
          "name": "",
          "type": "address"
        }
      ],
      "stateMutability": "view",
      "type": "function"
    },
    {
      "inputs": [],
      "name": "getAddressUpdater",
      "outputs": [
        {
          "internalType": "address",
          "name": "_addressUpdater",
          "type": "address"
        }
      ],
      "stateMutability": "view",
      "type": "function"
    },
    {
      "inputs": [],
      "name": "getContractName",
      "outputs": [
        {
          "internalType": "string",
          "name": "",
          "type": "string"
        }
      ],
      "stateMutability": "pure",
      "type": "function"
    },
    {
      "inputs": [],
      "name": "getCurrentRewardEpochId",
      "outputs": [
        {
          "internalType": "uint24",
          "name": "",
          "type": "uint24"
        }
      ],
      "stateMutability": "view",
      "type": "function"
    },
    {
      "inputs": [
        {
          "internalType": "uint24",
          "name": "_rewardEpochId",
          "type": "uint24"
        }
      ],
      "name": "getRandomAcquisitionInfo",
      "outputs": [
        {
          "internalType": "uint64",
          "name": "_randomAcquisitionStartTs",
          "type": "uint64"
        },
        {
          "internalType": "uint64",
          "name": "_randomAcquisitionStartBlock",
          "type": "uint64"
        },
        {
          "internalType": "uint64",
          "name": "_randomAcquisitionEndTs",
          "type": "uint64"
        },
        {
          "internalType": "uint64",
          "name": "_randomAcquisitionEndBlock",
          "type": "uint64"
        }
      ],
      "stateMutability": "view",
      "type": "function"
    },
    {
      "inputs": [
        {
          "internalType": "uint24",
          "name": "_rewardEpochId",
          "type": "uint24"
        }
      ],
      "name": "getRewardEpochStartInfo",
      "outputs": [
        {
          "internalType": "uint64",
          "name": "_rewardEpochStartTs",
          "type": "uint64"
        },
        {
          "internalType": "uint64",
          "name": "_rewardEpochStartBlock",
          "type": "uint64"
        }
      ],
      "stateMutability": "view",
      "type": "function"
    },
    {
      "inputs": [],
      "name": "getRewardEpochSwitchoverTriggerContracts",
      "outputs": [
        {
          "internalType": "contract IIRewardEpochSwitchoverTrigger[]",
          "name": "",
          "type": "address[]"
        }
      ],
      "stateMutability": "view",
      "type": "function"
    },
    {
      "inputs": [
        {
          "internalType": "uint24",
          "name": "_rewardEpochId",
          "type": "uint24"
        }
      ],
      "name": "getRewardsSignInfo",
      "outputs": [
        {
          "internalType": "uint64",
          "name": "_rewardsSignStartTs",
          "type": "uint64"
        },
        {
          "internalType": "uint64",
          "name": "_rewardsSignStartBlock",
          "type": "uint64"
        },
        {
          "internalType": "uint64",
          "name": "_rewardsSignEndTs",
          "type": "uint64"
        },
        {
          "internalType": "uint64",
          "name": "_rewardsSignEndBlock",
          "type": "uint64"
        }
      ],
      "stateMutability": "view",
      "type": "function"
    },
    {
      "inputs": [
        {
          "internalType": "uint256",
          "name": "_rewardEpochId",
          "type": "uint256"
        }
      ],
      "name": "getSeed",
      "outputs": [
        {
          "internalType": "uint256",
          "name": "",
          "type": "uint256"
        }
      ],
      "stateMutability": "view",
      "type": "function"
    },
    {
      "inputs": [
        {
          "internalType": "uint24",
          "name": "_rewardEpochId",
          "type": "uint24"
        }
      ],
      "name": "getSigningPolicySignInfo",
      "outputs": [
        {
          "internalType": "uint64",
          "name": "_signingPolicySignStartTs",
          "type": "uint64"
        },
        {
          "internalType": "uint64",
          "name": "_signingPolicySignStartBlock",
          "type": "uint64"
        },
        {
          "internalType": "uint64",
          "name": "_signingPolicySignEndTs",
          "type": "uint64"
        },
        {
          "internalType": "uint64",
          "name": "_signingPolicySignEndBlock",
          "type": "uint64"
        }
      ],
      "stateMutability": "view",
      "type": "function"
    },
    {
      "inputs": [
        {
          "internalType": "uint256",
          "name": "_rewardEpochId",
          "type": "uint256"
        }
      ],
      "name": "getStartVotingRoundId",
      "outputs": [
        {
          "internalType": "uint32",
          "name": "",
          "type": "uint32"
        }
      ],
      "stateMutability": "view",
      "type": "function"
    },
    {
      "inputs": [
        {
          "internalType": "uint256",
          "name": "_rewardEpochId",
          "type": "uint256"
        }
      ],
      "name": "getThreshold",
      "outputs": [
        {
          "internalType": "uint16",
          "name": "",
          "type": "uint16"
        }
      ],
      "stateMutability": "view",
      "type": "function"
    },
    {
      "inputs": [
        {
          "internalType": "uint24",
          "name": "_rewardEpochId",
          "type": "uint24"
        }
      ],
      "name": "getUptimeVoteSignStartInfo",
      "outputs": [
        {
          "internalType": "uint64",
          "name": "_uptimeVoteSignStartTs",
          "type": "uint64"
        },
        {
          "internalType": "uint64",
          "name": "_uptimeVoteSignStartBlock",
          "type": "uint64"
        }
      ],
      "stateMutability": "view",
      "type": "function"
    },
    {
      "inputs": [
        {
          "internalType": "uint256",
          "name": "_rewardEpochId",
          "type": "uint256"
        }
      ],
      "name": "getVotePowerBlock",
      "outputs": [
        {
          "internalType": "uint64",
          "name": "_votePowerBlock",
          "type": "uint64"
        }
      ],
      "stateMutability": "view",
      "type": "function"
    },
    {
      "inputs": [
        {
          "internalType": "uint256",
          "name": "_rewardEpochId",
          "type": "uint256"
        }
      ],
      "name": "getVoterRegistrationData",
      "outputs": [
        {
          "internalType": "uint256",
          "name": "_votePowerBlock",
          "type": "uint256"
        },
        {
          "internalType": "bool",
          "name": "_enabled",
          "type": "bool"
        }
      ],
      "stateMutability": "view",
      "type": "function"
    },
    {
      "inputs": [
        {
          "internalType": "uint24",
          "name": "_rewardEpochId",
          "type": "uint24"
        },
        {
          "internalType": "address",
          "name": "_voter",
          "type": "address"
        }
      ],
      "name": "getVoterRewardsSignInfo",
      "outputs": [
        {
          "internalType": "uint64",
          "name": "_rewardsSignTs",
          "type": "uint64"
        },
        {
          "internalType": "uint64",
          "name": "_rewardsSignBlock",
          "type": "uint64"
        }
      ],
      "stateMutability": "view",
      "type": "function"
    },
    {
      "inputs": [
        {
          "internalType": "uint24",
          "name": "_rewardEpochId",
          "type": "uint24"
        },
        {
          "internalType": "address",
          "name": "_voter",
          "type": "address"
        }
      ],
      "name": "getVoterSigningPolicySignInfo",
      "outputs": [
        {
          "internalType": "uint64",
          "name": "_signingPolicySignTs",
          "type": "uint64"
        },
        {
          "internalType": "uint64",
          "name": "_signingPolicySignBlock",
          "type": "uint64"
        }
      ],
      "stateMutability": "view",
      "type": "function"
    },
    {
      "inputs": [
        {
          "internalType": "uint24",
          "name": "_rewardEpochId",
          "type": "uint24"
        },
        {
          "internalType": "address",
          "name": "_voter",
          "type": "address"
        }
      ],
      "name": "getVoterUptimeVoteSignInfo",
      "outputs": [
        {
          "internalType": "uint64",
          "name": "_uptimeVoteSignTs",
          "type": "uint64"
        },
        {
          "internalType": "uint64",
          "name": "_uptimeVoteSignBlock",
          "type": "uint64"
        }
      ],
      "stateMutability": "view",
      "type": "function"
    },
    {
      "inputs": [
        {
          "internalType": "uint24",
          "name": "_rewardEpochId",
          "type": "uint24"
        },
        {
          "internalType": "address",
          "name": "_voter",
          "type": "address"
        }
      ],
      "name": "getVoterUptimeVoteSubmitInfo",
      "outputs": [
        {
          "internalType": "uint64",
          "name": "_uptimeVoteSubmitTs",
          "type": "uint64"
        },
        {
          "internalType": "uint64",
          "name": "_uptimeVoteSubmitBlock",
          "type": "uint64"
        }
      ],
      "stateMutability": "view",
      "type": "function"
    },
    {
      "inputs": [],
      "name": "governance",
      "outputs": [
        {
          "internalType": "address",
          "name": "",
          "type": "address"
        }
      ],
      "stateMutability": "view",
      "type": "function"
    },
    {
      "inputs": [],
      "name": "governanceSettings",
      "outputs": [
        {
          "internalType": "contract IGovernanceSettings",
          "name": "",
          "type": "address"
        }
      ],
      "stateMutability": "view",
      "type": "function"
    },
    {
      "inputs": [],
      "name": "initialRandomVotePowerBlockSelectionSize",
      "outputs": [
        {
          "internalType": "uint64",
          "name": "",
          "type": "uint64"
        }
      ],
      "stateMutability": "view",
      "type": "function"
    },
    {
      "inputs": [
        {
          "internalType": "contract IGovernanceSettings",
          "name": "_governanceSettings",
          "type": "address"
        },
        {
          "internalType": "address",
          "name": "_initialGovernance",
          "type": "address"
        }
      ],
      "name": "initialise",
      "outputs": [],
      "stateMutability": "nonpayable",
      "type": "function"
    },
    {
      "inputs": [
        {
          "internalType": "address",
          "name": "_address",
          "type": "address"
        }
      ],
      "name": "isExecutor",
      "outputs": [
        {
          "internalType": "bool",
          "name": "",
          "type": "bool"
        }
      ],
      "stateMutability": "view",
      "type": "function"
    },
    {
      "inputs": [],
      "name": "isVoterRegistrationEnabled",
      "outputs": [
        {
          "internalType": "bool",
          "name": "",
          "type": "bool"
        }
      ],
      "stateMutability": "view",
      "type": "function"
    },
    {
      "inputs": [],
      "name": "lastInitializedVotingRoundId",
      "outputs": [
        {
          "internalType": "uint32",
          "name": "",
          "type": "uint32"
        }
      ],
      "stateMutability": "view",
      "type": "function"
    },
    {
      "inputs": [],
      "name": "newSigningPolicyInitializationStartSeconds",
      "outputs": [
        {
          "internalType": "uint64",
          "name": "",
          "type": "uint64"
        }
      ],
      "stateMutability": "view",
      "type": "function"
    },
    {
      "inputs": [],
      "name": "newSigningPolicyMinNumberOfVotingRoundsDelay",
      "outputs": [
        {
          "internalType": "uint32",
          "name": "",
          "type": "uint32"
        }
      ],
      "stateMutability": "view",
      "type": "function"
    },
    {
      "inputs": [
        {
          "internalType": "uint256",
          "name": "",
          "type": "uint256"
        }
      ],
      "name": "noOfWeightBasedClaims",
      "outputs": [
        {
          "internalType": "uint256",
          "name": "",
          "type": "uint256"
        }
      ],
      "stateMutability": "view",
      "type": "function"
    },
    {
      "inputs": [],
      "name": "productionMode",
      "outputs": [
        {
          "internalType": "bool",
          "name": "",
          "type": "bool"
        }
      ],
      "stateMutability": "view",
      "type": "function"
    },
    {
      "inputs": [],
      "name": "randomAcquisitionMaxDurationBlocks",
      "outputs": [
        {
          "internalType": "uint64",
          "name": "",
          "type": "uint64"
        }
      ],
      "stateMutability": "view",
      "type": "function"
    },
    {
      "inputs": [],
      "name": "randomAcquisitionMaxDurationSeconds",
      "outputs": [
        {
          "internalType": "uint64",
          "name": "",
          "type": "uint64"
        }
      ],
      "stateMutability": "view",
      "type": "function"
    },
    {
      "inputs": [],
      "name": "relay",
      "outputs": [
        {
          "internalType": "contract IIRelay",
          "name": "",
          "type": "address"
        }
      ],
      "stateMutability": "view",
      "type": "function"
    },
    {
      "inputs": [],
      "name": "rewardEpochDurationSeconds",
      "outputs": [
        {
          "internalType": "uint64",
          "name": "",
          "type": "uint64"
        }
      ],
      "stateMutability": "view",
      "type": "function"
    },
    {
      "inputs": [],
      "name": "rewardEpochIdToExpireNext",
      "outputs": [
        {
          "internalType": "uint24",
          "name": "",
          "type": "uint24"
        }
      ],
      "stateMutability": "view",
      "type": "function"
    },
    {
      "inputs": [],
      "name": "rewardExpiryOffsetSeconds",
      "outputs": [
        {
          "internalType": "uint32",
          "name": "",
          "type": "uint32"
        }
      ],
      "stateMutability": "view",
      "type": "function"
    },
    {
      "inputs": [],
      "name": "rewardManager",
      "outputs": [
        {
          "internalType": "contract IIRewardManager",
          "name": "",
          "type": "address"
        }
      ],
      "stateMutability": "view",
      "type": "function"
    },
    {
      "inputs": [
        {
          "internalType": "uint256",
          "name": "",
          "type": "uint256"
        }
      ],
      "name": "rewardsHash",
      "outputs": [
        {
          "internalType": "bytes32",
          "name": "",
          "type": "bytes32"
        }
      ],
      "stateMutability": "view",
      "type": "function"
    },
    {
      "inputs": [
        {
          "internalType": "contract IIRewardEpochSwitchoverTrigger[]",
          "name": "_contracts",
          "type": "address[]"
        }
      ],
      "name": "setRewardEpochSwitchoverTriggerContracts",
      "outputs": [],
      "stateMutability": "nonpayable",
      "type": "function"
    },
    {
      "inputs": [
        {
          "internalType": "uint24",
          "name": "_rewardEpochId",
          "type": "uint24"
        },
        {
          "internalType": "uint64",
          "name": "_noOfWeightBasedClaims",
          "type": "uint64"
        },
        {
          "internalType": "bytes32",
          "name": "_rewardsHash",
          "type": "bytes32"
        }
      ],
      "name": "setRewardsData",
      "outputs": [],
      "stateMutability": "nonpayable",
      "type": "function"
    },
    {
      "inputs": [
        {
          "internalType": "bool",
          "name": "_submit3Aligned",
          "type": "bool"
        }
      ],
      "name": "setSubmit3Aligned",
      "outputs": [],
      "stateMutability": "nonpayable",
      "type": "function"
    },
    {
      "inputs": [
        {
          "internalType": "bool",
          "name": "_triggerExpirationAndCleanup",
          "type": "bool"
        }
      ],
      "name": "setTriggerExpirationAndCleanup",
      "outputs": [],
      "stateMutability": "nonpayable",
      "type": "function"
    },
    {
      "inputs": [
        {
          "internalType": "contract IIVoterRegistrationTrigger",
          "name": "_contract",
          "type": "address"
        }
      ],
      "name": "setVoterRegistrationTriggerContract",
      "outputs": [],
      "stateMutability": "nonpayable",
      "type": "function"
    },
    {
      "inputs": [
        {
          "internalType": "uint24",
          "name": "_rewardEpochId",
          "type": "uint24"
        },
        {
          "internalType": "bytes32",
          "name": "_newSigningPolicyHash",
          "type": "bytes32"
        },
        {
          "components": [
            {
              "internalType": "uint8",
              "name": "v",
              "type": "uint8"
            },
            {
              "internalType": "bytes32",
              "name": "r",
              "type": "bytes32"
            },
            {
              "internalType": "bytes32",
              "name": "s",
              "type": "bytes32"
            }
          ],
          "internalType": "struct IFlareSystemManager.Signature",
          "name": "_signature",
          "type": "tuple"
        }
      ],
      "name": "signNewSigningPolicy",
      "outputs": [],
      "stateMutability": "nonpayable",
      "type": "function"
    },
    {
      "inputs": [
        {
          "internalType": "uint24",
          "name": "_rewardEpochId",
          "type": "uint24"
        },
        {
          "internalType": "uint64",
          "name": "_noOfWeightBasedClaims",
          "type": "uint64"
        },
        {
          "internalType": "bytes32",
          "name": "_rewardsHash",
          "type": "bytes32"
        },
        {
          "components": [
            {
              "internalType": "uint8",
              "name": "v",
              "type": "uint8"
            },
            {
              "internalType": "bytes32",
              "name": "r",
              "type": "bytes32"
            },
            {
              "internalType": "bytes32",
              "name": "s",
              "type": "bytes32"
            }
          ],
          "internalType": "struct IFlareSystemManager.Signature",
          "name": "_signature",
          "type": "tuple"
        }
      ],
      "name": "signRewards",
      "outputs": [],
      "stateMutability": "nonpayable",
      "type": "function"
    },
    {
      "inputs": [
        {
          "internalType": "uint24",
          "name": "_rewardEpochId",
          "type": "uint24"
        },
        {
          "internalType": "bytes32",
          "name": "_uptimeVoteHash",
          "type": "bytes32"
        },
        {
          "components": [
            {
              "internalType": "uint8",
              "name": "v",
              "type": "uint8"
            },
            {
              "internalType": "bytes32",
              "name": "r",
              "type": "bytes32"
            },
            {
              "internalType": "bytes32",
              "name": "s",
              "type": "bytes32"
            }
          ],
          "internalType": "struct IFlareSystemManager.Signature",
          "name": "_signature",
          "type": "tuple"
        }
      ],
      "name": "signUptimeVote",
      "outputs": [],
      "stateMutability": "nonpayable",
      "type": "function"
    },
    {
      "inputs": [],
      "name": "signingPolicyMinNumberOfVoters",
      "outputs": [
        {
          "internalType": "uint16",
          "name": "",
          "type": "uint16"
        }
      ],
      "stateMutability": "view",
      "type": "function"
    },
    {
      "inputs": [],
      "name": "signingPolicyThresholdPPM",
      "outputs": [
        {
          "internalType": "uint24",
          "name": "",
          "type": "uint24"
        }
      ],
      "stateMutability": "view",
      "type": "function"
    },
    {
      "inputs": [],
      "name": "submission",
      "outputs": [
        {
          "internalType": "contract IISubmission",
          "name": "",
          "type": "address"
        }
      ],
      "stateMutability": "view",
      "type": "function"
    },
    {
      "inputs": [],
      "name": "submit3Aligned",
      "outputs": [
        {
          "internalType": "bool",
          "name": "",
          "type": "bool"
        }
      ],
      "stateMutability": "view",
      "type": "function"
    },
    {
      "inputs": [
        {
          "internalType": "uint24",
          "name": "_rewardEpochId",
          "type": "uint24"
        },
        {
          "internalType": "bytes20[]",
          "name": "_nodeIds",
          "type": "bytes20[]"
        },
        {
          "components": [
            {
              "internalType": "uint8",
              "name": "v",
              "type": "uint8"
            },
            {
              "internalType": "bytes32",
              "name": "r",
              "type": "bytes32"
            },
            {
              "internalType": "bytes32",
              "name": "s",
              "type": "bytes32"
            }
          ],
          "internalType": "struct IFlareSystemManager.Signature",
          "name": "_signature",
          "type": "tuple"
        }
      ],
      "name": "submitUptimeVote",
      "outputs": [],
      "stateMutability": "nonpayable",
      "type": "function"
    },
    {
      "inputs": [],
      "name": "submitUptimeVoteMinDurationBlocks",
      "outputs": [
        {
          "internalType": "uint64",
          "name": "",
          "type": "uint64"
        }
      ],
      "stateMutability": "view",
      "type": "function"
    },
    {
      "inputs": [],
      "name": "submitUptimeVoteMinDurationSeconds",
      "outputs": [
        {
          "internalType": "uint64",
          "name": "",
          "type": "uint64"
        }
      ],
      "stateMutability": "view",
      "type": "function"
    },
    {
      "inputs": [],
      "name": "switchToFallbackMode",
      "outputs": [
        {
          "internalType": "bool",
          "name": "",
          "type": "bool"
        }
      ],
      "stateMutability": "view",
      "type": "function"
    },
    {
      "inputs": [],
      "name": "switchToProductionMode",
      "outputs": [],
      "stateMutability": "nonpayable",
      "type": "function"
    },
    {
      "inputs": [
        {
          "internalType": "bytes4",
          "name": "",
          "type": "bytes4"
        }
      ],
      "name": "timelockedCalls",
      "outputs": [
        {
          "internalType": "uint256",
          "name": "allowedAfterTimestamp",
          "type": "uint256"
        },
        {
          "internalType": "bytes",
          "name": "encodedCall",
          "type": "bytes"
        }
      ],
      "stateMutability": "view",
      "type": "function"
    },
    {
      "inputs": [],
      "name": "triggerExpirationAndCleanup",
      "outputs": [
        {
          "internalType": "bool",
          "name": "",
          "type": "bool"
        }
      ],
      "stateMutability": "view",
      "type": "function"
    },
    {
      "inputs": [
        {
          "internalType": "bytes32[]",
          "name": "_contractNameHashes",
          "type": "bytes32[]"
        },
        {
          "internalType": "address[]",
          "name": "_contractAddresses",
          "type": "address[]"
        }
      ],
      "name": "updateContractAddresses",
      "outputs": [],
      "stateMutability": "nonpayable",
      "type": "function"
    },
    {
      "inputs": [
        {
          "components": [
            {
              "internalType": "uint16",
              "name": "randomAcquisitionMaxDurationSeconds",
              "type": "uint16"
            },
            {
              "internalType": "uint16",
              "name": "randomAcquisitionMaxDurationBlocks",
              "type": "uint16"
            },
            {
              "internalType": "uint16",
              "name": "newSigningPolicyInitializationStartSeconds",
              "type": "uint16"
            },
            {
              "internalType": "uint8",
              "name": "newSigningPolicyMinNumberOfVotingRoundsDelay",
              "type": "uint8"
            },
            {
              "internalType": "uint16",
              "name": "voterRegistrationMinDurationSeconds",
              "type": "uint16"
            },
            {
              "internalType": "uint16",
              "name": "voterRegistrationMinDurationBlocks",
              "type": "uint16"
            },
            {
              "internalType": "uint16",
              "name": "submitUptimeVoteMinDurationSeconds",
              "type": "uint16"
            },
            {
              "internalType": "uint16",
              "name": "submitUptimeVoteMinDurationBlocks",
              "type": "uint16"
            },
            {
              "internalType": "uint24",
              "name": "signingPolicyThresholdPPM",
              "type": "uint24"
            },
            {
              "internalType": "uint16",
              "name": "signingPolicyMinNumberOfVoters",
              "type": "uint16"
            },
            {
              "internalType": "uint32",
              "name": "rewardExpiryOffsetSeconds",
              "type": "uint32"
            }
          ],
          "internalType": "struct FlareSystemManager.Settings",
          "name": "_settings",
          "type": "tuple"
        }
      ],
      "name": "updateSettings",
      "outputs": [],
      "stateMutability": "nonpayable",
      "type": "function"
    },
    {
      "inputs": [
        {
          "internalType": "uint256",
          "name": "",
          "type": "uint256"
        }
      ],
      "name": "uptimeVoteHash",
      "outputs": [
        {
          "internalType": "bytes32",
          "name": "",
          "type": "bytes32"
        }
      ],
      "stateMutability": "view",
      "type": "function"
    },
    {
      "inputs": [],
      "name": "voterRegistrationMinDurationBlocks",
      "outputs": [
        {
          "internalType": "uint64",
          "name": "",
          "type": "uint64"
        }
      ],
      "stateMutability": "view",
      "type": "function"
    },
    {
      "inputs": [],
      "name": "voterRegistrationMinDurationSeconds",
      "outputs": [
        {
          "internalType": "uint64",
          "name": "",
          "type": "uint64"
        }
      ],
      "stateMutability": "view",
      "type": "function"
    },
    {
      "inputs": [],
      "name": "voterRegistrationTriggerContract",
      "outputs": [
        {
          "internalType": "contract IIVoterRegistrationTrigger",
          "name": "",
          "type": "address"
        }
      ],
      "stateMutability": "view",
      "type": "function"
    },
    {
      "inputs": [],
      "name": "voterRegistry",
      "outputs": [
        {
          "internalType": "contract IIVoterRegistry",
          "name": "",
          "type": "address"
        }
      ],
      "stateMutability": "view",
      "type": "function"
    },
    {
      "inputs": [],
      "name": "votingEpochDurationSeconds",
      "outputs": [
        {
          "internalType": "uint64",
          "name": "",
          "type": "uint64"
        }
      ],
      "stateMutability": "view",
      "type": "function"
    }
  ],
  "bytecode": "0x6101406040526009805461ffff60281b1916650100000000001790553480156200002857600080fd5b5060405162006b4a38038062006b4a8339810160408190526200004b916200081a565b878a8a6200005a8282620003c2565b50620000869050817f714f205b2abd25bef1d06a1af944e38c113fe6160375c4e1d6d5cf28848e771955565b506001600160a01b038716620000d75760405162461bcd60e51b8152602060048201526011602482015270666c617265206461656d6f6e207a65726f60781b60448201526064015b60405180910390fd5b60008261ffff16116200012d5760405162461bcd60e51b815260206004820152601a60248201527f7265776172642065706f6368206475726174696f6e207a65726f0000000000006044820152606401620000ce565b60008460ff1611620001825760405162461bcd60e51b815260206004820152601a60248201527f766f74696e672065706f6368206475726174696f6e207a65726f0000000000006044820152606401620000ce565b805161ffff16620001c45760405162461bcd60e51b815260206004820152600b60248201526a7a65726f20626c6f636b7360a81b6044820152606401620000ce565b620001cf8662000537565b6001600160a01b03871660805263ffffffff851660e05260ff8416610100819052620001fc9084620009f7565b62000208908662000a22565b63ffffffff1660a0526200022460ff851661ffff841662000a49565b6001600160401b031660c052805161ffff166101205260208101516200024c90600162000a6f565b60098054602084015165ffffffffffff60981b19909116600160981b62ffffff9485160262ffffff60b01b191617600160b01b9382169390930292909217905560c051906200029d90600162000a6f565b62ffffff16620002ae919062000a49565b60a051620002bd919062000a8e565b60098054600160381b600160781b0319166701000000000000006001600160401b03939093169290920291909117905560408181015160208084015162ffffff1660009081526003909152829020600501805461ffff60601b19166c0100000000000000000000000061ffff93841602179055908701516200034191164262000ab1565b60095467010000000000000090046001600160401b031611620003b25760405162461bcd60e51b815260206004820152602260248201527f7265776172642065706f636820656e64206e6f7420696e207468652066757475604482015261726560f01b6064820152608401620000ce565b5050505050505050505062000acd565b600054600160a01b900460ff16156200041e5760405162461bcd60e51b815260206004820152601460248201527f696e697469616c6973656420213d2066616c73650000000000000000000000006044820152606401620000ce565b6001600160a01b038216620004765760405162461bcd60e51b815260206004820152601860248201527f676f7665726e616e63652073657474696e6773207a65726f00000000000000006044820152606401620000ce565b6001600160a01b038116620004c15760405162461bcd60e51b815260206004820152601060248201526f5f676f7665726e616e6365207a65726f60801b6044820152606401620000ce565b600080546001600160a01b038481166001600160a81b031990921691909117600160a01b17909155600180549183166001600160a01b0319909216821790556040519081527f9789733827840833afc031fb2ef9ab6894271f77bad2085687cf4ae5c7bee4db9060200160405180910390a15050565b620f424081610100015162ffffff1611156200058b5760405162461bcd60e51b81526020600482015260126024820152710e8d0e4cae6d0ded8c840e8dede40d0d2ced60731b6044820152606401620000ce565b600081610120015161ffff1611620005d45760405162461bcd60e51b815260206004820152600b60248201526a7a65726f20766f7465727360a81b6044820152606401620000ce565b80516007805460208401516040850151606086015161014087015161ffff9687166001600160801b0319958616179387166801000000000000000090810294909417600160801b600160e01b031916928716600160801b90810263ffffffff60c01b19169390931760ff909216600160c01b908102929092176001600160e01b0316600160e01b63ffffffff909216919091021790945560808601516008805460a089015160c08a015160e08b0151948a169290971691909117908816909402939093176001600160801b03169386169091026001600160c01b031692909217918416909202179055610100820151600980546101209094015162ffffff90921664ffffffffff199094169390931763010000009190921602179055565b6001600160a01b03811681146200070857600080fd5b50565b60405161016081016001600160401b03811182821017156200073d57634e487b7160e01b600052604160045260246000fd5b60405290565b805161ffff811681146200075657600080fd5b919050565b805160ff811681146200075657600080fd5b805162ffffff811681146200075657600080fd5b805163ffffffff811681146200075657600080fd5b600060608284031215620007a957600080fd5b604051606081016001600160401b0381118282101715620007da57634e487b7160e01b600052604160045260246000fd5b604052905080620007eb8362000743565b8152620007fb602084016200076d565b60208201526200080e6040840162000743565b60408201525092915050565b6000806000806000806000806000808a8c036102c08112156200083c57600080fd5b8b516200084981620006f2565b60208d0151909b506200085c81620006f2565b60408d0151909a506200086f81620006f2565b60608d01519099506200088281620006f2565b9750610160607f19820112156200089857600080fd5b50620008a36200070b565b620008b160808d0162000743565b8152620008c160a08d0162000743565b6020820152620008d460c08d0162000743565b6040820152620008e760e08d016200075b565b6060820152620008fb6101008d0162000743565b608082015261012062000910818e0162000743565b60a083015261014062000925818f0162000743565b60c0840152620009396101608f0162000743565b60e08401526200094d6101808f016200076d565b610100840152620009626101a08f0162000743565b82840152620009756101c08f0162000781565b908301525095506200098b6101e08c0162000781565b94506200099c6102008c016200075b565b9350620009ad6102208c0162000781565b9250620009be6102408c0162000743565b9150620009d08c6102608d0162000796565b90509295989b9194979a5092959850565b634e487b7160e01b600052601160045260246000fd5b63ffffffff81811683821602808216919082811462000a1a5762000a1a620009e1565b505092915050565b63ffffffff81811683821601908082111562000a425762000a42620009e1565b5092915050565b6001600160401b0381811683821602808216919082811462000a1a5762000a1a620009e1565b62ffffff81811683821601908082111562000a425762000a42620009e1565b6001600160401b0381811683821601908082111562000a425762000a42620009e1565b8082018082111562000ac75762000ac7620009e1565b92915050565b60805160a05160c05160e0516101005161012051615fe062000b6a60003960008181610d04015261417e015260008181610815015281816140a30152614e8a015260008181610d5a015281816140cd0152614e4501526000818161095c01528181611fe801528181613d79015261476d0152600081816109350152613da3015260008181610a7701528181611ab901526139570152615fe06000f3fe608060405234801561001057600080fd5b50600436106104325760003560e01c806385f3c9c911610236578063c26322161161013b578063ded7c4b8116100c3578063ed54fd6311610087578063ed54fd6314610d7c578063ef88bf1314610d96578063f21d630414610da9578063f5a9838314610db8578063f5f5ba7214610dc057600080fd5b8063ded7c4b814610cff578063e0d4ea3714610d26578063e17f212e14610d39578063e22fdece14610d4d578063e8d0e70a14610d5557600080fd5b8063d34669111161010a578063d346691114610c4b578063d8a01a0a14610c6b578063dac4319d14610c85578063dc5a422514610cd9578063debfda3014610cec57600080fd5b8063c263221614610b89578063c9f1d2aa14610b9c578063d10e807f14610be0578063d2e9ad7114610bfa57600080fd5b8063a219fe02116101be578063aec84ab61161018d578063aec84ab614610ae9578063b00c0b7614610aff578063b59589d114610b12578063b6c25af014610b25578063be60040e14610b7657600080fd5b8063a219fe0214610a99578063a72b826e14610aac578063a733d54b14610abf578063ab25ac5b14610ad657600080fd5b80638fbaf860116102055780638fbaf86014610a255780639a75909714610a385780639b760d1314610a4b5780639dd6850f14610a5f578063a107753214610a7257600080fd5b806385f3c9c91461095757806388e49ac71461097e578063898805c1146109915780638f8f9f3a146109a457600080fd5b80634eaee3071161033c57806367daec89116102c45780636d0e8c34116102935780636d0e8c34146108d857806370562697146108e057806374e6310e146108fc57806375d2187a1461091d57806379e047ed1461093057600080fd5b806367daec891461088557806367fc4029146108985780636aeffddc146108ab5780636b4c7bd6146108c557600080fd5b80635a8320881161030b5780635a832088146108105780635aa6e675146108375780635ff270791461083f57806362354e0314610852578063647006e21461086557600080fd5b80634eaee307146107525780634f923d371461077e5780635267a15d1461079557806359db0e2f146107bc57600080fd5b80632a576f8d116103bf5780634615d5e91161038e5780634615d5e9146106e357806346831531146106f6578063490344f41461070b5780634c528765146107255780634eac870f1461073f57600080fd5b80632a576f8d146106145780632e3645f814610627578063388a4c3d1461064f57806341c05ad51461067d57600080fd5b80630f4ef8a6116104065780630f4ef8a6146104f2578063107d8ffb1461051d5780631703a788146105335780631916e9151461055b57806324eb64de1461060157600080fd5b8062ddae531461043757806306886f411461049a57806309505d25146104af578063098e7ff6146104c7575b600080fd5b610475610445366004615120565b62ffffff16600090815260036020819052604090912001546001600160401b0380821692600160401b9092041690565b604080516001600160401b039384168152929091166020830152015b60405180910390f35b6104ad6104a8366004615186565b610df4565b005b6104b7610f8b565b6040519015158152602001610491565b6007546104da906001600160401b031681565b6040516001600160401b039091168152602001610491565b600d54610505906001600160a01b031681565b6040516001600160a01b039091168152602001610491565b6009546104b79065010000000000900460ff1681565b6105466105413660046151c7565b610fc8565b60408051928352901515602083015201610491565b6104756105693660046151f5565b62ffffff919091166000818152600360209081526040808320600683528184205460058452828520548351808601979097528684019190915260608087019190915282518087039091018152608090950182528451948301949094208352600b90930181528282206001600160a01b03909416825260019093019092529020546001600160401b0380821692600160401b9092041690565b6104ad61060f36600461522c565b610ff8565b6104ad610622366004615260565b611053565b60095461063c906301000000900461ffff1681565b60405161ffff9091168152602001610491565b61066f61065d3660046151c7565b60066020526000908152604090205481565b604051908152602001610491565b61047561068b3660046151f5565b62ffffff909116600090815260036020908152604080832060048352818420548452600a0182528083206001600160a01b0390941683526001909301905220546001600160401b0380821692600160401b9092041690565b61063c6106f13660046151c7565b611140565b6106fe6111d1565b604051610491919061529c565b6007546104da90600160401b90046001600160401b031681565b6008546104da90600160801b90046001600160401b031681565b600e54610505906001600160a01b031681565b60075461076990600160e01b900463ffffffff1681565b60405163ffffffff9091168152602001610491565b60095461076990600160781b900463ffffffff1681565b7f714f205b2abd25bef1d06a1af944e38c113fe6160375c4e1d6d5cf28848e771954610505565b6104756107ca3660046151f5565b62ffffff90911660009081526003602090815260408083206001600160a01b0390941683526009909301905220546001600160401b0380821692600160401b9092041690565b6104da7f000000000000000000000000000000000000000000000000000000000000000081565b610505611233565b6104ad61084d3660046152dd565b6112cf565b600054610505906001600160a01b031681565b61066f6108733660046151c7565b60056020526000908152604090205481565b6104ad610893366004615315565b61154f565b6104ad6108a63660046152dd565b61159b565b6007546104da90600160801b90046001600160401b031681565b6104ad6108d3366004615344565b61167c565b6104b7611aac565b6108e8612782565b60405162ffffff9091168152602001610491565b61090f61090a3660046152dd565b61278c565b6040516104919291906153d1565b61076961092b3660046151c7565b612831565b6104da7f000000000000000000000000000000000000000000000000000000000000000081565b6104da7f000000000000000000000000000000000000000000000000000000000000000081565b600f54610505906001600160a01b031681565b6104ad61099f36600461540d565b6128c0565b6109f26109b2366004615120565b62ffffff166000908152600360205260409020546001600160401b0380821692600160401b8304821692600160801b8104831692600160c01b9091041690565b604080516001600160401b0395861681529385166020850152918416918301919091529091166060820152608001610491565b6104ad610a333660046154cd565b6129a5565b600b54610505906001600160a01b031681565b6009546104b790600160301b900460ff1681565b6104ad610a6d3660046155a7565b6129dd565b6105057f000000000000000000000000000000000000000000000000000000000000000081565b6008546104da906001600160401b031681565b6104ad610aba366004615315565b612c59565b60075461076990600160c01b900463ffffffff1681565b6104ad610ae436600461560c565b612ca6565b6009546108e890600160981b900462ffffff1681565b6104ad610b0d3660046156e6565b61321e565b600c54610505906001600160a01b031681565b6109f2610b33366004615120565b62ffffff166000908152600360205260409020600201546001600160401b0380821692600160401b8304821692600160801b8104831692600160c01b9091041690565b600a54610505906001600160a01b031681565b6104da610b973660046151c7565b6132f9565b610475610baa366004615120565b62ffffff16600090815260036020819052604090912001546001600160401b03600160801b8204811692600160c01b9092041690565b6008546104da90600160401b90046001600160401b031681565b6109f2610c08366004615120565b62ffffff166000908152600360205260409020600101546001600160401b0380821692600160401b8304821692600160801b8104831692600160c01b9091041690565b61066f610c593660046151c7565b60046020526000908152604090205481565b6008546104da90600160c01b90046001600160401b031681565b610475610c933660046151f5565b62ffffff90911660009081526003602090815260408083206001600160a01b0390941683526007909301905220546001600160401b0380821692600160401b9092041690565b6104ad610ce7366004615344565b613375565b6104b7610cfa36600461522c565b613842565b6104da7f000000000000000000000000000000000000000000000000000000000000000081565b61066f610d343660046151c7565b6138cb565b6000546104b790600160a81b900460ff1681565b6104b761394a565b6104da7f000000000000000000000000000000000000000000000000000000000000000081565b6009546104da90600160381b90046001600160401b031681565b6104ad610da436600461579e565b6139be565b6009546108e89062ffffff1681565b6104ad613b24565b6040805180820182526012815271233630b932a9bcb9ba32b6a6b0b730b3b2b960711b6020820152905161049191906157bc565b600054600160b01b900460ff1680610e165750600054600160a81b900460ff16155b15610f7c57610e23613bea565b610e2f601060006150a4565b8060005b81811015610f76576000848483818110610e4f57610e4f6157cf565b9050602002016020810190610e64919061522c565b90506000610e738360016157fb565b90505b83811015610f1357858582818110610e9057610e906157cf565b9050602002016020810190610ea5919061522c565b6001600160a01b0316826001600160a01b031603610f015760405162461bcd60e51b81526020600482015260146024820152736475706c69636174656420636f6e74726163747360601b60448201526064015b60405180910390fd5b80610f0b8161580e565b915050610e76565b50601080546001810182556000919091527f1b6847dc741a1b0cd08d278845f9d819d87b734759afb55fe2de5cb82a9ae6720180546001600160a01b0319166001600160a01b039290921691909117905580610f6e8161580e565b915050610e33565b50505050565b610f87600036613c24565b5050565b600080610f96613d70565b610fa1906001615827565b62ffffff166000818152600360205260409020909150610fc2908290613e04565b91505090565b600081815260036020526040812060058101546001600160401b03169190610ff1908490613e04565b9050915091565b600054600160b01b900460ff168061101a5750600054600160a81b900460ff16155b1561104557611027613bea565b600f80546001600160a01b0319166001600160a01b03831617905550565b611050600036613c24565b50565b61105b613f18565b611063613d70565b62ffffff168362ffffff161061108b5760405162461bcd60e51b8152600401610ef89061584a565b62ffffff83166000908152600560209081526040808320849055600690915290206001600160401b03831690556110c0611233565b6001600160a01b03166110d1611233565b6001600160a01b03168462ffffff167f80df246a47153e3604b0026fcf53ec85ea48178efd4f3cad24f9a1e1da2dd52a848661110c42613f72565b604080519384526001600160401b0392831660208501529116908201526001606082015260800160405180910390a4505050565b60008181526003602052604081206001015482906001600160401b031682036111ab5760405162461bcd60e51b815260206004820181905260248201527f7265776172642065706f6368206e6f7420696e697469616c697a6564207965746044820152606401610ef8565b600083815260036020526040902060050154600160601b900461ffff1691505b50919050565b6060601080548060200260200160405190810160405280929190818152602001828054801561122957602002820191906000526020600020905b81546001600160a01b0316815260019091019060200180831161120b575b5050505050905090565b60008054600160a81b900460ff1661125557506001546001600160a01b031690565b60008054906101000a90046001600160a01b03166001600160a01b031663732524946040518163ffffffff1660e01b8152600401602060405180830381865afa1580156112a6573d6000803e3d6000fd5b505050506040513d601f19601f820116820180604052508101906112ca9190615877565b905090565b6112d833613842565b6113145760405162461bcd60e51b815260206004820152600d60248201526c37b7363c9032bc32b1baba37b960991b6044820152606401610ef8565b6001600160e01b031981166000908152600260205260408120805490910361137e5760405162461bcd60e51b815260206004820152601a60248201527f74696d656c6f636b3a20696e76616c69642073656c6563746f720000000000006044820152606401610ef8565b80544210156113cf5760405162461bcd60e51b815260206004820152601960248201527f74696d656c6f636b3a206e6f7420616c6c6f77656420796574000000000000006044820152606401610ef8565b60008160010180546113e090615894565b80601f016020809104026020016040519081016040528092919081815260200182805461140c90615894565b80156114595780601f1061142e57610100808354040283529160200191611459565b820191906000526020600020905b81548152906001019060200180831161143c57829003601f168201915b505050506001600160e01b031985166000908152600260205260408120818155929350905061148b60018301826150c2565b50506000805460ff60b01b1916600160b01b17815560405130906114b09084906158c8565b6000604051808303816000865af19150503d80600081146114ed576040519150601f19603f3d011682016040523d82523d6000602084013e6114f2565b606091505b50506000805460ff60b01b19169055604080516001600160e01b0319871681524260208201529192507fa7326b57fc9cfe267aaea5e7f0b01757154d265620a0585819416ee9ddd2c438910160405180910390a1610f7681613fac565b600054600160b01b900460ff16806115715750600054600160a81b900460ff16155b156110455761157e613bea565b6009805466ff0000000000001916600160301b8315150217905550565b6115a3613f18565b6001600160e01b03198116600090815260026020526040812054900361160b5760405162461bcd60e51b815260206004820152601a60248201527f74696d656c6f636b3a20696e76616c69642073656c6563746f720000000000006044820152606401610ef8565b604080516001600160e01b0319831681524260208201527f7735b2391c38a81419c513e30ca578db7158eadd7101511b23e221c654d19cf8910160405180910390a16001600160e01b0319811660009081526002602052604081208181559061167760018301826150c2565b505050565b811580159061169257508161169084613fc9565b145b6116de5760405162461bcd60e51b815260206004820152601f60248201527f6e6577207369676e696e6720706f6c696379206861736820696e76616c6964006044820152606401610ef8565b62ffffff831660009081526003602052604090206001810154600160801b90046001600160401b03161561175e5760405162461bcd60e51b815260206004820152602160248201527f6e6577207369676e696e6720706f6c69637920616c7265616479207369676e656044820152601960fa1b6064820152608401610ef8565b60006117698461403b565b9050600061178d8261177e60208701876158e4565b8660200135876040013561406e565b600a5490915060009081906001600160a01b0316638c6457286117b160018b6158ff565b6040516001600160e01b031960e084901b16815262ffffff90911660048201526001600160a01b03861660248201526044016040805180830381865afa1580156117ff573d6000803e3d6000fd5b505050506040513d601f19601f820116820180604052508101906118239190615926565b90925090506001600160a01b03821661184e5760405162461bcd60e51b8152600401610ef890615955565b6001600160a01b03821660009081526007860160205260409020546001600160401b0316156118bf5760405162461bcd60e51b815260206004820152601e60248201527f7369676e696e67206164647265737320616c7265616479207369676e656400006044820152606401610ef8565b60405180604001604052806118d342613f72565b6001600160401b031681526020016118ea43613f72565b6001600160401b039081169091526001600160a01b0384166000908152600788016020908152604082208451815495909201518416600160401b026001600160801b0319909516919093161792909217905560038161194a60018c6158ff565b62ffffff168152602081019190915260400160002060050154600687015461ffff600160601b90920482169161198291859116615980565b61ffff161190508015611a045761199842613f72565b8660010160106101000a8154816001600160401b0302191690836001600160401b031602179055506119c943613f72565b6001870180546001600160401b0392909216600160c01b026001600160c01b0390921691909117905560068601805461ffff19169055611a3a565b600686018054839190600090611a1f90849061ffff16615980565b92506101000a81548161ffff021916908361ffff1602179055505b826001600160a01b0316846001600160a01b03168a62ffffff167f154b0214ae62d8a5548c1eac25fabd87c38b04932a217732e1022f3118da67f3611a7e42613f72565b604080516001600160401b0390921682528615156020830152015b60405180910390a4505050505050505050565b6000336001600160a01b037f00000000000000000000000000000000000000000000000000000000000000001614611b1a5760405162461bcd60e51b815260206004820152601160248201527037b7363c90333630b932903230b2b6b7b760791b6044820152606401610ef8565b6000611b2461409c565b90506000611b30613d70565b6007546009549192508291611b5f916001600160401b03600160801b909104811691600160381b90041661599b565b6001600160401b03164210612179576000611b7b836001615827565b90506000611b8882613fc9565b03611fd55762ffffff81166000908152600360205260408120805490916001600160401b039091169003611cbd57611bbf42613f72565b815467ffffffffffffffff19166001600160401b0391909116178155611be443613f72565b81546001600160401b0391909116600160401b0267ffffffffffffffff60401b19909116178155600a54604051635213182360e01b815262ffffff841660048201526001600160a01b0390911690635213182390602401600060405180830381600087803b158015611c5557600080fd5b505af1158015611c69573d6000803e3d6000fd5b505050508162ffffff167ff9991783e5e480e42d9a54d3f35f4321857f8f0ebeb3742d326dce28b1126708611c9d42613f72565b6040516001600160401b03909116815260200160405180910390a2611fd3565b8054600160801b90046001600160401b0316600003611f5a576000806000600c60009054906101000a90046001600160a01b03166001600160a01b031663dbdff2c16040518163ffffffff1660e01b8152600401606060405180830381865afa158015611d2e573d6000803e3d6000fd5b505050506040513d601f19601f82011682018060405250810190611d5291906159bb565b865492955090935091506000906001600160401b031682118015611d735750825b15611d8957611d82868561410f565b9050611e43565b60075485544391611db1916001600160401b03600160401b92839004811692909104166159f4565b6001600160401b0316108015611dea575060075485544291611ddf916001600160401b0391821691166159f4565b6001600160401b0316105b15611e43575062ffffff87166000908152600360205260409020600501546001600160401b03168015611e365762ffffff88166000908152600360205260409020600401549350611e43565b611e40868561410f565b90505b6001600160401b03811615611f515743816001600160401b031610611e6a57611e6a615a14565b611e7342613f72565b85546001600160401b0391909116600160801b0267ffffffffffffffff60801b19909116178555611ea343613f72565b85546001600160c01b0316600160c01b6001600160401b039283160217865560058601805467ffffffffffffffff19169183169190911790556004850184905562ffffff86167ff21722dbe044a7cea0f6d81c871cae750971e36c9dd10999e46f2b46f26ac7ff82611f1442613f72565b604080516001600160401b0393841681529290911660208301520160405180910390a2600f546001600160a01b031615611f5157611f51866141f9565b50505050611fd3565b611f698262ffffff1682613e04565b611fd357611f7642613f72565b60018201805467ffffffffffffffff19166001600160401b0392909216919091179055611fa243613f72565b8160010160086101000a8154816001600160401b0302191690836001600160401b03160217905550611fd382614294565b505b611fde81614473565b15612177578092507f0000000000000000000000000000000000000000000000000000000000000000600960078282829054906101000a90046001600160401b031661202a91906159f4565b92506101000a8154816001600160401b0302191690836001600160401b0316021790555061205742613f72565b62ffffff8416600090815260036020819052604090912001805467ffffffffffffffff19166001600160401b039290921691909117905561209743613f72565b62ffffff84166000818152600360208190526040909120908101805467ffffffffffffffff60401b1916600160401b6001600160401b039590951685021790556005015490917f4abb62ab1e4c42a11b90e4e45b92af1274f74cc634b759518e8c99e000d8be6d910463ffffffff1661210f42613f72565b6040805163ffffffff90931683526001600160401b0390911660208301520160405180910390a2600954600160301b900460ff161561215957612151836144e3565b612159614657565b600954612177908490600160381b90046001600160401b0316614717565b505b60095463ffffffff600160781b909104811690841611156123c0576009805463ffffffff60781b1916600160781b63ffffffff861602179055600a54604051637c2cb92160e01b815262ffffff83166004820152606091829182916001600160a01b031690637c2cb92190602401600060405180830381865afa158015612204573d6000803e3d6000fd5b505050506040513d6000823e601f3d908101601f1916820160405261222c9190810190615a8e565b600a54604051635b0dabfd60e11b815262ffffff871660048201529193506001600160a01b03169063b61b57fa90602401600060405180830381865afa15801561227a573d6000803e3d6000fd5b505050506040513d6000823e601f3d908101601f191682016040526122a29190810190615a8e565b90508362ffffff168562ffffff16111561233257600a54604051637c2cb92160e01b815262ffffff871660048201526001600160a01b0390911690637c2cb92190602401600060405180830381865afa158015612303573d6000803e3d6000fd5b505050506040513d6000823e601f3d908101601f1916820160405261232b9190810190615a8e565b9250612336565b8192505b600b546009546001600160a01b039091169063f8ae8a2f908590859065010000000000900460ff16612368578561236a565b865b856040518563ffffffff1660e01b815260040161238a9493929190615b06565b600060405180830381600087803b1580156123a457600080fd5b505af11580156123b8573d6000803e3d6000fd5b505050505050505b6009546000906123dd90600160b01b900462ffffff166001615827565b90508062ffffff168362ffffff1611801561241e575062ffffff811660009081526003602081905260409091200154600160801b90046001600160401b0316155b156125b8576000600381612433846001615827565b62ffffff168152602081019190915260400160002060085460038201549192504291612472916001600160401b03600160801b909104811691166159f4565b6001600160401b03161080156124bd5750600854600382015443916124b2916001600160401b03600160c01b909204821691600160401b909104166159f4565b6001600160401b0316105b156125b6576009805462ffffff60b01b1916600160b01b62ffffff8516021790556124e742613f72565b62ffffff831660009081526003602081905260409091200180546001600160401b0392909216600160801b0267ffffffffffffffff60801b1990921691909117905561253243613f72565b62ffffff831660008181526003602081905260409091200180546001600160401b0393909316600160c01b026001600160c01b03909316929092179091557ff03263754f56959acf7e09464f5d304491e4e5389363e5e12d2ce2ad492632f461259a42613f72565b6040516001600160401b03909116815260200160405180910390a25b505b600954600160301b900460ff1661277757600d546040805163deea13e760e01b815290516000926001600160a01b03169163deea13e79160048083019260209291908290030181865afa158015612613573d6000803e3d6000fd5b505050506040513d601f19601f820116820180604052508101906126379190615b53565b90505b60095462ffffff808616600160981b909204161080156126825750600954600160981b900462ffffff166000908152600360205260409020600501546001600160401b031681115b1561277557600d54600954604051636b60edf760e11b8152600160981b90910462ffffff1660048201526001600160a01b039091169063d6c1dbee90602401600060405180830381600087803b1580156126db57600080fd5b505af19250505080156126ec575060015b61273757600954604051600160981b90910462ffffff1681527fc0cded1f60001401da804c8a7703c1e8dc60521fca0f0f9853e2f1984b5410ba9060200160405180910390a1612775565b60098054600160981b900462ffffff1690601361275383615b6c565b91906101000a81548162ffffff021916908362ffffff1602179055505061263a565b505b600194505050505090565b60006112ca613d70565b600260205260009081526040902080546001820180549192916127ae90615894565b80601f01602080910402602001604051908101604052809291908181526020018280546127da90615894565b80156128275780601f106127fc57610100808354040283529160200191612827565b820191906000526020600020905b81548152906001019060200180831161280a57829003601f168201915b5050505050905082565b60008181526003602052604081206001015482906001600160401b0316820361289c5760405162461bcd60e51b815260206004820181905260248201527f7265776172642065706f6368206e6f7420696e697469616c697a6564207965746044820152606401610ef8565b5050600090815260036020526040902060050154600160401b900463ffffffff1690565b600054600160b01b900460ff16806128e25750600054600160a81b900460ff16155b15610f7c576128ef613bea565b620f42408262ffffff16111561293c5760405162461bcd60e51b81526020600482015260126024820152710e8d0e4cae6d0ded8c840e8dede40d0d2ced60731b6044820152606401610ef8565b60008161ffff161161297e5760405162461bcd60e51b815260206004820152600b60248201526a7a65726f20766f7465727360a81b6044820152606401610ef8565b6009805461ffff831663010000000264ffffffffff1990911662ffffff8516171790555050565b600054600160b01b900460ff16806129c75750600054600160a81b900460ff16155b15611045576129d4613bea565b611050816147ec565b6129e5613d70565b62ffffff168462ffffff1610612a0d5760405162461bcd60e51b8152600401610ef89061584a565b62ffffff8416600090815260036020819052604090912090810154600160801b90046001600160401b031615612a915760405162461bcd60e51b815260206004820152602360248201527f7375626d697420757074696d6520766f746520616c72656164792066696e69736044820152621a195960ea1b6064820152608401610ef8565b6000858585604051602001612aa893929190615be3565b6040516020818303038152906040528051906020012090506000612acb8261403b565b90506000612aef82612ae060208801886158e4565b8760200135886040013561406e565b600a5460405163118c8ae560e31b815262ffffff8b1660048201526001600160a01b03808416602483015292935060009290911690638c645728906044016040805180830381865afa158015612b49573d6000803e3d6000fd5b505050506040513d601f19601f82011682018060405250810190612b6d9190615926565b5090506001600160a01b038116612b965760405162461bcd60e51b8152600401610ef890615955565b6040518060400160405280612baa42613f72565b6001600160401b03168152602001612bc143613f72565b6001600160401b039081169091526001600160a01b03808416600081815260098a01602090815260409091208551815496909201518516600160401b026001600160801b0319909616919094161793909317909155831662ffffff8b167fed370d61eb315e1d46d979894585530b99f94dab64c0d40366685aebe39e3db08b8b612c4a42613f72565b604051611a9993929190615c02565b600054600160b01b900460ff1680612c7b5750600054600160a81b900460ff16155b1561104557612c88613bea565b6009805465ff00000000001916650100000000008315150217905550565b81612ce75760405162461bcd60e51b8152602060048201526011602482015270726577617264732068617368207a65726f60781b6044820152606401610ef8565b62ffffff84166000908152600360205260409020612d03613d70565b62ffffff168562ffffff1610612d2b5760405162461bcd60e51b8152600401610ef89061584a565b60036000612d3a876001615827565b62ffffff1681526020810191909152604001600090812060010154600160801b90046001600160401b03169003612dbd5760405162461bcd60e51b815260206004820152602160248201527f6e6577207369676e696e6720706f6c696379206e6f74207369676e65642079656044820152601d60fa1b6064820152608401610ef8565b62ffffff8516600090815260046020526040902054612e1e5760405162461bcd60e51b815260206004820152601f60248201527f757074696d6520766f74652068617368206e6f74207369676e656420796574006044820152606401610ef8565b62ffffff851660009081526005602052604090205415612e805760405162461bcd60e51b815260206004820152601b60248201527f72657761726473206861736820616c7265616479207369676e656400000000006044820152606401610ef8565b6040805162ffffff871660208201526001600160401b03861691810191909152606081018490526000906080016040516020818303038152906040528051906020012090506000612ed08261403b565b90506000612ee582612ae060208801886158e4565b600a5460405163118c8ae560e31b815262ffffff8b1660048201526001600160a01b03808416602483015292935060009283921690638c645728906044016040805180830381865afa158015612f3f573d6000803e3d6000fd5b505050506040513d601f19601f82011682018060405250810190612f639190615926565b90925090506001600160a01b038216612f8e5760405162461bcd60e51b8152600401610ef890615955565b6000858152600b8701602090815260408083206001600160a01b03861684526001019091529020546001600160401b0316156130035760405162461bcd60e51b81526020600482015260146024820152731d9bdd195c88185b1c9958591e481cda59db995960621b6044820152606401610ef8565b604051806040016040528061301742613f72565b6001600160401b0316815260200161302e43613f72565b6001600160401b039081169091526000878152600b8901602081815260408084206001600160a01b038916855260018101835290842086518154978401518716600160401b026001600160801b03199098169616959095179590951790935560058a01548983529252915461ffff600160601b9092048216916130b391859116615980565b61ffff16119050801561315c576130c942613f72565b8760020160106101000a8154816001600160401b0302191690836001600160401b031602179055506130fa43613f72565b6002880180546001600160c01b0316600160c01b6001600160401b039384160217905562ffffff8c1660009081526005602090815260408083208d905560068252808320938e16909355888252600b8a01905220805461ffff1916905561319b565b6000868152600b880160205260408120805484929061318090849061ffff16615980565b92506101000a81548161ffff021916908361ffff1602179055505b826001600160a01b0316846001600160a01b03168c62ffffff167f80df246a47153e3604b0026fcf53ec85ea48178efd4f3cad24f9a1e1da2dd52a8c8e6131e142613f72565b604080519384526001600160401b039283166020850152911690820152851515606082015260800160405180910390a45050505050505050505050565b7f714f205b2abd25bef1d06a1af944e38c113fe6160375c4e1d6d5cf28848e7719546001600160a01b0316336001600160a01b0316146132975760405162461bcd60e51b815260206004820152601460248201527337b7363c9030b2323932b9b9903ab83230ba32b960611b6044820152606401610ef8565b6132ef6132cb83836040518060400160405280600e81526020016d20b2323932b9b9aab83230ba32b960911b8152506149ac565b7f714f205b2abd25bef1d06a1af944e38c113fe6160375c4e1d6d5cf28848e771955565b610f878282614a87565b6000818152600360205260408120600501546001600160401b0316908190036133705760405162461bcd60e51b8152602060048201526024808201527f766f746520706f77657220626c6f636b206e6f7420696e697469616c697a6564604482015263081e595d60e21b6064820152608401610ef8565b919050565b816133ba5760405162461bcd60e51b8152602060048201526015602482015274757074696d6520766f74652068617368207a65726f60581b6044820152606401610ef8565b62ffffff831660009081526003602052604090206133d6613d70565b62ffffff168462ffffff16106133fe5760405162461bcd60e51b8152600401610ef89061584a565b6003810154600160801b90046001600160401b03166000036134625760405162461bcd60e51b815260206004820181905260248201527f7369676e20757074696d6520766f7465206e6f742073746172746564207965746044820152606401610ef8565b62ffffff8416600090815260046020526040902054156134c45760405162461bcd60e51b815260206004820152601f60248201527f757074696d6520766f7465206861736820616c7265616479207369676e6564006044820152606401610ef8565b6040805162ffffff8616602082015290810184905260009060600160405160208183030381529060405280519060200120905060006135028261403b565b9050600061351782612ae060208801886158e4565b600a5460405163118c8ae560e31b815262ffffff8a1660048201526001600160a01b03808416602483015292935060009283921690638c645728906044016040805180830381865afa158015613571573d6000803e3d6000fd5b505050506040513d601f19601f820116820180604052508101906135959190615926565b90925090506001600160a01b0382166135c05760405162461bcd60e51b8152600401610ef890615955565b6000888152600a8701602090815260408083206001600160a01b03861684526001019091529020546001600160401b0316156136355760405162461bcd60e51b81526020600482015260146024820152731d9bdd195c88185b1c9958591e481cda59db995960621b6044820152606401610ef8565b604051806040016040528061364942613f72565b6001600160401b0316815260200161366043613f72565b6001600160401b0390811690915260008a8152600a8901602081815260408084206001600160a01b038916855260018101835290842086518154978401518716600160401b026001600160801b03199098169616959095179590951790935560058a01548c83529252915461ffff600160601b9092048216916136e591859116615980565b61ffff161190508015613789576136fb42613f72565b60028801805467ffffffffffffffff19166001600160401b039290921691909117905561372743613f72565b6002880180546001600160401b0392909216600160401b0267ffffffffffffffff60401b1990921691909117905562ffffff8a1660009081526004602090815260408083208c90558b8352600a8a019091529020805461ffff191690556137c8565b6000898152600a88016020526040812080548492906137ad90849061ffff16615980565b92506101000a81548161ffff021916908361ffff1602179055505b826001600160a01b0316846001600160a01b03168b62ffffff167f5506337d1266599f8b64675a1c8321701657ca2f2f70be0e0c58302b6c22e7978c61380d42613f72565b604080519283526001600160401b0390911660208301528615159082015260600160405180910390a450505050505050505050565b60008054600160a01b900460ff1680156138c55750600054604051630debfda360e41b81526001600160a01b0384811660048301529091169063debfda3090602401602060405180830381865afa1580156138a1573d6000803e3d6000fd5b505050506040513d601f19601f820116820180604052508101906138c59190615c2f565b92915050565b6000818152600360205260408120600501546001600160401b031681036139345760405162461bcd60e51b815260206004820152601860248201527f73656564206e6f7420696e697469616c697a65642079657400000000000000006044820152606401610ef8565b5060009081526003602052604090206004015490565b6000336001600160a01b037f000000000000000000000000000000000000000000000000000000000000000016146139b85760405162461bcd60e51b815260206004820152601160248201527037b7363c90333630b932903230b2b6b7b760791b6044820152606401610ef8565b50600090565b600054600160a01b900460ff1615613a0f5760405162461bcd60e51b8152602060048201526014602482015273696e697469616c6973656420213d2066616c736560601b6044820152606401610ef8565b6001600160a01b038216613a655760405162461bcd60e51b815260206004820152601860248201527f676f7665726e616e63652073657474696e6773207a65726f00000000000000006044820152606401610ef8565b6001600160a01b038116613aae5760405162461bcd60e51b815260206004820152601060248201526f5f676f7665726e616e6365207a65726f60801b6044820152606401610ef8565b600080546001600160a01b038481166001600160a81b031990921691909117600160a01b17909155600180549183166001600160a01b0319909216821790556040519081527f9789733827840833afc031fb2ef9ab6894271f77bad2085687cf4ae5c7bee4db9060200160405180910390a15050565b613b2c613f18565b600054600160a81b900460ff1615613b865760405162461bcd60e51b815260206004820152601a60248201527f616c726561647920696e2070726f64756374696f6e206d6f64650000000000006044820152606401610ef8565b600180546001600160a01b031916905560008054600160a81b60ff60a81b198216179091556040516001600160a01b0390911681527f83af113638b5422f9e977cebc0aaf0eaf2188eb9a8baae7f9d46c42b33a1560c9060200160405180910390a1565b600054600160b01b900460ff1615613c1a57333014613c0b57613c0b615a14565b6000805460ff60b01b19169055565b613c22613f18565b565b613c2c613f18565b6000805460408051636221a54b60e01b81529051853593926001600160a01b031691636221a54b9160048083019260209291908290030181865afa158015613c78573d6000803e3d6000fd5b505050506040513d601f19601f82011682018060405250810190613c9c9190615b53565b90506000613caa82426157fb565b9050604051806040016040528082815260200186868080601f01602080910402602001604051908101604052809392919081815260200183838082843760009201829052509390945250506001600160e01b03198616815260026020908152604090912083518155908301519091506001820190613d289082615c9a565b509050507fed948300a3694aa01d4a6b258bfd664350193d770c0b51f8387277f6d83ea3b683828787604051613d619493929190615d59565b60405180910390a15050505050565b60006112ca60017f00000000000000000000000000000000000000000000000000000000000000006001600160401b03167f0000000000000000000000000000000000000000000000000000000000000000600960079054906101000a90046001600160401b0316613de2919061599b565b6001600160401b0316613df59190615db5565b613dff9190615dc9565b614c38565b8054600090600160801b90046001600160401b031615801590613f1157506008548254613e44916001600160401b0390811691600160801b9004166159f4565b6001600160401b031642111580613e8c57506008548254613e7f916001600160401b03600160401b909104811691600160c01b9004166159f4565b6001600160401b03164311155b80613f115750600954600a54604051630da7a50d60e21b815260048101869052630100000090920461ffff16916001600160a01b039091169063369e943490602401602060405180830381865afa158015613eeb573d6000803e3d6000fd5b505050506040513d601f19601f82011682018060405250810190613f0f9190615b53565b105b9392505050565b613f20611233565b6001600160a01b0316336001600160a01b031614613c225760405162461bcd60e51b815260206004820152600f60248201526e6f6e6c7920676f7665726e616e636560881b6044820152606401610ef8565b60006001600160401b03821115613fa857604080516306dfcc6560e41b8152600481019190915260248101839052604401610ef8565b5090565b3d604051818101604052816000823e8215613fc5578181f35b8181fd5b600c54604051630c85bf0760e01b815262ffffff831660048201526000916001600160a01b031690630c85bf0790602401602060405180830381865afa158015614017573d6000803e3d6000fd5b505050506040513d601f19601f820116820180604052508101906138c59190615b53565b7f19457468657265756d205369676e6564204d6573736167653a0a3332000000006000908152601c91909152603c902090565b60008060008061408088888888614c68565b9250925092506140908282614d37565b50909695505050505050565b60006112ca7f00000000000000000000000000000000000000000000000000000000000000006001600160401b03167f00000000000000000000000000000000000000000000000000000000000000006001600160401b0316426141009190615dc9565b61410a9190615db5565b614df0565b6000806003816141206001876158ff565b62ffffff9081168252602080830193909352604091820160009081205491881681526003909352908220546001600160401b03600160401b928390048116945091900416908281036141b7576141b06141ab836001600160401b03167f00000000000000000000000000000000000000000000000000000000000000006001600160401b0316614e21565b613f72565b90506141c4565b6141c1838361599b565b90505b60006141d96001600160401b03831687615ddc565b90506141e481613f72565b6141ee908461599b565b979650505050505050565b600f54604051637b83fb0960e11b815262ffffff831660048201526001600160a01b039091169063f707f61290602401600060405180830381600087803b15801561424357600080fd5b505af1925050508015614254575060015b6110505760405162ffffff821681527f449d255b9c487823db86822a857f218d40682abada12acee2483788dc2fa975a906020015b60405180910390a150565b62ffffff81166000818152600360209081526040808320815160c0810183529283018490529082018390526060808301939093526080820183905260a0820192909252918252906142e3614e37565b63ffffffff166020820152600a5460405163c452e47f60e01b815262ffffff851660048201526000916001600160a01b03169063c452e47f906024016000604051808303816000875af115801561433e573d6000803e3d6000fd5b505050506040513d6000823e601f3d908101601f191682016040526143669190810190615df0565b60a0850191909152608084019190915260095461ffff909116915061439e9061439990839062ffffff16620f4240614f0f565b614f4f565b61ffff16604080840182905260048086015460608601526020850151600587018054600160601b90950261ffff60601b1963ffffffff909316600160401b02929092166dffffffffffff0000000000000000199095169490941717909255600c549051638353412560e01b81526001600160a01b039091169163835341259161442991869101615eba565b6020604051808303816000875af1158015614448573d6000803e3d6000fd5b505050506040513d601f19601f8201168201806040525081019061446c9190615b53565b5050505050565b600954600090600160381b90046001600160401b031642108015906144a15750600061449e83613fc9565b14155b80156138c5575062ffffff8216600090815260036020526040902060050154600160401b900463ffffffff166144d561409c565b63ffffffff16101592915050565b60075460009061450090600160e01b900463ffffffff1642615dc9565b90505b60095462ffffff808416600160981b909204161080156145655750600954819060039060009061454090600160981b900462ffffff166001615827565b62ffffff1681526020810191909152604001600020600301546001600160401b031611155b15610f8757600d54600954604051636b60edf760e11b8152600160981b90910462ffffff1660048201526001600160a01b039091169063d6c1dbee90602401600060405180830381600087803b1580156145be57600080fd5b505af19250505080156145cf575060015b61461957600954604051600160981b90910462ffffff1681527fc0cded1f60001401da804c8a7703c1e8dc60521fca0f0f9853e2f1984b5410ba9060200160405180910390a15050565b60098054600160981b900462ffffff1690601361463583615b6c565b91906101000a81548162ffffff021916908362ffffff16021790555050614503565b600954600160981b900462ffffff166000908152600360205260409081902060050154600e54915163cbc31cf760e01b81526001600160401b0390911660048201819052916001600160a01b03169063cbc31cf790602401600060405180830381600087803b1580156146c957600080fd5b505af19250505080156146da575060015b611050576040516001600160401b03821681527fe9a7be2e41a6b0b36d253d56488c6844e611be2bffd8dd4b69b89a078f41fecc90602001614289565b60005b6010548110156116775760108181548110614737576147376157cf565b6000918252602090912001546040516391f2567960e01b815262ffffff851660048201526001600160401b0380851660248301527f00000000000000000000000000000000000000000000000000000000000000001660448201526001600160a01b03909116906391f2567990606401600060405180830381600087803b1580156147c157600080fd5b505af11580156147d5573d6000803e3d6000fd5b5050505080806147e49061580e565b91505061471a565b620f424081610100015162ffffff16111561483e5760405162461bcd60e51b81526020600482015260126024820152710e8d0e4cae6d0ded8c840e8dede40d0d2ced60731b6044820152606401610ef8565b600081610120015161ffff16116148855760405162461bcd60e51b815260206004820152600b60248201526a7a65726f20766f7465727360a81b6044820152606401610ef8565b80516007805460208401516040850151606086015161014087015161ffff9687166001600160801b031995861617938716600160401b908102949094176bffffffffffffffffffffffff60801b1916928716600160801b90810263ffffffff60c01b19169390931760ff909216600160c01b908102929092176001600160e01b0316600160e01b63ffffffff909216919091021790945560808601516008805460a089015160c08a015160e08b0151948a169290971691909117908816909402939093176fffffffffffffffffffffffffffffffff169386169091026001600160c01b031692909217918416909202179055610100820151600980546101209094015162ffffff90921664ffffffffff199094169390931763010000009190921602179055565b600080826040516020016149c091906157bc565b6040516020818303038152906040528051906020012090506000805b8651811015614a38578681815181106149f7576149f76157cf565b60200260200101518303614a2657858181518110614a1757614a176157cf565b60200260200101519150614a38565b80614a308161580e565b9150506149dc565b506001600160a01b038116614a7e5760405162461bcd60e51b815260206004820152600c60248201526b61646472657373207a65726f60a01b6044820152606401610ef8565b95945050505050565b614ab782826040518060400160405280600d81526020016c566f746572526567697374727960981b8152506149ac565b600a60006101000a8154816001600160a01b0302191690836001600160a01b03160217905550614b0a82826040518060400160405280600a81526020016929bab136b4b9b9b4b7b760b11b8152506149ac565b600b60006101000a8154816001600160a01b0302191690836001600160a01b03160217905550614b5882826040518060400160405280600581526020016452656c617960d81b8152506149ac565b600c60006101000a8154816001600160a01b0302191690836001600160a01b03160217905550614bae82826040518060400160405280600d81526020016c2932bbb0b93226b0b730b3b2b960991b8152506149ac565b600d60006101000a8154816001600160a01b0302191690836001600160a01b03160217905550614c1482826040518060400160405280601981526020017f436c65616e7570426c6f636b4e756d6265724d616e61676572000000000000008152506149ac565b600e80546001600160a01b0319166001600160a01b03929092169190911790555050565b600062ffffff821115613fa8576040516306dfcc6560e41b81526018600482015260248101839052604401610ef8565b600080807f7fffffffffffffffffffffffffffffff5d576e7357a4501ddfe92f46681b20a0841115614ca35750600091506003905082614d2d565b604080516000808252602082018084528a905260ff891692820192909252606081018790526080810186905260019060a0016020604051602081039080840390855afa158015614cf7573d6000803e3d6000fd5b5050604051601f1901519150506001600160a01b038116614d2357506000925060019150829050614d2d565b9250600091508190505b9450945094915050565b6000826003811115614d4b57614d4b615f60565b03614d54575050565b6001826003811115614d6857614d68615f60565b03614d865760405163f645eedf60e01b815260040160405180910390fd5b6002826003811115614d9a57614d9a615f60565b03614dbb5760405163fce698f760e01b815260048101829052602401610ef8565b6003826003811115614dcf57614dcf615f60565b03610f87576040516335e2f38360e21b815260048101829052602401610ef8565b600063ffffffff821115613fa8576040516306dfcc6560e41b81526020600482015260248101839052604401610ef8565b6000818310614e305781613f11565b5090919050565b6009546000908190614e7a907f000000000000000000000000000000000000000000000000000000000000000090600160381b90046001600160401b031661599b565b6001600160401b03169050614ebd7f00000000000000000000000000000000000000000000000000000000000000006001600160401b03168261410a9190615db5565b600754909250600090600160c01b900463ffffffff16614edb61409c565b614ee59190615f76565b614ef0906001615f76565b90508063ffffffff168363ffffffff161015614f0a578092505b505090565b600080614f1d858585614f7e565b905060008380614f2f57614f2f615d9f565b85870990508015614f435781600101614f45565b815b9695505050505050565b600061ffff821115613fa8576040516306dfcc6560e41b81526010600482015260248101839052604401610ef8565b6000808211614fc25760405162461bcd60e51b815260206004820152601060248201526f4469766973696f6e206279207a65726f60801b6044820152606401610ef8565b83600003614fd257506000613f11565b83830283858281614fe557614fe5615d9f565b040361500357828181614ffa57614ffa615d9f565b04915050613f11565b5060006150108386615db5565b9050600061501e8487615ddc565b9050600061502c8587615db5565b9050600061503a8688615ddc565b9050856150478285615f93565b6150519190615db5565b61505b8385615f93565b6150658387615f93565b886150708689615f93565b61507a9190615f93565b61508491906157fb565b61508e91906157fb565b61509891906157fb565b98975050505050505050565b508054600082559060005260206000209081019061105091906150f8565b5080546150ce90615894565b6000825580601f106150de575050565b601f01602090049060005260206000209081019061105091905b5b80821115613fa857600081556001016150f9565b803562ffffff8116811461337057600080fd5b60006020828403121561513257600080fd5b613f118261510d565b60008083601f84011261514d57600080fd5b5081356001600160401b0381111561516457600080fd5b6020830191508360208260051b850101111561517f57600080fd5b9250929050565b6000806020838503121561519957600080fd5b82356001600160401b038111156151af57600080fd5b6151bb8582860161513b565b90969095509350505050565b6000602082840312156151d957600080fd5b5035919050565b6001600160a01b038116811461105057600080fd5b6000806040838503121561520857600080fd5b6152118361510d565b91506020830135615221816151e0565b809150509250929050565b60006020828403121561523e57600080fd5b8135613f11816151e0565b80356001600160401b038116811461337057600080fd5b60008060006060848603121561527557600080fd5b61527e8461510d565b925061528c60208501615249565b9150604084013590509250925092565b6020808252825182820181905260009190848201906040850190845b818110156140905783516001600160a01b0316835292840192918401916001016152b8565b6000602082840312156152ef57600080fd5b81356001600160e01b031981168114613f1157600080fd5b801515811461105057600080fd5b60006020828403121561532757600080fd5b8135613f1181615307565b6000606082840312156111cb57600080fd5b600080600060a0848603121561535957600080fd5b6153628461510d565b9250602084013591506153788560408601615332565b90509250925092565b60005b8381101561539c578181015183820152602001615384565b50506000910152565b600081518084526153bd816020860160208601615381565b601f01601f19169290920160200192915050565b8281526040602082015260006153ea60408301846153a5565b949350505050565b61ffff8116811461105057600080fd5b8035613370816153f2565b6000806040838503121561542057600080fd5b6154298361510d565b91506020830135615221816153f2565b634e487b7160e01b600052604160045260246000fd5b60405161016081016001600160401b038111828210171561547257615472615439565b60405290565b604051601f8201601f191681016001600160401b03811182821017156154a0576154a0615439565b604052919050565b803560ff8116811461337057600080fd5b803563ffffffff8116811461337057600080fd5b600061016082840312156154e057600080fd5b6154e861544f565b6154f183615402565b81526154ff60208401615402565b602082015261551060408401615402565b6040820152615521606084016154a8565b606082015261553260808401615402565b608082015261554360a08401615402565b60a082015261555460c08401615402565b60c082015261556560e08401615402565b60e082015261010061557881850161510d565b9082015261012061558a848201615402565b9082015261014061559c8482016154b9565b908201529392505050565b60008060008060a085870312156155bd57600080fd5b6155c68561510d565b935060208501356001600160401b038111156155e157600080fd5b6155ed8782880161513b565b909450925061560190508660408701615332565b905092959194509250565b60008060008060c0858703121561562257600080fd5b61562b8561510d565b935061563960208601615249565b9250604085013591506156018660608701615332565b60006001600160401b0382111561566857615668615439565b5060051b60200190565b600082601f83011261568357600080fd5b813560206156986156938361564f565b615478565b82815260059290921b840181019181810190868411156156b757600080fd5b8286015b848110156156db5780356156ce816151e0565b83529183019183016156bb565b509695505050505050565b600080604083850312156156f957600080fd5b82356001600160401b038082111561571057600080fd5b818501915085601f83011261572457600080fd5b813560206157346156938361564f565b82815260059290921b8401810191818101908984111561575357600080fd5b948201945b8386101561577157853582529482019490820190615758565b9650508601359250508082111561578757600080fd5b5061579485828601615672565b9150509250929050565b600080604083850312156157b157600080fd5b8235615211816151e0565b602081526000613f1160208301846153a5565b634e487b7160e01b600052603260045260246000fd5b634e487b7160e01b600052601160045260246000fd5b808201808211156138c5576138c56157e5565b600060018201615820576158206157e5565b5060010190565b62ffffff818116838216019080821115615843576158436157e5565b5092915050565b602080825260139082015272195c1bd8da081b9bdd08195b991959081e595d606a1b604082015260600190565b60006020828403121561588957600080fd5b8151613f11816151e0565b600181811c908216806158a857607f821691505b6020821081036111cb57634e487b7160e01b600052602260045260246000fd5b600082516158da818460208701615381565b9190910192915050565b6000602082840312156158f657600080fd5b613f11826154a8565b62ffffff828116828216039080821115615843576158436157e5565b8051613370816153f2565b6000806040838503121561593957600080fd5b8251615944816151e0565b6020840151909250615221816153f2565b6020808252601190820152701cda59db985d1d5c99481a5b9d985b1a59607a1b604082015260600190565b61ffff818116838216019080821115615843576158436157e5565b6001600160401b03828116828216039080821115615843576158436157e5565b6000806000606084860312156159d057600080fd5b8351925060208401516159e281615307565b80925050604084015190509250925092565b6001600160401b03818116838216019080821115615843576158436157e5565b634e487b7160e01b600052600160045260246000fd5b600082601f830112615a3b57600080fd5b81516020615a4b6156938361564f565b82815260059290921b84018101918181019086841115615a6a57600080fd5b8286015b848110156156db578051615a81816151e0565b8352918301918301615a6e565b600060208284031215615aa057600080fd5b81516001600160401b03811115615ab657600080fd5b6153ea84828501615a2a565b600081518084526020808501945080840160005b83811015615afb5781516001600160a01b031687529582019590820190600101615ad6565b509495945050505050565b608081526000615b196080830187615ac2565b8281036020840152615b2b8187615ac2565b90508281036040840152615b3f8186615ac2565b905082810360608401526141ee8185615ac2565b600060208284031215615b6557600080fd5b5051919050565b600062ffffff808316818103615b8457615b846157e5565b6001019392505050565b818352600060208085019450826000805b86811015615bd75782356bffffffffffffffffffffffff198116808214615bc4578384fd5b8952509683019691830191600101615b9f565b50959695505050505050565b62ffffff84168152604060208201526000614a7e604083018486615b8e565b604081526000615c16604083018587615b8e565b90506001600160401b0383166020830152949350505050565b600060208284031215615c4157600080fd5b8151613f1181615307565b601f82111561167757600081815260208120601f850160051c81016020861015615c735750805b601f850160051c820191505b81811015615c9257828155600101615c7f565b505050505050565b81516001600160401b03811115615cb357615cb3615439565b615cc781615cc18454615894565b84615c4c565b602080601f831160018114615cfc5760008415615ce45750858301515b600019600386901b1c1916600185901b178555615c92565b600085815260208120601f198616915b82811015615d2b57888601518255948401946001909101908401615d0c565b5085821015615d495787850151600019600388901b60f8161c191681555b5050505050600190811b01905550565b63ffffffff60e01b8516815283602082015260606040820152816060820152818360808301376000818301608090810191909152601f909201601f191601019392505050565b634e487b7160e01b600052601260045260246000fd5b600082615dc457615dc4615d9f565b500490565b818103818111156138c5576138c56157e5565b600082615deb57615deb615d9f565b500690565b600080600060608486031215615e0557600080fd5b83516001600160401b0380821115615e1c57600080fd5b615e2887838801615a2a565b9450602091508186015181811115615e3f57600080fd5b86019050601f81018713615e5257600080fd5b8051615e606156938261564f565b81815260059190911b82018301908381019089831115615e7f57600080fd5b928401925b82841015615ea6578351615e97816153f2565b82529284019290840190615e84565b80965050505050506153786040850161591b565b6000602080835262ffffff8451168184015263ffffffff81850151166040840152604084015161ffff8082166060860152606086015160808601526080860151915060c060a0860152615f1060e0860183615ac2565b60a0870151868203601f190160c0880152805180835290850193506000918501905b80831015615f5457845184168252938501936001929092019190850190615f32565b50979650505050505050565b634e487b7160e01b600052602160045260246000fd5b63ffffffff818116838216019080821115615843576158436157e5565b80820281158282048414176138c5576138c56157e556fea26469706673582212207fe336c292ea2ced50678fc51508782d2afd19f1147369c4cc649b25dc70a4a564736f6c63430008140033",
  "linkReferences": {},
  "deployedLinkReferences": {}
}