{
  "_format": "hh-sol-artifact-1",
  "contractName": "FlareSystemManager",
  "sourceName": "contracts/protocol/implementation/FlareSystemManager.sol",
  "abi": [
    {
      "inputs": [
        {
          "internalType": "contract IGovernanceSettings",
          "name": "_governanceSettings",
          "type": "address"
        },
        {
          "internalType": "address",
          "name": "_initialGovernance",
          "type": "address"
        },
        {
          "internalType": "address",
          "name": "_addressUpdater",
          "type": "address"
        },
        {
          "internalType": "address",
          "name": "_flareDaemon",
          "type": "address"
        },
        {
          "components": [
            {
              "internalType": "uint64",
              "name": "firstVotingRoundStartTs",
              "type": "uint64"
            },
            {
              "internalType": "uint64",
              "name": "votingEpochDurationSeconds",
              "type": "uint64"
            },
            {
              "internalType": "uint64",
              "name": "firstRewardEpochStartVotingRoundId",
              "type": "uint64"
            },
            {
              "internalType": "uint64",
              "name": "rewardEpochDurationInVotingEpochs",
              "type": "uint64"
            },
            {
              "internalType": "uint64",
              "name": "newSigningPolicyInitializationStartSeconds",
              "type": "uint64"
            },
            {
              "internalType": "uint64",
              "name": "nonPunishableRandomAcquisitionMinDurationSeconds",
              "type": "uint64"
            },
            {
              "internalType": "uint64",
              "name": "nonPunishableRandomAcquisitionMinDurationBlocks",
              "type": "uint64"
            },
            {
              "internalType": "uint64",
              "name": "voterRegistrationMinDurationSeconds",
              "type": "uint64"
            },
            {
              "internalType": "uint64",
              "name": "voterRegistrationMinDurationBlocks",
              "type": "uint64"
            },
            {
              "internalType": "uint64",
              "name": "nonPunishableSigningPolicySignMinDurationSeconds",
              "type": "uint64"
            },
            {
              "internalType": "uint64",
              "name": "nonPunishableSigningPolicySignMinDurationBlocks",
              "type": "uint64"
            },
            {
              "internalType": "uint64",
              "name": "signingPolicyThresholdPPM",
              "type": "uint64"
            },
            {
              "internalType": "uint64",
              "name": "signingPolicyMinNumberOfVoters",
              "type": "uint64"
            }
          ],
          "internalType": "struct FlareSystemManager.Settings",
          "name": "_settings",
          "type": "tuple"
        },
        {
          "internalType": "uint64",
          "name": "_firstRandomAcquisitionNumberOfBlocks",
          "type": "uint64"
        },
        {
          "internalType": "uint24",
          "name": "_firstRewardEpochId",
          "type": "uint24"
        },
        {
          "internalType": "uint16",
          "name": "_firstRewardEpochThreshold",
          "type": "uint16"
        }
      ],
      "stateMutability": "nonpayable",
      "type": "constructor"
    },
    {
      "inputs": [],
      "name": "ECDSAInvalidSignature",
      "type": "error"
    },
    {
      "inputs": [
        {
          "internalType": "uint256",
          "name": "length",
          "type": "uint256"
        }
      ],
      "name": "ECDSAInvalidSignatureLength",
      "type": "error"
    },
    {
      "inputs": [
        {
          "internalType": "bytes32",
          "name": "s",
          "type": "bytes32"
        }
      ],
      "name": "ECDSAInvalidSignatureS",
      "type": "error"
    },
    {
      "inputs": [
        {
          "internalType": "uint8",
          "name": "bits",
          "type": "uint8"
        },
        {
          "internalType": "uint256",
          "name": "value",
          "type": "uint256"
        }
      ],
      "name": "SafeCastOverflowedUintDowncast",
      "type": "error"
    },
    {
      "anonymous": false,
      "inputs": [
        {
          "indexed": false,
          "internalType": "bytes4",
          "name": "selector",
          "type": "bytes4"
        },
        {
          "indexed": false,
          "internalType": "uint256",
          "name": "allowedAfterTimestamp",
          "type": "uint256"
        },
        {
          "indexed": false,
          "internalType": "bytes",
          "name": "encodedCall",
          "type": "bytes"
        }
      ],
      "name": "GovernanceCallTimelocked",
      "type": "event"
    },
    {
      "anonymous": false,
      "inputs": [
        {
          "indexed": false,
          "internalType": "address",
          "name": "initialGovernance",
          "type": "address"
        }
      ],
      "name": "GovernanceInitialised",
      "type": "event"
    },
    {
      "anonymous": false,
      "inputs": [
        {
          "indexed": false,
          "internalType": "address",
          "name": "governanceSettings",
          "type": "address"
        }
      ],
      "name": "GovernedProductionModeEntered",
      "type": "event"
    },
    {
      "anonymous": false,
      "inputs": [
        {
          "indexed": false,
          "internalType": "uint24",
          "name": "rewardEpochId",
          "type": "uint24"
        },
        {
          "indexed": false,
          "internalType": "uint64",
          "name": "timestamp",
          "type": "uint64"
        }
      ],
      "name": "RandomAcquisitionStarted",
      "type": "event"
    },
    {
      "anonymous": false,
      "inputs": [
        {
          "indexed": false,
          "internalType": "uint24",
          "name": "rewardEpochId",
          "type": "uint24"
        },
        {
          "indexed": false,
          "internalType": "uint32",
          "name": "startVotingRoundId",
          "type": "uint32"
        },
        {
          "indexed": false,
          "internalType": "uint64",
          "name": "timestamp",
          "type": "uint64"
        }
      ],
      "name": "RewardEpochStarted",
      "type": "event"
    },
    {
      "anonymous": false,
      "inputs": [
        {
          "indexed": false,
          "internalType": "uint24",
          "name": "rewardEpochId",
          "type": "uint24"
        },
        {
          "indexed": false,
          "internalType": "address",
          "name": "signingPolicyAddress",
          "type": "address"
        },
        {
          "indexed": false,
          "internalType": "address",
          "name": "voter",
          "type": "address"
        },
        {
          "indexed": false,
          "internalType": "bytes32",
          "name": "rewardsHash",
          "type": "bytes32"
        },
        {
          "indexed": false,
          "internalType": "uint256",
          "name": "noOfWeightBasedClaims",
          "type": "uint256"
        },
        {
          "indexed": false,
          "internalType": "uint64",
          "name": "timestamp",
          "type": "uint64"
        },
        {
          "indexed": false,
          "internalType": "bool",
          "name": "thresholdReached",
          "type": "bool"
        }
      ],
      "name": "RewardsSigned",
      "type": "event"
    },
    {
      "anonymous": false,
      "inputs": [
        {
          "indexed": false,
          "internalType": "uint24",
          "name": "rewardEpochId",
          "type": "uint24"
        },
        {
          "indexed": false,
          "internalType": "address",
          "name": "signingPolicyAddress",
          "type": "address"
        },
        {
          "indexed": false,
          "internalType": "address",
          "name": "voter",
          "type": "address"
        },
        {
          "indexed": false,
          "internalType": "uint64",
          "name": "timestamp",
          "type": "uint64"
        },
        {
          "indexed": false,
          "internalType": "bool",
          "name": "thresholdReached",
          "type": "bool"
        }
      ],
      "name": "SigningPolicySigned",
      "type": "event"
    },
    {
      "anonymous": false,
      "inputs": [
        {
          "indexed": false,
          "internalType": "bytes4",
          "name": "selector",
          "type": "bytes4"
        },
        {
          "indexed": false,
          "internalType": "uint256",
          "name": "timestamp",
          "type": "uint256"
        }
      ],
      "name": "TimelockedGovernanceCallCanceled",
      "type": "event"
    },
    {
      "anonymous": false,
      "inputs": [
        {
          "indexed": false,
          "internalType": "bytes4",
          "name": "selector",
          "type": "bytes4"
        },
        {
          "indexed": false,
          "internalType": "uint256",
          "name": "timestamp",
          "type": "uint256"
        }
      ],
      "name": "TimelockedGovernanceCallExecuted",
      "type": "event"
    },
    {
      "anonymous": false,
      "inputs": [
        {
          "indexed": false,
          "internalType": "uint24",
          "name": "rewardEpochId",
          "type": "uint24"
        },
        {
          "indexed": false,
          "internalType": "address",
          "name": "signingPolicyAddress",
          "type": "address"
        },
        {
          "indexed": false,
          "internalType": "address",
          "name": "voter",
          "type": "address"
        },
        {
          "indexed": false,
          "internalType": "bytes32",
          "name": "uptimeVoteHash",
          "type": "bytes32"
        },
        {
          "indexed": false,
          "internalType": "uint64",
          "name": "timestamp",
          "type": "uint64"
        },
        {
          "indexed": false,
          "internalType": "bool",
          "name": "thresholdReached",
          "type": "bool"
        }
      ],
      "name": "UptimeVoteSigned",
      "type": "event"
    },
    {
      "anonymous": false,
      "inputs": [
        {
          "indexed": false,
          "internalType": "uint24",
          "name": "rewardEpochId",
          "type": "uint24"
        },
        {
          "indexed": false,
          "internalType": "uint64",
          "name": "votePowerBlock",
          "type": "uint64"
        },
        {
          "indexed": false,
          "internalType": "uint64",
          "name": "timestamp",
          "type": "uint64"
        }
      ],
      "name": "VotePowerBlockSelected",
      "type": "event"
    },
    {
      "inputs": [
        {
          "internalType": "bytes4",
          "name": "_selector",
          "type": "bytes4"
        }
      ],
      "name": "cancelGovernanceCall",
      "outputs": [],
      "stateMutability": "nonpayable",
      "type": "function"
    },
    {
      "inputs": [
        {
          "internalType": "bool",
          "name": "_usePriceSubmitter",
          "type": "bool"
        }
      ],
      "name": "changeRandomProvider",
      "outputs": [],
      "stateMutability": "nonpayable",
      "type": "function"
    },
    {
      "inputs": [
        {
          "internalType": "uint64",
          "name": "_signingPolicyThresholdPPM",
          "type": "uint64"
        },
        {
          "internalType": "uint64",
          "name": "_signingPolicyMinNumberOfVoters",
          "type": "uint64"
        }
      ],
      "name": "changeSigningPolicySettings",
      "outputs": [],
      "stateMutability": "nonpayable",
      "type": "function"
    },
    {
      "inputs": [],
      "name": "currentRewardEpochExpectedEndTs",
      "outputs": [
        {
          "internalType": "uint64",
          "name": "",
          "type": "uint64"
        }
      ],
      "stateMutability": "view",
      "type": "function"
    },
    {
      "inputs": [],
      "name": "daemonize",
      "outputs": [
        {
          "internalType": "bool",
          "name": "",
          "type": "bool"
        }
      ],
      "stateMutability": "nonpayable",
      "type": "function"
    },
    {
      "inputs": [
        {
          "internalType": "bytes4",
          "name": "_selector",
          "type": "bytes4"
        }
      ],
      "name": "executeGovernanceCall",
      "outputs": [],
      "stateMutability": "nonpayable",
      "type": "function"
    },
    {
      "inputs": [],
      "name": "firstVotingRoundStartTs",
      "outputs": [
        {
          "internalType": "uint64",
          "name": "",
          "type": "uint64"
        }
      ],
      "stateMutability": "view",
      "type": "function"
    },
    {
      "inputs": [],
      "name": "flareDaemon",
      "outputs": [
        {
          "internalType": "address",
          "name": "",
          "type": "address"
        }
      ],
      "stateMutability": "view",
      "type": "function"
    },
    {
      "inputs": [],
      "name": "getAddressUpdater",
      "outputs": [
        {
          "internalType": "address",
          "name": "_addressUpdater",
          "type": "address"
        }
      ],
      "stateMutability": "view",
      "type": "function"
    },
    {
      "inputs": [],
      "name": "getContractName",
      "outputs": [
        {
          "internalType": "string",
          "name": "",
          "type": "string"
        }
      ],
      "stateMutability": "pure",
      "type": "function"
    },
    {
      "inputs": [],
      "name": "getCurrentRandom",
      "outputs": [
        {
          "internalType": "uint256",
          "name": "_currentRandom",
          "type": "uint256"
        }
      ],
      "stateMutability": "view",
      "type": "function"
    },
    {
      "inputs": [],
      "name": "getCurrentRandomWithQuality",
      "outputs": [
        {
          "internalType": "uint256",
          "name": "_currentRandom",
          "type": "uint256"
        },
        {
          "internalType": "bool",
          "name": "_goodRandom",
          "type": "bool"
        }
      ],
      "stateMutability": "view",
      "type": "function"
    },
    {
      "inputs": [],
      "name": "getCurrentRewardEpochId",
      "outputs": [
        {
          "internalType": "uint24",
          "name": "_currentRewardEpochId",
          "type": "uint24"
        }
      ],
      "stateMutability": "view",
      "type": "function"
    },
    {
      "inputs": [
        {
          "internalType": "uint64",
          "name": "_rewardEpoch",
          "type": "uint64"
        },
        {
          "internalType": "address",
          "name": "_rewardOwner",
          "type": "address"
        }
      ],
      "name": "getRewardsFeeBurnFactor",
      "outputs": [
        {
          "internalType": "uint256",
          "name": "",
          "type": "uint256"
        }
      ],
      "stateMutability": "view",
      "type": "function"
    },
    {
      "inputs": [
        {
          "internalType": "uint256",
          "name": "_rewardEpoch",
          "type": "uint256"
        }
      ],
      "name": "getVotePowerBlock",
      "outputs": [
        {
          "internalType": "uint256",
          "name": "_votePowerBlock",
          "type": "uint256"
        }
      ],
      "stateMutability": "view",
      "type": "function"
    },
    {
      "inputs": [
        {
          "internalType": "uint256",
          "name": "_rewardEpoch",
          "type": "uint256"
        }
      ],
      "name": "getVoterRegistrationData",
      "outputs": [
        {
          "internalType": "uint256",
          "name": "_votePowerBlock",
          "type": "uint256"
        },
        {
          "internalType": "bool",
          "name": "_enabled",
          "type": "bool"
        }
      ],
      "stateMutability": "view",
      "type": "function"
    },
    {
      "inputs": [],
      "name": "governance",
      "outputs": [
        {
          "internalType": "address",
          "name": "",
          "type": "address"
        }
      ],
      "stateMutability": "view",
      "type": "function"
    },
    {
      "inputs": [],
      "name": "governanceSettings",
      "outputs": [
        {
          "internalType": "contract IGovernanceSettings",
          "name": "",
          "type": "address"
        }
      ],
      "stateMutability": "view",
      "type": "function"
    },
    {
      "inputs": [
        {
          "internalType": "contract IGovernanceSettings",
          "name": "_governanceSettings",
          "type": "address"
        },
        {
          "internalType": "address",
          "name": "_initialGovernance",
          "type": "address"
        }
      ],
      "name": "initialise",
      "outputs": [],
      "stateMutability": "nonpayable",
      "type": "function"
    },
    {
      "inputs": [
        {
          "internalType": "address",
          "name": "_address",
          "type": "address"
        }
      ],
      "name": "isExecutor",
      "outputs": [
        {
          "internalType": "bool",
          "name": "",
          "type": "bool"
        }
      ],
      "stateMutability": "view",
      "type": "function"
    },
    {
      "inputs": [
        {
          "internalType": "uint256",
          "name": "_rewardEpoch",
          "type": "uint256"
        }
      ],
      "name": "isVoterRegistrationEnabled",
      "outputs": [
        {
          "internalType": "bool",
          "name": "",
          "type": "bool"
        }
      ],
      "stateMutability": "view",
      "type": "function"
    },
    {
      "inputs": [],
      "name": "newSigningPolicyInitializationStartSeconds",
      "outputs": [
        {
          "internalType": "uint64",
          "name": "",
          "type": "uint64"
        }
      ],
      "stateMutability": "view",
      "type": "function"
    },
    {
      "inputs": [
        {
          "internalType": "uint256",
          "name": "",
          "type": "uint256"
        }
      ],
      "name": "noOfWeightBasedClaims",
      "outputs": [
        {
          "internalType": "uint256",
          "name": "",
          "type": "uint256"
        }
      ],
      "stateMutability": "view",
      "type": "function"
    },
    {
      "inputs": [],
      "name": "nonPunishableRandomAcquisitionMinDurationBlocks",
      "outputs": [
        {
          "internalType": "uint64",
          "name": "",
          "type": "uint64"
        }
      ],
      "stateMutability": "view",
      "type": "function"
    },
    {
      "inputs": [],
      "name": "nonPunishableRandomAcquisitionMinDurationSeconds",
      "outputs": [
        {
          "internalType": "uint64",
          "name": "",
          "type": "uint64"
        }
      ],
      "stateMutability": "view",
      "type": "function"
    },
    {
      "inputs": [],
      "name": "nonPunishableSigningPolicySignMinDurationBlocks",
      "outputs": [
        {
          "internalType": "uint64",
          "name": "",
          "type": "uint64"
        }
      ],
      "stateMutability": "view",
      "type": "function"
    },
    {
      "inputs": [],
      "name": "nonPunishableSigningPolicySignMinDurationSeconds",
      "outputs": [
        {
          "internalType": "uint64",
          "name": "",
          "type": "uint64"
        }
      ],
      "stateMutability": "view",
      "type": "function"
    },
    {
      "inputs": [],
      "name": "priceSubmitter",
      "outputs": [
        {
          "internalType": "contract IPriceSubmitter",
          "name": "",
          "type": "address"
        }
      ],
      "stateMutability": "view",
      "type": "function"
    },
    {
      "inputs": [],
      "name": "productionMode",
      "outputs": [
        {
          "internalType": "bool",
          "name": "",
          "type": "bool"
        }
      ],
      "stateMutability": "view",
      "type": "function"
    },
    {
      "inputs": [],
      "name": "relay",
      "outputs": [
        {
          "internalType": "contract Relay",
          "name": "",
          "type": "address"
        }
      ],
      "stateMutability": "view",
      "type": "function"
    },
    {
      "inputs": [],
      "name": "rewardEpochDurationSeconds",
      "outputs": [
        {
          "internalType": "uint64",
          "name": "",
          "type": "uint64"
        }
      ],
      "stateMutability": "view",
      "type": "function"
    },
    {
      "inputs": [],
      "name": "rewardEpochsStartTs",
      "outputs": [
        {
          "internalType": "uint64",
          "name": "",
          "type": "uint64"
        }
      ],
      "stateMutability": "view",
      "type": "function"
    },
    {
      "inputs": [
        {
          "internalType": "uint256",
          "name": "",
          "type": "uint256"
        }
      ],
      "name": "rewardsHash",
      "outputs": [
        {
          "internalType": "bytes32",
          "name": "",
          "type": "bytes32"
        }
      ],
      "stateMutability": "view",
      "type": "function"
    },
    {
      "inputs": [
        {
          "internalType": "uint24",
          "name": "_rewardEpochId",
          "type": "uint24"
        },
        {
          "internalType": "uint64",
          "name": "_noOfWeightBasedClaims",
          "type": "uint64"
        },
        {
          "internalType": "bytes32",
          "name": "_rewardsHash",
          "type": "bytes32"
        }
      ],
      "name": "setRewardsHash",
      "outputs": [],
      "stateMutability": "nonpayable",
      "type": "function"
    },
    {
      "inputs": [
        {
          "internalType": "uint24",
          "name": "_rewardEpochId",
          "type": "uint24"
        },
        {
          "internalType": "bytes32",
          "name": "_newSigningPolicyHash",
          "type": "bytes32"
        },
        {
          "components": [
            {
              "internalType": "uint8",
              "name": "v",
              "type": "uint8"
            },
            {
              "internalType": "bytes32",
              "name": "r",
              "type": "bytes32"
            },
            {
              "internalType": "bytes32",
              "name": "s",
              "type": "bytes32"
            }
          ],
          "internalType": "struct FlareSystemManager.Signature",
          "name": "_signature",
          "type": "tuple"
        }
      ],
      "name": "signNewSigningPolicy",
      "outputs": [],
      "stateMutability": "nonpayable",
      "type": "function"
    },
    {
      "inputs": [
        {
          "internalType": "uint24",
          "name": "_rewardEpochId",
          "type": "uint24"
        },
        {
          "internalType": "uint64",
          "name": "_noOfWeightBasedClaims",
          "type": "uint64"
        },
        {
          "internalType": "bytes32",
          "name": "_rewardsHash",
          "type": "bytes32"
        },
        {
          "components": [
            {
              "internalType": "uint8",
              "name": "v",
              "type": "uint8"
            },
            {
              "internalType": "bytes32",
              "name": "r",
              "type": "bytes32"
            },
            {
              "internalType": "bytes32",
              "name": "s",
              "type": "bytes32"
            }
          ],
          "internalType": "struct FlareSystemManager.Signature",
          "name": "_signature",
          "type": "tuple"
        }
      ],
      "name": "signRewards",
      "outputs": [],
      "stateMutability": "nonpayable",
      "type": "function"
    },
    {
      "inputs": [
        {
          "internalType": "uint24",
          "name": "_rewardEpochId",
          "type": "uint24"
        },
        {
          "internalType": "bytes32",
          "name": "_uptimeVoteHash",
          "type": "bytes32"
        },
        {
          "components": [
            {
              "internalType": "uint8",
              "name": "v",
              "type": "uint8"
            },
            {
              "internalType": "bytes32",
              "name": "r",
              "type": "bytes32"
            },
            {
              "internalType": "bytes32",
              "name": "s",
              "type": "bytes32"
            }
          ],
          "internalType": "struct FlareSystemManager.Signature",
          "name": "_signature",
          "type": "tuple"
        }
      ],
      "name": "signUptimeVote",
      "outputs": [],
      "stateMutability": "nonpayable",
      "type": "function"
    },
    {
      "inputs": [],
      "name": "signingPolicyMinNumberOfVoters",
      "outputs": [
        {
          "internalType": "uint64",
          "name": "",
          "type": "uint64"
        }
      ],
      "stateMutability": "view",
      "type": "function"
    },
    {
      "inputs": [],
      "name": "signingPolicyThresholdPPM",
      "outputs": [
        {
          "internalType": "uint64",
          "name": "",
          "type": "uint64"
        }
      ],
      "stateMutability": "view",
      "type": "function"
    },
    {
      "inputs": [],
      "name": "submission",
      "outputs": [
        {
          "internalType": "contract Submission",
          "name": "",
          "type": "address"
        }
      ],
      "stateMutability": "view",
      "type": "function"
    },
    {
      "inputs": [],
      "name": "switchToFallbackMode",
      "outputs": [
        {
          "internalType": "bool",
          "name": "",
          "type": "bool"
        }
      ],
      "stateMutability": "pure",
      "type": "function"
    },
    {
      "inputs": [],
      "name": "switchToProductionMode",
      "outputs": [],
      "stateMutability": "nonpayable",
      "type": "function"
    },
    {
      "inputs": [
        {
          "internalType": "bytes4",
          "name": "",
          "type": "bytes4"
        }
      ],
      "name": "timelockedCalls",
      "outputs": [
        {
          "internalType": "uint256",
          "name": "allowedAfterTimestamp",
          "type": "uint256"
        },
        {
          "internalType": "bytes",
          "name": "encodedCall",
          "type": "bytes"
        }
      ],
      "stateMutability": "view",
      "type": "function"
    },
    {
      "inputs": [
        {
          "internalType": "bytes32[]",
          "name": "_contractNameHashes",
          "type": "bytes32[]"
        },
        {
          "internalType": "address[]",
          "name": "_contractAddresses",
          "type": "address[]"
        }
      ],
      "name": "updateContractAddresses",
      "outputs": [],
      "stateMutability": "nonpayable",
      "type": "function"
    },
    {
      "inputs": [
        {
          "internalType": "uint256",
          "name": "",
          "type": "uint256"
        }
      ],
      "name": "uptimeVoteHash",
      "outputs": [
        {
          "internalType": "bytes32",
          "name": "",
          "type": "bytes32"
        }
      ],
      "stateMutability": "view",
      "type": "function"
    },
    {
      "inputs": [],
      "name": "usePriceSubmitterAsRandomProvider",
      "outputs": [
        {
          "internalType": "bool",
          "name": "",
          "type": "bool"
        }
      ],
      "stateMutability": "view",
      "type": "function"
    },
    {
      "inputs": [],
      "name": "voterRegistrationMinDurationBlocks",
      "outputs": [
        {
          "internalType": "uint64",
          "name": "",
          "type": "uint64"
        }
      ],
      "stateMutability": "view",
      "type": "function"
    },
    {
      "inputs": [],
      "name": "voterRegistrationMinDurationSeconds",
      "outputs": [
        {
          "internalType": "uint64",
          "name": "",
          "type": "uint64"
        }
      ],
      "stateMutability": "view",
      "type": "function"
    },
    {
      "inputs": [],
      "name": "voterRegistry",
      "outputs": [
        {
          "internalType": "contract VoterRegistry",
          "name": "",
          "type": "address"
        }
      ],
      "stateMutability": "view",
      "type": "function"
    },
    {
      "inputs": [],
      "name": "votingEpochDurationSeconds",
      "outputs": [
        {
          "internalType": "uint64",
          "name": "",
          "type": "uint64"
        }
      ],
      "stateMutability": "view",
      "type": "function"
    }
  ],
  "bytecode": "0x6101406040523480156200001257600080fd5b5060405162004ffc38038062004ffc8339810160408190526200003591620007c5565b858888620000448282620005bb565b50620000709050817f714f205b2abd25bef1d06a1af944e38c113fe6160375c4e1d6d5cf28848e771955565b506001600160a01b038516620000c15760405162461bcd60e51b8152602060048201526011602482015270666c617265206461656d6f6e207a65726f60781b60448201526064015b60405180910390fd5b600084606001516001600160401b031611620001205760405162461bcd60e51b815260206004820152601a60248201527f7265776172642065706f6368206475726174696f6e207a65726f0000000000006044820152606401620000b8565b600084602001516001600160401b0316116200017f5760405162461bcd60e51b815260206004820152601a60248201527f766f74696e672065706f6368206475726174696f6e207a65726f0000000000006044820152606401620000b8565b620f42408461016001516001600160401b03161115620001d75760405162461bcd60e51b81526020600482015260126024820152710e8d0e4cae6d0ded8c840e8dede40d0d2ced60731b6044820152606401620000b8565b60008461018001516001600160401b031611620002255760405162461bcd60e51b815260206004820152600b60248201526a7a65726f20766f7465727360a81b6044820152606401620000b8565b6000836001600160401b0316116200026e5760405162461bcd60e51b815260206004820152600b60248201526a7a65726f20626c6f636b7360a81b6044820152606401620000b8565b6001600160a01b03851660805283516001600160401b0390811660e05260208501805190911661010052516040850151620002aa9190620009a6565b8451620002b89190620009d4565b6001600160401b031660a05260208401516060850151620002da9190620009a6565b6001600160401b031660c0816001600160401b0316815250508360800151600760006101000a8154816001600160401b0302191690836001600160401b031602179055508360a00151600760086101000a8154816001600160401b0302191690836001600160401b031602179055508360c00151600760106101000a8154816001600160401b0302191690836001600160401b031602179055508360e00151600760186101000a8154816001600160401b0302191690836001600160401b03160217905550836101000151600860006101000a8154816001600160401b0302191690836001600160401b031602179055508361012001516008806101000a8154816001600160401b0302191690836001600160401b03160217905550836101400151600860106101000a8154816001600160401b0302191690836001600160401b03160217905550836101600151600860186101000a8154816001600160401b0302191690836001600160401b03160217905550836101800151600960006101000a8154816001600160401b0302191690836001600160401b03160217905550826001600160401b0316610120816001600160401b03168152505060c051826001620004a79190620009fe565b62ffffff16620004b89190620009a6565b60a051620004c79190620009d4565b60098054600160401b600160801b031916680100000000000000006001600160401b039384160217905562ffffff83166000908152600360205260409020600401805461ffff60601b19166c0100000000000000000000000061ffff85160217905560808501516200053b91164262000a1d565b6009546801000000000000000090046001600160401b031611620005ad5760405162461bcd60e51b815260206004820152602260248201527f7265776172642065706f636820656e64206e6f7420696e207468652066757475604482015261726560f01b6064820152608401620000b8565b505050505050505062000a39565b600054600160a01b900460ff1615620006175760405162461bcd60e51b815260206004820152601460248201527f696e697469616c6973656420213d2066616c73650000000000000000000000006044820152606401620000b8565b6001600160a01b0382166200066f5760405162461bcd60e51b815260206004820152601860248201527f676f7665726e616e63652073657474696e6773207a65726f00000000000000006044820152606401620000b8565b6001600160a01b038116620006ba5760405162461bcd60e51b815260206004820152601060248201526f5f676f7665726e616e6365207a65726f60801b6044820152606401620000b8565b600080546001600160a01b038481166001600160a81b031990921691909117600160a01b17909155600180549183166001600160a01b0319909216821790556040519081527f9789733827840833afc031fb2ef9ab6894271f77bad2085687cf4ae5c7bee4db9060200160405180910390a15050565b6001600160a01b03811681146200074657600080fd5b50565b6040516101a081016001600160401b03811182821017156200077b57634e487b7160e01b600052604160045260246000fd5b60405290565b80516001600160401b03811681146200079957600080fd5b919050565b805162ffffff811681146200079957600080fd5b805161ffff811681146200079957600080fd5b600080600080600080600080888a03610280811215620007e457600080fd5b8951620007f18162000730565b60208b0151909950620008048162000730565b60408b0151909850620008178162000730565b60608b01519097506200082a8162000730565b95506101a0607f19820112156200084057600080fd5b506200084b62000749565b6200085960808b0162000781565b81526200086960a08b0162000781565b60208201526200087c60c08b0162000781565b60408201526200088f60e08b0162000781565b6060820152620008a36101008b0162000781565b6080820152610120620008b8818c0162000781565b60a0830152610140620008cd818d0162000781565b60c0840152610160620008e2818e0162000781565b60e0850152610180620008f7818f0162000781565b6101008601526200090c6101a08f0162000781565b848601526200091f6101c08f0162000781565b83860152620009326101e08f0162000781565b82860152620009456102008f0162000781565b90850152509195506200095f9150506102208a0162000781565b9250620009706102408a016200079e565b9150620009816102608a01620007b2565b90509295985092959890939650565b634e487b7160e01b600052601160045260246000fd5b6001600160401b03818116838216028082169190828114620009cc57620009cc62000990565b505092915050565b6001600160401b03818116838216019080821115620009f757620009f762000990565b5092915050565b62ffffff818116838216019080821115620009f757620009f762000990565b8082018082111562000a335762000a3362000990565b92915050565b60805160a05160c05160e051610100516101205161453462000ac86000396000612e9501526000818161041301528181612bec015281816136d4015261370901526000818161070901528181612c16015261369c015260008181610557015281816115630152612c610152600081816105ec0152612c8b015260008181610591015261121c01526145346000f3fe608060405234801561001057600080fd5b50600436106102d65760003560e01c8063a107753211610182578063d3466911116100e9578063e8d0e70a116100a2578063f21d63041161007c578063f21d630414610758578063f5a9838314610772578063f5f5ba721461077a578063f937d6ad146107ae57600080fd5b8063e8d0e70a14610704578063ed54fd631461072b578063ef88bf131461074557600080fd5b8063d34669111461069b578063d89601fd146106bb578063dc5a4225146106c3578063debfda30146106d6578063e17f212e146106e9578063e22fdece146106fd57600080fd5b8063b00c0b761161013b578063b00c0b7614610629578063b556fae31461063c578063b59589d11461064f578063be60040e14610662578063c263221614610675578063d10e807f1461068857600080fd5b8063a10775321461058c578063a219fe02146105b3578063a4583262146105cd578063a578f55b146105e7578063a978fb6b1461060e578063ab25ac5b1461061657600080fd5b80635ff27079116102415780636d0e8c34116101fa57806374e6310e116101d457806374e6310e1461051e5780638196b4431461053f57806385f3c9c9146105525780639a7590971461057957600080fd5b80636d0e8c34146104e0578063702a6514146104e8578063705626971461050257600080fd5b80635ff270791461046157806362354e0314610474578063647006e21461048757806367fc4029146104a75780636aeffddc146104ba5780636b4c7bd6146104cd57600080fd5b8063460f6ce911610293578063460f6ce9146103a657806347426bda146103b95780635267a15d146103d35780635a8320881461040e5780635aa6e675146104355780635c4617b51461043d57600080fd5b8063060afa37146102db5780631703a7881461031257806327549e4b1461033a5780632e3645f81461034f57806331db989114610362578063388a4c3d14610386575b600080fd5b6007546102f590600160801b90046001600160401b031681565b6040516001600160401b0390911681526020015b60405180910390f35b610325610320366004613924565b6107c1565b60408051928352901515602083015201610309565b61034d610348366004613967565b6107f1565b005b6009546102f5906001600160401b031681565b6103786103703660046139b8565b600092915050565b604051908152602001610309565b610378610394366004613924565b60066020526000908152604090205481565b61034d6103b43660046139fd565b610957565b6008546102f590600160801b90046001600160401b031681565b7f714f205b2abd25bef1d06a1af944e38c113fe6160375c4e1d6d5cf28848e7719545b6040516001600160a01b039091168152602001610309565b6102f57f000000000000000000000000000000000000000000000000000000000000000081565b6103f66109ae565b600c5461045190600160a01b900460ff1681565b6040519015158152602001610309565b61034d61046f366004613a1a565b610a4a565b6000546103f6906001600160a01b031681565b610378610495366004613924565b60056020526000908152604090205481565b61034d6104b5366004613a1a565b610cd0565b6007546102f5906001600160401b031681565b61034d6104db366004613a5c565b610dac565b61045161120f565b6008546102f590600160401b90046001600160401b031681565b61050a6118a7565b60405162ffffff9091168152602001610309565b61053161052c366004613a1a565b6118d6565b604051610309929190613ae9565b61045161054d366004613924565b61197b565b6102f57f000000000000000000000000000000000000000000000000000000000000000081565b600b546103f6906001600160a01b031681565b6103f67f000000000000000000000000000000000000000000000000000000000000000081565b6007546102f590600160c01b90046001600160401b031681565b6007546102f590600160401b90046001600160401b031681565b6102f57f000000000000000000000000000000000000000000000000000000000000000081565b61032561199a565b61034d610624366004613b0a565b6119af565b61034d610637366004613c35565b611e97565b61034d61064a366004613ced565b611f76565b600c546103f6906001600160a01b031681565b600a546103f6906001600160a01b031681565b610378610683366004613924565b612081565b6008546102f5906001600160401b031681565b6103786106a9366004613924565b60046020526000908152604090205481565b6103786120fd565b61034d6106d1366004613a5c565b61210f565b6104516106e4366004613d20565b612533565b60005461045190600160a81b900460ff1681565b6000610451565b6102f57f000000000000000000000000000000000000000000000000000000000000000081565b6009546102f590600160401b90046001600160401b031681565b61034d610753366004613d3d565b6125b6565b6008546102f590600160c01b90046001600160401b031681565b61034d61271c565b6040805180820182526012815271233630b932a9bcb9ba32b6a6b0b730b3b2b960711b602082015290516103099190613d5b565b600d546103f6906001600160a01b031681565b600081815260036020526040812060048101546001600160401b031691906107ea9084906127e2565b9050915091565b600054600160b01b900460ff16806108135750600054600160a81b900460ff16155b15610947576108206128db565b6108286118a7565b62ffffff168362ffffff16106108595760405162461bcd60e51b815260040161085090613d6e565b60405180910390fd5b62ffffff8316600090815260056020526040902054156108bb5760405162461bcd60e51b815260206004820152601b60248201527f72657761726473206861736820616c7265616479207369676e656400000000006044820152606401610850565b62ffffff83166000908152600560209081526040808320849055600690915290206001600160401b03831690557f80df246a47153e3604b0026fcf53ec85ea48178efd4f3cad24f9a1e1da2dd52a836109126109ae565b61091a6109ae565b848661092542612915565b600160405161093a9796959493929190613d9b565b60405180910390a1505050565b61095260003661294f565b505050565b600054600160b01b900460ff16806109795750600054600160a81b900460ff16155b156109a0576109866128db565b600c805460ff60a01b1916600160a01b8315150217905550565b6109ab60003661294f565b50565b60008054600160a81b900460ff166109d057506001546001600160a01b031690565b60008054906101000a90046001600160a01b03166001600160a01b031663732524946040518163ffffffff1660e01b8152600401602060405180830381865afa158015610a21573d6000803e3d6000fd5b505050506040513d601f19601f82011682018060405250810190610a459190613deb565b905090565b610a5333612533565b610a8f5760405162461bcd60e51b815260206004820152600d60248201526c37b7363c9032bc32b1baba37b960991b6044820152606401610850565b6001600160e01b0319811660009081526002602052604081208054909103610af95760405162461bcd60e51b815260206004820152601a60248201527f74696d656c6f636b3a20696e76616c69642073656c6563746f720000000000006044820152606401610850565b8054421015610b4a5760405162461bcd60e51b815260206004820152601960248201527f74696d656c6f636b3a206e6f7420616c6c6f77656420796574000000000000006044820152606401610850565b6000816001018054610b5b90613e08565b80601f0160208091040260200160405190810160405280929190818152602001828054610b8790613e08565b8015610bd45780601f10610ba957610100808354040283529160200191610bd4565b820191906000526020600020905b815481529060010190602001808311610bb757829003601f168201915b505050506001600160e01b0319851660009081526002602052604081208181559293509050610c0660018301826138da565b50506000805460ff60b01b1916600160b01b1781556040513090610c2b908490613e3c565b6000604051808303816000865af19150503d8060008114610c68576040519150601f19603f3d011682016040523d82523d6000602084013e610c6d565b606091505b50506000805460ff60b01b19169055604080516001600160e01b0319871681524260208201529192507fa7326b57fc9cfe267aaea5e7f0b01757154d265620a0585819416ee9ddd2c438910160405180910390a1610cca81612a9b565b50505050565b610cd8612ab8565b6001600160e01b031981166000908152600260205260408120549003610d405760405162461bcd60e51b815260206004820152601a60248201527f74696d656c6f636b3a20696e76616c69642073656c6563746f720000000000006044820152606401610850565b604080516001600160e01b0319831681524260208201527f7735b2391c38a81419c513e30ca578db7158eadd7101511b23e221c654d19cf8910160405180910390a16001600160e01b0319811660009081526002602052604081208181559061095260018301826138da565b6000600381610dbc600187613e6e565b62ffffff168152602081019190915260400160002090508215801590610de9575082610de785612b12565b145b610e355760405162461bcd60e51b815260206004820152601f60248201527f6e6577207369676e696e6720706f6c696379206861736820696e76616c6964006044820152606401610850565b6001810154600160801b90046001600160401b031615610ea15760405162461bcd60e51b815260206004820152602160248201527f6e6577207369676e696e6720706f6c69637920616c7265616479207369676e656044820152601960fa1b6064820152608401610850565b6040805162ffffff861660208201529081018490526000906060016040516020818303038152906040528051906020012090506000610edf82612b84565b90506000610f0382610ef46020880188613e91565b87602001358860400135612bb7565b600a5490915060009081906001600160a01b0316638c645728610f2760018c613e6e565b6040516001600160e01b031960e084901b16815262ffffff90911660048201526001600160a01b03861660248201526044016040805180830381865afa158015610f75573d6000803e3d6000fd5b505050506040513d601f19601f82011682018060405250810190610f999190613ec6565b90925090506001600160a01b038216610fc45760405162461bcd60e51b815260040161085090613ef2565b6001600160a01b03821660009081526006870160205260409020546001600160401b0316156110355760405162461bcd60e51b815260206004820152601e60248201527f7369676e696e67206164647265737320616c7265616479207369676e656400006044820152606401610850565b604051806040016040528061104942612915565b6001600160401b0316815260200161106043612915565b6001600160401b039081169091526001600160a01b0384166000908152600689016020908152604082208451815495909201518416600160401b026001600160801b031990951691909316179290921790556004870154600588015461ffff600160601b9092048216916110d691859116613f1d565b61ffff161190508015611158576110ec42612915565b8760010160106101000a8154816001600160401b0302191690836001600160401b0316021790555061111d43612915565b6001880180546001600160401b0392909216600160c01b026001600160c01b0390921691909117905560058701805461ffff1916905561118e565b60058701805483919060009061117390849061ffff16613f1d565b92506101000a81548161ffff021916908361ffff1602179055505b7f154b0214ae62d8a5548c1eac25fabd87c38b04932a217732e1022f3118da67f38a85856111bb42612915565b6040805162ffffff9590951685526001600160a01b03938416602086015291909216908301526001600160401b03166060820152821515608082015260a0015b60405180910390a150505050505050505050565b6000336001600160a01b037f0000000000000000000000000000000000000000000000000000000000000000161461127d5760405162461bcd60e51b815260206004820152601160248201527037b7363c90333630b932903230b2b6b7b760791b6044820152606401610850565b6000611287612be5565b90506000611293612c58565b6007546009549192506112ba916001600160401b0391821691600160401b90910416613f38565b6001600160401b031642106116555760006112d6826001613f58565b905060006112e382612b12565b036115535762ffffff81166000908152600360205260408120805490916001600160401b03909116900361141e5761131a42612915565b815467ffffffffffffffff19166001600160401b039190911617815561133f43612915565b81546001600160401b0391909116600160401b0267ffffffffffffffff60401b19909116178155600a54604051635213182360e01b815262ffffff841660048201526001600160a01b0390911690635213182390602401600060405180830381600087803b1580156113b057600080fd5b505af11580156113c4573d6000803e3d6000fd5b505050507ff9991783e5e480e42d9a54d3f35f4321857f8f0ebeb3742d326dce28b1126708826113f342612915565b6040805162ffffff90931683526001600160401b0390911660208301520160405180910390a1611551565b8054600160801b90046001600160401b03166000036114d8576000806000611444612cec565b865492955090935091506001600160401b039081169082161180156114665750815b156114d05761147442612915565b84546001600160401b0391909116600160801b0267ffffffffffffffff60801b199091161784556114a443612915565b84546001600160401b0391909116600160c01b026001600160c01b039091161784556114d08584612e1d565b505050611551565b6114e78262ffffff16826127e2565b611551576114f442612915565b60018201805467ffffffffffffffff19166001600160401b039290921691909117905561152043612915565b8160010160086101000a8154816001600160401b0302191690836001600160401b0316021790555061155182612fd2565b505b61155c816131bc565b15611653577f0000000000000000000000000000000000000000000000000000000000000000600960088282829054906101000a90046001600160401b03166115a59190613f74565b92506101000a8154816001600160401b0302191690836001600160401b031602179055507f4abb62ab1e4c42a11b90e4e45b92af1274f74cc634b759518e8c99e000d8be6d81600360008462ffffff16815260200190815260200160002060040160089054906101000a900463ffffffff1661162042612915565b6040805162ffffff909416845263ffffffff90921660208401526001600160401b03169082015260600160405180910390a15b505b600954600160801b90046001600160401b031663ffffffff8316111561189d576009805467ffffffffffffffff60801b191663ffffffff8416600160801b02179055600a54604051637c2cb92160e01b815262ffffff83166004820152606091829182916001600160a01b031690637c2cb92190602401600060405180830381865afa1580156116e9573d6000803e3d6000fd5b505050506040513d6000823e601f3d908101601f191682016040526117119190810190613ff8565b600a54604051635b0dabfd60e11b815262ffffff871660048201529193506001600160a01b03169063b61b57fa90602401600060405180830381865afa15801561175f573d6000803e3d6000fd5b505050506040513d6000823e601f3d908101601f191682016040526117879190810190613ff8565b90508362ffffff16611797612c58565b62ffffff16111561182d57600a546001600160a01b0316637c2cb9216117be866001613f58565b6040516001600160e01b031960e084901b16815262ffffff9091166004820152602401600060405180830381865afa1580156117fe573d6000803e3d6000fd5b505050506040513d6000823e601f3d908101601f191682016040526118269190810190613ff8565b9250611831565b8192505b600b5460405163f8ae8a2f60e01b81526001600160a01b039091169063f8ae8a2f90611867908690869082908790600401614070565b600060405180830381600087803b15801561188157600080fd5b505af1158015611895573d6000803e3d6000fd5b505050505050505b6001925050505b90565b60006118b1612c58565b90506118c66118c1826001613f58565b6131bc565b156118a457610a45600182613f58565b600260205260009081526040902080546001820180549192916118f890613e08565b80601f016020809104026020016040519081016040528092919081815260200182805461192490613e08565b80156119715780601f1061194657610100808354040283529160200191611971565b820191906000526020600020905b81548152906001019060200180831161195457829003601f168201915b5050505050905082565b60008181526003602052604081206119949083906127e2565b92915050565b6000806119a5612cec565b5090939092509050565b62ffffff841660009081526003602052604090206119cb6118a7565b62ffffff168562ffffff16106119f35760405162461bcd60e51b815260040161085090613d6e565b6001810154600160801b90046001600160401b0316600003611a615760405162461bcd60e51b815260206004820152602160248201527f6e6577207369676e696e6720706f6c696379206e6f74207369676e65642079656044820152601d60fa1b6064820152608401610850565b62ffffff8516600090815260046020526040902054611ac25760405162461bcd60e51b815260206004820152601f60248201527f757074696d6520766f74652068617368206e6f74207369676e656420796574006044820152606401610850565b62ffffff851660009081526005602052604090205415611b245760405162461bcd60e51b815260206004820152601b60248201527f72657761726473206861736820616c7265616479207369676e656400000000006044820152606401610850565b6040805162ffffff871660208201526001600160401b03861691810191909152606081018490526000906080016040516020818303038152906040528051906020012090506000611b7482612b84565b90506000611b8982610ef46020880188613e91565b600a5460405163118c8ae560e31b815262ffffff8b1660048201526001600160a01b03808416602483015292935060009283921690638c645728906044016040805180830381865afa158015611be3573d6000803e3d6000fd5b505050506040513d601f19601f82011682018060405250810190611c079190613ec6565b90925090506001600160a01b038216611c325760405162461bcd60e51b815260040161085090613ef2565b600085815260088701602090815260408083206001600160a01b03861684526001019091529020546001600160401b031615611ca75760405162461bcd60e51b81526020600482015260146024820152731d9bdd195c88185b1c9958591e481cda59db995960621b6044820152606401610850565b6040518060400160405280611cbb42612915565b6001600160401b03168152602001611cd243612915565b6001600160401b03908116909152600087815260088901602081815260408084206001600160a01b038916855260018101835290842086518154978401518716600160401b026001600160801b03199098169616959095179590951790935560048a01548983529252915461ffff600160601b909204821691611d5791859116613f1d565b61ffff161190508015611e0057611d6d42612915565b8760020160106101000a8154816001600160401b0302191690836001600160401b03160217905550611d9e43612915565b6002880180546001600160c01b0316600160c01b6001600160401b039384160217905562ffffff8c1660009081526005602090815260408083208d905560068252808320938e1690935588825260088a01905220805461ffff19169055611e3f565b600086815260088801602052604081208054849290611e2490849061ffff16613f1d565b92506101000a81548161ffff021916908361ffff1602179055505b7f80df246a47153e3604b0026fcf53ec85ea48178efd4f3cad24f9a1e1da2dd52a8b85858c8e611e6e42612915565b87604051611e829796959493929190613d9b565b60405180910390a15050505050505050505050565b7f714f205b2abd25bef1d06a1af944e38c113fe6160375c4e1d6d5cf28848e7719546001600160a01b0316336001600160a01b031614611f105760405162461bcd60e51b815260206004820152601460248201527337b7363c9030b2323932b9b9903ab83230ba32b960611b6044820152606401610850565b611f68611f4483836040518060400160405280600e81526020016d20b2323932b9b9aab83230ba32b960911b81525061322c565b7f714f205b2abd25bef1d06a1af944e38c113fe6160375c4e1d6d5cf28848e771955565b611f728282613307565b5050565b600054600160b01b900460ff1680611f985750600054600160a81b900460ff16155b1561207657611fa56128db565b620f4240826001600160401b03161115611ff65760405162461bcd60e51b81526020600482015260126024820152710e8d0e4cae6d0ded8c840e8dede40d0d2ced60731b6044820152606401610850565b6000816001600160401b03161161203d5760405162461bcd60e51b815260206004820152600b60248201526a7a65726f20766f7465727360a81b6044820152606401610850565b600880546001600160c01b0316600160c01b6001600160401b03948516021790556009805467ffffffffffffffff191691909216179055565b611f7260003661294f565b6000818152600360205260408120600401546001600160401b0316908190036120f85760405162461bcd60e51b8152602060048201526024808201527f766f746520706f77657220626c6f636b206e6f7420696e697469616c697a6564604482015263081e595d60e21b6064820152608401610850565b919050565b6000612107612cec565b509092915050565b62ffffff8316600090815260036020526040902061212b6118a7565b62ffffff168462ffffff16106121535760405162461bcd60e51b815260040161085090613d6e565b62ffffff8416600090815260046020526040902054156121b55760405162461bcd60e51b815260206004820152601f60248201527f757074696d6520766f7465206861736820616c7265616479207369676e6564006044820152606401610850565b6040805162ffffff8616602082015290810184905260009060600160405160208183030381529060405280519060200120905060006121f382612b84565b9050600061220882610ef46020880188613e91565b600a5460405163118c8ae560e31b815262ffffff8a1660048201526001600160a01b03808416602483015292935060009283921690638c645728906044016040805180830381865afa158015612262573d6000803e3d6000fd5b505050506040513d601f19601f820116820180604052508101906122869190613ec6565b90925090506001600160a01b0382166122b15760405162461bcd60e51b815260040161085090613ef2565b600088815260078701602090815260408083206001600160a01b03861684526001019091529020546001600160401b0316156123265760405162461bcd60e51b81526020600482015260146024820152731d9bdd195c88185b1c9958591e481cda59db995960621b6044820152606401610850565b604051806040016040528061233a42612915565b6001600160401b0316815260200161235143612915565b6001600160401b0390811690915260008a815260078901602081815260408084206001600160a01b038916855260018101835290842086518154978401518716600160401b026001600160801b03199098169616959095179590951790935560048a01548c83529252915461ffff600160601b9092048216916123d691859116613f1d565b61ffff16119050801561247a576123ec42612915565b60028801805467ffffffffffffffff19166001600160401b039290921691909117905561241843612915565b6002880180546001600160401b0392909216600160401b0267ffffffffffffffff60401b1990921691909117905562ffffff8a1660009081526004602090815260408083208c90558b835260078a019091529020805461ffff191690556124b9565b60008981526007880160205260408120805484929061249e90849061ffff16613f1d565b92506101000a81548161ffff021916908361ffff1602179055505b7f5506337d1266599f8b64675a1c8321701657ca2f2f70be0e0c58302b6c22e7978a85858c6124e742612915565b6040805162ffffff9690961686526001600160a01b039485166020870152929093169184019190915260608301526001600160401b0316608082015282151560a082015260c0016111fb565b60008054600160a01b900460ff1680156119945750600054604051630debfda360e41b81526001600160a01b0384811660048301529091169063debfda3090602401602060405180830381865afa158015612592573d6000803e3d6000fd5b505050506040513d601f19601f8201168201806040525081019061199491906140c8565b600054600160a01b900460ff16156126075760405162461bcd60e51b8152602060048201526014602482015273696e697469616c6973656420213d2066616c736560601b6044820152606401610850565b6001600160a01b03821661265d5760405162461bcd60e51b815260206004820152601860248201527f676f7665726e616e63652073657474696e6773207a65726f00000000000000006044820152606401610850565b6001600160a01b0381166126a65760405162461bcd60e51b815260206004820152601060248201526f5f676f7665726e616e6365207a65726f60801b6044820152606401610850565b600080546001600160a01b038481166001600160a81b031990921691909117600160a01b17909155600180549183166001600160a01b0319909216821790556040519081527f9789733827840833afc031fb2ef9ab6894271f77bad2085687cf4ae5c7bee4db9060200160405180910390a15050565b612724612ab8565b600054600160a81b900460ff161561277e5760405162461bcd60e51b815260206004820152601a60248201527f616c726561647920696e2070726f64756374696f6e206d6f64650000000000006044820152606401610850565b600180546001600160a01b031916905560008054600160a81b60ff60a81b198216179091556040516001600160a01b0390911681527f83af113638b5422f9e977cebc0aaf0eaf2188eb9a8baae7f9d46c42b33a1560c9060200160405180910390a1565b600754815460009161280f916001600160401b03600160c01b909204821691600160801b90910416613f74565b6001600160401b03164211158061285057506008548254612843916001600160401b0390811691600160c01b900416613f74565b6001600160401b03164311155b806128d45750600954600a54604051630da7a50d60e21b8152600481018690526001600160401b03909216916001600160a01b039091169063369e943490602401602060405180830381865afa1580156128ae573d6000803e3d6000fd5b505050506040513d601f19601f820116820180604052508101906128d291906140e5565b105b9392505050565b600054600160b01b900460ff161561290b573330146128fc576128fc6140fe565b6000805460ff60b01b19169055565b612913612ab8565b565b60006001600160401b0382111561294b57604080516306dfcc6560e41b8152600481019190915260248101839052604401610850565b5090565b612957612ab8565b6000805460408051636221a54b60e01b81529051853593926001600160a01b031691636221a54b9160048083019260209291908290030181865afa1580156129a3573d6000803e3d6000fd5b505050506040513d601f19601f820116820180604052508101906129c791906140e5565b905060006129d58242614114565b9050604051806040016040528082815260200186868080601f01602080910402602001604051908101604052809392919081815260200183838082843760009201829052509390945250506001600160e01b03198616815260026020908152604090912083518155908301519091506001820190612a539082614175565b509050507fed948300a3694aa01d4a6b258bfd664350193d770c0b51f8387277f6d83ea3b683828787604051612a8c9493929190614234565b60405180910390a15050505050565b3d604051818101604052816000823e8215612ab4578181f35b8181fd5b612ac06109ae565b6001600160a01b0316336001600160a01b0316146129135760405162461bcd60e51b815260206004820152600f60248201526e6f6e6c7920676f7665726e616e636560881b6044820152606401610850565b600c54604051630c85bf0760e01b815262ffffff831660048201526000916001600160a01b031690630c85bf0790602401602060405180830381865afa158015612b60573d6000803e3d6000fd5b505050506040513d601f19601f8201168201806040525081019061199491906140e5565b7f19457468657265756d205369676e6564204d6573736167653a0a3332000000006000908152601c91909152603c902090565b600080600080612bc988888888613453565b925092509250612bd98282613522565b50909695505050505050565b6000610a457f00000000000000000000000000000000000000000000000000000000000000006001600160401b03167f00000000000000000000000000000000000000000000000000000000000000006001600160401b031642612c49919061427a565b612c5391906142a3565b6135db565b6000610a4560017f00000000000000000000000000000000000000000000000000000000000000006001600160401b03167f0000000000000000000000000000000000000000000000000000000000000000600960089054906101000a90046001600160401b0316612cca9190613f38565b6001600160401b0316612cdd91906142a3565b612ce7919061427a565b61360c565b6000806000600c60149054906101000a900460ff1615612d9357600d60009054906101000a90046001600160a01b03166001600160a01b031663d89601fd6040518163ffffffff1660e01b8152600401602060405180830381865afa158015612d59573d6000803e3d6000fd5b505050506040513d601f19601f82011682018060405250810190612d7d91906140e5565b6001612d8842612915565b925092509250909192565b600c60009054906101000a90046001600160a01b03166001600160a01b031663dbdff2c16040518163ffffffff1660e01b8152600401606060405180830381865afa158015612de6573d6000803e3d6000fd5b505050506040513d601f19601f82011682018060405250810190612e0a91906142b7565b919590945063ffffffff90911692509050565b62ffffff82166000908152600360208190526040822080549092600160401b9091046001600160401b03169181612e55600188613e6e565b62ffffff1681526020810191909152604001600090812054600160401b90046001600160401b03169003612ece57612ec7612ec2836001600160401b03167f00000000000000000000000000000000000000000000000000000000000000006001600160401b031661363c565b612915565b9050612f10565b60036000612edd600188613e6e565b62ffffff168152602081019190915260400160002054612f0d90600160401b90046001600160401b031683613f38565b90505b6000612f256001600160401b03831686614303565b905080600003612f33575060015b6000612f3e82612915565b612f489085613f38565b60048601805467ffffffffffffffff19166001600160401b0383161790556003860187905590507ff21722dbe044a7cea0f6d81c871cae750971e36c9dd10999e46f2b46f26ac7ff8782612f9b42612915565b6040805162ffffff90941684526001600160401b03928316602085015291169082015260600160405180910390a150505050505050565b62ffffff81166000818152600360209081526040808320815160c0810183529283018490529082018390526060808301939093526080820183905260a082019290925291825290613021613652565b63ffffffff166020820152600a5460405163c452e47f60e01b815262ffffff851660048201526000916001600160a01b03169063c452e47f906024016000604051808303816000875af115801561307c573d6000803e3d6000fd5b505050506040513d6000823e601f3d908101601f191682016040526130a49190810190614317565b60a0850191909152608084019190915260085461ffff90911691506130e7906130e2908390600160c01b90046001600160401b0316620f4240613745565b613785565b61ffff166040838101829052600385015460608501526020840151600480870180546dffffffffffff00000000000000001916600160401b63ffffffff9094169390930261ffff60601b191692909217600160601b909402939093179055600c549051638353412560e01b81526001600160a01b0390911691638353412591613172918691016143df565b6020604051808303816000875af1158015613191573d6000803e3d6000fd5b505050506040513d601f19601f820116820180604052508101906131b591906140e5565b5050505050565b600954600090600160401b90046001600160401b031642108015906131ea575060006131e783612b12565b14155b8015611994575062ffffff8216600090815260036020526040902060040154600160401b900463ffffffff1661321e612be5565b63ffffffff16101592915050565b600080826040516020016132409190613d5b565b6040516020818303038152906040528051906020012090506000805b86518110156132b85786818151811061327757613277614485565b602002602001015183036132a65785818151811061329757613297614485565b602002602001015191506132b8565b806132b08161449b565b91505061325c565b506001600160a01b0381166132fe5760405162461bcd60e51b815260206004820152600c60248201526b61646472657373207a65726f60a01b6044820152606401610850565b95945050505050565b61333782826040518060400160405280600d81526020016c566f746572526567697374727960981b81525061322c565b600a60006101000a8154816001600160a01b0302191690836001600160a01b0316021790555061338a82826040518060400160405280600a81526020016929bab136b4b9b9b4b7b760b11b81525061322c565b600b60006101000a8154816001600160a01b0302191690836001600160a01b031602179055506133d882826040518060400160405280600581526020016452656c617960d81b81525061322c565b600c60006101000a8154816001600160a01b0302191690836001600160a01b0316021790555061342f82826040518060400160405280600e81526020016d283934b1b2a9bab136b4ba3a32b960911b81525061322c565b600d80546001600160a01b0319166001600160a01b03929092169190911790555050565b600080807f7fffffffffffffffffffffffffffffff5d576e7357a4501ddfe92f46681b20a084111561348e5750600091506003905082613518565b604080516000808252602082018084528a905260ff891692820192909252606081018790526080810186905260019060a0016020604051602081039080840390855afa1580156134e2573d6000803e3d6000fd5b5050604051601f1901519150506001600160a01b03811661350e57506000925060019150829050613518565b9250600091508190505b9450945094915050565b6000826003811115613536576135366144b4565b0361353f575050565b6001826003811115613553576135536144b4565b036135715760405163f645eedf60e01b815260040160405180910390fd5b6002826003811115613585576135856144b4565b036135a65760405163fce698f760e01b815260048101829052602401610850565b60038260038111156135ba576135ba6144b4565b03611f72576040516335e2f38360e21b815260048101829052602401610850565b600063ffffffff82111561294b576040516306dfcc6560e41b81526020600482015260248101839052604401610850565b600062ffffff82111561294b576040516306dfcc6560e41b81526018600482015260248101839052604401610850565b600081831061364b57816128d4565b5090919050565b600954600090600160401b90046001600160401b031642811161368f5761367842612915565b613683906001613f74565b6001600160401b031690505b6136c26001600160401b037f0000000000000000000000000000000000000000000000000000000000000000168261427a565b90506136fa612c536001600160401b037f000000000000000000000000000000000000000000000000000000000000000016836142a3565b915061372f6001600160401b037f00000000000000000000000000000000000000000000000000000000000000001682614303565b1561294b5761373f6001836144ca565b91505090565b6000806137538585856137b4565b9050600083806137655761376561428d565b85870990508015613779578160010161377b565b815b9695505050505050565b600061ffff82111561294b576040516306dfcc6560e41b81526010600482015260248101839052604401610850565b60008082116137f85760405162461bcd60e51b815260206004820152601060248201526f4469766973696f6e206279207a65726f60801b6044820152606401610850565b83600003613808575060006128d4565b8383028385828161381b5761381b61428d565b0403613839578281816138305761383061428d565b049150506128d4565b50600061384683866142a3565b905060006138548487614303565b9050600061386285876142a3565b905060006138708688614303565b90508561387d82856144e7565b61388791906142a3565b61389183856144e7565b61389b83876144e7565b886138a686896144e7565b6138b091906144e7565b6138ba9190614114565b6138c49190614114565b6138ce9190614114565b98975050505050505050565b5080546138e690613e08565b6000825580601f106138f6575050565b601f0160209004906000526020600020908101906109ab91905b8082111561294b5760008155600101613910565b60006020828403121561393657600080fd5b5035919050565b803562ffffff811681146120f857600080fd5b80356001600160401b03811681146120f857600080fd5b60008060006060848603121561397c57600080fd5b6139858461393d565b925061399360208501613950565b9150604084013590509250925092565b6001600160a01b03811681146109ab57600080fd5b600080604083850312156139cb57600080fd5b6139d483613950565b915060208301356139e4816139a3565b809150509250929050565b80151581146109ab57600080fd5b600060208284031215613a0f57600080fd5b81356128d4816139ef565b600060208284031215613a2c57600080fd5b81356001600160e01b0319811681146128d457600080fd5b600060608284031215613a5657600080fd5b50919050565b600080600060a08486031215613a7157600080fd5b613a7a8461393d565b925060208401359150613a908560408601613a44565b90509250925092565b60005b83811015613ab4578181015183820152602001613a9c565b50506000910152565b60008151808452613ad5816020860160208601613a99565b601f01601f19169290920160200192915050565b828152604060208201526000613b026040830184613abd565b949350505050565b60008060008060c08587031215613b2057600080fd5b613b298561393d565b9350613b3760208601613950565b925060408501359150613b4d8660608701613a44565b905092959194509250565b634e487b7160e01b600052604160045260246000fd5b604051601f8201601f191681016001600160401b0381118282101715613b9657613b96613b58565b604052919050565b60006001600160401b03821115613bb757613bb7613b58565b5060051b60200190565b600082601f830112613bd257600080fd5b81356020613be7613be283613b9e565b613b6e565b82815260059290921b84018101918181019086841115613c0657600080fd5b8286015b84811015613c2a578035613c1d816139a3565b8352918301918301613c0a565b509695505050505050565b60008060408385031215613c4857600080fd5b82356001600160401b0380821115613c5f57600080fd5b818501915085601f830112613c7357600080fd5b81356020613c83613be283613b9e565b82815260059290921b84018101918181019089841115613ca257600080fd5b948201945b83861015613cc057853582529482019490820190613ca7565b96505086013592505080821115613cd657600080fd5b50613ce385828601613bc1565b9150509250929050565b60008060408385031215613d0057600080fd5b613d0983613950565b9150613d1760208401613950565b90509250929050565b600060208284031215613d3257600080fd5b81356128d4816139a3565b60008060408385031215613d5057600080fd5b82356139d4816139a3565b6020815260006128d46020830184613abd565b602080825260139082015272195c1bd8da081b9bdd08195b991959081e595d606a1b604082015260600190565b62ffffff9790971687526001600160a01b03958616602088015293909416604086015260608501919091526001600160401b03908116608085015290911660a0830152151560c082015260e00190565b600060208284031215613dfd57600080fd5b81516128d4816139a3565b600181811c90821680613e1c57607f821691505b602082108103613a5657634e487b7160e01b600052602260045260246000fd5b60008251613e4e818460208701613a99565b9190910192915050565b634e487b7160e01b600052601160045260246000fd5b62ffffff828116828216039080821115613e8a57613e8a613e58565b5092915050565b600060208284031215613ea357600080fd5b813560ff811681146128d457600080fd5b805161ffff811681146120f857600080fd5b60008060408385031215613ed957600080fd5b8251613ee4816139a3565b9150613d1760208401613eb4565b6020808252601190820152701cda59db985d1d5c99481a5b9d985b1a59607a1b604082015260600190565b61ffff818116838216019080821115613e8a57613e8a613e58565b6001600160401b03828116828216039080821115613e8a57613e8a613e58565b62ffffff818116838216019080821115613e8a57613e8a613e58565b6001600160401b03818116838216019080821115613e8a57613e8a613e58565b600082601f830112613fa557600080fd5b81516020613fb5613be283613b9e565b82815260059290921b84018101918181019086841115613fd457600080fd5b8286015b84811015613c2a578051613feb816139a3565b8352918301918301613fd8565b60006020828403121561400a57600080fd5b81516001600160401b0381111561402057600080fd5b613b0284828501613f94565b600081518084526020808501945080840160005b838110156140655781516001600160a01b031687529582019590820190600101614040565b509495945050505050565b608081526000614083608083018761402c565b8281036020840152614095818761402c565b905082810360408401526140a9818661402c565b905082810360608401526140bd818561402c565b979650505050505050565b6000602082840312156140da57600080fd5b81516128d4816139ef565b6000602082840312156140f757600080fd5b5051919050565b634e487b7160e01b600052600160045260246000fd5b8082018082111561199457611994613e58565b601f82111561095257600081815260208120601f850160051c8101602086101561414e5750805b601f850160051c820191505b8181101561416d5782815560010161415a565b505050505050565b81516001600160401b0381111561418e5761418e613b58565b6141a28161419c8454613e08565b84614127565b602080601f8311600181146141d757600084156141bf5750858301515b600019600386901b1c1916600185901b17855561416d565b600085815260208120601f198616915b82811015614206578886015182559484019460019091019084016141e7565b50858210156142245787850151600019600388901b60f8161c191681555b5050505050600190811b01905550565b63ffffffff60e01b8516815283602082015260606040820152816060820152818360808301376000818301608090810191909152601f909201601f191601019392505050565b8181038181111561199457611994613e58565b634e487b7160e01b600052601260045260246000fd5b6000826142b2576142b261428d565b500490565b6000806000606084860312156142cc57600080fd5b8351925060208401516142de816139ef565b604085015190925063ffffffff811681146142f857600080fd5b809150509250925092565b6000826143125761431261428d565b500690565b60008060006060848603121561432c57600080fd5b83516001600160401b038082111561434357600080fd5b61434f87838801613f94565b945060209150818601518181111561436657600080fd5b86019050601f8101871361437957600080fd5b8051614387613be282613b9e565b81815260059190911b820183019083810190898311156143a657600080fd5b928401925b828410156143cb576143bc84613eb4565b825292840192908401906143ab565b8096505050505050613a9060408501613eb4565b6000602080835262ffffff8451168184015263ffffffff81850151166040840152604084015161ffff8082166060860152606086015160808601526080860151915060c060a086015261443560e086018361402c565b60a0870151868203601f190160c0880152805180835290850193506000918501905b8083101561447957845184168252938501936001929092019190850190614457565b50979650505050505050565b634e487b7160e01b600052603260045260246000fd5b6000600182016144ad576144ad613e58565b5060010190565b634e487b7160e01b600052602160045260246000fd5b63ffffffff818116838216019080821115613e8a57613e8a613e58565b808202811582820484141761199457611994613e5856fea2646970667358221220395d415fb810793f7c6b8faf9fc57f81bb0e24025e081ebe36b7012460cfaf4a64736f6c63430008140033",
  "linkReferences": {},
  "deployedLinkReferences": {}
}