{
  "_format": "hh-sol-artifact-1",
  "contractName": "FlareSystemCalculator",
  "sourceName": "contracts/protocol/implementation/FlareSystemCalculator.sol",
  "abi": [
    {
      "inputs": [
        {
          "internalType": "contract IGovernanceSettings",
          "name": "_governanceSettings",
          "type": "address"
        },
        {
          "internalType": "address",
          "name": "_initialGovernance",
          "type": "address"
        },
        {
          "internalType": "address",
          "name": "_addressUpdater",
          "type": "address"
        },
        {
          "internalType": "uint24",
          "name": "_wNatCapPPM",
          "type": "uint24"
        },
        {
          "internalType": "uint64",
          "name": "_signingPolicySignNonPunishableDurationSeconds",
          "type": "uint64"
        },
        {
          "internalType": "uint64",
          "name": "_signingPolicySignNonPunishableDurationBlocks",
          "type": "uint64"
        },
        {
          "internalType": "uint64",
          "name": "_signingPolicySignNoRewardsDurationBlocks",
          "type": "uint64"
        }
      ],
      "stateMutability": "nonpayable",
      "type": "constructor"
    },
    {
      "anonymous": false,
      "inputs": [
        {
          "indexed": false,
          "internalType": "bytes4",
          "name": "selector",
          "type": "bytes4"
        },
        {
          "indexed": false,
          "internalType": "uint256",
          "name": "allowedAfterTimestamp",
          "type": "uint256"
        },
        {
          "indexed": false,
          "internalType": "bytes",
          "name": "encodedCall",
          "type": "bytes"
        }
      ],
      "name": "GovernanceCallTimelocked",
      "type": "event"
    },
    {
      "anonymous": false,
      "inputs": [
        {
          "indexed": false,
          "internalType": "address",
          "name": "initialGovernance",
          "type": "address"
        }
      ],
      "name": "GovernanceInitialised",
      "type": "event"
    },
    {
      "anonymous": false,
      "inputs": [
        {
          "indexed": false,
          "internalType": "address",
          "name": "governanceSettings",
          "type": "address"
        }
      ],
      "name": "GovernedProductionModeEntered",
      "type": "event"
    },
    {
      "anonymous": false,
      "inputs": [
        {
          "indexed": false,
          "internalType": "bytes4",
          "name": "selector",
          "type": "bytes4"
        },
        {
          "indexed": false,
          "internalType": "uint256",
          "name": "timestamp",
          "type": "uint256"
        }
      ],
      "name": "TimelockedGovernanceCallCanceled",
      "type": "event"
    },
    {
      "anonymous": false,
      "inputs": [
        {
          "indexed": false,
          "internalType": "bytes4",
          "name": "selector",
          "type": "bytes4"
        },
        {
          "indexed": false,
          "internalType": "uint256",
          "name": "timestamp",
          "type": "uint256"
        }
      ],
      "name": "TimelockedGovernanceCallExecuted",
      "type": "event"
    },
    {
      "anonymous": false,
      "inputs": [
        {
          "indexed": true,
          "internalType": "address",
          "name": "voter",
          "type": "address"
        },
        {
          "indexed": true,
          "internalType": "uint24",
          "name": "rewardEpochId",
          "type": "uint24"
        },
        {
          "indexed": false,
          "internalType": "uint256",
          "name": "wNatWeight",
          "type": "uint256"
        },
        {
          "indexed": false,
          "internalType": "uint256",
          "name": "wNatCappedWeight",
          "type": "uint256"
        },
        {
          "indexed": false,
          "internalType": "bytes20[]",
          "name": "nodeIds",
          "type": "bytes20[]"
        },
        {
          "indexed": false,
          "internalType": "uint256[]",
          "name": "nodeWeights",
          "type": "uint256[]"
        },
        {
          "indexed": false,
          "internalType": "uint16",
          "name": "delegationFeeBIPS",
          "type": "uint16"
        }
      ],
      "name": "VoterRegistrationInfo",
      "type": "event"
    },
    {
      "inputs": [
        {
          "internalType": "uint24",
          "name": "_rewardEpochId",
          "type": "uint24"
        },
        {
          "internalType": "address",
          "name": "_voter",
          "type": "address"
        }
      ],
      "name": "calculateBurnFactorPPM",
      "outputs": [
        {
          "internalType": "uint256",
          "name": "",
          "type": "uint256"
        }
      ],
      "stateMutability": "view",
      "type": "function"
    },
    {
      "inputs": [
        {
          "internalType": "address",
          "name": "_voter",
          "type": "address"
        },
        {
          "internalType": "address",
          "name": "_delegationAddress",
          "type": "address"
        },
        {
          "internalType": "uint24",
          "name": "_rewardEpochId",
          "type": "uint24"
        },
        {
          "internalType": "uint256",
          "name": "_votePowerBlockNumber",
          "type": "uint256"
        }
      ],
      "name": "calculateRegistrationWeight",
      "outputs": [
        {
          "internalType": "uint256",
          "name": "_registrationWeight",
          "type": "uint256"
        }
      ],
      "stateMutability": "nonpayable",
      "type": "function"
    },
    {
      "inputs": [
        {
          "internalType": "bytes4",
          "name": "_selector",
          "type": "bytes4"
        }
      ],
      "name": "cancelGovernanceCall",
      "outputs": [],
      "stateMutability": "nonpayable",
      "type": "function"
    },
    {
      "inputs": [],
      "name": "enablePChainStakeMirror",
      "outputs": [],
      "stateMutability": "nonpayable",
      "type": "function"
    },
    {
      "inputs": [],
      "name": "entityManager",
      "outputs": [
        {
          "internalType": "contract IIEntityManager",
          "name": "",
          "type": "address"
        }
      ],
      "stateMutability": "view",
      "type": "function"
    },
    {
      "inputs": [
        {
          "internalType": "bytes4",
          "name": "_selector",
          "type": "bytes4"
        }
      ],
      "name": "executeGovernanceCall",
      "outputs": [],
      "stateMutability": "nonpayable",
      "type": "function"
    },
    {
      "inputs": [],
      "name": "flareSystemManager",
      "outputs": [
        {
          "internalType": "contract IIFlareSystemManager",
          "name": "",
          "type": "address"
        }
      ],
      "stateMutability": "view",
      "type": "function"
    },
    {
      "inputs": [],
      "name": "getAddressUpdater",
      "outputs": [
        {
          "internalType": "address",
          "name": "_addressUpdater",
          "type": "address"
        }
      ],
      "stateMutability": "view",
      "type": "function"
    },
    {
      "inputs": [],
      "name": "governance",
      "outputs": [
        {
          "internalType": "address",
          "name": "",
          "type": "address"
        }
      ],
      "stateMutability": "view",
      "type": "function"
    },
    {
      "inputs": [],
      "name": "governanceSettings",
      "outputs": [
        {
          "internalType": "contract IGovernanceSettings",
          "name": "",
          "type": "address"
        }
      ],
      "stateMutability": "view",
      "type": "function"
    },
    {
      "inputs": [
        {
          "internalType": "contract IGovernanceSettings",
          "name": "_governanceSettings",
          "type": "address"
        },
        {
          "internalType": "address",
          "name": "_initialGovernance",
          "type": "address"
        }
      ],
      "name": "initialise",
      "outputs": [],
      "stateMutability": "nonpayable",
      "type": "function"
    },
    {
      "inputs": [
        {
          "internalType": "address",
          "name": "_address",
          "type": "address"
        }
      ],
      "name": "isExecutor",
      "outputs": [
        {
          "internalType": "bool",
          "name": "",
          "type": "bool"
        }
      ],
      "stateMutability": "view",
      "type": "function"
    },
    {
      "inputs": [],
      "name": "pChainStakeMirror",
      "outputs": [
        {
          "internalType": "contract IPChainStakeMirror",
          "name": "",
          "type": "address"
        }
      ],
      "stateMutability": "view",
      "type": "function"
    },
    {
      "inputs": [],
      "name": "pChainStakeMirrorEnabled",
      "outputs": [
        {
          "internalType": "bool",
          "name": "",
          "type": "bool"
        }
      ],
      "stateMutability": "view",
      "type": "function"
    },
    {
      "inputs": [],
      "name": "productionMode",
      "outputs": [
        {
          "internalType": "bool",
          "name": "",
          "type": "bool"
        }
      ],
      "stateMutability": "view",
      "type": "function"
    },
    {
      "inputs": [
        {
          "internalType": "uint24",
          "name": "_wNatCapPPM",
          "type": "uint24"
        }
      ],
      "name": "setWNatCapPPM",
      "outputs": [],
      "stateMutability": "nonpayable",
      "type": "function"
    },
    {
      "inputs": [],
      "name": "signingPolicySignNoRewardsDurationBlocks",
      "outputs": [
        {
          "internalType": "uint64",
          "name": "",
          "type": "uint64"
        }
      ],
      "stateMutability": "view",
      "type": "function"
    },
    {
      "inputs": [],
      "name": "signingPolicySignNonPunishableDurationBlocks",
      "outputs": [
        {
          "internalType": "uint64",
          "name": "",
          "type": "uint64"
        }
      ],
      "stateMutability": "view",
      "type": "function"
    },
    {
      "inputs": [],
      "name": "signingPolicySignNonPunishableDurationSeconds",
      "outputs": [
        {
          "internalType": "uint64",
          "name": "",
          "type": "uint64"
        }
      ],
      "stateMutability": "view",
      "type": "function"
    },
    {
      "inputs": [
        {
          "internalType": "uint256",
          "name": "_x",
          "type": "uint256"
        }
      ],
      "name": "sqrt",
      "outputs": [
        {
          "internalType": "uint128",
          "name": "",
          "type": "uint128"
        }
      ],
      "stateMutability": "pure",
      "type": "function"
    },
    {
      "inputs": [],
      "name": "switchToProductionMode",
      "outputs": [],
      "stateMutability": "nonpayable",
      "type": "function"
    },
    {
      "inputs": [
        {
          "internalType": "bytes4",
          "name": "",
          "type": "bytes4"
        }
      ],
      "name": "timelockedCalls",
      "outputs": [
        {
          "internalType": "uint256",
          "name": "allowedAfterTimestamp",
          "type": "uint256"
        },
        {
          "internalType": "bytes",
          "name": "encodedCall",
          "type": "bytes"
        }
      ],
      "stateMutability": "view",
      "type": "function"
    },
    {
      "inputs": [
        {
          "internalType": "bytes32[]",
          "name": "_contractNameHashes",
          "type": "bytes32[]"
        },
        {
          "internalType": "address[]",
          "name": "_contractAddresses",
          "type": "address[]"
        }
      ],
      "name": "updateContractAddresses",
      "outputs": [],
      "stateMutability": "nonpayable",
      "type": "function"
    },
    {
      "inputs": [],
      "name": "voterRegistry",
      "outputs": [
        {
          "internalType": "address",
          "name": "",
          "type": "address"
        }
      ],
      "stateMutability": "view",
      "type": "function"
    },
    {
      "inputs": [],
      "name": "wNat",
      "outputs": [
        {
          "internalType": "contract IWNat",
          "name": "",
          "type": "address"
        }
      ],
      "stateMutability": "view",
      "type": "function"
    },
    {
      "inputs": [],
      "name": "wNatCapPPM",
      "outputs": [
        {
          "internalType": "uint24",
          "name": "",
          "type": "uint24"
        }
      ],
      "stateMutability": "view",
      "type": "function"
    },
    {
      "inputs": [],
      "name": "wNatDelegationFee",
      "outputs": [
        {
          "internalType": "contract IWNatDelegationFee",
          "name": "",
          "type": "address"
        }
      ],
      "stateMutability": "view",
      "type": "function"
    }
  ],
  "bytecode": "0x60806040523480156200001157600080fd5b5060405162002862380380620028628339810160408190526200003491620002f5565b8487876200004382826200014a565b506200006f9050817f714f205b2abd25bef1d06a1af944e38c113fe6160375c4e1d6d5cf28848e771955565b50620f42408462ffffff161115620000ce5760405162461bcd60e51b815260206004820152601460248201527f5f774e617443617050504d20746f6f206869676800000000000000000000000060448201526064015b60405180910390fd5b600880546001600160401b03948516600160b81b02600160b81b600160f81b031962ffffff909716600160a01b0296909616600160a01b600160f81b031990911617949094179093556009805493831668010000000000000000026001600160801b03199094169190921617919091179055506200039c915050565b600054600160a01b900460ff1615620001a65760405162461bcd60e51b815260206004820152601460248201527f696e697469616c6973656420213d2066616c73650000000000000000000000006044820152606401620000c5565b6001600160a01b038216620001fe5760405162461bcd60e51b815260206004820152601860248201527f676f7665726e616e63652073657474696e6773207a65726f00000000000000006044820152606401620000c5565b6001600160a01b038116620002495760405162461bcd60e51b815260206004820152601060248201526f5f676f7665726e616e6365207a65726f60801b6044820152606401620000c5565b600080546001600160a01b038481166001600160a81b031990921691909117600160a01b17909155600180549183166001600160a01b0319909216821790556040519081527f9789733827840833afc031fb2ef9ab6894271f77bad2085687cf4ae5c7bee4db9060200160405180910390a15050565b6001600160a01b0381168114620002d557600080fd5b50565b80516001600160401b0381168114620002f057600080fd5b919050565b600080600080600080600060e0888a0312156200031157600080fd5b87516200031e81620002bf565b60208901519097506200033181620002bf565b60408901519096506200034481620002bf565b606089015190955062ffffff811681146200035e57600080fd5b93506200036e60808901620002d8565b92506200037e60a08901620002d8565b91506200038e60c08901620002d8565b905092959891949750929550565b6124b680620003ac6000396000f3fe608060405234801561001057600080fd5b50600436106101a95760003560e01c806387c5ab51116100f9578063b00c0b7611610097578063debfda3011610071578063debfda3014610402578063e17f212e14610415578063ef88bf1314610429578063f5a983831461043c57600080fd5b8063b00c0b76146103c9578063bb25d5df146103dc578063be60040e146103ef57600080fd5b806396ca1472116100d357806396ca14721461037a5780639dd1018c146103945780639edbf007146103ae578063b006b4e3146103c157600080fd5b806387c5ab511461032957806387fd1ba11461033c5780639350f57c1461036757600080fd5b80635ff2707911610166578063677342ce11610140578063677342ce146102a657806367fc4029146102d157806374e6310e146102e45780637bf756c91461030557600080fd5b80635ff270791461026d57806362354e031461028057806362d9c89a1461029357600080fd5b80633d7cf608146101ae57806350b1d61b146101c35780635267a15d146101f357806357b58c5f1461021a5780635aa6e6751461023b5780635edf759614610243575b600080fd5b6101c16101bc366004611b5a565b610444565b005b6004546101d6906001600160a01b031681565b6040516001600160a01b0390911681526020015b60405180910390f35b7f714f205b2abd25bef1d06a1af944e38c113fe6160375c4e1d6d5cf28848e7719546101d6565b61022d610228366004611b8a565b6104f4565b6040519081526020016101ea565b6101d6610926565b60085461025990600160a01b900462ffffff1681565b60405162ffffff90911681526020016101ea565b6101c161027b366004611bd9565b6109c2565b6000546101d6906001600160a01b031681565b6007546101d6906001600160a01b031681565b6102b96102b4366004611c03565b610c48565b6040516001600160801b0390911681526020016101ea565b6101c16102df366004611bd9565b610c59565b6102f76102f2366004611bd9565b610d3a565b6040516101ea929190611c6c565b60075461031990600160a01b900460ff1681565b60405190151581526020016101ea565b6005546101d6906001600160a01b031681565b60095461034f906001600160401b031681565b6040516001600160401b0390911681526020016101ea565b61022d610375366004611c8d565b610ddf565b60085461034f90600160b81b90046001600160401b031681565b60095461034f90600160401b90046001600160401b031681565b6008546101d6906001600160a01b031681565b6101c16110a7565b6101c16103d7366004611da1565b6110f8565b6003546101d6906001600160a01b031681565b6006546101d6906001600160a01b031681565b610319610410366004611e59565b6111d7565b60005461031990600160a81b900460ff1681565b6101c1610437366004611e76565b61125a565b6101c16113c0565b600054600160b01b900460ff16806104665750600054600160a81b900460ff16155b156104e657610473611486565b620f42408162ffffff1611156104c75760405162461bcd60e51b81526020600482015260146024820152730beee9cc2e886c2e0a0a09a40e8dede40d0d2ced60631b60448201526064015b60405180910390fd5b6008805462ffffff60a01b1916600160a01b62ffffff84160217905550565b6104f16000366114be565b50565b6006546000906001600160a01b031633146105475760405162461bcd60e51b81526020600482015260136024820152726f6e6c7920766f74657220726567697374727960681b60448201526064016104be565b60048054604051632da5f2f960e11b81526001600160a01b03888116938201939093526024810185905260009290911690635b4be5f290604401600060405180830381865afa15801561059e573d6000803e3d6000fd5b505050506040513d6000823e601f3d908101601f191682016040526105c69190810190611e94565b6007549091506060906001600160a01b0316156106a15760075460405163a9e7019960e01b81526001600160a01b039091169063a9e701999061060f9085908890600401611f8a565b600060405180830381865afa15801561062c573d6000803e3d6000fd5b505050506040513d6000823e601f3d908101601f191682016040526106549190810190611fac565b905060005b815181101561069b5781818151811061067457610674612031565b602002602001015184610687919061205d565b93508061069381612070565b915050610659565b506106e7565b81516001600160401b038111156106ba576106ba611cc4565b6040519080825280602002602001820160405280156106e3578160200160208202803683370190505b5090505b600854604051631f2d513560e11b8152600481018690526000916001600160a01b031690633e5aa26a90602401602060405180830381865afa158015610731573d6000803e3d6000fd5b505050506040513d601f19601f820116820180604052508101906107559190612089565b600854909150600090620f42409061077990600160a01b900462ffffff16846120a2565b61078391906120b9565b600854604051631257fcdb60e31b81526001600160a01b038b81166004830152602482018a9052929350600092909116906392bfe6d890604401602060405180830381865afa1580156107da573d6000803e3d6000fd5b505050506040513d601f19601f820116820180604052508101906107fe9190612089565b9050600061080c838361160a565b60055460405163d700e0cf60e01b81526001600160a01b038e8116600483015262ffffff8d1660248301529293506000929091169063d700e0cf90604401602060405180830381865afa158015610867573d6000803e3d6000fd5b505050506040513d601f19601f8201168201806040525081019061088b91906120db565b905061089f61089a838a61205d565b611622565b6001600160801b031697506108b388611622565b6108c6906001600160801b0316896120a2565b97508962ffffff168c6001600160a01b03167f553ba727fce4bab95d341c5ee4f447f233ef7509a64d40fe458e224c20cf9f9d85858b8b8760405161090f9594939291906120ff565b60405180910390a350505050505050949350505050565b60008054600160a81b900460ff1661094857506001546001600160a01b031690565b60008054906101000a90046001600160a01b03166001600160a01b031663732524946040518163ffffffff1660e01b8152600401602060405180830381865afa158015610999573d6000803e3d6000fd5b505050506040513d601f19601f820116820180604052508101906109bd919061216e565b905090565b6109cb336111d7565b610a075760405162461bcd60e51b815260206004820152600d60248201526c37b7363c9032bc32b1baba37b960991b60448201526064016104be565b6001600160e01b0319811660009081526002602052604081208054909103610a715760405162461bcd60e51b815260206004820152601a60248201527f74696d656c6f636b3a20696e76616c69642073656c6563746f7200000000000060448201526064016104be565b8054421015610ac25760405162461bcd60e51b815260206004820152601960248201527f74696d656c6f636b3a206e6f7420616c6c6f776564207965740000000000000060448201526064016104be565b6000816001018054610ad39061218b565b80601f0160208091040260200160405190810160405280929190818152602001828054610aff9061218b565b8015610b4c5780601f10610b2157610100808354040283529160200191610b4c565b820191906000526020600020905b815481529060010190602001808311610b2f57829003601f168201915b505050506001600160e01b0319851660009081526002602052604081208181559293509050610b7e6001830182611af9565b50506000805460ff60b01b1916600160b01b1781556040513090610ba39084906121c5565b6000604051808303816000865af19150503d8060008114610be0576040519150601f19603f3d011682016040523d82523d6000602084013e610be5565b606091505b50506000805460ff60b01b19169055604080516001600160e01b0319871681524260208201529192507fa7326b57fc9cfe267aaea5e7f0b01757154d265620a0585819416ee9ddd2c438910160405180910390a1610c42816117a3565b50505050565b6000610c5382611622565b92915050565b610c616117c0565b6001600160e01b031981166000908152600260205260408120549003610cc95760405162461bcd60e51b815260206004820152601a60248201527f74696d656c6f636b3a20696e76616c69642073656c6563746f7200000000000060448201526064016104be565b604080516001600160e01b0319831681524260208201527f7735b2391c38a81419c513e30ca578db7158eadd7101511b23e221c654d19cf8910160405180910390a16001600160e01b03198116600090815260026020526040812081815590610d356001830182611af9565b505050565b60026020526000908152604090208054600182018054919291610d5c9061218b565b80601f0160208091040260200160405190810160405280929190818152602001828054610d889061218b565b8015610dd55780601f10610daa57610100808354040283529160200191610dd5565b820191906000526020600020905b815481529060010190602001808311610db857829003601f168201915b5050505050905082565b60035460009081908190819081906001600160a01b031663d2e9ad71610e068960016121e1565b6040516001600160e01b031960e084901b16815262ffffff9091166004820152602401608060405180830381865afa158015610e46573d6000803e3d6000fd5b505050506040513d601f19601f82011682018060405250810190610e6a919061221b565b9350935093509350816001600160401b0316600003610ecb5760405162461bcd60e51b815260206004820152601d60248201527f7369676e696e6720706f6c696379206e6f74207369676e65642079657400000060448201526064016104be565b600854600160b81b90046001600160401b0316610ee8858461226f565b6001600160401b031611610f03576000945050505050610c53565b600954600090610f1c906001600160401b03168561228f565b9050806001600160401b0316826001600160401b031611610f4557600095505050505050610c53565b6003546000906001600160a01b031663dac4319d610f648b60016121e1565b6040516001600160e01b031960e084901b16815262ffffff90911660048201526001600160a01b038b1660248201526044016040805180830381865afa158015610fb2573d6000803e3d6000fd5b505050506040513d601f19601f82011682018060405250810190610fd691906122af565b915050806001600160401b0316600003610fed5750815b816001600160401b0316816001600160401b0316116110155760009650505050505050610c53565b6000611021838361226f565b6009546001600160401b039182169250600160401b900416811061105157620f4240975050505050505050610c53565b600954600090600160401b90046001600160401b0316611074620f4240846120a2565b61107e91906120b9565b9050620f424061108e82806120a2565b61109891906120b9565b9b9a5050505050505050505050565b600054600160b01b900460ff16806110c95750600054600160a81b900460ff16155b156110eb576110d6611486565b6007805460ff60a01b1916600160a01b179055565b6110f66000366114be565b565b7f714f205b2abd25bef1d06a1af944e38c113fe6160375c4e1d6d5cf28848e7719546001600160a01b0316336001600160a01b0316146111715760405162461bcd60e51b815260206004820152601460248201527337b7363c9030b2323932b9b9903ab83230ba32b960611b60448201526064016104be565b6111c96111a583836040518060400160405280600e81526020016d20b2323932b9b9aab83230ba32b960911b81525061181a565b7f714f205b2abd25bef1d06a1af944e38c113fe6160375c4e1d6d5cf28848e771955565b6111d382826118ec565b5050565b60008054600160a01b900460ff168015610c535750600054604051630debfda360e41b81526001600160a01b0384811660048301529091169063debfda3090602401602060405180830381865afa158015611236573d6000803e3d6000fd5b505050506040513d601f19601f82011682018060405250810190610c5391906122e2565b600054600160a01b900460ff16156112ab5760405162461bcd60e51b8152602060048201526014602482015273696e697469616c6973656420213d2066616c736560601b60448201526064016104be565b6001600160a01b0382166113015760405162461bcd60e51b815260206004820152601860248201527f676f7665726e616e63652073657474696e6773207a65726f000000000000000060448201526064016104be565b6001600160a01b03811661134a5760405162461bcd60e51b815260206004820152601060248201526f5f676f7665726e616e6365207a65726f60801b60448201526064016104be565b600080546001600160a01b038481166001600160a81b031990921691909117600160a01b17909155600180549183166001600160a01b0319909216821790556040519081527f9789733827840833afc031fb2ef9ab6894271f77bad2085687cf4ae5c7bee4db9060200160405180910390a15050565b6113c86117c0565b600054600160a81b900460ff16156114225760405162461bcd60e51b815260206004820152601a60248201527f616c726561647920696e2070726f64756374696f6e206d6f646500000000000060448201526064016104be565b600180546001600160a01b031916905560008054600160a81b60ff60a81b198216179091556040516001600160a01b0390911681527f83af113638b5422f9e977cebc0aaf0eaf2188eb9a8baae7f9d46c42b33a1560c9060200160405180910390a1565b600054600160b01b900460ff16156114b6573330146114a7576114a7612304565b6000805460ff60b01b19169055565b6110f66117c0565b6114c66117c0565b6000805460408051636221a54b60e01b81529051853593926001600160a01b031691636221a54b9160048083019260209291908290030181865afa158015611512573d6000803e3d6000fd5b505050506040513d601f19601f820116820180604052508101906115369190612089565b90506000611544824261205d565b9050604051806040016040528082815260200186868080601f01602080910402602001604051908101604052809392919081815260200183838082843760009201829052509390945250506001600160e01b031986168152600260209081526040909120835181559083015190915060018201906115c29082612368565b509050507fed948300a3694aa01d4a6b258bfd664350193d770c0b51f8387277f6d83ea3b6838287876040516115fb9493929190612427565b60405180910390a15050505050565b6000818310611619578161161b565b825b9392505050565b60008160000361163457506000919050565b816001600160801b821061164d5760809190911c9060401b5b600160401b82106116635760409190911c9060201b5b640100000000821061167a5760209190911c9060101b5b62010000821061168f5760109190911c9060081b5b61010082106116a35760089190911c9060041b5b601082106116b65760049190911c9060021b5b600482106116c25760011b5b60016116ce82866120b9565b6116d8908361205d565b901c905060016116e882866120b9565b6116f2908361205d565b901c9050600161170282866120b9565b61170c908361205d565b901c9050600161171c82866120b9565b611726908361205d565b901c9050600161173682866120b9565b611740908361205d565b901c9050600161175082866120b9565b61175a908361205d565b901c9050600161176a82866120b9565b611774908361205d565b901c9050600061178482866120b9565b90508082106117935780611795565b815b95945050505050565b919050565b3d604051818101604052816000823e82156117bc578181f35b8181fd5b6117c8610926565b6001600160a01b0316336001600160a01b0316146110f65760405162461bcd60e51b815260206004820152600f60248201526e6f6e6c7920676f7665726e616e636560881b60448201526064016104be565b6000808260405160200161182e919061246d565b6040516020818303038152906040528051906020012090506000805b86518110156118a65786818151811061186557611865612031565b602002602001015183036118945785818151811061188557611885612031565b602002602001015191506118a6565b8061189e81612070565b91505061184a565b506001600160a01b0381166117955760405162461bcd60e51b815260206004820152600c60248201526b61646472657373207a65726f60a01b60448201526064016104be565b611921828260405180604001604052806012815260200171233630b932a9bcb9ba32b6a6b0b730b3b2b960711b81525061181a565b600360006101000a8154816001600160a01b0302191690836001600160a01b0316021790555061197782826040518060400160405280600d81526020016c22b73a34ba3ca6b0b730b3b2b960991b81525061181a565b600460006101000a8154816001600160a01b0302191690836001600160a01b031602179055506119d1828260405180604001604052806011815260200170574e617444656c65676174696f6e46656560781b81525061181a565b600560006101000a8154816001600160a01b0302191690836001600160a01b03160217905550611a2782826040518060400160405280600d81526020016c566f746572526567697374727960981b81525061181a565b600680546001600160a01b0319166001600160a01b0392909216919091179055600754600160a01b900460ff1615611aae57611a8d8282604051806040016040528060118152602001702821b430b4b729ba30b5b2a6b4b93937b960791b81525061181a565b600780546001600160a01b0319166001600160a01b03929092169190911790555b611ad582826040518060400160405280600481526020016315d3985d60e21b81525061181a565b600880546001600160a01b0319166001600160a01b03929092169190911790555050565b508054611b059061218b565b6000825580601f10611b15575050565b601f0160209004906000526020600020908101906104f191905b80821115611b435760008155600101611b2f565b5090565b803562ffffff8116811461179e57600080fd5b600060208284031215611b6c57600080fd5b61161b82611b47565b6001600160a01b03811681146104f157600080fd5b60008060008060808587031215611ba057600080fd5b8435611bab81611b75565b93506020850135611bbb81611b75565b9250611bc960408601611b47565b9396929550929360600135925050565b600060208284031215611beb57600080fd5b81356001600160e01b03198116811461161b57600080fd5b600060208284031215611c1557600080fd5b5035919050565b60005b83811015611c37578181015183820152602001611c1f565b50506000910152565b60008151808452611c58816020860160208601611c1c565b601f01601f19169290920160200192915050565b828152604060208201526000611c856040830184611c40565b949350505050565b60008060408385031215611ca057600080fd5b611ca983611b47565b91506020830135611cb981611b75565b809150509250929050565b634e487b7160e01b600052604160045260246000fd5b604051601f8201601f191681016001600160401b0381118282101715611d0257611d02611cc4565b604052919050565b60006001600160401b03821115611d2357611d23611cc4565b5060051b60200190565b600082601f830112611d3e57600080fd5b81356020611d53611d4e83611d0a565b611cda565b82815260059290921b84018101918181019086841115611d7257600080fd5b8286015b84811015611d96578035611d8981611b75565b8352918301918301611d76565b509695505050505050565b60008060408385031215611db457600080fd5b82356001600160401b0380821115611dcb57600080fd5b818501915085601f830112611ddf57600080fd5b81356020611def611d4e83611d0a565b82815260059290921b84018101918181019089841115611e0e57600080fd5b948201945b83861015611e2c57853582529482019490820190611e13565b96505086013592505080821115611e4257600080fd5b50611e4f85828601611d2d565b9150509250929050565b600060208284031215611e6b57600080fd5b813561161b81611b75565b60008060408385031215611e8957600080fd5b8235611ca981611b75565b60006020808385031215611ea757600080fd5b82516001600160401b03811115611ebd57600080fd5b8301601f81018513611ece57600080fd5b8051611edc611d4e82611d0a565b81815260059190911b82018301908381019087831115611efb57600080fd5b928401925b82841015611f355783516bffffffffffffffffffffffff1981168114611f265760008081fd5b82529284019290840190611f00565b979650505050505050565b600081518084526020808501945080840160005b83811015611f7f5781516bffffffffffffffffffffffff191687529582019590820190600101611f54565b509495945050505050565b604081526000611f9d6040830185611f40565b90508260208301529392505050565b60006020808385031215611fbf57600080fd5b82516001600160401b03811115611fd557600080fd5b8301601f81018513611fe657600080fd5b8051611ff4611d4e82611d0a565b81815260059190911b8201830190838101908783111561201357600080fd5b928401925b82841015611f3557835182529284019290840190612018565b634e487b7160e01b600052603260045260246000fd5b634e487b7160e01b600052601160045260246000fd5b80820180821115610c5357610c53612047565b60006001820161208257612082612047565b5060010190565b60006020828403121561209b57600080fd5b5051919050565b8082028115828204841417610c5357610c53612047565b6000826120d657634e487b7160e01b600052601260045260246000fd5b500490565b6000602082840312156120ed57600080fd5b815161ffff8116811461161b57600080fd5b85815260006020868184015260a0604084015261211f60a0840187611f40565b838103606085015285518082528287019183019060005b8181101561215257835183529284019291840191600101612136565b505080935050505061ffff831660808301529695505050505050565b60006020828403121561218057600080fd5b815161161b81611b75565b600181811c9082168061219f57607f821691505b6020821081036121bf57634e487b7160e01b600052602260045260246000fd5b50919050565b600082516121d7818460208701611c1c565b9190910192915050565b62ffffff8181168382160190808211156121fd576121fd612047565b5092915050565b80516001600160401b038116811461179e57600080fd5b6000806000806080858703121561223157600080fd5b61223a85612204565b935061224860208601612204565b925061225660408601612204565b915061226460608601612204565b905092959194509250565b6001600160401b038281168282160390808211156121fd576121fd612047565b6001600160401b038181168382160190808211156121fd576121fd612047565b600080604083850312156122c257600080fd5b6122cb83612204565b91506122d960208401612204565b90509250929050565b6000602082840312156122f457600080fd5b8151801515811461161b57600080fd5b634e487b7160e01b600052600160045260246000fd5b601f821115610d3557600081815260208120601f850160051c810160208610156123415750805b601f850160051c820191505b818110156123605782815560010161234d565b505050505050565b81516001600160401b0381111561238157612381611cc4565b6123958161238f845461218b565b8461231a565b602080601f8311600181146123ca57600084156123b25750858301515b600019600386901b1c1916600185901b178555612360565b600085815260208120601f198616915b828110156123f9578886015182559484019460019091019084016123da565b50858210156124175787850151600019600388901b60f8161c191681555b5050505050600190811b01905550565b63ffffffff60e01b8516815283602082015260606040820152816060820152818360808301376000818301608090810191909152601f909201601f191601019392505050565b60208152600061161b6020830184611c4056fea264697066735822122031739c172df8c895b03278b31cfbbc999e84d0f269cd66a271f93183ad69d20564736f6c63430008140033",
  "linkReferences": {},
  "deployedLinkReferences": {}
}