{
  "_format": "hh-sol-artifact-1",
  "contractName": "FlareSystemsManager",
  "sourceName": "contracts/protocol/implementation/FlareSystemsManager.sol",
  "abi": [
    {
      "inputs": [
        {
          "internalType": "contract IGovernanceSettings",
          "name": "_governanceSettings",
          "type": "address"
        },
        {
          "internalType": "address",
          "name": "_initialGovernance",
          "type": "address"
        },
        {
          "internalType": "address",
          "name": "_addressUpdater",
          "type": "address"
        },
        {
          "internalType": "address",
          "name": "_flareDaemon",
          "type": "address"
        },
        {
          "components": [
            {
              "internalType": "uint16",
              "name": "randomAcquisitionMaxDurationSeconds",
              "type": "uint16"
            },
            {
              "internalType": "uint16",
              "name": "randomAcquisitionMaxDurationBlocks",
              "type": "uint16"
            },
            {
              "internalType": "uint16",
              "name": "newSigningPolicyInitializationStartSeconds",
              "type": "uint16"
            },
            {
              "internalType": "uint8",
              "name": "newSigningPolicyMinNumberOfVotingRoundsDelay",
              "type": "uint8"
            },
            {
              "internalType": "uint16",
              "name": "voterRegistrationMinDurationSeconds",
              "type": "uint16"
            },
            {
              "internalType": "uint16",
              "name": "voterRegistrationMinDurationBlocks",
              "type": "uint16"
            },
            {
              "internalType": "uint16",
              "name": "submitUptimeVoteMinDurationSeconds",
              "type": "uint16"
            },
            {
              "internalType": "uint16",
              "name": "submitUptimeVoteMinDurationBlocks",
              "type": "uint16"
            },
            {
              "internalType": "uint24",
              "name": "signingPolicyThresholdPPM",
              "type": "uint24"
            },
            {
              "internalType": "uint16",
              "name": "signingPolicyMinNumberOfVoters",
              "type": "uint16"
            },
            {
              "internalType": "uint32",
              "name": "rewardExpiryOffsetSeconds",
              "type": "uint32"
            }
          ],
          "internalType": "struct FlareSystemsManager.Settings",
          "name": "_settings",
          "type": "tuple"
        },
        {
          "internalType": "uint32",
          "name": "_firstVotingRoundStartTs",
          "type": "uint32"
        },
        {
          "internalType": "uint8",
          "name": "_votingEpochDurationSeconds",
          "type": "uint8"
        },
        {
          "internalType": "uint32",
          "name": "_firstRewardEpochStartVotingRoundId",
          "type": "uint32"
        },
        {
          "internalType": "uint16",
          "name": "_rewardEpochDurationInVotingEpochs",
          "type": "uint16"
        },
        {
          "components": [
            {
              "internalType": "uint16",
              "name": "initialRandomVotePowerBlockSelectionSize",
              "type": "uint16"
            },
            {
              "internalType": "uint24",
              "name": "initialRewardEpochId",
              "type": "uint24"
            },
            {
              "internalType": "uint16",
              "name": "initialRewardEpochThreshold",
              "type": "uint16"
            }
          ],
          "internalType": "struct FlareSystemsManager.InitialSettings",
          "name": "_initialSettings",
          "type": "tuple"
        }
      ],
      "stateMutability": "nonpayable",
      "type": "constructor"
    },
    {
      "inputs": [],
      "name": "ECDSAInvalidSignature",
      "type": "error"
    },
    {
      "inputs": [
        {
          "internalType": "uint256",
          "name": "length",
          "type": "uint256"
        }
      ],
      "name": "ECDSAInvalidSignatureLength",
      "type": "error"
    },
    {
      "inputs": [
        {
          "internalType": "bytes32",
          "name": "s",
          "type": "bytes32"
        }
      ],
      "name": "ECDSAInvalidSignatureS",
      "type": "error"
    },
    {
      "inputs": [
        {
          "internalType": "uint8",
          "name": "bits",
          "type": "uint8"
        },
        {
          "internalType": "uint256",
          "name": "value",
          "type": "uint256"
        }
      ],
      "name": "SafeCastOverflowedUintDowncast",
      "type": "error"
    },
    {
      "anonymous": false,
      "inputs": [
        {
          "indexed": false,
          "internalType": "uint24",
          "name": "rewardEpochId",
          "type": "uint24"
        }
      ],
      "name": "ClosingExpiredRewardEpochFailed",
      "type": "event"
    },
    {
      "anonymous": false,
      "inputs": [
        {
          "indexed": false,
          "internalType": "bytes4",
          "name": "selector",
          "type": "bytes4"
        },
        {
          "indexed": false,
          "internalType": "uint256",
          "name": "allowedAfterTimestamp",
          "type": "uint256"
        },
        {
          "indexed": false,
          "internalType": "bytes",
          "name": "encodedCall",
          "type": "bytes"
        }
      ],
      "name": "GovernanceCallTimelocked",
      "type": "event"
    },
    {
      "anonymous": false,
      "inputs": [
        {
          "indexed": false,
          "internalType": "address",
          "name": "initialGovernance",
          "type": "address"
        }
      ],
      "name": "GovernanceInitialised",
      "type": "event"
    },
    {
      "anonymous": false,
      "inputs": [
        {
          "indexed": false,
          "internalType": "address",
          "name": "governanceSettings",
          "type": "address"
        }
      ],
      "name": "GovernedProductionModeEntered",
      "type": "event"
    },
    {
      "anonymous": false,
      "inputs": [
        {
          "indexed": true,
          "internalType": "uint24",
          "name": "rewardEpochId",
          "type": "uint24"
        },
        {
          "indexed": false,
          "internalType": "uint64",
          "name": "timestamp",
          "type": "uint64"
        }
      ],
      "name": "RandomAcquisitionStarted",
      "type": "event"
    },
    {
      "anonymous": false,
      "inputs": [
        {
          "indexed": true,
          "internalType": "uint24",
          "name": "rewardEpochId",
          "type": "uint24"
        },
        {
          "indexed": false,
          "internalType": "uint32",
          "name": "startVotingRoundId",
          "type": "uint32"
        },
        {
          "indexed": false,
          "internalType": "uint64",
          "name": "timestamp",
          "type": "uint64"
        }
      ],
      "name": "RewardEpochStarted",
      "type": "event"
    },
    {
      "anonymous": false,
      "inputs": [
        {
          "indexed": true,
          "internalType": "uint24",
          "name": "rewardEpochId",
          "type": "uint24"
        },
        {
          "indexed": true,
          "internalType": "address",
          "name": "signingPolicyAddress",
          "type": "address"
        },
        {
          "indexed": true,
          "internalType": "address",
          "name": "voter",
          "type": "address"
        },
        {
          "indexed": false,
          "internalType": "bytes32",
          "name": "rewardsHash",
          "type": "bytes32"
        },
        {
          "indexed": false,
          "internalType": "uint256",
          "name": "noOfWeightBasedClaims",
          "type": "uint256"
        },
        {
          "indexed": false,
          "internalType": "uint64",
          "name": "timestamp",
          "type": "uint64"
        },
        {
          "indexed": false,
          "internalType": "bool",
          "name": "thresholdReached",
          "type": "bool"
        }
      ],
      "name": "RewardsSigned",
      "type": "event"
    },
    {
      "anonymous": false,
      "inputs": [
        {
          "indexed": false,
          "internalType": "uint64",
          "name": "blockNumber",
          "type": "uint64"
        }
      ],
      "name": "SettingCleanUpBlockNumberFailed",
      "type": "event"
    },
    {
      "anonymous": false,
      "inputs": [
        {
          "indexed": true,
          "internalType": "uint24",
          "name": "rewardEpochId",
          "type": "uint24"
        },
        {
          "indexed": false,
          "internalType": "uint64",
          "name": "timestamp",
          "type": "uint64"
        }
      ],
      "name": "SignUptimeVoteEnabled",
      "type": "event"
    },
    {
      "anonymous": false,
      "inputs": [
        {
          "indexed": true,
          "internalType": "uint24",
          "name": "rewardEpochId",
          "type": "uint24"
        },
        {
          "indexed": true,
          "internalType": "address",
          "name": "signingPolicyAddress",
          "type": "address"
        },
        {
          "indexed": true,
          "internalType": "address",
          "name": "voter",
          "type": "address"
        },
        {
          "indexed": false,
          "internalType": "uint64",
          "name": "timestamp",
          "type": "uint64"
        },
        {
          "indexed": false,
          "internalType": "bool",
          "name": "thresholdReached",
          "type": "bool"
        }
      ],
      "name": "SigningPolicySigned",
      "type": "event"
    },
    {
      "anonymous": false,
      "inputs": [
        {
          "indexed": false,
          "internalType": "bytes4",
          "name": "selector",
          "type": "bytes4"
        },
        {
          "indexed": false,
          "internalType": "uint256",
          "name": "timestamp",
          "type": "uint256"
        }
      ],
      "name": "TimelockedGovernanceCallCanceled",
      "type": "event"
    },
    {
      "anonymous": false,
      "inputs": [
        {
          "indexed": false,
          "internalType": "bytes4",
          "name": "selector",
          "type": "bytes4"
        },
        {
          "indexed": false,
          "internalType": "uint256",
          "name": "timestamp",
          "type": "uint256"
        }
      ],
      "name": "TimelockedGovernanceCallExecuted",
      "type": "event"
    },
    {
      "anonymous": false,
      "inputs": [
        {
          "indexed": false,
          "internalType": "uint24",
          "name": "rewardEpochId",
          "type": "uint24"
        }
      ],
      "name": "TriggeringVoterRegistrationFailed",
      "type": "event"
    },
    {
      "anonymous": false,
      "inputs": [
        {
          "indexed": true,
          "internalType": "uint24",
          "name": "rewardEpochId",
          "type": "uint24"
        },
        {
          "indexed": true,
          "internalType": "address",
          "name": "signingPolicyAddress",
          "type": "address"
        },
        {
          "indexed": true,
          "internalType": "address",
          "name": "voter",
          "type": "address"
        },
        {
          "indexed": false,
          "internalType": "bytes32",
          "name": "uptimeVoteHash",
          "type": "bytes32"
        },
        {
          "indexed": false,
          "internalType": "uint64",
          "name": "timestamp",
          "type": "uint64"
        },
        {
          "indexed": false,
          "internalType": "bool",
          "name": "thresholdReached",
          "type": "bool"
        }
      ],
      "name": "UptimeVoteSigned",
      "type": "event"
    },
    {
      "anonymous": false,
      "inputs": [
        {
          "indexed": true,
          "internalType": "uint24",
          "name": "rewardEpochId",
          "type": "uint24"
        },
        {
          "indexed": true,
          "internalType": "address",
          "name": "signingPolicyAddress",
          "type": "address"
        },
        {
          "indexed": true,
          "internalType": "address",
          "name": "voter",
          "type": "address"
        },
        {
          "indexed": false,
          "internalType": "bytes20[]",
          "name": "nodeIds",
          "type": "bytes20[]"
        },
        {
          "indexed": false,
          "internalType": "uint64",
          "name": "timestamp",
          "type": "uint64"
        }
      ],
      "name": "UptimeVoteSubmitted",
      "type": "event"
    },
    {
      "anonymous": false,
      "inputs": [
        {
          "indexed": true,
          "internalType": "uint24",
          "name": "rewardEpochId",
          "type": "uint24"
        },
        {
          "indexed": false,
          "internalType": "uint64",
          "name": "votePowerBlock",
          "type": "uint64"
        },
        {
          "indexed": false,
          "internalType": "uint64",
          "name": "timestamp",
          "type": "uint64"
        }
      ],
      "name": "VotePowerBlockSelected",
      "type": "event"
    },
    {
      "inputs": [
        {
          "internalType": "bytes4",
          "name": "_selector",
          "type": "bytes4"
        }
      ],
      "name": "cancelGovernanceCall",
      "outputs": [],
      "stateMutability": "nonpayable",
      "type": "function"
    },
    {
      "inputs": [
        {
          "internalType": "uint24",
          "name": "_signingPolicyThresholdPPM",
          "type": "uint24"
        },
        {
          "internalType": "uint16",
          "name": "_signingPolicyMinNumberOfVoters",
          "type": "uint16"
        }
      ],
      "name": "changeSigningPolicySettings",
      "outputs": [],
      "stateMutability": "nonpayable",
      "type": "function"
    },
    {
      "inputs": [],
      "name": "cleanupBlockNumberManager",
      "outputs": [
        {
          "internalType": "contract IICleanupBlockNumberManager",
          "name": "",
          "type": "address"
        }
      ],
      "stateMutability": "view",
      "type": "function"
    },
    {
      "inputs": [],
      "name": "currentRewardEpochExpectedEndTs",
      "outputs": [
        {
          "internalType": "uint64",
          "name": "",
          "type": "uint64"
        }
      ],
      "stateMutability": "view",
      "type": "function"
    },
    {
      "inputs": [],
      "name": "daemonize",
      "outputs": [
        {
          "internalType": "bool",
          "name": "",
          "type": "bool"
        }
      ],
      "stateMutability": "nonpayable",
      "type": "function"
    },
    {
      "inputs": [
        {
          "internalType": "bytes4",
          "name": "_selector",
          "type": "bytes4"
        }
      ],
      "name": "executeGovernanceCall",
      "outputs": [],
      "stateMutability": "nonpayable",
      "type": "function"
    },
    {
      "inputs": [],
      "name": "firstRewardEpochStartTs",
      "outputs": [
        {
          "internalType": "uint64",
          "name": "",
          "type": "uint64"
        }
      ],
      "stateMutability": "view",
      "type": "function"
    },
    {
      "inputs": [],
      "name": "firstVotingRoundStartTs",
      "outputs": [
        {
          "internalType": "uint64",
          "name": "",
          "type": "uint64"
        }
      ],
      "stateMutability": "view",
      "type": "function"
    },
    {
      "inputs": [],
      "name": "flareDaemon",
      "outputs": [
        {
          "internalType": "address",
          "name": "",
          "type": "address"
        }
      ],
      "stateMutability": "view",
      "type": "function"
    },
    {
      "inputs": [],
      "name": "getAddressUpdater",
      "outputs": [
        {
          "internalType": "address",
          "name": "_addressUpdater",
          "type": "address"
        }
      ],
      "stateMutability": "view",
      "type": "function"
    },
    {
      "inputs": [],
      "name": "getContractName",
      "outputs": [
        {
          "internalType": "string",
          "name": "",
          "type": "string"
        }
      ],
      "stateMutability": "pure",
      "type": "function"
    },
    {
      "inputs": [],
      "name": "getCurrentRewardEpochId",
      "outputs": [
        {
          "internalType": "uint24",
          "name": "",
          "type": "uint24"
        }
      ],
      "stateMutability": "view",
      "type": "function"
    },
    {
      "inputs": [
        {
          "internalType": "uint24",
          "name": "_rewardEpochId",
          "type": "uint24"
        }
      ],
      "name": "getRandomAcquisitionInfo",
      "outputs": [
        {
          "internalType": "uint64",
          "name": "_randomAcquisitionStartTs",
          "type": "uint64"
        },
        {
          "internalType": "uint64",
          "name": "_randomAcquisitionStartBlock",
          "type": "uint64"
        },
        {
          "internalType": "uint64",
          "name": "_randomAcquisitionEndTs",
          "type": "uint64"
        },
        {
          "internalType": "uint64",
          "name": "_randomAcquisitionEndBlock",
          "type": "uint64"
        }
      ],
      "stateMutability": "view",
      "type": "function"
    },
    {
      "inputs": [
        {
          "internalType": "uint24",
          "name": "_rewardEpochId",
          "type": "uint24"
        }
      ],
      "name": "getRewardEpochStartInfo",
      "outputs": [
        {
          "internalType": "uint64",
          "name": "_rewardEpochStartTs",
          "type": "uint64"
        },
        {
          "internalType": "uint64",
          "name": "_rewardEpochStartBlock",
          "type": "uint64"
        }
      ],
      "stateMutability": "view",
      "type": "function"
    },
    {
      "inputs": [],
      "name": "getRewardEpochSwitchoverTriggerContracts",
      "outputs": [
        {
          "internalType": "contract IIRewardEpochSwitchoverTrigger[]",
          "name": "",
          "type": "address[]"
        }
      ],
      "stateMutability": "view",
      "type": "function"
    },
    {
      "inputs": [
        {
          "internalType": "uint24",
          "name": "_rewardEpochId",
          "type": "uint24"
        }
      ],
      "name": "getRewardsSignInfo",
      "outputs": [
        {
          "internalType": "uint64",
          "name": "_rewardsSignStartTs",
          "type": "uint64"
        },
        {
          "internalType": "uint64",
          "name": "_rewardsSignStartBlock",
          "type": "uint64"
        },
        {
          "internalType": "uint64",
          "name": "_rewardsSignEndTs",
          "type": "uint64"
        },
        {
          "internalType": "uint64",
          "name": "_rewardsSignEndBlock",
          "type": "uint64"
        }
      ],
      "stateMutability": "view",
      "type": "function"
    },
    {
      "inputs": [
        {
          "internalType": "uint256",
          "name": "_rewardEpochId",
          "type": "uint256"
        }
      ],
      "name": "getSeed",
      "outputs": [
        {
          "internalType": "uint256",
          "name": "",
          "type": "uint256"
        }
      ],
      "stateMutability": "view",
      "type": "function"
    },
    {
      "inputs": [
        {
          "internalType": "uint24",
          "name": "_rewardEpochId",
          "type": "uint24"
        }
      ],
      "name": "getSigningPolicySignInfo",
      "outputs": [
        {
          "internalType": "uint64",
          "name": "_signingPolicySignStartTs",
          "type": "uint64"
        },
        {
          "internalType": "uint64",
          "name": "_signingPolicySignStartBlock",
          "type": "uint64"
        },
        {
          "internalType": "uint64",
          "name": "_signingPolicySignEndTs",
          "type": "uint64"
        },
        {
          "internalType": "uint64",
          "name": "_signingPolicySignEndBlock",
          "type": "uint64"
        }
      ],
      "stateMutability": "view",
      "type": "function"
    },
    {
      "inputs": [
        {
          "internalType": "uint256",
          "name": "_rewardEpochId",
          "type": "uint256"
        }
      ],
      "name": "getStartVotingRoundId",
      "outputs": [
        {
          "internalType": "uint32",
          "name": "",
          "type": "uint32"
        }
      ],
      "stateMutability": "view",
      "type": "function"
    },
    {
      "inputs": [
        {
          "internalType": "uint256",
          "name": "_rewardEpochId",
          "type": "uint256"
        }
      ],
      "name": "getThreshold",
      "outputs": [
        {
          "internalType": "uint16",
          "name": "",
          "type": "uint16"
        }
      ],
      "stateMutability": "view",
      "type": "function"
    },
    {
      "inputs": [
        {
          "internalType": "uint24",
          "name": "_rewardEpochId",
          "type": "uint24"
        }
      ],
      "name": "getUptimeVoteSignStartInfo",
      "outputs": [
        {
          "internalType": "uint64",
          "name": "_uptimeVoteSignStartTs",
          "type": "uint64"
        },
        {
          "internalType": "uint64",
          "name": "_uptimeVoteSignStartBlock",
          "type": "uint64"
        }
      ],
      "stateMutability": "view",
      "type": "function"
    },
    {
      "inputs": [
        {
          "internalType": "uint256",
          "name": "_rewardEpochId",
          "type": "uint256"
        }
      ],
      "name": "getVotePowerBlock",
      "outputs": [
        {
          "internalType": "uint64",
          "name": "_votePowerBlock",
          "type": "uint64"
        }
      ],
      "stateMutability": "view",
      "type": "function"
    },
    {
      "inputs": [
        {
          "internalType": "uint256",
          "name": "_rewardEpochId",
          "type": "uint256"
        }
      ],
      "name": "getVoterRegistrationData",
      "outputs": [
        {
          "internalType": "uint256",
          "name": "_votePowerBlock",
          "type": "uint256"
        },
        {
          "internalType": "bool",
          "name": "_enabled",
          "type": "bool"
        }
      ],
      "stateMutability": "view",
      "type": "function"
    },
    {
      "inputs": [
        {
          "internalType": "uint24",
          "name": "_rewardEpochId",
          "type": "uint24"
        },
        {
          "internalType": "address",
          "name": "_voter",
          "type": "address"
        }
      ],
      "name": "getVoterRewardsSignInfo",
      "outputs": [
        {
          "internalType": "uint64",
          "name": "_rewardsSignTs",
          "type": "uint64"
        },
        {
          "internalType": "uint64",
          "name": "_rewardsSignBlock",
          "type": "uint64"
        }
      ],
      "stateMutability": "view",
      "type": "function"
    },
    {
      "inputs": [
        {
          "internalType": "uint24",
          "name": "_rewardEpochId",
          "type": "uint24"
        },
        {
          "internalType": "address",
          "name": "_voter",
          "type": "address"
        }
      ],
      "name": "getVoterSigningPolicySignInfo",
      "outputs": [
        {
          "internalType": "uint64",
          "name": "_signingPolicySignTs",
          "type": "uint64"
        },
        {
          "internalType": "uint64",
          "name": "_signingPolicySignBlock",
          "type": "uint64"
        }
      ],
      "stateMutability": "view",
      "type": "function"
    },
    {
      "inputs": [
        {
          "internalType": "uint24",
          "name": "_rewardEpochId",
          "type": "uint24"
        },
        {
          "internalType": "address",
          "name": "_voter",
          "type": "address"
        }
      ],
      "name": "getVoterUptimeVoteSignInfo",
      "outputs": [
        {
          "internalType": "uint64",
          "name": "_uptimeVoteSignTs",
          "type": "uint64"
        },
        {
          "internalType": "uint64",
          "name": "_uptimeVoteSignBlock",
          "type": "uint64"
        }
      ],
      "stateMutability": "view",
      "type": "function"
    },
    {
      "inputs": [
        {
          "internalType": "uint24",
          "name": "_rewardEpochId",
          "type": "uint24"
        },
        {
          "internalType": "address",
          "name": "_voter",
          "type": "address"
        }
      ],
      "name": "getVoterUptimeVoteSubmitInfo",
      "outputs": [
        {
          "internalType": "uint64",
          "name": "_uptimeVoteSubmitTs",
          "type": "uint64"
        },
        {
          "internalType": "uint64",
          "name": "_uptimeVoteSubmitBlock",
          "type": "uint64"
        }
      ],
      "stateMutability": "view",
      "type": "function"
    },
    {
      "inputs": [],
      "name": "governance",
      "outputs": [
        {
          "internalType": "address",
          "name": "",
          "type": "address"
        }
      ],
      "stateMutability": "view",
      "type": "function"
    },
    {
      "inputs": [],
      "name": "governanceSettings",
      "outputs": [
        {
          "internalType": "contract IGovernanceSettings",
          "name": "",
          "type": "address"
        }
      ],
      "stateMutability": "view",
      "type": "function"
    },
    {
      "inputs": [],
      "name": "initialRandomVotePowerBlockSelectionSize",
      "outputs": [
        {
          "internalType": "uint64",
          "name": "",
          "type": "uint64"
        }
      ],
      "stateMutability": "view",
      "type": "function"
    },
    {
      "inputs": [
        {
          "internalType": "contract IGovernanceSettings",
          "name": "_governanceSettings",
          "type": "address"
        },
        {
          "internalType": "address",
          "name": "_initialGovernance",
          "type": "address"
        }
      ],
      "name": "initialise",
      "outputs": [],
      "stateMutability": "nonpayable",
      "type": "function"
    },
    {
      "inputs": [
        {
          "internalType": "address",
          "name": "_address",
          "type": "address"
        }
      ],
      "name": "isExecutor",
      "outputs": [
        {
          "internalType": "bool",
          "name": "",
          "type": "bool"
        }
      ],
      "stateMutability": "view",
      "type": "function"
    },
    {
      "inputs": [],
      "name": "isVoterRegistrationEnabled",
      "outputs": [
        {
          "internalType": "bool",
          "name": "",
          "type": "bool"
        }
      ],
      "stateMutability": "view",
      "type": "function"
    },
    {
      "inputs": [],
      "name": "lastInitializedVotingRoundId",
      "outputs": [
        {
          "internalType": "uint32",
          "name": "",
          "type": "uint32"
        }
      ],
      "stateMutability": "view",
      "type": "function"
    },
    {
      "inputs": [],
      "name": "newSigningPolicyInitializationStartSeconds",
      "outputs": [
        {
          "internalType": "uint64",
          "name": "",
          "type": "uint64"
        }
      ],
      "stateMutability": "view",
      "type": "function"
    },
    {
      "inputs": [],
      "name": "newSigningPolicyMinNumberOfVotingRoundsDelay",
      "outputs": [
        {
          "internalType": "uint32",
          "name": "",
          "type": "uint32"
        }
      ],
      "stateMutability": "view",
      "type": "function"
    },
    {
      "inputs": [
        {
          "internalType": "uint256",
          "name": "rewardEpochId",
          "type": "uint256"
        }
      ],
      "name": "noOfWeightBasedClaims",
      "outputs": [
        {
          "internalType": "uint256",
          "name": "",
          "type": "uint256"
        }
      ],
      "stateMutability": "view",
      "type": "function"
    },
    {
      "inputs": [],
      "name": "productionMode",
      "outputs": [
        {
          "internalType": "bool",
          "name": "",
          "type": "bool"
        }
      ],
      "stateMutability": "view",
      "type": "function"
    },
    {
      "inputs": [],
      "name": "randomAcquisitionMaxDurationBlocks",
      "outputs": [
        {
          "internalType": "uint64",
          "name": "",
          "type": "uint64"
        }
      ],
      "stateMutability": "view",
      "type": "function"
    },
    {
      "inputs": [],
      "name": "randomAcquisitionMaxDurationSeconds",
      "outputs": [
        {
          "internalType": "uint64",
          "name": "",
          "type": "uint64"
        }
      ],
      "stateMutability": "view",
      "type": "function"
    },
    {
      "inputs": [],
      "name": "relay",
      "outputs": [
        {
          "internalType": "contract IIRelay",
          "name": "",
          "type": "address"
        }
      ],
      "stateMutability": "view",
      "type": "function"
    },
    {
      "inputs": [],
      "name": "rewardEpochDurationSeconds",
      "outputs": [
        {
          "internalType": "uint64",
          "name": "",
          "type": "uint64"
        }
      ],
      "stateMutability": "view",
      "type": "function"
    },
    {
      "inputs": [],
      "name": "rewardEpochIdToExpireNext",
      "outputs": [
        {
          "internalType": "uint24",
          "name": "",
          "type": "uint24"
        }
      ],
      "stateMutability": "view",
      "type": "function"
    },
    {
      "inputs": [],
      "name": "rewardExpiryOffsetSeconds",
      "outputs": [
        {
          "internalType": "uint32",
          "name": "",
          "type": "uint32"
        }
      ],
      "stateMutability": "view",
      "type": "function"
    },
    {
      "inputs": [],
      "name": "rewardManager",
      "outputs": [
        {
          "internalType": "contract IIRewardManager",
          "name": "",
          "type": "address"
        }
      ],
      "stateMutability": "view",
      "type": "function"
    },
    {
      "inputs": [
        {
          "internalType": "uint256",
          "name": "rewardEpochId",
          "type": "uint256"
        }
      ],
      "name": "rewardsHash",
      "outputs": [
        {
          "internalType": "bytes32",
          "name": "",
          "type": "bytes32"
        }
      ],
      "stateMutability": "view",
      "type": "function"
    },
    {
      "inputs": [
        {
          "internalType": "contract IIRewardEpochSwitchoverTrigger[]",
          "name": "_contracts",
          "type": "address[]"
        }
      ],
      "name": "setRewardEpochSwitchoverTriggerContracts",
      "outputs": [],
      "stateMutability": "nonpayable",
      "type": "function"
    },
    {
      "inputs": [
        {
          "internalType": "uint24",
          "name": "_rewardEpochId",
          "type": "uint24"
        },
        {
          "internalType": "uint64",
          "name": "_noOfWeightBasedClaims",
          "type": "uint64"
        },
        {
          "internalType": "bytes32",
          "name": "_rewardsHash",
          "type": "bytes32"
        }
      ],
      "name": "setRewardsData",
      "outputs": [],
      "stateMutability": "nonpayable",
      "type": "function"
    },
    {
      "inputs": [
        {
          "internalType": "bool",
          "name": "_submit3Aligned",
          "type": "bool"
        }
      ],
      "name": "setSubmit3Aligned",
      "outputs": [],
      "stateMutability": "nonpayable",
      "type": "function"
    },
    {
      "inputs": [
        {
          "internalType": "bool",
          "name": "_triggerExpirationAndCleanup",
          "type": "bool"
        }
      ],
      "name": "setTriggerExpirationAndCleanup",
      "outputs": [],
      "stateMutability": "nonpayable",
      "type": "function"
    },
    {
      "inputs": [
        {
          "internalType": "contract IIVoterRegistrationTrigger",
          "name": "_contract",
          "type": "address"
        }
      ],
      "name": "setVoterRegistrationTriggerContract",
      "outputs": [],
      "stateMutability": "nonpayable",
      "type": "function"
    },
    {
      "inputs": [
        {
          "internalType": "uint24",
          "name": "_rewardEpochId",
          "type": "uint24"
        },
        {
          "internalType": "bytes32",
          "name": "_newSigningPolicyHash",
          "type": "bytes32"
        },
        {
          "components": [
            {
              "internalType": "uint8",
              "name": "v",
              "type": "uint8"
            },
            {
              "internalType": "bytes32",
              "name": "r",
              "type": "bytes32"
            },
            {
              "internalType": "bytes32",
              "name": "s",
              "type": "bytes32"
            }
          ],
          "internalType": "struct IFlareSystemsManager.Signature",
          "name": "_signature",
          "type": "tuple"
        }
      ],
      "name": "signNewSigningPolicy",
      "outputs": [],
      "stateMutability": "nonpayable",
      "type": "function"
    },
    {
      "inputs": [
        {
          "internalType": "uint24",
          "name": "_rewardEpochId",
          "type": "uint24"
        },
        {
          "internalType": "uint64",
          "name": "_noOfWeightBasedClaims",
          "type": "uint64"
        },
        {
          "internalType": "bytes32",
          "name": "_rewardsHash",
          "type": "bytes32"
        },
        {
          "components": [
            {
              "internalType": "uint8",
              "name": "v",
              "type": "uint8"
            },
            {
              "internalType": "bytes32",
              "name": "r",
              "type": "bytes32"
            },
            {
              "internalType": "bytes32",
              "name": "s",
              "type": "bytes32"
            }
          ],
          "internalType": "struct IFlareSystemsManager.Signature",
          "name": "_signature",
          "type": "tuple"
        }
      ],
      "name": "signRewards",
      "outputs": [],
      "stateMutability": "nonpayable",
      "type": "function"
    },
    {
      "inputs": [
        {
          "internalType": "uint24",
          "name": "_rewardEpochId",
          "type": "uint24"
        },
        {
          "internalType": "bytes32",
          "name": "_uptimeVoteHash",
          "type": "bytes32"
        },
        {
          "components": [
            {
              "internalType": "uint8",
              "name": "v",
              "type": "uint8"
            },
            {
              "internalType": "bytes32",
              "name": "r",
              "type": "bytes32"
            },
            {
              "internalType": "bytes32",
              "name": "s",
              "type": "bytes32"
            }
          ],
          "internalType": "struct IFlareSystemsManager.Signature",
          "name": "_signature",
          "type": "tuple"
        }
      ],
      "name": "signUptimeVote",
      "outputs": [],
      "stateMutability": "nonpayable",
      "type": "function"
    },
    {
      "inputs": [],
      "name": "signingPolicyMinNumberOfVoters",
      "outputs": [
        {
          "internalType": "uint16",
          "name": "",
          "type": "uint16"
        }
      ],
      "stateMutability": "view",
      "type": "function"
    },
    {
      "inputs": [],
      "name": "signingPolicyThresholdPPM",
      "outputs": [
        {
          "internalType": "uint24",
          "name": "",
          "type": "uint24"
        }
      ],
      "stateMutability": "view",
      "type": "function"
    },
    {
      "inputs": [],
      "name": "submission",
      "outputs": [
        {
          "internalType": "contract IISubmission",
          "name": "",
          "type": "address"
        }
      ],
      "stateMutability": "view",
      "type": "function"
    },
    {
      "inputs": [],
      "name": "submit3Aligned",
      "outputs": [
        {
          "internalType": "bool",
          "name": "",
          "type": "bool"
        }
      ],
      "stateMutability": "view",
      "type": "function"
    },
    {
      "inputs": [
        {
          "internalType": "uint24",
          "name": "_rewardEpochId",
          "type": "uint24"
        },
        {
          "internalType": "bytes20[]",
          "name": "_nodeIds",
          "type": "bytes20[]"
        },
        {
          "components": [
            {
              "internalType": "uint8",
              "name": "v",
              "type": "uint8"
            },
            {
              "internalType": "bytes32",
              "name": "r",
              "type": "bytes32"
            },
            {
              "internalType": "bytes32",
              "name": "s",
              "type": "bytes32"
            }
          ],
          "internalType": "struct IFlareSystemsManager.Signature",
          "name": "_signature",
          "type": "tuple"
        }
      ],
      "name": "submitUptimeVote",
      "outputs": [],
      "stateMutability": "nonpayable",
      "type": "function"
    },
    {
      "inputs": [],
      "name": "submitUptimeVoteMinDurationBlocks",
      "outputs": [
        {
          "internalType": "uint64",
          "name": "",
          "type": "uint64"
        }
      ],
      "stateMutability": "view",
      "type": "function"
    },
    {
      "inputs": [],
      "name": "submitUptimeVoteMinDurationSeconds",
      "outputs": [
        {
          "internalType": "uint64",
          "name": "",
          "type": "uint64"
        }
      ],
      "stateMutability": "view",
      "type": "function"
    },
    {
      "inputs": [],
      "name": "switchToFallbackMode",
      "outputs": [
        {
          "internalType": "bool",
          "name": "",
          "type": "bool"
        }
      ],
      "stateMutability": "view",
      "type": "function"
    },
    {
      "inputs": [],
      "name": "switchToProductionMode",
      "outputs": [],
      "stateMutability": "nonpayable",
      "type": "function"
    },
    {
      "inputs": [
        {
          "internalType": "bytes4",
          "name": "selector",
          "type": "bytes4"
        }
      ],
      "name": "timelockedCalls",
      "outputs": [
        {
          "internalType": "uint256",
          "name": "allowedAfterTimestamp",
          "type": "uint256"
        },
        {
          "internalType": "bytes",
          "name": "encodedCall",
          "type": "bytes"
        }
      ],
      "stateMutability": "view",
      "type": "function"
    },
    {
      "inputs": [],
      "name": "triggerExpirationAndCleanup",
      "outputs": [
        {
          "internalType": "bool",
          "name": "",
          "type": "bool"
        }
      ],
      "stateMutability": "view",
      "type": "function"
    },
    {
      "inputs": [
        {
          "internalType": "bytes32[]",
          "name": "_contractNameHashes",
          "type": "bytes32[]"
        },
        {
          "internalType": "address[]",
          "name": "_contractAddresses",
          "type": "address[]"
        }
      ],
      "name": "updateContractAddresses",
      "outputs": [],
      "stateMutability": "nonpayable",
      "type": "function"
    },
    {
      "inputs": [
        {
          "components": [
            {
              "internalType": "uint16",
              "name": "randomAcquisitionMaxDurationSeconds",
              "type": "uint16"
            },
            {
              "internalType": "uint16",
              "name": "randomAcquisitionMaxDurationBlocks",
              "type": "uint16"
            },
            {
              "internalType": "uint16",
              "name": "newSigningPolicyInitializationStartSeconds",
              "type": "uint16"
            },
            {
              "internalType": "uint8",
              "name": "newSigningPolicyMinNumberOfVotingRoundsDelay",
              "type": "uint8"
            },
            {
              "internalType": "uint16",
              "name": "voterRegistrationMinDurationSeconds",
              "type": "uint16"
            },
            {
              "internalType": "uint16",
              "name": "voterRegistrationMinDurationBlocks",
              "type": "uint16"
            },
            {
              "internalType": "uint16",
              "name": "submitUptimeVoteMinDurationSeconds",
              "type": "uint16"
            },
            {
              "internalType": "uint16",
              "name": "submitUptimeVoteMinDurationBlocks",
              "type": "uint16"
            },
            {
              "internalType": "uint24",
              "name": "signingPolicyThresholdPPM",
              "type": "uint24"
            },
            {
              "internalType": "uint16",
              "name": "signingPolicyMinNumberOfVoters",
              "type": "uint16"
            },
            {
              "internalType": "uint32",
              "name": "rewardExpiryOffsetSeconds",
              "type": "uint32"
            }
          ],
          "internalType": "struct FlareSystemsManager.Settings",
          "name": "_settings",
          "type": "tuple"
        }
      ],
      "name": "updateSettings",
      "outputs": [],
      "stateMutability": "nonpayable",
      "type": "function"
    },
    {
      "inputs": [
        {
          "internalType": "uint256",
          "name": "rewardEpochId",
          "type": "uint256"
        }
      ],
      "name": "uptimeVoteHash",
      "outputs": [
        {
          "internalType": "bytes32",
          "name": "",
          "type": "bytes32"
        }
      ],
      "stateMutability": "view",
      "type": "function"
    },
    {
      "inputs": [],
      "name": "voterRegistrationMinDurationBlocks",
      "outputs": [
        {
          "internalType": "uint64",
          "name": "",
          "type": "uint64"
        }
      ],
      "stateMutability": "view",
      "type": "function"
    },
    {
      "inputs": [],
      "name": "voterRegistrationMinDurationSeconds",
      "outputs": [
        {
          "internalType": "uint64",
          "name": "",
          "type": "uint64"
        }
      ],
      "stateMutability": "view",
      "type": "function"
    },
    {
      "inputs": [],
      "name": "voterRegistrationTriggerContract",
      "outputs": [
        {
          "internalType": "contract IIVoterRegistrationTrigger",
          "name": "",
          "type": "address"
        }
      ],
      "stateMutability": "view",
      "type": "function"
    },
    {
      "inputs": [],
      "name": "voterRegistry",
      "outputs": [
        {
          "internalType": "contract IIVoterRegistry",
          "name": "",
          "type": "address"
        }
      ],
      "stateMutability": "view",
      "type": "function"
    },
    {
      "inputs": [],
      "name": "votingEpochDurationSeconds",
      "outputs": [
        {
          "internalType": "uint64",
          "name": "",
          "type": "uint64"
        }
      ],
      "stateMutability": "view",
      "type": "function"
    }
  ],
  "bytecode": "0x6101406040526009805461ffff60281b1916650100000000001790553480156200002857600080fd5b5060405162006b6538038062006b658339810160408190526200004b916200081a565b878a8a6200005a8282620003c2565b50620000869050817f714f205b2abd25bef1d06a1af944e38c113fe6160375c4e1d6d5cf28848e771955565b506001600160a01b038716620000d75760405162461bcd60e51b8152602060048201526011602482015270666c617265206461656d6f6e207a65726f60781b60448201526064015b60405180910390fd5b60008261ffff16116200012d5760405162461bcd60e51b815260206004820152601a60248201527f7265776172642065706f6368206475726174696f6e207a65726f0000000000006044820152606401620000ce565b60008460ff1611620001825760405162461bcd60e51b815260206004820152601a60248201527f766f74696e672065706f6368206475726174696f6e207a65726f0000000000006044820152606401620000ce565b805161ffff16620001c45760405162461bcd60e51b815260206004820152600b60248201526a7a65726f20626c6f636b7360a81b6044820152606401620000ce565b620001cf8662000537565b6001600160a01b03871660805263ffffffff851660e05260ff8416610100819052620001fc9084620009f7565b62000208908662000a22565b63ffffffff1660a0526200022460ff851661ffff841662000a49565b6001600160401b031660c052805161ffff166101205260208101516200024c90600162000a6f565b60098054602084015165ffffffffffff60981b19909116600160981b62ffffff9485160262ffffff60b01b191617600160b01b9382169390930292909217905560c051906200029d90600162000a6f565b62ffffff16620002ae919062000a49565b60a051620002bd919062000a8e565b60098054600160381b600160781b0319166701000000000000006001600160401b03939093169290920291909117905560408181015160208084015162ffffff1660009081526003909152829020600501805461ffff60601b19166c0100000000000000000000000061ffff93841602179055908701516200034191164262000ab1565b60095467010000000000000090046001600160401b031611620003b25760405162461bcd60e51b815260206004820152602260248201527f7265776172642065706f636820656e64206e6f7420696e207468652066757475604482015261726560f01b6064820152608401620000ce565b5050505050505050505062000acd565b600054600160a01b900460ff16156200041e5760405162461bcd60e51b815260206004820152601460248201527f696e697469616c6973656420213d2066616c73650000000000000000000000006044820152606401620000ce565b6001600160a01b038216620004765760405162461bcd60e51b815260206004820152601860248201527f676f7665726e616e63652073657474696e6773207a65726f00000000000000006044820152606401620000ce565b6001600160a01b038116620004c15760405162461bcd60e51b815260206004820152601060248201526f5f676f7665726e616e6365207a65726f60801b6044820152606401620000ce565b600080546001600160a01b038481166001600160a81b031990921691909117600160a01b17909155600180549183166001600160a01b0319909216821790556040519081527f9789733827840833afc031fb2ef9ab6894271f77bad2085687cf4ae5c7bee4db9060200160405180910390a15050565b620f424081610100015162ffffff1611156200058b5760405162461bcd60e51b81526020600482015260126024820152710e8d0e4cae6d0ded8c840e8dede40d0d2ced60731b6044820152606401620000ce565b600081610120015161ffff1611620005d45760405162461bcd60e51b815260206004820152600b60248201526a7a65726f20766f7465727360a81b6044820152606401620000ce565b80516007805460208401516040850151606086015161014087015161ffff9687166001600160801b0319958616179387166801000000000000000090810294909417600160801b600160e01b031916928716600160801b90810263ffffffff60c01b19169390931760ff909216600160c01b908102929092176001600160e01b0316600160e01b63ffffffff909216919091021790945560808601516008805460a089015160c08a015160e08b0151948a169290971691909117908816909402939093176001600160801b03169386169091026001600160c01b031692909217918416909202179055610100820151600980546101209094015162ffffff90921664ffffffffff199094169390931763010000009190921602179055565b6001600160a01b03811681146200070857600080fd5b50565b60405161016081016001600160401b03811182821017156200073d57634e487b7160e01b600052604160045260246000fd5b60405290565b805161ffff811681146200075657600080fd5b919050565b805160ff811681146200075657600080fd5b805162ffffff811681146200075657600080fd5b805163ffffffff811681146200075657600080fd5b600060608284031215620007a957600080fd5b604051606081016001600160401b0381118282101715620007da57634e487b7160e01b600052604160045260246000fd5b604052905080620007eb8362000743565b8152620007fb602084016200076d565b60208201526200080e6040840162000743565b60408201525092915050565b6000806000806000806000806000808a8c036102c08112156200083c57600080fd5b8b516200084981620006f2565b60208d0151909b506200085c81620006f2565b60408d0151909a506200086f81620006f2565b60608d01519099506200088281620006f2565b9750610160607f19820112156200089857600080fd5b50620008a36200070b565b620008b160808d0162000743565b8152620008c160a08d0162000743565b6020820152620008d460c08d0162000743565b6040820152620008e760e08d016200075b565b6060820152620008fb6101008d0162000743565b608082015261012062000910818e0162000743565b60a083015261014062000925818f0162000743565b60c0840152620009396101608f0162000743565b60e08401526200094d6101808f016200076d565b610100840152620009626101a08f0162000743565b82840152620009756101c08f0162000781565b908301525095506200098b6101e08c0162000781565b94506200099c6102008c016200075b565b9350620009ad6102208c0162000781565b9250620009be6102408c0162000743565b9150620009d08c6102608d0162000796565b90509295989b9194979a5092959850565b634e487b7160e01b600052601160045260246000fd5b63ffffffff81811683821602808216919082811462000a1a5762000a1a620009e1565b505092915050565b63ffffffff81811683821601908082111562000a425762000a42620009e1565b5092915050565b6001600160401b0381811683821602808216919082811462000a1a5762000a1a620009e1565b62ffffff81811683821601908082111562000a425762000a42620009e1565b6001600160401b0381811683821601908082111562000a425762000a42620009e1565b8082018082111562000ac75762000ac7620009e1565b92915050565b60805160a05160c05160e0516101005161012051615ffb62000b6a60003960008181610d040152614199015260008181610815015281816140be0152614ea5015260008181610d5a015281816140e80152614e6001526000818161095c0152818161200301528181613cd201526147880152600081816109350152613cfc015260008181610a7701528181611ad401526138b00152615ffb6000f3fe608060405234801561001057600080fd5b50600436106104325760003560e01c806385f3c9c911610236578063c26322161161013b578063ded7c4b8116100c3578063ed54fd6311610087578063ed54fd6314610d7c578063ef88bf1314610d96578063f21d630414610da9578063f5a9838314610db8578063f5f5ba7214610dc057600080fd5b8063ded7c4b814610cff578063e0d4ea3714610d26578063e17f212e14610d39578063e22fdece14610d4d578063e8d0e70a14610d5557600080fd5b8063d34669111161010a578063d346691114610c4b578063d8a01a0a14610c6b578063dac4319d14610c85578063dc5a422514610cd9578063debfda3014610cec57600080fd5b8063c263221614610b89578063c9f1d2aa14610b9c578063d10e807f14610be0578063d2e9ad7114610bfa57600080fd5b8063a219fe02116101be578063aec84ab61161018d578063aec84ab614610ae9578063b00c0b7614610aff578063b59589d114610b12578063b6c25af014610b25578063be60040e14610b7657600080fd5b8063a219fe0214610a99578063a72b826e14610aac578063a733d54b14610abf578063ab25ac5b14610ad657600080fd5b80638fbaf860116102055780638fbaf86014610a255780639a75909714610a385780639b760d1314610a4b5780639dd6850f14610a5f578063a107753214610a7257600080fd5b806385f3c9c91461095757806388e49ac71461097e578063898805c1146109915780638f8f9f3a146109a457600080fd5b80634eaee3071161033c57806367daec89116102c45780636d0e8c34116102935780636d0e8c34146108d857806370562697146108e057806374e6310e146108fc57806375d2187a1461091d57806379e047ed1461093057600080fd5b806367daec891461088557806367fc4029146108985780636aeffddc146108ab5780636b4c7bd6146108c557600080fd5b80635a8320881161030b5780635a832088146108105780635aa6e675146108375780635ff270791461083f57806362354e0314610852578063647006e21461086557600080fd5b80634eaee307146107525780634f923d371461077e5780635267a15d1461079557806359db0e2f146107bc57600080fd5b80632a576f8d116103bf5780634615d5e91161038e5780634615d5e9146106e357806346831531146106f6578063490344f41461070b5780634c528765146107255780634eac870f1461073f57600080fd5b80632a576f8d146106145780632e3645f814610627578063388a4c3d1461064f57806341c05ad51461067d57600080fd5b80630f4ef8a6116104065780630f4ef8a6146104f2578063107d8ffb1461051d5780631703a788146105335780631916e9151461055b57806324eb64de1461060157600080fd5b8062ddae531461043757806306886f411461049a57806309505d25146104af578063098e7ff6146104c7575b600080fd5b61047561044536600461513b565b62ffffff16600090815260036020819052604090912001546001600160401b0380821692600160401b9092041690565b604080516001600160401b039384168152929091166020830152015b60405180910390f35b6104ad6104a83660046151a1565b610df5565b005b6104b7610f8c565b6040519015158152602001610491565b6007546104da906001600160401b031681565b6040516001600160401b039091168152602001610491565b600d54610505906001600160a01b031681565b6040516001600160a01b039091168152602001610491565b6009546104b79065010000000000900460ff1681565b6105466105413660046151e2565b610fc9565b60408051928352901515602083015201610491565b610475610569366004615210565b62ffffff919091166000818152600360209081526040808320600683528184205460058452828520548351808601979097528684019190915260608087019190915282518087039091018152608090950182528451948301949094208352600b90930181528282206001600160a01b03909416825260019093019092529020546001600160401b0380821692600160401b9092041690565b6104ad61060f366004615247565b610ff9565b6104ad61062236600461527b565b611054565b60095461063c906301000000900461ffff1681565b60405161ffff9091168152602001610491565b61066f61065d3660046151e2565b60066020526000908152604090205481565b604051908152602001610491565b61047561068b366004615210565b62ffffff909116600090815260036020908152604080832060048352818420548452600a0182528083206001600160a01b0390941683526001909301905220546001600160401b0380821692600160401b9092041690565b61063c6106f13660046151e2565b61115b565b6106fe6111ec565b60405161049191906152b7565b6007546104da90600160401b90046001600160401b031681565b6008546104da90600160801b90046001600160401b031681565b600e54610505906001600160a01b031681565b60075461076990600160e01b900463ffffffff1681565b60405163ffffffff9091168152602001610491565b60095461076990600160781b900463ffffffff1681565b7f714f205b2abd25bef1d06a1af944e38c113fe6160375c4e1d6d5cf28848e771954610505565b6104756107ca366004615210565b62ffffff90911660009081526003602090815260408083206001600160a01b0390941683526009909301905220546001600160401b0380821692600160401b9092041690565b6104da7f000000000000000000000000000000000000000000000000000000000000000081565b61050561124e565b6104ad61084d3660046152f8565b6112ea565b600054610505906001600160a01b031681565b61066f6108733660046151e2565b60056020526000908152604090205481565b6104ad610893366004615330565b61156a565b6104ad6108a63660046152f8565b6115b6565b6007546104da90600160801b90046001600160401b031681565b6104ad6108d336600461535f565b611697565b6104b7611ac7565b6108e861279d565b60405162ffffff9091168152602001610491565b61090f61090a3660046152f8565b6127a7565b6040516104919291906153ec565b61076961092b3660046151e2565b61284c565b6104da7f000000000000000000000000000000000000000000000000000000000000000081565b6104da7f000000000000000000000000000000000000000000000000000000000000000081565b600f54610505906001600160a01b031681565b6104ad61099f366004615428565b6128db565b6109f26109b236600461513b565b62ffffff166000908152600360205260409020546001600160401b0380821692600160401b8304821692600160801b8104831692600160c01b9091041690565b604080516001600160401b0395861681529385166020850152918416918301919091529091166060820152608001610491565b6104ad610a333660046154e8565b6129c0565b600b54610505906001600160a01b031681565b6009546104b790600160301b900460ff1681565b6104ad610a6d3660046155c2565b6129f8565b6105057f000000000000000000000000000000000000000000000000000000000000000081565b6008546104da906001600160401b031681565b6104ad610aba366004615330565b612c74565b60075461076990600160c01b900463ffffffff1681565b6104ad610ae4366004615627565b612cc1565b6009546108e890600160981b900462ffffff1681565b6104ad610b0d366004615701565b613177565b600c54610505906001600160a01b031681565b6109f2610b3336600461513b565b62ffffff166000908152600360205260409020600201546001600160401b0380821692600160401b8304821692600160801b8104831692600160c01b9091041690565b600a54610505906001600160a01b031681565b6104da610b973660046151e2565b613252565b610475610baa36600461513b565b62ffffff16600090815260036020819052604090912001546001600160401b03600160801b8204811692600160c01b9092041690565b6008546104da90600160401b90046001600160401b031681565b6109f2610c0836600461513b565b62ffffff166000908152600360205260409020600101546001600160401b0380821692600160401b8304821692600160801b8104831692600160c01b9091041690565b61066f610c593660046151e2565b60046020526000908152604090205481565b6008546104da90600160c01b90046001600160401b031681565b610475610c93366004615210565b62ffffff90911660009081526003602090815260408083206001600160a01b0390941683526007909301905220546001600160401b0380821692600160401b9092041690565b6104ad610ce736600461535f565b6132ce565b6104b7610cfa366004615247565b61379b565b6104da7f000000000000000000000000000000000000000000000000000000000000000081565b61066f610d343660046151e2565b613824565b6000546104b790600160a81b900460ff1681565b6104b76138a3565b6104da7f000000000000000000000000000000000000000000000000000000000000000081565b6009546104da90600160381b90046001600160401b031681565b6104ad610da43660046157b9565b613917565b6009546108e89062ffffff1681565b6104ad613a7d565b6040805180820182526013815272233630b932a9bcb9ba32b6b9a6b0b730b3b2b960691b6020820152905161049191906157d7565b600054600160b01b900460ff1680610e175750600054600160a81b900460ff16155b15610f7d57610e24613b43565b610e30601060006150bf565b8060005b81811015610f77576000848483818110610e5057610e506157ea565b9050602002016020810190610e659190615247565b90506000610e74836001615816565b90505b83811015610f1457858582818110610e9157610e916157ea565b9050602002016020810190610ea69190615247565b6001600160a01b0316826001600160a01b031603610f025760405162461bcd60e51b81526020600482015260146024820152736475706c69636174656420636f6e74726163747360601b60448201526064015b60405180910390fd5b80610f0c81615829565b915050610e77565b50601080546001810182556000919091527f1b6847dc741a1b0cd08d278845f9d819d87b734759afb55fe2de5cb82a9ae6720180546001600160a01b0319166001600160a01b039290921691909117905580610f6f81615829565b915050610e34565b50505050565b610f88600036613b7d565b5050565b600080610f97613cc9565b610fa2906001615842565b62ffffff166000818152600360205260409020909150610fc3908290613d5d565b91505090565b600081815260036020526040812060058101546001600160401b03169190610ff2908490613d5d565b9050915091565b600054600160b01b900460ff168061101b5750600054600160a81b900460ff16155b1561104657611028613b43565b600f80546001600160a01b0319166001600160a01b03831617905550565b611051600036613b7d565b50565b61105c613e71565b8061109d5760405162461bcd60e51b8152602060048201526011602482015270726577617264732068617368207a65726f60781b6044820152606401610ef9565b6110a683613ecb565b62ffffff83166000908152600560209081526040808320849055600690915290206001600160401b03831690556110db61124e565b6001600160a01b03166110ec61124e565b6001600160a01b03168462ffffff167f80df246a47153e3604b0026fcf53ec85ea48178efd4f3cad24f9a1e1da2dd52a848661112742613f8d565b604080519384526001600160401b0392831660208501529116908201526001606082015260800160405180910390a4505050565b60008181526003602052604081206001015482906001600160401b031682036111c65760405162461bcd60e51b815260206004820181905260248201527f7265776172642065706f6368206e6f7420696e697469616c697a6564207965746044820152606401610ef9565b600083815260036020526040902060050154600160601b900461ffff1691505b50919050565b6060601080548060200260200160405190810160405280929190818152602001828054801561124457602002820191906000526020600020905b81546001600160a01b03168152600190910190602001808311611226575b5050505050905090565b60008054600160a81b900460ff1661127057506001546001600160a01b031690565b60008054906101000a90046001600160a01b03166001600160a01b031663732524946040518163ffffffff1660e01b8152600401602060405180830381865afa1580156112c1573d6000803e3d6000fd5b505050506040513d601f19601f820116820180604052508101906112e59190615865565b905090565b6112f33361379b565b61132f5760405162461bcd60e51b815260206004820152600d60248201526c37b7363c9032bc32b1baba37b960991b6044820152606401610ef9565b6001600160e01b03198116600090815260026020526040812080549091036113995760405162461bcd60e51b815260206004820152601a60248201527f74696d656c6f636b3a20696e76616c69642073656c6563746f720000000000006044820152606401610ef9565b80544210156113ea5760405162461bcd60e51b815260206004820152601960248201527f74696d656c6f636b3a206e6f7420616c6c6f77656420796574000000000000006044820152606401610ef9565b60008160010180546113fb90615882565b80601f016020809104026020016040519081016040528092919081815260200182805461142790615882565b80156114745780601f1061144957610100808354040283529160200191611474565b820191906000526020600020905b81548152906001019060200180831161145757829003601f168201915b505050506001600160e01b03198516600090815260026020526040812081815592935090506114a660018301826150dd565b50506000805460ff60b01b1916600160b01b17815560405130906114cb9084906158b6565b6000604051808303816000865af19150503d8060008114611508576040519150601f19603f3d011682016040523d82523d6000602084013e61150d565b606091505b50506000805460ff60b01b19169055604080516001600160e01b0319871681524260208201529192507fa7326b57fc9cfe267aaea5e7f0b01757154d265620a0585819416ee9ddd2c438910160405180910390a1610f7781613fc7565b600054600160b01b900460ff168061158c5750600054600160a81b900460ff16155b1561104657611599613b43565b6009805466ff0000000000001916600160301b8315150217905550565b6115be613e71565b6001600160e01b0319811660009081526002602052604081205490036116265760405162461bcd60e51b815260206004820152601a60248201527f74696d656c6f636b3a20696e76616c69642073656c6563746f720000000000006044820152606401610ef9565b604080516001600160e01b0319831681524260208201527f7735b2391c38a81419c513e30ca578db7158eadd7101511b23e221c654d19cf8910160405180910390a16001600160e01b0319811660009081526002602052604081208181559061169260018301826150dd565b505050565b81158015906116ad5750816116ab84613fe4565b145b6116f95760405162461bcd60e51b815260206004820152601f60248201527f6e6577207369676e696e6720706f6c696379206861736820696e76616c6964006044820152606401610ef9565b62ffffff831660009081526003602052604090206001810154600160801b90046001600160401b0316156117795760405162461bcd60e51b815260206004820152602160248201527f6e6577207369676e696e6720706f6c69637920616c7265616479207369676e656044820152601960fa1b6064820152608401610ef9565b600061178484614056565b905060006117a88261179960208701876158d2565b86602001358760400135614089565b600a5490915060009081906001600160a01b0316638c6457286117cc60018b6158ed565b6040516001600160e01b031960e084901b16815262ffffff90911660048201526001600160a01b03861660248201526044016040805180830381865afa15801561181a573d6000803e3d6000fd5b505050506040513d601f19601f8201168201806040525081019061183e9190615914565b90925090506001600160a01b0382166118695760405162461bcd60e51b8152600401610ef990615943565b6001600160a01b03821660009081526007860160205260409020546001600160401b0316156118da5760405162461bcd60e51b815260206004820152601e60248201527f7369676e696e67206164647265737320616c7265616479207369676e656400006044820152606401610ef9565b60405180604001604052806118ee42613f8d565b6001600160401b0316815260200161190543613f8d565b6001600160401b039081169091526001600160a01b0384166000908152600788016020908152604082208451815495909201518416600160401b026001600160801b0319909516919093161792909217905560038161196560018c6158ed565b62ffffff168152602081019190915260400160002060050154600687015461ffff600160601b90920482169161199d9185911661596e565b61ffff161190508015611a1f576119b342613f8d565b8660010160106101000a8154816001600160401b0302191690836001600160401b031602179055506119e443613f8d565b6001870180546001600160401b0392909216600160c01b026001600160c01b0390921691909117905560068601805461ffff19169055611a55565b600686018054839190600090611a3a90849061ffff1661596e565b92506101000a81548161ffff021916908361ffff1602179055505b826001600160a01b0316846001600160a01b03168a62ffffff167f154b0214ae62d8a5548c1eac25fabd87c38b04932a217732e1022f3118da67f3611a9942613f8d565b604080516001600160401b0390921682528615156020830152015b60405180910390a4505050505050505050565b6000336001600160a01b037f00000000000000000000000000000000000000000000000000000000000000001614611b355760405162461bcd60e51b815260206004820152601160248201527037b7363c90333630b932903230b2b6b7b760791b6044820152606401610ef9565b6000611b3f6140b7565b90506000611b4b613cc9565b6007546009549192508291611b7a916001600160401b03600160801b909104811691600160381b900416615989565b6001600160401b03164210612194576000611b96836001615842565b90506000611ba382613fe4565b03611ff05762ffffff81166000908152600360205260408120805490916001600160401b039091169003611cd857611bda42613f8d565b815467ffffffffffffffff19166001600160401b0391909116178155611bff43613f8d565b81546001600160401b0391909116600160401b0267ffffffffffffffff60401b19909116178155600a54604051635213182360e01b815262ffffff841660048201526001600160a01b0390911690635213182390602401600060405180830381600087803b158015611c7057600080fd5b505af1158015611c84573d6000803e3d6000fd5b505050508162ffffff167ff9991783e5e480e42d9a54d3f35f4321857f8f0ebeb3742d326dce28b1126708611cb842613f8d565b6040516001600160401b03909116815260200160405180910390a2611fee565b8054600160801b90046001600160401b0316600003611f75576000806000600c60009054906101000a90046001600160a01b03166001600160a01b031663dbdff2c16040518163ffffffff1660e01b8152600401606060405180830381865afa158015611d49573d6000803e3d6000fd5b505050506040513d601f19601f82011682018060405250810190611d6d91906159a9565b865492955090935091506000906001600160401b031682118015611d8e5750825b15611da457611d9d868561412a565b9050611e5e565b60075485544391611dcc916001600160401b03600160401b92839004811692909104166159e2565b6001600160401b0316108015611e05575060075485544291611dfa916001600160401b0391821691166159e2565b6001600160401b0316105b15611e5e575062ffffff87166000908152600360205260409020600501546001600160401b03168015611e515762ffffff88166000908152600360205260409020600401549350611e5e565b611e5b868561412a565b90505b6001600160401b03811615611f6c5743816001600160401b031610611e8557611e85615a02565b611e8e42613f8d565b85546001600160401b0391909116600160801b0267ffffffffffffffff60801b19909116178555611ebe43613f8d565b85546001600160c01b0316600160c01b6001600160401b039283160217865560058601805467ffffffffffffffff19169183169190911790556004850184905562ffffff86167ff21722dbe044a7cea0f6d81c871cae750971e36c9dd10999e46f2b46f26ac7ff82611f2f42613f8d565b604080516001600160401b0393841681529290911660208301520160405180910390a2600f546001600160a01b031615611f6c57611f6c86614214565b50505050611fee565b611f848262ffffff1682613d5d565b611fee57611f9142613f8d565b60018201805467ffffffffffffffff19166001600160401b0392909216919091179055611fbd43613f8d565b8160010160086101000a8154816001600160401b0302191690836001600160401b03160217905550611fee826142af565b505b611ff98161448e565b15612192578092507f0000000000000000000000000000000000000000000000000000000000000000600960078282829054906101000a90046001600160401b031661204591906159e2565b92506101000a8154816001600160401b0302191690836001600160401b0316021790555061207242613f8d565b62ffffff8416600090815260036020819052604090912001805467ffffffffffffffff19166001600160401b03929092169190911790556120b243613f8d565b62ffffff84166000818152600360208190526040909120908101805467ffffffffffffffff60401b1916600160401b6001600160401b039590951685021790556005015490917f4abb62ab1e4c42a11b90e4e45b92af1274f74cc634b759518e8c99e000d8be6d910463ffffffff1661212a42613f8d565b6040805163ffffffff90931683526001600160401b0390911660208301520160405180910390a2600954600160301b900460ff16156121745761216c836144fe565b612174614672565b600954612192908490600160381b90046001600160401b0316614732565b505b60095463ffffffff600160781b909104811690841611156123db576009805463ffffffff60781b1916600160781b63ffffffff861602179055600a54604051637c2cb92160e01b815262ffffff83166004820152606091829182916001600160a01b031690637c2cb92190602401600060405180830381865afa15801561221f573d6000803e3d6000fd5b505050506040513d6000823e601f3d908101601f191682016040526122479190810190615a7c565b600a54604051635b0dabfd60e11b815262ffffff871660048201529193506001600160a01b03169063b61b57fa90602401600060405180830381865afa158015612295573d6000803e3d6000fd5b505050506040513d6000823e601f3d908101601f191682016040526122bd9190810190615a7c565b90508362ffffff168562ffffff16111561234d57600a54604051637c2cb92160e01b815262ffffff871660048201526001600160a01b0390911690637c2cb92190602401600060405180830381865afa15801561231e573d6000803e3d6000fd5b505050506040513d6000823e601f3d908101601f191682016040526123469190810190615a7c565b9250612351565b8192505b600b546009546001600160a01b039091169063f8ae8a2f908590859065010000000000900460ff166123835785612385565b865b856040518563ffffffff1660e01b81526004016123a59493929190615af4565b600060405180830381600087803b1580156123bf57600080fd5b505af11580156123d3573d6000803e3d6000fd5b505050505050505b6009546000906123f890600160b01b900462ffffff166001615842565b90508062ffffff168362ffffff16118015612439575062ffffff811660009081526003602081905260409091200154600160801b90046001600160401b0316155b156125d357600060038161244e846001615842565b62ffffff16815260208101919091526040016000206008546003820154919250429161248d916001600160401b03600160801b909104811691166159e2565b6001600160401b03161080156124d85750600854600382015443916124cd916001600160401b03600160c01b909204821691600160401b909104166159e2565b6001600160401b0316105b156125d1576009805462ffffff60b01b1916600160b01b62ffffff85160217905561250242613f8d565b62ffffff831660009081526003602081905260409091200180546001600160401b0392909216600160801b0267ffffffffffffffff60801b1990921691909117905561254d43613f8d565b62ffffff831660008181526003602081905260409091200180546001600160401b0393909316600160c01b026001600160c01b03909316929092179091557f235cef7d085c1e59545613282d239e56eb0cd056135aa46b8c658cf54a0785616125b542613f8d565b6040516001600160401b03909116815260200160405180910390a25b505b600954600160301b900460ff1661279257600d546040805163deea13e760e01b815290516000926001600160a01b03169163deea13e79160048083019260209291908290030181865afa15801561262e573d6000803e3d6000fd5b505050506040513d601f19601f820116820180604052508101906126529190615b41565b90505b60095462ffffff808616600160981b9092041610801561269d5750600954600160981b900462ffffff166000908152600360205260409020600501546001600160401b031681115b1561279057600d54600954604051636b60edf760e11b8152600160981b90910462ffffff1660048201526001600160a01b039091169063d6c1dbee90602401600060405180830381600087803b1580156126f657600080fd5b505af1925050508015612707575060015b61275257600954604051600160981b90910462ffffff1681527fc0cded1f60001401da804c8a7703c1e8dc60521fca0f0f9853e2f1984b5410ba9060200160405180910390a1612790565b60098054600160981b900462ffffff1690601361276e83615b5a565b91906101000a81548162ffffff021916908362ffffff16021790555050612655565b505b600194505050505090565b60006112e5613cc9565b600260205260009081526040902080546001820180549192916127c990615882565b80601f01602080910402602001604051908101604052809291908181526020018280546127f590615882565b80156128425780601f1061281757610100808354040283529160200191612842565b820191906000526020600020905b81548152906001019060200180831161282557829003601f168201915b5050505050905082565b60008181526003602052604081206001015482906001600160401b031682036128b75760405162461bcd60e51b815260206004820181905260248201527f7265776172642065706f6368206e6f7420696e697469616c697a6564207965746044820152606401610ef9565b5050600090815260036020526040902060050154600160401b900463ffffffff1690565b600054600160b01b900460ff16806128fd5750600054600160a81b900460ff16155b15610f7d5761290a613b43565b620f42408262ffffff1611156129575760405162461bcd60e51b81526020600482015260126024820152710e8d0e4cae6d0ded8c840e8dede40d0d2ced60731b6044820152606401610ef9565b60008161ffff16116129995760405162461bcd60e51b815260206004820152600b60248201526a7a65726f20766f7465727360a81b6044820152606401610ef9565b6009805461ffff831663010000000264ffffffffff1990911662ffffff8516171790555050565b600054600160b01b900460ff16806129e25750600054600160a81b900460ff16155b15611046576129ef613b43565b61105181614807565b612a00613cc9565b62ffffff168462ffffff1610612a285760405162461bcd60e51b8152600401610ef990615b7c565b62ffffff8416600090815260036020819052604090912090810154600160801b90046001600160401b031615612aac5760405162461bcd60e51b815260206004820152602360248201527f7375626d697420757074696d6520766f746520616c72656164792066696e69736044820152621a195960ea1b6064820152608401610ef9565b6000858585604051602001612ac393929190615bfe565b6040516020818303038152906040528051906020012090506000612ae682614056565b90506000612b0a82612afb60208801886158d2565b87602001358860400135614089565b600a5460405163118c8ae560e31b815262ffffff8b1660048201526001600160a01b03808416602483015292935060009290911690638c645728906044016040805180830381865afa158015612b64573d6000803e3d6000fd5b505050506040513d601f19601f82011682018060405250810190612b889190615914565b5090506001600160a01b038116612bb15760405162461bcd60e51b8152600401610ef990615943565b6040518060400160405280612bc542613f8d565b6001600160401b03168152602001612bdc43613f8d565b6001600160401b039081169091526001600160a01b03808416600081815260098a01602090815260409091208551815496909201518516600160401b026001600160801b0319909616919094161793909317909155831662ffffff8b167fed370d61eb315e1d46d979894585530b99f94dab64c0d40366685aebe39e3db08b8b612c6542613f8d565b604051611ab493929190615c1d565b600054600160b01b900460ff1680612c965750600054600160a81b900460ff16155b1561104657612ca3613b43565b6009805465ff00000000001916650100000000008315150217905550565b81612d025760405162461bcd60e51b8152602060048201526011602482015270726577617264732068617368207a65726f60781b6044820152606401610ef9565b612d0b84613ecb565b62ffffff84166000908152600360209081526040808320600490925290912054612d775760405162461bcd60e51b815260206004820152601f60248201527f757074696d6520766f74652068617368206e6f74207369676e656420796574006044820152606401610ef9565b62ffffff851660009081526005602052604090205415612dd95760405162461bcd60e51b815260206004820152601b60248201527f72657761726473206861736820616c7265616479207369676e656400000000006044820152606401610ef9565b6040805162ffffff871660208201526001600160401b03861691810191909152606081018490526000906080016040516020818303038152906040528051906020012090506000612e2982614056565b90506000612e3e82612afb60208801886158d2565b600a5460405163118c8ae560e31b815262ffffff8b1660048201526001600160a01b03808416602483015292935060009283921690638c645728906044016040805180830381865afa158015612e98573d6000803e3d6000fd5b505050506040513d601f19601f82011682018060405250810190612ebc9190615914565b90925090506001600160a01b038216612ee75760405162461bcd60e51b8152600401610ef990615943565b6000858152600b8701602090815260408083206001600160a01b03861684526001019091529020546001600160401b031615612f5c5760405162461bcd60e51b81526020600482015260146024820152731d9bdd195c88185b1c9958591e481cda59db995960621b6044820152606401610ef9565b6040518060400160405280612f7042613f8d565b6001600160401b03168152602001612f8743613f8d565b6001600160401b039081169091526000878152600b8901602081815260408084206001600160a01b038916855260018101835290842086518154978401518716600160401b026001600160801b03199098169616959095179590951790935560058a01548983529252915461ffff600160601b90920482169161300c9185911661596e565b61ffff1611905080156130b55761302242613f8d565b8760020160106101000a8154816001600160401b0302191690836001600160401b0316021790555061305343613f8d565b6002880180546001600160c01b0316600160c01b6001600160401b039384160217905562ffffff8c1660009081526005602090815260408083208d905560068252808320938e16909355888252600b8a01905220805461ffff191690556130f4565b6000868152600b88016020526040812080548492906130d990849061ffff1661596e565b92506101000a81548161ffff021916908361ffff1602179055505b826001600160a01b0316846001600160a01b03168c62ffffff167f80df246a47153e3604b0026fcf53ec85ea48178efd4f3cad24f9a1e1da2dd52a8c8e61313a42613f8d565b604080519384526001600160401b039283166020850152911690820152851515606082015260800160405180910390a45050505050505050505050565b7f714f205b2abd25bef1d06a1af944e38c113fe6160375c4e1d6d5cf28848e7719546001600160a01b0316336001600160a01b0316146131f05760405162461bcd60e51b815260206004820152601460248201527337b7363c9030b2323932b9b9903ab83230ba32b960611b6044820152606401610ef9565b61324861322483836040518060400160405280600e81526020016d20b2323932b9b9aab83230ba32b960911b8152506149c7565b7f714f205b2abd25bef1d06a1af944e38c113fe6160375c4e1d6d5cf28848e771955565b610f888282614aa2565b6000818152600360205260408120600501546001600160401b0316908190036132c95760405162461bcd60e51b8152602060048201526024808201527f766f746520706f77657220626c6f636b206e6f7420696e697469616c697a6564604482015263081e595d60e21b6064820152608401610ef9565b919050565b816133135760405162461bcd60e51b8152602060048201526015602482015274757074696d6520766f74652068617368207a65726f60581b6044820152606401610ef9565b62ffffff8316600090815260036020526040902061332f613cc9565b62ffffff168462ffffff16106133575760405162461bcd60e51b8152600401610ef990615b7c565b6003810154600160801b90046001600160401b03166000036133bb5760405162461bcd60e51b815260206004820181905260248201527f7369676e20757074696d6520766f7465206e6f742073746172746564207965746044820152606401610ef9565b62ffffff84166000908152600460205260409020541561341d5760405162461bcd60e51b815260206004820152601f60248201527f757074696d6520766f7465206861736820616c7265616479207369676e6564006044820152606401610ef9565b6040805162ffffff86166020820152908101849052600090606001604051602081830303815290604052805190602001209050600061345b82614056565b9050600061347082612afb60208801886158d2565b600a5460405163118c8ae560e31b815262ffffff8a1660048201526001600160a01b03808416602483015292935060009283921690638c645728906044016040805180830381865afa1580156134ca573d6000803e3d6000fd5b505050506040513d601f19601f820116820180604052508101906134ee9190615914565b90925090506001600160a01b0382166135195760405162461bcd60e51b8152600401610ef990615943565b6000888152600a8701602090815260408083206001600160a01b03861684526001019091529020546001600160401b03161561358e5760405162461bcd60e51b81526020600482015260146024820152731d9bdd195c88185b1c9958591e481cda59db995960621b6044820152606401610ef9565b60405180604001604052806135a242613f8d565b6001600160401b031681526020016135b943613f8d565b6001600160401b0390811690915260008a8152600a8901602081815260408084206001600160a01b038916855260018101835290842086518154978401518716600160401b026001600160801b03199098169616959095179590951790935560058a01548c83529252915461ffff600160601b90920482169161363e9185911661596e565b61ffff1611905080156136e25761365442613f8d565b60028801805467ffffffffffffffff19166001600160401b039290921691909117905561368043613f8d565b6002880180546001600160401b0392909216600160401b0267ffffffffffffffff60401b1990921691909117905562ffffff8a1660009081526004602090815260408083208c90558b8352600a8a019091529020805461ffff19169055613721565b6000898152600a880160205260408120805484929061370690849061ffff1661596e565b92506101000a81548161ffff021916908361ffff1602179055505b826001600160a01b0316846001600160a01b03168b62ffffff167f5506337d1266599f8b64675a1c8321701657ca2f2f70be0e0c58302b6c22e7978c61376642613f8d565b604080519283526001600160401b0390911660208301528615159082015260600160405180910390a450505050505050505050565b60008054600160a01b900460ff16801561381e5750600054604051630debfda360e41b81526001600160a01b0384811660048301529091169063debfda3090602401602060405180830381865afa1580156137fa573d6000803e3d6000fd5b505050506040513d601f19601f8201168201806040525081019061381e9190615c4a565b92915050565b6000818152600360205260408120600501546001600160401b0316810361388d5760405162461bcd60e51b815260206004820152601860248201527f73656564206e6f7420696e697469616c697a65642079657400000000000000006044820152606401610ef9565b5060009081526003602052604090206004015490565b6000336001600160a01b037f000000000000000000000000000000000000000000000000000000000000000016146139115760405162461bcd60e51b815260206004820152601160248201527037b7363c90333630b932903230b2b6b7b760791b6044820152606401610ef9565b50600090565b600054600160a01b900460ff16156139685760405162461bcd60e51b8152602060048201526014602482015273696e697469616c6973656420213d2066616c736560601b6044820152606401610ef9565b6001600160a01b0382166139be5760405162461bcd60e51b815260206004820152601860248201527f676f7665726e616e63652073657474696e6773207a65726f00000000000000006044820152606401610ef9565b6001600160a01b038116613a075760405162461bcd60e51b815260206004820152601060248201526f5f676f7665726e616e6365207a65726f60801b6044820152606401610ef9565b600080546001600160a01b038481166001600160a81b031990921691909117600160a01b17909155600180549183166001600160a01b0319909216821790556040519081527f9789733827840833afc031fb2ef9ab6894271f77bad2085687cf4ae5c7bee4db9060200160405180910390a15050565b613a85613e71565b600054600160a81b900460ff1615613adf5760405162461bcd60e51b815260206004820152601a60248201527f616c726561647920696e2070726f64756374696f6e206d6f64650000000000006044820152606401610ef9565b600180546001600160a01b031916905560008054600160a81b60ff60a81b198216179091556040516001600160a01b0390911681527f83af113638b5422f9e977cebc0aaf0eaf2188eb9a8baae7f9d46c42b33a1560c9060200160405180910390a1565b600054600160b01b900460ff1615613b7357333014613b6457613b64615a02565b6000805460ff60b01b19169055565b613b7b613e71565b565b613b85613e71565b6000805460408051636221a54b60e01b81529051853593926001600160a01b031691636221a54b9160048083019260209291908290030181865afa158015613bd1573d6000803e3d6000fd5b505050506040513d601f19601f82011682018060405250810190613bf59190615b41565b90506000613c038242615816565b9050604051806040016040528082815260200186868080601f01602080910402602001604051908101604052809392919081815260200183838082843760009201829052509390945250506001600160e01b03198616815260026020908152604090912083518155908301519091506001820190613c819082615cb5565b509050507fed948300a3694aa01d4a6b258bfd664350193d770c0b51f8387277f6d83ea3b683828787604051613cba9493929190615d74565b60405180910390a15050505050565b60006112e560017f00000000000000000000000000000000000000000000000000000000000000006001600160401b03167f0000000000000000000000000000000000000000000000000000000000000000600960079054906101000a90046001600160401b0316613d3b9190615989565b6001600160401b0316613d4e9190615dd0565b613d589190615de4565b614c53565b8054600090600160801b90046001600160401b031615801590613e6a57506008548254613d9d916001600160401b0390811691600160801b9004166159e2565b6001600160401b031642111580613de557506008548254613dd8916001600160401b03600160401b909104811691600160c01b9004166159e2565b6001600160401b03164311155b80613e6a5750600954600a54604051630da7a50d60e21b815260048101869052630100000090920461ffff16916001600160a01b039091169063369e943490602401602060405180830381865afa158015613e44573d6000803e3d6000fd5b505050506040513d601f19601f82011682018060405250810190613e689190615b41565b105b9392505050565b613e7961124e565b6001600160a01b0316336001600160a01b031614613b7b5760405162461bcd60e51b815260206004820152600f60248201526e6f6e6c7920676f7665726e616e636560881b6044820152606401610ef9565b613ed3613cc9565b62ffffff168162ffffff1610613efb5760405162461bcd60e51b8152600401610ef990615b7c565b60036000613f0a836001615842565b62ffffff1681526020810191909152604001600090812060010154600160801b90046001600160401b031690036110515760405162461bcd60e51b815260206004820152602160248201527f6e6577207369676e696e6720706f6c696379206e6f74207369676e65642079656044820152601d60fa1b6064820152608401610ef9565b60006001600160401b03821115613fc357604080516306dfcc6560e41b8152600481019190915260248101839052604401610ef9565b5090565b3d604051818101604052816000823e8215613fe0578181f35b8181fd5b600c54604051630c85bf0760e01b815262ffffff831660048201526000916001600160a01b031690630c85bf0790602401602060405180830381865afa158015614032573d6000803e3d6000fd5b505050506040513d601f19601f8201168201806040525081019061381e9190615b41565b7f19457468657265756d205369676e6564204d6573736167653a0a3332000000006000908152601c91909152603c902090565b60008060008061409b88888888614c83565b9250925092506140ab8282614d52565b50909695505050505050565b60006112e57f00000000000000000000000000000000000000000000000000000000000000006001600160401b03167f00000000000000000000000000000000000000000000000000000000000000006001600160401b03164261411b9190615de4565b6141259190615dd0565b614e0b565b60008060038161413b6001876158ed565b62ffffff9081168252602080830193909352604091820160009081205491881681526003909352908220546001600160401b03600160401b928390048116945091900416908281036141d2576141cb6141c6836001600160401b03167f00000000000000000000000000000000000000000000000000000000000000006001600160401b0316614e3c565b613f8d565b90506141df565b6141dc8383615989565b90505b60006141f46001600160401b03831687615df7565b90506141ff81613f8d565b6142099084615989565b979650505050505050565b600f54604051637b83fb0960e11b815262ffffff831660048201526001600160a01b039091169063f707f61290602401600060405180830381600087803b15801561425e57600080fd5b505af192505050801561426f575060015b6110515760405162ffffff821681527f449d255b9c487823db86822a857f218d40682abada12acee2483788dc2fa975a906020015b60405180910390a150565b62ffffff81166000818152600360209081526040808320815160c0810183529283018490529082018390526060808301939093526080820183905260a0820192909252918252906142fe614e52565b63ffffffff166020820152600a5460405163c452e47f60e01b815262ffffff851660048201526000916001600160a01b03169063c452e47f906024016000604051808303816000875af1158015614359573d6000803e3d6000fd5b505050506040513d6000823e601f3d908101601f191682016040526143819190810190615e0b565b60a0850191909152608084019190915260095461ffff90911691506143b9906143b490839062ffffff16620f4240614f2a565b614f6a565b61ffff16604080840182905260048086015460608601526020850151600587018054600160601b90950261ffff60601b1963ffffffff909316600160401b02929092166dffffffffffff0000000000000000199095169490941717909255600c549051638353412560e01b81526001600160a01b039091169163835341259161444491869101615ed5565b6020604051808303816000875af1158015614463573d6000803e3d6000fd5b505050506040513d601f19601f820116820180604052508101906144879190615b41565b5050505050565b600954600090600160381b90046001600160401b031642108015906144bc575060006144b983613fe4565b14155b801561381e575062ffffff8216600090815260036020526040902060050154600160401b900463ffffffff166144f06140b7565b63ffffffff16101592915050565b60075460009061451b90600160e01b900463ffffffff1642615de4565b90505b60095462ffffff808416600160981b909204161080156145805750600954819060039060009061455b90600160981b900462ffffff166001615842565b62ffffff1681526020810191909152604001600020600301546001600160401b031611155b15610f8857600d54600954604051636b60edf760e11b8152600160981b90910462ffffff1660048201526001600160a01b039091169063d6c1dbee90602401600060405180830381600087803b1580156145d957600080fd5b505af19250505080156145ea575060015b61463457600954604051600160981b90910462ffffff1681527fc0cded1f60001401da804c8a7703c1e8dc60521fca0f0f9853e2f1984b5410ba9060200160405180910390a15050565b60098054600160981b900462ffffff1690601361465083615b5a565b91906101000a81548162ffffff021916908362ffffff1602179055505061451e565b600954600160981b900462ffffff166000908152600360205260409081902060050154600e54915163cbc31cf760e01b81526001600160401b0390911660048201819052916001600160a01b03169063cbc31cf790602401600060405180830381600087803b1580156146e457600080fd5b505af19250505080156146f5575060015b611051576040516001600160401b03821681527fe9a7be2e41a6b0b36d253d56488c6844e611be2bffd8dd4b69b89a078f41fecc906020016142a4565b60005b6010548110156116925760108181548110614752576147526157ea565b6000918252602090912001546040516391f2567960e01b815262ffffff851660048201526001600160401b0380851660248301527f00000000000000000000000000000000000000000000000000000000000000001660448201526001600160a01b03909116906391f2567990606401600060405180830381600087803b1580156147dc57600080fd5b505af11580156147f0573d6000803e3d6000fd5b5050505080806147ff90615829565b915050614735565b620f424081610100015162ffffff1611156148595760405162461bcd60e51b81526020600482015260126024820152710e8d0e4cae6d0ded8c840e8dede40d0d2ced60731b6044820152606401610ef9565b600081610120015161ffff16116148a05760405162461bcd60e51b815260206004820152600b60248201526a7a65726f20766f7465727360a81b6044820152606401610ef9565b80516007805460208401516040850151606086015161014087015161ffff9687166001600160801b031995861617938716600160401b908102949094176bffffffffffffffffffffffff60801b1916928716600160801b90810263ffffffff60c01b19169390931760ff909216600160c01b908102929092176001600160e01b0316600160e01b63ffffffff909216919091021790945560808601516008805460a089015160c08a015160e08b0151948a169290971691909117908816909402939093176fffffffffffffffffffffffffffffffff169386169091026001600160c01b031692909217918416909202179055610100820151600980546101209094015162ffffff90921664ffffffffff199094169390931763010000009190921602179055565b600080826040516020016149db91906157d7565b6040516020818303038152906040528051906020012090506000805b8651811015614a5357868181518110614a1257614a126157ea565b60200260200101518303614a4157858181518110614a3257614a326157ea565b60200260200101519150614a53565b80614a4b81615829565b9150506149f7565b506001600160a01b038116614a995760405162461bcd60e51b815260206004820152600c60248201526b61646472657373207a65726f60a01b6044820152606401610ef9565b95945050505050565b614ad282826040518060400160405280600d81526020016c566f746572526567697374727960981b8152506149c7565b600a60006101000a8154816001600160a01b0302191690836001600160a01b03160217905550614b2582826040518060400160405280600a81526020016929bab136b4b9b9b4b7b760b11b8152506149c7565b600b60006101000a8154816001600160a01b0302191690836001600160a01b03160217905550614b7382826040518060400160405280600581526020016452656c617960d81b8152506149c7565b600c60006101000a8154816001600160a01b0302191690836001600160a01b03160217905550614bc982826040518060400160405280600d81526020016c2932bbb0b93226b0b730b3b2b960991b8152506149c7565b600d60006101000a8154816001600160a01b0302191690836001600160a01b03160217905550614c2f82826040518060400160405280601981526020017f436c65616e7570426c6f636b4e756d6265724d616e61676572000000000000008152506149c7565b600e80546001600160a01b0319166001600160a01b03929092169190911790555050565b600062ffffff821115613fc3576040516306dfcc6560e41b81526018600482015260248101839052604401610ef9565b600080807f7fffffffffffffffffffffffffffffff5d576e7357a4501ddfe92f46681b20a0841115614cbe5750600091506003905082614d48565b604080516000808252602082018084528a905260ff891692820192909252606081018790526080810186905260019060a0016020604051602081039080840390855afa158015614d12573d6000803e3d6000fd5b5050604051601f1901519150506001600160a01b038116614d3e57506000925060019150829050614d48565b9250600091508190505b9450945094915050565b6000826003811115614d6657614d66615f7b565b03614d6f575050565b6001826003811115614d8357614d83615f7b565b03614da15760405163f645eedf60e01b815260040160405180910390fd5b6002826003811115614db557614db5615f7b565b03614dd65760405163fce698f760e01b815260048101829052602401610ef9565b6003826003811115614dea57614dea615f7b565b03610f88576040516335e2f38360e21b815260048101829052602401610ef9565b600063ffffffff821115613fc3576040516306dfcc6560e41b81526020600482015260248101839052604401610ef9565b6000818310614e4b5781613e6a565b5090919050565b6009546000908190614e95907f000000000000000000000000000000000000000000000000000000000000000090600160381b90046001600160401b0316615989565b6001600160401b03169050614ed87f00000000000000000000000000000000000000000000000000000000000000006001600160401b0316826141259190615dd0565b600754909250600090600160c01b900463ffffffff16614ef66140b7565b614f009190615f91565b614f0b906001615f91565b90508063ffffffff168363ffffffff161015614f25578092505b505090565b600080614f38858585614f99565b905060008380614f4a57614f4a615dba565b85870990508015614f5e5781600101614f60565b815b9695505050505050565b600061ffff821115613fc3576040516306dfcc6560e41b81526010600482015260248101839052604401610ef9565b6000808211614fdd5760405162461bcd60e51b815260206004820152601060248201526f4469766973696f6e206279207a65726f60801b6044820152606401610ef9565b83600003614fed57506000613e6a565b8383028385828161500057615000615dba565b040361501e5782818161501557615015615dba565b04915050613e6a565b50600061502b8386615dd0565b905060006150398487615df7565b905060006150478587615dd0565b905060006150558688615df7565b9050856150628285615fae565b61506c9190615dd0565b6150768385615fae565b6150808387615fae565b8861508b8689615fae565b6150959190615fae565b61509f9190615816565b6150a99190615816565b6150b39190615816565b98975050505050505050565b50805460008255906000526020600020908101906110519190615113565b5080546150e990615882565b6000825580601f106150f9575050565b601f01602090049060005260206000209081019061105191905b5b80821115613fc35760008155600101615114565b803562ffffff811681146132c957600080fd5b60006020828403121561514d57600080fd5b613e6a82615128565b60008083601f84011261516857600080fd5b5081356001600160401b0381111561517f57600080fd5b6020830191508360208260051b850101111561519a57600080fd5b9250929050565b600080602083850312156151b457600080fd5b82356001600160401b038111156151ca57600080fd5b6151d685828601615156565b90969095509350505050565b6000602082840312156151f457600080fd5b5035919050565b6001600160a01b038116811461105157600080fd5b6000806040838503121561522357600080fd5b61522c83615128565b9150602083013561523c816151fb565b809150509250929050565b60006020828403121561525957600080fd5b8135613e6a816151fb565b80356001600160401b03811681146132c957600080fd5b60008060006060848603121561529057600080fd5b61529984615128565b92506152a760208501615264565b9150604084013590509250925092565b6020808252825182820181905260009190848201906040850190845b818110156140ab5783516001600160a01b0316835292840192918401916001016152d3565b60006020828403121561530a57600080fd5b81356001600160e01b031981168114613e6a57600080fd5b801515811461105157600080fd5b60006020828403121561534257600080fd5b8135613e6a81615322565b6000606082840312156111e657600080fd5b600080600060a0848603121561537457600080fd5b61537d84615128565b925060208401359150615393856040860161534d565b90509250925092565b60005b838110156153b757818101518382015260200161539f565b50506000910152565b600081518084526153d881602086016020860161539c565b601f01601f19169290920160200192915050565b82815260406020820152600061540560408301846153c0565b949350505050565b61ffff8116811461105157600080fd5b80356132c98161540d565b6000806040838503121561543b57600080fd5b61544483615128565b9150602083013561523c8161540d565b634e487b7160e01b600052604160045260246000fd5b60405161016081016001600160401b038111828210171561548d5761548d615454565b60405290565b604051601f8201601f191681016001600160401b03811182821017156154bb576154bb615454565b604052919050565b803560ff811681146132c957600080fd5b803563ffffffff811681146132c957600080fd5b600061016082840312156154fb57600080fd5b61550361546a565b61550c8361541d565b815261551a6020840161541d565b602082015261552b6040840161541d565b604082015261553c606084016154c3565b606082015261554d6080840161541d565b608082015261555e60a0840161541d565b60a082015261556f60c0840161541d565b60c082015261558060e0840161541d565b60e0820152610100615593818501615128565b908201526101206155a584820161541d565b908201526101406155b78482016154d4565b908201529392505050565b60008060008060a085870312156155d857600080fd5b6155e185615128565b935060208501356001600160401b038111156155fc57600080fd5b61560887828801615156565b909450925061561c9050866040870161534d565b905092959194509250565b60008060008060c0858703121561563d57600080fd5b61564685615128565b935061565460208601615264565b92506040850135915061561c866060870161534d565b60006001600160401b0382111561568357615683615454565b5060051b60200190565b600082601f83011261569e57600080fd5b813560206156b36156ae8361566a565b615493565b82815260059290921b840181019181810190868411156156d257600080fd5b8286015b848110156156f65780356156e9816151fb565b83529183019183016156d6565b509695505050505050565b6000806040838503121561571457600080fd5b82356001600160401b038082111561572b57600080fd5b818501915085601f83011261573f57600080fd5b8135602061574f6156ae8361566a565b82815260059290921b8401810191818101908984111561576e57600080fd5b948201945b8386101561578c57853582529482019490820190615773565b965050860135925050808211156157a257600080fd5b506157af8582860161568d565b9150509250929050565b600080604083850312156157cc57600080fd5b823561522c816151fb565b602081526000613e6a60208301846153c0565b634e487b7160e01b600052603260045260246000fd5b634e487b7160e01b600052601160045260246000fd5b8082018082111561381e5761381e615800565b60006001820161583b5761583b615800565b5060010190565b62ffffff81811683821601908082111561585e5761585e615800565b5092915050565b60006020828403121561587757600080fd5b8151613e6a816151fb565b600181811c9082168061589657607f821691505b6020821081036111e657634e487b7160e01b600052602260045260246000fd5b600082516158c881846020870161539c565b9190910192915050565b6000602082840312156158e457600080fd5b613e6a826154c3565b62ffffff82811682821603908082111561585e5761585e615800565b80516132c98161540d565b6000806040838503121561592757600080fd5b8251615932816151fb565b602084015190925061523c8161540d565b6020808252601190820152701cda59db985d1d5c99481a5b9d985b1a59607a1b604082015260600190565b61ffff81811683821601908082111561585e5761585e615800565b6001600160401b0382811682821603908082111561585e5761585e615800565b6000806000606084860312156159be57600080fd5b8351925060208401516159d081615322565b80925050604084015190509250925092565b6001600160401b0381811683821601908082111561585e5761585e615800565b634e487b7160e01b600052600160045260246000fd5b600082601f830112615a2957600080fd5b81516020615a396156ae8361566a565b82815260059290921b84018101918181019086841115615a5857600080fd5b8286015b848110156156f6578051615a6f816151fb565b8352918301918301615a5c565b600060208284031215615a8e57600080fd5b81516001600160401b03811115615aa457600080fd5b61540584828501615a18565b600081518084526020808501945080840160005b83811015615ae95781516001600160a01b031687529582019590820190600101615ac4565b509495945050505050565b608081526000615b076080830187615ab0565b8281036020840152615b198187615ab0565b90508281036040840152615b2d8186615ab0565b905082810360608401526142098185615ab0565b600060208284031215615b5357600080fd5b5051919050565b600062ffffff808316818103615b7257615b72615800565b6001019392505050565b602080825260139082015272195c1bd8da081b9bdd08195b991959081e595d606a1b604082015260600190565b818352600060208085019450826000805b86811015615bf25782356bffffffffffffffffffffffff198116808214615bdf578384fd5b8952509683019691830191600101615bba565b50959695505050505050565b62ffffff84168152604060208201526000614a99604083018486615ba9565b604081526000615c31604083018587615ba9565b90506001600160401b0383166020830152949350505050565b600060208284031215615c5c57600080fd5b8151613e6a81615322565b601f82111561169257600081815260208120601f850160051c81016020861015615c8e5750805b601f850160051c820191505b81811015615cad57828155600101615c9a565b505050505050565b81516001600160401b03811115615cce57615cce615454565b615ce281615cdc8454615882565b84615c67565b602080601f831160018114615d175760008415615cff5750858301515b600019600386901b1c1916600185901b178555615cad565b600085815260208120601f198616915b82811015615d4657888601518255948401946001909101908401615d27565b5085821015615d645787850151600019600388901b60f8161c191681555b5050505050600190811b01905550565b63ffffffff60e01b8516815283602082015260606040820152816060820152818360808301376000818301608090810191909152601f909201601f191601019392505050565b634e487b7160e01b600052601260045260246000fd5b600082615ddf57615ddf615dba565b500490565b8181038181111561381e5761381e615800565b600082615e0657615e06615dba565b500690565b600080600060608486031215615e2057600080fd5b83516001600160401b0380821115615e3757600080fd5b615e4387838801615a18565b9450602091508186015181811115615e5a57600080fd5b86019050601f81018713615e6d57600080fd5b8051615e7b6156ae8261566a565b81815260059190911b82018301908381019089831115615e9a57600080fd5b928401925b82841015615ec1578351615eb28161540d565b82529284019290840190615e9f565b809650505050505061539360408501615909565b6000602080835262ffffff8451168184015263ffffffff81850151166040840152604084015161ffff8082166060860152606086015160808601526080860151915060c060a0860152615f2b60e0860183615ab0565b60a0870151868203601f190160c0880152805180835290850193506000918501905b80831015615f6f57845184168252938501936001929092019190850190615f4d565b50979650505050505050565b634e487b7160e01b600052602160045260246000fd5b63ffffffff81811683821601908082111561585e5761585e615800565b808202811582820484141761381e5761381e61580056fea2646970667358221220d73dc5a3c4582514f5e3ef8b8c3652b70aab7e2a78b07e8f715f12950abbe2e164736f6c63430008140033",
  "linkReferences": {},
  "deployedLinkReferences": {}
}