{
  "_format": "hh-sol-artifact-1",
  "contractName": "FlareSystemsCalculator",
  "sourceName": "contracts/protocol/implementation/FlareSystemsCalculator.sol",
  "abi": [
    {
      "inputs": [
        {
          "internalType": "contract IGovernanceSettings",
          "name": "_governanceSettings",
          "type": "address"
        },
        {
          "internalType": "address",
          "name": "_initialGovernance",
          "type": "address"
        },
        {
          "internalType": "address",
          "name": "_addressUpdater",
          "type": "address"
        },
        {
          "internalType": "uint24",
          "name": "_wNatCapPPM",
          "type": "uint24"
        },
        {
          "internalType": "uint64",
          "name": "_signingPolicySignNonPunishableDurationSeconds",
          "type": "uint64"
        },
        {
          "internalType": "uint64",
          "name": "_signingPolicySignNonPunishableDurationBlocks",
          "type": "uint64"
        },
        {
          "internalType": "uint64",
          "name": "_signingPolicySignNoRewardsDurationBlocks",
          "type": "uint64"
        }
      ],
      "stateMutability": "nonpayable",
      "type": "constructor"
    },
    {
      "anonymous": false,
      "inputs": [
        {
          "indexed": false,
          "internalType": "bytes4",
          "name": "selector",
          "type": "bytes4"
        },
        {
          "indexed": false,
          "internalType": "uint256",
          "name": "allowedAfterTimestamp",
          "type": "uint256"
        },
        {
          "indexed": false,
          "internalType": "bytes",
          "name": "encodedCall",
          "type": "bytes"
        }
      ],
      "name": "GovernanceCallTimelocked",
      "type": "event"
    },
    {
      "anonymous": false,
      "inputs": [
        {
          "indexed": false,
          "internalType": "address",
          "name": "initialGovernance",
          "type": "address"
        }
      ],
      "name": "GovernanceInitialised",
      "type": "event"
    },
    {
      "anonymous": false,
      "inputs": [
        {
          "indexed": false,
          "internalType": "address",
          "name": "governanceSettings",
          "type": "address"
        }
      ],
      "name": "GovernedProductionModeEntered",
      "type": "event"
    },
    {
      "anonymous": false,
      "inputs": [
        {
          "indexed": false,
          "internalType": "bytes4",
          "name": "selector",
          "type": "bytes4"
        },
        {
          "indexed": false,
          "internalType": "uint256",
          "name": "timestamp",
          "type": "uint256"
        }
      ],
      "name": "TimelockedGovernanceCallCanceled",
      "type": "event"
    },
    {
      "anonymous": false,
      "inputs": [
        {
          "indexed": false,
          "internalType": "bytes4",
          "name": "selector",
          "type": "bytes4"
        },
        {
          "indexed": false,
          "internalType": "uint256",
          "name": "timestamp",
          "type": "uint256"
        }
      ],
      "name": "TimelockedGovernanceCallExecuted",
      "type": "event"
    },
    {
      "anonymous": false,
      "inputs": [
        {
          "indexed": true,
          "internalType": "address",
          "name": "voter",
          "type": "address"
        },
        {
          "indexed": true,
          "internalType": "uint24",
          "name": "rewardEpochId",
          "type": "uint24"
        },
        {
          "indexed": false,
          "internalType": "address",
          "name": "delegationAddress",
          "type": "address"
        },
        {
          "indexed": false,
          "internalType": "uint16",
          "name": "delegationFeeBIPS",
          "type": "uint16"
        },
        {
          "indexed": false,
          "internalType": "uint256",
          "name": "wNatWeight",
          "type": "uint256"
        },
        {
          "indexed": false,
          "internalType": "uint256",
          "name": "wNatCappedWeight",
          "type": "uint256"
        },
        {
          "indexed": false,
          "internalType": "bytes20[]",
          "name": "nodeIds",
          "type": "bytes20[]"
        },
        {
          "indexed": false,
          "internalType": "uint256[]",
          "name": "nodeWeights",
          "type": "uint256[]"
        }
      ],
      "name": "VoterRegistrationInfo",
      "type": "event"
    },
    {
      "inputs": [
        {
          "internalType": "uint24",
          "name": "_rewardEpochId",
          "type": "uint24"
        },
        {
          "internalType": "address",
          "name": "_voter",
          "type": "address"
        }
      ],
      "name": "calculateBurnFactorPPM",
      "outputs": [
        {
          "internalType": "uint256",
          "name": "",
          "type": "uint256"
        }
      ],
      "stateMutability": "view",
      "type": "function"
    },
    {
      "inputs": [
        {
          "internalType": "address",
          "name": "_voter",
          "type": "address"
        },
        {
          "internalType": "uint24",
          "name": "_rewardEpochId",
          "type": "uint24"
        },
        {
          "internalType": "uint256",
          "name": "_votePowerBlockNumber",
          "type": "uint256"
        }
      ],
      "name": "calculateRegistrationWeight",
      "outputs": [
        {
          "internalType": "uint256",
          "name": "_registrationWeight",
          "type": "uint256"
        }
      ],
      "stateMutability": "nonpayable",
      "type": "function"
    },
    {
      "inputs": [
        {
          "internalType": "bytes4",
          "name": "_selector",
          "type": "bytes4"
        }
      ],
      "name": "cancelGovernanceCall",
      "outputs": [],
      "stateMutability": "nonpayable",
      "type": "function"
    },
    {
      "inputs": [],
      "name": "enablePChainStakeMirror",
      "outputs": [],
      "stateMutability": "nonpayable",
      "type": "function"
    },
    {
      "inputs": [],
      "name": "entityManager",
      "outputs": [
        {
          "internalType": "contract IIEntityManager",
          "name": "",
          "type": "address"
        }
      ],
      "stateMutability": "view",
      "type": "function"
    },
    {
      "inputs": [
        {
          "internalType": "bytes4",
          "name": "_selector",
          "type": "bytes4"
        }
      ],
      "name": "executeGovernanceCall",
      "outputs": [],
      "stateMutability": "nonpayable",
      "type": "function"
    },
    {
      "inputs": [],
      "name": "flareSystemsManager",
      "outputs": [
        {
          "internalType": "contract IIFlareSystemsManager",
          "name": "",
          "type": "address"
        }
      ],
      "stateMutability": "view",
      "type": "function"
    },
    {
      "inputs": [],
      "name": "getAddressUpdater",
      "outputs": [
        {
          "internalType": "address",
          "name": "_addressUpdater",
          "type": "address"
        }
      ],
      "stateMutability": "view",
      "type": "function"
    },
    {
      "inputs": [],
      "name": "governance",
      "outputs": [
        {
          "internalType": "address",
          "name": "",
          "type": "address"
        }
      ],
      "stateMutability": "view",
      "type": "function"
    },
    {
      "inputs": [],
      "name": "governanceSettings",
      "outputs": [
        {
          "internalType": "contract IGovernanceSettings",
          "name": "",
          "type": "address"
        }
      ],
      "stateMutability": "view",
      "type": "function"
    },
    {
      "inputs": [
        {
          "internalType": "contract IGovernanceSettings",
          "name": "_governanceSettings",
          "type": "address"
        },
        {
          "internalType": "address",
          "name": "_initialGovernance",
          "type": "address"
        }
      ],
      "name": "initialise",
      "outputs": [],
      "stateMutability": "nonpayable",
      "type": "function"
    },
    {
      "inputs": [
        {
          "internalType": "address",
          "name": "_address",
          "type": "address"
        }
      ],
      "name": "isExecutor",
      "outputs": [
        {
          "internalType": "bool",
          "name": "",
          "type": "bool"
        }
      ],
      "stateMutability": "view",
      "type": "function"
    },
    {
      "inputs": [],
      "name": "pChainStakeMirror",
      "outputs": [
        {
          "internalType": "contract IPChainStakeMirror",
          "name": "",
          "type": "address"
        }
      ],
      "stateMutability": "view",
      "type": "function"
    },
    {
      "inputs": [],
      "name": "pChainStakeMirrorEnabled",
      "outputs": [
        {
          "internalType": "bool",
          "name": "",
          "type": "bool"
        }
      ],
      "stateMutability": "view",
      "type": "function"
    },
    {
      "inputs": [],
      "name": "productionMode",
      "outputs": [
        {
          "internalType": "bool",
          "name": "",
          "type": "bool"
        }
      ],
      "stateMutability": "view",
      "type": "function"
    },
    {
      "inputs": [
        {
          "internalType": "uint24",
          "name": "_wNatCapPPM",
          "type": "uint24"
        }
      ],
      "name": "setWNatCapPPM",
      "outputs": [],
      "stateMutability": "nonpayable",
      "type": "function"
    },
    {
      "inputs": [],
      "name": "signingPolicySignNoRewardsDurationBlocks",
      "outputs": [
        {
          "internalType": "uint64",
          "name": "",
          "type": "uint64"
        }
      ],
      "stateMutability": "view",
      "type": "function"
    },
    {
      "inputs": [],
      "name": "signingPolicySignNonPunishableDurationBlocks",
      "outputs": [
        {
          "internalType": "uint64",
          "name": "",
          "type": "uint64"
        }
      ],
      "stateMutability": "view",
      "type": "function"
    },
    {
      "inputs": [],
      "name": "signingPolicySignNonPunishableDurationSeconds",
      "outputs": [
        {
          "internalType": "uint64",
          "name": "",
          "type": "uint64"
        }
      ],
      "stateMutability": "view",
      "type": "function"
    },
    {
      "inputs": [
        {
          "internalType": "uint256",
          "name": "_x",
          "type": "uint256"
        }
      ],
      "name": "sqrt",
      "outputs": [
        {
          "internalType": "uint128",
          "name": "",
          "type": "uint128"
        }
      ],
      "stateMutability": "pure",
      "type": "function"
    },
    {
      "inputs": [],
      "name": "switchToProductionMode",
      "outputs": [],
      "stateMutability": "nonpayable",
      "type": "function"
    },
    {
      "inputs": [
        {
          "internalType": "bytes4",
          "name": "selector",
          "type": "bytes4"
        }
      ],
      "name": "timelockedCalls",
      "outputs": [
        {
          "internalType": "uint256",
          "name": "allowedAfterTimestamp",
          "type": "uint256"
        },
        {
          "internalType": "bytes",
          "name": "encodedCall",
          "type": "bytes"
        }
      ],
      "stateMutability": "view",
      "type": "function"
    },
    {
      "inputs": [
        {
          "internalType": "bytes32[]",
          "name": "_contractNameHashes",
          "type": "bytes32[]"
        },
        {
          "internalType": "address[]",
          "name": "_contractAddresses",
          "type": "address[]"
        }
      ],
      "name": "updateContractAddresses",
      "outputs": [],
      "stateMutability": "nonpayable",
      "type": "function"
    },
    {
      "inputs": [],
      "name": "voterRegistry",
      "outputs": [
        {
          "internalType": "contract IVoterRegistry",
          "name": "",
          "type": "address"
        }
      ],
      "stateMutability": "view",
      "type": "function"
    },
    {
      "inputs": [],
      "name": "wNat",
      "outputs": [
        {
          "internalType": "contract IWNat",
          "name": "",
          "type": "address"
        }
      ],
      "stateMutability": "view",
      "type": "function"
    },
    {
      "inputs": [],
      "name": "wNatCapPPM",
      "outputs": [
        {
          "internalType": "uint24",
          "name": "",
          "type": "uint24"
        }
      ],
      "stateMutability": "view",
      "type": "function"
    },
    {
      "inputs": [],
      "name": "wNatDelegationFee",
      "outputs": [
        {
          "internalType": "contract IWNatDelegationFee",
          "name": "",
          "type": "address"
        }
      ],
      "stateMutability": "view",
      "type": "function"
    }
  ],
  "bytecode": "0x60806040523480156200001157600080fd5b5060405162002a2538038062002a258339810160408190526200003491620002f5565b8487876200004382826200014a565b506200006f9050817f714f205b2abd25bef1d06a1af944e38c113fe6160375c4e1d6d5cf28848e771955565b50620f42408462ffffff161115620000ce5760405162461bcd60e51b815260206004820152601460248201527f5f774e617443617050504d20746f6f206869676800000000000000000000000060448201526064015b60405180910390fd5b600880546001600160401b03948516600160b81b02600160b81b600160f81b031962ffffff909716600160a01b0296909616600160a01b600160f81b031990911617949094179093556009805493831668010000000000000000026001600160801b03199094169190921617919091179055506200039c915050565b600054600160a01b900460ff1615620001a65760405162461bcd60e51b815260206004820152601460248201527f696e697469616c6973656420213d2066616c73650000000000000000000000006044820152606401620000c5565b6001600160a01b038216620001fe5760405162461bcd60e51b815260206004820152601860248201527f676f7665726e616e63652073657474696e6773207a65726f00000000000000006044820152606401620000c5565b6001600160a01b038116620002495760405162461bcd60e51b815260206004820152601060248201526f5f676f7665726e616e6365207a65726f60801b6044820152606401620000c5565b600080546001600160a01b038481166001600160a81b031990921691909117600160a01b17909155600180549183166001600160a01b0319909216821790556040519081527f9789733827840833afc031fb2ef9ab6894271f77bad2085687cf4ae5c7bee4db9060200160405180910390a15050565b6001600160a01b0381168114620002d557600080fd5b50565b80516001600160401b0381168114620002f057600080fd5b919050565b600080600080600080600060e0888a0312156200031157600080fd5b87516200031e81620002bf565b60208901519097506200033181620002bf565b60408901519096506200034481620002bf565b606089015190955062ffffff811681146200035e57600080fd5b93506200036e60808901620002d8565b92506200037e60a08901620002d8565b91506200038e60c08901620002d8565b905092959891949750929550565b61267980620003ac6000396000f3fe608060405234801561001057600080fd5b50600436106101a95760003560e01c806387fd1ba1116100f9578063b65185d611610097578063e17f212e11610071578063e17f212e14610402578063ef88bf1314610416578063f5a9838314610429578063faae7fc91461043157600080fd5b8063b65185d6146103c9578063be60040e146103dc578063debfda30146103ef57600080fd5b80639dd1018c116100d35780639dd1018c146103815780639edbf0071461039b578063b006b4e3146103ae578063b00c0b76146103b657600080fd5b806387fd1ba11461031b5780639350f57c1461034657806396ca14721461036757600080fd5b806362354e031161016657806367fc40291161014057806367fc4029146102b057806374e6310e146102c35780637bf756c9146102e457806387c5ab511461030857600080fd5b806362354e031461025f57806362d9c89a14610272578063677342ce1461028557600080fd5b80633d7cf608146101ae57806350b1d61b146101c35780635267a15d146101f35780635aa6e6751461021a5780635edf7596146102225780635ff270791461024c575b600080fd5b6101c16101bc366004611d2b565b610444565b005b6004546101d6906001600160a01b031681565b6040516001600160a01b0390911681526020015b60405180910390f35b7f714f205b2abd25bef1d06a1af944e38c113fe6160375c4e1d6d5cf28848e7719546101d6565b6101d66104f4565b60085461023890600160a01b900462ffffff1681565b60405162ffffff90911681526020016101ea565b6101c161025a366004611d46565b610590565b6000546101d6906001600160a01b031681565b6007546101d6906001600160a01b031681565b610298610293366004611d70565b610816565b6040516001600160801b0390911681526020016101ea565b6101c16102be366004611d46565b610827565b6102d66102d1366004611d46565b610908565b6040516101ea929190611dd9565b6007546102f890600160a01b900460ff1681565b60405190151581526020016101ea565b6005546101d6906001600160a01b031681565b60095461032e906001600160401b031681565b6040516001600160401b0390911681526020016101ea565b610359610354366004611e0f565b6109ad565b6040519081526020016101ea565b60085461032e90600160b81b90046001600160401b031681565b60095461032e90600160401b90046001600160401b031681565b6008546101d6906001600160a01b031681565b6101c1610c75565b6101c16103c4366004611f23565b610cc6565b6103596103d7366004611fdb565b610da5565b6006546101d6906001600160a01b031681565b6102f86103fd366004612019565b6113a7565b6000546102f890600160a81b900460ff1681565b6101c1610424366004612036565b61142a565b6101c1611590565b6003546101d6906001600160a01b031681565b600054600160b01b900460ff16806104665750600054600160a81b900460ff16155b156104e657610473611656565b620f42408162ffffff1611156104c75760405162461bcd60e51b81526020600482015260146024820152730beee9cc2e886c2e0a0a09a40e8dede40d0d2ced60631b60448201526064015b60405180910390fd5b6008805462ffffff60a01b1916600160a01b62ffffff84160217905550565b6104f160003661168e565b50565b60008054600160a81b900460ff1661051657506001546001600160a01b031690565b60008054906101000a90046001600160a01b03166001600160a01b031663732524946040518163ffffffff1660e01b8152600401602060405180830381865afa158015610567573d6000803e3d6000fd5b505050506040513d601f19601f8201168201806040525081019061058b9190612054565b905090565b610599336113a7565b6105d55760405162461bcd60e51b815260206004820152600d60248201526c37b7363c9032bc32b1baba37b960991b60448201526064016104be565b6001600160e01b031981166000908152600260205260408120805490910361063f5760405162461bcd60e51b815260206004820152601a60248201527f74696d656c6f636b3a20696e76616c69642073656c6563746f7200000000000060448201526064016104be565b80544210156106905760405162461bcd60e51b815260206004820152601960248201527f74696d656c6f636b3a206e6f7420616c6c6f776564207965740000000000000060448201526064016104be565b60008160010180546106a190612071565b80601f01602080910402602001604051908101604052809291908181526020018280546106cd90612071565b801561071a5780601f106106ef5761010080835404028352916020019161071a565b820191906000526020600020905b8154815290600101906020018083116106fd57829003601f168201915b505050506001600160e01b031985166000908152600260205260408120818155929350905061074c6001830182611cca565b50506000805460ff60b01b1916600160b01b17815560405130906107719084906120ab565b6000604051808303816000865af19150503d80600081146107ae576040519150601f19603f3d011682016040523d82523d6000602084013e6107b3565b606091505b50506000805460ff60b01b19169055604080516001600160e01b0319871681524260208201529192507fa7326b57fc9cfe267aaea5e7f0b01757154d265620a0585819416ee9ddd2c438910160405180910390a1610810816117da565b50505050565b6000610821826117f7565b92915050565b61082f611978565b6001600160e01b0319811660009081526002602052604081205490036108975760405162461bcd60e51b815260206004820152601a60248201527f74696d656c6f636b3a20696e76616c69642073656c6563746f7200000000000060448201526064016104be565b604080516001600160e01b0319831681524260208201527f7735b2391c38a81419c513e30ca578db7158eadd7101511b23e221c654d19cf8910160405180910390a16001600160e01b031981166000908152600260205260408120818155906109036001830182611cca565b505050565b6002602052600090815260409020805460018201805491929161092a90612071565b80601f016020809104026020016040519081016040528092919081815260200182805461095690612071565b80156109a35780601f10610978576101008083540402835291602001916109a3565b820191906000526020600020905b81548152906001019060200180831161098657829003601f168201915b5050505050905082565b60035460009081908190819081906001600160a01b031663d2e9ad716109d48960016120dd565b6040516001600160e01b031960e084901b16815262ffffff9091166004820152602401608060405180830381865afa158015610a14573d6000803e3d6000fd5b505050506040513d601f19601f82011682018060405250810190610a389190612117565b9350935093509350816001600160401b0316600003610a995760405162461bcd60e51b815260206004820152601d60248201527f7369676e696e6720706f6c696379206e6f74207369676e65642079657400000060448201526064016104be565b600854600160b81b90046001600160401b0316610ab6858461216b565b6001600160401b031611610ad1576000945050505050610821565b600954600090610aea906001600160401b03168561218b565b9050806001600160401b0316826001600160401b031611610b1357600095505050505050610821565b6003546000906001600160a01b031663dac4319d610b328b60016120dd565b6040516001600160e01b031960e084901b16815262ffffff90911660048201526001600160a01b038b1660248201526044016040805180830381865afa158015610b80573d6000803e3d6000fd5b505050506040513d601f19601f82011682018060405250810190610ba491906121ab565b915050806001600160401b0316600003610bbb5750815b816001600160401b0316816001600160401b031611610be35760009650505050505050610821565b6000610bef838361216b565b6009546001600160401b039182169250600160401b9004168110610c1f57620f4240975050505050505050610821565b600954600090600160401b90046001600160401b0316610c42620f4240846121de565b610c4c91906121f5565b9050620f4240610c5c82806121de565b610c6691906121f5565b9b9a5050505050505050505050565b600054600160b01b900460ff1680610c975750600054600160a81b900460ff16155b15610cb957610ca4611656565b6007805460ff60a01b1916600160a01b179055565b610cc460003661168e565b565b7f714f205b2abd25bef1d06a1af944e38c113fe6160375c4e1d6d5cf28848e7719546001600160a01b0316336001600160a01b031614610d3f5760405162461bcd60e51b815260206004820152601460248201527337b7363c9030b2323932b9b9903ab83230ba32b960611b60448201526064016104be565b610d97610d7383836040518060400160405280600e81526020016d20b2323932b9b9aab83230ba32b960911b8152506119d2565b7f714f205b2abd25bef1d06a1af944e38c113fe6160375c4e1d6d5cf28848e771955565b610da18282611aa4565b5050565b6006546000906001600160a01b03163314610df85760405162461bcd60e51b81526020600482015260136024820152726f6e6c7920766f74657220726567697374727960681b60448201526064016104be565b60048054604051632da5f2f960e11b81526001600160a01b03878116938201939093526024810185905260009290911690635b4be5f290604401600060405180830381865afa158015610e4f573d6000803e3d6000fd5b505050506040513d6000823e601f3d908101601f19168201604052610e779190810190612217565b6007549091506060906001600160a01b0316156110215760075460405163a9e7019960e01b81526001600160a01b039091169063a9e7019990610ec09085908890600401612303565b600060405180830381865afa158015610edd573d6000803e3d6000fd5b505050506040513d6000823e601f3d908101601f19168201604052610f059190810190612325565b905060005b815181101561101b5760065483516001600160a01b0390911690633c5cb76f90859084908110610f3c57610f3c6123aa565b60200260200101516040518263ffffffff1660e01b8152600401610f7091906001600160601b031991909116815260200190565b602060405180830381865afa158015610f8d573d6000803e3d6000fd5b505050506040513d601f19601f82011682018060405250810190610fb191906123c0565b8662ffffff1610610fe857818181518110610fce57610fce6123aa565b602002602001015184610fe191906123d9565b9350611009565b6000828281518110610ffc57610ffc6123aa565b6020026020010181815250505b80611013816123ec565b915050610f0a565b50611067565b81516001600160401b0381111561103a5761103a611e46565b604051908082528060200260200182016040528015611063578160200160208202803683370190505b5090505b600480546040516315f6dfbd60e11b81526001600160a01b03898116938201939093526024810187905260009283928392911690632bedbf7a90604401602060405180830381865afa1580156110c1573d6000803e3d6000fd5b505050506040513d601f19601f820116820180604052508101906110e59190612054565b600654604051633c5cb76f60e01b81526001600160601b0319606084901b1660048201529192506001600160a01b031690633c5cb76f90602401602060405180830381865afa15801561113c573d6000803e3d6000fd5b505050506040513d601f19601f8201168201806040525081019061116091906123c0565b8862ffffff161061129b57600854604051631f2d513560e11b8152600481018990526000916001600160a01b031690633e5aa26a90602401602060405180830381865afa1580156111b5573d6000803e3d6000fd5b505050506040513d601f19601f820116820180604052508101906111d991906123c0565b600854909150600090620f4240906111fd90600160a01b900462ffffff16846121de565b61120791906121f5565b600854604051631257fcdb60e31b81526001600160a01b038681166004830152602482018d90529293509116906392bfe6d890604401602060405180830381865afa15801561125a573d6000803e3d6000fd5b505050506040513d601f19601f8201168201806040525081019061127e91906123c0565b945061128a8186611cb2565b935061129684896123d9565b975050505b60055460405163d700e0cf60e01b81526001600160a01b038b8116600483015262ffffff8b166024830152600092169063d700e0cf90604401602060405180830381865afa1580156112f1573d6000803e3d6000fd5b505050506040513d601f19601f820116820180604052508101906113159190612405565b9050611320876117f7565b6001600160801b03169650611334876117f7565b611347906001600160801b0316886121de565b96508862ffffff168a6001600160a01b03167f0ab8c10ef8cc6c5a591797917aba3b2688483b9ff7ab824f36b872a45b752e1f848488888c8c60405161139296959493929190612429565b60405180910390a35050505050509392505050565b60008054600160a01b900460ff1680156108215750600054604051630debfda360e41b81526001600160a01b0384811660048301529091169063debfda3090602401602060405180830381865afa158015611406573d6000803e3d6000fd5b505050506040513d601f19601f8201168201806040525081019061082191906124a5565b600054600160a01b900460ff161561147b5760405162461bcd60e51b8152602060048201526014602482015273696e697469616c6973656420213d2066616c736560601b60448201526064016104be565b6001600160a01b0382166114d15760405162461bcd60e51b815260206004820152601860248201527f676f7665726e616e63652073657474696e6773207a65726f000000000000000060448201526064016104be565b6001600160a01b03811661151a5760405162461bcd60e51b815260206004820152601060248201526f5f676f7665726e616e6365207a65726f60801b60448201526064016104be565b600080546001600160a01b038481166001600160a81b031990921691909117600160a01b17909155600180549183166001600160a01b0319909216821790556040519081527f9789733827840833afc031fb2ef9ab6894271f77bad2085687cf4ae5c7bee4db9060200160405180910390a15050565b611598611978565b600054600160a81b900460ff16156115f25760405162461bcd60e51b815260206004820152601a60248201527f616c726561647920696e2070726f64756374696f6e206d6f646500000000000060448201526064016104be565b600180546001600160a01b031916905560008054600160a81b60ff60a81b198216179091556040516001600160a01b0390911681527f83af113638b5422f9e977cebc0aaf0eaf2188eb9a8baae7f9d46c42b33a1560c9060200160405180910390a1565b600054600160b01b900460ff161561168657333014611677576116776124c7565b6000805460ff60b01b19169055565b610cc4611978565b611696611978565b6000805460408051636221a54b60e01b81529051853593926001600160a01b031691636221a54b9160048083019260209291908290030181865afa1580156116e2573d6000803e3d6000fd5b505050506040513d601f19601f8201168201806040525081019061170691906123c0565b9050600061171482426123d9565b9050604051806040016040528082815260200186868080601f01602080910402602001604051908101604052809392919081815260200183838082843760009201829052509390945250506001600160e01b03198616815260026020908152604090912083518155908301519091506001820190611792908261252b565b509050507fed948300a3694aa01d4a6b258bfd664350193d770c0b51f8387277f6d83ea3b6838287876040516117cb94939291906125ea565b60405180910390a15050505050565b3d604051818101604052816000823e82156117f3578181f35b8181fd5b60008160000361180957506000919050565b816001600160801b82106118225760809190911c9060401b5b600160401b82106118385760409190911c9060201b5b640100000000821061184f5760209190911c9060101b5b6201000082106118645760109190911c9060081b5b61010082106118785760089190911c9060041b5b6010821061188b5760049190911c9060021b5b600482106118975760011b5b60016118a382866121f5565b6118ad90836123d9565b901c905060016118bd82866121f5565b6118c790836123d9565b901c905060016118d782866121f5565b6118e190836123d9565b901c905060016118f182866121f5565b6118fb90836123d9565b901c9050600161190b82866121f5565b61191590836123d9565b901c9050600161192582866121f5565b61192f90836123d9565b901c9050600161193f82866121f5565b61194990836123d9565b901c9050600061195982866121f5565b9050808210611968578061196a565b815b95945050505050565b919050565b6119806104f4565b6001600160a01b0316336001600160a01b031614610cc45760405162461bcd60e51b815260206004820152600f60248201526e6f6e6c7920676f7665726e616e636560881b60448201526064016104be565b600080826040516020016119e69190612630565b6040516020818303038152906040528051906020012090506000805b8651811015611a5e57868181518110611a1d57611a1d6123aa565b60200260200101518303611a4c57858181518110611a3d57611a3d6123aa565b60200260200101519150611a5e565b80611a56816123ec565b915050611a02565b506001600160a01b03811661196a5760405162461bcd60e51b815260206004820152600c60248201526b61646472657373207a65726f60a01b60448201526064016104be565b611ada828260405180604001604052806013815260200172233630b932a9bcb9ba32b6b9a6b0b730b3b2b960691b8152506119d2565b600360006101000a8154816001600160a01b0302191690836001600160a01b03160217905550611b3082826040518060400160405280600d81526020016c22b73a34ba3ca6b0b730b3b2b960991b8152506119d2565b600460006101000a8154816001600160a01b0302191690836001600160a01b03160217905550611b8a828260405180604001604052806011815260200170574e617444656c65676174696f6e46656560781b8152506119d2565b600560006101000a8154816001600160a01b0302191690836001600160a01b03160217905550611be082826040518060400160405280600d81526020016c566f746572526567697374727960981b8152506119d2565b600680546001600160a01b0319166001600160a01b0392909216919091179055600754600160a01b900460ff1615611c6757611c468282604051806040016040528060118152602001702821b430b4b729ba30b5b2a6b4b93937b960791b8152506119d2565b600780546001600160a01b0319166001600160a01b03929092169190911790555b611c8e82826040518060400160405280600481526020016315d3985d60e21b8152506119d2565b600880546001600160a01b0319166001600160a01b03929092169190911790555050565b6000818310611cc15781611cc3565b825b9392505050565b508054611cd690612071565b6000825580601f10611ce6575050565b601f0160209004906000526020600020908101906104f191905b80821115611d145760008155600101611d00565b5090565b803562ffffff8116811461197357600080fd5b600060208284031215611d3d57600080fd5b611cc382611d18565b600060208284031215611d5857600080fd5b81356001600160e01b031981168114611cc357600080fd5b600060208284031215611d8257600080fd5b5035919050565b60005b83811015611da4578181015183820152602001611d8c565b50506000910152565b60008151808452611dc5816020860160208601611d89565b601f01601f19169290920160200192915050565b828152604060208201526000611df26040830184611dad565b949350505050565b6001600160a01b03811681146104f157600080fd5b60008060408385031215611e2257600080fd5b611e2b83611d18565b91506020830135611e3b81611dfa565b809150509250929050565b634e487b7160e01b600052604160045260246000fd5b604051601f8201601f191681016001600160401b0381118282101715611e8457611e84611e46565b604052919050565b60006001600160401b03821115611ea557611ea5611e46565b5060051b60200190565b600082601f830112611ec057600080fd5b81356020611ed5611ed083611e8c565b611e5c565b82815260059290921b84018101918181019086841115611ef457600080fd5b8286015b84811015611f18578035611f0b81611dfa565b8352918301918301611ef8565b509695505050505050565b60008060408385031215611f3657600080fd5b82356001600160401b0380821115611f4d57600080fd5b818501915085601f830112611f6157600080fd5b81356020611f71611ed083611e8c565b82815260059290921b84018101918181019089841115611f9057600080fd5b948201945b83861015611fae57853582529482019490820190611f95565b96505086013592505080821115611fc457600080fd5b50611fd185828601611eaf565b9150509250929050565b600080600060608486031215611ff057600080fd5b8335611ffb81611dfa565b925061200960208501611d18565b9150604084013590509250925092565b60006020828403121561202b57600080fd5b8135611cc381611dfa565b6000806040838503121561204957600080fd5b8235611e2b81611dfa565b60006020828403121561206657600080fd5b8151611cc381611dfa565b600181811c9082168061208557607f821691505b6020821081036120a557634e487b7160e01b600052602260045260246000fd5b50919050565b600082516120bd818460208701611d89565b9190910192915050565b634e487b7160e01b600052601160045260246000fd5b62ffffff8181168382160190808211156120f9576120f96120c7565b5092915050565b80516001600160401b038116811461197357600080fd5b6000806000806080858703121561212d57600080fd5b61213685612100565b935061214460208601612100565b925061215260408601612100565b915061216060608601612100565b905092959194509250565b6001600160401b038281168282160390808211156120f9576120f96120c7565b6001600160401b038181168382160190808211156120f9576120f96120c7565b600080604083850312156121be57600080fd5b6121c783612100565b91506121d560208401612100565b90509250929050565b8082028115828204841417610821576108216120c7565b60008261221257634e487b7160e01b600052601260045260246000fd5b500490565b6000602080838503121561222a57600080fd5b82516001600160401b0381111561224057600080fd5b8301601f8101851361225157600080fd5b805161225f611ed082611e8c565b81815260059190911b8201830190838101908783111561227e57600080fd5b928401925b828410156122b35783516001600160601b0319811681146122a45760008081fd5b82529284019290840190612283565b979650505050505050565b600081518084526020808501945080840160005b838110156122f85781516001600160601b031916875295820195908201906001016122d2565b509495945050505050565b60408152600061231660408301856122be565b90508260208301529392505050565b6000602080838503121561233857600080fd5b82516001600160401b0381111561234e57600080fd5b8301601f8101851361235f57600080fd5b805161236d611ed082611e8c565b81815260059190911b8201830190838101908783111561238c57600080fd5b928401925b828410156122b357835182529284019290840190612391565b634e487b7160e01b600052603260045260246000fd5b6000602082840312156123d257600080fd5b5051919050565b80820180821115610821576108216120c7565b6000600182016123fe576123fe6120c7565b5060010190565b60006020828403121561241757600080fd5b815161ffff81168114611cc357600080fd5b60018060a01b03871681526000602061ffff88168184015286604084015285606084015260c0608084015261246160c08401866122be565b83810360a085015284518082528286019183019060005b8181101561249457835183529284019291840191600101612478565b50909b9a5050505050505050505050565b6000602082840312156124b757600080fd5b81518015158114611cc357600080fd5b634e487b7160e01b600052600160045260246000fd5b601f82111561090357600081815260208120601f850160051c810160208610156125045750805b601f850160051c820191505b8181101561252357828155600101612510565b505050505050565b81516001600160401b0381111561254457612544611e46565b612558816125528454612071565b846124dd565b602080601f83116001811461258d57600084156125755750858301515b600019600386901b1c1916600185901b178555612523565b600085815260208120601f198616915b828110156125bc5788860151825594840194600190910190840161259d565b50858210156125da5787850151600019600388901b60f8161c191681555b5050505050600190811b01905550565b63ffffffff60e01b8516815283602082015260606040820152816060820152818360808301376000818301608090810191909152601f909201601f191601019392505050565b602081526000611cc36020830184611dad56fea2646970667358221220d6f82d182ad5486d01c5dcbdb41bc1e1992151d5c93adfaf68fcfc4682f9a46f64736f6c63430008140033",
  "linkReferences": {},
  "deployedLinkReferences": {}
}