{
  "_format": "hh-sol-artifact-1",
  "contractName": "FlareSystemsCalculator",
  "sourceName": "contracts/protocol/implementation/FlareSystemsCalculator.sol",
  "abi": [
    {
      "inputs": [
        {
          "internalType": "contract IGovernanceSettings",
          "name": "_governanceSettings",
          "type": "address"
        },
        {
          "internalType": "address",
          "name": "_initialGovernance",
          "type": "address"
        },
        {
          "internalType": "address",
          "name": "_addressUpdater",
          "type": "address"
        },
        {
          "internalType": "uint24",
          "name": "_wNatCapPPM",
          "type": "uint24"
        },
        {
          "internalType": "uint64",
          "name": "_signingPolicySignNonPunishableDurationSeconds",
          "type": "uint64"
        },
        {
          "internalType": "uint64",
          "name": "_signingPolicySignNonPunishableDurationBlocks",
          "type": "uint64"
        },
        {
          "internalType": "uint64",
          "name": "_signingPolicySignNoRewardsDurationBlocks",
          "type": "uint64"
        }
      ],
      "stateMutability": "nonpayable",
      "type": "constructor"
    },
    {
      "anonymous": false,
      "inputs": [
        {
          "indexed": false,
          "internalType": "bytes4",
          "name": "selector",
          "type": "bytes4"
        },
        {
          "indexed": false,
          "internalType": "uint256",
          "name": "allowedAfterTimestamp",
          "type": "uint256"
        },
        {
          "indexed": false,
          "internalType": "bytes",
          "name": "encodedCall",
          "type": "bytes"
        }
      ],
      "name": "GovernanceCallTimelocked",
      "type": "event"
    },
    {
      "anonymous": false,
      "inputs": [
        {
          "indexed": false,
          "internalType": "address",
          "name": "initialGovernance",
          "type": "address"
        }
      ],
      "name": "GovernanceInitialised",
      "type": "event"
    },
    {
      "anonymous": false,
      "inputs": [
        {
          "indexed": false,
          "internalType": "address",
          "name": "governanceSettings",
          "type": "address"
        }
      ],
      "name": "GovernedProductionModeEntered",
      "type": "event"
    },
    {
      "anonymous": false,
      "inputs": [
        {
          "indexed": false,
          "internalType": "bytes4",
          "name": "selector",
          "type": "bytes4"
        },
        {
          "indexed": false,
          "internalType": "uint256",
          "name": "timestamp",
          "type": "uint256"
        }
      ],
      "name": "TimelockedGovernanceCallCanceled",
      "type": "event"
    },
    {
      "anonymous": false,
      "inputs": [
        {
          "indexed": false,
          "internalType": "bytes4",
          "name": "selector",
          "type": "bytes4"
        },
        {
          "indexed": false,
          "internalType": "uint256",
          "name": "timestamp",
          "type": "uint256"
        }
      ],
      "name": "TimelockedGovernanceCallExecuted",
      "type": "event"
    },
    {
      "anonymous": false,
      "inputs": [
        {
          "indexed": true,
          "internalType": "address",
          "name": "voter",
          "type": "address"
        },
        {
          "indexed": true,
          "internalType": "uint32",
          "name": "rewardEpochId",
          "type": "uint32"
        },
        {
          "indexed": false,
          "internalType": "address",
          "name": "delegationAddress",
          "type": "address"
        },
        {
          "indexed": false,
          "internalType": "uint16",
          "name": "delegationFeeBIPS",
          "type": "uint16"
        },
        {
          "indexed": false,
          "internalType": "uint256",
          "name": "wNatWeight",
          "type": "uint256"
        },
        {
          "indexed": false,
          "internalType": "uint256",
          "name": "wNatCappedWeight",
          "type": "uint256"
        },
        {
          "indexed": false,
          "internalType": "bytes20[]",
          "name": "nodeIds",
          "type": "bytes20[]"
        },
        {
          "indexed": false,
          "internalType": "uint256[]",
          "name": "nodeWeights",
          "type": "uint256[]"
        }
      ],
      "name": "VoterRegistrationInfo",
      "type": "event"
    },
    {
      "inputs": [
        {
          "internalType": "uint24",
          "name": "_rewardEpochId",
          "type": "uint24"
        },
        {
          "internalType": "address",
          "name": "_voter",
          "type": "address"
        }
      ],
      "name": "calculateBurnFactorPPM",
      "outputs": [
        {
          "internalType": "uint256",
          "name": "",
          "type": "uint256"
        }
      ],
      "stateMutability": "view",
      "type": "function"
    },
    {
      "inputs": [
        {
          "internalType": "address",
          "name": "_voter",
          "type": "address"
        },
        {
          "internalType": "uint32",
          "name": "_rewardEpochId",
          "type": "uint32"
        },
        {
          "internalType": "uint256",
          "name": "_votePowerBlockNumber",
          "type": "uint256"
        }
      ],
      "name": "calculateRegistrationWeight",
      "outputs": [
        {
          "internalType": "uint256",
          "name": "_registrationWeight",
          "type": "uint256"
        }
      ],
      "stateMutability": "nonpayable",
      "type": "function"
    },
    {
      "inputs": [
        {
          "internalType": "bytes4",
          "name": "_selector",
          "type": "bytes4"
        }
      ],
      "name": "cancelGovernanceCall",
      "outputs": [],
      "stateMutability": "nonpayable",
      "type": "function"
    },
    {
      "inputs": [],
      "name": "enablePChainStakeMirror",
      "outputs": [],
      "stateMutability": "nonpayable",
      "type": "function"
    },
    {
      "inputs": [],
      "name": "entityManager",
      "outputs": [
        {
          "internalType": "contract IIEntityManager",
          "name": "",
          "type": "address"
        }
      ],
      "stateMutability": "view",
      "type": "function"
    },
    {
      "inputs": [
        {
          "internalType": "bytes4",
          "name": "_selector",
          "type": "bytes4"
        }
      ],
      "name": "executeGovernanceCall",
      "outputs": [],
      "stateMutability": "nonpayable",
      "type": "function"
    },
    {
      "inputs": [],
      "name": "flareSystemsManager",
      "outputs": [
        {
          "internalType": "contract IIFlareSystemsManager",
          "name": "",
          "type": "address"
        }
      ],
      "stateMutability": "view",
      "type": "function"
    },
    {
      "inputs": [],
      "name": "getAddressUpdater",
      "outputs": [
        {
          "internalType": "address",
          "name": "_addressUpdater",
          "type": "address"
        }
      ],
      "stateMutability": "view",
      "type": "function"
    },
    {
      "inputs": [],
      "name": "governance",
      "outputs": [
        {
          "internalType": "address",
          "name": "",
          "type": "address"
        }
      ],
      "stateMutability": "view",
      "type": "function"
    },
    {
      "inputs": [],
      "name": "governanceSettings",
      "outputs": [
        {
          "internalType": "contract IGovernanceSettings",
          "name": "",
          "type": "address"
        }
      ],
      "stateMutability": "view",
      "type": "function"
    },
    {
      "inputs": [
        {
          "internalType": "contract IGovernanceSettings",
          "name": "_governanceSettings",
          "type": "address"
        },
        {
          "internalType": "address",
          "name": "_initialGovernance",
          "type": "address"
        }
      ],
      "name": "initialise",
      "outputs": [],
      "stateMutability": "nonpayable",
      "type": "function"
    },
    {
      "inputs": [
        {
          "internalType": "address",
          "name": "_address",
          "type": "address"
        }
      ],
      "name": "isExecutor",
      "outputs": [
        {
          "internalType": "bool",
          "name": "",
          "type": "bool"
        }
      ],
      "stateMutability": "view",
      "type": "function"
    },
    {
      "inputs": [],
      "name": "pChainStakeMirror",
      "outputs": [
        {
          "internalType": "contract IPChainStakeMirror",
          "name": "",
          "type": "address"
        }
      ],
      "stateMutability": "view",
      "type": "function"
    },
    {
      "inputs": [],
      "name": "pChainStakeMirrorEnabled",
      "outputs": [
        {
          "internalType": "bool",
          "name": "",
          "type": "bool"
        }
      ],
      "stateMutability": "view",
      "type": "function"
    },
    {
      "inputs": [],
      "name": "productionMode",
      "outputs": [
        {
          "internalType": "bool",
          "name": "",
          "type": "bool"
        }
      ],
      "stateMutability": "view",
      "type": "function"
    },
    {
      "inputs": [
        {
          "internalType": "uint24",
          "name": "_wNatCapPPM",
          "type": "uint24"
        }
      ],
      "name": "setWNatCapPPM",
      "outputs": [],
      "stateMutability": "nonpayable",
      "type": "function"
    },
    {
      "inputs": [],
      "name": "signingPolicySignNoRewardsDurationBlocks",
      "outputs": [
        {
          "internalType": "uint64",
          "name": "",
          "type": "uint64"
        }
      ],
      "stateMutability": "view",
      "type": "function"
    },
    {
      "inputs": [],
      "name": "signingPolicySignNonPunishableDurationBlocks",
      "outputs": [
        {
          "internalType": "uint64",
          "name": "",
          "type": "uint64"
        }
      ],
      "stateMutability": "view",
      "type": "function"
    },
    {
      "inputs": [],
      "name": "signingPolicySignNonPunishableDurationSeconds",
      "outputs": [
        {
          "internalType": "uint64",
          "name": "",
          "type": "uint64"
        }
      ],
      "stateMutability": "view",
      "type": "function"
    },
    {
      "inputs": [
        {
          "internalType": "uint256",
          "name": "_x",
          "type": "uint256"
        }
      ],
      "name": "sqrt",
      "outputs": [
        {
          "internalType": "uint128",
          "name": "",
          "type": "uint128"
        }
      ],
      "stateMutability": "pure",
      "type": "function"
    },
    {
      "inputs": [],
      "name": "switchToProductionMode",
      "outputs": [],
      "stateMutability": "nonpayable",
      "type": "function"
    },
    {
      "inputs": [
        {
          "internalType": "bytes4",
          "name": "selector",
          "type": "bytes4"
        }
      ],
      "name": "timelockedCalls",
      "outputs": [
        {
          "internalType": "uint256",
          "name": "allowedAfterTimestamp",
          "type": "uint256"
        },
        {
          "internalType": "bytes",
          "name": "encodedCall",
          "type": "bytes"
        }
      ],
      "stateMutability": "view",
      "type": "function"
    },
    {
      "inputs": [
        {
          "internalType": "bytes32[]",
          "name": "_contractNameHashes",
          "type": "bytes32[]"
        },
        {
          "internalType": "address[]",
          "name": "_contractAddresses",
          "type": "address[]"
        }
      ],
      "name": "updateContractAddresses",
      "outputs": [],
      "stateMutability": "nonpayable",
      "type": "function"
    },
    {
      "inputs": [],
      "name": "voterRegistry",
      "outputs": [
        {
          "internalType": "contract IVoterRegistry",
          "name": "",
          "type": "address"
        }
      ],
      "stateMutability": "view",
      "type": "function"
    },
    {
      "inputs": [],
      "name": "wNat",
      "outputs": [
        {
          "internalType": "contract IWNat",
          "name": "",
          "type": "address"
        }
      ],
      "stateMutability": "view",
      "type": "function"
    },
    {
      "inputs": [],
      "name": "wNatCapPPM",
      "outputs": [
        {
          "internalType": "uint24",
          "name": "",
          "type": "uint24"
        }
      ],
      "stateMutability": "view",
      "type": "function"
    },
    {
      "inputs": [],
      "name": "wNatDelegationFee",
      "outputs": [
        {
          "internalType": "contract IWNatDelegationFee",
          "name": "",
          "type": "address"
        }
      ],
      "stateMutability": "view",
      "type": "function"
    }
  ],
  "bytecode": "0x60806040523480156200001157600080fd5b5060405162002a3538038062002a358339810160408190526200003491620002f5565b8487876200004382826200014a565b506200006f9050817f714f205b2abd25bef1d06a1af944e38c113fe6160375c4e1d6d5cf28848e771955565b50620f42408462ffffff161115620000ce5760405162461bcd60e51b815260206004820152601460248201527f5f774e617443617050504d20746f6f206869676800000000000000000000000060448201526064015b60405180910390fd5b600880546001600160401b03948516600160b81b02600160b81b600160f81b031962ffffff909716600160a01b0296909616600160a01b600160f81b031990911617949094179093556009805493831668010000000000000000026001600160801b03199094169190921617919091179055506200039c915050565b600054600160a01b900460ff1615620001a65760405162461bcd60e51b815260206004820152601460248201527f696e697469616c6973656420213d2066616c73650000000000000000000000006044820152606401620000c5565b6001600160a01b038216620001fe5760405162461bcd60e51b815260206004820152601860248201527f676f7665726e616e63652073657474696e6773207a65726f00000000000000006044820152606401620000c5565b6001600160a01b038116620002495760405162461bcd60e51b815260206004820152601060248201526f5f676f7665726e616e6365207a65726f60801b6044820152606401620000c5565b600080546001600160a01b038481166001600160a81b031990921691909117600160a01b17909155600180549183166001600160a01b0319909216821790556040519081527f9789733827840833afc031fb2ef9ab6894271f77bad2085687cf4ae5c7bee4db9060200160405180910390a15050565b6001600160a01b0381168114620002d557600080fd5b50565b80516001600160401b0381168114620002f057600080fd5b919050565b600080600080600080600060e0888a0312156200031157600080fd5b87516200031e81620002bf565b60208901519097506200033181620002bf565b60408901519096506200034481620002bf565b606089015190955062ffffff811681146200035e57600080fd5b93506200036e60808901620002d8565b92506200037e60a08901620002d8565b91506200038e60c08901620002d8565b905092959891949750929550565b61268980620003ac6000396000f3fe608060405234801561001057600080fd5b50600436106101a95760003560e01c806387c5ab51116100f9578063b00c0b7611610097578063e17f212e11610071578063e17f212e14610402578063ef88bf1314610416578063f5a9838314610429578063faae7fc91461043157600080fd5b8063b00c0b76146103c9578063be60040e146103dc578063debfda30146103ef57600080fd5b806396ca1472116100d357806396ca14721461037a5780639dd1018c146103945780639edbf007146103ae578063b006b4e3146103c157600080fd5b806387c5ab511461032957806387fd1ba11461033c5780639350f57c1461036757600080fd5b80635ff2707911610166578063677342ce11610140578063677342ce146102a657806367fc4029146102d157806374e6310e146102e45780637bf756c91461030557600080fd5b80635ff270791461026d57806362354e031461028057806362d9c89a1461029357600080fd5b80633d7cf608146101ae57806348bee227146101c357806350b1d61b146101e95780635267a15d146102145780635aa6e6751461023b5780635edf759614610243575b600080fd5b6101c16101bc366004611d2f565b610444565b005b6101d66101d1366004611d5f565b6104f4565b6040519081526020015b60405180910390f35b6004546101fc906001600160a01b031681565b6040516001600160a01b0390911681526020016101e0565b7f714f205b2abd25bef1d06a1af944e38c113fe6160375c4e1d6d5cf28848e7719546101fc565b6101fc610afa565b60085461025990600160a01b900462ffffff1681565b60405162ffffff90911681526020016101e0565b6101c161027b366004611da9565b610b96565b6000546101fc906001600160a01b031681565b6007546101fc906001600160a01b031681565b6102b96102b4366004611dd3565b610e1c565b6040516001600160801b0390911681526020016101e0565b6101c16102df366004611da9565b610e2d565b6102f76102f2366004611da9565b610f0e565b6040516101e0929190611e3c565b60075461031990600160a01b900460ff1681565b60405190151581526020016101e0565b6005546101fc906001600160a01b031681565b60095461034f906001600160401b031681565b6040516001600160401b0390911681526020016101e0565b6101d6610375366004611e5d565b610fb3565b60085461034f90600160b81b90046001600160401b031681565b60095461034f90600160401b90046001600160401b031681565b6008546101fc906001600160a01b031681565b6101c161127b565b6101c16103d7366004611f71565b6112cc565b6006546101fc906001600160a01b031681565b6103196103fd366004612029565b6113ab565b60005461031990600160a81b900460ff1681565b6101c1610424366004612046565b61142e565b6101c1611594565b6003546101fc906001600160a01b031681565b600054600160b01b900460ff16806104665750600054600160a81b900460ff16155b156104e65761047361165a565b620f42408162ffffff1611156104c75760405162461bcd60e51b81526020600482015260146024820152730beee9cc2e886c2e0a0a09a40e8dede40d0d2ced60631b60448201526064015b60405180910390fd5b6008805462ffffff60a01b1916600160a01b62ffffff84160217905550565b6104f1600036611692565b50565b6006546000906001600160a01b031633146105475760405162461bcd60e51b81526020600482015260136024820152726f6e6c7920766f74657220726567697374727960681b60448201526064016104be565b60048054604051632da5f2f960e11b81526001600160a01b03878116938201939093526024810185905260009290911690635b4be5f290604401600060405180830381865afa15801561059e573d6000803e3d6000fd5b505050506040513d6000823e601f3d908101601f191682016040526105c69190810190612064565b6007549091506060906001600160a01b0316156107715760075460405163a9e7019960e01b81526001600160a01b039091169063a9e701999061060f9085908890600401612150565b600060405180830381865afa15801561062c573d6000803e3d6000fd5b505050506040513d6000823e601f3d908101601f191682016040526106549190810190612172565b905060005b815181101561076b5760065483516001600160a01b0390911690633c5cb76f9085908490811061068b5761068b6121f7565b60200260200101516040518263ffffffff1660e01b81526004016106bf91906001600160601b031991909116815260200190565b602060405180830381865afa1580156106dc573d6000803e3d6000fd5b505050506040513d601f19601f82011682018060405250810190610700919061220d565b8663ffffffff16106107385781818151811061071e5761071e6121f7565b602002602001015184610731919061223c565b9350610759565b600082828151811061074c5761074c6121f7565b6020026020010181815250505b806107638161224f565b915050610659565b506107b7565b81516001600160401b0381111561078a5761078a611e94565b6040519080825280602002602001820160405280156107b3578160200160208202803683370190505b5090505b600480546040516315f6dfbd60e11b81526001600160a01b03898116938201939093526024810187905260009283928392911690632bedbf7a90604401602060405180830381865afa158015610811573d6000803e3d6000fd5b505050506040513d601f19601f820116820180604052508101906108359190612268565b600654604051633c5cb76f60e01b81526001600160601b0319606084901b1660048201529192506001600160a01b031690633c5cb76f90602401602060405180830381865afa15801561088c573d6000803e3d6000fd5b505050506040513d601f19601f820116820180604052508101906108b0919061220d565b8863ffffffff16106109ec57600854604051631f2d513560e11b8152600481018990526000916001600160a01b031690633e5aa26a90602401602060405180830381865afa158015610906573d6000803e3d6000fd5b505050506040513d601f19601f8201168201806040525081019061092a919061220d565b600854909150600090620f42409061094e90600160a01b900462ffffff1684612285565b610958919061229c565b600854604051631257fcdb60e31b81526001600160a01b038681166004830152602482018d90529293509116906392bfe6d890604401602060405180830381865afa1580156109ab573d6000803e3d6000fd5b505050506040513d601f19601f820116820180604052508101906109cf919061220d565b94506109db81866117de565b93506109e7848961223c565b975050505b60055460405163d700e0cf60e01b81526001600160a01b038b8116600483015263ffffffff8b166024830152600092169063d700e0cf90604401602060405180830381865afa158015610a43573d6000803e3d6000fd5b505050506040513d601f19601f82011682018060405250810190610a6791906122be565b9050610a72876117f6565b6001600160801b03169650610a86876117f6565b610a99906001600160801b031688612285565b96508863ffffffff168a6001600160a01b03167fc49a5cabcc0776ace8cfd024e155bc303ee5e492b29d59f1ff7dbafa0b34a04b848488888c8c604051610ae5969594939291906122e2565b60405180910390a35050505050509392505050565b60008054600160a81b900460ff16610b1c57506001546001600160a01b031690565b60008054906101000a90046001600160a01b03166001600160a01b031663732524946040518163ffffffff1660e01b8152600401602060405180830381865afa158015610b6d573d6000803e3d6000fd5b505050506040513d601f19601f82011682018060405250810190610b919190612268565b905090565b610b9f336113ab565b610bdb5760405162461bcd60e51b815260206004820152600d60248201526c37b7363c9032bc32b1baba37b960991b60448201526064016104be565b6001600160e01b0319811660009081526002602052604081208054909103610c455760405162461bcd60e51b815260206004820152601a60248201527f74696d656c6f636b3a20696e76616c69642073656c6563746f7200000000000060448201526064016104be565b8054421015610c965760405162461bcd60e51b815260206004820152601960248201527f74696d656c6f636b3a206e6f7420616c6c6f776564207965740000000000000060448201526064016104be565b6000816001018054610ca79061235e565b80601f0160208091040260200160405190810160405280929190818152602001828054610cd39061235e565b8015610d205780601f10610cf557610100808354040283529160200191610d20565b820191906000526020600020905b815481529060010190602001808311610d0357829003601f168201915b505050506001600160e01b0319851660009081526002602052604081208181559293509050610d526001830182611cce565b50506000805460ff60b01b1916600160b01b1781556040513090610d77908490612398565b6000604051808303816000865af19150503d8060008114610db4576040519150601f19603f3d011682016040523d82523d6000602084013e610db9565b606091505b50506000805460ff60b01b19169055604080516001600160e01b0319871681524260208201529192507fa7326b57fc9cfe267aaea5e7f0b01757154d265620a0585819416ee9ddd2c438910160405180910390a1610e1681611977565b50505050565b6000610e27826117f6565b92915050565b610e35611994565b6001600160e01b031981166000908152600260205260408120549003610e9d5760405162461bcd60e51b815260206004820152601a60248201527f74696d656c6f636b3a20696e76616c69642073656c6563746f7200000000000060448201526064016104be565b604080516001600160e01b0319831681524260208201527f7735b2391c38a81419c513e30ca578db7158eadd7101511b23e221c654d19cf8910160405180910390a16001600160e01b03198116600090815260026020526040812081815590610f096001830182611cce565b505050565b60026020526000908152604090208054600182018054919291610f309061235e565b80601f0160208091040260200160405190810160405280929190818152602001828054610f5c9061235e565b8015610fa95780601f10610f7e57610100808354040283529160200191610fa9565b820191906000526020600020905b815481529060010190602001808311610f8c57829003601f168201915b5050505050905082565b60035460009081908190819081906001600160a01b031663d2e9ad71610fda8960016123b4565b6040516001600160e01b031960e084901b16815262ffffff9091166004820152602401608060405180830381865afa15801561101a573d6000803e3d6000fd5b505050506040513d601f19601f8201168201806040525081019061103e91906123ee565b9350935093509350816001600160401b031660000361109f5760405162461bcd60e51b815260206004820152601d60248201527f7369676e696e6720706f6c696379206e6f74207369676e65642079657400000060448201526064016104be565b600854600160b81b90046001600160401b03166110bc8584612442565b6001600160401b0316116110d7576000945050505050610e27565b6009546000906110f0906001600160401b031685612462565b9050806001600160401b0316826001600160401b03161161111957600095505050505050610e27565b6003546000906001600160a01b031663dac4319d6111388b60016123b4565b6040516001600160e01b031960e084901b16815262ffffff90911660048201526001600160a01b038b1660248201526044016040805180830381865afa158015611186573d6000803e3d6000fd5b505050506040513d601f19601f820116820180604052508101906111aa9190612482565b915050806001600160401b03166000036111c15750815b816001600160401b0316816001600160401b0316116111e95760009650505050505050610e27565b60006111f58383612442565b6009546001600160401b039182169250600160401b900416811061122557620f4240975050505050505050610e27565b600954600090600160401b90046001600160401b0316611248620f424084612285565b611252919061229c565b9050620f42406112628280612285565b61126c919061229c565b9b9a5050505050505050505050565b600054600160b01b900460ff168061129d5750600054600160a81b900460ff16155b156112bf576112aa61165a565b6007805460ff60a01b1916600160a01b179055565b6112ca600036611692565b565b7f714f205b2abd25bef1d06a1af944e38c113fe6160375c4e1d6d5cf28848e7719546001600160a01b0316336001600160a01b0316146113455760405162461bcd60e51b815260206004820152601460248201527337b7363c9030b2323932b9b9903ab83230ba32b960611b60448201526064016104be565b61139d61137983836040518060400160405280600e81526020016d20b2323932b9b9aab83230ba32b960911b8152506119ee565b7f714f205b2abd25bef1d06a1af944e38c113fe6160375c4e1d6d5cf28848e771955565b6113a78282611ac0565b5050565b60008054600160a01b900460ff168015610e275750600054604051630debfda360e41b81526001600160a01b0384811660048301529091169063debfda3090602401602060405180830381865afa15801561140a573d6000803e3d6000fd5b505050506040513d601f19601f82011682018060405250810190610e2791906124b5565b600054600160a01b900460ff161561147f5760405162461bcd60e51b8152602060048201526014602482015273696e697469616c6973656420213d2066616c736560601b60448201526064016104be565b6001600160a01b0382166114d55760405162461bcd60e51b815260206004820152601860248201527f676f7665726e616e63652073657474696e6773207a65726f000000000000000060448201526064016104be565b6001600160a01b03811661151e5760405162461bcd60e51b815260206004820152601060248201526f5f676f7665726e616e6365207a65726f60801b60448201526064016104be565b600080546001600160a01b038481166001600160a81b031990921691909117600160a01b17909155600180549183166001600160a01b0319909216821790556040519081527f9789733827840833afc031fb2ef9ab6894271f77bad2085687cf4ae5c7bee4db9060200160405180910390a15050565b61159c611994565b600054600160a81b900460ff16156115f65760405162461bcd60e51b815260206004820152601a60248201527f616c726561647920696e2070726f64756374696f6e206d6f646500000000000060448201526064016104be565b600180546001600160a01b031916905560008054600160a81b60ff60a81b198216179091556040516001600160a01b0390911681527f83af113638b5422f9e977cebc0aaf0eaf2188eb9a8baae7f9d46c42b33a1560c9060200160405180910390a1565b600054600160b01b900460ff161561168a5733301461167b5761167b6124d7565b6000805460ff60b01b19169055565b6112ca611994565b61169a611994565b6000805460408051636221a54b60e01b81529051853593926001600160a01b031691636221a54b9160048083019260209291908290030181865afa1580156116e6573d6000803e3d6000fd5b505050506040513d601f19601f8201168201806040525081019061170a919061220d565b90506000611718824261223c565b9050604051806040016040528082815260200186868080601f01602080910402602001604051908101604052809392919081815260200183838082843760009201829052509390945250506001600160e01b03198616815260026020908152604090912083518155908301519091506001820190611796908261253b565b509050507fed948300a3694aa01d4a6b258bfd664350193d770c0b51f8387277f6d83ea3b6838287876040516117cf94939291906125fa565b60405180910390a15050505050565b60008183106117ed57816117ef565b825b9392505050565b60008160000361180857506000919050565b816001600160801b82106118215760809190911c9060401b5b600160401b82106118375760409190911c9060201b5b640100000000821061184e5760209190911c9060101b5b6201000082106118635760109190911c9060081b5b61010082106118775760089190911c9060041b5b6010821061188a5760049190911c9060021b5b600482106118965760011b5b60016118a2828661229c565b6118ac908361223c565b901c905060016118bc828661229c565b6118c6908361223c565b901c905060016118d6828661229c565b6118e0908361223c565b901c905060016118f0828661229c565b6118fa908361223c565b901c9050600161190a828661229c565b611914908361223c565b901c90506001611924828661229c565b61192e908361223c565b901c9050600161193e828661229c565b611948908361223c565b901c90506000611958828661229c565b90508082106119675780611969565b815b95945050505050565b919050565b3d604051818101604052816000823e8215611990578181f35b8181fd5b61199c610afa565b6001600160a01b0316336001600160a01b0316146112ca5760405162461bcd60e51b815260206004820152600f60248201526e6f6e6c7920676f7665726e616e636560881b60448201526064016104be565b60008082604051602001611a029190612640565b6040516020818303038152906040528051906020012090506000805b8651811015611a7a57868181518110611a3957611a396121f7565b60200260200101518303611a6857858181518110611a5957611a596121f7565b60200260200101519150611a7a565b80611a728161224f565b915050611a1e565b506001600160a01b0381166119695760405162461bcd60e51b815260206004820152600c60248201526b61646472657373207a65726f60a01b60448201526064016104be565b611af6828260405180604001604052806013815260200172233630b932a9bcb9ba32b6b9a6b0b730b3b2b960691b8152506119ee565b600360006101000a8154816001600160a01b0302191690836001600160a01b03160217905550611b4c82826040518060400160405280600d81526020016c22b73a34ba3ca6b0b730b3b2b960991b8152506119ee565b600460006101000a8154816001600160a01b0302191690836001600160a01b03160217905550611ba6828260405180604001604052806011815260200170574e617444656c65676174696f6e46656560781b8152506119ee565b600560006101000a8154816001600160a01b0302191690836001600160a01b03160217905550611bfc82826040518060400160405280600d81526020016c566f746572526567697374727960981b8152506119ee565b600680546001600160a01b0319166001600160a01b0392909216919091179055600754600160a01b900460ff1615611c8357611c628282604051806040016040528060118152602001702821b430b4b729ba30b5b2a6b4b93937b960791b8152506119ee565b600780546001600160a01b0319166001600160a01b03929092169190911790555b611caa82826040518060400160405280600481526020016315d3985d60e21b8152506119ee565b600880546001600160a01b0319166001600160a01b03929092169190911790555050565b508054611cda9061235e565b6000825580601f10611cea575050565b601f0160209004906000526020600020908101906104f191905b80821115611d185760008155600101611d04565b5090565b803562ffffff8116811461197257600080fd5b600060208284031215611d4157600080fd5b6117ef82611d1c565b6001600160a01b03811681146104f157600080fd5b600080600060608486031215611d7457600080fd5b8335611d7f81611d4a565b9250602084013563ffffffff81168114611d9857600080fd5b929592945050506040919091013590565b600060208284031215611dbb57600080fd5b81356001600160e01b0319811681146117ef57600080fd5b600060208284031215611de557600080fd5b5035919050565b60005b83811015611e07578181015183820152602001611def565b50506000910152565b60008151808452611e28816020860160208601611dec565b601f01601f19169290920160200192915050565b828152604060208201526000611e556040830184611e10565b949350505050565b60008060408385031215611e7057600080fd5b611e7983611d1c565b91506020830135611e8981611d4a565b809150509250929050565b634e487b7160e01b600052604160045260246000fd5b604051601f8201601f191681016001600160401b0381118282101715611ed257611ed2611e94565b604052919050565b60006001600160401b03821115611ef357611ef3611e94565b5060051b60200190565b600082601f830112611f0e57600080fd5b81356020611f23611f1e83611eda565b611eaa565b82815260059290921b84018101918181019086841115611f4257600080fd5b8286015b84811015611f66578035611f5981611d4a565b8352918301918301611f46565b509695505050505050565b60008060408385031215611f8457600080fd5b82356001600160401b0380821115611f9b57600080fd5b818501915085601f830112611faf57600080fd5b81356020611fbf611f1e83611eda565b82815260059290921b84018101918181019089841115611fde57600080fd5b948201945b83861015611ffc57853582529482019490820190611fe3565b9650508601359250508082111561201257600080fd5b5061201f85828601611efd565b9150509250929050565b60006020828403121561203b57600080fd5b81356117ef81611d4a565b6000806040838503121561205957600080fd5b8235611e7981611d4a565b6000602080838503121561207757600080fd5b82516001600160401b0381111561208d57600080fd5b8301601f8101851361209e57600080fd5b80516120ac611f1e82611eda565b81815260059190911b820183019083810190878311156120cb57600080fd5b928401925b828410156121005783516001600160601b0319811681146120f15760008081fd5b825292840192908401906120d0565b979650505050505050565b600081518084526020808501945080840160005b838110156121455781516001600160601b0319168752958201959082019060010161211f565b509495945050505050565b604081526000612163604083018561210b565b90508260208301529392505050565b6000602080838503121561218557600080fd5b82516001600160401b0381111561219b57600080fd5b8301601f810185136121ac57600080fd5b80516121ba611f1e82611eda565b81815260059190911b820183019083810190878311156121d957600080fd5b928401925b82841015612100578351825292840192908401906121de565b634e487b7160e01b600052603260045260246000fd5b60006020828403121561221f57600080fd5b5051919050565b634e487b7160e01b600052601160045260246000fd5b80820180821115610e2757610e27612226565b60006001820161226157612261612226565b5060010190565b60006020828403121561227a57600080fd5b81516117ef81611d4a565b8082028115828204841417610e2757610e27612226565b6000826122b957634e487b7160e01b600052601260045260246000fd5b500490565b6000602082840312156122d057600080fd5b815161ffff811681146117ef57600080fd5b60018060a01b03871681526000602061ffff88168184015286604084015285606084015260c0608084015261231a60c084018661210b565b83810360a085015284518082528286019183019060005b8181101561234d57835183529284019291840191600101612331565b50909b9a5050505050505050505050565b600181811c9082168061237257607f821691505b60208210810361239257634e487b7160e01b600052602260045260246000fd5b50919050565b600082516123aa818460208701611dec565b9190910192915050565b62ffffff8181168382160190808211156123d0576123d0612226565b5092915050565b80516001600160401b038116811461197257600080fd5b6000806000806080858703121561240457600080fd5b61240d856123d7565b935061241b602086016123d7565b9250612429604086016123d7565b9150612437606086016123d7565b905092959194509250565b6001600160401b038281168282160390808211156123d0576123d0612226565b6001600160401b038181168382160190808211156123d0576123d0612226565b6000806040838503121561249557600080fd5b61249e836123d7565b91506124ac602084016123d7565b90509250929050565b6000602082840312156124c757600080fd5b815180151581146117ef57600080fd5b634e487b7160e01b600052600160045260246000fd5b601f821115610f0957600081815260208120601f850160051c810160208610156125145750805b601f850160051c820191505b8181101561253357828155600101612520565b505050505050565b81516001600160401b0381111561255457612554611e94565b61256881612562845461235e565b846124ed565b602080601f83116001811461259d57600084156125855750858301515b600019600386901b1c1916600185901b178555612533565b600085815260208120601f198616915b828110156125cc578886015182559484019460019091019084016125ad565b50858210156125ea5787850151600019600388901b60f8161c191681555b5050505050600190811b01905550565b63ffffffff60e01b8516815283602082015260606040820152816060820152818360808301376000818301608090810191909152601f909201601f191601019392505050565b6020815260006117ef6020830184611e1056fea26469706673582212209b7bb68720a27954b82279608d0085239fc47bdc07ce38ad8fbb6527ee4001a164736f6c63430008140033",
  "linkReferences": {},
  "deployedLinkReferences": {}
}