{
  "_format": "hh-sol-artifact-1",
  "contractName": "FlareSystemManager",
  "sourceName": "contracts/protocol/implementation/FlareSystemManager.sol",
  "abi": [
    {
      "inputs": [
        {
          "internalType": "contract IGovernanceSettings",
          "name": "_governanceSettings",
          "type": "address"
        },
        {
          "internalType": "address",
          "name": "_initialGovernance",
          "type": "address"
        },
        {
          "internalType": "address",
          "name": "_addressUpdater",
          "type": "address"
        },
        {
          "internalType": "address",
          "name": "_flareDaemon",
          "type": "address"
        },
        {
          "components": [
            {
              "internalType": "uint32",
              "name": "firstVotingRoundStartTs",
              "type": "uint32"
            },
            {
              "internalType": "uint8",
              "name": "votingEpochDurationSeconds",
              "type": "uint8"
            },
            {
              "internalType": "uint32",
              "name": "firstRewardEpochStartVotingRoundId",
              "type": "uint32"
            },
            {
              "internalType": "uint16",
              "name": "rewardEpochDurationInVotingEpochs",
              "type": "uint16"
            },
            {
              "internalType": "uint16",
              "name": "randomAcquisitionMaxDurationSeconds",
              "type": "uint16"
            },
            {
              "internalType": "uint16",
              "name": "randomAcquisitionMaxDurationBlocks",
              "type": "uint16"
            },
            {
              "internalType": "uint16",
              "name": "newSigningPolicyInitializationStartSeconds",
              "type": "uint16"
            },
            {
              "internalType": "uint8",
              "name": "newSigningPolicyMinNumberOfVotingRoundsDelay",
              "type": "uint8"
            },
            {
              "internalType": "uint16",
              "name": "voterRegistrationMinDurationSeconds",
              "type": "uint16"
            },
            {
              "internalType": "uint16",
              "name": "voterRegistrationMinDurationBlocks",
              "type": "uint16"
            },
            {
              "internalType": "uint24",
              "name": "signingPolicyThresholdPPM",
              "type": "uint24"
            },
            {
              "internalType": "uint16",
              "name": "signingPolicyMinNumberOfVoters",
              "type": "uint16"
            }
          ],
          "internalType": "struct FlareSystemManager.Settings",
          "name": "_settings",
          "type": "tuple"
        },
        {
          "internalType": "uint16",
          "name": "_initialRandomVotePowerBlockSelectionSize",
          "type": "uint16"
        },
        {
          "internalType": "uint24",
          "name": "_initialRewardEpochId",
          "type": "uint24"
        },
        {
          "internalType": "uint16",
          "name": "_initialRewardEpochThreshold",
          "type": "uint16"
        }
      ],
      "stateMutability": "nonpayable",
      "type": "constructor"
    },
    {
      "inputs": [],
      "name": "ECDSAInvalidSignature",
      "type": "error"
    },
    {
      "inputs": [
        {
          "internalType": "uint256",
          "name": "length",
          "type": "uint256"
        }
      ],
      "name": "ECDSAInvalidSignatureLength",
      "type": "error"
    },
    {
      "inputs": [
        {
          "internalType": "bytes32",
          "name": "s",
          "type": "bytes32"
        }
      ],
      "name": "ECDSAInvalidSignatureS",
      "type": "error"
    },
    {
      "inputs": [
        {
          "internalType": "uint8",
          "name": "bits",
          "type": "uint8"
        },
        {
          "internalType": "uint256",
          "name": "value",
          "type": "uint256"
        }
      ],
      "name": "SafeCastOverflowedUintDowncast",
      "type": "error"
    },
    {
      "anonymous": false,
      "inputs": [
        {
          "indexed": false,
          "internalType": "bytes4",
          "name": "selector",
          "type": "bytes4"
        },
        {
          "indexed": false,
          "internalType": "uint256",
          "name": "allowedAfterTimestamp",
          "type": "uint256"
        },
        {
          "indexed": false,
          "internalType": "bytes",
          "name": "encodedCall",
          "type": "bytes"
        }
      ],
      "name": "GovernanceCallTimelocked",
      "type": "event"
    },
    {
      "anonymous": false,
      "inputs": [
        {
          "indexed": false,
          "internalType": "address",
          "name": "initialGovernance",
          "type": "address"
        }
      ],
      "name": "GovernanceInitialised",
      "type": "event"
    },
    {
      "anonymous": false,
      "inputs": [
        {
          "indexed": false,
          "internalType": "address",
          "name": "governanceSettings",
          "type": "address"
        }
      ],
      "name": "GovernedProductionModeEntered",
      "type": "event"
    },
    {
      "anonymous": false,
      "inputs": [
        {
          "indexed": false,
          "internalType": "uint24",
          "name": "rewardEpochId",
          "type": "uint24"
        },
        {
          "indexed": false,
          "internalType": "uint64",
          "name": "timestamp",
          "type": "uint64"
        }
      ],
      "name": "RandomAcquisitionStarted",
      "type": "event"
    },
    {
      "anonymous": false,
      "inputs": [
        {
          "indexed": false,
          "internalType": "uint24",
          "name": "rewardEpochId",
          "type": "uint24"
        },
        {
          "indexed": false,
          "internalType": "uint32",
          "name": "startVotingRoundId",
          "type": "uint32"
        },
        {
          "indexed": false,
          "internalType": "uint64",
          "name": "timestamp",
          "type": "uint64"
        }
      ],
      "name": "RewardEpochStarted",
      "type": "event"
    },
    {
      "anonymous": false,
      "inputs": [
        {
          "indexed": false,
          "internalType": "uint24",
          "name": "rewardEpochId",
          "type": "uint24"
        },
        {
          "indexed": false,
          "internalType": "address",
          "name": "signingPolicyAddress",
          "type": "address"
        },
        {
          "indexed": false,
          "internalType": "address",
          "name": "voter",
          "type": "address"
        },
        {
          "indexed": false,
          "internalType": "bytes32",
          "name": "rewardsHash",
          "type": "bytes32"
        },
        {
          "indexed": false,
          "internalType": "uint256",
          "name": "noOfWeightBasedClaims",
          "type": "uint256"
        },
        {
          "indexed": false,
          "internalType": "uint64",
          "name": "timestamp",
          "type": "uint64"
        },
        {
          "indexed": false,
          "internalType": "bool",
          "name": "thresholdReached",
          "type": "bool"
        }
      ],
      "name": "RewardsSigned",
      "type": "event"
    },
    {
      "anonymous": false,
      "inputs": [
        {
          "indexed": false,
          "internalType": "uint24",
          "name": "rewardEpochId",
          "type": "uint24"
        },
        {
          "indexed": false,
          "internalType": "address",
          "name": "signingPolicyAddress",
          "type": "address"
        },
        {
          "indexed": false,
          "internalType": "address",
          "name": "voter",
          "type": "address"
        },
        {
          "indexed": false,
          "internalType": "uint64",
          "name": "timestamp",
          "type": "uint64"
        },
        {
          "indexed": false,
          "internalType": "bool",
          "name": "thresholdReached",
          "type": "bool"
        }
      ],
      "name": "SigningPolicySigned",
      "type": "event"
    },
    {
      "anonymous": false,
      "inputs": [
        {
          "indexed": false,
          "internalType": "bytes4",
          "name": "selector",
          "type": "bytes4"
        },
        {
          "indexed": false,
          "internalType": "uint256",
          "name": "timestamp",
          "type": "uint256"
        }
      ],
      "name": "TimelockedGovernanceCallCanceled",
      "type": "event"
    },
    {
      "anonymous": false,
      "inputs": [
        {
          "indexed": false,
          "internalType": "bytes4",
          "name": "selector",
          "type": "bytes4"
        },
        {
          "indexed": false,
          "internalType": "uint256",
          "name": "timestamp",
          "type": "uint256"
        }
      ],
      "name": "TimelockedGovernanceCallExecuted",
      "type": "event"
    },
    {
      "anonymous": false,
      "inputs": [
        {
          "indexed": false,
          "internalType": "uint24",
          "name": "rewardEpochId",
          "type": "uint24"
        },
        {
          "indexed": false,
          "internalType": "address",
          "name": "signingPolicyAddress",
          "type": "address"
        },
        {
          "indexed": false,
          "internalType": "address",
          "name": "voter",
          "type": "address"
        },
        {
          "indexed": false,
          "internalType": "bytes32",
          "name": "uptimeVoteHash",
          "type": "bytes32"
        },
        {
          "indexed": false,
          "internalType": "uint64",
          "name": "timestamp",
          "type": "uint64"
        },
        {
          "indexed": false,
          "internalType": "bool",
          "name": "thresholdReached",
          "type": "bool"
        }
      ],
      "name": "UptimeVoteSigned",
      "type": "event"
    },
    {
      "anonymous": false,
      "inputs": [
        {
          "indexed": false,
          "internalType": "uint24",
          "name": "rewardEpochId",
          "type": "uint24"
        },
        {
          "indexed": false,
          "internalType": "uint64",
          "name": "votePowerBlock",
          "type": "uint64"
        },
        {
          "indexed": false,
          "internalType": "uint64",
          "name": "timestamp",
          "type": "uint64"
        }
      ],
      "name": "VotePowerBlockSelected",
      "type": "event"
    },
    {
      "inputs": [
        {
          "internalType": "bytes4",
          "name": "_selector",
          "type": "bytes4"
        }
      ],
      "name": "cancelGovernanceCall",
      "outputs": [],
      "stateMutability": "nonpayable",
      "type": "function"
    },
    {
      "inputs": [
        {
          "internalType": "uint24",
          "name": "_signingPolicyThresholdPPM",
          "type": "uint24"
        },
        {
          "internalType": "uint16",
          "name": "_signingPolicyMinNumberOfVoters",
          "type": "uint16"
        }
      ],
      "name": "changeSigningPolicySettings",
      "outputs": [],
      "stateMutability": "nonpayable",
      "type": "function"
    },
    {
      "inputs": [],
      "name": "currentRewardEpochExpectedEndTs",
      "outputs": [
        {
          "internalType": "uint64",
          "name": "",
          "type": "uint64"
        }
      ],
      "stateMutability": "view",
      "type": "function"
    },
    {
      "inputs": [],
      "name": "daemonize",
      "outputs": [
        {
          "internalType": "bool",
          "name": "",
          "type": "bool"
        }
      ],
      "stateMutability": "nonpayable",
      "type": "function"
    },
    {
      "inputs": [
        {
          "internalType": "bytes4",
          "name": "_selector",
          "type": "bytes4"
        }
      ],
      "name": "executeGovernanceCall",
      "outputs": [],
      "stateMutability": "nonpayable",
      "type": "function"
    },
    {
      "inputs": [],
      "name": "firstRewardEpochStartTs",
      "outputs": [
        {
          "internalType": "uint64",
          "name": "",
          "type": "uint64"
        }
      ],
      "stateMutability": "view",
      "type": "function"
    },
    {
      "inputs": [],
      "name": "firstVotingRoundStartTs",
      "outputs": [
        {
          "internalType": "uint64",
          "name": "",
          "type": "uint64"
        }
      ],
      "stateMutability": "view",
      "type": "function"
    },
    {
      "inputs": [],
      "name": "flareDaemon",
      "outputs": [
        {
          "internalType": "address",
          "name": "",
          "type": "address"
        }
      ],
      "stateMutability": "view",
      "type": "function"
    },
    {
      "inputs": [],
      "name": "getAddressUpdater",
      "outputs": [
        {
          "internalType": "address",
          "name": "_addressUpdater",
          "type": "address"
        }
      ],
      "stateMutability": "view",
      "type": "function"
    },
    {
      "inputs": [],
      "name": "getContractName",
      "outputs": [
        {
          "internalType": "string",
          "name": "",
          "type": "string"
        }
      ],
      "stateMutability": "pure",
      "type": "function"
    },
    {
      "inputs": [],
      "name": "getCurrentRandom",
      "outputs": [
        {
          "internalType": "uint256",
          "name": "_currentRandom",
          "type": "uint256"
        }
      ],
      "stateMutability": "view",
      "type": "function"
    },
    {
      "inputs": [],
      "name": "getCurrentRandomWithQuality",
      "outputs": [
        {
          "internalType": "uint256",
          "name": "_currentRandom",
          "type": "uint256"
        },
        {
          "internalType": "bool",
          "name": "_secureRandom",
          "type": "bool"
        }
      ],
      "stateMutability": "view",
      "type": "function"
    },
    {
      "inputs": [],
      "name": "getCurrentRewardEpochId",
      "outputs": [
        {
          "internalType": "uint24",
          "name": "_currentRewardEpochId",
          "type": "uint24"
        }
      ],
      "stateMutability": "view",
      "type": "function"
    },
    {
      "inputs": [
        {
          "internalType": "uint24",
          "name": "_rewardEpochId",
          "type": "uint24"
        }
      ],
      "name": "getRandomAcquisitionInfo",
      "outputs": [
        {
          "internalType": "uint64",
          "name": "_randomAcquisitionStartTs",
          "type": "uint64"
        },
        {
          "internalType": "uint64",
          "name": "_randomAcquisitionStartBlock",
          "type": "uint64"
        },
        {
          "internalType": "uint64",
          "name": "_randomAcquisitionEndTs",
          "type": "uint64"
        },
        {
          "internalType": "uint64",
          "name": "_randomAcquisitionEndBlock",
          "type": "uint64"
        }
      ],
      "stateMutability": "view",
      "type": "function"
    },
    {
      "inputs": [
        {
          "internalType": "uint24",
          "name": "_rewardEpochId",
          "type": "uint24"
        }
      ],
      "name": "getRewarEpochStartInfo",
      "outputs": [
        {
          "internalType": "uint64",
          "name": "_rewardEpochStartTs",
          "type": "uint64"
        },
        {
          "internalType": "uint64",
          "name": "_rewardEpochStartBlock",
          "type": "uint64"
        }
      ],
      "stateMutability": "view",
      "type": "function"
    },
    {
      "inputs": [],
      "name": "getRewardEpochSwitchoverTriggerContracts",
      "outputs": [
        {
          "internalType": "contract IRewardEpochSwitchoverTrigger[]",
          "name": "",
          "type": "address[]"
        }
      ],
      "stateMutability": "view",
      "type": "function"
    },
    {
      "inputs": [
        {
          "internalType": "uint24",
          "name": "_rewardEpochId",
          "type": "uint24"
        }
      ],
      "name": "getRewardsSignInfo",
      "outputs": [
        {
          "internalType": "uint64",
          "name": "_rewardsSignStartTs",
          "type": "uint64"
        },
        {
          "internalType": "uint64",
          "name": "_rewardsSignStartBlock",
          "type": "uint64"
        },
        {
          "internalType": "uint64",
          "name": "_rewardsSignEndTs",
          "type": "uint64"
        },
        {
          "internalType": "uint64",
          "name": "_rewardsSignEndBlock",
          "type": "uint64"
        }
      ],
      "stateMutability": "view",
      "type": "function"
    },
    {
      "inputs": [
        {
          "internalType": "uint256",
          "name": "_rewardEpochId",
          "type": "uint256"
        }
      ],
      "name": "getSeed",
      "outputs": [
        {
          "internalType": "uint256",
          "name": "",
          "type": "uint256"
        }
      ],
      "stateMutability": "view",
      "type": "function"
    },
    {
      "inputs": [
        {
          "internalType": "uint24",
          "name": "_rewardEpochId",
          "type": "uint24"
        }
      ],
      "name": "getSigningPolicySignInfo",
      "outputs": [
        {
          "internalType": "uint64",
          "name": "_signingPolicySignStartTs",
          "type": "uint64"
        },
        {
          "internalType": "uint64",
          "name": "_signingPolicySignStartBlock",
          "type": "uint64"
        },
        {
          "internalType": "uint64",
          "name": "_signingPolicySignEndTs",
          "type": "uint64"
        },
        {
          "internalType": "uint64",
          "name": "_signingPolicySignEndBlock",
          "type": "uint64"
        }
      ],
      "stateMutability": "view",
      "type": "function"
    },
    {
      "inputs": [
        {
          "internalType": "uint256",
          "name": "_rewardEpochId",
          "type": "uint256"
        }
      ],
      "name": "getStartVotingRoundId",
      "outputs": [
        {
          "internalType": "uint32",
          "name": "",
          "type": "uint32"
        }
      ],
      "stateMutability": "view",
      "type": "function"
    },
    {
      "inputs": [
        {
          "internalType": "uint256",
          "name": "_rewardEpochId",
          "type": "uint256"
        }
      ],
      "name": "getThreshold",
      "outputs": [
        {
          "internalType": "uint16",
          "name": "",
          "type": "uint16"
        }
      ],
      "stateMutability": "view",
      "type": "function"
    },
    {
      "inputs": [
        {
          "internalType": "uint256",
          "name": "_rewardEpochId",
          "type": "uint256"
        }
      ],
      "name": "getVotePowerBlock",
      "outputs": [
        {
          "internalType": "uint64",
          "name": "_votePowerBlock",
          "type": "uint64"
        }
      ],
      "stateMutability": "view",
      "type": "function"
    },
    {
      "inputs": [
        {
          "internalType": "uint256",
          "name": "_rewardEpochId",
          "type": "uint256"
        }
      ],
      "name": "getVoterRegistrationData",
      "outputs": [
        {
          "internalType": "uint256",
          "name": "_votePowerBlock",
          "type": "uint256"
        },
        {
          "internalType": "bool",
          "name": "_enabled",
          "type": "bool"
        }
      ],
      "stateMutability": "view",
      "type": "function"
    },
    {
      "inputs": [
        {
          "internalType": "uint24",
          "name": "_rewardEpochId",
          "type": "uint24"
        },
        {
          "internalType": "address",
          "name": "_voter",
          "type": "address"
        }
      ],
      "name": "getVoterRewardsSignInfo",
      "outputs": [
        {
          "internalType": "uint64",
          "name": "_rewardsSignTs",
          "type": "uint64"
        },
        {
          "internalType": "uint64",
          "name": "_rewardsSignBlock",
          "type": "uint64"
        }
      ],
      "stateMutability": "view",
      "type": "function"
    },
    {
      "inputs": [
        {
          "internalType": "uint24",
          "name": "_rewardEpochId",
          "type": "uint24"
        },
        {
          "internalType": "address",
          "name": "_voter",
          "type": "address"
        }
      ],
      "name": "getVoterSigningPolicySignInfo",
      "outputs": [
        {
          "internalType": "uint64",
          "name": "_signingPolicySignTs",
          "type": "uint64"
        },
        {
          "internalType": "uint64",
          "name": "_signingPolicySignBlock",
          "type": "uint64"
        }
      ],
      "stateMutability": "view",
      "type": "function"
    },
    {
      "inputs": [
        {
          "internalType": "uint24",
          "name": "_rewardEpochId",
          "type": "uint24"
        },
        {
          "internalType": "address",
          "name": "_voter",
          "type": "address"
        }
      ],
      "name": "getVoterUptimeVoteSignInfo",
      "outputs": [
        {
          "internalType": "uint64",
          "name": "_rewardsSignTs",
          "type": "uint64"
        },
        {
          "internalType": "uint64",
          "name": "_rewardsSignBlock",
          "type": "uint64"
        }
      ],
      "stateMutability": "view",
      "type": "function"
    },
    {
      "inputs": [],
      "name": "governance",
      "outputs": [
        {
          "internalType": "address",
          "name": "",
          "type": "address"
        }
      ],
      "stateMutability": "view",
      "type": "function"
    },
    {
      "inputs": [],
      "name": "governanceSettings",
      "outputs": [
        {
          "internalType": "contract IGovernanceSettings",
          "name": "",
          "type": "address"
        }
      ],
      "stateMutability": "view",
      "type": "function"
    },
    {
      "inputs": [
        {
          "internalType": "contract IGovernanceSettings",
          "name": "_governanceSettings",
          "type": "address"
        },
        {
          "internalType": "address",
          "name": "_initialGovernance",
          "type": "address"
        }
      ],
      "name": "initialise",
      "outputs": [],
      "stateMutability": "nonpayable",
      "type": "function"
    },
    {
      "inputs": [
        {
          "internalType": "address",
          "name": "_address",
          "type": "address"
        }
      ],
      "name": "isExecutor",
      "outputs": [
        {
          "internalType": "bool",
          "name": "",
          "type": "bool"
        }
      ],
      "stateMutability": "view",
      "type": "function"
    },
    {
      "inputs": [],
      "name": "isVoterRegistrationEnabled",
      "outputs": [
        {
          "internalType": "bool",
          "name": "",
          "type": "bool"
        }
      ],
      "stateMutability": "view",
      "type": "function"
    },
    {
      "inputs": [],
      "name": "lastInitialisedVotingRoundId",
      "outputs": [
        {
          "internalType": "uint32",
          "name": "",
          "type": "uint32"
        }
      ],
      "stateMutability": "view",
      "type": "function"
    },
    {
      "inputs": [],
      "name": "newSigningPolicyInitializationStartSeconds",
      "outputs": [
        {
          "internalType": "uint64",
          "name": "",
          "type": "uint64"
        }
      ],
      "stateMutability": "view",
      "type": "function"
    },
    {
      "inputs": [],
      "name": "newSigningPolicyMinNumberOfVotingRoundsDelay",
      "outputs": [
        {
          "internalType": "uint32",
          "name": "",
          "type": "uint32"
        }
      ],
      "stateMutability": "view",
      "type": "function"
    },
    {
      "inputs": [
        {
          "internalType": "uint256",
          "name": "",
          "type": "uint256"
        }
      ],
      "name": "noOfWeightBasedClaims",
      "outputs": [
        {
          "internalType": "uint256",
          "name": "",
          "type": "uint256"
        }
      ],
      "stateMutability": "view",
      "type": "function"
    },
    {
      "inputs": [],
      "name": "productionMode",
      "outputs": [
        {
          "internalType": "bool",
          "name": "",
          "type": "bool"
        }
      ],
      "stateMutability": "view",
      "type": "function"
    },
    {
      "inputs": [],
      "name": "randomAcquisitionMaxDurationBlocks",
      "outputs": [
        {
          "internalType": "uint64",
          "name": "",
          "type": "uint64"
        }
      ],
      "stateMutability": "view",
      "type": "function"
    },
    {
      "inputs": [],
      "name": "randomAcquisitionMaxDurationSeconds",
      "outputs": [
        {
          "internalType": "uint64",
          "name": "",
          "type": "uint64"
        }
      ],
      "stateMutability": "view",
      "type": "function"
    },
    {
      "inputs": [],
      "name": "relay",
      "outputs": [
        {
          "internalType": "contract Relay",
          "name": "",
          "type": "address"
        }
      ],
      "stateMutability": "view",
      "type": "function"
    },
    {
      "inputs": [],
      "name": "rewardEpochDurationSeconds",
      "outputs": [
        {
          "internalType": "uint64",
          "name": "",
          "type": "uint64"
        }
      ],
      "stateMutability": "view",
      "type": "function"
    },
    {
      "inputs": [],
      "name": "rewardEpochIdToExpireNext",
      "outputs": [
        {
          "internalType": "uint24",
          "name": "",
          "type": "uint24"
        }
      ],
      "stateMutability": "view",
      "type": "function"
    },
    {
      "inputs": [
        {
          "internalType": "uint256",
          "name": "",
          "type": "uint256"
        }
      ],
      "name": "rewardsHash",
      "outputs": [
        {
          "internalType": "bytes32",
          "name": "",
          "type": "bytes32"
        }
      ],
      "stateMutability": "view",
      "type": "function"
    },
    {
      "inputs": [
        {
          "internalType": "contract IRewardEpochSwitchoverTrigger[]",
          "name": "_contracts",
          "type": "address[]"
        }
      ],
      "name": "setRewardEpochSwitchoverTriggerContracts",
      "outputs": [],
      "stateMutability": "nonpayable",
      "type": "function"
    },
    {
      "inputs": [
        {
          "internalType": "uint24",
          "name": "_rewardEpochId",
          "type": "uint24"
        },
        {
          "internalType": "uint64",
          "name": "_noOfWeightBasedClaims",
          "type": "uint64"
        },
        {
          "internalType": "bytes32",
          "name": "_rewardsHash",
          "type": "bytes32"
        }
      ],
      "name": "setRewardsHash",
      "outputs": [],
      "stateMutability": "nonpayable",
      "type": "function"
    },
    {
      "inputs": [
        {
          "internalType": "contract IVoterRegistrationTrigger",
          "name": "_contract",
          "type": "address"
        }
      ],
      "name": "setVoterRegistrationTriggerContract",
      "outputs": [],
      "stateMutability": "nonpayable",
      "type": "function"
    },
    {
      "inputs": [
        {
          "internalType": "uint24",
          "name": "_rewardEpochId",
          "type": "uint24"
        },
        {
          "internalType": "bytes32",
          "name": "_newSigningPolicyHash",
          "type": "bytes32"
        },
        {
          "components": [
            {
              "internalType": "uint8",
              "name": "v",
              "type": "uint8"
            },
            {
              "internalType": "bytes32",
              "name": "r",
              "type": "bytes32"
            },
            {
              "internalType": "bytes32",
              "name": "s",
              "type": "bytes32"
            }
          ],
          "internalType": "struct FlareSystemManager.Signature",
          "name": "_signature",
          "type": "tuple"
        }
      ],
      "name": "signNewSigningPolicy",
      "outputs": [],
      "stateMutability": "nonpayable",
      "type": "function"
    },
    {
      "inputs": [
        {
          "internalType": "uint24",
          "name": "_rewardEpochId",
          "type": "uint24"
        },
        {
          "internalType": "uint64",
          "name": "_noOfWeightBasedClaims",
          "type": "uint64"
        },
        {
          "internalType": "bytes32",
          "name": "_rewardsHash",
          "type": "bytes32"
        },
        {
          "components": [
            {
              "internalType": "uint8",
              "name": "v",
              "type": "uint8"
            },
            {
              "internalType": "bytes32",
              "name": "r",
              "type": "bytes32"
            },
            {
              "internalType": "bytes32",
              "name": "s",
              "type": "bytes32"
            }
          ],
          "internalType": "struct FlareSystemManager.Signature",
          "name": "_signature",
          "type": "tuple"
        }
      ],
      "name": "signRewards",
      "outputs": [],
      "stateMutability": "nonpayable",
      "type": "function"
    },
    {
      "inputs": [
        {
          "internalType": "uint24",
          "name": "_rewardEpochId",
          "type": "uint24"
        },
        {
          "internalType": "bytes32",
          "name": "_uptimeVoteHash",
          "type": "bytes32"
        },
        {
          "components": [
            {
              "internalType": "uint8",
              "name": "v",
              "type": "uint8"
            },
            {
              "internalType": "bytes32",
              "name": "r",
              "type": "bytes32"
            },
            {
              "internalType": "bytes32",
              "name": "s",
              "type": "bytes32"
            }
          ],
          "internalType": "struct FlareSystemManager.Signature",
          "name": "_signature",
          "type": "tuple"
        }
      ],
      "name": "signUptimeVote",
      "outputs": [],
      "stateMutability": "nonpayable",
      "type": "function"
    },
    {
      "inputs": [],
      "name": "signingPolicyMinNumberOfVoters",
      "outputs": [
        {
          "internalType": "uint16",
          "name": "",
          "type": "uint16"
        }
      ],
      "stateMutability": "view",
      "type": "function"
    },
    {
      "inputs": [],
      "name": "signingPolicyThresholdPPM",
      "outputs": [
        {
          "internalType": "uint24",
          "name": "",
          "type": "uint24"
        }
      ],
      "stateMutability": "view",
      "type": "function"
    },
    {
      "inputs": [],
      "name": "submission",
      "outputs": [
        {
          "internalType": "contract Submission",
          "name": "",
          "type": "address"
        }
      ],
      "stateMutability": "view",
      "type": "function"
    },
    {
      "inputs": [],
      "name": "switchToFallbackMode",
      "outputs": [
        {
          "internalType": "bool",
          "name": "",
          "type": "bool"
        }
      ],
      "stateMutability": "pure",
      "type": "function"
    },
    {
      "inputs": [],
      "name": "switchToProductionMode",
      "outputs": [],
      "stateMutability": "nonpayable",
      "type": "function"
    },
    {
      "inputs": [
        {
          "internalType": "bytes4",
          "name": "",
          "type": "bytes4"
        }
      ],
      "name": "timelockedCalls",
      "outputs": [
        {
          "internalType": "uint256",
          "name": "allowedAfterTimestamp",
          "type": "uint256"
        },
        {
          "internalType": "bytes",
          "name": "encodedCall",
          "type": "bytes"
        }
      ],
      "stateMutability": "view",
      "type": "function"
    },
    {
      "inputs": [
        {
          "internalType": "bytes32[]",
          "name": "_contractNameHashes",
          "type": "bytes32[]"
        },
        {
          "internalType": "address[]",
          "name": "_contractAddresses",
          "type": "address[]"
        }
      ],
      "name": "updateContractAddresses",
      "outputs": [],
      "stateMutability": "nonpayable",
      "type": "function"
    },
    {
      "inputs": [
        {
          "internalType": "uint256",
          "name": "",
          "type": "uint256"
        }
      ],
      "name": "uptimeVoteHash",
      "outputs": [
        {
          "internalType": "bytes32",
          "name": "",
          "type": "bytes32"
        }
      ],
      "stateMutability": "view",
      "type": "function"
    },
    {
      "inputs": [],
      "name": "voterRegistrationMinDurationBlocks",
      "outputs": [
        {
          "internalType": "uint64",
          "name": "",
          "type": "uint64"
        }
      ],
      "stateMutability": "view",
      "type": "function"
    },
    {
      "inputs": [],
      "name": "voterRegistrationMinDurationSeconds",
      "outputs": [
        {
          "internalType": "uint64",
          "name": "",
          "type": "uint64"
        }
      ],
      "stateMutability": "view",
      "type": "function"
    },
    {
      "inputs": [],
      "name": "voterRegistrationTriggerContract",
      "outputs": [
        {
          "internalType": "contract IVoterRegistrationTrigger",
          "name": "",
          "type": "address"
        }
      ],
      "stateMutability": "view",
      "type": "function"
    },
    {
      "inputs": [],
      "name": "voterRegistry",
      "outputs": [
        {
          "internalType": "contract VoterRegistry",
          "name": "",
          "type": "address"
        }
      ],
      "stateMutability": "view",
      "type": "function"
    },
    {
      "inputs": [],
      "name": "votingEpochDurationSeconds",
      "outputs": [
        {
          "internalType": "uint64",
          "name": "",
          "type": "uint64"
        }
      ],
      "stateMutability": "view",
      "type": "function"
    }
  ],
  "bytecode": "0x6101406040523480156200001257600080fd5b50604051620059a4380380620059a48339810160408190526200003591620006e8565b858888620000448282620004cf565b50620000709050817f714f205b2abd25bef1d06a1af944e38c113fe6160375c4e1d6d5cf28848e771955565b506001600160a01b038516620000c15760405162461bcd60e51b8152602060048201526011602482015270666c617265206461656d6f6e207a65726f60781b60448201526064015b60405180910390fd5b6000846060015161ffff16116200011b5760405162461bcd60e51b815260206004820152601a60248201527f7265776172642065706f6368206475726174696f6e207a65726f0000000000006044820152606401620000b8565b6000846020015160ff1611620001745760405162461bcd60e51b815260206004820152601a60248201527f766f74696e672065706f6368206475726174696f6e207a65726f0000000000006044820152606401620000b8565b620f424084610140015162ffffff161115620001c85760405162461bcd60e51b81526020600482015260126024820152710e8d0e4cae6d0ded8c840e8dede40d0d2ced60731b6044820152606401620000b8565b600084610160015161ffff1611620002115760405162461bcd60e51b815260206004820152600b60248201526a7a65726f20766f7465727360a81b6044820152606401620000b8565b60008361ffff1611620002555760405162461bcd60e51b815260206004820152600b60248201526a7a65726f20626c6f636b7360a81b6044820152606401620000b8565b6001600160a01b038516608052835163ffffffff1660e05260208401805160ff908116610100529051604086015162000293929190911690620008b4565b8451620002a19190620008df565b63ffffffff1660a05260208401516060850151620002c79160ff169061ffff1662000906565b6001600160401b031660c081815260808601516007805460a08901519389015160e08a015161ffff9485166001600160801b0319938416179585166801000000000000000090810296909617600160801b600160e01b031916918516600160801b90810263ffffffff60c01b19169290921760ff909116600160c01b021790925561010089015160088054610120808d01516101408e01516101608f015195891693909616929092179187169097021764ffffffffff60801b191662ffffff90931690930261ffff60981b191691909117600160981b9184169190910217905585169052620003b88360016200092c565b62ffffff16620003c9919062000906565b60a051620003d891906200094b565b600880546001600160401b0392909216600160a81b02600160a81b600160e81b031990921691909117905562ffffff82166000908152600360205260409020600401805461ffff8084166c010000000000000000000000000261ffff60601b199092169190911790915560c0850151620004549116426200096e565b600854600160a81b90046001600160401b031611620004c15760405162461bcd60e51b815260206004820152602260248201527f7265776172642065706f636820656e64206e6f7420696e207468652066757475604482015261726560f01b6064820152608401620000b8565b50505050505050506200098a565b600054600160a01b900460ff16156200052b5760405162461bcd60e51b815260206004820152601460248201527f696e697469616c6973656420213d2066616c73650000000000000000000000006044820152606401620000b8565b6001600160a01b038216620005835760405162461bcd60e51b815260206004820152601860248201527f676f7665726e616e63652073657474696e6773207a65726f00000000000000006044820152606401620000b8565b6001600160a01b038116620005ce5760405162461bcd60e51b815260206004820152601060248201526f5f676f7665726e616e6365207a65726f60801b6044820152606401620000b8565b600080546001600160a01b038481166001600160a81b031990921691909117600160a01b17909155600180549183166001600160a01b0319909216821790556040519081527f9789733827840833afc031fb2ef9ab6894271f77bad2085687cf4ae5c7bee4db9060200160405180910390a15050565b6001600160a01b03811681146200065a57600080fd5b50565b60405161018081016001600160401b03811182821017156200068f57634e487b7160e01b600052604160045260246000fd5b60405290565b805163ffffffff81168114620006aa57600080fd5b919050565b805160ff81168114620006aa57600080fd5b805161ffff81168114620006aa57600080fd5b805162ffffff81168114620006aa57600080fd5b600080600080600080600080888a036102608112156200070757600080fd5b8951620007148162000644565b60208b0151909950620007278162000644565b60408b01519098506200073a8162000644565b60608b01519097506200074d8162000644565b9550610180607f19820112156200076357600080fd5b506200076e6200065d565b6200077c60808b0162000695565b81526200078c60a08b01620006af565b60208201526200079f60c08b0162000695565b6040820152620007b260e08b01620006c1565b6060820152610100620007c7818c01620006c1565b6080830152610120620007dc818d01620006c1565b60a0840152610140620007f1818e01620006c1565b60c085015261016062000806818f01620006af565b60e08601526200081a6101808f01620006c1565b848601526200082d6101a08f01620006c1565b83860152620008406101c08f01620006d4565b82860152620008536101e08f01620006c1565b90850152509195506200086d9150506102008a01620006c1565b92506200087e6102208a01620006d4565b91506200088f6102408a01620006c1565b90509295985092959890939650565b634e487b7160e01b600052601160045260246000fd5b63ffffffff818116838216028082169190828114620008d757620008d76200089e565b505092915050565b63ffffffff818116838216019080821115620008ff57620008ff6200089e565b5092915050565b6001600160401b03818116838216028082169190828114620008d757620008d76200089e565b62ffffff818116838216019080821115620008ff57620008ff6200089e565b6001600160401b03818116838216019080821115620008ff57620008ff6200089e565b808201808211156200098457620009846200089e565b92915050565b60805160a05160c05160e0516101005161012051614f8b62000a1960003960006139580152600081816106630152818161375a0152614052015260008181610b4201528181613784015261400d0152600081816107ac01528181611e670152818161201d01526137cf01526000818161078501526137f901526000818161088d015261186a0152614f8b6000f3fe608060405234801561001057600080fd5b50600436106103af5760003560e01c80638f8f9f3a116101f4578063d10e807f1161011a578063e17f212e116100ad578063ef88bf131161007c578063ef88bf1314610b7e578063f21d630414610b91578063f5a9838314610ba7578063f5f5ba7214610baf57600080fd5b8063e17f212e14610b22578063e22fdece14610b36578063e8d0e70a14610b3d578063ed54fd6314610b6457600080fd5b8063dac4319d116100e9578063dac4319d14610a95578063dc5a422514610ae9578063debfda3014610afc578063e0d4ea3714610b0f57600080fd5b8063d10e807f14610a02578063d2e9ad7114610a1c578063d346691114610a6d578063d89601fd14610a8d57600080fd5b8063ab25ac5b11610192578063b6c25af011610161578063b6c25af014610941578063be60040e14610992578063c2632216146109ac578063cd69ef15146109bf57600080fd5b8063ab25ac5b146108f1578063aec84ab614610904578063b00c0b761461091b578063b59589d11461092e57600080fd5b8063a219fe02116101ce578063a219fe02146108af578063a733d54b146108c2578063a84f5770146108d9578063a978fb6b146108e957600080fd5b80638f8f9f3a146107f45780639a75909714610875578063a10775321461088857600080fd5b80635aa6e675116102d95780636d0e8c341161027757806379e047ed1161024657806379e047ed1461078057806385f3c9c9146107a757806388e49ac7146107ce578063898805c1146107e157600080fd5b80636d0e8c3414610713578063705626971461071b57806374e6310e1461073757806375d2187a1461075857600080fd5b8063647006e2116102b3578063647006e2146106b357806367fc4029146106d35780636aeffddc146106e65780636b4c7bd61461070057600080fd5b80635aa6e675146106855780635ff270791461068d57806362354e03146106a057600080fd5b80632e3645f811610351578063468315311161032057806346831531146105f4578063490344f4146106095780635267a15d146106235780635a8320881461065e57600080fd5b80632e3645f814610525578063388a4c3d1461054d57806341c05ad51461057b5780634615d5e9146105e157600080fd5b80631703a7881161038d5780631703a788146104115780631916e9151461043957806324eb64de146104ff57806327549e4b1461051257600080fd5b806306886f41146103b457806309505d25146103c9578063098e7ff6146103e6575b600080fd5b6103c76103c23660046142d5565b610be3565b005b6103d1610d7a565b60405190151581526020015b60405180910390f35b6007546103f9906001600160401b031681565b6040516001600160401b0390911681526020016103dd565b61042461041f366004614349565b610db7565b604080519283529015156020830152016103dd565b6104df61044736600461438a565b62ffffff919091166000818152600360209081526040808320600683528184205460058452828520548351808601979097528684019190915260608087019190915282518087039091018152608090950182528451948301949094208352600890930181528282206001600160a01b03909416825260019093019092529020546001600160401b0380821692600160401b9092041690565b604080516001600160401b039384168152929091166020830152016103dd565b6103c761050d3660046143c1565b610de7565b6103c76105203660046143f5565b610e42565b60085461053a90600160981b900461ffff1681565b60405161ffff90911681526020016103dd565b61056d61055b366004614349565b60066020526000908152604090205481565b6040519081526020016103dd565b6104df61058936600461438a565b62ffffff90911660009081526003602090815260408083206004835281842054845260070182528083206001600160a01b0390941683526001909301905220546001600160401b0380821692600160401b9092041690565b61053a6105ef366004614349565b610f3d565b6105fc610fce565b6040516103dd9190614431565b6007546103f990600160401b90046001600160401b031681565b7f714f205b2abd25bef1d06a1af944e38c113fe6160375c4e1d6d5cf28848e7719545b6040516001600160a01b0390911681526020016103dd565b6103f97f000000000000000000000000000000000000000000000000000000000000000081565b610646611030565b6103c761069b366004614472565b6110cc565b600054610646906001600160a01b031681565b61056d6106c1366004614349565b60056020526000908152604090205481565b6103c76106e1366004614472565b61134c565b6007546103f990600160801b90046001600160401b031681565b6103c761070e3660046144ae565b611428565b6103d161185d565b6107236122ef565b60405162ffffff90911681526020016103dd565b61074a610745366004614472565b61231e565b6040516103dd92919061453b565b61076b610766366004614349565b6123c3565b60405163ffffffff90911681526020016103dd565b6103f97f000000000000000000000000000000000000000000000000000000000000000081565b6103f97f000000000000000000000000000000000000000000000000000000000000000081565b600c54610646906001600160a01b031681565b6103c76107ef36600461456c565b612452565b610842610802366004614598565b62ffffff166000908152600360205260409020546001600160401b0380821692600160401b8304821692600160801b8104831692600160c01b9091041690565b604080516001600160401b03958616815293851660208501529184169183019190915290911660608201526080016103dd565b600a54610646906001600160a01b031681565b6106467f000000000000000000000000000000000000000000000000000000000000000081565b6008546103f9906001600160401b031681565b60075461076b90600160c01b900463ffffffff1681565b60095461076b9063ffffffff1681565b610424612546565b6103c76108ff3660046145b3565b61255b565b60095461072390640100000000900462ffffff1681565b6103c76109293660046146de565b612a59565b600b54610646906001600160a01b031681565b61084261094f366004614598565b62ffffff166000908152600360205260409020600201546001600160401b0380821692600160401b8304821692600160801b8104831692600160c01b9091041690565b60095461064690600160381b90046001600160a01b031681565b6103f96109ba366004614349565b612b34565b6104df6109cd366004614598565b62ffffff166000908152600360205260409020600401546001600160401b03600160701b8204811692600160b01b9092041690565b6008546103f990600160401b90046001600160401b031681565b610842610a2a366004614598565b62ffffff166000908152600360205260409020600101546001600160401b0380821692600160401b8304821692600160801b8104831692600160c01b9091041690565b61056d610a7b366004614349565b60046020526000908152604090205481565b61056d612bb0565b6104df610aa336600461438a565b62ffffff90911660009081526003602090815260408083206001600160a01b0390941683526006909301905220546001600160401b0380821692600160401b9092041690565b6103c7610af73660046144ae565b612bc2565b6103d1610b0a3660046143c1565b612ffa565b61056d610b1d366004614349565b613083565b6000546103d190600160a81b900460ff1681565b60006103d1565b6103f97f000000000000000000000000000000000000000000000000000000000000000081565b6008546103f990600160a81b90046001600160401b031681565b6103c7610b8c366004614796565b613103565b60085461072390600160801b900462ffffff1681565b6103c7613269565b6040805180820182526012815271233630b932a9bcb9ba32b6a6b0b730b3b2b960711b602082015290516103dd91906147b4565b600054600160b01b900460ff1680610c055750600054600160a81b900460ff16155b15610d6b57610c1261332f565b610c1e600d600061426c565b8060005b81811015610d65576000848483818110610c3e57610c3e6147c7565b9050602002016020810190610c5391906143c1565b90506000610c628360016147f3565b90505b83811015610d0257858582818110610c7f57610c7f6147c7565b9050602002016020810190610c9491906143c1565b6001600160a01b0316826001600160a01b031603610cf05760405162461bcd60e51b81526020600482015260146024820152736475706c69636174656420636f6e74726163747360601b60448201526064015b60405180910390fd5b80610cfa81614806565b915050610c65565b50600d80546001810182556000919091527fd7b6990105719101dabeb77144f2a3385c8033acd3af97e9423a695e81ad1eb50180546001600160a01b0319166001600160a01b039290921691909117905580610d5d81614806565b915050610c22565b50505050565b610d76600036613369565b5050565b600080610d856122ef565b610d9090600161481f565b62ffffff166000818152600360205260409020909150610db19082906134b5565b91505090565b600081815260036020526040812060048101546001600160401b03169190610de09084906134b5565b9050915091565b600054600160b01b900460ff1680610e095750600054600160a81b900460ff16155b15610e3457610e1661332f565b600c80546001600160a01b0319166001600160a01b03831617905550565b610e3f600036613369565b50565b600054600160b01b900460ff1680610e645750600054600160a81b900460ff16155b15610f2d57610e7161332f565b610e796122ef565b62ffffff168362ffffff1610610ea15760405162461bcd60e51b8152600401610ce790614842565b62ffffff83166000908152600560209081526040808320849055600690915290206001600160401b03831690557f80df246a47153e3604b0026fcf53ec85ea48178efd4f3cad24f9a1e1da2dd52a83610ef8611030565b610f00611030565b8486610f0b426135cf565b6001604051610f20979695949392919061486f565b60405180910390a1505050565b610f38600036613369565b505050565b60008181526003602052604081206001015482906001600160401b03168203610fa85760405162461bcd60e51b815260206004820181905260248201527f7265776172642065706f6368206e6f7420696e697469616c697a6564207965746044820152606401610ce7565b600083815260036020526040902060040154600160601b900461ffff1691505b50919050565b6060600d80548060200260200160405190810160405280929190818152602001828054801561102657602002820191906000526020600020905b81546001600160a01b03168152600190910190602001808311611008575b5050505050905090565b60008054600160a81b900460ff1661105257506001546001600160a01b031690565b60008054906101000a90046001600160a01b03166001600160a01b031663732524946040518163ffffffff1660e01b8152600401602060405180830381865afa1580156110a3573d6000803e3d6000fd5b505050506040513d601f19601f820116820180604052508101906110c791906148bf565b905090565b6110d533612ffa565b6111115760405162461bcd60e51b815260206004820152600d60248201526c37b7363c9032bc32b1baba37b960991b6044820152606401610ce7565b6001600160e01b031981166000908152600260205260408120805490910361117b5760405162461bcd60e51b815260206004820152601a60248201527f74696d656c6f636b3a20696e76616c69642073656c6563746f720000000000006044820152606401610ce7565b80544210156111cc5760405162461bcd60e51b815260206004820152601960248201527f74696d656c6f636b3a206e6f7420616c6c6f77656420796574000000000000006044820152606401610ce7565b60008160010180546111dd906148dc565b80601f0160208091040260200160405190810160405280929190818152602001828054611209906148dc565b80156112565780601f1061122b57610100808354040283529160200191611256565b820191906000526020600020905b81548152906001019060200180831161123957829003601f168201915b505050506001600160e01b0319851660009081526002602052604081208181559293509050611288600183018261428a565b50506000805460ff60b01b1916600160b01b17815560405130906112ad908490614910565b6000604051808303816000865af19150503d80600081146112ea576040519150601f19603f3d011682016040523d82523d6000602084013e6112ef565b606091505b50506000805460ff60b01b19169055604080516001600160e01b0319871681524260208201529192507fa7326b57fc9cfe267aaea5e7f0b01757154d265620a0585819416ee9ddd2c438910160405180910390a1610d6581613609565b611354613626565b6001600160e01b0319811660009081526002602052604081205490036113bc5760405162461bcd60e51b815260206004820152601a60248201527f74696d656c6f636b3a20696e76616c69642073656c6563746f720000000000006044820152606401610ce7565b604080516001600160e01b0319831681524260208201527f7735b2391c38a81419c513e30ca578db7158eadd7101511b23e221c654d19cf8910160405180910390a16001600160e01b03198116600090815260026020526040812081815590610f38600183018261428a565b600060038161143860018761492c565b62ffffff16815260208101919091526040016000209050821580159061146557508261146385613680565b145b6114b15760405162461bcd60e51b815260206004820152601f60248201527f6e6577207369676e696e6720706f6c696379206861736820696e76616c6964006044820152606401610ce7565b6001810154600160801b90046001600160401b03161561151d5760405162461bcd60e51b815260206004820152602160248201527f6e6577207369676e696e6720706f6c69637920616c7265616479207369676e656044820152601960fa1b6064820152608401610ce7565b6000611528846136f2565b9050600061154c8261153d6020870187614948565b86602001358760400135613725565b6009549091506000908190600160381b90046001600160a01b0316638c64572861157760018b61492c565b6040516001600160e01b031960e084901b16815262ffffff90911660048201526001600160a01b03861660248201526044016040805180830381865afa1580156115c5573d6000803e3d6000fd5b505050506040513d601f19601f820116820180604052508101906115e99190614976565b90925090506001600160a01b0382166116145760405162461bcd60e51b8152600401610ce7906149a5565b6001600160a01b03821660009081526006860160205260409020546001600160401b0316156116855760405162461bcd60e51b815260206004820152601e60248201527f7369676e696e67206164647265737320616c7265616479207369676e656400006044820152606401610ce7565b6040518060400160405280611699426135cf565b6001600160401b031681526020016116b0436135cf565b6001600160401b039081169091526001600160a01b0384166000908152600688016020908152604082208451815495909201518416600160401b026001600160801b031990951691909316179290921790556004860154600587015461ffff600160601b909204821691611726918591166149d0565b61ffff1611905080156117a85761173c426135cf565b8660010160106101000a8154816001600160401b0302191690836001600160401b0316021790555061176d436135cf565b6001870180546001600160401b0392909216600160c01b026001600160c01b0390921691909117905560058601805461ffff191690556117de565b6005860180548391906000906117c390849061ffff166149d0565b92506101000a81548161ffff021916908361ffff1602179055505b7f154b0214ae62d8a5548c1eac25fabd87c38b04932a217732e1022f3118da67f389858561180b426135cf565b6040805162ffffff9590951685526001600160a01b03938416602086015291909216908301526001600160401b03166060820152821515608082015260a00160405180910390a1505050505050505050565b6000336001600160a01b037f000000000000000000000000000000000000000000000000000000000000000016146118cb5760405162461bcd60e51b815260206004820152601160248201527037b7363c90333630b932903230b2b6b7b760791b6044820152606401610ce7565b60006118d5613753565b905060006118e16137c6565b60075460085491925061190f916001600160401b03600160801b909204821691600160a81b909104166149eb565b6001600160401b031642106120a257600061192b82600161481f565b9050600061193882613680565b03611e4d5762ffffff81166000908152600360205260408120805490916001600160401b039091169003611a7a5761196f426135cf565b815467ffffffffffffffff19166001600160401b0391909116178155611994436135cf565b815467ffffffffffffffff60401b1916600160401b6001600160401b039290921691909102178155600954604051635213182360e01b815262ffffff84166004820152600160381b9091046001600160a01b031690635213182390602401600060405180830381600087803b158015611a0c57600080fd5b505af1158015611a20573d6000803e3d6000fd5b505050507ff9991783e5e480e42d9a54d3f35f4321857f8f0ebeb3742d326dce28b112670882611a4f426135cf565b6040805162ffffff90931683526001600160401b0390911660208301520160405180910390a1611e4b565b8054600160801b90046001600160401b0316600003611dd2576000806000611aa061385a565b865492955090935091506000906001600160401b03908116908316118015611ac55750825b15611bab57611ad3426135cf565b85546001600160401b0391909116600160801b0267ffffffffffffffff60801b19909116178555611b03436135cf565b85546001600160401b0391909116600160c01b026001600160c01b03909116178555611b2f86856138e9565b600c549091506001600160a01b031615611ba657600c54604051637b83fb0960e11b815262ffffff881660048201526001600160a01b039091169063f707f61290602401600060405180830381600087803b158015611b8d57600080fd5b505af1158015611ba1573d6000803e3d6000fd5b505050505b611c73565b60075485544391611bd3916001600160401b03600160401b9283900481169290910416614a0b565b6001600160401b0316108015611c0c575060075485544291611c01916001600160401b039182169116614a0b565b6001600160401b0316105b15611c73575062ffffff86166000908152600360205260408120600401546001600160401b031690819003611c57576001611c46436135cf565b611c5091906149eb565b9050611c73565b62ffffff87166000908152600360208190526040909120015493505b6001600160401b03811615611dc957611c8b426135cf565b85546001600160401b0391909116600160801b0267ffffffffffffffff60801b19909116178555611cbb436135cf565b85546001600160c01b0316600160c01b6001600160401b039283160217865560048601805467ffffffffffffffff1916918316919091179055600385018490557ff21722dbe044a7cea0f6d81c871cae750971e36c9dd10999e46f2b46f26ac7ff8682611d27426135cf565b6040805162ffffff90941684526001600160401b03928316602085015291169082015260600160405180910390a1600c546001600160a01b031615611dc957600c54604051637b83fb0960e11b815262ffffff881660048201526001600160a01b039091169063f707f61290602401600060405180830381600087803b158015611db057600080fd5b505af1158015611dc4573d6000803e3d6000fd5b505050505b50505050611e4b565b611de18262ffffff16826134b5565b611e4b57611dee426135cf565b60018201805467ffffffffffffffff19166001600160401b0392909216919091179055611e1a436135cf565b8160010160086101000a8154816001600160401b0302191690836001600160401b03160217905550611e4b826139d3565b505b611e5681613bc0565b156120a057600854600090611e9c907f000000000000000000000000000000000000000000000000000000000000000090600160a81b90046001600160401b0316614a0b565b6008805467ffffffffffffffff60a81b1916600160a81b6001600160401b038416021790559050611ecc426135cf565b62ffffff8316600090815260036020526040902060040180546001600160401b0392909216600160701b0267ffffffffffffffff60701b19909216919091179055611f16436135cf565b62ffffff8316600090815260036020526040902060040180546001600160401b0392909216600160b01b0267ffffffffffffffff60b01b1990921691909117908190557f4abb62ab1e4c42a11b90e4e45b92af1274f74cc634b759518e8c99e000d8be6d90839063ffffffff600160401b90910416611f94426135cf565b6040805162ffffff909416845263ffffffff90921660208401526001600160401b03169082015260600160405180910390a1600d5460005b8181101561209c57600d8181548110611fe757611fe76147c7565b6000918252602090912001546040516391f2567960e01b815262ffffff861660048201526001600160401b0380861660248301527f00000000000000000000000000000000000000000000000000000000000000001660448201526001600160a01b03909116906391f2567990606401600060405180830381600087803b15801561207157600080fd5b505af1158015612085573d6000803e3d6000fd5b50505050808061209490614806565b915050611fcc565b5050505b505b60095463ffffffff90811690831611156122e5576009805463ffffffff191663ffffffff84161790819055604051637c2cb92160e01b815262ffffff8316600482015260609182918291600160381b90046001600160a01b031690637c2cb92190602401600060405180830381865afa158015612123573d6000803e3d6000fd5b505050506040513d6000823e601f3d908101601f1916820160405261214b9190810190614a8f565b600954604051635b0dabfd60e11b815262ffffff87166004820152919350600160381b90046001600160a01b03169063b61b57fa90602401600060405180830381865afa1580156121a0573d6000803e3d6000fd5b505050506040513d6000823e601f3d908101601f191682016040526121c89190810190614a8f565b90508362ffffff166121d86137c6565b62ffffff16111561227557600954600160381b90046001600160a01b0316637c2cb92161220686600161481f565b6040516001600160e01b031960e084901b16815262ffffff9091166004820152602401600060405180830381865afa158015612246573d6000803e3d6000fd5b505050506040513d6000823e601f3d908101601f1916820160405261226e9190810190614a8f565b9250612279565b8192505b600a5460405163f8ae8a2f60e01b81526001600160a01b039091169063f8ae8a2f906122af908690869082908790600401614b07565b600060405180830381600087803b1580156122c957600080fd5b505af11580156122dd573d6000803e3d6000fd5b505050505050505b6001925050505b90565b60006122f96137c6565b905061230e61230982600161481f565b613bc0565b156122ec576110c760018261481f565b60026020526000908152604090208054600182018054919291612340906148dc565b80601f016020809104026020016040519081016040528092919081815260200182805461236c906148dc565b80156123b95780601f1061238e576101008083540402835291602001916123b9565b820191906000526020600020905b81548152906001019060200180831161239c57829003601f168201915b5050505050905082565b60008181526003602052604081206001015482906001600160401b0316820361242e5760405162461bcd60e51b815260206004820181905260248201527f7265776172642065706f6368206e6f7420696e697469616c697a6564207965746044820152606401610ce7565b5050600090815260036020526040902060040154600160401b900463ffffffff1690565b600054600160b01b900460ff16806124745750600054600160a81b900460ff16155b15610d6b5761248161332f565b620f42408262ffffff1611156124ce5760405162461bcd60e51b81526020600482015260126024820152710e8d0e4cae6d0ded8c840e8dede40d0d2ced60731b6044820152606401610ce7565b60008161ffff16116125105760405162461bcd60e51b815260206004820152600b60248201526a7a65726f20766f7465727360a81b6044820152606401610ce7565b6008805464ffffffffff60801b1916600160801b62ffffff85160261ffff60981b191617600160981b61ffff8416021790555050565b60008061255161385a565b5090939092509050565b62ffffff841660009081526003602052604090206125776122ef565b62ffffff168562ffffff161061259f5760405162461bcd60e51b8152600401610ce790614842565b6001810154600160801b90046001600160401b031660000361260d5760405162461bcd60e51b815260206004820152602160248201527f6e6577207369676e696e6720706f6c696379206e6f74207369676e65642079656044820152601d60fa1b6064820152608401610ce7565b62ffffff851660009081526004602052604090205461266e5760405162461bcd60e51b815260206004820152601f60248201527f757074696d6520766f74652068617368206e6f74207369676e656420796574006044820152606401610ce7565b62ffffff8516600090815260056020526040902054156126d05760405162461bcd60e51b815260206004820152601b60248201527f72657761726473206861736820616c7265616479207369676e656400000000006044820152606401610ce7565b6040805162ffffff871660208201526001600160401b03861691810191909152606081018490526000906080016040516020818303038152906040528051906020012090506000612720826136f2565b90506000612744826127356020880188614948565b87602001358860400135613725565b60095460405163118c8ae560e31b815262ffffff8b1660048201526001600160a01b0380841660248301529293506000928392600160381b90041690638c645728906044016040805180830381865afa1580156127a5573d6000803e3d6000fd5b505050506040513d601f19601f820116820180604052508101906127c99190614976565b90925090506001600160a01b0382166127f45760405162461bcd60e51b8152600401610ce7906149a5565b600085815260088701602090815260408083206001600160a01b03861684526001019091529020546001600160401b0316156128695760405162461bcd60e51b81526020600482015260146024820152731d9bdd195c88185b1c9958591e481cda59db995960621b6044820152606401610ce7565b604051806040016040528061287d426135cf565b6001600160401b03168152602001612894436135cf565b6001600160401b03908116909152600087815260088901602081815260408084206001600160a01b038916855260018101835290842086518154978401518716600160401b026001600160801b03199098169616959095179590951790935560048a01548983529252915461ffff600160601b909204821691612919918591166149d0565b61ffff1611905080156129c25761292f426135cf565b8760020160106101000a8154816001600160401b0302191690836001600160401b03160217905550612960436135cf565b6002880180546001600160c01b0316600160c01b6001600160401b039384160217905562ffffff8c1660009081526005602090815260408083208d905560068252808320938e1690935588825260088a01905220805461ffff19169055612a01565b6000868152600888016020526040812080548492906129e690849061ffff166149d0565b92506101000a81548161ffff021916908361ffff1602179055505b7f80df246a47153e3604b0026fcf53ec85ea48178efd4f3cad24f9a1e1da2dd52a8b85858c8e612a30426135cf565b87604051612a44979695949392919061486f565b60405180910390a15050505050505050505050565b7f714f205b2abd25bef1d06a1af944e38c113fe6160375c4e1d6d5cf28848e7719546001600160a01b0316336001600160a01b031614612ad25760405162461bcd60e51b815260206004820152601460248201527337b7363c9030b2323932b9b9903ab83230ba32b960611b6044820152606401610ce7565b612b2a612b0683836040518060400160405280600e81526020016d20b2323932b9b9aab83230ba32b960911b815250613c30565b7f714f205b2abd25bef1d06a1af944e38c113fe6160375c4e1d6d5cf28848e771955565b610d768282613d0b565b6000818152600360205260408120600401546001600160401b031690819003612bab5760405162461bcd60e51b8152602060048201526024808201527f766f746520706f77657220626c6f636b206e6f7420696e697469616c697a6564604482015263081e595d60e21b6064820152608401610ce7565b919050565b6000612bba61385a565b509092915050565b62ffffff83166000908152600360205260409020612bde6122ef565b62ffffff168462ffffff1610612c065760405162461bcd60e51b8152600401610ce790614842565b62ffffff841660009081526004602052604090205415612c685760405162461bcd60e51b815260206004820152601f60248201527f757074696d6520766f7465206861736820616c7265616479207369676e6564006044820152606401610ce7565b6040805162ffffff861660208201529081018490526000906060016040516020818303038152906040528051906020012090506000612ca6826136f2565b90506000612cbb826127356020880188614948565b60095460405163118c8ae560e31b815262ffffff8a1660048201526001600160a01b0380841660248301529293506000928392600160381b90041690638c645728906044016040805180830381865afa158015612d1c573d6000803e3d6000fd5b505050506040513d601f19601f82011682018060405250810190612d409190614976565b90925090506001600160a01b038216612d6b5760405162461bcd60e51b8152600401610ce7906149a5565b600088815260078701602090815260408083206001600160a01b03861684526001019091529020546001600160401b031615612de05760405162461bcd60e51b81526020600482015260146024820152731d9bdd195c88185b1c9958591e481cda59db995960621b6044820152606401610ce7565b6040518060400160405280612df4426135cf565b6001600160401b03168152602001612e0b436135cf565b6001600160401b0390811690915260008a815260078901602081815260408084206001600160a01b038916855260018101835290842086518154978401518716600160401b026001600160801b03199098169616959095179590951790935560048a01548c83529252915461ffff600160601b909204821691612e90918591166149d0565b61ffff161190508015612f3457612ea6426135cf565b60028801805467ffffffffffffffff19166001600160401b0392909216919091179055612ed2436135cf565b6002880180546001600160401b0392909216600160401b0267ffffffffffffffff60401b1990921691909117905562ffffff8a1660009081526004602090815260408083208c90558b835260078a019091529020805461ffff19169055612f73565b600089815260078801602052604081208054849290612f5890849061ffff166149d0565b92506101000a81548161ffff021916908361ffff1602179055505b7f5506337d1266599f8b64675a1c8321701657ca2f2f70be0e0c58302b6c22e7978a85858c612fa1426135cf565b6040805162ffffff9690961686526001600160a01b039485166020870152929093168483015260608401526001600160401b03909116608083015283151560a0830152519081900360c00190a150505050505050505050565b60008054600160a01b900460ff16801561307d5750600054604051630debfda360e41b81526001600160a01b0384811660048301529091169063debfda3090602401602060405180830381865afa158015613059573d6000803e3d6000fd5b505050506040513d601f19601f8201168201806040525081019061307d9190614b64565b92915050565b6000818152600360205260408120600401546001600160401b031681036130ec5760405162461bcd60e51b815260206004820152601860248201527f73656564206e6f7420696e697469616c697a65642079657400000000000000006044820152606401610ce7565b506000908152600360208190526040909120015490565b600054600160a01b900460ff16156131545760405162461bcd60e51b8152602060048201526014602482015273696e697469616c6973656420213d2066616c736560601b6044820152606401610ce7565b6001600160a01b0382166131aa5760405162461bcd60e51b815260206004820152601860248201527f676f7665726e616e63652073657474696e6773207a65726f00000000000000006044820152606401610ce7565b6001600160a01b0381166131f35760405162461bcd60e51b815260206004820152601060248201526f5f676f7665726e616e6365207a65726f60801b6044820152606401610ce7565b600080546001600160a01b038481166001600160a81b031990921691909117600160a01b17909155600180549183166001600160a01b0319909216821790556040519081527f9789733827840833afc031fb2ef9ab6894271f77bad2085687cf4ae5c7bee4db9060200160405180910390a15050565b613271613626565b600054600160a81b900460ff16156132cb5760405162461bcd60e51b815260206004820152601a60248201527f616c726561647920696e2070726f64756374696f6e206d6f64650000000000006044820152606401610ce7565b600180546001600160a01b031916905560008054600160a81b60ff60a81b198216179091556040516001600160a01b0390911681527f83af113638b5422f9e977cebc0aaf0eaf2188eb9a8baae7f9d46c42b33a1560c9060200160405180910390a1565b600054600160b01b900460ff161561335f5733301461335057613350614b7f565b6000805460ff60b01b19169055565b613367613626565b565b613371613626565b6000805460408051636221a54b60e01b81529051853593926001600160a01b031691636221a54b9160048083019260209291908290030181865afa1580156133bd573d6000803e3d6000fd5b505050506040513d601f19601f820116820180604052508101906133e19190614b95565b905060006133ef82426147f3565b9050604051806040016040528082815260200186868080601f01602080910402602001604051908101604052809392919081815260200183838082843760009201829052509390945250506001600160e01b0319861681526002602090815260409091208351815590830151909150600182019061346d9082614bfc565b509050507fed948300a3694aa01d4a6b258bfd664350193d770c0b51f8387277f6d83ea3b6838287876040516134a69493929190614cbb565b60405180910390a15050505050565b8054600090600160801b90046001600160401b0316158015906135c8575060085482546134f5916001600160401b0390811691600160801b900416614a0b565b6001600160401b03164211158061353d57506008548254613530916001600160401b03600160401b909104811691600160c01b900416614a0b565b6001600160401b03164311155b806135c85750600854600954604051630da7a50d60e21b815260048101869052600160981b90920461ffff1691600160381b9091046001600160a01b03169063369e943490602401602060405180830381865afa1580156135a2573d6000803e3d6000fd5b505050506040513d601f19601f820116820180604052508101906135c69190614b95565b105b9392505050565b60006001600160401b0382111561360557604080516306dfcc6560e41b8152600481019190915260248101839052604401610ce7565b5090565b3d604051818101604052816000823e8215613622578181f35b8181fd5b61362e611030565b6001600160a01b0316336001600160a01b0316146133675760405162461bcd60e51b815260206004820152600f60248201526e6f6e6c7920676f7665726e616e636560881b6044820152606401610ce7565b600b54604051630c85bf0760e01b815262ffffff831660048201526000916001600160a01b031690630c85bf0790602401602060405180830381865afa1580156136ce573d6000803e3d6000fd5b505050506040513d601f19601f8201168201806040525081019061307d9190614b95565b7f19457468657265756d205369676e6564204d6573736167653a0a3332000000006000908152601c91909152603c902090565b60008060008061373788888888613e00565b9250925092506137478282613ecf565b50909695505050505050565b60006110c77f00000000000000000000000000000000000000000000000000000000000000006001600160401b03167f00000000000000000000000000000000000000000000000000000000000000006001600160401b0316426137b79190614d01565b6137c19190614d2a565b613f88565b60006110c760017f00000000000000000000000000000000000000000000000000000000000000006001600160401b03167f0000000000000000000000000000000000000000000000000000000000000000600860159054906101000a90046001600160401b031661383891906149eb565b6001600160401b031661384b9190614d2a565b6138559190614d01565b613fb9565b6000806000600b60009054906101000a90046001600160a01b03166001600160a01b031663dbdff2c16040518163ffffffff1660e01b8152600401606060405180830381865afa1580156138b2573d6000803e3d6000fd5b505050506040513d601f19601f820116820180604052508101906138d69190614d3e565b919590945063ffffffff90911692509050565b6000806003816138fa60018761492c565b62ffffff9081168252602080830193909352604091820160009081205491881681526003909352908220546001600160401b03600160401b928390048116945091900416908281036139915761398a613985836001600160401b03167f00000000000000000000000000000000000000000000000000000000000000006001600160401b0316613fe9565b6135cf565b905061399e565b61399b83836149eb565b90505b60006139b36001600160401b03831687614d87565b90506139be816135cf565b6139c890846149eb565b979650505050505050565b62ffffff81166000818152600360209081526040808320815160c0810183529283018490529082018390526060808301939093526080820183905260a082019290925291825290613a22613fff565b63ffffffff16602082015260095460405163c452e47f60e01b815262ffffff85166004820152600091600160381b90046001600160a01b03169063c452e47f906024016000604051808303816000875af1158015613a84573d6000803e3d6000fd5b505050506040513d6000823e601f3d908101601f19168201604052613aac9190810190614d9b565b60a0850191909152608084019190915260085461ffff9091169150613aeb90613ae6908390600160801b900462ffffff16620f42406140d7565b614117565b61ffff166040838101829052600385015460608501526020840151600480870180546dffffffffffff00000000000000001916600160401b63ffffffff9094169390930261ffff60601b191692909217600160601b909402939093179055600b549051638353412560e01b81526001600160a01b0390911691638353412591613b7691869101614e65565b6020604051808303816000875af1158015613b95573d6000803e3d6000fd5b505050506040513d601f19601f82011682018060405250810190613bb99190614b95565b5050505050565b600854600090600160a81b90046001600160401b03164210801590613bee57506000613beb83613680565b14155b801561307d575062ffffff8216600090815260036020526040902060040154600160401b900463ffffffff16613c22613753565b63ffffffff16101592915050565b60008082604051602001613c4491906147b4565b6040516020818303038152906040528051906020012090506000805b8651811015613cbc57868181518110613c7b57613c7b6147c7565b60200260200101518303613caa57858181518110613c9b57613c9b6147c7565b60200260200101519150613cbc565b80613cb481614806565b915050613c60565b506001600160a01b038116613d025760405162461bcd60e51b815260206004820152600c60248201526b61646472657373207a65726f60a01b6044820152606401610ce7565b95945050505050565b613d3b82826040518060400160405280600d81526020016c566f746572526567697374727960981b815250613c30565b600960076101000a8154816001600160a01b0302191690836001600160a01b03160217905550613d8e82826040518060400160405280600a81526020016929bab136b4b9b9b4b7b760b11b815250613c30565b600a60006101000a8154816001600160a01b0302191690836001600160a01b03160217905550613ddc82826040518060400160405280600581526020016452656c617960d81b815250613c30565b600b80546001600160a01b0319166001600160a01b03929092169190911790555050565b600080807f7fffffffffffffffffffffffffffffff5d576e7357a4501ddfe92f46681b20a0841115613e3b5750600091506003905082613ec5565b604080516000808252602082018084528a905260ff891692820192909252606081018790526080810186905260019060a0016020604051602081039080840390855afa158015613e8f573d6000803e3d6000fd5b5050604051601f1901519150506001600160a01b038116613ebb57506000925060019150829050613ec5565b9250600091508190505b9450945094915050565b6000826003811115613ee357613ee3614f0b565b03613eec575050565b6001826003811115613f0057613f00614f0b565b03613f1e5760405163f645eedf60e01b815260040160405180910390fd5b6002826003811115613f3257613f32614f0b565b03613f535760405163fce698f760e01b815260048101829052602401610ce7565b6003826003811115613f6757613f67614f0b565b03610d76576040516335e2f38360e21b815260048101829052602401610ce7565b600063ffffffff821115613605576040516306dfcc6560e41b81526020600482015260248101839052604401610ce7565b600062ffffff821115613605576040516306dfcc6560e41b81526018600482015260248101839052604401610ce7565b6000818310613ff857816135c8565b5090919050565b6008546000908190614042907f000000000000000000000000000000000000000000000000000000000000000090600160a81b90046001600160401b03166149eb565b6001600160401b031690506140857f00000000000000000000000000000000000000000000000000000000000000006001600160401b0316826137c19190614d2a565b600754909250600090600160c01b900463ffffffff166140a3613753565b6140ad9190614f21565b6140b8906001614f21565b90508063ffffffff168363ffffffff1610156140d2578092505b505090565b6000806140e5858585614146565b9050600083806140f7576140f7614d14565b8587099050801561410b578160010161410d565b815b9695505050505050565b600061ffff821115613605576040516306dfcc6560e41b81526010600482015260248101839052604401610ce7565b600080821161418a5760405162461bcd60e51b815260206004820152601060248201526f4469766973696f6e206279207a65726f60801b6044820152606401610ce7565b8360000361419a575060006135c8565b838302838582816141ad576141ad614d14565b04036141cb578281816141c2576141c2614d14565b049150506135c8565b5060006141d88386614d2a565b905060006141e68487614d87565b905060006141f48587614d2a565b905060006142028688614d87565b90508561420f8285614f3e565b6142199190614d2a565b6142238385614f3e565b61422d8387614f3e565b886142388689614f3e565b6142429190614f3e565b61424c91906147f3565b61425691906147f3565b61426091906147f3565b98975050505050505050565b5080546000825590600052602060002090810190610e3f91906142c0565b508054614296906148dc565b6000825580601f106142a6575050565b601f016020900490600052602060002090810190610e3f91905b5b8082111561360557600081556001016142c1565b600080602083850312156142e857600080fd5b82356001600160401b03808211156142ff57600080fd5b818501915085601f83011261431357600080fd5b81358181111561432257600080fd5b8660208260051b850101111561433757600080fd5b60209290920196919550909350505050565b60006020828403121561435b57600080fd5b5035919050565b803562ffffff81168114612bab57600080fd5b6001600160a01b0381168114610e3f57600080fd5b6000806040838503121561439d57600080fd5b6143a683614362565b915060208301356143b681614375565b809150509250929050565b6000602082840312156143d357600080fd5b81356135c881614375565b80356001600160401b0381168114612bab57600080fd5b60008060006060848603121561440a57600080fd5b61441384614362565b9250614421602085016143de565b9150604084013590509250925092565b6020808252825182820181905260009190848201906040850190845b818110156137475783516001600160a01b03168352928401929184019160010161444d565b60006020828403121561448457600080fd5b81356001600160e01b0319811681146135c857600080fd5b600060608284031215610fc857600080fd5b600080600060a084860312156144c357600080fd5b6144cc84614362565b9250602084013591506144e2856040860161449c565b90509250925092565b60005b838110156145065781810151838201526020016144ee565b50506000910152565b600081518084526145278160208601602086016144eb565b601f01601f19169290920160200192915050565b828152604060208201526000614554604083018461450f565b949350505050565b61ffff81168114610e3f57600080fd5b6000806040838503121561457f57600080fd5b61458883614362565b915060208301356143b68161455c565b6000602082840312156145aa57600080fd5b6135c882614362565b60008060008060c085870312156145c957600080fd5b6145d285614362565b93506145e0602086016143de565b9250604085013591506145f6866060870161449c565b905092959194509250565b634e487b7160e01b600052604160045260246000fd5b604051601f8201601f191681016001600160401b038111828210171561463f5761463f614601565b604052919050565b60006001600160401b0382111561466057614660614601565b5060051b60200190565b600082601f83011261467b57600080fd5b8135602061469061468b83614647565b614617565b82815260059290921b840181019181810190868411156146af57600080fd5b8286015b848110156146d35780356146c681614375565b83529183019183016146b3565b509695505050505050565b600080604083850312156146f157600080fd5b82356001600160401b038082111561470857600080fd5b818501915085601f83011261471c57600080fd5b8135602061472c61468b83614647565b82815260059290921b8401810191818101908984111561474b57600080fd5b948201945b8386101561476957853582529482019490820190614750565b9650508601359250508082111561477f57600080fd5b5061478c8582860161466a565b9150509250929050565b600080604083850312156147a957600080fd5b82356143a681614375565b6020815260006135c8602083018461450f565b634e487b7160e01b600052603260045260246000fd5b634e487b7160e01b600052601160045260246000fd5b8082018082111561307d5761307d6147dd565b600060018201614818576148186147dd565b5060010190565b62ffffff81811683821601908082111561483b5761483b6147dd565b5092915050565b602080825260139082015272195c1bd8da081b9bdd08195b991959081e595d606a1b604082015260600190565b62ffffff9790971687526001600160a01b03958616602088015293909416604086015260608501919091526001600160401b03908116608085015290911660a0830152151560c082015260e00190565b6000602082840312156148d157600080fd5b81516135c881614375565b600181811c908216806148f057607f821691505b602082108103610fc857634e487b7160e01b600052602260045260246000fd5b600082516149228184602087016144eb565b9190910192915050565b62ffffff82811682821603908082111561483b5761483b6147dd565b60006020828403121561495a57600080fd5b813560ff811681146135c857600080fd5b8051612bab8161455c565b6000806040838503121561498957600080fd5b825161499481614375565b60208401519092506143b68161455c565b6020808252601190820152701cda59db985d1d5c99481a5b9d985b1a59607a1b604082015260600190565b61ffff81811683821601908082111561483b5761483b6147dd565b6001600160401b0382811682821603908082111561483b5761483b6147dd565b6001600160401b0381811683821601908082111561483b5761483b6147dd565b600082601f830112614a3c57600080fd5b81516020614a4c61468b83614647565b82815260059290921b84018101918181019086841115614a6b57600080fd5b8286015b848110156146d3578051614a8281614375565b8352918301918301614a6f565b600060208284031215614aa157600080fd5b81516001600160401b03811115614ab757600080fd5b61455484828501614a2b565b600081518084526020808501945080840160005b83811015614afc5781516001600160a01b031687529582019590820190600101614ad7565b509495945050505050565b608081526000614b1a6080830187614ac3565b8281036020840152614b2c8187614ac3565b90508281036040840152614b408186614ac3565b905082810360608401526139c88185614ac3565b80518015158114612bab57600080fd5b600060208284031215614b7657600080fd5b6135c882614b54565b634e487b7160e01b600052600160045260246000fd5b600060208284031215614ba757600080fd5b5051919050565b601f821115610f3857600081815260208120601f850160051c81016020861015614bd55750805b601f850160051c820191505b81811015614bf457828155600101614be1565b505050505050565b81516001600160401b03811115614c1557614c15614601565b614c2981614c2384546148dc565b84614bae565b602080601f831160018114614c5e5760008415614c465750858301515b600019600386901b1c1916600185901b178555614bf4565b600085815260208120601f198616915b82811015614c8d57888601518255948401946001909101908401614c6e565b5085821015614cab5787850151600019600388901b60f8161c191681555b5050505050600190811b01905550565b63ffffffff60e01b8516815283602082015260606040820152816060820152818360808301376000818301608090810191909152601f909201601f191601019392505050565b8181038181111561307d5761307d6147dd565b634e487b7160e01b600052601260045260246000fd5b600082614d3957614d39614d14565b500490565b600080600060608486031215614d5357600080fd5b83519250614d6360208501614b54565b9150604084015163ffffffff81168114614d7c57600080fd5b809150509250925092565b600082614d9657614d96614d14565b500690565b600080600060608486031215614db057600080fd5b83516001600160401b0380821115614dc757600080fd5b614dd387838801614a2b565b9450602091508186015181811115614dea57600080fd5b86019050601f81018713614dfd57600080fd5b8051614e0b61468b82614647565b81815260059190911b82018301908381019089831115614e2a57600080fd5b928401925b82841015614e51578351614e428161455c565b82529284019290840190614e2f565b80965050505050506144e26040850161496b565b6000602080835262ffffff8451168184015263ffffffff81850151166040840152604084015161ffff8082166060860152606086015160808601526080860151915060c060a0860152614ebb60e0860183614ac3565b60a0870151868203601f190160c0880152805180835290850193506000918501905b80831015614eff57845184168252938501936001929092019190850190614edd565b50979650505050505050565b634e487b7160e01b600052602160045260246000fd5b63ffffffff81811683821601908082111561483b5761483b6147dd565b808202811582820484141761307d5761307d6147dd56fea264697066735822122065163b9de1361ab9f88351f67283bfc18b8b2f23fda7b56199d72e9f8fd71f3964736f6c63430008140033",
  "linkReferences": {},
  "deployedLinkReferences": {}
}