{
  "_format": "hh-sol-artifact-1",
  "contractName": "FlareSystemManager",
  "sourceName": "contracts/protocol/implementation/FlareSystemManager.sol",
  "abi": [
    {
      "inputs": [
        {
          "internalType": "contract IGovernanceSettings",
          "name": "_governanceSettings",
          "type": "address"
        },
        {
          "internalType": "address",
          "name": "_initialGovernance",
          "type": "address"
        },
        {
          "internalType": "address",
          "name": "_addressUpdater",
          "type": "address"
        },
        {
          "internalType": "address",
          "name": "_flareDaemon",
          "type": "address"
        },
        {
          "components": [
            {
              "internalType": "uint64",
              "name": "firstVotingRoundStartTs",
              "type": "uint64"
            },
            {
              "internalType": "uint64",
              "name": "votingEpochDurationSeconds",
              "type": "uint64"
            },
            {
              "internalType": "uint64",
              "name": "firstRewardEpochStartVotingRoundId",
              "type": "uint64"
            },
            {
              "internalType": "uint64",
              "name": "rewardEpochDurationInVotingEpochs",
              "type": "uint64"
            },
            {
              "internalType": "uint64",
              "name": "newSigningPolicyInitializationStartSeconds",
              "type": "uint64"
            },
            {
              "internalType": "uint64",
              "name": "voterRegistrationMinDurationSeconds",
              "type": "uint64"
            },
            {
              "internalType": "uint64",
              "name": "voterRegistrationMinDurationBlocks",
              "type": "uint64"
            },
            {
              "internalType": "uint64",
              "name": "signingPolicyThresholdPPM",
              "type": "uint64"
            },
            {
              "internalType": "uint64",
              "name": "signingPolicyMinNumberOfVoters",
              "type": "uint64"
            }
          ],
          "internalType": "struct FlareSystemManager.Settings",
          "name": "_settings",
          "type": "tuple"
        },
        {
          "internalType": "uint64",
          "name": "_firstRandomAcquisitionNumberOfBlocks",
          "type": "uint64"
        },
        {
          "internalType": "uint24",
          "name": "_firstRewardEpochId",
          "type": "uint24"
        },
        {
          "internalType": "uint16",
          "name": "_firstRewardEpochThreshold",
          "type": "uint16"
        }
      ],
      "stateMutability": "nonpayable",
      "type": "constructor"
    },
    {
      "inputs": [],
      "name": "ECDSAInvalidSignature",
      "type": "error"
    },
    {
      "inputs": [
        {
          "internalType": "uint256",
          "name": "length",
          "type": "uint256"
        }
      ],
      "name": "ECDSAInvalidSignatureLength",
      "type": "error"
    },
    {
      "inputs": [
        {
          "internalType": "bytes32",
          "name": "s",
          "type": "bytes32"
        }
      ],
      "name": "ECDSAInvalidSignatureS",
      "type": "error"
    },
    {
      "inputs": [
        {
          "internalType": "uint8",
          "name": "bits",
          "type": "uint8"
        },
        {
          "internalType": "uint256",
          "name": "value",
          "type": "uint256"
        }
      ],
      "name": "SafeCastOverflowedUintDowncast",
      "type": "error"
    },
    {
      "anonymous": false,
      "inputs": [
        {
          "indexed": false,
          "internalType": "bytes4",
          "name": "selector",
          "type": "bytes4"
        },
        {
          "indexed": false,
          "internalType": "uint256",
          "name": "allowedAfterTimestamp",
          "type": "uint256"
        },
        {
          "indexed": false,
          "internalType": "bytes",
          "name": "encodedCall",
          "type": "bytes"
        }
      ],
      "name": "GovernanceCallTimelocked",
      "type": "event"
    },
    {
      "anonymous": false,
      "inputs": [
        {
          "indexed": false,
          "internalType": "address",
          "name": "initialGovernance",
          "type": "address"
        }
      ],
      "name": "GovernanceInitialised",
      "type": "event"
    },
    {
      "anonymous": false,
      "inputs": [
        {
          "indexed": false,
          "internalType": "address",
          "name": "governanceSettings",
          "type": "address"
        }
      ],
      "name": "GovernedProductionModeEntered",
      "type": "event"
    },
    {
      "anonymous": false,
      "inputs": [
        {
          "indexed": false,
          "internalType": "uint24",
          "name": "rewardEpochId",
          "type": "uint24"
        },
        {
          "indexed": false,
          "internalType": "uint64",
          "name": "timestamp",
          "type": "uint64"
        }
      ],
      "name": "RandomAcquisitionStarted",
      "type": "event"
    },
    {
      "anonymous": false,
      "inputs": [
        {
          "indexed": false,
          "internalType": "uint24",
          "name": "rewardEpochId",
          "type": "uint24"
        },
        {
          "indexed": false,
          "internalType": "uint32",
          "name": "startVotingRoundId",
          "type": "uint32"
        },
        {
          "indexed": false,
          "internalType": "uint64",
          "name": "timestamp",
          "type": "uint64"
        }
      ],
      "name": "RewardEpochStarted",
      "type": "event"
    },
    {
      "anonymous": false,
      "inputs": [
        {
          "indexed": false,
          "internalType": "uint24",
          "name": "rewardEpochId",
          "type": "uint24"
        },
        {
          "indexed": false,
          "internalType": "address",
          "name": "signingPolicyAddress",
          "type": "address"
        },
        {
          "indexed": false,
          "internalType": "address",
          "name": "voter",
          "type": "address"
        },
        {
          "indexed": false,
          "internalType": "bytes32",
          "name": "rewardsHash",
          "type": "bytes32"
        },
        {
          "indexed": false,
          "internalType": "uint256",
          "name": "noOfWeightBasedClaims",
          "type": "uint256"
        },
        {
          "indexed": false,
          "internalType": "uint64",
          "name": "timestamp",
          "type": "uint64"
        },
        {
          "indexed": false,
          "internalType": "bool",
          "name": "thresholdReached",
          "type": "bool"
        }
      ],
      "name": "RewardsSigned",
      "type": "event"
    },
    {
      "anonymous": false,
      "inputs": [
        {
          "indexed": false,
          "internalType": "uint24",
          "name": "rewardEpochId",
          "type": "uint24"
        },
        {
          "indexed": false,
          "internalType": "address",
          "name": "signingPolicyAddress",
          "type": "address"
        },
        {
          "indexed": false,
          "internalType": "address",
          "name": "voter",
          "type": "address"
        },
        {
          "indexed": false,
          "internalType": "uint64",
          "name": "timestamp",
          "type": "uint64"
        },
        {
          "indexed": false,
          "internalType": "bool",
          "name": "thresholdReached",
          "type": "bool"
        }
      ],
      "name": "SigningPolicySigned",
      "type": "event"
    },
    {
      "anonymous": false,
      "inputs": [
        {
          "indexed": false,
          "internalType": "bytes4",
          "name": "selector",
          "type": "bytes4"
        },
        {
          "indexed": false,
          "internalType": "uint256",
          "name": "timestamp",
          "type": "uint256"
        }
      ],
      "name": "TimelockedGovernanceCallCanceled",
      "type": "event"
    },
    {
      "anonymous": false,
      "inputs": [
        {
          "indexed": false,
          "internalType": "bytes4",
          "name": "selector",
          "type": "bytes4"
        },
        {
          "indexed": false,
          "internalType": "uint256",
          "name": "timestamp",
          "type": "uint256"
        }
      ],
      "name": "TimelockedGovernanceCallExecuted",
      "type": "event"
    },
    {
      "anonymous": false,
      "inputs": [
        {
          "indexed": false,
          "internalType": "uint24",
          "name": "rewardEpochId",
          "type": "uint24"
        },
        {
          "indexed": false,
          "internalType": "address",
          "name": "signingPolicyAddress",
          "type": "address"
        },
        {
          "indexed": false,
          "internalType": "address",
          "name": "voter",
          "type": "address"
        },
        {
          "indexed": false,
          "internalType": "bytes32",
          "name": "uptimeVoteHash",
          "type": "bytes32"
        },
        {
          "indexed": false,
          "internalType": "uint64",
          "name": "timestamp",
          "type": "uint64"
        },
        {
          "indexed": false,
          "internalType": "bool",
          "name": "thresholdReached",
          "type": "bool"
        }
      ],
      "name": "UptimeVoteSigned",
      "type": "event"
    },
    {
      "anonymous": false,
      "inputs": [
        {
          "indexed": false,
          "internalType": "uint24",
          "name": "rewardEpochId",
          "type": "uint24"
        },
        {
          "indexed": false,
          "internalType": "uint64",
          "name": "votePowerBlock",
          "type": "uint64"
        },
        {
          "indexed": false,
          "internalType": "uint64",
          "name": "timestamp",
          "type": "uint64"
        }
      ],
      "name": "VotePowerBlockSelected",
      "type": "event"
    },
    {
      "inputs": [
        {
          "internalType": "bytes4",
          "name": "_selector",
          "type": "bytes4"
        }
      ],
      "name": "cancelGovernanceCall",
      "outputs": [],
      "stateMutability": "nonpayable",
      "type": "function"
    },
    {
      "inputs": [
        {
          "internalType": "uint64",
          "name": "_signingPolicyThresholdPPM",
          "type": "uint64"
        },
        {
          "internalType": "uint64",
          "name": "_signingPolicyMinNumberOfVoters",
          "type": "uint64"
        }
      ],
      "name": "changeSigningPolicySettings",
      "outputs": [],
      "stateMutability": "nonpayable",
      "type": "function"
    },
    {
      "inputs": [],
      "name": "currentRewardEpochExpectedEndTs",
      "outputs": [
        {
          "internalType": "uint64",
          "name": "",
          "type": "uint64"
        }
      ],
      "stateMutability": "view",
      "type": "function"
    },
    {
      "inputs": [],
      "name": "daemonize",
      "outputs": [
        {
          "internalType": "bool",
          "name": "",
          "type": "bool"
        }
      ],
      "stateMutability": "nonpayable",
      "type": "function"
    },
    {
      "inputs": [
        {
          "internalType": "bytes4",
          "name": "_selector",
          "type": "bytes4"
        }
      ],
      "name": "executeGovernanceCall",
      "outputs": [],
      "stateMutability": "nonpayable",
      "type": "function"
    },
    {
      "inputs": [],
      "name": "firstVotingRoundStartTs",
      "outputs": [
        {
          "internalType": "uint64",
          "name": "",
          "type": "uint64"
        }
      ],
      "stateMutability": "view",
      "type": "function"
    },
    {
      "inputs": [],
      "name": "flareDaemon",
      "outputs": [
        {
          "internalType": "address",
          "name": "",
          "type": "address"
        }
      ],
      "stateMutability": "view",
      "type": "function"
    },
    {
      "inputs": [],
      "name": "getAddressUpdater",
      "outputs": [
        {
          "internalType": "address",
          "name": "_addressUpdater",
          "type": "address"
        }
      ],
      "stateMutability": "view",
      "type": "function"
    },
    {
      "inputs": [],
      "name": "getContractName",
      "outputs": [
        {
          "internalType": "string",
          "name": "",
          "type": "string"
        }
      ],
      "stateMutability": "pure",
      "type": "function"
    },
    {
      "inputs": [],
      "name": "getCurrentRandom",
      "outputs": [
        {
          "internalType": "uint256",
          "name": "_currentRandom",
          "type": "uint256"
        }
      ],
      "stateMutability": "view",
      "type": "function"
    },
    {
      "inputs": [],
      "name": "getCurrentRandomWithQuality",
      "outputs": [
        {
          "internalType": "uint256",
          "name": "_currentRandom",
          "type": "uint256"
        },
        {
          "internalType": "bool",
          "name": "_secureRandom",
          "type": "bool"
        }
      ],
      "stateMutability": "view",
      "type": "function"
    },
    {
      "inputs": [],
      "name": "getCurrentRewardEpochId",
      "outputs": [
        {
          "internalType": "uint24",
          "name": "_currentRewardEpochId",
          "type": "uint24"
        }
      ],
      "stateMutability": "view",
      "type": "function"
    },
    {
      "inputs": [
        {
          "internalType": "uint24",
          "name": "_rewardEpochId",
          "type": "uint24"
        }
      ],
      "name": "getRandomAcquisitionInfo",
      "outputs": [
        {
          "internalType": "uint64",
          "name": "_randomAcquisitionStartTs",
          "type": "uint64"
        },
        {
          "internalType": "uint64",
          "name": "_randomAcquisitionStartBlock",
          "type": "uint64"
        },
        {
          "internalType": "uint64",
          "name": "_randomAcquisitionEndTs",
          "type": "uint64"
        },
        {
          "internalType": "uint64",
          "name": "_randomAcquisitionEndBlock",
          "type": "uint64"
        }
      ],
      "stateMutability": "view",
      "type": "function"
    },
    {
      "inputs": [],
      "name": "getRewardEpochSwitchoverTriggerContracts",
      "outputs": [
        {
          "internalType": "contract IRewardEpochSwitchoverTrigger[]",
          "name": "",
          "type": "address[]"
        }
      ],
      "stateMutability": "view",
      "type": "function"
    },
    {
      "inputs": [
        {
          "internalType": "uint24",
          "name": "_rewardEpochId",
          "type": "uint24"
        }
      ],
      "name": "getRewardsSignInfo",
      "outputs": [
        {
          "internalType": "uint64",
          "name": "_rewardsSignStartTs",
          "type": "uint64"
        },
        {
          "internalType": "uint64",
          "name": "_rewardsSignStartBlock",
          "type": "uint64"
        },
        {
          "internalType": "uint64",
          "name": "_rewardsSignEndTs",
          "type": "uint64"
        },
        {
          "internalType": "uint64",
          "name": "_rewardsSignEndBlock",
          "type": "uint64"
        }
      ],
      "stateMutability": "view",
      "type": "function"
    },
    {
      "inputs": [
        {
          "internalType": "uint256",
          "name": "_rewardEpochId",
          "type": "uint256"
        }
      ],
      "name": "getSeed",
      "outputs": [
        {
          "internalType": "uint256",
          "name": "",
          "type": "uint256"
        }
      ],
      "stateMutability": "view",
      "type": "function"
    },
    {
      "inputs": [
        {
          "internalType": "uint24",
          "name": "_rewardEpochId",
          "type": "uint24"
        }
      ],
      "name": "getSigningPolicySignInfo",
      "outputs": [
        {
          "internalType": "uint64",
          "name": "_signingPolicySignStartTs",
          "type": "uint64"
        },
        {
          "internalType": "uint64",
          "name": "_signingPolicySignStartBlock",
          "type": "uint64"
        },
        {
          "internalType": "uint64",
          "name": "_signingPolicySignEndTs",
          "type": "uint64"
        },
        {
          "internalType": "uint64",
          "name": "_signingPolicySignEndBlock",
          "type": "uint64"
        }
      ],
      "stateMutability": "view",
      "type": "function"
    },
    {
      "inputs": [
        {
          "internalType": "uint256",
          "name": "_rewardEpochId",
          "type": "uint256"
        }
      ],
      "name": "getStartVotingRoundId",
      "outputs": [
        {
          "internalType": "uint32",
          "name": "",
          "type": "uint32"
        }
      ],
      "stateMutability": "view",
      "type": "function"
    },
    {
      "inputs": [
        {
          "internalType": "uint256",
          "name": "_rewardEpochId",
          "type": "uint256"
        }
      ],
      "name": "getThreshold",
      "outputs": [
        {
          "internalType": "uint16",
          "name": "",
          "type": "uint16"
        }
      ],
      "stateMutability": "view",
      "type": "function"
    },
    {
      "inputs": [
        {
          "internalType": "uint256",
          "name": "_rewardEpochId",
          "type": "uint256"
        }
      ],
      "name": "getVotePowerBlock",
      "outputs": [
        {
          "internalType": "uint64",
          "name": "_votePowerBlock",
          "type": "uint64"
        }
      ],
      "stateMutability": "view",
      "type": "function"
    },
    {
      "inputs": [
        {
          "internalType": "uint256",
          "name": "_rewardEpochId",
          "type": "uint256"
        }
      ],
      "name": "getVoterRegistrationData",
      "outputs": [
        {
          "internalType": "uint256",
          "name": "_votePowerBlock",
          "type": "uint256"
        },
        {
          "internalType": "bool",
          "name": "_enabled",
          "type": "bool"
        }
      ],
      "stateMutability": "view",
      "type": "function"
    },
    {
      "inputs": [
        {
          "internalType": "uint24",
          "name": "_rewardEpochId",
          "type": "uint24"
        },
        {
          "internalType": "address",
          "name": "_voter",
          "type": "address"
        }
      ],
      "name": "getVoterRewardsSignInfo",
      "outputs": [
        {
          "internalType": "uint64",
          "name": "_rewardsSignTs",
          "type": "uint64"
        },
        {
          "internalType": "uint64",
          "name": "_rewardsSignBlock",
          "type": "uint64"
        }
      ],
      "stateMutability": "view",
      "type": "function"
    },
    {
      "inputs": [
        {
          "internalType": "uint24",
          "name": "_rewardEpochId",
          "type": "uint24"
        },
        {
          "internalType": "address",
          "name": "_voter",
          "type": "address"
        }
      ],
      "name": "getVoterSigningPolicySignInfo",
      "outputs": [
        {
          "internalType": "uint64",
          "name": "_signingPolicySignTs",
          "type": "uint64"
        },
        {
          "internalType": "uint64",
          "name": "_signingPolicySignBlock",
          "type": "uint64"
        }
      ],
      "stateMutability": "view",
      "type": "function"
    },
    {
      "inputs": [
        {
          "internalType": "uint24",
          "name": "_rewardEpochId",
          "type": "uint24"
        },
        {
          "internalType": "address",
          "name": "_voter",
          "type": "address"
        }
      ],
      "name": "getVoterUptimeVoteSignInfo",
      "outputs": [
        {
          "internalType": "uint64",
          "name": "_rewardsSignTs",
          "type": "uint64"
        },
        {
          "internalType": "uint64",
          "name": "_rewardsSignBlock",
          "type": "uint64"
        }
      ],
      "stateMutability": "view",
      "type": "function"
    },
    {
      "inputs": [],
      "name": "governance",
      "outputs": [
        {
          "internalType": "address",
          "name": "",
          "type": "address"
        }
      ],
      "stateMutability": "view",
      "type": "function"
    },
    {
      "inputs": [],
      "name": "governanceSettings",
      "outputs": [
        {
          "internalType": "contract IGovernanceSettings",
          "name": "",
          "type": "address"
        }
      ],
      "stateMutability": "view",
      "type": "function"
    },
    {
      "inputs": [
        {
          "internalType": "contract IGovernanceSettings",
          "name": "_governanceSettings",
          "type": "address"
        },
        {
          "internalType": "address",
          "name": "_initialGovernance",
          "type": "address"
        }
      ],
      "name": "initialise",
      "outputs": [],
      "stateMutability": "nonpayable",
      "type": "function"
    },
    {
      "inputs": [
        {
          "internalType": "address",
          "name": "_address",
          "type": "address"
        }
      ],
      "name": "isExecutor",
      "outputs": [
        {
          "internalType": "bool",
          "name": "",
          "type": "bool"
        }
      ],
      "stateMutability": "view",
      "type": "function"
    },
    {
      "inputs": [],
      "name": "isVoterRegistrationEnabled",
      "outputs": [
        {
          "internalType": "bool",
          "name": "",
          "type": "bool"
        }
      ],
      "stateMutability": "view",
      "type": "function"
    },
    {
      "inputs": [],
      "name": "lastInitialisedVotingRoundId",
      "outputs": [
        {
          "internalType": "uint64",
          "name": "",
          "type": "uint64"
        }
      ],
      "stateMutability": "view",
      "type": "function"
    },
    {
      "inputs": [],
      "name": "newSigningPolicyInitializationStartSeconds",
      "outputs": [
        {
          "internalType": "uint64",
          "name": "",
          "type": "uint64"
        }
      ],
      "stateMutability": "view",
      "type": "function"
    },
    {
      "inputs": [
        {
          "internalType": "uint256",
          "name": "",
          "type": "uint256"
        }
      ],
      "name": "noOfWeightBasedClaims",
      "outputs": [
        {
          "internalType": "uint256",
          "name": "",
          "type": "uint256"
        }
      ],
      "stateMutability": "view",
      "type": "function"
    },
    {
      "inputs": [],
      "name": "productionMode",
      "outputs": [
        {
          "internalType": "bool",
          "name": "",
          "type": "bool"
        }
      ],
      "stateMutability": "view",
      "type": "function"
    },
    {
      "inputs": [],
      "name": "relay",
      "outputs": [
        {
          "internalType": "contract Relay",
          "name": "",
          "type": "address"
        }
      ],
      "stateMutability": "view",
      "type": "function"
    },
    {
      "inputs": [],
      "name": "rewardEpochDurationSeconds",
      "outputs": [
        {
          "internalType": "uint64",
          "name": "",
          "type": "uint64"
        }
      ],
      "stateMutability": "view",
      "type": "function"
    },
    {
      "inputs": [],
      "name": "rewardEpochIdToExpireNext",
      "outputs": [
        {
          "internalType": "uint24",
          "name": "",
          "type": "uint24"
        }
      ],
      "stateMutability": "view",
      "type": "function"
    },
    {
      "inputs": [],
      "name": "rewardEpochsStartTs",
      "outputs": [
        {
          "internalType": "uint64",
          "name": "",
          "type": "uint64"
        }
      ],
      "stateMutability": "view",
      "type": "function"
    },
    {
      "inputs": [
        {
          "internalType": "uint256",
          "name": "",
          "type": "uint256"
        }
      ],
      "name": "rewardsHash",
      "outputs": [
        {
          "internalType": "bytes32",
          "name": "",
          "type": "bytes32"
        }
      ],
      "stateMutability": "view",
      "type": "function"
    },
    {
      "inputs": [
        {
          "internalType": "contract IRewardEpochSwitchoverTrigger[]",
          "name": "_contracts",
          "type": "address[]"
        }
      ],
      "name": "setRewardEpochSwitchoverTriggerContracts",
      "outputs": [],
      "stateMutability": "nonpayable",
      "type": "function"
    },
    {
      "inputs": [
        {
          "internalType": "uint24",
          "name": "_rewardEpochId",
          "type": "uint24"
        },
        {
          "internalType": "uint64",
          "name": "_noOfWeightBasedClaims",
          "type": "uint64"
        },
        {
          "internalType": "bytes32",
          "name": "_rewardsHash",
          "type": "bytes32"
        }
      ],
      "name": "setRewardsHash",
      "outputs": [],
      "stateMutability": "nonpayable",
      "type": "function"
    },
    {
      "inputs": [
        {
          "internalType": "contract IVoterRegistrationTrigger",
          "name": "_contract",
          "type": "address"
        }
      ],
      "name": "setVoterRegistrationTriggerContract",
      "outputs": [],
      "stateMutability": "nonpayable",
      "type": "function"
    },
    {
      "inputs": [
        {
          "internalType": "uint24",
          "name": "_rewardEpochId",
          "type": "uint24"
        },
        {
          "internalType": "bytes32",
          "name": "_newSigningPolicyHash",
          "type": "bytes32"
        },
        {
          "components": [
            {
              "internalType": "uint8",
              "name": "v",
              "type": "uint8"
            },
            {
              "internalType": "bytes32",
              "name": "r",
              "type": "bytes32"
            },
            {
              "internalType": "bytes32",
              "name": "s",
              "type": "bytes32"
            }
          ],
          "internalType": "struct FlareSystemManager.Signature",
          "name": "_signature",
          "type": "tuple"
        }
      ],
      "name": "signNewSigningPolicy",
      "outputs": [],
      "stateMutability": "nonpayable",
      "type": "function"
    },
    {
      "inputs": [
        {
          "internalType": "uint24",
          "name": "_rewardEpochId",
          "type": "uint24"
        },
        {
          "internalType": "uint64",
          "name": "_noOfWeightBasedClaims",
          "type": "uint64"
        },
        {
          "internalType": "bytes32",
          "name": "_rewardsHash",
          "type": "bytes32"
        },
        {
          "components": [
            {
              "internalType": "uint8",
              "name": "v",
              "type": "uint8"
            },
            {
              "internalType": "bytes32",
              "name": "r",
              "type": "bytes32"
            },
            {
              "internalType": "bytes32",
              "name": "s",
              "type": "bytes32"
            }
          ],
          "internalType": "struct FlareSystemManager.Signature",
          "name": "_signature",
          "type": "tuple"
        }
      ],
      "name": "signRewards",
      "outputs": [],
      "stateMutability": "nonpayable",
      "type": "function"
    },
    {
      "inputs": [
        {
          "internalType": "uint24",
          "name": "_rewardEpochId",
          "type": "uint24"
        },
        {
          "internalType": "bytes32",
          "name": "_uptimeVoteHash",
          "type": "bytes32"
        },
        {
          "components": [
            {
              "internalType": "uint8",
              "name": "v",
              "type": "uint8"
            },
            {
              "internalType": "bytes32",
              "name": "r",
              "type": "bytes32"
            },
            {
              "internalType": "bytes32",
              "name": "s",
              "type": "bytes32"
            }
          ],
          "internalType": "struct FlareSystemManager.Signature",
          "name": "_signature",
          "type": "tuple"
        }
      ],
      "name": "signUptimeVote",
      "outputs": [],
      "stateMutability": "nonpayable",
      "type": "function"
    },
    {
      "inputs": [],
      "name": "signingPolicyMinNumberOfVoters",
      "outputs": [
        {
          "internalType": "uint64",
          "name": "",
          "type": "uint64"
        }
      ],
      "stateMutability": "view",
      "type": "function"
    },
    {
      "inputs": [],
      "name": "signingPolicyThresholdPPM",
      "outputs": [
        {
          "internalType": "uint64",
          "name": "",
          "type": "uint64"
        }
      ],
      "stateMutability": "view",
      "type": "function"
    },
    {
      "inputs": [],
      "name": "submission",
      "outputs": [
        {
          "internalType": "contract Submission",
          "name": "",
          "type": "address"
        }
      ],
      "stateMutability": "view",
      "type": "function"
    },
    {
      "inputs": [],
      "name": "switchToFallbackMode",
      "outputs": [
        {
          "internalType": "bool",
          "name": "",
          "type": "bool"
        }
      ],
      "stateMutability": "pure",
      "type": "function"
    },
    {
      "inputs": [],
      "name": "switchToProductionMode",
      "outputs": [],
      "stateMutability": "nonpayable",
      "type": "function"
    },
    {
      "inputs": [
        {
          "internalType": "bytes4",
          "name": "",
          "type": "bytes4"
        }
      ],
      "name": "timelockedCalls",
      "outputs": [
        {
          "internalType": "uint256",
          "name": "allowedAfterTimestamp",
          "type": "uint256"
        },
        {
          "internalType": "bytes",
          "name": "encodedCall",
          "type": "bytes"
        }
      ],
      "stateMutability": "view",
      "type": "function"
    },
    {
      "inputs": [
        {
          "internalType": "bytes32[]",
          "name": "_contractNameHashes",
          "type": "bytes32[]"
        },
        {
          "internalType": "address[]",
          "name": "_contractAddresses",
          "type": "address[]"
        }
      ],
      "name": "updateContractAddresses",
      "outputs": [],
      "stateMutability": "nonpayable",
      "type": "function"
    },
    {
      "inputs": [
        {
          "internalType": "uint256",
          "name": "",
          "type": "uint256"
        }
      ],
      "name": "uptimeVoteHash",
      "outputs": [
        {
          "internalType": "bytes32",
          "name": "",
          "type": "bytes32"
        }
      ],
      "stateMutability": "view",
      "type": "function"
    },
    {
      "inputs": [],
      "name": "voterRegistrationMinDurationBlocks",
      "outputs": [
        {
          "internalType": "uint64",
          "name": "",
          "type": "uint64"
        }
      ],
      "stateMutability": "view",
      "type": "function"
    },
    {
      "inputs": [],
      "name": "voterRegistrationMinDurationSeconds",
      "outputs": [
        {
          "internalType": "uint64",
          "name": "",
          "type": "uint64"
        }
      ],
      "stateMutability": "view",
      "type": "function"
    },
    {
      "inputs": [],
      "name": "voterRegistrationTriggerContract",
      "outputs": [
        {
          "internalType": "contract IVoterRegistrationTrigger",
          "name": "",
          "type": "address"
        }
      ],
      "stateMutability": "view",
      "type": "function"
    },
    {
      "inputs": [],
      "name": "voterRegistry",
      "outputs": [
        {
          "internalType": "contract VoterRegistry",
          "name": "",
          "type": "address"
        }
      ],
      "stateMutability": "view",
      "type": "function"
    },
    {
      "inputs": [],
      "name": "votingEpochDurationSeconds",
      "outputs": [
        {
          "internalType": "uint64",
          "name": "",
          "type": "uint64"
        }
      ],
      "stateMutability": "view",
      "type": "function"
    }
  ],
  "bytecode": "0x6101406040523480156200001257600080fd5b50604051620055bf380380620055bf8339810160408190526200003591620006a8565b8588886200004482826200049e565b50620000709050817f714f205b2abd25bef1d06a1af944e38c113fe6160375c4e1d6d5cf28848e771955565b506001600160a01b038516620000c15760405162461bcd60e51b8152602060048201526011602482015270666c617265206461656d6f6e207a65726f60781b60448201526064015b60405180910390fd5b600084606001516001600160401b031611620001205760405162461bcd60e51b815260206004820152601a60248201527f7265776172642065706f6368206475726174696f6e207a65726f0000000000006044820152606401620000b8565b600084602001516001600160401b0316116200017f5760405162461bcd60e51b815260206004820152601a60248201527f766f74696e672065706f6368206475726174696f6e207a65726f0000000000006044820152606401620000b8565b620f42408460e001516001600160401b03161115620001d65760405162461bcd60e51b81526020600482015260126024820152710e8d0e4cae6d0ded8c840e8dede40d0d2ced60731b6044820152606401620000b8565b60008461010001516001600160401b031611620002245760405162461bcd60e51b815260206004820152600b60248201526a7a65726f20766f7465727360a81b6044820152606401620000b8565b6000836001600160401b0316116200026d5760405162461bcd60e51b815260206004820152600b60248201526a7a65726f20626c6f636b7360a81b6044820152606401620000b8565b6001600160a01b03851660805283516001600160401b0390811660e05260208501805190911661010052516040850151620002a9919062000834565b8451620002b7919062000862565b6001600160401b031660a05260208401516060850151620002d9919062000834565b6001600160401b0390811660c081815260808701516007805460a08a0151938a015160e08b01519387166001600160801b0319909216919091176801000000000000000094871694909402939093176001600160801b0316600160801b938616939093026001600160c01b031692909217600160c01b91851691909102179055610100860151600880546001600160401b031916918416919091179055908416610120526200038a8360016200088c565b62ffffff166200039b919062000834565b60a051620003aa919062000862565b60088054600160401b600160801b031916680100000000000000006001600160401b039384160217905562ffffff83166000908152600360205260409020600401805461ffff60601b19166c0100000000000000000000000061ffff85160217905560808501516200041e911642620008ab565b6008546801000000000000000090046001600160401b031611620004905760405162461bcd60e51b815260206004820152602260248201527f7265776172642065706f636820656e64206e6f7420696e207468652066757475604482015261726560f01b6064820152608401620000b8565b5050505050505050620008c7565b600054600160a01b900460ff1615620004fa5760405162461bcd60e51b815260206004820152601460248201527f696e697469616c6973656420213d2066616c73650000000000000000000000006044820152606401620000b8565b6001600160a01b038216620005525760405162461bcd60e51b815260206004820152601860248201527f676f7665726e616e63652073657474696e6773207a65726f00000000000000006044820152606401620000b8565b6001600160a01b0381166200059d5760405162461bcd60e51b815260206004820152601060248201526f5f676f7665726e616e6365207a65726f60801b6044820152606401620000b8565b600080546001600160a01b038481166001600160a81b031990921691909117600160a01b17909155600180549183166001600160a01b0319909216821790556040519081527f9789733827840833afc031fb2ef9ab6894271f77bad2085687cf4ae5c7bee4db9060200160405180910390a15050565b6001600160a01b03811681146200062957600080fd5b50565b60405161012081016001600160401b03811182821017156200065e57634e487b7160e01b600052604160045260246000fd5b60405290565b80516001600160401b03811681146200067c57600080fd5b919050565b805162ffffff811681146200067c57600080fd5b805161ffff811681146200067c57600080fd5b600080600080600080600080888a03610200811215620006c757600080fd5b8951620006d48162000613565b60208b0151909950620006e78162000613565b60408b0151909850620006fa8162000613565b60608b01519097506200070d8162000613565b9550610120607f1982018113156200072457600080fd5b6200072e6200062c565b91506200073e60808c0162000664565b82526200074e60a08c0162000664565b60208301526200076160c08c0162000664565b60408301526200077460e08c0162000664565b606083015261010062000789818d0162000664565b60808401526200079b828d0162000664565b60a0840152620007af6101408d0162000664565b60c0840152620007c36101608d0162000664565b60e0840152620007d76101808d0162000664565b90830152509350620007ed6101a08a0162000664565b9250620007fe6101c08a0162000681565b91506200080f6101e08a0162000695565b90509295985092959890939650565b634e487b7160e01b600052601160045260246000fd5b6001600160401b038181168382160280821691908281146200085a576200085a6200081e565b505092915050565b6001600160401b038181168382160190808211156200088557620008856200081e565b5092915050565b62ffffff8181168382160190808211156200088557620008856200081e565b80820180821115620008c157620008c16200081e565b92915050565b60805160a05160c05160e0516101005161012051614c626200095d60003960006135620152600081816106080152818161336401528181613d0a0152613d3f015260008181610a8f0152818161338e0152613cd201526000818161072301528181611b4901528181611c8101526133d901526000818161083201526134030152600081816107f101526117840152614c626000f3fe608060405234801561001057600080fd5b50600436106103835760003560e01c8063a1077532116101de578063d2e9ad711161010f578063e17f212e116100ad578063ef88bf131161007c578063ef88bf1314610acb578063f21d630414610ade578063f5a9838314610af8578063f5f5ba7214610b0057600080fd5b8063e17f212e14610a6f578063e22fdece14610a83578063e8d0e70a14610a8a578063ed54fd6314610ab157600080fd5b8063dac4319d116100e9578063dac4319d146109e2578063dc5a422514610a36578063debfda3014610a49578063e0d4ea3714610a5c57600080fd5b8063d2e9ad7114610969578063d3466911146109ba578063d89601fd146109da57600080fd5b8063b00c0b761161017c578063b6c25af011610156578063b6c25af0146108d8578063be60040e14610929578063c26322161461093c578063d10e807f1461094f57600080fd5b8063b00c0b761461089f578063b556fae3146108b2578063b59589d1146108c557600080fd5b8063a84f5770116101b8578063a84f577014610854578063a978fb6b1461086e578063ab25ac5b14610876578063aec84ab61461088957600080fd5b8063a1077532146107ec578063a219fe0214610813578063a578f55b1461082d57600080fd5b80635ff27079116102b8578063705626971161025657806385f3c9c91161023057806385f3c9c91461071e57806388e49ac7146107455780638f8f9f3a146107585780639a759097146107d957600080fd5b806370562697146106b957806374e6310e146106d557806375d2187a146106f657600080fd5b806367fc40291161029257806367fc4029146106785780636aeffddc1461068b5780636b4c7bd61461069e5780636d0e8c34146106b157600080fd5b80635ff270791461063257806362354e0314610645578063647006e21461065857600080fd5b8063388a4c3d1161032557806346831531116102ff57806346831531146105b35780635267a15d146105c85780635a832088146106035780635aa6e6751461062a57600080fd5b8063388a4c3d146104f957806341c05ad5146105275780634615d5e91461058d57600080fd5b80631916e915116103615780631916e915146103e257806324eb64de146104a857806327549e4b146104bb5780632e3645f8146104ce57600080fd5b806306886f411461038857806309505d251461039d5780631703a788146103ba575b600080fd5b61039b610396366004613f73565b610b34565b005b6103a5610ccb565b60405190151581526020015b60405180910390f35b6103cd6103c8366004613fe7565b610d08565b604080519283529015156020830152016103b1565b6104886103f0366004614028565b62ffffff919091166000818152600360209081526040808320600683528184205460058452828520548351808601979097528684019190915260608087019190915282518087039091018152608090950182528451948301949094208352600890930181528282206001600160a01b03909416825260019093019092529020546001600160401b0380821692600160401b9092041690565b604080516001600160401b039384168152929091166020830152016103b1565b61039b6104b636600461405f565b610d38565b61039b6104c9366004614093565b610d93565b6008546104e1906001600160401b031681565b6040516001600160401b0390911681526020016103b1565b610519610507366004613fe7565b60066020526000908152604090205481565b6040519081526020016103b1565b610488610535366004614028565b62ffffff90911660009081526003602090815260408083206004835281842054845260070182528083206001600160a01b0390941683526001909301905220546001600160401b0380821692600160401b9092041690565b6105a061059b366004613fe7565b610e8e565b60405161ffff90911681526020016103b1565b6105bb610eef565b6040516103b191906140cf565b7f714f205b2abd25bef1d06a1af944e38c113fe6160375c4e1d6d5cf28848e7719545b6040516001600160a01b0390911681526020016103b1565b6104e17f000000000000000000000000000000000000000000000000000000000000000081565b6105eb610f51565b61039b610640366004614110565b610fed565b6000546105eb906001600160a01b031681565b610519610666366004613fe7565b60056020526000908152604090205481565b61039b610686366004614110565b61126d565b6007546104e1906001600160401b031681565b61039b6106ac36600461414c565b611349565b6103a5611777565b6106c1611f58565b60405162ffffff90911681526020016103b1565b6106e86106e3366004614110565b611f87565b6040516103b19291906141d9565b610709610704366004613fe7565b61202c565b60405163ffffffff90911681526020016103b1565b6104e17f000000000000000000000000000000000000000000000000000000000000000081565b600c546105eb906001600160a01b031681565b6107a66107663660046141fa565b62ffffff166000908152600360205260409020546001600160401b0380821692600160401b8304821692600160801b8104831692600160c01b9091041690565b604080516001600160401b03958616815293851660208501529184169183019190915290911660608201526080016103b1565b600a546105eb906001600160a01b031681565b6105eb7f000000000000000000000000000000000000000000000000000000000000000081565b6007546104e190600160401b90046001600160401b031681565b6104e17f000000000000000000000000000000000000000000000000000000000000000081565b6008546104e190600160801b90046001600160401b031681565b6103cd61208b565b61039b610884366004614215565b6120a0565b6008546106c190600160c01b900462ffffff1681565b61039b6108ad366004614340565b612597565b61039b6108c03660046143f8565b612672565b600b546105eb906001600160a01b031681565b6107a66108e63660046141fa565b62ffffff166000908152600360205260409020600201546001600160401b0380821692600160401b8304821692600160801b8104831692600160c01b9091041690565b6009546105eb906001600160a01b031681565b6104e161094a366004613fe7565b612772565b6007546104e190600160801b90046001600160401b031681565b6107a66109773660046141fa565b62ffffff166000908152600360205260409020600101546001600160401b0380821692600160401b8304821692600160801b8104831692600160c01b9091041690565b6105196109c8366004613fe7565b60046020526000908152604090205481565b6105196127ee565b6104886109f0366004614028565b62ffffff90911660009081526003602090815260408083206001600160a01b0390941683526006909301905220546001600160401b0380821692600160401b9092041690565b61039b610a4436600461414c565b612800565b6103a5610a5736600461405f565b612c31565b610519610a6a366004613fe7565b612cba565b6000546103a590600160a81b900460ff1681565b60006103a5565b6104e17f000000000000000000000000000000000000000000000000000000000000000081565b6008546104e190600160401b90046001600160401b031681565b61039b610ad936600461442b565b612d0d565b6007546104e190600160c01b90046001600160401b031681565b61039b612e73565b6040805180820182526012815271233630b932a9bcb9ba32b6a6b0b730b3b2b960711b602082015290516103b19190614449565b600054600160b01b900460ff1680610b565750600054600160a81b900460ff16155b15610cbc57610b63612f39565b610b6f600d6000613f0a565b8060005b81811015610cb6576000848483818110610b8f57610b8f61445c565b9050602002016020810190610ba4919061405f565b90506000610bb3836001614488565b90505b83811015610c5357858582818110610bd057610bd061445c565b9050602002016020810190610be5919061405f565b6001600160a01b0316826001600160a01b031603610c415760405162461bcd60e51b81526020600482015260146024820152736475706c69636174656420636f6e74726163747360601b60448201526064015b60405180910390fd5b80610c4b8161449b565b915050610bb6565b50600d80546001810182556000919091527fd7b6990105719101dabeb77144f2a3385c8033acd3af97e9423a695e81ad1eb50180546001600160a01b0319166001600160a01b039290921691909117905580610cae8161449b565b915050610b73565b50505050565b610cc7600036612f73565b5050565b600080610cd6611f58565b610ce19060016144b4565b62ffffff166000818152600360205260409020909150610d029082906130bf565b91505090565b600081815260036020526040812060048101546001600160401b03169190610d319084906130bf565b9050915091565b600054600160b01b900460ff1680610d5a5750600054600160a81b900460ff16155b15610d8557610d67612f39565b600c80546001600160a01b0319166001600160a01b03831617905550565b610d90600036612f73565b50565b600054600160b01b900460ff1680610db55750600054600160a81b900460ff16155b15610e7e57610dc2612f39565b610dca611f58565b62ffffff168362ffffff1610610df25760405162461bcd60e51b8152600401610c38906144d7565b62ffffff83166000908152600560209081526040808320849055600690915290206001600160401b03831690557f80df246a47153e3604b0026fcf53ec85ea48178efd4f3cad24f9a1e1da2dd52a83610e49610f51565b610e51610f51565b8486610e5c426131d9565b6001604051610e719796959493929190614504565b60405180910390a1505050565b610e89600036612f73565b505050565b60008181526003602052604081206001015482906001600160401b03168203610ec95760405162461bcd60e51b8152600401610c3890614554565b600083815260036020526040902060040154600160601b900461ffff1691505b50919050565b6060600d805480602002602001604051908101604052809291908181526020018280548015610f4757602002820191906000526020600020905b81546001600160a01b03168152600190910190602001808311610f29575b5050505050905090565b60008054600160a81b900460ff16610f7357506001546001600160a01b031690565b60008054906101000a90046001600160a01b03166001600160a01b031663732524946040518163ffffffff1660e01b8152600401602060405180830381865afa158015610fc4573d6000803e3d6000fd5b505050506040513d601f19601f82011682018060405250810190610fe89190614589565b905090565b610ff633612c31565b6110325760405162461bcd60e51b815260206004820152600d60248201526c37b7363c9032bc32b1baba37b960991b6044820152606401610c38565b6001600160e01b031981166000908152600260205260408120805490910361109c5760405162461bcd60e51b815260206004820152601a60248201527f74696d656c6f636b3a20696e76616c69642073656c6563746f720000000000006044820152606401610c38565b80544210156110ed5760405162461bcd60e51b815260206004820152601960248201527f74696d656c6f636b3a206e6f7420616c6c6f77656420796574000000000000006044820152606401610c38565b60008160010180546110fe906145a6565b80601f016020809104026020016040519081016040528092919081815260200182805461112a906145a6565b80156111775780601f1061114c57610100808354040283529160200191611177565b820191906000526020600020905b81548152906001019060200180831161115a57829003601f168201915b505050506001600160e01b03198516600090815260026020526040812081815592935090506111a96001830182613f28565b50506000805460ff60b01b1916600160b01b17815560405130906111ce9084906145da565b6000604051808303816000865af19150503d806000811461120b576040519150601f19603f3d011682016040523d82523d6000602084013e611210565b606091505b50506000805460ff60b01b19169055604080516001600160e01b0319871681524260208201529192507fa7326b57fc9cfe267aaea5e7f0b01757154d265620a0585819416ee9ddd2c438910160405180910390a1610cb681613213565b611275613230565b6001600160e01b0319811660009081526002602052604081205490036112dd5760405162461bcd60e51b815260206004820152601a60248201527f74696d656c6f636b3a20696e76616c69642073656c6563746f720000000000006044820152606401610c38565b604080516001600160e01b0319831681524260208201527f7735b2391c38a81419c513e30ca578db7158eadd7101511b23e221c654d19cf8910160405180910390a16001600160e01b03198116600090815260026020526040812081815590610e896001830182613f28565b60006003816113596001876145f6565b62ffffff1681526020810191909152604001600020905082158015906113865750826113848561328a565b145b6113d25760405162461bcd60e51b815260206004820152601f60248201527f6e6577207369676e696e6720706f6c696379206861736820696e76616c6964006044820152606401610c38565b6001810154600160801b90046001600160401b03161561143e5760405162461bcd60e51b815260206004820152602160248201527f6e6577207369676e696e6720706f6c69637920616c7265616479207369676e656044820152601960fa1b6064820152608401610c38565b6000611449846132fc565b9050600061146d8261145e6020870187614612565b8660200135876040013561332f565b60095490915060009081906001600160a01b0316638c64572861149160018b6145f6565b6040516001600160e01b031960e084901b16815262ffffff90911660048201526001600160a01b03861660248201526044016040805180830381865afa1580156114df573d6000803e3d6000fd5b505050506040513d601f19601f820116820180604052508101906115039190614647565b90925090506001600160a01b03821661152e5760405162461bcd60e51b8152600401610c3890614673565b6001600160a01b03821660009081526006860160205260409020546001600160401b03161561159f5760405162461bcd60e51b815260206004820152601e60248201527f7369676e696e67206164647265737320616c7265616479207369676e656400006044820152606401610c38565b60405180604001604052806115b3426131d9565b6001600160401b031681526020016115ca436131d9565b6001600160401b039081169091526001600160a01b0384166000908152600688016020908152604082208451815495909201518416600160401b026001600160801b031990951691909316179290921790556004860154600587015461ffff600160601b9092048216916116409185911661469e565b61ffff1611905080156116c257611656426131d9565b8660010160106101000a8154816001600160401b0302191690836001600160401b03160217905550611687436131d9565b6001870180546001600160401b0392909216600160c01b026001600160c01b0390921691909117905560058601805461ffff191690556116f8565b6005860180548391906000906116dd90849061ffff1661469e565b92506101000a81548161ffff021916908361ffff1602179055505b7f154b0214ae62d8a5548c1eac25fabd87c38b04932a217732e1022f3118da67f3898585611725426131d9565b6040805162ffffff9590951685526001600160a01b03938416602086015291909216908301526001600160401b03166060820152821515608082015260a00160405180910390a1505050505050505050565b6000336001600160a01b037f000000000000000000000000000000000000000000000000000000000000000016146117e55760405162461bcd60e51b815260206004820152601160248201527037b7363c90333630b932903230b2b6b7b760791b6044820152606401610c38565b60006117ef61335d565b905060006117fb6133d0565b600754600854919250611822916001600160401b0391821691600160401b909104166146b9565b6001600160401b03164210611d0657600061183e8260016144b4565b9050600061184b8261328a565b03611b2f5762ffffff81166000908152600360205260408120805490916001600160401b03909116900361198657611882426131d9565b815467ffffffffffffffff19166001600160401b03919091161781556118a7436131d9565b81546001600160401b0391909116600160401b0267ffffffffffffffff60401b19909116178155600954604051635213182360e01b815262ffffff841660048201526001600160a01b0390911690635213182390602401600060405180830381600087803b15801561191857600080fd5b505af115801561192c573d6000803e3d6000fd5b505050507ff9991783e5e480e42d9a54d3f35f4321857f8f0ebeb3742d326dce28b11267088261195b426131d9565b6040805162ffffff90931683526001600160401b0390911660208301520160405180910390a1611b2d565b8054600160801b90046001600160401b0316600003611ab45760008060006119ac613462565b865492955090935091506001600160401b039081169082161180156119ce5750815b15611aac576119dc426131d9565b84546001600160401b0391909116600160801b0267ffffffffffffffff60801b19909116178455611a0c436131d9565b84546001600160401b0391909116600160c01b026001600160c01b03909116178455611a3885846134f1565b600c546001600160a01b031615611aac57600c54604051637b83fb0960e11b815262ffffff871660048201526001600160a01b039091169063f707f61290602401600060405180830381600087803b158015611a9357600080fd5b505af1158015611aa7573d6000803e3d6000fd5b505050505b505050611b2d565b611ac38262ffffff16826130bf565b611b2d57611ad0426131d9565b60018201805467ffffffffffffffff19166001600160401b0392909216919091179055611afc436131d9565b8160010160086101000a8154816001600160401b0302191690836001600160401b03160217905550611b2d8261365f565b505b611b3881613849565b15611d0457600854600090611b7e907f000000000000000000000000000000000000000000000000000000000000000090600160401b90046001600160401b03166146d9565b6008805467ffffffffffffffff60401b1916600160401b6001600160401b03841681029190911790915562ffffff84166000908152600360205260409020600401549192507f4abb62ab1e4c42a11b90e4e45b92af1274f74cc634b759518e8c99e000d8be6d918491900463ffffffff16611bf8426131d9565b6040805162ffffff909416845263ffffffff90921660208401526001600160401b03169082015260600160405180910390a1600d5460005b81811015611d0057600d8181548110611c4b57611c4b61445c565b6000918252602090912001546040516391f2567960e01b815262ffffff861660048201526001600160401b0380861660248301527f00000000000000000000000000000000000000000000000000000000000000001660448201526001600160a01b03909116906391f2567990606401600060405180830381600087803b158015611cd557600080fd5b505af1158015611ce9573d6000803e3d6000fd5b505050508080611cf89061449b565b915050611c30565b5050505b505b600854600160801b90046001600160401b031663ffffffff83161115611f4e576008805467ffffffffffffffff60801b191663ffffffff8416600160801b02179055600954604051637c2cb92160e01b815262ffffff83166004820152606091829182916001600160a01b031690637c2cb92190602401600060405180830381865afa158015611d9a573d6000803e3d6000fd5b505050506040513d6000823e601f3d908101601f19168201604052611dc2919081019061475d565b600954604051635b0dabfd60e11b815262ffffff871660048201529193506001600160a01b03169063b61b57fa90602401600060405180830381865afa158015611e10573d6000803e3d6000fd5b505050506040513d6000823e601f3d908101601f19168201604052611e38919081019061475d565b90508362ffffff16611e486133d0565b62ffffff161115611ede576009546001600160a01b0316637c2cb921611e6f8660016144b4565b6040516001600160e01b031960e084901b16815262ffffff9091166004820152602401600060405180830381865afa158015611eaf573d6000803e3d6000fd5b505050506040513d6000823e601f3d908101601f19168201604052611ed7919081019061475d565b9250611ee2565b8192505b600a5460405163f8ae8a2f60e01b81526001600160a01b039091169063f8ae8a2f90611f189086908690829087906004016147d5565b600060405180830381600087803b158015611f3257600080fd5b505af1158015611f46573d6000803e3d6000fd5b505050505050505b6001925050505b90565b6000611f626133d0565b9050611f77611f728260016144b4565b613849565b15611f5557610fe86001826144b4565b60026020526000908152604090208054600182018054919291611fa9906145a6565b80601f0160208091040260200160405190810160405280929190818152602001828054611fd5906145a6565b80156120225780601f10611ff757610100808354040283529160200191612022565b820191906000526020600020905b81548152906001019060200180831161200557829003601f168201915b5050505050905082565b60008181526003602052604081206001015482906001600160401b031682036120675760405162461bcd60e51b8152600401610c3890614554565b5050600090815260036020526040902060040154600160401b900463ffffffff1690565b600080612096613462565b5090939092509050565b62ffffff841660009081526003602052604090206120bc611f58565b62ffffff168562ffffff16106120e45760405162461bcd60e51b8152600401610c38906144d7565b6001810154600160801b90046001600160401b03166000036121525760405162461bcd60e51b815260206004820152602160248201527f6e6577207369676e696e6720706f6c696379206e6f74207369676e65642079656044820152601d60fa1b6064820152608401610c38565b62ffffff85166000908152600460205260409020546121b35760405162461bcd60e51b815260206004820152601f60248201527f757074696d6520766f74652068617368206e6f74207369676e656420796574006044820152606401610c38565b62ffffff8516600090815260056020526040902054156122155760405162461bcd60e51b815260206004820152601b60248201527f72657761726473206861736820616c7265616479207369676e656400000000006044820152606401610c38565b6040805162ffffff871660208201526001600160401b03861691810191909152606081018490526000906080016040516020818303038152906040528051906020012090506000612265826132fc565b905060006122898261227a6020880188614612565b8760200135886040013561332f565b60095460405163118c8ae560e31b815262ffffff8b1660048201526001600160a01b03808416602483015292935060009283921690638c645728906044016040805180830381865afa1580156122e3573d6000803e3d6000fd5b505050506040513d601f19601f820116820180604052508101906123079190614647565b90925090506001600160a01b0382166123325760405162461bcd60e51b8152600401610c3890614673565b600085815260088701602090815260408083206001600160a01b03861684526001019091529020546001600160401b0316156123a75760405162461bcd60e51b81526020600482015260146024820152731d9bdd195c88185b1c9958591e481cda59db995960621b6044820152606401610c38565b60405180604001604052806123bb426131d9565b6001600160401b031681526020016123d2436131d9565b6001600160401b03908116909152600087815260088901602081815260408084206001600160a01b038916855260018101835290842086518154978401518716600160401b026001600160801b03199098169616959095179590951790935560048a01548983529252915461ffff600160601b9092048216916124579185911661469e565b61ffff1611905080156125005761246d426131d9565b8760020160106101000a8154816001600160401b0302191690836001600160401b0316021790555061249e436131d9565b6002880180546001600160c01b0316600160c01b6001600160401b039384160217905562ffffff8c1660009081526005602090815260408083208d905560068252808320938e1690935588825260088a01905220805461ffff1916905561253f565b60008681526008880160205260408120805484929061252490849061ffff1661469e565b92506101000a81548161ffff021916908361ffff1602179055505b7f80df246a47153e3604b0026fcf53ec85ea48178efd4f3cad24f9a1e1da2dd52a8b85858c8e61256e426131d9565b876040516125829796959493929190614504565b60405180910390a15050505050505050505050565b7f714f205b2abd25bef1d06a1af944e38c113fe6160375c4e1d6d5cf28848e7719546001600160a01b0316336001600160a01b0316146126105760405162461bcd60e51b815260206004820152601460248201527337b7363c9030b2323932b9b9903ab83230ba32b960611b6044820152606401610c38565b61266861264483836040518060400160405280600e81526020016d20b2323932b9b9aab83230ba32b960911b8152506138b9565b7f714f205b2abd25bef1d06a1af944e38c113fe6160375c4e1d6d5cf28848e771955565b610cc78282613994565b600054600160b01b900460ff16806126945750600054600160a81b900460ff16155b15610cbc576126a1612f39565b620f4240826001600160401b031611156126f25760405162461bcd60e51b81526020600482015260126024820152710e8d0e4cae6d0ded8c840e8dede40d0d2ced60731b6044820152606401610c38565b6000816001600160401b0316116127395760405162461bcd60e51b815260206004820152600b60248201526a7a65726f20766f7465727360a81b6044820152606401610c38565b600780546001600160c01b0316600160c01b6001600160401b03948516021790556008805467ffffffffffffffff191691909216179055565b6000818152600360205260408120600401546001600160401b0316908190036127e95760405162461bcd60e51b8152602060048201526024808201527f766f746520706f77657220626c6f636b206e6f7420696e697469616c697a6564604482015263081e595d60e21b6064820152608401610c38565b919050565b60006127f8613462565b509092915050565b62ffffff8316600090815260036020526040902061281c611f58565b62ffffff168462ffffff16106128445760405162461bcd60e51b8152600401610c38906144d7565b62ffffff8416600090815260046020526040902054156128a65760405162461bcd60e51b815260206004820152601f60248201527f757074696d6520766f7465206861736820616c7265616479207369676e6564006044820152606401610c38565b6040805162ffffff8616602082015290810184905260009060600160405160208183030381529060405280519060200120905060006128e4826132fc565b905060006128f98261227a6020880188614612565b60095460405163118c8ae560e31b815262ffffff8a1660048201526001600160a01b03808416602483015292935060009283921690638c645728906044016040805180830381865afa158015612953573d6000803e3d6000fd5b505050506040513d601f19601f820116820180604052508101906129779190614647565b90925090506001600160a01b0382166129a25760405162461bcd60e51b8152600401610c3890614673565b600088815260078701602090815260408083206001600160a01b03861684526001019091529020546001600160401b031615612a175760405162461bcd60e51b81526020600482015260146024820152731d9bdd195c88185b1c9958591e481cda59db995960621b6044820152606401610c38565b6040518060400160405280612a2b426131d9565b6001600160401b03168152602001612a42436131d9565b6001600160401b0390811690915260008a815260078901602081815260408084206001600160a01b038916855260018101835290842086518154978401518716600160401b026001600160801b03199098169616959095179590951790935560048a01548c83529252915461ffff600160601b909204821691612ac79185911661469e565b61ffff161190508015612b6b57612add426131d9565b60028801805467ffffffffffffffff19166001600160401b0392909216919091179055612b09436131d9565b6002880180546001600160401b0392909216600160401b0267ffffffffffffffff60401b1990921691909117905562ffffff8a1660009081526004602090815260408083208c90558b835260078a019091529020805461ffff19169055612baa565b600089815260078801602052604081208054849290612b8f90849061ffff1661469e565b92506101000a81548161ffff021916908361ffff1602179055505b7f5506337d1266599f8b64675a1c8321701657ca2f2f70be0e0c58302b6c22e7978a85858c612bd8426131d9565b6040805162ffffff9690961686526001600160a01b039485166020870152929093168483015260608401526001600160401b03909116608083015283151560a0830152519081900360c00190a150505050505050505050565b60008054600160a01b900460ff168015612cb45750600054604051630debfda360e41b81526001600160a01b0384811660048301529091169063debfda3090602401602060405180830381865afa158015612c90573d6000803e3d6000fd5b505050506040513d601f19601f82011682018060405250810190612cb4919061483d565b92915050565b60008181526003602052604081206001015482906001600160401b03168203612cf55760405162461bcd60e51b8152600401610c3890614554565b50506000908152600360208190526040909120015490565b600054600160a01b900460ff1615612d5e5760405162461bcd60e51b8152602060048201526014602482015273696e697469616c6973656420213d2066616c736560601b6044820152606401610c38565b6001600160a01b038216612db45760405162461bcd60e51b815260206004820152601860248201527f676f7665726e616e63652073657474696e6773207a65726f00000000000000006044820152606401610c38565b6001600160a01b038116612dfd5760405162461bcd60e51b815260206004820152601060248201526f5f676f7665726e616e6365207a65726f60801b6044820152606401610c38565b600080546001600160a01b038481166001600160a81b031990921691909117600160a01b17909155600180549183166001600160a01b0319909216821790556040519081527f9789733827840833afc031fb2ef9ab6894271f77bad2085687cf4ae5c7bee4db9060200160405180910390a15050565b612e7b613230565b600054600160a81b900460ff1615612ed55760405162461bcd60e51b815260206004820152601a60248201527f616c726561647920696e2070726f64756374696f6e206d6f64650000000000006044820152606401610c38565b600180546001600160a01b031916905560008054600160a81b60ff60a81b198216179091556040516001600160a01b0390911681527f83af113638b5422f9e977cebc0aaf0eaf2188eb9a8baae7f9d46c42b33a1560c9060200160405180910390a1565b600054600160b01b900460ff1615612f6957333014612f5a57612f5a614858565b6000805460ff60b01b19169055565b612f71613230565b565b612f7b613230565b6000805460408051636221a54b60e01b81529051853593926001600160a01b031691636221a54b9160048083019260209291908290030181865afa158015612fc7573d6000803e3d6000fd5b505050506040513d601f19601f82011682018060405250810190612feb919061486e565b90506000612ff98242614488565b9050604051806040016040528082815260200186868080601f01602080910402602001604051908101604052809392919081815260200183838082843760009201829052509390945250506001600160e01b0319861681526002602090815260409091208351815590830151909150600182019061307790826148d5565b509050507fed948300a3694aa01d4a6b258bfd664350193d770c0b51f8387277f6d83ea3b6838287876040516130b09493929190614994565b60405180910390a15050505050565b8054600090600160801b90046001600160401b0316158015906131d257506007548254613106916001600160401b03600160401b909104811691600160801b9004166146d9565b6001600160401b03164211158061314e57506007548254613141916001600160401b03600160801b909104811691600160c01b9004166146d9565b6001600160401b03164311155b806131d25750600854600954604051630da7a50d60e21b8152600481018690526001600160401b03909216916001600160a01b039091169063369e943490602401602060405180830381865afa1580156131ac573d6000803e3d6000fd5b505050506040513d601f19601f820116820180604052508101906131d0919061486e565b105b9392505050565b60006001600160401b0382111561320f57604080516306dfcc6560e41b8152600481019190915260248101839052604401610c38565b5090565b3d604051818101604052816000823e821561322c578181f35b8181fd5b613238610f51565b6001600160a01b0316336001600160a01b031614612f715760405162461bcd60e51b815260206004820152600f60248201526e6f6e6c7920676f7665726e616e636560881b6044820152606401610c38565b600b54604051630c85bf0760e01b815262ffffff831660048201526000916001600160a01b031690630c85bf0790602401602060405180830381865afa1580156132d8573d6000803e3d6000fd5b505050506040513d601f19601f82011682018060405250810190612cb4919061486e565b7f19457468657265756d205369676e6564204d6573736167653a0a3332000000006000908152601c91909152603c902090565b60008060008061334188888888613a89565b9250925092506133518282613b58565b50909695505050505050565b6000610fe87f00000000000000000000000000000000000000000000000000000000000000006001600160401b03167f00000000000000000000000000000000000000000000000000000000000000006001600160401b0316426133c191906149da565b6133cb9190614a03565b613c11565b6000610fe860017f00000000000000000000000000000000000000000000000000000000000000006001600160401b03167f000000000000000000000000000000000000000000000000000000000000000060088054906101000a90046001600160401b031661344091906146b9565b6001600160401b03166134539190614a03565b61345d91906149da565b613c42565b6000806000600b60009054906101000a90046001600160a01b03166001600160a01b031663dbdff2c16040518163ffffffff1660e01b8152600401606060405180830381865afa1580156134ba573d6000803e3d6000fd5b505050506040513d601f19601f820116820180604052508101906134de9190614a17565b919590945063ffffffff90911692509050565b62ffffff8216600090815260036020819052604082209190816135156001876145f6565b62ffffff168152602081019190915260400160009081205483546001600160401b03600160401b9283900481169450919004169082810361359b5761359461358f836001600160401b03167f00000000000000000000000000000000000000000000000000000000000000006001600160401b0316613c72565b6131d9565b90506135a8565b6135a583836146b9565b90505b60006135bd6001600160401b03831687614a60565b905060006135ca826131d9565b6135d490856146b9565b60048701805467ffffffffffffffff19166001600160401b0383161790556003870188905590507ff21722dbe044a7cea0f6d81c871cae750971e36c9dd10999e46f2b46f26ac7ff8882613627426131d9565b6040805162ffffff90941684526001600160401b03928316602085015291169082015260600160405180910390a15050505050505050565b62ffffff81166000818152600360209081526040808320815160c0810183529283018490529082018390526060808301939093526080820183905260a0820192909252918252906136ae613c88565b63ffffffff16602082015260095460405163c452e47f60e01b815262ffffff851660048201526000916001600160a01b03169063c452e47f906024016000604051808303816000875af1158015613709573d6000803e3d6000fd5b505050506040513d6000823e601f3d908101601f191682016040526137319190810190614a74565b60a0850191909152608084019190915260075461ffff90911691506137749061376f908390600160c01b90046001600160401b0316620f4240613d75565b613db5565b61ffff166040838101829052600385015460608501526020840151600480870180546dffffffffffff00000000000000001916600160401b63ffffffff9094169390930261ffff60601b191692909217600160601b909402939093179055600b549051638353412560e01b81526001600160a01b03909116916383534125916137ff91869101614b3c565b6020604051808303816000875af115801561381e573d6000803e3d6000fd5b505050506040513d601f19601f82011682018060405250810190613842919061486e565b5050505050565b600854600090600160401b90046001600160401b03164210801590613877575060006138748361328a565b14155b8015612cb4575062ffffff8216600090815260036020526040902060040154600160401b900463ffffffff166138ab61335d565b63ffffffff16101592915050565b600080826040516020016138cd9190614449565b6040516020818303038152906040528051906020012090506000805b8651811015613945578681815181106139045761390461445c565b60200260200101518303613933578581815181106139245761392461445c565b60200260200101519150613945565b8061393d8161449b565b9150506138e9565b506001600160a01b03811661398b5760405162461bcd60e51b815260206004820152600c60248201526b61646472657373207a65726f60a01b6044820152606401610c38565b95945050505050565b6139c482826040518060400160405280600d81526020016c566f746572526567697374727960981b8152506138b9565b600960006101000a8154816001600160a01b0302191690836001600160a01b03160217905550613a1782826040518060400160405280600a81526020016929bab136b4b9b9b4b7b760b11b8152506138b9565b600a60006101000a8154816001600160a01b0302191690836001600160a01b03160217905550613a6582826040518060400160405280600581526020016452656c617960d81b8152506138b9565b600b80546001600160a01b0319166001600160a01b03929092169190911790555050565b600080807f7fffffffffffffffffffffffffffffff5d576e7357a4501ddfe92f46681b20a0841115613ac45750600091506003905082613b4e565b604080516000808252602082018084528a905260ff891692820192909252606081018790526080810186905260019060a0016020604051602081039080840390855afa158015613b18573d6000803e3d6000fd5b5050604051601f1901519150506001600160a01b038116613b4457506000925060019150829050613b4e565b9250600091508190505b9450945094915050565b6000826003811115613b6c57613b6c614be2565b03613b75575050565b6001826003811115613b8957613b89614be2565b03613ba75760405163f645eedf60e01b815260040160405180910390fd5b6002826003811115613bbb57613bbb614be2565b03613bdc5760405163fce698f760e01b815260048101829052602401610c38565b6003826003811115613bf057613bf0614be2565b03610cc7576040516335e2f38360e21b815260048101829052602401610c38565b600063ffffffff82111561320f576040516306dfcc6560e41b81526020600482015260248101839052604401610c38565b600062ffffff82111561320f576040516306dfcc6560e41b81526018600482015260248101839052604401610c38565b6000818310613c8157816131d2565b5090919050565b600854600090600160401b90046001600160401b0316428111613cc557613cae426131d9565b613cb99060016146d9565b6001600160401b031690505b613cf86001600160401b037f000000000000000000000000000000000000000000000000000000000000000016826149da565b9050613d306133cb6001600160401b037f00000000000000000000000000000000000000000000000000000000000000001683614a03565b9150613d656001600160401b037f00000000000000000000000000000000000000000000000000000000000000001682614a60565b1561320f57610d02600183614bf8565b600080613d83858585613de4565b905060008380613d9557613d956149ed565b85870990508015613da95781600101613dab565b815b9695505050505050565b600061ffff82111561320f576040516306dfcc6560e41b81526010600482015260248101839052604401610c38565b6000808211613e285760405162461bcd60e51b815260206004820152601060248201526f4469766973696f6e206279207a65726f60801b6044820152606401610c38565b83600003613e38575060006131d2565b83830283858281613e4b57613e4b6149ed565b0403613e6957828181613e6057613e606149ed565b049150506131d2565b506000613e768386614a03565b90506000613e848487614a60565b90506000613e928587614a03565b90506000613ea08688614a60565b905085613ead8285614c15565b613eb79190614a03565b613ec18385614c15565b613ecb8387614c15565b88613ed68689614c15565b613ee09190614c15565b613eea9190614488565b613ef49190614488565b613efe9190614488565b98975050505050505050565b5080546000825590600052602060002090810190610d909190613f5e565b508054613f34906145a6565b6000825580601f10613f44575050565b601f016020900490600052602060002090810190610d9091905b5b8082111561320f5760008155600101613f5f565b60008060208385031215613f8657600080fd5b82356001600160401b0380821115613f9d57600080fd5b818501915085601f830112613fb157600080fd5b813581811115613fc057600080fd5b8660208260051b8501011115613fd557600080fd5b60209290920196919550909350505050565b600060208284031215613ff957600080fd5b5035919050565b803562ffffff811681146127e957600080fd5b6001600160a01b0381168114610d9057600080fd5b6000806040838503121561403b57600080fd5b61404483614000565b9150602083013561405481614013565b809150509250929050565b60006020828403121561407157600080fd5b81356131d281614013565b80356001600160401b03811681146127e957600080fd5b6000806000606084860312156140a857600080fd5b6140b184614000565b92506140bf6020850161407c565b9150604084013590509250925092565b6020808252825182820181905260009190848201906040850190845b818110156133515783516001600160a01b0316835292840192918401916001016140eb565b60006020828403121561412257600080fd5b81356001600160e01b0319811681146131d257600080fd5b600060608284031215610ee957600080fd5b600080600060a0848603121561416157600080fd5b61416a84614000565b925060208401359150614180856040860161413a565b90509250925092565b60005b838110156141a457818101518382015260200161418c565b50506000910152565b600081518084526141c5816020860160208601614189565b601f01601f19169290920160200192915050565b8281526040602082015260006141f260408301846141ad565b949350505050565b60006020828403121561420c57600080fd5b6131d282614000565b60008060008060c0858703121561422b57600080fd5b61423485614000565b93506142426020860161407c565b925060408501359150614258866060870161413a565b905092959194509250565b634e487b7160e01b600052604160045260246000fd5b604051601f8201601f191681016001600160401b03811182821017156142a1576142a1614263565b604052919050565b60006001600160401b038211156142c2576142c2614263565b5060051b60200190565b600082601f8301126142dd57600080fd5b813560206142f26142ed836142a9565b614279565b82815260059290921b8401810191818101908684111561431157600080fd5b8286015b8481101561433557803561432881614013565b8352918301918301614315565b509695505050505050565b6000806040838503121561435357600080fd5b82356001600160401b038082111561436a57600080fd5b818501915085601f83011261437e57600080fd5b8135602061438e6142ed836142a9565b82815260059290921b840181019181810190898411156143ad57600080fd5b948201945b838610156143cb578535825294820194908201906143b2565b965050860135925050808211156143e157600080fd5b506143ee858286016142cc565b9150509250929050565b6000806040838503121561440b57600080fd5b6144148361407c565b91506144226020840161407c565b90509250929050565b6000806040838503121561443e57600080fd5b823561404481614013565b6020815260006131d260208301846141ad565b634e487b7160e01b600052603260045260246000fd5b634e487b7160e01b600052601160045260246000fd5b80820180821115612cb457612cb4614472565b6000600182016144ad576144ad614472565b5060010190565b62ffffff8181168382160190808211156144d0576144d0614472565b5092915050565b602080825260139082015272195c1bd8da081b9bdd08195b991959081e595d606a1b604082015260600190565b62ffffff9790971687526001600160a01b03958616602088015293909416604086015260608501919091526001600160401b03908116608085015290911660a0830152151560c082015260e00190565b6020808252818101527f7265776172642065706f6368206e6f7420696e697469616c697a656420796574604082015260600190565b60006020828403121561459b57600080fd5b81516131d281614013565b600181811c908216806145ba57607f821691505b602082108103610ee957634e487b7160e01b600052602260045260246000fd5b600082516145ec818460208701614189565b9190910192915050565b62ffffff8281168282160390808211156144d0576144d0614472565b60006020828403121561462457600080fd5b813560ff811681146131d257600080fd5b805161ffff811681146127e957600080fd5b6000806040838503121561465a57600080fd5b825161466581614013565b915061442260208401614635565b6020808252601190820152701cda59db985d1d5c99481a5b9d985b1a59607a1b604082015260600190565b61ffff8181168382160190808211156144d0576144d0614472565b6001600160401b038281168282160390808211156144d0576144d0614472565b6001600160401b038181168382160190808211156144d0576144d0614472565b600082601f83011261470a57600080fd5b8151602061471a6142ed836142a9565b82815260059290921b8401810191818101908684111561473957600080fd5b8286015b8481101561433557805161475081614013565b835291830191830161473d565b60006020828403121561476f57600080fd5b81516001600160401b0381111561478557600080fd5b6141f2848285016146f9565b600081518084526020808501945080840160005b838110156147ca5781516001600160a01b0316875295820195908201906001016147a5565b509495945050505050565b6080815260006147e86080830187614791565b82810360208401526147fa8187614791565b9050828103604084015261480e8186614791565b905082810360608401526148228185614791565b979650505050505050565b805180151581146127e957600080fd5b60006020828403121561484f57600080fd5b6131d28261482d565b634e487b7160e01b600052600160045260246000fd5b60006020828403121561488057600080fd5b5051919050565b601f821115610e8957600081815260208120601f850160051c810160208610156148ae5750805b601f850160051c820191505b818110156148cd578281556001016148ba565b505050505050565b81516001600160401b038111156148ee576148ee614263565b614902816148fc84546145a6565b84614887565b602080601f831160018114614937576000841561491f5750858301515b600019600386901b1c1916600185901b1785556148cd565b600085815260208120601f198616915b8281101561496657888601518255948401946001909101908401614947565b50858210156149845787850151600019600388901b60f8161c191681555b5050505050600190811b01905550565b63ffffffff60e01b8516815283602082015260606040820152816060820152818360808301376000818301608090810191909152601f909201601f191601019392505050565b81810381811115612cb457612cb4614472565b634e487b7160e01b600052601260045260246000fd5b600082614a1257614a126149ed565b500490565b600080600060608486031215614a2c57600080fd5b83519250614a3c6020850161482d565b9150604084015163ffffffff81168114614a5557600080fd5b809150509250925092565b600082614a6f57614a6f6149ed565b500690565b600080600060608486031215614a8957600080fd5b83516001600160401b0380821115614aa057600080fd5b614aac878388016146f9565b9450602091508186015181811115614ac357600080fd5b86019050601f81018713614ad657600080fd5b8051614ae46142ed826142a9565b81815260059190911b82018301908381019089831115614b0357600080fd5b928401925b82841015614b2857614b1984614635565b82529284019290840190614b08565b809650505050505061418060408501614635565b6000602080835262ffffff8451168184015263ffffffff81850151166040840152604084015161ffff8082166060860152606086015160808601526080860151915060c060a0860152614b9260e0860183614791565b60a0870151868203601f190160c0880152805180835290850193506000918501905b80831015614bd657845184168252938501936001929092019190850190614bb4565b50979650505050505050565b634e487b7160e01b600052602160045260246000fd5b63ffffffff8181168382160190808211156144d0576144d0614472565b8082028115828204841417612cb457612cb461447256fea264697066735822122050f0ce6fc3dfc03bd91abd9af0339fb65813075b57b5a1da6bef0212e152c1a864736f6c63430008140033",
  "linkReferences": {},
  "deployedLinkReferences": {}
}