{
  "_format": "hh-sol-artifact-1",
  "contractName": "FlareSystemCalculator",
  "sourceName": "contracts/protocol/implementation/FlareSystemCalculator.sol",
  "abi": [
    {
      "inputs": [
        {
          "internalType": "contract IGovernanceSettings",
          "name": "_governanceSettings",
          "type": "address"
        },
        {
          "internalType": "address",
          "name": "_initialGovernance",
          "type": "address"
        },
        {
          "internalType": "address",
          "name": "_addressUpdater",
          "type": "address"
        },
        {
          "internalType": "uint24",
          "name": "_wNatCapPPM",
          "type": "uint24"
        },
        {
          "internalType": "uint64",
          "name": "_signingPolicySignNonPunishableDurationSeconds",
          "type": "uint64"
        },
        {
          "internalType": "uint64",
          "name": "_signingPolicySignNonPunishableDurationBlocks",
          "type": "uint64"
        },
        {
          "internalType": "uint64",
          "name": "_signingPolicySignNoRewardsDurationBlocks",
          "type": "uint64"
        }
      ],
      "stateMutability": "nonpayable",
      "type": "constructor"
    },
    {
      "anonymous": false,
      "inputs": [
        {
          "indexed": false,
          "internalType": "bytes4",
          "name": "selector",
          "type": "bytes4"
        },
        {
          "indexed": false,
          "internalType": "uint256",
          "name": "allowedAfterTimestamp",
          "type": "uint256"
        },
        {
          "indexed": false,
          "internalType": "bytes",
          "name": "encodedCall",
          "type": "bytes"
        }
      ],
      "name": "GovernanceCallTimelocked",
      "type": "event"
    },
    {
      "anonymous": false,
      "inputs": [
        {
          "indexed": false,
          "internalType": "address",
          "name": "initialGovernance",
          "type": "address"
        }
      ],
      "name": "GovernanceInitialised",
      "type": "event"
    },
    {
      "anonymous": false,
      "inputs": [
        {
          "indexed": false,
          "internalType": "address",
          "name": "governanceSettings",
          "type": "address"
        }
      ],
      "name": "GovernedProductionModeEntered",
      "type": "event"
    },
    {
      "anonymous": false,
      "inputs": [
        {
          "indexed": false,
          "internalType": "bytes4",
          "name": "selector",
          "type": "bytes4"
        },
        {
          "indexed": false,
          "internalType": "uint256",
          "name": "timestamp",
          "type": "uint256"
        }
      ],
      "name": "TimelockedGovernanceCallCanceled",
      "type": "event"
    },
    {
      "anonymous": false,
      "inputs": [
        {
          "indexed": false,
          "internalType": "bytes4",
          "name": "selector",
          "type": "bytes4"
        },
        {
          "indexed": false,
          "internalType": "uint256",
          "name": "timestamp",
          "type": "uint256"
        }
      ],
      "name": "TimelockedGovernanceCallExecuted",
      "type": "event"
    },
    {
      "anonymous": false,
      "inputs": [
        {
          "indexed": false,
          "internalType": "address",
          "name": "voter",
          "type": "address"
        },
        {
          "indexed": false,
          "internalType": "uint24",
          "name": "rewardEpochId",
          "type": "uint24"
        },
        {
          "indexed": false,
          "internalType": "uint256",
          "name": "wNatWeight",
          "type": "uint256"
        },
        {
          "indexed": false,
          "internalType": "uint256",
          "name": "wNatCappedWeight",
          "type": "uint256"
        },
        {
          "indexed": false,
          "internalType": "bytes20[]",
          "name": "nodeIds",
          "type": "bytes20[]"
        },
        {
          "indexed": false,
          "internalType": "uint256[]",
          "name": "nodeWeights",
          "type": "uint256[]"
        },
        {
          "indexed": false,
          "internalType": "uint16",
          "name": "delegationFeeBIPS",
          "type": "uint16"
        }
      ],
      "name": "VoterRegistrationInfo",
      "type": "event"
    },
    {
      "inputs": [
        {
          "internalType": "uint24",
          "name": "_rewardEpochId",
          "type": "uint24"
        },
        {
          "internalType": "address",
          "name": "_voter",
          "type": "address"
        }
      ],
      "name": "calculateBurnFactorPPM",
      "outputs": [
        {
          "internalType": "uint256",
          "name": "",
          "type": "uint256"
        }
      ],
      "stateMutability": "view",
      "type": "function"
    },
    {
      "inputs": [
        {
          "internalType": "address",
          "name": "_voter",
          "type": "address"
        },
        {
          "internalType": "address",
          "name": "_delegationAddress",
          "type": "address"
        },
        {
          "internalType": "uint24",
          "name": "_rewardEpochId",
          "type": "uint24"
        },
        {
          "internalType": "uint256",
          "name": "_votePowerBlockNumber",
          "type": "uint256"
        }
      ],
      "name": "calculateRegistrationWeight",
      "outputs": [
        {
          "internalType": "uint256",
          "name": "_registrationWeight",
          "type": "uint256"
        }
      ],
      "stateMutability": "nonpayable",
      "type": "function"
    },
    {
      "inputs": [
        {
          "internalType": "bytes4",
          "name": "_selector",
          "type": "bytes4"
        }
      ],
      "name": "cancelGovernanceCall",
      "outputs": [],
      "stateMutability": "nonpayable",
      "type": "function"
    },
    {
      "inputs": [],
      "name": "entityManager",
      "outputs": [
        {
          "internalType": "contract EntityManager",
          "name": "",
          "type": "address"
        }
      ],
      "stateMutability": "view",
      "type": "function"
    },
    {
      "inputs": [
        {
          "internalType": "bytes4",
          "name": "_selector",
          "type": "bytes4"
        }
      ],
      "name": "executeGovernanceCall",
      "outputs": [],
      "stateMutability": "nonpayable",
      "type": "function"
    },
    {
      "inputs": [],
      "name": "flareSystemManager",
      "outputs": [
        {
          "internalType": "contract FlareSystemManager",
          "name": "",
          "type": "address"
        }
      ],
      "stateMutability": "view",
      "type": "function"
    },
    {
      "inputs": [],
      "name": "getAddressUpdater",
      "outputs": [
        {
          "internalType": "address",
          "name": "_addressUpdater",
          "type": "address"
        }
      ],
      "stateMutability": "view",
      "type": "function"
    },
    {
      "inputs": [],
      "name": "governance",
      "outputs": [
        {
          "internalType": "address",
          "name": "",
          "type": "address"
        }
      ],
      "stateMutability": "view",
      "type": "function"
    },
    {
      "inputs": [],
      "name": "governanceSettings",
      "outputs": [
        {
          "internalType": "contract IGovernanceSettings",
          "name": "",
          "type": "address"
        }
      ],
      "stateMutability": "view",
      "type": "function"
    },
    {
      "inputs": [
        {
          "internalType": "contract IGovernanceSettings",
          "name": "_governanceSettings",
          "type": "address"
        },
        {
          "internalType": "address",
          "name": "_initialGovernance",
          "type": "address"
        }
      ],
      "name": "initialise",
      "outputs": [],
      "stateMutability": "nonpayable",
      "type": "function"
    },
    {
      "inputs": [
        {
          "internalType": "address",
          "name": "_address",
          "type": "address"
        }
      ],
      "name": "isExecutor",
      "outputs": [
        {
          "internalType": "bool",
          "name": "",
          "type": "bool"
        }
      ],
      "stateMutability": "view",
      "type": "function"
    },
    {
      "inputs": [],
      "name": "pChainStakeMirror",
      "outputs": [
        {
          "internalType": "contract IPChainStakeMirror",
          "name": "",
          "type": "address"
        }
      ],
      "stateMutability": "view",
      "type": "function"
    },
    {
      "inputs": [],
      "name": "productionMode",
      "outputs": [
        {
          "internalType": "bool",
          "name": "",
          "type": "bool"
        }
      ],
      "stateMutability": "view",
      "type": "function"
    },
    {
      "inputs": [
        {
          "internalType": "uint24",
          "name": "_wNatCapPPM",
          "type": "uint24"
        }
      ],
      "name": "setWNatCapPPM",
      "outputs": [],
      "stateMutability": "nonpayable",
      "type": "function"
    },
    {
      "inputs": [],
      "name": "signingPolicySignNoRewardsDurationBlocks",
      "outputs": [
        {
          "internalType": "uint64",
          "name": "",
          "type": "uint64"
        }
      ],
      "stateMutability": "view",
      "type": "function"
    },
    {
      "inputs": [],
      "name": "signingPolicySignNonPunishableDurationBlocks",
      "outputs": [
        {
          "internalType": "uint64",
          "name": "",
          "type": "uint64"
        }
      ],
      "stateMutability": "view",
      "type": "function"
    },
    {
      "inputs": [],
      "name": "signingPolicySignNonPunishableDurationSeconds",
      "outputs": [
        {
          "internalType": "uint64",
          "name": "",
          "type": "uint64"
        }
      ],
      "stateMutability": "view",
      "type": "function"
    },
    {
      "inputs": [
        {
          "internalType": "uint256",
          "name": "x",
          "type": "uint256"
        }
      ],
      "name": "sqrt",
      "outputs": [
        {
          "internalType": "uint128",
          "name": "",
          "type": "uint128"
        }
      ],
      "stateMutability": "pure",
      "type": "function"
    },
    {
      "inputs": [],
      "name": "switchToProductionMode",
      "outputs": [],
      "stateMutability": "nonpayable",
      "type": "function"
    },
    {
      "inputs": [
        {
          "internalType": "bytes4",
          "name": "",
          "type": "bytes4"
        }
      ],
      "name": "timelockedCalls",
      "outputs": [
        {
          "internalType": "uint256",
          "name": "allowedAfterTimestamp",
          "type": "uint256"
        },
        {
          "internalType": "bytes",
          "name": "encodedCall",
          "type": "bytes"
        }
      ],
      "stateMutability": "view",
      "type": "function"
    },
    {
      "inputs": [
        {
          "internalType": "bytes32[]",
          "name": "_contractNameHashes",
          "type": "bytes32[]"
        },
        {
          "internalType": "address[]",
          "name": "_contractAddresses",
          "type": "address[]"
        }
      ],
      "name": "updateContractAddresses",
      "outputs": [],
      "stateMutability": "nonpayable",
      "type": "function"
    },
    {
      "inputs": [],
      "name": "voterRegistry",
      "outputs": [
        {
          "internalType": "contract VoterRegistry",
          "name": "",
          "type": "address"
        }
      ],
      "stateMutability": "view",
      "type": "function"
    },
    {
      "inputs": [],
      "name": "wNat",
      "outputs": [
        {
          "internalType": "contract IWNat",
          "name": "",
          "type": "address"
        }
      ],
      "stateMutability": "view",
      "type": "function"
    },
    {
      "inputs": [],
      "name": "wNatCapPPM",
      "outputs": [
        {
          "internalType": "uint24",
          "name": "",
          "type": "uint24"
        }
      ],
      "stateMutability": "view",
      "type": "function"
    },
    {
      "inputs": [],
      "name": "wNatDelegationFee",
      "outputs": [
        {
          "internalType": "contract WNatDelegationFee",
          "name": "",
          "type": "address"
        }
      ],
      "stateMutability": "view",
      "type": "function"
    }
  ],
  "bytecode": "0x60806040523480156200001157600080fd5b506040516200272c3803806200272c8339810160408190526200003491620002f5565b8487876200004382826200014a565b506200006f9050817f714f205b2abd25bef1d06a1af944e38c113fe6160375c4e1d6d5cf28848e771955565b50620f42408462ffffff161115620000ce5760405162461bcd60e51b815260206004820152601460248201527f5f774e617443617050504d20746f6f206869676800000000000000000000000060448201526064015b60405180910390fd5b600880546001600160401b03948516600160b81b02600160b81b600160f81b031962ffffff909716600160a01b0296909616600160a01b600160f81b031990911617949094179093556009805493831668010000000000000000026001600160801b03199094169190921617919091179055506200039c915050565b600054600160a01b900460ff1615620001a65760405162461bcd60e51b815260206004820152601460248201527f696e697469616c6973656420213d2066616c73650000000000000000000000006044820152606401620000c5565b6001600160a01b038216620001fe5760405162461bcd60e51b815260206004820152601860248201527f676f7665726e616e63652073657474696e6773207a65726f00000000000000006044820152606401620000c5565b6001600160a01b038116620002495760405162461bcd60e51b815260206004820152601060248201526f5f676f7665726e616e6365207a65726f60801b6044820152606401620000c5565b600080546001600160a01b038481166001600160a81b031990921691909117600160a01b17909155600180549183166001600160a01b0319909216821790556040519081527f9789733827840833afc031fb2ef9ab6894271f77bad2085687cf4ae5c7bee4db9060200160405180910390a15050565b6001600160a01b0381168114620002d557600080fd5b50565b80516001600160401b0381168114620002f057600080fd5b919050565b600080600080600080600060e0888a0312156200031157600080fd5b87516200031e81620002bf565b60208901519097506200033181620002bf565b60408901519096506200034481620002bf565b606089015190955062ffffff811681146200035e57600080fd5b93506200036e60808901620002d8565b92506200037e60a08901620002d8565b91506200038e60c08901620002d8565b905092959891949750929550565b61238080620003ac6000396000f3fe608060405234801561001057600080fd5b50600436106101735760003560e01c806387c5ab51116100de578063b00c0b7611610097578063debfda3011610071578063debfda30146103a0578063e17f212e146103c3578063ef88bf13146103d7578063f5a98383146103ea57600080fd5b8063b00c0b7614610367578063bb25d5df1461037a578063be60040e1461038d57600080fd5b806387c5ab51146102cf57806387fd1ba1146102e25780639350f57c1461030d57806396ca1472146103205780639dd1018c1461033a5780639edbf0071461035457600080fd5b80635ff27079116101305780635ff270791461023757806362354e031461024a57806362d9c89a1461025d578063677342ce1461027057806367fc40291461029b57806374e6310e146102ae57600080fd5b80633d7cf6081461017857806350b1d61b1461018d5780635267a15d146101bd57806357b58c5f146101e45780635aa6e675146102055780635edf75961461020d575b600080fd5b61018b610186366004611a21565b6103f2565b005b6004546101a0906001600160a01b031681565b6040516001600160a01b0390911681526020015b60405180910390f35b7f714f205b2abd25bef1d06a1af944e38c113fe6160375c4e1d6d5cf28848e7719546101a0565b6101f76101f2366004611a51565b6104a2565b6040519081526020016101b4565b6101a061086c565b60085461022390600160a01b900462ffffff1681565b60405162ffffff90911681526020016101b4565b61018b610245366004611aa0565b610908565b6000546101a0906001600160a01b031681565b6007546101a0906001600160a01b031681565b61028361027e366004611aca565b610b8e565b6040516001600160801b0390911681526020016101b4565b61018b6102a9366004611aa0565b610b9f565b6102c16102bc366004611aa0565b610c80565b6040516101b4929190611b33565b6005546101a0906001600160a01b031681565b6009546102f5906001600160401b031681565b6040516001600160401b0390911681526020016101b4565b6101f761031b366004611b54565b610d25565b6008546102f590600160b81b90046001600160401b031681565b6009546102f590600160401b90046001600160401b031681565b6008546101a0906001600160a01b031681565b61018b610375366004611c68565b610fc4565b6003546101a0906001600160a01b031681565b6006546101a0906001600160a01b031681565b6103b36103ae366004611d20565b6110a3565b60405190151581526020016101b4565b6000546103b390600160a81b900460ff1681565b61018b6103e5366004611d3d565b611126565b61018b61128c565b600054600160b01b900460ff16806104145750600054600160a81b900460ff16155b1561049457610421611352565b620f42408162ffffff1611156104755760405162461bcd60e51b81526020600482015260146024820152730beee9cc2e886c2e0a0a09a40e8dede40d0d2ced60631b60448201526064015b60405180910390fd5b6008805462ffffff60a01b1916600160a01b62ffffff84160217905550565b61049f60003661138c565b50565b6006546000906001600160a01b031633146104f55760405162461bcd60e51b81526020600482015260136024820152726f6e6c7920766f74657220726567697374727960681b604482015260640161046c565b60048054604051632da5f2f960e11b81526001600160a01b03888116938201939093526024810185905260009290911690635b4be5f290604401600060405180830381865afa15801561054c573d6000803e3d6000fd5b505050506040513d6000823e601f3d908101601f191682016040526105749190810190611d5b565b60075460405163a9e7019960e01b81529192506000916001600160a01b039091169063a9e70199906105ac9085908890600401611e51565b600060405180830381865afa1580156105c9573d6000803e3d6000fd5b505050506040513d6000823e601f3d908101601f191682016040526105f19190810190611e73565b905060005b81518110156106385781818151811061061157610611611ef8565b6020026020010151846106249190611f24565b93508061063081611f37565b9150506105f6565b50600854604051631f2d513560e11b8152600481018690526000916001600160a01b031690633e5aa26a90602401602060405180830381865afa158015610683573d6000803e3d6000fd5b505050506040513d601f19601f820116820180604052508101906106a79190611f50565b600854909150600090620f4240906106cb90600160a01b900462ffffff1684611f69565b6106d59190611f80565b600854604051631257fcdb60e31b81526001600160a01b038b81166004830152602482018a9052929350600092909116906392bfe6d890604401602060405180830381865afa15801561072c573d6000803e3d6000fd5b505050506040513d601f19601f820116820180604052508101906107509190611f50565b9050600061075e83836114d8565b60055460405163d700e0cf60e01b81526001600160a01b038e8116600483015262ffffff8d1660248301529293506000929091169063d700e0cf90604401602060405180830381865afa1580156107b9573d6000803e3d6000fd5b505050506040513d601f19601f820116820180604052508101906107dd9190611fa2565b90506107f16107ec838a611f24565b6114f0565b6001600160801b03169750610805886114f0565b610818906001600160801b031689611f69565b97507f553ba727fce4bab95d341c5ee4f447f233ef7509a64d40fe458e224c20cf9f9d8c8b85858b8b876040516108559796959493929190611fc6565b60405180910390a150505050505050949350505050565b60008054600160a81b900460ff1661088e57506001546001600160a01b031690565b60008054906101000a90046001600160a01b03166001600160a01b031663732524946040518163ffffffff1660e01b8152600401602060405180830381865afa1580156108df573d6000803e3d6000fd5b505050506040513d601f19601f820116820180604052508101906109039190612054565b905090565b610911336110a3565b61094d5760405162461bcd60e51b815260206004820152600d60248201526c37b7363c9032bc32b1baba37b960991b604482015260640161046c565b6001600160e01b03198116600090815260026020526040812080549091036109b75760405162461bcd60e51b815260206004820152601a60248201527f74696d656c6f636b3a20696e76616c69642073656c6563746f72000000000000604482015260640161046c565b8054421015610a085760405162461bcd60e51b815260206004820152601960248201527f74696d656c6f636b3a206e6f7420616c6c6f7765642079657400000000000000604482015260640161046c565b6000816001018054610a1990612071565b80601f0160208091040260200160405190810160405280929190818152602001828054610a4590612071565b8015610a925780601f10610a6757610100808354040283529160200191610a92565b820191906000526020600020905b815481529060010190602001808311610a7557829003601f168201915b505050506001600160e01b0319851660009081526002602052604081208181559293509050610ac460018301826119c0565b50506000805460ff60b01b1916600160b01b1781556040513090610ae99084906120ab565b6000604051808303816000865af19150503d8060008114610b26576040519150601f19603f3d011682016040523d82523d6000602084013e610b2b565b606091505b50506000805460ff60b01b19169055604080516001600160e01b0319871681524260208201529192507fa7326b57fc9cfe267aaea5e7f0b01757154d265620a0585819416ee9ddd2c438910160405180910390a1610b8881611671565b50505050565b6000610b99826114f0565b92915050565b610ba761168e565b6001600160e01b031981166000908152600260205260408120549003610c0f5760405162461bcd60e51b815260206004820152601a60248201527f74696d656c6f636b3a20696e76616c69642073656c6563746f72000000000000604482015260640161046c565b604080516001600160e01b0319831681524260208201527f7735b2391c38a81419c513e30ca578db7158eadd7101511b23e221c654d19cf8910160405180910390a16001600160e01b03198116600090815260026020526040812081815590610c7b60018301826119c0565b505050565b60026020526000908152604090208054600182018054919291610ca290612071565b80601f0160208091040260200160405190810160405280929190818152602001828054610cce90612071565b8015610d1b5780601f10610cf057610100808354040283529160200191610d1b565b820191906000526020600020905b815481529060010190602001808311610cfe57829003601f168201915b5050505050905082565b60035460405163d2e9ad7160e01b815262ffffff8416600482015260009182918291829182916001600160a01b03169063d2e9ad7190602401608060405180830381865afa158015610d7b573d6000803e3d6000fd5b505050506040513d601f19601f82011682018060405250810190610d9f91906120de565b9350935093509350816001600160401b0316600003610e005760405162461bcd60e51b815260206004820152601d60248201527f7369676e696e6720706f6c696379206e6f74207369676e656420796574000000604482015260640161046c565b600854600160b81b90046001600160401b0316610e1d8584612132565b6001600160401b031611610e38576000945050505050610b99565b600954600090610e51906001600160401b031685612159565b9050806001600160401b0316826001600160401b031611610e7a57600095505050505050610b99565b60035460405163dac4319d60e01b815262ffffff8a1660048201526001600160a01b038981166024830152600092169063dac4319d906044016040805180830381865afa158015610ecf573d6000803e3d6000fd5b505050506040513d601f19601f82011682018060405250810190610ef39190612179565b915050806001600160401b0316600003610f0a5750815b816001600160401b0316816001600160401b031611610f325760009650505050505050610b99565b6000610f3e8383612132565b6009546001600160401b039182169250600160401b9004168110610f6e57620f4240975050505050505050610b99565b600954600090600160401b90046001600160401b0316610f91620f424084611f69565b610f9b9190611f80565b9050620f4240610fab8280611f69565b610fb59190611f80565b9b9a5050505050505050505050565b7f714f205b2abd25bef1d06a1af944e38c113fe6160375c4e1d6d5cf28848e7719546001600160a01b0316336001600160a01b03161461103d5760405162461bcd60e51b815260206004820152601460248201527337b7363c9030b2323932b9b9903ab83230ba32b960611b604482015260640161046c565b61109561107183836040518060400160405280600e81526020016d20b2323932b9b9aab83230ba32b960911b8152506116e8565b7f714f205b2abd25bef1d06a1af944e38c113fe6160375c4e1d6d5cf28848e771955565b61109f82826117ba565b5050565b60008054600160a01b900460ff168015610b995750600054604051630debfda360e41b81526001600160a01b0384811660048301529091169063debfda3090602401602060405180830381865afa158015611102573d6000803e3d6000fd5b505050506040513d601f19601f82011682018060405250810190610b9991906121ac565b600054600160a01b900460ff16156111775760405162461bcd60e51b8152602060048201526014602482015273696e697469616c6973656420213d2066616c736560601b604482015260640161046c565b6001600160a01b0382166111cd5760405162461bcd60e51b815260206004820152601860248201527f676f7665726e616e63652073657474696e6773207a65726f0000000000000000604482015260640161046c565b6001600160a01b0381166112165760405162461bcd60e51b815260206004820152601060248201526f5f676f7665726e616e6365207a65726f60801b604482015260640161046c565b600080546001600160a01b038481166001600160a81b031990921691909117600160a01b17909155600180549183166001600160a01b0319909216821790556040519081527f9789733827840833afc031fb2ef9ab6894271f77bad2085687cf4ae5c7bee4db9060200160405180910390a15050565b61129461168e565b600054600160a81b900460ff16156112ee5760405162461bcd60e51b815260206004820152601a60248201527f616c726561647920696e2070726f64756374696f6e206d6f6465000000000000604482015260640161046c565b600180546001600160a01b031916905560008054600160a81b60ff60a81b198216179091556040516001600160a01b0390911681527f83af113638b5422f9e977cebc0aaf0eaf2188eb9a8baae7f9d46c42b33a1560c9060200160405180910390a1565b600054600160b01b900460ff161561138257333014611373576113736121ce565b6000805460ff60b01b19169055565b61138a61168e565b565b61139461168e565b6000805460408051636221a54b60e01b81529051853593926001600160a01b031691636221a54b9160048083019260209291908290030181865afa1580156113e0573d6000803e3d6000fd5b505050506040513d601f19601f820116820180604052508101906114049190611f50565b905060006114128242611f24565b9050604051806040016040528082815260200186868080601f01602080910402602001604051908101604052809392919081815260200183838082843760009201829052509390945250506001600160e01b031986168152600260209081526040909120835181559083015190915060018201906114909082612232565b509050507fed948300a3694aa01d4a6b258bfd664350193d770c0b51f8387277f6d83ea3b6838287876040516114c994939291906122f1565b60405180910390a15050505050565b60008183106114e757816114e9565b825b9392505050565b60008160000361150257506000919050565b816001600160801b821061151b5760809190911c9060401b5b600160401b82106115315760409190911c9060201b5b64010000000082106115485760209190911c9060101b5b62010000821061155d5760109190911c9060081b5b61010082106115715760089190911c9060041b5b601082106115845760049190911c9060021b5b600482106115905760011b5b600161159c8286611f80565b6115a69083611f24565b901c905060016115b68286611f80565b6115c09083611f24565b901c905060016115d08286611f80565b6115da9083611f24565b901c905060016115ea8286611f80565b6115f49083611f24565b901c905060016116048286611f80565b61160e9083611f24565b901c9050600161161e8286611f80565b6116289083611f24565b901c905060016116388286611f80565b6116429083611f24565b901c905060006116528286611f80565b90508082106116615780611663565b815b95945050505050565b919050565b3d604051818101604052816000823e821561168a578181f35b8181fd5b61169661086c565b6001600160a01b0316336001600160a01b03161461138a5760405162461bcd60e51b815260206004820152600f60248201526e6f6e6c7920676f7665726e616e636560881b604482015260640161046c565b600080826040516020016116fc9190612337565b6040516020818303038152906040528051906020012090506000805b86518110156117745786818151811061173357611733611ef8565b602002602001015183036117625785818151811061175357611753611ef8565b60200260200101519150611774565b8061176c81611f37565b915050611718565b506001600160a01b0381166116635760405162461bcd60e51b815260206004820152600c60248201526b61646472657373207a65726f60a01b604482015260640161046c565b6117ef828260405180604001604052806012815260200171233630b932a9bcb9ba32b6a6b0b730b3b2b960711b8152506116e8565b600360006101000a8154816001600160a01b0302191690836001600160a01b0316021790555061184582826040518060400160405280600d81526020016c22b73a34ba3ca6b0b730b3b2b960991b8152506116e8565b600460006101000a8154816001600160a01b0302191690836001600160a01b0316021790555061189f828260405180604001604052806011815260200170574e617444656c65676174696f6e46656560781b8152506116e8565b600560006101000a8154816001600160a01b0302191690836001600160a01b031602179055506118f582826040518060400160405280600d81526020016c566f746572526567697374727960981b8152506116e8565b600660006101000a8154816001600160a01b0302191690836001600160a01b0316021790555061194f8282604051806040016040528060118152602001702821b430b4b729ba30b5b2a6b4b93937b960791b8152506116e8565b600760006101000a8154816001600160a01b0302191690836001600160a01b0316021790555061199c82826040518060400160405280600481526020016315d3985d60e21b8152506116e8565b600880546001600160a01b0319166001600160a01b03929092169190911790555050565b5080546119cc90612071565b6000825580601f106119dc575050565b601f01602090049060005260206000209081019061049f91905b80821115611a0a57600081556001016119f6565b5090565b803562ffffff8116811461166c57600080fd5b600060208284031215611a3357600080fd5b6114e982611a0e565b6001600160a01b038116811461049f57600080fd5b60008060008060808587031215611a6757600080fd5b8435611a7281611a3c565b93506020850135611a8281611a3c565b9250611a9060408601611a0e565b9396929550929360600135925050565b600060208284031215611ab257600080fd5b81356001600160e01b0319811681146114e957600080fd5b600060208284031215611adc57600080fd5b5035919050565b60005b83811015611afe578181015183820152602001611ae6565b50506000910152565b60008151808452611b1f816020860160208601611ae3565b601f01601f19169290920160200192915050565b828152604060208201526000611b4c6040830184611b07565b949350505050565b60008060408385031215611b6757600080fd5b611b7083611a0e565b91506020830135611b8081611a3c565b809150509250929050565b634e487b7160e01b600052604160045260246000fd5b604051601f8201601f191681016001600160401b0381118282101715611bc957611bc9611b8b565b604052919050565b60006001600160401b03821115611bea57611bea611b8b565b5060051b60200190565b600082601f830112611c0557600080fd5b81356020611c1a611c1583611bd1565b611ba1565b82815260059290921b84018101918181019086841115611c3957600080fd5b8286015b84811015611c5d578035611c5081611a3c565b8352918301918301611c3d565b509695505050505050565b60008060408385031215611c7b57600080fd5b82356001600160401b0380821115611c9257600080fd5b818501915085601f830112611ca657600080fd5b81356020611cb6611c1583611bd1565b82815260059290921b84018101918181019089841115611cd557600080fd5b948201945b83861015611cf357853582529482019490820190611cda565b96505086013592505080821115611d0957600080fd5b50611d1685828601611bf4565b9150509250929050565b600060208284031215611d3257600080fd5b81356114e981611a3c565b60008060408385031215611d5057600080fd5b8235611b7081611a3c565b60006020808385031215611d6e57600080fd5b82516001600160401b03811115611d8457600080fd5b8301601f81018513611d9557600080fd5b8051611da3611c1582611bd1565b81815260059190911b82018301908381019087831115611dc257600080fd5b928401925b82841015611dfc5783516bffffffffffffffffffffffff1981168114611ded5760008081fd5b82529284019290840190611dc7565b979650505050505050565b600081518084526020808501945080840160005b83811015611e465781516bffffffffffffffffffffffff191687529582019590820190600101611e1b565b509495945050505050565b604081526000611e646040830185611e07565b90508260208301529392505050565b60006020808385031215611e8657600080fd5b82516001600160401b03811115611e9c57600080fd5b8301601f81018513611ead57600080fd5b8051611ebb611c1582611bd1565b81815260059190911b82018301908381019087831115611eda57600080fd5b928401925b82841015611dfc57835182529284019290840190611edf565b634e487b7160e01b600052603260045260246000fd5b634e487b7160e01b600052601160045260246000fd5b80820180821115610b9957610b99611f0e565b600060018201611f4957611f49611f0e565b5060010190565b600060208284031215611f6257600080fd5b5051919050565b8082028115828204841417610b9957610b99611f0e565b600082611f9d57634e487b7160e01b600052601260045260246000fd5b500490565b600060208284031215611fb457600080fd5b815161ffff811681146114e957600080fd5b60018060a01b03881681526000602062ffffff89168184015287604084015286606084015260e06080840152611fff60e0840187611e07565b83810360a085015285518082528287019183019060005b8181101561203257835183529284019291840191600101612016565b505061ffff861660c08601529250612048915050565b98975050505050505050565b60006020828403121561206657600080fd5b81516114e981611a3c565b600181811c9082168061208557607f821691505b6020821081036120a557634e487b7160e01b600052602260045260246000fd5b50919050565b600082516120bd818460208701611ae3565b9190910192915050565b80516001600160401b038116811461166c57600080fd5b600080600080608085870312156120f457600080fd5b6120fd856120c7565b935061210b602086016120c7565b9250612119604086016120c7565b9150612127606086016120c7565b905092959194509250565b6001600160401b0382811682821603908082111561215257612152611f0e565b5092915050565b6001600160401b0381811683821601908082111561215257612152611f0e565b6000806040838503121561218c57600080fd5b612195836120c7565b91506121a3602084016120c7565b90509250929050565b6000602082840312156121be57600080fd5b815180151581146114e957600080fd5b634e487b7160e01b600052600160045260246000fd5b601f821115610c7b57600081815260208120601f850160051c8101602086101561220b5750805b601f850160051c820191505b8181101561222a57828155600101612217565b505050505050565b81516001600160401b0381111561224b5761224b611b8b565b61225f816122598454612071565b846121e4565b602080601f831160018114612294576000841561227c5750858301515b600019600386901b1c1916600185901b17855561222a565b600085815260208120601f198616915b828110156122c3578886015182559484019460019091019084016122a4565b50858210156122e15787850151600019600388901b60f8161c191681555b5050505050600190811b01905550565b63ffffffff60e01b8516815283602082015260606040820152816060820152818360808301376000818301608090810191909152601f909201601f191601019392505050565b6020815260006114e96020830184611b0756fea2646970667358221220788a0f1ffa0907211389ef43dd5b67020ec80cefc8586cb64b9c5916bde9968964736f6c63430008140033",
  "linkReferences": {},
  "deployedLinkReferences": {}
}