{
  "_format": "hh-sol-artifact-1",
  "contractName": "FtsoRewardOffersManager",
  "sourceName": "contracts/ftso/implementation/FtsoRewardOffersManager.sol",
  "abi": [
    {
      "inputs": [
        {
          "internalType": "contract IGovernanceSettings",
          "name": "_governanceSettings",
          "type": "address"
        },
        {
          "internalType": "address",
          "name": "_initialGovernance",
          "type": "address"
        },
        {
          "internalType": "address",
          "name": "_addressUpdater",
          "type": "address"
        },
        {
          "internalType": "uint128",
          "name": "_minimalRewardsOfferValueWei",
          "type": "uint128"
        }
      ],
      "stateMutability": "nonpayable",
      "type": "constructor"
    },
    {
      "anonymous": false,
      "inputs": [
        {
          "indexed": false,
          "internalType": "uint256",
          "name": "authorizedAmountWei",
          "type": "uint256"
        }
      ],
      "name": "DailyAuthorizedInflationSet",
      "type": "event"
    },
    {
      "anonymous": false,
      "inputs": [
        {
          "indexed": false,
          "internalType": "bytes4",
          "name": "selector",
          "type": "bytes4"
        },
        {
          "indexed": false,
          "internalType": "uint256",
          "name": "allowedAfterTimestamp",
          "type": "uint256"
        },
        {
          "indexed": false,
          "internalType": "bytes",
          "name": "encodedCall",
          "type": "bytes"
        }
      ],
      "name": "GovernanceCallTimelocked",
      "type": "event"
    },
    {
      "anonymous": false,
      "inputs": [
        {
          "indexed": false,
          "internalType": "address",
          "name": "initialGovernance",
          "type": "address"
        }
      ],
      "name": "GovernanceInitialised",
      "type": "event"
    },
    {
      "anonymous": false,
      "inputs": [
        {
          "indexed": false,
          "internalType": "address",
          "name": "governanceSettings",
          "type": "address"
        }
      ],
      "name": "GovernedProductionModeEntered",
      "type": "event"
    },
    {
      "anonymous": false,
      "inputs": [
        {
          "indexed": false,
          "internalType": "uint256",
          "name": "amountReceivedWei",
          "type": "uint256"
        }
      ],
      "name": "InflationReceived",
      "type": "event"
    },
    {
      "anonymous": false,
      "inputs": [
        {
          "indexed": true,
          "internalType": "uint24",
          "name": "rewardEpochId",
          "type": "uint24"
        },
        {
          "indexed": false,
          "internalType": "bytes",
          "name": "feedIds",
          "type": "bytes"
        },
        {
          "indexed": false,
          "internalType": "bytes",
          "name": "decimals",
          "type": "bytes"
        },
        {
          "indexed": false,
          "internalType": "uint256",
          "name": "amount",
          "type": "uint256"
        },
        {
          "indexed": false,
          "internalType": "uint16",
          "name": "minRewardedTurnoutBIPS",
          "type": "uint16"
        },
        {
          "indexed": false,
          "internalType": "uint24",
          "name": "primaryBandRewardSharePPM",
          "type": "uint24"
        },
        {
          "indexed": false,
          "internalType": "bytes",
          "name": "secondaryBandWidthPPMs",
          "type": "bytes"
        },
        {
          "indexed": false,
          "internalType": "uint16",
          "name": "mode",
          "type": "uint16"
        }
      ],
      "name": "InflationRewardsOffered",
      "type": "event"
    },
    {
      "anonymous": false,
      "inputs": [
        {
          "indexed": false,
          "internalType": "uint256",
          "name": "valueWei",
          "type": "uint256"
        }
      ],
      "name": "MinimalRewardsOfferValueSet",
      "type": "event"
    },
    {
      "anonymous": false,
      "inputs": [
        {
          "indexed": true,
          "internalType": "uint24",
          "name": "rewardEpochId",
          "type": "uint24"
        },
        {
          "indexed": false,
          "internalType": "bytes21",
          "name": "feedId",
          "type": "bytes21"
        },
        {
          "indexed": false,
          "internalType": "int8",
          "name": "decimals",
          "type": "int8"
        },
        {
          "indexed": false,
          "internalType": "uint256",
          "name": "amount",
          "type": "uint256"
        },
        {
          "indexed": false,
          "internalType": "uint16",
          "name": "minRewardedTurnoutBIPS",
          "type": "uint16"
        },
        {
          "indexed": false,
          "internalType": "uint24",
          "name": "primaryBandRewardSharePPM",
          "type": "uint24"
        },
        {
          "indexed": false,
          "internalType": "uint24",
          "name": "secondaryBandWidthPPM",
          "type": "uint24"
        },
        {
          "indexed": false,
          "internalType": "address",
          "name": "claimBackAddress",
          "type": "address"
        }
      ],
      "name": "RewardsOffered",
      "type": "event"
    },
    {
      "anonymous": false,
      "inputs": [
        {
          "indexed": false,
          "internalType": "bytes4",
          "name": "selector",
          "type": "bytes4"
        },
        {
          "indexed": false,
          "internalType": "uint256",
          "name": "timestamp",
          "type": "uint256"
        }
      ],
      "name": "TimelockedGovernanceCallCanceled",
      "type": "event"
    },
    {
      "anonymous": false,
      "inputs": [
        {
          "indexed": false,
          "internalType": "bytes4",
          "name": "selector",
          "type": "bytes4"
        },
        {
          "indexed": false,
          "internalType": "uint256",
          "name": "timestamp",
          "type": "uint256"
        }
      ],
      "name": "TimelockedGovernanceCallExecuted",
      "type": "event"
    },
    {
      "inputs": [
        {
          "internalType": "bytes4",
          "name": "_selector",
          "type": "bytes4"
        }
      ],
      "name": "cancelGovernanceCall",
      "outputs": [],
      "stateMutability": "nonpayable",
      "type": "function"
    },
    {
      "inputs": [],
      "name": "dailyAuthorizedInflation",
      "outputs": [
        {
          "internalType": "uint256",
          "name": "",
          "type": "uint256"
        }
      ],
      "stateMutability": "view",
      "type": "function"
    },
    {
      "inputs": [
        {
          "internalType": "bytes4",
          "name": "_selector",
          "type": "bytes4"
        }
      ],
      "name": "executeGovernanceCall",
      "outputs": [],
      "stateMutability": "nonpayable",
      "type": "function"
    },
    {
      "inputs": [],
      "name": "flareSystemsManager",
      "outputs": [
        {
          "internalType": "contract IIFlareSystemsManager",
          "name": "",
          "type": "address"
        }
      ],
      "stateMutability": "view",
      "type": "function"
    },
    {
      "inputs": [],
      "name": "ftsoFeedDecimals",
      "outputs": [
        {
          "internalType": "contract IFtsoFeedDecimals",
          "name": "",
          "type": "address"
        }
      ],
      "stateMutability": "view",
      "type": "function"
    },
    {
      "inputs": [],
      "name": "ftsoInflationConfigurations",
      "outputs": [
        {
          "internalType": "contract IFtsoInflationConfigurations",
          "name": "",
          "type": "address"
        }
      ],
      "stateMutability": "view",
      "type": "function"
    },
    {
      "inputs": [],
      "name": "getAddressUpdater",
      "outputs": [
        {
          "internalType": "address",
          "name": "_addressUpdater",
          "type": "address"
        }
      ],
      "stateMutability": "view",
      "type": "function"
    },
    {
      "inputs": [],
      "name": "getContractName",
      "outputs": [
        {
          "internalType": "string",
          "name": "",
          "type": "string"
        }
      ],
      "stateMutability": "pure",
      "type": "function"
    },
    {
      "inputs": [],
      "name": "getExpectedBalance",
      "outputs": [
        {
          "internalType": "uint256",
          "name": "",
          "type": "uint256"
        }
      ],
      "stateMutability": "view",
      "type": "function"
    },
    {
      "inputs": [],
      "name": "getInflationAddress",
      "outputs": [
        {
          "internalType": "address",
          "name": "",
          "type": "address"
        }
      ],
      "stateMutability": "view",
      "type": "function"
    },
    {
      "inputs": [],
      "name": "getTokenPoolSupplyData",
      "outputs": [
        {
          "internalType": "uint256",
          "name": "_lockedFundsWei",
          "type": "uint256"
        },
        {
          "internalType": "uint256",
          "name": "_totalInflationAuthorizedWei",
          "type": "uint256"
        },
        {
          "internalType": "uint256",
          "name": "_totalClaimedWei",
          "type": "uint256"
        }
      ],
      "stateMutability": "view",
      "type": "function"
    },
    {
      "inputs": [],
      "name": "governance",
      "outputs": [
        {
          "internalType": "address",
          "name": "",
          "type": "address"
        }
      ],
      "stateMutability": "view",
      "type": "function"
    },
    {
      "inputs": [],
      "name": "governanceSettings",
      "outputs": [
        {
          "internalType": "contract IGovernanceSettings",
          "name": "",
          "type": "address"
        }
      ],
      "stateMutability": "view",
      "type": "function"
    },
    {
      "inputs": [
        {
          "internalType": "contract IGovernanceSettings",
          "name": "_governanceSettings",
          "type": "address"
        },
        {
          "internalType": "address",
          "name": "_initialGovernance",
          "type": "address"
        }
      ],
      "name": "initialise",
      "outputs": [],
      "stateMutability": "nonpayable",
      "type": "function"
    },
    {
      "inputs": [
        {
          "internalType": "address",
          "name": "_address",
          "type": "address"
        }
      ],
      "name": "isExecutor",
      "outputs": [
        {
          "internalType": "bool",
          "name": "",
          "type": "bool"
        }
      ],
      "stateMutability": "view",
      "type": "function"
    },
    {
      "inputs": [],
      "name": "lastInflationAuthorizationReceivedTs",
      "outputs": [
        {
          "internalType": "uint256",
          "name": "",
          "type": "uint256"
        }
      ],
      "stateMutability": "view",
      "type": "function"
    },
    {
      "inputs": [],
      "name": "lastInflationReceivedTs",
      "outputs": [
        {
          "internalType": "uint256",
          "name": "",
          "type": "uint256"
        }
      ],
      "stateMutability": "view",
      "type": "function"
    },
    {
      "inputs": [],
      "name": "minimalRewardsOfferValueWei",
      "outputs": [
        {
          "internalType": "uint256",
          "name": "",
          "type": "uint256"
        }
      ],
      "stateMutability": "view",
      "type": "function"
    },
    {
      "inputs": [
        {
          "internalType": "uint24",
          "name": "_nextRewardEpochId",
          "type": "uint24"
        },
        {
          "components": [
            {
              "internalType": "uint120",
              "name": "amount",
              "type": "uint120"
            },
            {
              "internalType": "bytes21",
              "name": "feedId",
              "type": "bytes21"
            },
            {
              "internalType": "uint16",
              "name": "minRewardedTurnoutBIPS",
              "type": "uint16"
            },
            {
              "internalType": "uint24",
              "name": "primaryBandRewardSharePPM",
              "type": "uint24"
            },
            {
              "internalType": "uint24",
              "name": "secondaryBandWidthPPM",
              "type": "uint24"
            },
            {
              "internalType": "address",
              "name": "claimBackAddress",
              "type": "address"
            }
          ],
          "internalType": "struct IFtsoRewardOffersManager.Offer[]",
          "name": "_offers",
          "type": "tuple[]"
        }
      ],
      "name": "offerRewards",
      "outputs": [],
      "stateMutability": "payable",
      "type": "function"
    },
    {
      "inputs": [],
      "name": "productionMode",
      "outputs": [
        {
          "internalType": "bool",
          "name": "",
          "type": "bool"
        }
      ],
      "stateMutability": "view",
      "type": "function"
    },
    {
      "inputs": [],
      "name": "receiveInflation",
      "outputs": [],
      "stateMutability": "payable",
      "type": "function"
    },
    {
      "inputs": [],
      "name": "rewardManager",
      "outputs": [
        {
          "internalType": "contract IIRewardManager",
          "name": "",
          "type": "address"
        }
      ],
      "stateMutability": "view",
      "type": "function"
    },
    {
      "inputs": [
        {
          "internalType": "uint256",
          "name": "_toAuthorizeWei",
          "type": "uint256"
        }
      ],
      "name": "setDailyAuthorizedInflation",
      "outputs": [],
      "stateMutability": "nonpayable",
      "type": "function"
    },
    {
      "inputs": [
        {
          "internalType": "uint128",
          "name": "_minimalRewardsOfferValueWei",
          "type": "uint128"
        }
      ],
      "name": "setMinimalRewardsOfferValue",
      "outputs": [],
      "stateMutability": "nonpayable",
      "type": "function"
    },
    {
      "inputs": [],
      "name": "switchToProductionMode",
      "outputs": [],
      "stateMutability": "nonpayable",
      "type": "function"
    },
    {
      "inputs": [
        {
          "internalType": "bytes4",
          "name": "selector",
          "type": "bytes4"
        }
      ],
      "name": "timelockedCalls",
      "outputs": [
        {
          "internalType": "uint256",
          "name": "allowedAfterTimestamp",
          "type": "uint256"
        },
        {
          "internalType": "bytes",
          "name": "encodedCall",
          "type": "bytes"
        }
      ],
      "stateMutability": "view",
      "type": "function"
    },
    {
      "inputs": [],
      "name": "totalInflationAuthorizedWei",
      "outputs": [
        {
          "internalType": "uint256",
          "name": "",
          "type": "uint256"
        }
      ],
      "stateMutability": "view",
      "type": "function"
    },
    {
      "inputs": [],
      "name": "totalInflationReceivedWei",
      "outputs": [
        {
          "internalType": "uint256",
          "name": "",
          "type": "uint256"
        }
      ],
      "stateMutability": "view",
      "type": "function"
    },
    {
      "inputs": [],
      "name": "totalInflationRewardsOfferedWei",
      "outputs": [
        {
          "internalType": "uint256",
          "name": "",
          "type": "uint256"
        }
      ],
      "stateMutability": "view",
      "type": "function"
    },
    {
      "inputs": [
        {
          "internalType": "uint24",
          "name": "_currentRewardEpochId",
          "type": "uint24"
        },
        {
          "internalType": "uint64",
          "name": "_currentRewardEpochExpectedEndTs",
          "type": "uint64"
        },
        {
          "internalType": "uint64",
          "name": "_rewardEpochDurationSeconds",
          "type": "uint64"
        }
      ],
      "name": "triggerRewardEpochSwitchover",
      "outputs": [],
      "stateMutability": "nonpayable",
      "type": "function"
    },
    {
      "inputs": [
        {
          "internalType": "bytes32[]",
          "name": "_contractNameHashes",
          "type": "bytes32[]"
        },
        {
          "internalType": "address[]",
          "name": "_contractAddresses",
          "type": "address[]"
        }
      ],
      "name": "updateContractAddresses",
      "outputs": [],
      "stateMutability": "nonpayable",
      "type": "function"
    }
  ],
  "bytecode": "0x60806040523480156200001157600080fd5b5060405162002f5938038062002f59833981016040819052620000349162000256565b83838380808484620000478282620000c4565b50620000739050817f714f205b2abd25bef1d06a1af944e38c113fe6160375c4e1d6d5cf28848e771955565b505050506001600160801b038216600b8190556040519081527fbaedeb3cf70a35fbe2d8dcb5306bc177734e0c529004225a1526766096d6f165915060200160405180910390a150505050620002c9565b600054600160a01b900460ff1615620001245760405162461bcd60e51b815260206004820152601460248201527f696e697469616c6973656420213d2066616c736500000000000000000000000060448201526064015b60405180910390fd5b6001600160a01b0382166200017c5760405162461bcd60e51b815260206004820152601860248201527f676f7665726e616e63652073657474696e6773207a65726f000000000000000060448201526064016200011b565b6001600160a01b038116620001c75760405162461bcd60e51b815260206004820152601060248201526f5f676f7665726e616e6365207a65726f60801b60448201526064016200011b565b600080546001600160a01b038481166001600160a81b031990921691909117600160a01b17909155600180549183166001600160a01b0319909216821790556040519081527f9789733827840833afc031fb2ef9ab6894271f77bad2085687cf4ae5c7bee4db9060200160405180910390a15050565b6001600160a01b03811681146200025357600080fd5b50565b600080600080608085870312156200026d57600080fd5b84516200027a816200023d565b60208601519094506200028d816200023d565b6040860151909350620002a0816200023d565b60608601519092506001600160801b0381168114620002be57600080fd5b939692955090935050565b612c8080620002d96000396000f3fe6080604052600436106101d85760003560e01c8063af04cd3b11610102578063debfda3011610095578063ef88bf1311610064578063ef88bf1314610530578063f5a9838314610550578063f5f5ba7214610565578063faae7fc9146105b157600080fd5b8063debfda30146104a1578063e17f212e146104d1578063e2739563146104f2578063ed39d3f81461051257600080fd5b8063c27fb624116100d1578063c27fb62414610435578063c85f3a4614610455578063c9f19dd21461046b578063d0c1c3931461048b57600080fd5b8063af04cd3b146103d7578063b00c0b76146103ec578063b75a424f1461040c578063bd76b69c1461041f57600080fd5b80635ff270791161017a57806374e6310e1161014957806374e6310e146103535780639065c9741461038157806391f25679146103a1578063a5555aea146103c157600080fd5b80635ff27079146102dd57806362354e03146102fd57806367fc40291461031d578063708e34ce1461033d57600080fd5b80632dafdbbf116101b65780632dafdbbf14610248578063473252c41461027e5780635267a15d146102945780635aa6e675146102c857600080fd5b806306201f1d146101dd5780630f4ef8a6146101e757806312afcf0b14610224575b600080fd5b6101e56105d1565b005b3480156101f357600080fd5b50600c54610207906001600160a01b031681565b6040516001600160a01b0390911681526020015b60405180910390f35b34801561023057600080fd5b5061023a60065481565b60405190815260200161021b565b34801561025457600080fd5b50610263600354600a54600092565b6040805193845260208401929092529082015260600161021b565b34801561028a57600080fd5b5061023a60055481565b3480156102a057600080fd5b507f714f205b2abd25bef1d06a1af944e38c113fe6160375c4e1d6d5cf28848e771954610207565b3480156102d457600080fd5b50610207610633565b3480156102e957600080fd5b506101e56102f8366004612169565b6106cf565b34801561030957600080fd5b50600054610207906001600160a01b031681565b34801561032957600080fd5b506101e5610338366004612169565b61095a565b34801561034957600080fd5b5061023a60075481565b34801561035f57600080fd5b5061037361036e366004612169565b610a3b565b60405161021b9291906121e3565b34801561038d57600080fd5b50600e54610207906001600160a01b031681565b3480156103ad57600080fd5b506101e56103bc366004612222565b610ae0565b3480156103cd57600080fd5b5061023a60045481565b3480156103e357600080fd5b5061023a610b45565b3480156103f857600080fd5b506101e5610407366004612387565b610b4f565b6101e561041a36600461243f565b610c2e565b34801561042b57600080fd5b5061023a600a5481565b34801561044157600080fd5b50600d54610207906001600160a01b031681565b34801561046157600080fd5b5061023a600b5481565b34801561047757600080fd5b506101e56104863660046124c6565b6112f5565b34801561049757600080fd5b5061023a60035481565b3480156104ad57600080fd5b506104c16104bc3660046124ef565b611377565b604051901515815260200161021b565b3480156104dd57600080fd5b506000546104c190600160a81b900460ff1681565b3480156104fe57600080fd5b506101e561050d36600461250c565b611400565b34801561051e57600080fd5b506008546001600160a01b0316610207565b34801561053c57600080fd5b506101e561054b366004612525565b611458565b34801561055c57600080fd5b506101e56115be565b34801561057157600080fd5b50604080518082018252601781527f4674736f5265776172644f66666572734d616e616765720000000000000000006020820152905161021b919061255e565b3480156105bd57600080fd5b50600954610207906001600160a01b031681565b6105d9611684565b6105e16116ec565b346004546105ef9190612587565b600455426006556040513481527f95c4e29cc99bc027cfc3cd719d6fd973d5f0317061885fbb322b9b17d8d35d379060200160405180910390a1610631611737565b565b60008054600160a81b900460ff1661065557506001546001600160a01b031690565b60008054906101000a90046001600160a01b03166001600160a01b031663732524946040518163ffffffff1660e01b8152600401602060405180830381865afa1580156106a6573d6000803e3d6000fd5b505050506040513d601f19601f820116820180604052508101906106ca919061259a565b905090565b6106d833611377565b6107195760405162461bcd60e51b815260206004820152600d60248201526c37b7363c9032bc32b1baba37b960991b60448201526064015b60405180910390fd5b6001600160e01b03198116600090815260026020526040812080549091036107835760405162461bcd60e51b815260206004820152601a60248201527f74696d656c6f636b3a20696e76616c69642073656c6563746f720000000000006044820152606401610710565b80544210156107d45760405162461bcd60e51b815260206004820152601960248201527f74696d656c6f636b3a206e6f7420616c6c6f77656420796574000000000000006044820152606401610710565b60008160010180546107e5906125b7565b80601f0160208091040260200160405190810160405280929190818152602001828054610811906125b7565b801561085e5780601f106108335761010080835404028352916020019161085e565b820191906000526020600020905b81548152906001019060200180831161084157829003601f168201915b505050506001600160e01b0319851660009081526002602052604081208181559293509050610890600183018261211b565b50506000805460ff60b01b1916600160b01b17815560405130906108b59084906125f1565b6000604051808303816000865af19150503d80600081146108f2576040519150601f19603f3d011682016040523d82523d6000602084013e6108f7565b606091505b50506000805460ff60b01b19169055604080516001600160e01b0319871681524260208201529192507fa7326b57fc9cfe267aaea5e7f0b01757154d265620a0585819416ee9ddd2c438910160405180910390a16109548161177e565b50505050565b61096261179b565b6001600160e01b0319811660009081526002602052604081205490036109ca5760405162461bcd60e51b815260206004820152601a60248201527f74696d656c6f636b3a20696e76616c69642073656c6563746f720000000000006044820152606401610710565b604080516001600160e01b0319831681524260208201527f7735b2391c38a81419c513e30ca578db7158eadd7101511b23e221c654d19cf8910160405180910390a16001600160e01b03198116600090815260026020526040812081815590610a36600183018261211b565b505050565b60026020526000908152604090208054600182018054919291610a5d906125b7565b80601f0160208091040260200160405190810160405280929190818152602001828054610a89906125b7565b8015610ad65780601f10610aab57610100808354040283529160200191610ad6565b820191906000526020600020905b815481529060010190602001808311610ab957829003601f168201915b5050505050905082565b6009546001600160a01b03163314610b3a5760405162461bcd60e51b815260206004820152601960248201527f6f6e6c7920666c6172652073797374656d206d616e61676572000000000000006044820152606401610710565b610a368383836117f5565b60006106ca611b49565b7f714f205b2abd25bef1d06a1af944e38c113fe6160375c4e1d6d5cf28848e7719546001600160a01b0316336001600160a01b031614610bc85760405162461bcd60e51b815260206004820152601460248201527337b7363c9030b2323932b9b9903ab83230ba32b960611b6044820152606401610710565b610c20610bfc83836040518060400160405280600e81526020016d20b2323932b9b9aab83230ba32b960911b815250611b5b565b7f714f205b2abd25bef1d06a1af944e38c113fe6160375c4e1d6d5cf28848e771955565b610c2a8282611c38565b5050565b610c36611684565b60095460408051637056269760e01b815290516000926001600160a01b03169163705626979160048083019260209291908290030181865afa158015610c80573d6000803e3d6000fd5b505050506040513d601f19601f82011682018060405250810190610ca4919061261d565b9050610cb181600161263a565b62ffffff168462ffffff1614610d095760405162461bcd60e51b815260206004820152601860248201527f6e6f74206e657874207265776172642065706f636820696400000000000000006044820152606401610710565b600960009054906101000a90046001600160a01b03166001600160a01b0316636aeffddc6040518163ffffffff1660e01b8152600401602060405180830381865afa158015610d5c573d6000803e3d6000fd5b505050506040513d601f19601f82011682018060405250810190610d80919061265d565b610d93906001600160401b031642612587565b600960009054906101000a90046001600160a01b03166001600160a01b031663ed54fd636040518163ffffffff1660e01b8152600401602060405180830381865afa158015610de6573d6000803e3d6000fd5b505050506040513d601f19601f82011682018060405250810190610e0a919061265d565b6001600160401b031611610e605760405162461bcd60e51b815260206004820152601e60248201527f746f6f206c61746520666f72206e657874207265776172642065706f636800006044820152606401610710565b6000805b8381101561121b5736858583818110610e7f57610e7f61267a565b905060c002019050612710816040016020810190610e9d91906126a0565b61ffff161115610efb5760405162461bcd60e51b8152602060048201526024808201527f696e76616c6964206d696e52657761726465645475726e6f7574424950532076604482015263616c756560e01b6064820152608401610710565b620f4240610f0f60808301606084016126bd565b62ffffff161115610f725760405162461bcd60e51b815260206004820152602760248201527f696e76616c6964207072696d61727942616e64526577617264536861726550506044820152664d2076616c756560c81b6064820152608401610710565b620f4240610f8660a08301608084016126bd565b62ffffff161115610fe55760405162461bcd60e51b815260206004820152602360248201527f696e76616c6964207365636f6e6461727942616e64576964746850504d2076616044820152626c756560e81b6064820152608401610710565b600b54610ff560208301836126da565b6001600160781b0316101561104c5760405162461bcd60e51b815260206004820152601d60248201527f72657761726473206f666665722076616c756520746f6f20736d616c6c0000006044820152606401610710565b61105960208201826126da565b61106c906001600160781b031684612587565b9250600061108060c0830160a084016124ef565b90506001600160a01b0381166110935750335b62ffffff88167f0b348981891869f97551a071f05fba72c5efadafb062152f1ef417a25264d69a6110ca6040850160208601612703565b600e546001600160a01b031663c8ee3aad6110eb6040880160208901612703565b6040516001600160e01b031960e084901b1681526affffffffffffffffffffff19909116600482015262ffffff8e166024820152604401602060405180830381865afa15801561113f573d6000803e3d6000fd5b505050506040513d601f19601f820116820180604052508101906111639190612731565b61117060208701876126da565b61118060608801604089016126a0565b6111906080890160608a016126bd565b6111a060a08a0160808b016126bd565b604080516affffffffffffffffffffff19909716875260009590950b60208701526001600160781b039093169385019390935261ffff16606084015262ffffff91821660808401521660a08201526001600160a01b03841660c082015260e00160405180910390a250508061121490612754565b9050610e64565b503481146112805760405162461bcd60e51b815260206004820152602c60248201527f616d6f756e74206f666665726564206973206e6f74207468652073616d65206160448201526b1cc81d985b1d59481cd95b9d60a21b6064820152608401610710565b600c5460405163a02e86e560e01b815262ffffff87166004820152600060248201526001600160a01b039091169063a02e86e59034906044016000604051808303818588803b1580156112d257600080fd5b505af11580156112e6573d6000803e3d6000fd5b50505050505050610a36611737565b600054600160b01b900460ff16806113175750600054600160a81b900460ff16155b1561136957611324611d55565b6001600160801b038116600b8190556040519081527fbaedeb3cf70a35fbe2d8dcb5306bc177734e0c529004225a1526766096d6f1659060200160405180910390a150565b611374600036611d8d565b50565b60008054600160a01b900460ff1680156113fa5750600054604051630debfda360e41b81526001600160a01b0384811660048301529091169063debfda3090602401602060405180830381865afa1580156113d6573d6000803e3d6000fd5b505050506040513d601f19601f820116820180604052508101906113fa919061276d565b92915050565b6114086116ec565b600781905560035461141b908290612587565b600355426005556040518181527f187f32a0f765499f15b3bb52ed0aebf6015059f230f2ace7e701e60a476695959060200160405180910390a150565b600054600160a01b900460ff16156114a95760405162461bcd60e51b8152602060048201526014602482015273696e697469616c6973656420213d2066616c736560601b6044820152606401610710565b6001600160a01b0382166114ff5760405162461bcd60e51b815260206004820152601860248201527f676f7665726e616e63652073657474696e6773207a65726f00000000000000006044820152606401610710565b6001600160a01b0381166115485760405162461bcd60e51b815260206004820152601060248201526f5f676f7665726e616e6365207a65726f60801b6044820152606401610710565b600080546001600160a01b038481166001600160a81b031990921691909117600160a01b17909155600180549183166001600160a01b0319909216821790556040519081527f9789733827840833afc031fb2ef9ab6894271f77bad2085687cf4ae5c7bee4db9060200160405180910390a15050565b6115c661179b565b600054600160a81b900460ff16156116205760405162461bcd60e51b815260206004820152601a60248201527f616c726561647920696e2070726f64756374696f6e206d6f64650000000000006044820152606401610710565b600180546001600160a01b031916905560008054600160a81b60ff60a81b198216179091556040516001600160a01b0390911681527f83af113638b5422f9e977cebc0aaf0eaf2188eb9a8baae7f9d46c42b33a1560c9060200160405180910390a1565b60003461168f611b49565b6116999190612587565b905047818111156116dc5761dead6108fc6116b4848461278f565b6040518115909202916000818181858888f19350505050158015610a36573d6000803e3d6000fd5b81811015610c2a57610c2a6127a2565b6008546001600160a01b031633146106315760405162461bcd60e51b815260206004820152600e60248201526d696e666c6174696f6e206f6e6c7960901b6044820152606401610710565b61173f611b49565b47146106315760405162461bcd60e51b815260206004820152600e60248201526d6f7574206f662062616c616e636560901b6044820152606401610710565b3d604051818101604052816000823e8215611797578181f35b8181fd5b6117a3610633565b6001600160a01b0316336001600160a01b0316146106315760405162461bcd60e51b815260206004820152600f60248201526e6f6e6c7920676f7665726e616e636560881b6044820152606401610710565b60006118028260026127b8565b61180c90846127e3565b6001600160401b0316905060006118456201518060065461182d9190612587565b61183785876127e3565b6001600160401b0316611ed9565b905060006118776001600160401b038516611860858561278f565b600a54600454611870919061278f565b9190611eef565b9050600061188687600161263a565b90506000600d60009054906101000a90046001600160a01b03166001600160a01b0316634620cf4b6040518163ffffffff1660e01b8152600401600060405180830381865afa1580156118dd573d6000803e3d6000fd5b505050506040513d6000823e601f3d908101601f191682016040526119059190810190612871565b80519091506000805b82811015611958578381815181106119285761192861267a565b60200260200101516020015162ffffff16826119449190612587565b91508061195081612754565b91505061190e565b508060000361196d5750505050505050505050565b8460005b83811015611ab957600085828151811061198d5761198d61267a565b6020026020010151905060006119ad8486846020015162ffffff16612015565b90506119b9818561278f565b9350816020015162ffffff16856119d0919061278f565b8251600e54604051630630ac4160e21b815292975062ffffff8b16927f01070f0e535c0d3077d9ca64b3122869a1897ff5c7711ba33b4db1fb9fd70cfc92916001600160a01b0316906318c2b10490611a2f9084908f906004016129c1565b600060405180830381865afa158015611a4c573d6000803e3d6000fd5b505050506040513d6000823e601f3d908101601f19168201604052611a7491908101906129e8565b848660400151876060015188608001518960a00151604051611a9c9796959493929190612a1c565b60405180910390a250508080611ab190612754565b915050611971565b5085600a6000828254611acc9190612587565b9091555050600c5460405163a02e86e560e01b815262ffffff87166004820152600160248201526001600160a01b039091169063a02e86e59088906044016000604051808303818588803b158015611b2357600080fd5b505af1158015611b37573d6000803e3d6000fd5b50505050505050505050505050505050565b6000600a546004546106ca919061278f565b60008082604051602001611b6f919061255e565b6040516020818303038152906040528051906020012090506000805b8651811015611be757868181518110611ba657611ba661267a565b60200260200101518303611bd557858181518110611bc657611bc661267a565b60200260200101519150611be7565b80611bdf81612754565b915050611b8b565b506001600160a01b038116611c2d5760405162461bcd60e51b815260206004820152600c60248201526b61646472657373207a65726f60a01b6044820152606401610710565b9150505b9392505050565b611c428282612067565b611c7282826040518060400160405280600d81526020016c2932bbb0b93226b0b730b3b2b960991b815250611b5b565b600c60006101000a8154816001600160a01b0302191690836001600160a01b03160217905550611cd882826040518060400160405280601b81526020017f4674736f496e666c6174696f6e436f6e66696775726174696f6e730000000000815250611b5b565b600d60006101000a8154816001600160a01b0302191690836001600160a01b03160217905550611d3182826040518060400160405280601081526020016f4674736f46656564446563696d616c7360801b815250611b5b565b600e80546001600160a01b0319166001600160a01b03929092169190911790555050565b600054600160b01b900460ff1615611d8557333014611d7657611d766127a2565b6000805460ff60b01b19169055565b61063161179b565b611d9561179b565b6000805460408051636221a54b60e01b81529051853593926001600160a01b031691636221a54b9160048083019260209291908290030181865afa158015611de1573d6000803e3d6000fd5b505050506040513d601f19601f82011682018060405250810190611e059190612a89565b90506000611e138242612587565b9050604051806040016040528082815260200186868080601f01602080910402602001604051908101604052809392919081815260200183838082843760009201829052509390945250506001600160e01b03198616815260026020908152604090912083518155908301519091506001820190611e919082612af0565b509050507fed948300a3694aa01d4a6b258bfd664350193d770c0b51f8387277f6d83ea3b683828787604051611eca9493929190612baf565b60405180910390a15050505050565b6000818311611ee85781611c31565b5090919050565b6000808211611f335760405162461bcd60e51b815260206004820152601060248201526f4469766973696f6e206279207a65726f60801b6044820152606401610710565b83600003611f4357506000611c31565b83830283858281611f5657611f56612bf5565b0403611f7457828181611f6b57611f6b612bf5565b04915050611c31565b506000611f818386612c0b565b90506000611f8f8487612c1f565b90506000611f9d8587612c0b565b90506000611fab8688612c1f565b905085611fb88285612c33565b611fc29190612c0b565b611fcc8385612c33565b611fd68387612c33565b88611fe18689612c33565b611feb9190612c33565b611ff59190612587565b611fff9190612587565b6120099190612587565b98975050505050505050565b60008160000361202757506000611c31565b8360000361203757506000611c31565b828203612045575082611c31565b828210612054576120546127a2565b61205f848385611eef565b949350505050565b61207182826120cb565b6120a7828260405180604001604052806013815260200172233630b932a9bcb9ba32b6b9a6b0b730b3b2b960691b815250611b5b565b600980546001600160a01b0319166001600160a01b03929092169190911790555050565b6120f782826040518060400160405280600981526020016824b7333630ba34b7b760b91b815250611b5b565b600880546001600160a01b0319166001600160a01b03929092169190911790555050565b508054612127906125b7565b6000825580601f10612137575050565b601f01602090049060005260206000209081019061137491905b808211156121655760008155600101612151565b5090565b60006020828403121561217b57600080fd5b81356001600160e01b031981168114611c3157600080fd5b60005b838110156121ae578181015183820152602001612196565b50506000910152565b600081518084526121cf816020860160208601612193565b601f01601f19169290920160200192915050565b82815260406020820152600061205f60408301846121b7565b62ffffff8116811461137457600080fd5b6001600160401b038116811461137457600080fd5b60008060006060848603121561223757600080fd5b8335612242816121fc565b925060208401356122528161220d565b915060408401356122628161220d565b809150509250925092565b634e487b7160e01b600052604160045260246000fd5b60405160c081016001600160401b03811182821017156122a5576122a561226d565b60405290565b604051601f8201601f191681016001600160401b03811182821017156122d3576122d361226d565b604052919050565b60006001600160401b038211156122f4576122f461226d565b5060051b60200190565b6001600160a01b038116811461137457600080fd5b600082601f83011261232457600080fd5b81356020612339612334836122db565b6122ab565b82815260059290921b8401810191818101908684111561235857600080fd5b8286015b8481101561237c57803561236f816122fe565b835291830191830161235c565b509695505050505050565b6000806040838503121561239a57600080fd5b82356001600160401b03808211156123b157600080fd5b818501915085601f8301126123c557600080fd5b813560206123d5612334836122db565b82815260059290921b840181019181810190898411156123f457600080fd5b948201945b83861015612412578535825294820194908201906123f9565b9650508601359250508082111561242857600080fd5b5061243585828601612313565b9150509250929050565b60008060006040848603121561245457600080fd5b833561245f816121fc565b925060208401356001600160401b038082111561247b57600080fd5b818601915086601f83011261248f57600080fd5b81358181111561249e57600080fd5b87602060c0830285010111156124b357600080fd5b6020830194508093505050509250925092565b6000602082840312156124d857600080fd5b81356001600160801b0381168114611c3157600080fd5b60006020828403121561250157600080fd5b8135611c31816122fe565b60006020828403121561251e57600080fd5b5035919050565b6000806040838503121561253857600080fd5b8235612543816122fe565b91506020830135612553816122fe565b809150509250929050565b602081526000611c3160208301846121b7565b634e487b7160e01b600052601160045260246000fd5b808201808211156113fa576113fa612571565b6000602082840312156125ac57600080fd5b8151611c31816122fe565b600181811c908216806125cb57607f821691505b6020821081036125eb57634e487b7160e01b600052602260045260246000fd5b50919050565b60008251612603818460208701612193565b9190910192915050565b8051612618816121fc565b919050565b60006020828403121561262f57600080fd5b8151611c31816121fc565b62ffffff81811683821601908082111561265657612656612571565b5092915050565b60006020828403121561266f57600080fd5b8151611c318161220d565b634e487b7160e01b600052603260045260246000fd5b61ffff8116811461137457600080fd5b6000602082840312156126b257600080fd5b8135611c3181612690565b6000602082840312156126cf57600080fd5b8135611c31816121fc565b6000602082840312156126ec57600080fd5b81356001600160781b0381168114611c3157600080fd5b60006020828403121561271557600080fd5b81356affffffffffffffffffffff1981168114611c3157600080fd5b60006020828403121561274357600080fd5b81518060000b8114611c3157600080fd5b60006001820161276657612766612571565b5060010190565b60006020828403121561277f57600080fd5b81518015158114611c3157600080fd5b818103818111156113fa576113fa612571565b634e487b7160e01b600052600160045260246000fd5b6001600160401b038181168382160280821691908281146127db576127db612571565b505092915050565b6001600160401b0382811682821603908082111561265657612656612571565b600082601f83011261281457600080fd5b81516001600160401b0381111561282d5761282d61226d565b612840601f8201601f19166020016122ab565b81815284602083860101111561285557600080fd5b61205f826020830160208701612193565b805161261881612690565b6000602080838503121561288457600080fd5b82516001600160401b038082111561289b57600080fd5b818501915085601f8301126128af57600080fd5b81516128bd612334826122db565b81815260059190911b830184019084810190888311156128dc57600080fd5b8585015b838110156129b4578051858111156128f757600080fd5b860160c0818c03601f1901121561290e5760008081fd5b612916612283565b88820151878111156129285760008081fd5b6129368d8b83860101612803565b825250604061294681840161260d565b8a8301526060612957818501612866565b828401526080915061296a82850161260d565b9083015260a083810151898111156129825760008081fd5b6129908f8d83880101612803565b83850152506129a160c08501612866565b90830152508452509186019186016128e0565b5098975050505050505050565b6040815260006129d460408301856121b7565b905062ffffff831660208301529392505050565b6000602082840312156129fa57600080fd5b81516001600160401b03811115612a1057600080fd5b61205f84828501612803565b60e081526000612a2f60e083018a6121b7565b8281036020840152612a41818a6121b7565b905087604084015261ffff808816606085015262ffffff8716608085015283820360a0850152612a7182876121b7565b925080851660c0850152505098975050505050505050565b600060208284031215612a9b57600080fd5b5051919050565b601f821115610a3657600081815260208120601f850160051c81016020861015612ac95750805b601f850160051c820191505b81811015612ae857828155600101612ad5565b505050505050565b81516001600160401b03811115612b0957612b0961226d565b612b1d81612b1784546125b7565b84612aa2565b602080601f831160018114612b525760008415612b3a5750858301515b600019600386901b1c1916600185901b178555612ae8565b600085815260208120601f198616915b82811015612b8157888601518255948401946001909101908401612b62565b5085821015612b9f5787850151600019600388901b60f8161c191681555b5050505050600190811b01905550565b63ffffffff60e01b8516815283602082015260606040820152816060820152818360808301376000818301608090810191909152601f909201601f191601019392505050565b634e487b7160e01b600052601260045260246000fd5b600082612c1a57612c1a612bf5565b500490565b600082612c2e57612c2e612bf5565b500690565b80820281158282048414176113fa576113fa61257156fea2646970667358221220dee672a828fabad75775becf472516b06d9a0741bee56718deaaa2f64b580d2864736f6c63430008140033",
  "linkReferences": {},
  "deployedLinkReferences": {}
}