{
  "_format": "hh-sol-artifact-1",
  "contractName": "FtsoRewardOffersManager",
  "sourceName": "contracts/ftso/implementation/FtsoRewardOffersManager.sol",
  "abi": [
    {
      "inputs": [
        {
          "internalType": "contract IGovernanceSettings",
          "name": "_governanceSettings",
          "type": "address"
        },
        {
          "internalType": "address",
          "name": "_initialGovernance",
          "type": "address"
        },
        {
          "internalType": "address",
          "name": "_addressUpdater",
          "type": "address"
        },
        {
          "internalType": "uint128",
          "name": "_minimalRewardsOfferValueWei",
          "type": "uint128"
        }
      ],
      "stateMutability": "nonpayable",
      "type": "constructor"
    },
    {
      "anonymous": false,
      "inputs": [
        {
          "indexed": false,
          "internalType": "uint256",
          "name": "authorizedAmountWei",
          "type": "uint256"
        }
      ],
      "name": "DailyAuthorizedInflationSet",
      "type": "event"
    },
    {
      "anonymous": false,
      "inputs": [
        {
          "indexed": false,
          "internalType": "bytes4",
          "name": "selector",
          "type": "bytes4"
        },
        {
          "indexed": false,
          "internalType": "uint256",
          "name": "allowedAfterTimestamp",
          "type": "uint256"
        },
        {
          "indexed": false,
          "internalType": "bytes",
          "name": "encodedCall",
          "type": "bytes"
        }
      ],
      "name": "GovernanceCallTimelocked",
      "type": "event"
    },
    {
      "anonymous": false,
      "inputs": [
        {
          "indexed": false,
          "internalType": "address",
          "name": "initialGovernance",
          "type": "address"
        }
      ],
      "name": "GovernanceInitialised",
      "type": "event"
    },
    {
      "anonymous": false,
      "inputs": [
        {
          "indexed": false,
          "internalType": "address",
          "name": "governanceSettings",
          "type": "address"
        }
      ],
      "name": "GovernedProductionModeEntered",
      "type": "event"
    },
    {
      "anonymous": false,
      "inputs": [
        {
          "indexed": false,
          "internalType": "uint256",
          "name": "amountReceivedWei",
          "type": "uint256"
        }
      ],
      "name": "InflationReceived",
      "type": "event"
    },
    {
      "anonymous": false,
      "inputs": [
        {
          "indexed": true,
          "internalType": "uint24",
          "name": "rewardEpochId",
          "type": "uint24"
        },
        {
          "indexed": false,
          "internalType": "bytes",
          "name": "feedNames",
          "type": "bytes"
        },
        {
          "indexed": false,
          "internalType": "bytes",
          "name": "decimals",
          "type": "bytes"
        },
        {
          "indexed": false,
          "internalType": "uint256",
          "name": "amount",
          "type": "uint256"
        },
        {
          "indexed": false,
          "internalType": "uint16",
          "name": "minRewardedTurnoutBIPS",
          "type": "uint16"
        },
        {
          "indexed": false,
          "internalType": "uint24",
          "name": "primaryBandRewardSharePPM",
          "type": "uint24"
        },
        {
          "indexed": false,
          "internalType": "bytes",
          "name": "secondaryBandWidthPPMs",
          "type": "bytes"
        },
        {
          "indexed": false,
          "internalType": "uint16",
          "name": "mode",
          "type": "uint16"
        }
      ],
      "name": "InflationRewardsOffered",
      "type": "event"
    },
    {
      "anonymous": false,
      "inputs": [
        {
          "indexed": false,
          "internalType": "uint256",
          "name": "valueWei",
          "type": "uint256"
        }
      ],
      "name": "MinimalRewardsOfferValueSet",
      "type": "event"
    },
    {
      "anonymous": false,
      "inputs": [
        {
          "indexed": true,
          "internalType": "uint24",
          "name": "rewardEpochId",
          "type": "uint24"
        },
        {
          "indexed": false,
          "internalType": "bytes8",
          "name": "feedName",
          "type": "bytes8"
        },
        {
          "indexed": false,
          "internalType": "int8",
          "name": "decimals",
          "type": "int8"
        },
        {
          "indexed": false,
          "internalType": "uint256",
          "name": "amount",
          "type": "uint256"
        },
        {
          "indexed": false,
          "internalType": "uint16",
          "name": "minRewardedTurnoutBIPS",
          "type": "uint16"
        },
        {
          "indexed": false,
          "internalType": "uint24",
          "name": "primaryBandRewardSharePPM",
          "type": "uint24"
        },
        {
          "indexed": false,
          "internalType": "uint24",
          "name": "secondaryBandWidthPPM",
          "type": "uint24"
        },
        {
          "indexed": false,
          "internalType": "address",
          "name": "claimBackAddress",
          "type": "address"
        }
      ],
      "name": "RewardsOffered",
      "type": "event"
    },
    {
      "anonymous": false,
      "inputs": [
        {
          "indexed": false,
          "internalType": "bytes4",
          "name": "selector",
          "type": "bytes4"
        },
        {
          "indexed": false,
          "internalType": "uint256",
          "name": "timestamp",
          "type": "uint256"
        }
      ],
      "name": "TimelockedGovernanceCallCanceled",
      "type": "event"
    },
    {
      "anonymous": false,
      "inputs": [
        {
          "indexed": false,
          "internalType": "bytes4",
          "name": "selector",
          "type": "bytes4"
        },
        {
          "indexed": false,
          "internalType": "uint256",
          "name": "timestamp",
          "type": "uint256"
        }
      ],
      "name": "TimelockedGovernanceCallExecuted",
      "type": "event"
    },
    {
      "inputs": [
        {
          "internalType": "bytes4",
          "name": "_selector",
          "type": "bytes4"
        }
      ],
      "name": "cancelGovernanceCall",
      "outputs": [],
      "stateMutability": "nonpayable",
      "type": "function"
    },
    {
      "inputs": [],
      "name": "dailyAuthorizedInflation",
      "outputs": [
        {
          "internalType": "uint256",
          "name": "",
          "type": "uint256"
        }
      ],
      "stateMutability": "view",
      "type": "function"
    },
    {
      "inputs": [
        {
          "internalType": "bytes4",
          "name": "_selector",
          "type": "bytes4"
        }
      ],
      "name": "executeGovernanceCall",
      "outputs": [],
      "stateMutability": "nonpayable",
      "type": "function"
    },
    {
      "inputs": [],
      "name": "flareSystemsManager",
      "outputs": [
        {
          "internalType": "contract IIFlareSystemsManager",
          "name": "",
          "type": "address"
        }
      ],
      "stateMutability": "view",
      "type": "function"
    },
    {
      "inputs": [],
      "name": "ftsoFeedDecimals",
      "outputs": [
        {
          "internalType": "contract IFtsoFeedDecimals",
          "name": "",
          "type": "address"
        }
      ],
      "stateMutability": "view",
      "type": "function"
    },
    {
      "inputs": [],
      "name": "ftsoInflationConfigurations",
      "outputs": [
        {
          "internalType": "contract IFtsoInflationConfigurations",
          "name": "",
          "type": "address"
        }
      ],
      "stateMutability": "view",
      "type": "function"
    },
    {
      "inputs": [],
      "name": "getAddressUpdater",
      "outputs": [
        {
          "internalType": "address",
          "name": "_addressUpdater",
          "type": "address"
        }
      ],
      "stateMutability": "view",
      "type": "function"
    },
    {
      "inputs": [],
      "name": "getContractName",
      "outputs": [
        {
          "internalType": "string",
          "name": "",
          "type": "string"
        }
      ],
      "stateMutability": "pure",
      "type": "function"
    },
    {
      "inputs": [],
      "name": "getExpectedBalance",
      "outputs": [
        {
          "internalType": "uint256",
          "name": "",
          "type": "uint256"
        }
      ],
      "stateMutability": "view",
      "type": "function"
    },
    {
      "inputs": [],
      "name": "getInflationAddress",
      "outputs": [
        {
          "internalType": "address",
          "name": "",
          "type": "address"
        }
      ],
      "stateMutability": "view",
      "type": "function"
    },
    {
      "inputs": [],
      "name": "governance",
      "outputs": [
        {
          "internalType": "address",
          "name": "",
          "type": "address"
        }
      ],
      "stateMutability": "view",
      "type": "function"
    },
    {
      "inputs": [],
      "name": "governanceSettings",
      "outputs": [
        {
          "internalType": "contract IGovernanceSettings",
          "name": "",
          "type": "address"
        }
      ],
      "stateMutability": "view",
      "type": "function"
    },
    {
      "inputs": [
        {
          "internalType": "contract IGovernanceSettings",
          "name": "_governanceSettings",
          "type": "address"
        },
        {
          "internalType": "address",
          "name": "_initialGovernance",
          "type": "address"
        }
      ],
      "name": "initialise",
      "outputs": [],
      "stateMutability": "nonpayable",
      "type": "function"
    },
    {
      "inputs": [
        {
          "internalType": "address",
          "name": "_address",
          "type": "address"
        }
      ],
      "name": "isExecutor",
      "outputs": [
        {
          "internalType": "bool",
          "name": "",
          "type": "bool"
        }
      ],
      "stateMutability": "view",
      "type": "function"
    },
    {
      "inputs": [],
      "name": "lastInflationAuthorizationReceivedTs",
      "outputs": [
        {
          "internalType": "uint256",
          "name": "",
          "type": "uint256"
        }
      ],
      "stateMutability": "view",
      "type": "function"
    },
    {
      "inputs": [],
      "name": "lastInflationReceivedTs",
      "outputs": [
        {
          "internalType": "uint256",
          "name": "",
          "type": "uint256"
        }
      ],
      "stateMutability": "view",
      "type": "function"
    },
    {
      "inputs": [],
      "name": "minimalRewardsOfferValueWei",
      "outputs": [
        {
          "internalType": "uint256",
          "name": "",
          "type": "uint256"
        }
      ],
      "stateMutability": "view",
      "type": "function"
    },
    {
      "inputs": [
        {
          "internalType": "uint24",
          "name": "_nextRewardEpochId",
          "type": "uint24"
        },
        {
          "components": [
            {
              "internalType": "uint120",
              "name": "amount",
              "type": "uint120"
            },
            {
              "internalType": "bytes8",
              "name": "feedName",
              "type": "bytes8"
            },
            {
              "internalType": "uint16",
              "name": "minRewardedTurnoutBIPS",
              "type": "uint16"
            },
            {
              "internalType": "uint24",
              "name": "primaryBandRewardSharePPM",
              "type": "uint24"
            },
            {
              "internalType": "uint24",
              "name": "secondaryBandWidthPPM",
              "type": "uint24"
            },
            {
              "internalType": "address",
              "name": "claimBackAddress",
              "type": "address"
            }
          ],
          "internalType": "struct IFtsoRewardOffersManager.Offer[]",
          "name": "_offers",
          "type": "tuple[]"
        }
      ],
      "name": "offerRewards",
      "outputs": [],
      "stateMutability": "payable",
      "type": "function"
    },
    {
      "inputs": [],
      "name": "productionMode",
      "outputs": [
        {
          "internalType": "bool",
          "name": "",
          "type": "bool"
        }
      ],
      "stateMutability": "view",
      "type": "function"
    },
    {
      "inputs": [],
      "name": "receiveInflation",
      "outputs": [],
      "stateMutability": "payable",
      "type": "function"
    },
    {
      "inputs": [],
      "name": "rewardManager",
      "outputs": [
        {
          "internalType": "contract IIRewardManager",
          "name": "",
          "type": "address"
        }
      ],
      "stateMutability": "view",
      "type": "function"
    },
    {
      "inputs": [
        {
          "internalType": "uint256",
          "name": "_toAuthorizeWei",
          "type": "uint256"
        }
      ],
      "name": "setDailyAuthorizedInflation",
      "outputs": [],
      "stateMutability": "nonpayable",
      "type": "function"
    },
    {
      "inputs": [
        {
          "internalType": "uint128",
          "name": "_minimalRewardsOfferValueWei",
          "type": "uint128"
        }
      ],
      "name": "setMinimalRewardsOfferValue",
      "outputs": [],
      "stateMutability": "nonpayable",
      "type": "function"
    },
    {
      "inputs": [],
      "name": "switchToProductionMode",
      "outputs": [],
      "stateMutability": "nonpayable",
      "type": "function"
    },
    {
      "inputs": [
        {
          "internalType": "bytes4",
          "name": "selector",
          "type": "bytes4"
        }
      ],
      "name": "timelockedCalls",
      "outputs": [
        {
          "internalType": "uint256",
          "name": "allowedAfterTimestamp",
          "type": "uint256"
        },
        {
          "internalType": "bytes",
          "name": "encodedCall",
          "type": "bytes"
        }
      ],
      "stateMutability": "view",
      "type": "function"
    },
    {
      "inputs": [],
      "name": "totalInflationAuthorizedWei",
      "outputs": [
        {
          "internalType": "uint256",
          "name": "",
          "type": "uint256"
        }
      ],
      "stateMutability": "view",
      "type": "function"
    },
    {
      "inputs": [],
      "name": "totalInflationReceivedWei",
      "outputs": [
        {
          "internalType": "uint256",
          "name": "",
          "type": "uint256"
        }
      ],
      "stateMutability": "view",
      "type": "function"
    },
    {
      "inputs": [],
      "name": "totalInflationRewardsOfferedWei",
      "outputs": [
        {
          "internalType": "uint256",
          "name": "",
          "type": "uint256"
        }
      ],
      "stateMutability": "view",
      "type": "function"
    },
    {
      "inputs": [
        {
          "internalType": "uint24",
          "name": "_currentRewardEpochId",
          "type": "uint24"
        },
        {
          "internalType": "uint64",
          "name": "_currentRewardEpochExpectedEndTs",
          "type": "uint64"
        },
        {
          "internalType": "uint64",
          "name": "_rewardEpochDurationSeconds",
          "type": "uint64"
        }
      ],
      "name": "triggerRewardEpochSwitchover",
      "outputs": [],
      "stateMutability": "nonpayable",
      "type": "function"
    },
    {
      "inputs": [
        {
          "internalType": "bytes32[]",
          "name": "_contractNameHashes",
          "type": "bytes32[]"
        },
        {
          "internalType": "address[]",
          "name": "_contractAddresses",
          "type": "address[]"
        }
      ],
      "name": "updateContractAddresses",
      "outputs": [],
      "stateMutability": "nonpayable",
      "type": "function"
    }
  ],
  "bytecode": "0x60806040523480156200001157600080fd5b5060405162002f7638038062002f76833981016040819052620000349162000256565b83838380808484620000478282620000c4565b50620000739050817f714f205b2abd25bef1d06a1af944e38c113fe6160375c4e1d6d5cf28848e771955565b505050506001600160801b038216600b8190556040519081527fbaedeb3cf70a35fbe2d8dcb5306bc177734e0c529004225a1526766096d6f165915060200160405180910390a150505050620002c9565b600054600160a01b900460ff1615620001245760405162461bcd60e51b815260206004820152601460248201527f696e697469616c6973656420213d2066616c736500000000000000000000000060448201526064015b60405180910390fd5b6001600160a01b0382166200017c5760405162461bcd60e51b815260206004820152601860248201527f676f7665726e616e63652073657474696e6773207a65726f000000000000000060448201526064016200011b565b6001600160a01b038116620001c75760405162461bcd60e51b815260206004820152601060248201526f5f676f7665726e616e6365207a65726f60801b60448201526064016200011b565b600080546001600160a01b038481166001600160a81b031990921691909117600160a01b17909155600180549183166001600160a01b0319909216821790556040519081527f9789733827840833afc031fb2ef9ab6894271f77bad2085687cf4ae5c7bee4db9060200160405180910390a15050565b6001600160a01b03811681146200025357600080fd5b50565b600080600080608085870312156200026d57600080fd5b84516200027a816200023d565b60208601519094506200028d816200023d565b6040860151909350620002a0816200023d565b60608601519092506001600160801b0381168114620002be57600080fd5b939692955090935050565b612c9d80620002d96000396000f3fe6080604052600436106101cd5760003560e01c8063af04cd3b116100f7578063debfda3011610095578063ef88bf1311610064578063ef88bf13146104ef578063f5a983831461050f578063f5f5ba7214610524578063faae7fc91461057057600080fd5b8063debfda3014610460578063e17f212e14610490578063e2739563146104b1578063ed39d3f8146104d157600080fd5b8063c27fb624116100d1578063c27fb624146103f4578063c85f3a4614610414578063c9f19dd21461042a578063d0c1c3931461044a57600080fd5b8063af04cd3b146103a9578063b00c0b76146103be578063bd76b69c146103de57600080fd5b80635ff270791161016f57806374e6310e1161013e57806374e6310e146103255780639065c9741461035357806391f2567914610373578063a5555aea1461039357600080fd5b80635ff27079146102af57806362354e03146102cf57806367fc4029146102ef578063708e34ce1461030f57600080fd5b806312afcf0b116101ab57806312afcf0b1461022c578063473252c4146102505780635267a15d146102665780635aa6e6751461029a57600080fd5b806306201f1d146101d25780630f4ef8a6146101dc5780630f743afc14610219575b600080fd5b6101da610590565b005b3480156101e857600080fd5b50600c546101fc906001600160a01b031681565b6040516001600160a01b0390911681526020015b60405180910390f35b6101da61022736600461219b565b6105f2565b34801561023857600080fd5b5061024260065481565b604051908152602001610210565b34801561025c57600080fd5b5061024260055481565b34801561027257600080fd5b507f714f205b2abd25bef1d06a1af944e38c113fe6160375c4e1d6d5cf28848e7719546101fc565b3480156102a657600080fd5b506101fc610cbb565b3480156102bb57600080fd5b506101da6102ca366004612222565b610d57565b3480156102db57600080fd5b506000546101fc906001600160a01b031681565b3480156102fb57600080fd5b506101da61030a366004612222565b610fdd565b34801561031b57600080fd5b5061024260075481565b34801561033157600080fd5b50610345610340366004612222565b6110b9565b60405161021092919061229c565b34801561035f57600080fd5b50600e546101fc906001600160a01b031681565b34801561037f57600080fd5b506101da61038e3660046122ca565b61115e565b34801561039f57600080fd5b5061024260045481565b3480156103b557600080fd5b506102426111c3565b3480156103ca57600080fd5b506101da6103d936600461242f565b6111cd565b3480156103ea57600080fd5b50610242600a5481565b34801561040057600080fd5b50600d546101fc906001600160a01b031681565b34801561042057600080fd5b50610242600b5481565b34801561043657600080fd5b506101da6104453660046124e7565b6112ac565b34801561045657600080fd5b5061024260035481565b34801561046c57600080fd5b5061048061047b366004612510565b61132e565b6040519015158152602001610210565b34801561049c57600080fd5b5060005461048090600160a81b900460ff1681565b3480156104bd57600080fd5b506101da6104cc36600461252d565b6113b7565b3480156104dd57600080fd5b506008546001600160a01b03166101fc565b3480156104fb57600080fd5b506101da61050a366004612546565b611418565b34801561051b57600080fd5b506101da61157e565b34801561053057600080fd5b50604080518082018252601781527f4674736f5265776172644f66666572734d616e6167657200000000000000000060208201529051610210919061257f565b34801561057c57600080fd5b506009546101fc906001600160a01b031681565b610598611644565b6105a06116ac565b346004546105ae91906125a8565b600455426006556040513481527f95c4e29cc99bc027cfc3cd719d6fd973d5f0317061885fbb322b9b17d8d35d379060200160405180910390a16105f06116f7565b565b6105fa611644565b60095460408051637056269760e01b815290516000926001600160a01b03169163705626979160048083019260209291908290030181865afa158015610644573d6000803e3d6000fd5b505050506040513d601f19601f8201168201806040525081019061066891906125cb565b90506106758160016125e8565b62ffffff168462ffffff16146106d25760405162461bcd60e51b815260206004820152601860248201527f6e6f74206e657874207265776172642065706f6368206964000000000000000060448201526064015b60405180910390fd5b600960009054906101000a90046001600160a01b03166001600160a01b0316636aeffddc6040518163ffffffff1660e01b8152600401602060405180830381865afa158015610725573d6000803e3d6000fd5b505050506040513d601f19601f82011682018060405250810190610749919061260b565b61075c906001600160401b0316426125a8565b600960009054906101000a90046001600160a01b03166001600160a01b031663ed54fd636040518163ffffffff1660e01b8152600401602060405180830381865afa1580156107af573d6000803e3d6000fd5b505050506040513d601f19601f820116820180604052508101906107d3919061260b565b6001600160401b0316116108295760405162461bcd60e51b815260206004820152601e60248201527f746f6f206c61746520666f72206e657874207265776172642065706f6368000060448201526064016106c9565b6000805b83811015610bdc573685858381811061084857610848612628565b905060c002019050612710816040016020810190610866919061264e565b61ffff1611156108c45760405162461bcd60e51b8152602060048201526024808201527f696e76616c6964206d696e52657761726465645475726e6f7574424950532076604482015263616c756560e01b60648201526084016106c9565b620f42406108d8608083016060840161266b565b62ffffff16111561093b5760405162461bcd60e51b815260206004820152602760248201527f696e76616c6964207072696d61727942616e64526577617264536861726550506044820152664d2076616c756560c81b60648201526084016106c9565b620f424061094f60a083016080840161266b565b62ffffff1611156109ae5760405162461bcd60e51b815260206004820152602360248201527f696e76616c6964207365636f6e6461727942616e64576964746850504d2076616044820152626c756560e81b60648201526084016106c9565b600b546109be6020830183612688565b6001600160781b03161015610a155760405162461bcd60e51b815260206004820152601d60248201527f72657761726473206f666665722076616c756520746f6f20736d616c6c00000060448201526064016106c9565b610a226020820182612688565b610a35906001600160781b0316846125a8565b92506000610a4960c0830160a08401612510565b90506001600160a01b038116610a5c5750335b62ffffff88167fa299626a18644f5c33ea5b4ecb4076376c6839d4c2ecdfe12a69b0520e9f2ce6610a9360408501602086016126b1565b600e546001600160a01b0316638fa04e33610ab460408801602089016126b1565b6040516001600160e01b031960e084901b1681526001600160c01b0319909116600482015262ffffff8e166024820152604401602060405180830381865afa158015610b04573d6000803e3d6000fd5b505050506040513d601f19601f82011682018060405250810190610b2891906126db565b610b356020870187612688565b610b45606088016040890161264e565b610b556080890160608a0161266b565b610b6560a08a0160808b0161266b565b604080516001600160c01b0319909716875260009590950b60208701526001600160781b039093169385019390935261ffff16606084015262ffffff91821660808401521660a08201526001600160a01b03841660c082015260e00160405180910390a2505080610bd5906126fe565b905061082d565b50348114610c415760405162461bcd60e51b815260206004820152602c60248201527f616d6f756e74206f666665726564206973206e6f74207468652073616d65206160448201526b1cc81d985b1d59481cd95b9d60a21b60648201526084016106c9565b600c5460405163a02e86e560e01b815262ffffff87166004820152600060248201526001600160a01b039091169063a02e86e59034906044016000604051808303818588803b158015610c9357600080fd5b505af1158015610ca7573d6000803e3d6000fd5b50505050505050610cb66116f7565b505050565b60008054600160a81b900460ff16610cdd57506001546001600160a01b031690565b60008054906101000a90046001600160a01b03166001600160a01b031663732524946040518163ffffffff1660e01b8152600401602060405180830381865afa158015610d2e573d6000803e3d6000fd5b505050506040513d601f19601f82011682018060405250810190610d529190612717565b905090565b610d603361132e565b610d9c5760405162461bcd60e51b815260206004820152600d60248201526c37b7363c9032bc32b1baba37b960991b60448201526064016106c9565b6001600160e01b0319811660009081526002602052604081208054909103610e065760405162461bcd60e51b815260206004820152601a60248201527f74696d656c6f636b3a20696e76616c69642073656c6563746f7200000000000060448201526064016106c9565b8054421015610e575760405162461bcd60e51b815260206004820152601960248201527f74696d656c6f636b3a206e6f7420616c6c6f776564207965740000000000000060448201526064016106c9565b6000816001018054610e6890612734565b80601f0160208091040260200160405190810160405280929190818152602001828054610e9490612734565b8015610ee15780601f10610eb657610100808354040283529160200191610ee1565b820191906000526020600020905b815481529060010190602001808311610ec457829003601f168201915b505050506001600160e01b0319851660009081526002602052604081208181559293509050610f13600183018261213c565b50506000805460ff60b01b1916600160b01b1781556040513090610f3890849061276e565b6000604051808303816000865af19150503d8060008114610f75576040519150601f19603f3d011682016040523d82523d6000602084013e610f7a565b606091505b50506000805460ff60b01b19169055604080516001600160e01b0319871681524260208201529192507fa7326b57fc9cfe267aaea5e7f0b01757154d265620a0585819416ee9ddd2c438910160405180910390a1610fd78161173e565b50505050565b610fe561175b565b6001600160e01b03198116600090815260026020526040812054900361104d5760405162461bcd60e51b815260206004820152601a60248201527f74696d656c6f636b3a20696e76616c69642073656c6563746f7200000000000060448201526064016106c9565b604080516001600160e01b0319831681524260208201527f7735b2391c38a81419c513e30ca578db7158eadd7101511b23e221c654d19cf8910160405180910390a16001600160e01b03198116600090815260026020526040812081815590610cb6600183018261213c565b600260205260009081526040902080546001820180549192916110db90612734565b80601f016020809104026020016040519081016040528092919081815260200182805461110790612734565b80156111545780601f1061112957610100808354040283529160200191611154565b820191906000526020600020905b81548152906001019060200180831161113757829003601f168201915b5050505050905082565b6009546001600160a01b031633146111b85760405162461bcd60e51b815260206004820152601960248201527f6f6e6c7920666c6172652073797374656d206d616e616765720000000000000060448201526064016106c9565b610cb68383836117b5565b6000610d52611b09565b7f714f205b2abd25bef1d06a1af944e38c113fe6160375c4e1d6d5cf28848e7719546001600160a01b0316336001600160a01b0316146112465760405162461bcd60e51b815260206004820152601460248201527337b7363c9030b2323932b9b9903ab83230ba32b960611b60448201526064016106c9565b61129e61127a83836040518060400160405280600e81526020016d20b2323932b9b9aab83230ba32b960911b815250611b1b565b7f714f205b2abd25bef1d06a1af944e38c113fe6160375c4e1d6d5cf28848e771955565b6112a88282611bf8565b5050565b600054600160b01b900460ff16806112ce5750600054600160a81b900460ff16155b15611320576112db611d15565b6001600160801b038116600b8190556040519081527fbaedeb3cf70a35fbe2d8dcb5306bc177734e0c529004225a1526766096d6f1659060200160405180910390a150565b61132b600036611d4d565b50565b60008054600160a01b900460ff1680156113b15750600054604051630debfda360e41b81526001600160a01b0384811660048301529091169063debfda3090602401602060405180830381865afa15801561138d573d6000803e3d6000fd5b505050506040513d601f19601f820116820180604052508101906113b1919061278a565b92915050565b6113bf6116ac565b60078190556003546113d29082906125a8565b600355426005556113e281611e99565b6040518181527f187f32a0f765499f15b3bb52ed0aebf6015059f230f2ace7e701e60a476695959060200160405180910390a150565b600054600160a01b900460ff16156114695760405162461bcd60e51b8152602060048201526014602482015273696e697469616c6973656420213d2066616c736560601b60448201526064016106c9565b6001600160a01b0382166114bf5760405162461bcd60e51b815260206004820152601860248201527f676f7665726e616e63652073657474696e6773207a65726f000000000000000060448201526064016106c9565b6001600160a01b0381166115085760405162461bcd60e51b815260206004820152601060248201526f5f676f7665726e616e6365207a65726f60801b60448201526064016106c9565b600080546001600160a01b038481166001600160a81b031990921691909117600160a01b17909155600180549183166001600160a01b0319909216821790556040519081527f9789733827840833afc031fb2ef9ab6894271f77bad2085687cf4ae5c7bee4db9060200160405180910390a15050565b61158661175b565b600054600160a81b900460ff16156115e05760405162461bcd60e51b815260206004820152601a60248201527f616c726561647920696e2070726f64756374696f6e206d6f646500000000000060448201526064016106c9565b600180546001600160a01b031916905560008054600160a81b60ff60a81b198216179091556040516001600160a01b0390911681527f83af113638b5422f9e977cebc0aaf0eaf2188eb9a8baae7f9d46c42b33a1560c9060200160405180910390a1565b60003461164f611b09565b61165991906125a8565b9050478181111561169c5761dead6108fc61167484846127ac565b6040518115909202916000818181858888f19350505050158015610cb6573d6000803e3d6000fd5b818110156112a8576112a86127bf565b6008546001600160a01b031633146105f05760405162461bcd60e51b815260206004820152600e60248201526d696e666c6174696f6e206f6e6c7960901b60448201526064016106c9565b6116ff611b09565b47146105f05760405162461bcd60e51b815260206004820152600e60248201526d6f7574206f662062616c616e636560901b60448201526064016106c9565b3d604051818101604052816000823e8215611757578181f35b8181fd5b611763610cbb565b6001600160a01b0316336001600160a01b0316146105f05760405162461bcd60e51b815260206004820152600f60248201526e6f6e6c7920676f7665726e616e636560881b60448201526064016106c9565b60006117c28260026127d5565b6117cc9084612800565b6001600160401b031690506000611805620151806006546117ed91906125a8565b6117f78587612800565b6001600160401b0316611efa565b905060006118376001600160401b03851661182085856127ac565b600a5460045461183091906127ac565b9190611f10565b905060006118468760016125e8565b90506000600d60009054906101000a90046001600160a01b03166001600160a01b0316634620cf4b6040518163ffffffff1660e01b8152600401600060405180830381865afa15801561189d573d6000803e3d6000fd5b505050506040513d6000823e601f3d908101601f191682016040526118c5919081019061288e565b80519091506000805b82811015611918578381815181106118e8576118e8612628565b60200260200101516020015162ffffff168261190491906125a8565b915080611910816126fe565b9150506118ce565b508060000361192d5750505050505050505050565b8460005b83811015611a7957600085828151811061194d5761194d612628565b60200260200101519050600061196d8486846020015162ffffff16612036565b905061197981856127ac565b9350816020015162ffffff168561199091906127ac565b8251600e54604051630630ac4160e21b815292975062ffffff8b16927f01070f0e535c0d3077d9ca64b3122869a1897ff5c7711ba33b4db1fb9fd70cfc92916001600160a01b0316906318c2b104906119ef9084908f906004016129de565b600060405180830381865afa158015611a0c573d6000803e3d6000fd5b505050506040513d6000823e601f3d908101601f19168201604052611a349190810190612a05565b848660400151876060015188608001518960a00151604051611a5c9796959493929190612a39565b60405180910390a250508080611a71906126fe565b915050611931565b5085600a6000828254611a8c91906125a8565b9091555050600c5460405163a02e86e560e01b815262ffffff87166004820152600160248201526001600160a01b039091169063a02e86e59088906044016000604051808303818588803b158015611ae357600080fd5b505af1158015611af7573d6000803e3d6000fd5b50505050505050505050505050505050565b6000600a54600454610d5291906127ac565b60008082604051602001611b2f919061257f565b6040516020818303038152906040528051906020012090506000805b8651811015611ba757868181518110611b6657611b66612628565b60200260200101518303611b9557858181518110611b8657611b86612628565b60200260200101519150611ba7565b80611b9f816126fe565b915050611b4b565b506001600160a01b038116611bed5760405162461bcd60e51b815260206004820152600c60248201526b61646472657373207a65726f60a01b60448201526064016106c9565b9150505b9392505050565b611c028282612088565b611c3282826040518060400160405280600d81526020016c2932bbb0b93226b0b730b3b2b960991b815250611b1b565b600c60006101000a8154816001600160a01b0302191690836001600160a01b03160217905550611c9882826040518060400160405280601b81526020017f4674736f496e666c6174696f6e436f6e66696775726174696f6e730000000000815250611b1b565b600d60006101000a8154816001600160a01b0302191690836001600160a01b03160217905550611cf182826040518060400160405280601081526020016f4674736f46656564446563696d616c7360801b815250611b1b565b600e80546001600160a01b0319166001600160a01b03929092169190911790555050565b600054600160b01b900460ff1615611d4557333014611d3657611d366127bf565b6000805460ff60b01b19169055565b6105f061175b565b611d5561175b565b6000805460408051636221a54b60e01b81529051853593926001600160a01b031691636221a54b9160048083019260209291908290030181865afa158015611da1573d6000803e3d6000fd5b505050506040513d601f19601f82011682018060405250810190611dc59190612aa6565b90506000611dd382426125a8565b9050604051806040016040528082815260200186868080601f01602080910402602001604051908101604052809392919081815260200183838082843760009201829052509390945250506001600160e01b03198616815260026020908152604090912083518155908301519091506001820190611e519082612b0d565b509050507fed948300a3694aa01d4a6b258bfd664350193d770c0b51f8387277f6d83ea3b683828787604051611e8a9493929190612bcc565b60405180910390a15050505050565b600c546040516315ca063760e01b8152600481018390526001600160a01b03909116906315ca063790602401600060405180830381600087803b158015611edf57600080fd5b505af1158015611ef3573d6000803e3d6000fd5b5050505050565b6000818311611f095781611bf1565b5090919050565b6000808211611f545760405162461bcd60e51b815260206004820152601060248201526f4469766973696f6e206279207a65726f60801b60448201526064016106c9565b83600003611f6457506000611bf1565b83830283858281611f7757611f77612c12565b0403611f9557828181611f8c57611f8c612c12565b04915050611bf1565b506000611fa28386612c28565b90506000611fb08487612c3c565b90506000611fbe8587612c28565b90506000611fcc8688612c3c565b905085611fd98285612c50565b611fe39190612c28565b611fed8385612c50565b611ff78387612c50565b886120028689612c50565b61200c9190612c50565b61201691906125a8565b61202091906125a8565b61202a91906125a8565b98975050505050505050565b60008160000361204857506000611bf1565b8360000361205857506000611bf1565b828203612066575082611bf1565b828210612075576120756127bf565b612080848385611f10565b949350505050565b61209282826120ec565b6120c8828260405180604001604052806013815260200172233630b932a9bcb9ba32b6b9a6b0b730b3b2b960691b815250611b1b565b600980546001600160a01b0319166001600160a01b03929092169190911790555050565b61211882826040518060400160405280600981526020016824b7333630ba34b7b760b91b815250611b1b565b600880546001600160a01b0319166001600160a01b03929092169190911790555050565b50805461214890612734565b6000825580601f10612158575050565b601f01602090049060005260206000209081019061132b91905b808211156121865760008155600101612172565b5090565b62ffffff8116811461132b57600080fd5b6000806000604084860312156121b057600080fd5b83356121bb8161218a565b925060208401356001600160401b03808211156121d757600080fd5b818601915086601f8301126121eb57600080fd5b8135818111156121fa57600080fd5b87602060c08302850101111561220f57600080fd5b6020830194508093505050509250925092565b60006020828403121561223457600080fd5b81356001600160e01b031981168114611bf157600080fd5b60005b8381101561226757818101518382015260200161224f565b50506000910152565b6000815180845261228881602086016020860161224c565b601f01601f19169290920160200192915050565b8281526040602082015260006120806040830184612270565b6001600160401b038116811461132b57600080fd5b6000806000606084860312156122df57600080fd5b83356122ea8161218a565b925060208401356122fa816122b5565b9150604084013561230a816122b5565b809150509250925092565b634e487b7160e01b600052604160045260246000fd5b60405160c081016001600160401b038111828210171561234d5761234d612315565b60405290565b604051601f8201601f191681016001600160401b038111828210171561237b5761237b612315565b604052919050565b60006001600160401b0382111561239c5761239c612315565b5060051b60200190565b6001600160a01b038116811461132b57600080fd5b600082601f8301126123cc57600080fd5b813560206123e16123dc83612383565b612353565b82815260059290921b8401810191818101908684111561240057600080fd5b8286015b84811015612424578035612417816123a6565b8352918301918301612404565b509695505050505050565b6000806040838503121561244257600080fd5b82356001600160401b038082111561245957600080fd5b818501915085601f83011261246d57600080fd5b8135602061247d6123dc83612383565b82815260059290921b8401810191818101908984111561249c57600080fd5b948201945b838610156124ba578535825294820194908201906124a1565b965050860135925050808211156124d057600080fd5b506124dd858286016123bb565b9150509250929050565b6000602082840312156124f957600080fd5b81356001600160801b0381168114611bf157600080fd5b60006020828403121561252257600080fd5b8135611bf1816123a6565b60006020828403121561253f57600080fd5b5035919050565b6000806040838503121561255957600080fd5b8235612564816123a6565b91506020830135612574816123a6565b809150509250929050565b602081526000611bf16020830184612270565b634e487b7160e01b600052601160045260246000fd5b808201808211156113b1576113b1612592565b80516125c68161218a565b919050565b6000602082840312156125dd57600080fd5b8151611bf18161218a565b62ffffff81811683821601908082111561260457612604612592565b5092915050565b60006020828403121561261d57600080fd5b8151611bf1816122b5565b634e487b7160e01b600052603260045260246000fd5b61ffff8116811461132b57600080fd5b60006020828403121561266057600080fd5b8135611bf18161263e565b60006020828403121561267d57600080fd5b8135611bf18161218a565b60006020828403121561269a57600080fd5b81356001600160781b0381168114611bf157600080fd5b6000602082840312156126c357600080fd5b81356001600160c01b031981168114611bf157600080fd5b6000602082840312156126ed57600080fd5b81518060000b8114611bf157600080fd5b60006001820161271057612710612592565b5060010190565b60006020828403121561272957600080fd5b8151611bf1816123a6565b600181811c9082168061274857607f821691505b60208210810361276857634e487b7160e01b600052602260045260246000fd5b50919050565b6000825161278081846020870161224c565b9190910192915050565b60006020828403121561279c57600080fd5b81518015158114611bf157600080fd5b818103818111156113b1576113b1612592565b634e487b7160e01b600052600160045260246000fd5b6001600160401b038181168382160280821691908281146127f8576127f8612592565b505092915050565b6001600160401b0382811682821603908082111561260457612604612592565b600082601f83011261283157600080fd5b81516001600160401b0381111561284a5761284a612315565b61285d601f8201601f1916602001612353565b81815284602083860101111561287257600080fd5b61208082602083016020870161224c565b80516125c68161263e565b600060208083850312156128a157600080fd5b82516001600160401b03808211156128b857600080fd5b818501915085601f8301126128cc57600080fd5b81516128da6123dc82612383565b81815260059190911b830184019084810190888311156128f957600080fd5b8585015b838110156129d15780518581111561291457600080fd5b860160c0818c03601f1901121561292b5760008081fd5b61293361232b565b88820151878111156129455760008081fd5b6129538d8b83860101612820565b82525060406129638184016125bb565b8a8301526060612974818501612883565b82840152608091506129878285016125bb565b9083015260a0838101518981111561299f5760008081fd5b6129ad8f8d83880101612820565b83850152506129be60c08501612883565b90830152508452509186019186016128fd565b5098975050505050505050565b6040815260006129f16040830185612270565b905062ffffff831660208301529392505050565b600060208284031215612a1757600080fd5b81516001600160401b03811115612a2d57600080fd5b61208084828501612820565b60e081526000612a4c60e083018a612270565b8281036020840152612a5e818a612270565b905087604084015261ffff808816606085015262ffffff8716608085015283820360a0850152612a8e8287612270565b925080851660c0850152505098975050505050505050565b600060208284031215612ab857600080fd5b5051919050565b601f821115610cb657600081815260208120601f850160051c81016020861015612ae65750805b601f850160051c820191505b81811015612b0557828155600101612af2565b505050505050565b81516001600160401b03811115612b2657612b26612315565b612b3a81612b348454612734565b84612abf565b602080601f831160018114612b6f5760008415612b575750858301515b600019600386901b1c1916600185901b178555612b05565b600085815260208120601f198616915b82811015612b9e57888601518255948401946001909101908401612b7f565b5085821015612bbc5787850151600019600388901b60f8161c191681555b5050505050600190811b01905550565b63ffffffff60e01b8516815283602082015260606040820152816060820152818360808301376000818301608090810191909152601f909201601f191601019392505050565b634e487b7160e01b600052601260045260246000fd5b600082612c3757612c37612c12565b500490565b600082612c4b57612c4b612c12565b500690565b80820281158282048414176113b1576113b161259256fea26469706673582212202ecaec2834f80197ee364e99192776900b1c0b282b37ff41e5dd65842049cc2264736f6c63430008140033",
  "linkReferences": {},
  "deployedLinkReferences": {}
}