{
  "_format": "hh-sol-artifact-1",
  "contractName": "FtsoRewardOffersManager",
  "sourceName": "contracts/ftso/implementation/FtsoRewardOffersManager.sol",
  "abi": [
    {
      "inputs": [
        {
          "internalType": "contract IGovernanceSettings",
          "name": "_governanceSettings",
          "type": "address"
        },
        {
          "internalType": "address",
          "name": "_initialGovernance",
          "type": "address"
        },
        {
          "internalType": "address",
          "name": "_addressUpdater",
          "type": "address"
        },
        {
          "internalType": "uint128",
          "name": "_minimalRewardsOfferValueWei",
          "type": "uint128"
        }
      ],
      "stateMutability": "nonpayable",
      "type": "constructor"
    },
    {
      "anonymous": false,
      "inputs": [
        {
          "indexed": false,
          "internalType": "uint256",
          "name": "authorizedAmountWei",
          "type": "uint256"
        }
      ],
      "name": "DailyAuthorizedInflationSet",
      "type": "event"
    },
    {
      "anonymous": false,
      "inputs": [
        {
          "indexed": false,
          "internalType": "bytes4",
          "name": "selector",
          "type": "bytes4"
        },
        {
          "indexed": false,
          "internalType": "uint256",
          "name": "allowedAfterTimestamp",
          "type": "uint256"
        },
        {
          "indexed": false,
          "internalType": "bytes",
          "name": "encodedCall",
          "type": "bytes"
        }
      ],
      "name": "GovernanceCallTimelocked",
      "type": "event"
    },
    {
      "anonymous": false,
      "inputs": [
        {
          "indexed": false,
          "internalType": "address",
          "name": "initialGovernance",
          "type": "address"
        }
      ],
      "name": "GovernanceInitialised",
      "type": "event"
    },
    {
      "anonymous": false,
      "inputs": [
        {
          "indexed": false,
          "internalType": "address",
          "name": "governanceSettings",
          "type": "address"
        }
      ],
      "name": "GovernedProductionModeEntered",
      "type": "event"
    },
    {
      "anonymous": false,
      "inputs": [
        {
          "indexed": false,
          "internalType": "uint256",
          "name": "amountReceivedWei",
          "type": "uint256"
        }
      ],
      "name": "InflationReceived",
      "type": "event"
    },
    {
      "anonymous": false,
      "inputs": [
        {
          "indexed": false,
          "internalType": "uint24",
          "name": "rewardEpochId",
          "type": "uint24"
        },
        {
          "indexed": false,
          "internalType": "bytes",
          "name": "feedNames",
          "type": "bytes"
        },
        {
          "indexed": false,
          "internalType": "bytes",
          "name": "decimals",
          "type": "bytes"
        },
        {
          "indexed": false,
          "internalType": "uint256",
          "name": "amount",
          "type": "uint256"
        },
        {
          "indexed": false,
          "internalType": "uint16",
          "name": "mode",
          "type": "uint16"
        },
        {
          "indexed": false,
          "internalType": "uint24",
          "name": "primaryBandRewardSharePPM",
          "type": "uint24"
        },
        {
          "indexed": false,
          "internalType": "bytes",
          "name": "secondaryBandWidthPPMs",
          "type": "bytes"
        }
      ],
      "name": "InflationRewardsOffered",
      "type": "event"
    },
    {
      "anonymous": false,
      "inputs": [
        {
          "indexed": false,
          "internalType": "uint256",
          "name": "valueWei",
          "type": "uint256"
        }
      ],
      "name": "MinimalRewardsOfferValueSet",
      "type": "event"
    },
    {
      "anonymous": false,
      "inputs": [
        {
          "indexed": false,
          "internalType": "uint24",
          "name": "rewardEpochId",
          "type": "uint24"
        },
        {
          "indexed": false,
          "internalType": "bytes8",
          "name": "feedName",
          "type": "bytes8"
        },
        {
          "indexed": false,
          "internalType": "int8",
          "name": "decimals",
          "type": "int8"
        },
        {
          "indexed": false,
          "internalType": "uint256",
          "name": "amount",
          "type": "uint256"
        },
        {
          "indexed": false,
          "internalType": "uint24",
          "name": "primaryBandRewardSharePPM",
          "type": "uint24"
        },
        {
          "indexed": false,
          "internalType": "uint24",
          "name": "secondaryBandWidthPPM",
          "type": "uint24"
        },
        {
          "indexed": false,
          "internalType": "uint24",
          "name": "rewardEligibilityPPM",
          "type": "uint24"
        },
        {
          "indexed": false,
          "internalType": "address[]",
          "name": "leadProviders",
          "type": "address[]"
        },
        {
          "indexed": false,
          "internalType": "address",
          "name": "claimBackAddress",
          "type": "address"
        }
      ],
      "name": "RewardsOffered",
      "type": "event"
    },
    {
      "anonymous": false,
      "inputs": [
        {
          "indexed": false,
          "internalType": "bytes4",
          "name": "selector",
          "type": "bytes4"
        },
        {
          "indexed": false,
          "internalType": "uint256",
          "name": "timestamp",
          "type": "uint256"
        }
      ],
      "name": "TimelockedGovernanceCallCanceled",
      "type": "event"
    },
    {
      "anonymous": false,
      "inputs": [
        {
          "indexed": false,
          "internalType": "bytes4",
          "name": "selector",
          "type": "bytes4"
        },
        {
          "indexed": false,
          "internalType": "uint256",
          "name": "timestamp",
          "type": "uint256"
        }
      ],
      "name": "TimelockedGovernanceCallExecuted",
      "type": "event"
    },
    {
      "inputs": [
        {
          "internalType": "bytes4",
          "name": "_selector",
          "type": "bytes4"
        }
      ],
      "name": "cancelGovernanceCall",
      "outputs": [],
      "stateMutability": "nonpayable",
      "type": "function"
    },
    {
      "inputs": [
        {
          "internalType": "bytes4",
          "name": "_selector",
          "type": "bytes4"
        }
      ],
      "name": "executeGovernanceCall",
      "outputs": [],
      "stateMutability": "nonpayable",
      "type": "function"
    },
    {
      "inputs": [],
      "name": "flareSystemManager",
      "outputs": [
        {
          "internalType": "contract FlareSystemManager",
          "name": "",
          "type": "address"
        }
      ],
      "stateMutability": "view",
      "type": "function"
    },
    {
      "inputs": [],
      "name": "ftsoFeedDecimals",
      "outputs": [
        {
          "internalType": "contract FtsoFeedDecimals",
          "name": "",
          "type": "address"
        }
      ],
      "stateMutability": "view",
      "type": "function"
    },
    {
      "inputs": [],
      "name": "ftsoInflationConfigurations",
      "outputs": [
        {
          "internalType": "contract IFtsoInflationConfigurations",
          "name": "",
          "type": "address"
        }
      ],
      "stateMutability": "view",
      "type": "function"
    },
    {
      "inputs": [],
      "name": "getAddressUpdater",
      "outputs": [
        {
          "internalType": "address",
          "name": "_addressUpdater",
          "type": "address"
        }
      ],
      "stateMutability": "view",
      "type": "function"
    },
    {
      "inputs": [],
      "name": "getContractName",
      "outputs": [
        {
          "internalType": "string",
          "name": "",
          "type": "string"
        }
      ],
      "stateMutability": "pure",
      "type": "function"
    },
    {
      "inputs": [],
      "name": "getExpectedBalance",
      "outputs": [
        {
          "internalType": "uint256",
          "name": "",
          "type": "uint256"
        }
      ],
      "stateMutability": "view",
      "type": "function"
    },
    {
      "inputs": [],
      "name": "getInflationAddress",
      "outputs": [
        {
          "internalType": "address",
          "name": "",
          "type": "address"
        }
      ],
      "stateMutability": "view",
      "type": "function"
    },
    {
      "inputs": [],
      "name": "governance",
      "outputs": [
        {
          "internalType": "address",
          "name": "",
          "type": "address"
        }
      ],
      "stateMutability": "view",
      "type": "function"
    },
    {
      "inputs": [],
      "name": "governanceSettings",
      "outputs": [
        {
          "internalType": "contract IGovernanceSettings",
          "name": "",
          "type": "address"
        }
      ],
      "stateMutability": "view",
      "type": "function"
    },
    {
      "inputs": [
        {
          "internalType": "contract IGovernanceSettings",
          "name": "_governanceSettings",
          "type": "address"
        },
        {
          "internalType": "address",
          "name": "_initialGovernance",
          "type": "address"
        }
      ],
      "name": "initialise",
      "outputs": [],
      "stateMutability": "nonpayable",
      "type": "function"
    },
    {
      "inputs": [
        {
          "internalType": "address",
          "name": "_address",
          "type": "address"
        }
      ],
      "name": "isExecutor",
      "outputs": [
        {
          "internalType": "bool",
          "name": "",
          "type": "bool"
        }
      ],
      "stateMutability": "view",
      "type": "function"
    },
    {
      "inputs": [],
      "name": "minimalRewardsOfferValueWei",
      "outputs": [
        {
          "internalType": "uint256",
          "name": "",
          "type": "uint256"
        }
      ],
      "stateMutability": "view",
      "type": "function"
    },
    {
      "inputs": [
        {
          "internalType": "uint24",
          "name": "_nextRewardEpochId",
          "type": "uint24"
        },
        {
          "components": [
            {
              "internalType": "uint120",
              "name": "amount",
              "type": "uint120"
            },
            {
              "internalType": "bytes8",
              "name": "feedName",
              "type": "bytes8"
            },
            {
              "internalType": "uint24",
              "name": "primaryBandRewardSharePPM",
              "type": "uint24"
            },
            {
              "internalType": "uint24",
              "name": "secondaryBandWidthPPM",
              "type": "uint24"
            },
            {
              "internalType": "uint24",
              "name": "rewardEligibilityPPM",
              "type": "uint24"
            },
            {
              "internalType": "address[]",
              "name": "leadProviders",
              "type": "address[]"
            },
            {
              "internalType": "address",
              "name": "claimBackAddress",
              "type": "address"
            }
          ],
          "internalType": "struct FtsoRewardOffersManager.Offer[]",
          "name": "_offers",
          "type": "tuple[]"
        }
      ],
      "name": "offerRewards",
      "outputs": [],
      "stateMutability": "payable",
      "type": "function"
    },
    {
      "inputs": [],
      "name": "productionMode",
      "outputs": [
        {
          "internalType": "bool",
          "name": "",
          "type": "bool"
        }
      ],
      "stateMutability": "view",
      "type": "function"
    },
    {
      "inputs": [],
      "name": "receiveInflation",
      "outputs": [],
      "stateMutability": "payable",
      "type": "function"
    },
    {
      "inputs": [],
      "name": "rewardManager",
      "outputs": [
        {
          "internalType": "contract RewardManager",
          "name": "",
          "type": "address"
        }
      ],
      "stateMutability": "view",
      "type": "function"
    },
    {
      "inputs": [
        {
          "internalType": "uint256",
          "name": "_toAuthorizeWei",
          "type": "uint256"
        }
      ],
      "name": "setDailyAuthorizedInflation",
      "outputs": [],
      "stateMutability": "nonpayable",
      "type": "function"
    },
    {
      "inputs": [
        {
          "internalType": "uint128",
          "name": "_minimalRewardsOfferValueWei",
          "type": "uint128"
        }
      ],
      "name": "setMinimalRewardsOfferValue",
      "outputs": [],
      "stateMutability": "nonpayable",
      "type": "function"
    },
    {
      "inputs": [],
      "name": "switchToProductionMode",
      "outputs": [],
      "stateMutability": "nonpayable",
      "type": "function"
    },
    {
      "inputs": [
        {
          "internalType": "bytes4",
          "name": "",
          "type": "bytes4"
        }
      ],
      "name": "timelockedCalls",
      "outputs": [
        {
          "internalType": "uint256",
          "name": "allowedAfterTimestamp",
          "type": "uint256"
        },
        {
          "internalType": "bytes",
          "name": "encodedCall",
          "type": "bytes"
        }
      ],
      "stateMutability": "view",
      "type": "function"
    },
    {
      "inputs": [],
      "name": "totalInflationRewardsOfferedWei",
      "outputs": [
        {
          "internalType": "uint256",
          "name": "",
          "type": "uint256"
        }
      ],
      "stateMutability": "view",
      "type": "function"
    },
    {
      "inputs": [
        {
          "internalType": "uint24",
          "name": "_currentRewardEpochId",
          "type": "uint24"
        },
        {
          "internalType": "uint64",
          "name": "_currentRewardEpochExpectedEndTs",
          "type": "uint64"
        },
        {
          "internalType": "uint64",
          "name": "_rewardEpochDurationSeconds",
          "type": "uint64"
        }
      ],
      "name": "triggerRewardEpochSwitchover",
      "outputs": [],
      "stateMutability": "nonpayable",
      "type": "function"
    },
    {
      "inputs": [
        {
          "internalType": "bytes32[]",
          "name": "_contractNameHashes",
          "type": "bytes32[]"
        },
        {
          "internalType": "address[]",
          "name": "_contractAddresses",
          "type": "address[]"
        }
      ],
      "name": "updateContractAddresses",
      "outputs": [],
      "stateMutability": "nonpayable",
      "type": "function"
    }
  ],
  "bytecode": "0x60806040523480156200001157600080fd5b5060405162002f4638038062002f46833981016040819052620000349162000256565b83838380808484620000478282620000c4565b50620000739050817f714f205b2abd25bef1d06a1af944e38c113fe6160375c4e1d6d5cf28848e771955565b505050506001600160801b038216600b8190556040519081527fbaedeb3cf70a35fbe2d8dcb5306bc177734e0c529004225a1526766096d6f165915060200160405180910390a150505050620002c9565b600054600160a01b900460ff1615620001245760405162461bcd60e51b815260206004820152601460248201527f696e697469616c6973656420213d2066616c736500000000000000000000000060448201526064015b60405180910390fd5b6001600160a01b0382166200017c5760405162461bcd60e51b815260206004820152601860248201527f676f7665726e616e63652073657474696e6773207a65726f000000000000000060448201526064016200011b565b6001600160a01b038116620001c75760405162461bcd60e51b815260206004820152601060248201526f5f676f7665726e616e6365207a65726f60801b60448201526064016200011b565b600080546001600160a01b038481166001600160a81b031990921691909117600160a01b17909155600180549183166001600160a01b0319909216821790556040519081527f9789733827840833afc031fb2ef9ab6894271f77bad2085687cf4ae5c7bee4db9060200160405180910390a15050565b6001600160a01b03811681146200025357600080fd5b50565b600080600080608085870312156200026d57600080fd5b84516200027a816200023d565b60208601519094506200028d816200023d565b6040860151909350620002a0816200023d565b60608601519092506001600160801b0381168114620002be57600080fd5b939692955090935050565b612c6d80620002d96000396000f3fe6080604052600436106101665760003560e01c8063bb25d5df116100d1578063debfda301161008a578063ed39d3f811610064578063ed39d3f81461041c578063ef88bf131461043a578063f5a983831461045a578063f5f5ba721461046f57600080fd5b8063debfda30146103ab578063e17f212e146103db578063e2739563146103fc57600080fd5b8063bb25d5df1461030c578063bbddef201461032c578063bd76b69c1461033f578063c27fb62414610355578063c85f3a4614610375578063c9f19dd21461038b57600080fd5b806367fc40291161012357806367fc40291461023b57806374e6310e1461025b5780639065c9741461028957806391f25679146102a9578063af04cd3b146102c9578063b00c0b76146102ec57600080fd5b806306201f1d1461016b5780630f4ef8a6146101755780635267a15d146101b25780635aa6e675146101e65780635ff27079146101fb57806362354e031461021b575b600080fd5b6101736104bb565b005b34801561018157600080fd5b50600c54610195906001600160a01b031681565b6040516001600160a01b0390911681526020015b60405180910390f35b3480156101be57600080fd5b507f714f205b2abd25bef1d06a1af944e38c113fe6160375c4e1d6d5cf28848e771954610195565b3480156101f257600080fd5b5061019561051d565b34801561020757600080fd5b5061017361021636600461207f565b6105b9565b34801561022757600080fd5b50600054610195906001600160a01b031681565b34801561024757600080fd5b5061017361025636600461207f565b610844565b34801561026757600080fd5b5061027b61027636600461207f565b610925565b6040516101a99291906120f9565b34801561029557600080fd5b50600e54610195906001600160a01b031681565b3480156102b557600080fd5b506101736102c4366004612138565b6109ca565b3480156102d557600080fd5b506102de610a2f565b6040519081526020016101a9565b3480156102f857600080fd5b5061017361030736600461229d565b610a39565b34801561031857600080fd5b50600954610195906001600160a01b031681565b61017361033a366004612355565b610b18565b34801561034b57600080fd5b506102de600a5481565b34801561036157600080fd5b50600d54610195906001600160a01b031681565b34801561038157600080fd5b506102de600b5481565b34801561039757600080fd5b506101736103a63660046123dc565b6111a4565b3480156103b757600080fd5b506103cb6103c6366004612405565b611226565b60405190151581526020016101a9565b3480156103e757600080fd5b506000546103cb90600160a81b900460ff1681565b34801561040857600080fd5b50610173610417366004612422565b6112af565b34801561042857600080fd5b506008546001600160a01b0316610195565b34801561044657600080fd5b5061017361045536600461243b565b611310565b34801561046657600080fd5b50610173611476565b34801561047b57600080fd5b50604080518082018252601781527f4674736f5265776172644f66666572734d616e61676572000000000000000000602082015290516101a99190612474565b6104c361153c565b6104cb6115a4565b346004546104d9919061249d565b600455426006556040513481527f95c4e29cc99bc027cfc3cd719d6fd973d5f0317061885fbb322b9b17d8d35d379060200160405180910390a161051b6115ef565b565b60008054600160a81b900460ff1661053f57506001546001600160a01b031690565b60008054906101000a90046001600160a01b03166001600160a01b031663732524946040518163ffffffff1660e01b8152600401602060405180830381865afa158015610590573d6000803e3d6000fd5b505050506040513d601f19601f820116820180604052508101906105b491906124b0565b905090565b6105c233611226565b6106035760405162461bcd60e51b815260206004820152600d60248201526c37b7363c9032bc32b1baba37b960991b60448201526064015b60405180910390fd5b6001600160e01b031981166000908152600260205260408120805490910361066d5760405162461bcd60e51b815260206004820152601a60248201527f74696d656c6f636b3a20696e76616c69642073656c6563746f7200000000000060448201526064016105fa565b80544210156106be5760405162461bcd60e51b815260206004820152601960248201527f74696d656c6f636b3a206e6f7420616c6c6f776564207965740000000000000060448201526064016105fa565b60008160010180546106cf906124cd565b80601f01602080910402602001604051908101604052809291908181526020018280546106fb906124cd565b80156107485780601f1061071d57610100808354040283529160200191610748565b820191906000526020600020905b81548152906001019060200180831161072b57829003601f168201915b505050506001600160e01b031985166000908152600260205260408120818155929350905061077a6001830182612031565b50506000805460ff60b01b1916600160b01b178155604051309061079f908490612507565b6000604051808303816000865af19150503d80600081146107dc576040519150601f19603f3d011682016040523d82523d6000602084013e6107e1565b606091505b50506000805460ff60b01b19169055604080516001600160e01b0319871681524260208201529192507fa7326b57fc9cfe267aaea5e7f0b01757154d265620a0585819416ee9ddd2c438910160405180910390a161083e81611636565b50505050565b61084c611653565b6001600160e01b0319811660009081526002602052604081205490036108b45760405162461bcd60e51b815260206004820152601a60248201527f74696d656c6f636b3a20696e76616c69642073656c6563746f7200000000000060448201526064016105fa565b604080516001600160e01b0319831681524260208201527f7735b2391c38a81419c513e30ca578db7158eadd7101511b23e221c654d19cf8910160405180910390a16001600160e01b031981166000908152600260205260408120818155906109206001830182612031565b505050565b60026020526000908152604090208054600182018054919291610947906124cd565b80601f0160208091040260200160405190810160405280929190818152602001828054610973906124cd565b80156109c05780601f10610995576101008083540402835291602001916109c0565b820191906000526020600020905b8154815290600101906020018083116109a357829003601f168201915b5050505050905082565b6009546001600160a01b03163314610a245760405162461bcd60e51b815260206004820152601960248201527f6f6e6c7920666c6172652073797374656d206d616e616765720000000000000060448201526064016105fa565b6109208383836116ad565b60006105b46119ff565b7f714f205b2abd25bef1d06a1af944e38c113fe6160375c4e1d6d5cf28848e7719546001600160a01b0316336001600160a01b031614610ab25760405162461bcd60e51b815260206004820152601460248201527337b7363c9030b2323932b9b9903ab83230ba32b960611b60448201526064016105fa565b610b0a610ae683836040518060400160405280600e81526020016d20b2323932b9b9aab83230ba32b960911b815250611a11565b7f714f205b2abd25bef1d06a1af944e38c113fe6160375c4e1d6d5cf28848e771955565b610b148282611aee565b5050565b610b2061153c565b60095460408051637056269760e01b815290516000926001600160a01b03169163705626979160048083019260209291908290030181865afa158015610b6a573d6000803e3d6000fd5b505050506040513d601f19601f82011682018060405250810190610b8e9190612533565b9050610b9b816001612550565b62ffffff168462ffffff1614610bf35760405162461bcd60e51b815260206004820152601860248201527f6e6f74206e657874207265776172642065706f6368206964000000000000000060448201526064016105fa565b600960009054906101000a90046001600160a01b03166001600160a01b0316636aeffddc6040518163ffffffff1660e01b8152600401602060405180830381865afa158015610c46573d6000803e3d6000fd5b505050506040513d601f19601f82011682018060405250810190610c6a9190612573565b610c7d906001600160401b03164261249d565b600960009054906101000a90046001600160a01b03166001600160a01b031663ed54fd636040518163ffffffff1660e01b8152600401602060405180830381865afa158015610cd0573d6000803e3d6000fd5b505050506040513d601f19601f82011682018060405250810190610cf49190612573565b6001600160401b031611610d4a5760405162461bcd60e51b815260206004820152601e60248201527f746f6f206c61746520666f72206e657874207265776172642065706f6368000060448201526064016105fa565b6000805b838110156110ca5736858583818110610d6957610d69612590565b9050602002810190610d7b91906125a6565b9050620f4240610d9160608301604084016125bc565b62ffffff161115610df45760405162461bcd60e51b815260206004820152602760248201527f696e76616c6964207072696d61727942616e64526577617264536861726550506044820152664d2076616c756560c81b60648201526084016105fa565b620f4240610e0860808301606084016125bc565b62ffffff161115610e675760405162461bcd60e51b815260206004820152602360248201527f696e76616c6964207365636f6e6461727942616e64576964746850504d2076616044820152626c756560e81b60648201526084016105fa565b620f4240610e7b60a08301608084016125bc565b62ffffff161115610ed95760405162461bcd60e51b815260206004820152602260248201527f696e76616c696420726577617264456c69676962696c69747950504d2076616c604482015261756560f01b60648201526084016105fa565b600b54610ee960208301836125d9565b6001600160781b03161015610f405760405162461bcd60e51b815260206004820152601d60248201527f72657761726473206f666665722076616c756520746f6f20736d616c6c00000060448201526064016105fa565b610f4d60208201826125d9565b610f60906001600160781b03168461249d565b92506000610f7460e0830160c08401612405565b90506001600160a01b038116610f875750335b7f193e809212938b951cbf9d8edb4e89ece9ac92bb951fcb2f3d9ab72dfe13cd0688610fb96040850160208601612602565b600e546001600160a01b0316638fa04e33610fda6040880160208901612602565b6040516001600160e01b031960e084901b1681526001600160c01b0319909116600482015262ffffff8e166024820152604401602060405180830381865afa15801561102a573d6000803e3d6000fd5b505050506040513d601f19601f8201168201806040525081019061104e919061262c565b61105b60208701876125d9565b61106b60608801604089016125bc565b61107b6080890160608a016125bc565b61108b60a08a0160808b016125bc565b61109860a08b018b61264f565b8a6040516110af9a9998979695949392919061269f565b60405180910390a15050806110c39061275e565b9050610d4e565b5034811461112f5760405162461bcd60e51b815260206004820152602c60248201527f616d6f756e74206f666665726564206973206e6f74207468652073616d65206160448201526b1cc81d985b1d59481cd95b9d60a21b60648201526084016105fa565b600c5460405163a02e86e560e01b815262ffffff87166004820152600060248201526001600160a01b039091169063a02e86e59034906044016000604051808303818588803b15801561118157600080fd5b505af1158015611195573d6000803e3d6000fd5b505050505050506109206115ef565b600054600160b01b900460ff16806111c65750600054600160a81b900460ff16155b15611218576111d3611c0b565b6001600160801b038116600b8190556040519081527fbaedeb3cf70a35fbe2d8dcb5306bc177734e0c529004225a1526766096d6f1659060200160405180910390a150565b611223600036611c43565b50565b60008054600160a01b900460ff1680156112a95750600054604051630debfda360e41b81526001600160a01b0384811660048301529091169063debfda3090602401602060405180830381865afa158015611285573d6000803e3d6000fd5b505050506040513d601f19601f820116820180604052508101906112a99190612777565b92915050565b6112b76115a4565b60078190556003546112ca90829061249d565b600355426005556112da81611d8f565b6040518181527f187f32a0f765499f15b3bb52ed0aebf6015059f230f2ace7e701e60a476695959060200160405180910390a150565b600054600160a01b900460ff16156113615760405162461bcd60e51b8152602060048201526014602482015273696e697469616c6973656420213d2066616c736560601b60448201526064016105fa565b6001600160a01b0382166113b75760405162461bcd60e51b815260206004820152601860248201527f676f7665726e616e63652073657474696e6773207a65726f000000000000000060448201526064016105fa565b6001600160a01b0381166114005760405162461bcd60e51b815260206004820152601060248201526f5f676f7665726e616e6365207a65726f60801b60448201526064016105fa565b600080546001600160a01b038481166001600160a81b031990921691909117600160a01b17909155600180549183166001600160a01b0319909216821790556040519081527f9789733827840833afc031fb2ef9ab6894271f77bad2085687cf4ae5c7bee4db9060200160405180910390a15050565b61147e611653565b600054600160a81b900460ff16156114d85760405162461bcd60e51b815260206004820152601a60248201527f616c726561647920696e2070726f64756374696f6e206d6f646500000000000060448201526064016105fa565b600180546001600160a01b031916905560008054600160a81b60ff60a81b198216179091556040516001600160a01b0390911681527f83af113638b5422f9e977cebc0aaf0eaf2188eb9a8baae7f9d46c42b33a1560c9060200160405180910390a1565b6000346115476119ff565b611551919061249d565b905047818111156115945761dead6108fc61156c8484612799565b6040518115909202916000818181858888f19350505050158015610920573d6000803e3d6000fd5b81811015610b1457610b146127ac565b6008546001600160a01b0316331461051b5760405162461bcd60e51b815260206004820152600e60248201526d696e666c6174696f6e206f6e6c7960901b60448201526064016105fa565b6115f76119ff565b471461051b5760405162461bcd60e51b815260206004820152600e60248201526d6f7574206f662062616c616e636560901b60448201526064016105fa565b3d604051818101604052816000823e821561164f578181f35b8181fd5b61165b61051d565b6001600160a01b0316336001600160a01b03161461051b5760405162461bcd60e51b815260206004820152600f60248201526e6f6e6c7920676f7665726e616e636560881b60448201526064016105fa565b60006116ba8260026127c2565b6116c490846127ed565b6001600160401b0316905060006116fd620151806006546116e5919061249d565b6116ef85876127ed565b6001600160401b0316611df0565b9050600061172f6001600160401b0385166117188585612799565b600a546004546117289190612799565b9190611e06565b9050600061173e876001612550565b90506000600d60009054906101000a90046001600160a01b03166001600160a01b0316634620cf4b6040518163ffffffff1660e01b8152600401600060405180830381865afa158015611795573d6000803e3d6000fd5b505050506040513d6000823e601f3d908101601f191682016040526117bd9190810190612870565b80519091506000805b82811015611810578381815181106117e0576117e0612590565b60200260200101516020015162ffffff16826117fc919061249d565b9150806118088161275e565b9150506117c6565b5081158061181c575080155b1561182d5750505050505050505050565b8460005b8381101561196f57600085828151811061184d5761184d612590565b60200260200101519050600061186d8486846020015162ffffff16611f2c565b90506118798185612799565b9350816020015162ffffff16856118909190612799565b8251600e54604051630630ac4160e21b81529297507f3874b75f6eb3893c97b0725fc55507d3acf408417d026be663879f995c541f19928b92916001600160a01b0316906318c2b104906118ea90849086906004016129be565b600060405180830381865afa158015611907573d6000803e3d6000fd5b505050506040513d6000823e601f3d908101601f1916820160405261192f91908101906129e5565b848660400151876060015188608001516040516119529796959493929190612a19565b60405180910390a1505080806119679061275e565b915050611831565b5085600a6000828254611982919061249d565b9091555050600c5460405163a02e86e560e01b815262ffffff87166004820152600160248201526001600160a01b039091169063a02e86e59088906044016000604051808303818588803b1580156119d957600080fd5b505af11580156119ed573d6000803e3d6000fd5b50505050505050505050505050505050565b6000600a546004546105b49190612799565b60008082604051602001611a259190612474565b6040516020818303038152906040528051906020012090506000805b8651811015611a9d57868181518110611a5c57611a5c612590565b60200260200101518303611a8b57858181518110611a7c57611a7c612590565b60200260200101519150611a9d565b80611a958161275e565b915050611a41565b506001600160a01b038116611ae35760405162461bcd60e51b815260206004820152600c60248201526b61646472657373207a65726f60a01b60448201526064016105fa565b9150505b9392505050565b611af88282611f7e565b611b2882826040518060400160405280600d81526020016c2932bbb0b93226b0b730b3b2b960991b815250611a11565b600c60006101000a8154816001600160a01b0302191690836001600160a01b03160217905550611b8e82826040518060400160405280601b81526020017f4674736f496e666c6174696f6e436f6e66696775726174696f6e730000000000815250611a11565b600d60006101000a8154816001600160a01b0302191690836001600160a01b03160217905550611be782826040518060400160405280601081526020016f4674736f46656564446563696d616c7360801b815250611a11565b600e80546001600160a01b0319166001600160a01b03929092169190911790555050565b600054600160b01b900460ff1615611c3b57333014611c2c57611c2c6127ac565b6000805460ff60b01b19169055565b61051b611653565b611c4b611653565b6000805460408051636221a54b60e01b81529051853593926001600160a01b031691636221a54b9160048083019260209291908290030181865afa158015611c97573d6000803e3d6000fd5b505050506040513d601f19601f82011682018060405250810190611cbb9190612a76565b90506000611cc9824261249d565b9050604051806040016040528082815260200186868080601f01602080910402602001604051908101604052809392919081815260200183838082843760009201829052509390945250506001600160e01b03198616815260026020908152604090912083518155908301519091506001820190611d479082612add565b509050507fed948300a3694aa01d4a6b258bfd664350193d770c0b51f8387277f6d83ea3b683828787604051611d809493929190612b9c565b60405180910390a15050505050565b600c546040516315ca063760e01b8152600481018390526001600160a01b03909116906315ca063790602401600060405180830381600087803b158015611dd557600080fd5b505af1158015611de9573d6000803e3d6000fd5b5050505050565b6000818311611dff5781611ae7565b5090919050565b6000808211611e4a5760405162461bcd60e51b815260206004820152601060248201526f4469766973696f6e206279207a65726f60801b60448201526064016105fa565b83600003611e5a57506000611ae7565b83830283858281611e6d57611e6d612be2565b0403611e8b57828181611e8257611e82612be2565b04915050611ae7565b506000611e988386612bf8565b90506000611ea68487612c0c565b90506000611eb48587612bf8565b90506000611ec28688612c0c565b905085611ecf8285612c20565b611ed99190612bf8565b611ee38385612c20565b611eed8387612c20565b88611ef88689612c20565b611f029190612c20565b611f0c919061249d565b611f16919061249d565b611f20919061249d565b98975050505050505050565b600081600003611f3e57506000611ae7565b83600003611f4e57506000611ae7565b828203611f5c575082611ae7565b828210611f6b57611f6b6127ac565b611f76848385611e06565b949350505050565b611f888282611fe1565b611fbd828260405180604001604052806012815260200171233630b932a9bcb9ba32b6a6b0b730b3b2b960711b815250611a11565b600980546001600160a01b0319166001600160a01b03929092169190911790555050565b61200d82826040518060400160405280600981526020016824b7333630ba34b7b760b91b815250611a11565b600880546001600160a01b0319166001600160a01b03929092169190911790555050565b50805461203d906124cd565b6000825580601f1061204d575050565b601f01602090049060005260206000209081019061122391905b8082111561207b5760008155600101612067565b5090565b60006020828403121561209157600080fd5b81356001600160e01b031981168114611ae757600080fd5b60005b838110156120c45781810151838201526020016120ac565b50506000910152565b600081518084526120e58160208601602086016120a9565b601f01601f19169290920160200192915050565b828152604060208201526000611f7660408301846120cd565b62ffffff8116811461122357600080fd5b6001600160401b038116811461122357600080fd5b60008060006060848603121561214d57600080fd5b833561215881612112565b9250602084013561216881612123565b9150604084013561217881612123565b809150509250925092565b634e487b7160e01b600052604160045260246000fd5b60405160a081016001600160401b03811182821017156121bb576121bb612183565b60405290565b604051601f8201601f191681016001600160401b03811182821017156121e9576121e9612183565b604052919050565b60006001600160401b0382111561220a5761220a612183565b5060051b60200190565b6001600160a01b038116811461122357600080fd5b600082601f83011261223a57600080fd5b8135602061224f61224a836121f1565b6121c1565b82815260059290921b8401810191818101908684111561226e57600080fd5b8286015b8481101561229257803561228581612214565b8352918301918301612272565b509695505050505050565b600080604083850312156122b057600080fd5b82356001600160401b03808211156122c757600080fd5b818501915085601f8301126122db57600080fd5b813560206122eb61224a836121f1565b82815260059290921b8401810191818101908984111561230a57600080fd5b948201945b838610156123285785358252948201949082019061230f565b9650508601359250508082111561233e57600080fd5b5061234b85828601612229565b9150509250929050565b60008060006040848603121561236a57600080fd5b833561237581612112565b925060208401356001600160401b038082111561239157600080fd5b818601915086601f8301126123a557600080fd5b8135818111156123b457600080fd5b8760208260051b85010111156123c957600080fd5b6020830194508093505050509250925092565b6000602082840312156123ee57600080fd5b81356001600160801b0381168114611ae757600080fd5b60006020828403121561241757600080fd5b8135611ae781612214565b60006020828403121561243457600080fd5b5035919050565b6000806040838503121561244e57600080fd5b823561245981612214565b9150602083013561246981612214565b809150509250929050565b602081526000611ae760208301846120cd565b634e487b7160e01b600052601160045260246000fd5b808201808211156112a9576112a9612487565b6000602082840312156124c257600080fd5b8151611ae781612214565b600181811c908216806124e157607f821691505b60208210810361250157634e487b7160e01b600052602260045260246000fd5b50919050565b600082516125198184602087016120a9565b9190910192915050565b805161252e81612112565b919050565b60006020828403121561254557600080fd5b8151611ae781612112565b62ffffff81811683821601908082111561256c5761256c612487565b5092915050565b60006020828403121561258557600080fd5b8151611ae781612123565b634e487b7160e01b600052603260045260246000fd5b6000823560de1983360301811261251957600080fd5b6000602082840312156125ce57600080fd5b8135611ae781612112565b6000602082840312156125eb57600080fd5b81356001600160781b0381168114611ae757600080fd5b60006020828403121561261457600080fd5b81356001600160c01b031981168114611ae757600080fd5b60006020828403121561263e57600080fd5b81518060000b8114611ae757600080fd5b6000808335601e1984360301811261266657600080fd5b8301803591506001600160401b0382111561268057600080fd5b6020019150600581901b360382131561269857600080fd5b9250929050565b62ffffff8b811682526001600160c01b03198b1660208084019190915260008b810b60408501526001600160781b038b166060850152898316608085015288831660a085015291871660c084015261012060e084018190528301859052610140830190869083905b8782101561273957823561271a81612214565b6001600160a01b03168452928301929182019160019190910190612707565b5050506001600160a01b03841661010084015290505b9b9a5050505050505050505050565b60006001820161277057612770612487565b5060010190565b60006020828403121561278957600080fd5b81518015158114611ae757600080fd5b818103818111156112a9576112a9612487565b634e487b7160e01b600052600160045260246000fd5b6001600160401b038181168382160280821691908281146127e5576127e5612487565b505092915050565b6001600160401b0382811682821603908082111561256c5761256c612487565b600082601f83011261281e57600080fd5b81516001600160401b0381111561283757612837612183565b61284a601f8201601f19166020016121c1565b81815284602083860101111561285f57600080fd5b611f768260208301602087016120a9565b6000602080838503121561288357600080fd5b82516001600160401b038082111561289a57600080fd5b818501915085601f8301126128ae57600080fd5b81516128bc61224a826121f1565b81815260059190911b830184019084810190888311156128db57600080fd5b8585015b838110156129b1578051858111156128f75760008081fd5b860160a0818c03601f190181131561290f5760008081fd5b612917612199565b89830151888111156129295760008081fd5b6129378e8c8387010161280d565b82525060408084015161294981612112565b828c015260608481015161ffff811681146129645760008081fd5b80838501525060809150612979828601612523565b908301529183015191888311156129905760008081fd5b61299e8e8c8587010161280d565b90820152855250509186019186016128df565b5098975050505050505050565b6040815260006129d160408301856120cd565b905062ffffff831660208301529392505050565b6000602082840312156129f757600080fd5b81516001600160401b03811115612a0d57600080fd5b611f768482850161280d565b600062ffffff808a16835260e06020840152612a3860e084018a6120cd565b8381036040850152612a4a818a6120cd565b905087606085015261ffff8716608085015281861660a085015283810360c085015261274f81866120cd565b600060208284031215612a8857600080fd5b5051919050565b601f82111561092057600081815260208120601f850160051c81016020861015612ab65750805b601f850160051c820191505b81811015612ad557828155600101612ac2565b505050505050565b81516001600160401b03811115612af657612af6612183565b612b0a81612b0484546124cd565b84612a8f565b602080601f831160018114612b3f5760008415612b275750858301515b600019600386901b1c1916600185901b178555612ad5565b600085815260208120601f198616915b82811015612b6e57888601518255948401946001909101908401612b4f565b5085821015612b8c5787850151600019600388901b60f8161c191681555b5050505050600190811b01905550565b63ffffffff60e01b8516815283602082015260606040820152816060820152818360808301376000818301608090810191909152601f909201601f191601019392505050565b634e487b7160e01b600052601260045260246000fd5b600082612c0757612c07612be2565b500490565b600082612c1b57612c1b612be2565b500690565b80820281158282048414176112a9576112a961248756fea2646970667358221220885f85319583914b967d82c6c3d3f2675c943cfea4b0eee7a3202495213b22c364736f6c63430008140033",
  "linkReferences": {},
  "deployedLinkReferences": {}
}