{
  "_format": "hh-sol-artifact-1",
  "contractName": "Relay",
  "sourceName": "contracts/protocol/implementation/Relay.sol",
  "abi": [
    {
      "inputs": [
        {
          "internalType": "address",
          "name": "_signingPolicySetter",
          "type": "address"
        },
        {
          "internalType": "uint256",
          "name": "_initialRewardEpochId",
          "type": "uint256"
        },
        {
          "internalType": "bytes32",
          "name": "_initialSigningPolicyHash",
          "type": "bytes32"
        },
        {
          "internalType": "uint8",
          "name": "_randomNumberProtocolId",
          "type": "uint8"
        },
        {
          "internalType": "uint32",
          "name": "_firstVotingRoundStartTs",
          "type": "uint32"
        },
        {
          "internalType": "uint8",
          "name": "_votingEpochDurationSeconds",
          "type": "uint8"
        },
        {
          "internalType": "uint32",
          "name": "_firstRewardEpochStartVotingRoundId",
          "type": "uint32"
        },
        {
          "internalType": "uint16",
          "name": "_rewardEpochDurationInVotingEpochs",
          "type": "uint16"
        },
        {
          "internalType": "uint16",
          "name": "_thresholdIncreaseBIPS",
          "type": "uint16"
        }
      ],
      "stateMutability": "nonpayable",
      "type": "constructor"
    },
    {
      "anonymous": false,
      "inputs": [
        {
          "indexed": true,
          "internalType": "uint8",
          "name": "protocolId",
          "type": "uint8"
        },
        {
          "indexed": true,
          "internalType": "uint32",
          "name": "votingRoundId",
          "type": "uint32"
        },
        {
          "indexed": false,
          "internalType": "bool",
          "name": "randomQualityScore",
          "type": "bool"
        },
        {
          "indexed": false,
          "internalType": "bytes32",
          "name": "merkleRoot",
          "type": "bytes32"
        }
      ],
      "name": "ProtocolMessageRelayed",
      "type": "event"
    },
    {
      "anonymous": false,
      "inputs": [
        {
          "indexed": false,
          "internalType": "uint24",
          "name": "rewardEpochId",
          "type": "uint24"
        },
        {
          "indexed": false,
          "internalType": "uint32",
          "name": "startVotingRoundId",
          "type": "uint32"
        },
        {
          "indexed": false,
          "internalType": "uint16",
          "name": "threshold",
          "type": "uint16"
        },
        {
          "indexed": false,
          "internalType": "uint256",
          "name": "seed",
          "type": "uint256"
        },
        {
          "indexed": false,
          "internalType": "address[]",
          "name": "voters",
          "type": "address[]"
        },
        {
          "indexed": false,
          "internalType": "uint16[]",
          "name": "weights",
          "type": "uint16[]"
        },
        {
          "indexed": false,
          "internalType": "bytes",
          "name": "signingPolicyBytes",
          "type": "bytes"
        }
      ],
      "name": "SigningPolicyInitialized",
      "type": "event"
    },
    {
      "anonymous": false,
      "inputs": [
        {
          "indexed": true,
          "internalType": "uint256",
          "name": "rewardEpochId",
          "type": "uint256"
        }
      ],
      "name": "SigningPolicyRelayed",
      "type": "event"
    },
    {
      "inputs": [],
      "name": "ADDRESS_AND_WEIGHT_BYTES",
      "outputs": [
        {
          "internalType": "uint256",
          "name": "",
          "type": "uint256"
        }
      ],
      "stateMutability": "view",
      "type": "function"
    },
    {
      "inputs": [],
      "name": "ADDRESS_BYTES",
      "outputs": [
        {
          "internalType": "uint256",
          "name": "",
          "type": "uint256"
        }
      ],
      "stateMutability": "view",
      "type": "function"
    },
    {
      "inputs": [],
      "name": "ADDRESS_OFFSET",
      "outputs": [
        {
          "internalType": "uint256",
          "name": "",
          "type": "uint256"
        }
      ],
      "stateMutability": "view",
      "type": "function"
    },
    {
      "inputs": [],
      "name": "MD_BOFF_numberOfVoters",
      "outputs": [
        {
          "internalType": "uint256",
          "name": "",
          "type": "uint256"
        }
      ],
      "stateMutability": "view",
      "type": "function"
    },
    {
      "inputs": [],
      "name": "MD_BOFF_rewardEpochId",
      "outputs": [
        {
          "internalType": "uint256",
          "name": "",
          "type": "uint256"
        }
      ],
      "stateMutability": "view",
      "type": "function"
    },
    {
      "inputs": [],
      "name": "MD_BOFF_startingVotingRoundId",
      "outputs": [
        {
          "internalType": "uint256",
          "name": "",
          "type": "uint256"
        }
      ],
      "stateMutability": "view",
      "type": "function"
    },
    {
      "inputs": [],
      "name": "MD_BOFF_threshold",
      "outputs": [
        {
          "internalType": "uint256",
          "name": "",
          "type": "uint256"
        }
      ],
      "stateMutability": "view",
      "type": "function"
    },
    {
      "inputs": [],
      "name": "MD_MASK_numberOfVoters",
      "outputs": [
        {
          "internalType": "uint256",
          "name": "",
          "type": "uint256"
        }
      ],
      "stateMutability": "view",
      "type": "function"
    },
    {
      "inputs": [],
      "name": "MD_MASK_rewardEpochId",
      "outputs": [
        {
          "internalType": "uint256",
          "name": "",
          "type": "uint256"
        }
      ],
      "stateMutability": "view",
      "type": "function"
    },
    {
      "inputs": [],
      "name": "MD_MASK_startingVotingRoundId",
      "outputs": [
        {
          "internalType": "uint256",
          "name": "",
          "type": "uint256"
        }
      ],
      "stateMutability": "view",
      "type": "function"
    },
    {
      "inputs": [],
      "name": "MD_MASK_threshold",
      "outputs": [
        {
          "internalType": "uint256",
          "name": "",
          "type": "uint256"
        }
      ],
      "stateMutability": "view",
      "type": "function"
    },
    {
      "inputs": [],
      "name": "MESSAGE_BYTES",
      "outputs": [
        {
          "internalType": "uint256",
          "name": "",
          "type": "uint256"
        }
      ],
      "stateMutability": "view",
      "type": "function"
    },
    {
      "inputs": [],
      "name": "MESSAGE_NO_MR_BYTES",
      "outputs": [
        {
          "internalType": "uint256",
          "name": "",
          "type": "uint256"
        }
      ],
      "stateMutability": "view",
      "type": "function"
    },
    {
      "inputs": [],
      "name": "METADATA_BYTES",
      "outputs": [
        {
          "internalType": "uint256",
          "name": "",
          "type": "uint256"
        }
      ],
      "stateMutability": "view",
      "type": "function"
    },
    {
      "inputs": [],
      "name": "MSG_NMR_BOFF_protocolId",
      "outputs": [
        {
          "internalType": "uint256",
          "name": "",
          "type": "uint256"
        }
      ],
      "stateMutability": "view",
      "type": "function"
    },
    {
      "inputs": [],
      "name": "MSG_NMR_BOFF_randomQualityScore",
      "outputs": [
        {
          "internalType": "uint256",
          "name": "",
          "type": "uint256"
        }
      ],
      "stateMutability": "view",
      "type": "function"
    },
    {
      "inputs": [],
      "name": "MSG_NMR_BOFF_votingRoundId",
      "outputs": [
        {
          "internalType": "uint256",
          "name": "",
          "type": "uint256"
        }
      ],
      "stateMutability": "view",
      "type": "function"
    },
    {
      "inputs": [],
      "name": "MSG_NMR_MASK_protocolId",
      "outputs": [
        {
          "internalType": "uint256",
          "name": "",
          "type": "uint256"
        }
      ],
      "stateMutability": "view",
      "type": "function"
    },
    {
      "inputs": [],
      "name": "MSG_NMR_MASK_randomQualityScore",
      "outputs": [
        {
          "internalType": "uint256",
          "name": "",
          "type": "uint256"
        }
      ],
      "stateMutability": "view",
      "type": "function"
    },
    {
      "inputs": [],
      "name": "MSG_NMR_MASK_votingRoundId",
      "outputs": [
        {
          "internalType": "uint256",
          "name": "",
          "type": "uint256"
        }
      ],
      "stateMutability": "view",
      "type": "function"
    },
    {
      "inputs": [],
      "name": "M_0",
      "outputs": [
        {
          "internalType": "uint256",
          "name": "",
          "type": "uint256"
        }
      ],
      "stateMutability": "view",
      "type": "function"
    },
    {
      "inputs": [],
      "name": "M_1",
      "outputs": [
        {
          "internalType": "uint256",
          "name": "",
          "type": "uint256"
        }
      ],
      "stateMutability": "view",
      "type": "function"
    },
    {
      "inputs": [],
      "name": "M_2",
      "outputs": [
        {
          "internalType": "uint256",
          "name": "",
          "type": "uint256"
        }
      ],
      "stateMutability": "view",
      "type": "function"
    },
    {
      "inputs": [],
      "name": "M_2_signingPolicyHashTmp",
      "outputs": [
        {
          "internalType": "uint256",
          "name": "",
          "type": "uint256"
        }
      ],
      "stateMutability": "view",
      "type": "function"
    },
    {
      "inputs": [],
      "name": "M_3",
      "outputs": [
        {
          "internalType": "uint256",
          "name": "",
          "type": "uint256"
        }
      ],
      "stateMutability": "view",
      "type": "function"
    },
    {
      "inputs": [],
      "name": "M_3_existingSigningPolicyHashTmp",
      "outputs": [
        {
          "internalType": "uint256",
          "name": "",
          "type": "uint256"
        }
      ],
      "stateMutability": "view",
      "type": "function"
    },
    {
      "inputs": [],
      "name": "M_4",
      "outputs": [
        {
          "internalType": "uint256",
          "name": "",
          "type": "uint256"
        }
      ],
      "stateMutability": "view",
      "type": "function"
    },
    {
      "inputs": [],
      "name": "M_5_stateData",
      "outputs": [
        {
          "internalType": "uint256",
          "name": "",
          "type": "uint256"
        }
      ],
      "stateMutability": "view",
      "type": "function"
    },
    {
      "inputs": [],
      "name": "M_6_merkleRoot",
      "outputs": [
        {
          "internalType": "uint256",
          "name": "",
          "type": "uint256"
        }
      ],
      "stateMutability": "view",
      "type": "function"
    },
    {
      "inputs": [],
      "name": "NUMBER_OF_SIGNATURES_BYTES",
      "outputs": [
        {
          "internalType": "uint256",
          "name": "",
          "type": "uint256"
        }
      ],
      "stateMutability": "view",
      "type": "function"
    },
    {
      "inputs": [],
      "name": "NUMBER_OF_SIGNATURES_MASK",
      "outputs": [
        {
          "internalType": "uint256",
          "name": "",
          "type": "uint256"
        }
      ],
      "stateMutability": "view",
      "type": "function"
    },
    {
      "inputs": [],
      "name": "NUMBER_OF_SIGNATURES_RIGHT_SHIFT_BITS",
      "outputs": [
        {
          "internalType": "uint256",
          "name": "",
          "type": "uint256"
        }
      ],
      "stateMutability": "view",
      "type": "function"
    },
    {
      "inputs": [],
      "name": "NUMBER_OF_VOTERS_BYTES",
      "outputs": [
        {
          "internalType": "uint256",
          "name": "",
          "type": "uint256"
        }
      ],
      "stateMutability": "view",
      "type": "function"
    },
    {
      "inputs": [],
      "name": "NUMBER_OF_VOTERS_MASK",
      "outputs": [
        {
          "internalType": "uint256",
          "name": "",
          "type": "uint256"
        }
      ],
      "stateMutability": "view",
      "type": "function"
    },
    {
      "inputs": [],
      "name": "PROTOCOL_ID_BYTES",
      "outputs": [
        {
          "internalType": "uint256",
          "name": "",
          "type": "uint256"
        }
      ],
      "stateMutability": "view",
      "type": "function"
    },
    {
      "inputs": [],
      "name": "RANDOM_SEED_BYTES",
      "outputs": [
        {
          "internalType": "uint256",
          "name": "",
          "type": "uint256"
        }
      ],
      "stateMutability": "view",
      "type": "function"
    },
    {
      "inputs": [],
      "name": "SD_BOFF_firstRewardEpochStartVotingRoundId",
      "outputs": [
        {
          "internalType": "uint256",
          "name": "",
          "type": "uint256"
        }
      ],
      "stateMutability": "view",
      "type": "function"
    },
    {
      "inputs": [],
      "name": "SD_BOFF_firstVotingRoundStartTs",
      "outputs": [
        {
          "internalType": "uint256",
          "name": "",
          "type": "uint256"
        }
      ],
      "stateMutability": "view",
      "type": "function"
    },
    {
      "inputs": [],
      "name": "SD_BOFF_randomNumberProtocolId",
      "outputs": [
        {
          "internalType": "uint256",
          "name": "",
          "type": "uint256"
        }
      ],
      "stateMutability": "view",
      "type": "function"
    },
    {
      "inputs": [],
      "name": "SD_BOFF_randomNumberQualityScore",
      "outputs": [
        {
          "internalType": "uint256",
          "name": "",
          "type": "uint256"
        }
      ],
      "stateMutability": "view",
      "type": "function"
    },
    {
      "inputs": [],
      "name": "SD_BOFF_randomVotingRoundId",
      "outputs": [
        {
          "internalType": "uint256",
          "name": "",
          "type": "uint256"
        }
      ],
      "stateMutability": "view",
      "type": "function"
    },
    {
      "inputs": [],
      "name": "SD_BOFF_rewardEpochDurationInVotingEpochs",
      "outputs": [
        {
          "internalType": "uint256",
          "name": "",
          "type": "uint256"
        }
      ],
      "stateMutability": "view",
      "type": "function"
    },
    {
      "inputs": [],
      "name": "SD_BOFF_thresholdIncreaseBIPS",
      "outputs": [
        {
          "internalType": "uint256",
          "name": "",
          "type": "uint256"
        }
      ],
      "stateMutability": "view",
      "type": "function"
    },
    {
      "inputs": [],
      "name": "SD_BOFF_votingEpochDurationSeconds",
      "outputs": [
        {
          "internalType": "uint256",
          "name": "",
          "type": "uint256"
        }
      ],
      "stateMutability": "view",
      "type": "function"
    },
    {
      "inputs": [],
      "name": "SD_MASK_firstRewardEpochStartVotingRoundId",
      "outputs": [
        {
          "internalType": "uint256",
          "name": "",
          "type": "uint256"
        }
      ],
      "stateMutability": "view",
      "type": "function"
    },
    {
      "inputs": [],
      "name": "SD_MASK_firstVotingRoundStartTs",
      "outputs": [
        {
          "internalType": "uint256",
          "name": "",
          "type": "uint256"
        }
      ],
      "stateMutability": "view",
      "type": "function"
    },
    {
      "inputs": [],
      "name": "SD_MASK_randomNumberProtocolId",
      "outputs": [
        {
          "internalType": "uint256",
          "name": "",
          "type": "uint256"
        }
      ],
      "stateMutability": "view",
      "type": "function"
    },
    {
      "inputs": [],
      "name": "SD_MASK_randomNumberQualityScore",
      "outputs": [
        {
          "internalType": "uint256",
          "name": "",
          "type": "uint256"
        }
      ],
      "stateMutability": "view",
      "type": "function"
    },
    {
      "inputs": [],
      "name": "SD_MASK_randomVotingRoundId",
      "outputs": [
        {
          "internalType": "uint256",
          "name": "",
          "type": "uint256"
        }
      ],
      "stateMutability": "view",
      "type": "function"
    },
    {
      "inputs": [],
      "name": "SD_MASK_rewardEpochDurationInVotingEpochs",
      "outputs": [
        {
          "internalType": "uint256",
          "name": "",
          "type": "uint256"
        }
      ],
      "stateMutability": "view",
      "type": "function"
    },
    {
      "inputs": [],
      "name": "SD_MASK_thresholdIncreaseBIPS",
      "outputs": [
        {
          "internalType": "uint256",
          "name": "",
          "type": "uint256"
        }
      ],
      "stateMutability": "view",
      "type": "function"
    },
    {
      "inputs": [],
      "name": "SD_MASK_votingEpochDurationSeconds",
      "outputs": [
        {
          "internalType": "uint256",
          "name": "",
          "type": "uint256"
        }
      ],
      "stateMutability": "view",
      "type": "function"
    },
    {
      "inputs": [],
      "name": "SELECTOR_BYTES",
      "outputs": [
        {
          "internalType": "uint256",
          "name": "",
          "type": "uint256"
        }
      ],
      "stateMutability": "view",
      "type": "function"
    },
    {
      "inputs": [],
      "name": "SIGNATURE_INDEX_RIGHT_SHIFT_BITS",
      "outputs": [
        {
          "internalType": "uint256",
          "name": "",
          "type": "uint256"
        }
      ],
      "stateMutability": "view",
      "type": "function"
    },
    {
      "inputs": [],
      "name": "SIGNATURE_V_BYTES",
      "outputs": [
        {
          "internalType": "uint256",
          "name": "",
          "type": "uint256"
        }
      ],
      "stateMutability": "view",
      "type": "function"
    },
    {
      "inputs": [],
      "name": "SIGNATURE_WITH_INDEX_BYTES",
      "outputs": [
        {
          "internalType": "uint256",
          "name": "",
          "type": "uint256"
        }
      ],
      "stateMutability": "view",
      "type": "function"
    },
    {
      "inputs": [],
      "name": "SIGNING_POLICY_PREFIX_BYTES",
      "outputs": [
        {
          "internalType": "uint256",
          "name": "",
          "type": "uint256"
        }
      ],
      "stateMutability": "view",
      "type": "function"
    },
    {
      "inputs": [],
      "name": "THRESHOLD_BIPS",
      "outputs": [
        {
          "internalType": "uint256",
          "name": "",
          "type": "uint256"
        }
      ],
      "stateMutability": "view",
      "type": "function"
    },
    {
      "inputs": [],
      "name": "WEIGHT_BYTES",
      "outputs": [
        {
          "internalType": "uint256",
          "name": "",
          "type": "uint256"
        }
      ],
      "stateMutability": "view",
      "type": "function"
    },
    {
      "inputs": [],
      "name": "WEIGHT_MASK",
      "outputs": [
        {
          "internalType": "uint256",
          "name": "",
          "type": "uint256"
        }
      ],
      "stateMutability": "view",
      "type": "function"
    },
    {
      "inputs": [
        {
          "internalType": "uint256",
          "name": "_protocolId",
          "type": "uint256"
        },
        {
          "internalType": "uint256",
          "name": "_votingRoundId",
          "type": "uint256"
        }
      ],
      "name": "getConfirmedMerkleRoot",
      "outputs": [
        {
          "internalType": "bytes32",
          "name": "",
          "type": "bytes32"
        }
      ],
      "stateMutability": "view",
      "type": "function"
    },
    {
      "inputs": [],
      "name": "getRandomNumber",
      "outputs": [
        {
          "internalType": "uint256",
          "name": "_randomNumber",
          "type": "uint256"
        },
        {
          "internalType": "bool",
          "name": "_randomNumberQualityScore",
          "type": "bool"
        },
        {
          "internalType": "uint32",
          "name": "_randomTimestamp",
          "type": "uint32"
        }
      ],
      "stateMutability": "view",
      "type": "function"
    },
    {
      "inputs": [
        {
          "internalType": "uint256",
          "name": "_timestamp",
          "type": "uint256"
        }
      ],
      "name": "getVotingRoundId",
      "outputs": [
        {
          "internalType": "uint256",
          "name": "",
          "type": "uint256"
        }
      ],
      "stateMutability": "view",
      "type": "function"
    },
    {
      "inputs": [],
      "name": "lastInitializedRewardEpoch",
      "outputs": [
        {
          "internalType": "uint256",
          "name": "",
          "type": "uint256"
        }
      ],
      "stateMutability": "view",
      "type": "function"
    },
    {
      "inputs": [
        {
          "internalType": "uint256",
          "name": "",
          "type": "uint256"
        },
        {
          "internalType": "uint256",
          "name": "",
          "type": "uint256"
        }
      ],
      "name": "merkleRoots",
      "outputs": [
        {
          "internalType": "bytes32",
          "name": "",
          "type": "bytes32"
        }
      ],
      "stateMutability": "view",
      "type": "function"
    },
    {
      "inputs": [],
      "name": "relay",
      "outputs": [
        {
          "internalType": "uint256",
          "name": "_result",
          "type": "uint256"
        }
      ],
      "stateMutability": "nonpayable",
      "type": "function"
    },
    {
      "inputs": [
        {
          "components": [
            {
              "internalType": "uint24",
              "name": "rewardEpochId",
              "type": "uint24"
            },
            {
              "internalType": "uint32",
              "name": "startVotingRoundId",
              "type": "uint32"
            },
            {
              "internalType": "uint16",
              "name": "threshold",
              "type": "uint16"
            },
            {
              "internalType": "uint256",
              "name": "seed",
              "type": "uint256"
            },
            {
              "internalType": "address[]",
              "name": "voters",
              "type": "address[]"
            },
            {
              "internalType": "uint16[]",
              "name": "weights",
              "type": "uint16[]"
            }
          ],
          "internalType": "struct Relay.SigningPolicy",
          "name": "_signingPolicy",
          "type": "tuple"
        }
      ],
      "name": "setSigningPolicy",
      "outputs": [
        {
          "internalType": "bytes32",
          "name": "",
          "type": "bytes32"
        }
      ],
      "stateMutability": "nonpayable",
      "type": "function"
    },
    {
      "inputs": [],
      "name": "signingPolicySetter",
      "outputs": [
        {
          "internalType": "address",
          "name": "",
          "type": "address"
        }
      ],
      "stateMutability": "view",
      "type": "function"
    },
    {
      "inputs": [],
      "name": "stateData",
      "outputs": [
        {
          "internalType": "uint8",
          "name": "randomNumberProtocolId",
          "type": "uint8"
        },
        {
          "internalType": "uint32",
          "name": "firstVotingRoundStartTs",
          "type": "uint32"
        },
        {
          "internalType": "uint8",
          "name": "votingEpochDurationSeconds",
          "type": "uint8"
        },
        {
          "internalType": "uint32",
          "name": "firstRewardEpochStartVotingRoundId",
          "type": "uint32"
        },
        {
          "internalType": "uint16",
          "name": "rewardEpochDurationInVotingEpochs",
          "type": "uint16"
        },
        {
          "internalType": "uint16",
          "name": "thresholdIncreaseBIPS",
          "type": "uint16"
        },
        {
          "internalType": "uint32",
          "name": "randomVotingRoundId",
          "type": "uint32"
        },
        {
          "internalType": "bool",
          "name": "randomNumberQualityScore",
          "type": "bool"
        }
      ],
      "stateMutability": "view",
      "type": "function"
    },
    {
      "inputs": [
        {
          "internalType": "uint256",
          "name": "",
          "type": "uint256"
        }
      ],
      "name": "toSigningPolicyHash",
      "outputs": [
        {
          "internalType": "bytes32",
          "name": "",
          "type": "bytes32"
        }
      ],
      "stateMutability": "view",
      "type": "function"
    }
  ],
  "bytecode": "0x60806040523480156200001157600080fd5b5060405162001f1938038062001f198339810160408190526200003491620001a7565b6127108161ffff1610156200008f5760405162461bcd60e51b815260206004820152601c60248201527f7468726573686f6c6420696e63726561736520746f6f20736d616c6c00000000604482015260640160405180910390fd5b600380546001600160a01b0319166001600160a01b039a909a1699909917909855600087815596875260016020526040909620949094556004805460ff94851664ffffffffff199091161761010063ffffffff948516021764ffffffffff60281b191665010000000000929094169190910263ffffffff60301b191692909217660100000000000091909316029190911763ffffffff60501b19166a010000000000000000000061ffff9384160261ffff60601b1916176c0100000000000000000000000092909316919091029190911790556200025e565b805160ff811681146200017a57600080fd5b919050565b805163ffffffff811681146200017a57600080fd5b805161ffff811681146200017a57600080fd5b60008060008060008060008060006101208a8c031215620001c757600080fd5b89516001600160a01b0381168114620001df57600080fd5b60208b015160408c0151919a5098509650620001fe60608b0162000168565b95506200020e60808b016200017f565b94506200021e60a08b0162000168565b93506200022e60c08b016200017f565b92506200023e60e08b0162000194565b91506200024f6101008b0162000194565b90509295985092959850929598565b611cab806200026e6000396000f3fe608060405234801561001057600080fd5b50600436106104125760003560e01c8063798f6c5711610220578063ca55ae8111610130578063dfa543f9116100b8578063eae6a84a11610087578063eae6a84a1461055e578063f0623116146105ee578063f74cd56a14610577578063fc4e16541461055e578063fcce02f5146106c857600080fd5b8063dfa543f9146105cd578063e2f742d8146106b8578063e73bb1eb146106c0578063e7b1e0e21461057757600080fd5b8063d4588c24116100ff578063d4588c24146105c5578063d636bfe91461067f578063dbdff2c114610687578063ddceb34f146106b0578063de819567146105cd57600080fd5b8063ca55ae811461066f578063cc91c63514610677578063d2128d0014610657578063d2f714eb1461043a57600080fd5b806396bfc0e2116101b3578063ab97db3711610182578063ab97db3714610644578063b31b461714610657578063b59589d11461065f578063b87127ec1461046a578063bf5615a31461066757600080fd5b806396bfc0e21461055e5780639a5e42d51461043a578063a3c143341461043a578063a9dbe8ed1461061957600080fd5b806383534125116101ef57806383534125146106065780638602a9841461055e57806386d93c59146104175780638c05389b146105ee57600080fd5b8063798f6c571461055e5780637a1a530b1461057757806380c138891461043a57806381e41f0d146105fe57600080fd5b80632a0ffe2e116103265780636249ffeb116102ae5780636e5999391161027d5780636e5999391461058257806370b71b411461057757806371d3f1a7146105f657806373787fdc146105ee5780637482919e1461046a57600080fd5b80636249ffeb146105dd57806363392842146105d557806365bde92b146105e657806367e4b8c9146105ee57600080fd5b80634975240d116102f55780634975240d146105b55780634c233a88146105bd5780634e5a0927146105c557806356c069c3146105cd57806357ac3f3e146105d557600080fd5b80632a0ffe2e1461058257806339436b001461058a5780634225816a1461056f5780634538345e1461055e57600080fd5b806314fa9b28116103a957806322c3f6fa1161037857806322c3f6fa1461054b578063236cb8ab1461055e5780632395c2de1461056757806325ab6ba61461056f57806328d410411461057757600080fd5b806314fa9b281461047c5780631592a087146104845780631e8fb36a1461048d57806321acc6811461054357600080fd5b80630f996d90116103e55780630f996d9014610462578063101810f214610462578063125041a41461046a57806314ee94641461047257600080fd5b80630478b47614610417578063078a34501461043257806309ff2af21461043a5780630c85bf0714610442575b600080fd5b61041f600881565b6040519081526020015b60405180910390f35b61041f600b81565b61041f60ff81565b61041f610450366004611790565b60016020526000908152604090205481565b61041f602081565b61041f600281565b61041f62ffffff81565b61041f602b81565b61041f60005481565b6004546104ee9060ff8082169163ffffffff61010082048116926501000000000083048116926601000000000000810483169261ffff600160501b8304811693600160601b840490911692600160701b810490921691600160901b90041688565b6040805160ff998a16815263ffffffff98891660208201529890961695880195909552928516606087015261ffff91821660808701521660a08501529190911660c0830152151560e082015261010001610429565b61041f604881565b61041f6105593660046117a9565b6106d0565b61041f61ffff81565b61041f601481565b61041f602881565b61041f63ffffffff81565b61041f603081565b61041f6105983660046117a9565b600260209081526000928352604080842090915290825290205481565b61041f605081565b61041f60c081565b61041f60f081565b61041f606081565b61041f604081565b61041f61271081565b61041f60a081565b61041f600081565b61041f609081565b61041f601681565b61041f61061436600461197b565b610711565b60035461062c906001600160a01b031681565b6040516001600160a01b039091168152602001610429565b61041f610652366004611790565b610ea5565b61041f600181565b61041f610f27565b61041f608081565b61041f601081565b61041f600481565b61041f604381565b61068f6116ac565b60408051938452911515602084015263ffffffff1690820152606001610429565b61041f602681565b61041f600c81565b61041f607081565b61041f600681565b6000826000036106ef575060008181526001602052604090205461070b565b5060008281526002602090815260408083208484529091529020545b92915050565b6003546000906001600160a01b031633146107735760405162461bcd60e51b815260206004820152601760248201527f6f6e6c79207369676e20706f6c6963792073657474657200000000000000000060448201526064015b60405180910390fd5b816000015162ffffff16600054600161078c9190611a5f565b146107d15760405162461bcd60e51b81526020600482015260156024820152740dcdee840dccaf0e840e4caeec2e4c840cae0dec6d605b1b604482015260640161076a565b60008260800151511161081c5760405162461bcd60e51b81526020600482015260136024820152721b5d5cdd081899481b9bdb8b5d1c9a5d9a585b606a1b604482015260640161076a565b8160a0015151826080015151146108655760405162461bcd60e51b815260206004820152600d60248201526c0e6d2f4ca40dad2e6dac2e8c6d609b1b604482015260640161076a565b600060168360800151516108799190611a72565b61088490602b611a5f565b67ffffffffffffffff81111561089c5761089c6117cb565b6040519080825280601f01601f1916602001820160405280156108c6576020820181803683370190505b509050610922604051806101400160405280600081526020016000815260200160008152602001600081526020016000815260200160008152602001600080191681526020016000815260200160008152602001600081525090565b600084608001515160f01b856000015160e81b866020015160e01b876040015160f01b886060015160001b896080015160008151811061096457610964611a89565b602002602001015160601b60088b60a0015160008151811061098857610988611a89565b6020908102919091018101516040516001600160f01b0319998a16928101929092526001600160e81b031990971660228201526001600160e01b03199095166025860152959092166029840152602b8301526bffffffffffffffffffffffff1916604b8201526001600160f81b031961ffff90921690921c60f81b16605f82015260600160405160208183030381529060405290505b60408261012001511015610a95578082610120015181518110610a4357610a43611a89565b602001015160f81c60f81b8383610120015181518110610a6557610a65611a89565b60200101906001600160f81b031916908160001a9053506101208201805190610a8d82611a9f565b905250610a1e565b8051602080830191909120600080855260019285018390526040850183905260608501526101008401919091525b60808601515183511015610de85760006080840181905260c0840181905260a08401525b60208360800151108015610b0057506080860151518351105b15610d0f57604083015183511015610bff576020830151610b22906002611ab8565b60a080850191909152602084015160e08501528601518351815160009260f09290918110610b5257610b52611a89565b602002602001015161ffff16901b60001b905060208460a001518560800151610b7b9190611a5f565b1115610bb1576080840151610b91906020611ab8565b60a08501819052602085018051610ba9908390611a5f565b905250610bc8565b60006020850152835184610bc482611a9f565b9052505b6080840151610bd8906008611a72565b60e0850151610be8906008611a72565b60c0860180519390911b90911c9091179052610cf1565b6060830151610c0f906014611ab8565b60a084015260608084015160e08501526080870151604085015181516000939291908110610c3f57610c3f611a89565b60200260200101516001600160a01b0316901b60001b905060208460a001518560800151610c6d9190611a5f565b1115610ca3576080840151610c83906020611ab8565b60a08501819052606085018051610c9b908390611a5f565b905250610cbe565b6000606085015260408401805190610cba82611a9f565b9052505b6080840151610cce906008611a72565b60e0850151610cde906008611a72565b60c0860180519390911b90911c90911790525b8260a0015183608001818151610d079190611a5f565b905250610ae7565b608083015115610de35760c0830151604051610d38918391602001918252602082015260400190565b60405160208183030381529060405280519060200120905060005b8360800151811015610dcd578360c001518160208110610d7557610d75611a89565b1a60f81b8585610120015181518110610d9057610d90611a89565b60200101906001600160f81b031916908160001a9053506101208401805190610db882611a9f565b90525080610dc581611a9f565b915050610d53565b506101008301805190610ddf82611a9f565b9052505b610ac3565b855162ffffff90811660009081526001602090815260408083208590558951909316909155815180830190925260158252741cda59db9a5b99c81c1bdb081a5b9a5d1a585d1959605a1b90820152610e3f90611725565b7f514b5927f6785249c3276eacfe1589dba1500895090675eb532fb08c58b0feb486600001518760200151886040015189606001518a608001518b60a001518a604051610e929796959493929190611b50565b60405180910390a193505050505b919050565b600454600090610100900463ffffffff16821015610ef85760405162461bcd60e51b815260206004820152601060248201526f1899599bdc99481d1a19481cdd185c9d60821b604482015260640161076a565b60045465010000000000810460ff1690610f1d90610100900463ffffffff1684611ab8565b61070b9190611bf4565b6000610fc1565b62461bcd60e51b815260206004820152826024820152816044820152606481fd5b602082823760006020808504028301602084015b81811015610f81576020816020860137604084208452602001610f63565b5060006020840152602085068160208501375050604081209081905292915050565b6006826004018237805160009060d81c63ffffffff165b9392505050565b60405160045460a0820152600f36101561100157611001601c7f496e76616c6964207369676e20706f6c696379206d657461646174610000000083610f2e565b600b60048237805160a81c61101c62ffffff603083901c1690565b6016604883901c61ffff1602602b016001810160040136101561106557611065601a7f496e76616c6964207369676e20706f6c696379206c656e67746800000000000086610f2e565b61107181600486610f4f565b60408581018290528386526001602087015285205460608601819052146110be576110be601c7f5369676e696e6720706f6c6963792068617368206d69736d617463680000000086610f2e565b6001816004018537835160f81c600061ffff8516821561121c57604051602a850192503683111561110957611109601170546f6f2073686f7274206d65737361676560781b83610f2e565b6026856004018237805160d81c63ffffffff166060820185815260026080840190815260408083209091528282529020541561115d5761115d600f6e105b1c9958591e481c995b185e5959608a1b84610f2e565b60a0820151605081901c61ffff1660309190911c63ffffffff16820304601089901c63ffffffff1680831089831416156111b3576111b360137244656c61796564207369676e20706f6c69637960681b86610f2e565b5087811060018901821117156111ef576111ef601e7f57726f6e67207369676e20706f6c696379207265776172642065706f6368000085610f2e565b87600182030361120f5760a08301516127109060601c61ffff1685020493505b5050602681206020820152505b8261136f5760405194506010840136101561125d5761125d60177f4e6f206e6577207369676e20706f6c6963792073697a6500000000000000000087610f2e565b600b600585018637845160a881901c9060f01c60168102602b0190508060010186016004019350833610156112b8576112b8601e7f57726f6e672073697a6520666f72206e6577207369676e20706f6c696379000089610f2e565b603082901c62ffffff1691506000548281600101146112f5576112f560157409cdee840dccaf0e840e4caeec2e4c840cae0dec6d605b1b8a610f2e565b50611304816005880189610f4f565b6000838155838952600160208a0190815260408a20839055919091527f5369676e696e67506f6c69637952656c617965642875696e743235362900000060608901528291507fe68f222ab8e81b2e0b38a4725817a1846aeee9a4a11f55899e83fc20766175e89088a2505b6002820136101561139b5761139b601271139bc81cda59db985d1d5c994818dbdd5b9d60721b89610f2e565b6002826040890137604087015160f01c94506002828101926043870201013610156113e4576113e46015744e6f7420656e6f756768207369676e61747572657360581b89610f2e565b7f3030303019457468657265756d205369676e6564204d6573736167653a0a33328752603c6004880120875260006020880152604886901c61ffff16965060008060006040515b8884101561165a576000602082015260438481028701603f830137608081015160f01c60018c0381111561147a5761147a601271496e646578206f7574206f662072616e676560701b84610f2e565b828110156114a3576114a360127124b73232bc1037baba1037b31037b93232b960711b84610f2e565b6001810192506020604083016080846001600019fa6114da576114da600f6e32b1b932b1b7bb32b91032b93937b960891b84610f2e565b600060608301526016602f82820201606a84013750606081015160026008021c60408201511461152257611522600f6e57726f6e67207369676e617475726560881b83610f2e565b61ffff606082015116830192508483111561164f578615611646576115478882610fa3565b6020600a8a0160c0840137878252600260208301908152604080842090915281835260c08301519083205560a082015160ff1688036116445760a082015163ffffffff60701b1916607082901b1760a08301526006896004018337815160d01c8083526115c79060ff1660a084015160ff60901b191660909190911b1790565b600481905560901c60ff1660a083019081527f50726f746f636f6c4d65737361676552656c617965642875696e74382c75696e6060840152707433322c626f6f6c2c627974657333322960781b6080840152819089907f4b781cfef3123d9257ab69e6e8ea36ad75a346d63c5ecf8a46931a0eef48bb9e90604090a35b505b60019b5061165a565b60018401935061142b565b5050505050505050505050806000036116a95760405162461bcd60e51b8152602060048201526011602482015270139bdd08195b9bdd59da081dd95a59da1d607a1b604482015260640161076a565b90565b60045460ff808216600090815260026020908152604080832063ffffffff600160701b870416808552925282205493600160901b81048416936501000000000090910416906116fc906001611c16565b6117069190611c3a565b60045461171e9190610100900463ffffffff16611c16565b9050909192565b611768816040516024016117399190611c62565b60408051601f198184030181529190526020810180516001600160e01b031663104c13eb60e21b17905261176b565b50565b6117688160006a636f6e736f6c652e6c6f679050600080835160208501845afa505050565b6000602082840312156117a257600080fd5b5035919050565b600080604083850312156117bc57600080fd5b50508035926020909101359150565b634e487b7160e01b600052604160045260246000fd5b60405160c0810167ffffffffffffffff81118282101715611804576118046117cb565b60405290565b604051601f8201601f1916810167ffffffffffffffff81118282101715611833576118336117cb565b604052919050565b803562ffffff81168114610ea057600080fd5b803563ffffffff81168114610ea057600080fd5b803561ffff81168114610ea057600080fd5b600067ffffffffffffffff82111561188e5761188e6117cb565b5060051b60200190565b600082601f8301126118a957600080fd5b813560206118be6118b983611874565b61180a565b82815260059290921b840181019181810190868411156118dd57600080fd5b8286015b8481101561190e5780356001600160a01b03811681146119015760008081fd5b83529183019183016118e1565b509695505050505050565b600082601f83011261192a57600080fd5b8135602061193a6118b983611874565b82815260059290921b8401810191818101908684111561195957600080fd5b8286015b8481101561190e5761196e81611862565b835291830191830161195d565b60006020828403121561198d57600080fd5b813567ffffffffffffffff808211156119a557600080fd5b9083019060c082860312156119b957600080fd5b6119c16117e1565b6119ca8361183b565b81526119d86020840161184e565b60208201526119e960408401611862565b604082015260608301356060820152608083013582811115611a0a57600080fd5b611a1687828601611898565b60808301525060a083013582811115611a2e57600080fd5b611a3a87828601611919565b60a08301525095945050505050565b634e487b7160e01b600052601160045260246000fd5b8082018082111561070b5761070b611a49565b808202811582820484141761070b5761070b611a49565b634e487b7160e01b600052603260045260246000fd5b600060018201611ab157611ab1611a49565b5060010190565b8181038181111561070b5761070b611a49565b600081518084526020808501945080840160005b83811015611aff57815161ffff1687529582019590820190600101611adf565b509495945050505050565b6000815180845260005b81811015611b3057602081850181015186830182015201611b14565b506000602082860101526020601f19601f83011685010191505092915050565b600060e0820162ffffff8a168352602063ffffffff8a168185015261ffff8916604085015287606085015260e0608085015281875180845261010086019150828901935060005b81811015611bbc5784516001600160a01b031683529383019391830191600101611b97565b505084810360a0860152611bd08188611acb565b9250505082810360c0840152611be68185611b0a565b9a9950505050505050505050565b600082611c1157634e487b7160e01b600052601260045260246000fd5b500490565b63ffffffff818116838216019080821115611c3357611c33611a49565b5092915050565b63ffffffff818116838216028082169190828114611c5a57611c5a611a49565b505092915050565b602081526000610fba6020830184611b0a56fea2646970667358221220ceafdb0eb20a6567f8ddba1c64b780c6a0e6123308dcbb997e9fc13e205f4ef064736f6c63430008140033",
  "linkReferences": {},
  "deployedLinkReferences": {}
}