{
  "_format": "hh-sol-artifact-1",
  "contractName": "Relay",
  "sourceName": "contracts/protocol/implementation/Relay.sol",
  "abi": [
    {
      "inputs": [
        {
          "components": [
            {
              "internalType": "uint32",
              "name": "initialRewardEpochId",
              "type": "uint32"
            },
            {
              "internalType": "uint32",
              "name": "startingVotingRoundIdForInitialRewardEpochId",
              "type": "uint32"
            },
            {
              "internalType": "bytes32",
              "name": "initialSigningPolicyHash",
              "type": "bytes32"
            },
            {
              "internalType": "uint8",
              "name": "randomNumberProtocolId",
              "type": "uint8"
            },
            {
              "internalType": "uint32",
              "name": "firstVotingRoundStartTs",
              "type": "uint32"
            },
            {
              "internalType": "uint8",
              "name": "votingEpochDurationSeconds",
              "type": "uint8"
            },
            {
              "internalType": "uint32",
              "name": "firstRewardEpochStartVotingRoundId",
              "type": "uint32"
            },
            {
              "internalType": "uint16",
              "name": "rewardEpochDurationInVotingEpochs",
              "type": "uint16"
            },
            {
              "internalType": "uint16",
              "name": "thresholdIncreaseBIPS",
              "type": "uint16"
            },
            {
              "internalType": "uint32",
              "name": "messageFinalizationWindowInRewardEpochs",
              "type": "uint32"
            },
            {
              "internalType": "address payable",
              "name": "feeCollectionAddress",
              "type": "address"
            },
            {
              "components": [
                {
                  "internalType": "uint8",
                  "name": "protocolId",
                  "type": "uint8"
                },
                {
                  "internalType": "uint256",
                  "name": "feeInWei",
                  "type": "uint256"
                }
              ],
              "internalType": "struct IRelay.FeeConfig[]",
              "name": "feeConfigs",
              "type": "tuple[]"
            }
          ],
          "internalType": "struct IRelay.RelayInitialConfig",
          "name": "_initialConfig",
          "type": "tuple"
        },
        {
          "internalType": "address",
          "name": "_signingPolicySetter",
          "type": "address"
        }
      ],
      "stateMutability": "nonpayable",
      "type": "constructor"
    },
    {
      "anonymous": false,
      "inputs": [
        {
          "indexed": true,
          "internalType": "uint8",
          "name": "protocolId",
          "type": "uint8"
        },
        {
          "indexed": true,
          "internalType": "uint32",
          "name": "votingRoundId",
          "type": "uint32"
        },
        {
          "indexed": false,
          "internalType": "bool",
          "name": "isSecureRandom",
          "type": "bool"
        },
        {
          "indexed": false,
          "internalType": "bytes32",
          "name": "merkleRoot",
          "type": "bytes32"
        }
      ],
      "name": "ProtocolMessageRelayed",
      "type": "event"
    },
    {
      "anonymous": false,
      "inputs": [
        {
          "indexed": true,
          "internalType": "uint24",
          "name": "rewardEpochId",
          "type": "uint24"
        },
        {
          "indexed": false,
          "internalType": "uint32",
          "name": "startVotingRoundId",
          "type": "uint32"
        },
        {
          "indexed": false,
          "internalType": "uint16",
          "name": "threshold",
          "type": "uint16"
        },
        {
          "indexed": false,
          "internalType": "uint256",
          "name": "seed",
          "type": "uint256"
        },
        {
          "indexed": false,
          "internalType": "address[]",
          "name": "voters",
          "type": "address[]"
        },
        {
          "indexed": false,
          "internalType": "uint16[]",
          "name": "weights",
          "type": "uint16[]"
        },
        {
          "indexed": false,
          "internalType": "bytes",
          "name": "signingPolicyBytes",
          "type": "bytes"
        },
        {
          "indexed": false,
          "internalType": "uint64",
          "name": "timestamp",
          "type": "uint64"
        }
      ],
      "name": "SigningPolicyInitialized",
      "type": "event"
    },
    {
      "anonymous": false,
      "inputs": [
        {
          "indexed": true,
          "internalType": "uint256",
          "name": "rewardEpochId",
          "type": "uint256"
        }
      ],
      "name": "SigningPolicyRelayed",
      "type": "event"
    },
    {
      "inputs": [],
      "name": "feeCollectionAddress",
      "outputs": [
        {
          "internalType": "address payable",
          "name": "",
          "type": "address"
        }
      ],
      "stateMutability": "view",
      "type": "function"
    },
    {
      "inputs": [],
      "name": "getRandomNumber",
      "outputs": [
        {
          "internalType": "uint256",
          "name": "_randomNumber",
          "type": "uint256"
        },
        {
          "internalType": "bool",
          "name": "_isSecureRandom",
          "type": "bool"
        },
        {
          "internalType": "uint256",
          "name": "_randomTimestamp",
          "type": "uint256"
        }
      ],
      "stateMutability": "view",
      "type": "function"
    },
    {
      "inputs": [
        {
          "internalType": "uint256",
          "name": "_votingRoundId",
          "type": "uint256"
        }
      ],
      "name": "getRandomNumberHistorical",
      "outputs": [
        {
          "internalType": "uint256",
          "name": "_randomNumber",
          "type": "uint256"
        },
        {
          "internalType": "bool",
          "name": "_isSecureRandom",
          "type": "bool"
        },
        {
          "internalType": "uint256",
          "name": "_randomTimestamp",
          "type": "uint256"
        }
      ],
      "stateMutability": "view",
      "type": "function"
    },
    {
      "inputs": [
        {
          "internalType": "uint256",
          "name": "_timestamp",
          "type": "uint256"
        }
      ],
      "name": "getVotingRoundId",
      "outputs": [
        {
          "internalType": "uint256",
          "name": "",
          "type": "uint256"
        }
      ],
      "stateMutability": "view",
      "type": "function"
    },
    {
      "inputs": [
        {
          "internalType": "bytes",
          "name": "_relayMessage",
          "type": "bytes"
        },
        {
          "components": [
            {
              "internalType": "bytes32",
              "name": "descriptionHash",
              "type": "bytes32"
            },
            {
              "internalType": "uint256",
              "name": "chainId",
              "type": "uint256"
            },
            {
              "components": [
                {
                  "internalType": "uint8",
                  "name": "protocolId",
                  "type": "uint8"
                },
                {
                  "internalType": "uint256",
                  "name": "feeInWei",
                  "type": "uint256"
                }
              ],
              "internalType": "struct IRelay.FeeConfig[]",
              "name": "newFeeConfigs",
              "type": "tuple[]"
            }
          ],
          "internalType": "struct IRelay.RelayGovernanceConfig",
          "name": "_config",
          "type": "tuple"
        }
      ],
      "name": "governanceFeeSetup",
      "outputs": [],
      "stateMutability": "nonpayable",
      "type": "function"
    },
    {
      "inputs": [
        {
          "internalType": "uint256",
          "name": "_protocolId",
          "type": "uint256"
        },
        {
          "internalType": "uint256",
          "name": "_votingRoundId",
          "type": "uint256"
        }
      ],
      "name": "isFinalized",
      "outputs": [
        {
          "internalType": "bool",
          "name": "",
          "type": "bool"
        }
      ],
      "stateMutability": "view",
      "type": "function"
    },
    {
      "inputs": [],
      "name": "lastInitializedRewardEpochData",
      "outputs": [
        {
          "internalType": "uint32",
          "name": "_lastInitializedRewardEpoch",
          "type": "uint32"
        },
        {
          "internalType": "uint32",
          "name": "_startingVotingRoundIdForLastInitializedRewardEpoch",
          "type": "uint32"
        }
      ],
      "stateMutability": "view",
      "type": "function"
    },
    {
      "inputs": [
        {
          "internalType": "uint256",
          "name": "_protocolId",
          "type": "uint256"
        },
        {
          "internalType": "uint256",
          "name": "_votingRoundId",
          "type": "uint256"
        }
      ],
      "name": "merkleRoots",
      "outputs": [
        {
          "internalType": "bytes32",
          "name": "_merkleRoot",
          "type": "bytes32"
        }
      ],
      "stateMutability": "view",
      "type": "function"
    },
    {
      "inputs": [
        {
          "internalType": "uint256",
          "name": "",
          "type": "uint256"
        }
      ],
      "name": "protocolFeeInWei",
      "outputs": [
        {
          "internalType": "uint256",
          "name": "",
          "type": "uint256"
        }
      ],
      "stateMutability": "view",
      "type": "function"
    },
    {
      "inputs": [],
      "name": "relay",
      "outputs": [
        {
          "internalType": "bytes",
          "name": "",
          "type": "bytes"
        }
      ],
      "stateMutability": "nonpayable",
      "type": "function"
    },
    {
      "inputs": [
        {
          "components": [
            {
              "internalType": "uint24",
              "name": "rewardEpochId",
              "type": "uint24"
            },
            {
              "internalType": "uint32",
              "name": "startVotingRoundId",
              "type": "uint32"
            },
            {
              "internalType": "uint16",
              "name": "threshold",
              "type": "uint16"
            },
            {
              "internalType": "uint256",
              "name": "seed",
              "type": "uint256"
            },
            {
              "internalType": "address[]",
              "name": "voters",
              "type": "address[]"
            },
            {
              "internalType": "uint16[]",
              "name": "weights",
              "type": "uint16[]"
            }
          ],
          "internalType": "struct IIRelay.SigningPolicy",
          "name": "_signingPolicy",
          "type": "tuple"
        }
      ],
      "name": "setSigningPolicy",
      "outputs": [
        {
          "internalType": "bytes32",
          "name": "",
          "type": "bytes32"
        }
      ],
      "stateMutability": "nonpayable",
      "type": "function"
    },
    {
      "inputs": [],
      "name": "signingPolicySetter",
      "outputs": [
        {
          "internalType": "address",
          "name": "",
          "type": "address"
        }
      ],
      "stateMutability": "view",
      "type": "function"
    },
    {
      "inputs": [
        {
          "internalType": "uint256",
          "name": "rewardEpochId",
          "type": "uint256"
        }
      ],
      "name": "startingVotingRoundIds",
      "outputs": [
        {
          "internalType": "uint256",
          "name": "",
          "type": "uint256"
        }
      ],
      "stateMutability": "view",
      "type": "function"
    },
    {
      "inputs": [],
      "name": "stateData",
      "outputs": [
        {
          "internalType": "uint8",
          "name": "randomNumberProtocolId",
          "type": "uint8"
        },
        {
          "internalType": "uint32",
          "name": "firstVotingRoundStartTs",
          "type": "uint32"
        },
        {
          "internalType": "uint8",
          "name": "votingEpochDurationSeconds",
          "type": "uint8"
        },
        {
          "internalType": "uint32",
          "name": "firstRewardEpochStartVotingRoundId",
          "type": "uint32"
        },
        {
          "internalType": "uint16",
          "name": "rewardEpochDurationInVotingEpochs",
          "type": "uint16"
        },
        {
          "internalType": "uint16",
          "name": "thresholdIncreaseBIPS",
          "type": "uint16"
        },
        {
          "internalType": "uint32",
          "name": "randomVotingRoundId",
          "type": "uint32"
        },
        {
          "internalType": "bool",
          "name": "isSecureRandom",
          "type": "bool"
        },
        {
          "internalType": "uint32",
          "name": "lastInitializedRewardEpoch",
          "type": "uint32"
        },
        {
          "internalType": "bool",
          "name": "noSigningPolicyRelay",
          "type": "bool"
        },
        {
          "internalType": "uint32",
          "name": "messageFinalizationWindowInRewardEpochs",
          "type": "uint32"
        }
      ],
      "stateMutability": "view",
      "type": "function"
    },
    {
      "inputs": [
        {
          "internalType": "uint256",
          "name": "_rewardEpochId",
          "type": "uint256"
        }
      ],
      "name": "toSigningPolicyHash",
      "outputs": [
        {
          "internalType": "bytes32",
          "name": "",
          "type": "bytes32"
        }
      ],
      "stateMutability": "view",
      "type": "function"
    },
    {
      "inputs": [
        {
          "internalType": "uint256",
          "name": "_protocolId",
          "type": "uint256"
        },
        {
          "internalType": "uint256",
          "name": "_votingRoundId",
          "type": "uint256"
        },
        {
          "internalType": "bytes32",
          "name": "_leaf",
          "type": "bytes32"
        },
        {
          "internalType": "bytes32[]",
          "name": "_proof",
          "type": "bytes32[]"
        }
      ],
      "name": "verify",
      "outputs": [
        {
          "internalType": "bool",
          "name": "",
          "type": "bool"
        }
      ],
      "stateMutability": "payable",
      "type": "function"
    },
    {
      "inputs": [
        {
          "internalType": "bytes",
          "name": "_relayMessage",
          "type": "bytes"
        },
        {
          "internalType": "bytes32",
          "name": "_messageHash",
          "type": "bytes32"
        }
      ],
      "name": "verifyCustomSignature",
      "outputs": [
        {
          "internalType": "uint256",
          "name": "_rewardEpochId",
          "type": "uint256"
        }
      ],
      "stateMutability": "nonpayable",
      "type": "function"
    }
  ],
  "bytecode": "0x60806040523480156200001157600080fd5b506040516200329d3803806200329d83398101604081905262000034916200060f565b61271082610100015161ffff161015620000955760405162461bcd60e51b815260206004820152601c60248201527f7468726573686f6c6420696e63726561736520746f6f20736d616c6c0000000060448201526064015b60405180910390fd5b816020015163ffffffff168260e0015161ffff168360000151620000ba91906200077c565b8360c00151620000cb9190620007a7565b63ffffffff161115620001325760405162461bcd60e51b815260206004820152602860248201527f696e76616c696420696e697469616c207374617274696e6720766f74696e67206044820152671c9bdd5b99081a5960c21b60648201526084016200008c565b600380546001600160a01b0319166001600160a01b03831617905581516007805463ffffffff60981b1916600160981b63ffffffff9384169081029190911790915560208085015160009283526002825260408084209185169091558086015186519094168352908290529020556060820151600160ff90911611620002095760405162461bcd60e51b815260206004820152602560248201527f72616e646f6d206e756d6265722070726f746f636f6c206964206d757374206260448201526465203e203160d81b60648201526084016200008c565b606082015160078054608085015160a086015160c087015160e0880151610100808a01516101208b015163ffffffff908116600160c01b0263ffffffff60c01b1961ffff9384166c010000000000000000000000000261ffff60601b19949096166a0100000000000000000000029390931663ffffffff60501b1996831666010000000000000263ffffffff60301b1960ff998a1665010000000000021664ffffffffff60281b1994909a1690950264ffffffffff19909a1697909b169690961797909717969096169490941793909317169490941717169190911790556001600160a01b0381161562000355576101608201515115620003415760405162461bcd60e51b81526020600482015260116024820152701999594818d85b9b9bdd081899481cd95d607a1b60448201526064016200008c565b6007805460ff60b81b1916600160b81b1790555b610140820151600580546001600160a01b0319166001600160a01b0390921691909117905560005b826101600151518110156200045d5760008361016001518281518110620003a857620003a8620007ce565b602002602001015160000151905060018160ff16116200040b5760405162461bcd60e51b815260206004820152601360248201527f696e76616c69642070726f746f636f6c2069640000000000000000000000000060448201526064016200008c565b8361016001518281518110620004255762000425620007ce565b60209081029190910181015181015160ff909216600090815260049091526040902055806200045481620007e4565b9150506200037d565b50505062000800565b634e487b7160e01b600052604160045260246000fd5b604080519081016001600160401b0381118282101715620004a157620004a162000466565b60405290565b60405161018081016001600160401b0381118282101715620004a157620004a162000466565b604051601f8201601f191681016001600160401b0381118282101715620004f857620004f862000466565b604052919050565b805163ffffffff811681146200051557600080fd5b919050565b805160ff811681146200051557600080fd5b805161ffff811681146200051557600080fd5b80516001600160a01b03811681146200051557600080fd5b600082601f8301126200056957600080fd5b815160206001600160401b0382111562000587576200058762000466565b62000597818360051b01620004cd565b82815260069290921b84018101918181019086841115620005b757600080fd5b8286015b84811015620006045760408189031215620005d65760008081fd5b620005e06200047c565b620005eb826200051a565b81528185015185820152835291830191604001620005bb565b509695505050505050565b600080604083850312156200062357600080fd5b82516001600160401b03808211156200063b57600080fd5b9084019061018082870312156200065157600080fd5b6200065b620004a7565b620006668362000500565b8152620006766020840162000500565b60208201526040830151604082015262000693606084016200051a565b6060820152620006a66080840162000500565b6080820152620006b960a084016200051a565b60a0820152620006cc60c0840162000500565b60c0820152620006df60e084016200052c565b60e0820152610100620006f48185016200052c565b908201526101206200070884820162000500565b908201526101406200071c8482016200053f565b9082015261016083810151838111156200073557600080fd5b620007438982870162000557565b8284015250508094505050506200075d602084016200053f565b90509250929050565b634e487b7160e01b600052601160045260246000fd5b63ffffffff8181168382160280821691908281146200079f576200079f62000766565b505092915050565b63ffffffff818116838216019080821115620007c757620007c762000766565b5092915050565b634e487b7160e01b600052603260045260246000fd5b600060018201620007f957620007f962000766565b5060010190565b612a8d80620008106000396000f3fe6080604052600436106100fe5760003560e01c80638353412511610095578063a87f143811610064578063a87f1438146103ce578063a9dbe8ed14610409578063ab97db3714610429578063b59589d114610449578063dbdff2c11461046b57600080fd5b806383534125146103185780638af0c3071461033857806391e7d42f146103815780639932185e146103ae57600080fd5b806339436b00116100d157806339436b00146102965780637297c0a2146102b6578063808506aa146102e35780638275ae58146102f657600080fd5b80630c85bf07146101035780631e8fb36a14610136578063317ad33c1461022e578063377c50d41461025e575b600080fd5b34801561010f57600080fd5b5061012361011e366004612298565b610480565b6040519081526020015b60405180910390f35b34801561014257600080fd5b506007546101c19060ff8082169163ffffffff6101008204811692600160281b83048116926601000000000000810483169261ffff600160501b8304811693600160601b840490911692600160701b8104831692600160901b8204831692600160981b8304821692600160b81b810490911691600160c01b909104168b565b6040805160ff9c8d16815263ffffffff9b8c1660208201529b909916988b019890985295881660608a015261ffff94851660808a01529390921660a0880152851660c0870152151560e086015283166101008501521515610120840152166101408201526101600161012d565b34801561023a57600080fd5b5061024e6102493660046122b1565b6104fe565b604051901515815260200161012d565b34801561026a57600080fd5b5060055461027e906001600160a01b031681565b6040516001600160a01b03909116815260200161012d565b3480156102a257600080fd5b506101236102b13660046122b1565b610521565b3480156102c257600080fd5b506101236102d1366004612298565b60026020526000908152604090205481565b61024e6102f13660046122d3565b61059a565b34801561030257600080fd5b506103166103113660046123ac565b610742565b005b34801561032457600080fd5b506101236103333660046125cc565b6109ea565b34801561034457600080fd5b50600754600160981b900463ffffffff166000818152600260205260409020546040805163ffffffff93841681529290911660208301520161012d565b34801561038d57600080fd5b5061012361039c366004612298565b60046020526000908152604090205481565b3480156103ba57600080fd5b506101236103c936600461269a565b611315565b3480156103da57600080fd5b506103ee6103e9366004612298565b61132a565b6040805193845291151560208401529082015260600161012d565b34801561041557600080fd5b5060035461027e906001600160a01b031681565b34801561043557600080fd5b50610123610444366004612298565b61143e565b34801561045557600080fd5b5061045e6114be565b60405161012d919061272c565b34801561047757600080fd5b506103ee612011565b6003546000906001600160a01b03166104eb5760405162461bcd60e51b815260206004820152602260248201527f6e6f2061636365737320746f207369676e696e6720706f6c6963792068617368604482015261657360f01b60648201526084015b60405180910390fd5b5060009081526020819052604090205490565b600082815260016020908152604080832084845290915290205415155b92915050565b6003546000906001600160a01b031661057c5760405162461bcd60e51b815260206004820152601960248201527f6e6f2061636365737320746f206d65726b6c6520726f6f74730000000000000060448201526064016104e2565b50600091825260016020908152604080842092845291905290205490565b6000600186116105e25760405162461bcd60e51b81526020600482015260136024820152721a5b9d985b1a59081c1c9bdd1bd8dbdb081a59606a1b60448201526064016104e2565b60008681526004602052604090205434101561062e5760405162461bcd60e51b815260206004820152600b60248201526a746f6f206c6f772066656560a81b60448201526064016104e2565b60008681526001602090815260408083208884529091529020546106569084908490876120ae565b6106995760405162461bcd60e51b81526020600482015260146024820152731b595c9adb19481c1c9bdbd9881a5b9d985b1a5960621b60448201526064016104e2565b3415610736576005546040516000916001600160a01b03169034908381818185875af1925050503d80600081146106ec576040519150601f19603f3d011682016040523d82523d6000602084013e6106f1565b606091505b50509050806107345760405162461bcd60e51b815260206004820152600f60248201526e151c985b9cd9995c8819985a5b1959608a1b60448201526064016104e2565b505b50600195945050505050565b6003546001600160a01b03161561078f5760405162461bcd60e51b81526020600482015260116024820152701999594818d85b9b9bdd081899481cd95d607a1b60448201526064016104e2565b468160200135146107d35760405162461bcd60e51b815260206004820152600e60248201526d1ddc9bdb99c818da185a5b881a5960921b60448201526064016104e2565b80357fba90a7502e1d792c42ae7da5cf5982d831ebf2254fd5919818faf046187d95d21461083c5760405162461bcd60e51b81526020600482015260166024820152750eee4dedcce40c8cae6c6e4d2e0e8d2dedc40d0c2e6d60531b60448201526064016104e2565b60005b61084c604083018361273f565b905081101561092a576000610864604084018461273f565b8381811061087457610874612789565b61088a92602060409092020190810191506127b0565b905060018160ff16116108d55760405162461bcd60e51b81526020600482015260136024820152721a5b9d985b1a59081c1c9bdd1bd8dbdb081a59606a1b60448201526064016104e2565b6108e2604084018461273f565b838181106108f2576108f2612789565b90506040020160200135600460008360ff16815260200190815260200160002081905550508080610922906127e1565b91505061083f565b50600061095e84848460405160200161094391906127fa565b604051602081830303815290604052805190602001206120c6565b600754909150600160981b900463ffffffff1681148061099f5750600754819061099790600190600160981b900463ffffffff166128a8565b63ffffffff16145b6109e45760405162461bcd60e51b8152602060048201526016602482015275746f6f206f6c64207369676e696e6720706f6c69637960501b60448201526064016104e2565b50505050565b6003546000906001600160a01b03163314610a475760405162461bcd60e51b815260206004820152601760248201527f6f6e6c79207369676e20706f6c6963792073657474657200000000000000000060448201526064016104e2565b815160075462ffffff90911690610a6c90600160981b900463ffffffff1660016128cc565b63ffffffff1614610ab75760405162461bcd60e51b81526020600482015260156024820152740dcdee840dccaf0e840e4caeec2e4c840cae0dec6d605b1b60448201526064016104e2565b600082608001515111610b025760405162461bcd60e51b81526020600482015260136024820152721b5d5cdd081899481b9bdb8b5d1c9a5d9a585b606a1b60448201526064016104e2565b61012c8260800151511115610b4b5760405162461bcd60e51b815260206004820152600f60248201526e746f6f206d616e7920766f7465727360881b60448201526064016104e2565b8160a001515182608001515114610b945760405162461bcd60e51b815260206004820152600d60248201526c0e6d2f4ca40dad2e6dac2e8c6d609b1b60448201526064016104e2565b6000805b8360a0015151811015610be6578360a001518181518110610bbb57610bbb612789565b602002602001015161ffff1682610bd291906128e9565b915080610bde816127e1565b915050610b98565b50620100008110610c305760405162461bcd60e51b8152602060048201526014602482015273746f74616c2077656967687420746f6f2062696760601b60448201526064016104e2565b610c3c611388826128fc565b612710846040015161ffff16610c5291906128fc565b1015610c965760405162461bcd60e51b81526020600482015260136024820152721d1bdbc81cdb585b1b081d1a1c995cda1bdb19606a1b60448201526064016104e2565b610ca26119c8826128fc565b612710846040015161ffff16610cb891906128fc565b1115610cfa5760405162461bcd60e51b81526020600482015260116024820152701d1bdbc8189a59c81d1a1c995cda1bdb19607a1b60448201526064016104e2565b60006016846080015151610d0e91906128fc565b610d1990602b6128e9565b67ffffffffffffffff811115610d3157610d3161241c565b6040519080825280601f01601f191660200182016040528015610d5b576020820181803683370190505b509050610db06040518061012001604052806000815260200160008152602001600081526020016000815260200160008152602001600081526020016000801916815260200160008152602001600081525090565b600085608001515160f01b866000015160e81b876020015160e01b886040015160f01b896060015160001b8a60800151600081518110610df257610df2612789565b602002602001015160601b60088c60a00151600081518110610e1657610e16612789565b6020908102919091018101516040516001600160f01b0319998a16928101929092526001600160e81b031990971660228201526001600160e01b03199095166025860152959092166029840152602b8301526bffffffffffffffffffffffff1916604b8201526001600160f81b031961ffff90921690921c60f81b16605f82015260600160405160208183030381529060405290505b60408261010001511015610f23578082610100015181518110610ed157610ed1612789565b602001015160f81c60f81b8383610100015181518110610ef357610ef3612789565b60200101906001600160f81b031916908160001a9053506101008201805190610f1b826127e1565b905250610eac565b805160208083019190912060008085526001928501839052604085019290925260608401919091525b6080870151518351101561125d5760006080840181905260c0840181905260a08401525b60208360800151108015610f8957506080870151518351105b1561119857604083015183511015611088576020830151610fab906002612913565b60a080850191909152602084015160e08501528701518351815160009260f09290918110610fdb57610fdb612789565b602002602001015161ffff16901b60001b905060208460a00151856080015161100491906128e9565b111561103a57608084015161101a906020612913565b60a085018190526020850180516110329083906128e9565b905250611051565b6000602085015283518461104d826127e1565b9052505b60808401516110619060086128fc565b60e08501516110719060086128fc565b60c0860180519390911b90911c909117905261117a565b6060830151611098906014612913565b60a084015260608084015160e085015260808801516040850151815160009392919081106110c8576110c8612789565b60200260200101516001600160a01b0316901b60001b905060208460a0015185608001516110f691906128e9565b111561112c57608084015161110c906020612913565b60a085018190526060850180516111249083906128e9565b905250611147565b6000606085015260408401805190611143826127e1565b9052505b60808401516111579060086128fc565b60e08501516111679060086128fc565b60c0860180519390911b90911c90911790525b8260a001518360800181815161119091906128e9565b905250610f70565b6080830151156112585760c08301516040516111c1918391602001918252602082015260400190565b60405160208183030381529060405280519060200120905060005b8360800151811015611256578360c0015181602081106111fe576111fe612789565b1a60f81b858561010001518151811061121957611219612789565b60200101906001600160f81b031916908160001a9053506101008401805190611241826127e1565b9052508061124e816127e1565b9150506111dc565b505b610f4c565b865162ffffff9081166000908152602081815260408083208590558a516007805463ffffffff60981b1916918616600160981b8102929092179055828c01805191855260029093529281902063ffffffff90931690925589519051828b015160608c015160808d015160a08e0151955194909616957f91d0280e969157fc6c5b8f952f237b03d934b18534dafcac839075bbc33522f895611301958c904290612965565b60405180910390a29450505050505b919050565b60006113228484846120c6565b949350505050565b60075460ff166000908152600160209081526040808320848452909152812054819081908061138e5760405162461bcd60e51b815260206004820152601060248201526f3737903930b73237b690373ab6b132b960811b60448201526064016104e2565b60408051602081018390520160408051601f19818403018152919052805160209091012093506001806113c361010088612a1f565b6113ce9060ff612913565b600660006113de6101008b612a33565b8152602081019190915260400160002054600754911c91909116919091149350600160281b900460ff166114138660016128e9565b61141d91906128fc565b6007546114359190610100900463ffffffff166128e9565b93959294505050565b600754600090610100900463ffffffff168210156114915760405162461bcd60e51b815260206004820152601060248201526f1899599bdc99481d1a19481cdd185c9d60821b60448201526064016104e2565b600754600160281b810460ff16906114b490610100900463ffffffff1684612913565b61051b9190612a33565b60606116a1565b62461bcd60e51b815260206004820152826024820152816044820152606481fd5b6000603082901c63ffffffff16808410156115295761152960177f496e76616c696420766f74696e6720726f756e642069640000000000000000006040516114c5565b605083901c61ffff1693039290920492915050565b602082823760006020808504028301602084015b81811015611570576020816020860137604084208452602001611552565b506020850661157e57825191505b601f8516156115a25760006020840152602085068160208501376040832080845291505b509392505050565b6006826004018237805160009060d81c63ffffffff165b9392505050565b600080603f8501604885901c61ffff165b8083101561160357600085526002601684028301601e8701378451840193506001830192506115d9565b50505061ffff81111561163357611633601473746f74616c2077656967687420746f6f2062696760601b846114c5565b61ffff831661138882026127108202101561166a5761166a6013721d1bdbc81cdb585b1b081d1a1c995cda1bdb19606a1b856114c5565b6119c882026127108202111561169a5761169a6011701d1bdbc8189a59c81d1a1c995cda1bdb19607a1b856114c5565b5050505050565b60405160075460a0820152600f3610156116e1576116e1601c7f496e76616c6964207369676e20706f6c696379206d6574616461746100000000836114c5565b600b60048237805160a81c6116fc62ffffff603083901c1690565b6016604883901c61ffff1602602b016001810160040136101561174557611745601a7f496e76616c6964207369676e20706f6c696379206c656e677468000000000000866114c5565b6117518160048661153e565b604085810182905283865260006020870152852054606086018190521461179e5761179e601c7f5369676e696e6720706f6c6963792068617368206d69736d6174636800000000866114c5565b6001816004018537835160f81c600061ffff85168215611a0657604051602a85019250368311156117e9576117e9601170546f6f2073686f7274206d65737361676560781b836114c5565b6026856004018237805160d81c63ffffffff166060820185815260016080840190815260408083209091528282529020541561183d5761183d600f6e105b1c9958591e481c995b185e5959608a1b846114c5565b6001850361189f57801561186e5761186e60147315dc9bdb99c81b595cdcd859d948199bdc9b585d60621b846114c5565b815160d01c60ff161561189f5761189f6015742bb937b7339036b2b9b9b0b3b2903337b936b0ba1960591b846114c5565b86600186146118b9576118b68260a08501516114e6565b90505b878110156118ed576118ed601e7f57726f6e67207369676e20706f6c696379207265776172642065706f63680000856114c5565b60a083015160981c63ffffffff1660a084015160c01c63ffffffff168201101561192f5761192f600f6e13595cdcd859d9481d1bdbc81bdb19608a1b856114c5565b601089901c63ffffffff168083106001881415161561196a5761196a60137244656c61796564207369676e20706f6c69637960681b866114c5565b50878111156119f95760a083015160981c63ffffffff16888111156119da57600189016060850152600260808501526040606085012054806001850111156119d8576119d860187f4d75737420757365206e6577207369676e20706f6c6963790000000000000000876114c5565b505b8881036119f75760a08401516127109060601c61ffff1686020494505b505b5050602681206020820152505b82611c845760405160a0015160009060b81c60ff161115611a4f57611a4f601a7f5369676e20706f6c6963792072656c61792064697361626c65640000000000006040516114c5565b60108401361015611a8857611a8860177f4e6f206e6577207369676e20706f6c6963792073697a650000000000000000006040516114c5565b600b84600101600401604051376040515160a881901c9060f01c80611acb57611acb6013721b5d5cdd081899481b9bdb8b5d1c9a5d9a585b606a1b6040516114c5565b61012c811115611af557611af5600f6e746f6f206d616e7920766f7465727360881b6040516114c5565b60168102602b019050806001018601600401935083361015611b3f57611b3f601e7f57726f6e672073697a6520666f72206e6577207369676e20706f6c69637900006040516114c5565b603082901c62ffffff1660405160a0015160981c63ffffffff16888114611b8e57611b8e60187f4e6f742077697468206c61737420696e7469616c697a656400000000000000006040516114c5565b818160010114611bbe57611bbe60157409cdee840dccaf0e840e4caeec2e4c840cae0dec6d605b1b6040516114c5565b50611bd287600101600401846040516115c8565b611be5826001890160040160405161153e565b60405160a0015190925063ffffffff60981b1916609882901b1760a060405101528060405152600260206040510152611c2563ffffffff601085901c1690565b60408051205580604051526000602060405101528160408051205581602060405101527f5369676e696e67506f6c69637952656c617965642875696e74323536290000006060604051015280601d606060405101206000604051a25050505b60028201361015611cb057611cb0601271139bc81cda59db985d1d5c994818dbdd5b9d60721b896114c5565b600282604089013761ffff604088015160f01c16600283019250604381028301361015611cfb57611cfb6015744e6f7420656e6f756768207369676e61747572657360581b8a6114c5565b7f3030303019457468657265756d205369676e6564204d6573736167653a0a33328852603c60048901208852604887901c61ffff16975060008060006040515b84841015611fc7576000602082015260438481028801603f830137608081015160f01c8c600182011115611d8a57611d8a601271496e646578206f7574206f662072616e676560701b846114c5565b82811015611db357611db360127124b73232bc1037baba1037b31037b93232b960711b846114c5565b6001810192506020604083016080846001600019fa611dea57611dea600f6e32b1b932b1b7bb32b91032b93937b960891b846114c5565b600060608301526016602f82820201606a84013750606081015160026008021c604082015114611e3257611e32600f6e57726f6e67207369676e617475726560881b836114c5565b61ffff6060820151168301925085831115611fbc5787611e555760a08101516007555b8715610316576020600a8a0160c083013760018803611e845760c0810151815260e88a901b6020820152602381f35b611e8e89826115aa565b888252600160208301908152604080842090915281835260c08301519083205560a082015160ff1689036103165760a082015163ffffffff60701b1916607082901b1760a083015260068a6004018337815160d01c808352611f039060ff1660a084015160ff60901b191660909190911b1790565b60a08301819052600755815160ff1615611f3e5761010081046060830190815260066080840152604090208054600160ff80851690031b1790555b60a082015160901c60ff1660a083019081527f50726f746f636f6c4d65737361676552656c617965642875696e74382c75696e6060840152707433322c626f6f6c2c627974657333322960781b608084015281908a907f4b781cfef3123d9257ab69e6e8ea36ad75a346d63c5ecf8a46931a0eef48bb9e90604090a3005b600184019350611d3b565b505060405162461bcd60e51b8152602060048201526011602482015270139bdd08195b9bdd59da081dd95a59da1d607a1b604482015260640199506104e298505050505050505050565b60075460ff808216600090815260016020818152604080842063ffffffff600160701b880416808652908352818520548251808501919091528251808203850181529083019092528151919092012094600160901b8104851694600160281b909104169161207f91906128cc565b63ffffffff1661208f91906128fc565b6007546120a79190610100900463ffffffff166128e9565b9050909192565b6000826120bc86868561221d565b1495945050505050565b6000806000306001600160a01b031686866040516120e5929190612a47565b6000604051808303816000865af19150503d8060008114612122576040519150601f19603f3d011682016040523d82523d6000602084013e612127565b606091505b50915091508161216f5760405162461bcd60e51b815260206004820152601360248201527215995c9a599a58d85d1a5bdb8819985a5b1959606a1b60448201526064016104e2565b80516023146121c05760405162461bcd60e51b815260206004820152601760248201527f57726f6e6720766572696669636174696f6e206461746100000000000000000060448201526064016104e2565b6020810151604082015160e81c8582146122125760405162461bcd60e51b8152602060048201526013602482015272092dcecc2d8d2c840c6dedcccd2ce40d0c2e6d606b1b60448201526064016104e2565b979650505050505050565b600081815b848110156122605761224c8287878481811061224057612240612789565b90506020020135612269565b915080612258816127e1565b915050612222565b50949350505050565b60008183106122855760008281526020849052604090206115c1565b60008381526020839052604090206115c1565b6000602082840312156122aa57600080fd5b5035919050565b600080604083850312156122c457600080fd5b50508035926020909101359150565b6000806000806000608086880312156122eb57600080fd5b853594506020860135935060408601359250606086013567ffffffffffffffff8082111561231857600080fd5b818801915088601f83011261232c57600080fd5b81358181111561233b57600080fd5b8960208260051b850101111561235057600080fd5b9699959850939650602001949392505050565b60008083601f84011261237557600080fd5b50813567ffffffffffffffff81111561238d57600080fd5b6020830191508360208285010111156123a557600080fd5b9250929050565b6000806000604084860312156123c157600080fd5b833567ffffffffffffffff808211156123d957600080fd5b6123e587838801612363565b909550935060208601359150808211156123fe57600080fd5b5084016060818703121561241157600080fd5b809150509250925092565b634e487b7160e01b600052604160045260246000fd5b60405160c0810167ffffffffffffffff811182821017156124555761245561241c565b60405290565b604051601f8201601f1916810167ffffffffffffffff811182821017156124845761248461241c565b604052919050565b803562ffffff8116811461131057600080fd5b803563ffffffff8116811461131057600080fd5b803561ffff8116811461131057600080fd5b600067ffffffffffffffff8211156124df576124df61241c565b5060051b60200190565b600082601f8301126124fa57600080fd5b8135602061250f61250a836124c5565b61245b565b82815260059290921b8401810191818101908684111561252e57600080fd5b8286015b8481101561255f5780356001600160a01b03811681146125525760008081fd5b8352918301918301612532565b509695505050505050565b600082601f83011261257b57600080fd5b8135602061258b61250a836124c5565b82815260059290921b840181019181810190868411156125aa57600080fd5b8286015b8481101561255f576125bf816124b3565b83529183019183016125ae565b6000602082840312156125de57600080fd5b813567ffffffffffffffff808211156125f657600080fd5b9083019060c0828603121561260a57600080fd5b612612612432565b61261b8361248c565b81526126296020840161249f565b602082015261263a604084016124b3565b60408201526060830135606082015260808301358281111561265b57600080fd5b612667878286016124e9565b60808301525060a08301358281111561267f57600080fd5b61268b8782860161256a565b60a08301525095945050505050565b6000806000604084860312156126af57600080fd5b833567ffffffffffffffff8111156126c657600080fd5b6126d286828701612363565b909790965060209590950135949350505050565b6000815180845260005b8181101561270c576020818501810151868301820152016126f0565b506000602082860101526020601f19601f83011685010191505092915050565b6020815260006115c160208301846126e6565b6000808335601e1984360301811261275657600080fd5b83018035915067ffffffffffffffff82111561277157600080fd5b6020019150600681901b36038213156123a557600080fd5b634e487b7160e01b600052603260045260246000fd5b803560ff8116811461131057600080fd5b6000602082840312156127c257600080fd5b6115c18261279f565b634e487b7160e01b600052601160045260246000fd5b6000600182016127f3576127f36127cb565b5060010190565b60006020808352608083018435828501526040828601358186015280860135601e1987360301811261282b57600080fd5b8601838101903567ffffffffffffffff81111561284757600080fd5b8060061b360382131561285957600080fd5b606087810152928390529160009060a087015b8183101561289c5760ff61287f8661279f565b16815284860135868201529383019360019290920191830161286c565b98975050505050505050565b63ffffffff8281168282160390808211156128c5576128c56127cb565b5092915050565b63ffffffff8181168382160190808211156128c5576128c56127cb565b8082018082111561051b5761051b6127cb565b808202811582820484141761051b5761051b6127cb565b8181038181111561051b5761051b6127cb565b600081518084526020808501945080840160005b8381101561295a57815161ffff168752958201959082019060010161293a565b509495945050505050565b600060e0820163ffffffff8a168352602061ffff8a168185015288604085015260e0606085015281885180845261010086019150828a01935060005b818110156129c65784516001600160a01b0316835293830193918301916001016129a1565b505084810360808601526129da8189612926565b9250505082810360a08401526129f081866126e6565b91505061289c60c083018467ffffffffffffffff169052565b634e487b7160e01b600052601260045260246000fd5b600082612a2e57612a2e612a09565b500690565b600082612a4257612a42612a09565b500490565b818382376000910190815291905056fea2646970667358221220c2fda8422b1f071f47270132c37533afadaac1f5b2d30eb2aac2647ff1724f6964736f6c63430008140033",
  "linkReferences": {},
  "deployedLinkReferences": {}
}