{
  "_format": "hh-sol-artifact-1",
  "contractName": "Relay",
  "sourceName": "contracts/protocol/implementation/Relay.sol",
  "abi": [
    {
      "inputs": [
        {
          "internalType": "address",
          "name": "_signingPolicySetter",
          "type": "address"
        },
        {
          "internalType": "uint32",
          "name": "_initialRewardEpochId",
          "type": "uint32"
        },
        {
          "internalType": "uint32",
          "name": "_startingVotingRoundIdForInitialRewardEpochId",
          "type": "uint32"
        },
        {
          "internalType": "bytes32",
          "name": "_initialSigningPolicyHash",
          "type": "bytes32"
        },
        {
          "internalType": "uint8",
          "name": "_randomNumberProtocolId",
          "type": "uint8"
        },
        {
          "internalType": "uint32",
          "name": "_firstVotingRoundStartTs",
          "type": "uint32"
        },
        {
          "internalType": "uint8",
          "name": "_votingEpochDurationSeconds",
          "type": "uint8"
        },
        {
          "internalType": "uint32",
          "name": "_firstRewardEpochStartVotingRoundId",
          "type": "uint32"
        },
        {
          "internalType": "uint16",
          "name": "_rewardEpochDurationInVotingEpochs",
          "type": "uint16"
        },
        {
          "internalType": "uint16",
          "name": "_thresholdIncreaseBIPS",
          "type": "uint16"
        }
      ],
      "stateMutability": "nonpayable",
      "type": "constructor"
    },
    {
      "anonymous": false,
      "inputs": [
        {
          "indexed": true,
          "internalType": "uint8",
          "name": "protocolId",
          "type": "uint8"
        },
        {
          "indexed": true,
          "internalType": "uint32",
          "name": "votingRoundId",
          "type": "uint32"
        },
        {
          "indexed": false,
          "internalType": "bool",
          "name": "randomQualityScore",
          "type": "bool"
        },
        {
          "indexed": false,
          "internalType": "bytes32",
          "name": "merkleRoot",
          "type": "bytes32"
        }
      ],
      "name": "ProtocolMessageRelayed",
      "type": "event"
    },
    {
      "anonymous": false,
      "inputs": [
        {
          "indexed": false,
          "internalType": "uint24",
          "name": "rewardEpochId",
          "type": "uint24"
        },
        {
          "indexed": false,
          "internalType": "uint32",
          "name": "startVotingRoundId",
          "type": "uint32"
        },
        {
          "indexed": false,
          "internalType": "uint16",
          "name": "threshold",
          "type": "uint16"
        },
        {
          "indexed": false,
          "internalType": "uint256",
          "name": "seed",
          "type": "uint256"
        },
        {
          "indexed": false,
          "internalType": "address[]",
          "name": "voters",
          "type": "address[]"
        },
        {
          "indexed": false,
          "internalType": "uint16[]",
          "name": "weights",
          "type": "uint16[]"
        },
        {
          "indexed": false,
          "internalType": "bytes",
          "name": "signingPolicyBytes",
          "type": "bytes"
        },
        {
          "indexed": false,
          "internalType": "uint64",
          "name": "timestamp",
          "type": "uint64"
        }
      ],
      "name": "SigningPolicyInitialized",
      "type": "event"
    },
    {
      "anonymous": false,
      "inputs": [
        {
          "indexed": true,
          "internalType": "uint256",
          "name": "rewardEpochId",
          "type": "uint256"
        }
      ],
      "name": "SigningPolicyRelayed",
      "type": "event"
    },
    {
      "inputs": [
        {
          "internalType": "uint256",
          "name": "_protocolId",
          "type": "uint256"
        },
        {
          "internalType": "uint256",
          "name": "_votingRoundId",
          "type": "uint256"
        }
      ],
      "name": "getConfirmedMerkleRoot",
      "outputs": [
        {
          "internalType": "bytes32",
          "name": "",
          "type": "bytes32"
        }
      ],
      "stateMutability": "view",
      "type": "function"
    },
    {
      "inputs": [],
      "name": "getRandomNumber",
      "outputs": [
        {
          "internalType": "uint256",
          "name": "_randomNumber",
          "type": "uint256"
        },
        {
          "internalType": "bool",
          "name": "_randomNumberQualityScore",
          "type": "bool"
        },
        {
          "internalType": "uint32",
          "name": "_randomTimestamp",
          "type": "uint32"
        }
      ],
      "stateMutability": "view",
      "type": "function"
    },
    {
      "inputs": [
        {
          "internalType": "uint256",
          "name": "_timestamp",
          "type": "uint256"
        }
      ],
      "name": "getVotingRoundId",
      "outputs": [
        {
          "internalType": "uint256",
          "name": "",
          "type": "uint256"
        }
      ],
      "stateMutability": "view",
      "type": "function"
    },
    {
      "inputs": [],
      "name": "lastInitializedRewardEpochData",
      "outputs": [
        {
          "internalType": "uint32",
          "name": "lastInitializedRewardEpoch",
          "type": "uint32"
        },
        {
          "internalType": "uint32",
          "name": "startingVotingRoundIdForLastInitializedRewardEpoch",
          "type": "uint32"
        }
      ],
      "stateMutability": "view",
      "type": "function"
    },
    {
      "inputs": [
        {
          "internalType": "uint256",
          "name": "",
          "type": "uint256"
        },
        {
          "internalType": "uint256",
          "name": "",
          "type": "uint256"
        }
      ],
      "name": "merkleRoots",
      "outputs": [
        {
          "internalType": "bytes32",
          "name": "",
          "type": "bytes32"
        }
      ],
      "stateMutability": "view",
      "type": "function"
    },
    {
      "inputs": [],
      "name": "relay",
      "outputs": [
        {
          "internalType": "uint256",
          "name": "_result",
          "type": "uint256"
        }
      ],
      "stateMutability": "nonpayable",
      "type": "function"
    },
    {
      "inputs": [
        {
          "components": [
            {
              "internalType": "uint24",
              "name": "rewardEpochId",
              "type": "uint24"
            },
            {
              "internalType": "uint32",
              "name": "startVotingRoundId",
              "type": "uint32"
            },
            {
              "internalType": "uint16",
              "name": "threshold",
              "type": "uint16"
            },
            {
              "internalType": "uint256",
              "name": "seed",
              "type": "uint256"
            },
            {
              "internalType": "address[]",
              "name": "voters",
              "type": "address[]"
            },
            {
              "internalType": "uint16[]",
              "name": "weights",
              "type": "uint16[]"
            }
          ],
          "internalType": "struct Relay.SigningPolicy",
          "name": "_signingPolicy",
          "type": "tuple"
        }
      ],
      "name": "setSigningPolicy",
      "outputs": [
        {
          "internalType": "bytes32",
          "name": "",
          "type": "bytes32"
        }
      ],
      "stateMutability": "nonpayable",
      "type": "function"
    },
    {
      "inputs": [],
      "name": "signingPolicySetter",
      "outputs": [
        {
          "internalType": "address",
          "name": "",
          "type": "address"
        }
      ],
      "stateMutability": "view",
      "type": "function"
    },
    {
      "inputs": [
        {
          "internalType": "uint256",
          "name": "",
          "type": "uint256"
        }
      ],
      "name": "startingVotingRoundIds",
      "outputs": [
        {
          "internalType": "uint256",
          "name": "",
          "type": "uint256"
        }
      ],
      "stateMutability": "view",
      "type": "function"
    },
    {
      "inputs": [],
      "name": "stateData",
      "outputs": [
        {
          "internalType": "uint8",
          "name": "randomNumberProtocolId",
          "type": "uint8"
        },
        {
          "internalType": "uint32",
          "name": "firstVotingRoundStartTs",
          "type": "uint32"
        },
        {
          "internalType": "uint8",
          "name": "votingEpochDurationSeconds",
          "type": "uint8"
        },
        {
          "internalType": "uint32",
          "name": "firstRewardEpochStartVotingRoundId",
          "type": "uint32"
        },
        {
          "internalType": "uint16",
          "name": "rewardEpochDurationInVotingEpochs",
          "type": "uint16"
        },
        {
          "internalType": "uint16",
          "name": "thresholdIncreaseBIPS",
          "type": "uint16"
        },
        {
          "internalType": "uint32",
          "name": "randomVotingRoundId",
          "type": "uint32"
        },
        {
          "internalType": "bool",
          "name": "randomNumberQualityScore",
          "type": "bool"
        },
        {
          "internalType": "uint32",
          "name": "lastInitializedRewardEpoch",
          "type": "uint32"
        },
        {
          "internalType": "bool",
          "name": "noSigningPolicyRelay",
          "type": "bool"
        }
      ],
      "stateMutability": "view",
      "type": "function"
    },
    {
      "inputs": [
        {
          "internalType": "uint256",
          "name": "",
          "type": "uint256"
        }
      ],
      "name": "toSigningPolicyHash",
      "outputs": [
        {
          "internalType": "bytes32",
          "name": "",
          "type": "bytes32"
        }
      ],
      "stateMutability": "view",
      "type": "function"
    }
  ],
  "bytecode": "0x60806040523480156200001157600080fd5b5060405162001cc438038062001cc4833981016040819052620000349162000272565b6127108161ffff1610156200008f5760405162461bcd60e51b815260206004820152601c60248201527f7468726573686f6c6420696e63726561736520746f6f20736d616c6c00000000604482015260640160405180910390fd5b89600360006101000a8154816001600160a01b0302191690836001600160a01b0316021790555088600460000160136101000a81548163ffffffff021916908363ffffffff1602179055508763ffffffff16600260008b63ffffffff16815260200190815260200160002081905550866000808b63ffffffff1681526020019081526020016000208190555085600460000160006101000a81548160ff021916908360ff16021790555084600460000160016101000a81548163ffffffff021916908363ffffffff16021790555083600460000160056101000a81548160ff021916908360ff16021790555082600460000160066101000a81548163ffffffff021916908363ffffffff160217905550816004600001600a6101000a81548161ffff021916908361ffff160217905550806004600001600c6101000a81548161ffff021916908361ffff16021790555060006001600160a01b0316600360009054906101000a90046001600160a01b03166001600160a01b03161462000223576004805460ff60b81b1916600160b81b1790555b5050505050505050505062000345565b805163ffffffff811681146200024857600080fd5b919050565b805160ff811681146200024857600080fd5b805161ffff811681146200024857600080fd5b6000806000806000806000806000806101408b8d0312156200029357600080fd5b8a516001600160a01b0381168114620002ab57600080fd5b9950620002bb60208c0162000233565b9850620002cb60408c0162000233565b975060608b01519650620002e260808c016200024d565b9550620002f260a08c0162000233565b94506200030260c08c016200024d565b93506200031260e08c0162000233565b9250620003236101008c016200025f565b9150620003346101208c016200025f565b90509295989b9194979a5092959850565b61196f80620003556000396000f3fe608060405234801561001057600080fd5b50600436106100a95760003560e01c80638353412511610071578063835341251461021c5780638af0c3071461022f578063a9dbe8ed1461026b578063ab97db3714610296578063b59589d1146102a9578063dbdff2c1146102b157600080fd5b80630c85bf07146100ae5780631e8fb36a146100e157806322c3f6fa146101be57806339436b00146101d15780637297c0a2146101fc575b600080fd5b6100ce6100bc36600461144c565b60006020819052908152604090205481565b6040519081526020015b60405180910390f35b6004546101569060ff8082169163ffffffff61010082048116926501000000000083048116926601000000000000810483169261ffff600160501b8304811693600160601b840490911692600160701b8104831692600160901b8204831692600160981b830490911691600160b81b9004168a565b6040805160ff9b8c16815263ffffffff9a8b1660208201529a909816978a0197909752948716606089015261ffff93841660808901529290911660a0870152841660c0860152151560e0850152919091166101008301521515610120820152610140016100d8565b6100ce6101cc366004611465565b6102da565b6100ce6101df366004611465565b600160209081526000928352604080842090915290825290205481565b6100ce61020a36600461144c565b60026020526000908152604090205481565b6100ce61022a366004611637565b61031b565b600454600160981b900463ffffffff166000818152600260205260409020546040805163ffffffff9384168152929091166020830152016100d8565b60035461027e906001600160a01b031681565b6040516001600160a01b0390911681526020016100d8565b6100ce6102a436600461144c565b610abe565b6100ce610b40565b6102b96113d4565b60408051938452911515602084015263ffffffff16908201526060016100d8565b6000826000036102f95750600081815260208190526040902054610315565b5060008281526001602090815260408083208484529091529020545b92915050565b6003546000906001600160a01b0316331461037d5760405162461bcd60e51b815260206004820152601760248201527f6f6e6c79207369676e20706f6c6963792073657474657200000000000000000060448201526064015b60405180910390fd5b815160045462ffffff909116906103a290600160981b900463ffffffff16600161171b565b63ffffffff16146103ed5760405162461bcd60e51b81526020600482015260156024820152740dcdee840dccaf0e840e4caeec2e4c840cae0dec6d605b1b6044820152606401610374565b6000826080015151116104385760405162461bcd60e51b81526020600482015260136024820152721b5d5cdd081899481b9bdb8b5d1c9a5d9a585b606a1b6044820152606401610374565b8160a0015151826080015151146104815760405162461bcd60e51b815260206004820152600d60248201526c0e6d2f4ca40dad2e6dac2e8c6d609b1b6044820152606401610374565b60006016836080015151610495919061173f565b6104a090602b611756565b67ffffffffffffffff8111156104b8576104b8611487565b6040519080825280601f01601f1916602001820160405280156104e2576020820181803683370190505b50905061053e604051806101400160405280600081526020016000815260200160008152602001600081526020016000815260200160008152602001600080191681526020016000815260200160008152602001600081525090565b600084608001515160f01b856000015160e81b866020015160e01b876040015160f01b886060015160001b896080015160008151811061058057610580611769565b602002602001015160601b60088b60a001516000815181106105a4576105a4611769565b6020908102919091018101516040516001600160f01b0319998a16928101929092526001600160e81b031990971660228201526001600160e01b03199095166025860152959092166029840152602b8301526bffffffffffffffffffffffff1916604b8201526001600160f81b031961ffff90921690921c60f81b16605f82015260600160405160208183030381529060405290505b604082610120015110156106b157808261012001518151811061065f5761065f611769565b602001015160f81c60f81b838361012001518151811061068157610681611769565b60200101906001600160f81b031916908160001a90535061012082018051906106a98261177f565b90525061063a565b8051602080830191909120600080855260019285018390526040850183905260608501526101008401919091525b60808601515183511015610a045760006080840181905260c0840181905260a08401525b6020836080015110801561071c57506080860151518351105b1561092b5760408301518351101561081b57602083015161073e906002611798565b60a080850191909152602084015160e08501528601518351815160009260f0929091811061076e5761076e611769565b602002602001015161ffff16901b60001b905060208460a0015185608001516107979190611756565b11156107cd5760808401516107ad906020611798565b60a085018190526020850180516107c5908390611756565b9052506107e4565b600060208501528351846107e08261177f565b9052505b60808401516107f490600861173f565b60e085015161080490600861173f565b60c0860180519390911b90911c909117905261090d565b606083015161082b906014611798565b60a084015260608084015160e0850152608087015160408501518151600093929190811061085b5761085b611769565b60200260200101516001600160a01b0316901b60001b905060208460a0015185608001516108899190611756565b11156108bf57608084015161089f906020611798565b60a085018190526060850180516108b7908390611756565b9052506108da565b60006060850152604084018051906108d68261177f565b9052505b60808401516108ea90600861173f565b60e08501516108fa90600861173f565b60c0860180519390911b90911c90911790525b8260a00151836080018181516109239190611756565b905250610703565b6080830151156109ff5760c0830151604051610954918391602001918252602082015260400190565b60405160208183030381529060405280519060200120905060005b83608001518110156109e9578360c00151816020811061099157610991611769565b1a60f81b85856101200151815181106109ac576109ac611769565b60200101906001600160f81b031916908160001a90535061012084018051906109d48261177f565b905250806109e18161177f565b91505061096f565b5061010083018051906109fb8261177f565b9052505b6106df565b855162ffffff90811660009081526020818152604080832085905589516004805463ffffffff60981b191691909516600160981b810291909117909455818a01805194845260029092529182902063ffffffff909316909255875191518189015160608a015160808b015160a08c015194517f91d0280e969157fc6c5b8f952f237b03d934b18534dafcac839075bbc33522f896610aab969095949392918c904290611830565b60405180910390a193505050505b919050565b600454600090610100900463ffffffff16821015610b115760405162461bcd60e51b815260206004820152601060248201526f1899599bdc99481d1a19481cdd185c9d60821b6044820152606401610374565b60045465010000000000810460ff1690610b3690610100900463ffffffff1684611798565b61031591906118ef565b6000610bd3565b62461bcd60e51b815260206004820152826024820152816044820152606481fd5b602082823760006020808504028301602084015b81811015610b9a576020816020860137604084208452602001610b7c565b5060006020840152602085068160208501375050604081209081905292915050565b60068260040182375160d81c63ffffffff16919050565b60405160045460a0820152600f361015610c1357610c13601c7f496e76616c6964207369676e20706f6c696379206d657461646174610000000083610b47565b600b60048237805160a81c610c2e62ffffff603083901c1690565b6016604883901c61ffff1602602b0160018101600401361015610c7757610c77601a7f496e76616c6964207369676e20706f6c696379206c656e67746800000000000086610b47565b610c8381600486610b68565b6040858101829052838652600060208701528520546060860181905214610cd057610cd0601c7f5369676e696e6720706f6c6963792068617368206d69736d617463680000000086610b47565b6001816004018537835160f81c600061ffff85168215610ea657604051602a8501925036831115610d1b57610d1b601170546f6f2073686f7274206d65737361676560781b83610b47565b6026856004018237805160d81c63ffffffff1660608201858152600160808401908152604080832090915282825290205415610d6f57610d6f600f6e105b1c9958591e481c995b185e5959608a1b84610b47565b60a0820151605081901c61ffff1660309190911c63ffffffff16820304601089901c63ffffffff168083108983141615610dc557610dc560137244656c61796564207369676e20706f6c69637960681b86610b47565b508781106001890182111715610e0157610e01601e7f57726f6e67207369676e20706f6c696379207265776172642065706f6368000085610b47565b876001820303610e995760a0830151819060981c63ffffffff161015610e375760a08301516127109060601c61ffff1685020493505b60a0830151819060981c63ffffffff1603610e9957606083018181526002608085015260409020546000198101831115610e9757610e9760187f4d75737420757365206e6577207369676e20706f6c696379000000000000000086610b47565b505b5050602681206020820152505b826110895760405160a0015160009060b81c60ff161115610eef57610eef601a7f5369676e20706f6c6963792072656c61792064697361626c6564000000000000604051610b47565b60108401361015610f2857610f2860177f4e6f206e6577207369676e20706f6c6963792073697a65000000000000000000604051610b47565b600b84600101600401604051376040515160a881901c955060f01c60168102602b019050806001018501600401925082361015610f8d57610f8d601e7f57726f6e672073697a6520666f72206e6577207369676e20706f6c6963790000604051610b47565b603086901c62ffffff1660405160a0015160981c63ffffffff16818160010114610fd757610fd760157409cdee840dccaf0e840e4caeec2e4c840cae0dec6d605b1b604051610b47565b50610feb8260018801600401604051610b68565b60405160a0015190925063ffffffff60981b1916609882901b1760a06040510152806040515260026020604051015261102b63ffffffff601089901c1690565b60408051205580604051526000602060405101528160408051205581602060405101527f5369676e696e67506f6c69637952656c617965642875696e74323536290000006060604051015280601d606060405101206000604051a250505b600282013610156110b5576110b5601271139bc81cda59db985d1d5c994818dbdd5b9d60721b89610b47565b6002826040890137604087015160f01c94506002828101926043870201013610156110fe576110fe6015744e6f7420656e6f756768207369676e61747572657360581b89610b47565b7f3030303019457468657265756d205369676e6564204d6573736167653a0a33328752603c6004880120875260006020880152604886901c61ffff16965060008060006040515b88841015611382576000602082015260438481028701603f830137608081015160f01c60018c0381111561119457611194601271496e646578206f7574206f662072616e676560701b84610b47565b828110156111bd576111bd60127124b73232bc1037baba1037b31037b93232b960711b84610b47565b6001810192506020604083016080846001600019fa6111f4576111f4600f6e32b1b932b1b7bb32b91032b93937b960891b84610b47565b600060608301526016602f82820201606a84013750606081015160026008021c60408201511461123c5761123c600f6e57726f6e67207369676e617475726560881b83610b47565b61ffff6060820151168301925084831115611377578661125f5760a08101516004555b861561136e5761126f8882610bbc565b6020600a8a0160c0840137878252600160208301908152604080842090915281835260c08301519083205560a082015160ff16880361136c5760a082015163ffffffff60701b1916607082901b1760a08301526006896004018337815160d01c8083526112ef9060ff1660a084015160ff60901b191660909190911b1790565b600481905560901c60ff1660a083019081527f50726f746f636f6c4d65737361676552656c617965642875696e74382c75696e6060840152707433322c626f6f6c2c627974657333322960781b6080840152819089907f4b781cfef3123d9257ab69e6e8ea36ad75a346d63c5ecf8a46931a0eef48bb9e90604090a35b505b60019b50611382565b600184019350611145565b5050505050505050505050806000036113d15760405162461bcd60e51b8152602060048201526011602482015270139bdd08195b9bdd59da081dd95a59da1d607a1b6044820152606401610374565b90565b60045460ff808216600090815260016020818152604080842063ffffffff600160701b880416808652925283205494600160901b8104851694650100000000009091041691611423919061171b565b61142d9190611911565b6004546114459190610100900463ffffffff1661171b565b9050909192565b60006020828403121561145e57600080fd5b5035919050565b6000806040838503121561147857600080fd5b50508035926020909101359150565b634e487b7160e01b600052604160045260246000fd5b60405160c0810167ffffffffffffffff811182821017156114c0576114c0611487565b60405290565b604051601f8201601f1916810167ffffffffffffffff811182821017156114ef576114ef611487565b604052919050565b803562ffffff81168114610ab957600080fd5b803563ffffffff81168114610ab957600080fd5b803561ffff81168114610ab957600080fd5b600067ffffffffffffffff82111561154a5761154a611487565b5060051b60200190565b600082601f83011261156557600080fd5b8135602061157a61157583611530565b6114c6565b82815260059290921b8401810191818101908684111561159957600080fd5b8286015b848110156115ca5780356001600160a01b03811681146115bd5760008081fd5b835291830191830161159d565b509695505050505050565b600082601f8301126115e657600080fd5b813560206115f661157583611530565b82815260059290921b8401810191818101908684111561161557600080fd5b8286015b848110156115ca5761162a8161151e565b8352918301918301611619565b60006020828403121561164957600080fd5b813567ffffffffffffffff8082111561166157600080fd5b9083019060c0828603121561167557600080fd5b61167d61149d565b611686836114f7565b81526116946020840161150a565b60208201526116a56040840161151e565b6040820152606083013560608201526080830135828111156116c657600080fd5b6116d287828601611554565b60808301525060a0830135828111156116ea57600080fd5b6116f6878286016115d5565b60a08301525095945050505050565b634e487b7160e01b600052601160045260246000fd5b63ffffffff81811683821601908082111561173857611738611705565b5092915050565b808202811582820484141761031557610315611705565b8082018082111561031557610315611705565b634e487b7160e01b600052603260045260246000fd5b60006001820161179157611791611705565b5060010190565b8181038181111561031557610315611705565b600081518084526020808501945080840160005b838110156117df57815161ffff16875295820195908201906001016117bf565b509495945050505050565b6000815180845260005b81811015611810576020818501810151868301820152016117f4565b506000602082860101526020601f19601f83011685010191505092915050565b600061010080830162ffffff8c168452602063ffffffff8c168186015261ffff8b166040860152896060860152826080860152819250885180835261012086019350818a01925060005b8181101561189f5783516001600160a01b03168552938201939282019260010161187a565b5050505082810360a08401526118b581876117ab565b905082810360c08401526118c981866117ea565b9150506118e260e083018467ffffffffffffffff169052565b9998505050505050505050565b60008261190c57634e487b7160e01b600052601260045260246000fd5b500490565b63ffffffff81811683821602808216919082811461193157611931611705565b50509291505056fea2646970667358221220b4a3555d5269bb3256fefc52e2f5fd6c50801057688d07550b81569dea6c9f1764736f6c63430008140033",
  "linkReferences": {},
  "deployedLinkReferences": {}
}