{
  "_format": "hh-sol-artifact-1",
  "contractName": "Relay",
  "sourceName": "contracts/protocol/implementation/Relay.sol",
  "abi": [
    {
      "inputs": [
        {
          "internalType": "address",
          "name": "_signingPolicySetter",
          "type": "address"
        },
        {
          "internalType": "uint32",
          "name": "_initialRewardEpochId",
          "type": "uint32"
        },
        {
          "internalType": "uint32",
          "name": "_startingVotingRoundIdForInitialRewardEpochId",
          "type": "uint32"
        },
        {
          "internalType": "bytes32",
          "name": "_initialSigningPolicyHash",
          "type": "bytes32"
        },
        {
          "internalType": "uint8",
          "name": "_randomNumberProtocolId",
          "type": "uint8"
        },
        {
          "internalType": "uint32",
          "name": "_firstVotingRoundStartTs",
          "type": "uint32"
        },
        {
          "internalType": "uint8",
          "name": "_votingEpochDurationSeconds",
          "type": "uint8"
        },
        {
          "internalType": "uint32",
          "name": "_firstRewardEpochStartVotingRoundId",
          "type": "uint32"
        },
        {
          "internalType": "uint16",
          "name": "_rewardEpochDurationInVotingEpochs",
          "type": "uint16"
        },
        {
          "internalType": "uint16",
          "name": "_thresholdIncreaseBIPS",
          "type": "uint16"
        }
      ],
      "stateMutability": "nonpayable",
      "type": "constructor"
    },
    {
      "anonymous": false,
      "inputs": [
        {
          "indexed": true,
          "internalType": "uint8",
          "name": "protocolId",
          "type": "uint8"
        },
        {
          "indexed": true,
          "internalType": "uint32",
          "name": "votingRoundId",
          "type": "uint32"
        },
        {
          "indexed": false,
          "internalType": "bool",
          "name": "isSecureRandom",
          "type": "bool"
        },
        {
          "indexed": false,
          "internalType": "bytes32",
          "name": "merkleRoot",
          "type": "bytes32"
        }
      ],
      "name": "ProtocolMessageRelayed",
      "type": "event"
    },
    {
      "anonymous": false,
      "inputs": [
        {
          "indexed": true,
          "internalType": "uint24",
          "name": "rewardEpochId",
          "type": "uint24"
        },
        {
          "indexed": false,
          "internalType": "uint32",
          "name": "startVotingRoundId",
          "type": "uint32"
        },
        {
          "indexed": false,
          "internalType": "uint16",
          "name": "threshold",
          "type": "uint16"
        },
        {
          "indexed": false,
          "internalType": "uint256",
          "name": "seed",
          "type": "uint256"
        },
        {
          "indexed": false,
          "internalType": "address[]",
          "name": "voters",
          "type": "address[]"
        },
        {
          "indexed": false,
          "internalType": "uint16[]",
          "name": "weights",
          "type": "uint16[]"
        },
        {
          "indexed": false,
          "internalType": "bytes",
          "name": "signingPolicyBytes",
          "type": "bytes"
        },
        {
          "indexed": false,
          "internalType": "uint64",
          "name": "timestamp",
          "type": "uint64"
        }
      ],
      "name": "SigningPolicyInitialized",
      "type": "event"
    },
    {
      "anonymous": false,
      "inputs": [
        {
          "indexed": true,
          "internalType": "uint256",
          "name": "rewardEpochId",
          "type": "uint256"
        }
      ],
      "name": "SigningPolicyRelayed",
      "type": "event"
    },
    {
      "inputs": [
        {
          "internalType": "uint256",
          "name": "_protocolId",
          "type": "uint256"
        },
        {
          "internalType": "uint256",
          "name": "_votingRoundId",
          "type": "uint256"
        }
      ],
      "name": "getConfirmedMerkleRoot",
      "outputs": [
        {
          "internalType": "bytes32",
          "name": "",
          "type": "bytes32"
        }
      ],
      "stateMutability": "view",
      "type": "function"
    },
    {
      "inputs": [],
      "name": "getRandomNumber",
      "outputs": [
        {
          "internalType": "uint256",
          "name": "_randomNumber",
          "type": "uint256"
        },
        {
          "internalType": "bool",
          "name": "_isSecureRandom",
          "type": "bool"
        },
        {
          "internalType": "uint256",
          "name": "_randomTimestamp",
          "type": "uint256"
        }
      ],
      "stateMutability": "view",
      "type": "function"
    },
    {
      "inputs": [
        {
          "internalType": "uint256",
          "name": "_timestamp",
          "type": "uint256"
        }
      ],
      "name": "getVotingRoundId",
      "outputs": [
        {
          "internalType": "uint256",
          "name": "",
          "type": "uint256"
        }
      ],
      "stateMutability": "view",
      "type": "function"
    },
    {
      "inputs": [],
      "name": "lastInitializedRewardEpochData",
      "outputs": [
        {
          "internalType": "uint32",
          "name": "_lastInitializedRewardEpoch",
          "type": "uint32"
        },
        {
          "internalType": "uint32",
          "name": "_startingVotingRoundIdForLastInitializedRewardEpoch",
          "type": "uint32"
        }
      ],
      "stateMutability": "view",
      "type": "function"
    },
    {
      "inputs": [
        {
          "internalType": "uint256",
          "name": "protocolId",
          "type": "uint256"
        },
        {
          "internalType": "uint256",
          "name": "votingRoundId",
          "type": "uint256"
        }
      ],
      "name": "merkleRoots",
      "outputs": [
        {
          "internalType": "bytes32",
          "name": "",
          "type": "bytes32"
        }
      ],
      "stateMutability": "view",
      "type": "function"
    },
    {
      "inputs": [],
      "name": "relay",
      "outputs": [],
      "stateMutability": "nonpayable",
      "type": "function"
    },
    {
      "inputs": [
        {
          "components": [
            {
              "internalType": "uint24",
              "name": "rewardEpochId",
              "type": "uint24"
            },
            {
              "internalType": "uint32",
              "name": "startVotingRoundId",
              "type": "uint32"
            },
            {
              "internalType": "uint16",
              "name": "threshold",
              "type": "uint16"
            },
            {
              "internalType": "uint256",
              "name": "seed",
              "type": "uint256"
            },
            {
              "internalType": "address[]",
              "name": "voters",
              "type": "address[]"
            },
            {
              "internalType": "uint16[]",
              "name": "weights",
              "type": "uint16[]"
            }
          ],
          "internalType": "struct IIRelay.SigningPolicy",
          "name": "_signingPolicy",
          "type": "tuple"
        }
      ],
      "name": "setSigningPolicy",
      "outputs": [
        {
          "internalType": "bytes32",
          "name": "",
          "type": "bytes32"
        }
      ],
      "stateMutability": "nonpayable",
      "type": "function"
    },
    {
      "inputs": [],
      "name": "signingPolicySetter",
      "outputs": [
        {
          "internalType": "address",
          "name": "",
          "type": "address"
        }
      ],
      "stateMutability": "view",
      "type": "function"
    },
    {
      "inputs": [
        {
          "internalType": "uint256",
          "name": "rewardEpochId",
          "type": "uint256"
        }
      ],
      "name": "startingVotingRoundIds",
      "outputs": [
        {
          "internalType": "uint256",
          "name": "",
          "type": "uint256"
        }
      ],
      "stateMutability": "view",
      "type": "function"
    },
    {
      "inputs": [],
      "name": "stateData",
      "outputs": [
        {
          "internalType": "uint8",
          "name": "randomNumberProtocolId",
          "type": "uint8"
        },
        {
          "internalType": "uint32",
          "name": "firstVotingRoundStartTs",
          "type": "uint32"
        },
        {
          "internalType": "uint8",
          "name": "votingEpochDurationSeconds",
          "type": "uint8"
        },
        {
          "internalType": "uint32",
          "name": "firstRewardEpochStartVotingRoundId",
          "type": "uint32"
        },
        {
          "internalType": "uint16",
          "name": "rewardEpochDurationInVotingEpochs",
          "type": "uint16"
        },
        {
          "internalType": "uint16",
          "name": "thresholdIncreaseBIPS",
          "type": "uint16"
        },
        {
          "internalType": "uint32",
          "name": "randomVotingRoundId",
          "type": "uint32"
        },
        {
          "internalType": "bool",
          "name": "isSecureRandom",
          "type": "bool"
        },
        {
          "internalType": "uint32",
          "name": "lastInitializedRewardEpoch",
          "type": "uint32"
        },
        {
          "internalType": "bool",
          "name": "noSigningPolicyRelay",
          "type": "bool"
        }
      ],
      "stateMutability": "view",
      "type": "function"
    },
    {
      "inputs": [
        {
          "internalType": "uint256",
          "name": "rewardEpochId",
          "type": "uint256"
        }
      ],
      "name": "toSigningPolicyHash",
      "outputs": [
        {
          "internalType": "bytes32",
          "name": "",
          "type": "bytes32"
        }
      ],
      "stateMutability": "view",
      "type": "function"
    }
  ],
  "bytecode": "0x60806040523480156200001157600080fd5b5060405162001d7738038062001d778339810160408190526200003491620002fd565b6127108161ffff161015620000905760405162461bcd60e51b815260206004820152601c60248201527f7468726573686f6c6420696e63726561736520746f6f20736d616c6c0000000060448201526064015b60405180910390fd5b63ffffffff8816620000a761ffff84168b620003e6565b620000b3908562000411565b63ffffffff1611156200011a5760405162461bcd60e51b815260206004820152602860248201527f696e76616c696420696e697469616c207374617274696e6720766f74696e67206044820152671c9bdd5b99081a5960c21b606482015260840162000087565b89600360006101000a8154816001600160a01b0302191690836001600160a01b0316021790555088600460000160136101000a81548163ffffffff021916908363ffffffff1602179055508763ffffffff16600260008b63ffffffff16815260200190815260200160002081905550866000808b63ffffffff1681526020019081526020016000208190555085600460000160006101000a81548160ff021916908360ff16021790555084600460000160016101000a81548163ffffffff021916908363ffffffff16021790555083600460000160056101000a81548160ff021916908360ff16021790555082600460000160066101000a81548163ffffffff021916908363ffffffff160217905550816004600001600a6101000a81548161ffff021916908361ffff160217905550806004600001600c6101000a81548161ffff021916908361ffff16021790555060006001600160a01b0316600360009054906101000a90046001600160a01b03166001600160a01b031614620002ae576004805460ff60b81b1916600160b81b1790555b5050505050505050505062000438565b805163ffffffff81168114620002d357600080fd5b919050565b805160ff81168114620002d357600080fd5b805161ffff81168114620002d357600080fd5b6000806000806000806000806000806101408b8d0312156200031e57600080fd5b8a516001600160a01b03811681146200033657600080fd5b99506200034660208c01620002be565b98506200035660408c01620002be565b975060608b015196506200036d60808c01620002d8565b95506200037d60a08c01620002be565b94506200038d60c08c01620002d8565b93506200039d60e08c01620002be565b9250620003ae6101008c01620002ea565b9150620003bf6101208c01620002ea565b90509295989b9194979a5092959850565b634e487b7160e01b600052601160045260246000fd5b63ffffffff818116838216028082169190828114620004095762000409620003d0565b505092915050565b63ffffffff818116838216019080821115620004315762000431620003d0565b5092915050565b61192f80620004486000396000f3fe608060405234801561001057600080fd5b50600436106100a95760003560e01c80638353412511610071578063835341251461021c5780638af0c3071461022f578063a9dbe8ed1461026b578063ab97db3714610296578063b59589d1146102a9578063dbdff2c1146102b357600080fd5b80630c85bf07146100ae5780631e8fb36a146100e157806322c3f6fa146101be57806339436b00146101d15780637297c0a2146101fc575b600080fd5b6100ce6100bc366004611443565b60006020819052908152604090205481565b6040519081526020015b60405180910390f35b6004546101569060ff8082169163ffffffff61010082048116926501000000000083048116926601000000000000810483169261ffff600160501b8304811693600160601b840490911692600160701b8104831692600160901b8204831692600160981b830490911691600160b81b9004168a565b6040805160ff9b8c16815263ffffffff9a8b1660208201529a909816978a0197909752948716606089015261ffff93841660808901529290911660a0870152841660c0860152151560e0850152919091166101008301521515610120820152610140016100d8565b6100ce6101cc36600461145c565b6102d6565b6100ce6101df36600461145c565b600160209081526000928352604080842090915290825290205481565b6100ce61020a366004611443565b60026020526000908152604090205481565b6100ce61022a36600461162e565b610317565b600454600160981b900463ffffffff166000818152600260205260409020546040805163ffffffff9384168152929091166020830152016100d8565b60035461027e906001600160a01b031681565b6040516001600160a01b0390911681526020016100d8565b6100ce6102a4366004611443565b610a97565b6102b1610b19565b005b6102bb6113c5565b604080519384529115156020840152908201526060016100d8565b6000826000036102f55750600081815260208190526040902054610311565b5060008281526001602090815260408083208484529091529020545b92915050565b6003546000906001600160a01b031633146103795760405162461bcd60e51b815260206004820152601760248201527f6f6e6c79207369676e20706f6c6963792073657474657200000000000000000060448201526064015b60405180910390fd5b815160045462ffffff9091169061039e90600160981b900463ffffffff166001611712565b63ffffffff16146103e95760405162461bcd60e51b81526020600482015260156024820152740dcdee840dccaf0e840e4caeec2e4c840cae0dec6d605b1b6044820152606401610370565b6000826080015151116104345760405162461bcd60e51b81526020600482015260136024820152721b5d5cdd081899481b9bdb8b5d1c9a5d9a585b606a1b6044820152606401610370565b8160a00151518260800151511461047d5760405162461bcd60e51b815260206004820152600d60248201526c0e6d2f4ca40dad2e6dac2e8c6d609b1b6044820152606401610370565b600060168360800151516104919190611736565b61049c90602b61174d565b67ffffffffffffffff8111156104b4576104b461147e565b6040519080825280601f01601f1916602001820160405280156104de576020820181803683370190505b5090506105336040518061012001604052806000815260200160008152602001600081526020016000815260200160008152602001600081526020016000801916815260200160008152602001600081525090565b600084608001515160f01b856000015160e81b866020015160e01b876040015160f01b886060015160001b896080015160008151811061057557610575611760565b602002602001015160601b60088b60a0015160008151811061059957610599611760565b6020908102919091018101516040516001600160f01b0319998a16928101929092526001600160e81b031990971660228201526001600160e01b03199095166025860152959092166029840152602b8301526bffffffffffffffffffffffff1916604b8201526001600160f81b031961ffff90921690921c60f81b16605f82015260600160405160208183030381529060405290505b604082610100015110156106a657808261010001518151811061065457610654611760565b602001015160f81c60f81b838361010001518151811061067657610676611760565b60200101906001600160f81b031916908160001a905350610100820180519061069e82611776565b90525061062f565b805160208083019190912060008085526001928501839052604085019290925260608401919091525b608086015151835110156109e05760006080840181905260c0840181905260a08401525b6020836080015110801561070c57506080860151518351105b1561091b5760408301518351101561080b57602083015161072e90600261178f565b60a080850191909152602084015160e08501528601518351815160009260f0929091811061075e5761075e611760565b602002602001015161ffff16901b60001b905060208460a001518560800151610787919061174d565b11156107bd57608084015161079d90602061178f565b60a085018190526020850180516107b590839061174d565b9052506107d4565b600060208501528351846107d082611776565b9052505b60808401516107e4906008611736565b60e08501516107f4906008611736565b60c0860180519390911b90911c90911790526108fd565b606083015161081b90601461178f565b60a084015260608084015160e0850152608087015160408501518151600093929190811061084b5761084b611760565b60200260200101516001600160a01b0316901b60001b905060208460a001518560800151610879919061174d565b11156108af57608084015161088f90602061178f565b60a085018190526060850180516108a790839061174d565b9052506108ca565b60006060850152604084018051906108c682611776565b9052505b60808401516108da906008611736565b60e08501516108ea906008611736565b60c0860180519390911b90911c90911790525b8260a0015183608001818151610913919061174d565b9052506106f3565b6080830151156109db5760c0830151604051610944918391602001918252602082015260400190565b60405160208183030381529060405280519060200120905060005b83608001518110156109d9578360c00151816020811061098157610981611760565b1a60f81b858561010001518151811061099c5761099c611760565b60200101906001600160f81b031916908160001a90535061010084018051906109c482611776565b905250806109d181611776565b91505061095f565b505b6106cf565b855162ffffff90811660009081526020818152604080832085905589516004805463ffffffff60981b1916918616600160981b8102929092179055828b01805191855260029093529281902063ffffffff90931690925588519051828a015160608b015160808c015160a08d0151955194909616957f91d0280e969157fc6c5b8f952f237b03d934b18534dafcac839075bbc33522f895610a84958c904290611827565b60405180910390a293505050505b919050565b600454600090610100900463ffffffff16821015610aea5760405162461bcd60e51b815260206004820152601060248201526f1899599bdc99481d1a19481cdd185c9d60821b6044820152606401610370565b60045465010000000000810460ff1690610b0f90610100900463ffffffff168461178f565b61031191906118d7565b610c02565b62461bcd60e51b815260206004820152826024820152816044820152606481fd5b6000603082901c63ffffffff1680841015610b8257610b8260177f496e76616c696420766f74696e6720726f756e64206964000000000000000000604051610b1e565b605083901c61ffff1693039290920492915050565b602082823760006020808504028301602084015b81811015610bc9576020816020860137604084208452602001610bab565b5060006020840152602085068160208501375050604081209081905292915050565b60068260040182375160d81c63ffffffff16919050565b60405160045460a0820152600f361015610c4257610c42601c7f496e76616c6964207369676e20706f6c696379206d657461646174610000000083610b1e565b600b60048237805160a81c610c5d62ffffff603083901c1690565b6016604883901c61ffff1602602b0160018101600401361015610ca657610ca6601a7f496e76616c6964207369676e20706f6c696379206c656e67746800000000000086610b1e565b610cb281600486610b97565b6040858101829052838652600060208701528520546060860181905214610cff57610cff601c7f5369676e696e6720706f6c6963792068617368206d69736d617463680000000086610b1e565b6001816004018537835160f81c600061ffff85168215610eb157604051602a8501925036831115610d4a57610d4a601170546f6f2073686f7274206d65737361676560781b83610b1e565b6026856004018237805160d81c63ffffffff1660608201858152600160808401908152604080832090915282825290205415610d9e57610d9e600f6e105b1c9958591e481c995b185e5959608a1b84610b1e565b610dac8160a0840151610b3f565b87811015610de057610de0601e7f57726f6e67207369676e20706f6c696379207265776172642065706f6368000085610b1e565b601089901c63ffffffff1680831015610e1557610e1560137244656c61796564207369676e20706f6c69637960681b86610b1e565b5087811115610ea45760a083015160981c63ffffffff1688811115610e855760018901606085015260026080850152604060608501205480600185011115610e8357610e8360187f4d75737420757365206e6577207369676e20706f6c696379000000000000000087610b1e565b505b888103610ea25760a08401516127109060601c61ffff1686020494505b505b5050602681206020820152505b826110945760405160a0015160009060b81c60ff161115610efa57610efa601a7f5369676e20706f6c6963792072656c61792064697361626c6564000000000000604051610b1e565b60108401361015610f3357610f3360177f4e6f206e6577207369676e20706f6c6963792073697a65000000000000000000604051610b1e565b600b84600101600401604051376040515160a881901c955060f01c60168102602b019050806001018501600401925082361015610f9857610f98601e7f57726f6e672073697a6520666f72206e6577207369676e20706f6c6963790000604051610b1e565b603086901c62ffffff1660405160a0015160981c63ffffffff16818160010114610fe257610fe260157409cdee840dccaf0e840e4caeec2e4c840cae0dec6d605b1b604051610b1e565b50610ff68260018801600401604051610b97565b60405160a0015190925063ffffffff60981b1916609882901b1760a06040510152806040515260026020604051015261103663ffffffff601089901c1690565b60408051205580604051526000602060405101528160408051205581602060405101527f5369676e696e67506f6c69637952656c617965642875696e74323536290000006060604051015280601d606060405101206000604051a250505b600282013610156110c0576110c0601271139bc81cda59db985d1d5c994818dbdd5b9d60721b89610b1e565b6002826040890137604087015160f01c9450600282810192604387020101361015611109576111096015744e6f7420656e6f756768207369676e61747572657360581b89610b1e565b7f3030303019457468657265756d205369676e6564204d6573736167653a0a33328752603c60048801208752604886901c61ffff16965060008060006040515b8884101561137c576000602082015260438481028701603f830137608081015160f01c8b60018201111561119857611198601271496e646578206f7574206f662072616e676560701b84610b1e565b828110156111c1576111c160127124b73232bc1037baba1037b31037b93232b960711b84610b1e565b6001810192506020604083016080846001600019fa6111f8576111f8600f6e32b1b932b1b7bb32b91032b93937b960891b84610b1e565b600060608301526016602f82820201606a84013750606081015160026008021c60408201511461124057611240600f6e57726f6e67207369676e617475726560881b83610b1e565b61ffff606082015116830192508483111561137157866112635760a08101516004555b86156102b1576112738882610beb565b6020600a8a0160c0840137878252600160208301908152604080842090915281835260c08301519083205560a082015160ff1688036102b15760a082015163ffffffff60701b1916607082901b1760a08301526006896004018337815160d01c8083526112f39060ff1660a084015160ff60901b191660909190911b1790565b600481905560901c60ff1660a083019081527f50726f746f636f6c4d65737361676552656c617965642875696e74382c75696e6060840152707433322c626f6f6c2c627974657333322960781b6080840152819089907f4b781cfef3123d9257ab69e6e8ea36ad75a346d63c5ecf8a46931a0eef48bb9e90604090a3005b600184019350611149565b505060405162461bcd60e51b8152602060048201526011602482015270139bdd08195b9bdd59da081dd95a59da1d607a1b60448201526064019850610370975050505050505050565b60045460ff808216600090815260016020818152604080842063ffffffff600160701b880416808652925283205494600160901b81048516946501000000000090910416916114149190611712565b63ffffffff166114249190611736565b60045461143c9190610100900463ffffffff1661174d565b9050909192565b60006020828403121561145557600080fd5b5035919050565b6000806040838503121561146f57600080fd5b50508035926020909101359150565b634e487b7160e01b600052604160045260246000fd5b60405160c0810167ffffffffffffffff811182821017156114b7576114b761147e565b60405290565b604051601f8201601f1916810167ffffffffffffffff811182821017156114e6576114e661147e565b604052919050565b803562ffffff81168114610a9257600080fd5b803563ffffffff81168114610a9257600080fd5b803561ffff81168114610a9257600080fd5b600067ffffffffffffffff8211156115415761154161147e565b5060051b60200190565b600082601f83011261155c57600080fd5b8135602061157161156c83611527565b6114bd565b82815260059290921b8401810191818101908684111561159057600080fd5b8286015b848110156115c15780356001600160a01b03811681146115b45760008081fd5b8352918301918301611594565b509695505050505050565b600082601f8301126115dd57600080fd5b813560206115ed61156c83611527565b82815260059290921b8401810191818101908684111561160c57600080fd5b8286015b848110156115c15761162181611515565b8352918301918301611610565b60006020828403121561164057600080fd5b813567ffffffffffffffff8082111561165857600080fd5b9083019060c0828603121561166c57600080fd5b611674611494565b61167d836114ee565b815261168b60208401611501565b602082015261169c60408401611515565b6040820152606083013560608201526080830135828111156116bd57600080fd5b6116c98782860161154b565b60808301525060a0830135828111156116e157600080fd5b6116ed878286016115cc565b60a08301525095945050505050565b634e487b7160e01b600052601160045260246000fd5b63ffffffff81811683821601908082111561172f5761172f6116fc565b5092915050565b8082028115828204841417610311576103116116fc565b80820180821115610311576103116116fc565b634e487b7160e01b600052603260045260246000fd5b600060018201611788576117886116fc565b5060010190565b81810381811115610311576103116116fc565b600081518084526020808501945080840160005b838110156117d657815161ffff16875295820195908201906001016117b6565b509495945050505050565b6000815180845260005b81811015611807576020818501810151868301820152016117eb565b506000602082860101526020601f19601f83011685010191505092915050565b600060e0820163ffffffff8a168352602061ffff8a168185015288604085015260e0606085015281885180845261010086019150828a01935060005b818110156118885784516001600160a01b031683529383019391830191600101611863565b5050848103608086015261189c81896117a2565b9250505082810360a08401526118b281866117e1565b9150506118cb60c083018467ffffffffffffffff169052565b98975050505050505050565b6000826118f457634e487b7160e01b600052601260045260246000fd5b50049056fea26469706673582212209d1da20e7f8f6c66fc0d915f8ebc816103bc609aa887f8c1adb58c8f7eda58e064736f6c63430008140033",
  "linkReferences": {},
  "deployedLinkReferences": {}
}