{
  "_format": "hh-sol-artifact-1",
  "contractName": "RewardManager",
  "sourceName": "contracts/protocol/implementation/RewardManager.sol",
  "abi": [
    {
      "inputs": [
        {
          "internalType": "contract IGovernanceSettings",
          "name": "_governanceSettings",
          "type": "address"
        },
        {
          "internalType": "address",
          "name": "_initialGovernance",
          "type": "address"
        },
        {
          "internalType": "address",
          "name": "_addressUpdater",
          "type": "address"
        },
        {
          "internalType": "address",
          "name": "_oldRewardManager",
          "type": "address"
        }
      ],
      "stateMutability": "nonpayable",
      "type": "constructor"
    },
    {
      "inputs": [],
      "name": "ReentrancyGuardReentrantCall",
      "type": "error"
    },
    {
      "inputs": [
        {
          "internalType": "uint8",
          "name": "bits",
          "type": "uint8"
        },
        {
          "internalType": "uint256",
          "name": "value",
          "type": "uint256"
        }
      ],
      "name": "SafeCastOverflowedUintDowncast",
      "type": "error"
    },
    {
      "anonymous": false,
      "inputs": [
        {
          "indexed": false,
          "internalType": "bytes4",
          "name": "selector",
          "type": "bytes4"
        },
        {
          "indexed": false,
          "internalType": "uint256",
          "name": "allowedAfterTimestamp",
          "type": "uint256"
        },
        {
          "indexed": false,
          "internalType": "bytes",
          "name": "encodedCall",
          "type": "bytes"
        }
      ],
      "name": "GovernanceCallTimelocked",
      "type": "event"
    },
    {
      "anonymous": false,
      "inputs": [
        {
          "indexed": false,
          "internalType": "address",
          "name": "initialGovernance",
          "type": "address"
        }
      ],
      "name": "GovernanceInitialised",
      "type": "event"
    },
    {
      "anonymous": false,
      "inputs": [
        {
          "indexed": false,
          "internalType": "address",
          "name": "governanceSettings",
          "type": "address"
        }
      ],
      "name": "GovernedProductionModeEntered",
      "type": "event"
    },
    {
      "anonymous": false,
      "inputs": [
        {
          "indexed": true,
          "internalType": "address",
          "name": "beneficiary",
          "type": "address"
        },
        {
          "indexed": true,
          "internalType": "address",
          "name": "rewardOwner",
          "type": "address"
        },
        {
          "indexed": true,
          "internalType": "address",
          "name": "recipient",
          "type": "address"
        },
        {
          "indexed": false,
          "internalType": "uint24",
          "name": "rewardEpochId",
          "type": "uint24"
        },
        {
          "indexed": false,
          "internalType": "enum IRewardManager.ClaimType",
          "name": "claimType",
          "type": "uint8"
        },
        {
          "indexed": false,
          "internalType": "uint120",
          "name": "amount",
          "type": "uint120"
        }
      ],
      "name": "RewardClaimed",
      "type": "event"
    },
    {
      "anonymous": false,
      "inputs": [
        {
          "indexed": true,
          "internalType": "uint256",
          "name": "rewardEpochId",
          "type": "uint256"
        }
      ],
      "name": "RewardClaimsEnabled",
      "type": "event"
    },
    {
      "anonymous": false,
      "inputs": [
        {
          "indexed": true,
          "internalType": "uint256",
          "name": "rewardEpochId",
          "type": "uint256"
        }
      ],
      "name": "RewardClaimsExpired",
      "type": "event"
    },
    {
      "anonymous": false,
      "inputs": [
        {
          "indexed": false,
          "internalType": "bytes4",
          "name": "selector",
          "type": "bytes4"
        },
        {
          "indexed": false,
          "internalType": "uint256",
          "name": "timestamp",
          "type": "uint256"
        }
      ],
      "name": "TimelockedGovernanceCallCanceled",
      "type": "event"
    },
    {
      "anonymous": false,
      "inputs": [
        {
          "indexed": false,
          "internalType": "bytes4",
          "name": "selector",
          "type": "bytes4"
        },
        {
          "indexed": false,
          "internalType": "uint256",
          "name": "timestamp",
          "type": "uint256"
        }
      ],
      "name": "TimelockedGovernanceCallExecuted",
      "type": "event"
    },
    {
      "inputs": [],
      "name": "activate",
      "outputs": [],
      "stateMutability": "nonpayable",
      "type": "function"
    },
    {
      "inputs": [],
      "name": "active",
      "outputs": [
        {
          "internalType": "bool",
          "name": "",
          "type": "bool"
        }
      ],
      "stateMutability": "view",
      "type": "function"
    },
    {
      "inputs": [
        {
          "internalType": "uint256",
          "name": "_toAuthorizeWei",
          "type": "uint256"
        }
      ],
      "name": "addDailyAuthorizedInflation",
      "outputs": [],
      "stateMutability": "nonpayable",
      "type": "function"
    },
    {
      "inputs": [
        {
          "internalType": "address[]",
          "name": "_rewardOwners",
          "type": "address[]"
        },
        {
          "internalType": "uint24",
          "name": "_rewardEpochId",
          "type": "uint24"
        },
        {
          "components": [
            {
              "internalType": "bytes32[]",
              "name": "merkleProof",
              "type": "bytes32[]"
            },
            {
              "components": [
                {
                  "internalType": "uint24",
                  "name": "rewardEpochId",
                  "type": "uint24"
                },
                {
                  "internalType": "bytes20",
                  "name": "beneficiary",
                  "type": "bytes20"
                },
                {
                  "internalType": "uint120",
                  "name": "amount",
                  "type": "uint120"
                },
                {
                  "internalType": "enum IRewardManager.ClaimType",
                  "name": "claimType",
                  "type": "uint8"
                }
              ],
              "internalType": "struct IRewardManager.RewardClaim",
              "name": "body",
              "type": "tuple"
            }
          ],
          "internalType": "struct IRewardManager.RewardClaimWithProof[]",
          "name": "_proofs",
          "type": "tuple[]"
        }
      ],
      "name": "autoClaim",
      "outputs": [],
      "stateMutability": "nonpayable",
      "type": "function"
    },
    {
      "inputs": [],
      "name": "cChainStake",
      "outputs": [
        {
          "internalType": "contract ICChainStake",
          "name": "",
          "type": "address"
        }
      ],
      "stateMutability": "view",
      "type": "function"
    },
    {
      "inputs": [],
      "name": "cChainStakeEnabled",
      "outputs": [
        {
          "internalType": "bool",
          "name": "",
          "type": "bool"
        }
      ],
      "stateMutability": "view",
      "type": "function"
    },
    {
      "inputs": [
        {
          "internalType": "bytes4",
          "name": "_selector",
          "type": "bytes4"
        }
      ],
      "name": "cancelGovernanceCall",
      "outputs": [],
      "stateMutability": "nonpayable",
      "type": "function"
    },
    {
      "inputs": [
        {
          "internalType": "address",
          "name": "_rewardOwner",
          "type": "address"
        },
        {
          "internalType": "address payable",
          "name": "_recipient",
          "type": "address"
        },
        {
          "internalType": "uint24",
          "name": "_rewardEpochId",
          "type": "uint24"
        },
        {
          "internalType": "bool",
          "name": "_wrap",
          "type": "bool"
        },
        {
          "components": [
            {
              "internalType": "bytes32[]",
              "name": "merkleProof",
              "type": "bytes32[]"
            },
            {
              "components": [
                {
                  "internalType": "uint24",
                  "name": "rewardEpochId",
                  "type": "uint24"
                },
                {
                  "internalType": "bytes20",
                  "name": "beneficiary",
                  "type": "bytes20"
                },
                {
                  "internalType": "uint120",
                  "name": "amount",
                  "type": "uint120"
                },
                {
                  "internalType": "enum IRewardManager.ClaimType",
                  "name": "claimType",
                  "type": "uint8"
                }
              ],
              "internalType": "struct IRewardManager.RewardClaim",
              "name": "body",
              "type": "tuple"
            }
          ],
          "internalType": "struct IRewardManager.RewardClaimWithProof[]",
          "name": "_proofs",
          "type": "tuple[]"
        }
      ],
      "name": "claim",
      "outputs": [
        {
          "internalType": "uint256",
          "name": "_rewardAmountWei",
          "type": "uint256"
        }
      ],
      "stateMutability": "nonpayable",
      "type": "function"
    },
    {
      "inputs": [],
      "name": "claimSetupManager",
      "outputs": [
        {
          "internalType": "contract IIClaimSetupManager",
          "name": "",
          "type": "address"
        }
      ],
      "stateMutability": "view",
      "type": "function"
    },
    {
      "inputs": [],
      "name": "cleanupBlockNumber",
      "outputs": [
        {
          "internalType": "uint256",
          "name": "",
          "type": "uint256"
        }
      ],
      "stateMutability": "view",
      "type": "function"
    },
    {
      "inputs": [
        {
          "internalType": "uint256",
          "name": "_rewardEpochId",
          "type": "uint256"
        }
      ],
      "name": "closeExpiredRewardEpoch",
      "outputs": [],
      "stateMutability": "nonpayable",
      "type": "function"
    },
    {
      "inputs": [],
      "name": "deactivate",
      "outputs": [],
      "stateMutability": "nonpayable",
      "type": "function"
    },
    {
      "inputs": [],
      "name": "enableCChainStake",
      "outputs": [],
      "stateMutability": "nonpayable",
      "type": "function"
    },
    {
      "inputs": [],
      "name": "enableClaims",
      "outputs": [],
      "stateMutability": "nonpayable",
      "type": "function"
    },
    {
      "inputs": [],
      "name": "enablePChainStakeMirror",
      "outputs": [],
      "stateMutability": "nonpayable",
      "type": "function"
    },
    {
      "inputs": [
        {
          "internalType": "bytes4",
          "name": "_selector",
          "type": "bytes4"
        }
      ],
      "name": "executeGovernanceCall",
      "outputs": [],
      "stateMutability": "nonpayable",
      "type": "function"
    },
    {
      "inputs": [],
      "name": "firstClaimableRewardEpochId",
      "outputs": [
        {
          "internalType": "uint24",
          "name": "",
          "type": "uint24"
        }
      ],
      "stateMutability": "view",
      "type": "function"
    },
    {
      "inputs": [],
      "name": "flareSystemsCalculator",
      "outputs": [
        {
          "internalType": "contract IIFlareSystemsCalculator",
          "name": "",
          "type": "address"
        }
      ],
      "stateMutability": "view",
      "type": "function"
    },
    {
      "inputs": [],
      "name": "flareSystemsManager",
      "outputs": [
        {
          "internalType": "contract IIFlareSystemsManager",
          "name": "",
          "type": "address"
        }
      ],
      "stateMutability": "view",
      "type": "function"
    },
    {
      "inputs": [],
      "name": "getAddressUpdater",
      "outputs": [
        {
          "internalType": "address",
          "name": "_addressUpdater",
          "type": "address"
        }
      ],
      "stateMutability": "view",
      "type": "function"
    },
    {
      "inputs": [],
      "name": "getCurrentRewardEpochId",
      "outputs": [
        {
          "internalType": "uint24",
          "name": "",
          "type": "uint24"
        }
      ],
      "stateMutability": "view",
      "type": "function"
    },
    {
      "inputs": [],
      "name": "getExpectedBalance",
      "outputs": [
        {
          "internalType": "uint256",
          "name": "",
          "type": "uint256"
        }
      ],
      "stateMutability": "view",
      "type": "function"
    },
    {
      "inputs": [],
      "name": "getInitialRewardEpochId",
      "outputs": [
        {
          "internalType": "uint256",
          "name": "",
          "type": "uint256"
        }
      ],
      "stateMutability": "view",
      "type": "function"
    },
    {
      "inputs": [
        {
          "internalType": "address",
          "name": "_rewardOwner",
          "type": "address"
        }
      ],
      "name": "getNextClaimableRewardEpochId",
      "outputs": [
        {
          "internalType": "uint256",
          "name": "",
          "type": "uint256"
        }
      ],
      "stateMutability": "view",
      "type": "function"
    },
    {
      "inputs": [],
      "name": "getRewardEpochIdToExpireNext",
      "outputs": [
        {
          "internalType": "uint256",
          "name": "",
          "type": "uint256"
        }
      ],
      "stateMutability": "view",
      "type": "function"
    },
    {
      "inputs": [],
      "name": "getRewardEpochIdsWithClaimableRewards",
      "outputs": [
        {
          "internalType": "uint24",
          "name": "_startEpochId",
          "type": "uint24"
        },
        {
          "internalType": "uint24",
          "name": "_endEpochId",
          "type": "uint24"
        }
      ],
      "stateMutability": "view",
      "type": "function"
    },
    {
      "inputs": [],
      "name": "getRewardOffersManagerList",
      "outputs": [
        {
          "internalType": "address[]",
          "name": "",
          "type": "address[]"
        }
      ],
      "stateMutability": "view",
      "type": "function"
    },
    {
      "inputs": [
        {
          "internalType": "address",
          "name": "_rewardOwner",
          "type": "address"
        }
      ],
      "name": "getStateOfRewards",
      "outputs": [
        {
          "components": [
            {
              "internalType": "uint24",
              "name": "rewardEpochId",
              "type": "uint24"
            },
            {
              "internalType": "bytes20",
              "name": "beneficiary",
              "type": "bytes20"
            },
            {
              "internalType": "uint120",
              "name": "amount",
              "type": "uint120"
            },
            {
              "internalType": "enum IRewardManager.ClaimType",
              "name": "claimType",
              "type": "uint8"
            },
            {
              "internalType": "bool",
              "name": "initialised",
              "type": "bool"
            }
          ],
          "internalType": "struct IRewardManager.RewardState[][]",
          "name": "_rewardStates",
          "type": "tuple[][]"
        }
      ],
      "stateMutability": "view",
      "type": "function"
    },
    {
      "inputs": [
        {
          "internalType": "address",
          "name": "_rewardOwner",
          "type": "address"
        },
        {
          "internalType": "uint24",
          "name": "_rewardEpochId",
          "type": "uint24"
        }
      ],
      "name": "getStateOfRewardsAt",
      "outputs": [
        {
          "components": [
            {
              "internalType": "uint24",
              "name": "rewardEpochId",
              "type": "uint24"
            },
            {
              "internalType": "bytes20",
              "name": "beneficiary",
              "type": "bytes20"
            },
            {
              "internalType": "uint120",
              "name": "amount",
              "type": "uint120"
            },
            {
              "internalType": "enum IRewardManager.ClaimType",
              "name": "claimType",
              "type": "uint8"
            },
            {
              "internalType": "bool",
              "name": "initialised",
              "type": "bool"
            }
          ],
          "internalType": "struct IRewardManager.RewardState[]",
          "name": "_rewardStates",
          "type": "tuple[]"
        }
      ],
      "stateMutability": "view",
      "type": "function"
    },
    {
      "inputs": [],
      "name": "getTokenPoolSupplyData",
      "outputs": [
        {
          "internalType": "uint256",
          "name": "_lockedFundsWei",
          "type": "uint256"
        },
        {
          "internalType": "uint256",
          "name": "_totalInflationAuthorizedWei",
          "type": "uint256"
        },
        {
          "internalType": "uint256",
          "name": "_totalClaimedWei",
          "type": "uint256"
        }
      ],
      "stateMutability": "view",
      "type": "function"
    },
    {
      "inputs": [],
      "name": "getTotals",
      "outputs": [
        {
          "internalType": "uint256",
          "name": "_totalFundsReceivedWei",
          "type": "uint256"
        },
        {
          "internalType": "uint256",
          "name": "_totalClaimedWei",
          "type": "uint256"
        },
        {
          "internalType": "uint256",
          "name": "_totalBurnedWei",
          "type": "uint256"
        },
        {
          "internalType": "uint256",
          "name": "_totalInflationAuthorizedWei",
          "type": "uint256"
        },
        {
          "internalType": "uint256",
          "name": "_totalInflationReceivedWei",
          "type": "uint256"
        }
      ],
      "stateMutability": "view",
      "type": "function"
    },
    {
      "inputs": [
        {
          "internalType": "address",
          "name": "_beneficiary",
          "type": "address"
        },
        {
          "internalType": "uint24",
          "name": "_rewardEpochId",
          "type": "uint24"
        },
        {
          "internalType": "enum IRewardManager.ClaimType",
          "name": "_claimType",
          "type": "uint8"
        }
      ],
      "name": "getUnclaimedRewardState",
      "outputs": [
        {
          "components": [
            {
              "internalType": "bool",
              "name": "initialised",
              "type": "bool"
            },
            {
              "internalType": "uint120",
              "name": "amount",
              "type": "uint120"
            },
            {
              "internalType": "uint128",
              "name": "weight",
              "type": "uint128"
            }
          ],
          "internalType": "struct IRewardManager.UnclaimedRewardState",
          "name": "_state",
          "type": "tuple"
        }
      ],
      "stateMutability": "view",
      "type": "function"
    },
    {
      "inputs": [],
      "name": "governance",
      "outputs": [
        {
          "internalType": "address",
          "name": "",
          "type": "address"
        }
      ],
      "stateMutability": "view",
      "type": "function"
    },
    {
      "inputs": [],
      "name": "governanceSettings",
      "outputs": [
        {
          "internalType": "contract IGovernanceSettings",
          "name": "",
          "type": "address"
        }
      ],
      "stateMutability": "view",
      "type": "function"
    },
    {
      "inputs": [
        {
          "internalType": "contract IGovernanceSettings",
          "name": "_governanceSettings",
          "type": "address"
        },
        {
          "internalType": "address",
          "name": "_initialGovernance",
          "type": "address"
        }
      ],
      "name": "initialise",
      "outputs": [],
      "stateMutability": "nonpayable",
      "type": "function"
    },
    {
      "inputs": [
        {
          "components": [
            {
              "internalType": "bytes32[]",
              "name": "merkleProof",
              "type": "bytes32[]"
            },
            {
              "components": [
                {
                  "internalType": "uint24",
                  "name": "rewardEpochId",
                  "type": "uint24"
                },
                {
                  "internalType": "bytes20",
                  "name": "beneficiary",
                  "type": "bytes20"
                },
                {
                  "internalType": "uint120",
                  "name": "amount",
                  "type": "uint120"
                },
                {
                  "internalType": "enum IRewardManager.ClaimType",
                  "name": "claimType",
                  "type": "uint8"
                }
              ],
              "internalType": "struct IRewardManager.RewardClaim",
              "name": "body",
              "type": "tuple"
            }
          ],
          "internalType": "struct IRewardManager.RewardClaimWithProof[]",
          "name": "_proofs",
          "type": "tuple[]"
        }
      ],
      "name": "initialiseWeightBasedClaims",
      "outputs": [],
      "stateMutability": "nonpayable",
      "type": "function"
    },
    {
      "inputs": [
        {
          "internalType": "address",
          "name": "_address",
          "type": "address"
        }
      ],
      "name": "isExecutor",
      "outputs": [
        {
          "internalType": "bool",
          "name": "",
          "type": "bool"
        }
      ],
      "stateMutability": "view",
      "type": "function"
    },
    {
      "inputs": [],
      "name": "newRewardManager",
      "outputs": [
        {
          "internalType": "address",
          "name": "",
          "type": "address"
        }
      ],
      "stateMutability": "view",
      "type": "function"
    },
    {
      "inputs": [
        {
          "internalType": "uint256",
          "name": "rewardEpochId",
          "type": "uint256"
        }
      ],
      "name": "noOfInitialisedWeightBasedClaims",
      "outputs": [
        {
          "internalType": "uint256",
          "name": "",
          "type": "uint256"
        }
      ],
      "stateMutability": "view",
      "type": "function"
    },
    {
      "inputs": [],
      "name": "oldRewardManager",
      "outputs": [
        {
          "internalType": "address",
          "name": "",
          "type": "address"
        }
      ],
      "stateMutability": "view",
      "type": "function"
    },
    {
      "inputs": [],
      "name": "pChainStakeMirror",
      "outputs": [
        {
          "internalType": "contract IPChainStakeMirror",
          "name": "",
          "type": "address"
        }
      ],
      "stateMutability": "view",
      "type": "function"
    },
    {
      "inputs": [],
      "name": "pChainStakeMirrorEnabled",
      "outputs": [
        {
          "internalType": "bool",
          "name": "",
          "type": "bool"
        }
      ],
      "stateMutability": "view",
      "type": "function"
    },
    {
      "inputs": [],
      "name": "productionMode",
      "outputs": [
        {
          "internalType": "bool",
          "name": "",
          "type": "bool"
        }
      ],
      "stateMutability": "view",
      "type": "function"
    },
    {
      "inputs": [
        {
          "internalType": "uint24",
          "name": "_rewardEpochId",
          "type": "uint24"
        },
        {
          "internalType": "bool",
          "name": "_inflation",
          "type": "bool"
        }
      ],
      "name": "receiveRewards",
      "outputs": [],
      "stateMutability": "payable",
      "type": "function"
    },
    {
      "inputs": [],
      "name": "setInitialRewardData",
      "outputs": [],
      "stateMutability": "nonpayable",
      "type": "function"
    },
    {
      "inputs": [
        {
          "internalType": "address",
          "name": "_newRewardManager",
          "type": "address"
        }
      ],
      "name": "setNewRewardManager",
      "outputs": [],
      "stateMutability": "nonpayable",
      "type": "function"
    },
    {
      "inputs": [
        {
          "internalType": "address[]",
          "name": "_rewardOffersManagerList",
          "type": "address[]"
        }
      ],
      "name": "setRewardOffersManagerList",
      "outputs": [],
      "stateMutability": "nonpayable",
      "type": "function"
    },
    {
      "inputs": [],
      "name": "switchToProductionMode",
      "outputs": [],
      "stateMutability": "nonpayable",
      "type": "function"
    },
    {
      "inputs": [
        {
          "internalType": "bytes4",
          "name": "selector",
          "type": "bytes4"
        }
      ],
      "name": "timelockedCalls",
      "outputs": [
        {
          "internalType": "uint256",
          "name": "allowedAfterTimestamp",
          "type": "uint256"
        },
        {
          "internalType": "bytes",
          "name": "encodedCall",
          "type": "bytes"
        }
      ],
      "stateMutability": "view",
      "type": "function"
    },
    {
      "inputs": [
        {
          "internalType": "bytes32[]",
          "name": "_contractNameHashes",
          "type": "bytes32[]"
        },
        {
          "internalType": "address[]",
          "name": "_contractAddresses",
          "type": "address[]"
        }
      ],
      "name": "updateContractAddresses",
      "outputs": [],
      "stateMutability": "nonpayable",
      "type": "function"
    },
    {
      "inputs": [],
      "name": "wNat",
      "outputs": [
        {
          "internalType": "contract IWNat",
          "name": "",
          "type": "address"
        }
      ],
      "stateMutability": "view",
      "type": "function"
    }
  ],
  "bytecode": "0x60a06040523480156200001157600080fd5b50604051620062923803806200629283398101604081905262000034916200022e565b8184846200004382826200009c565b506200006f9050817f714f205b2abd25bef1d06a1af944e38c113fe6160375c4e1d6d5cf28848e771955565b506001600355600a805462ffffff191662ffffff1790556001600160a01b03166080525062000296915050565b600054600160a01b900460ff1615620000fc5760405162461bcd60e51b815260206004820152601460248201527f696e697469616c6973656420213d2066616c736500000000000000000000000060448201526064015b60405180910390fd5b6001600160a01b038216620001545760405162461bcd60e51b815260206004820152601860248201527f676f7665726e616e63652073657474696e6773207a65726f00000000000000006044820152606401620000f3565b6001600160a01b0381166200019f5760405162461bcd60e51b815260206004820152601060248201526f5f676f7665726e616e6365207a65726f60801b6044820152606401620000f3565b600080546001600160a01b038481166001600160a81b031990921691909117600160a01b17909155600180549183166001600160a01b0319909216821790556040519081527f9789733827840833afc031fb2ef9ab6894271f77bad2085687cf4ae5c7bee4db9060200160405180910390a15050565b6001600160a01b03811681146200022b57600080fd5b50565b600080600080608085870312156200024557600080fd5b8451620002528162000215565b6020860151909450620002658162000215565b6040860151909350620002788162000215565b60608601519092506200028b8162000215565b939692955090935050565b608051615fd2620002c06000396000818161043e01528181611ad20152611b400152615fd26000f3fe6080604052600436106102e45760003560e01c80638e33aba511610190578063d6c1dbee116100dc578063ea28edad11610095578063f5a983831161006f578063f5a983831461097a578063faae7fc91461098f578063fbde354d146109af578063fd95b2e0146109cf57600080fd5b8063ea28edad14610918578063ef88bf131461092d578063f1367b7f1461094d57600080fd5b8063d6c1dbee14610851578063d8def81814610871578063debfda30146108a2578063deea13e7146108c2578063e17f212e146108d7578063e7dea8e6146108f857600080fd5b8063a71de67611610149578063b00c0b7611610123578063b00c0b76146107d1578063b753801d146107f1578063c4db961914610811578063d6ac4f721461083157600080fd5b8063a71de67614610786578063af04cd3b146107a7578063b006b4e3146107bc57600080fd5b80638e33aba5146106a15780638e467784146106c15780639a3410bc146106e15780639edbf007146106fd5780639ee5de331461071d578063a02e86e51461077357600080fd5b80634b6e018d1161024f57806362d9c89a1161020857806374e6310e116101e257806374e6310e146105ec5780637a17a34d1461061a5780637bf756c91461063c57806384e10a901461065d57600080fd5b806362d9c89a1461058357806367fc4029146105a357806370562697146105c357600080fd5b80634b6e018d146104b857806351b42b00146104e55780635267a15d146104fa5780635aa6e6751461052e5780635ff270791461054357806362354e031461056357600080fd5b80631de56098116102a15780631de56098146103c45780632dafdbbf146103d957806330c40bc91461040957806336300be21461042c5780633ce7522a14610478578063470ce0871461049857600080fd5b806302fb0c5e146102e9578063064be5321461031f57806306c7e243146103405780630f15f4c01461036d57806315ca06371461038457806315f253fb146103a4575b600080fd5b3480156102f557600080fd5b5060185461030a90600160a81b900460ff1681565b60405190151581526020015b60405180910390f35b34801561032b57600080fd5b5060185461030a90600160a01b900460ff1681565b34801561034c57600080fd5b5061036061035b366004615037565b6109e4565b6040516103169190615105565b34801561037957600080fd5b50610382610ab1565b005b34801561039057600080fd5b5061038261039f36600461514e565b610ace565b3480156103b057600080fd5b506103826103bf3660046151ab565b610aea565b3480156103d057600080fd5b50610382610d7f565b3480156103e557600080fd5b506103ee610f01565b60408051938452602084019290925290820152606001610316565b34801561041557600080fd5b5061041e610f34565b604051908152602001610316565b34801561043857600080fd5b506104607f000000000000000000000000000000000000000000000000000000000000000081565b6040516001600160a01b039091168152602001610316565b34801561048457600080fd5b5061038261049336600461522f565b610f43565b3480156104a457600080fd5b506103826104b3366004615270565b610f5e565b3480156104c457600080fd5b5061041e6104d336600461514e565b600d6020526000908152604090205481565b3480156104f157600080fd5b50610382611045565b34801561050657600080fd5b507f714f205b2abd25bef1d06a1af944e38c113fe6160375c4e1d6d5cf28848e771954610460565b34801561053a57600080fd5b5061046061105c565b34801561054f57600080fd5b5061038261055e36600461528d565b6110f3565b34801561056f57600080fd5b50600054610460906001600160a01b031681565b34801561058f57600080fd5b50601654610460906001600160a01b031681565b3480156105af57600080fd5b506103826105be36600461528d565b611373565b3480156105cf57600080fd5b506105d8611454565b60405162ffffff9091168152602001610316565b3480156105f857600080fd5b5061060c61060736600461528d565b61145e565b604051610316929190615307565b34801561062657600080fd5b5061062f611503565b6040516103169190615328565b34801561064857600080fd5b5060165461030a90600160a01b900460ff1681565b34801561066957600080fd5b50601054600e54600f54601254601154604080519586526020860194909452928401919091526060830152608082015260a001610316565b3480156106ad57600080fd5b5061041e6106bc366004615377565b611568565b3480156106cd57600080fd5b50601554610460906001600160a01b031681565b3480156106ed57600080fd5b50600a546105d89062ffffff1681565b34801561070957600080fd5b50601754610460906001600160a01b031681565b34801561072957600080fd5b5061073d610738366004615413565b61169e565b604080518251151581526020808401516001600160781b031690820152918101516001600160801b031690820152606001610316565b61038261078136600461545a565b61175b565b34801561079257600080fd5b50600a546301000000900462ffffff1661041e565b3480156107b357600080fd5b5061041e611867565b3480156107c857600080fd5b50610382611871565b3480156107dd57600080fd5b506103826107ec366004615565565b6118b5565b3480156107fd57600080fd5b5061038261080c36600461522f565b611990565b34801561081d57600080fd5b50601354610460906001600160a01b031681565b34801561083d57600080fd5b5061041e61084c366004615270565b611a0a565b34801561085d57600080fd5b5061038261086c36600461514e565b611a23565b34801561087d57600080fd5b50610886611d18565b6040805162ffffff938416815292909116602083015201610316565b3480156108ae57600080fd5b5061030a6108bd366004615270565b611d89565b3480156108ce57600080fd5b5061041e611e0c565b3480156108e357600080fd5b5060005461030a90600160a81b900460ff1681565b34801561090457600080fd5b50601854610460906001600160a01b031681565b34801561092457600080fd5b50610382611e7a565b34801561093957600080fd5b5061038261094836600461561d565b611f15565b34801561095957600080fd5b5061096d610968366004615270565b61207b565b604051610316919061564b565b34801561098657600080fd5b50610382612173565b34801561099b57600080fd5b50601454610460906001600160a01b031681565b3480156109bb57600080fd5b50601954610460906001600160a01b031681565b3480156109db57600080fd5b50610382612239565b60606109ef8261227d565b610a05836109fb6122cd565b62ffffff16612304565b62ffffff168262ffffff161015610a555760405162461bcd60e51b815260206004820152600f60248201526e185b1c9958591e4818db185a5b5959608a1b60448201526064015b60405180910390fd5b610a5e82612330565b610a9e5760405162461bcd60e51b8152602060048201526011602482015270726577617264732068617368207a65726f60781b6044820152606401610a4c565b610aa883836123ae565b90505b92915050565b610ab9612a60565b6018805460ff60a81b1916600160a81b179055565b610ad6612aba565b80601254610ae491906156f0565b60125550565b610af2612b18565b610afa612b71565b610b02612bd9565b60005b84811015610b4e57610b3c868683818110610b2257610b22615703565b9050602002016020810190610b379190615270565b612c03565b80610b4681615719565b915050610b05565b50610b588361227d565b60135460405163712441d960e11b815260009182916001600160a01b039091169063e24883b290610b919033908b908b90600401615732565b600060405180830381865afa158015610bae573d6000803e3d6000fd5b505050506040513d6000823e601f3d908101601f19168201604052610bd691908101906157f2565b915091506000610be46122cd565b9050610bf4600080878785612c4a565b5060009050805b88811015610d345760008a8a83818110610c1757610c17615703565b9050602002016020810190610c2c9190615270565b90506000868381518110610c4257610c42615703565b602002602001015190506000610c5c83838d896000612dfb565b6001600160781b03169050816001600160a01b0316836001600160a01b031614610ca457610c8e82838d896001612dfb565b610ca1906001600160781b0316826156f0565b90505b86811015610cf45760405162461bcd60e51b815260206004820152601860248201527f636c61696d656420616d6f756e7420746f6f20736d616c6c00000000000000006044820152606401610a4c565b610cfe81866156f0565b9450610d0a8782615838565b90508015610d1e57610d1e8282600161306f565b5050508080610d2c90615719565b915050610bfb565b5080600e6000828254610d4791906156f0565b90915550610d62905033610d5b8a8661584b565b600061306f565b50505050610d706001600355565b610d78613170565b5050505050565b600054600160b01b900460ff1680610da15750600054600160a81b900460ff16155b15610ef457610dae6131b7565b601854600160a81b900460ff16158015610dd45750600a54600160301b900462ffffff16155b8015610dec5750600a546301000000900462ffffff16155b610e2c5760405162461bcd60e51b81526020600482015260116024820152706e6f7420696e697469616c20737461746560781b6044820152606401610a4c565b610e346131ef565b610e3f906001615862565b600a60066101000a81548162ffffff021916908362ffffff160217905550601460009054906101000a90046001600160a01b03166001600160a01b031663aec84ab66040518163ffffffff1660e01b8152600401602060405180830381865afa158015610eb0573d6000803e3d6000fd5b505050506040513d601f19601f82011682018060405250810190610ed49190615885565b600a60036101000a81548162ffffff021916908362ffffff160217905550565b610eff60003661325d565b565b6000806000601154601054610f169190615838565b92506012549150600f54600e54610f2d91906156f0565b9050909192565b6000610f3e6133a9565b905090565b610f586000808484610f536122cd565b612c4a565b50505050565b600054600160b01b900460ff1680610f805750600054600160a81b900460ff16155b1561103757610f8d6131b7565b6019546001600160a01b031615610fd45760405162461bcd60e51b815260206004820152600b60248201526a185b1c9958591e481cd95d60aa1b6044820152606401610a4c565b6001600160a01b0381166110195760405162461bcd60e51b815260206004820152600c60248201526b61646472657373207a65726f60a01b6044820152606401610a4c565b601980546001600160a01b0319166001600160a01b03831617905550565b61104260003661325d565b50565b61104d612a60565b6018805460ff60a81b19169055565b60008054600160a81b900460ff1661107e57506001546001600160a01b031690565b60008054906101000a90046001600160a01b03166001600160a01b031663732524946040518163ffffffff1660e01b8152600401602060405180830381865afa1580156110cf573d6000803e3d6000fd5b505050506040513d601f19601f82011682018060405250810190610f3e91906158a2565b6110fc33611d89565b6111385760405162461bcd60e51b815260206004820152600d60248201526c37b7363c9032bc32b1baba37b960991b6044820152606401610a4c565b6001600160e01b03198116600090815260026020526040812080549091036111a25760405162461bcd60e51b815260206004820152601a60248201527f74696d656c6f636b3a20696e76616c69642073656c6563746f720000000000006044820152606401610a4c565b80544210156111f35760405162461bcd60e51b815260206004820152601960248201527f74696d656c6f636b3a206e6f7420616c6c6f77656420796574000000000000006044820152606401610a4c565b6000816001018054611204906158bf565b80601f0160208091040260200160405190810160405280929190818152602001828054611230906158bf565b801561127d5780601f106112525761010080835404028352916020019161127d565b820191906000526020600020905b81548152906001019060200180831161126057829003601f168201915b505050506001600160e01b03198516600090815260026020526040812081815592935090506112af6001830182614fc7565b50506000805460ff60b01b1916600160b01b17815560405130906112d49084906158f3565b6000604051808303816000865af19150503d8060008114611311576040519150601f19603f3d011682016040523d82523d6000602084013e611316565b606091505b50506000805460ff60b01b19169055604080516001600160e01b0319871681524260208201529192507fa7326b57fc9cfe267aaea5e7f0b01757154d265620a0585819416ee9ddd2c438910160405180910390a1610f58816133c6565b61137b612a60565b6001600160e01b0319811660009081526002602052604081205490036113e35760405162461bcd60e51b815260206004820152601a60248201527f74696d656c6f636b3a20696e76616c69642073656c6563746f720000000000006044820152606401610a4c565b604080516001600160e01b0319831681524260208201527f7735b2391c38a81419c513e30ca578db7158eadd7101511b23e221c654d19cf8910160405180910390a16001600160e01b0319811660009081526002602052604081208181559061144f6001830182614fc7565b505050565b6000610f3e6131ef565b60026020526000908152604090208054600182018054919291611480906158bf565b80601f01602080910402602001604051908101604052809291908181526020018280546114ac906158bf565b80156114f95780601f106114ce576101008083540402835291602001916114f9565b820191906000526020600020905b8154815290600101906020018083116114dc57829003601f168201915b5050505050905082565b6060601a60000180548060200260200160405190810160405280929190818152602001828054801561155e57602002820191906000526020600020905b81546001600160a01b03168152600190910190602001808311611540575b5050505050905090565b6000611572612b18565b61157a612b71565b611582612bd9565b868661158e82826133e3565b61159788612c03565b6115a08761227d565b60006115aa6122cd565b905060006115bb8b8b898986612c4a565b6001600160781b03909116955090506115d88b8b8b856000612dfb565b6115eb906001600160781b0316866156f0565b94506001600160781b0381161561165557806001600160781b0316600f600082825461161791906156f0565b909155505060405161dead906001600160781b03831680156108fc02916000818181858888f19350505050158015611653573d6000803e3d6000fd5b505b841561167e5784600e600082825461166d91906156f0565b9091555061167e90508a868a61306f565b5050505061168c6001600355565b611694613170565b9695505050505050565b604080516060810182526000808252602080830182905282840182905262ffffff86168252600b905291822090918360048111156116de576116de615070565b60048111156116ef576116ef615070565b8152602080820192909252604090810160009081206001600160a01b038816825283528190208151606081018352905460ff81161515825261010081046001600160781b031693820193909352600160801b9092046001600160801b03169082015290505b9392505050565b611763612aba565b61176b612b71565b6117736131ef565b62ffffff168262ffffff1610156117cc5760405162461bcd60e51b815260206004820152601b60248201527f7265776172642065706f636820696420696e20746865207061737400000000006044820152606401610a4c565b6117d534613466565b62ffffff8316600090815260066020526040812080549091906118029084906001600160781b031661590f565b92506101000a8154816001600160781b0302191690836001600160781b03160217905550346010600082825461183891906156f0565b9091555050801561185b57346011600082825461185591906156f0565b90915550505b611863613170565b5050565b6000610f3e61349e565b600054600160b01b900460ff16806118935750600054600160a81b900460ff16155b15610ef4576118a06131b7565b6016805460ff60a01b1916600160a01b179055565b7f714f205b2abd25bef1d06a1af944e38c113fe6160375c4e1d6d5cf28848e7719546001600160a01b0316336001600160a01b03161461192e5760405162461bcd60e51b815260206004820152601460248201527337b7363c9030b2323932b9b9903ab83230ba32b960611b6044820152606401610a4c565b61198661196283836040518060400160405280600e81526020016d20b2323932b9b9aab83230ba32b960911b8152506134bd565b7f714f205b2abd25bef1d06a1af944e38c113fe6160375c4e1d6d5cf28848e771955565b6118638282613598565b600054600160b01b900460ff16806119b25750600054600160a81b900460ff16155b156119ff576119bf6131b7565b611863828280806020026020016040519081016040528093929190818152602001838360200280828437600092019190915250601a939250506137ba9050565b61186360003661325d565b6000611a18826109fb6122cd565b62ffffff1692915050565b6014546001600160a01b0316331480611a4657506019546001600160a01b031633145b611a825760405162461bcd60e51b815260206004820152600d60248201526c6f6e6c79206d616e616765727360981b6044820152606401610a4c565b600a546301000000900462ffffff168114611ad05760405162461bcd60e51b815260206004820152600e60248201526d1ddc9bdb99c8195c1bd8da081a5960921b6044820152606401610a4c565b7f00000000000000000000000000000000000000000000000000000000000000006001600160a01b031615801590611b255750600a54611b1d90600160301b900462ffffff166032615862565b62ffffff1681105b15611ba557604051636b60edf760e11b8152600481018290527f00000000000000000000000000000000000000000000000000000000000000006001600160a01b03169063d6c1dbee90602401600060405180830381600087803b158015611b8c57600080fd5b505af1158015611ba0573d6000803e3d6000fd5b505050505b611bb8611bb38260016156f0565b6137cd565b600a805462ffffff9290921663010000000265ffffff0000001990921691909117905560405181907f5d05c64f281304391697cf987812e1a736413a062a9bdf39af4102209eb6fa5890600090a26000818152600960209081526040808320546008909252822054611c36916001600160781b03908116911661590f565b600083815260066020526040902054611c5891906001600160781b031661592f565b90506001600160781b0381161561186357806001600160781b0316600f6000828254611c8491906156f0565b909155505060008281526009602052604081208054839290611cb09084906001600160781b031661590f565b92506101000a8154816001600160781b0302191690836001600160781b0316021790555061dead6001600160a01b03166108fc826001600160781b03169081150290604051600060405180830381858888f1935050505015801561144f573d6000803e3d6000fd5b600080611d236122cd565b9150611d2e82612330565b611d7a5760405162461bcd60e51b815260206004820152601f60248201527f6e6f2065706f6368207769746820636c61696d61626c652072657761726473006044820152606401610a4c565b611d83826137fd565b90509091565b60008054600160a01b900460ff168015610aab5750600054604051630debfda360e41b81526001600160a01b0384811660048301529091169063debfda3090602401602060405180830381865afa158015611de8573d6000803e3d6000fd5b505050506040513d601f19601f82011682018060405250810190610aab919061594f565b6017546040805163deea13e760e01b815290516000926001600160a01b03169163deea13e79160048083019260209291908290030181865afa158015611e56573d6000803e3d6000fd5b505050506040513d601f19601f82011682018060405250810190610f3e919061596c565b611e82612a60565b600a5462ffffff90811614611ecb5760405162461bcd60e51b815260206004820152600f60248201526e185b1c9958591e48195b98589b1959608a1b6044820152606401610a4c565b611ed36131ef565b600a805462ffffff191662ffffff9290921691821790556040517f1cfb844c44f9325fc9ad6cc6191a4a24b0415137fe300b6c9071523a253f7a0890600090a2565b600054600160a01b900460ff1615611f665760405162461bcd60e51b8152602060048201526014602482015273696e697469616c6973656420213d2066616c736560601b6044820152606401610a4c565b6001600160a01b038216611fbc5760405162461bcd60e51b815260206004820152601860248201527f676f7665726e616e63652073657474696e6773207a65726f00000000000000006044820152606401610a4c565b6001600160a01b0381166120055760405162461bcd60e51b815260206004820152601060248201526f5f676f7665726e616e6365207a65726f60801b6044820152606401610a4c565b600080546001600160a01b038481166001600160a81b031990921691909117600160a01b17909155600180549183166001600160a01b0319909216821790556040519081527f9789733827840833afc031fb2ef9ab6894271f77bad2085687cf4ae5c7bee4db9060200160405180910390a15050565b6060600061208b836109fb6122cd565b905061209681612330565b1561216d5760006120a6826137fd565b90506120b28282615985565b6120bd906001615862565b62ffffff166001600160401b038111156120d9576120d9615488565b60405190808252806020026020018201604052801561210c57816020015b60608152602001906001900390816120f75790505b509250815b8162ffffff168162ffffff161161216a5761212c85826123ae565b846121378584615985565b62ffffff168151811061214c5761214c615703565b60200260200101819052508080612162906159a1565b915050612111565b50505b50919050565b61217b612a60565b600054600160a81b900460ff16156121d55760405162461bcd60e51b815260206004820152601a60248201527f616c726561647920696e2070726f64756374696f6e206d6f64650000000000006044820152606401610a4c565b600180546001600160a01b031916905560008054600160a81b60ff60a81b198216179091556040516001600160a01b0390911681527f83af113638b5422f9e977cebc0aaf0eaf2188eb9a8baae7f9d46c42b33a1560c9060200160405180910390a1565b600054600160b01b900460ff168061225b5750600054600160a81b900460ff16155b15610ef4576122686131b7565b6018805460ff60a01b1916600160a01b179055565b6122856131ef565b62ffffff168162ffffff16106110425760405162461bcd60e51b815260206004820152600d60248201526c6e6f7420636c61696d61626c6560981b6044820152606401610a4c565b600a54600090610f3e90611bb39062ffffff166122ff6122eb6133a9565b600a546301000000900462ffffff16613857565b613857565b6001600160a01b038216600090815260046020526040812054610aa890611bb39062ffffff1684613857565b601454604051633238037160e11b815262ffffff8316600482015260009182916001600160a01b039091169063647006e290602401602060405180830381865afa158015612382573d6000803e3d6000fd5b505050506040513d601f19601f820116820180604052508101906123a6919061596c565b141592915050565b60145460405163388a4c3d60e01b815262ffffff831660048201526060916000916001600160a01b039091169063388a4c3d90602401602060405180830381865afa158015612401573d6000803e3d6000fd5b505050506040513d601f19601f82011682018060405250810190612425919061596c565b905060006124328461386d565b9050600061247e60405180610100016040528060608152602001606081526020016060815260200160608152602001600081526020016060815260200160608152602001600081525090565b6016546001600160a01b03161561251c576016546040516325f48f9960e11b81526001600160a01b0390911690634be91f32906124c1908a9087906004016159c3565b600060405180830381865afa1580156124de573d6000803e3d6000fd5b505050506040513d6000823e601f3d908101601f191682016040526125069190810190615a4d565b60208301528082525161251990836156f0565b91505b6018546001600160a01b0316156125be576018546040516325f48f9960e11b81526001600160a01b0390911690634be91f329061255f908a9087906004016159c3565b600060405180830381865afa15801561257c573d6000803e3d6000fd5b505050506040513d6000823e601f3d908101601f191682016040526125a49190810190615b07565b606083015260408201819052516125bb90836156f0565b91505b60175460405163277166bf60e11b81526001600160a01b0390911690634ee2cd7e906125f0908a9087906004016159c3565b602060405180830381865afa15801561260d573d6000803e3d6000fd5b505050506040513d601f19601f82011682018060405250810190612631919061596c565b60808201819052156127b75760175460405163ed475a7960e01b81526001600160a01b039091169063ed475a799061266f908a9087906004016159c3565b600060405180830381865afa15801561268c573d6000803e3d6000fd5b505050506040513d6000823e601f3d908101601f191682016040526126b49190810190615b53565b505060c083015260a08201819052516126cd90836156f0565b91506000805b8260c001515181101561271d578260c0015181815181106126f6576126f6615703565b60200260200101518261270991906156f0565b91508061271581615719565b9150506126d3565b506127108110156127b557601754604051634181ad4160e11b81526001600160a01b03909116906383035a829061275a908b9088906004016159c3565b602060405180830381865afa158015612777573d6000803e3d6000fd5b505050506040513d601f19601f8201168201806040525081019061279b919061596c565b60e08301819052156127b5576127b26001846156f0565b92505b505b62ffffff86166000908152600d6020526040902054841115826001600160401b038111156127e7576127e7615488565b60405190808252806020026020018201604052801561284057816020015b6040805160a0810182526000808252602080830182905292820181905260608201819052608082015282526000199092019101816128055790505b5095506000808360e00151111561288c576128638860028b8660e001518661390c565b878261286e81615719565b93508151811061288057612880615703565b60200260200101819052505b60005b8360a0015151811015612939576128fe8960028660a0015184815181106128b8576128b8615703565b60200260200101516128f88860c0015186815181106128d9576128d9615703565b60200260200101516127108a60800151613a179092919063ffffffff16565b8761390c565b888361290981615719565b94508151811061291b5761291b615703565b6020026020010181905250808061293190615719565b91505061288f565b5060005b8351518110156129cd576129928960038660000151848151811061296357612963615703565b602002602001015160601c8760200151858151811061298457612984615703565b60200260200101518761390c565b888361299d81615719565b9450815181106129af576129af615703565b602002602001018190525080806129c590615719565b91505061293d565b5060005b836040015151811015612a5357612a18896004866040015184815181106129fa576129fa615703565b60200260200101518760600151858151811061298457612984615703565b8883612a2381615719565b945081518110612a3557612a35615703565b60200260200101819052508080612a4b90615719565b9150506129d1565b5050505050505092915050565b612a6861105c565b6001600160a01b0316336001600160a01b031614610eff5760405162461bcd60e51b815260206004820152600f60248201526e6f6e6c7920676f7665726e616e636560881b6044820152606401610a4c565b336000908152601b60205260408120549003610eff5760405162461bcd60e51b815260206004820152601a60248201527f6f6e6c7920726577617264206f6666657273206d616e616765720000000000006044820152606401610a4c565b601854600160a81b900460ff16610eff5760405162461bcd60e51b815260206004820152601a60248201527f726577617264206d616e616765722064656163746976617465640000000000006044820152606401610a4c565b600034612b7c61349e565b612b8691906156f0565b90504781811115612bc95761dead6108fc612ba18484615838565b6040518115909202916000818181858888f1935050505015801561144f573d6000803e3d6000fd5b8181101561186357611863615bc6565b600260035403612bfc57604051633ee5aeb560e01b815260040160405180910390fd5b6002600355565b6001600160a01b0381166110425760405162461bcd60e51b815260206004820152600e60248201526d726563697069656e74207a65726f60901b6044820152606401610a4c565b60008060005b84811015612df0578362ffffff16868683818110612c7057612c70615703565b9050602002810190612c829190615bdc565b612c93906040810190602001615bf2565b62ffffff161015612cdd5760405162461bcd60e51b81526020600482015260146024820152731c995dd85c9908195c1bd8da08195e1c1a5c995960621b6044820152606401610a4c565b6000868683818110612cf157612cf1615703565b9050602002810190612d039190615bdc565b612d149060a0810190608001615c0f565b90506000816004811115612d2a57612d2a615070565b1480612d4757506001816004811115612d4557612d45615070565b145b15612db1576001600160a01b03891615612dac57600080612d8c8b8b8b8b88818110612d7557612d75615703565b9050602002810190612d879190615bdc565b613b3d565b9092509050612d9b828761590f565b9550612da7818661590f565b945050505b612ddd565b612ddd878784818110612dc657612dc6615703565b9050602002810190612dd89190615bdc565b613fd4565b5080612de881615719565b915050612c50565b509550959350505050565b600080612e0d878562ffffff16612304565b9050805b8562ffffff168162ffffff1611612ff75760145460405163388a4c3d60e01b815262ffffff831660048201526000916001600160a01b03169063388a4c3d90602401602060405180830381865afa158015612e70573d6000803e3d6000fd5b505050506040513d601f19601f82011682018060405250810190612e94919061596c565b905080600003612ee757612ea782612330565b612ee75760405162461bcd60e51b8152602060048201526011602482015270726577617264732068617368207a65726f60781b6044820152606401610a4c565b62ffffff82166000908152600d602052604081205482111590612f098461386d565b90506000612f1a8c8c87858761425f565b612f24908261590f565b905087612f81576016546001600160a01b031615612f5657612f498c8c878587614643565b612f53908261590f565b90505b6018546001600160a01b031615612f8157612f748c8c878587614816565b612f7e908261590f565b90505b62ffffff851660009081526008602052604081208054839290612fae9084906001600160781b031661590f565b92506101000a8154816001600160781b0302191690836001600160781b031602179055508087612fde919061590f565b9650505050508080612fef906159a1565b915050612e11565b50613003856001615862565b6001600160a01b03881660009081526004602052604090205462ffffff9182169116101561306557613036856001615862565b6001600160a01b0388166000908152600460205260409020805462ffffff191662ffffff929092169190911790555b5095945050505050565b80156130db5760175460405163b760faf960e01b81526001600160a01b0385811660048301529091169063b760faf99084906024016000604051808303818588803b1580156130bd57600080fd5b505af11580156130d1573d6000803e3d6000fd5b5050505050505050565b6000836001600160a01b03168360405160006040518083038185875af1925050503d8060008114613128576040519150601f19603f3d011682016040523d82523d6000602084013e61312d565b606091505b5050905080610f585760405162461bcd60e51b815260206004820152600f60248201526e1d1c985b9cd9995c8819985a5b1959608a1b6044820152606401610a4c565b61317861349e565b4714610eff5760405162461bcd60e51b815260206004820152600e60248201526d6f7574206f662062616c616e636560901b6044820152606401610a4c565b600054600160b01b900460ff16156131e7573330146131d8576131d8615bc6565b6000805460ff60b01b19169055565b610eff612a60565b60145460408051637056269760e01b815290516000926001600160a01b03169163705626979160048083019260209291908290030181865afa158015613239573d6000803e3d6000fd5b505050506040513d601f19601f82011682018060405250810190610f3e9190615885565b613265612a60565b6000805460408051636221a54b60e01b81529051853593926001600160a01b031691636221a54b9160048083019260209291908290030181865afa1580156132b1573d6000803e3d6000fd5b505050506040513d601f19601f820116820180604052508101906132d5919061596c565b905060006132e382426156f0565b9050604051806040016040528082815260200186868080601f01602080910402602001604051908101604052809392919081815260200183838082843760009201829052509390945250506001600160e01b031986168152600260209081526040909120835181559083015190915060018201906133619082615c70565b509050507fed948300a3694aa01d4a6b258bfd664350193d770c0b51f8387277f6d83ea3b68382878760405161339a9493929190615d2f565b60405180910390a15050505050565b600a54600090610aab90600160301b900462ffffff1660016149ca565b3d604051818101604052816000823e82156133df578181f35b8181fd5b6001600160a01b03821633036133f7575050565b60135460405163ce2caa5760e01b81523360048201526001600160a01b03848116602483015283811660448301529091169063ce2caa579060640160006040518083038186803b15801561344a57600080fd5b505afa15801561345e573d6000803e3d6000fd5b505050505050565b60006001600160781b0382111561349a576040516306dfcc6560e41b81526078600482015260248101839052604401610a4c565b5090565b6000600f54600e546010546134b39190615838565b610f3e9190615838565b600080826040516020016134d19190615d75565b6040516020818303038152906040528051906020012090506000805b86518110156135495786818151811061350857613508615703565b602002602001015183036135375785818151811061352857613528615703565b60200260200101519150613549565b8061354181615719565b9150506134ed565b506001600160a01b03811661358f5760405162461bcd60e51b815260206004820152600c60248201526b61646472657373207a65726f60a01b6044820152606401610a4c565b95945050505050565b6135cc82826040518060400160405280601181526020017021b630b4b6a9b2ba3ab826b0b730b3b2b960791b8152506134bd565b601360006101000a8154816001600160a01b0302191690836001600160a01b03160217905550613628828260405180604001604052806013815260200172233630b932a9bcb9ba32b6b9a6b0b730b3b2b960691b8152506134bd565b601460006101000a8154816001600160a01b0302191690836001600160a01b03160217905550613687828260405180604001604052806016815260200175233630b932a9bcb9ba32b6b9a1b0b631bab630ba37b960511b8152506134bd565b601580546001600160a01b0319166001600160a01b0392909216919091179055601654600160a01b900460ff161561370e576136ed8282604051806040016040528060118152602001702821b430b4b729ba30b5b2a6b4b93937b960791b8152506134bd565b601680546001600160a01b0319166001600160a01b03929092169190911790555b601854600160a01b900460ff161561376f5761374e82826040518060400160405280600b81526020016a43436861696e5374616b6560a81b8152506134bd565b601880546001600160a01b0319166001600160a01b03929092169190911790555b61379682826040518060400160405280600481526020016315d3985d60e21b8152506134bd565b601780546001600160a01b0319166001600160a01b03929092169190911790555050565b6137c3826149f0565b6118638282614a7b565b600062ffffff82111561349a576040516306dfcc6560e41b81526018600482015260248101839052604401610a4c565b6000806138086131ef565b62ffffff16905061381a836001615862565b91505b808262ffffff16108015613835575061383582612330565b1561384c5781613844816159a1565b92505061381d565b611754600183615985565b60008183116138665781610aa8565b5090919050565b62ffffff81166000908152600560205260408120549081900361390757601454604051636131910b60e11b815262ffffff841660048201526001600160a01b039091169063c263221690602401602060405180830381865afa1580156138d7573d6000803e3d6000fd5b505050506040513d601f19601f820116820180604052508101906138fb9190615d88565b6001600160401b031690505b919050565b6040805160a08101825260009181018290526060808201838152608083019390935262ffffff8816825285901b6001600160601b03191660208201529085600481111561395b5761395b615070565b9081600481111561396e5761396e615070565b90525062ffffff86166000908152600b602052604081208187600481111561399857613998615070565b60048111156139a9576139a9615070565b81526020019081526020016000206000866001600160a01b03166001600160a01b03168152602001908152602001600020905082806139e95750805460ff165b1580156080840152613065576139ff8185614abc565b6001600160781b031660408301525095945050505050565b6000808211613a5b5760405162461bcd60e51b815260206004820152601060248201526f4469766973696f6e206279207a65726f60801b6044820152606401610a4c565b83600003613a6b57506000611754565b83830283858281613a7e57613a7e615db1565b0403613a9c57828181613a9357613a93615db1565b04915050611754565b506000613aa98386615dc7565b90506000613ab78487615ddb565b90506000613ac58587615dc7565b90506000613ad38688615ddb565b905085613ae0828561584b565b613aea9190615dc7565b613af4838561584b565b613afe838761584b565b88613b09868961584b565b613b13919061584b565b613b1d91906156f0565b613b2791906156f0565b613b3191906156f0565b98975050505050505050565b600080602083016001600160a01b038616613b5e6060860160408701615def565b60601c14613ba25760405162461bcd60e51b815260206004820152601160248201527077726f6e672062656e656669636961727960781b6044820152606401610a4c565b600081604051602001613bb59190615e23565b60408051601f1981840301815291905280516020918201209150600c90600090613be190850185615bf2565b62ffffff1681526020808201929092526040908101600090812084825290925290205460ff16613fca576014546000906001600160a01b031663647006e2613c2c6020860186615bf2565b6040516001600160e01b031960e084901b16815262ffffff9091166004820152602401602060405180830381865afa158015613c6c573d6000803e3d6000fd5b505050506040513d601f19601f82011682018060405250810190613c90919061596c565b9050613caa8183613ca18980615e89565b90929091614b38565b613ced5760405162461bcd60e51b81526020600482015260146024820152731b595c9adb19481c1c9bdbd9881a5b9d985b1a5960621b6044820152606401610a4c565b613d12613cfd6020850185615bf2565b613d0d6060860160408701615ed2565b614b50565b94506001613d266080850160608601615c0f565b6004811115613d3757613d37615070565b03613ec3576015546000906001600160a01b0316639350f57c613d5d6020870187615bf2565b6040516001600160e01b031960e084901b16815262ffffff90911660048201526001600160a01b038c166024820152604401602060405180830381865afa158015613dac573d6000803e3d6000fd5b505050506040513d601f19601f82011682018060405250810190613dd0919061596c565b90508015613ec157613e09613e04613df56001600160781b03891684620f4240613a17565b886001600160781b0316614c09565b613466565b9450613e15858761592f565b95508460096000613e296020880188615bf2565b62ffffff168152602081019190915260400160009081208054909190613e599084906001600160781b031661590f565b82546001600160781b039182166101009390930a92830291909202199091161790555061dead6001600160a01b038a1680600080516020615f7d833981519152613ea66020890189615bf2565b60018a604051613eb893929190615eed565b60405180910390a45b505b8460086000613ed56020870187615bf2565b62ffffff168152602081019190915260400160009081208054909190613f059084906001600160781b031661590f565b92506101000a8154816001600160781b0302191690836001600160781b031602179055506001600c6000856000016020810190613f429190615bf2565b62ffffff16815260208082019290925260409081016000908120868252835220805460ff1916921515929092179091556001600160a01b0388811691908a16908190600080516020615f7d83398151915290613fa090880188615bf2565b613fb06080890160608a01615c0f565b8a604051613fc093929190615eed565b60405180910390a4505b5050935093915050565b602081016000600b81613fea6040860185615bf2565b62ffffff16815260200190815260200160002060008360600160208101906140129190615c0f565b600481111561402357614023615070565b600481111561403457614034615070565b815260200190815260200160002060008360200160208101906140579190615def565b60601c81526020810191909152604001600020805490915060ff1661144f576014546000906001600160a01b031663647006e26140976020860186615bf2565b6040516001600160e01b031960e084901b16815262ffffff9091166004820152602401602060405180830381865afa1580156140d7573d6000803e3d6000fd5b505050506040513d601f19601f820116820180604052508101906140fb919061596c565b90506000836040516020016141109190615e23565b60408051601f19818403018152919052805160209091012090506141398282613ca18880615e89565b61417c5760405162461bcd60e51b81526020600482015260146024820152731b595c9adb19481c1c9bdbd9881a5b9d985b1a5960621b6044820152606401610a4c565b825460ff191660011783556141a76141976020860186615bf2565b613d0d6060870160408801615ed2565b83546001600160781b0391909116610100026fffffffffffffffffffffffffffffff00199091161783556142066141e16020860186615bf2565b6141f16040870160208801615def565b6142016080880160608901615c0f565b614c18565b83546001600160801b03918216600160801b0291161783556001600d60006142316020880188615bf2565b62ffffff168152602001908152602001600020600082825461425391906156f0565b90915550505050505050565b60175460405163277166bf60e11b815260009182916001600160a01b0390911690634ee2cd7e90614296908a9088906004016159c3565b602060405180830381865afa1580156142b3573d6000803e3d6000fd5b505050506040513d601f19601f820116820180604052508101906142d7919061596c565b905080156130655760175460405163ed475a7960e01b8152600091829182916001600160a01b03169063ed475a7990614316908d908b906004016159c3565b600060405180830381865afa158015614333573d6000803e3d6000fd5b505050506040513d6000823e601f3d908101601f1916820160405261435b9190810190615b53565b505081519193509150156144ef5760005b82518110156144ed5762ffffff89166000908152600b60205260408120816002815260200190815260200160002060008584815181106143ae576143ae615703565b60200260200101516001600160a01b03166001600160a01b03168152602001908152602001600020905087806143e55750805460ff165b6144015760405162461bcd60e51b8152600401610a4c90615f1d565b600061443384848151811061441857614418615703565b602002602001015161271089613a179092919063ffffffff16565b905083838151811061444757614447615703565b60200260200101518661445a91906156f0565b955060006144688383614dff565b9050614474818a61590f565b98508c6001600160a01b03168e6001600160a01b031687868151811061449c5761449c615703565b60200260200101516001600160a01b0316600080516020615f7d8339815191528f6002866040516144cf93929190615eed565b60405180910390a450505080806144e590615719565b91505061436c565b505b61271083101561463657601754604051634181ad4160e11b81526000916001600160a01b0316906383035a829061452c908e908c906004016159c3565b602060405180830381865afa158015614549573d6000803e3d6000fd5b505050506040513d601f19601f8201168201806040525081019061456d919061596c565b905080156146345762ffffff89166000908152600b602090815260408083206002845282528083206001600160a01b038f168452909152902087806145b35750805460ff165b6145cf5760405162461bcd60e51b8152600401610a4c90615f1d565b60006145db8284614dff565b90506145e7818961590f565b97508b6001600160a01b03168d6001600160a01b03168e6001600160a01b0316600080516020615f7d8339815191528e60028660405161462993929190615eed565b60405180910390a450505b505b5050505095945050505050565b6016546040516325f48f9960e11b8152600091829182916001600160a01b031690634be91f329061467a908b9089906004016159c3565b600060405180830381865afa158015614697573d6000803e3d6000fd5b505050506040513d6000823e601f3d908101601f191682016040526146bf9190810190615a4d565b9150915060005b825181101561480a5762ffffff87166000908152600b602052604081208160038152602001908152602001600020600085848151811061470857614708615703565b602002602001015160601c6001600160a01b03166001600160a01b03168152602001908152602001600020905085806147425750805460ff165b61475e5760405162461bcd60e51b8152600401610a4c90615f1d565b60006147838285858151811061477657614776615703565b6020026020010151614dff565b905061478f818761590f565b9550896001600160a01b03168b6001600160a01b03168685815181106147b7576147b7615703565b602002602001015160601c6001600160a01b0316600080516020615f7d8339815191528c6003866040516147ed93929190615eed565b60405180910390a45050808061480290615719565b9150506146c6565b50505095945050505050565b6018546040516325f48f9960e11b8152600091829182916001600160a01b031690634be91f329061484d908b9089906004016159c3565b600060405180830381865afa15801561486a573d6000803e3d6000fd5b505050506040513d6000823e601f3d908101601f191682016040526148929190810190615b07565b9150915060005b825181101561480a5762ffffff87166000908152600b60205260408120816004815260200190815260200160002060008584815181106148db576148db615703565b60200260200101516001600160a01b03166001600160a01b03168152602001908152602001600020905085806149125750805460ff165b61492e5760405162461bcd60e51b8152600401610a4c90615f1d565b60006149468285858151811061477657614776615703565b9050614952818761590f565b9550896001600160a01b03168b6001600160a01b031686858151811061497a5761497a615703565b60200260200101516001600160a01b0316600080516020615f7d8339815191528c6004866040516149ad93929190615eed565b60405180910390a4505080806149c290615719565b915050614899565b600080838311156149e0575060009050806149e9565b50600190508183035b9250929050565b8054156110425780546001808301916000918491614a0e9190615838565b81548110614a1e57614a1e615703565b60009182526020808320909101546001600160a01b031683528201929092526040018120558054819080614a5457614a54615f46565b600082815260209020810160001990810180546001600160a01b03191690550190556149f0565b60005b815181101561144f57614aaa83838381518110614a9d57614a9d615703565b6020026020010151614eb0565b80614ab481615719565b915050614a7e565b600081600003614ace57506000610aab565b825461010090046001600160781b03166000819003614af1576000915050610aab565b8354600160801b90046001600160801b0316808403614b1257509050610aab565b808410614b2157614b21615bc6565b61358f613e046001600160781b0384168684613a17565b600082614b46868685614f18565b1495945050505050565b62ffffff821660009081526006602090815260408083205460079092529091205482916001600160781b039081169116614b8a838261590f565b6001600160781b0316826001600160781b03161015614bb057614bad818361592f565b92505b62ffffff851660009081526007602052604081208054859290614bdd9084906001600160781b031661590f565b92506101000a8154816001600160781b0302191690836001600160781b03160217905550505092915050565b60008183106138665781610aa8565b62ffffff8316600090815260056020526040812054808203614ccc57601454604051636131910b60e11b815262ffffff871660048201526001600160a01b039091169063c263221690602401602060405180830381865afa158015614c81573d6000803e3d6000fd5b505050506040513d601f19601f82011682018060405250810190614ca59190615d88565b62ffffff861660009081526005602052604090206001600160401b03919091169081905590505b6002836004811115614ce057614ce0615070565b03614d6b57601754604051631257fcdb60e31b8152614d63916001600160a01b0316906392bfe6d890614d1d90606089901c9086906004016159c3565b602060405180830381865afa158015614d3a573d6000803e3d6000fd5b505050506040513d601f19601f82011682018060405250810190614d5e919061596c565b614f64565b915050611754565b6003836004811115614d7f57614d7f615070565b03614dc757601654604051631190c4dd60e21b81526001600160601b03198616600482015260248101839052614d63916001600160a01b031690634643137490604401614d1d565b601854604051631257fcdb60e31b8152614d63916001600160a01b0316906392bfe6d890614d1d90606089901c9086906004016159c3565b6000614e0b8383614abc565b90506001600160781b03811615610aab57614e2582614f64565b83548490601090614e47908490600160801b90046001600160801b0316615f5c565b82546001600160801b0391821661010093840a908102920219161790915584548392508591600191614e869185916001600160781b039190041661592f565b92506101000a8154816001600160781b0302191690836001600160781b0316021790555092915050565b6001600160a01b038116600090815260018301602052604090205415614ed4575050565b8154600181810184556000848152602080822090930180546001600160a01b039095166001600160a01b031990951685179055845493815293019052604090912055565b600081815b84811015614f5b57614f4782878784818110614f3b57614f3b615703565b90506020020135614f98565b915080614f5381615719565b915050614f1d565b50949350505050565b60006001600160801b0382111561349a576040516306dfcc6560e41b81526080600482015260248101839052604401610a4c565b6000818310614fb4576000828152602084905260409020610aa8565b6000838152602083905260409020610aa8565b508054614fd3906158bf565b6000825580601f10614fe3575050565b601f01602090049060005260206000209081019061104291905b8082111561349a5760008155600101614ffd565b6001600160a01b038116811461104257600080fd5b62ffffff8116811461104257600080fd5b6000806040838503121561504a57600080fd5b823561505581615011565b9150602083013561506581615026565b809150509250929050565b634e487b7160e01b600052602160045260246000fd5b600581106150a457634e487b7160e01b600052602160045260246000fd5b9052565b62ffffff81511682526bffffffffffffffffffffffff1960208201511660208301526001600160781b036040820151166040830152600060608201516150f16060850182615086565b505060809081015115159082015260a00190565b6020808252825182820181905260009190848201906040850190845b81811015615142576151348385516150a8565b938501939250600101615121565b50909695505050505050565b60006020828403121561516057600080fd5b5035919050565b60008083601f84011261517957600080fd5b5081356001600160401b0381111561519057600080fd5b6020830191508360208260051b85010111156149e957600080fd5b6000806000806000606086880312156151c357600080fd5b85356001600160401b03808211156151da57600080fd5b6151e689838a01615167565b9097509550602088013591506151fb82615026565b9093506040870135908082111561521157600080fd5b5061521e88828901615167565b969995985093965092949392505050565b6000806020838503121561524257600080fd5b82356001600160401b0381111561525857600080fd5b61526485828601615167565b90969095509350505050565b60006020828403121561528257600080fd5b813561175481615011565b60006020828403121561529f57600080fd5b81356001600160e01b03198116811461175457600080fd5b60005b838110156152d25781810151838201526020016152ba565b50506000910152565b600081518084526152f38160208601602086016152b7565b601f01601f19169290920160200192915050565b82815260406020820152600061532060408301846152db565b949350505050565b6020808252825182820181905260009190848201906040850190845b818110156151425783516001600160a01b031683529284019291840191600101615344565b801515811461104257600080fd5b60008060008060008060a0878903121561539057600080fd5b863561539b81615011565b955060208701356153ab81615011565b945060408701356153bb81615026565b935060608701356153cb81615369565b925060808701356001600160401b038111156153e657600080fd5b6153f289828a01615167565b979a9699509497509295939492505050565b80356005811061390757600080fd5b60008060006060848603121561542857600080fd5b833561543381615011565b9250602084013561544381615026565b915061545160408501615404565b90509250925092565b6000806040838503121561546d57600080fd5b823561547881615026565b9150602083013561506581615369565b634e487b7160e01b600052604160045260246000fd5b604051601f8201601f191681016001600160401b03811182821017156154c6576154c6615488565b604052919050565b60006001600160401b038211156154e7576154e7615488565b5060051b60200190565b600082601f83011261550257600080fd5b81356020615517615512836154ce565b61549e565b82815260059290921b8401810191818101908684111561553657600080fd5b8286015b8481101561555a57803561554d81615011565b835291830191830161553a565b509695505050505050565b6000806040838503121561557857600080fd5b82356001600160401b038082111561558f57600080fd5b818501915085601f8301126155a357600080fd5b813560206155b3615512836154ce565b82815260059290921b840181019181810190898411156155d257600080fd5b948201945b838610156155f0578535825294820194908201906155d7565b9650508601359250508082111561560657600080fd5b50615613858286016154f1565b9150509250929050565b6000806040838503121561563057600080fd5b823561563b81615011565b9150602083013561506581615011565b6000602080830181845280855180835260408601915060408160051b87010192508387016000805b838110156156cc57888603603f19018552825180518088529088019088880190845b818110156156b6576156a88385516150a8565b938b01939250600101615695565b5090975050509386019391860191600101615673565b509398975050505050505050565b634e487b7160e01b600052601160045260246000fd5b80820180821115610aab57610aab6156da565b634e487b7160e01b600052603260045260246000fd5b60006001820161572b5761572b6156da565b5060010190565b6001600160a01b03848116825260406020808401829052908301849052600091859160608501845b8781101561578157843561576d81615011565b84168252938201939082019060010161575a565b5098975050505050505050565b600082601f83011261579f57600080fd5b815160206157af615512836154ce565b82815260059290921b840181019181810190868411156157ce57600080fd5b8286015b8481101561555a5780516157e581615011565b83529183019183016157d2565b6000806040838503121561580557600080fd5b82516001600160401b0381111561581b57600080fd5b6158278582860161578e565b925050602083015190509250929050565b81810381811115610aab57610aab6156da565b8082028115828204841417610aab57610aab6156da565b62ffffff81811683821601908082111561587e5761587e6156da565b5092915050565b60006020828403121561589757600080fd5b815161175481615026565b6000602082840312156158b457600080fd5b815161175481615011565b600181811c908216806158d357607f821691505b60208210810361216d57634e487b7160e01b600052602260045260246000fd5b600082516159058184602087016152b7565b9190910192915050565b6001600160781b0381811683821601908082111561587e5761587e6156da565b6001600160781b0382811682821603908082111561587e5761587e6156da565b60006020828403121561596157600080fd5b815161175481615369565b60006020828403121561597e57600080fd5b5051919050565b62ffffff82811682821603908082111561587e5761587e6156da565b600062ffffff8083168181036159b9576159b96156da565b6001019392505050565b6001600160a01b03929092168252602082015260400190565b6001600160601b03198116811461104257600080fd5b600082601f830112615a0357600080fd5b81516020615a13615512836154ce565b82815260059290921b84018101918181019086841115615a3257600080fd5b8286015b8481101561555a5780518352918301918301615a36565b60008060408385031215615a6057600080fd5b82516001600160401b0380821115615a7757600080fd5b818501915085601f830112615a8b57600080fd5b81516020615a9b615512836154ce565b82815260059290921b84018101918181019089841115615aba57600080fd5b948201945b83861015615ae1578551615ad2816159dc565b82529482019490820190615abf565b91880151919650909350505080821115615afa57600080fd5b50615613858286016159f2565b60008060408385031215615b1a57600080fd5b82516001600160401b0380821115615b3157600080fd5b615b3d8683870161578e565b93506020850151915080821115615afa57600080fd5b60008060008060808587031215615b6957600080fd5b84516001600160401b0380821115615b8057600080fd5b615b8c8883890161578e565b95506020870151915080821115615ba257600080fd5b50615baf878288016159f2565b604087015160609097015195989097509350505050565b634e487b7160e01b600052600160045260246000fd5b60008235609e1983360301811261590557600080fd5b600060208284031215615c0457600080fd5b813561175481615026565b600060208284031215615c2157600080fd5b610aa882615404565b601f82111561144f57600081815260208120601f850160051c81016020861015615c515750805b601f850160051c820191505b8181101561345e57828155600101615c5d565b81516001600160401b03811115615c8957615c89615488565b615c9d81615c9784546158bf565b84615c2a565b602080601f831160018114615cd25760008415615cba5750858301515b600019600386901b1c1916600185901b17855561345e565b600085815260208120601f198616915b82811015615d0157888601518255948401946001909101908401615ce2565b5085821015615d1f5787850151600019600388901b60f8161c191681555b5050505050600190811b01905550565b63ffffffff60e01b8516815283602082015260606040820152816060820152818360808301376000818301608090810191909152601f909201601f191601019392505050565b602081526000610aa860208301846152db565b600060208284031215615d9a57600080fd5b81516001600160401b038116811461175457600080fd5b634e487b7160e01b600052601260045260246000fd5b600082615dd657615dd6615db1565b500490565b600082615dea57615dea615db1565b500690565b600060208284031215615e0157600080fd5b8135611754816159dc565b80356001600160781b038116811461390757600080fd5b608081018235615e3281615026565b62ffffff1682526020830135615e47816159dc565b6001600160601b03191660208301526001600160781b03615e6a60408501615e0c565b166040830152615e7c60608401615404565b61587e6060840182615086565b6000808335601e19843603018112615ea057600080fd5b8301803591506001600160401b03821115615eba57600080fd5b6020019150600581901b36038213156149e957600080fd5b600060208284031215615ee457600080fd5b610aa882615e0c565b62ffffff8416815260608101615f066020830185615086565b6001600160781b0383166040830152949350505050565b6020808252600f908201526e1b9bdd081a5b9a5d1a585b1a5cd959608a1b604082015260600190565b634e487b7160e01b600052603160045260246000fd5b6001600160801b0382811682821603908082111561587e5761587e6156da56fe06f77960d1401cc7d724b5c2b5ad672b9dbf08d8b11516a38c21697c23fbb0d2a264697066735822122019eaa4f7deff893a78b261561c92ac549ae110783894a87f242bfc5f73ca77fd64736f6c63430008140033",
  "linkReferences": {},
  "deployedLinkReferences": {}
}