{
  "_format": "hh-sol-artifact-1",
  "contractName": "RewardManager",
  "sourceName": "contracts/protocol/implementation/RewardManager.sol",
  "abi": [
    {
      "inputs": [
        {
          "internalType": "contract IGovernanceSettings",
          "name": "_governanceSettings",
          "type": "address"
        },
        {
          "internalType": "address",
          "name": "_initialGovernance",
          "type": "address"
        },
        {
          "internalType": "address",
          "name": "_addressUpdater",
          "type": "address"
        }
      ],
      "stateMutability": "nonpayable",
      "type": "constructor"
    },
    {
      "inputs": [],
      "name": "ReentrancyGuardReentrantCall",
      "type": "error"
    },
    {
      "inputs": [
        {
          "internalType": "uint8",
          "name": "bits",
          "type": "uint8"
        },
        {
          "internalType": "uint256",
          "name": "value",
          "type": "uint256"
        }
      ],
      "name": "SafeCastOverflowedUintDowncast",
      "type": "error"
    },
    {
      "anonymous": false,
      "inputs": [
        {
          "indexed": false,
          "internalType": "bytes4",
          "name": "selector",
          "type": "bytes4"
        },
        {
          "indexed": false,
          "internalType": "uint256",
          "name": "allowedAfterTimestamp",
          "type": "uint256"
        },
        {
          "indexed": false,
          "internalType": "bytes",
          "name": "encodedCall",
          "type": "bytes"
        }
      ],
      "name": "GovernanceCallTimelocked",
      "type": "event"
    },
    {
      "anonymous": false,
      "inputs": [
        {
          "indexed": false,
          "internalType": "address",
          "name": "initialGovernance",
          "type": "address"
        }
      ],
      "name": "GovernanceInitialised",
      "type": "event"
    },
    {
      "anonymous": false,
      "inputs": [
        {
          "indexed": false,
          "internalType": "address",
          "name": "governanceSettings",
          "type": "address"
        }
      ],
      "name": "GovernedProductionModeEntered",
      "type": "event"
    },
    {
      "anonymous": false,
      "inputs": [
        {
          "indexed": true,
          "internalType": "address",
          "name": "voter",
          "type": "address"
        },
        {
          "indexed": true,
          "internalType": "address",
          "name": "whoClaimed",
          "type": "address"
        },
        {
          "indexed": true,
          "internalType": "address",
          "name": "sentTo",
          "type": "address"
        },
        {
          "indexed": false,
          "internalType": "uint24",
          "name": "rewardEpochId",
          "type": "uint24"
        },
        {
          "indexed": false,
          "internalType": "enum IRewardManager.ClaimType",
          "name": "claimType",
          "type": "uint8"
        },
        {
          "indexed": false,
          "internalType": "uint120",
          "name": "amount",
          "type": "uint120"
        }
      ],
      "name": "RewardClaimed",
      "type": "event"
    },
    {
      "anonymous": false,
      "inputs": [
        {
          "indexed": false,
          "internalType": "uint256",
          "name": "rewardEpochId",
          "type": "uint256"
        }
      ],
      "name": "RewardClaimsEnabled",
      "type": "event"
    },
    {
      "anonymous": false,
      "inputs": [
        {
          "indexed": false,
          "internalType": "uint256",
          "name": "rewardEpochId",
          "type": "uint256"
        }
      ],
      "name": "RewardClaimsExpired",
      "type": "event"
    },
    {
      "anonymous": false,
      "inputs": [
        {
          "indexed": false,
          "internalType": "bytes4",
          "name": "selector",
          "type": "bytes4"
        },
        {
          "indexed": false,
          "internalType": "uint256",
          "name": "timestamp",
          "type": "uint256"
        }
      ],
      "name": "TimelockedGovernanceCallCanceled",
      "type": "event"
    },
    {
      "anonymous": false,
      "inputs": [
        {
          "indexed": false,
          "internalType": "bytes4",
          "name": "selector",
          "type": "bytes4"
        },
        {
          "indexed": false,
          "internalType": "uint256",
          "name": "timestamp",
          "type": "uint256"
        }
      ],
      "name": "TimelockedGovernanceCallExecuted",
      "type": "event"
    },
    {
      "inputs": [],
      "name": "activate",
      "outputs": [],
      "stateMutability": "nonpayable",
      "type": "function"
    },
    {
      "inputs": [],
      "name": "active",
      "outputs": [
        {
          "internalType": "bool",
          "name": "",
          "type": "bool"
        }
      ],
      "stateMutability": "view",
      "type": "function"
    },
    {
      "inputs": [
        {
          "internalType": "uint256",
          "name": "_toAuthorizeWei",
          "type": "uint256"
        }
      ],
      "name": "addDailyAuthorizedInflation",
      "outputs": [],
      "stateMutability": "nonpayable",
      "type": "function"
    },
    {
      "inputs": [
        {
          "internalType": "address[]",
          "name": "_rewardOwners",
          "type": "address[]"
        },
        {
          "internalType": "uint24",
          "name": "_rewardEpochId",
          "type": "uint24"
        },
        {
          "components": [
            {
              "internalType": "bytes32[]",
              "name": "merkleProof",
              "type": "bytes32[]"
            },
            {
              "components": [
                {
                  "internalType": "uint24",
                  "name": "rewardEpochId",
                  "type": "uint24"
                },
                {
                  "internalType": "bytes20",
                  "name": "beneficiary",
                  "type": "bytes20"
                },
                {
                  "internalType": "uint120",
                  "name": "amount",
                  "type": "uint120"
                },
                {
                  "internalType": "enum IRewardManager.ClaimType",
                  "name": "claimType",
                  "type": "uint8"
                }
              ],
              "internalType": "struct IRewardManager.RewardClaim",
              "name": "body",
              "type": "tuple"
            }
          ],
          "internalType": "struct IRewardManager.RewardClaimWithProof[]",
          "name": "_proofs",
          "type": "tuple[]"
        }
      ],
      "name": "autoClaim",
      "outputs": [],
      "stateMutability": "nonpayable",
      "type": "function"
    },
    {
      "inputs": [],
      "name": "cChainStake",
      "outputs": [
        {
          "internalType": "contract ICChainStake",
          "name": "",
          "type": "address"
        }
      ],
      "stateMutability": "view",
      "type": "function"
    },
    {
      "inputs": [],
      "name": "cChainStakeEnabled",
      "outputs": [
        {
          "internalType": "bool",
          "name": "",
          "type": "bool"
        }
      ],
      "stateMutability": "view",
      "type": "function"
    },
    {
      "inputs": [
        {
          "internalType": "bytes4",
          "name": "_selector",
          "type": "bytes4"
        }
      ],
      "name": "cancelGovernanceCall",
      "outputs": [],
      "stateMutability": "nonpayable",
      "type": "function"
    },
    {
      "inputs": [
        {
          "internalType": "address",
          "name": "_rewardOwner",
          "type": "address"
        },
        {
          "internalType": "address payable",
          "name": "_recipient",
          "type": "address"
        },
        {
          "internalType": "uint24",
          "name": "_rewardEpochId",
          "type": "uint24"
        },
        {
          "internalType": "bool",
          "name": "_wrap",
          "type": "bool"
        },
        {
          "components": [
            {
              "internalType": "bytes32[]",
              "name": "merkleProof",
              "type": "bytes32[]"
            },
            {
              "components": [
                {
                  "internalType": "uint24",
                  "name": "rewardEpochId",
                  "type": "uint24"
                },
                {
                  "internalType": "bytes20",
                  "name": "beneficiary",
                  "type": "bytes20"
                },
                {
                  "internalType": "uint120",
                  "name": "amount",
                  "type": "uint120"
                },
                {
                  "internalType": "enum IRewardManager.ClaimType",
                  "name": "claimType",
                  "type": "uint8"
                }
              ],
              "internalType": "struct IRewardManager.RewardClaim",
              "name": "body",
              "type": "tuple"
            }
          ],
          "internalType": "struct IRewardManager.RewardClaimWithProof[]",
          "name": "_proofs",
          "type": "tuple[]"
        }
      ],
      "name": "claim",
      "outputs": [
        {
          "internalType": "uint256",
          "name": "_rewardAmountWei",
          "type": "uint256"
        }
      ],
      "stateMutability": "nonpayable",
      "type": "function"
    },
    {
      "inputs": [],
      "name": "claimSetupManager",
      "outputs": [
        {
          "internalType": "contract IClaimSetupManager",
          "name": "",
          "type": "address"
        }
      ],
      "stateMutability": "view",
      "type": "function"
    },
    {
      "inputs": [
        {
          "internalType": "uint256",
          "name": "_rewardEpochId",
          "type": "uint256"
        }
      ],
      "name": "closeExpiredRewardEpoch",
      "outputs": [],
      "stateMutability": "nonpayable",
      "type": "function"
    },
    {
      "inputs": [],
      "name": "deactivate",
      "outputs": [],
      "stateMutability": "nonpayable",
      "type": "function"
    },
    {
      "inputs": [],
      "name": "enableCChainStake",
      "outputs": [],
      "stateMutability": "nonpayable",
      "type": "function"
    },
    {
      "inputs": [],
      "name": "enableClaims",
      "outputs": [],
      "stateMutability": "nonpayable",
      "type": "function"
    },
    {
      "inputs": [
        {
          "internalType": "uint256",
          "name": "",
          "type": "uint256"
        },
        {
          "internalType": "enum IRewardManager.ClaimType",
          "name": "",
          "type": "uint8"
        },
        {
          "internalType": "address",
          "name": "",
          "type": "address"
        }
      ],
      "name": "epochTypeProviderUnclaimedReward",
      "outputs": [
        {
          "internalType": "bool",
          "name": "initialised",
          "type": "bool"
        },
        {
          "internalType": "uint120",
          "name": "amount",
          "type": "uint120"
        },
        {
          "internalType": "uint128",
          "name": "weight",
          "type": "uint128"
        }
      ],
      "stateMutability": "view",
      "type": "function"
    },
    {
      "inputs": [
        {
          "internalType": "bytes4",
          "name": "_selector",
          "type": "bytes4"
        }
      ],
      "name": "executeGovernanceCall",
      "outputs": [],
      "stateMutability": "nonpayable",
      "type": "function"
    },
    {
      "inputs": [],
      "name": "firstClaimableRewardEpochId",
      "outputs": [
        {
          "internalType": "uint24",
          "name": "",
          "type": "uint24"
        }
      ],
      "stateMutability": "view",
      "type": "function"
    },
    {
      "inputs": [],
      "name": "flareSystemCalculator",
      "outputs": [
        {
          "internalType": "contract FlareSystemCalculator",
          "name": "",
          "type": "address"
        }
      ],
      "stateMutability": "view",
      "type": "function"
    },
    {
      "inputs": [],
      "name": "flareSystemManager",
      "outputs": [
        {
          "internalType": "contract FlareSystemManager",
          "name": "",
          "type": "address"
        }
      ],
      "stateMutability": "view",
      "type": "function"
    },
    {
      "inputs": [],
      "name": "getAddressUpdater",
      "outputs": [
        {
          "internalType": "address",
          "name": "_addressUpdater",
          "type": "address"
        }
      ],
      "stateMutability": "view",
      "type": "function"
    },
    {
      "inputs": [],
      "name": "getCurrentRewardEpochId",
      "outputs": [
        {
          "internalType": "uint24",
          "name": "",
          "type": "uint24"
        }
      ],
      "stateMutability": "view",
      "type": "function"
    },
    {
      "inputs": [],
      "name": "getEpochIdsWithClaimableRewards",
      "outputs": [
        {
          "internalType": "uint256",
          "name": "_startEpochId",
          "type": "uint256"
        },
        {
          "internalType": "uint256",
          "name": "_endEpochId",
          "type": "uint256"
        }
      ],
      "stateMutability": "view",
      "type": "function"
    },
    {
      "inputs": [],
      "name": "getExpectedBalance",
      "outputs": [
        {
          "internalType": "uint256",
          "name": "",
          "type": "uint256"
        }
      ],
      "stateMutability": "view",
      "type": "function"
    },
    {
      "inputs": [],
      "name": "getInitialRewardEpochId",
      "outputs": [
        {
          "internalType": "uint256",
          "name": "",
          "type": "uint256"
        }
      ],
      "stateMutability": "view",
      "type": "function"
    },
    {
      "inputs": [],
      "name": "getRewardEpochIdToExpireNext",
      "outputs": [
        {
          "internalType": "uint256",
          "name": "",
          "type": "uint256"
        }
      ],
      "stateMutability": "view",
      "type": "function"
    },
    {
      "inputs": [],
      "name": "getRewardOffersManagerList",
      "outputs": [
        {
          "internalType": "address[]",
          "name": "",
          "type": "address[]"
        }
      ],
      "stateMutability": "view",
      "type": "function"
    },
    {
      "inputs": [],
      "name": "getTokenPoolSupplyData",
      "outputs": [
        {
          "internalType": "uint256",
          "name": "_lockedFundsWei",
          "type": "uint256"
        },
        {
          "internalType": "uint256",
          "name": "_totalInflationAuthorizedWei",
          "type": "uint256"
        },
        {
          "internalType": "uint256",
          "name": "_totalClaimedWei",
          "type": "uint256"
        }
      ],
      "stateMutability": "view",
      "type": "function"
    },
    {
      "inputs": [],
      "name": "getTotals",
      "outputs": [
        {
          "internalType": "uint256",
          "name": "_totalClaimedWei",
          "type": "uint256"
        },
        {
          "internalType": "uint256",
          "name": "_totalBurnedWei",
          "type": "uint256"
        },
        {
          "internalType": "uint256",
          "name": "_totalInflationAuthorizedWei",
          "type": "uint256"
        },
        {
          "internalType": "uint256",
          "name": "_totalInflationReceivedWei",
          "type": "uint256"
        }
      ],
      "stateMutability": "view",
      "type": "function"
    },
    {
      "inputs": [],
      "name": "governance",
      "outputs": [
        {
          "internalType": "address",
          "name": "",
          "type": "address"
        }
      ],
      "stateMutability": "view",
      "type": "function"
    },
    {
      "inputs": [],
      "name": "governanceSettings",
      "outputs": [
        {
          "internalType": "contract IGovernanceSettings",
          "name": "",
          "type": "address"
        }
      ],
      "stateMutability": "view",
      "type": "function"
    },
    {
      "inputs": [
        {
          "internalType": "contract IGovernanceSettings",
          "name": "_governanceSettings",
          "type": "address"
        },
        {
          "internalType": "address",
          "name": "_initialGovernance",
          "type": "address"
        }
      ],
      "name": "initialise",
      "outputs": [],
      "stateMutability": "nonpayable",
      "type": "function"
    },
    {
      "inputs": [
        {
          "internalType": "address",
          "name": "_address",
          "type": "address"
        }
      ],
      "name": "isExecutor",
      "outputs": [
        {
          "internalType": "bool",
          "name": "",
          "type": "bool"
        }
      ],
      "stateMutability": "view",
      "type": "function"
    },
    {
      "inputs": [],
      "name": "newRewardManager",
      "outputs": [
        {
          "internalType": "address",
          "name": "",
          "type": "address"
        }
      ],
      "stateMutability": "view",
      "type": "function"
    },
    {
      "inputs": [
        {
          "internalType": "address",
          "name": "_rewardOwner",
          "type": "address"
        }
      ],
      "name": "nextClaimableRewardEpochId",
      "outputs": [
        {
          "internalType": "uint256",
          "name": "",
          "type": "uint256"
        }
      ],
      "stateMutability": "view",
      "type": "function"
    },
    {
      "inputs": [],
      "name": "oldRewardManager",
      "outputs": [
        {
          "internalType": "address",
          "name": "",
          "type": "address"
        }
      ],
      "stateMutability": "view",
      "type": "function"
    },
    {
      "inputs": [],
      "name": "pChainStakeMirror",
      "outputs": [
        {
          "internalType": "contract IPChainStakeMirror",
          "name": "",
          "type": "address"
        }
      ],
      "stateMutability": "view",
      "type": "function"
    },
    {
      "inputs": [],
      "name": "productionMode",
      "outputs": [
        {
          "internalType": "bool",
          "name": "",
          "type": "bool"
        }
      ],
      "stateMutability": "view",
      "type": "function"
    },
    {
      "inputs": [
        {
          "internalType": "uint24",
          "name": "_rewardEpochId",
          "type": "uint24"
        },
        {
          "internalType": "bool",
          "name": "_inflation",
          "type": "bool"
        }
      ],
      "name": "receiveRewards",
      "outputs": [],
      "stateMutability": "payable",
      "type": "function"
    },
    {
      "inputs": [],
      "name": "setInitialRewardData",
      "outputs": [],
      "stateMutability": "nonpayable",
      "type": "function"
    },
    {
      "inputs": [
        {
          "internalType": "address",
          "name": "_newRewardManager",
          "type": "address"
        }
      ],
      "name": "setNewRewardManager",
      "outputs": [],
      "stateMutability": "nonpayable",
      "type": "function"
    },
    {
      "inputs": [
        {
          "internalType": "address",
          "name": "_oldRewardManager",
          "type": "address"
        }
      ],
      "name": "setOldRewardManager",
      "outputs": [],
      "stateMutability": "nonpayable",
      "type": "function"
    },
    {
      "inputs": [
        {
          "internalType": "address[]",
          "name": "_rewardOffersManagerList",
          "type": "address[]"
        }
      ],
      "name": "setRewardOffersManagerList",
      "outputs": [],
      "stateMutability": "nonpayable",
      "type": "function"
    },
    {
      "inputs": [],
      "name": "switchToProductionMode",
      "outputs": [],
      "stateMutability": "nonpayable",
      "type": "function"
    },
    {
      "inputs": [
        {
          "internalType": "bytes4",
          "name": "",
          "type": "bytes4"
        }
      ],
      "name": "timelockedCalls",
      "outputs": [
        {
          "internalType": "uint256",
          "name": "allowedAfterTimestamp",
          "type": "uint256"
        },
        {
          "internalType": "bytes",
          "name": "encodedCall",
          "type": "bytes"
        }
      ],
      "stateMutability": "view",
      "type": "function"
    },
    {
      "inputs": [
        {
          "internalType": "bytes32[]",
          "name": "_contractNameHashes",
          "type": "bytes32[]"
        },
        {
          "internalType": "address[]",
          "name": "_contractAddresses",
          "type": "address[]"
        }
      ],
      "name": "updateContractAddresses",
      "outputs": [],
      "stateMutability": "nonpayable",
      "type": "function"
    },
    {
      "inputs": [],
      "name": "voterRegistry",
      "outputs": [
        {
          "internalType": "contract VoterRegistry",
          "name": "",
          "type": "address"
        }
      ],
      "stateMutability": "view",
      "type": "function"
    },
    {
      "inputs": [],
      "name": "wNat",
      "outputs": [
        {
          "internalType": "contract IWNat",
          "name": "",
          "type": "address"
        }
      ],
      "stateMutability": "view",
      "type": "function"
    }
  ],
  "bytecode": "0x60806040523480156200001157600080fd5b50604051620054b7380380620054b7833981016040819052620000349162000221565b8083836200004382826200008f565b506200006f9050817f714f205b2abd25bef1d06a1af944e38c113fe6160375c4e1d6d5cf28848e771955565b505060016003555050600a805462ffffff191662ffffff17905562000275565b600054600160a01b900460ff1615620000ef5760405162461bcd60e51b815260206004820152601460248201527f696e697469616c6973656420213d2066616c736500000000000000000000000060448201526064015b60405180910390fd5b6001600160a01b038216620001475760405162461bcd60e51b815260206004820152601860248201527f676f7665726e616e63652073657474696e6773207a65726f00000000000000006044820152606401620000e6565b6001600160a01b038116620001925760405162461bcd60e51b815260206004820152601060248201526f5f676f7665726e616e6365207a65726f60801b6044820152606401620000e6565b600080546001600160a01b038481166001600160a81b031990921691909117600160a01b17909155600180549183166001600160a01b0319909216821790556040519081527f9789733827840833afc031fb2ef9ab6894271f77bad2085687cf4ae5c7bee4db9060200160405180910390a15050565b6001600160a01b03811681146200021e57600080fd5b50565b6000806000606084860312156200023757600080fd5b8351620002448162000208565b6020850151909350620002578162000208565b60408501519092506200026a8162000208565b809150509250925092565b61523280620002856000396000f3fe60806040526004361061027d5760003560e01c80638e33aba51161014f578063c4db9619116100c1578063ea28edad1161007a578063ea28edad14610840578063ef88bf1314610855578063f3eb821f14610875578063f5a9838314610895578063fbde354d146108aa578063fd95b2e0146108ca57600080fd5b8063c4db96191461070f578063d6c1dbee1461072f578063debfda301461074f578063e17f212e1461076f578063e4f139d314610790578063e7dea8e61461082057600080fd5b8063a71de67611610113578063a71de67614610659578063af04cd3b1461067a578063b00c0b761461068f578063b753801d146106af578063bb25d5df146106cf578063be60040e146106ef57600080fd5b80638e33aba5146105ca57806395123887146105ea5780639a3410bc1461060a5780639edbf00714610626578063a02e86e51461064657600080fd5b80635267a15d116101f357806370562697116101ac57806370562697146104ce57806374e6310e146104f75780637a17a34d1461052557806380c3d2671461054757806384e10a901461057157806387ad4ecf146105aa57600080fd5b80635267a15d146104055780635aa6e675146104395780635ff270791461044e57806362354e031461046e57806362d9c89a1461048e57806367fc4029146104ae57600080fd5b80631de56098116102455780631de56098146103305780632dafdbbf1461034557806330c40bc91461037557806336300be214610398578063470ce087146103d057806351b42b00146103f057600080fd5b806302fb0c5e14610282578063064be532146102b85780630f15f4c0146102d957806315ca0637146102f057806315f253fb14610310575b600080fd5b34801561028e57600080fd5b506019546102a390600160a81b900460ff1681565b60405190151581526020015b60405180910390f35b3480156102c457600080fd5b506019546102a390600160a01b900460ff1681565b3480156102e557600080fd5b506102ee6108df565b005b3480156102fc57600080fd5b506102ee61030b3660046143d8565b6108fc565b34801561031c57600080fd5b506102ee61032b366004614446565b610918565b34801561033c57600080fd5b506102ee610cab565b34801561035157600080fd5b5061035a610e2d565b604080519384526020840192909252908201526060016102af565b34801561038157600080fd5b5061038a610e60565b6040519081526020016102af565b3480156103a457600080fd5b50601a546103b8906001600160a01b031681565b6040516001600160a01b0390911681526020016102af565b3480156103dc57600080fd5b506102ee6103eb3660046144df565b610e6f565b3480156103fc57600080fd5b506102ee610f37565b34801561041157600080fd5b507f714f205b2abd25bef1d06a1af944e38c113fe6160375c4e1d6d5cf28848e7719546103b8565b34801561044557600080fd5b506103b8610f4e565b34801561045a57600080fd5b506102ee6104693660046144fc565b610fe5565b34801561047a57600080fd5b506000546103b8906001600160a01b031681565b34801561049a57600080fd5b506017546103b8906001600160a01b031681565b3480156104ba57600080fd5b506102ee6104c93660046144fc565b61126b565b3480156104da57600080fd5b506104e361134c565b60405162ffffff90911681526020016102af565b34801561050357600080fd5b506105176105123660046144fc565b611356565b6040516102af929190614576565b34801561053157600080fd5b5061053a6113fb565b6040516102af9190614597565b34801561055357600080fd5b5061055c611460565b604080519283526020830191909152016102af565b34801561057d57600080fd5b50600e54600f546012546011546040805194855260208501939093529183015260608201526080016102af565b3480156105b657600080fd5b506016546103b8906001600160a01b031681565b3480156105d657600080fd5b5061038a6105e53660046145f2565b6114e5565b3480156105f657600080fd5b5061038a6106053660046144df565b611714565b34801561061657600080fd5b50600a546104e39062ffffff1681565b34801561063257600080fd5b506018546103b8906001600160a01b031681565b6102ee61065436600461467f565b611737565b34801561066557600080fd5b50600a546301000000900462ffffff1661038a565b34801561068657600080fd5b5061038a61183d565b34801561069b57600080fd5b506102ee6106aa366004614795565b611847565b3480156106bb57600080fd5b506102ee6106ca36600461484d565b611922565b3480156106db57600080fd5b506015546103b8906001600160a01b031681565b3480156106fb57600080fd5b506013546103b8906001600160a01b031681565b34801561071b57600080fd5b506014546103b8906001600160a01b031681565b34801561073b57600080fd5b506102ee61074a3660046143d8565b61199c565b34801561075b57600080fd5b506102a361076a3660046144df565b611bd4565b34801561077b57600080fd5b506000546102a390600160a81b900460ff1681565b34801561079c57600080fd5b506107f26107ab36600461489d565b600b60209081526000938452604080852082529284528284209052825290205460ff81169061010081046001600160781b031690600160801b90046001600160801b031683565b6040805193151584526001600160781b0390921660208401526001600160801b0316908201526060016102af565b34801561082c57600080fd5b506019546103b8906001600160a01b031681565b34801561084c57600080fd5b506102ee611c5d565b34801561086157600080fd5b506102ee6108703660046148dd565b611d03565b34801561088157600080fd5b506102ee6108903660046144df565b611e69565b3480156108a157600080fd5b506102ee611f23565b3480156108b657600080fd5b50601b546103b8906001600160a01b031681565b3480156108d657600080fd5b506102ee611fe4565b6108e7612028565b6019805460ff60a81b1916600160a81b179055565b610904612082565b806012546109129190614921565b60125550565b6109206120e0565b610928612139565b6109306121a1565b60005b8481101561097c5761096a86868381811061095057610950614934565b905060200201602081019061096591906144df565b6121cb565b806109748161494a565b915050610933565b506000610987612212565b62ffffff811660009081526005602052604081205491925003610a3857601554604051636131910b60e11b815262ffffff831660048201526001600160a01b039091169063c263221690602401602060405180830381865afa1580156109f1573d6000803e3d6000fd5b505050506040513d601f19601f82011682018060405250810190610a159190614963565b62ffffff821660009081526005602052604090206001600160401b039190911690555b610a428482612280565b610a835760405162461bcd60e51b815260206004820152600d60248201526c6e6f7420636c61696d61626c6560981b60448201526064015b60405180910390fd5b60145460405163712441d960e11b815260009182916001600160a01b039091169063e24883b290610abc9033908c908c9060040161498c565b600060405180830381865afa158015610ad9573d6000803e3d6000fd5b505050506040513d6000823e601f3d908101601f19168201604052610b019190810190614a4c565b915091506000610b0f6122cc565b9050610b1f600080888885612303565b5060009050805b89811015610c5f5760008b8b83818110610b4257610b42614934565b9050602002016020810190610b5791906144df565b90506000868381518110610b6d57610b6d614934565b602002602001015190506000610b8783838e896000612474565b6001600160781b03169050816001600160a01b0316836001600160a01b031614610bcf57610bb982838e896001612474565b610bcc906001600160781b031682614921565b90505b86811015610c1f5760405162461bcd60e51b815260206004820152601860248201527f636c61696d656420616d6f756e7420746f6f20736d616c6c00000000000000006044820152606401610a7a565b610c298186614921565b9450610c358782614a92565b90508015610c4957610c4982826001612686565b5050508080610c579061494a565b915050610b26565b5080600e6000828254610c729190614921565b90915550610c8d905033610c868b86614aa5565b6000612686565b5050505050610c9c6001600355565b610ca4612787565b5050505050565b600054600160b01b900460ff1680610ccd5750600054600160a81b900460ff16155b15610e2057610cda6127ce565b601954600160a81b900460ff16158015610d005750600a54600160301b900462ffffff16155b8015610d185750600a546301000000900462ffffff16155b610d585760405162461bcd60e51b81526020600482015260116024820152706e6f7420696e697469616c20737461746560781b6044820152606401610a7a565b610d60612212565b610d6b906001614abc565b600a60066101000a81548162ffffff021916908362ffffff160217905550601560009054906101000a90046001600160a01b03166001600160a01b031663aec84ab66040518163ffffffff1660e01b8152600401602060405180830381865afa158015610ddc573d6000803e3d6000fd5b505050506040513d601f19601f82011682018060405250810190610e009190614adf565b600a60036101000a81548162ffffff021916908362ffffff160217905550565b610e2b600036612806565b565b6000806000601154601054610e429190614a92565b92506012549150600f54600e54610e599190614921565b9050909192565b6000610e6a612952565b905090565b600054600160b01b900460ff1680610e915750600054600160a81b900460ff16155b15610f2957610e9e6127ce565b601b546001600160a01b031615610ee55760405162461bcd60e51b815260206004820152600b60248201526a185b1c9958591e481cd95d60aa1b6044820152606401610a7a565b6001600160a01b038116610f0b5760405162461bcd60e51b8152600401610a7a90614afc565b601b80546001600160a01b0319166001600160a01b03831617905550565b610f34600036612806565b50565b610f3f612028565b6019805460ff60a81b19169055565b60008054600160a81b900460ff16610f7057506001546001600160a01b031690565b60008054906101000a90046001600160a01b03166001600160a01b031663732524946040518163ffffffff1660e01b8152600401602060405180830381865afa158015610fc1573d6000803e3d6000fd5b505050506040513d601f19601f82011682018060405250810190610e6a9190614b22565b610fee33611bd4565b61102a5760405162461bcd60e51b815260206004820152600d60248201526c37b7363c9032bc32b1baba37b960991b6044820152606401610a7a565b6001600160e01b03198116600090815260026020526040812080549091036110945760405162461bcd60e51b815260206004820152601a60248201527f74696d656c6f636b3a20696e76616c69642073656c6563746f720000000000006044820152606401610a7a565b80544210156110e55760405162461bcd60e51b815260206004820152601960248201527f74696d656c6f636b3a206e6f7420616c6c6f77656420796574000000000000006044820152606401610a7a565b60008160010180546110f690614b3f565b80601f016020809104026020016040519081016040528092919081815260200182805461112290614b3f565b801561116f5780601f106111445761010080835404028352916020019161116f565b820191906000526020600020905b81548152906001019060200180831161115257829003601f168201915b505050506001600160e01b03198516600090815260026020526040812081815592935090506111a1600183018261438e565b50506000805460ff60b01b1916600160b01b17815560405130906111c6908490614b79565b6000604051808303816000865af19150503d8060008114611203576040519150601f19603f3d011682016040523d82523d6000602084013e611208565b606091505b50506000805460ff60b01b19169055604080516001600160e01b0319871681524260208201529192507fa7326b57fc9cfe267aaea5e7f0b01757154d265620a0585819416ee9ddd2c438910160405180910390a16112658161296f565b50505050565b611273612028565b6001600160e01b0319811660009081526002602052604081205490036112db5760405162461bcd60e51b815260206004820152601a60248201527f74696d656c6f636b3a20696e76616c69642073656c6563746f720000000000006044820152606401610a7a565b604080516001600160e01b0319831681524260208201527f7735b2391c38a81419c513e30ca578db7158eadd7101511b23e221c654d19cf8910160405180910390a16001600160e01b03198116600090815260026020526040812081815590611347600183018261438e565b505050565b6000610e6a612212565b6002602052600090815260409020805460018201805491929161137890614b3f565b80601f01602080910402602001604051908101604052809291908181526020018280546113a490614b3f565b80156113f15780601f106113c6576101008083540402835291602001916113f1565b820191906000526020600020905b8154815290600101906020018083116113d457829003601f168201915b5050505050905082565b6060601c60000180548060200260200160405190810160405280929190818152602001828054801561145657602002820191906000526020600020905b81546001600160a01b03168152600190910190602001808311611438575b5050505050905090565b60008061146b6122cc565b62ffffff169150600061147c612212565b62ffffff169050600081116114d35760405162461bcd60e51b815260206004820152601f60248201527f6e6f2065706f6368207769746820636c61696d61626c652072657761726473006044820152606401610a7a565b6114de600182614a92565b9150509091565b60006114ef6120e0565b6114f7612139565b6114ff6121a1565b868661150b828261298c565b611514886121cb565b600061151e612212565b62ffffff8116600090815260056020526040812054919250036115cf57601554604051636131910b60e11b815262ffffff831660048201526001600160a01b039091169063c263221690602401602060405180830381865afa158015611588573d6000803e3d6000fd5b505050506040513d601f19601f820116820180604052508101906115ac9190614963565b62ffffff821660009081526005602052604090206001600160401b039190911690555b6115d98882612280565b6116155760405162461bcd60e51b815260206004820152600d60248201526c6e6f7420636c61696d61626c6560981b6044820152606401610a7a565b600061161f6122cc565b905060006116308c8c8a8a86612303565b6001600160781b039091169650905061164d8c8c8c856000612474565b611660906001600160781b031687614921565b95506001600160781b038116156116ca57806001600160781b0316600f600082825461168c9190614921565b909155505060405161dead906001600160781b03831680156108fc02916000818181858888f193505050501580156116c8573d6000803e3d6000fd5b505b85156116f35785600e60008282546116e29190614921565b909155506116f390508b878b612686565b50505050506117026001600355565b61170a612787565b9695505050505050565b600061172c826117226122cc565b62ffffff16612a0f565b62ffffff1692915050565b61173f612082565b611747612139565b61174f612212565b62ffffff168262ffffff1610156117a85760405162461bcd60e51b815260206004820152601b60248201527f7265776172642065706f636820696420696e20746865207061737400000000006044820152606401610a7a565b6117b134612a3b565b62ffffff8316600090815260066020526040812080549091906117de9084906001600160781b0316614b95565b92506101000a8154816001600160781b0302191690836001600160781b0316021790555034601060008282546118149190614921565b90915550508015611831573460115461182d9190614921565b6011555b611839612787565b5050565b6000610e6a612a73565b7f714f205b2abd25bef1d06a1af944e38c113fe6160375c4e1d6d5cf28848e7719546001600160a01b0316336001600160a01b0316146118c05760405162461bcd60e51b815260206004820152601460248201527337b7363c9030b2323932b9b9903ab83230ba32b960611b6044820152606401610a7a565b6119186118f483836040518060400160405280600e81526020016d20b2323932b9b9aab83230ba32b960911b815250612a92565b7f714f205b2abd25bef1d06a1af944e38c113fe6160375c4e1d6d5cf28848e771955565b6118398282612b4e565b600054600160b01b900460ff16806119445750600054600160a81b900460ff16155b15611991576119516127ce565b611839828280806020026020016040519081016040528093929190818152602001838360200280828437600092019190915250601c93925050612db79050565b611839600036612806565b6015546001600160a01b03163314806119bf5750601b546001600160a01b031633145b6119fb5760405162461bcd60e51b815260206004820152600d60248201526c6f6e6c79206d616e616765727360981b6044820152606401610a7a565b600a546301000000900462ffffff168114611a495760405162461bcd60e51b815260206004820152600e60248201526d1ddc9bdb99c8195c1bd8da081a5960921b6044820152606401610a7a565b601a546001600160a01b031615801590611a805750600a54611a7890600160301b900462ffffff166032614abc565b62ffffff1681105b15611ae457601a54604051636b60edf760e11b8152600481018390526001600160a01b039091169063d6c1dbee90602401600060405180830381600087803b158015611acb57600080fd5b505af1158015611adf573d6000803e3d6000fd5b505050505b611af7611af2826001614921565b612dca565b600a805462ffffff9290921663010000000265ffffff000000199092169190911790556040518181527f5d05c64f281304391697cf987812e1a736413a062a9bdf39af4102209eb6fa589060200160405180910390a16000818152600860209081526040808320546006909252822054611b7d916001600160781b039081169116614bb5565b6001600160781b0316905080156118395780600f6000828254611ba09190614921565b909155505060405161dead9082156108fc029083906000818181858888f19350505050158015611347573d6000803e3d6000fd5b60008054600160a01b900460ff168015611c575750600054604051630debfda360e41b81526001600160a01b0384811660048301529091169063debfda3090602401602060405180830381865afa158015611c33573d6000803e3d6000fd5b505050506040513d601f19601f82011682018060405250810190611c579190614bd5565b92915050565b611c65612028565b600a5462ffffff90811614611cae5760405162461bcd60e51b815260206004820152600f60248201526e185b1c9958591e48195b98589b1959608a1b6044820152606401610a7a565b611cb6612212565b600a805462ffffff191662ffffff9290921691821790556040519081527f1cfb844c44f9325fc9ad6cc6191a4a24b0415137fe300b6c9071523a253f7a08906020015b60405180910390a1565b600054600160a01b900460ff1615611d545760405162461bcd60e51b8152602060048201526014602482015273696e697469616c6973656420213d2066616c736560601b6044820152606401610a7a565b6001600160a01b038216611daa5760405162461bcd60e51b815260206004820152601860248201527f676f7665726e616e63652073657474696e6773207a65726f00000000000000006044820152606401610a7a565b6001600160a01b038116611df35760405162461bcd60e51b815260206004820152601060248201526f5f676f7665726e616e6365207a65726f60801b6044820152606401610a7a565b600080546001600160a01b038481166001600160a81b031990921691909117600160a01b17909155600180549183166001600160a01b0319909216821790556040519081527f9789733827840833afc031fb2ef9ab6894271f77bad2085687cf4ae5c7bee4db9060200160405180910390a15050565b600054600160b01b900460ff1680611e8b5750600054600160a81b900460ff16155b15610f2957611e986127ce565b601a546001600160a01b031615611edf5760405162461bcd60e51b815260206004820152600b60248201526a185b1c9958591e481cd95d60aa1b6044820152606401610a7a565b6001600160a01b038116611f055760405162461bcd60e51b8152600401610a7a90614afc565b601a80546001600160a01b0319166001600160a01b03831617905550565b611f2b612028565b600054600160a81b900460ff1615611f855760405162461bcd60e51b815260206004820152601a60248201527f616c726561647920696e2070726f64756374696f6e206d6f64650000000000006044820152606401610a7a565b600180546001600160a01b031916905560008054600160a81b60ff60a81b198216179091556040516001600160a01b0390911681527f83af113638b5422f9e977cebc0aaf0eaf2188eb9a8baae7f9d46c42b33a1560c90602001611cf9565b600054600160b01b900460ff16806120065750600054600160a81b900460ff16155b15610e20576120136127ce565b6019805460ff60a01b1916600160a01b179055565b612030610f4e565b6001600160a01b0316336001600160a01b031614610e2b5760405162461bcd60e51b815260206004820152600f60248201526e6f6e6c7920676f7665726e616e636560881b6044820152606401610a7a565b336000908152601d60205260408120549003610e2b5760405162461bcd60e51b815260206004820152601a60248201527f6f6e6c7920726577617264206f6666657273206d616e616765720000000000006044820152606401610a7a565b601954600160a81b900460ff16610e2b5760405162461bcd60e51b815260206004820152601a60248201527f726577617264206d616e616765722064656163746976617465640000000000006044820152606401610a7a565b600034612144612a73565b61214e9190614921565b905047818111156121915761dead6108fc6121698484614a92565b6040518115909202916000818181858888f19350505050158015611347573d6000803e3d6000fd5b8181101561183957611839614bf2565b6002600354036121c457604051633ee5aeb560e01b815260040160405180910390fd5b6002600355565b6001600160a01b038116610f345760405162461bcd60e51b815260206004820152600e60248201526d726563697069656e74207a65726f60901b6044820152606401610a7a565b60155460408051637056269760e01b815290516000926001600160a01b03169163705626979160048083019260209291908290030181865afa15801561225c573d6000803e3d6000fd5b505050506040513d601f19601f82011682018060405250810190610e6a9190614adf565b600a5460009062ffffff908116908416108015906122b05750600a5462ffffff6301000000909104811690841610155b80156122c557508162ffffff168362ffffff16105b9392505050565b600a54600090610e6a90611af29062ffffff166122fe6122ea612952565b600a546301000000900462ffffff16612dfa565b612dfa565b60008060005b8481101561246957600086868381811061232557612325614934565b90506020028101906123379190614c08565b6123489060a0810190608001614c1e565b9050600081600481111561235e5761235e614c39565b148061237b5750600181600481111561237957612379614c39565b145b156123e5576001600160a01b038916156123e0576000806123c08b8b8b8b888181106123a9576123a9614934565b90506020028101906123bb9190614c08565b612e10565b90925090506123cf8287614b95565b95506123db8186614b95565b945050505b612456565b8462ffffff168787848181106123fd576123fd614934565b905060200281019061240f9190614c08565b612420906040810190602001614c4f565b62ffffff16106124565761245687878481811061243f5761243f614934565b90506020028101906124519190614c08565b6132a7565b50806124618161494a565b915050612309565b509550959350505050565b600080612486878562ffffff16612a0f565b9050805b8562ffffff168162ffffff161161260e5760155460405163388a4c3d60e01b815262ffffff831660048201526000916001600160a01b03169063388a4c3d90602401602060405180830381865afa1580156124e9573d6000803e3d6000fd5b505050506040513d601f19601f8201168201806040525081019061250d9190614c6c565b62ffffff83166000908152600d60205260408120549190911015915061253283613532565b905060006125438b8b8685876135d1565b61254d9082614b95565b905086612599576125618b8b8685876139a8565b61256b9082614b95565b6019549091506001600160a01b0316156125995761258c8b8b868587613b7f565b6125969082614b95565b90505b62ffffff8416600090815260086020526040812080548392906125c69084906001600160781b0316614b95565b92506101000a8154816001600160781b0302191690836001600160781b0316021790555080866125f69190614b95565b9550505050808061260690614c85565b91505061248a565b5061261a856001614abc565b6001600160a01b03881660009081526004602052604090205462ffffff9182169116101561267c5761264d856001614abc565b6001600160a01b0388166000908152600460205260409020805462ffffff191662ffffff929092169190911790555b5095945050505050565b80156126f25760185460405163b760faf960e01b81526001600160a01b0385811660048301529091169063b760faf99084906024016000604051808303818588803b1580156126d457600080fd5b505af11580156126e8573d6000803e3d6000fd5b5050505050505050565b6000836001600160a01b03168360405160006040518083038185875af1925050503d806000811461273f576040519150601f19603f3d011682016040523d82523d6000602084013e612744565b606091505b50509050806112655760405162461bcd60e51b815260206004820152600f60248201526e1d1c985b9cd9995c8819985a5b1959608a1b6044820152606401610a7a565b61278f612a73565b4714610e2b5760405162461bcd60e51b815260206004820152600e60248201526d6f7574206f662062616c616e636560901b6044820152606401610a7a565b600054600160b01b900460ff16156127fe573330146127ef576127ef614bf2565b6000805460ff60b01b19169055565b610e2b612028565b61280e612028565b6000805460408051636221a54b60e01b81529051853593926001600160a01b031691636221a54b9160048083019260209291908290030181865afa15801561285a573d6000803e3d6000fd5b505050506040513d601f19601f8201168201806040525081019061287e9190614c6c565b9050600061288c8242614921565b9050604051806040016040528082815260200186868080601f01602080910402602001604051908101604052809392919081815260200183838082843760009201829052509390945250506001600160e01b0319861681526002602090815260409091208351815590830151909150600182019061290a9082614ced565b509050507fed948300a3694aa01d4a6b258bfd664350193d770c0b51f8387277f6d83ea3b6838287876040516129439493929190614dac565b60405180910390a15050505050565b600a54600090611c5790600160301b900462ffffff166001613d37565b3d604051818101604052816000823e8215612988578181f35b8181fd5b6001600160a01b03821633036129a0575050565b60145460405163ce2caa5760e01b81523360048201526001600160a01b03848116602483015283811660448301529091169063ce2caa579060640160006040518083038186803b1580156129f357600080fd5b505afa158015612a07573d6000803e3d6000fd5b505050505050565b6001600160a01b0382166000908152600460205260408120546122c590611af29062ffffff1684612dfa565b60006001600160781b03821115612a6f576040516306dfcc6560e41b81526078600482015260248101839052604401610a7a565b5090565b6000600f54600e54601054612a889190614a92565b610e6a9190614a92565b60008082604051602001612aa69190614df2565b6040516020818303038152906040528051906020012090506000805b8651811015612b1e57868181518110612add57612add614934565b60200260200101518303612b0c57858181518110612afd57612afd614934565b60200260200101519150612b1e565b80612b168161494a565b915050612ac2565b506001600160a01b038116612b455760405162461bcd60e51b8152600401610a7a90614afc565b95945050505050565b612b7e82826040518060400160405280600d81526020016c566f746572526567697374727960981b815250612a92565b601360006101000a8154816001600160a01b0302191690836001600160a01b03160217905550612bd882826040518060400160405280601181526020017021b630b4b6a9b2ba3ab826b0b730b3b2b960791b815250612a92565b601460006101000a8154816001600160a01b0302191690836001600160a01b03160217905550612c33828260405180604001604052806012815260200171233630b932a9bcb9ba32b6a6b0b730b3b2b960711b815250612a92565b601560006101000a8154816001600160a01b0302191690836001600160a01b03160217905550612c91828260405180604001604052806015815260200174233630b932a9bcb9ba32b6a1b0b631bab630ba37b960591b815250612a92565b601660006101000a8154816001600160a01b0302191690836001600160a01b03160217905550612ceb8282604051806040016040528060118152602001702821b430b4b729ba30b5b2a6b4b93937b960791b815250612a92565b601780546001600160a01b0319166001600160a01b0392909216919091179055601954600160a01b900460ff1615612d6c57612d4b82826040518060400160405280600b81526020016a43436861696e5374616b6560a81b815250612a92565b601980546001600160a01b0319166001600160a01b03929092169190911790555b612d9382826040518060400160405280600481526020016315d3985d60e21b815250612a92565b601880546001600160a01b0319166001600160a01b03929092169190911790555050565b612dc082613d5d565b6118398282613de8565b600062ffffff821115612a6f576040516306dfcc6560e41b81526018600482015260248101839052604401610a7a565b6000818311612e0957816122c5565b5090919050565b600080602083016001600160a01b038616612e316060860160408701614e1b565b60601c14612e755760405162461bcd60e51b815260206004820152601160248201527077726f6e672062656e656669636961727960781b6044820152606401610a7a565b600081604051602001612e889190614e71565b60408051601f1981840301815291905280516020918201209150600c90600090612eb490850185614c4f565b62ffffff1681526020808201929092526040908101600090812084825290925290205460ff1661329d576015546000906001600160a01b031663647006e2612eff6020860186614c4f565b6040516001600160e01b031960e084901b16815262ffffff9091166004820152602401602060405180830381865afa158015612f3f573d6000803e3d6000fd5b505050506040513d601f19601f82011682018060405250810190612f639190614c6c565b9050612f7d8183612f748980614ed7565b90929091613e29565b612fc05760405162461bcd60e51b81526020600482015260146024820152731b595c9adb19481c1c9bdbd9881a5b9d985b1a5960621b6044820152606401610a7a565b612fe5612fd06020850185614c4f565b612fe06060860160408701614f20565b613e41565b94506001612ff96080850160608601614c1e565b600481111561300a5761300a614c39565b03613196576016546000906001600160a01b0316639350f57c6130306020870187614c4f565b6040516001600160e01b031960e084901b16815262ffffff90911660048201526001600160a01b038c166024820152604401602060405180830381865afa15801561307f573d6000803e3d6000fd5b505050506040513d601f19601f820116820180604052508101906130a39190614c6c565b90508015613194576130dc6130d76130c86001600160781b03891684620f4240613efa565b886001600160781b0316614020565b612a3b565b94506130e88587614bb5565b955084600960006130fc6020880188614c4f565b62ffffff16815260208101919091526040016000908120805490919061312c9084906001600160781b0316614b95565b82546001600160781b039182166101009390930a92830291909202199091161790555061dead6001600160a01b038a16806000805160206151dd8339815191526131796020890189614c4f565b60018a60405161318b93929190614f3b565b60405180910390a45b505b84600860006131a86020870187614c4f565b62ffffff1681526020810191909152604001600090812080549091906131d89084906001600160781b0316614b95565b92506101000a8154816001600160781b0302191690836001600160781b031602179055506001600c60008560000160208101906132159190614c4f565b62ffffff16815260208082019290925260409081016000908120868252835220805460ff1916921515929092179091556001600160a01b0388811691908a169081906000805160206151dd8339815191529061327390880188614c4f565b6132836080890160608a01614c1e565b8a60405161329393929190614f3b565b60405180910390a4505b5050935093915050565b602081016000600b816132bd6040860185614c4f565b62ffffff16815260200190815260200160002060008360600160208101906132e59190614c1e565b60048111156132f6576132f6614c39565b600481111561330757613307614c39565b8152602001908152602001600020600083602001602081019061332a9190614e1b565b60601c81526020810191909152604001600020805490915060ff16611347576015546000906001600160a01b031663647006e261336a6020860186614c4f565b6040516001600160e01b031960e084901b16815262ffffff9091166004820152602401602060405180830381865afa1580156133aa573d6000803e3d6000fd5b505050506040513d601f19601f820116820180604052508101906133ce9190614c6c565b90506000836040516020016133e39190614e71565b60408051601f198184030181529190528051602090910120905061340c8282612f748880614ed7565b61344f5760405162461bcd60e51b81526020600482015260146024820152731b595c9adb19481c1c9bdbd9881a5b9d985b1a5960621b6044820152606401610a7a565b825460ff1916600117835561347a61346a6020860186614c4f565b612fe06060870160408801614f20565b83546001600160781b0391909116610100026fffffffffffffffffffffffffffffff00199091161783556134d96134b46020860186614c4f565b6134c46040870160208801614e1b565b6134d46080880160608901614c1e565b61402f565b83546001600160801b03918216600160801b0291161783556001600d60006135046020880188614c4f565b62ffffff16815260200190815260200160002060008282546135269190614921565b90915550505050505050565b62ffffff8116600090815260056020526040812054908190036135cc57601554604051636131910b60e11b815262ffffff841660048201526001600160a01b039091169063c263221690602401602060405180830381865afa15801561359c573d6000803e3d6000fd5b505050506040513d601f19601f820116820180604052508101906135c09190614963565b6001600160401b031690505b919050565b60185460405163277166bf60e11b81526001600160a01b038781166004830152602482018590526000928392911690634ee2cd7e90604401602060405180830381865afa158015613626573d6000803e3d6000fd5b505050506040513d601f19601f8201168201806040525081019061364a9190614c6c565b9050801561267c5760185460405163ed475a7960e01b81526001600160a01b03898116600483015260248201879052600092839283929091169063ed475a7990604401600060405180830381865afa1580156136aa573d6000803e3d6000fd5b505050506040513d6000823e601f3d908101601f191682016040526136d29190810190614fc6565b5050815191935091501561384b5760005b82518110156138495762ffffff89166000908152600b602052604081208160028152602001908152602001600020600085848151811061372557613725614934565b60200260200101516001600160a01b03166001600160a01b031681526020019081526020016000209050878061375c5750805460ff165b6137785760405162461bcd60e51b8152600401610a7a90615039565b60006137aa84848151811061378f5761378f614934565b602002602001015161271089613efa9092919063ffffffff16565b90506137b68187614921565b955060006137c48383614176565b90506137d0818a614b95565b98508c6001600160a01b03168e6001600160a01b03168786815181106137f8576137f8614934565b60200260200101516001600160a01b03166000805160206151dd8339815191528f60028660405161382b93929190614f3b565b60405180910390a450505080806138419061494a565b9150506136e3565b505b82841180156138ce57506013546040516309eb532d60e31b81526001600160a01b038c8116600483015262ffffff8b16602483015290911690634f5a996890604401602060405180830381865afa1580156138aa573d6000803e3d6000fd5b505050506040513d601f19601f820116820180604052508101906138ce9190614bd5565b1561399b5762ffffff88166000908152600b602090815260408083206002845282528083206001600160a01b038e168452909152902086806139115750805460ff165b61392d5760405162461bcd60e51b8152600401610a7a90615039565b60006139428261393d8789614a92565b614176565b905061394e8188614b95565b96508a6001600160a01b03168c6001600160a01b03168d6001600160a01b03166000805160206151dd8339815191528d60028660405161399093929190614f3b565b60405180910390a450505b5050505095945050505050565b6017546040516325f48f9960e11b81526001600160a01b038781166004830152602482018590526000928392839290911690634be91f3290604401600060405180830381865afa158015613a00573d6000803e3d6000fd5b505050506040513d6000823e601f3d908101601f19168201604052613a289190810190615062565b9150915060005b8251811015613b735762ffffff87166000908152600b6020526040812081600381526020019081526020016000206000858481518110613a7157613a71614934565b602002602001015160601c6001600160a01b03166001600160a01b0316815260200190815260200160002090508580613aab5750805460ff165b613ac75760405162461bcd60e51b8152600401610a7a90615039565b6000613aec82858581518110613adf57613adf614934565b6020026020010151614176565b9050613af88187614b95565b9550896001600160a01b03168b6001600160a01b0316868581518110613b2057613b20614934565b602002602001015160601c6001600160a01b03166000805160206151dd8339815191528c600386604051613b5693929190614f3b565b60405180910390a450508080613b6b9061494a565b915050613a2f565b50505095945050505050565b6019546040516325f48f9960e11b81526001600160a01b038781166004830152602482018590526000928392839290911690634be91f3290604401600060405180830381865afa158015613bd7573d6000803e3d6000fd5b505050506040513d6000823e601f3d908101601f19168201604052613bff919081019061511c565b9150915060005b8251811015613b735762ffffff87166000908152600b6020526040812081600481526020019081526020016000206000858481518110613c4857613c48614934565b60200260200101516001600160a01b03166001600160a01b0316815260200190815260200160002090508580613c7f5750805460ff165b613c9b5760405162461bcd60e51b8152600401610a7a90615039565b6000613cb382858581518110613adf57613adf614934565b9050613cbf8187614b95565b9550896001600160a01b03168b6001600160a01b0316868581518110613ce757613ce7614934565b60200260200101516001600160a01b03166000805160206151dd8339815191528c600486604051613d1a93929190614f3b565b60405180910390a450508080613d2f9061494a565b915050613c06565b60008083831115613d4d57506000905080613d56565b50600190508183035b9250929050565b805415610f345780546001808301916000918491613d7b9190614a92565b81548110613d8b57613d8b614934565b60009182526020808320909101546001600160a01b031683528201929092526040018120558054819080613dc157613dc1615168565b600082815260209020810160001990810180546001600160a01b0319169055019055613d5d565b60005b815181101561134757613e1783838381518110613e0a57613e0a614934565b6020026020010151614277565b80613e218161494a565b915050613deb565b600082613e378686856142df565b1495945050505050565b62ffffff821660009081526006602090815260408083205460079092529091205482916001600160781b039081169116613e7b8382614b95565b6001600160781b0316826001600160781b03161015613ea157613e9e8183614bb5565b92505b62ffffff851660009081526007602052604081208054859290613ece9084906001600160781b0316614b95565b92506101000a8154816001600160781b0302191690836001600160781b03160217905550505092915050565b6000808211613f3e5760405162461bcd60e51b815260206004820152601060248201526f4469766973696f6e206279207a65726f60801b6044820152606401610a7a565b83600003613f4e575060006122c5565b83830283858281613f6157613f6161517e565b0403613f7f57828181613f7657613f7661517e565b049150506122c5565b506000613f8c8386615194565b90506000613f9a84876151a8565b90506000613fa88587615194565b90506000613fb686886151a8565b905085613fc38285614aa5565b613fcd9190615194565b613fd78385614aa5565b613fe18387614aa5565b88613fec8689614aa5565b613ff69190614aa5565b6140009190614921565b61400a9190614921565b6140149190614921565b98975050505050505050565b6000818310612e0957816122c5565b60008061403b85613532565b9050600283600481111561405157614051614c39565b036140dd57601854604051631257fcdb60e31b8152606086901c6004820152602481018390526140d5916001600160a01b0316906392bfe6d8906044015b602060405180830381865afa1580156140ac573d6000803e3d6000fd5b505050506040513d601f19601f820116820180604052508101906140d09190614c6c565b61432b565b9150506122c5565b60038360048111156140f1576140f1614c39565b0361413957601754604051631190c4dd60e21b81526001600160601b031986166004820152602481018390526140d5916001600160a01b03169063464313749060440161408f565b601954604051631257fcdb60e31b8152606086901c6004820152602481018390526140d5916001600160a01b0316906392bfe6d89060440161408f565b60008160000361418857506000611c57565b825461010090046001600160781b031660008190036141ab576000915050611c57565b8354600160801b90046001600160801b03168084036141d35750835460ff1684559050611c57565b806001600160801b031684106141eb576141eb614bf2565b61420b6130d76001600160781b038416866001600160801b038516613efa565b92506142168461432b565b85548690601090614238908490600160801b90046001600160801b03166151bc565b82546001600160801b0391821661010093840a908102920219161790915586548592508791600191613ece9185916001600160781b0391900416614bb5565b6001600160a01b03811660009081526001830160205260409020541561429b575050565b8154600181810184556000848152602080822090930180546001600160a01b039095166001600160a01b031990951685179055845493815293019052604090912055565b600081815b848110156143225761430e8287878481811061430257614302614934565b9050602002013561435f565b91508061431a8161494a565b9150506142e4565b50949350505050565b60006001600160801b03821115612a6f576040516306dfcc6560e41b81526080600482015260248101839052604401610a7a565b600081831061437b5760008281526020849052604090206122c5565b60008381526020839052604090206122c5565b50805461439a90614b3f565b6000825580601f106143aa575050565b601f016020900490600052602060002090810190610f3491905b80821115612a6f57600081556001016143c4565b6000602082840312156143ea57600080fd5b5035919050565b60008083601f84011261440357600080fd5b5081356001600160401b0381111561441a57600080fd5b6020830191508360208260051b8501011115613d5657600080fd5b62ffffff81168114610f3457600080fd5b60008060008060006060868803121561445e57600080fd5b85356001600160401b038082111561447557600080fd5b61448189838a016143f1565b90975095506020880135915061449682614435565b909350604087013590808211156144ac57600080fd5b506144b9888289016143f1565b969995985093965092949392505050565b6001600160a01b0381168114610f3457600080fd5b6000602082840312156144f157600080fd5b81356122c5816144ca565b60006020828403121561450e57600080fd5b81356001600160e01b0319811681146122c557600080fd5b60005b83811015614541578181015183820152602001614529565b50506000910152565b60008151808452614562816020860160208601614526565b601f01601f19169290920160200192915050565b82815260406020820152600061458f604083018461454a565b949350505050565b6020808252825182820181905260009190848201906040850190845b818110156145d85783516001600160a01b0316835292840192918401916001016145b3565b50909695505050505050565b8015158114610f3457600080fd5b60008060008060008060a0878903121561460b57600080fd5b8635614616816144ca565b95506020870135614626816144ca565b9450604087013561463681614435565b93506060870135614646816145e4565b925060808701356001600160401b0381111561466157600080fd5b61466d89828a016143f1565b979a9699509497509295939492505050565b6000806040838503121561469257600080fd5b823561469d81614435565b915060208301356146ad816145e4565b809150509250929050565b634e487b7160e01b600052604160045260246000fd5b604051601f8201601f191681016001600160401b03811182821017156146f6576146f66146b8565b604052919050565b60006001600160401b03821115614717576147176146b8565b5060051b60200190565b600082601f83011261473257600080fd5b81356020614747614742836146fe565b6146ce565b82815260059290921b8401810191818101908684111561476657600080fd5b8286015b8481101561478a57803561477d816144ca565b835291830191830161476a565b509695505050505050565b600080604083850312156147a857600080fd5b82356001600160401b03808211156147bf57600080fd5b818501915085601f8301126147d357600080fd5b813560206147e3614742836146fe565b82815260059290921b8401810191818101908984111561480257600080fd5b948201945b8386101561482057853582529482019490820190614807565b9650508601359250508082111561483657600080fd5b5061484385828601614721565b9150509250929050565b6000806020838503121561486057600080fd5b82356001600160401b0381111561487657600080fd5b614882858286016143f1565b90969095509350505050565b8035600581106135cc57600080fd5b6000806000606084860312156148b257600080fd5b833592506148c26020850161488e565b915060408401356148d2816144ca565b809150509250925092565b600080604083850312156148f057600080fd5b82356148fb816144ca565b915060208301356146ad816144ca565b634e487b7160e01b600052601160045260246000fd5b80820180821115611c5757611c5761490b565b634e487b7160e01b600052603260045260246000fd5b60006001820161495c5761495c61490b565b5060010190565b60006020828403121561497557600080fd5b81516001600160401b03811681146122c557600080fd5b6001600160a01b03848116825260406020808401829052908301849052600091859160608501845b878110156149db5784356149c7816144ca565b8416825293820193908201906001016149b4565b5098975050505050505050565b600082601f8301126149f957600080fd5b81516020614a09614742836146fe565b82815260059290921b84018101918181019086841115614a2857600080fd5b8286015b8481101561478a578051614a3f816144ca565b8352918301918301614a2c565b60008060408385031215614a5f57600080fd5b82516001600160401b03811115614a7557600080fd5b614a81858286016149e8565b925050602083015190509250929050565b81810381811115611c5757611c5761490b565b8082028115828204841417611c5757611c5761490b565b62ffffff818116838216019080821115614ad857614ad861490b565b5092915050565b600060208284031215614af157600080fd5b81516122c581614435565b6020808252600c908201526b61646472657373207a65726f60a01b604082015260600190565b600060208284031215614b3457600080fd5b81516122c5816144ca565b600181811c90821680614b5357607f821691505b602082108103614b7357634e487b7160e01b600052602260045260246000fd5b50919050565b60008251614b8b818460208701614526565b9190910192915050565b6001600160781b03818116838216019080821115614ad857614ad861490b565b6001600160781b03828116828216039080821115614ad857614ad861490b565b600060208284031215614be757600080fd5b81516122c5816145e4565b634e487b7160e01b600052600160045260246000fd5b60008235609e19833603018112614b8b57600080fd5b600060208284031215614c3057600080fd5b6122c58261488e565b634e487b7160e01b600052602160045260246000fd5b600060208284031215614c6157600080fd5b81356122c581614435565b600060208284031215614c7e57600080fd5b5051919050565b600062ffffff808316818103614c9d57614c9d61490b565b6001019392505050565b601f82111561134757600081815260208120601f850160051c81016020861015614cce5750805b601f850160051c820191505b81811015612a0757828155600101614cda565b81516001600160401b03811115614d0657614d066146b8565b614d1a81614d148454614b3f565b84614ca7565b602080601f831160018114614d4f5760008415614d375750858301515b600019600386901b1c1916600185901b178555612a07565b600085815260208120601f198616915b82811015614d7e57888601518255948401946001909101908401614d5f565b5085821015614d9c5787850151600019600388901b60f8161c191681555b5050505050600190811b01905550565b63ffffffff60e01b8516815283602082015260606040820152816060820152818360808301376000818301608090810191909152601f909201601f191601019392505050565b6020815260006122c5602083018461454a565b6001600160601b031981168114610f3457600080fd5b600060208284031215614e2d57600080fd5b81356122c581614e05565b80356001600160781b03811681146135cc57600080fd5b60058110614e6d57634e487b7160e01b600052602160045260246000fd5b9052565b608081018235614e8081614435565b62ffffff1682526020830135614e9581614e05565b6001600160601b03191660208301526001600160781b03614eb860408501614e38565b166040830152614eca6060840161488e565b614ad86060840182614e4f565b6000808335601e19843603018112614eee57600080fd5b8301803591506001600160401b03821115614f0857600080fd5b6020019150600581901b3603821315613d5657600080fd5b600060208284031215614f3257600080fd5b6122c582614e38565b62ffffff8416815260608101614f546020830185614e4f565b6001600160781b0383166040830152949350505050565b600082601f830112614f7c57600080fd5b81516020614f8c614742836146fe565b82815260059290921b84018101918181019086841115614fab57600080fd5b8286015b8481101561478a5780518352918301918301614faf565b60008060008060808587031215614fdc57600080fd5b84516001600160401b0380821115614ff357600080fd5b614fff888389016149e8565b9550602087015191508082111561501557600080fd5b5061502287828801614f6b565b604087015160609097015195989097509350505050565b6020808252600f908201526e1b9bdd081a5b9a5d1a585b1a5cd959608a1b604082015260600190565b6000806040838503121561507557600080fd5b82516001600160401b038082111561508c57600080fd5b818501915085601f8301126150a057600080fd5b815160206150b0614742836146fe565b82815260059290921b840181019181810190898411156150cf57600080fd5b948201945b838610156150f65785516150e781614e05565b825294820194908201906150d4565b9188015191965090935050508082111561510f57600080fd5b5061484385828601614f6b565b6000806040838503121561512f57600080fd5b82516001600160401b038082111561514657600080fd5b615152868387016149e8565b9350602085015191508082111561510f57600080fd5b634e487b7160e01b600052603160045260246000fd5b634e487b7160e01b600052601260045260246000fd5b6000826151a3576151a361517e565b500490565b6000826151b7576151b761517e565b500690565b6001600160801b03828116828216039080821115614ad857614ad861490b56fe06f77960d1401cc7d724b5c2b5ad672b9dbf08d8b11516a38c21697c23fbb0d2a26469706673582212206783eb1a1544d50c854668502f43aa4b3125a29dadcdce4fc7dfe735db0a59c164736f6c63430008140033",
  "linkReferences": {},
  "deployedLinkReferences": {}
}