{
  "_format": "hh-sol-artifact-1",
  "contractName": "RewardManager",
  "sourceName": "contracts/protocol/implementation/RewardManager.sol",
  "abi": [
    {
      "inputs": [
        {
          "internalType": "contract IGovernanceSettings",
          "name": "_governanceSettings",
          "type": "address"
        },
        {
          "internalType": "address",
          "name": "_initialGovernance",
          "type": "address"
        },
        {
          "internalType": "address",
          "name": "_addressUpdater",
          "type": "address"
        },
        {
          "internalType": "address",
          "name": "_oldRewardManager",
          "type": "address"
        },
        {
          "internalType": "uint256",
          "name": "_rewardManagerId",
          "type": "uint256"
        }
      ],
      "stateMutability": "nonpayable",
      "type": "constructor"
    },
    {
      "inputs": [],
      "name": "ReentrancyGuardReentrantCall",
      "type": "error"
    },
    {
      "inputs": [
        {
          "internalType": "uint8",
          "name": "bits",
          "type": "uint8"
        },
        {
          "internalType": "uint256",
          "name": "value",
          "type": "uint256"
        }
      ],
      "name": "SafeCastOverflowedUintDowncast",
      "type": "error"
    },
    {
      "anonymous": false,
      "inputs": [
        {
          "indexed": false,
          "internalType": "bytes4",
          "name": "selector",
          "type": "bytes4"
        },
        {
          "indexed": false,
          "internalType": "uint256",
          "name": "allowedAfterTimestamp",
          "type": "uint256"
        },
        {
          "indexed": false,
          "internalType": "bytes",
          "name": "encodedCall",
          "type": "bytes"
        }
      ],
      "name": "GovernanceCallTimelocked",
      "type": "event"
    },
    {
      "anonymous": false,
      "inputs": [
        {
          "indexed": false,
          "internalType": "address",
          "name": "initialGovernance",
          "type": "address"
        }
      ],
      "name": "GovernanceInitialised",
      "type": "event"
    },
    {
      "anonymous": false,
      "inputs": [
        {
          "indexed": false,
          "internalType": "address",
          "name": "governanceSettings",
          "type": "address"
        }
      ],
      "name": "GovernedProductionModeEntered",
      "type": "event"
    },
    {
      "anonymous": false,
      "inputs": [
        {
          "indexed": true,
          "internalType": "address",
          "name": "beneficiary",
          "type": "address"
        },
        {
          "indexed": true,
          "internalType": "address",
          "name": "rewardOwner",
          "type": "address"
        },
        {
          "indexed": true,
          "internalType": "address",
          "name": "recipient",
          "type": "address"
        },
        {
          "indexed": false,
          "internalType": "uint24",
          "name": "rewardEpochId",
          "type": "uint24"
        },
        {
          "indexed": false,
          "internalType": "enum IRewardManager.ClaimType",
          "name": "claimType",
          "type": "uint8"
        },
        {
          "indexed": false,
          "internalType": "uint120",
          "name": "amount",
          "type": "uint120"
        }
      ],
      "name": "RewardClaimed",
      "type": "event"
    },
    {
      "anonymous": false,
      "inputs": [
        {
          "indexed": true,
          "internalType": "uint256",
          "name": "rewardEpochId",
          "type": "uint256"
        }
      ],
      "name": "RewardClaimsEnabled",
      "type": "event"
    },
    {
      "anonymous": false,
      "inputs": [
        {
          "indexed": true,
          "internalType": "uint256",
          "name": "rewardEpochId",
          "type": "uint256"
        }
      ],
      "name": "RewardClaimsExpired",
      "type": "event"
    },
    {
      "anonymous": false,
      "inputs": [
        {
          "indexed": false,
          "internalType": "bytes4",
          "name": "selector",
          "type": "bytes4"
        },
        {
          "indexed": false,
          "internalType": "uint256",
          "name": "timestamp",
          "type": "uint256"
        }
      ],
      "name": "TimelockedGovernanceCallCanceled",
      "type": "event"
    },
    {
      "anonymous": false,
      "inputs": [
        {
          "indexed": false,
          "internalType": "bytes4",
          "name": "selector",
          "type": "bytes4"
        },
        {
          "indexed": false,
          "internalType": "uint256",
          "name": "timestamp",
          "type": "uint256"
        }
      ],
      "name": "TimelockedGovernanceCallExecuted",
      "type": "event"
    },
    {
      "inputs": [],
      "name": "activate",
      "outputs": [],
      "stateMutability": "nonpayable",
      "type": "function"
    },
    {
      "inputs": [],
      "name": "active",
      "outputs": [
        {
          "internalType": "bool",
          "name": "",
          "type": "bool"
        }
      ],
      "stateMutability": "view",
      "type": "function"
    },
    {
      "inputs": [
        {
          "internalType": "address[]",
          "name": "_rewardOwners",
          "type": "address[]"
        },
        {
          "internalType": "uint24",
          "name": "_rewardEpochId",
          "type": "uint24"
        },
        {
          "components": [
            {
              "internalType": "bytes32[]",
              "name": "merkleProof",
              "type": "bytes32[]"
            },
            {
              "components": [
                {
                  "internalType": "uint24",
                  "name": "rewardEpochId",
                  "type": "uint24"
                },
                {
                  "internalType": "bytes20",
                  "name": "beneficiary",
                  "type": "bytes20"
                },
                {
                  "internalType": "uint120",
                  "name": "amount",
                  "type": "uint120"
                },
                {
                  "internalType": "enum IRewardManager.ClaimType",
                  "name": "claimType",
                  "type": "uint8"
                }
              ],
              "internalType": "struct IRewardManager.RewardClaim",
              "name": "body",
              "type": "tuple"
            }
          ],
          "internalType": "struct IRewardManager.RewardClaimWithProof[]",
          "name": "_proofs",
          "type": "tuple[]"
        }
      ],
      "name": "autoClaim",
      "outputs": [],
      "stateMutability": "nonpayable",
      "type": "function"
    },
    {
      "inputs": [],
      "name": "cChainStake",
      "outputs": [
        {
          "internalType": "contract ICChainStake",
          "name": "",
          "type": "address"
        }
      ],
      "stateMutability": "view",
      "type": "function"
    },
    {
      "inputs": [],
      "name": "cChainStakeEnabled",
      "outputs": [
        {
          "internalType": "bool",
          "name": "",
          "type": "bool"
        }
      ],
      "stateMutability": "view",
      "type": "function"
    },
    {
      "inputs": [
        {
          "internalType": "bytes4",
          "name": "_selector",
          "type": "bytes4"
        }
      ],
      "name": "cancelGovernanceCall",
      "outputs": [],
      "stateMutability": "nonpayable",
      "type": "function"
    },
    {
      "inputs": [
        {
          "internalType": "address",
          "name": "_rewardOwner",
          "type": "address"
        },
        {
          "internalType": "address payable",
          "name": "_recipient",
          "type": "address"
        },
        {
          "internalType": "uint24",
          "name": "_rewardEpochId",
          "type": "uint24"
        },
        {
          "internalType": "bool",
          "name": "_wrap",
          "type": "bool"
        },
        {
          "components": [
            {
              "internalType": "bytes32[]",
              "name": "merkleProof",
              "type": "bytes32[]"
            },
            {
              "components": [
                {
                  "internalType": "uint24",
                  "name": "rewardEpochId",
                  "type": "uint24"
                },
                {
                  "internalType": "bytes20",
                  "name": "beneficiary",
                  "type": "bytes20"
                },
                {
                  "internalType": "uint120",
                  "name": "amount",
                  "type": "uint120"
                },
                {
                  "internalType": "enum IRewardManager.ClaimType",
                  "name": "claimType",
                  "type": "uint8"
                }
              ],
              "internalType": "struct IRewardManager.RewardClaim",
              "name": "body",
              "type": "tuple"
            }
          ],
          "internalType": "struct IRewardManager.RewardClaimWithProof[]",
          "name": "_proofs",
          "type": "tuple[]"
        }
      ],
      "name": "claim",
      "outputs": [
        {
          "internalType": "uint256",
          "name": "_rewardAmountWei",
          "type": "uint256"
        }
      ],
      "stateMutability": "nonpayable",
      "type": "function"
    },
    {
      "inputs": [],
      "name": "claimSetupManager",
      "outputs": [
        {
          "internalType": "contract IIClaimSetupManager",
          "name": "",
          "type": "address"
        }
      ],
      "stateMutability": "view",
      "type": "function"
    },
    {
      "inputs": [],
      "name": "cleanupBlockNumber",
      "outputs": [
        {
          "internalType": "uint256",
          "name": "",
          "type": "uint256"
        }
      ],
      "stateMutability": "view",
      "type": "function"
    },
    {
      "inputs": [
        {
          "internalType": "uint256",
          "name": "_rewardEpochId",
          "type": "uint256"
        }
      ],
      "name": "closeExpiredRewardEpoch",
      "outputs": [],
      "stateMutability": "nonpayable",
      "type": "function"
    },
    {
      "inputs": [],
      "name": "deactivate",
      "outputs": [],
      "stateMutability": "nonpayable",
      "type": "function"
    },
    {
      "inputs": [],
      "name": "enableCChainStake",
      "outputs": [],
      "stateMutability": "nonpayable",
      "type": "function"
    },
    {
      "inputs": [],
      "name": "enableClaims",
      "outputs": [],
      "stateMutability": "nonpayable",
      "type": "function"
    },
    {
      "inputs": [],
      "name": "enablePChainStakeMirror",
      "outputs": [],
      "stateMutability": "nonpayable",
      "type": "function"
    },
    {
      "inputs": [
        {
          "internalType": "bytes4",
          "name": "_selector",
          "type": "bytes4"
        }
      ],
      "name": "executeGovernanceCall",
      "outputs": [],
      "stateMutability": "nonpayable",
      "type": "function"
    },
    {
      "inputs": [],
      "name": "firstClaimableRewardEpochId",
      "outputs": [
        {
          "internalType": "uint24",
          "name": "",
          "type": "uint24"
        }
      ],
      "stateMutability": "view",
      "type": "function"
    },
    {
      "inputs": [],
      "name": "flareSystemsCalculator",
      "outputs": [
        {
          "internalType": "contract IIFlareSystemsCalculator",
          "name": "",
          "type": "address"
        }
      ],
      "stateMutability": "view",
      "type": "function"
    },
    {
      "inputs": [],
      "name": "flareSystemsManager",
      "outputs": [
        {
          "internalType": "contract IIFlareSystemsManager",
          "name": "",
          "type": "address"
        }
      ],
      "stateMutability": "view",
      "type": "function"
    },
    {
      "inputs": [],
      "name": "getAddressUpdater",
      "outputs": [
        {
          "internalType": "address",
          "name": "_addressUpdater",
          "type": "address"
        }
      ],
      "stateMutability": "view",
      "type": "function"
    },
    {
      "inputs": [],
      "name": "getCurrentRewardEpochId",
      "outputs": [
        {
          "internalType": "uint24",
          "name": "",
          "type": "uint24"
        }
      ],
      "stateMutability": "view",
      "type": "function"
    },
    {
      "inputs": [],
      "name": "getExpectedBalance",
      "outputs": [
        {
          "internalType": "uint256",
          "name": "",
          "type": "uint256"
        }
      ],
      "stateMutability": "view",
      "type": "function"
    },
    {
      "inputs": [],
      "name": "getInitialRewardEpochId",
      "outputs": [
        {
          "internalType": "uint256",
          "name": "",
          "type": "uint256"
        }
      ],
      "stateMutability": "view",
      "type": "function"
    },
    {
      "inputs": [
        {
          "internalType": "address",
          "name": "_rewardOwner",
          "type": "address"
        }
      ],
      "name": "getNextClaimableRewardEpochId",
      "outputs": [
        {
          "internalType": "uint256",
          "name": "",
          "type": "uint256"
        }
      ],
      "stateMutability": "view",
      "type": "function"
    },
    {
      "inputs": [],
      "name": "getRewardEpochIdToExpireNext",
      "outputs": [
        {
          "internalType": "uint256",
          "name": "",
          "type": "uint256"
        }
      ],
      "stateMutability": "view",
      "type": "function"
    },
    {
      "inputs": [],
      "name": "getRewardEpochIdsWithClaimableRewards",
      "outputs": [
        {
          "internalType": "uint24",
          "name": "_startEpochId",
          "type": "uint24"
        },
        {
          "internalType": "uint24",
          "name": "_endEpochId",
          "type": "uint24"
        }
      ],
      "stateMutability": "view",
      "type": "function"
    },
    {
      "inputs": [
        {
          "internalType": "uint24",
          "name": "_rewardEpochId",
          "type": "uint24"
        }
      ],
      "name": "getRewardEpochTotals",
      "outputs": [
        {
          "internalType": "uint256",
          "name": "_totalRewardsWei",
          "type": "uint256"
        },
        {
          "internalType": "uint256",
          "name": "_totalInflationRewardsWei",
          "type": "uint256"
        },
        {
          "internalType": "uint256",
          "name": "_initialisedRewardsWei",
          "type": "uint256"
        },
        {
          "internalType": "uint256",
          "name": "_claimedRewardsWei",
          "type": "uint256"
        },
        {
          "internalType": "uint256",
          "name": "_burnedRewardsWei",
          "type": "uint256"
        }
      ],
      "stateMutability": "view",
      "type": "function"
    },
    {
      "inputs": [],
      "name": "getRewardOffersManagerList",
      "outputs": [
        {
          "internalType": "address[]",
          "name": "",
          "type": "address[]"
        }
      ],
      "stateMutability": "view",
      "type": "function"
    },
    {
      "inputs": [
        {
          "internalType": "address",
          "name": "_rewardOwner",
          "type": "address"
        }
      ],
      "name": "getStateOfRewards",
      "outputs": [
        {
          "components": [
            {
              "internalType": "uint24",
              "name": "rewardEpochId",
              "type": "uint24"
            },
            {
              "internalType": "bytes20",
              "name": "beneficiary",
              "type": "bytes20"
            },
            {
              "internalType": "uint120",
              "name": "amount",
              "type": "uint120"
            },
            {
              "internalType": "enum IRewardManager.ClaimType",
              "name": "claimType",
              "type": "uint8"
            },
            {
              "internalType": "bool",
              "name": "initialised",
              "type": "bool"
            }
          ],
          "internalType": "struct IRewardManager.RewardState[][]",
          "name": "_rewardStates",
          "type": "tuple[][]"
        }
      ],
      "stateMutability": "view",
      "type": "function"
    },
    {
      "inputs": [
        {
          "internalType": "address",
          "name": "_rewardOwner",
          "type": "address"
        },
        {
          "internalType": "uint24",
          "name": "_rewardEpochId",
          "type": "uint24"
        }
      ],
      "name": "getStateOfRewardsAt",
      "outputs": [
        {
          "components": [
            {
              "internalType": "uint24",
              "name": "rewardEpochId",
              "type": "uint24"
            },
            {
              "internalType": "bytes20",
              "name": "beneficiary",
              "type": "bytes20"
            },
            {
              "internalType": "uint120",
              "name": "amount",
              "type": "uint120"
            },
            {
              "internalType": "enum IRewardManager.ClaimType",
              "name": "claimType",
              "type": "uint8"
            },
            {
              "internalType": "bool",
              "name": "initialised",
              "type": "bool"
            }
          ],
          "internalType": "struct IRewardManager.RewardState[]",
          "name": "_rewardStates",
          "type": "tuple[]"
        }
      ],
      "stateMutability": "view",
      "type": "function"
    },
    {
      "inputs": [],
      "name": "getTokenPoolSupplyData",
      "outputs": [
        {
          "internalType": "uint256",
          "name": "_lockedFundsWei",
          "type": "uint256"
        },
        {
          "internalType": "uint256",
          "name": "_totalInflationAuthorizedWei",
          "type": "uint256"
        },
        {
          "internalType": "uint256",
          "name": "_totalClaimedWei",
          "type": "uint256"
        }
      ],
      "stateMutability": "view",
      "type": "function"
    },
    {
      "inputs": [],
      "name": "getTotals",
      "outputs": [
        {
          "internalType": "uint256",
          "name": "_totalRewardsWei",
          "type": "uint256"
        },
        {
          "internalType": "uint256",
          "name": "_totalInflationRewardsWei",
          "type": "uint256"
        },
        {
          "internalType": "uint256",
          "name": "_totalClaimedWei",
          "type": "uint256"
        },
        {
          "internalType": "uint256",
          "name": "_totalBurnedWei",
          "type": "uint256"
        }
      ],
      "stateMutability": "view",
      "type": "function"
    },
    {
      "inputs": [
        {
          "internalType": "address",
          "name": "_beneficiary",
          "type": "address"
        },
        {
          "internalType": "uint24",
          "name": "_rewardEpochId",
          "type": "uint24"
        },
        {
          "internalType": "enum IRewardManager.ClaimType",
          "name": "_claimType",
          "type": "uint8"
        }
      ],
      "name": "getUnclaimedRewardState",
      "outputs": [
        {
          "components": [
            {
              "internalType": "bool",
              "name": "initialised",
              "type": "bool"
            },
            {
              "internalType": "uint120",
              "name": "amount",
              "type": "uint120"
            },
            {
              "internalType": "uint128",
              "name": "weight",
              "type": "uint128"
            }
          ],
          "internalType": "struct IRewardManager.UnclaimedRewardState",
          "name": "_state",
          "type": "tuple"
        }
      ],
      "stateMutability": "view",
      "type": "function"
    },
    {
      "inputs": [],
      "name": "governance",
      "outputs": [
        {
          "internalType": "address",
          "name": "",
          "type": "address"
        }
      ],
      "stateMutability": "view",
      "type": "function"
    },
    {
      "inputs": [],
      "name": "governanceSettings",
      "outputs": [
        {
          "internalType": "contract IGovernanceSettings",
          "name": "",
          "type": "address"
        }
      ],
      "stateMutability": "view",
      "type": "function"
    },
    {
      "inputs": [
        {
          "internalType": "contract IGovernanceSettings",
          "name": "_governanceSettings",
          "type": "address"
        },
        {
          "internalType": "address",
          "name": "_initialGovernance",
          "type": "address"
        }
      ],
      "name": "initialise",
      "outputs": [],
      "stateMutability": "nonpayable",
      "type": "function"
    },
    {
      "inputs": [
        {
          "components": [
            {
              "internalType": "bytes32[]",
              "name": "merkleProof",
              "type": "bytes32[]"
            },
            {
              "components": [
                {
                  "internalType": "uint24",
                  "name": "rewardEpochId",
                  "type": "uint24"
                },
                {
                  "internalType": "bytes20",
                  "name": "beneficiary",
                  "type": "bytes20"
                },
                {
                  "internalType": "uint120",
                  "name": "amount",
                  "type": "uint120"
                },
                {
                  "internalType": "enum IRewardManager.ClaimType",
                  "name": "claimType",
                  "type": "uint8"
                }
              ],
              "internalType": "struct IRewardManager.RewardClaim",
              "name": "body",
              "type": "tuple"
            }
          ],
          "internalType": "struct IRewardManager.RewardClaimWithProof[]",
          "name": "_proofs",
          "type": "tuple[]"
        }
      ],
      "name": "initialiseWeightBasedClaims",
      "outputs": [],
      "stateMutability": "nonpayable",
      "type": "function"
    },
    {
      "inputs": [
        {
          "internalType": "address",
          "name": "_address",
          "type": "address"
        }
      ],
      "name": "isExecutor",
      "outputs": [
        {
          "internalType": "bool",
          "name": "",
          "type": "bool"
        }
      ],
      "stateMutability": "view",
      "type": "function"
    },
    {
      "inputs": [],
      "name": "newRewardManager",
      "outputs": [
        {
          "internalType": "address",
          "name": "",
          "type": "address"
        }
      ],
      "stateMutability": "view",
      "type": "function"
    },
    {
      "inputs": [
        {
          "internalType": "uint256",
          "name": "rewardEpochId",
          "type": "uint256"
        }
      ],
      "name": "noOfInitialisedWeightBasedClaims",
      "outputs": [
        {
          "internalType": "uint256",
          "name": "",
          "type": "uint256"
        }
      ],
      "stateMutability": "view",
      "type": "function"
    },
    {
      "inputs": [],
      "name": "oldRewardManager",
      "outputs": [
        {
          "internalType": "address",
          "name": "",
          "type": "address"
        }
      ],
      "stateMutability": "view",
      "type": "function"
    },
    {
      "inputs": [],
      "name": "pChainStakeMirror",
      "outputs": [
        {
          "internalType": "contract IPChainStakeMirror",
          "name": "",
          "type": "address"
        }
      ],
      "stateMutability": "view",
      "type": "function"
    },
    {
      "inputs": [],
      "name": "pChainStakeMirrorEnabled",
      "outputs": [
        {
          "internalType": "bool",
          "name": "",
          "type": "bool"
        }
      ],
      "stateMutability": "view",
      "type": "function"
    },
    {
      "inputs": [],
      "name": "productionMode",
      "outputs": [
        {
          "internalType": "bool",
          "name": "",
          "type": "bool"
        }
      ],
      "stateMutability": "view",
      "type": "function"
    },
    {
      "inputs": [
        {
          "internalType": "uint24",
          "name": "_rewardEpochId",
          "type": "uint24"
        },
        {
          "internalType": "bool",
          "name": "_inflation",
          "type": "bool"
        }
      ],
      "name": "receiveRewards",
      "outputs": [],
      "stateMutability": "payable",
      "type": "function"
    },
    {
      "inputs": [],
      "name": "rewardManagerId",
      "outputs": [
        {
          "internalType": "uint256",
          "name": "",
          "type": "uint256"
        }
      ],
      "stateMutability": "view",
      "type": "function"
    },
    {
      "inputs": [],
      "name": "setInitialRewardData",
      "outputs": [],
      "stateMutability": "nonpayable",
      "type": "function"
    },
    {
      "inputs": [
        {
          "internalType": "address",
          "name": "_newRewardManager",
          "type": "address"
        }
      ],
      "name": "setNewRewardManager",
      "outputs": [],
      "stateMutability": "nonpayable",
      "type": "function"
    },
    {
      "inputs": [
        {
          "internalType": "address[]",
          "name": "_rewardOffersManagerList",
          "type": "address[]"
        }
      ],
      "name": "setRewardOffersManagerList",
      "outputs": [],
      "stateMutability": "nonpayable",
      "type": "function"
    },
    {
      "inputs": [],
      "name": "switchToProductionMode",
      "outputs": [],
      "stateMutability": "nonpayable",
      "type": "function"
    },
    {
      "inputs": [
        {
          "internalType": "bytes4",
          "name": "selector",
          "type": "bytes4"
        }
      ],
      "name": "timelockedCalls",
      "outputs": [
        {
          "internalType": "uint256",
          "name": "allowedAfterTimestamp",
          "type": "uint256"
        },
        {
          "internalType": "bytes",
          "name": "encodedCall",
          "type": "bytes"
        }
      ],
      "stateMutability": "view",
      "type": "function"
    },
    {
      "inputs": [
        {
          "internalType": "bytes32[]",
          "name": "_contractNameHashes",
          "type": "bytes32[]"
        },
        {
          "internalType": "address[]",
          "name": "_contractAddresses",
          "type": "address[]"
        }
      ],
      "name": "updateContractAddresses",
      "outputs": [],
      "stateMutability": "nonpayable",
      "type": "function"
    },
    {
      "inputs": [],
      "name": "wNat",
      "outputs": [
        {
          "internalType": "contract IWNat",
          "name": "",
          "type": "address"
        }
      ],
      "stateMutability": "view",
      "type": "function"
    }
  ],
  "bytecode": "0x60c06040523480156200001157600080fd5b50604051620061ba380380620061ba833981016040819052620000349162000233565b828585620000438282620000a1565b506200006f9050817f714f205b2abd25bef1d06a1af944e38c113fe6160375c4e1d6d5cf28848e771955565b506001600355600b805462ffffff191662ffffff1790556001600160a01b0390911660a05260805250620002a7915050565b600054600160a01b900460ff1615620001015760405162461bcd60e51b815260206004820152601460248201527f696e697469616c6973656420213d2066616c736500000000000000000000000060448201526064015b60405180910390fd5b6001600160a01b038216620001595760405162461bcd60e51b815260206004820152601860248201527f676f7665726e616e63652073657474696e6773207a65726f00000000000000006044820152606401620000f8565b6001600160a01b038116620001a45760405162461bcd60e51b815260206004820152601060248201526f5f676f7665726e616e6365207a65726f60801b6044820152606401620000f8565b600080546001600160a01b038481166001600160a81b031990921691909117600160a01b17909155600180549183166001600160a01b0319909216821790556040519081527f9789733827840833afc031fb2ef9ab6894271f77bad2085687cf4ae5c7bee4db9060200160405180910390a15050565b6001600160a01b03811681146200023057600080fd5b50565b600080600080600060a086880312156200024c57600080fd5b855162000259816200021a565b60208701519095506200026c816200021a565b60408701519094506200027f816200021a565b606087015190935062000292816200021a565b80925050608086015190509295509295909350565b60805160a051615ed1620002e96000396000818161046d01528181611bb80152611c260152600081816103e6015281816124b10152612eed0152615ed16000f3fe6080604052600436106102ff5760003560e01c80638e46778411610190578063d8def818116100dc578063ea28edad11610095578063f5a983831161006f578063f5a9838314610a36578063faae7fc914610a4b578063fbde354d14610a6b578063fd95b2e014610a8b57600080fd5b8063ea28edad146109d4578063ef88bf13146109e9578063f1367b7f14610a0957600080fd5b8063d8def81814610895578063debfda30146108c6578063deea13e7146108e6578063df339638146108fb578063e17f212e14610993578063e7dea8e6146109b457600080fd5b8063af04cd3b11610149578063b753801d11610123578063b753801d14610815578063c4db961914610835578063d6ac4f7214610855578063d6c1dbee1461087557600080fd5b8063af04cd3b146107cb578063b006b4e3146107e0578063b00c0b76146107f557600080fd5b80638e467784146106e55780639a3410bc146107055780639edbf007146107215780639ee5de3314610741578063a02e86e514610797578063a71de676146107aa57600080fd5b806351b42b001161024f57806367fc4029116102085780637a17a34d116101e25780637a17a34d146106495780637bf756c91461066b57806384e10a901461068c5780638e33aba5146106c557600080fd5b806367fc4029146105d257806370562697146105f257806374e6310e1461061b57600080fd5b806351b42b00146105145780635267a15d146105295780635aa6e6751461055d5780635ff270791461057257806362354e031461059257806362d9c89a146105b257600080fd5b80632ae07e9a116102bc57806336300be21161029657806336300be21461045b5780633ce7522a146104a7578063470ce087146104c75780634b6e018d146104e757600080fd5b80632ae07e9a146103d45780632dafdbbf1461041657806330c40bc91461044657600080fd5b806302fb0c5e14610304578063064be5321461033a57806306c7e2431461035b5780630f15f4c01461038857806315f253fb1461039f5780631de56098146103bf575b600080fd5b34801561031057600080fd5b5060185461032590600160a81b900460ff1681565b60405190151581526020015b60405180910390f35b34801561034657600080fd5b5060185461032590600160a01b900460ff1681565b34801561036757600080fd5b5061037b610376366004614f7f565b610aa0565b604051610331919061504d565b34801561039457600080fd5b5061039d610b6d565b005b3480156103ab57600080fd5b5061039d6103ba3660046150da565b610b8a565b3480156103cb57600080fd5b5061039d610e1f565b3480156103e057600080fd5b506104087f000000000000000000000000000000000000000000000000000000000000000081565b604051908152602001610331565b34801561042257600080fd5b5061042b610fa1565b60408051938452602084019290925290820152606001610331565b34801561045257600080fd5b50610408610fc0565b34801561046757600080fd5b5061048f7f000000000000000000000000000000000000000000000000000000000000000081565b6040516001600160a01b039091168152602001610331565b3480156104b357600080fd5b5061039d6104c236600461515e565b610fcf565b3480156104d357600080fd5b5061039d6104e236600461519f565b610fea565b3480156104f357600080fd5b506104086105023660046151bc565b600e6020526000908152604090205481565b34801561052057600080fd5b5061039d6110d1565b34801561053557600080fd5b507f714f205b2abd25bef1d06a1af944e38c113fe6160375c4e1d6d5cf28848e77195461048f565b34801561056957600080fd5b5061048f6110e8565b34801561057e57600080fd5b5061039d61058d3660046151d5565b61117f565b34801561059e57600080fd5b5060005461048f906001600160a01b031681565b3480156105be57600080fd5b5060165461048f906001600160a01b031681565b3480156105de57600080fd5b5061039d6105ed3660046151d5565b6113ff565b3480156105fe57600080fd5b506106076114e0565b60405162ffffff9091168152602001610331565b34801561062757600080fd5b5061063b6106363660046151d5565b6114ea565b60405161033192919061524f565b34801561065557600080fd5b5061065e61158f565b6040516103319190615270565b34801561067757600080fd5b5060165461032590600160a01b900460ff1681565b34801561069857600080fd5b50601154601254600f54601054604080519485526020850193909352918301526060820152608001610331565b3480156106d157600080fd5b506104086106e03660046152bf565b6115f4565b3480156106f157600080fd5b5060155461048f906001600160a01b031681565b34801561071157600080fd5b50600b546106079062ffffff1681565b34801561072d57600080fd5b5060175461048f906001600160a01b031681565b34801561074d57600080fd5b5061076161075c36600461535b565b61172a565b604080518251151581526020808401516001600160781b031690820152918101516001600160801b031690820152606001610331565b61039d6107a53660046153a2565b6117e7565b3480156107b657600080fd5b50600b546301000000900462ffffff16610408565b3480156107d757600080fd5b5061040861194d565b3480156107ec57600080fd5b5061039d611957565b34801561080157600080fd5b5061039d6108103660046154ad565b61199b565b34801561082157600080fd5b5061039d61083036600461515e565b611a76565b34801561084157600080fd5b5060135461048f906001600160a01b031681565b34801561086157600080fd5b5061040861087036600461519f565b611af0565b34801561088157600080fd5b5061039d6108903660046151bc565b611b09565b3480156108a157600080fd5b506108aa611dfe565b6040805162ffffff938416815292909116602083015201610331565b3480156108d257600080fd5b506103256108e136600461519f565b611e6f565b3480156108f257600080fd5b50610408611ef2565b34801561090757600080fd5b5061096b610916366004615565565b62ffffff16600090815260066020908152604080832054600783528184205460088452828520546009855283862054600a90955292909420546001600160781b03918216959482169492821693821692911690565b604080519586526020860194909452928401919091526060830152608082015260a001610331565b34801561099f57600080fd5b5060005461032590600160a81b900460ff1681565b3480156109c057600080fd5b5060185461048f906001600160a01b031681565b3480156109e057600080fd5b5061039d611f60565b3480156109f557600080fd5b5061039d610a04366004615582565b611ffb565b348015610a1557600080fd5b50610a29610a2436600461519f565b612161565b60405161033191906155b0565b348015610a4257600080fd5b5061039d612259565b348015610a5757600080fd5b5060145461048f906001600160a01b031681565b348015610a7757600080fd5b5060195461048f906001600160a01b031681565b348015610a9757600080fd5b5061039d61231f565b6060610aab82612363565b610ac183610ab76123b3565b62ffffff166123ea565b62ffffff168262ffffff161015610b115760405162461bcd60e51b815260206004820152600f60248201526e185b1c9958591e4818db185a5b5959608a1b60448201526064015b60405180910390fd5b610b1a82612416565b610b5a5760405162461bcd60e51b8152602060048201526011602482015270726577617264732068617368207a65726f60781b6044820152606401610b08565b610b648383612494565b90505b92915050565b610b75612b6c565b6018805460ff60a81b1916600160a81b179055565b610b92612bc6565b610b9a612c1f565b610ba2612c87565b60005b84811015610bee57610bdc868683818110610bc257610bc261563f565b9050602002016020810190610bd7919061519f565b612cb1565b80610be68161566b565b915050610ba5565b50610bf883612363565b60135460405163712441d960e11b815260009182916001600160a01b039091169063e24883b290610c319033908b908b90600401615684565b600060405180830381865afa158015610c4e573d6000803e3d6000fd5b505050506040513d6000823e601f3d908101601f19168201604052610c769190810190615744565b915091506000610c846123b3565b9050610c94600080878785612cf8565b5060009050805b88811015610dd45760008a8a83818110610cb757610cb761563f565b9050602002016020810190610ccc919061519f565b90506000868381518110610ce257610ce261563f565b602002602001015190506000610cfc83838d896000612ea9565b6001600160781b03169050816001600160a01b0316836001600160a01b031614610d4457610d2e82838d896001612ea9565b610d41906001600160781b03168261578a565b90505b86811015610d945760405162461bcd60e51b815260206004820152601860248201527f636c61696d656420616d6f756e7420746f6f20736d616c6c00000000000000006044820152606401610b08565b610d9e818661578a565b9450610daa878261579d565b90508015610dbe57610dbe82826001613143565b5050508080610dcc9061566b565b915050610c9b565b5080600f6000828254610de7919061578a565b90915550610e02905033610dfb8a866157b0565b6000613143565b50505050610e106001600355565b610e18613244565b5050505050565b600054600160b01b900460ff1680610e415750600054600160a81b900460ff16155b15610f9457610e4e61328b565b601854600160a81b900460ff16158015610e745750600b54600160301b900462ffffff16155b8015610e8c5750600b546301000000900462ffffff16155b610ecc5760405162461bcd60e51b81526020600482015260116024820152706e6f7420696e697469616c20737461746560781b6044820152606401610b08565b610ed46132c3565b610edf9060016157c7565b600b60066101000a81548162ffffff021916908362ffffff160217905550601460009054906101000a90046001600160a01b03166001600160a01b031663aec84ab66040518163ffffffff1660e01b8152600401602060405180830381865afa158015610f50573d6000803e3d6000fd5b505050506040513d601f19601f82011682018060405250810190610f7491906157ea565b600b60036101000a81548162ffffff021916908362ffffff160217905550565b610f9f600036613331565b565b601154601054600f546000918291610fb9919061578a565b9050909192565b6000610fca61347d565b905090565b610fe46000808484610fdf6123b3565b612cf8565b50505050565b600054600160b01b900460ff168061100c5750600054600160a81b900460ff16155b156110c35761101961328b565b6019546001600160a01b0316156110605760405162461bcd60e51b815260206004820152600b60248201526a185b1c9958591e481cd95d60aa1b6044820152606401610b08565b6001600160a01b0381166110a55760405162461bcd60e51b815260206004820152600c60248201526b61646472657373207a65726f60a01b6044820152606401610b08565b601980546001600160a01b0319166001600160a01b03831617905550565b6110ce600036613331565b50565b6110d9612b6c565b6018805460ff60a81b19169055565b60008054600160a81b900460ff1661110a57506001546001600160a01b031690565b60008054906101000a90046001600160a01b03166001600160a01b031663732524946040518163ffffffff1660e01b8152600401602060405180830381865afa15801561115b573d6000803e3d6000fd5b505050506040513d601f19601f82011682018060405250810190610fca9190615807565b61118833611e6f565b6111c45760405162461bcd60e51b815260206004820152600d60248201526c37b7363c9032bc32b1baba37b960991b6044820152606401610b08565b6001600160e01b031981166000908152600260205260408120805490910361122e5760405162461bcd60e51b815260206004820152601a60248201527f74696d656c6f636b3a20696e76616c69642073656c6563746f720000000000006044820152606401610b08565b805442101561127f5760405162461bcd60e51b815260206004820152601960248201527f74696d656c6f636b3a206e6f7420616c6c6f77656420796574000000000000006044820152606401610b08565b600081600101805461129090615824565b80601f01602080910402602001604051908101604052809291908181526020018280546112bc90615824565b80156113095780601f106112de57610100808354040283529160200191611309565b820191906000526020600020905b8154815290600101906020018083116112ec57829003601f168201915b505050506001600160e01b031985166000908152600260205260408120818155929350905061133b6001830182614f0f565b50506000805460ff60b01b1916600160b01b1781556040513090611360908490615858565b6000604051808303816000865af19150503d806000811461139d576040519150601f19603f3d011682016040523d82523d6000602084013e6113a2565b606091505b50506000805460ff60b01b19169055604080516001600160e01b0319871681524260208201529192507fa7326b57fc9cfe267aaea5e7f0b01757154d265620a0585819416ee9ddd2c438910160405180910390a1610fe48161349a565b611407612b6c565b6001600160e01b03198116600090815260026020526040812054900361146f5760405162461bcd60e51b815260206004820152601a60248201527f74696d656c6f636b3a20696e76616c69642073656c6563746f720000000000006044820152606401610b08565b604080516001600160e01b0319831681524260208201527f7735b2391c38a81419c513e30ca578db7158eadd7101511b23e221c654d19cf8910160405180910390a16001600160e01b031981166000908152600260205260408120818155906114db6001830182614f0f565b505050565b6000610fca6132c3565b6002602052600090815260409020805460018201805491929161150c90615824565b80601f016020809104026020016040519081016040528092919081815260200182805461153890615824565b80156115855780601f1061155a57610100808354040283529160200191611585565b820191906000526020600020905b81548152906001019060200180831161156857829003601f168201915b5050505050905082565b6060601a6000018054806020026020016040519081016040528092919081815260200182805480156115ea57602002820191906000526020600020905b81546001600160a01b031681526001909101906020018083116115cc575b5050505050905090565b60006115fe612bc6565b611606612c1f565b61160e612c87565b868661161a82826134b7565b61162388612cb1565b61162c87612363565b60006116366123b3565b905060006116478b8b898986612cf8565b6001600160781b03909116955090506116648b8b8b856000612ea9565b611677906001600160781b03168661578a565b94506001600160781b038116156116e157806001600160781b0316601060008282546116a3919061578a565b909155505060405161dead906001600160781b03831680156108fc02916000818181858888f193505050501580156116df573d6000803e3d6000fd5b505b841561170a5784600f60008282546116f9919061578a565b9091555061170a90508a868a613143565b505050506117186001600355565b611720613244565b9695505050505050565b604080516060810182526000808252602080830182905282840182905262ffffff86168252600c9052918220909183600481111561176a5761176a614fb8565b600481111561177b5761177b614fb8565b8152602080820192909252604090810160009081206001600160a01b038816825283528190208151606081018352905460ff81161515825261010081046001600160781b031693820193909352600160801b9092046001600160801b03169082015290505b9392505050565b6117ef61353a565b6117f7612c1f565b6117ff6132c3565b62ffffff168262ffffff1610156118585760405162461bcd60e51b815260206004820152601b60248201527f7265776172642065706f636820696420696e20746865207061737400000000006044820152606401610b08565b61186134613598565b62ffffff83166000908152600660205260408120805490919061188e9084906001600160781b0316615874565b92506101000a8154816001600160781b0302191690836001600160781b0316021790555034601160008282546118c4919061578a565b90915550508015611941576118d834613598565b62ffffff8316600090815260076020526040812080549091906119059084906001600160781b0316615874565b92506101000a8154816001600160781b0302191690836001600160781b03160217905550346012600082825461193b919061578a565b90915550505b611949613244565b5050565b6000610fca6135d0565b600054600160b01b900460ff16806119795750600054600160a81b900460ff16155b15610f945761198661328b565b6016805460ff60a01b1916600160a01b179055565b7f714f205b2abd25bef1d06a1af944e38c113fe6160375c4e1d6d5cf28848e7719546001600160a01b0316336001600160a01b031614611a145760405162461bcd60e51b815260206004820152601460248201527337b7363c9030b2323932b9b9903ab83230ba32b960611b6044820152606401610b08565b611a6c611a4883836040518060400160405280600e81526020016d20b2323932b9b9aab83230ba32b960911b8152506135ef565b7f714f205b2abd25bef1d06a1af944e38c113fe6160375c4e1d6d5cf28848e771955565b61194982826136ca565b600054600160b01b900460ff1680611a985750600054600160a81b900460ff16155b15611ae557611aa561328b565b611949828280806020026020016040519081016040528093929190818152602001838360200280828437600092019190915250601a939250506138ec9050565b611949600036613331565b6000611afe82610ab76123b3565b62ffffff1692915050565b6014546001600160a01b0316331480611b2c57506019546001600160a01b031633145b611b685760405162461bcd60e51b815260206004820152600d60248201526c6f6e6c79206d616e616765727360981b6044820152606401610b08565b600b546301000000900462ffffff168114611bb65760405162461bcd60e51b815260206004820152600e60248201526d1ddc9bdb99c8195c1bd8da081a5960921b6044820152606401610b08565b7f00000000000000000000000000000000000000000000000000000000000000006001600160a01b031615801590611c0b5750600b54611c0390600160301b900462ffffff1660326157c7565b62ffffff1681105b15611c8b57604051636b60edf760e11b8152600481018290527f00000000000000000000000000000000000000000000000000000000000000006001600160a01b03169063d6c1dbee90602401600060405180830381600087803b158015611c7257600080fd5b505af1158015611c86573d6000803e3d6000fd5b505050505b611c9e611c9982600161578a565b6138ff565b600b805462ffffff9290921663010000000265ffffff0000001990921691909117905560405181907f5d05c64f281304391697cf987812e1a736413a062a9bdf39af4102209eb6fa5890600090a26000818152600a60209081526040808320546009909252822054611d1c916001600160781b039081169116615874565b600083815260066020526040902054611d3e91906001600160781b0316615894565b90506001600160781b0381161561194957806001600160781b031660106000828254611d6a919061578a565b90915550506000828152600a602052604081208054839290611d969084906001600160781b0316615874565b92506101000a8154816001600160781b0302191690836001600160781b0316021790555061dead6001600160a01b03166108fc826001600160781b03169081150290604051600060405180830381858888f193505050501580156114db573d6000803e3d6000fd5b600080611e096123b3565b9150611e1482612416565b611e605760405162461bcd60e51b815260206004820152601f60248201527f6e6f2065706f6368207769746820636c61696d61626c652072657761726473006044820152606401610b08565b611e698261392f565b90509091565b60008054600160a01b900460ff168015610b675750600054604051630debfda360e41b81526001600160a01b0384811660048301529091169063debfda3090602401602060405180830381865afa158015611ece573d6000803e3d6000fd5b505050506040513d601f19601f82011682018060405250810190610b6791906158b4565b6017546040805163deea13e760e01b815290516000926001600160a01b03169163deea13e79160048083019260209291908290030181865afa158015611f3c573d6000803e3d6000fd5b505050506040513d601f19601f82011682018060405250810190610fca91906158d1565b611f68612b6c565b600b5462ffffff90811614611fb15760405162461bcd60e51b815260206004820152600f60248201526e185b1c9958591e48195b98589b1959608a1b6044820152606401610b08565b611fb96132c3565b600b805462ffffff191662ffffff9290921691821790556040517f1cfb844c44f9325fc9ad6cc6191a4a24b0415137fe300b6c9071523a253f7a0890600090a2565b600054600160a01b900460ff161561204c5760405162461bcd60e51b8152602060048201526014602482015273696e697469616c6973656420213d2066616c736560601b6044820152606401610b08565b6001600160a01b0382166120a25760405162461bcd60e51b815260206004820152601860248201527f676f7665726e616e63652073657474696e6773207a65726f00000000000000006044820152606401610b08565b6001600160a01b0381166120eb5760405162461bcd60e51b815260206004820152601060248201526f5f676f7665726e616e6365207a65726f60801b6044820152606401610b08565b600080546001600160a01b038481166001600160a81b031990921691909117600160a01b17909155600180549183166001600160a01b0319909216821790556040519081527f9789733827840833afc031fb2ef9ab6894271f77bad2085687cf4ae5c7bee4db9060200160405180910390a15050565b6060600061217183610ab76123b3565b905061217c81612416565b1561225357600061218c8261392f565b905061219882826158ea565b6121a39060016157c7565b62ffffff166001600160401b038111156121bf576121bf6153d0565b6040519080825280602002602001820160405280156121f257816020015b60608152602001906001900390816121dd5790505b509250815b8162ffffff168162ffffff1611612250576122128582612494565b8461221d85846158ea565b62ffffff16815181106122325761223261563f565b6020026020010181905250808061224890615906565b9150506121f7565b50505b50919050565b612261612b6c565b600054600160a81b900460ff16156122bb5760405162461bcd60e51b815260206004820152601a60248201527f616c726561647920696e2070726f64756374696f6e206d6f64650000000000006044820152606401610b08565b600180546001600160a01b031916905560008054600160a81b60ff60a81b198216179091556040516001600160a01b0390911681527f83af113638b5422f9e977cebc0aaf0eaf2188eb9a8baae7f9d46c42b33a1560c9060200160405180910390a1565b600054600160b01b900460ff16806123415750600054600160a81b900460ff16155b15610f945761234e61328b565b6018805460ff60a01b1916600160a01b179055565b61236b6132c3565b62ffffff168162ffffff16106110ce5760405162461bcd60e51b815260206004820152600d60248201526c6e6f7420636c61696d61626c6560981b6044820152606401610b08565b600b54600090610fca90611c999062ffffff166123e56123d161347d565b600b546301000000900462ffffff16613989565b613989565b6001600160a01b038216600090815260046020526040812054610b6490611c999062ffffff1684613989565b601454604051633238037160e11b815262ffffff8316600482015260009182916001600160a01b039091169063647006e290602401602060405180830381865afa158015612468573d6000803e3d6000fd5b505050506040513d601f19601f8201168201806040525081019061248c91906158d1565b141592915050565b60145460405163c581e79160e01b815262ffffff831660048201527f000000000000000000000000000000000000000000000000000000000000000060248201526060916000916001600160a01b039091169063c581e79190604401602060405180830381865afa15801561250d573d6000803e3d6000fd5b505050506040513d601f19601f8201168201806040525081019061253191906158d1565b9050600061253e8461399f565b9050600061258a60405180610100016040528060608152602001606081526020016060815260200160608152602001600081526020016060815260200160608152602001600081525090565b6016546001600160a01b031615612628576016546040516325f48f9960e11b81526001600160a01b0390911690634be91f32906125cd908a908790600401615928565b600060405180830381865afa1580156125ea573d6000803e3d6000fd5b505050506040513d6000823e601f3d908101601f1916820160405261261291908101906159b2565b602083015280825251612625908361578a565b91505b6018546001600160a01b0316156126ca576018546040516325f48f9960e11b81526001600160a01b0390911690634be91f329061266b908a908790600401615928565b600060405180830381865afa158015612688573d6000803e3d6000fd5b505050506040513d6000823e601f3d908101601f191682016040526126b09190810190615a6c565b606083015260408201819052516126c7908361578a565b91505b60175460405163277166bf60e11b81526001600160a01b0390911690634ee2cd7e906126fc908a908790600401615928565b602060405180830381865afa158015612719573d6000803e3d6000fd5b505050506040513d601f19601f8201168201806040525081019061273d91906158d1565b60808201819052156128c35760175460405163ed475a7960e01b81526001600160a01b039091169063ed475a799061277b908a908790600401615928565b600060405180830381865afa158015612798573d6000803e3d6000fd5b505050506040513d6000823e601f3d908101601f191682016040526127c09190810190615ab8565b505060c083015260a08201819052516127d9908361578a565b91506000805b8260c0015151811015612829578260c0015181815181106128025761280261563f565b602002602001015182612815919061578a565b9150806128218161566b565b9150506127df565b506127108110156128c157601754604051634181ad4160e11b81526001600160a01b03909116906383035a8290612866908b908890600401615928565b602060405180830381865afa158015612883573d6000803e3d6000fd5b505050506040513d601f19601f820116820180604052508101906128a791906158d1565b60e08301819052156128c1576128be60018461578a565b92505b505b62ffffff86166000908152600e6020526040902054841115826001600160401b038111156128f3576128f36153d0565b60405190808252806020026020018201604052801561294c57816020015b6040805160a0810182526000808252602080830182905292820181905260608201819052608082015282526000199092019101816129115790505b5095506000808360e0015111156129985761296f8860028b8660e0015186613a3e565b878261297a8161566b565b93508151811061298c5761298c61563f565b60200260200101819052505b60005b8360a0015151811015612a4557612a0a8960028660a0015184815181106129c4576129c461563f565b6020026020010151612a048860c0015186815181106129e5576129e561563f565b60200260200101516127108a60800151613b499092919063ffffffff16565b87613a3e565b8883612a158161566b565b945081518110612a2757612a2761563f565b60200260200101819052508080612a3d9061566b565b91505061299b565b5060005b835151811015612ad957612a9e89600386600001518481518110612a6f57612a6f61563f565b602002602001015160601c87602001518581518110612a9057612a9061563f565b602002602001015187613a3e565b8883612aa98161566b565b945081518110612abb57612abb61563f565b60200260200101819052508080612ad19061566b565b915050612a49565b5060005b836040015151811015612b5f57612b2489600486604001518481518110612b0657612b0661563f565b602002602001015187606001518581518110612a9057612a9061563f565b8883612b2f8161566b565b945081518110612b4157612b4161563f565b60200260200101819052508080612b579061566b565b915050612add565b5050505050505092915050565b612b746110e8565b6001600160a01b0316336001600160a01b031614610f9f5760405162461bcd60e51b815260206004820152600f60248201526e6f6e6c7920676f7665726e616e636560881b6044820152606401610b08565b601854600160a81b900460ff16610f9f5760405162461bcd60e51b815260206004820152601a60248201527f726577617264206d616e616765722064656163746976617465640000000000006044820152606401610b08565b600034612c2a6135d0565b612c34919061578a565b90504781811115612c775761dead6108fc612c4f848461579d565b6040518115909202916000818181858888f193505050501580156114db573d6000803e3d6000fd5b8181101561194957611949615b2b565b600260035403612caa57604051633ee5aeb560e01b815260040160405180910390fd5b6002600355565b6001600160a01b0381166110ce5760405162461bcd60e51b815260206004820152600e60248201526d726563697069656e74207a65726f60901b6044820152606401610b08565b60008060005b84811015612e9e578362ffffff16868683818110612d1e57612d1e61563f565b9050602002810190612d309190615b41565b612d41906040810190602001615565565b62ffffff161015612d8b5760405162461bcd60e51b81526020600482015260146024820152731c995dd85c9908195c1bd8da08195e1c1a5c995960621b6044820152606401610b08565b6000868683818110612d9f57612d9f61563f565b9050602002810190612db19190615b41565b612dc29060a0810190608001615b57565b90506000816004811115612dd857612dd8614fb8565b1480612df557506001816004811115612df357612df3614fb8565b145b15612e5f576001600160a01b03891615612e5a57600080612e3a8b8b8b8b88818110612e2357612e2361563f565b9050602002810190612e359190615b41565b613c6f565b9092509050612e498287615874565b9550612e558186615874565b945050505b612e8b565b612e8b878784818110612e7457612e7461563f565b9050602002810190612e869190615b41565b61412a565b5080612e968161566b565b915050612cfe565b509550959350505050565b600080612ebb878562ffffff166123ea565b9050805b8562ffffff168162ffffff16116130cb5760145460405163c581e79160e01b815262ffffff831660048201527f000000000000000000000000000000000000000000000000000000000000000060248201526000916001600160a01b03169063c581e79190604401602060405180830381865afa158015612f44573d6000803e3d6000fd5b505050506040513d601f19601f82011682018060405250810190612f6891906158d1565b905080600003612fbb57612f7b82612416565b612fbb5760405162461bcd60e51b8152602060048201526011602482015270726577617264732068617368207a65726f60781b6044820152606401610b08565b62ffffff82166000908152600e602052604081205482111590612fdd8461399f565b90506000612fee8c8c8785876143b5565b612ff89082615874565b905087613055576016546001600160a01b03161561302a5761301d8c8c878587614623565b6130279082615874565b90505b6018546001600160a01b031615613055576130488c8c87858761471e565b6130529082615874565b90505b62ffffff8516600090815260096020526040812080548392906130829084906001600160781b0316615874565b92506101000a8154816001600160781b0302191690836001600160781b0316021790555080876130b29190615874565b96505050505080806130c390615906565b915050612ebf565b506130d78560016157c7565b6001600160a01b03881660009081526004602052604090205462ffffff918216911610156131395761310a8560016157c7565b6001600160a01b0388166000908152600460205260409020805462ffffff191662ffffff929092169190911790555b5095945050505050565b80156131af5760175460405163b760faf960e01b81526001600160a01b0385811660048301529091169063b760faf99084906024016000604051808303818588803b15801561319157600080fd5b505af11580156131a5573d6000803e3d6000fd5b5050505050505050565b6000836001600160a01b03168360405160006040518083038185875af1925050503d80600081146131fc576040519150601f19603f3d011682016040523d82523d6000602084013e613201565b606091505b5050905080610fe45760405162461bcd60e51b815260206004820152600f60248201526e1d1c985b9cd9995c8819985a5b1959608a1b6044820152606401610b08565b61324c6135d0565b4714610f9f5760405162461bcd60e51b815260206004820152600e60248201526d6f7574206f662062616c616e636560901b6044820152606401610b08565b600054600160b01b900460ff16156132bb573330146132ac576132ac615b2b565b6000805460ff60b01b19169055565b610f9f612b6c565b60145460408051637056269760e01b815290516000926001600160a01b03169163705626979160048083019260209291908290030181865afa15801561330d573d6000803e3d6000fd5b505050506040513d601f19601f82011682018060405250810190610fca91906157ea565b613339612b6c565b6000805460408051636221a54b60e01b81529051853593926001600160a01b031691636221a54b9160048083019260209291908290030181865afa158015613385573d6000803e3d6000fd5b505050506040513d601f19601f820116820180604052508101906133a991906158d1565b905060006133b7824261578a565b9050604051806040016040528082815260200186868080601f01602080910402602001604051908101604052809392919081815260200183838082843760009201829052509390945250506001600160e01b031986168152600260209081526040909120835181559083015190915060018201906134359082615bb8565b509050507fed948300a3694aa01d4a6b258bfd664350193d770c0b51f8387277f6d83ea3b68382878760405161346e9493929190615c77565b60405180910390a15050505050565b600b54600090610b6790600160301b900462ffffff1660016147fc565b3d604051818101604052816000823e82156134b3578181f35b8181fd5b6001600160a01b03821633036134cb575050565b60135460405163ce2caa5760e01b81523360048201526001600160a01b03848116602483015283811660448301529091169063ce2caa579060640160006040518083038186803b15801561351e57600080fd5b505afa158015613532573d6000803e3d6000fd5b505050505050565b336000908152601b60205260408120549003610f9f5760405162461bcd60e51b815260206004820152601a60248201527f6f6e6c7920726577617264206f6666657273206d616e616765720000000000006044820152606401610b08565b60006001600160781b038211156135cc576040516306dfcc6560e41b81526078600482015260248101839052604401610b08565b5090565b6000601054600f546011546135e5919061579d565b610fca919061579d565b600080826040516020016136039190615cbd565b6040516020818303038152906040528051906020012090506000805b865181101561367b5786818151811061363a5761363a61563f565b602002602001015183036136695785818151811061365a5761365a61563f565b6020026020010151915061367b565b806136738161566b565b91505061361f565b506001600160a01b0381166136c15760405162461bcd60e51b815260206004820152600c60248201526b61646472657373207a65726f60a01b6044820152606401610b08565b95945050505050565b6136fe82826040518060400160405280601181526020017021b630b4b6a9b2ba3ab826b0b730b3b2b960791b8152506135ef565b601360006101000a8154816001600160a01b0302191690836001600160a01b0316021790555061375a828260405180604001604052806013815260200172233630b932a9bcb9ba32b6b9a6b0b730b3b2b960691b8152506135ef565b601460006101000a8154816001600160a01b0302191690836001600160a01b031602179055506137b9828260405180604001604052806016815260200175233630b932a9bcb9ba32b6b9a1b0b631bab630ba37b960511b8152506135ef565b601580546001600160a01b0319166001600160a01b0392909216919091179055601654600160a01b900460ff16156138405761381f8282604051806040016040528060118152602001702821b430b4b729ba30b5b2a6b4b93937b960791b8152506135ef565b601680546001600160a01b0319166001600160a01b03929092169190911790555b601854600160a01b900460ff16156138a15761388082826040518060400160405280600b81526020016a43436861696e5374616b6560a81b8152506135ef565b601880546001600160a01b0319166001600160a01b03929092169190911790555b6138c882826040518060400160405280600481526020016315d3985d60e21b8152506135ef565b601780546001600160a01b0319166001600160a01b03929092169190911790555050565b6138f582614822565b61194982826148ad565b600062ffffff8211156135cc576040516306dfcc6560e41b81526018600482015260248101839052604401610b08565b60008061393a6132c3565b62ffffff16905061394c8360016157c7565b91505b808262ffffff16108015613967575061396782612416565b1561397e578161397681615906565b92505061394f565b6117e06001836158ea565b60008183116139985781610b64565b5090919050565b62ffffff811660009081526005602052604081205490819003613a3957601454604051636131910b60e11b815262ffffff841660048201526001600160a01b039091169063c263221690602401602060405180830381865afa158015613a09573d6000803e3d6000fd5b505050506040513d601f19601f82011682018060405250810190613a2d9190615cd0565b6001600160401b031690505b919050565b6040805160a08101825260009181018290526060808201838152608083019390935262ffffff8816825285901b6001600160601b031916602082015290856004811115613a8d57613a8d614fb8565b90816004811115613aa057613aa0614fb8565b90525062ffffff86166000908152600c6020526040812081876004811115613aca57613aca614fb8565b6004811115613adb57613adb614fb8565b81526020019081526020016000206000866001600160a01b03166001600160a01b0316815260200190815260200160002090508280613b1b5750805460ff165b158015608084015261313957613b3181856148ee565b6001600160781b031660408301525095945050505050565b6000808211613b8d5760405162461bcd60e51b815260206004820152601060248201526f4469766973696f6e206279207a65726f60801b6044820152606401610b08565b83600003613b9d575060006117e0565b83830283858281613bb057613bb0615cf9565b0403613bce57828181613bc557613bc5615cf9565b049150506117e0565b506000613bdb8386615d0f565b90506000613be98487615d23565b90506000613bf78587615d0f565b90506000613c058688615d23565b905085613c1282856157b0565b613c1c9190615d0f565b613c2683856157b0565b613c3083876157b0565b88613c3b86896157b0565b613c4591906157b0565b613c4f919061578a565b613c59919061578a565b613c63919061578a565b98975050505050505050565b600080602083016001600160a01b038616613c906060860160408701615d37565b60601c14613cd45760405162461bcd60e51b815260206004820152601160248201527077726f6e672062656e656669636961727960781b6044820152606401610b08565b600081604051602001613ce79190615d6b565b60408051601f1981840301815291905280516020918201209150600d90600090613d1390850185615565565b62ffffff1681526020808201929092526040908101600090812084825290925290205460ff16614120576014546000906001600160a01b031663647006e2613d5e6020860186615565565b6040516001600160e01b031960e084901b16815262ffffff9091166004820152602401602060405180830381865afa158015613d9e573d6000803e3d6000fd5b505050506040513d601f19601f82011682018060405250810190613dc291906158d1565b9050613ddc8183613dd38980615dd1565b9092909161496a565b613e1f5760405162461bcd60e51b81526020600482015260146024820152731b595c9adb19481c1c9bdbd9881a5b9d985b1a5960621b6044820152606401610b08565b613e44613e2f6020850185615565565b613e3f6060860160408701615e1a565b614982565b94506001613e586080850160608601615b57565b6004811115613e6957613e69614fb8565b03614007576015546000906001600160a01b0316639350f57c613e8f6020870187615565565b6040516001600160e01b031960e084901b16815262ffffff90911660048201526001600160a01b038c166024820152604401602060405180830381865afa158015613ede573d6000803e3d6000fd5b505050506040513d601f19601f82011682018060405250810190613f0291906158d1565b9050801561400557613f3b613f36613f276001600160781b03891684620f4240613b49565b886001600160781b0316614a3b565b613598565b9450613f478587615894565b955084600a6000613f5b6020880188615565565b62ffffff168152602081019190915260400160009081208054909190613f8b9084906001600160781b0316615874565b82546001600160781b039182166101009390930a92830291909202199091161790555061dead6001600160a01b038a16807f06f77960d1401cc7d724b5c2b5ad672b9dbf08d8b11516a38c21697c23fbb0d2613fea6020890189615565565b60018a604051613ffc93929190615e35565b60405180910390a45b505b84600960006140196020870187615565565b62ffffff1681526020810191909152604001600090812080549091906140499084906001600160781b0316615874565b92506101000a8154816001600160781b0302191690836001600160781b031602179055506001600d60008560000160208101906140869190615565565b62ffffff16815260208082019290925260409081016000908120868252835220805460ff1916921515929092179091556001600160a01b0388811691908a169081907f06f77960d1401cc7d724b5c2b5ad672b9dbf08d8b11516a38c21697c23fbb0d2906140f690880188615565565b6141066080890160608a01615b57565b8a60405161411693929190615e35565b60405180910390a4505b5050935093915050565b602081016000600c816141406040860185615565565b62ffffff16815260200190815260200160002060008360600160208101906141689190615b57565b600481111561417957614179614fb8565b600481111561418a5761418a614fb8565b815260200190815260200160002060008360200160208101906141ad9190615d37565b60601c81526020810191909152604001600020805490915060ff166114db576014546000906001600160a01b031663647006e26141ed6020860186615565565b6040516001600160e01b031960e084901b16815262ffffff9091166004820152602401602060405180830381865afa15801561422d573d6000803e3d6000fd5b505050506040513d601f19601f8201168201806040525081019061425191906158d1565b90506000836040516020016142669190615d6b565b60408051601f198184030181529190528051602090910120905061428f8282613dd38880615dd1565b6142d25760405162461bcd60e51b81526020600482015260146024820152731b595c9adb19481c1c9bdbd9881a5b9d985b1a5960621b6044820152606401610b08565b825460ff191660011783556142fd6142ed6020860186615565565b613e3f6060870160408801615e1a565b83546001600160781b0391909116610100026fffffffffffffffffffffffffffffff001990911617835561435c6143376020860186615565565b6143476040870160208801615d37565b6143576080880160608901615b57565b614a4a565b83546001600160801b03918216600160801b0291161783556001600e60006143876020880188615565565b62ffffff16815260200190815260200160002060008282546143a9919061578a565b90915550505050505050565b60175460405163277166bf60e11b815260009182916001600160a01b0390911690634ee2cd7e906143ec908a908890600401615928565b602060405180830381865afa158015614409573d6000803e3d6000fd5b505050506040513d601f19601f8201168201806040525081019061442d91906158d1565b905080156131395760175460405163ed475a7960e01b8152600091829182916001600160a01b03169063ed475a799061446c908d908b90600401615928565b600060405180830381865afa158015614489573d6000803e3d6000fd5b505050506040513d6000823e601f3d908101601f191682016040526144b19190810190615ab8565b505081519193509150156145715760005b825181101561456f5760006144fd8383815181106144e2576144e261563f565b602002602001015161271088613b499092919063ffffffff16565b90508282815181106145115761451161563f565b602002602001015185614524919061578a565b945061454f84838151811061453b5761453b61563f565b60200260200101518d8d8d6002868e614c31565b6145599088615874565b96505080806145679061566b565b9150506144c2565b505b61271083101561461657601754604051634181ad4160e11b81526000916001600160a01b0316906383035a82906145ae908e908c90600401615928565b602060405180830381865afa1580156145cb573d6000803e3d6000fd5b505050506040513d601f19601f820116820180604052508101906145ef91906158d1565b90508015614614576146078b8c8c8c6002868d614c31565b6146119087615874565b95505b505b5050505095945050505050565b6016546040516325f48f9960e11b8152600091829182916001600160a01b031690634be91f329061465a908b908990600401615928565b600060405180830381865afa158015614677573d6000803e3d6000fd5b505050506040513d6000823e601f3d908101601f1916820160405261469f91908101906159b2565b9150915060005b8251811015614712576146f48382815181106146c4576146c461563f565b602002602001015160601c8a8a8a60038787815181106146e6576146e661563f565b60200260200101518b614c31565b6146fe9085615874565b93508061470a8161566b565b9150506146a6565b50505095945050505050565b6018546040516325f48f9960e11b8152600091829182916001600160a01b031690634be91f3290614755908b908990600401615928565b600060405180830381865afa158015614772573d6000803e3d6000fd5b505050506040513d6000823e601f3d908101601f1916820160405261479a9190810190615a6c565b9150915060005b8251811015614712576147de8382815181106147bf576147bf61563f565b60200260200101518a8a8a60048787815181106146e6576146e661563f565b6147e89085615874565b9350806147f48161566b565b9150506147a1565b600080838311156148125750600090508061481b565b50600190508183035b9250929050565b8054156110ce5780546001808301916000918491614840919061579d565b815481106148505761485061563f565b60009182526020808320909101546001600160a01b03168352820192909252604001812055805481908061488657614886615e65565b600082815260209020810160001990810180546001600160a01b0319169055019055614822565b60005b81518110156114db576148dc838383815181106148cf576148cf61563f565b6020026020010151614df8565b806148e68161566b565b9150506148b0565b60008160000361490057506000610b67565b825461010090046001600160781b03166000819003614923576000915050610b67565b8354600160801b90046001600160801b031680840361494457509050610b67565b80841061495357614953615b2b565b6136c1613f366001600160781b0384168684613b49565b600082614978868685614e60565b1495945050505050565b62ffffff821660009081526006602090815260408083205460089092529091205482916001600160781b0390811691166149bc8382615874565b6001600160781b0316826001600160781b031610156149e2576149df8183615894565b92505b62ffffff851660009081526008602052604081208054859290614a0f9084906001600160781b0316615874565b92506101000a8154816001600160781b0302191690836001600160781b03160217905550505092915050565b60008183106139985781610b64565b62ffffff8316600090815260056020526040812054808203614afe57601454604051636131910b60e11b815262ffffff871660048201526001600160a01b039091169063c263221690602401602060405180830381865afa158015614ab3573d6000803e3d6000fd5b505050506040513d601f19601f82011682018060405250810190614ad79190615cd0565b62ffffff861660009081526005602052604090206001600160401b03919091169081905590505b6002836004811115614b1257614b12614fb8565b03614b9d57601754604051631257fcdb60e31b8152614b95916001600160a01b0316906392bfe6d890614b4f90606089901c908690600401615928565b602060405180830381865afa158015614b6c573d6000803e3d6000fd5b505050506040513d601f19601f82011682018060405250810190614b9091906158d1565b614eac565b9150506117e0565b6003836004811115614bb157614bb1614fb8565b03614bf957601654604051631190c4dd60e21b81526001600160601b03198616600482015260248101839052614b95916001600160a01b031690634643137490604401614b4f565b601854604051631257fcdb60e31b8152614b95916001600160a01b0316906392bfe6d890614b4f90606089901c908690600401615928565b62ffffff84166000908152600c60205260408120819081866004811115614c5a57614c5a614fb8565b6004811115614c6b57614c6b614fb8565b815260200190815260200160002060008a6001600160a01b03166001600160a01b0316815260200190815260200160002090508280614cab5750805460ff165b614ce95760405162461bcd60e51b815260206004820152600f60248201526e1b9bdd081a5b9a5d1a585b1a5cd959608a1b6044820152606401610b08565b614cf381856148ee565b91506001600160781b03821615614d9357614d0d84614eac565b81548290601090614d2f908490600160801b90046001600160801b0316615e7b565b82546001600160801b0391821661010093840a908102920219161790915582548492508391600191614d6e9185916001600160781b0391900416615894565b92506101000a8154816001600160781b0302191690836001600160781b031602179055505b866001600160a01b0316886001600160a01b03168a6001600160a01b03167f06f77960d1401cc7d724b5c2b5ad672b9dbf08d8b11516a38c21697c23fbb0d2898987604051614de493929190615e35565b60405180910390a450979650505050505050565b6001600160a01b038116600090815260018301602052604090205415614e1c575050565b8154600181810184556000848152602080822090930180546001600160a01b039095166001600160a01b031990951685179055845493815293019052604090912055565b600081815b84811015614ea357614e8f82878784818110614e8357614e8361563f565b90506020020135614ee0565b915080614e9b8161566b565b915050614e65565b50949350505050565b60006001600160801b038211156135cc576040516306dfcc6560e41b81526080600482015260248101839052604401610b08565b6000818310614efc576000828152602084905260409020610b64565b6000838152602083905260409020610b64565b508054614f1b90615824565b6000825580601f10614f2b575050565b601f0160209004906000526020600020908101906110ce91905b808211156135cc5760008155600101614f45565b6001600160a01b03811681146110ce57600080fd5b62ffffff811681146110ce57600080fd5b60008060408385031215614f9257600080fd5b8235614f9d81614f59565b91506020830135614fad81614f6e565b809150509250929050565b634e487b7160e01b600052602160045260246000fd5b60058110614fec57634e487b7160e01b600052602160045260246000fd5b9052565b62ffffff81511682526bffffffffffffffffffffffff1960208201511660208301526001600160781b036040820151166040830152600060608201516150396060850182614fce565b505060809081015115159082015260a00190565b6020808252825182820181905260009190848201906040850190845b8181101561508a5761507c838551614ff0565b938501939250600101615069565b50909695505050505050565b60008083601f8401126150a857600080fd5b5081356001600160401b038111156150bf57600080fd5b6020830191508360208260051b850101111561481b57600080fd5b6000806000806000606086880312156150f257600080fd5b85356001600160401b038082111561510957600080fd5b61511589838a01615096565b90975095506020880135915061512a82614f6e565b9093506040870135908082111561514057600080fd5b5061514d88828901615096565b969995985093965092949392505050565b6000806020838503121561517157600080fd5b82356001600160401b0381111561518757600080fd5b61519385828601615096565b90969095509350505050565b6000602082840312156151b157600080fd5b81356117e081614f59565b6000602082840312156151ce57600080fd5b5035919050565b6000602082840312156151e757600080fd5b81356001600160e01b0319811681146117e057600080fd5b60005b8381101561521a578181015183820152602001615202565b50506000910152565b6000815180845261523b8160208601602086016151ff565b601f01601f19169290920160200192915050565b8281526040602082015260006152686040830184615223565b949350505050565b6020808252825182820181905260009190848201906040850190845b8181101561508a5783516001600160a01b03168352928401929184019160010161528c565b80151581146110ce57600080fd5b60008060008060008060a087890312156152d857600080fd5b86356152e381614f59565b955060208701356152f381614f59565b9450604087013561530381614f6e565b93506060870135615313816152b1565b925060808701356001600160401b0381111561532e57600080fd5b61533a89828a01615096565b979a9699509497509295939492505050565b803560058110613a3957600080fd5b60008060006060848603121561537057600080fd5b833561537b81614f59565b9250602084013561538b81614f6e565b91506153996040850161534c565b90509250925092565b600080604083850312156153b557600080fd5b82356153c081614f6e565b91506020830135614fad816152b1565b634e487b7160e01b600052604160045260246000fd5b604051601f8201601f191681016001600160401b038111828210171561540e5761540e6153d0565b604052919050565b60006001600160401b0382111561542f5761542f6153d0565b5060051b60200190565b600082601f83011261544a57600080fd5b8135602061545f61545a83615416565b6153e6565b82815260059290921b8401810191818101908684111561547e57600080fd5b8286015b848110156154a257803561549581614f59565b8352918301918301615482565b509695505050505050565b600080604083850312156154c057600080fd5b82356001600160401b03808211156154d757600080fd5b818501915085601f8301126154eb57600080fd5b813560206154fb61545a83615416565b82815260059290921b8401810191818101908984111561551a57600080fd5b948201945b838610156155385785358252948201949082019061551f565b9650508601359250508082111561554e57600080fd5b5061555b85828601615439565b9150509250929050565b60006020828403121561557757600080fd5b81356117e081614f6e565b6000806040838503121561559557600080fd5b82356155a081614f59565b91506020830135614fad81614f59565b6000602080830181845280855180835260408601915060408160051b87010192508387016000805b8381101561563157888603603f19018552825180518088529088019088880190845b8181101561561b5761560d838551614ff0565b938b019392506001016155fa565b50909750505093860193918601916001016155d8565b509398975050505050505050565b634e487b7160e01b600052603260045260246000fd5b634e487b7160e01b600052601160045260246000fd5b60006001820161567d5761567d615655565b5060010190565b6001600160a01b03848116825260406020808401829052908301849052600091859160608501845b878110156156d35784356156bf81614f59565b8416825293820193908201906001016156ac565b5098975050505050505050565b600082601f8301126156f157600080fd5b8151602061570161545a83615416565b82815260059290921b8401810191818101908684111561572057600080fd5b8286015b848110156154a257805161573781614f59565b8352918301918301615724565b6000806040838503121561575757600080fd5b82516001600160401b0381111561576d57600080fd5b615779858286016156e0565b925050602083015190509250929050565b80820180821115610b6757610b67615655565b81810381811115610b6757610b67615655565b8082028115828204841417610b6757610b67615655565b62ffffff8181168382160190808211156157e3576157e3615655565b5092915050565b6000602082840312156157fc57600080fd5b81516117e081614f6e565b60006020828403121561581957600080fd5b81516117e081614f59565b600181811c9082168061583857607f821691505b60208210810361225357634e487b7160e01b600052602260045260246000fd5b6000825161586a8184602087016151ff565b9190910192915050565b6001600160781b038181168382160190808211156157e3576157e3615655565b6001600160781b038281168282160390808211156157e3576157e3615655565b6000602082840312156158c657600080fd5b81516117e0816152b1565b6000602082840312156158e357600080fd5b5051919050565b62ffffff8281168282160390808211156157e3576157e3615655565b600062ffffff80831681810361591e5761591e615655565b6001019392505050565b6001600160a01b03929092168252602082015260400190565b6001600160601b0319811681146110ce57600080fd5b600082601f83011261596857600080fd5b8151602061597861545a83615416565b82815260059290921b8401810191818101908684111561599757600080fd5b8286015b848110156154a2578051835291830191830161599b565b600080604083850312156159c557600080fd5b82516001600160401b03808211156159dc57600080fd5b818501915085601f8301126159f057600080fd5b81516020615a0061545a83615416565b82815260059290921b84018101918181019089841115615a1f57600080fd5b948201945b83861015615a46578551615a3781615941565b82529482019490820190615a24565b91880151919650909350505080821115615a5f57600080fd5b5061555b85828601615957565b60008060408385031215615a7f57600080fd5b82516001600160401b0380821115615a9657600080fd5b615aa2868387016156e0565b93506020850151915080821115615a5f57600080fd5b60008060008060808587031215615ace57600080fd5b84516001600160401b0380821115615ae557600080fd5b615af1888389016156e0565b95506020870151915080821115615b0757600080fd5b50615b1487828801615957565b604087015160609097015195989097509350505050565b634e487b7160e01b600052600160045260246000fd5b60008235609e1983360301811261586a57600080fd5b600060208284031215615b6957600080fd5b610b648261534c565b601f8211156114db57600081815260208120601f850160051c81016020861015615b995750805b601f850160051c820191505b8181101561353257828155600101615ba5565b81516001600160401b03811115615bd157615bd16153d0565b615be581615bdf8454615824565b84615b72565b602080601f831160018114615c1a5760008415615c025750858301515b600019600386901b1c1916600185901b178555613532565b600085815260208120601f198616915b82811015615c4957888601518255948401946001909101908401615c2a565b5085821015615c675787850151600019600388901b60f8161c191681555b5050505050600190811b01905550565b63ffffffff60e01b8516815283602082015260606040820152816060820152818360808301376000818301608090810191909152601f909201601f191601019392505050565b602081526000610b646020830184615223565b600060208284031215615ce257600080fd5b81516001600160401b03811681146117e057600080fd5b634e487b7160e01b600052601260045260246000fd5b600082615d1e57615d1e615cf9565b500490565b600082615d3257615d32615cf9565b500690565b600060208284031215615d4957600080fd5b81356117e081615941565b80356001600160781b0381168114613a3957600080fd5b608081018235615d7a81614f6e565b62ffffff1682526020830135615d8f81615941565b6001600160601b03191660208301526001600160781b03615db260408501615d54565b166040830152615dc46060840161534c565b6157e36060840182614fce565b6000808335601e19843603018112615de857600080fd5b8301803591506001600160401b03821115615e0257600080fd5b6020019150600581901b360382131561481b57600080fd5b600060208284031215615e2c57600080fd5b610b6482615d54565b62ffffff8416815260608101615e4e6020830185614fce565b6001600160781b0383166040830152949350505050565b634e487b7160e01b600052603160045260246000fd5b6001600160801b038281168282160390808211156157e3576157e361565556fea2646970667358221220d408d187835baa2d8071ba082d6d3a06eab988fe63cdb7684c47d61ba60629bf64736f6c63430008140033",
  "linkReferences": {},
  "deployedLinkReferences": {}
}