{
  "_format": "hh-sol-artifact-1",
  "contractName": "RewardManager",
  "sourceName": "contracts/protocol/implementation/RewardManager.sol",
  "abi": [
    {
      "inputs": [
        {
          "internalType": "contract IGovernanceSettings",
          "name": "_governanceSettings",
          "type": "address"
        },
        {
          "internalType": "address",
          "name": "_initialGovernance",
          "type": "address"
        },
        {
          "internalType": "address",
          "name": "_addressUpdater",
          "type": "address"
        }
      ],
      "stateMutability": "nonpayable",
      "type": "constructor"
    },
    {
      "inputs": [],
      "name": "ReentrancyGuardReentrantCall",
      "type": "error"
    },
    {
      "inputs": [
        {
          "internalType": "uint8",
          "name": "bits",
          "type": "uint8"
        },
        {
          "internalType": "uint256",
          "name": "value",
          "type": "uint256"
        }
      ],
      "name": "SafeCastOverflowedUintDowncast",
      "type": "error"
    },
    {
      "anonymous": false,
      "inputs": [
        {
          "indexed": false,
          "internalType": "bytes4",
          "name": "selector",
          "type": "bytes4"
        },
        {
          "indexed": false,
          "internalType": "uint256",
          "name": "allowedAfterTimestamp",
          "type": "uint256"
        },
        {
          "indexed": false,
          "internalType": "bytes",
          "name": "encodedCall",
          "type": "bytes"
        }
      ],
      "name": "GovernanceCallTimelocked",
      "type": "event"
    },
    {
      "anonymous": false,
      "inputs": [
        {
          "indexed": false,
          "internalType": "address",
          "name": "initialGovernance",
          "type": "address"
        }
      ],
      "name": "GovernanceInitialised",
      "type": "event"
    },
    {
      "anonymous": false,
      "inputs": [
        {
          "indexed": false,
          "internalType": "address",
          "name": "governanceSettings",
          "type": "address"
        }
      ],
      "name": "GovernedProductionModeEntered",
      "type": "event"
    },
    {
      "anonymous": false,
      "inputs": [
        {
          "indexed": true,
          "internalType": "address",
          "name": "voter",
          "type": "address"
        },
        {
          "indexed": true,
          "internalType": "address",
          "name": "whoClaimed",
          "type": "address"
        },
        {
          "indexed": true,
          "internalType": "address",
          "name": "sentTo",
          "type": "address"
        },
        {
          "indexed": false,
          "internalType": "uint24",
          "name": "rewardEpochId",
          "type": "uint24"
        },
        {
          "indexed": false,
          "internalType": "enum IRewardManager.ClaimType",
          "name": "claimType",
          "type": "uint8"
        },
        {
          "indexed": false,
          "internalType": "uint120",
          "name": "amount",
          "type": "uint120"
        }
      ],
      "name": "RewardClaimed",
      "type": "event"
    },
    {
      "anonymous": false,
      "inputs": [
        {
          "indexed": false,
          "internalType": "uint256",
          "name": "rewardEpochId",
          "type": "uint256"
        }
      ],
      "name": "RewardClaimsEnabled",
      "type": "event"
    },
    {
      "anonymous": false,
      "inputs": [
        {
          "indexed": false,
          "internalType": "uint256",
          "name": "rewardEpochId",
          "type": "uint256"
        }
      ],
      "name": "RewardClaimsExpired",
      "type": "event"
    },
    {
      "anonymous": false,
      "inputs": [
        {
          "indexed": false,
          "internalType": "bytes4",
          "name": "selector",
          "type": "bytes4"
        },
        {
          "indexed": false,
          "internalType": "uint256",
          "name": "timestamp",
          "type": "uint256"
        }
      ],
      "name": "TimelockedGovernanceCallCanceled",
      "type": "event"
    },
    {
      "anonymous": false,
      "inputs": [
        {
          "indexed": false,
          "internalType": "bytes4",
          "name": "selector",
          "type": "bytes4"
        },
        {
          "indexed": false,
          "internalType": "uint256",
          "name": "timestamp",
          "type": "uint256"
        }
      ],
      "name": "TimelockedGovernanceCallExecuted",
      "type": "event"
    },
    {
      "inputs": [],
      "name": "active",
      "outputs": [
        {
          "internalType": "bool",
          "name": "",
          "type": "bool"
        }
      ],
      "stateMutability": "view",
      "type": "function"
    },
    {
      "inputs": [
        {
          "internalType": "uint256",
          "name": "_toAuthorizeWei",
          "type": "uint256"
        }
      ],
      "name": "addDailyAuthorizedInflation",
      "outputs": [],
      "stateMutability": "nonpayable",
      "type": "function"
    },
    {
      "inputs": [
        {
          "internalType": "address[]",
          "name": "_rewardOwners",
          "type": "address[]"
        },
        {
          "internalType": "uint24",
          "name": "_rewardEpochId",
          "type": "uint24"
        },
        {
          "components": [
            {
              "internalType": "bytes32[]",
              "name": "merkleProof",
              "type": "bytes32[]"
            },
            {
              "components": [
                {
                  "internalType": "uint24",
                  "name": "rewardEpochId",
                  "type": "uint24"
                },
                {
                  "internalType": "bytes20",
                  "name": "beneficiary",
                  "type": "bytes20"
                },
                {
                  "internalType": "uint120",
                  "name": "amount",
                  "type": "uint120"
                },
                {
                  "internalType": "enum IRewardManager.ClaimType",
                  "name": "claimType",
                  "type": "uint8"
                }
              ],
              "internalType": "struct IRewardManager.RewardClaim",
              "name": "body",
              "type": "tuple"
            }
          ],
          "internalType": "struct IRewardManager.RewardClaimWithProof[]",
          "name": "_proofs",
          "type": "tuple[]"
        }
      ],
      "name": "autoClaim",
      "outputs": [],
      "stateMutability": "nonpayable",
      "type": "function"
    },
    {
      "inputs": [],
      "name": "cChainStake",
      "outputs": [
        {
          "internalType": "contract ICChainStake",
          "name": "",
          "type": "address"
        }
      ],
      "stateMutability": "view",
      "type": "function"
    },
    {
      "inputs": [],
      "name": "cChainStakeEnabled",
      "outputs": [
        {
          "internalType": "bool",
          "name": "",
          "type": "bool"
        }
      ],
      "stateMutability": "view",
      "type": "function"
    },
    {
      "inputs": [
        {
          "internalType": "bytes4",
          "name": "_selector",
          "type": "bytes4"
        }
      ],
      "name": "cancelGovernanceCall",
      "outputs": [],
      "stateMutability": "nonpayable",
      "type": "function"
    },
    {
      "inputs": [
        {
          "internalType": "address",
          "name": "_rewardOwner",
          "type": "address"
        },
        {
          "internalType": "address payable",
          "name": "_recipient",
          "type": "address"
        },
        {
          "internalType": "uint24",
          "name": "_rewardEpochId",
          "type": "uint24"
        },
        {
          "internalType": "bool",
          "name": "_wrap",
          "type": "bool"
        },
        {
          "components": [
            {
              "internalType": "bytes32[]",
              "name": "merkleProof",
              "type": "bytes32[]"
            },
            {
              "components": [
                {
                  "internalType": "uint24",
                  "name": "rewardEpochId",
                  "type": "uint24"
                },
                {
                  "internalType": "bytes20",
                  "name": "beneficiary",
                  "type": "bytes20"
                },
                {
                  "internalType": "uint120",
                  "name": "amount",
                  "type": "uint120"
                },
                {
                  "internalType": "enum IRewardManager.ClaimType",
                  "name": "claimType",
                  "type": "uint8"
                }
              ],
              "internalType": "struct IRewardManager.RewardClaim",
              "name": "body",
              "type": "tuple"
            }
          ],
          "internalType": "struct IRewardManager.RewardClaimWithProof[]",
          "name": "_proofs",
          "type": "tuple[]"
        }
      ],
      "name": "claim",
      "outputs": [
        {
          "internalType": "uint256",
          "name": "_rewardAmountWei",
          "type": "uint256"
        }
      ],
      "stateMutability": "nonpayable",
      "type": "function"
    },
    {
      "inputs": [],
      "name": "claimSetupManager",
      "outputs": [
        {
          "internalType": "contract IClaimSetupManager",
          "name": "",
          "type": "address"
        }
      ],
      "stateMutability": "view",
      "type": "function"
    },
    {
      "inputs": [
        {
          "internalType": "uint256",
          "name": "_rewardEpochId",
          "type": "uint256"
        }
      ],
      "name": "closeExpiredRewardEpoch",
      "outputs": [],
      "stateMutability": "nonpayable",
      "type": "function"
    },
    {
      "inputs": [],
      "name": "enableCChainStake",
      "outputs": [],
      "stateMutability": "nonpayable",
      "type": "function"
    },
    {
      "inputs": [],
      "name": "enableClaims",
      "outputs": [],
      "stateMutability": "nonpayable",
      "type": "function"
    },
    {
      "inputs": [
        {
          "internalType": "uint256",
          "name": "",
          "type": "uint256"
        },
        {
          "internalType": "enum IRewardManager.ClaimType",
          "name": "",
          "type": "uint8"
        },
        {
          "internalType": "address",
          "name": "",
          "type": "address"
        }
      ],
      "name": "epochTypeProviderUnclaimedReward",
      "outputs": [
        {
          "internalType": "bool",
          "name": "initialised",
          "type": "bool"
        },
        {
          "internalType": "uint120",
          "name": "amount",
          "type": "uint120"
        },
        {
          "internalType": "uint128",
          "name": "weight",
          "type": "uint128"
        }
      ],
      "stateMutability": "view",
      "type": "function"
    },
    {
      "inputs": [
        {
          "internalType": "bytes4",
          "name": "_selector",
          "type": "bytes4"
        }
      ],
      "name": "executeGovernanceCall",
      "outputs": [],
      "stateMutability": "nonpayable",
      "type": "function"
    },
    {
      "inputs": [],
      "name": "firstClaimableRewardEpochId",
      "outputs": [
        {
          "internalType": "uint24",
          "name": "",
          "type": "uint24"
        }
      ],
      "stateMutability": "view",
      "type": "function"
    },
    {
      "inputs": [],
      "name": "flareSystemCalculator",
      "outputs": [
        {
          "internalType": "contract FlareSystemCalculator",
          "name": "",
          "type": "address"
        }
      ],
      "stateMutability": "view",
      "type": "function"
    },
    {
      "inputs": [],
      "name": "flareSystemManager",
      "outputs": [
        {
          "internalType": "contract FlareSystemManager",
          "name": "",
          "type": "address"
        }
      ],
      "stateMutability": "view",
      "type": "function"
    },
    {
      "inputs": [],
      "name": "getAddressUpdater",
      "outputs": [
        {
          "internalType": "address",
          "name": "_addressUpdater",
          "type": "address"
        }
      ],
      "stateMutability": "view",
      "type": "function"
    },
    {
      "inputs": [],
      "name": "getCurrentRewardEpochId",
      "outputs": [
        {
          "internalType": "uint24",
          "name": "",
          "type": "uint24"
        }
      ],
      "stateMutability": "view",
      "type": "function"
    },
    {
      "inputs": [],
      "name": "getEpochIdsWithClaimableRewards",
      "outputs": [
        {
          "internalType": "uint256",
          "name": "_startEpochId",
          "type": "uint256"
        },
        {
          "internalType": "uint256",
          "name": "_endEpochId",
          "type": "uint256"
        }
      ],
      "stateMutability": "view",
      "type": "function"
    },
    {
      "inputs": [],
      "name": "getExpectedBalance",
      "outputs": [
        {
          "internalType": "uint256",
          "name": "",
          "type": "uint256"
        }
      ],
      "stateMutability": "view",
      "type": "function"
    },
    {
      "inputs": [],
      "name": "getInitialRewardEpochId",
      "outputs": [
        {
          "internalType": "uint256",
          "name": "",
          "type": "uint256"
        }
      ],
      "stateMutability": "view",
      "type": "function"
    },
    {
      "inputs": [],
      "name": "getRewardEpochIdToExpireNext",
      "outputs": [
        {
          "internalType": "uint256",
          "name": "",
          "type": "uint256"
        }
      ],
      "stateMutability": "view",
      "type": "function"
    },
    {
      "inputs": [],
      "name": "getRewardOffersManagerList",
      "outputs": [
        {
          "internalType": "address[]",
          "name": "",
          "type": "address[]"
        }
      ],
      "stateMutability": "view",
      "type": "function"
    },
    {
      "inputs": [],
      "name": "getTokenPoolSupplyData",
      "outputs": [
        {
          "internalType": "uint256",
          "name": "_lockedFundsWei",
          "type": "uint256"
        },
        {
          "internalType": "uint256",
          "name": "_totalInflationAuthorizedWei",
          "type": "uint256"
        },
        {
          "internalType": "uint256",
          "name": "_totalClaimedWei",
          "type": "uint256"
        }
      ],
      "stateMutability": "view",
      "type": "function"
    },
    {
      "inputs": [],
      "name": "getTotals",
      "outputs": [
        {
          "internalType": "uint256",
          "name": "_totalClaimedWei",
          "type": "uint256"
        },
        {
          "internalType": "uint256",
          "name": "_totalBurnedWei",
          "type": "uint256"
        },
        {
          "internalType": "uint256",
          "name": "_totalInflationAuthorizedWei",
          "type": "uint256"
        },
        {
          "internalType": "uint256",
          "name": "_totalInflationReceivedWei",
          "type": "uint256"
        }
      ],
      "stateMutability": "view",
      "type": "function"
    },
    {
      "inputs": [],
      "name": "governance",
      "outputs": [
        {
          "internalType": "address",
          "name": "",
          "type": "address"
        }
      ],
      "stateMutability": "view",
      "type": "function"
    },
    {
      "inputs": [],
      "name": "governanceSettings",
      "outputs": [
        {
          "internalType": "contract IGovernanceSettings",
          "name": "",
          "type": "address"
        }
      ],
      "stateMutability": "view",
      "type": "function"
    },
    {
      "inputs": [
        {
          "internalType": "contract IGovernanceSettings",
          "name": "_governanceSettings",
          "type": "address"
        },
        {
          "internalType": "address",
          "name": "_initialGovernance",
          "type": "address"
        }
      ],
      "name": "initialise",
      "outputs": [],
      "stateMutability": "nonpayable",
      "type": "function"
    },
    {
      "inputs": [
        {
          "internalType": "address",
          "name": "_address",
          "type": "address"
        }
      ],
      "name": "isExecutor",
      "outputs": [
        {
          "internalType": "bool",
          "name": "",
          "type": "bool"
        }
      ],
      "stateMutability": "view",
      "type": "function"
    },
    {
      "inputs": [],
      "name": "newRewardManager",
      "outputs": [
        {
          "internalType": "address",
          "name": "",
          "type": "address"
        }
      ],
      "stateMutability": "view",
      "type": "function"
    },
    {
      "inputs": [
        {
          "internalType": "address",
          "name": "_rewardOwner",
          "type": "address"
        }
      ],
      "name": "nextClaimableRewardEpochId",
      "outputs": [
        {
          "internalType": "uint256",
          "name": "",
          "type": "uint256"
        }
      ],
      "stateMutability": "view",
      "type": "function"
    },
    {
      "inputs": [],
      "name": "oldRewardManager",
      "outputs": [
        {
          "internalType": "address",
          "name": "",
          "type": "address"
        }
      ],
      "stateMutability": "view",
      "type": "function"
    },
    {
      "inputs": [],
      "name": "pChainStakeMirror",
      "outputs": [
        {
          "internalType": "contract IPChainStakeMirror",
          "name": "",
          "type": "address"
        }
      ],
      "stateMutability": "view",
      "type": "function"
    },
    {
      "inputs": [],
      "name": "productionMode",
      "outputs": [
        {
          "internalType": "bool",
          "name": "",
          "type": "bool"
        }
      ],
      "stateMutability": "view",
      "type": "function"
    },
    {
      "inputs": [
        {
          "internalType": "uint24",
          "name": "_rewardEpochId",
          "type": "uint24"
        },
        {
          "internalType": "bool",
          "name": "_inflation",
          "type": "bool"
        }
      ],
      "name": "receiveRewards",
      "outputs": [],
      "stateMutability": "payable",
      "type": "function"
    },
    {
      "inputs": [],
      "name": "setInitialRewardData",
      "outputs": [],
      "stateMutability": "nonpayable",
      "type": "function"
    },
    {
      "inputs": [
        {
          "internalType": "address",
          "name": "_newRewardManager",
          "type": "address"
        }
      ],
      "name": "setNewRewardManager",
      "outputs": [],
      "stateMutability": "nonpayable",
      "type": "function"
    },
    {
      "inputs": [
        {
          "internalType": "address",
          "name": "_oldRewardManager",
          "type": "address"
        }
      ],
      "name": "setOldRewardManager",
      "outputs": [],
      "stateMutability": "nonpayable",
      "type": "function"
    },
    {
      "inputs": [
        {
          "internalType": "address[]",
          "name": "_rewardOffersManagerList",
          "type": "address[]"
        }
      ],
      "name": "setRewardOffersManagerList",
      "outputs": [],
      "stateMutability": "nonpayable",
      "type": "function"
    },
    {
      "inputs": [],
      "name": "switchToProductionMode",
      "outputs": [],
      "stateMutability": "nonpayable",
      "type": "function"
    },
    {
      "inputs": [
        {
          "internalType": "bytes4",
          "name": "",
          "type": "bytes4"
        }
      ],
      "name": "timelockedCalls",
      "outputs": [
        {
          "internalType": "uint256",
          "name": "allowedAfterTimestamp",
          "type": "uint256"
        },
        {
          "internalType": "bytes",
          "name": "encodedCall",
          "type": "bytes"
        }
      ],
      "stateMutability": "view",
      "type": "function"
    },
    {
      "inputs": [
        {
          "internalType": "bytes32[]",
          "name": "_contractNameHashes",
          "type": "bytes32[]"
        },
        {
          "internalType": "address[]",
          "name": "_contractAddresses",
          "type": "address[]"
        }
      ],
      "name": "updateContractAddresses",
      "outputs": [],
      "stateMutability": "nonpayable",
      "type": "function"
    },
    {
      "inputs": [],
      "name": "voterRegistry",
      "outputs": [
        {
          "internalType": "contract VoterRegistry",
          "name": "",
          "type": "address"
        }
      ],
      "stateMutability": "view",
      "type": "function"
    },
    {
      "inputs": [],
      "name": "wNat",
      "outputs": [
        {
          "internalType": "contract IWNat",
          "name": "",
          "type": "address"
        }
      ],
      "stateMutability": "view",
      "type": "function"
    }
  ],
  "bytecode": "0x60806040523480156200001157600080fd5b506040516200543f3803806200543f833981016040819052620000349162000221565b8083836200004382826200008f565b506200006f9050817f714f205b2abd25bef1d06a1af944e38c113fe6160375c4e1d6d5cf28848e771955565b505060016003555050600a805462ffffff191662ffffff17905562000275565b600054600160a01b900460ff1615620000ef5760405162461bcd60e51b815260206004820152601460248201527f696e697469616c6973656420213d2066616c736500000000000000000000000060448201526064015b60405180910390fd5b6001600160a01b038216620001475760405162461bcd60e51b815260206004820152601860248201527f676f7665726e616e63652073657474696e6773207a65726f00000000000000006044820152606401620000e6565b6001600160a01b038116620001925760405162461bcd60e51b815260206004820152601060248201526f5f676f7665726e616e6365207a65726f60801b6044820152606401620000e6565b600080546001600160a01b038481166001600160a81b031990921691909117600160a01b17909155600180549183166001600160a01b0319909216821790556040519081527f9789733827840833afc031fb2ef9ab6894271f77bad2085687cf4ae5c7bee4db9060200160405180910390a15050565b6001600160a01b03811681146200021e57600080fd5b50565b6000806000606084860312156200023757600080fd5b8351620002448162000208565b6020850151909350620002578162000208565b60408501519092506200026a8162000208565b809150509250925092565b6151ba80620002856000396000f3fe6080604052600436106102675760003560e01c80639512388711610144578063d6c1dbee116100b6578063ea28edad1161007a578063ea28edad14610800578063ef88bf1314610815578063f3eb821f14610835578063f5a9838314610855578063fbde354d1461086a578063fd95b2e01461088a57600080fd5b8063d6c1dbee146106ef578063debfda301461070f578063e17f212e1461072f578063e4f139d314610750578063e7dea8e6146107e057600080fd5b8063af04cd3b11610108578063af04cd3b1461063a578063b00c0b761461064f578063b753801d1461066f578063bb25d5df1461068f578063be60040e146106af578063c4db9619146106cf57600080fd5b806395123887146105aa5780639a3410bc146105ca5780639edbf007146105e6578063a02e86e514610606578063a71de6761461061957600080fd5b80635ff27079116101dd57806374e6310e116101a157806374e6310e146104b75780637a17a34d146104e557806380c3d2671461050757806384e10a901461053157806387ad4ecf1461056a5780638e33aba51461058a57600080fd5b80635ff270791461040e57806362354e031461042e57806362d9c89a1461044e57806367fc40291461046e578063705626971461048e57600080fd5b80632dafdbbf1161022f5780632dafdbbf1461031a57806330c40bc91461034a57806336300be21461036d578063470ce087146103a55780635267a15d146103c55780635aa6e675146103f957600080fd5b806302fb0c5e1461026c578063064be532146102a257806315ca0637146102c357806315f253fb146102e55780631de5609814610305575b600080fd5b34801561027857600080fd5b5060195461028d90600160a81b900460ff1681565b60405190151581526020015b60405180910390f35b3480156102ae57600080fd5b5060195461028d90600160a01b900460ff1681565b3480156102cf57600080fd5b506102e36102de366004614360565b61089f565b005b3480156102f157600080fd5b506102e36103003660046143ce565b6108bb565b34801561031157600080fd5b506102e3610c27565b34801561032657600080fd5b5061032f610da9565b60408051938452602084019290925290820152606001610299565b34801561035657600080fd5b5061035f610ddc565b604051908152602001610299565b34801561037957600080fd5b50601a5461038d906001600160a01b031681565b6040516001600160a01b039091168152602001610299565b3480156103b157600080fd5b506102e36103c0366004614467565b610deb565b3480156103d157600080fd5b507f714f205b2abd25bef1d06a1af944e38c113fe6160375c4e1d6d5cf28848e77195461038d565b34801561040557600080fd5b5061038d610eb3565b34801561041a57600080fd5b506102e3610429366004614484565b610f4a565b34801561043a57600080fd5b5060005461038d906001600160a01b031681565b34801561045a57600080fd5b5060175461038d906001600160a01b031681565b34801561047a57600080fd5b506102e3610489366004614484565b6111d0565b34801561049a57600080fd5b506104a36112b1565b60405162ffffff9091168152602001610299565b3480156104c357600080fd5b506104d76104d2366004614484565b6112bb565b6040516102999291906144fe565b3480156104f157600080fd5b506104fa611360565b604051610299919061451f565b34801561051357600080fd5b5061051c6113c5565b60408051928352602083019190915201610299565b34801561053d57600080fd5b50600e54600f54601254601154604080519485526020850193909352918301526060820152608001610299565b34801561057657600080fd5b5060165461038d906001600160a01b031681565b34801561059657600080fd5b5061035f6105a536600461457a565b61144a565b3480156105b657600080fd5b5061035f6105c5366004614467565b611679565b3480156105d657600080fd5b50600a546104a39062ffffff1681565b3480156105f257600080fd5b5060185461038d906001600160a01b031681565b6102e3610614366004614607565b61169c565b34801561062557600080fd5b50600a546301000000900462ffffff1661035f565b34801561064657600080fd5b5061035f6117a2565b34801561065b57600080fd5b506102e361066a36600461471d565b6117ac565b34801561067b57600080fd5b506102e361068a3660046147d5565b611887565b34801561069b57600080fd5b5060155461038d906001600160a01b031681565b3480156106bb57600080fd5b5060135461038d906001600160a01b031681565b3480156106db57600080fd5b5060145461038d906001600160a01b031681565b3480156106fb57600080fd5b506102e361070a366004614360565b611901565b34801561071b57600080fd5b5061028d61072a366004614467565b611b39565b34801561073b57600080fd5b5060005461028d90600160a81b900460ff1681565b34801561075c57600080fd5b506107b261076b366004614825565b600b60209081526000938452604080852082529284528284209052825290205460ff81169061010081046001600160781b031690600160801b90046001600160801b031683565b6040805193151584526001600160781b0390921660208401526001600160801b031690820152606001610299565b3480156107ec57600080fd5b5060195461038d906001600160a01b031681565b34801561080c57600080fd5b506102e3611bc2565b34801561082157600080fd5b506102e3610830366004614865565b611c68565b34801561084157600080fd5b506102e3610850366004614467565b611dce565b34801561086157600080fd5b506102e3611e88565b34801561087657600080fd5b50601b5461038d906001600160a01b031681565b34801561089657600080fd5b506102e3611f49565b6108a7611f8d565b806012546108b591906148a9565b60125550565b6108c3611feb565b6108cb612044565b6108d36120ac565b60005b8481101561091f5761090d8686838181106108f3576108f36148bc565b90506020020160208101906109089190614467565b6120d6565b80610917816148d2565b9150506108d6565b50600061092a61211d565b62ffffff8116600090815260056020526040812054919250036109db57601554604051636131910b60e11b815262ffffff831660048201526001600160a01b039091169063c263221690602401602060405180830381865afa158015610994573d6000803e3d6000fd5b505050506040513d601f19601f820116820180604052508101906109b891906148eb565b62ffffff821660009081526005602052604090206001600160401b039190911690555b6109e5848261218b565b610a265760405162461bcd60e51b815260206004820152600d60248201526c6e6f7420636c61696d61626c6560981b60448201526064015b60405180910390fd5b60145460405163712441d960e11b815260009182916001600160a01b039091169063e24883b290610a5f9033908c908c90600401614914565b600060405180830381865afa158015610a7c573d6000803e3d6000fd5b505050506040513d6000823e601f3d908101601f19168201604052610aa491908101906149d4565b915091506000610ab26121d7565b9050610ac260008088888561220e565b505060005b88811015610bf45760008a8a83818110610ae357610ae36148bc565b9050602002016020810190610af89190614467565b90506000858381518110610b0e57610b0e6148bc565b602002602001015190506000610b2883838d88600061237f565b6001600160781b03169050816001600160a01b0316836001600160a01b031614610b7057610b5a82838d88600161237f565b610b6d906001600160781b0316826148a9565b90505b85811015610bc05760405162461bcd60e51b815260206004820152601860248201527f636c61696d656420616d6f756e7420746f6f20736d616c6c00000000000000006044820152606401610a1d565b610bca8682614a1a565b90508015610bde57610bde82826001612591565b5050508080610bec906148d2565b915050610ac7565b50610c0a33610c038a85614a2d565b6000612591565b50505050610c186001600355565b610c20612692565b5050505050565b600054600160b01b900460ff1680610c495750600054600160a81b900460ff16155b15610d9c57610c566126d9565b601954600160a81b900460ff16158015610c7c5750600a54600160301b900462ffffff16155b8015610c945750600a546301000000900462ffffff16155b610cd45760405162461bcd60e51b81526020600482015260116024820152706e6f7420696e697469616c20737461746560781b6044820152606401610a1d565b610cdc61211d565b610ce7906001614a44565b600a60066101000a81548162ffffff021916908362ffffff160217905550601560009054906101000a90046001600160a01b03166001600160a01b031663aec84ab66040518163ffffffff1660e01b8152600401602060405180830381865afa158015610d58573d6000803e3d6000fd5b505050506040513d601f19601f82011682018060405250810190610d7c9190614a67565b600a60036101000a81548162ffffff021916908362ffffff160217905550565b610da7600036612711565b565b6000806000601154601054610dbe9190614a1a565b92506012549150600f54600e54610dd591906148a9565b9050909192565b6000610de661285d565b905090565b600054600160b01b900460ff1680610e0d5750600054600160a81b900460ff16155b15610ea557610e1a6126d9565b601b546001600160a01b031615610e615760405162461bcd60e51b815260206004820152600b60248201526a185b1c9958591e481cd95d60aa1b6044820152606401610a1d565b6001600160a01b038116610e875760405162461bcd60e51b8152600401610a1d90614a84565b601b80546001600160a01b0319166001600160a01b03831617905550565b610eb0600036612711565b50565b60008054600160a81b900460ff16610ed557506001546001600160a01b031690565b60008054906101000a90046001600160a01b03166001600160a01b031663732524946040518163ffffffff1660e01b8152600401602060405180830381865afa158015610f26573d6000803e3d6000fd5b505050506040513d601f19601f82011682018060405250810190610de69190614aaa565b610f5333611b39565b610f8f5760405162461bcd60e51b815260206004820152600d60248201526c37b7363c9032bc32b1baba37b960991b6044820152606401610a1d565b6001600160e01b0319811660009081526002602052604081208054909103610ff95760405162461bcd60e51b815260206004820152601a60248201527f74696d656c6f636b3a20696e76616c69642073656c6563746f720000000000006044820152606401610a1d565b805442101561104a5760405162461bcd60e51b815260206004820152601960248201527f74696d656c6f636b3a206e6f7420616c6c6f77656420796574000000000000006044820152606401610a1d565b600081600101805461105b90614ac7565b80601f016020809104026020016040519081016040528092919081815260200182805461108790614ac7565b80156110d45780601f106110a9576101008083540402835291602001916110d4565b820191906000526020600020905b8154815290600101906020018083116110b757829003601f168201915b505050506001600160e01b03198516600090815260026020526040812081815592935090506111066001830182614316565b50506000805460ff60b01b1916600160b01b178155604051309061112b908490614b01565b6000604051808303816000865af19150503d8060008114611168576040519150601f19603f3d011682016040523d82523d6000602084013e61116d565b606091505b50506000805460ff60b01b19169055604080516001600160e01b0319871681524260208201529192507fa7326b57fc9cfe267aaea5e7f0b01757154d265620a0585819416ee9ddd2c438910160405180910390a16111ca8161287a565b50505050565b6111d8612897565b6001600160e01b0319811660009081526002602052604081205490036112405760405162461bcd60e51b815260206004820152601a60248201527f74696d656c6f636b3a20696e76616c69642073656c6563746f720000000000006044820152606401610a1d565b604080516001600160e01b0319831681524260208201527f7735b2391c38a81419c513e30ca578db7158eadd7101511b23e221c654d19cf8910160405180910390a16001600160e01b031981166000908152600260205260408120818155906112ac6001830182614316565b505050565b6000610de661211d565b600260205260009081526040902080546001820180549192916112dd90614ac7565b80601f016020809104026020016040519081016040528092919081815260200182805461130990614ac7565b80156113565780601f1061132b57610100808354040283529160200191611356565b820191906000526020600020905b81548152906001019060200180831161133957829003601f168201915b5050505050905082565b6060601c6000018054806020026020016040519081016040528092919081815260200182805480156113bb57602002820191906000526020600020905b81546001600160a01b0316815260019091019060200180831161139d575b5050505050905090565b6000806113d06121d7565b62ffffff16915060006113e161211d565b62ffffff169050600081116114385760405162461bcd60e51b815260206004820152601f60248201527f6e6f2065706f6368207769746820636c61696d61626c652072657761726473006044820152606401610a1d565b611443600182614a1a565b9150509091565b6000611454611feb565b61145c612044565b6114646120ac565b868661147082826128f1565b611479886120d6565b600061148361211d565b62ffffff81166000908152600560205260408120549192500361153457601554604051636131910b60e11b815262ffffff831660048201526001600160a01b039091169063c263221690602401602060405180830381865afa1580156114ed573d6000803e3d6000fd5b505050506040513d601f19601f8201168201806040525081019061151191906148eb565b62ffffff821660009081526005602052604090206001600160401b039190911690555b61153e888261218b565b61157a5760405162461bcd60e51b815260206004820152600d60248201526c6e6f7420636c61696d61626c6560981b6044820152606401610a1d565b60006115846121d7565b905060006115958c8c8a8a8661220e565b6001600160781b03909116965090506115b28c8c8c85600061237f565b6115c5906001600160781b0316876148a9565b95506001600160781b0381161561162f57806001600160781b0316600f60008282546115f191906148a9565b909155505060405161dead906001600160781b03831680156108fc02916000818181858888f1935050505015801561162d573d6000803e3d6000fd5b505b85156116585785600e600082825461164791906148a9565b9091555061165890508b878b612591565b50505050506116676001600355565b61166f612692565b9695505050505050565b6000611691826116876121d7565b62ffffff16612974565b62ffffff1692915050565b6116a4611f8d565b6116ac612044565b6116b461211d565b62ffffff168262ffffff16101561170d5760405162461bcd60e51b815260206004820152601b60248201527f7265776172642065706f636820696420696e20746865207061737400000000006044820152606401610a1d565b611716346129a0565b62ffffff8316600090815260066020526040812080549091906117439084906001600160781b0316614b1d565b92506101000a8154816001600160781b0302191690836001600160781b03160217905550346010600082825461177991906148a9565b90915550508015611796573460115461179291906148a9565b6011555b61179e612692565b5050565b6000610de66129d8565b7f714f205b2abd25bef1d06a1af944e38c113fe6160375c4e1d6d5cf28848e7719546001600160a01b0316336001600160a01b0316146118255760405162461bcd60e51b815260206004820152601460248201527337b7363c9030b2323932b9b9903ab83230ba32b960611b6044820152606401610a1d565b61187d61185983836040518060400160405280600e81526020016d20b2323932b9b9aab83230ba32b960911b8152506129f7565b7f714f205b2abd25bef1d06a1af944e38c113fe6160375c4e1d6d5cf28848e771955565b61179e8282612ab3565b600054600160b01b900460ff16806118a95750600054600160a81b900460ff16155b156118f6576118b66126d9565b61179e828280806020026020016040519081016040528093929190818152602001838360200280828437600092019190915250601c93925050612d1c9050565b61179e600036612711565b6015546001600160a01b03163314806119245750601b546001600160a01b031633145b6119605760405162461bcd60e51b815260206004820152600d60248201526c6f6e6c79206d616e616765727360981b6044820152606401610a1d565b600a546301000000900462ffffff1681146119ae5760405162461bcd60e51b815260206004820152600e60248201526d1ddc9bdb99c8195c1bd8da081a5960921b6044820152606401610a1d565b601a546001600160a01b0316158015906119e55750600a546119dd90600160301b900462ffffff166032614a44565b62ffffff1681105b15611a4957601a54604051636b60edf760e11b8152600481018390526001600160a01b039091169063d6c1dbee90602401600060405180830381600087803b158015611a3057600080fd5b505af1158015611a44573d6000803e3d6000fd5b505050505b611a5c611a578260016148a9565b612d2f565b600a805462ffffff9290921663010000000265ffffff000000199092169190911790556040518181527f5d05c64f281304391697cf987812e1a736413a062a9bdf39af4102209eb6fa589060200160405180910390a16000818152600860209081526040808320546006909252822054611ae2916001600160781b039081169116614b3d565b6001600160781b03169050801561179e5780600f6000828254611b0591906148a9565b909155505060405161dead9082156108fc029083906000818181858888f193505050501580156112ac573d6000803e3d6000fd5b60008054600160a01b900460ff168015611bbc5750600054604051630debfda360e41b81526001600160a01b0384811660048301529091169063debfda3090602401602060405180830381865afa158015611b98573d6000803e3d6000fd5b505050506040513d601f19601f82011682018060405250810190611bbc9190614b5d565b92915050565b611bca612897565b600a5462ffffff90811614611c135760405162461bcd60e51b815260206004820152600f60248201526e185b1c9958591e48195b98589b1959608a1b6044820152606401610a1d565b611c1b61211d565b600a805462ffffff191662ffffff9290921691821790556040519081527f1cfb844c44f9325fc9ad6cc6191a4a24b0415137fe300b6c9071523a253f7a08906020015b60405180910390a1565b600054600160a01b900460ff1615611cb95760405162461bcd60e51b8152602060048201526014602482015273696e697469616c6973656420213d2066616c736560601b6044820152606401610a1d565b6001600160a01b038216611d0f5760405162461bcd60e51b815260206004820152601860248201527f676f7665726e616e63652073657474696e6773207a65726f00000000000000006044820152606401610a1d565b6001600160a01b038116611d585760405162461bcd60e51b815260206004820152601060248201526f5f676f7665726e616e6365207a65726f60801b6044820152606401610a1d565b600080546001600160a01b038481166001600160a81b031990921691909117600160a01b17909155600180549183166001600160a01b0319909216821790556040519081527f9789733827840833afc031fb2ef9ab6894271f77bad2085687cf4ae5c7bee4db9060200160405180910390a15050565b600054600160b01b900460ff1680611df05750600054600160a81b900460ff16155b15610ea557611dfd6126d9565b601a546001600160a01b031615611e445760405162461bcd60e51b815260206004820152600b60248201526a185b1c9958591e481cd95d60aa1b6044820152606401610a1d565b6001600160a01b038116611e6a5760405162461bcd60e51b8152600401610a1d90614a84565b601a80546001600160a01b0319166001600160a01b03831617905550565b611e90612897565b600054600160a81b900460ff1615611eea5760405162461bcd60e51b815260206004820152601a60248201527f616c726561647920696e2070726f64756374696f6e206d6f64650000000000006044820152606401610a1d565b600180546001600160a01b031916905560008054600160a81b60ff60a81b198216179091556040516001600160a01b0390911681527f83af113638b5422f9e977cebc0aaf0eaf2188eb9a8baae7f9d46c42b33a1560c90602001611c5e565b600054600160b01b900460ff1680611f6b5750600054600160a81b900460ff16155b15610d9c57611f786126d9565b6019805460ff60a01b1916600160a01b179055565b336000908152601d60205260408120549003610da75760405162461bcd60e51b815260206004820152601a60248201527f6f6e6c7920726577617264206f6666657273206d616e616765720000000000006044820152606401610a1d565b601954600160a81b900460ff16610da75760405162461bcd60e51b815260206004820152601a60248201527f726577617264206d616e616765722064656163746976617465640000000000006044820152606401610a1d565b60003461204f6129d8565b61205991906148a9565b9050478181111561209c5761dead6108fc6120748484614a1a565b6040518115909202916000818181858888f193505050501580156112ac573d6000803e3d6000fd5b8181101561179e5761179e614b7a565b6002600354036120cf57604051633ee5aeb560e01b815260040160405180910390fd5b6002600355565b6001600160a01b038116610eb05760405162461bcd60e51b815260206004820152600e60248201526d726563697069656e74207a65726f60901b6044820152606401610a1d565b60155460408051637056269760e01b815290516000926001600160a01b03169163705626979160048083019260209291908290030181865afa158015612167573d6000803e3d6000fd5b505050506040513d601f19601f82011682018060405250810190610de69190614a67565b600a5460009062ffffff908116908416108015906121bb5750600a5462ffffff6301000000909104811690841610155b80156121d057508162ffffff168362ffffff16105b9392505050565b600a54600090610de690611a579062ffffff166122096121f561285d565b600a546301000000900462ffffff16612d5f565b612d5f565b60008060005b84811015612374576000868683818110612230576122306148bc565b90506020028101906122429190614b90565b6122539060a0810190608001614ba6565b9050600081600481111561226957612269614bc1565b14806122865750600181600481111561228457612284614bc1565b145b156122f0576001600160a01b038916156122eb576000806122cb8b8b8b8b888181106122b4576122b46148bc565b90506020028101906122c69190614b90565b612d75565b90925090506122da8287614b1d565b95506122e68186614b1d565b945050505b612361565b8462ffffff16878784818110612308576123086148bc565b905060200281019061231a9190614b90565b61232b906040810190602001614bd7565b62ffffff16106123615761236187878481811061234a5761234a6148bc565b905060200281019061235c9190614b90565b61320c565b508061236c816148d2565b915050612214565b509550959350505050565b600080612391878562ffffff16612974565b9050805b8562ffffff168162ffffff16116125195760155460405163388a4c3d60e01b815262ffffff831660048201526000916001600160a01b03169063388a4c3d90602401602060405180830381865afa1580156123f4573d6000803e3d6000fd5b505050506040513d601f19601f820116820180604052508101906124189190614bf4565b62ffffff83166000908152600d60205260408120549190911015915061243d83613497565b9050600061244e8b8b868587613536565b6124589082614b1d565b9050866124a45761246c8b8b86858761390d565b6124769082614b1d565b6019549091506001600160a01b0316156124a4576124978b8b868587613ae4565b6124a19082614b1d565b90505b62ffffff8416600090815260086020526040812080548392906124d19084906001600160781b0316614b1d565b92506101000a8154816001600160781b0302191690836001600160781b0316021790555080866125019190614b1d565b9550505050808061251190614c0d565b915050612395565b50612525856001614a44565b6001600160a01b03881660009081526004602052604090205462ffffff9182169116101561258757612558856001614a44565b6001600160a01b0388166000908152600460205260409020805462ffffff191662ffffff929092169190911790555b5095945050505050565b80156125fd5760185460405163b760faf960e01b81526001600160a01b0385811660048301529091169063b760faf99084906024016000604051808303818588803b1580156125df57600080fd5b505af11580156125f3573d6000803e3d6000fd5b5050505050505050565b6000836001600160a01b03168360405160006040518083038185875af1925050503d806000811461264a576040519150601f19603f3d011682016040523d82523d6000602084013e61264f565b606091505b50509050806111ca5760405162461bcd60e51b815260206004820152600f60248201526e1d1c985b9cd9995c8819985a5b1959608a1b6044820152606401610a1d565b61269a6129d8565b4714610da75760405162461bcd60e51b815260206004820152600e60248201526d6f7574206f662062616c616e636560901b6044820152606401610a1d565b600054600160b01b900460ff1615612709573330146126fa576126fa614b7a565b6000805460ff60b01b19169055565b610da7612897565b612719612897565b6000805460408051636221a54b60e01b81529051853593926001600160a01b031691636221a54b9160048083019260209291908290030181865afa158015612765573d6000803e3d6000fd5b505050506040513d601f19601f820116820180604052508101906127899190614bf4565b9050600061279782426148a9565b9050604051806040016040528082815260200186868080601f01602080910402602001604051908101604052809392919081815260200183838082843760009201829052509390945250506001600160e01b031986168152600260209081526040909120835181559083015190915060018201906128159082614c75565b509050507fed948300a3694aa01d4a6b258bfd664350193d770c0b51f8387277f6d83ea3b68382878760405161284e9493929190614d34565b60405180910390a15050505050565b600a54600090611bbc90600160301b900462ffffff166001613c9c565b3d604051818101604052816000823e8215612893578181f35b8181fd5b61289f610eb3565b6001600160a01b0316336001600160a01b031614610da75760405162461bcd60e51b815260206004820152600f60248201526e6f6e6c7920676f7665726e616e636560881b6044820152606401610a1d565b6001600160a01b0382163303612905575050565b60145460405163ce2caa5760e01b81523360048201526001600160a01b03848116602483015283811660448301529091169063ce2caa579060640160006040518083038186803b15801561295857600080fd5b505afa15801561296c573d6000803e3d6000fd5b505050505050565b6001600160a01b0382166000908152600460205260408120546121d090611a579062ffffff1684612d5f565b60006001600160781b038211156129d4576040516306dfcc6560e41b81526078600482015260248101839052604401610a1d565b5090565b6000600f54600e546010546129ed9190614a1a565b610de69190614a1a565b60008082604051602001612a0b9190614d7a565b6040516020818303038152906040528051906020012090506000805b8651811015612a8357868181518110612a4257612a426148bc565b60200260200101518303612a7157858181518110612a6257612a626148bc565b60200260200101519150612a83565b80612a7b816148d2565b915050612a27565b506001600160a01b038116612aaa5760405162461bcd60e51b8152600401610a1d90614a84565b95945050505050565b612ae382826040518060400160405280600d81526020016c566f746572526567697374727960981b8152506129f7565b601360006101000a8154816001600160a01b0302191690836001600160a01b03160217905550612b3d82826040518060400160405280601181526020017021b630b4b6a9b2ba3ab826b0b730b3b2b960791b8152506129f7565b601460006101000a8154816001600160a01b0302191690836001600160a01b03160217905550612b98828260405180604001604052806012815260200171233630b932a9bcb9ba32b6a6b0b730b3b2b960711b8152506129f7565b601560006101000a8154816001600160a01b0302191690836001600160a01b03160217905550612bf6828260405180604001604052806015815260200174233630b932a9bcb9ba32b6a1b0b631bab630ba37b960591b8152506129f7565b601660006101000a8154816001600160a01b0302191690836001600160a01b03160217905550612c508282604051806040016040528060118152602001702821b430b4b729ba30b5b2a6b4b93937b960791b8152506129f7565b601780546001600160a01b0319166001600160a01b0392909216919091179055601954600160a01b900460ff1615612cd157612cb082826040518060400160405280600b81526020016a43436861696e5374616b6560a81b8152506129f7565b601980546001600160a01b0319166001600160a01b03929092169190911790555b612cf882826040518060400160405280600481526020016315d3985d60e21b8152506129f7565b601880546001600160a01b0319166001600160a01b03929092169190911790555050565b612d2582613cc2565b61179e8282613d4d565b600062ffffff8211156129d4576040516306dfcc6560e41b81526018600482015260248101839052604401610a1d565b6000818311612d6e57816121d0565b5090919050565b600080602083016001600160a01b038616612d966060860160408701614da3565b60601c14612dda5760405162461bcd60e51b815260206004820152601160248201527077726f6e672062656e656669636961727960781b6044820152606401610a1d565b600081604051602001612ded9190614df9565b60408051601f1981840301815291905280516020918201209150600c90600090612e1990850185614bd7565b62ffffff1681526020808201929092526040908101600090812084825290925290205460ff16613202576015546000906001600160a01b031663647006e2612e646020860186614bd7565b6040516001600160e01b031960e084901b16815262ffffff9091166004820152602401602060405180830381865afa158015612ea4573d6000803e3d6000fd5b505050506040513d601f19601f82011682018060405250810190612ec89190614bf4565b9050612ee28183612ed98980614e5f565b90929091613d8e565b612f255760405162461bcd60e51b81526020600482015260146024820152731b595c9adb19481c1c9bdbd9881a5b9d985b1a5960621b6044820152606401610a1d565b612f4a612f356020850185614bd7565b612f456060860160408701614ea8565b613da6565b94506001612f5e6080850160608601614ba6565b6004811115612f6f57612f6f614bc1565b036130fb576016546000906001600160a01b0316639350f57c612f956020870187614bd7565b6040516001600160e01b031960e084901b16815262ffffff90911660048201526001600160a01b038c166024820152604401602060405180830381865afa158015612fe4573d6000803e3d6000fd5b505050506040513d601f19601f820116820180604052508101906130089190614bf4565b905080156130f95761304161303c61302d6001600160781b03891684620f4240613e5f565b886001600160781b0316613f85565b6129a0565b945061304d8587614b3d565b955084600960006130616020880188614bd7565b62ffffff1681526020810191909152604001600090812080549091906130919084906001600160781b0316614b1d565b82546001600160781b039182166101009390930a92830291909202199091161790555061dead6001600160a01b038a16806000805160206151658339815191526130de6020890189614bd7565b60018a6040516130f093929190614ec3565b60405180910390a45b505b846008600061310d6020870187614bd7565b62ffffff16815260208101919091526040016000908120805490919061313d9084906001600160781b0316614b1d565b92506101000a8154816001600160781b0302191690836001600160781b031602179055506001600c600085600001602081019061317a9190614bd7565b62ffffff16815260208082019290925260409081016000908120868252835220805460ff1916921515929092179091556001600160a01b0388811691908a16908190600080516020615165833981519152906131d890880188614bd7565b6131e86080890160608a01614ba6565b8a6040516131f893929190614ec3565b60405180910390a4505b5050935093915050565b602081016000600b816132226040860185614bd7565b62ffffff168152602001908152602001600020600083606001602081019061324a9190614ba6565b600481111561325b5761325b614bc1565b600481111561326c5761326c614bc1565b8152602001908152602001600020600083602001602081019061328f9190614da3565b60601c81526020810191909152604001600020805490915060ff166112ac576015546000906001600160a01b031663647006e26132cf6020860186614bd7565b6040516001600160e01b031960e084901b16815262ffffff9091166004820152602401602060405180830381865afa15801561330f573d6000803e3d6000fd5b505050506040513d601f19601f820116820180604052508101906133339190614bf4565b90506000836040516020016133489190614df9565b60408051601f19818403018152919052805160209091012090506133718282612ed98880614e5f565b6133b45760405162461bcd60e51b81526020600482015260146024820152731b595c9adb19481c1c9bdbd9881a5b9d985b1a5960621b6044820152606401610a1d565b825460ff191660011783556133df6133cf6020860186614bd7565b612f456060870160408801614ea8565b83546001600160781b0391909116610100026fffffffffffffffffffffffffffffff001990911617835561343e6134196020860186614bd7565b6134296040870160208801614da3565b6134396080880160608901614ba6565b613f94565b83546001600160801b03918216600160801b0291161783556001600d60006134696020880188614bd7565b62ffffff168152602001908152602001600020600082825461348b91906148a9565b90915550505050505050565b62ffffff81166000908152600560205260408120549081900361353157601554604051636131910b60e11b815262ffffff841660048201526001600160a01b039091169063c263221690602401602060405180830381865afa158015613501573d6000803e3d6000fd5b505050506040513d601f19601f8201168201806040525081019061352591906148eb565b6001600160401b031690505b919050565b60185460405163277166bf60e11b81526001600160a01b038781166004830152602482018590526000928392911690634ee2cd7e90604401602060405180830381865afa15801561358b573d6000803e3d6000fd5b505050506040513d601f19601f820116820180604052508101906135af9190614bf4565b905080156125875760185460405163ed475a7960e01b81526001600160a01b03898116600483015260248201879052600092839283929091169063ed475a7990604401600060405180830381865afa15801561360f573d6000803e3d6000fd5b505050506040513d6000823e601f3d908101601f191682016040526136379190810190614f4e565b505081519193509150156137b05760005b82518110156137ae5762ffffff89166000908152600b602052604081208160028152602001908152602001600020600085848151811061368a5761368a6148bc565b60200260200101516001600160a01b03166001600160a01b03168152602001908152602001600020905087806136c15750805460ff165b6136dd5760405162461bcd60e51b8152600401610a1d90614fc1565b600061370f8484815181106136f4576136f46148bc565b602002602001015161271089613e5f9092919063ffffffff16565b905061371b81876148a9565b9550600061372983836140fe565b9050613735818a614b1d565b98508c6001600160a01b03168e6001600160a01b031687868151811061375d5761375d6148bc565b60200260200101516001600160a01b03166000805160206151658339815191528f60028660405161379093929190614ec3565b60405180910390a450505080806137a6906148d2565b915050613648565b505b828411801561383357506013546040516309eb532d60e31b81526001600160a01b038c8116600483015262ffffff8b16602483015290911690634f5a996890604401602060405180830381865afa15801561380f573d6000803e3d6000fd5b505050506040513d601f19601f820116820180604052508101906138339190614b5d565b156139005762ffffff88166000908152600b602090815260408083206002845282528083206001600160a01b038e168452909152902086806138765750805460ff165b6138925760405162461bcd60e51b8152600401610a1d90614fc1565b60006138a7826138a28789614a1a565b6140fe565b90506138b38188614b1d565b96508a6001600160a01b03168c6001600160a01b03168d6001600160a01b03166000805160206151658339815191528d6002866040516138f593929190614ec3565b60405180910390a450505b5050505095945050505050565b6017546040516325f48f9960e11b81526001600160a01b038781166004830152602482018590526000928392839290911690634be91f3290604401600060405180830381865afa158015613965573d6000803e3d6000fd5b505050506040513d6000823e601f3d908101601f1916820160405261398d9190810190614fea565b9150915060005b8251811015613ad85762ffffff87166000908152600b60205260408120816003815260200190815260200160002060008584815181106139d6576139d66148bc565b602002602001015160601c6001600160a01b03166001600160a01b0316815260200190815260200160002090508580613a105750805460ff165b613a2c5760405162461bcd60e51b8152600401610a1d90614fc1565b6000613a5182858581518110613a4457613a446148bc565b60200260200101516140fe565b9050613a5d8187614b1d565b9550896001600160a01b03168b6001600160a01b0316868581518110613a8557613a856148bc565b602002602001015160601c6001600160a01b03166000805160206151658339815191528c600386604051613abb93929190614ec3565b60405180910390a450508080613ad0906148d2565b915050613994565b50505095945050505050565b6019546040516325f48f9960e11b81526001600160a01b038781166004830152602482018590526000928392839290911690634be91f3290604401600060405180830381865afa158015613b3c573d6000803e3d6000fd5b505050506040513d6000823e601f3d908101601f19168201604052613b6491908101906150a4565b9150915060005b8251811015613ad85762ffffff87166000908152600b6020526040812081600481526020019081526020016000206000858481518110613bad57613bad6148bc565b60200260200101516001600160a01b03166001600160a01b0316815260200190815260200160002090508580613be45750805460ff165b613c005760405162461bcd60e51b8152600401610a1d90614fc1565b6000613c1882858581518110613a4457613a446148bc565b9050613c248187614b1d565b9550896001600160a01b03168b6001600160a01b0316868581518110613c4c57613c4c6148bc565b60200260200101516001600160a01b03166000805160206151658339815191528c600486604051613c7f93929190614ec3565b60405180910390a450508080613c94906148d2565b915050613b6b565b60008083831115613cb257506000905080613cbb565b50600190508183035b9250929050565b805415610eb05780546001808301916000918491613ce09190614a1a565b81548110613cf057613cf06148bc565b60009182526020808320909101546001600160a01b031683528201929092526040018120558054819080613d2657613d266150f0565b600082815260209020810160001990810180546001600160a01b0319169055019055613cc2565b60005b81518110156112ac57613d7c83838381518110613d6f57613d6f6148bc565b60200260200101516141ff565b80613d86816148d2565b915050613d50565b600082613d9c868685614267565b1495945050505050565b62ffffff821660009081526006602090815260408083205460079092529091205482916001600160781b039081169116613de08382614b1d565b6001600160781b0316826001600160781b03161015613e0657613e038183614b3d565b92505b62ffffff851660009081526007602052604081208054859290613e339084906001600160781b0316614b1d565b92506101000a8154816001600160781b0302191690836001600160781b03160217905550505092915050565b6000808211613ea35760405162461bcd60e51b815260206004820152601060248201526f4469766973696f6e206279207a65726f60801b6044820152606401610a1d565b83600003613eb3575060006121d0565b83830283858281613ec657613ec6615106565b0403613ee457828181613edb57613edb615106565b049150506121d0565b506000613ef1838661511c565b90506000613eff8487615130565b90506000613f0d858761511c565b90506000613f1b8688615130565b905085613f288285614a2d565b613f32919061511c565b613f3c8385614a2d565b613f468387614a2d565b88613f518689614a2d565b613f5b9190614a2d565b613f6591906148a9565b613f6f91906148a9565b613f7991906148a9565b98975050505050505050565b6000818310612d6e57816121d0565b600080613fa085613497565b90506002836004811115613fb657613fb6614bc1565b0361404257601854604051631257fcdb60e31b8152606086901c60048201526024810183905261403a916001600160a01b0316906392bfe6d8906044015b602060405180830381865afa158015614011573d6000803e3d6000fd5b505050506040513d601f19601f820116820180604052508101906140359190614bf4565b6142b3565b9150506121d0565b600383600481111561405657614056614bc1565b0361409e57601754604051631190c4dd60e21b81526001600160601b0319861660048201526024810183905261403a916001600160a01b031690634643137490604401613ff4565b60048360048111156140b2576140b2614bc1565b036140f457601954604051631257fcdb60e31b8152606086901c60048201526024810183905261403a916001600160a01b0316906392bfe6d890604401613ff4565b60009150506121d0565b60008160000361411057506000611bbc565b825461010090046001600160781b03166000819003614133576000915050611bbc565b8354600160801b90046001600160801b031680840361415b5750835460ff1684559050611bbc565b806001600160801b0316841061417357614173614b7a565b61419361303c6001600160781b038416866001600160801b038516613e5f565b925061419e846142b3565b855486906010906141c0908490600160801b90046001600160801b0316615144565b82546001600160801b0391821661010093840a908102920219161790915586548592508791600191613e339185916001600160781b0391900416614b3d565b6001600160a01b038116600090815260018301602052604090205415614223575050565b8154600181810184556000848152602080822090930180546001600160a01b039095166001600160a01b031990951685179055845493815293019052604090912055565b600081815b848110156142aa576142968287878481811061428a5761428a6148bc565b905060200201356142e7565b9150806142a2816148d2565b91505061426c565b50949350505050565b60006001600160801b038211156129d4576040516306dfcc6560e41b81526080600482015260248101839052604401610a1d565b60008183106143035760008281526020849052604090206121d0565b60008381526020839052604090206121d0565b50805461432290614ac7565b6000825580601f10614332575050565b601f016020900490600052602060002090810190610eb091905b808211156129d4576000815560010161434c565b60006020828403121561437257600080fd5b5035919050565b60008083601f84011261438b57600080fd5b5081356001600160401b038111156143a257600080fd5b6020830191508360208260051b8501011115613cbb57600080fd5b62ffffff81168114610eb057600080fd5b6000806000806000606086880312156143e657600080fd5b85356001600160401b03808211156143fd57600080fd5b61440989838a01614379565b90975095506020880135915061441e826143bd565b9093506040870135908082111561443457600080fd5b5061444188828901614379565b969995985093965092949392505050565b6001600160a01b0381168114610eb057600080fd5b60006020828403121561447957600080fd5b81356121d081614452565b60006020828403121561449657600080fd5b81356001600160e01b0319811681146121d057600080fd5b60005b838110156144c95781810151838201526020016144b1565b50506000910152565b600081518084526144ea8160208601602086016144ae565b601f01601f19169290920160200192915050565b82815260406020820152600061451760408301846144d2565b949350505050565b6020808252825182820181905260009190848201906040850190845b818110156145605783516001600160a01b03168352928401929184019160010161453b565b50909695505050505050565b8015158114610eb057600080fd5b60008060008060008060a0878903121561459357600080fd5b863561459e81614452565b955060208701356145ae81614452565b945060408701356145be816143bd565b935060608701356145ce8161456c565b925060808701356001600160401b038111156145e957600080fd5b6145f589828a01614379565b979a9699509497509295939492505050565b6000806040838503121561461a57600080fd5b8235614625816143bd565b915060208301356146358161456c565b809150509250929050565b634e487b7160e01b600052604160045260246000fd5b604051601f8201601f191681016001600160401b038111828210171561467e5761467e614640565b604052919050565b60006001600160401b0382111561469f5761469f614640565b5060051b60200190565b600082601f8301126146ba57600080fd5b813560206146cf6146ca83614686565b614656565b82815260059290921b840181019181810190868411156146ee57600080fd5b8286015b8481101561471257803561470581614452565b83529183019183016146f2565b509695505050505050565b6000806040838503121561473057600080fd5b82356001600160401b038082111561474757600080fd5b818501915085601f83011261475b57600080fd5b8135602061476b6146ca83614686565b82815260059290921b8401810191818101908984111561478a57600080fd5b948201945b838610156147a85785358252948201949082019061478f565b965050860135925050808211156147be57600080fd5b506147cb858286016146a9565b9150509250929050565b600080602083850312156147e857600080fd5b82356001600160401b038111156147fe57600080fd5b61480a85828601614379565b90969095509350505050565b80356005811061353157600080fd5b60008060006060848603121561483a57600080fd5b8335925061484a60208501614816565b9150604084013561485a81614452565b809150509250925092565b6000806040838503121561487857600080fd5b823561488381614452565b9150602083013561463581614452565b634e487b7160e01b600052601160045260246000fd5b80820180821115611bbc57611bbc614893565b634e487b7160e01b600052603260045260246000fd5b6000600182016148e4576148e4614893565b5060010190565b6000602082840312156148fd57600080fd5b81516001600160401b03811681146121d057600080fd5b6001600160a01b03848116825260406020808401829052908301849052600091859160608501845b8781101561496357843561494f81614452565b84168252938201939082019060010161493c565b5098975050505050505050565b600082601f83011261498157600080fd5b815160206149916146ca83614686565b82815260059290921b840181019181810190868411156149b057600080fd5b8286015b848110156147125780516149c781614452565b83529183019183016149b4565b600080604083850312156149e757600080fd5b82516001600160401b038111156149fd57600080fd5b614a0985828601614970565b925050602083015190509250929050565b81810381811115611bbc57611bbc614893565b8082028115828204841417611bbc57611bbc614893565b62ffffff818116838216019080821115614a6057614a60614893565b5092915050565b600060208284031215614a7957600080fd5b81516121d0816143bd565b6020808252600c908201526b61646472657373207a65726f60a01b604082015260600190565b600060208284031215614abc57600080fd5b81516121d081614452565b600181811c90821680614adb57607f821691505b602082108103614afb57634e487b7160e01b600052602260045260246000fd5b50919050565b60008251614b138184602087016144ae565b9190910192915050565b6001600160781b03818116838216019080821115614a6057614a60614893565b6001600160781b03828116828216039080821115614a6057614a60614893565b600060208284031215614b6f57600080fd5b81516121d08161456c565b634e487b7160e01b600052600160045260246000fd5b60008235609e19833603018112614b1357600080fd5b600060208284031215614bb857600080fd5b6121d082614816565b634e487b7160e01b600052602160045260246000fd5b600060208284031215614be957600080fd5b81356121d0816143bd565b600060208284031215614c0657600080fd5b5051919050565b600062ffffff808316818103614c2557614c25614893565b6001019392505050565b601f8211156112ac57600081815260208120601f850160051c81016020861015614c565750805b601f850160051c820191505b8181101561296c57828155600101614c62565b81516001600160401b03811115614c8e57614c8e614640565b614ca281614c9c8454614ac7565b84614c2f565b602080601f831160018114614cd75760008415614cbf5750858301515b600019600386901b1c1916600185901b17855561296c565b600085815260208120601f198616915b82811015614d0657888601518255948401946001909101908401614ce7565b5085821015614d245787850151600019600388901b60f8161c191681555b5050505050600190811b01905550565b63ffffffff60e01b8516815283602082015260606040820152816060820152818360808301376000818301608090810191909152601f909201601f191601019392505050565b6020815260006121d060208301846144d2565b6001600160601b031981168114610eb057600080fd5b600060208284031215614db557600080fd5b81356121d081614d8d565b80356001600160781b038116811461353157600080fd5b60058110614df557634e487b7160e01b600052602160045260246000fd5b9052565b608081018235614e08816143bd565b62ffffff1682526020830135614e1d81614d8d565b6001600160601b03191660208301526001600160781b03614e4060408501614dc0565b166040830152614e5260608401614816565b614a606060840182614dd7565b6000808335601e19843603018112614e7657600080fd5b8301803591506001600160401b03821115614e9057600080fd5b6020019150600581901b3603821315613cbb57600080fd5b600060208284031215614eba57600080fd5b6121d082614dc0565b62ffffff8416815260608101614edc6020830185614dd7565b6001600160781b0383166040830152949350505050565b600082601f830112614f0457600080fd5b81516020614f146146ca83614686565b82815260059290921b84018101918181019086841115614f3357600080fd5b8286015b848110156147125780518352918301918301614f37565b60008060008060808587031215614f6457600080fd5b84516001600160401b0380821115614f7b57600080fd5b614f8788838901614970565b95506020870151915080821115614f9d57600080fd5b50614faa87828801614ef3565b604087015160609097015195989097509350505050565b6020808252600f908201526e1b9bdd081a5b9a5d1a585b1a5cd959608a1b604082015260600190565b60008060408385031215614ffd57600080fd5b82516001600160401b038082111561501457600080fd5b818501915085601f83011261502857600080fd5b815160206150386146ca83614686565b82815260059290921b8401810191818101908984111561505757600080fd5b948201945b8386101561507e57855161506f81614d8d565b8252948201949082019061505c565b9188015191965090935050508082111561509757600080fd5b506147cb85828601614ef3565b600080604083850312156150b757600080fd5b82516001600160401b03808211156150ce57600080fd5b6150da86838701614970565b9350602085015191508082111561509757600080fd5b634e487b7160e01b600052603160045260246000fd5b634e487b7160e01b600052601260045260246000fd5b60008261512b5761512b615106565b500490565b60008261513f5761513f615106565b500690565b6001600160801b03828116828216039080821115614a6057614a6061489356fe06f77960d1401cc7d724b5c2b5ad672b9dbf08d8b11516a38c21697c23fbb0d2a26469706673582212200e285607c6e0da1d5ad593d36448dc55fac6df48c9902e1f6f883e55fcbded0064736f6c63430008140033",
  "linkReferences": {},
  "deployedLinkReferences": {}
}