{
  "_format": "hh-sol-artifact-1",
  "contractName": "RewardManager",
  "sourceName": "contracts/protocol/implementation/RewardManager.sol",
  "abi": [
    {
      "inputs": [
        {
          "internalType": "contract IGovernanceSettings",
          "name": "_governanceSettings",
          "type": "address"
        },
        {
          "internalType": "address",
          "name": "_initialGovernance",
          "type": "address"
        },
        {
          "internalType": "address",
          "name": "_addressUpdater",
          "type": "address"
        }
      ],
      "stateMutability": "nonpayable",
      "type": "constructor"
    },
    {
      "inputs": [],
      "name": "ReentrancyGuardReentrantCall",
      "type": "error"
    },
    {
      "inputs": [
        {
          "internalType": "uint8",
          "name": "bits",
          "type": "uint8"
        },
        {
          "internalType": "uint256",
          "name": "value",
          "type": "uint256"
        }
      ],
      "name": "SafeCastOverflowedUintDowncast",
      "type": "error"
    },
    {
      "anonymous": false,
      "inputs": [
        {
          "indexed": false,
          "internalType": "bytes4",
          "name": "selector",
          "type": "bytes4"
        },
        {
          "indexed": false,
          "internalType": "uint256",
          "name": "allowedAfterTimestamp",
          "type": "uint256"
        },
        {
          "indexed": false,
          "internalType": "bytes",
          "name": "encodedCall",
          "type": "bytes"
        }
      ],
      "name": "GovernanceCallTimelocked",
      "type": "event"
    },
    {
      "anonymous": false,
      "inputs": [
        {
          "indexed": false,
          "internalType": "address",
          "name": "initialGovernance",
          "type": "address"
        }
      ],
      "name": "GovernanceInitialised",
      "type": "event"
    },
    {
      "anonymous": false,
      "inputs": [
        {
          "indexed": false,
          "internalType": "address",
          "name": "governanceSettings",
          "type": "address"
        }
      ],
      "name": "GovernedProductionModeEntered",
      "type": "event"
    },
    {
      "anonymous": false,
      "inputs": [
        {
          "indexed": true,
          "internalType": "address",
          "name": "voter",
          "type": "address"
        },
        {
          "indexed": true,
          "internalType": "address",
          "name": "whoClaimed",
          "type": "address"
        },
        {
          "indexed": true,
          "internalType": "address",
          "name": "sentTo",
          "type": "address"
        },
        {
          "indexed": false,
          "internalType": "uint24",
          "name": "rewardEpochId",
          "type": "uint24"
        },
        {
          "indexed": false,
          "internalType": "enum IRewardManager.ClaimType",
          "name": "claimType",
          "type": "uint8"
        },
        {
          "indexed": false,
          "internalType": "uint120",
          "name": "amount",
          "type": "uint120"
        }
      ],
      "name": "RewardClaimed",
      "type": "event"
    },
    {
      "anonymous": false,
      "inputs": [
        {
          "indexed": false,
          "internalType": "uint256",
          "name": "rewardEpochId",
          "type": "uint256"
        }
      ],
      "name": "RewardClaimsEnabled",
      "type": "event"
    },
    {
      "anonymous": false,
      "inputs": [
        {
          "indexed": false,
          "internalType": "uint256",
          "name": "rewardEpochId",
          "type": "uint256"
        }
      ],
      "name": "RewardClaimsExpired",
      "type": "event"
    },
    {
      "anonymous": false,
      "inputs": [
        {
          "indexed": false,
          "internalType": "bytes4",
          "name": "selector",
          "type": "bytes4"
        },
        {
          "indexed": false,
          "internalType": "uint256",
          "name": "timestamp",
          "type": "uint256"
        }
      ],
      "name": "TimelockedGovernanceCallCanceled",
      "type": "event"
    },
    {
      "anonymous": false,
      "inputs": [
        {
          "indexed": false,
          "internalType": "bytes4",
          "name": "selector",
          "type": "bytes4"
        },
        {
          "indexed": false,
          "internalType": "uint256",
          "name": "timestamp",
          "type": "uint256"
        }
      ],
      "name": "TimelockedGovernanceCallExecuted",
      "type": "event"
    },
    {
      "inputs": [],
      "name": "activate",
      "outputs": [],
      "stateMutability": "nonpayable",
      "type": "function"
    },
    {
      "inputs": [],
      "name": "active",
      "outputs": [
        {
          "internalType": "bool",
          "name": "",
          "type": "bool"
        }
      ],
      "stateMutability": "view",
      "type": "function"
    },
    {
      "inputs": [
        {
          "internalType": "uint256",
          "name": "_toAuthorizeWei",
          "type": "uint256"
        }
      ],
      "name": "addDailyAuthorizedInflation",
      "outputs": [],
      "stateMutability": "nonpayable",
      "type": "function"
    },
    {
      "inputs": [
        {
          "internalType": "address[]",
          "name": "_rewardOwners",
          "type": "address[]"
        },
        {
          "internalType": "uint24",
          "name": "_rewardEpochId",
          "type": "uint24"
        },
        {
          "components": [
            {
              "internalType": "bytes32[]",
              "name": "merkleProof",
              "type": "bytes32[]"
            },
            {
              "components": [
                {
                  "internalType": "uint24",
                  "name": "rewardEpochId",
                  "type": "uint24"
                },
                {
                  "internalType": "bytes20",
                  "name": "beneficiary",
                  "type": "bytes20"
                },
                {
                  "internalType": "uint120",
                  "name": "amount",
                  "type": "uint120"
                },
                {
                  "internalType": "enum IRewardManager.ClaimType",
                  "name": "claimType",
                  "type": "uint8"
                }
              ],
              "internalType": "struct IRewardManager.RewardClaim",
              "name": "body",
              "type": "tuple"
            }
          ],
          "internalType": "struct IRewardManager.RewardClaimWithProof[]",
          "name": "_proofs",
          "type": "tuple[]"
        }
      ],
      "name": "autoClaim",
      "outputs": [],
      "stateMutability": "nonpayable",
      "type": "function"
    },
    {
      "inputs": [],
      "name": "cChainStake",
      "outputs": [
        {
          "internalType": "contract ICChainStake",
          "name": "",
          "type": "address"
        }
      ],
      "stateMutability": "view",
      "type": "function"
    },
    {
      "inputs": [],
      "name": "cChainStakeEnabled",
      "outputs": [
        {
          "internalType": "bool",
          "name": "",
          "type": "bool"
        }
      ],
      "stateMutability": "view",
      "type": "function"
    },
    {
      "inputs": [
        {
          "internalType": "bytes4",
          "name": "_selector",
          "type": "bytes4"
        }
      ],
      "name": "cancelGovernanceCall",
      "outputs": [],
      "stateMutability": "nonpayable",
      "type": "function"
    },
    {
      "inputs": [
        {
          "internalType": "address",
          "name": "_rewardOwner",
          "type": "address"
        },
        {
          "internalType": "address payable",
          "name": "_recipient",
          "type": "address"
        },
        {
          "internalType": "uint24",
          "name": "_rewardEpochId",
          "type": "uint24"
        },
        {
          "internalType": "bool",
          "name": "_wrap",
          "type": "bool"
        },
        {
          "components": [
            {
              "internalType": "bytes32[]",
              "name": "merkleProof",
              "type": "bytes32[]"
            },
            {
              "components": [
                {
                  "internalType": "uint24",
                  "name": "rewardEpochId",
                  "type": "uint24"
                },
                {
                  "internalType": "bytes20",
                  "name": "beneficiary",
                  "type": "bytes20"
                },
                {
                  "internalType": "uint120",
                  "name": "amount",
                  "type": "uint120"
                },
                {
                  "internalType": "enum IRewardManager.ClaimType",
                  "name": "claimType",
                  "type": "uint8"
                }
              ],
              "internalType": "struct IRewardManager.RewardClaim",
              "name": "body",
              "type": "tuple"
            }
          ],
          "internalType": "struct IRewardManager.RewardClaimWithProof[]",
          "name": "_proofs",
          "type": "tuple[]"
        }
      ],
      "name": "claim",
      "outputs": [
        {
          "internalType": "uint256",
          "name": "_rewardAmountWei",
          "type": "uint256"
        }
      ],
      "stateMutability": "nonpayable",
      "type": "function"
    },
    {
      "inputs": [],
      "name": "claimSetupManager",
      "outputs": [
        {
          "internalType": "contract IClaimSetupManager",
          "name": "",
          "type": "address"
        }
      ],
      "stateMutability": "view",
      "type": "function"
    },
    {
      "inputs": [],
      "name": "cleanupBlockNumber",
      "outputs": [
        {
          "internalType": "uint256",
          "name": "",
          "type": "uint256"
        }
      ],
      "stateMutability": "view",
      "type": "function"
    },
    {
      "inputs": [
        {
          "internalType": "uint256",
          "name": "_rewardEpochId",
          "type": "uint256"
        }
      ],
      "name": "closeExpiredRewardEpoch",
      "outputs": [],
      "stateMutability": "nonpayable",
      "type": "function"
    },
    {
      "inputs": [],
      "name": "deactivate",
      "outputs": [],
      "stateMutability": "nonpayable",
      "type": "function"
    },
    {
      "inputs": [],
      "name": "enableCChainStake",
      "outputs": [],
      "stateMutability": "nonpayable",
      "type": "function"
    },
    {
      "inputs": [],
      "name": "enableClaims",
      "outputs": [],
      "stateMutability": "nonpayable",
      "type": "function"
    },
    {
      "inputs": [],
      "name": "enablePChainStakeMirror",
      "outputs": [],
      "stateMutability": "nonpayable",
      "type": "function"
    },
    {
      "inputs": [
        {
          "internalType": "bytes4",
          "name": "_selector",
          "type": "bytes4"
        }
      ],
      "name": "executeGovernanceCall",
      "outputs": [],
      "stateMutability": "nonpayable",
      "type": "function"
    },
    {
      "inputs": [],
      "name": "firstClaimableRewardEpochId",
      "outputs": [
        {
          "internalType": "uint24",
          "name": "",
          "type": "uint24"
        }
      ],
      "stateMutability": "view",
      "type": "function"
    },
    {
      "inputs": [],
      "name": "flareSystemCalculator",
      "outputs": [
        {
          "internalType": "contract FlareSystemCalculator",
          "name": "",
          "type": "address"
        }
      ],
      "stateMutability": "view",
      "type": "function"
    },
    {
      "inputs": [],
      "name": "flareSystemManager",
      "outputs": [
        {
          "internalType": "contract FlareSystemManager",
          "name": "",
          "type": "address"
        }
      ],
      "stateMutability": "view",
      "type": "function"
    },
    {
      "inputs": [],
      "name": "getAddressUpdater",
      "outputs": [
        {
          "internalType": "address",
          "name": "_addressUpdater",
          "type": "address"
        }
      ],
      "stateMutability": "view",
      "type": "function"
    },
    {
      "inputs": [],
      "name": "getCurrentRewardEpochId",
      "outputs": [
        {
          "internalType": "uint24",
          "name": "",
          "type": "uint24"
        }
      ],
      "stateMutability": "view",
      "type": "function"
    },
    {
      "inputs": [],
      "name": "getEpochIdsWithClaimableRewards",
      "outputs": [
        {
          "internalType": "uint256",
          "name": "_startEpochId",
          "type": "uint256"
        },
        {
          "internalType": "uint256",
          "name": "_endEpochId",
          "type": "uint256"
        }
      ],
      "stateMutability": "view",
      "type": "function"
    },
    {
      "inputs": [],
      "name": "getExpectedBalance",
      "outputs": [
        {
          "internalType": "uint256",
          "name": "",
          "type": "uint256"
        }
      ],
      "stateMutability": "view",
      "type": "function"
    },
    {
      "inputs": [],
      "name": "getInitialRewardEpochId",
      "outputs": [
        {
          "internalType": "uint256",
          "name": "",
          "type": "uint256"
        }
      ],
      "stateMutability": "view",
      "type": "function"
    },
    {
      "inputs": [],
      "name": "getRewardEpochIdToExpireNext",
      "outputs": [
        {
          "internalType": "uint256",
          "name": "",
          "type": "uint256"
        }
      ],
      "stateMutability": "view",
      "type": "function"
    },
    {
      "inputs": [],
      "name": "getRewardOffersManagerList",
      "outputs": [
        {
          "internalType": "address[]",
          "name": "",
          "type": "address[]"
        }
      ],
      "stateMutability": "view",
      "type": "function"
    },
    {
      "inputs": [],
      "name": "getTokenPoolSupplyData",
      "outputs": [
        {
          "internalType": "uint256",
          "name": "_lockedFundsWei",
          "type": "uint256"
        },
        {
          "internalType": "uint256",
          "name": "_totalInflationAuthorizedWei",
          "type": "uint256"
        },
        {
          "internalType": "uint256",
          "name": "_totalClaimedWei",
          "type": "uint256"
        }
      ],
      "stateMutability": "view",
      "type": "function"
    },
    {
      "inputs": [],
      "name": "getTotals",
      "outputs": [
        {
          "internalType": "uint256",
          "name": "_totalFundsReceivedWei",
          "type": "uint256"
        },
        {
          "internalType": "uint256",
          "name": "_totalClaimedWei",
          "type": "uint256"
        },
        {
          "internalType": "uint256",
          "name": "_totalBurnedWei",
          "type": "uint256"
        },
        {
          "internalType": "uint256",
          "name": "_totalInflationAuthorizedWei",
          "type": "uint256"
        },
        {
          "internalType": "uint256",
          "name": "_totalInflationReceivedWei",
          "type": "uint256"
        }
      ],
      "stateMutability": "view",
      "type": "function"
    },
    {
      "inputs": [
        {
          "internalType": "address",
          "name": "_rewardOwner",
          "type": "address"
        },
        {
          "internalType": "uint24",
          "name": "_rewardEpochId",
          "type": "uint24"
        },
        {
          "internalType": "enum IRewardManager.ClaimType",
          "name": "_claimType",
          "type": "uint8"
        }
      ],
      "name": "getUnclaimedRewardState",
      "outputs": [
        {
          "components": [
            {
              "internalType": "bool",
              "name": "initialised",
              "type": "bool"
            },
            {
              "internalType": "uint120",
              "name": "amount",
              "type": "uint120"
            },
            {
              "internalType": "uint128",
              "name": "weight",
              "type": "uint128"
            }
          ],
          "internalType": "struct RewardManager.UnclaimedRewardState",
          "name": "_state",
          "type": "tuple"
        }
      ],
      "stateMutability": "view",
      "type": "function"
    },
    {
      "inputs": [],
      "name": "governance",
      "outputs": [
        {
          "internalType": "address",
          "name": "",
          "type": "address"
        }
      ],
      "stateMutability": "view",
      "type": "function"
    },
    {
      "inputs": [],
      "name": "governanceSettings",
      "outputs": [
        {
          "internalType": "contract IGovernanceSettings",
          "name": "",
          "type": "address"
        }
      ],
      "stateMutability": "view",
      "type": "function"
    },
    {
      "inputs": [
        {
          "internalType": "contract IGovernanceSettings",
          "name": "_governanceSettings",
          "type": "address"
        },
        {
          "internalType": "address",
          "name": "_initialGovernance",
          "type": "address"
        }
      ],
      "name": "initialise",
      "outputs": [],
      "stateMutability": "nonpayable",
      "type": "function"
    },
    {
      "inputs": [
        {
          "internalType": "address",
          "name": "_address",
          "type": "address"
        }
      ],
      "name": "isExecutor",
      "outputs": [
        {
          "internalType": "bool",
          "name": "",
          "type": "bool"
        }
      ],
      "stateMutability": "view",
      "type": "function"
    },
    {
      "inputs": [],
      "name": "newRewardManager",
      "outputs": [
        {
          "internalType": "address",
          "name": "",
          "type": "address"
        }
      ],
      "stateMutability": "view",
      "type": "function"
    },
    {
      "inputs": [
        {
          "internalType": "address",
          "name": "_rewardOwner",
          "type": "address"
        }
      ],
      "name": "nextClaimableRewardEpochId",
      "outputs": [
        {
          "internalType": "uint256",
          "name": "",
          "type": "uint256"
        }
      ],
      "stateMutability": "view",
      "type": "function"
    },
    {
      "inputs": [],
      "name": "oldRewardManager",
      "outputs": [
        {
          "internalType": "address",
          "name": "",
          "type": "address"
        }
      ],
      "stateMutability": "view",
      "type": "function"
    },
    {
      "inputs": [],
      "name": "pChainStakeMirror",
      "outputs": [
        {
          "internalType": "contract IPChainStakeMirror",
          "name": "",
          "type": "address"
        }
      ],
      "stateMutability": "view",
      "type": "function"
    },
    {
      "inputs": [],
      "name": "pChainStakeMirrorEnabled",
      "outputs": [
        {
          "internalType": "bool",
          "name": "",
          "type": "bool"
        }
      ],
      "stateMutability": "view",
      "type": "function"
    },
    {
      "inputs": [],
      "name": "productionMode",
      "outputs": [
        {
          "internalType": "bool",
          "name": "",
          "type": "bool"
        }
      ],
      "stateMutability": "view",
      "type": "function"
    },
    {
      "inputs": [
        {
          "internalType": "uint24",
          "name": "_rewardEpochId",
          "type": "uint24"
        },
        {
          "internalType": "bool",
          "name": "_inflation",
          "type": "bool"
        }
      ],
      "name": "receiveRewards",
      "outputs": [],
      "stateMutability": "payable",
      "type": "function"
    },
    {
      "inputs": [],
      "name": "setInitialRewardData",
      "outputs": [],
      "stateMutability": "nonpayable",
      "type": "function"
    },
    {
      "inputs": [
        {
          "internalType": "address",
          "name": "_newRewardManager",
          "type": "address"
        }
      ],
      "name": "setNewRewardManager",
      "outputs": [],
      "stateMutability": "nonpayable",
      "type": "function"
    },
    {
      "inputs": [
        {
          "internalType": "address",
          "name": "_oldRewardManager",
          "type": "address"
        }
      ],
      "name": "setOldRewardManager",
      "outputs": [],
      "stateMutability": "nonpayable",
      "type": "function"
    },
    {
      "inputs": [
        {
          "internalType": "address[]",
          "name": "_rewardOffersManagerList",
          "type": "address[]"
        }
      ],
      "name": "setRewardOffersManagerList",
      "outputs": [],
      "stateMutability": "nonpayable",
      "type": "function"
    },
    {
      "inputs": [],
      "name": "switchToProductionMode",
      "outputs": [],
      "stateMutability": "nonpayable",
      "type": "function"
    },
    {
      "inputs": [
        {
          "internalType": "bytes4",
          "name": "",
          "type": "bytes4"
        }
      ],
      "name": "timelockedCalls",
      "outputs": [
        {
          "internalType": "uint256",
          "name": "allowedAfterTimestamp",
          "type": "uint256"
        },
        {
          "internalType": "bytes",
          "name": "encodedCall",
          "type": "bytes"
        }
      ],
      "stateMutability": "view",
      "type": "function"
    },
    {
      "inputs": [
        {
          "internalType": "bytes32[]",
          "name": "_contractNameHashes",
          "type": "bytes32[]"
        },
        {
          "internalType": "address[]",
          "name": "_contractAddresses",
          "type": "address[]"
        }
      ],
      "name": "updateContractAddresses",
      "outputs": [],
      "stateMutability": "nonpayable",
      "type": "function"
    },
    {
      "inputs": [],
      "name": "wNat",
      "outputs": [
        {
          "internalType": "contract IWNat",
          "name": "",
          "type": "address"
        }
      ],
      "stateMutability": "view",
      "type": "function"
    }
  ],
  "bytecode": "0x60806040523480156200001157600080fd5b506040516200561738038062005617833981016040819052620000349162000221565b8083836200004382826200008f565b506200006f9050817f714f205b2abd25bef1d06a1af944e38c113fe6160375c4e1d6d5cf28848e771955565b505060016003555050600a805462ffffff191662ffffff17905562000275565b600054600160a01b900460ff1615620000ef5760405162461bcd60e51b815260206004820152601460248201527f696e697469616c6973656420213d2066616c736500000000000000000000000060448201526064015b60405180910390fd5b6001600160a01b038216620001475760405162461bcd60e51b815260206004820152601860248201527f676f7665726e616e63652073657474696e6773207a65726f00000000000000006044820152606401620000e6565b6001600160a01b038116620001925760405162461bcd60e51b815260206004820152601060248201526f5f676f7665726e616e6365207a65726f60801b6044820152606401620000e6565b600080546001600160a01b038481166001600160a81b031990921691909117600160a01b17909155600180549183166001600160a01b0319909216821790556040519081527f9789733827840833afc031fb2ef9ab6894271f77bad2085687cf4ae5c7bee4db9060200160405180910390a15050565b6001600160a01b03811681146200021e57600080fd5b50565b6000806000606084860312156200023757600080fd5b8351620002448162000208565b6020850151909350620002578162000208565b60408501519092506200026a8162000208565b809150509250925092565b61539280620002856000396000f3fe6080604052600436106102935760003560e01c80638e33aba51161015a578063c4db9619116100c1578063ea28edad1161007a578063ea28edad14610852578063ef88bf1314610867578063f3eb821f14610887578063f5a98383146108a7578063fbde354d146108bc578063fd95b2e0146108dc57600080fd5b8063c4db96191461079c578063d6c1dbee146107bc578063debfda30146107dc578063deea13e7146107fc578063e17f212e14610811578063e7dea8e61461083257600080fd5b8063a71de67611610113578063a71de676146106f1578063af04cd3b14610712578063b006b4e314610727578063b00c0b761461073c578063b753801d1461075c578063bb25d5df1461077c57600080fd5b80638e33aba51461060c578063951238871461062c5780639a3410bc1461064c5780639edbf007146106685780639ee5de3314610688578063a02e86e5146106de57600080fd5b80635aa6e675116101fe57806374e6310e116101b757806374e6310e1461050d5780637a17a34d1461053b5780637bf756c91461055d57806380c3d2671461057e57806384e10a90146105a857806387ad4ecf146105ec57600080fd5b80635aa6e6751461044f5780635ff270791461046457806362354e031461048457806362d9c89a146104a457806367fc4029146104c457806370562697146104e457600080fd5b80632dafdbbf116102505780632dafdbbf1461035b57806330c40bc91461038b57806336300be2146103ae578063470ce087146103e657806351b42b00146104065780635267a15d1461041b57600080fd5b806302fb0c5e14610298578063064be532146102ce5780630f15f4c0146102ef57806315ca06371461030657806315f253fb146103265780631de5609814610346575b600080fd5b3480156102a457600080fd5b506018546102b990600160a81b900460ff1681565b60405190151581526020015b60405180910390f35b3480156102da57600080fd5b506018546102b990600160a01b900460ff1681565b3480156102fb57600080fd5b506103046108f1565b005b34801561031257600080fd5b50610304610321366004614531565b61090e565b34801561033257600080fd5b5061030461034136600461459f565b61092a565b34801561035257600080fd5b50610304610c0e565b34801561036757600080fd5b50610370610d90565b604080519384526020840192909252908201526060016102c5565b34801561039757600080fd5b506103a0610dc3565b6040519081526020016102c5565b3480156103ba57600080fd5b506019546103ce906001600160a01b031681565b6040516001600160a01b0390911681526020016102c5565b3480156103f257600080fd5b50610304610401366004614638565b610dd2565b34801561041257600080fd5b50610304610e9a565b34801561042757600080fd5b507f714f205b2abd25bef1d06a1af944e38c113fe6160375c4e1d6d5cf28848e7719546103ce565b34801561045b57600080fd5b506103ce610eb1565b34801561047057600080fd5b5061030461047f366004614655565b610f48565b34801561049057600080fd5b506000546103ce906001600160a01b031681565b3480156104b057600080fd5b506016546103ce906001600160a01b031681565b3480156104d057600080fd5b506103046104df366004614655565b6111ce565b3480156104f057600080fd5b506104f96112af565b60405162ffffff90911681526020016102c5565b34801561051957600080fd5b5061052d610528366004614655565b6112b9565b6040516102c59291906146cf565b34801561054757600080fd5b5061055061135e565b6040516102c591906146f0565b34801561056957600080fd5b506016546102b990600160a01b900460ff1681565b34801561058a57600080fd5b506105936113c3565b604080519283526020830191909152016102c5565b3480156105b457600080fd5b50601054600e54600f54601254601154604080519586526020860194909452928401919091526060830152608082015260a0016102c5565b3480156105f857600080fd5b506015546103ce906001600160a01b031681565b34801561061857600080fd5b506103a061062736600461474b565b611448565b34801561063857600080fd5b506103a0610647366004614638565b6115c8565b34801561065857600080fd5b50600a546104f99062ffffff1681565b34801561067457600080fd5b506017546103ce906001600160a01b031681565b34801561069457600080fd5b506106a86106a33660046147e7565b6115eb565b604080518251151581526020808401516001600160781b031690820152918101516001600160801b0316908201526060016102c5565b6103046106ec36600461482e565b6116a8565b3480156106fd57600080fd5b50600a546301000000900462ffffff166103a0565b34801561071e57600080fd5b506103a06117ae565b34801561073357600080fd5b506103046117b8565b34801561074857600080fd5b50610304610757366004614944565b6117fc565b34801561076857600080fd5b506103046107773660046149fc565b6118d7565b34801561078857600080fd5b506014546103ce906001600160a01b031681565b3480156107a857600080fd5b506013546103ce906001600160a01b031681565b3480156107c857600080fd5b506103046107d7366004614531565b611951565b3480156107e857600080fd5b506102b96107f7366004614638565b611b89565b34801561080857600080fd5b506103a0611c12565b34801561081d57600080fd5b506000546102b990600160a81b900460ff1681565b34801561083e57600080fd5b506018546103ce906001600160a01b031681565b34801561085e57600080fd5b50610304611c80565b34801561087357600080fd5b50610304610882366004614a3d565b611d26565b34801561089357600080fd5b506103046108a2366004614638565b611e8c565b3480156108b357600080fd5b50610304611f46565b3480156108c857600080fd5b50601a546103ce906001600160a01b031681565b3480156108e857600080fd5b50610304612007565b6108f961204b565b6018805460ff60a81b1916600160a81b179055565b6109166120a5565b806012546109249190614a81565b60125550565b610932612103565b61093a61215c565b6109426121c4565b60005b8481101561098e5761097c86868381811061096257610962614a94565b90506020020160208101906109779190614638565b6121ee565b8061098681614aaa565b915050610945565b506000610999612235565b90506109a584826122a3565b6109e65760405162461bcd60e51b815260206004820152600d60248201526c6e6f7420636c61696d61626c6560981b60448201526064015b60405180910390fd5b60135460405163712441d960e11b815260009182916001600160a01b039091169063e24883b290610a1f9033908c908c90600401614ac3565b600060405180830381865afa158015610a3c573d6000803e3d6000fd5b505050506040513d6000823e601f3d908101601f19168201604052610a649190810190614b83565b915091506000610a726122e8565b9050610a8260008088888561231f565b5060009050805b89811015610bc25760008b8b83818110610aa557610aa5614a94565b9050602002016020810190610aba9190614638565b90506000868381518110610ad057610ad0614a94565b602002602001015190506000610aea83838e896000612490565b6001600160781b03169050816001600160a01b0316836001600160a01b031614610b3257610b1c82838e896001612490565b610b2f906001600160781b031682614a81565b90505b86811015610b825760405162461bcd60e51b815260206004820152601860248201527f636c61696d656420616d6f756e7420746f6f20736d616c6c000000000000000060448201526064016109dd565b610b8c8186614a81565b9450610b988782614bc9565b90508015610bac57610bac8282600161276e565b5050508080610bba90614aaa565b915050610a89565b5080600e6000828254610bd59190614a81565b90915550610bf0905033610be98b86614bdc565b600061276e565b5050505050610bff6001600355565b610c0761286f565b5050505050565b600054600160b01b900460ff1680610c305750600054600160a81b900460ff16155b15610d8357610c3d6128b6565b601854600160a81b900460ff16158015610c635750600a54600160301b900462ffffff16155b8015610c7b5750600a546301000000900462ffffff16155b610cbb5760405162461bcd60e51b81526020600482015260116024820152706e6f7420696e697469616c20737461746560781b60448201526064016109dd565b610cc3612235565b610cce906001614bf3565b600a60066101000a81548162ffffff021916908362ffffff160217905550601460009054906101000a90046001600160a01b03166001600160a01b031663aec84ab66040518163ffffffff1660e01b8152600401602060405180830381865afa158015610d3f573d6000803e3d6000fd5b505050506040513d601f19601f82011682018060405250810190610d639190614c16565b600a60036101000a81548162ffffff021916908362ffffff160217905550565b610d8e6000366128ee565b565b6000806000601154601054610da59190614bc9565b92506012549150600f54600e54610dbc9190614a81565b9050909192565b6000610dcd612a3a565b905090565b600054600160b01b900460ff1680610df45750600054600160a81b900460ff16155b15610e8c57610e016128b6565b601a546001600160a01b031615610e485760405162461bcd60e51b815260206004820152600b60248201526a185b1c9958591e481cd95d60aa1b60448201526064016109dd565b6001600160a01b038116610e6e5760405162461bcd60e51b81526004016109dd90614c33565b601a80546001600160a01b0319166001600160a01b03831617905550565b610e976000366128ee565b50565b610ea261204b565b6018805460ff60a81b19169055565b60008054600160a81b900460ff16610ed357506001546001600160a01b031690565b60008054906101000a90046001600160a01b03166001600160a01b031663732524946040518163ffffffff1660e01b8152600401602060405180830381865afa158015610f24573d6000803e3d6000fd5b505050506040513d601f19601f82011682018060405250810190610dcd9190614c59565b610f5133611b89565b610f8d5760405162461bcd60e51b815260206004820152600d60248201526c37b7363c9032bc32b1baba37b960991b60448201526064016109dd565b6001600160e01b0319811660009081526002602052604081208054909103610ff75760405162461bcd60e51b815260206004820152601a60248201527f74696d656c6f636b3a20696e76616c69642073656c6563746f7200000000000060448201526064016109dd565b80544210156110485760405162461bcd60e51b815260206004820152601960248201527f74696d656c6f636b3a206e6f7420616c6c6f776564207965740000000000000060448201526064016109dd565b600081600101805461105990614c76565b80601f016020809104026020016040519081016040528092919081815260200182805461108590614c76565b80156110d25780601f106110a7576101008083540402835291602001916110d2565b820191906000526020600020905b8154815290600101906020018083116110b557829003601f168201915b505050506001600160e01b031985166000908152600260205260408120818155929350905061110460018301826144e7565b50506000805460ff60b01b1916600160b01b1781556040513090611129908490614cb0565b6000604051808303816000865af19150503d8060008114611166576040519150601f19603f3d011682016040523d82523d6000602084013e61116b565b606091505b50506000805460ff60b01b19169055604080516001600160e01b0319871681524260208201529192507fa7326b57fc9cfe267aaea5e7f0b01757154d265620a0585819416ee9ddd2c438910160405180910390a16111c881612a57565b50505050565b6111d661204b565b6001600160e01b03198116600090815260026020526040812054900361123e5760405162461bcd60e51b815260206004820152601a60248201527f74696d656c6f636b3a20696e76616c69642073656c6563746f7200000000000060448201526064016109dd565b604080516001600160e01b0319831681524260208201527f7735b2391c38a81419c513e30ca578db7158eadd7101511b23e221c654d19cf8910160405180910390a16001600160e01b031981166000908152600260205260408120818155906112aa60018301826144e7565b505050565b6000610dcd612235565b600260205260009081526040902080546001820180549192916112db90614c76565b80601f016020809104026020016040519081016040528092919081815260200182805461130790614c76565b80156113545780601f1061132957610100808354040283529160200191611354565b820191906000526020600020905b81548152906001019060200180831161133757829003601f168201915b5050505050905082565b6060601b6000018054806020026020016040519081016040528092919081815260200182805480156113b957602002820191906000526020600020905b81546001600160a01b0316815260019091019060200180831161139b575b5050505050905090565b6000806113ce6122e8565b62ffffff16915060006113df612235565b62ffffff169050600081116114365760405162461bcd60e51b815260206004820152601f60248201527f6e6f2065706f6368207769746820636c61696d61626c6520726577617264730060448201526064016109dd565b611441600182614bc9565b9150509091565b6000611452612103565b61145a61215c565b6114626121c4565b868661146e8282612a74565b611477886121ee565b6000611481612235565b905061148d88826122a3565b6114c95760405162461bcd60e51b815260206004820152600d60248201526c6e6f7420636c61696d61626c6560981b60448201526064016109dd565b60006114d36122e8565b905060006114e48c8c8a8a8661231f565b6001600160781b03909116965090506115018c8c8c856000612490565b611514906001600160781b031687614a81565b95506001600160781b0381161561157e57806001600160781b0316600f60008282546115409190614a81565b909155505060405161dead906001600160781b03831680156108fc02916000818181858888f1935050505015801561157c573d6000803e3d6000fd5b505b85156115a75785600e60008282546115969190614a81565b909155506115a790508b878b61276e565b50505050506115b66001600355565b6115be61286f565b9695505050505050565b60006115e0826115d66122e8565b62ffffff16612af7565b62ffffff1692915050565b604080516060810182526000808252602080830182905282840182905262ffffff86168252600b9052918220909183600481111561162b5761162b614ccc565b600481111561163c5761163c614ccc565b8152602080820192909252604090810160009081206001600160a01b038816825283528190208151606081018352905460ff81161515825261010081046001600160781b031693820193909352600160801b9092046001600160801b03169082015290505b9392505050565b6116b06120a5565b6116b861215c565b6116c0612235565b62ffffff168262ffffff1610156117195760405162461bcd60e51b815260206004820152601b60248201527f7265776172642065706f636820696420696e207468652070617374000000000060448201526064016109dd565b61172234612b23565b62ffffff83166000908152600660205260408120805490919061174f9084906001600160781b0316614ce2565b92506101000a8154816001600160781b0302191690836001600160781b0316021790555034601060008282546117859190614a81565b909155505080156117a2573460115461179e9190614a81565b6011555b6117aa61286f565b5050565b6000610dcd612b5b565b600054600160b01b900460ff16806117da5750600054600160a81b900460ff16155b15610d83576117e76128b6565b6016805460ff60a01b1916600160a01b179055565b7f714f205b2abd25bef1d06a1af944e38c113fe6160375c4e1d6d5cf28848e7719546001600160a01b0316336001600160a01b0316146118755760405162461bcd60e51b815260206004820152601460248201527337b7363c9030b2323932b9b9903ab83230ba32b960611b60448201526064016109dd565b6118cd6118a983836040518060400160405280600e81526020016d20b2323932b9b9aab83230ba32b960911b815250612b7a565b7f714f205b2abd25bef1d06a1af944e38c113fe6160375c4e1d6d5cf28848e771955565b6117aa8282612c36565b600054600160b01b900460ff16806118f95750600054600160a81b900460ff16155b15611946576119066128b6565b6117aa828280806020026020016040519081016040528093929190818152602001838360200280828437600092019190915250601b93925050612e569050565b6117aa6000366128ee565b6014546001600160a01b03163314806119745750601a546001600160a01b031633145b6119b05760405162461bcd60e51b815260206004820152600d60248201526c6f6e6c79206d616e616765727360981b60448201526064016109dd565b600a546301000000900462ffffff1681146119fe5760405162461bcd60e51b815260206004820152600e60248201526d1ddc9bdb99c8195c1bd8da081a5960921b60448201526064016109dd565b6019546001600160a01b031615801590611a355750600a54611a2d90600160301b900462ffffff166032614bf3565b62ffffff1681105b15611a9957601954604051636b60edf760e11b8152600481018390526001600160a01b039091169063d6c1dbee90602401600060405180830381600087803b158015611a8057600080fd5b505af1158015611a94573d6000803e3d6000fd5b505050505b611aac611aa7826001614a81565b612e69565b600a805462ffffff9290921663010000000265ffffff000000199092169190911790556040518181527f5d05c64f281304391697cf987812e1a736413a062a9bdf39af4102209eb6fa589060200160405180910390a16000818152600860209081526040808320546006909252822054611b32916001600160781b039081169116614d02565b6001600160781b0316905080156117aa5780600f6000828254611b559190614a81565b909155505060405161dead9082156108fc029083906000818181858888f193505050501580156112aa573d6000803e3d6000fd5b60008054600160a01b900460ff168015611c0c5750600054604051630debfda360e41b81526001600160a01b0384811660048301529091169063debfda3090602401602060405180830381865afa158015611be8573d6000803e3d6000fd5b505050506040513d601f19601f82011682018060405250810190611c0c9190614d22565b92915050565b6017546040805163deea13e760e01b815290516000926001600160a01b03169163deea13e79160048083019260209291908290030181865afa158015611c5c573d6000803e3d6000fd5b505050506040513d601f19601f82011682018060405250810190610dcd9190614d3f565b611c8861204b565b600a5462ffffff90811614611cd15760405162461bcd60e51b815260206004820152600f60248201526e185b1c9958591e48195b98589b1959608a1b60448201526064016109dd565b611cd9612235565b600a805462ffffff191662ffffff9290921691821790556040519081527f1cfb844c44f9325fc9ad6cc6191a4a24b0415137fe300b6c9071523a253f7a08906020015b60405180910390a1565b600054600160a01b900460ff1615611d775760405162461bcd60e51b8152602060048201526014602482015273696e697469616c6973656420213d2066616c736560601b60448201526064016109dd565b6001600160a01b038216611dcd5760405162461bcd60e51b815260206004820152601860248201527f676f7665726e616e63652073657474696e6773207a65726f000000000000000060448201526064016109dd565b6001600160a01b038116611e165760405162461bcd60e51b815260206004820152601060248201526f5f676f7665726e616e6365207a65726f60801b60448201526064016109dd565b600080546001600160a01b038481166001600160a81b031990921691909117600160a01b17909155600180549183166001600160a01b0319909216821790556040519081527f9789733827840833afc031fb2ef9ab6894271f77bad2085687cf4ae5c7bee4db9060200160405180910390a15050565b600054600160b01b900460ff1680611eae5750600054600160a81b900460ff16155b15610e8c57611ebb6128b6565b6019546001600160a01b031615611f025760405162461bcd60e51b815260206004820152600b60248201526a185b1c9958591e481cd95d60aa1b60448201526064016109dd565b6001600160a01b038116611f285760405162461bcd60e51b81526004016109dd90614c33565b601980546001600160a01b0319166001600160a01b03831617905550565b611f4e61204b565b600054600160a81b900460ff1615611fa85760405162461bcd60e51b815260206004820152601a60248201527f616c726561647920696e2070726f64756374696f6e206d6f646500000000000060448201526064016109dd565b600180546001600160a01b031916905560008054600160a81b60ff60a81b198216179091556040516001600160a01b0390911681527f83af113638b5422f9e977cebc0aaf0eaf2188eb9a8baae7f9d46c42b33a1560c90602001611d1c565b600054600160b01b900460ff16806120295750600054600160a81b900460ff16155b15610d83576120366128b6565b6018805460ff60a01b1916600160a01b179055565b612053610eb1565b6001600160a01b0316336001600160a01b031614610d8e5760405162461bcd60e51b815260206004820152600f60248201526e6f6e6c7920676f7665726e616e636560881b60448201526064016109dd565b336000908152601c60205260408120549003610d8e5760405162461bcd60e51b815260206004820152601a60248201527f6f6e6c7920726577617264206f6666657273206d616e6167657200000000000060448201526064016109dd565b601854600160a81b900460ff16610d8e5760405162461bcd60e51b815260206004820152601a60248201527f726577617264206d616e6167657220646561637469766174656400000000000060448201526064016109dd565b600034612167612b5b565b6121719190614a81565b905047818111156121b45761dead6108fc61218c8484614bc9565b6040518115909202916000818181858888f193505050501580156112aa573d6000803e3d6000fd5b818110156117aa576117aa614d58565b6002600354036121e757604051633ee5aeb560e01b815260040160405180910390fd5b6002600355565b6001600160a01b038116610e975760405162461bcd60e51b815260206004820152600e60248201526d726563697069656e74207a65726f60901b60448201526064016109dd565b60145460408051637056269760e01b815290516000926001600160a01b03169163705626979160048083019260209291908290030181865afa15801561227f573d6000803e3d6000fd5b505050506040513d601f19601f82011682018060405250810190610dcd9190614c16565b600a5460009062ffffff908116908416108015906122d35750600a5462ffffff6301000000909104811690841610155b80156116a157505062ffffff90811691161090565b600a54600090610dcd90611aa79062ffffff1661231a612306612a3a565b600a546301000000900462ffffff16612e99565b612e99565b60008060005b8481101561248557600086868381811061234157612341614a94565b90506020028101906123539190614d6e565b6123649060a0810190608001614d84565b9050600081600481111561237a5761237a614ccc565b14806123975750600181600481111561239557612395614ccc565b145b15612401576001600160a01b038916156123fc576000806123dc8b8b8b8b888181106123c5576123c5614a94565b90506020028101906123d79190614d6e565b612eaf565b90925090506123eb8287614ce2565b95506123f78186614ce2565b945050505b612472565b8462ffffff1687878481811061241957612419614a94565b905060200281019061242b9190614d6e565b61243c906040810190602001614d9f565b62ffffff16106124725761247287878481811061245b5761245b614a94565b905060200281019061246d9190614d6e565b613346565b508061247d81614aaa565b915050612325565b509550959350505050565b6000806124a2878562ffffff16612af7565b9050805b8562ffffff168162ffffff16116126f65760145460405163388a4c3d60e01b815262ffffff831660048201526000916001600160a01b03169063388a4c3d90602401602060405180830381865afa158015612505573d6000803e3d6000fd5b505050506040513d601f19601f820116820180604052508101906125299190614d3f565b9050806000036125e657601454604051633238037160e11b815262ffffff841660048201526000916001600160a01b03169063647006e290602401602060405180830381865afa158015612581573d6000803e3d6000fd5b505050506040513d601f19601f820116820180604052508101906125a59190614d3f565b036125e65760405162461bcd60e51b8152602060048201526011602482015270726577617264732068617368207a65726f60781b60448201526064016109dd565b62ffffff82166000908152600d602052604081205482111590612608846135d1565b905060006126198c8c878587613670565b6126239082614ce2565b905087612680576016546001600160a01b031615612655576126488c8c878587613a5b565b6126529082614ce2565b90505b6018546001600160a01b031615612680576126738c8c878587613c32565b61267d9082614ce2565b90505b62ffffff8516600090815260086020526040812080548392906126ad9084906001600160781b0316614ce2565b92506101000a8154816001600160781b0302191690836001600160781b0316021790555080876126dd9190614ce2565b96505050505080806126ee90614dbc565b9150506124a6565b50612702856001614bf3565b6001600160a01b03881660009081526004602052604090205462ffffff9182169116101561276457612735856001614bf3565b6001600160a01b0388166000908152600460205260409020805462ffffff191662ffffff929092169190911790555b5095945050505050565b80156127da5760175460405163b760faf960e01b81526001600160a01b0385811660048301529091169063b760faf99084906024016000604051808303818588803b1580156127bc57600080fd5b505af11580156127d0573d6000803e3d6000fd5b5050505050505050565b6000836001600160a01b03168360405160006040518083038185875af1925050503d8060008114612827576040519150601f19603f3d011682016040523d82523d6000602084013e61282c565b606091505b50509050806111c85760405162461bcd60e51b815260206004820152600f60248201526e1d1c985b9cd9995c8819985a5b1959608a1b60448201526064016109dd565b612877612b5b565b4714610d8e5760405162461bcd60e51b815260206004820152600e60248201526d6f7574206f662062616c616e636560901b60448201526064016109dd565b600054600160b01b900460ff16156128e6573330146128d7576128d7614d58565b6000805460ff60b01b19169055565b610d8e61204b565b6128f661204b565b6000805460408051636221a54b60e01b81529051853593926001600160a01b031691636221a54b9160048083019260209291908290030181865afa158015612942573d6000803e3d6000fd5b505050506040513d601f19601f820116820180604052508101906129669190614d3f565b905060006129748242614a81565b9050604051806040016040528082815260200186868080601f01602080910402602001604051908101604052809392919081815260200183838082843760009201829052509390945250506001600160e01b031986168152600260209081526040909120835181559083015190915060018201906129f29082614e24565b509050507fed948300a3694aa01d4a6b258bfd664350193d770c0b51f8387277f6d83ea3b683828787604051612a2b9493929190614ee3565b60405180910390a15050505050565b600a54600090611c0c90600160301b900462ffffff166001613dea565b3d604051818101604052816000823e8215612a70578181f35b8181fd5b6001600160a01b0382163303612a88575050565b60135460405163ce2caa5760e01b81523360048201526001600160a01b03848116602483015283811660448301529091169063ce2caa579060640160006040518083038186803b158015612adb57600080fd5b505afa158015612aef573d6000803e3d6000fd5b505050505050565b6001600160a01b0382166000908152600460205260408120546116a190611aa79062ffffff1684612e99565b60006001600160781b03821115612b57576040516306dfcc6560e41b815260786004820152602481018390526044016109dd565b5090565b6000600f54600e54601054612b709190614bc9565b610dcd9190614bc9565b60008082604051602001612b8e9190614f29565b6040516020818303038152906040528051906020012090506000805b8651811015612c0657868181518110612bc557612bc5614a94565b60200260200101518303612bf457858181518110612be557612be5614a94565b60200260200101519150612c06565b80612bfe81614aaa565b915050612baa565b506001600160a01b038116612c2d5760405162461bcd60e51b81526004016109dd90614c33565b95945050505050565b612c6a82826040518060400160405280601181526020017021b630b4b6a9b2ba3ab826b0b730b3b2b960791b815250612b7a565b601360006101000a8154816001600160a01b0302191690836001600160a01b03160217905550612cc5828260405180604001604052806012815260200171233630b932a9bcb9ba32b6a6b0b730b3b2b960711b815250612b7a565b601460006101000a8154816001600160a01b0302191690836001600160a01b03160217905550612d23828260405180604001604052806015815260200174233630b932a9bcb9ba32b6a1b0b631bab630ba37b960591b815250612b7a565b601580546001600160a01b0319166001600160a01b0392909216919091179055601654600160a01b900460ff1615612daa57612d898282604051806040016040528060118152602001702821b430b4b729ba30b5b2a6b4b93937b960791b815250612b7a565b601680546001600160a01b0319166001600160a01b03929092169190911790555b601854600160a01b900460ff1615612e0b57612dea82826040518060400160405280600b81526020016a43436861696e5374616b6560a81b815250612b7a565b601880546001600160a01b0319166001600160a01b03929092169190911790555b612e3282826040518060400160405280600481526020016315d3985d60e21b815250612b7a565b601780546001600160a01b0319166001600160a01b03929092169190911790555050565b612e5f82613e10565b6117aa8282613e9b565b600062ffffff821115612b57576040516306dfcc6560e41b815260186004820152602481018390526044016109dd565b6000818311612ea857816116a1565b5090919050565b600080602083016001600160a01b038616612ed06060860160408701614f52565b60601c14612f145760405162461bcd60e51b815260206004820152601160248201527077726f6e672062656e656669636961727960781b60448201526064016109dd565b600081604051602001612f279190614fa8565b60408051601f1981840301815291905280516020918201209150600c90600090612f5390850185614d9f565b62ffffff1681526020808201929092526040908101600090812084825290925290205460ff1661333c576014546000906001600160a01b031663647006e2612f9e6020860186614d9f565b6040516001600160e01b031960e084901b16815262ffffff9091166004820152602401602060405180830381865afa158015612fde573d6000803e3d6000fd5b505050506040513d601f19601f820116820180604052508101906130029190614d3f565b905061301c8183613013898061500e565b90929091613edc565b61305f5760405162461bcd60e51b81526020600482015260146024820152731b595c9adb19481c1c9bdbd9881a5b9d985b1a5960621b60448201526064016109dd565b61308461306f6020850185614d9f565b61307f6060860160408701615057565b613ef4565b945060016130986080850160608601614d84565b60048111156130a9576130a9614ccc565b03613235576015546000906001600160a01b0316639350f57c6130cf6020870187614d9f565b6040516001600160e01b031960e084901b16815262ffffff90911660048201526001600160a01b038c166024820152604401602060405180830381865afa15801561311e573d6000803e3d6000fd5b505050506040513d601f19601f820116820180604052508101906131429190614d3f565b905080156132335761317b6131766131676001600160781b03891684620f4240613fad565b886001600160781b03166140d3565b612b23565b94506131878587614d02565b9550846009600061319b6020880188614d9f565b62ffffff1681526020810191909152604001600090812080549091906131cb9084906001600160781b0316614ce2565b82546001600160781b039182166101009390930a92830291909202199091161790555061dead6001600160a01b038a168060008051602061533d8339815191526132186020890189614d9f565b60018a60405161322a93929190615072565b60405180910390a45b505b84600860006132476020870187614d9f565b62ffffff1681526020810191909152604001600090812080549091906132779084906001600160781b0316614ce2565b92506101000a8154816001600160781b0302191690836001600160781b031602179055506001600c60008560000160208101906132b49190614d9f565b62ffffff16815260208082019290925260409081016000908120868252835220805460ff1916921515929092179091556001600160a01b0388811691908a1690819060008051602061533d8339815191529061331290880188614d9f565b6133226080890160608a01614d84565b8a60405161333293929190615072565b60405180910390a4505b5050935093915050565b602081016000600b8161335c6040860185614d9f565b62ffffff16815260200190815260200160002060008360600160208101906133849190614d84565b600481111561339557613395614ccc565b60048111156133a6576133a6614ccc565b815260200190815260200160002060008360200160208101906133c99190614f52565b60601c81526020810191909152604001600020805490915060ff166112aa576014546000906001600160a01b031663647006e26134096020860186614d9f565b6040516001600160e01b031960e084901b16815262ffffff9091166004820152602401602060405180830381865afa158015613449573d6000803e3d6000fd5b505050506040513d601f19601f8201168201806040525081019061346d9190614d3f565b90506000836040516020016134829190614fa8565b60408051601f19818403018152919052805160209091012090506134ab8282613013888061500e565b6134ee5760405162461bcd60e51b81526020600482015260146024820152731b595c9adb19481c1c9bdbd9881a5b9d985b1a5960621b60448201526064016109dd565b825460ff191660011783556135196135096020860186614d9f565b61307f6060870160408801615057565b83546001600160781b0391909116610100026fffffffffffffffffffffffffffffff00199091161783556135786135536020860186614d9f565b6135636040870160208801614f52565b6135736080880160608901614d84565b6140e2565b83546001600160801b03918216600160801b0291161783556001600d60006135a36020880188614d9f565b62ffffff16815260200190815260200160002060008282546135c59190614a81565b90915550505050505050565b62ffffff81166000908152600560205260408120549081900361366b57601454604051636131910b60e11b815262ffffff841660048201526001600160a01b039091169063c263221690602401602060405180830381865afa15801561363b573d6000803e3d6000fd5b505050506040513d601f19601f8201168201806040525081019061365f91906150a2565b6001600160401b031690505b919050565b60175460405163277166bf60e11b81526001600160a01b038781166004830152602482018590526000928392911690634ee2cd7e90604401602060405180830381865afa1580156136c5573d6000803e3d6000fd5b505050506040513d601f19601f820116820180604052508101906136e99190614d3f565b905080156127645760175460405163ed475a7960e01b81526001600160a01b03898116600483015260248201879052600092839283929091169063ed475a7990604401600060405180830381865afa158015613749573d6000803e3d6000fd5b505050506040513d6000823e601f3d908101601f191682016040526137719190810190615126565b505081519193509150156139055760005b82518110156139035762ffffff89166000908152600b60205260408120816002815260200190815260200160002060008584815181106137c4576137c4614a94565b60200260200101516001600160a01b03166001600160a01b03168152602001908152602001600020905087806137fb5750805460ff165b6138175760405162461bcd60e51b81526004016109dd90615199565b600061384984848151811061382e5761382e614a94565b602002602001015161271089613fad9092919063ffffffff16565b905083838151811061385d5761385d614a94565b6020026020010151866138709190614a81565b9550600061387e83836142cf565b905061388a818a614ce2565b98508c6001600160a01b03168e6001600160a01b03168786815181106138b2576138b2614a94565b60200260200101516001600160a01b031660008051602061533d8339815191528f6002866040516138e593929190615072565b60405180910390a450505080806138fb90614aaa565b915050613782565b505b612710831015613a4e57601754604051634181ad4160e11b81526001600160a01b038c81166004830152602482018a905260009216906383035a8290604401602060405180830381865afa158015613961573d6000803e3d6000fd5b505050506040513d601f19601f820116820180604052508101906139859190614d3f565b90508015613a4c5762ffffff89166000908152600b602090815260408083206002845282528083206001600160a01b038f168452909152902087806139cb5750805460ff165b6139e75760405162461bcd60e51b81526004016109dd90615199565b60006139f382846142cf565b90506139ff8189614ce2565b97508b6001600160a01b03168d6001600160a01b03168e6001600160a01b031660008051602061533d8339815191528e600286604051613a4193929190615072565b60405180910390a450505b505b5050505095945050505050565b6016546040516325f48f9960e11b81526001600160a01b038781166004830152602482018590526000928392839290911690634be91f3290604401600060405180830381865afa158015613ab3573d6000803e3d6000fd5b505050506040513d6000823e601f3d908101601f19168201604052613adb91908101906151c2565b9150915060005b8251811015613c265762ffffff87166000908152600b6020526040812081600381526020019081526020016000206000858481518110613b2457613b24614a94565b602002602001015160601c6001600160a01b03166001600160a01b0316815260200190815260200160002090508580613b5e5750805460ff165b613b7a5760405162461bcd60e51b81526004016109dd90615199565b6000613b9f82858581518110613b9257613b92614a94565b60200260200101516142cf565b9050613bab8187614ce2565b9550896001600160a01b03168b6001600160a01b0316868581518110613bd357613bd3614a94565b602002602001015160601c6001600160a01b031660008051602061533d8339815191528c600386604051613c0993929190615072565b60405180910390a450508080613c1e90614aaa565b915050613ae2565b50505095945050505050565b6018546040516325f48f9960e11b81526001600160a01b038781166004830152602482018590526000928392839290911690634be91f3290604401600060405180830381865afa158015613c8a573d6000803e3d6000fd5b505050506040513d6000823e601f3d908101601f19168201604052613cb2919081019061527c565b9150915060005b8251811015613c265762ffffff87166000908152600b6020526040812081600481526020019081526020016000206000858481518110613cfb57613cfb614a94565b60200260200101516001600160a01b03166001600160a01b0316815260200190815260200160002090508580613d325750805460ff165b613d4e5760405162461bcd60e51b81526004016109dd90615199565b6000613d6682858581518110613b9257613b92614a94565b9050613d728187614ce2565b9550896001600160a01b03168b6001600160a01b0316868581518110613d9a57613d9a614a94565b60200260200101516001600160a01b031660008051602061533d8339815191528c600486604051613dcd93929190615072565b60405180910390a450508080613de290614aaa565b915050613cb9565b60008083831115613e0057506000905080613e09565b50600190508183035b9250929050565b805415610e975780546001808301916000918491613e2e9190614bc9565b81548110613e3e57613e3e614a94565b60009182526020808320909101546001600160a01b031683528201929092526040018120558054819080613e7457613e746152c8565b600082815260209020810160001990810180546001600160a01b0319169055019055613e10565b60005b81518110156112aa57613eca83838381518110613ebd57613ebd614a94565b60200260200101516143d0565b80613ed481614aaa565b915050613e9e565b600082613eea868685614438565b1495945050505050565b62ffffff821660009081526006602090815260408083205460079092529091205482916001600160781b039081169116613f2e8382614ce2565b6001600160781b0316826001600160781b03161015613f5457613f518183614d02565b92505b62ffffff851660009081526007602052604081208054859290613f819084906001600160781b0316614ce2565b92506101000a8154816001600160781b0302191690836001600160781b03160217905550505092915050565b6000808211613ff15760405162461bcd60e51b815260206004820152601060248201526f4469766973696f6e206279207a65726f60801b60448201526064016109dd565b83600003614001575060006116a1565b83830283858281614014576140146152de565b040361403257828181614029576140296152de565b049150506116a1565b50600061403f83866152f4565b9050600061404d8487615308565b9050600061405b85876152f4565b905060006140698688615308565b9050856140768285614bdc565b61408091906152f4565b61408a8385614bdc565b6140948387614bdc565b8861409f8689614bdc565b6140a99190614bdc565b6140b39190614a81565b6140bd9190614a81565b6140c79190614a81565b98975050505050505050565b6000818310612ea857816116a1565b62ffffff831660009081526005602052604081205480820361419657601454604051636131910b60e11b815262ffffff871660048201526001600160a01b039091169063c263221690602401602060405180830381865afa15801561414b573d6000803e3d6000fd5b505050506040513d601f19601f8201168201806040525081019061416f91906150a2565b62ffffff861660009081526005602052604090206001600160401b03919091169081905590505b60028360048111156141aa576141aa614ccc565b0361423657601754604051631257fcdb60e31b8152606086901c60048201526024810183905261422e916001600160a01b0316906392bfe6d8906044015b602060405180830381865afa158015614205573d6000803e3d6000fd5b505050506040513d601f19601f820116820180604052508101906142299190614d3f565b614484565b9150506116a1565b600383600481111561424a5761424a614ccc565b0361429257601654604051631190c4dd60e21b81526001600160601b0319861660048201526024810183905261422e916001600160a01b0316906346431374906044016141e8565b601854604051631257fcdb60e31b8152606086901c60048201526024810183905261422e916001600160a01b0316906392bfe6d8906044016141e8565b6000816000036142e157506000611c0c565b825461010090046001600160781b03166000819003614304576000915050611c0c565b8354600160801b90046001600160801b031680840361432c5750835460ff1684559050611c0c565b806001600160801b0316841061434457614344614d58565b6143646131766001600160781b038416866001600160801b038516613fad565b925061436f84614484565b85548690601090614391908490600160801b90046001600160801b031661531c565b82546001600160801b0391821661010093840a908102920219161790915586548592508791600191613f819185916001600160781b0391900416614d02565b6001600160a01b0381166000908152600183016020526040902054156143f4575050565b8154600181810184556000848152602080822090930180546001600160a01b039095166001600160a01b031990951685179055845493815293019052604090912055565b600081815b8481101561447b576144678287878481811061445b5761445b614a94565b905060200201356144b8565b91508061447381614aaa565b91505061443d565b50949350505050565b60006001600160801b03821115612b57576040516306dfcc6560e41b815260806004820152602481018390526044016109dd565b60008183106144d45760008281526020849052604090206116a1565b60008381526020839052604090206116a1565b5080546144f390614c76565b6000825580601f10614503575050565b601f016020900490600052602060002090810190610e9791905b80821115612b57576000815560010161451d565b60006020828403121561454357600080fd5b5035919050565b60008083601f84011261455c57600080fd5b5081356001600160401b0381111561457357600080fd5b6020830191508360208260051b8501011115613e0957600080fd5b62ffffff81168114610e9757600080fd5b6000806000806000606086880312156145b757600080fd5b85356001600160401b03808211156145ce57600080fd5b6145da89838a0161454a565b9097509550602088013591506145ef8261458e565b9093506040870135908082111561460557600080fd5b506146128882890161454a565b969995985093965092949392505050565b6001600160a01b0381168114610e9757600080fd5b60006020828403121561464a57600080fd5b81356116a181614623565b60006020828403121561466757600080fd5b81356001600160e01b0319811681146116a157600080fd5b60005b8381101561469a578181015183820152602001614682565b50506000910152565b600081518084526146bb81602086016020860161467f565b601f01601f19169290920160200192915050565b8281526040602082015260006146e860408301846146a3565b949350505050565b6020808252825182820181905260009190848201906040850190845b818110156147315783516001600160a01b03168352928401929184019160010161470c565b50909695505050505050565b8015158114610e9757600080fd5b60008060008060008060a0878903121561476457600080fd5b863561476f81614623565b9550602087013561477f81614623565b9450604087013561478f8161458e565b9350606087013561479f8161473d565b925060808701356001600160401b038111156147ba57600080fd5b6147c689828a0161454a565b979a9699509497509295939492505050565b80356005811061366b57600080fd5b6000806000606084860312156147fc57600080fd5b833561480781614623565b925060208401356148178161458e565b9150614825604085016147d8565b90509250925092565b6000806040838503121561484157600080fd5b823561484c8161458e565b9150602083013561485c8161473d565b809150509250929050565b634e487b7160e01b600052604160045260246000fd5b604051601f8201601f191681016001600160401b03811182821017156148a5576148a5614867565b604052919050565b60006001600160401b038211156148c6576148c6614867565b5060051b60200190565b600082601f8301126148e157600080fd5b813560206148f66148f1836148ad565b61487d565b82815260059290921b8401810191818101908684111561491557600080fd5b8286015b8481101561493957803561492c81614623565b8352918301918301614919565b509695505050505050565b6000806040838503121561495757600080fd5b82356001600160401b038082111561496e57600080fd5b818501915085601f83011261498257600080fd5b813560206149926148f1836148ad565b82815260059290921b840181019181810190898411156149b157600080fd5b948201945b838610156149cf578535825294820194908201906149b6565b965050860135925050808211156149e557600080fd5b506149f2858286016148d0565b9150509250929050565b60008060208385031215614a0f57600080fd5b82356001600160401b03811115614a2557600080fd5b614a318582860161454a565b90969095509350505050565b60008060408385031215614a5057600080fd5b8235614a5b81614623565b9150602083013561485c81614623565b634e487b7160e01b600052601160045260246000fd5b80820180821115611c0c57611c0c614a6b565b634e487b7160e01b600052603260045260246000fd5b600060018201614abc57614abc614a6b565b5060010190565b6001600160a01b03848116825260406020808401829052908301849052600091859160608501845b87811015614b12578435614afe81614623565b841682529382019390820190600101614aeb565b5098975050505050505050565b600082601f830112614b3057600080fd5b81516020614b406148f1836148ad565b82815260059290921b84018101918181019086841115614b5f57600080fd5b8286015b84811015614939578051614b7681614623565b8352918301918301614b63565b60008060408385031215614b9657600080fd5b82516001600160401b03811115614bac57600080fd5b614bb885828601614b1f565b925050602083015190509250929050565b81810381811115611c0c57611c0c614a6b565b8082028115828204841417611c0c57611c0c614a6b565b62ffffff818116838216019080821115614c0f57614c0f614a6b565b5092915050565b600060208284031215614c2857600080fd5b81516116a18161458e565b6020808252600c908201526b61646472657373207a65726f60a01b604082015260600190565b600060208284031215614c6b57600080fd5b81516116a181614623565b600181811c90821680614c8a57607f821691505b602082108103614caa57634e487b7160e01b600052602260045260246000fd5b50919050565b60008251614cc281846020870161467f565b9190910192915050565b634e487b7160e01b600052602160045260246000fd5b6001600160781b03818116838216019080821115614c0f57614c0f614a6b565b6001600160781b03828116828216039080821115614c0f57614c0f614a6b565b600060208284031215614d3457600080fd5b81516116a18161473d565b600060208284031215614d5157600080fd5b5051919050565b634e487b7160e01b600052600160045260246000fd5b60008235609e19833603018112614cc257600080fd5b600060208284031215614d9657600080fd5b6116a1826147d8565b600060208284031215614db157600080fd5b81356116a18161458e565b600062ffffff808316818103614dd457614dd4614a6b565b6001019392505050565b601f8211156112aa57600081815260208120601f850160051c81016020861015614e055750805b601f850160051c820191505b81811015612aef57828155600101614e11565b81516001600160401b03811115614e3d57614e3d614867565b614e5181614e4b8454614c76565b84614dde565b602080601f831160018114614e865760008415614e6e5750858301515b600019600386901b1c1916600185901b178555612aef565b600085815260208120601f198616915b82811015614eb557888601518255948401946001909101908401614e96565b5085821015614ed35787850151600019600388901b60f8161c191681555b5050505050600190811b01905550565b63ffffffff60e01b8516815283602082015260606040820152816060820152818360808301376000818301608090810191909152601f909201601f191601019392505050565b6020815260006116a160208301846146a3565b6001600160601b031981168114610e9757600080fd5b600060208284031215614f6457600080fd5b81356116a181614f3c565b80356001600160781b038116811461366b57600080fd5b60058110614fa457634e487b7160e01b600052602160045260246000fd5b9052565b608081018235614fb78161458e565b62ffffff1682526020830135614fcc81614f3c565b6001600160601b03191660208301526001600160781b03614fef60408501614f6f565b166040830152615001606084016147d8565b614c0f6060840182614f86565b6000808335601e1984360301811261502557600080fd5b8301803591506001600160401b0382111561503f57600080fd5b6020019150600581901b3603821315613e0957600080fd5b60006020828403121561506957600080fd5b6116a182614f6f565b62ffffff841681526060810161508b6020830185614f86565b6001600160781b0383166040830152949350505050565b6000602082840312156150b457600080fd5b81516001600160401b03811681146116a157600080fd5b600082601f8301126150dc57600080fd5b815160206150ec6148f1836148ad565b82815260059290921b8401810191818101908684111561510b57600080fd5b8286015b84811015614939578051835291830191830161510f565b6000806000806080858703121561513c57600080fd5b84516001600160401b038082111561515357600080fd5b61515f88838901614b1f565b9550602087015191508082111561517557600080fd5b50615182878288016150cb565b604087015160609097015195989097509350505050565b6020808252600f908201526e1b9bdd081a5b9a5d1a585b1a5cd959608a1b604082015260600190565b600080604083850312156151d557600080fd5b82516001600160401b03808211156151ec57600080fd5b818501915085601f83011261520057600080fd5b815160206152106148f1836148ad565b82815260059290921b8401810191818101908984111561522f57600080fd5b948201945b8386101561525657855161524781614f3c565b82529482019490820190615234565b9188015191965090935050508082111561526f57600080fd5b506149f2858286016150cb565b6000806040838503121561528f57600080fd5b82516001600160401b03808211156152a657600080fd5b6152b286838701614b1f565b9350602085015191508082111561526f57600080fd5b634e487b7160e01b600052603160045260246000fd5b634e487b7160e01b600052601260045260246000fd5b600082615303576153036152de565b500490565b600082615317576153176152de565b500690565b6001600160801b03828116828216039080821115614c0f57614c0f614a6b56fe06f77960d1401cc7d724b5c2b5ad672b9dbf08d8b11516a38c21697c23fbb0d2a2646970667358221220535ac16668c11d6165000a5c47de7410f6a68f5aacba4eb91ae403979dcfb2f564736f6c63430008140033",
  "linkReferences": {},
  "deployedLinkReferences": {}
}