{
  "_format": "hh-sol-artifact-1",
  "contractName": "RewardManager",
  "sourceName": "contracts/protocol/implementation/RewardManager.sol",
  "abi": [
    {
      "inputs": [
        {
          "internalType": "contract IGovernanceSettings",
          "name": "_governanceSettings",
          "type": "address"
        },
        {
          "internalType": "address",
          "name": "_initialGovernance",
          "type": "address"
        },
        {
          "internalType": "address",
          "name": "_addressUpdater",
          "type": "address"
        },
        {
          "internalType": "address",
          "name": "_oldRewardManager",
          "type": "address"
        }
      ],
      "stateMutability": "nonpayable",
      "type": "constructor"
    },
    {
      "inputs": [],
      "name": "ReentrancyGuardReentrantCall",
      "type": "error"
    },
    {
      "inputs": [
        {
          "internalType": "uint8",
          "name": "bits",
          "type": "uint8"
        },
        {
          "internalType": "uint256",
          "name": "value",
          "type": "uint256"
        }
      ],
      "name": "SafeCastOverflowedUintDowncast",
      "type": "error"
    },
    {
      "anonymous": false,
      "inputs": [
        {
          "indexed": false,
          "internalType": "bytes4",
          "name": "selector",
          "type": "bytes4"
        },
        {
          "indexed": false,
          "internalType": "uint256",
          "name": "allowedAfterTimestamp",
          "type": "uint256"
        },
        {
          "indexed": false,
          "internalType": "bytes",
          "name": "encodedCall",
          "type": "bytes"
        }
      ],
      "name": "GovernanceCallTimelocked",
      "type": "event"
    },
    {
      "anonymous": false,
      "inputs": [
        {
          "indexed": false,
          "internalType": "address",
          "name": "initialGovernance",
          "type": "address"
        }
      ],
      "name": "GovernanceInitialised",
      "type": "event"
    },
    {
      "anonymous": false,
      "inputs": [
        {
          "indexed": false,
          "internalType": "address",
          "name": "governanceSettings",
          "type": "address"
        }
      ],
      "name": "GovernedProductionModeEntered",
      "type": "event"
    },
    {
      "anonymous": false,
      "inputs": [
        {
          "indexed": true,
          "internalType": "address",
          "name": "beneficiary",
          "type": "address"
        },
        {
          "indexed": true,
          "internalType": "address",
          "name": "rewardOwner",
          "type": "address"
        },
        {
          "indexed": true,
          "internalType": "address",
          "name": "recipient",
          "type": "address"
        },
        {
          "indexed": false,
          "internalType": "uint24",
          "name": "rewardEpochId",
          "type": "uint24"
        },
        {
          "indexed": false,
          "internalType": "enum IRewardManager.ClaimType",
          "name": "claimType",
          "type": "uint8"
        },
        {
          "indexed": false,
          "internalType": "uint120",
          "name": "amount",
          "type": "uint120"
        }
      ],
      "name": "RewardClaimed",
      "type": "event"
    },
    {
      "anonymous": false,
      "inputs": [
        {
          "indexed": true,
          "internalType": "uint256",
          "name": "rewardEpochId",
          "type": "uint256"
        }
      ],
      "name": "RewardClaimsEnabled",
      "type": "event"
    },
    {
      "anonymous": false,
      "inputs": [
        {
          "indexed": true,
          "internalType": "uint256",
          "name": "rewardEpochId",
          "type": "uint256"
        }
      ],
      "name": "RewardClaimsExpired",
      "type": "event"
    },
    {
      "anonymous": false,
      "inputs": [
        {
          "indexed": false,
          "internalType": "bytes4",
          "name": "selector",
          "type": "bytes4"
        },
        {
          "indexed": false,
          "internalType": "uint256",
          "name": "timestamp",
          "type": "uint256"
        }
      ],
      "name": "TimelockedGovernanceCallCanceled",
      "type": "event"
    },
    {
      "anonymous": false,
      "inputs": [
        {
          "indexed": false,
          "internalType": "bytes4",
          "name": "selector",
          "type": "bytes4"
        },
        {
          "indexed": false,
          "internalType": "uint256",
          "name": "timestamp",
          "type": "uint256"
        }
      ],
      "name": "TimelockedGovernanceCallExecuted",
      "type": "event"
    },
    {
      "inputs": [],
      "name": "activate",
      "outputs": [],
      "stateMutability": "nonpayable",
      "type": "function"
    },
    {
      "inputs": [],
      "name": "active",
      "outputs": [
        {
          "internalType": "bool",
          "name": "",
          "type": "bool"
        }
      ],
      "stateMutability": "view",
      "type": "function"
    },
    {
      "inputs": [
        {
          "internalType": "address[]",
          "name": "_rewardOwners",
          "type": "address[]"
        },
        {
          "internalType": "uint24",
          "name": "_rewardEpochId",
          "type": "uint24"
        },
        {
          "components": [
            {
              "internalType": "bytes32[]",
              "name": "merkleProof",
              "type": "bytes32[]"
            },
            {
              "components": [
                {
                  "internalType": "uint24",
                  "name": "rewardEpochId",
                  "type": "uint24"
                },
                {
                  "internalType": "bytes20",
                  "name": "beneficiary",
                  "type": "bytes20"
                },
                {
                  "internalType": "uint120",
                  "name": "amount",
                  "type": "uint120"
                },
                {
                  "internalType": "enum IRewardManager.ClaimType",
                  "name": "claimType",
                  "type": "uint8"
                }
              ],
              "internalType": "struct IRewardManager.RewardClaim",
              "name": "body",
              "type": "tuple"
            }
          ],
          "internalType": "struct IRewardManager.RewardClaimWithProof[]",
          "name": "_proofs",
          "type": "tuple[]"
        }
      ],
      "name": "autoClaim",
      "outputs": [],
      "stateMutability": "nonpayable",
      "type": "function"
    },
    {
      "inputs": [],
      "name": "cChainStake",
      "outputs": [
        {
          "internalType": "contract ICChainStake",
          "name": "",
          "type": "address"
        }
      ],
      "stateMutability": "view",
      "type": "function"
    },
    {
      "inputs": [],
      "name": "cChainStakeEnabled",
      "outputs": [
        {
          "internalType": "bool",
          "name": "",
          "type": "bool"
        }
      ],
      "stateMutability": "view",
      "type": "function"
    },
    {
      "inputs": [
        {
          "internalType": "bytes4",
          "name": "_selector",
          "type": "bytes4"
        }
      ],
      "name": "cancelGovernanceCall",
      "outputs": [],
      "stateMutability": "nonpayable",
      "type": "function"
    },
    {
      "inputs": [
        {
          "internalType": "address",
          "name": "_rewardOwner",
          "type": "address"
        },
        {
          "internalType": "address payable",
          "name": "_recipient",
          "type": "address"
        },
        {
          "internalType": "uint24",
          "name": "_rewardEpochId",
          "type": "uint24"
        },
        {
          "internalType": "bool",
          "name": "_wrap",
          "type": "bool"
        },
        {
          "components": [
            {
              "internalType": "bytes32[]",
              "name": "merkleProof",
              "type": "bytes32[]"
            },
            {
              "components": [
                {
                  "internalType": "uint24",
                  "name": "rewardEpochId",
                  "type": "uint24"
                },
                {
                  "internalType": "bytes20",
                  "name": "beneficiary",
                  "type": "bytes20"
                },
                {
                  "internalType": "uint120",
                  "name": "amount",
                  "type": "uint120"
                },
                {
                  "internalType": "enum IRewardManager.ClaimType",
                  "name": "claimType",
                  "type": "uint8"
                }
              ],
              "internalType": "struct IRewardManager.RewardClaim",
              "name": "body",
              "type": "tuple"
            }
          ],
          "internalType": "struct IRewardManager.RewardClaimWithProof[]",
          "name": "_proofs",
          "type": "tuple[]"
        }
      ],
      "name": "claim",
      "outputs": [
        {
          "internalType": "uint256",
          "name": "_rewardAmountWei",
          "type": "uint256"
        }
      ],
      "stateMutability": "nonpayable",
      "type": "function"
    },
    {
      "inputs": [],
      "name": "claimSetupManager",
      "outputs": [
        {
          "internalType": "contract IIClaimSetupManager",
          "name": "",
          "type": "address"
        }
      ],
      "stateMutability": "view",
      "type": "function"
    },
    {
      "inputs": [],
      "name": "cleanupBlockNumber",
      "outputs": [
        {
          "internalType": "uint256",
          "name": "",
          "type": "uint256"
        }
      ],
      "stateMutability": "view",
      "type": "function"
    },
    {
      "inputs": [
        {
          "internalType": "uint256",
          "name": "_rewardEpochId",
          "type": "uint256"
        }
      ],
      "name": "closeExpiredRewardEpoch",
      "outputs": [],
      "stateMutability": "nonpayable",
      "type": "function"
    },
    {
      "inputs": [],
      "name": "deactivate",
      "outputs": [],
      "stateMutability": "nonpayable",
      "type": "function"
    },
    {
      "inputs": [],
      "name": "enableCChainStake",
      "outputs": [],
      "stateMutability": "nonpayable",
      "type": "function"
    },
    {
      "inputs": [],
      "name": "enableClaims",
      "outputs": [],
      "stateMutability": "nonpayable",
      "type": "function"
    },
    {
      "inputs": [],
      "name": "enablePChainStakeMirror",
      "outputs": [],
      "stateMutability": "nonpayable",
      "type": "function"
    },
    {
      "inputs": [
        {
          "internalType": "bytes4",
          "name": "_selector",
          "type": "bytes4"
        }
      ],
      "name": "executeGovernanceCall",
      "outputs": [],
      "stateMutability": "nonpayable",
      "type": "function"
    },
    {
      "inputs": [],
      "name": "firstClaimableRewardEpochId",
      "outputs": [
        {
          "internalType": "uint24",
          "name": "",
          "type": "uint24"
        }
      ],
      "stateMutability": "view",
      "type": "function"
    },
    {
      "inputs": [],
      "name": "flareSystemsCalculator",
      "outputs": [
        {
          "internalType": "contract IIFlareSystemsCalculator",
          "name": "",
          "type": "address"
        }
      ],
      "stateMutability": "view",
      "type": "function"
    },
    {
      "inputs": [],
      "name": "flareSystemsManager",
      "outputs": [
        {
          "internalType": "contract IIFlareSystemsManager",
          "name": "",
          "type": "address"
        }
      ],
      "stateMutability": "view",
      "type": "function"
    },
    {
      "inputs": [],
      "name": "getAddressUpdater",
      "outputs": [
        {
          "internalType": "address",
          "name": "_addressUpdater",
          "type": "address"
        }
      ],
      "stateMutability": "view",
      "type": "function"
    },
    {
      "inputs": [],
      "name": "getCurrentRewardEpochId",
      "outputs": [
        {
          "internalType": "uint24",
          "name": "",
          "type": "uint24"
        }
      ],
      "stateMutability": "view",
      "type": "function"
    },
    {
      "inputs": [],
      "name": "getExpectedBalance",
      "outputs": [
        {
          "internalType": "uint256",
          "name": "",
          "type": "uint256"
        }
      ],
      "stateMutability": "view",
      "type": "function"
    },
    {
      "inputs": [],
      "name": "getInitialRewardEpochId",
      "outputs": [
        {
          "internalType": "uint256",
          "name": "",
          "type": "uint256"
        }
      ],
      "stateMutability": "view",
      "type": "function"
    },
    {
      "inputs": [
        {
          "internalType": "address",
          "name": "_rewardOwner",
          "type": "address"
        }
      ],
      "name": "getNextClaimableRewardEpochId",
      "outputs": [
        {
          "internalType": "uint256",
          "name": "",
          "type": "uint256"
        }
      ],
      "stateMutability": "view",
      "type": "function"
    },
    {
      "inputs": [],
      "name": "getRewardEpochIdToExpireNext",
      "outputs": [
        {
          "internalType": "uint256",
          "name": "",
          "type": "uint256"
        }
      ],
      "stateMutability": "view",
      "type": "function"
    },
    {
      "inputs": [],
      "name": "getRewardEpochIdsWithClaimableRewards",
      "outputs": [
        {
          "internalType": "uint24",
          "name": "_startEpochId",
          "type": "uint24"
        },
        {
          "internalType": "uint24",
          "name": "_endEpochId",
          "type": "uint24"
        }
      ],
      "stateMutability": "view",
      "type": "function"
    },
    {
      "inputs": [
        {
          "internalType": "uint24",
          "name": "_rewardEpochId",
          "type": "uint24"
        }
      ],
      "name": "getRewardEpochTotals",
      "outputs": [
        {
          "internalType": "uint256",
          "name": "_totalRewardsWei",
          "type": "uint256"
        },
        {
          "internalType": "uint256",
          "name": "_totalInflationRewardsWei",
          "type": "uint256"
        },
        {
          "internalType": "uint256",
          "name": "_initialisedRewardsWei",
          "type": "uint256"
        },
        {
          "internalType": "uint256",
          "name": "_claimedRewardsWei",
          "type": "uint256"
        },
        {
          "internalType": "uint256",
          "name": "_burnedRewardsWei",
          "type": "uint256"
        }
      ],
      "stateMutability": "view",
      "type": "function"
    },
    {
      "inputs": [],
      "name": "getRewardOffersManagerList",
      "outputs": [
        {
          "internalType": "address[]",
          "name": "",
          "type": "address[]"
        }
      ],
      "stateMutability": "view",
      "type": "function"
    },
    {
      "inputs": [
        {
          "internalType": "address",
          "name": "_rewardOwner",
          "type": "address"
        }
      ],
      "name": "getStateOfRewards",
      "outputs": [
        {
          "components": [
            {
              "internalType": "uint24",
              "name": "rewardEpochId",
              "type": "uint24"
            },
            {
              "internalType": "bytes20",
              "name": "beneficiary",
              "type": "bytes20"
            },
            {
              "internalType": "uint120",
              "name": "amount",
              "type": "uint120"
            },
            {
              "internalType": "enum IRewardManager.ClaimType",
              "name": "claimType",
              "type": "uint8"
            },
            {
              "internalType": "bool",
              "name": "initialised",
              "type": "bool"
            }
          ],
          "internalType": "struct IRewardManager.RewardState[][]",
          "name": "_rewardStates",
          "type": "tuple[][]"
        }
      ],
      "stateMutability": "view",
      "type": "function"
    },
    {
      "inputs": [
        {
          "internalType": "address",
          "name": "_rewardOwner",
          "type": "address"
        },
        {
          "internalType": "uint24",
          "name": "_rewardEpochId",
          "type": "uint24"
        }
      ],
      "name": "getStateOfRewardsAt",
      "outputs": [
        {
          "components": [
            {
              "internalType": "uint24",
              "name": "rewardEpochId",
              "type": "uint24"
            },
            {
              "internalType": "bytes20",
              "name": "beneficiary",
              "type": "bytes20"
            },
            {
              "internalType": "uint120",
              "name": "amount",
              "type": "uint120"
            },
            {
              "internalType": "enum IRewardManager.ClaimType",
              "name": "claimType",
              "type": "uint8"
            },
            {
              "internalType": "bool",
              "name": "initialised",
              "type": "bool"
            }
          ],
          "internalType": "struct IRewardManager.RewardState[]",
          "name": "_rewardStates",
          "type": "tuple[]"
        }
      ],
      "stateMutability": "view",
      "type": "function"
    },
    {
      "inputs": [],
      "name": "getTokenPoolSupplyData",
      "outputs": [
        {
          "internalType": "uint256",
          "name": "_lockedFundsWei",
          "type": "uint256"
        },
        {
          "internalType": "uint256",
          "name": "_totalInflationAuthorizedWei",
          "type": "uint256"
        },
        {
          "internalType": "uint256",
          "name": "_totalClaimedWei",
          "type": "uint256"
        }
      ],
      "stateMutability": "view",
      "type": "function"
    },
    {
      "inputs": [],
      "name": "getTotals",
      "outputs": [
        {
          "internalType": "uint256",
          "name": "_totalRewardsWei",
          "type": "uint256"
        },
        {
          "internalType": "uint256",
          "name": "_totalInflationRewardsWei",
          "type": "uint256"
        },
        {
          "internalType": "uint256",
          "name": "_totalClaimedWei",
          "type": "uint256"
        },
        {
          "internalType": "uint256",
          "name": "_totalBurnedWei",
          "type": "uint256"
        }
      ],
      "stateMutability": "view",
      "type": "function"
    },
    {
      "inputs": [
        {
          "internalType": "address",
          "name": "_beneficiary",
          "type": "address"
        },
        {
          "internalType": "uint24",
          "name": "_rewardEpochId",
          "type": "uint24"
        },
        {
          "internalType": "enum IRewardManager.ClaimType",
          "name": "_claimType",
          "type": "uint8"
        }
      ],
      "name": "getUnclaimedRewardState",
      "outputs": [
        {
          "components": [
            {
              "internalType": "bool",
              "name": "initialised",
              "type": "bool"
            },
            {
              "internalType": "uint120",
              "name": "amount",
              "type": "uint120"
            },
            {
              "internalType": "uint128",
              "name": "weight",
              "type": "uint128"
            }
          ],
          "internalType": "struct IRewardManager.UnclaimedRewardState",
          "name": "_state",
          "type": "tuple"
        }
      ],
      "stateMutability": "view",
      "type": "function"
    },
    {
      "inputs": [],
      "name": "governance",
      "outputs": [
        {
          "internalType": "address",
          "name": "",
          "type": "address"
        }
      ],
      "stateMutability": "view",
      "type": "function"
    },
    {
      "inputs": [],
      "name": "governanceSettings",
      "outputs": [
        {
          "internalType": "contract IGovernanceSettings",
          "name": "",
          "type": "address"
        }
      ],
      "stateMutability": "view",
      "type": "function"
    },
    {
      "inputs": [
        {
          "internalType": "contract IGovernanceSettings",
          "name": "_governanceSettings",
          "type": "address"
        },
        {
          "internalType": "address",
          "name": "_initialGovernance",
          "type": "address"
        }
      ],
      "name": "initialise",
      "outputs": [],
      "stateMutability": "nonpayable",
      "type": "function"
    },
    {
      "inputs": [
        {
          "components": [
            {
              "internalType": "bytes32[]",
              "name": "merkleProof",
              "type": "bytes32[]"
            },
            {
              "components": [
                {
                  "internalType": "uint24",
                  "name": "rewardEpochId",
                  "type": "uint24"
                },
                {
                  "internalType": "bytes20",
                  "name": "beneficiary",
                  "type": "bytes20"
                },
                {
                  "internalType": "uint120",
                  "name": "amount",
                  "type": "uint120"
                },
                {
                  "internalType": "enum IRewardManager.ClaimType",
                  "name": "claimType",
                  "type": "uint8"
                }
              ],
              "internalType": "struct IRewardManager.RewardClaim",
              "name": "body",
              "type": "tuple"
            }
          ],
          "internalType": "struct IRewardManager.RewardClaimWithProof[]",
          "name": "_proofs",
          "type": "tuple[]"
        }
      ],
      "name": "initialiseWeightBasedClaims",
      "outputs": [],
      "stateMutability": "nonpayable",
      "type": "function"
    },
    {
      "inputs": [
        {
          "internalType": "address",
          "name": "_address",
          "type": "address"
        }
      ],
      "name": "isExecutor",
      "outputs": [
        {
          "internalType": "bool",
          "name": "",
          "type": "bool"
        }
      ],
      "stateMutability": "view",
      "type": "function"
    },
    {
      "inputs": [],
      "name": "newRewardManager",
      "outputs": [
        {
          "internalType": "address",
          "name": "",
          "type": "address"
        }
      ],
      "stateMutability": "view",
      "type": "function"
    },
    {
      "inputs": [
        {
          "internalType": "uint256",
          "name": "rewardEpochId",
          "type": "uint256"
        }
      ],
      "name": "noOfInitialisedWeightBasedClaims",
      "outputs": [
        {
          "internalType": "uint256",
          "name": "",
          "type": "uint256"
        }
      ],
      "stateMutability": "view",
      "type": "function"
    },
    {
      "inputs": [],
      "name": "oldRewardManager",
      "outputs": [
        {
          "internalType": "address",
          "name": "",
          "type": "address"
        }
      ],
      "stateMutability": "view",
      "type": "function"
    },
    {
      "inputs": [],
      "name": "pChainStakeMirror",
      "outputs": [
        {
          "internalType": "contract IPChainStakeMirror",
          "name": "",
          "type": "address"
        }
      ],
      "stateMutability": "view",
      "type": "function"
    },
    {
      "inputs": [],
      "name": "pChainStakeMirrorEnabled",
      "outputs": [
        {
          "internalType": "bool",
          "name": "",
          "type": "bool"
        }
      ],
      "stateMutability": "view",
      "type": "function"
    },
    {
      "inputs": [],
      "name": "productionMode",
      "outputs": [
        {
          "internalType": "bool",
          "name": "",
          "type": "bool"
        }
      ],
      "stateMutability": "view",
      "type": "function"
    },
    {
      "inputs": [
        {
          "internalType": "uint24",
          "name": "_rewardEpochId",
          "type": "uint24"
        },
        {
          "internalType": "bool",
          "name": "_inflation",
          "type": "bool"
        }
      ],
      "name": "receiveRewards",
      "outputs": [],
      "stateMutability": "payable",
      "type": "function"
    },
    {
      "inputs": [],
      "name": "setInitialRewardData",
      "outputs": [],
      "stateMutability": "nonpayable",
      "type": "function"
    },
    {
      "inputs": [
        {
          "internalType": "address",
          "name": "_newRewardManager",
          "type": "address"
        }
      ],
      "name": "setNewRewardManager",
      "outputs": [],
      "stateMutability": "nonpayable",
      "type": "function"
    },
    {
      "inputs": [
        {
          "internalType": "address[]",
          "name": "_rewardOffersManagerList",
          "type": "address[]"
        }
      ],
      "name": "setRewardOffersManagerList",
      "outputs": [],
      "stateMutability": "nonpayable",
      "type": "function"
    },
    {
      "inputs": [],
      "name": "switchToProductionMode",
      "outputs": [],
      "stateMutability": "nonpayable",
      "type": "function"
    },
    {
      "inputs": [
        {
          "internalType": "bytes4",
          "name": "selector",
          "type": "bytes4"
        }
      ],
      "name": "timelockedCalls",
      "outputs": [
        {
          "internalType": "uint256",
          "name": "allowedAfterTimestamp",
          "type": "uint256"
        },
        {
          "internalType": "bytes",
          "name": "encodedCall",
          "type": "bytes"
        }
      ],
      "stateMutability": "view",
      "type": "function"
    },
    {
      "inputs": [
        {
          "internalType": "bytes32[]",
          "name": "_contractNameHashes",
          "type": "bytes32[]"
        },
        {
          "internalType": "address[]",
          "name": "_contractAddresses",
          "type": "address[]"
        }
      ],
      "name": "updateContractAddresses",
      "outputs": [],
      "stateMutability": "nonpayable",
      "type": "function"
    },
    {
      "inputs": [],
      "name": "wNat",
      "outputs": [
        {
          "internalType": "contract IWNat",
          "name": "",
          "type": "address"
        }
      ],
      "stateMutability": "view",
      "type": "function"
    }
  ],
  "bytecode": "0x60a06040523480156200001157600080fd5b50604051620060f6380380620060f683398101604081905262000034916200022e565b8184846200004382826200009c565b506200006f9050817f714f205b2abd25bef1d06a1af944e38c113fe6160375c4e1d6d5cf28848e771955565b506001600355600b805462ffffff191662ffffff1790556001600160a01b03166080525062000296915050565b600054600160a01b900460ff1615620000fc5760405162461bcd60e51b815260206004820152601460248201527f696e697469616c6973656420213d2066616c736500000000000000000000000060448201526064015b60405180910390fd5b6001600160a01b038216620001545760405162461bcd60e51b815260206004820152601860248201527f676f7665726e616e63652073657474696e6773207a65726f00000000000000006044820152606401620000f3565b6001600160a01b0381166200019f5760405162461bcd60e51b815260206004820152601060248201526f5f676f7665726e616e6365207a65726f60801b6044820152606401620000f3565b600080546001600160a01b038481166001600160a81b031990921691909117600160a01b17909155600180549183166001600160a01b0319909216821790556040519081527f9789733827840833afc031fb2ef9ab6894271f77bad2085687cf4ae5c7bee4db9060200160405180910390a15050565b6001600160a01b03811681146200022b57600080fd5b50565b600080600080608085870312156200024557600080fd5b8451620002528162000215565b6020860151909450620002658162000215565b6040860151909350620002788162000215565b60608601519092506200028b8162000215565b939692955090935050565b608051615e36620002c06000396000818161041e01528181611b690152611bd70152615e366000f3fe6080604052600436106102e45760003560e01c80638e46778411610190578063d8def818116100dc578063ea28edad11610095578063f5a983831161006f578063f5a98383146109e7578063faae7fc9146109fc578063fbde354d14610a1c578063fd95b2e014610a3c57600080fd5b8063ea28edad14610985578063ef88bf131461099a578063f1367b7f146109ba57600080fd5b8063d8def81814610846578063debfda3014610877578063deea13e714610897578063df339638146108ac578063e17f212e14610944578063e7dea8e61461096557600080fd5b8063af04cd3b11610149578063b753801d11610123578063b753801d146107c6578063c4db9619146107e6578063d6ac4f7214610806578063d6c1dbee1461082657600080fd5b8063af04cd3b1461077c578063b006b4e314610791578063b00c0b76146107a657600080fd5b80638e467784146106965780639a3410bc146106b65780639edbf007146106d25780639ee5de33146106f2578063a02e86e514610748578063a71de6761461075b57600080fd5b806351b42b001161024f57806367fc4029116102085780637a17a34d116101e25780637a17a34d146105fa5780637bf756c91461061c57806384e10a901461063d5780638e33aba51461067657600080fd5b806367fc40291461058357806370562697146105a357806374e6310e146105cc57600080fd5b806351b42b00146104c55780635267a15d146104da5780635aa6e6751461050e5780635ff270791461052357806362354e031461054357806362d9c89a1461056357600080fd5b80632dafdbbf116102a15780632dafdbbf146103b957806330c40bc9146103e957806336300be21461040c5780633ce7522a14610458578063470ce087146104785780634b6e018d1461049857600080fd5b806302fb0c5e146102e9578063064be5321461031f57806306c7e243146103405780630f15f4c01461036d57806315f253fb146103845780631de56098146103a4575b600080fd5b3480156102f557600080fd5b5060185461030a90600160a81b900460ff1681565b60405190151581526020015b60405180910390f35b34801561032b57600080fd5b5060185461030a90600160a01b900460ff1681565b34801561034c57600080fd5b5061036061035b366004614ee4565b610a51565b6040516103169190614fb2565b34801561037957600080fd5b50610382610b1e565b005b34801561039057600080fd5b5061038261039f36600461503f565b610b3b565b3480156103b057600080fd5b50610382610dd0565b3480156103c557600080fd5b506103ce610f52565b60408051938452602084019290925290820152606001610316565b3480156103f557600080fd5b506103fe610f71565b604051908152602001610316565b34801561041857600080fd5b506104407f000000000000000000000000000000000000000000000000000000000000000081565b6040516001600160a01b039091168152602001610316565b34801561046457600080fd5b506103826104733660046150c3565b610f80565b34801561048457600080fd5b50610382610493366004615104565b610f9b565b3480156104a457600080fd5b506103fe6104b3366004615121565b600e6020526000908152604090205481565b3480156104d157600080fd5b50610382611082565b3480156104e657600080fd5b507f714f205b2abd25bef1d06a1af944e38c113fe6160375c4e1d6d5cf28848e771954610440565b34801561051a57600080fd5b50610440611099565b34801561052f57600080fd5b5061038261053e36600461513a565b611130565b34801561054f57600080fd5b50600054610440906001600160a01b031681565b34801561056f57600080fd5b50601654610440906001600160a01b031681565b34801561058f57600080fd5b5061038261059e36600461513a565b6113b0565b3480156105af57600080fd5b506105b8611491565b60405162ffffff9091168152602001610316565b3480156105d857600080fd5b506105ec6105e736600461513a565b61149b565b6040516103169291906151b4565b34801561060657600080fd5b5061060f611540565b60405161031691906151d5565b34801561062857600080fd5b5060165461030a90600160a01b900460ff1681565b34801561064957600080fd5b50601154601254600f54601054604080519485526020850193909352918301526060820152608001610316565b34801561068257600080fd5b506103fe610691366004615224565b6115a5565b3480156106a257600080fd5b50601554610440906001600160a01b031681565b3480156106c257600080fd5b50600b546105b89062ffffff1681565b3480156106de57600080fd5b50601754610440906001600160a01b031681565b3480156106fe57600080fd5b5061071261070d3660046152c0565b6116db565b604080518251151581526020808401516001600160781b031690820152918101516001600160801b031690820152606001610316565b610382610756366004615307565b611798565b34801561076757600080fd5b50600b546301000000900462ffffff166103fe565b34801561078857600080fd5b506103fe6118fe565b34801561079d57600080fd5b50610382611908565b3480156107b257600080fd5b506103826107c1366004615412565b61194c565b3480156107d257600080fd5b506103826107e13660046150c3565b611a27565b3480156107f257600080fd5b50601354610440906001600160a01b031681565b34801561081257600080fd5b506103fe610821366004615104565b611aa1565b34801561083257600080fd5b50610382610841366004615121565b611aba565b34801561085257600080fd5b5061085b611daf565b6040805162ffffff938416815292909116602083015201610316565b34801561088357600080fd5b5061030a610892366004615104565b611e20565b3480156108a357600080fd5b506103fe611ea3565b3480156108b857600080fd5b5061091c6108c73660046154ca565b62ffffff16600090815260066020908152604080832054600783528184205460088452828520546009855283862054600a90955292909420546001600160781b03918216959482169492821693821692911690565b604080519586526020860194909452928401919091526060830152608082015260a001610316565b34801561095057600080fd5b5060005461030a90600160a81b900460ff1681565b34801561097157600080fd5b50601854610440906001600160a01b031681565b34801561099157600080fd5b50610382611f11565b3480156109a657600080fd5b506103826109b53660046154e7565b611fac565b3480156109c657600080fd5b506109da6109d5366004615104565b612112565b6040516103169190615515565b3480156109f357600080fd5b5061038261220a565b348015610a0857600080fd5b50601454610440906001600160a01b031681565b348015610a2857600080fd5b50601954610440906001600160a01b031681565b348015610a4857600080fd5b506103826122d0565b6060610a5c82612314565b610a7283610a68612364565b62ffffff1661239b565b62ffffff168262ffffff161015610ac25760405162461bcd60e51b815260206004820152600f60248201526e185b1c9958591e4818db185a5b5959608a1b60448201526064015b60405180910390fd5b610acb826123c7565b610b0b5760405162461bcd60e51b8152602060048201526011602482015270726577617264732068617368207a65726f60781b6044820152606401610ab9565b610b158383612445565b90505b92915050565b610b26612af7565b6018805460ff60a81b1916600160a81b179055565b610b43612b51565b610b4b612baa565b610b53612c12565b60005b84811015610b9f57610b8d868683818110610b7357610b736155a4565b9050602002016020810190610b889190615104565b612c3c565b80610b97816155d0565b915050610b56565b50610ba983612314565b60135460405163712441d960e11b815260009182916001600160a01b039091169063e24883b290610be29033908b908b906004016155e9565b600060405180830381865afa158015610bff573d6000803e3d6000fd5b505050506040513d6000823e601f3d908101601f19168201604052610c2791908101906156a9565b915091506000610c35612364565b9050610c45600080878785612c83565b5060009050805b88811015610d855760008a8a83818110610c6857610c686155a4565b9050602002016020810190610c7d9190615104565b90506000868381518110610c9357610c936155a4565b602002602001015190506000610cad83838d896000612e34565b6001600160781b03169050816001600160a01b0316836001600160a01b031614610cf557610cdf82838d896001612e34565b610cf2906001600160781b0316826156ef565b90505b86811015610d455760405162461bcd60e51b815260206004820152601860248201527f636c61696d656420616d6f756e7420746f6f20736d616c6c00000000000000006044820152606401610ab9565b610d4f81866156ef565b9450610d5b8782615702565b90508015610d6f57610d6f828260016130a8565b5050508080610d7d906155d0565b915050610c4c565b5080600f6000828254610d9891906156ef565b90915550610db3905033610dac8a86615715565b60006130a8565b50505050610dc16001600355565b610dc96131a9565b5050505050565b600054600160b01b900460ff1680610df25750600054600160a81b900460ff16155b15610f4557610dff6131f0565b601854600160a81b900460ff16158015610e255750600b54600160301b900462ffffff16155b8015610e3d5750600b546301000000900462ffffff16155b610e7d5760405162461bcd60e51b81526020600482015260116024820152706e6f7420696e697469616c20737461746560781b6044820152606401610ab9565b610e85613228565b610e9090600161572c565b600b60066101000a81548162ffffff021916908362ffffff160217905550601460009054906101000a90046001600160a01b03166001600160a01b031663aec84ab66040518163ffffffff1660e01b8152600401602060405180830381865afa158015610f01573d6000803e3d6000fd5b505050506040513d601f19601f82011682018060405250810190610f25919061574f565b600b60036101000a81548162ffffff021916908362ffffff160217905550565b610f50600036613296565b565b601154601054600f546000918291610f6a91906156ef565b9050909192565b6000610f7b6133e2565b905090565b610f956000808484610f90612364565b612c83565b50505050565b600054600160b01b900460ff1680610fbd5750600054600160a81b900460ff16155b1561107457610fca6131f0565b6019546001600160a01b0316156110115760405162461bcd60e51b815260206004820152600b60248201526a185b1c9958591e481cd95d60aa1b6044820152606401610ab9565b6001600160a01b0381166110565760405162461bcd60e51b815260206004820152600c60248201526b61646472657373207a65726f60a01b6044820152606401610ab9565b601980546001600160a01b0319166001600160a01b03831617905550565b61107f600036613296565b50565b61108a612af7565b6018805460ff60a81b19169055565b60008054600160a81b900460ff166110bb57506001546001600160a01b031690565b60008054906101000a90046001600160a01b03166001600160a01b031663732524946040518163ffffffff1660e01b8152600401602060405180830381865afa15801561110c573d6000803e3d6000fd5b505050506040513d601f19601f82011682018060405250810190610f7b919061576c565b61113933611e20565b6111755760405162461bcd60e51b815260206004820152600d60248201526c37b7363c9032bc32b1baba37b960991b6044820152606401610ab9565b6001600160e01b03198116600090815260026020526040812080549091036111df5760405162461bcd60e51b815260206004820152601a60248201527f74696d656c6f636b3a20696e76616c69642073656c6563746f720000000000006044820152606401610ab9565b80544210156112305760405162461bcd60e51b815260206004820152601960248201527f74696d656c6f636b3a206e6f7420616c6c6f77656420796574000000000000006044820152606401610ab9565b600081600101805461124190615789565b80601f016020809104026020016040519081016040528092919081815260200182805461126d90615789565b80156112ba5780601f1061128f576101008083540402835291602001916112ba565b820191906000526020600020905b81548152906001019060200180831161129d57829003601f168201915b505050506001600160e01b03198516600090815260026020526040812081815592935090506112ec6001830182614e74565b50506000805460ff60b01b1916600160b01b17815560405130906113119084906157bd565b6000604051808303816000865af19150503d806000811461134e576040519150601f19603f3d011682016040523d82523d6000602084013e611353565b606091505b50506000805460ff60b01b19169055604080516001600160e01b0319871681524260208201529192507fa7326b57fc9cfe267aaea5e7f0b01757154d265620a0585819416ee9ddd2c438910160405180910390a1610f95816133ff565b6113b8612af7565b6001600160e01b0319811660009081526002602052604081205490036114205760405162461bcd60e51b815260206004820152601a60248201527f74696d656c6f636b3a20696e76616c69642073656c6563746f720000000000006044820152606401610ab9565b604080516001600160e01b0319831681524260208201527f7735b2391c38a81419c513e30ca578db7158eadd7101511b23e221c654d19cf8910160405180910390a16001600160e01b0319811660009081526002602052604081208181559061148c6001830182614e74565b505050565b6000610f7b613228565b600260205260009081526040902080546001820180549192916114bd90615789565b80601f01602080910402602001604051908101604052809291908181526020018280546114e990615789565b80156115365780601f1061150b57610100808354040283529160200191611536565b820191906000526020600020905b81548152906001019060200180831161151957829003601f168201915b5050505050905082565b6060601a60000180548060200260200160405190810160405280929190818152602001828054801561159b57602002820191906000526020600020905b81546001600160a01b0316815260019091019060200180831161157d575b5050505050905090565b60006115af612b51565b6115b7612baa565b6115bf612c12565b86866115cb828261341c565b6115d488612c3c565b6115dd87612314565b60006115e7612364565b905060006115f88b8b898986612c83565b6001600160781b03909116955090506116158b8b8b856000612e34565b611628906001600160781b0316866156ef565b94506001600160781b0381161561169257806001600160781b03166010600082825461165491906156ef565b909155505060405161dead906001600160781b03831680156108fc02916000818181858888f19350505050158015611690573d6000803e3d6000fd5b505b84156116bb5784600f60008282546116aa91906156ef565b909155506116bb90508a868a6130a8565b505050506116c96001600355565b6116d16131a9565b9695505050505050565b604080516060810182526000808252602080830182905282840182905262ffffff86168252600c9052918220909183600481111561171b5761171b614f1d565b600481111561172c5761172c614f1d565b8152602080820192909252604090810160009081206001600160a01b038816825283528190208151606081018352905460ff81161515825261010081046001600160781b031693820193909352600160801b9092046001600160801b03169082015290505b9392505050565b6117a061349f565b6117a8612baa565b6117b0613228565b62ffffff168262ffffff1610156118095760405162461bcd60e51b815260206004820152601b60248201527f7265776172642065706f636820696420696e20746865207061737400000000006044820152606401610ab9565b611812346134fd565b62ffffff83166000908152600660205260408120805490919061183f9084906001600160781b03166157d9565b92506101000a8154816001600160781b0302191690836001600160781b03160217905550346011600082825461187591906156ef565b909155505080156118f257611889346134fd565b62ffffff8316600090815260076020526040812080549091906118b69084906001600160781b03166157d9565b92506101000a8154816001600160781b0302191690836001600160781b0316021790555034601260008282546118ec91906156ef565b90915550505b6118fa6131a9565b5050565b6000610f7b613535565b600054600160b01b900460ff168061192a5750600054600160a81b900460ff16155b15610f45576119376131f0565b6016805460ff60a01b1916600160a01b179055565b7f714f205b2abd25bef1d06a1af944e38c113fe6160375c4e1d6d5cf28848e7719546001600160a01b0316336001600160a01b0316146119c55760405162461bcd60e51b815260206004820152601460248201527337b7363c9030b2323932b9b9903ab83230ba32b960611b6044820152606401610ab9565b611a1d6119f983836040518060400160405280600e81526020016d20b2323932b9b9aab83230ba32b960911b815250613554565b7f714f205b2abd25bef1d06a1af944e38c113fe6160375c4e1d6d5cf28848e771955565b6118fa828261362f565b600054600160b01b900460ff1680611a495750600054600160a81b900460ff16155b15611a9657611a566131f0565b6118fa828280806020026020016040519081016040528093929190818152602001838360200280828437600092019190915250601a939250506138519050565b6118fa600036613296565b6000611aaf82610a68612364565b62ffffff1692915050565b6014546001600160a01b0316331480611add57506019546001600160a01b031633145b611b195760405162461bcd60e51b815260206004820152600d60248201526c6f6e6c79206d616e616765727360981b6044820152606401610ab9565b600b546301000000900462ffffff168114611b675760405162461bcd60e51b815260206004820152600e60248201526d1ddc9bdb99c8195c1bd8da081a5960921b6044820152606401610ab9565b7f00000000000000000000000000000000000000000000000000000000000000006001600160a01b031615801590611bbc5750600b54611bb490600160301b900462ffffff16603261572c565b62ffffff1681105b15611c3c57604051636b60edf760e11b8152600481018290527f00000000000000000000000000000000000000000000000000000000000000006001600160a01b03169063d6c1dbee90602401600060405180830381600087803b158015611c2357600080fd5b505af1158015611c37573d6000803e3d6000fd5b505050505b611c4f611c4a8260016156ef565b613864565b600b805462ffffff9290921663010000000265ffffff0000001990921691909117905560405181907f5d05c64f281304391697cf987812e1a736413a062a9bdf39af4102209eb6fa5890600090a26000818152600a60209081526040808320546009909252822054611ccd916001600160781b0390811691166157d9565b600083815260066020526040902054611cef91906001600160781b03166157f9565b90506001600160781b038116156118fa57806001600160781b031660106000828254611d1b91906156ef565b90915550506000828152600a602052604081208054839290611d479084906001600160781b03166157d9565b92506101000a8154816001600160781b0302191690836001600160781b0316021790555061dead6001600160a01b03166108fc826001600160781b03169081150290604051600060405180830381858888f1935050505015801561148c573d6000803e3d6000fd5b600080611dba612364565b9150611dc5826123c7565b611e115760405162461bcd60e51b815260206004820152601f60248201527f6e6f2065706f6368207769746820636c61696d61626c652072657761726473006044820152606401610ab9565b611e1a82613894565b90509091565b60008054600160a01b900460ff168015610b185750600054604051630debfda360e41b81526001600160a01b0384811660048301529091169063debfda3090602401602060405180830381865afa158015611e7f573d6000803e3d6000fd5b505050506040513d601f19601f82011682018060405250810190610b189190615819565b6017546040805163deea13e760e01b815290516000926001600160a01b03169163deea13e79160048083019260209291908290030181865afa158015611eed573d6000803e3d6000fd5b505050506040513d601f19601f82011682018060405250810190610f7b9190615836565b611f19612af7565b600b5462ffffff90811614611f625760405162461bcd60e51b815260206004820152600f60248201526e185b1c9958591e48195b98589b1959608a1b6044820152606401610ab9565b611f6a613228565b600b805462ffffff191662ffffff9290921691821790556040517f1cfb844c44f9325fc9ad6cc6191a4a24b0415137fe300b6c9071523a253f7a0890600090a2565b600054600160a01b900460ff1615611ffd5760405162461bcd60e51b8152602060048201526014602482015273696e697469616c6973656420213d2066616c736560601b6044820152606401610ab9565b6001600160a01b0382166120535760405162461bcd60e51b815260206004820152601860248201527f676f7665726e616e63652073657474696e6773207a65726f00000000000000006044820152606401610ab9565b6001600160a01b03811661209c5760405162461bcd60e51b815260206004820152601060248201526f5f676f7665726e616e6365207a65726f60801b6044820152606401610ab9565b600080546001600160a01b038481166001600160a81b031990921691909117600160a01b17909155600180549183166001600160a01b0319909216821790556040519081527f9789733827840833afc031fb2ef9ab6894271f77bad2085687cf4ae5c7bee4db9060200160405180910390a15050565b6060600061212283610a68612364565b905061212d816123c7565b1561220457600061213d82613894565b9050612149828261584f565b61215490600161572c565b62ffffff166001600160401b0381111561217057612170615335565b6040519080825280602002602001820160405280156121a357816020015b606081526020019060019003908161218e5790505b509250815b8162ffffff168162ffffff1611612201576121c38582612445565b846121ce858461584f565b62ffffff16815181106121e3576121e36155a4565b602002602001018190525080806121f99061586b565b9150506121a8565b50505b50919050565b612212612af7565b600054600160a81b900460ff161561226c5760405162461bcd60e51b815260206004820152601a60248201527f616c726561647920696e2070726f64756374696f6e206d6f64650000000000006044820152606401610ab9565b600180546001600160a01b031916905560008054600160a81b60ff60a81b198216179091556040516001600160a01b0390911681527f83af113638b5422f9e977cebc0aaf0eaf2188eb9a8baae7f9d46c42b33a1560c9060200160405180910390a1565b600054600160b01b900460ff16806122f25750600054600160a81b900460ff16155b15610f45576122ff6131f0565b6018805460ff60a01b1916600160a01b179055565b61231c613228565b62ffffff168162ffffff161061107f5760405162461bcd60e51b815260206004820152600d60248201526c6e6f7420636c61696d61626c6560981b6044820152606401610ab9565b600b54600090610f7b90611c4a9062ffffff166123966123826133e2565b600b546301000000900462ffffff166138ee565b6138ee565b6001600160a01b038216600090815260046020526040812054610b1590611c4a9062ffffff16846138ee565b601454604051633238037160e11b815262ffffff8316600482015260009182916001600160a01b039091169063647006e290602401602060405180830381865afa158015612419573d6000803e3d6000fd5b505050506040513d601f19601f8201168201806040525081019061243d9190615836565b141592915050565b60145460405163388a4c3d60e01b815262ffffff831660048201526060916000916001600160a01b039091169063388a4c3d90602401602060405180830381865afa158015612498573d6000803e3d6000fd5b505050506040513d601f19601f820116820180604052508101906124bc9190615836565b905060006124c984613904565b9050600061251560405180610100016040528060608152602001606081526020016060815260200160608152602001600081526020016060815260200160608152602001600081525090565b6016546001600160a01b0316156125b3576016546040516325f48f9960e11b81526001600160a01b0390911690634be91f3290612558908a90879060040161588d565b600060405180830381865afa158015612575573d6000803e3d6000fd5b505050506040513d6000823e601f3d908101601f1916820160405261259d9190810190615917565b6020830152808252516125b090836156ef565b91505b6018546001600160a01b031615612655576018546040516325f48f9960e11b81526001600160a01b0390911690634be91f32906125f6908a90879060040161588d565b600060405180830381865afa158015612613573d6000803e3d6000fd5b505050506040513d6000823e601f3d908101601f1916820160405261263b91908101906159d1565b6060830152604082018190525161265290836156ef565b91505b60175460405163277166bf60e11b81526001600160a01b0390911690634ee2cd7e90612687908a90879060040161588d565b602060405180830381865afa1580156126a4573d6000803e3d6000fd5b505050506040513d601f19601f820116820180604052508101906126c89190615836565b608082018190521561284e5760175460405163ed475a7960e01b81526001600160a01b039091169063ed475a7990612706908a90879060040161588d565b600060405180830381865afa158015612723573d6000803e3d6000fd5b505050506040513d6000823e601f3d908101601f1916820160405261274b9190810190615a1d565b505060c083015260a082018190525161276490836156ef565b91506000805b8260c00151518110156127b4578260c00151818151811061278d5761278d6155a4565b6020026020010151826127a091906156ef565b9150806127ac816155d0565b91505061276a565b5061271081101561284c57601754604051634181ad4160e11b81526001600160a01b03909116906383035a82906127f1908b90889060040161588d565b602060405180830381865afa15801561280e573d6000803e3d6000fd5b505050506040513d601f19601f820116820180604052508101906128329190615836565b60e083018190521561284c576128496001846156ef565b92505b505b62ffffff86166000908152600e6020526040902054841115826001600160401b0381111561287e5761287e615335565b6040519080825280602002602001820160405280156128d757816020015b6040805160a08101825260008082526020808301829052928201819052606082018190526080820152825260001990920191018161289c5790505b5095506000808360e001511115612923576128fa8860028b8660e00151866139a3565b8782612905816155d0565b935081518110612917576129176155a4565b60200260200101819052505b60005b8360a00151518110156129d0576129958960028660a00151848151811061294f5761294f6155a4565b602002602001015161298f8860c001518681518110612970576129706155a4565b60200260200101516127108a60800151613aae9092919063ffffffff16565b876139a3565b88836129a0816155d0565b9450815181106129b2576129b26155a4565b602002602001018190525080806129c8906155d0565b915050612926565b5060005b835151811015612a6457612a29896003866000015184815181106129fa576129fa6155a4565b602002602001015160601c87602001518581518110612a1b57612a1b6155a4565b6020026020010151876139a3565b8883612a34816155d0565b945081518110612a4657612a466155a4565b60200260200101819052508080612a5c906155d0565b9150506129d4565b5060005b836040015151811015612aea57612aaf89600486604001518481518110612a9157612a916155a4565b602002602001015187606001518581518110612a1b57612a1b6155a4565b8883612aba816155d0565b945081518110612acc57612acc6155a4565b60200260200101819052508080612ae2906155d0565b915050612a68565b5050505050505092915050565b612aff611099565b6001600160a01b0316336001600160a01b031614610f505760405162461bcd60e51b815260206004820152600f60248201526e6f6e6c7920676f7665726e616e636560881b6044820152606401610ab9565b601854600160a81b900460ff16610f505760405162461bcd60e51b815260206004820152601a60248201527f726577617264206d616e616765722064656163746976617465640000000000006044820152606401610ab9565b600034612bb5613535565b612bbf91906156ef565b90504781811115612c025761dead6108fc612bda8484615702565b6040518115909202916000818181858888f1935050505015801561148c573d6000803e3d6000fd5b818110156118fa576118fa615a90565b600260035403612c3557604051633ee5aeb560e01b815260040160405180910390fd5b6002600355565b6001600160a01b03811661107f5760405162461bcd60e51b815260206004820152600e60248201526d726563697069656e74207a65726f60901b6044820152606401610ab9565b60008060005b84811015612e29578362ffffff16868683818110612ca957612ca96155a4565b9050602002810190612cbb9190615aa6565b612ccc9060408101906020016154ca565b62ffffff161015612d165760405162461bcd60e51b81526020600482015260146024820152731c995dd85c9908195c1bd8da08195e1c1a5c995960621b6044820152606401610ab9565b6000868683818110612d2a57612d2a6155a4565b9050602002810190612d3c9190615aa6565b612d4d9060a0810190608001615abc565b90506000816004811115612d6357612d63614f1d565b1480612d8057506001816004811115612d7e57612d7e614f1d565b145b15612dea576001600160a01b03891615612de557600080612dc58b8b8b8b88818110612dae57612dae6155a4565b9050602002810190612dc09190615aa6565b613bd4565b9092509050612dd482876157d9565b9550612de081866157d9565b945050505b612e16565b612e16878784818110612dff57612dff6155a4565b9050602002810190612e119190615aa6565b61408f565b5080612e21816155d0565b915050612c89565b509550959350505050565b600080612e46878562ffffff1661239b565b9050805b8562ffffff168162ffffff16116130305760145460405163388a4c3d60e01b815262ffffff831660048201526000916001600160a01b03169063388a4c3d90602401602060405180830381865afa158015612ea9573d6000803e3d6000fd5b505050506040513d601f19601f82011682018060405250810190612ecd9190615836565b905080600003612f2057612ee0826123c7565b612f205760405162461bcd60e51b8152602060048201526011602482015270726577617264732068617368207a65726f60781b6044820152606401610ab9565b62ffffff82166000908152600e602052604081205482111590612f4284613904565b90506000612f538c8c87858761431a565b612f5d90826157d9565b905087612fba576016546001600160a01b031615612f8f57612f828c8c878587614588565b612f8c90826157d9565b90505b6018546001600160a01b031615612fba57612fad8c8c878587614683565b612fb790826157d9565b90505b62ffffff851660009081526009602052604081208054839290612fe79084906001600160781b03166157d9565b92506101000a8154816001600160781b0302191690836001600160781b03160217905550808761301791906157d9565b96505050505080806130289061586b565b915050612e4a565b5061303c85600161572c565b6001600160a01b03881660009081526004602052604090205462ffffff9182169116101561309e5761306f85600161572c565b6001600160a01b0388166000908152600460205260409020805462ffffff191662ffffff929092169190911790555b5095945050505050565b80156131145760175460405163b760faf960e01b81526001600160a01b0385811660048301529091169063b760faf99084906024016000604051808303818588803b1580156130f657600080fd5b505af115801561310a573d6000803e3d6000fd5b5050505050505050565b6000836001600160a01b03168360405160006040518083038185875af1925050503d8060008114613161576040519150601f19603f3d011682016040523d82523d6000602084013e613166565b606091505b5050905080610f955760405162461bcd60e51b815260206004820152600f60248201526e1d1c985b9cd9995c8819985a5b1959608a1b6044820152606401610ab9565b6131b1613535565b4714610f505760405162461bcd60e51b815260206004820152600e60248201526d6f7574206f662062616c616e636560901b6044820152606401610ab9565b600054600160b01b900460ff16156132205733301461321157613211615a90565b6000805460ff60b01b19169055565b610f50612af7565b60145460408051637056269760e01b815290516000926001600160a01b03169163705626979160048083019260209291908290030181865afa158015613272573d6000803e3d6000fd5b505050506040513d601f19601f82011682018060405250810190610f7b919061574f565b61329e612af7565b6000805460408051636221a54b60e01b81529051853593926001600160a01b031691636221a54b9160048083019260209291908290030181865afa1580156132ea573d6000803e3d6000fd5b505050506040513d601f19601f8201168201806040525081019061330e9190615836565b9050600061331c82426156ef565b9050604051806040016040528082815260200186868080601f01602080910402602001604051908101604052809392919081815260200183838082843760009201829052509390945250506001600160e01b0319861681526002602090815260409091208351815590830151909150600182019061339a9082615b1d565b509050507fed948300a3694aa01d4a6b258bfd664350193d770c0b51f8387277f6d83ea3b6838287876040516133d39493929190615bdc565b60405180910390a15050505050565b600b54600090610b1890600160301b900462ffffff166001614761565b3d604051818101604052816000823e8215613418578181f35b8181fd5b6001600160a01b0382163303613430575050565b60135460405163ce2caa5760e01b81523360048201526001600160a01b03848116602483015283811660448301529091169063ce2caa579060640160006040518083038186803b15801561348357600080fd5b505afa158015613497573d6000803e3d6000fd5b505050505050565b336000908152601b60205260408120549003610f505760405162461bcd60e51b815260206004820152601a60248201527f6f6e6c7920726577617264206f6666657273206d616e616765720000000000006044820152606401610ab9565b60006001600160781b03821115613531576040516306dfcc6560e41b81526078600482015260248101839052604401610ab9565b5090565b6000601054600f5460115461354a9190615702565b610f7b9190615702565b600080826040516020016135689190615c22565b6040516020818303038152906040528051906020012090506000805b86518110156135e05786818151811061359f5761359f6155a4565b602002602001015183036135ce578581815181106135bf576135bf6155a4565b602002602001015191506135e0565b806135d8816155d0565b915050613584565b506001600160a01b0381166136265760405162461bcd60e51b815260206004820152600c60248201526b61646472657373207a65726f60a01b6044820152606401610ab9565b95945050505050565b61366382826040518060400160405280601181526020017021b630b4b6a9b2ba3ab826b0b730b3b2b960791b815250613554565b601360006101000a8154816001600160a01b0302191690836001600160a01b031602179055506136bf828260405180604001604052806013815260200172233630b932a9bcb9ba32b6b9a6b0b730b3b2b960691b815250613554565b601460006101000a8154816001600160a01b0302191690836001600160a01b0316021790555061371e828260405180604001604052806016815260200175233630b932a9bcb9ba32b6b9a1b0b631bab630ba37b960511b815250613554565b601580546001600160a01b0319166001600160a01b0392909216919091179055601654600160a01b900460ff16156137a5576137848282604051806040016040528060118152602001702821b430b4b729ba30b5b2a6b4b93937b960791b815250613554565b601680546001600160a01b0319166001600160a01b03929092169190911790555b601854600160a01b900460ff1615613806576137e582826040518060400160405280600b81526020016a43436861696e5374616b6560a81b815250613554565b601880546001600160a01b0319166001600160a01b03929092169190911790555b61382d82826040518060400160405280600481526020016315d3985d60e21b815250613554565b601780546001600160a01b0319166001600160a01b03929092169190911790555050565b61385a82614787565b6118fa8282614812565b600062ffffff821115613531576040516306dfcc6560e41b81526018600482015260248101839052604401610ab9565b60008061389f613228565b62ffffff1690506138b183600161572c565b91505b808262ffffff161080156138cc57506138cc826123c7565b156138e357816138db8161586b565b9250506138b4565b61179160018361584f565b60008183116138fd5781610b15565b5090919050565b62ffffff81166000908152600560205260408120549081900361399e57601454604051636131910b60e11b815262ffffff841660048201526001600160a01b039091169063c263221690602401602060405180830381865afa15801561396e573d6000803e3d6000fd5b505050506040513d601f19601f820116820180604052508101906139929190615c35565b6001600160401b031690505b919050565b6040805160a08101825260009181018290526060808201838152608083019390935262ffffff8816825285901b6001600160601b0319166020820152908560048111156139f2576139f2614f1d565b90816004811115613a0557613a05614f1d565b90525062ffffff86166000908152600c6020526040812081876004811115613a2f57613a2f614f1d565b6004811115613a4057613a40614f1d565b81526020019081526020016000206000866001600160a01b03166001600160a01b0316815260200190815260200160002090508280613a805750805460ff165b158015608084015261309e57613a968185614853565b6001600160781b031660408301525095945050505050565b6000808211613af25760405162461bcd60e51b815260206004820152601060248201526f4469766973696f6e206279207a65726f60801b6044820152606401610ab9565b83600003613b0257506000611791565b83830283858281613b1557613b15615c5e565b0403613b3357828181613b2a57613b2a615c5e565b04915050611791565b506000613b408386615c74565b90506000613b4e8487615c88565b90506000613b5c8587615c74565b90506000613b6a8688615c88565b905085613b778285615715565b613b819190615c74565b613b8b8385615715565b613b958387615715565b88613ba08689615715565b613baa9190615715565b613bb491906156ef565b613bbe91906156ef565b613bc891906156ef565b98975050505050505050565b600080602083016001600160a01b038616613bf56060860160408701615c9c565b60601c14613c395760405162461bcd60e51b815260206004820152601160248201527077726f6e672062656e656669636961727960781b6044820152606401610ab9565b600081604051602001613c4c9190615cd0565b60408051601f1981840301815291905280516020918201209150600d90600090613c78908501856154ca565b62ffffff1681526020808201929092526040908101600090812084825290925290205460ff16614085576014546000906001600160a01b031663647006e2613cc360208601866154ca565b6040516001600160e01b031960e084901b16815262ffffff9091166004820152602401602060405180830381865afa158015613d03573d6000803e3d6000fd5b505050506040513d601f19601f82011682018060405250810190613d279190615836565b9050613d418183613d388980615d36565b909290916148cf565b613d845760405162461bcd60e51b81526020600482015260146024820152731b595c9adb19481c1c9bdbd9881a5b9d985b1a5960621b6044820152606401610ab9565b613da9613d9460208501856154ca565b613da46060860160408701615d7f565b6148e7565b94506001613dbd6080850160608601615abc565b6004811115613dce57613dce614f1d565b03613f6c576015546000906001600160a01b0316639350f57c613df460208701876154ca565b6040516001600160e01b031960e084901b16815262ffffff90911660048201526001600160a01b038c166024820152604401602060405180830381865afa158015613e43573d6000803e3d6000fd5b505050506040513d601f19601f82011682018060405250810190613e679190615836565b90508015613f6a57613ea0613e9b613e8c6001600160781b03891684620f4240613aae565b886001600160781b03166149a0565b6134fd565b9450613eac85876157f9565b955084600a6000613ec060208801886154ca565b62ffffff168152602081019190915260400160009081208054909190613ef09084906001600160781b03166157d9565b82546001600160781b039182166101009390930a92830291909202199091161790555061dead6001600160a01b038a16807f06f77960d1401cc7d724b5c2b5ad672b9dbf08d8b11516a38c21697c23fbb0d2613f4f60208901896154ca565b60018a604051613f6193929190615d9a565b60405180910390a45b505b8460096000613f7e60208701876154ca565b62ffffff168152602081019190915260400160009081208054909190613fae9084906001600160781b03166157d9565b92506101000a8154816001600160781b0302191690836001600160781b031602179055506001600d6000856000016020810190613feb91906154ca565b62ffffff16815260208082019290925260409081016000908120868252835220805460ff1916921515929092179091556001600160a01b0388811691908a169081907f06f77960d1401cc7d724b5c2b5ad672b9dbf08d8b11516a38c21697c23fbb0d29061405b908801886154ca565b61406b6080890160608a01615abc565b8a60405161407b93929190615d9a565b60405180910390a4505b5050935093915050565b602081016000600c816140a560408601856154ca565b62ffffff16815260200190815260200160002060008360600160208101906140cd9190615abc565b60048111156140de576140de614f1d565b60048111156140ef576140ef614f1d565b815260200190815260200160002060008360200160208101906141129190615c9c565b60601c81526020810191909152604001600020805490915060ff1661148c576014546000906001600160a01b031663647006e261415260208601866154ca565b6040516001600160e01b031960e084901b16815262ffffff9091166004820152602401602060405180830381865afa158015614192573d6000803e3d6000fd5b505050506040513d601f19601f820116820180604052508101906141b69190615836565b90506000836040516020016141cb9190615cd0565b60408051601f19818403018152919052805160209091012090506141f48282613d388880615d36565b6142375760405162461bcd60e51b81526020600482015260146024820152731b595c9adb19481c1c9bdbd9881a5b9d985b1a5960621b6044820152606401610ab9565b825460ff1916600117835561426261425260208601866154ca565b613da46060870160408801615d7f565b83546001600160781b0391909116610100026fffffffffffffffffffffffffffffff00199091161783556142c161429c60208601866154ca565b6142ac6040870160208801615c9c565b6142bc6080880160608901615abc565b6149af565b83546001600160801b03918216600160801b0291161783556001600e60006142ec60208801886154ca565b62ffffff168152602001908152602001600020600082825461430e91906156ef565b90915550505050505050565b60175460405163277166bf60e11b815260009182916001600160a01b0390911690634ee2cd7e90614351908a90889060040161588d565b602060405180830381865afa15801561436e573d6000803e3d6000fd5b505050506040513d601f19601f820116820180604052508101906143929190615836565b9050801561309e5760175460405163ed475a7960e01b8152600091829182916001600160a01b03169063ed475a79906143d1908d908b9060040161588d565b600060405180830381865afa1580156143ee573d6000803e3d6000fd5b505050506040513d6000823e601f3d908101601f191682016040526144169190810190615a1d565b505081519193509150156144d65760005b82518110156144d4576000614462838381518110614447576144476155a4565b602002602001015161271088613aae9092919063ffffffff16565b9050828281518110614476576144766155a4565b60200260200101518561448991906156ef565b94506144b48483815181106144a0576144a06155a4565b60200260200101518d8d8d6002868e614b96565b6144be90886157d9565b96505080806144cc906155d0565b915050614427565b505b61271083101561457b57601754604051634181ad4160e11b81526000916001600160a01b0316906383035a8290614513908e908c9060040161588d565b602060405180830381865afa158015614530573d6000803e3d6000fd5b505050506040513d601f19601f820116820180604052508101906145549190615836565b905080156145795761456c8b8c8c8c6002868d614b96565b61457690876157d9565b95505b505b5050505095945050505050565b6016546040516325f48f9960e11b8152600091829182916001600160a01b031690634be91f32906145bf908b90899060040161588d565b600060405180830381865afa1580156145dc573d6000803e3d6000fd5b505050506040513d6000823e601f3d908101601f191682016040526146049190810190615917565b9150915060005b825181101561467757614659838281518110614629576146296155a4565b602002602001015160601c8a8a8a600387878151811061464b5761464b6155a4565b60200260200101518b614b96565b61466390856157d9565b93508061466f816155d0565b91505061460b565b50505095945050505050565b6018546040516325f48f9960e11b8152600091829182916001600160a01b031690634be91f32906146ba908b90899060040161588d565b600060405180830381865afa1580156146d7573d6000803e3d6000fd5b505050506040513d6000823e601f3d908101601f191682016040526146ff91908101906159d1565b9150915060005b825181101561467757614743838281518110614724576147246155a4565b60200260200101518a8a8a600487878151811061464b5761464b6155a4565b61474d90856157d9565b935080614759816155d0565b915050614706565b6000808383111561477757506000905080614780565b50600190508183035b9250929050565b80541561107f57805460018083019160009184916147a59190615702565b815481106147b5576147b56155a4565b60009182526020808320909101546001600160a01b0316835282019290925260400181205580548190806147eb576147eb615dca565b600082815260209020810160001990810180546001600160a01b0319169055019055614787565b60005b815181101561148c5761484183838381518110614834576148346155a4565b6020026020010151614d5d565b8061484b816155d0565b915050614815565b60008160000361486557506000610b18565b825461010090046001600160781b03166000819003614888576000915050610b18565b8354600160801b90046001600160801b03168084036148a957509050610b18565b8084106148b8576148b8615a90565b613626613e9b6001600160781b0384168684613aae565b6000826148dd868685614dc5565b1495945050505050565b62ffffff821660009081526006602090815260408083205460089092529091205482916001600160781b03908116911661492183826157d9565b6001600160781b0316826001600160781b031610156149475761494481836157f9565b92505b62ffffff8516600090815260086020526040812080548592906149749084906001600160781b03166157d9565b92506101000a8154816001600160781b0302191690836001600160781b03160217905550505092915050565b60008183106138fd5781610b15565b62ffffff8316600090815260056020526040812054808203614a6357601454604051636131910b60e11b815262ffffff871660048201526001600160a01b039091169063c263221690602401602060405180830381865afa158015614a18573d6000803e3d6000fd5b505050506040513d601f19601f82011682018060405250810190614a3c9190615c35565b62ffffff861660009081526005602052604090206001600160401b03919091169081905590505b6002836004811115614a7757614a77614f1d565b03614b0257601754604051631257fcdb60e31b8152614afa916001600160a01b0316906392bfe6d890614ab490606089901c90869060040161588d565b602060405180830381865afa158015614ad1573d6000803e3d6000fd5b505050506040513d601f19601f82011682018060405250810190614af59190615836565b614e11565b915050611791565b6003836004811115614b1657614b16614f1d565b03614b5e57601654604051631190c4dd60e21b81526001600160601b03198616600482015260248101839052614afa916001600160a01b031690634643137490604401614ab4565b601854604051631257fcdb60e31b8152614afa916001600160a01b0316906392bfe6d890614ab490606089901c90869060040161588d565b62ffffff84166000908152600c60205260408120819081866004811115614bbf57614bbf614f1d565b6004811115614bd057614bd0614f1d565b815260200190815260200160002060008a6001600160a01b03166001600160a01b0316815260200190815260200160002090508280614c105750805460ff165b614c4e5760405162461bcd60e51b815260206004820152600f60248201526e1b9bdd081a5b9a5d1a585b1a5cd959608a1b6044820152606401610ab9565b614c588185614853565b91506001600160781b03821615614cf857614c7284614e11565b81548290601090614c94908490600160801b90046001600160801b0316615de0565b82546001600160801b0391821661010093840a908102920219161790915582548492508391600191614cd39185916001600160781b03919004166157f9565b92506101000a8154816001600160781b0302191690836001600160781b031602179055505b866001600160a01b0316886001600160a01b03168a6001600160a01b03167f06f77960d1401cc7d724b5c2b5ad672b9dbf08d8b11516a38c21697c23fbb0d2898987604051614d4993929190615d9a565b60405180910390a450979650505050505050565b6001600160a01b038116600090815260018301602052604090205415614d81575050565b8154600181810184556000848152602080822090930180546001600160a01b039095166001600160a01b031990951685179055845493815293019052604090912055565b600081815b84811015614e0857614df482878784818110614de857614de86155a4565b90506020020135614e45565b915080614e00816155d0565b915050614dca565b50949350505050565b60006001600160801b03821115613531576040516306dfcc6560e41b81526080600482015260248101839052604401610ab9565b6000818310614e61576000828152602084905260409020610b15565b6000838152602083905260409020610b15565b508054614e8090615789565b6000825580601f10614e90575050565b601f01602090049060005260206000209081019061107f91905b808211156135315760008155600101614eaa565b6001600160a01b038116811461107f57600080fd5b62ffffff8116811461107f57600080fd5b60008060408385031215614ef757600080fd5b8235614f0281614ebe565b91506020830135614f1281614ed3565b809150509250929050565b634e487b7160e01b600052602160045260246000fd5b60058110614f5157634e487b7160e01b600052602160045260246000fd5b9052565b62ffffff81511682526bffffffffffffffffffffffff1960208201511660208301526001600160781b03604082015116604083015260006060820151614f9e6060850182614f33565b505060809081015115159082015260a00190565b6020808252825182820181905260009190848201906040850190845b81811015614fef57614fe1838551614f55565b938501939250600101614fce565b50909695505050505050565b60008083601f84011261500d57600080fd5b5081356001600160401b0381111561502457600080fd5b6020830191508360208260051b850101111561478057600080fd5b60008060008060006060868803121561505757600080fd5b85356001600160401b038082111561506e57600080fd5b61507a89838a01614ffb565b90975095506020880135915061508f82614ed3565b909350604087013590808211156150a557600080fd5b506150b288828901614ffb565b969995985093965092949392505050565b600080602083850312156150d657600080fd5b82356001600160401b038111156150ec57600080fd5b6150f885828601614ffb565b90969095509350505050565b60006020828403121561511657600080fd5b813561179181614ebe565b60006020828403121561513357600080fd5b5035919050565b60006020828403121561514c57600080fd5b81356001600160e01b03198116811461179157600080fd5b60005b8381101561517f578181015183820152602001615167565b50506000910152565b600081518084526151a0816020860160208601615164565b601f01601f19169290920160200192915050565b8281526040602082015260006151cd6040830184615188565b949350505050565b6020808252825182820181905260009190848201906040850190845b81811015614fef5783516001600160a01b0316835292840192918401916001016151f1565b801515811461107f57600080fd5b60008060008060008060a0878903121561523d57600080fd5b863561524881614ebe565b9550602087013561525881614ebe565b9450604087013561526881614ed3565b9350606087013561527881615216565b925060808701356001600160401b0381111561529357600080fd5b61529f89828a01614ffb565b979a9699509497509295939492505050565b80356005811061399e57600080fd5b6000806000606084860312156152d557600080fd5b83356152e081614ebe565b925060208401356152f081614ed3565b91506152fe604085016152b1565b90509250925092565b6000806040838503121561531a57600080fd5b823561532581614ed3565b91506020830135614f1281615216565b634e487b7160e01b600052604160045260246000fd5b604051601f8201601f191681016001600160401b038111828210171561537357615373615335565b604052919050565b60006001600160401b0382111561539457615394615335565b5060051b60200190565b600082601f8301126153af57600080fd5b813560206153c46153bf8361537b565b61534b565b82815260059290921b840181019181810190868411156153e357600080fd5b8286015b848110156154075780356153fa81614ebe565b83529183019183016153e7565b509695505050505050565b6000806040838503121561542557600080fd5b82356001600160401b038082111561543c57600080fd5b818501915085601f83011261545057600080fd5b813560206154606153bf8361537b565b82815260059290921b8401810191818101908984111561547f57600080fd5b948201945b8386101561549d57853582529482019490820190615484565b965050860135925050808211156154b357600080fd5b506154c08582860161539e565b9150509250929050565b6000602082840312156154dc57600080fd5b813561179181614ed3565b600080604083850312156154fa57600080fd5b823561550581614ebe565b91506020830135614f1281614ebe565b6000602080830181845280855180835260408601915060408160051b87010192508387016000805b8381101561559657888603603f19018552825180518088529088019088880190845b8181101561558057615572838551614f55565b938b0193925060010161555f565b509097505050938601939186019160010161553d565b509398975050505050505050565b634e487b7160e01b600052603260045260246000fd5b634e487b7160e01b600052601160045260246000fd5b6000600182016155e2576155e26155ba565b5060010190565b6001600160a01b03848116825260406020808401829052908301849052600091859160608501845b8781101561563857843561562481614ebe565b841682529382019390820190600101615611565b5098975050505050505050565b600082601f83011261565657600080fd5b815160206156666153bf8361537b565b82815260059290921b8401810191818101908684111561568557600080fd5b8286015b8481101561540757805161569c81614ebe565b8352918301918301615689565b600080604083850312156156bc57600080fd5b82516001600160401b038111156156d257600080fd5b6156de85828601615645565b925050602083015190509250929050565b80820180821115610b1857610b186155ba565b81810381811115610b1857610b186155ba565b8082028115828204841417610b1857610b186155ba565b62ffffff818116838216019080821115615748576157486155ba565b5092915050565b60006020828403121561576157600080fd5b815161179181614ed3565b60006020828403121561577e57600080fd5b815161179181614ebe565b600181811c9082168061579d57607f821691505b60208210810361220457634e487b7160e01b600052602260045260246000fd5b600082516157cf818460208701615164565b9190910192915050565b6001600160781b03818116838216019080821115615748576157486155ba565b6001600160781b03828116828216039080821115615748576157486155ba565b60006020828403121561582b57600080fd5b815161179181615216565b60006020828403121561584857600080fd5b5051919050565b62ffffff828116828216039080821115615748576157486155ba565b600062ffffff808316818103615883576158836155ba565b6001019392505050565b6001600160a01b03929092168252602082015260400190565b6001600160601b03198116811461107f57600080fd5b600082601f8301126158cd57600080fd5b815160206158dd6153bf8361537b565b82815260059290921b840181019181810190868411156158fc57600080fd5b8286015b848110156154075780518352918301918301615900565b6000806040838503121561592a57600080fd5b82516001600160401b038082111561594157600080fd5b818501915085601f83011261595557600080fd5b815160206159656153bf8361537b565b82815260059290921b8401810191818101908984111561598457600080fd5b948201945b838610156159ab57855161599c816158a6565b82529482019490820190615989565b918801519196509093505050808211156159c457600080fd5b506154c0858286016158bc565b600080604083850312156159e457600080fd5b82516001600160401b03808211156159fb57600080fd5b615a0786838701615645565b935060208501519150808211156159c457600080fd5b60008060008060808587031215615a3357600080fd5b84516001600160401b0380821115615a4a57600080fd5b615a5688838901615645565b95506020870151915080821115615a6c57600080fd5b50615a79878288016158bc565b604087015160609097015195989097509350505050565b634e487b7160e01b600052600160045260246000fd5b60008235609e198336030181126157cf57600080fd5b600060208284031215615ace57600080fd5b610b15826152b1565b601f82111561148c57600081815260208120601f850160051c81016020861015615afe5750805b601f850160051c820191505b8181101561349757828155600101615b0a565b81516001600160401b03811115615b3657615b36615335565b615b4a81615b448454615789565b84615ad7565b602080601f831160018114615b7f5760008415615b675750858301515b600019600386901b1c1916600185901b178555613497565b600085815260208120601f198616915b82811015615bae57888601518255948401946001909101908401615b8f565b5085821015615bcc5787850151600019600388901b60f8161c191681555b5050505050600190811b01905550565b63ffffffff60e01b8516815283602082015260606040820152816060820152818360808301376000818301608090810191909152601f909201601f191601019392505050565b602081526000610b156020830184615188565b600060208284031215615c4757600080fd5b81516001600160401b038116811461179157600080fd5b634e487b7160e01b600052601260045260246000fd5b600082615c8357615c83615c5e565b500490565b600082615c9757615c97615c5e565b500690565b600060208284031215615cae57600080fd5b8135611791816158a6565b80356001600160781b038116811461399e57600080fd5b608081018235615cdf81614ed3565b62ffffff1682526020830135615cf4816158a6565b6001600160601b03191660208301526001600160781b03615d1760408501615cb9565b166040830152615d29606084016152b1565b6157486060840182614f33565b6000808335601e19843603018112615d4d57600080fd5b8301803591506001600160401b03821115615d6757600080fd5b6020019150600581901b360382131561478057600080fd5b600060208284031215615d9157600080fd5b610b1582615cb9565b62ffffff8416815260608101615db36020830185614f33565b6001600160781b0383166040830152949350505050565b634e487b7160e01b600052603160045260246000fd5b6001600160801b03828116828216039080821115615748576157486155ba56fea2646970667358221220d3720d66efe132dbd888b63c5b53bc4ae2cfe28f2fb6f0a4a5f65c8daf70df9464736f6c63430008140033",
  "linkReferences": {},
  "deployedLinkReferences": {}
}