{
  "_format": "hh-sol-artifact-1",
  "contractName": "RewardManager",
  "sourceName": "contracts/protocol/implementation/RewardManager.sol",
  "abi": [
    {
      "inputs": [
        {
          "internalType": "contract IGovernanceSettings",
          "name": "_governanceSettings",
          "type": "address"
        },
        {
          "internalType": "address",
          "name": "_initialGovernance",
          "type": "address"
        },
        {
          "internalType": "address",
          "name": "_addressUpdater",
          "type": "address"
        }
      ],
      "stateMutability": "nonpayable",
      "type": "constructor"
    },
    {
      "inputs": [],
      "name": "ReentrancyGuardReentrantCall",
      "type": "error"
    },
    {
      "inputs": [
        {
          "internalType": "uint8",
          "name": "bits",
          "type": "uint8"
        },
        {
          "internalType": "uint256",
          "name": "value",
          "type": "uint256"
        }
      ],
      "name": "SafeCastOverflowedUintDowncast",
      "type": "error"
    },
    {
      "anonymous": false,
      "inputs": [
        {
          "indexed": false,
          "internalType": "bytes4",
          "name": "selector",
          "type": "bytes4"
        },
        {
          "indexed": false,
          "internalType": "uint256",
          "name": "allowedAfterTimestamp",
          "type": "uint256"
        },
        {
          "indexed": false,
          "internalType": "bytes",
          "name": "encodedCall",
          "type": "bytes"
        }
      ],
      "name": "GovernanceCallTimelocked",
      "type": "event"
    },
    {
      "anonymous": false,
      "inputs": [
        {
          "indexed": false,
          "internalType": "address",
          "name": "initialGovernance",
          "type": "address"
        }
      ],
      "name": "GovernanceInitialised",
      "type": "event"
    },
    {
      "anonymous": false,
      "inputs": [
        {
          "indexed": false,
          "internalType": "address",
          "name": "governanceSettings",
          "type": "address"
        }
      ],
      "name": "GovernedProductionModeEntered",
      "type": "event"
    },
    {
      "anonymous": false,
      "inputs": [
        {
          "indexed": true,
          "internalType": "address",
          "name": "beneficiary",
          "type": "address"
        },
        {
          "indexed": true,
          "internalType": "address",
          "name": "rewardOwner",
          "type": "address"
        },
        {
          "indexed": true,
          "internalType": "address",
          "name": "recipient",
          "type": "address"
        },
        {
          "indexed": false,
          "internalType": "uint24",
          "name": "rewardEpochId",
          "type": "uint24"
        },
        {
          "indexed": false,
          "internalType": "enum IRewardManager.ClaimType",
          "name": "claimType",
          "type": "uint8"
        },
        {
          "indexed": false,
          "internalType": "uint120",
          "name": "amount",
          "type": "uint120"
        }
      ],
      "name": "RewardClaimed",
      "type": "event"
    },
    {
      "anonymous": false,
      "inputs": [
        {
          "indexed": true,
          "internalType": "uint256",
          "name": "rewardEpochId",
          "type": "uint256"
        }
      ],
      "name": "RewardClaimsEnabled",
      "type": "event"
    },
    {
      "anonymous": false,
      "inputs": [
        {
          "indexed": true,
          "internalType": "uint256",
          "name": "rewardEpochId",
          "type": "uint256"
        }
      ],
      "name": "RewardClaimsExpired",
      "type": "event"
    },
    {
      "anonymous": false,
      "inputs": [
        {
          "indexed": false,
          "internalType": "bytes4",
          "name": "selector",
          "type": "bytes4"
        },
        {
          "indexed": false,
          "internalType": "uint256",
          "name": "timestamp",
          "type": "uint256"
        }
      ],
      "name": "TimelockedGovernanceCallCanceled",
      "type": "event"
    },
    {
      "anonymous": false,
      "inputs": [
        {
          "indexed": false,
          "internalType": "bytes4",
          "name": "selector",
          "type": "bytes4"
        },
        {
          "indexed": false,
          "internalType": "uint256",
          "name": "timestamp",
          "type": "uint256"
        }
      ],
      "name": "TimelockedGovernanceCallExecuted",
      "type": "event"
    },
    {
      "inputs": [],
      "name": "activate",
      "outputs": [],
      "stateMutability": "nonpayable",
      "type": "function"
    },
    {
      "inputs": [],
      "name": "active",
      "outputs": [
        {
          "internalType": "bool",
          "name": "",
          "type": "bool"
        }
      ],
      "stateMutability": "view",
      "type": "function"
    },
    {
      "inputs": [
        {
          "internalType": "uint256",
          "name": "_toAuthorizeWei",
          "type": "uint256"
        }
      ],
      "name": "addDailyAuthorizedInflation",
      "outputs": [],
      "stateMutability": "nonpayable",
      "type": "function"
    },
    {
      "inputs": [
        {
          "internalType": "address[]",
          "name": "_rewardOwners",
          "type": "address[]"
        },
        {
          "internalType": "uint24",
          "name": "_rewardEpochId",
          "type": "uint24"
        },
        {
          "components": [
            {
              "internalType": "bytes32[]",
              "name": "merkleProof",
              "type": "bytes32[]"
            },
            {
              "components": [
                {
                  "internalType": "uint24",
                  "name": "rewardEpochId",
                  "type": "uint24"
                },
                {
                  "internalType": "bytes20",
                  "name": "beneficiary",
                  "type": "bytes20"
                },
                {
                  "internalType": "uint120",
                  "name": "amount",
                  "type": "uint120"
                },
                {
                  "internalType": "enum IRewardManager.ClaimType",
                  "name": "claimType",
                  "type": "uint8"
                }
              ],
              "internalType": "struct IRewardManager.RewardClaim",
              "name": "body",
              "type": "tuple"
            }
          ],
          "internalType": "struct IRewardManager.RewardClaimWithProof[]",
          "name": "_proofs",
          "type": "tuple[]"
        }
      ],
      "name": "autoClaim",
      "outputs": [],
      "stateMutability": "nonpayable",
      "type": "function"
    },
    {
      "inputs": [],
      "name": "cChainStake",
      "outputs": [
        {
          "internalType": "contract ICChainStake",
          "name": "",
          "type": "address"
        }
      ],
      "stateMutability": "view",
      "type": "function"
    },
    {
      "inputs": [],
      "name": "cChainStakeEnabled",
      "outputs": [
        {
          "internalType": "bool",
          "name": "",
          "type": "bool"
        }
      ],
      "stateMutability": "view",
      "type": "function"
    },
    {
      "inputs": [
        {
          "internalType": "bytes4",
          "name": "_selector",
          "type": "bytes4"
        }
      ],
      "name": "cancelGovernanceCall",
      "outputs": [],
      "stateMutability": "nonpayable",
      "type": "function"
    },
    {
      "inputs": [
        {
          "internalType": "address",
          "name": "_rewardOwner",
          "type": "address"
        },
        {
          "internalType": "address payable",
          "name": "_recipient",
          "type": "address"
        },
        {
          "internalType": "uint24",
          "name": "_rewardEpochId",
          "type": "uint24"
        },
        {
          "internalType": "bool",
          "name": "_wrap",
          "type": "bool"
        },
        {
          "components": [
            {
              "internalType": "bytes32[]",
              "name": "merkleProof",
              "type": "bytes32[]"
            },
            {
              "components": [
                {
                  "internalType": "uint24",
                  "name": "rewardEpochId",
                  "type": "uint24"
                },
                {
                  "internalType": "bytes20",
                  "name": "beneficiary",
                  "type": "bytes20"
                },
                {
                  "internalType": "uint120",
                  "name": "amount",
                  "type": "uint120"
                },
                {
                  "internalType": "enum IRewardManager.ClaimType",
                  "name": "claimType",
                  "type": "uint8"
                }
              ],
              "internalType": "struct IRewardManager.RewardClaim",
              "name": "body",
              "type": "tuple"
            }
          ],
          "internalType": "struct IRewardManager.RewardClaimWithProof[]",
          "name": "_proofs",
          "type": "tuple[]"
        }
      ],
      "name": "claim",
      "outputs": [
        {
          "internalType": "uint256",
          "name": "_rewardAmountWei",
          "type": "uint256"
        }
      ],
      "stateMutability": "nonpayable",
      "type": "function"
    },
    {
      "inputs": [],
      "name": "claimSetupManager",
      "outputs": [
        {
          "internalType": "contract IIClaimSetupManager",
          "name": "",
          "type": "address"
        }
      ],
      "stateMutability": "view",
      "type": "function"
    },
    {
      "inputs": [],
      "name": "cleanupBlockNumber",
      "outputs": [
        {
          "internalType": "uint256",
          "name": "",
          "type": "uint256"
        }
      ],
      "stateMutability": "view",
      "type": "function"
    },
    {
      "inputs": [
        {
          "internalType": "uint256",
          "name": "_rewardEpochId",
          "type": "uint256"
        }
      ],
      "name": "closeExpiredRewardEpoch",
      "outputs": [],
      "stateMutability": "nonpayable",
      "type": "function"
    },
    {
      "inputs": [],
      "name": "deactivate",
      "outputs": [],
      "stateMutability": "nonpayable",
      "type": "function"
    },
    {
      "inputs": [],
      "name": "enableCChainStake",
      "outputs": [],
      "stateMutability": "nonpayable",
      "type": "function"
    },
    {
      "inputs": [],
      "name": "enableClaims",
      "outputs": [],
      "stateMutability": "nonpayable",
      "type": "function"
    },
    {
      "inputs": [],
      "name": "enablePChainStakeMirror",
      "outputs": [],
      "stateMutability": "nonpayable",
      "type": "function"
    },
    {
      "inputs": [
        {
          "internalType": "bytes4",
          "name": "_selector",
          "type": "bytes4"
        }
      ],
      "name": "executeGovernanceCall",
      "outputs": [],
      "stateMutability": "nonpayable",
      "type": "function"
    },
    {
      "inputs": [],
      "name": "firstClaimableRewardEpochId",
      "outputs": [
        {
          "internalType": "uint24",
          "name": "",
          "type": "uint24"
        }
      ],
      "stateMutability": "view",
      "type": "function"
    },
    {
      "inputs": [],
      "name": "flareSystemCalculator",
      "outputs": [
        {
          "internalType": "contract IIFlareSystemCalculator",
          "name": "",
          "type": "address"
        }
      ],
      "stateMutability": "view",
      "type": "function"
    },
    {
      "inputs": [],
      "name": "flareSystemManager",
      "outputs": [
        {
          "internalType": "contract IIFlareSystemManager",
          "name": "",
          "type": "address"
        }
      ],
      "stateMutability": "view",
      "type": "function"
    },
    {
      "inputs": [],
      "name": "getAddressUpdater",
      "outputs": [
        {
          "internalType": "address",
          "name": "_addressUpdater",
          "type": "address"
        }
      ],
      "stateMutability": "view",
      "type": "function"
    },
    {
      "inputs": [],
      "name": "getCurrentRewardEpochId",
      "outputs": [
        {
          "internalType": "uint24",
          "name": "",
          "type": "uint24"
        }
      ],
      "stateMutability": "view",
      "type": "function"
    },
    {
      "inputs": [],
      "name": "getEpochIdsWithClaimableRewards",
      "outputs": [
        {
          "internalType": "uint256",
          "name": "_startEpochId",
          "type": "uint256"
        },
        {
          "internalType": "uint256",
          "name": "_endEpochId",
          "type": "uint256"
        }
      ],
      "stateMutability": "view",
      "type": "function"
    },
    {
      "inputs": [],
      "name": "getExpectedBalance",
      "outputs": [
        {
          "internalType": "uint256",
          "name": "",
          "type": "uint256"
        }
      ],
      "stateMutability": "view",
      "type": "function"
    },
    {
      "inputs": [],
      "name": "getInitialRewardEpochId",
      "outputs": [
        {
          "internalType": "uint256",
          "name": "",
          "type": "uint256"
        }
      ],
      "stateMutability": "view",
      "type": "function"
    },
    {
      "inputs": [],
      "name": "getRewardEpochIdToExpireNext",
      "outputs": [
        {
          "internalType": "uint256",
          "name": "",
          "type": "uint256"
        }
      ],
      "stateMutability": "view",
      "type": "function"
    },
    {
      "inputs": [],
      "name": "getRewardOffersManagerList",
      "outputs": [
        {
          "internalType": "address[]",
          "name": "",
          "type": "address[]"
        }
      ],
      "stateMutability": "view",
      "type": "function"
    },
    {
      "inputs": [
        {
          "internalType": "address",
          "name": "_rewardOwner",
          "type": "address"
        },
        {
          "internalType": "uint24",
          "name": "_rewardEpochId",
          "type": "uint24"
        }
      ],
      "name": "getStateOfRewards",
      "outputs": [
        {
          "components": [
            {
              "internalType": "bytes20",
              "name": "beneficiary",
              "type": "bytes20"
            },
            {
              "internalType": "uint120",
              "name": "amount",
              "type": "uint120"
            },
            {
              "internalType": "enum IRewardManager.ClaimType",
              "name": "claimType",
              "type": "uint8"
            },
            {
              "internalType": "bool",
              "name": "initialised",
              "type": "bool"
            }
          ],
          "internalType": "struct IRewardManager.RewardState[]",
          "name": "_rewardStates",
          "type": "tuple[]"
        }
      ],
      "stateMutability": "view",
      "type": "function"
    },
    {
      "inputs": [],
      "name": "getTokenPoolSupplyData",
      "outputs": [
        {
          "internalType": "uint256",
          "name": "_lockedFundsWei",
          "type": "uint256"
        },
        {
          "internalType": "uint256",
          "name": "_totalInflationAuthorizedWei",
          "type": "uint256"
        },
        {
          "internalType": "uint256",
          "name": "_totalClaimedWei",
          "type": "uint256"
        }
      ],
      "stateMutability": "view",
      "type": "function"
    },
    {
      "inputs": [],
      "name": "getTotals",
      "outputs": [
        {
          "internalType": "uint256",
          "name": "_totalFundsReceivedWei",
          "type": "uint256"
        },
        {
          "internalType": "uint256",
          "name": "_totalClaimedWei",
          "type": "uint256"
        },
        {
          "internalType": "uint256",
          "name": "_totalBurnedWei",
          "type": "uint256"
        },
        {
          "internalType": "uint256",
          "name": "_totalInflationAuthorizedWei",
          "type": "uint256"
        },
        {
          "internalType": "uint256",
          "name": "_totalInflationReceivedWei",
          "type": "uint256"
        }
      ],
      "stateMutability": "view",
      "type": "function"
    },
    {
      "inputs": [
        {
          "internalType": "address",
          "name": "_beneficiary",
          "type": "address"
        },
        {
          "internalType": "uint24",
          "name": "_rewardEpochId",
          "type": "uint24"
        },
        {
          "internalType": "enum IRewardManager.ClaimType",
          "name": "_claimType",
          "type": "uint8"
        }
      ],
      "name": "getUnclaimedRewardState",
      "outputs": [
        {
          "components": [
            {
              "internalType": "bool",
              "name": "initialised",
              "type": "bool"
            },
            {
              "internalType": "uint120",
              "name": "amount",
              "type": "uint120"
            },
            {
              "internalType": "uint128",
              "name": "weight",
              "type": "uint128"
            }
          ],
          "internalType": "struct IRewardManager.UnclaimedRewardState",
          "name": "_state",
          "type": "tuple"
        }
      ],
      "stateMutability": "view",
      "type": "function"
    },
    {
      "inputs": [],
      "name": "governance",
      "outputs": [
        {
          "internalType": "address",
          "name": "",
          "type": "address"
        }
      ],
      "stateMutability": "view",
      "type": "function"
    },
    {
      "inputs": [],
      "name": "governanceSettings",
      "outputs": [
        {
          "internalType": "contract IGovernanceSettings",
          "name": "",
          "type": "address"
        }
      ],
      "stateMutability": "view",
      "type": "function"
    },
    {
      "inputs": [
        {
          "internalType": "contract IGovernanceSettings",
          "name": "_governanceSettings",
          "type": "address"
        },
        {
          "internalType": "address",
          "name": "_initialGovernance",
          "type": "address"
        }
      ],
      "name": "initialise",
      "outputs": [],
      "stateMutability": "nonpayable",
      "type": "function"
    },
    {
      "inputs": [
        {
          "components": [
            {
              "internalType": "bytes32[]",
              "name": "merkleProof",
              "type": "bytes32[]"
            },
            {
              "components": [
                {
                  "internalType": "uint24",
                  "name": "rewardEpochId",
                  "type": "uint24"
                },
                {
                  "internalType": "bytes20",
                  "name": "beneficiary",
                  "type": "bytes20"
                },
                {
                  "internalType": "uint120",
                  "name": "amount",
                  "type": "uint120"
                },
                {
                  "internalType": "enum IRewardManager.ClaimType",
                  "name": "claimType",
                  "type": "uint8"
                }
              ],
              "internalType": "struct IRewardManager.RewardClaim",
              "name": "body",
              "type": "tuple"
            }
          ],
          "internalType": "struct IRewardManager.RewardClaimWithProof[]",
          "name": "_proofs",
          "type": "tuple[]"
        }
      ],
      "name": "initialiseWeightBasedClaims",
      "outputs": [],
      "stateMutability": "nonpayable",
      "type": "function"
    },
    {
      "inputs": [
        {
          "internalType": "address",
          "name": "_address",
          "type": "address"
        }
      ],
      "name": "isExecutor",
      "outputs": [
        {
          "internalType": "bool",
          "name": "",
          "type": "bool"
        }
      ],
      "stateMutability": "view",
      "type": "function"
    },
    {
      "inputs": [],
      "name": "newRewardManager",
      "outputs": [
        {
          "internalType": "address",
          "name": "",
          "type": "address"
        }
      ],
      "stateMutability": "view",
      "type": "function"
    },
    {
      "inputs": [
        {
          "internalType": "address",
          "name": "_rewardOwner",
          "type": "address"
        }
      ],
      "name": "nextClaimableRewardEpochId",
      "outputs": [
        {
          "internalType": "uint256",
          "name": "",
          "type": "uint256"
        }
      ],
      "stateMutability": "view",
      "type": "function"
    },
    {
      "inputs": [],
      "name": "oldRewardManager",
      "outputs": [
        {
          "internalType": "address",
          "name": "",
          "type": "address"
        }
      ],
      "stateMutability": "view",
      "type": "function"
    },
    {
      "inputs": [],
      "name": "pChainStakeMirror",
      "outputs": [
        {
          "internalType": "contract IPChainStakeMirror",
          "name": "",
          "type": "address"
        }
      ],
      "stateMutability": "view",
      "type": "function"
    },
    {
      "inputs": [],
      "name": "pChainStakeMirrorEnabled",
      "outputs": [
        {
          "internalType": "bool",
          "name": "",
          "type": "bool"
        }
      ],
      "stateMutability": "view",
      "type": "function"
    },
    {
      "inputs": [],
      "name": "productionMode",
      "outputs": [
        {
          "internalType": "bool",
          "name": "",
          "type": "bool"
        }
      ],
      "stateMutability": "view",
      "type": "function"
    },
    {
      "inputs": [
        {
          "internalType": "uint24",
          "name": "_rewardEpochId",
          "type": "uint24"
        },
        {
          "internalType": "bool",
          "name": "_inflation",
          "type": "bool"
        }
      ],
      "name": "receiveRewards",
      "outputs": [],
      "stateMutability": "payable",
      "type": "function"
    },
    {
      "inputs": [],
      "name": "setInitialRewardData",
      "outputs": [],
      "stateMutability": "nonpayable",
      "type": "function"
    },
    {
      "inputs": [
        {
          "internalType": "address",
          "name": "_newRewardManager",
          "type": "address"
        }
      ],
      "name": "setNewRewardManager",
      "outputs": [],
      "stateMutability": "nonpayable",
      "type": "function"
    },
    {
      "inputs": [
        {
          "internalType": "address",
          "name": "_oldRewardManager",
          "type": "address"
        }
      ],
      "name": "setOldRewardManager",
      "outputs": [],
      "stateMutability": "nonpayable",
      "type": "function"
    },
    {
      "inputs": [
        {
          "internalType": "address[]",
          "name": "_rewardOffersManagerList",
          "type": "address[]"
        }
      ],
      "name": "setRewardOffersManagerList",
      "outputs": [],
      "stateMutability": "nonpayable",
      "type": "function"
    },
    {
      "inputs": [],
      "name": "switchToProductionMode",
      "outputs": [],
      "stateMutability": "nonpayable",
      "type": "function"
    },
    {
      "inputs": [
        {
          "internalType": "bytes4",
          "name": "",
          "type": "bytes4"
        }
      ],
      "name": "timelockedCalls",
      "outputs": [
        {
          "internalType": "uint256",
          "name": "allowedAfterTimestamp",
          "type": "uint256"
        },
        {
          "internalType": "bytes",
          "name": "encodedCall",
          "type": "bytes"
        }
      ],
      "stateMutability": "view",
      "type": "function"
    },
    {
      "inputs": [
        {
          "internalType": "bytes32[]",
          "name": "_contractNameHashes",
          "type": "bytes32[]"
        },
        {
          "internalType": "address[]",
          "name": "_contractAddresses",
          "type": "address[]"
        }
      ],
      "name": "updateContractAddresses",
      "outputs": [],
      "stateMutability": "nonpayable",
      "type": "function"
    },
    {
      "inputs": [],
      "name": "wNat",
      "outputs": [
        {
          "internalType": "contract IWNat",
          "name": "",
          "type": "address"
        }
      ],
      "stateMutability": "view",
      "type": "function"
    }
  ],
  "bytecode": "0x60806040523480156200001157600080fd5b506040516200612b3803806200612b833981016040819052620000349162000221565b8083836200004382826200008f565b506200006f9050817f714f205b2abd25bef1d06a1af944e38c113fe6160375c4e1d6d5cf28848e771955565b505060016003555050600a805462ffffff191662ffffff17905562000275565b600054600160a01b900460ff1615620000ef5760405162461bcd60e51b815260206004820152601460248201527f696e697469616c6973656420213d2066616c736500000000000000000000000060448201526064015b60405180910390fd5b6001600160a01b038216620001475760405162461bcd60e51b815260206004820152601860248201527f676f7665726e616e63652073657474696e6773207a65726f00000000000000006044820152606401620000e6565b6001600160a01b038116620001925760405162461bcd60e51b815260206004820152601060248201526f5f676f7665726e616e6365207a65726f60801b6044820152606401620000e6565b600080546001600160a01b038481166001600160a81b031990921691909117600160a01b17909155600180549183166001600160a01b0319909216821790556040519081527f9789733827840833afc031fb2ef9ab6894271f77bad2085687cf4ae5c7bee4db9060200160405180910390a15050565b6001600160a01b03811681146200021e57600080fd5b50565b6000806000606084860312156200023757600080fd5b8351620002448162000208565b6020850151909350620002578162000208565b60408501519092506200026a8162000208565b809150509250925092565b615ea680620002856000396000f3fe6080604052600436106102c95760003560e01c80638e33aba511610175578063c4db9619116100dc578063e7dea8e611610095578063f3eb821f1161006f578063f3eb821f1461090a578063f5a983831461092a578063fbde354d1461093f578063fd95b2e01461095f57600080fd5b8063e7dea8e6146108b5578063ea28edad146108d5578063ef88bf13146108ea57600080fd5b8063c4db9619146107f2578063d0fd0a2c14610812578063d6c1dbee1461083f578063debfda301461085f578063deea13e71461087f578063e17f212e1461089457600080fd5b8063a71de6761161012e578063a71de67614610747578063af04cd3b14610768578063b006b4e31461077d578063b00c0b7614610792578063b753801d146107b2578063bb25d5df146107d257600080fd5b80638e33aba51461066257806395123887146106825780639a3410bc146106a25780639edbf007146106be5780639ee5de33146106de578063a02e86e51461073457600080fd5b80635267a15d1161023457806370562697116101ed5780637bf756c9116101c75780637bf756c9146105b357806380c3d267146105d457806384e10a90146105fe57806387ad4ecf1461064257600080fd5b8063705626971461053a57806374e6310e146105635780637a17a34d1461059157600080fd5b80635267a15d146104715780635aa6e675146104a55780635ff27079146104ba57806362354e03146104da57806362d9c89a146104fa57806367fc40291461051a57600080fd5b80632dafdbbf116102865780632dafdbbf1461039157806330c40bc9146103c157806336300be2146103e45780633ce7522a1461041c578063470ce0871461043c57806351b42b001461045c57600080fd5b806302fb0c5e146102ce578063064be532146103045780630f15f4c01461032557806315ca06371461033c57806315f253fb1461035c5780631de560981461037c575b600080fd5b3480156102da57600080fd5b506018546102ef90600160a81b900460ff1681565b60405190151581526020015b60405180910390f35b34801561031057600080fd5b506018546102ef90600160a01b900460ff1681565b34801561033157600080fd5b5061033a610974565b005b34801561034857600080fd5b5061033a610357366004614f55565b610991565b34801561036857600080fd5b5061033a610377366004614fc3565b6109ad565b34801561038857600080fd5b5061033a610c75565b34801561039d57600080fd5b506103a6610df7565b604080519384526020840192909252908201526060016102fb565b3480156103cd57600080fd5b506103d6610e2a565b6040519081526020016102fb565b3480156103f057600080fd5b50601954610404906001600160a01b031681565b6040516001600160a01b0390911681526020016102fb565b34801561042857600080fd5b5061033a610437366004615047565b610e39565b34801561044857600080fd5b5061033a61045736600461509d565b610e54565b34801561046857600080fd5b5061033a610f1c565b34801561047d57600080fd5b507f714f205b2abd25bef1d06a1af944e38c113fe6160375c4e1d6d5cf28848e771954610404565b3480156104b157600080fd5b50610404610f33565b3480156104c657600080fd5b5061033a6104d53660046150ba565b610fca565b3480156104e657600080fd5b50600054610404906001600160a01b031681565b34801561050657600080fd5b50601654610404906001600160a01b031681565b34801561052657600080fd5b5061033a6105353660046150ba565b61124a565b34801561054657600080fd5b5061054f61132b565b60405162ffffff90911681526020016102fb565b34801561056f57600080fd5b5061058361057e3660046150ba565b611335565b6040516102fb929190615134565b34801561059d57600080fd5b506105a66113da565b6040516102fb9190615155565b3480156105bf57600080fd5b506016546102ef90600160a01b900460ff1681565b3480156105e057600080fd5b506105e961143f565b604080519283526020830191909152016102fb565b34801561060a57600080fd5b50601054600e54600f54601254601154604080519586526020860194909452928401919091526060830152608082015260a0016102fb565b34801561064e57600080fd5b50601554610404906001600160a01b031681565b34801561066e57600080fd5b506103d661067d3660046151b0565b6114c4565b34801561068e57600080fd5b506103d661069d36600461509d565b611624565b3480156106ae57600080fd5b50600a5461054f9062ffffff1681565b3480156106ca57600080fd5b50601754610404906001600160a01b031681565b3480156106ea57600080fd5b506106fe6106f936600461524c565b611647565b604080518251151581526020808401516001600160781b031690820152918101516001600160801b0316908201526060016102fb565b61033a610742366004615293565b611704565b34801561075357600080fd5b50600a546301000000900462ffffff166103d6565b34801561077457600080fd5b506103d6611810565b34801561078957600080fd5b5061033a61181a565b34801561079e57600080fd5b5061033a6107ad3660046153a9565b61185e565b3480156107be57600080fd5b5061033a6107cd366004615047565b611939565b3480156107de57600080fd5b50601454610404906001600160a01b031681565b3480156107fe57600080fd5b50601354610404906001600160a01b031681565b34801561081e57600080fd5b5061083261082d366004615461565b6119b3565b6040516102fb91906154c7565b34801561084b57600080fd5b5061033a61085a366004614f55565b6121a0565b34801561086b57600080fd5b506102ef61087a36600461509d565b61245b565b34801561088b57600080fd5b506103d66124e4565b3480156108a057600080fd5b506000546102ef90600160a81b900460ff1681565b3480156108c157600080fd5b50601854610404906001600160a01b031681565b3480156108e157600080fd5b5061033a612552565b3480156108f657600080fd5b5061033a610905366004615549565b6125ed565b34801561091657600080fd5b5061033a61092536600461509d565b612753565b34801561093657600080fd5b5061033a61280d565b34801561094b57600080fd5b50601a54610404906001600160a01b031681565b34801561096b57600080fd5b5061033a6128d3565b61097c612917565b6018805460ff60a81b1916600160a81b179055565b610999612971565b806012546109a7919061558d565b60125550565b6109b56129cf565b6109bd612a28565b6109c5612a90565b60005b84811015610a11576109ff8686838181106109e5576109e56155a0565b90506020020160208101906109fa919061509d565b612aba565b80610a09816155b6565b9150506109c8565b506000610a1c612b01565b9050610a288482612b6f565b610a4d5760405162461bcd60e51b8152600401610a44906155cf565b60405180910390fd5b60135460405163712441d960e11b815260009182916001600160a01b039091169063e24883b290610a869033908c908c906004016155f6565b600060405180830381865afa158015610aa3573d6000803e3d6000fd5b505050506040513d6000823e601f3d908101601f19168201604052610acb91908101906156b6565b915091506000610ad9612bb4565b9050610ae9600080888885612beb565b5060009050805b89811015610c295760008b8b83818110610b0c57610b0c6155a0565b9050602002016020810190610b21919061509d565b90506000868381518110610b3757610b376155a0565b602002602001015190506000610b5183838e896000612d9c565b6001600160781b03169050816001600160a01b0316836001600160a01b031614610b9957610b8382838e896001612d9c565b610b96906001600160781b03168261558d565b90505b86811015610be95760405162461bcd60e51b815260206004820152601860248201527f636c61696d656420616d6f756e7420746f6f20736d616c6c00000000000000006044820152606401610a44565b610bf3818661558d565b9450610bff87826156fc565b90508015610c1357610c138282600161307a565b5050508080610c21906155b6565b915050610af0565b5080600e6000828254610c3c919061558d565b90915550610c57905033610c508b8661570f565b600061307a565b5050505050610c666001600355565b610c6e61317b565b5050505050565b600054600160b01b900460ff1680610c975750600054600160a81b900460ff16155b15610dea57610ca46131c2565b601854600160a81b900460ff16158015610cca5750600a54600160301b900462ffffff16155b8015610ce25750600a546301000000900462ffffff16155b610d225760405162461bcd60e51b81526020600482015260116024820152706e6f7420696e697469616c20737461746560781b6044820152606401610a44565b610d2a612b01565b610d35906001615726565b600a60066101000a81548162ffffff021916908362ffffff160217905550601460009054906101000a90046001600160a01b03166001600160a01b031663aec84ab66040518163ffffffff1660e01b8152600401602060405180830381865afa158015610da6573d6000803e3d6000fd5b505050506040513d601f19601f82011682018060405250810190610dca9190615749565b600a60036101000a81548162ffffff021916908362ffffff160217905550565b610df56000366131fa565b565b6000806000601154601054610e0c91906156fc565b92506012549150600f54600e54610e23919061558d565b9050909192565b6000610e34613346565b905090565b610e4e6000808484610e49612bb4565b612beb565b50505050565b600054600160b01b900460ff1680610e765750600054600160a81b900460ff16155b15610f0e57610e836131c2565b601a546001600160a01b031615610eca5760405162461bcd60e51b815260206004820152600b60248201526a185b1c9958591e481cd95d60aa1b6044820152606401610a44565b6001600160a01b038116610ef05760405162461bcd60e51b8152600401610a4490615766565b601a80546001600160a01b0319166001600160a01b03831617905550565b610f196000366131fa565b50565b610f24612917565b6018805460ff60a81b19169055565b60008054600160a81b900460ff16610f5557506001546001600160a01b031690565b60008054906101000a90046001600160a01b03166001600160a01b031663732524946040518163ffffffff1660e01b8152600401602060405180830381865afa158015610fa6573d6000803e3d6000fd5b505050506040513d601f19601f82011682018060405250810190610e34919061578c565b610fd33361245b565b61100f5760405162461bcd60e51b815260206004820152600d60248201526c37b7363c9032bc32b1baba37b960991b6044820152606401610a44565b6001600160e01b03198116600090815260026020526040812080549091036110795760405162461bcd60e51b815260206004820152601a60248201527f74696d656c6f636b3a20696e76616c69642073656c6563746f720000000000006044820152606401610a44565b80544210156110ca5760405162461bcd60e51b815260206004820152601960248201527f74696d656c6f636b3a206e6f7420616c6c6f77656420796574000000000000006044820152606401610a44565b60008160010180546110db906157a9565b80601f0160208091040260200160405190810160405280929190818152602001828054611107906157a9565b80156111545780601f1061112957610100808354040283529160200191611154565b820191906000526020600020905b81548152906001019060200180831161113757829003601f168201915b505050506001600160e01b03198516600090815260026020526040812081815592935090506111866001830182614f0b565b50506000805460ff60b01b1916600160b01b17815560405130906111ab9084906157e3565b6000604051808303816000865af19150503d80600081146111e8576040519150601f19603f3d011682016040523d82523d6000602084013e6111ed565b606091505b50506000805460ff60b01b19169055604080516001600160e01b0319871681524260208201529192507fa7326b57fc9cfe267aaea5e7f0b01757154d265620a0585819416ee9ddd2c438910160405180910390a1610e4e81613363565b611252612917565b6001600160e01b0319811660009081526002602052604081205490036112ba5760405162461bcd60e51b815260206004820152601a60248201527f74696d656c6f636b3a20696e76616c69642073656c6563746f720000000000006044820152606401610a44565b604080516001600160e01b0319831681524260208201527f7735b2391c38a81419c513e30ca578db7158eadd7101511b23e221c654d19cf8910160405180910390a16001600160e01b031981166000908152600260205260408120818155906113266001830182614f0b565b505050565b6000610e34612b01565b60026020526000908152604090208054600182018054919291611357906157a9565b80601f0160208091040260200160405190810160405280929190818152602001828054611383906157a9565b80156113d05780601f106113a5576101008083540402835291602001916113d0565b820191906000526020600020905b8154815290600101906020018083116113b357829003601f168201915b5050505050905082565b6060601b60000180548060200260200160405190810160405280929190818152602001828054801561143557602002820191906000526020600020905b81546001600160a01b03168152600190910190602001808311611417575b5050505050905090565b60008061144a612bb4565b62ffffff169150600061145b612b01565b62ffffff169050600081116114b25760405162461bcd60e51b815260206004820152601f60248201527f6e6f2065706f6368207769746820636c61696d61626c652072657761726473006044820152606401610a44565b6114bd6001826156fc565b9150509091565b60006114ce6129cf565b6114d6612a28565b6114de612a90565b86866114ea8282613380565b6114f388612aba565b60006114fd612b01565b90506115098882612b6f565b6115255760405162461bcd60e51b8152600401610a44906155cf565b600061152f612bb4565b905060006115408c8c8a8a86612beb565b6001600160781b039091169650905061155d8c8c8c856000612d9c565b611570906001600160781b03168761558d565b95506001600160781b038116156115da57806001600160781b0316600f600082825461159c919061558d565b909155505060405161dead906001600160781b03831680156108fc02916000818181858888f193505050501580156115d8573d6000803e3d6000fd5b505b85156116035785600e60008282546115f2919061558d565b9091555061160390508b878b61307a565b50505050506116126001600355565b61161a61317b565b9695505050505050565b600061163c82611632612bb4565b62ffffff16613403565b62ffffff1692915050565b604080516060810182526000808252602080830182905282840182905262ffffff86168252600b905291822090918360048111156116875761168761548f565b60048111156116985761169861548f565b8152602080820192909252604090810160009081206001600160a01b038816825283528190208151606081018352905460ff81161515825261010081046001600160781b031693820193909352600160801b9092046001600160801b03169082015290505b9392505050565b61170c612971565b611714612a28565b61171c612b01565b62ffffff168262ffffff1610156117755760405162461bcd60e51b815260206004820152601b60248201527f7265776172642065706f636820696420696e20746865207061737400000000006044820152606401610a44565b61177e3461342f565b62ffffff8316600090815260066020526040812080549091906117ab9084906001600160781b03166157ff565b92506101000a8154816001600160781b0302191690836001600160781b0316021790555034601060008282546117e1919061558d565b909155505080156118045734601160008282546117fe919061558d565b90915550505b61180c61317b565b5050565b6000610e34613467565b600054600160b01b900460ff168061183c5750600054600160a81b900460ff16155b15610dea576118496131c2565b6016805460ff60a01b1916600160a01b179055565b7f714f205b2abd25bef1d06a1af944e38c113fe6160375c4e1d6d5cf28848e7719546001600160a01b0316336001600160a01b0316146118d75760405162461bcd60e51b815260206004820152601460248201527337b7363c9030b2323932b9b9903ab83230ba32b960611b6044820152606401610a44565b61192f61190b83836040518060400160405280600e81526020016d20b2323932b9b9aab83230ba32b960911b815250613486565b7f714f205b2abd25bef1d06a1af944e38c113fe6160375c4e1d6d5cf28848e771955565b61180c8282613542565b600054600160b01b900460ff168061195b5750600054600160a81b900460ff16155b156119a8576119686131c2565b61180c828280806020026020016040519081016040528093929190818152602001838360200280828437600092019190915250601b939250506137629050565b61180c6000366131fa565b606060006119bf612b01565b90506119cb8382612b6f565b6119e75760405162461bcd60e51b8152600401610a44906155cf565b6119f384611632612bb4565b62ffffff168362ffffff161015611a3e5760405162461bcd60e51b815260206004820152600f60248201526e185b1c9958591e4818db185a5b5959608a1b6044820152606401610a44565b60145460405163388a4c3d60e01b815262ffffff851660048201526000916001600160a01b03169063388a4c3d90602401602060405180830381865afa158015611a8c573d6000803e3d6000fd5b505050506040513d601f19601f82011682018060405250810190611ab0919061581f565b905080600003611b6d57601454604051633238037160e11b815262ffffff861660048201526000916001600160a01b03169063647006e290602401602060405180830381865afa158015611b08573d6000803e3d6000fd5b505050506040513d601f19601f82011682018060405250810190611b2c919061581f565b03611b6d5760405162461bcd60e51b8152602060048201526011602482015270726577617264732068617368207a65726f60781b6044820152606401610a44565b6000611b7885613775565b90506000611bc460405180610100016040528060608152602001606081526020016060815260200160608152602001600081526020016060815260200160608152602001600081525090565b6016546001600160a01b031615611c62576016546040516325f48f9960e11b81526001600160a01b0390911690634be91f3290611c07908b908790600401615838565b600060405180830381865afa158015611c24573d6000803e3d6000fd5b505050506040513d6000823e601f3d908101601f19168201604052611c4c91908101906158c2565b602083015280825251611c5f908361558d565b91505b6018546001600160a01b031615611d04576018546040516325f48f9960e11b81526001600160a01b0390911690634be91f3290611ca5908b908790600401615838565b600060405180830381865afa158015611cc2573d6000803e3d6000fd5b505050506040513d6000823e601f3d908101601f19168201604052611cea919081019061597c565b60608301526040820181905251611d01908361558d565b91505b60175460405163277166bf60e11b81526001600160a01b0390911690634ee2cd7e90611d36908b908790600401615838565b602060405180830381865afa158015611d53573d6000803e3d6000fd5b505050506040513d601f19601f82011682018060405250810190611d77919061581f565b6080820181905215611efd5760175460405163ed475a7960e01b81526001600160a01b039091169063ed475a7990611db5908b908790600401615838565b600060405180830381865afa158015611dd2573d6000803e3d6000fd5b505050506040513d6000823e601f3d908101601f19168201604052611dfa91908101906159c8565b505060c083015260a0820181905251611e13908361558d565b91506000805b8260c0015151811015611e63578260c001518181518110611e3c57611e3c6155a0565b602002602001015182611e4f919061558d565b915080611e5b816155b6565b915050611e19565b50612710811015611efb57601754604051634181ad4160e11b81526001600160a01b03909116906383035a8290611ea0908c908890600401615838565b602060405180830381865afa158015611ebd573d6000803e3d6000fd5b505050506040513d601f19601f82011682018060405250810190611ee1919061581f565b60e0830181905215611efb57611ef860018461558d565b92505b505b62ffffff87166000908152600d6020526040902054841115826001600160401b03811115611f2d57611f2d6152cc565b604051908082528060200260200182016040528015611f7f57816020015b604080516080810182526000808252602080830182905292820181905260608201528252600019909201910181611f4b5790505b5096506000808360e001511115611fcb57611fa28960028c8660e0015186613814565b8882611fad816155b6565b935081518110611fbf57611fbf6155a0565b60200260200101819052505b60005b8360a00151518110156120785761203d8a60028660a001518481518110611ff757611ff76155a0565b60200260200101516120378860c001518681518110612018576120186155a0565b60200260200101516127108a608001516139159092919063ffffffff16565b87613814565b8983612048816155b6565b94508151811061205a5761205a6155a0565b60200260200101819052508080612070906155b6565b915050611fce565b5060005b83515181101561210c576120d18a6003866000015184815181106120a2576120a26155a0565b602002602001015160601c876020015185815181106120c3576120c36155a0565b602002602001015187613814565b89836120dc816155b6565b9450815181106120ee576120ee6155a0565b60200260200101819052508080612104906155b6565b91505061207c565b5060005b836040015151811015612192576121578a600486604001518481518110612139576121396155a0565b6020026020010151876060015185815181106120c3576120c36155a0565b8983612162816155b6565b945081518110612174576121746155a0565b6020026020010181905250808061218a906155b6565b915050612110565b505050505050505092915050565b6014546001600160a01b03163314806121c35750601a546001600160a01b031633145b6121ff5760405162461bcd60e51b815260206004820152600d60248201526c6f6e6c79206d616e616765727360981b6044820152606401610a44565b600a546301000000900462ffffff16811461224d5760405162461bcd60e51b815260206004820152600e60248201526d1ddc9bdb99c8195c1bd8da081a5960921b6044820152606401610a44565b6019546001600160a01b0316158015906122845750600a5461227c90600160301b900462ffffff166032615726565b62ffffff1681105b156122e857601954604051636b60edf760e11b8152600481018390526001600160a01b039091169063d6c1dbee90602401600060405180830381600087803b1580156122cf57600080fd5b505af11580156122e3573d6000803e3d6000fd5b505050505b6122fb6122f682600161558d565b613a3b565b600a805462ffffff9290921663010000000265ffffff0000001990921691909117905560405181907f5d05c64f281304391697cf987812e1a736413a062a9bdf39af4102209eb6fa5890600090a26000818152600960209081526040808320546008909252822054612379916001600160781b0390811691166157ff565b60008381526006602052604090205461239b91906001600160781b0316615a3b565b90506001600160781b0381161561180c57806001600160781b0316600f60008282546123c7919061558d565b9091555050600082815260096020526040812080548392906123f39084906001600160781b03166157ff565b92506101000a8154816001600160781b0302191690836001600160781b0316021790555061dead6001600160a01b03166108fc826001600160781b03169081150290604051600060405180830381858888f19350505050158015611326573d6000803e3d6000fd5b60008054600160a01b900460ff1680156124de5750600054604051630debfda360e41b81526001600160a01b0384811660048301529091169063debfda3090602401602060405180830381865afa1580156124ba573d6000803e3d6000fd5b505050506040513d601f19601f820116820180604052508101906124de9190615a5b565b92915050565b6017546040805163deea13e760e01b815290516000926001600160a01b03169163deea13e79160048083019260209291908290030181865afa15801561252e573d6000803e3d6000fd5b505050506040513d601f19601f82011682018060405250810190610e34919061581f565b61255a612917565b600a5462ffffff908116146125a35760405162461bcd60e51b815260206004820152600f60248201526e185b1c9958591e48195b98589b1959608a1b6044820152606401610a44565b6125ab612b01565b600a805462ffffff191662ffffff9290921691821790556040517f1cfb844c44f9325fc9ad6cc6191a4a24b0415137fe300b6c9071523a253f7a0890600090a2565b600054600160a01b900460ff161561263e5760405162461bcd60e51b8152602060048201526014602482015273696e697469616c6973656420213d2066616c736560601b6044820152606401610a44565b6001600160a01b0382166126945760405162461bcd60e51b815260206004820152601860248201527f676f7665726e616e63652073657474696e6773207a65726f00000000000000006044820152606401610a44565b6001600160a01b0381166126dd5760405162461bcd60e51b815260206004820152601060248201526f5f676f7665726e616e6365207a65726f60801b6044820152606401610a44565b600080546001600160a01b038481166001600160a81b031990921691909117600160a01b17909155600180549183166001600160a01b0319909216821790556040519081527f9789733827840833afc031fb2ef9ab6894271f77bad2085687cf4ae5c7bee4db9060200160405180910390a15050565b600054600160b01b900460ff16806127755750600054600160a81b900460ff16155b15610f0e576127826131c2565b6019546001600160a01b0316156127c95760405162461bcd60e51b815260206004820152600b60248201526a185b1c9958591e481cd95d60aa1b6044820152606401610a44565b6001600160a01b0381166127ef5760405162461bcd60e51b8152600401610a4490615766565b601980546001600160a01b0319166001600160a01b03831617905550565b612815612917565b600054600160a81b900460ff161561286f5760405162461bcd60e51b815260206004820152601a60248201527f616c726561647920696e2070726f64756374696f6e206d6f64650000000000006044820152606401610a44565b600180546001600160a01b031916905560008054600160a81b60ff60a81b198216179091556040516001600160a01b0390911681527f83af113638b5422f9e977cebc0aaf0eaf2188eb9a8baae7f9d46c42b33a1560c9060200160405180910390a1565b600054600160b01b900460ff16806128f55750600054600160a81b900460ff16155b15610dea576129026131c2565b6018805460ff60a01b1916600160a01b179055565b61291f610f33565b6001600160a01b0316336001600160a01b031614610df55760405162461bcd60e51b815260206004820152600f60248201526e6f6e6c7920676f7665726e616e636560881b6044820152606401610a44565b336000908152601c60205260408120549003610df55760405162461bcd60e51b815260206004820152601a60248201527f6f6e6c7920726577617264206f6666657273206d616e616765720000000000006044820152606401610a44565b601854600160a81b900460ff16610df55760405162461bcd60e51b815260206004820152601a60248201527f726577617264206d616e616765722064656163746976617465640000000000006044820152606401610a44565b600034612a33613467565b612a3d919061558d565b90504781811115612a805761dead6108fc612a5884846156fc565b6040518115909202916000818181858888f19350505050158015611326573d6000803e3d6000fd5b8181101561180c5761180c615a78565b600260035403612ab357604051633ee5aeb560e01b815260040160405180910390fd5b6002600355565b6001600160a01b038116610f195760405162461bcd60e51b815260206004820152600e60248201526d726563697069656e74207a65726f60901b6044820152606401610a44565b60145460408051637056269760e01b815290516000926001600160a01b03169163705626979160048083019260209291908290030181865afa158015612b4b573d6000803e3d6000fd5b505050506040513d601f19601f82011682018060405250810190610e349190615749565b600a5460009062ffffff90811690841610801590612b9f5750600a5462ffffff6301000000909104811690841610155b80156116fd57505062ffffff90811691161090565b600a54600090610e34906122f69062ffffff16612be6612bd2613346565b600a546301000000900462ffffff16613a6b565b613a6b565b60008060005b84811015612d91578362ffffff16868683818110612c1157612c116155a0565b9050602002810190612c239190615a8e565b612c34906040810190602001615aa4565b62ffffff161015612c7e5760405162461bcd60e51b81526020600482015260146024820152731c995dd85c9908195c1bd8da08195e1c1a5c995960621b6044820152606401610a44565b6000868683818110612c9257612c926155a0565b9050602002810190612ca49190615a8e565b612cb59060a0810190608001615ac1565b90506000816004811115612ccb57612ccb61548f565b1480612ce857506001816004811115612ce657612ce661548f565b145b15612d52576001600160a01b03891615612d4d57600080612d2d8b8b8b8b88818110612d1657612d166155a0565b9050602002810190612d289190615a8e565b613a81565b9092509050612d3c82876157ff565b9550612d4881866157ff565b945050505b612d7e565b612d7e878784818110612d6757612d676155a0565b9050602002810190612d799190615a8e565b613f18565b5080612d89816155b6565b915050612bf1565b509550959350505050565b600080612dae878562ffffff16613403565b9050805b8562ffffff168162ffffff16116130025760145460405163388a4c3d60e01b815262ffffff831660048201526000916001600160a01b03169063388a4c3d90602401602060405180830381865afa158015612e11573d6000803e3d6000fd5b505050506040513d601f19601f82011682018060405250810190612e35919061581f565b905080600003612ef257601454604051633238037160e11b815262ffffff841660048201526000916001600160a01b03169063647006e290602401602060405180830381865afa158015612e8d573d6000803e3d6000fd5b505050506040513d601f19601f82011682018060405250810190612eb1919061581f565b03612ef25760405162461bcd60e51b8152602060048201526011602482015270726577617264732068617368207a65726f60781b6044820152606401610a44565b62ffffff82166000908152600d602052604081205482111590612f1484613775565b90506000612f258c8c8785876141a3565b612f2f90826157ff565b905087612f8c576016546001600160a01b031615612f6157612f548c8c878587614587565b612f5e90826157ff565b90505b6018546001600160a01b031615612f8c57612f7f8c8c87858761475a565b612f8990826157ff565b90505b62ffffff851660009081526008602052604081208054839290612fb99084906001600160781b03166157ff565b92506101000a8154816001600160781b0302191690836001600160781b031602179055508087612fe991906157ff565b9650505050508080612ffa90615adc565b915050612db2565b5061300e856001615726565b6001600160a01b03881660009081526004602052604090205462ffffff9182169116101561307057613041856001615726565b6001600160a01b0388166000908152600460205260409020805462ffffff191662ffffff929092169190911790555b5095945050505050565b80156130e65760175460405163b760faf960e01b81526001600160a01b0385811660048301529091169063b760faf99084906024016000604051808303818588803b1580156130c857600080fd5b505af11580156130dc573d6000803e3d6000fd5b5050505050505050565b6000836001600160a01b03168360405160006040518083038185875af1925050503d8060008114613133576040519150601f19603f3d011682016040523d82523d6000602084013e613138565b606091505b5050905080610e4e5760405162461bcd60e51b815260206004820152600f60248201526e1d1c985b9cd9995c8819985a5b1959608a1b6044820152606401610a44565b613183613467565b4714610df55760405162461bcd60e51b815260206004820152600e60248201526d6f7574206f662062616c616e636560901b6044820152606401610a44565b600054600160b01b900460ff16156131f2573330146131e3576131e3615a78565b6000805460ff60b01b19169055565b610df5612917565b613202612917565b6000805460408051636221a54b60e01b81529051853593926001600160a01b031691636221a54b9160048083019260209291908290030181865afa15801561324e573d6000803e3d6000fd5b505050506040513d601f19601f82011682018060405250810190613272919061581f565b90506000613280824261558d565b9050604051806040016040528082815260200186868080601f01602080910402602001604051908101604052809392919081815260200183838082843760009201829052509390945250506001600160e01b031986168152600260209081526040909120835181559083015190915060018201906132fe9082615b44565b509050507fed948300a3694aa01d4a6b258bfd664350193d770c0b51f8387277f6d83ea3b6838287876040516133379493929190615c03565b60405180910390a15050505050565b600a546000906124de90600160301b900462ffffff16600161490e565b3d604051818101604052816000823e821561337c578181f35b8181fd5b6001600160a01b0382163303613394575050565b60135460405163ce2caa5760e01b81523360048201526001600160a01b03848116602483015283811660448301529091169063ce2caa579060640160006040518083038186803b1580156133e757600080fd5b505afa1580156133fb573d6000803e3d6000fd5b505050505050565b6001600160a01b0382166000908152600460205260408120546116fd906122f69062ffffff1684613a6b565b60006001600160781b03821115613463576040516306dfcc6560e41b81526078600482015260248101839052604401610a44565b5090565b6000600f54600e5460105461347c91906156fc565b610e3491906156fc565b6000808260405160200161349a9190615c49565b6040516020818303038152906040528051906020012090506000805b8651811015613512578681815181106134d1576134d16155a0565b60200260200101518303613500578581815181106134f1576134f16155a0565b60200260200101519150613512565b8061350a816155b6565b9150506134b6565b506001600160a01b0381166135395760405162461bcd60e51b8152600401610a4490615766565b95945050505050565b61357682826040518060400160405280601181526020017021b630b4b6a9b2ba3ab826b0b730b3b2b960791b815250613486565b601360006101000a8154816001600160a01b0302191690836001600160a01b031602179055506135d1828260405180604001604052806012815260200171233630b932a9bcb9ba32b6a6b0b730b3b2b960711b815250613486565b601460006101000a8154816001600160a01b0302191690836001600160a01b0316021790555061362f828260405180604001604052806015815260200174233630b932a9bcb9ba32b6a1b0b631bab630ba37b960591b815250613486565b601580546001600160a01b0319166001600160a01b0392909216919091179055601654600160a01b900460ff16156136b6576136958282604051806040016040528060118152602001702821b430b4b729ba30b5b2a6b4b93937b960791b815250613486565b601680546001600160a01b0319166001600160a01b03929092169190911790555b601854600160a01b900460ff1615613717576136f682826040518060400160405280600b81526020016a43436861696e5374616b6560a81b815250613486565b601880546001600160a01b0319166001600160a01b03929092169190911790555b61373e82826040518060400160405280600481526020016315d3985d60e21b815250613486565b601780546001600160a01b0319166001600160a01b03929092169190911790555050565b61376b82614934565b61180c82826149bf565b62ffffff81166000908152600560205260408120549081900361380f57601454604051636131910b60e11b815262ffffff841660048201526001600160a01b039091169063c263221690602401602060405180830381865afa1580156137df573d6000803e3d6000fd5b505050506040513d601f19601f820116820180604052508101906138039190615c5c565b6001600160401b031690505b919050565b604080516080810182526000602082018190529181018281526060808301939093529185901b6001600160601b0319168152908560048111156138595761385961548f565b9081600481111561386c5761386c61548f565b90525062ffffff86166000908152600b60205260408120818760048111156138965761389661548f565b60048111156138a7576138a761548f565b81526020019081526020016000206000866001600160a01b03166001600160a01b03168152602001908152602001600020905082806138e75750805460ff165b1580156060840152613070576138fd8185614a00565b6001600160781b031660208301525095945050505050565b60008082116139595760405162461bcd60e51b815260206004820152601060248201526f4469766973696f6e206279207a65726f60801b6044820152606401610a44565b83600003613969575060006116fd565b8383028385828161397c5761397c615c85565b040361399a5782818161399157613991615c85565b049150506116fd565b5060006139a78386615c9b565b905060006139b58487615caf565b905060006139c38587615c9b565b905060006139d18688615caf565b9050856139de828561570f565b6139e89190615c9b565b6139f2838561570f565b6139fc838761570f565b88613a07868961570f565b613a11919061570f565b613a1b919061558d565b613a25919061558d565b613a2f919061558d565b98975050505050505050565b600062ffffff821115613463576040516306dfcc6560e41b81526018600482015260248101839052604401610a44565b6000818311613a7a57816116fd565b5090919050565b600080602083016001600160a01b038616613aa26060860160408701615cc3565b60601c14613ae65760405162461bcd60e51b815260206004820152601160248201527077726f6e672062656e656669636961727960781b6044820152606401610a44565b600081604051602001613af99190615cf7565b60408051601f1981840301815291905280516020918201209150600c90600090613b2590850185615aa4565b62ffffff1681526020808201929092526040908101600090812084825290925290205460ff16613f0e576014546000906001600160a01b031663647006e2613b706020860186615aa4565b6040516001600160e01b031960e084901b16815262ffffff9091166004820152602401602060405180830381865afa158015613bb0573d6000803e3d6000fd5b505050506040513d601f19601f82011682018060405250810190613bd4919061581f565b9050613bee8183613be58980615d5d565b90929091614a7c565b613c315760405162461bcd60e51b81526020600482015260146024820152731b595c9adb19481c1c9bdbd9881a5b9d985b1a5960621b6044820152606401610a44565b613c56613c416020850185615aa4565b613c516060860160408701615da6565b614a94565b94506001613c6a6080850160608601615ac1565b6004811115613c7b57613c7b61548f565b03613e07576015546000906001600160a01b0316639350f57c613ca16020870187615aa4565b6040516001600160e01b031960e084901b16815262ffffff90911660048201526001600160a01b038c166024820152604401602060405180830381865afa158015613cf0573d6000803e3d6000fd5b505050506040513d601f19601f82011682018060405250810190613d14919061581f565b90508015613e0557613d4d613d48613d396001600160781b03891684620f4240613915565b886001600160781b0316614b4d565b61342f565b9450613d598587615a3b565b95508460096000613d6d6020880188615aa4565b62ffffff168152602081019190915260400160009081208054909190613d9d9084906001600160781b03166157ff565b82546001600160781b039182166101009390930a92830291909202199091161790555061dead6001600160a01b038a1680600080516020615e51833981519152613dea6020890189615aa4565b60018a604051613dfc93929190615dc1565b60405180910390a45b505b8460086000613e196020870187615aa4565b62ffffff168152602081019190915260400160009081208054909190613e499084906001600160781b03166157ff565b92506101000a8154816001600160781b0302191690836001600160781b031602179055506001600c6000856000016020810190613e869190615aa4565b62ffffff16815260208082019290925260409081016000908120868252835220805460ff1916921515929092179091556001600160a01b0388811691908a16908190600080516020615e5183398151915290613ee490880188615aa4565b613ef46080890160608a01615ac1565b8a604051613f0493929190615dc1565b60405180910390a4505b5050935093915050565b602081016000600b81613f2e6040860185615aa4565b62ffffff1681526020019081526020016000206000836060016020810190613f569190615ac1565b6004811115613f6757613f6761548f565b6004811115613f7857613f7861548f565b81526020019081526020016000206000836020016020810190613f9b9190615cc3565b60601c81526020810191909152604001600020805490915060ff16611326576014546000906001600160a01b031663647006e2613fdb6020860186615aa4565b6040516001600160e01b031960e084901b16815262ffffff9091166004820152602401602060405180830381865afa15801561401b573d6000803e3d6000fd5b505050506040513d601f19601f8201168201806040525081019061403f919061581f565b90506000836040516020016140549190615cf7565b60408051601f198184030181529190528051602090910120905061407d8282613be58880615d5d565b6140c05760405162461bcd60e51b81526020600482015260146024820152731b595c9adb19481c1c9bdbd9881a5b9d985b1a5960621b6044820152606401610a44565b825460ff191660011783556140eb6140db6020860186615aa4565b613c516060870160408801615da6565b83546001600160781b0391909116610100026fffffffffffffffffffffffffffffff001990911617835561414a6141256020860186615aa4565b6141356040870160208801615cc3565b6141456080880160608901615ac1565b614b5c565b83546001600160801b03918216600160801b0291161783556001600d60006141756020880188615aa4565b62ffffff1681526020019081526020016000206000828254614197919061558d565b90915550505050505050565b60175460405163277166bf60e11b815260009182916001600160a01b0390911690634ee2cd7e906141da908a908890600401615838565b602060405180830381865afa1580156141f7573d6000803e3d6000fd5b505050506040513d601f19601f8201168201806040525081019061421b919061581f565b905080156130705760175460405163ed475a7960e01b8152600091829182916001600160a01b03169063ed475a799061425a908d908b90600401615838565b600060405180830381865afa158015614277573d6000803e3d6000fd5b505050506040513d6000823e601f3d908101601f1916820160405261429f91908101906159c8565b505081519193509150156144335760005b82518110156144315762ffffff89166000908152600b60205260408120816002815260200190815260200160002060008584815181106142f2576142f26155a0565b60200260200101516001600160a01b03166001600160a01b03168152602001908152602001600020905087806143295750805460ff165b6143455760405162461bcd60e51b8152600401610a4490615df1565b600061437784848151811061435c5761435c6155a0565b6020026020010151612710896139159092919063ffffffff16565b905083838151811061438b5761438b6155a0565b60200260200101518661439e919061558d565b955060006143ac8383614d43565b90506143b8818a6157ff565b98508c6001600160a01b03168e6001600160a01b03168786815181106143e0576143e06155a0565b60200260200101516001600160a01b0316600080516020615e518339815191528f60028660405161441393929190615dc1565b60405180910390a45050508080614429906155b6565b9150506142b0565b505b61271083101561457a57601754604051634181ad4160e11b81526000916001600160a01b0316906383035a8290614470908e908c90600401615838565b602060405180830381865afa15801561448d573d6000803e3d6000fd5b505050506040513d601f19601f820116820180604052508101906144b1919061581f565b905080156145785762ffffff89166000908152600b602090815260408083206002845282528083206001600160a01b038f168452909152902087806144f75750805460ff165b6145135760405162461bcd60e51b8152600401610a4490615df1565b600061451f8284614d43565b905061452b81896157ff565b97508b6001600160a01b03168d6001600160a01b03168e6001600160a01b0316600080516020615e518339815191528e60028660405161456d93929190615dc1565b60405180910390a450505b505b5050505095945050505050565b6016546040516325f48f9960e11b8152600091829182916001600160a01b031690634be91f32906145be908b908990600401615838565b600060405180830381865afa1580156145db573d6000803e3d6000fd5b505050506040513d6000823e601f3d908101601f1916820160405261460391908101906158c2565b9150915060005b825181101561474e5762ffffff87166000908152600b602052604081208160038152602001908152602001600020600085848151811061464c5761464c6155a0565b602002602001015160601c6001600160a01b03166001600160a01b03168152602001908152602001600020905085806146865750805460ff165b6146a25760405162461bcd60e51b8152600401610a4490615df1565b60006146c7828585815181106146ba576146ba6155a0565b6020026020010151614d43565b90506146d381876157ff565b9550896001600160a01b03168b6001600160a01b03168685815181106146fb576146fb6155a0565b602002602001015160601c6001600160a01b0316600080516020615e518339815191528c60038660405161473193929190615dc1565b60405180910390a450508080614746906155b6565b91505061460a565b50505095945050505050565b6018546040516325f48f9960e11b8152600091829182916001600160a01b031690634be91f3290614791908b908990600401615838565b600060405180830381865afa1580156147ae573d6000803e3d6000fd5b505050506040513d6000823e601f3d908101601f191682016040526147d6919081019061597c565b9150915060005b825181101561474e5762ffffff87166000908152600b602052604081208160048152602001908152602001600020600085848151811061481f5761481f6155a0565b60200260200101516001600160a01b03166001600160a01b03168152602001908152602001600020905085806148565750805460ff165b6148725760405162461bcd60e51b8152600401610a4490615df1565b600061488a828585815181106146ba576146ba6155a0565b905061489681876157ff565b9550896001600160a01b03168b6001600160a01b03168685815181106148be576148be6155a0565b60200260200101516001600160a01b0316600080516020615e518339815191528c6004866040516148f193929190615dc1565b60405180910390a450508080614906906155b6565b9150506147dd565b600080838311156149245750600090508061492d565b50600190508183035b9250929050565b805415610f19578054600180830191600091849161495291906156fc565b81548110614962576149626155a0565b60009182526020808320909101546001600160a01b03168352820192909252604001812055805481908061499857614998615e1a565b600082815260209020810160001990810180546001600160a01b0319169055019055614934565b60005b8151811015611326576149ee838383815181106149e1576149e16155a0565b6020026020010151614df4565b806149f8816155b6565b9150506149c2565b600081600003614a12575060006124de565b825461010090046001600160781b03166000819003614a355760009150506124de565b8354600160801b90046001600160801b0316808403614a56575090506124de565b808410614a6557614a65615a78565b613539613d486001600160781b0384168684613915565b600082614a8a868685614e5c565b1495945050505050565b62ffffff821660009081526006602090815260408083205460079092529091205482916001600160781b039081169116614ace83826157ff565b6001600160781b0316826001600160781b03161015614af457614af18183615a3b565b92505b62ffffff851660009081526007602052604081208054859290614b219084906001600160781b03166157ff565b92506101000a8154816001600160781b0302191690836001600160781b03160217905550505092915050565b6000818310613a7a57816116fd565b62ffffff8316600090815260056020526040812054808203614c1057601454604051636131910b60e11b815262ffffff871660048201526001600160a01b039091169063c263221690602401602060405180830381865afa158015614bc5573d6000803e3d6000fd5b505050506040513d601f19601f82011682018060405250810190614be99190615c5c565b62ffffff861660009081526005602052604090206001600160401b03919091169081905590505b6002836004811115614c2457614c2461548f565b03614caf57601754604051631257fcdb60e31b8152614ca7916001600160a01b0316906392bfe6d890614c6190606089901c908690600401615838565b602060405180830381865afa158015614c7e573d6000803e3d6000fd5b505050506040513d601f19601f82011682018060405250810190614ca2919061581f565b614ea8565b9150506116fd565b6003836004811115614cc357614cc361548f565b03614d0b57601654604051631190c4dd60e21b81526001600160601b03198616600482015260248101839052614ca7916001600160a01b031690634643137490604401614c61565b601854604051631257fcdb60e31b8152614ca7916001600160a01b0316906392bfe6d890614c6190606089901c908690600401615838565b6000614d4f8383614a00565b90506001600160781b038116156124de57614d6982614ea8565b83548490601090614d8b908490600160801b90046001600160801b0316615e30565b82546001600160801b0391821661010093840a908102920219161790915584548392508591600191614dca9185916001600160781b0391900416615a3b565b92506101000a8154816001600160781b0302191690836001600160781b0316021790555092915050565b6001600160a01b038116600090815260018301602052604090205415614e18575050565b8154600181810184556000848152602080822090930180546001600160a01b039095166001600160a01b031990951685179055845493815293019052604090912055565b600081815b84811015614e9f57614e8b82878784818110614e7f57614e7f6155a0565b90506020020135614edc565b915080614e97816155b6565b915050614e61565b50949350505050565b60006001600160801b03821115613463576040516306dfcc6560e41b81526080600482015260248101839052604401610a44565b6000818310614ef85760008281526020849052604090206116fd565b60008381526020839052604090206116fd565b508054614f17906157a9565b6000825580601f10614f27575050565b601f016020900490600052602060002090810190610f1991905b808211156134635760008155600101614f41565b600060208284031215614f6757600080fd5b5035919050565b60008083601f840112614f8057600080fd5b5081356001600160401b03811115614f9757600080fd5b6020830191508360208260051b850101111561492d57600080fd5b62ffffff81168114610f1957600080fd5b600080600080600060608688031215614fdb57600080fd5b85356001600160401b0380821115614ff257600080fd5b614ffe89838a01614f6e565b90975095506020880135915061501382614fb2565b9093506040870135908082111561502957600080fd5b5061503688828901614f6e565b969995985093965092949392505050565b6000806020838503121561505a57600080fd5b82356001600160401b0381111561507057600080fd5b61507c85828601614f6e565b90969095509350505050565b6001600160a01b0381168114610f1957600080fd5b6000602082840312156150af57600080fd5b81356116fd81615088565b6000602082840312156150cc57600080fd5b81356001600160e01b0319811681146116fd57600080fd5b60005b838110156150ff5781810151838201526020016150e7565b50506000910152565b600081518084526151208160208601602086016150e4565b601f01601f19169290920160200192915050565b82815260406020820152600061514d6040830184615108565b949350505050565b6020808252825182820181905260009190848201906040850190845b818110156151965783516001600160a01b031683529284019291840191600101615171565b50909695505050505050565b8015158114610f1957600080fd5b60008060008060008060a087890312156151c957600080fd5b86356151d481615088565b955060208701356151e481615088565b945060408701356151f481614fb2565b93506060870135615204816151a2565b925060808701356001600160401b0381111561521f57600080fd5b61522b89828a01614f6e565b979a9699509497509295939492505050565b80356005811061380f57600080fd5b60008060006060848603121561526157600080fd5b833561526c81615088565b9250602084013561527c81614fb2565b915061528a6040850161523d565b90509250925092565b600080604083850312156152a657600080fd5b82356152b181614fb2565b915060208301356152c1816151a2565b809150509250929050565b634e487b7160e01b600052604160045260246000fd5b604051601f8201601f191681016001600160401b038111828210171561530a5761530a6152cc565b604052919050565b60006001600160401b0382111561532b5761532b6152cc565b5060051b60200190565b600082601f83011261534657600080fd5b8135602061535b61535683615312565b6152e2565b82815260059290921b8401810191818101908684111561537a57600080fd5b8286015b8481101561539e57803561539181615088565b835291830191830161537e565b509695505050505050565b600080604083850312156153bc57600080fd5b82356001600160401b03808211156153d357600080fd5b818501915085601f8301126153e757600080fd5b813560206153f761535683615312565b82815260059290921b8401810191818101908984111561541657600080fd5b948201945b838610156154345785358252948201949082019061541b565b9650508601359250508082111561544a57600080fd5b5061545785828601615335565b9150509250929050565b6000806040838503121561547457600080fd5b823561547f81615088565b915060208301356152c181614fb2565b634e487b7160e01b600052602160045260246000fd5b600581106154c357634e487b7160e01b600052602160045260246000fd5b9052565b602080825282518282018190526000919060409081850190868401855b8281101561553c57815180516001600160601b0319168552868101516001600160781b0316878601528581015161551d878701826154a5565b50606090810151151590850152608090930192908501906001016154e4565b5091979650505050505050565b6000806040838503121561555c57600080fd5b823561556781615088565b915060208301356152c181615088565b634e487b7160e01b600052601160045260246000fd5b808201808211156124de576124de615577565b634e487b7160e01b600052603260045260246000fd5b6000600182016155c8576155c8615577565b5060010190565b6020808252600d908201526c6e6f7420636c61696d61626c6560981b604082015260600190565b6001600160a01b03848116825260406020808401829052908301849052600091859160608501845b8781101561564557843561563181615088565b84168252938201939082019060010161561e565b5098975050505050505050565b600082601f83011261566357600080fd5b8151602061567361535683615312565b82815260059290921b8401810191818101908684111561569257600080fd5b8286015b8481101561539e5780516156a981615088565b8352918301918301615696565b600080604083850312156156c957600080fd5b82516001600160401b038111156156df57600080fd5b6156eb85828601615652565b925050602083015190509250929050565b818103818111156124de576124de615577565b80820281158282048414176124de576124de615577565b62ffffff81811683821601908082111561574257615742615577565b5092915050565b60006020828403121561575b57600080fd5b81516116fd81614fb2565b6020808252600c908201526b61646472657373207a65726f60a01b604082015260600190565b60006020828403121561579e57600080fd5b81516116fd81615088565b600181811c908216806157bd57607f821691505b6020821081036157dd57634e487b7160e01b600052602260045260246000fd5b50919050565b600082516157f58184602087016150e4565b9190910192915050565b6001600160781b0381811683821601908082111561574257615742615577565b60006020828403121561583157600080fd5b5051919050565b6001600160a01b03929092168252602082015260400190565b6001600160601b031981168114610f1957600080fd5b600082601f83011261587857600080fd5b8151602061588861535683615312565b82815260059290921b840181019181810190868411156158a757600080fd5b8286015b8481101561539e57805183529183019183016158ab565b600080604083850312156158d557600080fd5b82516001600160401b03808211156158ec57600080fd5b818501915085601f83011261590057600080fd5b8151602061591061535683615312565b82815260059290921b8401810191818101908984111561592f57600080fd5b948201945b8386101561595657855161594781615851565b82529482019490820190615934565b9188015191965090935050508082111561596f57600080fd5b5061545785828601615867565b6000806040838503121561598f57600080fd5b82516001600160401b03808211156159a657600080fd5b6159b286838701615652565b9350602085015191508082111561596f57600080fd5b600080600080608085870312156159de57600080fd5b84516001600160401b03808211156159f557600080fd5b615a0188838901615652565b95506020870151915080821115615a1757600080fd5b50615a2487828801615867565b604087015160609097015195989097509350505050565b6001600160781b0382811682821603908082111561574257615742615577565b600060208284031215615a6d57600080fd5b81516116fd816151a2565b634e487b7160e01b600052600160045260246000fd5b60008235609e198336030181126157f557600080fd5b600060208284031215615ab657600080fd5b81356116fd81614fb2565b600060208284031215615ad357600080fd5b6116fd8261523d565b600062ffffff808316818103615af457615af4615577565b6001019392505050565b601f82111561132657600081815260208120601f850160051c81016020861015615b255750805b601f850160051c820191505b818110156133fb57828155600101615b31565b81516001600160401b03811115615b5d57615b5d6152cc565b615b7181615b6b84546157a9565b84615afe565b602080601f831160018114615ba65760008415615b8e5750858301515b600019600386901b1c1916600185901b1785556133fb565b600085815260208120601f198616915b82811015615bd557888601518255948401946001909101908401615bb6565b5085821015615bf35787850151600019600388901b60f8161c191681555b5050505050600190811b01905550565b63ffffffff60e01b8516815283602082015260606040820152816060820152818360808301376000818301608090810191909152601f909201601f191601019392505050565b6020815260006116fd6020830184615108565b600060208284031215615c6e57600080fd5b81516001600160401b03811681146116fd57600080fd5b634e487b7160e01b600052601260045260246000fd5b600082615caa57615caa615c85565b500490565b600082615cbe57615cbe615c85565b500690565b600060208284031215615cd557600080fd5b81356116fd81615851565b80356001600160781b038116811461380f57600080fd5b608081018235615d0681614fb2565b62ffffff1682526020830135615d1b81615851565b6001600160601b03191660208301526001600160781b03615d3e60408501615ce0565b166040830152615d506060840161523d565b61574260608401826154a5565b6000808335601e19843603018112615d7457600080fd5b8301803591506001600160401b03821115615d8e57600080fd5b6020019150600581901b360382131561492d57600080fd5b600060208284031215615db857600080fd5b6116fd82615ce0565b62ffffff8416815260608101615dda60208301856154a5565b6001600160781b0383166040830152949350505050565b6020808252600f908201526e1b9bdd081a5b9a5d1a585b1a5cd959608a1b604082015260600190565b634e487b7160e01b600052603160045260246000fd5b6001600160801b038281168282160390808211156157425761574261557756fe06f77960d1401cc7d724b5c2b5ad672b9dbf08d8b11516a38c21697c23fbb0d2a264697066735822122080aaad0cbba925a870b0af4584c0f927b2133d5b396cb7ccc7cb978f54dc85ae64736f6c63430008140033",
  "linkReferences": {},
  "deployedLinkReferences": {}
}