{
  "_format": "hh-sol-artifact-1",
  "contractName": "RewardManager",
  "sourceName": "contracts/protocol/implementation/RewardManager.sol",
  "abi": [
    {
      "inputs": [
        {
          "internalType": "contract IGovernanceSettings",
          "name": "_governanceSettings",
          "type": "address"
        },
        {
          "internalType": "address",
          "name": "_initialGovernance",
          "type": "address"
        },
        {
          "internalType": "address",
          "name": "_addressUpdater",
          "type": "address"
        }
      ],
      "stateMutability": "nonpayable",
      "type": "constructor"
    },
    {
      "inputs": [],
      "name": "ReentrancyGuardReentrantCall",
      "type": "error"
    },
    {
      "inputs": [
        {
          "internalType": "uint8",
          "name": "bits",
          "type": "uint8"
        },
        {
          "internalType": "uint256",
          "name": "value",
          "type": "uint256"
        }
      ],
      "name": "SafeCastOverflowedUintDowncast",
      "type": "error"
    },
    {
      "anonymous": false,
      "inputs": [
        {
          "indexed": false,
          "internalType": "bytes4",
          "name": "selector",
          "type": "bytes4"
        },
        {
          "indexed": false,
          "internalType": "uint256",
          "name": "allowedAfterTimestamp",
          "type": "uint256"
        },
        {
          "indexed": false,
          "internalType": "bytes",
          "name": "encodedCall",
          "type": "bytes"
        }
      ],
      "name": "GovernanceCallTimelocked",
      "type": "event"
    },
    {
      "anonymous": false,
      "inputs": [
        {
          "indexed": false,
          "internalType": "address",
          "name": "initialGovernance",
          "type": "address"
        }
      ],
      "name": "GovernanceInitialised",
      "type": "event"
    },
    {
      "anonymous": false,
      "inputs": [
        {
          "indexed": false,
          "internalType": "address",
          "name": "governanceSettings",
          "type": "address"
        }
      ],
      "name": "GovernedProductionModeEntered",
      "type": "event"
    },
    {
      "anonymous": false,
      "inputs": [
        {
          "indexed": true,
          "internalType": "address",
          "name": "voter",
          "type": "address"
        },
        {
          "indexed": true,
          "internalType": "address",
          "name": "whoClaimed",
          "type": "address"
        },
        {
          "indexed": true,
          "internalType": "address",
          "name": "sentTo",
          "type": "address"
        },
        {
          "indexed": false,
          "internalType": "uint24",
          "name": "rewardEpochId",
          "type": "uint24"
        },
        {
          "indexed": false,
          "internalType": "enum IRewardManager.ClaimType",
          "name": "claimType",
          "type": "uint8"
        },
        {
          "indexed": false,
          "internalType": "uint120",
          "name": "amount",
          "type": "uint120"
        }
      ],
      "name": "RewardClaimed",
      "type": "event"
    },
    {
      "anonymous": false,
      "inputs": [
        {
          "indexed": false,
          "internalType": "uint256",
          "name": "rewardEpochId",
          "type": "uint256"
        }
      ],
      "name": "RewardClaimsEnabled",
      "type": "event"
    },
    {
      "anonymous": false,
      "inputs": [
        {
          "indexed": false,
          "internalType": "uint256",
          "name": "rewardEpochId",
          "type": "uint256"
        }
      ],
      "name": "RewardClaimsExpired",
      "type": "event"
    },
    {
      "anonymous": false,
      "inputs": [
        {
          "indexed": false,
          "internalType": "bytes4",
          "name": "selector",
          "type": "bytes4"
        },
        {
          "indexed": false,
          "internalType": "uint256",
          "name": "timestamp",
          "type": "uint256"
        }
      ],
      "name": "TimelockedGovernanceCallCanceled",
      "type": "event"
    },
    {
      "anonymous": false,
      "inputs": [
        {
          "indexed": false,
          "internalType": "bytes4",
          "name": "selector",
          "type": "bytes4"
        },
        {
          "indexed": false,
          "internalType": "uint256",
          "name": "timestamp",
          "type": "uint256"
        }
      ],
      "name": "TimelockedGovernanceCallExecuted",
      "type": "event"
    },
    {
      "inputs": [],
      "name": "activate",
      "outputs": [],
      "stateMutability": "nonpayable",
      "type": "function"
    },
    {
      "inputs": [],
      "name": "active",
      "outputs": [
        {
          "internalType": "bool",
          "name": "",
          "type": "bool"
        }
      ],
      "stateMutability": "view",
      "type": "function"
    },
    {
      "inputs": [
        {
          "internalType": "uint256",
          "name": "_toAuthorizeWei",
          "type": "uint256"
        }
      ],
      "name": "addDailyAuthorizedInflation",
      "outputs": [],
      "stateMutability": "nonpayable",
      "type": "function"
    },
    {
      "inputs": [
        {
          "internalType": "address[]",
          "name": "_rewardOwners",
          "type": "address[]"
        },
        {
          "internalType": "uint24",
          "name": "_rewardEpochId",
          "type": "uint24"
        },
        {
          "components": [
            {
              "internalType": "bytes32[]",
              "name": "merkleProof",
              "type": "bytes32[]"
            },
            {
              "components": [
                {
                  "internalType": "uint24",
                  "name": "rewardEpochId",
                  "type": "uint24"
                },
                {
                  "internalType": "bytes20",
                  "name": "beneficiary",
                  "type": "bytes20"
                },
                {
                  "internalType": "uint120",
                  "name": "amount",
                  "type": "uint120"
                },
                {
                  "internalType": "enum IRewardManager.ClaimType",
                  "name": "claimType",
                  "type": "uint8"
                }
              ],
              "internalType": "struct IRewardManager.RewardClaim",
              "name": "body",
              "type": "tuple"
            }
          ],
          "internalType": "struct IRewardManager.RewardClaimWithProof[]",
          "name": "_proofs",
          "type": "tuple[]"
        }
      ],
      "name": "autoClaim",
      "outputs": [],
      "stateMutability": "nonpayable",
      "type": "function"
    },
    {
      "inputs": [],
      "name": "cChainStake",
      "outputs": [
        {
          "internalType": "contract ICChainStake",
          "name": "",
          "type": "address"
        }
      ],
      "stateMutability": "view",
      "type": "function"
    },
    {
      "inputs": [],
      "name": "cChainStakeEnabled",
      "outputs": [
        {
          "internalType": "bool",
          "name": "",
          "type": "bool"
        }
      ],
      "stateMutability": "view",
      "type": "function"
    },
    {
      "inputs": [
        {
          "internalType": "bytes4",
          "name": "_selector",
          "type": "bytes4"
        }
      ],
      "name": "cancelGovernanceCall",
      "outputs": [],
      "stateMutability": "nonpayable",
      "type": "function"
    },
    {
      "inputs": [
        {
          "internalType": "address",
          "name": "_rewardOwner",
          "type": "address"
        },
        {
          "internalType": "address payable",
          "name": "_recipient",
          "type": "address"
        },
        {
          "internalType": "uint24",
          "name": "_rewardEpochId",
          "type": "uint24"
        },
        {
          "internalType": "bool",
          "name": "_wrap",
          "type": "bool"
        },
        {
          "components": [
            {
              "internalType": "bytes32[]",
              "name": "merkleProof",
              "type": "bytes32[]"
            },
            {
              "components": [
                {
                  "internalType": "uint24",
                  "name": "rewardEpochId",
                  "type": "uint24"
                },
                {
                  "internalType": "bytes20",
                  "name": "beneficiary",
                  "type": "bytes20"
                },
                {
                  "internalType": "uint120",
                  "name": "amount",
                  "type": "uint120"
                },
                {
                  "internalType": "enum IRewardManager.ClaimType",
                  "name": "claimType",
                  "type": "uint8"
                }
              ],
              "internalType": "struct IRewardManager.RewardClaim",
              "name": "body",
              "type": "tuple"
            }
          ],
          "internalType": "struct IRewardManager.RewardClaimWithProof[]",
          "name": "_proofs",
          "type": "tuple[]"
        }
      ],
      "name": "claim",
      "outputs": [
        {
          "internalType": "uint256",
          "name": "_rewardAmountWei",
          "type": "uint256"
        }
      ],
      "stateMutability": "nonpayable",
      "type": "function"
    },
    {
      "inputs": [],
      "name": "claimSetupManager",
      "outputs": [
        {
          "internalType": "contract IClaimSetupManager",
          "name": "",
          "type": "address"
        }
      ],
      "stateMutability": "view",
      "type": "function"
    },
    {
      "inputs": [],
      "name": "cleanupBlockNumber",
      "outputs": [
        {
          "internalType": "uint256",
          "name": "",
          "type": "uint256"
        }
      ],
      "stateMutability": "view",
      "type": "function"
    },
    {
      "inputs": [
        {
          "internalType": "uint256",
          "name": "_rewardEpochId",
          "type": "uint256"
        }
      ],
      "name": "closeExpiredRewardEpoch",
      "outputs": [],
      "stateMutability": "nonpayable",
      "type": "function"
    },
    {
      "inputs": [],
      "name": "deactivate",
      "outputs": [],
      "stateMutability": "nonpayable",
      "type": "function"
    },
    {
      "inputs": [],
      "name": "enableCChainStake",
      "outputs": [],
      "stateMutability": "nonpayable",
      "type": "function"
    },
    {
      "inputs": [],
      "name": "enableClaims",
      "outputs": [],
      "stateMutability": "nonpayable",
      "type": "function"
    },
    {
      "inputs": [],
      "name": "enablePChainStakeMirror",
      "outputs": [],
      "stateMutability": "nonpayable",
      "type": "function"
    },
    {
      "inputs": [
        {
          "internalType": "bytes4",
          "name": "_selector",
          "type": "bytes4"
        }
      ],
      "name": "executeGovernanceCall",
      "outputs": [],
      "stateMutability": "nonpayable",
      "type": "function"
    },
    {
      "inputs": [],
      "name": "firstClaimableRewardEpochId",
      "outputs": [
        {
          "internalType": "uint24",
          "name": "",
          "type": "uint24"
        }
      ],
      "stateMutability": "view",
      "type": "function"
    },
    {
      "inputs": [],
      "name": "flareSystemCalculator",
      "outputs": [
        {
          "internalType": "contract FlareSystemCalculator",
          "name": "",
          "type": "address"
        }
      ],
      "stateMutability": "view",
      "type": "function"
    },
    {
      "inputs": [],
      "name": "flareSystemManager",
      "outputs": [
        {
          "internalType": "contract FlareSystemManager",
          "name": "",
          "type": "address"
        }
      ],
      "stateMutability": "view",
      "type": "function"
    },
    {
      "inputs": [],
      "name": "getAddressUpdater",
      "outputs": [
        {
          "internalType": "address",
          "name": "_addressUpdater",
          "type": "address"
        }
      ],
      "stateMutability": "view",
      "type": "function"
    },
    {
      "inputs": [],
      "name": "getCurrentRewardEpochId",
      "outputs": [
        {
          "internalType": "uint24",
          "name": "",
          "type": "uint24"
        }
      ],
      "stateMutability": "view",
      "type": "function"
    },
    {
      "inputs": [],
      "name": "getEpochIdsWithClaimableRewards",
      "outputs": [
        {
          "internalType": "uint256",
          "name": "_startEpochId",
          "type": "uint256"
        },
        {
          "internalType": "uint256",
          "name": "_endEpochId",
          "type": "uint256"
        }
      ],
      "stateMutability": "view",
      "type": "function"
    },
    {
      "inputs": [],
      "name": "getExpectedBalance",
      "outputs": [
        {
          "internalType": "uint256",
          "name": "",
          "type": "uint256"
        }
      ],
      "stateMutability": "view",
      "type": "function"
    },
    {
      "inputs": [],
      "name": "getInitialRewardEpochId",
      "outputs": [
        {
          "internalType": "uint256",
          "name": "",
          "type": "uint256"
        }
      ],
      "stateMutability": "view",
      "type": "function"
    },
    {
      "inputs": [],
      "name": "getRewardEpochIdToExpireNext",
      "outputs": [
        {
          "internalType": "uint256",
          "name": "",
          "type": "uint256"
        }
      ],
      "stateMutability": "view",
      "type": "function"
    },
    {
      "inputs": [],
      "name": "getRewardOffersManagerList",
      "outputs": [
        {
          "internalType": "address[]",
          "name": "",
          "type": "address[]"
        }
      ],
      "stateMutability": "view",
      "type": "function"
    },
    {
      "inputs": [
        {
          "internalType": "address",
          "name": "_rewardOwner",
          "type": "address"
        },
        {
          "internalType": "uint24",
          "name": "_rewardEpochId",
          "type": "uint24"
        }
      ],
      "name": "getStateOfRewards",
      "outputs": [
        {
          "components": [
            {
              "internalType": "bytes20",
              "name": "provider",
              "type": "bytes20"
            },
            {
              "internalType": "uint120",
              "name": "amount",
              "type": "uint120"
            },
            {
              "internalType": "enum IRewardManager.ClaimType",
              "name": "claimType",
              "type": "uint8"
            },
            {
              "internalType": "bool",
              "name": "initialised",
              "type": "bool"
            }
          ],
          "internalType": "struct RewardManager.RewardState[]",
          "name": "_rewardStates",
          "type": "tuple[]"
        }
      ],
      "stateMutability": "view",
      "type": "function"
    },
    {
      "inputs": [],
      "name": "getTokenPoolSupplyData",
      "outputs": [
        {
          "internalType": "uint256",
          "name": "_lockedFundsWei",
          "type": "uint256"
        },
        {
          "internalType": "uint256",
          "name": "_totalInflationAuthorizedWei",
          "type": "uint256"
        },
        {
          "internalType": "uint256",
          "name": "_totalClaimedWei",
          "type": "uint256"
        }
      ],
      "stateMutability": "view",
      "type": "function"
    },
    {
      "inputs": [],
      "name": "getTotals",
      "outputs": [
        {
          "internalType": "uint256",
          "name": "_totalFundsReceivedWei",
          "type": "uint256"
        },
        {
          "internalType": "uint256",
          "name": "_totalClaimedWei",
          "type": "uint256"
        },
        {
          "internalType": "uint256",
          "name": "_totalBurnedWei",
          "type": "uint256"
        },
        {
          "internalType": "uint256",
          "name": "_totalInflationAuthorizedWei",
          "type": "uint256"
        },
        {
          "internalType": "uint256",
          "name": "_totalInflationReceivedWei",
          "type": "uint256"
        }
      ],
      "stateMutability": "view",
      "type": "function"
    },
    {
      "inputs": [
        {
          "internalType": "address",
          "name": "_rewardOwner",
          "type": "address"
        },
        {
          "internalType": "uint24",
          "name": "_rewardEpochId",
          "type": "uint24"
        },
        {
          "internalType": "enum IRewardManager.ClaimType",
          "name": "_claimType",
          "type": "uint8"
        }
      ],
      "name": "getUnclaimedRewardState",
      "outputs": [
        {
          "components": [
            {
              "internalType": "bool",
              "name": "initialised",
              "type": "bool"
            },
            {
              "internalType": "uint120",
              "name": "amount",
              "type": "uint120"
            },
            {
              "internalType": "uint128",
              "name": "weight",
              "type": "uint128"
            }
          ],
          "internalType": "struct RewardManager.UnclaimedRewardState",
          "name": "_state",
          "type": "tuple"
        }
      ],
      "stateMutability": "view",
      "type": "function"
    },
    {
      "inputs": [],
      "name": "governance",
      "outputs": [
        {
          "internalType": "address",
          "name": "",
          "type": "address"
        }
      ],
      "stateMutability": "view",
      "type": "function"
    },
    {
      "inputs": [],
      "name": "governanceSettings",
      "outputs": [
        {
          "internalType": "contract IGovernanceSettings",
          "name": "",
          "type": "address"
        }
      ],
      "stateMutability": "view",
      "type": "function"
    },
    {
      "inputs": [
        {
          "internalType": "contract IGovernanceSettings",
          "name": "_governanceSettings",
          "type": "address"
        },
        {
          "internalType": "address",
          "name": "_initialGovernance",
          "type": "address"
        }
      ],
      "name": "initialise",
      "outputs": [],
      "stateMutability": "nonpayable",
      "type": "function"
    },
    {
      "inputs": [
        {
          "components": [
            {
              "internalType": "bytes32[]",
              "name": "merkleProof",
              "type": "bytes32[]"
            },
            {
              "components": [
                {
                  "internalType": "uint24",
                  "name": "rewardEpochId",
                  "type": "uint24"
                },
                {
                  "internalType": "bytes20",
                  "name": "beneficiary",
                  "type": "bytes20"
                },
                {
                  "internalType": "uint120",
                  "name": "amount",
                  "type": "uint120"
                },
                {
                  "internalType": "enum IRewardManager.ClaimType",
                  "name": "claimType",
                  "type": "uint8"
                }
              ],
              "internalType": "struct IRewardManager.RewardClaim",
              "name": "body",
              "type": "tuple"
            }
          ],
          "internalType": "struct IRewardManager.RewardClaimWithProof[]",
          "name": "_proofs",
          "type": "tuple[]"
        }
      ],
      "name": "initialiseWeightBasedClaims",
      "outputs": [],
      "stateMutability": "nonpayable",
      "type": "function"
    },
    {
      "inputs": [
        {
          "internalType": "address",
          "name": "_address",
          "type": "address"
        }
      ],
      "name": "isExecutor",
      "outputs": [
        {
          "internalType": "bool",
          "name": "",
          "type": "bool"
        }
      ],
      "stateMutability": "view",
      "type": "function"
    },
    {
      "inputs": [],
      "name": "newRewardManager",
      "outputs": [
        {
          "internalType": "address",
          "name": "",
          "type": "address"
        }
      ],
      "stateMutability": "view",
      "type": "function"
    },
    {
      "inputs": [
        {
          "internalType": "address",
          "name": "_rewardOwner",
          "type": "address"
        }
      ],
      "name": "nextClaimableRewardEpochId",
      "outputs": [
        {
          "internalType": "uint256",
          "name": "",
          "type": "uint256"
        }
      ],
      "stateMutability": "view",
      "type": "function"
    },
    {
      "inputs": [],
      "name": "oldRewardManager",
      "outputs": [
        {
          "internalType": "address",
          "name": "",
          "type": "address"
        }
      ],
      "stateMutability": "view",
      "type": "function"
    },
    {
      "inputs": [],
      "name": "pChainStakeMirror",
      "outputs": [
        {
          "internalType": "contract IPChainStakeMirror",
          "name": "",
          "type": "address"
        }
      ],
      "stateMutability": "view",
      "type": "function"
    },
    {
      "inputs": [],
      "name": "pChainStakeMirrorEnabled",
      "outputs": [
        {
          "internalType": "bool",
          "name": "",
          "type": "bool"
        }
      ],
      "stateMutability": "view",
      "type": "function"
    },
    {
      "inputs": [],
      "name": "productionMode",
      "outputs": [
        {
          "internalType": "bool",
          "name": "",
          "type": "bool"
        }
      ],
      "stateMutability": "view",
      "type": "function"
    },
    {
      "inputs": [
        {
          "internalType": "uint24",
          "name": "_rewardEpochId",
          "type": "uint24"
        },
        {
          "internalType": "bool",
          "name": "_inflation",
          "type": "bool"
        }
      ],
      "name": "receiveRewards",
      "outputs": [],
      "stateMutability": "payable",
      "type": "function"
    },
    {
      "inputs": [],
      "name": "setInitialRewardData",
      "outputs": [],
      "stateMutability": "nonpayable",
      "type": "function"
    },
    {
      "inputs": [
        {
          "internalType": "address",
          "name": "_newRewardManager",
          "type": "address"
        }
      ],
      "name": "setNewRewardManager",
      "outputs": [],
      "stateMutability": "nonpayable",
      "type": "function"
    },
    {
      "inputs": [
        {
          "internalType": "address",
          "name": "_oldRewardManager",
          "type": "address"
        }
      ],
      "name": "setOldRewardManager",
      "outputs": [],
      "stateMutability": "nonpayable",
      "type": "function"
    },
    {
      "inputs": [
        {
          "internalType": "address[]",
          "name": "_rewardOffersManagerList",
          "type": "address[]"
        }
      ],
      "name": "setRewardOffersManagerList",
      "outputs": [],
      "stateMutability": "nonpayable",
      "type": "function"
    },
    {
      "inputs": [],
      "name": "switchToProductionMode",
      "outputs": [],
      "stateMutability": "nonpayable",
      "type": "function"
    },
    {
      "inputs": [
        {
          "internalType": "bytes4",
          "name": "",
          "type": "bytes4"
        }
      ],
      "name": "timelockedCalls",
      "outputs": [
        {
          "internalType": "uint256",
          "name": "allowedAfterTimestamp",
          "type": "uint256"
        },
        {
          "internalType": "bytes",
          "name": "encodedCall",
          "type": "bytes"
        }
      ],
      "stateMutability": "view",
      "type": "function"
    },
    {
      "inputs": [
        {
          "internalType": "bytes32[]",
          "name": "_contractNameHashes",
          "type": "bytes32[]"
        },
        {
          "internalType": "address[]",
          "name": "_contractAddresses",
          "type": "address[]"
        }
      ],
      "name": "updateContractAddresses",
      "outputs": [],
      "stateMutability": "nonpayable",
      "type": "function"
    },
    {
      "inputs": [],
      "name": "wNat",
      "outputs": [
        {
          "internalType": "contract IWNat",
          "name": "",
          "type": "address"
        }
      ],
      "stateMutability": "view",
      "type": "function"
    }
  ],
  "bytecode": "0x60806040523480156200001157600080fd5b506040516200607a3803806200607a833981016040819052620000349162000221565b8083836200004382826200008f565b506200006f9050817f714f205b2abd25bef1d06a1af944e38c113fe6160375c4e1d6d5cf28848e771955565b505060016003555050600a805462ffffff191662ffffff17905562000275565b600054600160a01b900460ff1615620000ef5760405162461bcd60e51b815260206004820152601460248201527f696e697469616c6973656420213d2066616c736500000000000000000000000060448201526064015b60405180910390fd5b6001600160a01b038216620001475760405162461bcd60e51b815260206004820152601860248201527f676f7665726e616e63652073657474696e6773207a65726f00000000000000006044820152606401620000e6565b6001600160a01b038116620001925760405162461bcd60e51b815260206004820152601060248201526f5f676f7665726e616e6365207a65726f60801b6044820152606401620000e6565b600080546001600160a01b038481166001600160a81b031990921691909117600160a01b17909155600180549183166001600160a01b0319909216821790556040519081527f9789733827840833afc031fb2ef9ab6894271f77bad2085687cf4ae5c7bee4db9060200160405180910390a15050565b6001600160a01b03811681146200021e57600080fd5b50565b6000806000606084860312156200023757600080fd5b8351620002448162000208565b6020850151909350620002578162000208565b60408501519092506200026a8162000208565b809150509250925092565b615df580620002856000396000f3fe6080604052600436106102c95760003560e01c80638e33aba511610175578063c4db9619116100dc578063e7dea8e611610095578063f3eb821f1161006f578063f3eb821f1461090a578063f5a983831461092a578063fbde354d1461093f578063fd95b2e01461095f57600080fd5b8063e7dea8e6146108b5578063ea28edad146108d5578063ef88bf13146108ea57600080fd5b8063c4db9619146107f2578063d0fd0a2c14610812578063d6c1dbee1461083f578063debfda301461085f578063deea13e71461087f578063e17f212e1461089457600080fd5b8063a71de6761161012e578063a71de67614610747578063af04cd3b14610768578063b006b4e31461077d578063b00c0b7614610792578063b753801d146107b2578063bb25d5df146107d257600080fd5b80638e33aba51461066257806395123887146106825780639a3410bc146106a25780639edbf007146106be5780639ee5de33146106de578063a02e86e51461073457600080fd5b80635267a15d1161023457806370562697116101ed5780637bf756c9116101c75780637bf756c9146105b357806380c3d267146105d457806384e10a90146105fe57806387ad4ecf1461064257600080fd5b8063705626971461053a57806374e6310e146105635780637a17a34d1461059157600080fd5b80635267a15d146104715780635aa6e675146104a55780635ff27079146104ba57806362354e03146104da57806362d9c89a146104fa57806367fc40291461051a57600080fd5b80632dafdbbf116102865780632dafdbbf1461039157806330c40bc9146103c157806336300be2146103e45780633ce7522a1461041c578063470ce0871461043c57806351b42b001461045c57600080fd5b806302fb0c5e146102ce578063064be532146103045780630f15f4c01461032557806315ca06371461033c57806315f253fb1461035c5780631de560981461037c575b600080fd5b3480156102da57600080fd5b506018546102ef90600160a81b900460ff1681565b60405190151581526020015b60405180910390f35b34801561031057600080fd5b506018546102ef90600160a01b900460ff1681565b34801561033157600080fd5b5061033a610974565b005b34801561034857600080fd5b5061033a610357366004614ea4565b610991565b34801561036857600080fd5b5061033a610377366004614f12565b6109ad565b34801561038857600080fd5b5061033a610c75565b34801561039d57600080fd5b506103a6610df7565b604080519384526020840192909252908201526060016102fb565b3480156103cd57600080fd5b506103d6610e2a565b6040519081526020016102fb565b3480156103f057600080fd5b50601954610404906001600160a01b031681565b6040516001600160a01b0390911681526020016102fb565b34801561042857600080fd5b5061033a610437366004614f96565b610e39565b34801561044857600080fd5b5061033a610457366004614fec565b610e54565b34801561046857600080fd5b5061033a610f1c565b34801561047d57600080fd5b507f714f205b2abd25bef1d06a1af944e38c113fe6160375c4e1d6d5cf28848e771954610404565b3480156104b157600080fd5b50610404610f33565b3480156104c657600080fd5b5061033a6104d5366004615009565b610fca565b3480156104e657600080fd5b50600054610404906001600160a01b031681565b34801561050657600080fd5b50601654610404906001600160a01b031681565b34801561052657600080fd5b5061033a610535366004615009565b61124a565b34801561054657600080fd5b5061054f61132b565b60405162ffffff90911681526020016102fb565b34801561056f57600080fd5b5061058361057e366004615009565b611335565b6040516102fb929190615083565b34801561059d57600080fd5b506105a66113da565b6040516102fb91906150a4565b3480156105bf57600080fd5b506016546102ef90600160a01b900460ff1681565b3480156105e057600080fd5b506105e961143f565b604080519283526020830191909152016102fb565b34801561060a57600080fd5b50601054600e54600f54601254601154604080519586526020860194909452928401919091526060830152608082015260a0016102fb565b34801561064e57600080fd5b50601554610404906001600160a01b031681565b34801561066e57600080fd5b506103d661067d3660046150ff565b6114c4565b34801561068e57600080fd5b506103d661069d366004614fec565b611624565b3480156106ae57600080fd5b50600a5461054f9062ffffff1681565b3480156106ca57600080fd5b50601754610404906001600160a01b031681565b3480156106ea57600080fd5b506106fe6106f936600461519b565b611647565b604080518251151581526020808401516001600160781b031690820152918101516001600160801b0316908201526060016102fb565b61033a6107423660046151e2565b611704565b34801561075357600080fd5b50600a546301000000900462ffffff166103d6565b34801561077457600080fd5b506103d661180a565b34801561078957600080fd5b5061033a611814565b34801561079e57600080fd5b5061033a6107ad3660046152f8565b611858565b3480156107be57600080fd5b5061033a6107cd366004614f96565b611933565b3480156107de57600080fd5b50601454610404906001600160a01b031681565b3480156107fe57600080fd5b50601354610404906001600160a01b031681565b34801561081e57600080fd5b5061083261082d3660046153b0565b6119ad565b6040516102fb9190615416565b34801561084b57600080fd5b5061033a61085a366004614ea4565b61219a565b34801561086b57600080fd5b506102ef61087a366004614fec565b6123d2565b34801561088b57600080fd5b506103d661245b565b3480156108a057600080fd5b506000546102ef90600160a81b900460ff1681565b3480156108c157600080fd5b50601854610404906001600160a01b031681565b3480156108e157600080fd5b5061033a6124c9565b3480156108f657600080fd5b5061033a610905366004615498565b61256f565b34801561091657600080fd5b5061033a610925366004614fec565b6126d5565b34801561093657600080fd5b5061033a61278f565b34801561094b57600080fd5b50601a54610404906001600160a01b031681565b34801561096b57600080fd5b5061033a612850565b61097c612894565b6018805460ff60a81b1916600160a81b179055565b6109996128ee565b806012546109a791906154dc565b60125550565b6109b561294c565b6109bd6129a5565b6109c5612a0d565b60005b84811015610a11576109ff8686838181106109e5576109e56154ef565b90506020020160208101906109fa9190614fec565b612a37565b80610a0981615505565b9150506109c8565b506000610a1c612a7e565b9050610a288482612aec565b610a4d5760405162461bcd60e51b8152600401610a449061551e565b60405180910390fd5b60135460405163712441d960e11b815260009182916001600160a01b039091169063e24883b290610a869033908c908c90600401615545565b600060405180830381865afa158015610aa3573d6000803e3d6000fd5b505050506040513d6000823e601f3d908101601f19168201604052610acb9190810190615605565b915091506000610ad9612b31565b9050610ae9600080888885612b68565b5060009050805b89811015610c295760008b8b83818110610b0c57610b0c6154ef565b9050602002016020810190610b219190614fec565b90506000868381518110610b3757610b376154ef565b602002602001015190506000610b5183838e896000612cd9565b6001600160781b03169050816001600160a01b0316836001600160a01b031614610b9957610b8382838e896001612cd9565b610b96906001600160781b0316826154dc565b90505b86811015610be95760405162461bcd60e51b815260206004820152601860248201527f636c61696d656420616d6f756e7420746f6f20736d616c6c00000000000000006044820152606401610a44565b610bf381866154dc565b9450610bff878261564b565b90508015610c1357610c1382826001612fb7565b5050508080610c2190615505565b915050610af0565b5080600e6000828254610c3c91906154dc565b90915550610c57905033610c508b8661565e565b6000612fb7565b5050505050610c666001600355565b610c6e6130b8565b5050505050565b600054600160b01b900460ff1680610c975750600054600160a81b900460ff16155b15610dea57610ca46130ff565b601854600160a81b900460ff16158015610cca5750600a54600160301b900462ffffff16155b8015610ce25750600a546301000000900462ffffff16155b610d225760405162461bcd60e51b81526020600482015260116024820152706e6f7420696e697469616c20737461746560781b6044820152606401610a44565b610d2a612a7e565b610d35906001615675565b600a60066101000a81548162ffffff021916908362ffffff160217905550601460009054906101000a90046001600160a01b03166001600160a01b031663aec84ab66040518163ffffffff1660e01b8152600401602060405180830381865afa158015610da6573d6000803e3d6000fd5b505050506040513d601f19601f82011682018060405250810190610dca9190615698565b600a60036101000a81548162ffffff021916908362ffffff160217905550565b610df5600036613137565b565b6000806000601154601054610e0c919061564b565b92506012549150600f54600e54610e2391906154dc565b9050909192565b6000610e34613283565b905090565b610e4e6000808484610e49612b31565b612b68565b50505050565b600054600160b01b900460ff1680610e765750600054600160a81b900460ff16155b15610f0e57610e836130ff565b601a546001600160a01b031615610eca5760405162461bcd60e51b815260206004820152600b60248201526a185b1c9958591e481cd95d60aa1b6044820152606401610a44565b6001600160a01b038116610ef05760405162461bcd60e51b8152600401610a44906156b5565b601a80546001600160a01b0319166001600160a01b03831617905550565b610f19600036613137565b50565b610f24612894565b6018805460ff60a81b19169055565b60008054600160a81b900460ff16610f5557506001546001600160a01b031690565b60008054906101000a90046001600160a01b03166001600160a01b031663732524946040518163ffffffff1660e01b8152600401602060405180830381865afa158015610fa6573d6000803e3d6000fd5b505050506040513d601f19601f82011682018060405250810190610e3491906156db565b610fd3336123d2565b61100f5760405162461bcd60e51b815260206004820152600d60248201526c37b7363c9032bc32b1baba37b960991b6044820152606401610a44565b6001600160e01b03198116600090815260026020526040812080549091036110795760405162461bcd60e51b815260206004820152601a60248201527f74696d656c6f636b3a20696e76616c69642073656c6563746f720000000000006044820152606401610a44565b80544210156110ca5760405162461bcd60e51b815260206004820152601960248201527f74696d656c6f636b3a206e6f7420616c6c6f77656420796574000000000000006044820152606401610a44565b60008160010180546110db906156f8565b80601f0160208091040260200160405190810160405280929190818152602001828054611107906156f8565b80156111545780601f1061112957610100808354040283529160200191611154565b820191906000526020600020905b81548152906001019060200180831161113757829003601f168201915b505050506001600160e01b03198516600090815260026020526040812081815592935090506111866001830182614e5a565b50506000805460ff60b01b1916600160b01b17815560405130906111ab908490615732565b6000604051808303816000865af19150503d80600081146111e8576040519150601f19603f3d011682016040523d82523d6000602084013e6111ed565b606091505b50506000805460ff60b01b19169055604080516001600160e01b0319871681524260208201529192507fa7326b57fc9cfe267aaea5e7f0b01757154d265620a0585819416ee9ddd2c438910160405180910390a1610e4e816132a0565b611252612894565b6001600160e01b0319811660009081526002602052604081205490036112ba5760405162461bcd60e51b815260206004820152601a60248201527f74696d656c6f636b3a20696e76616c69642073656c6563746f720000000000006044820152606401610a44565b604080516001600160e01b0319831681524260208201527f7735b2391c38a81419c513e30ca578db7158eadd7101511b23e221c654d19cf8910160405180910390a16001600160e01b031981166000908152600260205260408120818155906113266001830182614e5a565b505050565b6000610e34612a7e565b60026020526000908152604090208054600182018054919291611357906156f8565b80601f0160208091040260200160405190810160405280929190818152602001828054611383906156f8565b80156113d05780601f106113a5576101008083540402835291602001916113d0565b820191906000526020600020905b8154815290600101906020018083116113b357829003601f168201915b5050505050905082565b6060601b60000180548060200260200160405190810160405280929190818152602001828054801561143557602002820191906000526020600020905b81546001600160a01b03168152600190910190602001808311611417575b5050505050905090565b60008061144a612b31565b62ffffff169150600061145b612a7e565b62ffffff169050600081116114b25760405162461bcd60e51b815260206004820152601f60248201527f6e6f2065706f6368207769746820636c61696d61626c652072657761726473006044820152606401610a44565b6114bd60018261564b565b9150509091565b60006114ce61294c565b6114d66129a5565b6114de612a0d565b86866114ea82826132bd565b6114f388612a37565b60006114fd612a7e565b90506115098882612aec565b6115255760405162461bcd60e51b8152600401610a449061551e565b600061152f612b31565b905060006115408c8c8a8a86612b68565b6001600160781b039091169650905061155d8c8c8c856000612cd9565b611570906001600160781b0316876154dc565b95506001600160781b038116156115da57806001600160781b0316600f600082825461159c91906154dc565b909155505060405161dead906001600160781b03831680156108fc02916000818181858888f193505050501580156115d8573d6000803e3d6000fd5b505b85156116035785600e60008282546115f291906154dc565b9091555061160390508b878b612fb7565b50505050506116126001600355565b61161a6130b8565b9695505050505050565b600061163c82611632612b31565b62ffffff16613340565b62ffffff1692915050565b604080516060810182526000808252602080830182905282840182905262ffffff86168252600b90529182209091836004811115611687576116876153de565b6004811115611698576116986153de565b8152602080820192909252604090810160009081206001600160a01b038816825283528190208151606081018352905460ff81161515825261010081046001600160781b031693820193909352600160801b9092046001600160801b03169082015290505b9392505050565b61170c6128ee565b6117146129a5565b61171c612a7e565b62ffffff168262ffffff1610156117755760405162461bcd60e51b815260206004820152601b60248201527f7265776172642065706f636820696420696e20746865207061737400000000006044820152606401610a44565b61177e3461336c565b62ffffff8316600090815260066020526040812080549091906117ab9084906001600160781b031661574e565b92506101000a8154816001600160781b0302191690836001600160781b0316021790555034601060008282546117e191906154dc565b909155505080156117fe57346011546117fa91906154dc565b6011555b6118066130b8565b5050565b6000610e346133a4565b600054600160b01b900460ff16806118365750600054600160a81b900460ff16155b15610dea576118436130ff565b6016805460ff60a01b1916600160a01b179055565b7f714f205b2abd25bef1d06a1af944e38c113fe6160375c4e1d6d5cf28848e7719546001600160a01b0316336001600160a01b0316146118d15760405162461bcd60e51b815260206004820152601460248201527337b7363c9030b2323932b9b9903ab83230ba32b960611b6044820152606401610a44565b61192961190583836040518060400160405280600e81526020016d20b2323932b9b9aab83230ba32b960911b8152506133c3565b7f714f205b2abd25bef1d06a1af944e38c113fe6160375c4e1d6d5cf28848e771955565b611806828261347f565b600054600160b01b900460ff16806119555750600054600160a81b900460ff16155b156119a2576119626130ff565b611806828280806020026020016040519081016040528093929190818152602001838360200280828437600092019190915250601b9392505061369f9050565b611806600036613137565b606060006119b9612a7e565b90506119c58382612aec565b6119e15760405162461bcd60e51b8152600401610a449061551e565b6119ed84611632612b31565b62ffffff168362ffffff161015611a385760405162461bcd60e51b815260206004820152600f60248201526e185b1c9958591e4818db185a5b5959608a1b6044820152606401610a44565b60145460405163388a4c3d60e01b815262ffffff851660048201526000916001600160a01b03169063388a4c3d90602401602060405180830381865afa158015611a86573d6000803e3d6000fd5b505050506040513d601f19601f82011682018060405250810190611aaa919061576e565b905080600003611b6757601454604051633238037160e11b815262ffffff861660048201526000916001600160a01b03169063647006e290602401602060405180830381865afa158015611b02573d6000803e3d6000fd5b505050506040513d601f19601f82011682018060405250810190611b26919061576e565b03611b675760405162461bcd60e51b8152602060048201526011602482015270726577617264732068617368207a65726f60781b6044820152606401610a44565b6000611b72856136b2565b90506000611bbe60405180610100016040528060608152602001606081526020016060815260200160608152602001600081526020016060815260200160608152602001600081525090565b6016546001600160a01b031615611c5c576016546040516325f48f9960e11b81526001600160a01b0390911690634be91f3290611c01908b908790600401615787565b600060405180830381865afa158015611c1e573d6000803e3d6000fd5b505050506040513d6000823e601f3d908101601f19168201604052611c469190810190615811565b602083015280825251611c5990836154dc565b91505b6018546001600160a01b031615611cfe576018546040516325f48f9960e11b81526001600160a01b0390911690634be91f3290611c9f908b908790600401615787565b600060405180830381865afa158015611cbc573d6000803e3d6000fd5b505050506040513d6000823e601f3d908101601f19168201604052611ce491908101906158cb565b60608301526040820181905251611cfb90836154dc565b91505b60175460405163277166bf60e11b81526001600160a01b0390911690634ee2cd7e90611d30908b908790600401615787565b602060405180830381865afa158015611d4d573d6000803e3d6000fd5b505050506040513d601f19601f82011682018060405250810190611d71919061576e565b6080820181905215611ef75760175460405163ed475a7960e01b81526001600160a01b039091169063ed475a7990611daf908b908790600401615787565b600060405180830381865afa158015611dcc573d6000803e3d6000fd5b505050506040513d6000823e601f3d908101601f19168201604052611df49190810190615917565b505060c083015260a0820181905251611e0d90836154dc565b91506000805b8260c0015151811015611e5d578260c001518181518110611e3657611e366154ef565b602002602001015182611e4991906154dc565b915080611e5581615505565b915050611e13565b50612710811015611ef557601754604051634181ad4160e11b81526001600160a01b03909116906383035a8290611e9a908c908890600401615787565b602060405180830381865afa158015611eb7573d6000803e3d6000fd5b505050506040513d601f19601f82011682018060405250810190611edb919061576e565b60e0830181905215611ef557611ef26001846154dc565b92505b505b62ffffff87166000908152600d6020526040902054841115826001600160401b03811115611f2757611f2761521b565b604051908082528060200260200182016040528015611f7957816020015b604080516080810182526000808252602080830182905292820181905260608201528252600019909201910181611f455790505b5096506000808360e001511115611fc557611f9c8960028c8660e0015186613751565b8882611fa781615505565b935081518110611fb957611fb96154ef565b60200260200101819052505b60005b8360a0015151811015612072576120378a60028660a001518481518110611ff157611ff16154ef565b60200260200101516120318860c001518681518110612012576120126154ef565b60200260200101516127108a608001516138529092919063ffffffff16565b87613751565b898361204281615505565b945081518110612054576120546154ef565b6020026020010181905250808061206a90615505565b915050611fc8565b5060005b835151811015612106576120cb8a60038660000151848151811061209c5761209c6154ef565b602002602001015160601c876020015185815181106120bd576120bd6154ef565b602002602001015187613751565b89836120d681615505565b9450815181106120e8576120e86154ef565b602002602001018190525080806120fe90615505565b915050612076565b5060005b83604001515181101561218c576121518a600486604001518481518110612133576121336154ef565b6020026020010151876060015185815181106120bd576120bd6154ef565b898361215c81615505565b94508151811061216e5761216e6154ef565b6020026020010181905250808061218490615505565b91505061210a565b505050505050505092915050565b6014546001600160a01b03163314806121bd5750601a546001600160a01b031633145b6121f95760405162461bcd60e51b815260206004820152600d60248201526c6f6e6c79206d616e616765727360981b6044820152606401610a44565b600a546301000000900462ffffff1681146122475760405162461bcd60e51b815260206004820152600e60248201526d1ddc9bdb99c8195c1bd8da081a5960921b6044820152606401610a44565b6019546001600160a01b03161580159061227e5750600a5461227690600160301b900462ffffff166032615675565b62ffffff1681105b156122e257601954604051636b60edf760e11b8152600481018390526001600160a01b039091169063d6c1dbee90602401600060405180830381600087803b1580156122c957600080fd5b505af11580156122dd573d6000803e3d6000fd5b505050505b6122f56122f08260016154dc565b613978565b600a805462ffffff9290921663010000000265ffffff000000199092169190911790556040518181527f5d05c64f281304391697cf987812e1a736413a062a9bdf39af4102209eb6fa589060200160405180910390a1600081815260086020908152604080832054600690925282205461237b916001600160781b03908116911661598a565b6001600160781b0316905080156118065780600f600082825461239e91906154dc565b909155505060405161dead9082156108fc029083906000818181858888f19350505050158015611326573d6000803e3d6000fd5b60008054600160a01b900460ff1680156124555750600054604051630debfda360e41b81526001600160a01b0384811660048301529091169063debfda3090602401602060405180830381865afa158015612431573d6000803e3d6000fd5b505050506040513d601f19601f8201168201806040525081019061245591906159aa565b92915050565b6017546040805163deea13e760e01b815290516000926001600160a01b03169163deea13e79160048083019260209291908290030181865afa1580156124a5573d6000803e3d6000fd5b505050506040513d601f19601f82011682018060405250810190610e34919061576e565b6124d1612894565b600a5462ffffff9081161461251a5760405162461bcd60e51b815260206004820152600f60248201526e185b1c9958591e48195b98589b1959608a1b6044820152606401610a44565b612522612a7e565b600a805462ffffff191662ffffff9290921691821790556040519081527f1cfb844c44f9325fc9ad6cc6191a4a24b0415137fe300b6c9071523a253f7a08906020015b60405180910390a1565b600054600160a01b900460ff16156125c05760405162461bcd60e51b8152602060048201526014602482015273696e697469616c6973656420213d2066616c736560601b6044820152606401610a44565b6001600160a01b0382166126165760405162461bcd60e51b815260206004820152601860248201527f676f7665726e616e63652073657474696e6773207a65726f00000000000000006044820152606401610a44565b6001600160a01b03811661265f5760405162461bcd60e51b815260206004820152601060248201526f5f676f7665726e616e6365207a65726f60801b6044820152606401610a44565b600080546001600160a01b038481166001600160a81b031990921691909117600160a01b17909155600180549183166001600160a01b0319909216821790556040519081527f9789733827840833afc031fb2ef9ab6894271f77bad2085687cf4ae5c7bee4db9060200160405180910390a15050565b600054600160b01b900460ff16806126f75750600054600160a81b900460ff16155b15610f0e576127046130ff565b6019546001600160a01b03161561274b5760405162461bcd60e51b815260206004820152600b60248201526a185b1c9958591e481cd95d60aa1b6044820152606401610a44565b6001600160a01b0381166127715760405162461bcd60e51b8152600401610a44906156b5565b601980546001600160a01b0319166001600160a01b03831617905550565b612797612894565b600054600160a81b900460ff16156127f15760405162461bcd60e51b815260206004820152601a60248201527f616c726561647920696e2070726f64756374696f6e206d6f64650000000000006044820152606401610a44565b600180546001600160a01b031916905560008054600160a81b60ff60a81b198216179091556040516001600160a01b0390911681527f83af113638b5422f9e977cebc0aaf0eaf2188eb9a8baae7f9d46c42b33a1560c90602001612565565b600054600160b01b900460ff16806128725750600054600160a81b900460ff16155b15610dea5761287f6130ff565b6018805460ff60a01b1916600160a01b179055565b61289c610f33565b6001600160a01b0316336001600160a01b031614610df55760405162461bcd60e51b815260206004820152600f60248201526e6f6e6c7920676f7665726e616e636560881b6044820152606401610a44565b336000908152601c60205260408120549003610df55760405162461bcd60e51b815260206004820152601a60248201527f6f6e6c7920726577617264206f6666657273206d616e616765720000000000006044820152606401610a44565b601854600160a81b900460ff16610df55760405162461bcd60e51b815260206004820152601a60248201527f726577617264206d616e616765722064656163746976617465640000000000006044820152606401610a44565b6000346129b06133a4565b6129ba91906154dc565b905047818111156129fd5761dead6108fc6129d5848461564b565b6040518115909202916000818181858888f19350505050158015611326573d6000803e3d6000fd5b81811015611806576118066159c7565b600260035403612a3057604051633ee5aeb560e01b815260040160405180910390fd5b6002600355565b6001600160a01b038116610f195760405162461bcd60e51b815260206004820152600e60248201526d726563697069656e74207a65726f60901b6044820152606401610a44565b60145460408051637056269760e01b815290516000926001600160a01b03169163705626979160048083019260209291908290030181865afa158015612ac8573d6000803e3d6000fd5b505050506040513d601f19601f82011682018060405250810190610e349190615698565b600a5460009062ffffff90811690841610801590612b1c5750600a5462ffffff6301000000909104811690841610155b80156116fd57505062ffffff90811691161090565b600a54600090610e34906122f09062ffffff16612b63612b4f613283565b600a546301000000900462ffffff166139a8565b6139a8565b60008060005b84811015612cce576000868683818110612b8a57612b8a6154ef565b9050602002810190612b9c91906159dd565b612bad9060a08101906080016159f3565b90506000816004811115612bc357612bc36153de565b1480612be057506001816004811115612bde57612bde6153de565b145b15612c4a576001600160a01b03891615612c4557600080612c258b8b8b8b88818110612c0e57612c0e6154ef565b9050602002810190612c2091906159dd565b6139be565b9092509050612c34828761574e565b9550612c40818661574e565b945050505b612cbb565b8462ffffff16878784818110612c6257612c626154ef565b9050602002810190612c7491906159dd565b612c85906040810190602001615a0e565b62ffffff1610612cbb57612cbb878784818110612ca457612ca46154ef565b9050602002810190612cb691906159dd565b613e55565b5080612cc681615505565b915050612b6e565b509550959350505050565b600080612ceb878562ffffff16613340565b9050805b8562ffffff168162ffffff1611612f3f5760145460405163388a4c3d60e01b815262ffffff831660048201526000916001600160a01b03169063388a4c3d90602401602060405180830381865afa158015612d4e573d6000803e3d6000fd5b505050506040513d601f19601f82011682018060405250810190612d72919061576e565b905080600003612e2f57601454604051633238037160e11b815262ffffff841660048201526000916001600160a01b03169063647006e290602401602060405180830381865afa158015612dca573d6000803e3d6000fd5b505050506040513d601f19601f82011682018060405250810190612dee919061576e565b03612e2f5760405162461bcd60e51b8152602060048201526011602482015270726577617264732068617368207a65726f60781b6044820152606401610a44565b62ffffff82166000908152600d602052604081205482111590612e51846136b2565b90506000612e628c8c8785876140e0565b612e6c908261574e565b905087612ec9576016546001600160a01b031615612e9e57612e918c8c8785876144c4565b612e9b908261574e565b90505b6018546001600160a01b031615612ec957612ebc8c8c878587614697565b612ec6908261574e565b90505b62ffffff851660009081526008602052604081208054839290612ef69084906001600160781b031661574e565b92506101000a8154816001600160781b0302191690836001600160781b031602179055508087612f26919061574e565b9650505050508080612f3790615a2b565b915050612cef565b50612f4b856001615675565b6001600160a01b03881660009081526004602052604090205462ffffff91821691161015612fad57612f7e856001615675565b6001600160a01b0388166000908152600460205260409020805462ffffff191662ffffff929092169190911790555b5095945050505050565b80156130235760175460405163b760faf960e01b81526001600160a01b0385811660048301529091169063b760faf99084906024016000604051808303818588803b15801561300557600080fd5b505af1158015613019573d6000803e3d6000fd5b5050505050505050565b6000836001600160a01b03168360405160006040518083038185875af1925050503d8060008114613070576040519150601f19603f3d011682016040523d82523d6000602084013e613075565b606091505b5050905080610e4e5760405162461bcd60e51b815260206004820152600f60248201526e1d1c985b9cd9995c8819985a5b1959608a1b6044820152606401610a44565b6130c06133a4565b4714610df55760405162461bcd60e51b815260206004820152600e60248201526d6f7574206f662062616c616e636560901b6044820152606401610a44565b600054600160b01b900460ff161561312f57333014613120576131206159c7565b6000805460ff60b01b19169055565b610df5612894565b61313f612894565b6000805460408051636221a54b60e01b81529051853593926001600160a01b031691636221a54b9160048083019260209291908290030181865afa15801561318b573d6000803e3d6000fd5b505050506040513d601f19601f820116820180604052508101906131af919061576e565b905060006131bd82426154dc565b9050604051806040016040528082815260200186868080601f01602080910402602001604051908101604052809392919081815260200183838082843760009201829052509390945250506001600160e01b0319861681526002602090815260409091208351815590830151909150600182019061323b9082615a93565b509050507fed948300a3694aa01d4a6b258bfd664350193d770c0b51f8387277f6d83ea3b6838287876040516132749493929190615b52565b60405180910390a15050505050565b600a5460009061245590600160301b900462ffffff16600161484b565b3d604051818101604052816000823e82156132b9578181f35b8181fd5b6001600160a01b03821633036132d1575050565b60135460405163ce2caa5760e01b81523360048201526001600160a01b03848116602483015283811660448301529091169063ce2caa579060640160006040518083038186803b15801561332457600080fd5b505afa158015613338573d6000803e3d6000fd5b505050505050565b6001600160a01b0382166000908152600460205260408120546116fd906122f09062ffffff16846139a8565b60006001600160781b038211156133a0576040516306dfcc6560e41b81526078600482015260248101839052604401610a44565b5090565b6000600f54600e546010546133b9919061564b565b610e34919061564b565b600080826040516020016133d79190615b98565b6040516020818303038152906040528051906020012090506000805b865181101561344f5786818151811061340e5761340e6154ef565b6020026020010151830361343d5785818151811061342e5761342e6154ef565b6020026020010151915061344f565b8061344781615505565b9150506133f3565b506001600160a01b0381166134765760405162461bcd60e51b8152600401610a44906156b5565b95945050505050565b6134b382826040518060400160405280601181526020017021b630b4b6a9b2ba3ab826b0b730b3b2b960791b8152506133c3565b601360006101000a8154816001600160a01b0302191690836001600160a01b0316021790555061350e828260405180604001604052806012815260200171233630b932a9bcb9ba32b6a6b0b730b3b2b960711b8152506133c3565b601460006101000a8154816001600160a01b0302191690836001600160a01b0316021790555061356c828260405180604001604052806015815260200174233630b932a9bcb9ba32b6a1b0b631bab630ba37b960591b8152506133c3565b601580546001600160a01b0319166001600160a01b0392909216919091179055601654600160a01b900460ff16156135f3576135d28282604051806040016040528060118152602001702821b430b4b729ba30b5b2a6b4b93937b960791b8152506133c3565b601680546001600160a01b0319166001600160a01b03929092169190911790555b601854600160a01b900460ff16156136545761363382826040518060400160405280600b81526020016a43436861696e5374616b6560a81b8152506133c3565b601880546001600160a01b0319166001600160a01b03929092169190911790555b61367b82826040518060400160405280600481526020016315d3985d60e21b8152506133c3565b601780546001600160a01b0319166001600160a01b03929092169190911790555050565b6136a882614871565b61180682826148fc565b62ffffff81166000908152600560205260408120549081900361374c57601454604051636131910b60e11b815262ffffff841660048201526001600160a01b039091169063c263221690602401602060405180830381865afa15801561371c573d6000803e3d6000fd5b505050506040513d601f19601f820116820180604052508101906137409190615bab565b6001600160401b031690505b919050565b604080516080810182526000602082018190529181018281526060808301939093529185901b6001600160601b031916815290856004811115613796576137966153de565b908160048111156137a9576137a96153de565b90525062ffffff86166000908152600b60205260408120818760048111156137d3576137d36153de565b60048111156137e4576137e46153de565b81526020019081526020016000206000866001600160a01b03166001600160a01b03168152602001908152602001600020905082806138245750805460ff165b1580156060840152612fad5761383a818561493d565b6001600160781b031660208301525095945050505050565b60008082116138965760405162461bcd60e51b815260206004820152601060248201526f4469766973696f6e206279207a65726f60801b6044820152606401610a44565b836000036138a6575060006116fd565b838302838582816138b9576138b9615bd4565b04036138d7578281816138ce576138ce615bd4565b049150506116fd565b5060006138e48386615bea565b905060006138f28487615bfe565b905060006139008587615bea565b9050600061390e8688615bfe565b90508561391b828561565e565b6139259190615bea565b61392f838561565e565b613939838761565e565b88613944868961565e565b61394e919061565e565b61395891906154dc565b61396291906154dc565b61396c91906154dc565b98975050505050505050565b600062ffffff8211156133a0576040516306dfcc6560e41b81526018600482015260248101839052604401610a44565b60008183116139b757816116fd565b5090919050565b600080602083016001600160a01b0386166139df6060860160408701615c12565b60601c14613a235760405162461bcd60e51b815260206004820152601160248201527077726f6e672062656e656669636961727960781b6044820152606401610a44565b600081604051602001613a369190615c46565b60408051601f1981840301815291905280516020918201209150600c90600090613a6290850185615a0e565b62ffffff1681526020808201929092526040908101600090812084825290925290205460ff16613e4b576014546000906001600160a01b031663647006e2613aad6020860186615a0e565b6040516001600160e01b031960e084901b16815262ffffff9091166004820152602401602060405180830381865afa158015613aed573d6000803e3d6000fd5b505050506040513d601f19601f82011682018060405250810190613b11919061576e565b9050613b2b8183613b228980615cac565b909290916149cb565b613b6e5760405162461bcd60e51b81526020600482015260146024820152731b595c9adb19481c1c9bdbd9881a5b9d985b1a5960621b6044820152606401610a44565b613b93613b7e6020850185615a0e565b613b8e6060860160408701615cf5565b6149e3565b94506001613ba760808501606086016159f3565b6004811115613bb857613bb86153de565b03613d44576015546000906001600160a01b0316639350f57c613bde6020870187615a0e565b6040516001600160e01b031960e084901b16815262ffffff90911660048201526001600160a01b038c166024820152604401602060405180830381865afa158015613c2d573d6000803e3d6000fd5b505050506040513d601f19601f82011682018060405250810190613c51919061576e565b90508015613d4257613c8a613c85613c766001600160781b03891684620f4240613852565b886001600160781b0316614a9c565b61336c565b9450613c96858761598a565b95508460096000613caa6020880188615a0e565b62ffffff168152602081019190915260400160009081208054909190613cda9084906001600160781b031661574e565b82546001600160781b039182166101009390930a92830291909202199091161790555061dead6001600160a01b038a1680600080516020615da0833981519152613d276020890189615a0e565b60018a604051613d3993929190615d10565b60405180910390a45b505b8460086000613d566020870187615a0e565b62ffffff168152602081019190915260400160009081208054909190613d869084906001600160781b031661574e565b92506101000a8154816001600160781b0302191690836001600160781b031602179055506001600c6000856000016020810190613dc39190615a0e565b62ffffff16815260208082019290925260409081016000908120868252835220805460ff1916921515929092179091556001600160a01b0388811691908a16908190600080516020615da083398151915290613e2190880188615a0e565b613e316080890160608a016159f3565b8a604051613e4193929190615d10565b60405180910390a4505b5050935093915050565b602081016000600b81613e6b6040860185615a0e565b62ffffff1681526020019081526020016000206000836060016020810190613e9391906159f3565b6004811115613ea457613ea46153de565b6004811115613eb557613eb56153de565b81526020019081526020016000206000836020016020810190613ed89190615c12565b60601c81526020810191909152604001600020805490915060ff16611326576014546000906001600160a01b031663647006e2613f186020860186615a0e565b6040516001600160e01b031960e084901b16815262ffffff9091166004820152602401602060405180830381865afa158015613f58573d6000803e3d6000fd5b505050506040513d601f19601f82011682018060405250810190613f7c919061576e565b9050600083604051602001613f919190615c46565b60408051601f1981840301815291905280516020909101209050613fba8282613b228880615cac565b613ffd5760405162461bcd60e51b81526020600482015260146024820152731b595c9adb19481c1c9bdbd9881a5b9d985b1a5960621b6044820152606401610a44565b825460ff191660011783556140286140186020860186615a0e565b613b8e6060870160408801615cf5565b83546001600160781b0391909116610100026fffffffffffffffffffffffffffffff00199091161783556140876140626020860186615a0e565b6140726040870160208801615c12565b61408260808801606089016159f3565b614aab565b83546001600160801b03918216600160801b0291161783556001600d60006140b26020880188615a0e565b62ffffff16815260200190815260200160002060008282546140d491906154dc565b90915550505050505050565b60175460405163277166bf60e11b815260009182916001600160a01b0390911690634ee2cd7e90614117908a908890600401615787565b602060405180830381865afa158015614134573d6000803e3d6000fd5b505050506040513d601f19601f82011682018060405250810190614158919061576e565b90508015612fad5760175460405163ed475a7960e01b8152600091829182916001600160a01b03169063ed475a7990614197908d908b90600401615787565b600060405180830381865afa1580156141b4573d6000803e3d6000fd5b505050506040513d6000823e601f3d908101601f191682016040526141dc9190810190615917565b505081519193509150156143705760005b825181101561436e5762ffffff89166000908152600b602052604081208160028152602001908152602001600020600085848151811061422f5761422f6154ef565b60200260200101516001600160a01b03166001600160a01b03168152602001908152602001600020905087806142665750805460ff165b6142825760405162461bcd60e51b8152600401610a4490615d40565b60006142b4848481518110614299576142996154ef565b6020026020010151612710896138529092919063ffffffff16565b90508383815181106142c8576142c86154ef565b6020026020010151866142db91906154dc565b955060006142e98383614c92565b90506142f5818a61574e565b98508c6001600160a01b03168e6001600160a01b031687868151811061431d5761431d6154ef565b60200260200101516001600160a01b0316600080516020615da08339815191528f60028660405161435093929190615d10565b60405180910390a4505050808061436690615505565b9150506141ed565b505b6127108310156144b757601754604051634181ad4160e11b81526000916001600160a01b0316906383035a82906143ad908e908c90600401615787565b602060405180830381865afa1580156143ca573d6000803e3d6000fd5b505050506040513d601f19601f820116820180604052508101906143ee919061576e565b905080156144b55762ffffff89166000908152600b602090815260408083206002845282528083206001600160a01b038f168452909152902087806144345750805460ff165b6144505760405162461bcd60e51b8152600401610a4490615d40565b600061445c8284614c92565b9050614468818961574e565b97508b6001600160a01b03168d6001600160a01b03168e6001600160a01b0316600080516020615da08339815191528e6002866040516144aa93929190615d10565b60405180910390a450505b505b5050505095945050505050565b6016546040516325f48f9960e11b8152600091829182916001600160a01b031690634be91f32906144fb908b908990600401615787565b600060405180830381865afa158015614518573d6000803e3d6000fd5b505050506040513d6000823e601f3d908101601f191682016040526145409190810190615811565b9150915060005b825181101561468b5762ffffff87166000908152600b6020526040812081600381526020019081526020016000206000858481518110614589576145896154ef565b602002602001015160601c6001600160a01b03166001600160a01b03168152602001908152602001600020905085806145c35750805460ff165b6145df5760405162461bcd60e51b8152600401610a4490615d40565b6000614604828585815181106145f7576145f76154ef565b6020026020010151614c92565b9050614610818761574e565b9550896001600160a01b03168b6001600160a01b0316868581518110614638576146386154ef565b602002602001015160601c6001600160a01b0316600080516020615da08339815191528c60038660405161466e93929190615d10565b60405180910390a45050808061468390615505565b915050614547565b50505095945050505050565b6018546040516325f48f9960e11b8152600091829182916001600160a01b031690634be91f32906146ce908b908990600401615787565b600060405180830381865afa1580156146eb573d6000803e3d6000fd5b505050506040513d6000823e601f3d908101601f1916820160405261471391908101906158cb565b9150915060005b825181101561468b5762ffffff87166000908152600b602052604081208160048152602001908152602001600020600085848151811061475c5761475c6154ef565b60200260200101516001600160a01b03166001600160a01b03168152602001908152602001600020905085806147935750805460ff165b6147af5760405162461bcd60e51b8152600401610a4490615d40565b60006147c7828585815181106145f7576145f76154ef565b90506147d3818761574e565b9550896001600160a01b03168b6001600160a01b03168685815181106147fb576147fb6154ef565b60200260200101516001600160a01b0316600080516020615da08339815191528c60048660405161482e93929190615d10565b60405180910390a45050808061484390615505565b91505061471a565b600080838311156148615750600090508061486a565b50600190508183035b9250929050565b805415610f19578054600180830191600091849161488f919061564b565b8154811061489f5761489f6154ef565b60009182526020808320909101546001600160a01b0316835282019290925260400181205580548190806148d5576148d5615d69565b600082815260209020810160001990810180546001600160a01b0319169055019055614871565b60005b81518110156113265761492b8383838151811061491e5761491e6154ef565b6020026020010151614d43565b8061493581615505565b9150506148ff565b60008160000361494f57506000612455565b825461010090046001600160781b03166000819003614972576000915050612455565b8354600160801b90046001600160801b031680840361499357509050612455565b806001600160801b031684106149ab576149ab6159c7565b613476613c856001600160781b038416866001600160801b038516613852565b6000826149d9868685614dab565b1495945050505050565b62ffffff821660009081526006602090815260408083205460079092529091205482916001600160781b039081169116614a1d838261574e565b6001600160781b0316826001600160781b03161015614a4357614a40818361598a565b92505b62ffffff851660009081526007602052604081208054859290614a709084906001600160781b031661574e565b92506101000a8154816001600160781b0302191690836001600160781b03160217905550505092915050565b60008183106139b757816116fd565b62ffffff8316600090815260056020526040812054808203614b5f57601454604051636131910b60e11b815262ffffff871660048201526001600160a01b039091169063c263221690602401602060405180830381865afa158015614b14573d6000803e3d6000fd5b505050506040513d601f19601f82011682018060405250810190614b389190615bab565b62ffffff861660009081526005602052604090206001600160401b03919091169081905590505b6002836004811115614b7357614b736153de565b03614bfe57601754604051631257fcdb60e31b8152614bf6916001600160a01b0316906392bfe6d890614bb090606089901c908690600401615787565b602060405180830381865afa158015614bcd573d6000803e3d6000fd5b505050506040513d601f19601f82011682018060405250810190614bf1919061576e565b614df7565b9150506116fd565b6003836004811115614c1257614c126153de565b03614c5a57601654604051631190c4dd60e21b81526001600160601b03198616600482015260248101839052614bf6916001600160a01b031690634643137490604401614bb0565b601854604051631257fcdb60e31b8152614bf6916001600160a01b0316906392bfe6d890614bb090606089901c908690600401615787565b6000614c9e838361493d565b90506001600160781b0381161561245557614cb882614df7565b83548490601090614cda908490600160801b90046001600160801b0316615d7f565b82546001600160801b0391821661010093840a908102920219161790915584548392508591600191614d199185916001600160781b039190041661598a565b92506101000a8154816001600160781b0302191690836001600160781b0316021790555092915050565b6001600160a01b038116600090815260018301602052604090205415614d67575050565b8154600181810184556000848152602080822090930180546001600160a01b039095166001600160a01b031990951685179055845493815293019052604090912055565b600081815b84811015614dee57614dda82878784818110614dce57614dce6154ef565b90506020020135614e2b565b915080614de681615505565b915050614db0565b50949350505050565b60006001600160801b038211156133a0576040516306dfcc6560e41b81526080600482015260248101839052604401610a44565b6000818310614e475760008281526020849052604090206116fd565b60008381526020839052604090206116fd565b508054614e66906156f8565b6000825580601f10614e76575050565b601f016020900490600052602060002090810190610f1991905b808211156133a05760008155600101614e90565b600060208284031215614eb657600080fd5b5035919050565b60008083601f840112614ecf57600080fd5b5081356001600160401b03811115614ee657600080fd5b6020830191508360208260051b850101111561486a57600080fd5b62ffffff81168114610f1957600080fd5b600080600080600060608688031215614f2a57600080fd5b85356001600160401b0380821115614f4157600080fd5b614f4d89838a01614ebd565b909750955060208801359150614f6282614f01565b90935060408701359080821115614f7857600080fd5b50614f8588828901614ebd565b969995985093965092949392505050565b60008060208385031215614fa957600080fd5b82356001600160401b03811115614fbf57600080fd5b614fcb85828601614ebd565b90969095509350505050565b6001600160a01b0381168114610f1957600080fd5b600060208284031215614ffe57600080fd5b81356116fd81614fd7565b60006020828403121561501b57600080fd5b81356001600160e01b0319811681146116fd57600080fd5b60005b8381101561504e578181015183820152602001615036565b50506000910152565b6000815180845261506f816020860160208601615033565b601f01601f19169290920160200192915050565b82815260406020820152600061509c6040830184615057565b949350505050565b6020808252825182820181905260009190848201906040850190845b818110156150e55783516001600160a01b0316835292840192918401916001016150c0565b50909695505050505050565b8015158114610f1957600080fd5b60008060008060008060a0878903121561511857600080fd5b863561512381614fd7565b9550602087013561513381614fd7565b9450604087013561514381614f01565b93506060870135615153816150f1565b925060808701356001600160401b0381111561516e57600080fd5b61517a89828a01614ebd565b979a9699509497509295939492505050565b80356005811061374c57600080fd5b6000806000606084860312156151b057600080fd5b83356151bb81614fd7565b925060208401356151cb81614f01565b91506151d96040850161518c565b90509250925092565b600080604083850312156151f557600080fd5b823561520081614f01565b91506020830135615210816150f1565b809150509250929050565b634e487b7160e01b600052604160045260246000fd5b604051601f8201601f191681016001600160401b03811182821017156152595761525961521b565b604052919050565b60006001600160401b0382111561527a5761527a61521b565b5060051b60200190565b600082601f83011261529557600080fd5b813560206152aa6152a583615261565b615231565b82815260059290921b840181019181810190868411156152c957600080fd5b8286015b848110156152ed5780356152e081614fd7565b83529183019183016152cd565b509695505050505050565b6000806040838503121561530b57600080fd5b82356001600160401b038082111561532257600080fd5b818501915085601f83011261533657600080fd5b813560206153466152a583615261565b82815260059290921b8401810191818101908984111561536557600080fd5b948201945b838610156153835785358252948201949082019061536a565b9650508601359250508082111561539957600080fd5b506153a685828601615284565b9150509250929050565b600080604083850312156153c357600080fd5b82356153ce81614fd7565b9150602083013561521081614f01565b634e487b7160e01b600052602160045260246000fd5b6005811061541257634e487b7160e01b600052602160045260246000fd5b9052565b602080825282518282018190526000919060409081850190868401855b8281101561548b57815180516001600160601b0319168552868101516001600160781b0316878601528581015161546c878701826153f4565b5060609081015115159085015260809093019290850190600101615433565b5091979650505050505050565b600080604083850312156154ab57600080fd5b82356154b681614fd7565b9150602083013561521081614fd7565b634e487b7160e01b600052601160045260246000fd5b80820180821115612455576124556154c6565b634e487b7160e01b600052603260045260246000fd5b600060018201615517576155176154c6565b5060010190565b6020808252600d908201526c6e6f7420636c61696d61626c6560981b604082015260600190565b6001600160a01b03848116825260406020808401829052908301849052600091859160608501845b8781101561559457843561558081614fd7565b84168252938201939082019060010161556d565b5098975050505050505050565b600082601f8301126155b257600080fd5b815160206155c26152a583615261565b82815260059290921b840181019181810190868411156155e157600080fd5b8286015b848110156152ed5780516155f881614fd7565b83529183019183016155e5565b6000806040838503121561561857600080fd5b82516001600160401b0381111561562e57600080fd5b61563a858286016155a1565b925050602083015190509250929050565b81810381811115612455576124556154c6565b8082028115828204841417612455576124556154c6565b62ffffff818116838216019080821115615691576156916154c6565b5092915050565b6000602082840312156156aa57600080fd5b81516116fd81614f01565b6020808252600c908201526b61646472657373207a65726f60a01b604082015260600190565b6000602082840312156156ed57600080fd5b81516116fd81614fd7565b600181811c9082168061570c57607f821691505b60208210810361572c57634e487b7160e01b600052602260045260246000fd5b50919050565b60008251615744818460208701615033565b9190910192915050565b6001600160781b03818116838216019080821115615691576156916154c6565b60006020828403121561578057600080fd5b5051919050565b6001600160a01b03929092168252602082015260400190565b6001600160601b031981168114610f1957600080fd5b600082601f8301126157c757600080fd5b815160206157d76152a583615261565b82815260059290921b840181019181810190868411156157f657600080fd5b8286015b848110156152ed57805183529183019183016157fa565b6000806040838503121561582457600080fd5b82516001600160401b038082111561583b57600080fd5b818501915085601f83011261584f57600080fd5b8151602061585f6152a583615261565b82815260059290921b8401810191818101908984111561587e57600080fd5b948201945b838610156158a5578551615896816157a0565b82529482019490820190615883565b918801519196509093505050808211156158be57600080fd5b506153a6858286016157b6565b600080604083850312156158de57600080fd5b82516001600160401b03808211156158f557600080fd5b615901868387016155a1565b935060208501519150808211156158be57600080fd5b6000806000806080858703121561592d57600080fd5b84516001600160401b038082111561594457600080fd5b615950888389016155a1565b9550602087015191508082111561596657600080fd5b50615973878288016157b6565b604087015160609097015195989097509350505050565b6001600160781b03828116828216039080821115615691576156916154c6565b6000602082840312156159bc57600080fd5b81516116fd816150f1565b634e487b7160e01b600052600160045260246000fd5b60008235609e1983360301811261574457600080fd5b600060208284031215615a0557600080fd5b6116fd8261518c565b600060208284031215615a2057600080fd5b81356116fd81614f01565b600062ffffff808316818103615a4357615a436154c6565b6001019392505050565b601f82111561132657600081815260208120601f850160051c81016020861015615a745750805b601f850160051c820191505b8181101561333857828155600101615a80565b81516001600160401b03811115615aac57615aac61521b565b615ac081615aba84546156f8565b84615a4d565b602080601f831160018114615af55760008415615add5750858301515b600019600386901b1c1916600185901b178555613338565b600085815260208120601f198616915b82811015615b2457888601518255948401946001909101908401615b05565b5085821015615b425787850151600019600388901b60f8161c191681555b5050505050600190811b01905550565b63ffffffff60e01b8516815283602082015260606040820152816060820152818360808301376000818301608090810191909152601f909201601f191601019392505050565b6020815260006116fd6020830184615057565b600060208284031215615bbd57600080fd5b81516001600160401b03811681146116fd57600080fd5b634e487b7160e01b600052601260045260246000fd5b600082615bf957615bf9615bd4565b500490565b600082615c0d57615c0d615bd4565b500690565b600060208284031215615c2457600080fd5b81356116fd816157a0565b80356001600160781b038116811461374c57600080fd5b608081018235615c5581614f01565b62ffffff1682526020830135615c6a816157a0565b6001600160601b03191660208301526001600160781b03615c8d60408501615c2f565b166040830152615c9f6060840161518c565b61569160608401826153f4565b6000808335601e19843603018112615cc357600080fd5b8301803591506001600160401b03821115615cdd57600080fd5b6020019150600581901b360382131561486a57600080fd5b600060208284031215615d0757600080fd5b6116fd82615c2f565b62ffffff8416815260608101615d2960208301856153f4565b6001600160781b0383166040830152949350505050565b6020808252600f908201526e1b9bdd081a5b9a5d1a585b1a5cd959608a1b604082015260600190565b634e487b7160e01b600052603160045260246000fd5b6001600160801b03828116828216039080821115615691576156916154c656fe06f77960d1401cc7d724b5c2b5ad672b9dbf08d8b11516a38c21697c23fbb0d2a264697066735822122078c956a95de54337cbf5111f0e3f6073525a0c42207b2df1b2a6368d0b348c4e64736f6c63430008140033",
  "linkReferences": {},
  "deployedLinkReferences": {}
}