{
  "_format": "hh-sol-artifact-1",
  "contractName": "Submission",
  "sourceName": "contracts/protocol/implementation/Submission.sol",
  "abi": [
    {
      "inputs": [
        {
          "internalType": "contract IGovernanceSettings",
          "name": "_governanceSettings",
          "type": "address"
        },
        {
          "internalType": "address",
          "name": "_initialGovernance",
          "type": "address"
        },
        {
          "internalType": "address",
          "name": "_addressUpdater",
          "type": "address"
        },
        {
          "internalType": "bool",
          "name": "_submit3MethodEnabled",
          "type": "bool"
        }
      ],
      "stateMutability": "nonpayable",
      "type": "constructor"
    },
    {
      "anonymous": false,
      "inputs": [
        {
          "indexed": false,
          "internalType": "bytes4",
          "name": "selector",
          "type": "bytes4"
        },
        {
          "indexed": false,
          "internalType": "uint256",
          "name": "allowedAfterTimestamp",
          "type": "uint256"
        },
        {
          "indexed": false,
          "internalType": "bytes",
          "name": "encodedCall",
          "type": "bytes"
        }
      ],
      "name": "GovernanceCallTimelocked",
      "type": "event"
    },
    {
      "anonymous": false,
      "inputs": [
        {
          "indexed": false,
          "internalType": "address",
          "name": "initialGovernance",
          "type": "address"
        }
      ],
      "name": "GovernanceInitialised",
      "type": "event"
    },
    {
      "anonymous": false,
      "inputs": [
        {
          "indexed": false,
          "internalType": "address",
          "name": "governanceSettings",
          "type": "address"
        }
      ],
      "name": "GovernedProductionModeEntered",
      "type": "event"
    },
    {
      "anonymous": false,
      "inputs": [],
      "name": "NewVotingRoundInitiated",
      "type": "event"
    },
    {
      "anonymous": false,
      "inputs": [
        {
          "indexed": false,
          "internalType": "bytes4",
          "name": "selector",
          "type": "bytes4"
        },
        {
          "indexed": false,
          "internalType": "uint256",
          "name": "timestamp",
          "type": "uint256"
        }
      ],
      "name": "TimelockedGovernanceCallCanceled",
      "type": "event"
    },
    {
      "anonymous": false,
      "inputs": [
        {
          "indexed": false,
          "internalType": "bytes4",
          "name": "selector",
          "type": "bytes4"
        },
        {
          "indexed": false,
          "internalType": "uint256",
          "name": "timestamp",
          "type": "uint256"
        }
      ],
      "name": "TimelockedGovernanceCallExecuted",
      "type": "event"
    },
    {
      "inputs": [
        {
          "internalType": "bytes4",
          "name": "_selector",
          "type": "bytes4"
        }
      ],
      "name": "cancelGovernanceCall",
      "outputs": [],
      "stateMutability": "nonpayable",
      "type": "function"
    },
    {
      "inputs": [
        {
          "internalType": "bytes4",
          "name": "_selector",
          "type": "bytes4"
        }
      ],
      "name": "executeGovernanceCall",
      "outputs": [],
      "stateMutability": "nonpayable",
      "type": "function"
    },
    {
      "inputs": [],
      "name": "flareSystemsManager",
      "outputs": [
        {
          "internalType": "address",
          "name": "",
          "type": "address"
        }
      ],
      "stateMutability": "view",
      "type": "function"
    },
    {
      "inputs": [],
      "name": "getAddressUpdater",
      "outputs": [
        {
          "internalType": "address",
          "name": "_addressUpdater",
          "type": "address"
        }
      ],
      "stateMutability": "view",
      "type": "function"
    },
    {
      "inputs": [],
      "name": "getCurrentRandom",
      "outputs": [
        {
          "internalType": "uint256",
          "name": "_currentRandom",
          "type": "uint256"
        }
      ],
      "stateMutability": "view",
      "type": "function"
    },
    {
      "inputs": [],
      "name": "getCurrentRandomWithQuality",
      "outputs": [
        {
          "internalType": "uint256",
          "name": "_currentRandom",
          "type": "uint256"
        },
        {
          "internalType": "bool",
          "name": "_isSecureRandom",
          "type": "bool"
        }
      ],
      "stateMutability": "view",
      "type": "function"
    },
    {
      "inputs": [],
      "name": "getCurrentRandomWithQualityAndTimestamp",
      "outputs": [
        {
          "internalType": "uint256",
          "name": "_currentRandom",
          "type": "uint256"
        },
        {
          "internalType": "bool",
          "name": "_isSecureRandom",
          "type": "bool"
        },
        {
          "internalType": "uint256",
          "name": "_randomTimestamp",
          "type": "uint256"
        }
      ],
      "stateMutability": "view",
      "type": "function"
    },
    {
      "inputs": [],
      "name": "governance",
      "outputs": [
        {
          "internalType": "address",
          "name": "",
          "type": "address"
        }
      ],
      "stateMutability": "view",
      "type": "function"
    },
    {
      "inputs": [],
      "name": "governanceSettings",
      "outputs": [
        {
          "internalType": "contract IGovernanceSettings",
          "name": "",
          "type": "address"
        }
      ],
      "stateMutability": "view",
      "type": "function"
    },
    {
      "inputs": [
        {
          "internalType": "address[]",
          "name": "_submit1Addresses",
          "type": "address[]"
        },
        {
          "internalType": "address[]",
          "name": "_submit2Addresses",
          "type": "address[]"
        },
        {
          "internalType": "address[]",
          "name": "_submit3Addresses",
          "type": "address[]"
        },
        {
          "internalType": "address[]",
          "name": "_submitSignaturesAddresses",
          "type": "address[]"
        }
      ],
      "name": "initNewVotingRound",
      "outputs": [],
      "stateMutability": "nonpayable",
      "type": "function"
    },
    {
      "inputs": [
        {
          "internalType": "contract IGovernanceSettings",
          "name": "_governanceSettings",
          "type": "address"
        },
        {
          "internalType": "address",
          "name": "_initialGovernance",
          "type": "address"
        }
      ],
      "name": "initialise",
      "outputs": [],
      "stateMutability": "nonpayable",
      "type": "function"
    },
    {
      "inputs": [
        {
          "internalType": "address",
          "name": "_address",
          "type": "address"
        }
      ],
      "name": "isExecutor",
      "outputs": [
        {
          "internalType": "bool",
          "name": "",
          "type": "bool"
        }
      ],
      "stateMutability": "view",
      "type": "function"
    },
    {
      "inputs": [],
      "name": "productionMode",
      "outputs": [
        {
          "internalType": "bool",
          "name": "",
          "type": "bool"
        }
      ],
      "stateMutability": "view",
      "type": "function"
    },
    {
      "inputs": [],
      "name": "relay",
      "outputs": [
        {
          "internalType": "contract IRelay",
          "name": "",
          "type": "address"
        }
      ],
      "stateMutability": "view",
      "type": "function"
    },
    {
      "inputs": [
        {
          "internalType": "bool",
          "name": "_enabled",
          "type": "bool"
        }
      ],
      "name": "setSubmit3MethodEnabled",
      "outputs": [],
      "stateMutability": "nonpayable",
      "type": "function"
    },
    {
      "inputs": [
        {
          "internalType": "address",
          "name": "_submitAndPassContract",
          "type": "address"
        },
        {
          "internalType": "bytes4",
          "name": "_submitAndPassSelector",
          "type": "bytes4"
        }
      ],
      "name": "setSubmitAndPassData",
      "outputs": [],
      "stateMutability": "nonpayable",
      "type": "function"
    },
    {
      "inputs": [],
      "name": "submit1",
      "outputs": [
        {
          "internalType": "bool",
          "name": "",
          "type": "bool"
        }
      ],
      "stateMutability": "nonpayable",
      "type": "function"
    },
    {
      "inputs": [],
      "name": "submit2",
      "outputs": [
        {
          "internalType": "bool",
          "name": "",
          "type": "bool"
        }
      ],
      "stateMutability": "nonpayable",
      "type": "function"
    },
    {
      "inputs": [],
      "name": "submit3",
      "outputs": [
        {
          "internalType": "bool",
          "name": "",
          "type": "bool"
        }
      ],
      "stateMutability": "nonpayable",
      "type": "function"
    },
    {
      "inputs": [],
      "name": "submit3MethodEnabled",
      "outputs": [
        {
          "internalType": "bool",
          "name": "",
          "type": "bool"
        }
      ],
      "stateMutability": "view",
      "type": "function"
    },
    {
      "inputs": [
        {
          "internalType": "bytes",
          "name": "_data",
          "type": "bytes"
        }
      ],
      "name": "submitAndPass",
      "outputs": [
        {
          "internalType": "bool",
          "name": "",
          "type": "bool"
        }
      ],
      "stateMutability": "nonpayable",
      "type": "function"
    },
    {
      "inputs": [],
      "name": "submitAndPassContract",
      "outputs": [
        {
          "internalType": "address",
          "name": "",
          "type": "address"
        }
      ],
      "stateMutability": "view",
      "type": "function"
    },
    {
      "inputs": [],
      "name": "submitAndPassSelector",
      "outputs": [
        {
          "internalType": "bytes4",
          "name": "",
          "type": "bytes4"
        }
      ],
      "stateMutability": "view",
      "type": "function"
    },
    {
      "inputs": [],
      "name": "submitSignatures",
      "outputs": [
        {
          "internalType": "bool",
          "name": "",
          "type": "bool"
        }
      ],
      "stateMutability": "nonpayable",
      "type": "function"
    },
    {
      "inputs": [],
      "name": "switchToProductionMode",
      "outputs": [],
      "stateMutability": "nonpayable",
      "type": "function"
    },
    {
      "inputs": [
        {
          "internalType": "bytes4",
          "name": "selector",
          "type": "bytes4"
        }
      ],
      "name": "timelockedCalls",
      "outputs": [
        {
          "internalType": "uint256",
          "name": "allowedAfterTimestamp",
          "type": "uint256"
        },
        {
          "internalType": "bytes",
          "name": "encodedCall",
          "type": "bytes"
        }
      ],
      "stateMutability": "view",
      "type": "function"
    },
    {
      "inputs": [
        {
          "internalType": "bytes32[]",
          "name": "_contractNameHashes",
          "type": "bytes32[]"
        },
        {
          "internalType": "address[]",
          "name": "_contractAddresses",
          "type": "address[]"
        }
      ],
      "name": "updateContractAddresses",
      "outputs": [],
      "stateMutability": "nonpayable",
      "type": "function"
    }
  ],
  "bytecode": "0x60806040523480156200001157600080fd5b50604051620021a4380380620021a4833981016040819052620000349162000228565b81848462000043828262000096565b506200006f9050817f714f205b2abd25bef1d06a1af944e38c113fe6160375c4e1d6d5cf28848e771955565b5060048054911515600160a01b0260ff60a01b199092169190911790555062000294915050565b600054600160a01b900460ff1615620000f65760405162461bcd60e51b815260206004820152601460248201527f696e697469616c6973656420213d2066616c736500000000000000000000000060448201526064015b60405180910390fd5b6001600160a01b0382166200014e5760405162461bcd60e51b815260206004820152601860248201527f676f7665726e616e63652073657474696e6773207a65726f00000000000000006044820152606401620000ed565b6001600160a01b038116620001995760405162461bcd60e51b815260206004820152601060248201526f5f676f7665726e616e6365207a65726f60801b6044820152606401620000ed565b600080546001600160a01b038481166001600160a81b031990921691909117600160a01b17909155600180549183166001600160a01b0319909216821790556040519081527f9789733827840833afc031fb2ef9ab6894271f77bad2085687cf4ae5c7bee4db9060200160405180910390a15050565b6001600160a01b03811681146200022557600080fd5b50565b600080600080608085870312156200023f57600080fd5b84516200024c816200020f565b60208601519094506200025f816200020f565b604086015190935062000272816200020f565b606086015190925080151581146200028957600080fd5b939692955090935050565b611f0080620002a46000396000f3fe608060405234801561001057600080fd5b50600436106101a95760003560e01c80639ee7fe4d116100f9578063debfda3011610097578063ef88bf1311610071578063ef88bf13146103b2578063f5a98383146103c5578063f8ae8a2f146103cd578063faae7fc9146103e057600080fd5b8063debfda3014610383578063e17f212e14610396578063e1b157e7146103aa57600080fd5b8063afd7f821116100d3578063afd7f8211461031a578063b00c0b7614610347578063b59589d11461035a578063d89601fd1461036d57600080fd5b80639ee7fe4d146102c7578063a978fb6b146102da578063af9fbc3e146102f757600080fd5b806367fc402911610166578063833bf6c011610140578063833bf6c01461028657806393953af114610299578063941877d0146102ac5780639d00c9fd146102bf57600080fd5b806367fc40291461024a5780636c532fae1461025d57806374e6310e1461026557600080fd5b806332de7a9f146101ae5780635267a15d146101d757806357eed580146102125780635aa6e6751461021a5780635ff270791461022257806362354e0314610237575b600080fd5b6004546101c290600160a01b900460ff1681565b60405190151581526020015b60405180910390f35b7f714f205b2abd25bef1d06a1af944e38c113fe6160375c4e1d6d5cf28848e7719545b6040516001600160a01b0390911681526020016101ce565b6101c26103f3565b6101fa61042e565b61023561023036600461174d565b6104ca565b005b6000546101fa906001600160a01b031681565b61023561025836600461174d565b610755565b6101c2610836565b61027861027336600461174d565b61086b565b6040516101ce9291906117b8565b6101c26102943660046117d9565b610910565b6005546101fa906001600160a01b031681565b6102356102ba366004611859565b610a50565b6101c2610aa7565b6102356102d536600461188b565b610adc565b6102e2610b47565b604080519283529015156020830152016101ce565b6102ff610bbe565b604080519384529115156020840152908201526060016101ce565b60055461032e90600160a01b900460e01b81565b6040516001600160e01b031990911681526020016101ce565b61023561035536600461199f565b610c46565b6004546101fa906001600160a01b031681565b610375610d21565b6040519081526020016101ce565b6101c2610391366004611a58565b610dd2565b6000546101c290600160a81b900460ff1681565b6101c2610e55565b6102356103c0366004611a75565b610e8a565b610235610ff0565b6102356103db366004611aae565b6110b6565b6003546101fa906001600160a01b031681565b3360009081526009602052604081205460ff16156104285750336000908152600960205260409020805460ff19169055600190565b50600090565b60008054600160a81b900460ff1661045057506001546001600160a01b031690565b60008054906101000a90046001600160a01b03166001600160a01b031663732524946040518163ffffffff1660e01b8152600401602060405180830381865afa1580156104a1573d6000803e3d6000fd5b505050506040513d601f19601f820116820180604052508101906104c59190611b5b565b905090565b6104d333610dd2565b6105145760405162461bcd60e51b815260206004820152600d60248201526c37b7363c9032bc32b1baba37b960991b60448201526064015b60405180910390fd5b6001600160e01b031981166000908152600260205260408120805490910361057e5760405162461bcd60e51b815260206004820152601a60248201527f74696d656c6f636b3a20696e76616c69642073656c6563746f72000000000000604482015260640161050b565b80544210156105cf5760405162461bcd60e51b815260206004820152601960248201527f74696d656c6f636b3a206e6f7420616c6c6f7765642079657400000000000000604482015260640161050b565b60008160010180546105e090611b78565b80601f016020809104026020016040519081016040528092919081815260200182805461060c90611b78565b80156106595780601f1061062e57610100808354040283529160200191610659565b820191906000526020600020905b81548152906001019060200180831161063c57829003601f168201915b505050506001600160e01b031985166000908152600260205260408120818155929350905061068b60018301826116e6565b50506000805460ff60b01b1916600160b01b17815560405130906106b0908490611bb2565b6000604051808303816000865af19150503d80600081146106ed576040519150601f19603f3d011682016040523d82523d6000602084013e6106f2565b606091505b50506000805460ff60b01b19169055604080516001600160e01b0319871681524260208201529192507fa7326b57fc9cfe267aaea5e7f0b01757154d265620a0585819416ee9ddd2c438910160405180910390a161074f816112f6565b50505050565b61075d611313565b6001600160e01b0319811660009081526002602052604081205490036107c55760405162461bcd60e51b815260206004820152601a60248201527f74696d656c6f636b3a20696e76616c69642073656c6563746f72000000000000604482015260640161050b565b604080516001600160e01b0319831681524260208201527f7735b2391c38a81419c513e30ca578db7158eadd7101511b23e221c654d19cf8910160405180910390a16001600160e01b0319811660009081526002602052604081208181559061083160018301826116e6565b505050565b3360009081526006602052604081205460ff16156104285750336000908152600660205260409020805460ff19169055600190565b6002602052600090815260409020805460018201805491929161088d90611b78565b80601f01602080910402602001604051908101604052809291908181526020018280546108b990611b78565b80156109065780601f106108db57610100808354040283529160200191610906565b820191906000526020600020905b8154815290600101906020018083116108e957829003601f168201915b5050505050905082565b6005546000906001600160a01b0316158015906109425750600554600160a01b900460e01b6001600160e01b03191615155b6109875760405162461bcd60e51b81526020600482015260166024820152751cdd589b5a5d105b9914185cdcc8191a5cd8589b195960521b604482015260640161050b565b60055460405160009182916001600160a01b038216916109b991600160a01b90910460e01b9088908890602001611bce565b60408051601f19818403018152908290526109d391611bb2565b6000604051808303816000865af19150503d8060008114610a10576040519150601f19603f3d011682016040523d82523d6000602084013e610a15565b606091505b509150915081610a248261136f565b90610a425760405162461bcd60e51b815260040161050b9190611bf2565b506001925050505b92915050565b600054600160b01b900460ff1680610a725750600054600160a81b900460ff16155b15610a9957610a7f6113df565b6004805460ff60a01b1916600160a01b8315150217905550565b610aa4600036611417565b50565b3360009081526007602052604081205460ff16156104285750336000908152600760205260409020805460ff19169055600190565b600054600160b01b900460ff1680610afe5750600054600160a81b900460ff16155b15610b3857610b0b6113df565b6005805460e083901c600160a01b026001600160c01b03199091166001600160a01b038516171790555050565b610b43600036611417565b5050565b600480546040805163dbdff2c160e01b8152905160009384936001600160a01b03169263dbdff2c192818301926060928290030181865afa158015610b90573d6000803e3d6000fd5b505050506040513d601f19601f82011682018060405250810190610bb49190611c05565b5090939092509050565b6000806000600460009054906101000a90046001600160a01b03166001600160a01b031663dbdff2c16040518163ffffffff1660e01b8152600401606060405180830381865afa158015610c16573d6000803e3d6000fd5b505050506040513d601f19601f82011682018060405250810190610c3a9190611c05565b91959094509092509050565b7f714f205b2abd25bef1d06a1af944e38c113fe6160375c4e1d6d5cf28848e7719546001600160a01b0316336001600160a01b031614610cbf5760405162461bcd60e51b815260206004820152601460248201527337b7363c9030b2323932b9b9903ab83230ba32b960611b604482015260640161050b565b610d17610cf383836040518060400160405280600e81526020016d20b2323932b9b9aab83230ba32b960911b815250611563565b7f714f205b2abd25bef1d06a1af944e38c113fe6160375c4e1d6d5cf28848e771955565b610b43828261163e565b600480546040805163dbdff2c160e01b8152905160009384936001600160a01b03169263dbdff2c192818301926060928290030181865afa158015610d6a573d6000803e3d6000fd5b505050506040513d601f19601f82011682018060405250810190610d8e9190611c05565b50909250905080610dce5760405162461bcd60e51b815260206004820152600a6024820152694e6f742073656375726560b01b604482015260640161050b565b5090565b60008054600160a01b900460ff168015610a4a5750600054604051630debfda360e41b81526001600160a01b0384811660048301529091169063debfda3090602401602060405180830381865afa158015610e31573d6000803e3d6000fd5b505050506040513d601f19601f82011682018060405250810190610a4a9190611c3e565b3360009081526008602052604081205460ff16156104285750336000908152600860205260409020805460ff19169055600190565b600054600160a01b900460ff1615610edb5760405162461bcd60e51b8152602060048201526014602482015273696e697469616c6973656420213d2066616c736560601b604482015260640161050b565b6001600160a01b038216610f315760405162461bcd60e51b815260206004820152601860248201527f676f7665726e616e63652073657474696e6773207a65726f0000000000000000604482015260640161050b565b6001600160a01b038116610f7a5760405162461bcd60e51b815260206004820152601060248201526f5f676f7665726e616e6365207a65726f60801b604482015260640161050b565b600080546001600160a01b038481166001600160a81b031990921691909117600160a01b17909155600180549183166001600160a01b0319909216821790556040519081527f9789733827840833afc031fb2ef9ab6894271f77bad2085687cf4ae5c7bee4db9060200160405180910390a15050565b610ff8611313565b600054600160a81b900460ff16156110525760405162461bcd60e51b815260206004820152601a60248201527f616c726561647920696e2070726f64756374696f6e206d6f6465000000000000604482015260640161050b565b600180546001600160a01b031916905560008054600160a81b60ff60a81b198216179091556040516001600160a01b0390911681527f83af113638b5422f9e977cebc0aaf0eaf2188eb9a8baae7f9d46c42b33a1560c9060200160405180910390a1565b6003546001600160a01b031633146111105760405162461bcd60e51b815260206004820152601960248201527f6f6e6c7920666c6172652073797374656d206d616e6167657200000000000000604482015260640161050b565b60005b84518110156111785760016006600087848151811061113457611134611c5b565b6020908102919091018101516001600160a01b03168252810191909152604001600020805460ff19169115159190911790558061117081611c87565b915050611113565b5060005b83518110156111e15760016007600086848151811061119d5761119d611c5b565b6020908102919091018101516001600160a01b03168252810191909152604001600020805460ff1916911515919091179055806111d981611c87565b91505061117c565b50600454600160a01b900460ff161561125e5760005b825181101561125c5760016008600085848151811061121857611218611c5b565b6020908102919091018101516001600160a01b03168252810191909152604001600020805460ff19169115159190911790558061125481611c87565b9150506111f7565b505b60005b81518110156112c65760016009600084848151811061128257611282611c5b565b6020908102919091018101516001600160a01b03168252810191909152604001600020805460ff1916911515919091179055806112be81611c87565b915050611261565b506040517fb74d3a815b816fdb5f14fb14f14bf86e1a87dcbc3f23150f1c32f89cd4622f3d90600090a150505050565b3d604051818101604052816000823e821561130f578181f35b8181fd5b61131b61042e565b6001600160a01b0316336001600160a01b03161461136d5760405162461bcd60e51b815260206004820152600f60248201526e6f6e6c7920676f7665726e616e636560881b604482015260640161050b565b565b805160609060448110156113b857505060408051808201909152601d81527f5472616e73616374696f6e2072657665727465642073696c656e746c790000006020820152919050565b600319810160048401908152926113d89082810160200190602401611ca0565b9392505050565b600054600160b01b900460ff161561140f5733301461140057611400611d34565b6000805460ff60b01b19169055565b61136d611313565b61141f611313565b6000805460408051636221a54b60e01b81529051853593926001600160a01b031691636221a54b9160048083019260209291908290030181865afa15801561146b573d6000803e3d6000fd5b505050506040513d601f19601f8201168201806040525081019061148f9190611d4a565b9050600061149d8242611d63565b9050604051806040016040528082815260200186868080601f01602080910402602001604051908101604052809392919081815260200183838082843760009201829052509390945250506001600160e01b0319861681526002602090815260409091208351815590830151909150600182019061151b9082611dc4565b509050507fed948300a3694aa01d4a6b258bfd664350193d770c0b51f8387277f6d83ea3b6838287876040516115549493929190611e84565b60405180910390a15050505050565b600080826040516020016115779190611bf2565b6040516020818303038152906040528051906020012090506000805b86518110156115ef578681815181106115ae576115ae611c5b565b602002602001015183036115dd578581815181106115ce576115ce611c5b565b602002602001015191506115ef565b806115e781611c87565b915050611593565b506001600160a01b0381166116355760405162461bcd60e51b815260206004820152600c60248201526b61646472657373207a65726f60a01b604482015260640161050b565b95945050505050565b611674828260405180604001604052806013815260200172233630b932a9bcb9ba32b6b9a6b0b730b3b2b960691b815250611563565b600360006101000a8154816001600160a01b0302191690836001600160a01b031602179055506116c282826040518060400160405280600581526020016452656c617960d81b815250611563565b600480546001600160a01b0319166001600160a01b03929092169190911790555050565b5080546116f290611b78565b6000825580601f10611702575050565b601f016020900490600052602060002090810190610aa491905b80821115610dce576000815560010161171c565b80356001600160e01b03198116811461174857600080fd5b919050565b60006020828403121561175f57600080fd5b6113d882611730565b60005b8381101561178357818101518382015260200161176b565b50506000910152565b600081518084526117a4816020860160208601611768565b601f01601f19169290920160200192915050565b8281526040602082015260006117d1604083018461178c565b949350505050565b600080602083850312156117ec57600080fd5b823567ffffffffffffffff8082111561180457600080fd5b818501915085601f83011261181857600080fd5b81358181111561182757600080fd5b86602082850101111561183957600080fd5b60209290920196919550909350505050565b8015158114610aa457600080fd5b60006020828403121561186b57600080fd5b81356113d88161184b565b6001600160a01b0381168114610aa457600080fd5b6000806040838503121561189e57600080fd5b82356118a981611876565b91506118b760208401611730565b90509250929050565b634e487b7160e01b600052604160045260246000fd5b604051601f8201601f1916810167ffffffffffffffff811182821017156118ff576118ff6118c0565b604052919050565b600067ffffffffffffffff821115611921576119216118c0565b5060051b60200190565b600082601f83011261193c57600080fd5b8135602061195161194c83611907565b6118d6565b82815260059290921b8401810191818101908684111561197057600080fd5b8286015b8481101561199457803561198781611876565b8352918301918301611974565b509695505050505050565b600080604083850312156119b257600080fd5b823567ffffffffffffffff808211156119ca57600080fd5b818501915085601f8301126119de57600080fd5b813560206119ee61194c83611907565b82815260059290921b84018101918181019089841115611a0d57600080fd5b948201945b83861015611a2b57853582529482019490820190611a12565b96505086013592505080821115611a4157600080fd5b50611a4e8582860161192b565b9150509250929050565b600060208284031215611a6a57600080fd5b81356113d881611876565b60008060408385031215611a8857600080fd5b8235611a9381611876565b91506020830135611aa381611876565b809150509250929050565b60008060008060808587031215611ac457600080fd5b843567ffffffffffffffff80821115611adc57600080fd5b611ae88883890161192b565b95506020870135915080821115611afe57600080fd5b611b0a8883890161192b565b94506040870135915080821115611b2057600080fd5b611b2c8883890161192b565b93506060870135915080821115611b4257600080fd5b50611b4f8782880161192b565b91505092959194509250565b600060208284031215611b6d57600080fd5b81516113d881611876565b600181811c90821680611b8c57607f821691505b602082108103611bac57634e487b7160e01b600052602260045260246000fd5b50919050565b60008251611bc4818460208701611768565b9190910192915050565b6001600160e01b031984168152818360048301376000910160040190815292915050565b6020815260006113d8602083018461178c565b600080600060608486031215611c1a57600080fd5b835192506020840151611c2c8161184b565b80925050604084015190509250925092565b600060208284031215611c5057600080fd5b81516113d88161184b565b634e487b7160e01b600052603260045260246000fd5b634e487b7160e01b600052601160045260246000fd5b600060018201611c9957611c99611c71565b5060010190565b600060208284031215611cb257600080fd5b815167ffffffffffffffff80821115611cca57600080fd5b818401915084601f830112611cde57600080fd5b815181811115611cf057611cf06118c0565b611d03601f8201601f19166020016118d6565b9150808252856020828501011115611d1a57600080fd5b611d2b816020840160208601611768565b50949350505050565b634e487b7160e01b600052600160045260246000fd5b600060208284031215611d5c57600080fd5b5051919050565b80820180821115610a4a57610a4a611c71565b601f82111561083157600081815260208120601f850160051c81016020861015611d9d5750805b601f850160051c820191505b81811015611dbc57828155600101611da9565b505050505050565b815167ffffffffffffffff811115611dde57611dde6118c0565b611df281611dec8454611b78565b84611d76565b602080601f831160018114611e275760008415611e0f5750858301515b600019600386901b1c1916600185901b178555611dbc565b600085815260208120601f198616915b82811015611e5657888601518255948401946001909101908401611e37565b5085821015611e745787850151600019600388901b60f8161c191681555b5050505050600190811b01905550565b63ffffffff60e01b8516815283602082015260606040820152816060820152818360808301376000818301608090810191909152601f909201601f19160101939250505056fea2646970667358221220972f57008dc2e4d2b4b07f868ca0c2349712e27f3c77a2d5c60197ace7c51f1764736f6c63430008140033",
  "linkReferences": {},
  "deployedLinkReferences": {}
}