{
  "_format": "hh-sol-artifact-1",
  "contractName": "Submission",
  "sourceName": "contracts/protocol/implementation/Submission.sol",
  "abi": [
    {
      "inputs": [
        {
          "internalType": "contract IGovernanceSettings",
          "name": "_governanceSettings",
          "type": "address"
        },
        {
          "internalType": "address",
          "name": "_initialGovernance",
          "type": "address"
        },
        {
          "internalType": "address",
          "name": "_addressUpdater",
          "type": "address"
        },
        {
          "internalType": "bool",
          "name": "_submit3MethodEnabled",
          "type": "bool"
        }
      ],
      "stateMutability": "nonpayable",
      "type": "constructor"
    },
    {
      "anonymous": false,
      "inputs": [
        {
          "indexed": false,
          "internalType": "bytes4",
          "name": "selector",
          "type": "bytes4"
        },
        {
          "indexed": false,
          "internalType": "uint256",
          "name": "allowedAfterTimestamp",
          "type": "uint256"
        },
        {
          "indexed": false,
          "internalType": "bytes",
          "name": "encodedCall",
          "type": "bytes"
        }
      ],
      "name": "GovernanceCallTimelocked",
      "type": "event"
    },
    {
      "anonymous": false,
      "inputs": [
        {
          "indexed": false,
          "internalType": "address",
          "name": "initialGovernance",
          "type": "address"
        }
      ],
      "name": "GovernanceInitialised",
      "type": "event"
    },
    {
      "anonymous": false,
      "inputs": [
        {
          "indexed": false,
          "internalType": "address",
          "name": "governanceSettings",
          "type": "address"
        }
      ],
      "name": "GovernedProductionModeEntered",
      "type": "event"
    },
    {
      "anonymous": false,
      "inputs": [],
      "name": "NewVotingRoundInitiated",
      "type": "event"
    },
    {
      "anonymous": false,
      "inputs": [
        {
          "indexed": false,
          "internalType": "bytes4",
          "name": "selector",
          "type": "bytes4"
        },
        {
          "indexed": false,
          "internalType": "uint256",
          "name": "timestamp",
          "type": "uint256"
        }
      ],
      "name": "TimelockedGovernanceCallCanceled",
      "type": "event"
    },
    {
      "anonymous": false,
      "inputs": [
        {
          "indexed": false,
          "internalType": "bytes4",
          "name": "selector",
          "type": "bytes4"
        },
        {
          "indexed": false,
          "internalType": "uint256",
          "name": "timestamp",
          "type": "uint256"
        }
      ],
      "name": "TimelockedGovernanceCallExecuted",
      "type": "event"
    },
    {
      "inputs": [
        {
          "internalType": "bytes4",
          "name": "_selector",
          "type": "bytes4"
        }
      ],
      "name": "cancelGovernanceCall",
      "outputs": [],
      "stateMutability": "nonpayable",
      "type": "function"
    },
    {
      "inputs": [
        {
          "internalType": "bytes4",
          "name": "_selector",
          "type": "bytes4"
        }
      ],
      "name": "executeGovernanceCall",
      "outputs": [],
      "stateMutability": "nonpayable",
      "type": "function"
    },
    {
      "inputs": [],
      "name": "flareSystemManager",
      "outputs": [
        {
          "internalType": "contract FlareSystemManager",
          "name": "",
          "type": "address"
        }
      ],
      "stateMutability": "view",
      "type": "function"
    },
    {
      "inputs": [],
      "name": "getAddressUpdater",
      "outputs": [
        {
          "internalType": "address",
          "name": "_addressUpdater",
          "type": "address"
        }
      ],
      "stateMutability": "view",
      "type": "function"
    },
    {
      "inputs": [],
      "name": "governance",
      "outputs": [
        {
          "internalType": "address",
          "name": "",
          "type": "address"
        }
      ],
      "stateMutability": "view",
      "type": "function"
    },
    {
      "inputs": [],
      "name": "governanceSettings",
      "outputs": [
        {
          "internalType": "contract IGovernanceSettings",
          "name": "",
          "type": "address"
        }
      ],
      "stateMutability": "view",
      "type": "function"
    },
    {
      "inputs": [
        {
          "internalType": "address[]",
          "name": "_submit1Addresses",
          "type": "address[]"
        },
        {
          "internalType": "address[]",
          "name": "_submit2Addresses",
          "type": "address[]"
        },
        {
          "internalType": "address[]",
          "name": "_submit3Addresses",
          "type": "address[]"
        },
        {
          "internalType": "address[]",
          "name": "_submitSignaturesAddresses",
          "type": "address[]"
        }
      ],
      "name": "initNewVotingRound",
      "outputs": [],
      "stateMutability": "nonpayable",
      "type": "function"
    },
    {
      "inputs": [
        {
          "internalType": "contract IGovernanceSettings",
          "name": "_governanceSettings",
          "type": "address"
        },
        {
          "internalType": "address",
          "name": "_initialGovernance",
          "type": "address"
        }
      ],
      "name": "initialise",
      "outputs": [],
      "stateMutability": "nonpayable",
      "type": "function"
    },
    {
      "inputs": [
        {
          "internalType": "address",
          "name": "_address",
          "type": "address"
        }
      ],
      "name": "isExecutor",
      "outputs": [
        {
          "internalType": "bool",
          "name": "",
          "type": "bool"
        }
      ],
      "stateMutability": "view",
      "type": "function"
    },
    {
      "inputs": [],
      "name": "productionMode",
      "outputs": [
        {
          "internalType": "bool",
          "name": "",
          "type": "bool"
        }
      ],
      "stateMutability": "view",
      "type": "function"
    },
    {
      "inputs": [
        {
          "internalType": "bool",
          "name": "_enabled",
          "type": "bool"
        }
      ],
      "name": "setSubmit3MethodEnabled",
      "outputs": [],
      "stateMutability": "nonpayable",
      "type": "function"
    },
    {
      "inputs": [
        {
          "internalType": "address",
          "name": "_submitAndPassContract",
          "type": "address"
        },
        {
          "internalType": "bytes4",
          "name": "_submitAndPassSelector",
          "type": "bytes4"
        }
      ],
      "name": "setSubmitAndPassData",
      "outputs": [],
      "stateMutability": "nonpayable",
      "type": "function"
    },
    {
      "inputs": [],
      "name": "submit1",
      "outputs": [
        {
          "internalType": "bool",
          "name": "",
          "type": "bool"
        }
      ],
      "stateMutability": "nonpayable",
      "type": "function"
    },
    {
      "inputs": [],
      "name": "submit2",
      "outputs": [
        {
          "internalType": "bool",
          "name": "",
          "type": "bool"
        }
      ],
      "stateMutability": "nonpayable",
      "type": "function"
    },
    {
      "inputs": [],
      "name": "submit3",
      "outputs": [
        {
          "internalType": "bool",
          "name": "",
          "type": "bool"
        }
      ],
      "stateMutability": "nonpayable",
      "type": "function"
    },
    {
      "inputs": [],
      "name": "submit3MethodEnabled",
      "outputs": [
        {
          "internalType": "bool",
          "name": "",
          "type": "bool"
        }
      ],
      "stateMutability": "view",
      "type": "function"
    },
    {
      "inputs": [
        {
          "internalType": "bytes",
          "name": "_data",
          "type": "bytes"
        }
      ],
      "name": "submitAndPass",
      "outputs": [
        {
          "internalType": "bool",
          "name": "",
          "type": "bool"
        }
      ],
      "stateMutability": "nonpayable",
      "type": "function"
    },
    {
      "inputs": [],
      "name": "submitAndPassContract",
      "outputs": [
        {
          "internalType": "address",
          "name": "",
          "type": "address"
        }
      ],
      "stateMutability": "view",
      "type": "function"
    },
    {
      "inputs": [],
      "name": "submitAndPassSelector",
      "outputs": [
        {
          "internalType": "bytes4",
          "name": "",
          "type": "bytes4"
        }
      ],
      "stateMutability": "view",
      "type": "function"
    },
    {
      "inputs": [],
      "name": "submitSignatures",
      "outputs": [
        {
          "internalType": "bool",
          "name": "",
          "type": "bool"
        }
      ],
      "stateMutability": "nonpayable",
      "type": "function"
    },
    {
      "inputs": [],
      "name": "switchToProductionMode",
      "outputs": [],
      "stateMutability": "nonpayable",
      "type": "function"
    },
    {
      "inputs": [
        {
          "internalType": "bytes4",
          "name": "",
          "type": "bytes4"
        }
      ],
      "name": "timelockedCalls",
      "outputs": [
        {
          "internalType": "uint256",
          "name": "allowedAfterTimestamp",
          "type": "uint256"
        },
        {
          "internalType": "bytes",
          "name": "encodedCall",
          "type": "bytes"
        }
      ],
      "stateMutability": "view",
      "type": "function"
    },
    {
      "inputs": [
        {
          "internalType": "bytes32[]",
          "name": "_contractNameHashes",
          "type": "bytes32[]"
        },
        {
          "internalType": "address[]",
          "name": "_contractAddresses",
          "type": "address[]"
        }
      ],
      "name": "updateContractAddresses",
      "outputs": [],
      "stateMutability": "nonpayable",
      "type": "function"
    }
  ],
  "bytecode": "0x60806040523480156200001157600080fd5b5060405162001ea138038062001ea1833981016040819052620000349162000228565b81848462000043828262000096565b506200006f9050817f714f205b2abd25bef1d06a1af944e38c113fe6160375c4e1d6d5cf28848e771955565b5060038054911515600160a01b0260ff60a01b199092169190911790555062000294915050565b600054600160a01b900460ff1615620000f65760405162461bcd60e51b815260206004820152601460248201527f696e697469616c6973656420213d2066616c736500000000000000000000000060448201526064015b60405180910390fd5b6001600160a01b0382166200014e5760405162461bcd60e51b815260206004820152601860248201527f676f7665726e616e63652073657474696e6773207a65726f00000000000000006044820152606401620000ed565b6001600160a01b038116620001995760405162461bcd60e51b815260206004820152601060248201526f5f676f7665726e616e6365207a65726f60801b6044820152606401620000ed565b600080546001600160a01b038481166001600160a81b031990921691909117600160a01b17909155600180549183166001600160a01b0319909216821790556040519081527f9789733827840833afc031fb2ef9ab6894271f77bad2085687cf4ae5c7bee4db9060200160405180910390a15050565b6001600160a01b03811681146200022557600080fd5b50565b600080600080608085870312156200023f57600080fd5b84516200024c816200020f565b60208601519094506200025f816200020f565b604086015190935062000272816200020f565b606086015190925080151581146200028957600080fd5b939692955090935050565b611bfd80620002a46000396000f3fe608060405234801561001057600080fd5b506004361061014d5760003560e01c8063941877d0116100c3578063debfda301161007c578063debfda30146102d1578063e17f212e146102e4578063e1b157e7146102f8578063ef88bf1314610300578063f5a9838314610313578063f8ae8a2f1461031b57600080fd5b8063941877d0146102505780639d00c9fd146102635780639ee7fe4d1461026b578063afd7f8211461027e578063b00c0b76146102ab578063bb25d5df146102be57600080fd5b806362354e031161011557806362354e03146101db57806367fc4029146101ee5780636c532fae1461020157806374e6310e14610209578063833bf6c01461022a57806393953af11461023d57600080fd5b806332de7a9f146101525780635267a15d1461017b57806357eed580146101b65780635aa6e675146101be5780635ff27079146101c6575b600080fd5b60035461016690600160a01b900460ff1681565b60405190151581526020015b60405180910390f35b7f714f205b2abd25bef1d06a1af944e38c113fe6160375c4e1d6d5cf28848e7719545b6040516001600160a01b039091168152602001610172565b61016661032e565b61019e610369565b6101d96101d436600461147c565b610405565b005b60005461019e906001600160a01b031681565b6101d96101fc36600461147c565b610690565b610166610771565b61021c61021736600461147c565b6107a6565b6040516101729291906114ee565b61016661023836600461150f565b61084b565b60045461019e906001600160a01b031681565b6101d961025e36600461158f565b61098b565b6101666109e2565b6101d96102793660046115c1565b610a17565b60045461029290600160a01b900460e01b81565b6040516001600160e01b03199091168152602001610172565b6101d96102b93660046116d5565b610a82565b60035461019e906001600160a01b031681565b6101666102df36600461178e565b610b5d565b60005461016690600160a81b900460ff1681565b610166610be0565b6101d961030e3660046117ab565b610c15565b6101d9610d7b565b6101d96103293660046117e4565b610e41565b3360009081526008602052604081205460ff16156103635750336000908152600860205260409020805460ff19169055600190565b50600090565b60008054600160a81b900460ff1661038b57506001546001600160a01b031690565b60008054906101000a90046001600160a01b03166001600160a01b031663732524946040518163ffffffff1660e01b8152600401602060405180830381865afa1580156103dc573d6000803e3d6000fd5b505050506040513d601f19601f820116820180604052508101906104009190611891565b905090565b61040e33610b5d565b61044f5760405162461bcd60e51b815260206004820152600d60248201526c37b7363c9032bc32b1baba37b960991b60448201526064015b60405180910390fd5b6001600160e01b03198116600090815260026020526040812080549091036104b95760405162461bcd60e51b815260206004820152601a60248201527f74696d656c6f636b3a20696e76616c69642073656c6563746f720000000000006044820152606401610446565b805442101561050a5760405162461bcd60e51b815260206004820152601960248201527f74696d656c6f636b3a206e6f7420616c6c6f77656420796574000000000000006044820152606401610446565b600081600101805461051b906118ae565b80601f0160208091040260200160405190810160405280929190818152602001828054610547906118ae565b80156105945780601f1061056957610100808354040283529160200191610594565b820191906000526020600020905b81548152906001019060200180831161057757829003601f168201915b505050506001600160e01b03198516600090815260026020526040812081815592935090506105c66001830182611411565b50506000805460ff60b01b1916600160b01b17815560405130906105eb9084906118e8565b6000604051808303816000865af19150503d8060008114610628576040519150601f19603f3d011682016040523d82523d6000602084013e61062d565b606091505b50506000805460ff60b01b19169055604080516001600160e01b0319871681524260208201529192507fa7326b57fc9cfe267aaea5e7f0b01757154d265620a0585819416ee9ddd2c438910160405180910390a161068a81611081565b50505050565b61069861109e565b6001600160e01b0319811660009081526002602052604081205490036107005760405162461bcd60e51b815260206004820152601a60248201527f74696d656c6f636b3a20696e76616c69642073656c6563746f720000000000006044820152606401610446565b604080516001600160e01b0319831681524260208201527f7735b2391c38a81419c513e30ca578db7158eadd7101511b23e221c654d19cf8910160405180910390a16001600160e01b0319811660009081526002602052604081208181559061076c6001830182611411565b505050565b3360009081526005602052604081205460ff16156103635750336000908152600560205260409020805460ff19169055600190565b600260205260009081526040902080546001820180549192916107c8906118ae565b80601f01602080910402602001604051908101604052809291908181526020018280546107f4906118ae565b80156108415780601f1061081657610100808354040283529160200191610841565b820191906000526020600020905b81548152906001019060200180831161082457829003601f168201915b5050505050905082565b6004546000906001600160a01b03161580159061087d5750600454600160a01b900460e01b6001600160e01b03191615155b6108c25760405162461bcd60e51b81526020600482015260166024820152751cdd589b5a5d105b9914185cdcc8191a5cd8589b195960521b6044820152606401610446565b60045460405160009182916001600160a01b038216916108f491600160a01b90910460e01b9088908890602001611904565b60408051601f198184030181529082905261090e916118e8565b6000604051808303816000865af19150503d806000811461094b576040519150601f19603f3d011682016040523d82523d6000602084013e610950565b606091505b50915091508161095f826110fa565b9061097d5760405162461bcd60e51b81526004016104469190611928565b506001925050505b92915050565b600054600160b01b900460ff16806109ad5750600054600160a81b900460ff16155b156109d4576109ba611159565b6003805460ff60a01b1916600160a01b8315150217905550565b6109df600036611191565b50565b3360009081526006602052604081205460ff16156103635750336000908152600660205260409020805460ff19169055600190565b600054600160b01b900460ff1680610a395750600054600160a81b900460ff16155b15610a7357610a46611159565b6004805460e083901c600160a01b026001600160c01b03199091166001600160a01b038516171790555050565b610a7e600036611191565b5050565b7f714f205b2abd25bef1d06a1af944e38c113fe6160375c4e1d6d5cf28848e7719546001600160a01b0316336001600160a01b031614610afb5760405162461bcd60e51b815260206004820152601460248201527337b7363c9030b2323932b9b9903ab83230ba32b960611b6044820152606401610446565b610b53610b2f83836040518060400160405280600e81526020016d20b2323932b9b9aab83230ba32b960911b8152506112dd565b7f714f205b2abd25bef1d06a1af944e38c113fe6160375c4e1d6d5cf28848e771955565b610a7e82826113b8565b60008054600160a01b900460ff1680156109855750600054604051630debfda360e41b81526001600160a01b0384811660048301529091169063debfda3090602401602060405180830381865afa158015610bbc573d6000803e3d6000fd5b505050506040513d601f19601f82011682018060405250810190610985919061193b565b3360009081526007602052604081205460ff16156103635750336000908152600760205260409020805460ff19169055600190565b600054600160a01b900460ff1615610c665760405162461bcd60e51b8152602060048201526014602482015273696e697469616c6973656420213d2066616c736560601b6044820152606401610446565b6001600160a01b038216610cbc5760405162461bcd60e51b815260206004820152601860248201527f676f7665726e616e63652073657474696e6773207a65726f00000000000000006044820152606401610446565b6001600160a01b038116610d055760405162461bcd60e51b815260206004820152601060248201526f5f676f7665726e616e6365207a65726f60801b6044820152606401610446565b600080546001600160a01b038481166001600160a81b031990921691909117600160a01b17909155600180549183166001600160a01b0319909216821790556040519081527f9789733827840833afc031fb2ef9ab6894271f77bad2085687cf4ae5c7bee4db9060200160405180910390a15050565b610d8361109e565b600054600160a81b900460ff1615610ddd5760405162461bcd60e51b815260206004820152601a60248201527f616c726561647920696e2070726f64756374696f6e206d6f64650000000000006044820152606401610446565b600180546001600160a01b031916905560008054600160a81b60ff60a81b198216179091556040516001600160a01b0390911681527f83af113638b5422f9e977cebc0aaf0eaf2188eb9a8baae7f9d46c42b33a1560c9060200160405180910390a1565b6003546001600160a01b03163314610e9b5760405162461bcd60e51b815260206004820152601960248201527f6f6e6c7920666c6172652073797374656d206d616e61676572000000000000006044820152606401610446565b60005b8451811015610f0357600160056000878481518110610ebf57610ebf611958565b6020908102919091018101516001600160a01b03168252810191909152604001600020805460ff191691151591909117905580610efb81611984565b915050610e9e565b5060005b8351811015610f6c57600160066000868481518110610f2857610f28611958565b6020908102919091018101516001600160a01b03168252810191909152604001600020805460ff191691151591909117905580610f6481611984565b915050610f07565b50600354600160a01b900460ff1615610fe95760005b8251811015610fe757600160076000858481518110610fa357610fa3611958565b6020908102919091018101516001600160a01b03168252810191909152604001600020805460ff191691151591909117905580610fdf81611984565b915050610f82565b505b60005b81518110156110515760016008600084848151811061100d5761100d611958565b6020908102919091018101516001600160a01b03168252810191909152604001600020805460ff19169115159190911790558061104981611984565b915050610fec565b506040517fb74d3a815b816fdb5f14fb14f14bf86e1a87dcbc3f23150f1c32f89cd4622f3d90600090a150505050565b3d604051818101604052816000823e821561109a578181f35b8181fd5b6110a6610369565b6001600160a01b0316336001600160a01b0316146110f85760405162461bcd60e51b815260206004820152600f60248201526e6f6e6c7920676f7665726e616e636560881b6044820152606401610446565b565b606060448251101561113f57505060408051808201909152601d81527f5472616e73616374696f6e2072657665727465642073696c656e746c79000000602082015290565b60048201915081806020019051810190610985919061199d565b600054600160b01b900460ff16156111895733301461117a5761117a611a31565b6000805460ff60b01b19169055565b6110f861109e565b61119961109e565b6000805460408051636221a54b60e01b81529051853593926001600160a01b031691636221a54b9160048083019260209291908290030181865afa1580156111e5573d6000803e3d6000fd5b505050506040513d601f19601f820116820180604052508101906112099190611a47565b905060006112178242611a60565b9050604051806040016040528082815260200186868080601f01602080910402602001604051908101604052809392919081815260200183838082843760009201829052509390945250506001600160e01b031986168152600260209081526040909120835181559083015190915060018201906112959082611ac1565b509050507fed948300a3694aa01d4a6b258bfd664350193d770c0b51f8387277f6d83ea3b6838287876040516112ce9493929190611b81565b60405180910390a15050505050565b600080826040516020016112f19190611928565b6040516020818303038152906040528051906020012090506000805b86518110156113695786818151811061132857611328611958565b602002602001015183036113575785818151811061134857611348611958565b60200260200101519150611369565b8061136181611984565b91505061130d565b506001600160a01b0381166113af5760405162461bcd60e51b815260206004820152600c60248201526b61646472657373207a65726f60a01b6044820152606401610446565b95945050505050565b6113ed828260405180604001604052806012815260200171233630b932a9bcb9ba32b6a6b0b730b3b2b960711b8152506112dd565b600380546001600160a01b0319166001600160a01b03929092169190911790555050565b50805461141d906118ae565b6000825580601f1061142d575050565b601f0160209004906000526020600020908101906109df91905b8082111561145b5760008155600101611447565b5090565b80356001600160e01b03198116811461147757600080fd5b919050565b60006020828403121561148e57600080fd5b6114978261145f565b9392505050565b60005b838110156114b95781810151838201526020016114a1565b50506000910152565b600081518084526114da81602086016020860161149e565b601f01601f19169290920160200192915050565b82815260406020820152600061150760408301846114c2565b949350505050565b6000806020838503121561152257600080fd5b823567ffffffffffffffff8082111561153a57600080fd5b818501915085601f83011261154e57600080fd5b81358181111561155d57600080fd5b86602082850101111561156f57600080fd5b60209290920196919550909350505050565b80151581146109df57600080fd5b6000602082840312156115a157600080fd5b813561149781611581565b6001600160a01b03811681146109df57600080fd5b600080604083850312156115d457600080fd5b82356115df816115ac565b91506115ed6020840161145f565b90509250929050565b634e487b7160e01b600052604160045260246000fd5b604051601f8201601f1916810167ffffffffffffffff81118282101715611635576116356115f6565b604052919050565b600067ffffffffffffffff821115611657576116576115f6565b5060051b60200190565b600082601f83011261167257600080fd5b813560206116876116828361163d565b61160c565b82815260059290921b840181019181810190868411156116a657600080fd5b8286015b848110156116ca5780356116bd816115ac565b83529183019183016116aa565b509695505050505050565b600080604083850312156116e857600080fd5b823567ffffffffffffffff8082111561170057600080fd5b818501915085601f83011261171457600080fd5b813560206117246116828361163d565b82815260059290921b8401810191818101908984111561174357600080fd5b948201945b8386101561176157853582529482019490820190611748565b9650508601359250508082111561177757600080fd5b5061178485828601611661565b9150509250929050565b6000602082840312156117a057600080fd5b8135611497816115ac565b600080604083850312156117be57600080fd5b82356117c9816115ac565b915060208301356117d9816115ac565b809150509250929050565b600080600080608085870312156117fa57600080fd5b843567ffffffffffffffff8082111561181257600080fd5b61181e88838901611661565b9550602087013591508082111561183457600080fd5b61184088838901611661565b9450604087013591508082111561185657600080fd5b61186288838901611661565b9350606087013591508082111561187857600080fd5b5061188587828801611661565b91505092959194509250565b6000602082840312156118a357600080fd5b8151611497816115ac565b600181811c908216806118c257607f821691505b6020821081036118e257634e487b7160e01b600052602260045260246000fd5b50919050565b600082516118fa81846020870161149e565b9190910192915050565b6001600160e01b031984168152818360048301376000910160040190815292915050565b60208152600061149760208301846114c2565b60006020828403121561194d57600080fd5b815161149781611581565b634e487b7160e01b600052603260045260246000fd5b634e487b7160e01b600052601160045260246000fd5b6000600182016119965761199661196e565b5060010190565b6000602082840312156119af57600080fd5b815167ffffffffffffffff808211156119c757600080fd5b818401915084601f8301126119db57600080fd5b8151818111156119ed576119ed6115f6565b611a00601f8201601f191660200161160c565b9150808252856020828501011115611a1757600080fd5b611a2881602084016020860161149e565b50949350505050565b634e487b7160e01b600052600160045260246000fd5b600060208284031215611a5957600080fd5b5051919050565b808201808211156109855761098561196e565b601f82111561076c57600081815260208120601f850160051c81016020861015611a9a5750805b601f850160051c820191505b81811015611ab957828155600101611aa6565b505050505050565b815167ffffffffffffffff811115611adb57611adb6115f6565b611aef81611ae984546118ae565b84611a73565b602080601f831160018114611b245760008415611b0c5750858301515b600019600386901b1c1916600185901b178555611ab9565b600085815260208120601f198616915b82811015611b5357888601518255948401946001909101908401611b34565b5085821015611b715787850151600019600388901b60f8161c191681555b5050505050600190811b01905550565b63ffffffff60e01b8516815283602082015260606040820152816060820152818360808301376000818301608090810191909152601f909201601f19160101939250505056fea2646970667358221220143f88f038e781a64834c37be38b70eec781c606014e06a4806176569f6fff2264736f6c63430008140033",
  "linkReferences": {},
  "deployedLinkReferences": {}
}