{
  "_format": "hh-sol-artifact-1",
  "contractName": "VoterRegistry",
  "sourceName": "contracts/protocol/implementation/VoterRegistry.sol",
  "abi": [
    {
      "inputs": [
        {
          "internalType": "contract IGovernanceSettings",
          "name": "_governanceSettings",
          "type": "address"
        },
        {
          "internalType": "address",
          "name": "_initialGovernance",
          "type": "address"
        },
        {
          "internalType": "address",
          "name": "_addressUpdater",
          "type": "address"
        },
        {
          "internalType": "uint256",
          "name": "_maxVoters",
          "type": "uint256"
        },
        {
          "internalType": "uint256",
          "name": "_firstRewardEpochId",
          "type": "uint256"
        },
        {
          "internalType": "address[]",
          "name": "_initialVoters",
          "type": "address[]"
        },
        {
          "internalType": "uint16[]",
          "name": "_initialNormalisedWeights",
          "type": "uint16[]"
        }
      ],
      "stateMutability": "nonpayable",
      "type": "constructor"
    },
    {
      "inputs": [],
      "name": "ECDSAInvalidSignature",
      "type": "error"
    },
    {
      "inputs": [
        {
          "internalType": "uint256",
          "name": "length",
          "type": "uint256"
        }
      ],
      "name": "ECDSAInvalidSignatureLength",
      "type": "error"
    },
    {
      "inputs": [
        {
          "internalType": "bytes32",
          "name": "s",
          "type": "bytes32"
        }
      ],
      "name": "ECDSAInvalidSignatureS",
      "type": "error"
    },
    {
      "anonymous": false,
      "inputs": [
        {
          "indexed": false,
          "internalType": "bytes4",
          "name": "selector",
          "type": "bytes4"
        },
        {
          "indexed": false,
          "internalType": "uint256",
          "name": "allowedAfterTimestamp",
          "type": "uint256"
        },
        {
          "indexed": false,
          "internalType": "bytes",
          "name": "encodedCall",
          "type": "bytes"
        }
      ],
      "name": "GovernanceCallTimelocked",
      "type": "event"
    },
    {
      "anonymous": false,
      "inputs": [
        {
          "indexed": false,
          "internalType": "address",
          "name": "initialGovernance",
          "type": "address"
        }
      ],
      "name": "GovernanceInitialised",
      "type": "event"
    },
    {
      "anonymous": false,
      "inputs": [
        {
          "indexed": false,
          "internalType": "address",
          "name": "governanceSettings",
          "type": "address"
        }
      ],
      "name": "GovernedProductionModeEntered",
      "type": "event"
    },
    {
      "anonymous": false,
      "inputs": [
        {
          "indexed": false,
          "internalType": "bytes4",
          "name": "selector",
          "type": "bytes4"
        },
        {
          "indexed": false,
          "internalType": "uint256",
          "name": "timestamp",
          "type": "uint256"
        }
      ],
      "name": "TimelockedGovernanceCallCanceled",
      "type": "event"
    },
    {
      "anonymous": false,
      "inputs": [
        {
          "indexed": false,
          "internalType": "bytes4",
          "name": "selector",
          "type": "bytes4"
        },
        {
          "indexed": false,
          "internalType": "uint256",
          "name": "timestamp",
          "type": "uint256"
        }
      ],
      "name": "TimelockedGovernanceCallExecuted",
      "type": "event"
    },
    {
      "anonymous": false,
      "inputs": [
        {
          "indexed": false,
          "internalType": "address",
          "name": "voter",
          "type": "address"
        },
        {
          "indexed": false,
          "internalType": "uint256",
          "name": "untilRewardEpochId",
          "type": "uint256"
        }
      ],
      "name": "VoterChilled",
      "type": "event"
    },
    {
      "anonymous": false,
      "inputs": [
        {
          "indexed": false,
          "internalType": "address",
          "name": "voter",
          "type": "address"
        },
        {
          "indexed": false,
          "internalType": "uint24",
          "name": "rewardEpochId",
          "type": "uint24"
        },
        {
          "indexed": false,
          "internalType": "address",
          "name": "signingPolicyAddress",
          "type": "address"
        },
        {
          "indexed": false,
          "internalType": "address",
          "name": "delegationAddress",
          "type": "address"
        },
        {
          "indexed": false,
          "internalType": "address",
          "name": "submitAddress",
          "type": "address"
        },
        {
          "indexed": false,
          "internalType": "address",
          "name": "submitSignaturesAddress",
          "type": "address"
        },
        {
          "indexed": false,
          "internalType": "uint256",
          "name": "registrationWeight",
          "type": "uint256"
        }
      ],
      "name": "VoterRegistered",
      "type": "event"
    },
    {
      "anonymous": false,
      "inputs": [
        {
          "indexed": false,
          "internalType": "address",
          "name": "voter",
          "type": "address"
        },
        {
          "indexed": false,
          "internalType": "uint256",
          "name": "rewardEpochId",
          "type": "uint256"
        }
      ],
      "name": "VoterRemoved",
      "type": "event"
    },
    {
      "inputs": [
        {
          "internalType": "bytes4",
          "name": "_selector",
          "type": "bytes4"
        }
      ],
      "name": "cancelGovernanceCall",
      "outputs": [],
      "stateMutability": "nonpayable",
      "type": "function"
    },
    {
      "inputs": [
        {
          "internalType": "address",
          "name": "_voter",
          "type": "address"
        },
        {
          "internalType": "uint256",
          "name": "_noOfRewardEpochIds",
          "type": "uint256"
        }
      ],
      "name": "chillVoter",
      "outputs": [
        {
          "internalType": "uint256",
          "name": "_untilRewardEpochId",
          "type": "uint256"
        }
      ],
      "stateMutability": "nonpayable",
      "type": "function"
    },
    {
      "inputs": [
        {
          "internalType": "address",
          "name": "",
          "type": "address"
        }
      ],
      "name": "chilledUntilRewardEpochId",
      "outputs": [
        {
          "internalType": "uint256",
          "name": "",
          "type": "uint256"
        }
      ],
      "stateMutability": "view",
      "type": "function"
    },
    {
      "inputs": [
        {
          "internalType": "uint256",
          "name": "_rewardEpochId",
          "type": "uint256"
        }
      ],
      "name": "createSigningPolicySnapshot",
      "outputs": [
        {
          "internalType": "address[]",
          "name": "_signingPolicyAddresses",
          "type": "address[]"
        },
        {
          "internalType": "uint16[]",
          "name": "_normalisedWeights",
          "type": "uint16[]"
        },
        {
          "internalType": "uint16",
          "name": "_normalisedWeightsSum",
          "type": "uint16"
        }
      ],
      "stateMutability": "nonpayable",
      "type": "function"
    },
    {
      "inputs": [],
      "name": "entityManager",
      "outputs": [
        {
          "internalType": "contract EntityManager",
          "name": "",
          "type": "address"
        }
      ],
      "stateMutability": "view",
      "type": "function"
    },
    {
      "inputs": [
        {
          "internalType": "bytes4",
          "name": "_selector",
          "type": "bytes4"
        }
      ],
      "name": "executeGovernanceCall",
      "outputs": [],
      "stateMutability": "nonpayable",
      "type": "function"
    },
    {
      "inputs": [],
      "name": "flareSystemCalculator",
      "outputs": [
        {
          "internalType": "contract FlareSystemCalculator",
          "name": "",
          "type": "address"
        }
      ],
      "stateMutability": "view",
      "type": "function"
    },
    {
      "inputs": [],
      "name": "flareSystemManager",
      "outputs": [
        {
          "internalType": "contract FlareSystemManager",
          "name": "",
          "type": "address"
        }
      ],
      "stateMutability": "view",
      "type": "function"
    },
    {
      "inputs": [],
      "name": "getAddressUpdater",
      "outputs": [
        {
          "internalType": "address",
          "name": "_addressUpdater",
          "type": "address"
        }
      ],
      "stateMutability": "view",
      "type": "function"
    },
    {
      "inputs": [
        {
          "internalType": "uint256",
          "name": "_rewardEpochId",
          "type": "uint256"
        }
      ],
      "name": "getNumberOfRegisteredVoters",
      "outputs": [
        {
          "internalType": "uint256",
          "name": "",
          "type": "uint256"
        }
      ],
      "stateMutability": "view",
      "type": "function"
    },
    {
      "inputs": [
        {
          "internalType": "uint256",
          "name": "_rewardEpochId",
          "type": "uint256"
        },
        {
          "internalType": "address",
          "name": "_signingPolicyAddress",
          "type": "address"
        }
      ],
      "name": "getPublicKeyAndNormalisedWeight",
      "outputs": [
        {
          "internalType": "bytes32",
          "name": "_publicKeyPart1",
          "type": "bytes32"
        },
        {
          "internalType": "bytes32",
          "name": "_publicKeyPart2",
          "type": "bytes32"
        },
        {
          "internalType": "uint16",
          "name": "_normalisedWeight",
          "type": "uint16"
        }
      ],
      "stateMutability": "view",
      "type": "function"
    },
    {
      "inputs": [
        {
          "internalType": "uint256",
          "name": "_rewardEpochId",
          "type": "uint256"
        }
      ],
      "name": "getRegisteredSigningPolicyAddresses",
      "outputs": [
        {
          "internalType": "address[]",
          "name": "_signingPolicyAddresses",
          "type": "address[]"
        }
      ],
      "stateMutability": "view",
      "type": "function"
    },
    {
      "inputs": [
        {
          "internalType": "uint256",
          "name": "_rewardEpochId",
          "type": "uint256"
        }
      ],
      "name": "getRegisteredSubmitAddresses",
      "outputs": [
        {
          "internalType": "address[]",
          "name": "",
          "type": "address[]"
        }
      ],
      "stateMutability": "view",
      "type": "function"
    },
    {
      "inputs": [
        {
          "internalType": "uint256",
          "name": "_rewardEpochId",
          "type": "uint256"
        }
      ],
      "name": "getRegisteredSubmitSignaturesAddresses",
      "outputs": [
        {
          "internalType": "address[]",
          "name": "_signingPolicyAddresses",
          "type": "address[]"
        }
      ],
      "stateMutability": "view",
      "type": "function"
    },
    {
      "inputs": [
        {
          "internalType": "uint256",
          "name": "_rewardEpochId",
          "type": "uint256"
        }
      ],
      "name": "getRegisteredVoters",
      "outputs": [
        {
          "internalType": "address[]",
          "name": "",
          "type": "address[]"
        }
      ],
      "stateMutability": "view",
      "type": "function"
    },
    {
      "inputs": [
        {
          "internalType": "uint256",
          "name": "_rewardEpochId",
          "type": "uint256"
        },
        {
          "internalType": "address",
          "name": "_signingPolicyAddress",
          "type": "address"
        }
      ],
      "name": "getVoterWithNormalisedWeight",
      "outputs": [
        {
          "internalType": "address",
          "name": "_voter",
          "type": "address"
        },
        {
          "internalType": "uint16",
          "name": "_normalisedWeight",
          "type": "uint16"
        }
      ],
      "stateMutability": "view",
      "type": "function"
    },
    {
      "inputs": [],
      "name": "governance",
      "outputs": [
        {
          "internalType": "address",
          "name": "",
          "type": "address"
        }
      ],
      "stateMutability": "view",
      "type": "function"
    },
    {
      "inputs": [],
      "name": "governanceSettings",
      "outputs": [
        {
          "internalType": "contract IGovernanceSettings",
          "name": "",
          "type": "address"
        }
      ],
      "stateMutability": "view",
      "type": "function"
    },
    {
      "inputs": [
        {
          "internalType": "contract IGovernanceSettings",
          "name": "_governanceSettings",
          "type": "address"
        },
        {
          "internalType": "address",
          "name": "_initialGovernance",
          "type": "address"
        }
      ],
      "name": "initialise",
      "outputs": [],
      "stateMutability": "nonpayable",
      "type": "function"
    },
    {
      "inputs": [
        {
          "internalType": "address",
          "name": "_address",
          "type": "address"
        }
      ],
      "name": "isExecutor",
      "outputs": [
        {
          "internalType": "bool",
          "name": "",
          "type": "bool"
        }
      ],
      "stateMutability": "view",
      "type": "function"
    },
    {
      "inputs": [
        {
          "internalType": "address",
          "name": "_voter",
          "type": "address"
        },
        {
          "internalType": "uint256",
          "name": "_rewardEpochId",
          "type": "uint256"
        }
      ],
      "name": "isVoterRegistered",
      "outputs": [
        {
          "internalType": "bool",
          "name": "",
          "type": "bool"
        }
      ],
      "stateMutability": "view",
      "type": "function"
    },
    {
      "inputs": [],
      "name": "maxVoters",
      "outputs": [
        {
          "internalType": "uint256",
          "name": "",
          "type": "uint256"
        }
      ],
      "stateMutability": "view",
      "type": "function"
    },
    {
      "inputs": [
        {
          "internalType": "uint256",
          "name": "",
          "type": "uint256"
        }
      ],
      "name": "newSigningPolicyInitializationStartBlockNumber",
      "outputs": [
        {
          "internalType": "uint256",
          "name": "",
          "type": "uint256"
        }
      ],
      "stateMutability": "view",
      "type": "function"
    },
    {
      "inputs": [],
      "name": "productionMode",
      "outputs": [
        {
          "internalType": "bool",
          "name": "",
          "type": "bool"
        }
      ],
      "stateMutability": "view",
      "type": "function"
    },
    {
      "inputs": [
        {
          "internalType": "address",
          "name": "_voter",
          "type": "address"
        },
        {
          "components": [
            {
              "internalType": "uint8",
              "name": "v",
              "type": "uint8"
            },
            {
              "internalType": "bytes32",
              "name": "r",
              "type": "bytes32"
            },
            {
              "internalType": "bytes32",
              "name": "s",
              "type": "bytes32"
            }
          ],
          "internalType": "struct VoterRegistry.Signature",
          "name": "_signature",
          "type": "tuple"
        }
      ],
      "name": "registerVoter",
      "outputs": [],
      "stateMutability": "nonpayable",
      "type": "function"
    },
    {
      "inputs": [
        {
          "internalType": "uint256",
          "name": "_maxVoters",
          "type": "uint256"
        }
      ],
      "name": "setMaxVoters",
      "outputs": [],
      "stateMutability": "nonpayable",
      "type": "function"
    },
    {
      "inputs": [
        {
          "internalType": "uint256",
          "name": "_rewardEpochId",
          "type": "uint256"
        }
      ],
      "name": "setNewSigningPolicyInitializationStartBlockNumber",
      "outputs": [],
      "stateMutability": "nonpayable",
      "type": "function"
    },
    {
      "inputs": [
        {
          "internalType": "string",
          "name": "_contractName",
          "type": "string"
        }
      ],
      "name": "setSystemRegistrationContractName",
      "outputs": [],
      "stateMutability": "nonpayable",
      "type": "function"
    },
    {
      "inputs": [],
      "name": "switchToProductionMode",
      "outputs": [],
      "stateMutability": "nonpayable",
      "type": "function"
    },
    {
      "inputs": [
        {
          "internalType": "address",
          "name": "_voter",
          "type": "address"
        }
      ],
      "name": "systemRegistration",
      "outputs": [],
      "stateMutability": "nonpayable",
      "type": "function"
    },
    {
      "inputs": [],
      "name": "systemRegistrationContractAddress",
      "outputs": [
        {
          "internalType": "address",
          "name": "",
          "type": "address"
        }
      ],
      "stateMutability": "view",
      "type": "function"
    },
    {
      "inputs": [],
      "name": "systemRegistrationContractName",
      "outputs": [
        {
          "internalType": "string",
          "name": "",
          "type": "string"
        }
      ],
      "stateMutability": "view",
      "type": "function"
    },
    {
      "inputs": [
        {
          "internalType": "bytes4",
          "name": "",
          "type": "bytes4"
        }
      ],
      "name": "timelockedCalls",
      "outputs": [
        {
          "internalType": "uint256",
          "name": "allowedAfterTimestamp",
          "type": "uint256"
        },
        {
          "internalType": "bytes",
          "name": "encodedCall",
          "type": "bytes"
        }
      ],
      "stateMutability": "view",
      "type": "function"
    },
    {
      "inputs": [
        {
          "internalType": "bytes32[]",
          "name": "_contractNameHashes",
          "type": "bytes32[]"
        },
        {
          "internalType": "address[]",
          "name": "_contractAddresses",
          "type": "address[]"
        }
      ],
      "name": "updateContractAddresses",
      "outputs": [],
      "stateMutability": "nonpayable",
      "type": "function"
    }
  ],
  "bytecode": "0x60806040523480156200001157600080fd5b5060405162003af038038062003af0833981016040819052620000349162000554565b848787620000438282620002d2565b506200006f9050817f714f205b2abd25bef1d06a1af944e38c113fe6160375c4e1d6d5cf28848e771955565b5061ffff841115620000c85760405162461bcd60e51b815260206004820152601360248201527f5f6d6178566f7465727320746f6f20686967680000000000000000000000000060448201526064015b60405180910390fd5b600384905581518015801590620000df5750848111155b6200012d5760405162461bcd60e51b815260206004820152601d60248201527f5f696e697469616c566f74657273206c656e67746820696e76616c69640000006044820152606401620000bf565b815181146200017f5760405162461bcd60e51b815260206004820152601a60248201527f6172726179206c656e6774687320646f206e6f74206d617463680000000000006044820152606401620000bf565b600084815260056020526040812090805b83811015620002985782600001868281518110620001b257620001b26200067c565b60209081029190910181015182546001810184556000938452919092200180546001600160a01b0319166001600160a01b0390921691909117905584518590829081106200020457620002046200067c565b602002602001015161ffff168360010160008884815181106200022b576200022b6200067c565b60200260200101516001600160a01b03166001600160a01b03168152602001908152602001600020819055508481815181106200026c576200026c6200067c565b602002602001015182620002819190620006a8565b9150806200028f81620006cd565b91505062000190565b5060029091018054600160801b61ffff9093169283026001600160901b031990911690921791909117905550620006e99650505050505050565b600054600160a01b900460ff16156200032e5760405162461bcd60e51b815260206004820152601460248201527f696e697469616c6973656420213d2066616c73650000000000000000000000006044820152606401620000bf565b6001600160a01b038216620003865760405162461bcd60e51b815260206004820152601860248201527f676f7665726e616e63652073657474696e6773207a65726f00000000000000006044820152606401620000bf565b6001600160a01b038116620003d15760405162461bcd60e51b815260206004820152601060248201526f5f676f7665726e616e6365207a65726f60801b6044820152606401620000bf565b600080546001600160a01b038481166001600160a81b031990921691909117600160a01b17909155600180549183166001600160a01b0319909216821790556040519081527f9789733827840833afc031fb2ef9ab6894271f77bad2085687cf4ae5c7bee4db9060200160405180910390a15050565b6001600160a01b03811681146200045d57600080fd5b50565b634e487b7160e01b600052604160045260246000fd5b604051601f8201601f191681016001600160401b0381118282101715620004a157620004a162000460565b604052919050565b60006001600160401b03821115620004c557620004c562000460565b5060051b60200190565b600082601f830112620004e157600080fd5b81516020620004fa620004f483620004a9565b62000476565b82815260059290921b840181019181810190868411156200051a57600080fd5b8286015b848110156200054957805161ffff811681146200053b5760008081fd5b83529183019183016200051e565b509695505050505050565b600080600080600080600060e0888a0312156200057057600080fd5b87516200057d8162000447565b80975050602080890151620005928162000447565b60408a0151909750620005a58162000447565b60608a015160808b015160a08c015192985090965094506001600160401b0380821115620005d257600080fd5b818b0191508b601f830112620005e757600080fd5b8151620005f8620004f482620004a9565b81815260059190911b8301840190848101908e8311156200061857600080fd5b938501935b8285101562000643578451620006338162000447565b825293850193908501906200061d565b60c08e015190975094505050808311156200065d57600080fd5b50506200066d8a828b01620004cf565b91505092959891949750929550565b634e487b7160e01b600052603260045260246000fd5b634e487b7160e01b600052601160045260246000fd5b61ffff818116838216019080821115620006c657620006c662000692565b5092915050565b600060018201620006e257620006e262000692565b5060010190565b6133f780620006f96000396000f3fe608060405234801561001057600080fd5b50600436106102065760003560e01c80637c2cb9211161011a578063bb25d5df116100ad578063e17f212e1161007c578063e17f212e1461051d578063ef88bf1314610531578063f5a9838314610544578063fd587daf1461054c578063fff507531461055f57600080fd5b8063bb25d5df146104cc578063c452e47f146104df578063d5e50a6314610501578063debfda301461050a57600080fd5b80638d3efa35116100e95780638d3efa35146104805780638f7d095714610493578063b00c0b76146104a6578063b61b57fa146104b957600080fd5b80637c2cb9211461041057806387ad4ecf146104235780638ad32648146104365780638c6457281461044b57600080fd5b80634f5a99681161019d5780635aa6e6751161016c5780635aa6e675146103ae5780635ff27079146103b657806362354e03146103c957806367fc4029146103dc57806374e6310e146103ef57600080fd5b80634f5a99681461031657806350b1d61b1461036157806352131823146103745780635267a15d1461038757600080fd5b80632cc2c0f6116101d95780632cc2c0f614610286578063369e9434146102b157806344b571d9146102d1578063457c2e471461030357600080fd5b806318d1812d1461020b5780631e3f047e14610220578063201f267e1461025357806329a2e5ed14610266575b600080fd5b61021e610219366004612957565b61057f565b005b61024061022e366004612957565b60046020526000908152604090205481565b6040519081526020015b60405180910390f35b61024061026136600461297b565b610608565b6102796102743660046129a7565b610725565b60405161024a9190612a04565b600b54610299906001600160a01b031681565b6040516001600160a01b03909116815260200161024a565b6102406102bf3660046129a7565b60009081526005602052604090205490565b6102e46102df366004612a17565b6107b6565b60408051938452602084019290925261ffff169082015260600161024a565b6102796103113660046129a7565b6109b6565b61035161032436600461297b565b60009081526005602090815260408083206001600160a01b03949094168352600190930190522054151590565b604051901515815260200161024a565b600854610299906001600160a01b031681565b61021e6103823660046129a7565b610a22565b7f714f205b2abd25bef1d06a1af944e38c113fe6160375c4e1d6d5cf28848e771954610299565b610299610aa7565b61021e6103c4366004612a47565b610b43565b600054610299906001600160a01b031681565b61021e6103ea366004612a47565b610dc9565b6104026103fd366004612a47565b610ea5565b60405161024a929190612ac1565b61027961041e3660046129a7565b610f4a565b600954610299906001600160a01b031681565b61043e610f96565b60405161024a9190612ae2565b61045e610459366004612a17565b611024565b604080516001600160a01b03909316835261ffff90911660208301520161024a565b61021e61048e366004612b3c565b6111a2565b61021e6104a1366004612bd1565b61125a565b61021e6104b4366004612caa565b611366565b6102796104c73660046129a7565b611445565b600754610299906001600160a01b031681565b6104f26104ed3660046129a7565b611491565b60405161024a93929190612d63565b61024060035481565b610351610518366004612957565b61185b565b60005461035190600160a81b900460ff1681565b61021e61053f366004612dcb565b6118de565b61021e611a44565b61021e61055a3660046129a7565b611b0a565b61024061056d3660046129a7565b60066020526000908152604090205481565b600b546001600160a01b031633146105e85760405162461bcd60e51b815260206004820152602160248201527f6f6e6c792073797374656d20726567697374726174696f6e20636f6e747261636044820152601d60fa1b60648201526084015b60405180910390fd5b6000806105f483611b86565b91509150610603838383611d78565b505050565b60008054600160b01b900460ff168061062b5750600054600160a81b900460ff16155b156107145761063861224b565b60075460408051637056269760e01b815290516000926001600160a01b03169163705626979160048083019260209291908290030181865afa158015610682573d6000803e3d6000fd5b505050506040513d601f19601f820116820180604052508101906106a69190612df9565b62ffffff1690506106b78382612e34565b6001600160a01b038516600081815260046020908152604091829020849055815192835282018390529193507f0c2fcef22ab22997ed46cd27f7f0aa308600145401a7a141065d61c5d87341d2910160405180910390a15061071f565b61071f600036612285565b92915050565b60085460008281526005602090815260408083206006909252918290205491516369fe610d60e01b81526060936001600160a01b0316926369fe610d9261077192909190600401612e47565b600060405180830381865afa15801561078e573d6000803e3d6000fd5b505050506040513d6000823e601f3d908101601f1916820160405261071f9190810190612ea0565b600082815260056020526040812060020154819081906001600160801b0316806108225760405162461bcd60e51b815260206004820152601d60248201527f7265776172642065706f6368206964206e6f7420737570706f7274656400000060448201526064016105df565b60008681526006602052604080822054600854915163385e3b1360e21b81526001600160a01b03898116600483015260248201839052919392919091169063e178ec4c90604401602060405180830381865afa158015610886573d6000803e3d6000fd5b505050506040513d601f19601f820116820180604052508101906108aa9190612f3a565b60008981526005602090815260408083206001600160a01b0385168452600101909152902054909150806109175760405162461bcd60e51b81526020600482015260146024820152731d9bdd195c881b9bdd081c9959da5cdd195c995960621b60448201526064016105df565b8361092461ffff83612f57565b61092e9190612f6e565b600854604051631110456160e01b81526001600160a01b038581166004830152602482018790529297509116906311104561906044016040805180830381865afa158015610980573d6000803e3d6000fd5b505050506040513d601f19601f820116820180604052508101906109a49190612f90565b909a9099509497509395505050505050565b600081815260056020908152604091829020805483518184028101840190945280845260609392830182828015610a1657602002820191906000526020600020905b81546001600160a01b031681526001909101906020018083116109f8575b50505050509050919050565b6007546001600160a01b03163314610a785760405162461bcd60e51b815260206004820152601960248201527837b7363c90333630b9329039bcb9ba32b69036b0b730b3b2b960391b60448201526064016105df565b60008181526006602052604090205415610a9457610a94612fb4565b6000908152600660205260409020439055565b60008054600160a81b900460ff16610ac957506001546001600160a01b031690565b60008054906101000a90046001600160a01b03166001600160a01b031663732524946040518163ffffffff1660e01b8152600401602060405180830381865afa158015610b1a573d6000803e3d6000fd5b505050506040513d601f19601f82011682018060405250810190610b3e9190612f3a565b905090565b610b4c3361185b565b610b885760405162461bcd60e51b815260206004820152600d60248201526c37b7363c9032bc32b1baba37b960991b60448201526064016105df565b6001600160e01b0319811660009081526002602052604081208054909103610bf25760405162461bcd60e51b815260206004820152601a60248201527f74696d656c6f636b3a20696e76616c69642073656c6563746f7200000000000060448201526064016105df565b8054421015610c435760405162461bcd60e51b815260206004820152601960248201527f74696d656c6f636b3a206e6f7420616c6c6f776564207965740000000000000060448201526064016105df565b6000816001018054610c5490612fca565b80601f0160208091040260200160405190810160405280929190818152602001828054610c8090612fca565b8015610ccd5780601f10610ca257610100808354040283529160200191610ccd565b820191906000526020600020905b815481529060010190602001808311610cb057829003601f168201915b505050506001600160e01b0319851660009081526002602052604081208181559293509050610cff60018301826128f4565b50506000805460ff60b01b1916600160b01b1781556040513090610d24908490613004565b6000604051808303816000865af19150503d8060008114610d61576040519150601f19603f3d011682016040523d82523d6000602084013e610d66565b606091505b50506000805460ff60b01b19169055604080516001600160e01b0319871681524260208201529192507fa7326b57fc9cfe267aaea5e7f0b01757154d265620a0585819416ee9ddd2c438910160405180910390a1610dc3816123d1565b50505050565b610dd16123ee565b6001600160e01b031981166000908152600260205260408120549003610e395760405162461bcd60e51b815260206004820152601a60248201527f74696d656c6f636b3a20696e76616c69642073656c6563746f7200000000000060448201526064016105df565b604080516001600160e01b0319831681524260208201527f7735b2391c38a81419c513e30ca578db7158eadd7101511b23e221c654d19cf8910160405180910390a16001600160e01b0319811660009081526002602052604081208181559061060360018301826128f4565b60026020526000908152604090208054600182018054919291610ec790612fca565b80601f0160208091040260200160405190810160405280929190818152602001828054610ef390612fca565b8015610f405780601f10610f1557610100808354040283529160200191610f40565b820191906000526020600020905b815481529060010190602001808311610f2357829003601f168201915b5050505050905082565b6008546000828152600560209081526040808320600690925291829020549151631594a52760e21b81526060936001600160a01b031692635652949c9261077192909190600401612e47565b600a8054610fa390612fca565b80601f0160208091040260200160405190810160405280929190818152602001828054610fcf90612fca565b801561101c5780601f10610ff15761010080835404028352916020019161101c565b820191906000526020600020905b815481529060010190602001808311610fff57829003601f168201915b505050505081565b60008281526005602052604081206002015481906001600160801b03168061108e5760405162461bcd60e51b815260206004820152601d60248201527f7265776172642065706f6368206964206e6f7420737570706f7274656400000060448201526064016105df565b6008546000868152600660205260409081902054905163385e3b1360e21b81526001600160a01b038781166004830152602482019290925291169063e178ec4c90604401602060405180830381865afa1580156110ef573d6000803e3d6000fd5b505050506040513d601f19601f820116820180604052508101906111139190612f3a565b60008681526005602090815260408083206001600160a01b0385168452600101909152902054909350806111805760405162461bcd60e51b81526020600482015260146024820152731d9bdd195c881b9bdd081c9959da5cdd195c995960621b60448201526064016105df565b8161118d61ffff83612f57565b6111979190612f6e565b925050509250929050565b600054600160b01b900460ff16806111c45750600054600160a81b900460ff16155b1561124f576111d161224b565b600a6111dd828261306e565b506040516020016111f990602080825260009082015260400190565b60405160208183030381529060405280519060200120816040516020016112209190612ae2565b604051602081830303815290604052805190602001200361124c57600b80546001600160a01b03191690555b50565b61124c600036612285565b60008061126684611b86565b6040805162ffffff84166020808301919091526001600160a01b03891682840152825180830384018152606090920190925280519101207f19457468657265756d205369676e6564204d6573736167653a0a3332000000006000908152601c829052603c812093955091935091905060006112f7826112e8602089018961312e565b88602001358960400135612448565b905083606001516001600160a01b0316816001600160a01b0316146113525760405162461bcd60e51b8152602060048201526011602482015270696e76616c6964207369676e617475726560781b60448201526064016105df565b61135d878686611d78565b50505050505050565b7f714f205b2abd25bef1d06a1af944e38c113fe6160375c4e1d6d5cf28848e7719546001600160a01b0316336001600160a01b0316146113df5760405162461bcd60e51b815260206004820152601460248201527337b7363c9030b2323932b9b9903ab83230ba32b960611b60448201526064016105df565b61143761141383836040518060400160405280600e81526020016d20b2323932b9b9aab83230ba32b960911b815250612476565b7f714f205b2abd25bef1d06a1af944e38c113fe6160375c4e1d6d5cf28848e771955565b6114418282612551565b5050565b6008546000828152600560209081526040808320600690925291829020549151636558b56b60e01b81526060936001600160a01b031692636558b56b9261077192909190600401612e47565b60075460609081906000906001600160a01b031633146114ef5760405162461bcd60e51b815260206004820152601960248201527837b7363c90333630b9329039bcb9ba32b69036b0b730b3b2b960391b60448201526064016105df565b600084815260056020526040902080548061150c5761150c612fb4565b60008167ffffffffffffffff81111561152757611527612af5565b604051908082528060200260200182016040528015611550578160200160208202803683370190505b50905060008267ffffffffffffffff81111561156e5761156e612af5565b604051908082528060200260200182016040528015611597578160200160208202803683370190505b5090506000805b848110156116a3578560000181815481106115bb576115bb613151565b9060005260206000200160009054906101000a90046001600160a01b03168482815181106115eb576115eb613151565b60200260200101906001600160a01b031690816001600160a01b03168152505085600101600085838151811061162357611623613151565b60200260200101516001600160a01b03166001600160a01b031681526020019081526020016000205483828151811061165e5761165e613151565b60200260200101818152505082818151811061167c5761167c613151565b60200260200101518261168f9190612e34565b91508061169b81613167565b91505061159e565b5060085460008a815260066020526040908190205490516369fe610d60e01b81526001600160a01b03909216916369fe610d916116e591879190600401613180565b600060405180830381865afa158015611702573d6000803e3d6000fd5b505050506040513d6000823e601f3d908101601f1916820160405261172a9190810190612ea0565b97508367ffffffffffffffff81111561174557611745612af5565b60405190808252806020026020018201604052801561176e578160200160208202803683370190505b50965060005b84811015611811578161ffff801684838151811061179457611794613151565b60200260200101516117a69190612f57565b6117b09190612f6e565b8882815181106117c2576117c2613151565b602002602001019061ffff16908161ffff16815250508781815181106117ea576117ea613151565b6020026020010151876117fd91906131a2565b96508061180981613167565b915050611774565b5060029490940180546001600160801b0390951671ffffffffffffffffffffffffffffffffffff1990951694909417600160801b61ffff8716021790935550939592945090925050565b60008054600160a01b900460ff16801561071f5750600054604051630debfda360e41b81526001600160a01b0384811660048301529091169063debfda3090602401602060405180830381865afa1580156118ba573d6000803e3d6000fd5b505050506040513d601f19601f8201168201806040525081019061071f91906131d9565b600054600160a01b900460ff161561192f5760405162461bcd60e51b8152602060048201526014602482015273696e697469616c6973656420213d2066616c736560601b60448201526064016105df565b6001600160a01b0382166119855760405162461bcd60e51b815260206004820152601860248201527f676f7665726e616e63652073657474696e6773207a65726f000000000000000060448201526064016105df565b6001600160a01b0381166119ce5760405162461bcd60e51b815260206004820152601060248201526f5f676f7665726e616e6365207a65726f60801b60448201526064016105df565b600080546001600160a01b038481166001600160a81b031990921691909117600160a01b17909155600180549183166001600160a01b0319909216821790556040519081527f9789733827840833afc031fb2ef9ab6894271f77bad2085687cf4ae5c7bee4db9060200160405180910390a15050565b611a4c6123ee565b600054600160a81b900460ff1615611aa65760405162461bcd60e51b815260206004820152601a60248201527f616c726561647920696e2070726f64756374696f6e206d6f646500000000000060448201526064016105df565b600180546001600160a01b031916905560008054600160a81b60ff60a81b198216179091556040516001600160a01b0390911681527f83af113638b5422f9e977cebc0aaf0eaf2188eb9a8baae7f9d46c42b33a1560c9060200160405180910390a1565b600054600160b01b900460ff1680611b2c5750600054600160a81b900460ff16155b1561124f57611b3961224b565b61ffff811115611b815760405162461bcd60e51b81526020600482015260136024820152720bedac2f0acdee8cae4e640e8dede40d0d2ced606b1b60448201526064016105df565b600355565b6040805160808101825260008082526020820181905291810182905260608101829052600760009054906101000a90046001600160a01b03166001600160a01b031663705626976040518163ffffffff1660e01b8152600401602060405180830381865afa158015611bfc573d6000803e3d6000fd5b505050506040513d601f19601f82011682018060405250810190611c209190612df9565b611c2b9060016131f4565b6001600160a01b038416600090815260046020526040902054909250801580611c5957508262ffffff168111155b611c955760405162461bcd60e51b815260206004820152600d60248201526c1d9bdd195c8818da1a5b1b1959609a1b60448201526064016105df565b62ffffff831660009081526006602052604081205490819003611cfa5760405162461bcd60e51b815260206004820152601e60248201527f726567697374726174696f6e206e6f7420617661696c61626c6520796574000060448201526064016105df565b60085460405163ba77118b60e01b81526001600160a01b038781166004830152602482018490529091169063ba77118b90604401608060405180830381865afa158015611d4b573d6000803e3d6000fd5b505050506040513d601f19601f82011682018060405250810190611d6f9190613210565b92505050915091565b6007546040516302e074f160e31b815262ffffff8416600482015260009182916001600160a01b0390911690631703a788906024016040805180830381865afa158015611dc9573d6000803e3d6000fd5b505050506040513d601f19601f82011682018060405250810190611ded9190613295565b9150915081600003611e395760405162461bcd60e51b8152602060048201526015602482015274766f746520706f77657220626c6f636b207a65726f60581b60448201526064016105df565b80611e865760405162461bcd60e51b815260206004820152601e60248201527f766f74657220726567697374726174696f6e206e6f7420656e61626c6564000060448201526064016105df565b60095483516040516357b58c5f60e01b81526001600160a01b038881166004830152918216602482015262ffffff871660448201526064810185905260009291909116906357b58c5f906084016020604051808303816000875af1158015611ef2573d6000803e3d6000fd5b505050506040513d601f19601f82011682018060405250810190611f1691906132c1565b905060008111611f5c5760405162461bcd60e51b8152602060048201526011602482015270766f74657220776569676874207a65726f60781b60448201526064016105df565b62ffffff851660009081526005602090815260408083206001600160a01b038a168452600181019092529091205415611fcc5760405162461bcd60e51b8152602060048201526012602482015271185b1c9958591e481c9959da5cdd195c995960721b60448201526064016105df565b805460035481101561201e578154600180820184556000848152602080822090930180546001600160a01b0319166001600160a01b038d169081179091558152908401909152604090208390556121ac565b6000600019815b8381101561209257600085600001828154811061204457612044613151565b60009182526020808320909101546001600160a01b0316808352600189019091526040909120549091508084111561207d578093508294505b5050808061208a90613167565b915050612025565b508481106120d75760405162461bcd60e51b8152602060048201526012602482015271766f746520706f77657220746f6f206c6f7760701b60448201526064016105df565b60008460000183815481106120ee576120ee613151565b60009182526020808320909101546001600160a01b031680835260018801909152604082209190915585549091508b9086908590811061213057612130613151565b600091825260208083209190910180546001600160a01b0319166001600160a01b039485161790558d831682526001880181526040918290208990558151928416835262ffffff8d16908301527f98a7f87f8e2aa2f23f43769eff67782bb12946384b142d1ce1e8e38e05d9a3e6910160405180910390a15050505b7f36e64c7339af9c00a1b00e5da00d8c2159dff48c9c7020a2088b622e117778208888886060015189600001518a602001518b604001518960405161223997969594939291906001600160a01b03978816815262ffffff969096166020870152938616604086015291851660608501528416608084015290921660a082015260c081019190915260e00190565b60405180910390a15050505050505050565b600054600160b01b900460ff161561227b5733301461226c5761226c612fb4565b6000805460ff60b01b19169055565b6122836123ee565b565b61228d6123ee565b6000805460408051636221a54b60e01b81529051853593926001600160a01b031691636221a54b9160048083019260209291908290030181865afa1580156122d9573d6000803e3d6000fd5b505050506040513d601f19601f820116820180604052508101906122fd91906132c1565b9050600061230b8242612e34565b9050604051806040016040528082815260200186868080601f01602080910402602001604051908101604052809392919081815260200183838082843760009201829052509390945250506001600160e01b03198616815260026020908152604090912083518155908301519091506001820190612389908261306e565b509050507fed948300a3694aa01d4a6b258bfd664350193d770c0b51f8387277f6d83ea3b6838287876040516123c294939291906132da565b60405180910390a15050505050565b3d604051818101604052816000823e82156123ea578181f35b8181fd5b6123f6610aa7565b6001600160a01b0316336001600160a01b0316146122835760405162461bcd60e51b815260206004820152600f60248201526e6f6e6c7920676f7665726e616e636560881b60448201526064016105df565b60008060008061245a8888888861276c565b92509250925061246a828261283b565b50909695505050505050565b6000808260405160200161248a9190612ae2565b6040516020818303038152906040528051906020012090506000805b8651811015612502578681815181106124c1576124c1613151565b602002602001015183036124f0578581815181106124e1576124e1613151565b60200260200101519150612502565b806124fa81613167565b9150506124a6565b506001600160a01b0381166125485760405162461bcd60e51b815260206004820152600c60248201526b61646472657373207a65726f60a01b60448201526064016105df565b95945050505050565b612586828260405180604001604052806012815260200171233630b932a9bcb9ba32b6a6b0b730b3b2b960711b815250612476565b600760006101000a8154816001600160a01b0302191690836001600160a01b031602179055506125dc82826040518060400160405280600d81526020016c22b73a34ba3ca6b0b730b3b2b960991b815250612476565b600860006101000a8154816001600160a01b0302191690836001600160a01b0316021790555061263a828260405180604001604052806015815260200174233630b932a9bcb9ba32b6a1b0b631bab630ba37b960591b815250612476565b600980546001600160a01b0319166001600160a01b03929092169190911790556040805160208082015260009181019190915260600160405160208183030381529060405280519060200120600a6040516020016126989190613320565b6040516020818303038152906040528051906020012014611441576127488282600a80546126c590612fca565b80601f01602080910402602001604051908101604052809291908181526020018280546126f190612fca565b801561273e5780601f106127135761010080835404028352916020019161273e565b820191906000526020600020905b81548152906001019060200180831161272157829003601f168201915b5050505050612476565b600b80546001600160a01b0319166001600160a01b03929092169190911790555050565b600080807f7fffffffffffffffffffffffffffffff5d576e7357a4501ddfe92f46681b20a08411156127a75750600091506003905082612831565b604080516000808252602082018084528a905260ff891692820192909252606081018790526080810186905260019060a0016020604051602081039080840390855afa1580156127fb573d6000803e3d6000fd5b5050604051601f1901519150506001600160a01b03811661282757506000925060019150829050612831565b9250600091508190505b9450945094915050565b600082600381111561284f5761284f6133ab565b03612858575050565b600182600381111561286c5761286c6133ab565b0361288a5760405163f645eedf60e01b815260040160405180910390fd5b600282600381111561289e5761289e6133ab565b036128bf5760405163fce698f760e01b8152600481018290526024016105df565b60038260038111156128d3576128d36133ab565b03611441576040516335e2f38360e21b8152600481018290526024016105df565b50805461290090612fca565b6000825580601f10612910575050565b601f01602090049060005260206000209081019061124c91905b8082111561293e576000815560010161292a565b5090565b6001600160a01b038116811461124c57600080fd5b60006020828403121561296957600080fd5b813561297481612942565b9392505050565b6000806040838503121561298e57600080fd5b823561299981612942565b946020939093013593505050565b6000602082840312156129b957600080fd5b5035919050565b600081518084526020808501945080840160005b838110156129f95781516001600160a01b0316875295820195908201906001016129d4565b509495945050505050565b60208152600061297460208301846129c0565b60008060408385031215612a2a57600080fd5b823591506020830135612a3c81612942565b809150509250929050565b600060208284031215612a5957600080fd5b81356001600160e01b03198116811461297457600080fd5b60005b83811015612a8c578181015183820152602001612a74565b50506000910152565b60008151808452612aad816020860160208601612a71565b601f01601f19169290920160200192915050565b828152604060208201526000612ada6040830184612a95565b949350505050565b6020815260006129746020830184612a95565b634e487b7160e01b600052604160045260246000fd5b604051601f8201601f1916810167ffffffffffffffff81118282101715612b3457612b34612af5565b604052919050565b60006020808385031215612b4f57600080fd5b823567ffffffffffffffff80821115612b6757600080fd5b818501915085601f830112612b7b57600080fd5b813581811115612b8d57612b8d612af5565b612b9f601f8201601f19168501612b0b565b91508082528684828501011115612bb557600080fd5b8084840185840137600090820190930192909252509392505050565b6000808284036080811215612be557600080fd5b8335612bf081612942565b92506060601f1982011215612c0457600080fd5b506020830190509250929050565b600067ffffffffffffffff821115612c2c57612c2c612af5565b5060051b60200190565b600082601f830112612c4757600080fd5b81356020612c5c612c5783612c12565b612b0b565b82815260059290921b84018101918181019086841115612c7b57600080fd5b8286015b84811015612c9f578035612c9281612942565b8352918301918301612c7f565b509695505050505050565b60008060408385031215612cbd57600080fd5b823567ffffffffffffffff80821115612cd557600080fd5b818501915085601f830112612ce957600080fd5b81356020612cf9612c5783612c12565b82815260059290921b84018101918181019089841115612d1857600080fd5b948201945b83861015612d3657853582529482019490820190612d1d565b96505086013592505080821115612d4c57600080fd5b50612d5985828601612c36565b9150509250929050565b606081526000612d7660608301866129c0565b82810360208481019190915285518083528682019282019060005b81811015612db157845161ffff1683529383019391830191600101612d91565b505080935050505061ffff83166040830152949350505050565b60008060408385031215612dde57600080fd5b8235612de981612942565b91506020830135612a3c81612942565b600060208284031215612e0b57600080fd5b815162ffffff8116811461297457600080fd5b634e487b7160e01b600052601160045260246000fd5b8082018082111561071f5761071f612e1e565b6000604082016040835280855480835260608501915086600052602092508260002060005b82811015612e915781546001600160a01b031684529284019260019182019101612e6c565b50505092019290925292915050565b60006020808385031215612eb357600080fd5b825167ffffffffffffffff811115612eca57600080fd5b8301601f81018513612edb57600080fd5b8051612ee9612c5782612c12565b81815260059190911b82018301908381019087831115612f0857600080fd5b928401925b82841015612f2f578351612f2081612942565b82529284019290840190612f0d565b979650505050505050565b600060208284031215612f4c57600080fd5b815161297481612942565b808202811582820484141761071f5761071f612e1e565b600082612f8b57634e487b7160e01b600052601260045260246000fd5b500490565b60008060408385031215612fa357600080fd5b505080516020909101519092909150565b634e487b7160e01b600052600160045260246000fd5b600181811c90821680612fde57607f821691505b602082108103612ffe57634e487b7160e01b600052602260045260246000fd5b50919050565b60008251613016818460208701612a71565b9190910192915050565b601f82111561060357600081815260208120601f850160051c810160208610156130475750805b601f850160051c820191505b8181101561306657828155600101613053565b505050505050565b815167ffffffffffffffff81111561308857613088612af5565b61309c816130968454612fca565b84613020565b602080601f8311600181146130d157600084156130b95750858301515b600019600386901b1c1916600185901b178555613066565b600085815260208120601f198616915b82811015613100578886015182559484019460019091019084016130e1565b508582101561311e5787850151600019600388901b60f8161c191681555b5050505050600190811b01905550565b60006020828403121561314057600080fd5b813560ff8116811461297457600080fd5b634e487b7160e01b600052603260045260246000fd5b60006001820161317957613179612e1e565b5060010190565b60408152600061319360408301856129c0565b90508260208301529392505050565b61ffff8181168382160190808211156131bd576131bd612e1e565b5092915050565b805180151581146131d457600080fd5b919050565b6000602082840312156131eb57600080fd5b612974826131c4565b62ffffff8181168382160190808211156131bd576131bd612e1e565b60006080828403121561322257600080fd5b6040516080810181811067ffffffffffffffff8211171561324557613245612af5565b604052825161325381612942565b8152602083015161326381612942565b6020820152604083015161327681612942565b6040820152606083015161328981612942565b60608201529392505050565b600080604083850312156132a857600080fd5b825191506132b8602084016131c4565b90509250929050565b6000602082840312156132d357600080fd5b5051919050565b63ffffffff60e01b8516815283602082015260606040820152816060820152818360808301376000818301608090810191909152601f909201601f191601019392505050565b600060208083526000845461333481612fca565b80848701526040600180841660008114613355576001811461336f5761339d565b60ff1985168984015283151560051b89018301955061339d565b896000528660002060005b858110156133955781548b820186015290830190880161337a565b8a0184019650505b509398975050505050505050565b634e487b7160e01b600052602160045260246000fdfea2646970667358221220174421ab9dd8118bf43f1dc760672b9fe9b563d77b4eeb2dda14255c9b82823c64736f6c63430008140033",
  "linkReferences": {},
  "deployedLinkReferences": {}
}