{
  "_format": "hh-sol-artifact-1",
  "contractName": "VoterRegistry",
  "sourceName": "contracts/protocol/implementation/VoterRegistry.sol",
  "abi": [
    {
      "inputs": [
        {
          "internalType": "contract IGovernanceSettings",
          "name": "_governanceSettings",
          "type": "address"
        },
        {
          "internalType": "address",
          "name": "_initialGovernance",
          "type": "address"
        },
        {
          "internalType": "address",
          "name": "_addressUpdater",
          "type": "address"
        },
        {
          "internalType": "uint256",
          "name": "_maxVoters",
          "type": "uint256"
        },
        {
          "internalType": "uint256",
          "name": "_initialRewardEpochId",
          "type": "uint256"
        },
        {
          "internalType": "address[]",
          "name": "_initialVoters",
          "type": "address[]"
        },
        {
          "internalType": "uint16[]",
          "name": "_initialNormalisedWeights",
          "type": "uint16[]"
        }
      ],
      "stateMutability": "nonpayable",
      "type": "constructor"
    },
    {
      "inputs": [],
      "name": "ECDSAInvalidSignature",
      "type": "error"
    },
    {
      "inputs": [
        {
          "internalType": "uint256",
          "name": "length",
          "type": "uint256"
        }
      ],
      "name": "ECDSAInvalidSignatureLength",
      "type": "error"
    },
    {
      "inputs": [
        {
          "internalType": "bytes32",
          "name": "s",
          "type": "bytes32"
        }
      ],
      "name": "ECDSAInvalidSignatureS",
      "type": "error"
    },
    {
      "anonymous": false,
      "inputs": [
        {
          "indexed": false,
          "internalType": "bytes4",
          "name": "selector",
          "type": "bytes4"
        },
        {
          "indexed": false,
          "internalType": "uint256",
          "name": "allowedAfterTimestamp",
          "type": "uint256"
        },
        {
          "indexed": false,
          "internalType": "bytes",
          "name": "encodedCall",
          "type": "bytes"
        }
      ],
      "name": "GovernanceCallTimelocked",
      "type": "event"
    },
    {
      "anonymous": false,
      "inputs": [
        {
          "indexed": false,
          "internalType": "address",
          "name": "initialGovernance",
          "type": "address"
        }
      ],
      "name": "GovernanceInitialised",
      "type": "event"
    },
    {
      "anonymous": false,
      "inputs": [
        {
          "indexed": false,
          "internalType": "address",
          "name": "governanceSettings",
          "type": "address"
        }
      ],
      "name": "GovernedProductionModeEntered",
      "type": "event"
    },
    {
      "anonymous": false,
      "inputs": [
        {
          "indexed": false,
          "internalType": "bytes4",
          "name": "selector",
          "type": "bytes4"
        },
        {
          "indexed": false,
          "internalType": "uint256",
          "name": "timestamp",
          "type": "uint256"
        }
      ],
      "name": "TimelockedGovernanceCallCanceled",
      "type": "event"
    },
    {
      "anonymous": false,
      "inputs": [
        {
          "indexed": false,
          "internalType": "bytes4",
          "name": "selector",
          "type": "bytes4"
        },
        {
          "indexed": false,
          "internalType": "uint256",
          "name": "timestamp",
          "type": "uint256"
        }
      ],
      "name": "TimelockedGovernanceCallExecuted",
      "type": "event"
    },
    {
      "anonymous": false,
      "inputs": [
        {
          "indexed": false,
          "internalType": "address",
          "name": "voter",
          "type": "address"
        },
        {
          "indexed": false,
          "internalType": "uint256",
          "name": "untilRewardEpochId",
          "type": "uint256"
        }
      ],
      "name": "VoterChilled",
      "type": "event"
    },
    {
      "anonymous": false,
      "inputs": [
        {
          "indexed": false,
          "internalType": "address",
          "name": "voter",
          "type": "address"
        },
        {
          "indexed": false,
          "internalType": "uint24",
          "name": "rewardEpochId",
          "type": "uint24"
        },
        {
          "indexed": false,
          "internalType": "address",
          "name": "signingPolicyAddress",
          "type": "address"
        },
        {
          "indexed": false,
          "internalType": "address",
          "name": "delegationAddress",
          "type": "address"
        },
        {
          "indexed": false,
          "internalType": "address",
          "name": "submitAddress",
          "type": "address"
        },
        {
          "indexed": false,
          "internalType": "address",
          "name": "submitSignaturesAddress",
          "type": "address"
        },
        {
          "indexed": false,
          "internalType": "uint256",
          "name": "registrationWeight",
          "type": "uint256"
        }
      ],
      "name": "VoterRegistered",
      "type": "event"
    },
    {
      "anonymous": false,
      "inputs": [
        {
          "indexed": false,
          "internalType": "address",
          "name": "voter",
          "type": "address"
        },
        {
          "indexed": false,
          "internalType": "uint256",
          "name": "rewardEpochId",
          "type": "uint256"
        }
      ],
      "name": "VoterRemoved",
      "type": "event"
    },
    {
      "inputs": [
        {
          "internalType": "bytes4",
          "name": "_selector",
          "type": "bytes4"
        }
      ],
      "name": "cancelGovernanceCall",
      "outputs": [],
      "stateMutability": "nonpayable",
      "type": "function"
    },
    {
      "inputs": [
        {
          "internalType": "address",
          "name": "_voter",
          "type": "address"
        },
        {
          "internalType": "uint256",
          "name": "_noOfRewardEpochs",
          "type": "uint256"
        }
      ],
      "name": "chillVoter",
      "outputs": [
        {
          "internalType": "uint256",
          "name": "_untilRewardEpochId",
          "type": "uint256"
        }
      ],
      "stateMutability": "nonpayable",
      "type": "function"
    },
    {
      "inputs": [
        {
          "internalType": "address",
          "name": "",
          "type": "address"
        }
      ],
      "name": "chilledUntilRewardEpochId",
      "outputs": [
        {
          "internalType": "uint256",
          "name": "",
          "type": "uint256"
        }
      ],
      "stateMutability": "view",
      "type": "function"
    },
    {
      "inputs": [
        {
          "internalType": "uint256",
          "name": "_rewardEpochId",
          "type": "uint256"
        }
      ],
      "name": "createSigningPolicySnapshot",
      "outputs": [
        {
          "internalType": "address[]",
          "name": "_signingPolicyAddresses",
          "type": "address[]"
        },
        {
          "internalType": "uint16[]",
          "name": "_normalisedWeights",
          "type": "uint16[]"
        },
        {
          "internalType": "uint16",
          "name": "_normalisedWeightsSum",
          "type": "uint16"
        }
      ],
      "stateMutability": "nonpayable",
      "type": "function"
    },
    {
      "inputs": [],
      "name": "entityManager",
      "outputs": [
        {
          "internalType": "contract EntityManager",
          "name": "",
          "type": "address"
        }
      ],
      "stateMutability": "view",
      "type": "function"
    },
    {
      "inputs": [
        {
          "internalType": "bytes4",
          "name": "_selector",
          "type": "bytes4"
        }
      ],
      "name": "executeGovernanceCall",
      "outputs": [],
      "stateMutability": "nonpayable",
      "type": "function"
    },
    {
      "inputs": [],
      "name": "flareSystemCalculator",
      "outputs": [
        {
          "internalType": "contract FlareSystemCalculator",
          "name": "",
          "type": "address"
        }
      ],
      "stateMutability": "view",
      "type": "function"
    },
    {
      "inputs": [],
      "name": "flareSystemManager",
      "outputs": [
        {
          "internalType": "contract FlareSystemManager",
          "name": "",
          "type": "address"
        }
      ],
      "stateMutability": "view",
      "type": "function"
    },
    {
      "inputs": [],
      "name": "getAddressUpdater",
      "outputs": [
        {
          "internalType": "address",
          "name": "_addressUpdater",
          "type": "address"
        }
      ],
      "stateMutability": "view",
      "type": "function"
    },
    {
      "inputs": [
        {
          "internalType": "uint256",
          "name": "_rewardEpochId",
          "type": "uint256"
        }
      ],
      "name": "getNumberOfRegisteredVoters",
      "outputs": [
        {
          "internalType": "uint256",
          "name": "",
          "type": "uint256"
        }
      ],
      "stateMutability": "view",
      "type": "function"
    },
    {
      "inputs": [
        {
          "internalType": "uint256",
          "name": "_rewardEpochId",
          "type": "uint256"
        },
        {
          "internalType": "address",
          "name": "_signingPolicyAddress",
          "type": "address"
        }
      ],
      "name": "getPublicKeyAndNormalisedWeight",
      "outputs": [
        {
          "internalType": "bytes32",
          "name": "_publicKeyPart1",
          "type": "bytes32"
        },
        {
          "internalType": "bytes32",
          "name": "_publicKeyPart2",
          "type": "bytes32"
        },
        {
          "internalType": "uint16",
          "name": "_normalisedWeight",
          "type": "uint16"
        },
        {
          "internalType": "uint16",
          "name": "_normalisedWeightsSumOfVotersWithPublicKeys",
          "type": "uint16"
        }
      ],
      "stateMutability": "view",
      "type": "function"
    },
    {
      "inputs": [
        {
          "internalType": "uint256",
          "name": "_rewardEpochId",
          "type": "uint256"
        }
      ],
      "name": "getRegisteredDelegationAddresses",
      "outputs": [
        {
          "internalType": "address[]",
          "name": "_delegationAddresses",
          "type": "address[]"
        }
      ],
      "stateMutability": "view",
      "type": "function"
    },
    {
      "inputs": [
        {
          "internalType": "uint256",
          "name": "_rewardEpochId",
          "type": "uint256"
        }
      ],
      "name": "getRegisteredNodeIds",
      "outputs": [
        {
          "internalType": "bytes20[][]",
          "name": "_nodeIds",
          "type": "bytes20[][]"
        }
      ],
      "stateMutability": "view",
      "type": "function"
    },
    {
      "inputs": [
        {
          "internalType": "uint256",
          "name": "_rewardEpochId",
          "type": "uint256"
        }
      ],
      "name": "getRegisteredPublicKeys",
      "outputs": [
        {
          "internalType": "bytes32[]",
          "name": "_parts1",
          "type": "bytes32[]"
        },
        {
          "internalType": "bytes32[]",
          "name": "_parts2",
          "type": "bytes32[]"
        }
      ],
      "stateMutability": "view",
      "type": "function"
    },
    {
      "inputs": [
        {
          "internalType": "uint256",
          "name": "_rewardEpochId",
          "type": "uint256"
        }
      ],
      "name": "getRegisteredSigningPolicyAddresses",
      "outputs": [
        {
          "internalType": "address[]",
          "name": "_signingPolicyAddresses",
          "type": "address[]"
        }
      ],
      "stateMutability": "view",
      "type": "function"
    },
    {
      "inputs": [
        {
          "internalType": "uint256",
          "name": "_rewardEpochId",
          "type": "uint256"
        }
      ],
      "name": "getRegisteredSubmitAddresses",
      "outputs": [
        {
          "internalType": "address[]",
          "name": "",
          "type": "address[]"
        }
      ],
      "stateMutability": "view",
      "type": "function"
    },
    {
      "inputs": [
        {
          "internalType": "uint256",
          "name": "_rewardEpochId",
          "type": "uint256"
        }
      ],
      "name": "getRegisteredSubmitSignaturesAddresses",
      "outputs": [
        {
          "internalType": "address[]",
          "name": "_signingPolicyAddresses",
          "type": "address[]"
        }
      ],
      "stateMutability": "view",
      "type": "function"
    },
    {
      "inputs": [
        {
          "internalType": "uint256",
          "name": "_rewardEpochId",
          "type": "uint256"
        }
      ],
      "name": "getRegisteredVoters",
      "outputs": [
        {
          "internalType": "address[]",
          "name": "",
          "type": "address[]"
        }
      ],
      "stateMutability": "view",
      "type": "function"
    },
    {
      "inputs": [
        {
          "internalType": "uint256",
          "name": "_rewardEpochId",
          "type": "uint256"
        },
        {
          "internalType": "address",
          "name": "_signingPolicyAddress",
          "type": "address"
        }
      ],
      "name": "getVoterWithNormalisedWeight",
      "outputs": [
        {
          "internalType": "address",
          "name": "_voter",
          "type": "address"
        },
        {
          "internalType": "uint16",
          "name": "_normalisedWeight",
          "type": "uint16"
        }
      ],
      "stateMutability": "view",
      "type": "function"
    },
    {
      "inputs": [
        {
          "internalType": "uint256",
          "name": "_rewardEpochId",
          "type": "uint256"
        }
      ],
      "name": "getWeightsSums",
      "outputs": [
        {
          "internalType": "uint128",
          "name": "_weightsSum",
          "type": "uint128"
        },
        {
          "internalType": "uint16",
          "name": "_normalisedWeightsSum",
          "type": "uint16"
        },
        {
          "internalType": "uint16",
          "name": "_normalisedWeightsSumOfVotersWithPublicKeys",
          "type": "uint16"
        }
      ],
      "stateMutability": "view",
      "type": "function"
    },
    {
      "inputs": [],
      "name": "governance",
      "outputs": [
        {
          "internalType": "address",
          "name": "",
          "type": "address"
        }
      ],
      "stateMutability": "view",
      "type": "function"
    },
    {
      "inputs": [],
      "name": "governanceSettings",
      "outputs": [
        {
          "internalType": "contract IGovernanceSettings",
          "name": "",
          "type": "address"
        }
      ],
      "stateMutability": "view",
      "type": "function"
    },
    {
      "inputs": [
        {
          "internalType": "contract IGovernanceSettings",
          "name": "_governanceSettings",
          "type": "address"
        },
        {
          "internalType": "address",
          "name": "_initialGovernance",
          "type": "address"
        }
      ],
      "name": "initialise",
      "outputs": [],
      "stateMutability": "nonpayable",
      "type": "function"
    },
    {
      "inputs": [
        {
          "internalType": "address",
          "name": "_address",
          "type": "address"
        }
      ],
      "name": "isExecutor",
      "outputs": [
        {
          "internalType": "bool",
          "name": "",
          "type": "bool"
        }
      ],
      "stateMutability": "view",
      "type": "function"
    },
    {
      "inputs": [
        {
          "internalType": "address",
          "name": "_voter",
          "type": "address"
        },
        {
          "internalType": "uint256",
          "name": "_rewardEpochId",
          "type": "uint256"
        }
      ],
      "name": "isVoterRegistered",
      "outputs": [
        {
          "internalType": "bool",
          "name": "",
          "type": "bool"
        }
      ],
      "stateMutability": "view",
      "type": "function"
    },
    {
      "inputs": [],
      "name": "maxVoters",
      "outputs": [
        {
          "internalType": "uint256",
          "name": "",
          "type": "uint256"
        }
      ],
      "stateMutability": "view",
      "type": "function"
    },
    {
      "inputs": [
        {
          "internalType": "uint256",
          "name": "",
          "type": "uint256"
        }
      ],
      "name": "newSigningPolicyInitializationStartBlockNumber",
      "outputs": [
        {
          "internalType": "uint256",
          "name": "",
          "type": "uint256"
        }
      ],
      "stateMutability": "view",
      "type": "function"
    },
    {
      "inputs": [],
      "name": "productionMode",
      "outputs": [
        {
          "internalType": "bool",
          "name": "",
          "type": "bool"
        }
      ],
      "stateMutability": "view",
      "type": "function"
    },
    {
      "inputs": [
        {
          "internalType": "address",
          "name": "_voter",
          "type": "address"
        },
        {
          "components": [
            {
              "internalType": "uint8",
              "name": "v",
              "type": "uint8"
            },
            {
              "internalType": "bytes32",
              "name": "r",
              "type": "bytes32"
            },
            {
              "internalType": "bytes32",
              "name": "s",
              "type": "bytes32"
            }
          ],
          "internalType": "struct VoterRegistry.Signature",
          "name": "_signature",
          "type": "tuple"
        }
      ],
      "name": "registerVoter",
      "outputs": [],
      "stateMutability": "nonpayable",
      "type": "function"
    },
    {
      "inputs": [
        {
          "internalType": "uint256",
          "name": "_maxVoters",
          "type": "uint256"
        }
      ],
      "name": "setMaxVoters",
      "outputs": [],
      "stateMutability": "nonpayable",
      "type": "function"
    },
    {
      "inputs": [
        {
          "internalType": "uint256",
          "name": "_rewardEpochId",
          "type": "uint256"
        }
      ],
      "name": "setNewSigningPolicyInitializationStartBlockNumber",
      "outputs": [],
      "stateMutability": "nonpayable",
      "type": "function"
    },
    {
      "inputs": [
        {
          "internalType": "address",
          "name": "_systemRegistrationContractAddress",
          "type": "address"
        }
      ],
      "name": "setSystemRegistrationContractAddress",
      "outputs": [],
      "stateMutability": "nonpayable",
      "type": "function"
    },
    {
      "inputs": [],
      "name": "switchToProductionMode",
      "outputs": [],
      "stateMutability": "nonpayable",
      "type": "function"
    },
    {
      "inputs": [
        {
          "internalType": "address",
          "name": "_voter",
          "type": "address"
        }
      ],
      "name": "systemRegistration",
      "outputs": [],
      "stateMutability": "nonpayable",
      "type": "function"
    },
    {
      "inputs": [],
      "name": "systemRegistrationContractAddress",
      "outputs": [
        {
          "internalType": "address",
          "name": "",
          "type": "address"
        }
      ],
      "stateMutability": "view",
      "type": "function"
    },
    {
      "inputs": [
        {
          "internalType": "bytes4",
          "name": "",
          "type": "bytes4"
        }
      ],
      "name": "timelockedCalls",
      "outputs": [
        {
          "internalType": "uint256",
          "name": "allowedAfterTimestamp",
          "type": "uint256"
        },
        {
          "internalType": "bytes",
          "name": "encodedCall",
          "type": "bytes"
        }
      ],
      "stateMutability": "view",
      "type": "function"
    },
    {
      "inputs": [
        {
          "internalType": "bytes32[]",
          "name": "_contractNameHashes",
          "type": "bytes32[]"
        },
        {
          "internalType": "address[]",
          "name": "_contractAddresses",
          "type": "address[]"
        }
      ],
      "name": "updateContractAddresses",
      "outputs": [],
      "stateMutability": "nonpayable",
      "type": "function"
    }
  ],
  "bytecode": "0x60806040523480156200001157600080fd5b5060405162003f5a38038062003f5a833981016040819052620000349162000554565b848787620000438282620002d2565b506200006f9050817f714f205b2abd25bef1d06a1af944e38c113fe6160375c4e1d6d5cf28848e771955565b5061ffff841115620000c85760405162461bcd60e51b815260206004820152601360248201527f5f6d6178566f7465727320746f6f20686967680000000000000000000000000060448201526064015b60405180910390fd5b600384905581518015801590620000df5750848111155b6200012d5760405162461bcd60e51b815260206004820152601d60248201527f5f696e697469616c566f74657273206c656e67746820696e76616c69640000006044820152606401620000bf565b815181146200017f5760405162461bcd60e51b815260206004820152601a60248201527f6172726179206c656e6774687320646f206e6f74206d617463680000000000006044820152606401620000bf565b600084815260056020526040812090805b83811015620002985782600001868281518110620001b257620001b26200067c565b60209081029190910181015182546001810184556000938452919092200180546001600160a01b0319166001600160a01b0390921691909117905584518590829081106200020457620002046200067c565b602002602001015161ffff168360010160008884815181106200022b576200022b6200067c565b60200260200101516001600160a01b03166001600160a01b03168152602001908152602001600020819055508481815181106200026c576200026c6200067c565b602002602001015182620002819190620006a8565b9150806200028f81620006cd565b91505062000190565b5060029091018054600160801b61ffff9093169283026001600160901b031990911690921791909117905550620006e99650505050505050565b600054600160a01b900460ff16156200032e5760405162461bcd60e51b815260206004820152601460248201527f696e697469616c6973656420213d2066616c73650000000000000000000000006044820152606401620000bf565b6001600160a01b038216620003865760405162461bcd60e51b815260206004820152601860248201527f676f7665726e616e63652073657474696e6773207a65726f00000000000000006044820152606401620000bf565b6001600160a01b038116620003d15760405162461bcd60e51b815260206004820152601060248201526f5f676f7665726e616e6365207a65726f60801b6044820152606401620000bf565b600080546001600160a01b038481166001600160a81b031990921691909117600160a01b17909155600180549183166001600160a01b0319909216821790556040519081527f9789733827840833afc031fb2ef9ab6894271f77bad2085687cf4ae5c7bee4db9060200160405180910390a15050565b6001600160a01b03811681146200045d57600080fd5b50565b634e487b7160e01b600052604160045260246000fd5b604051601f8201601f191681016001600160401b0381118282101715620004a157620004a162000460565b604052919050565b60006001600160401b03821115620004c557620004c562000460565b5060051b60200190565b600082601f830112620004e157600080fd5b81516020620004fa620004f483620004a9565b62000476565b82815260059290921b840181019181810190868411156200051a57600080fd5b8286015b848110156200054957805161ffff811681146200053b5760008081fd5b83529183019183016200051e565b509695505050505050565b600080600080600080600060e0888a0312156200057057600080fd5b87516200057d8162000447565b80975050602080890151620005928162000447565b60408a0151909750620005a58162000447565b60608a015160808b015160a08c015192985090965094506001600160401b0380821115620005d257600080fd5b818b0191508b601f830112620005e757600080fd5b8151620005f8620004f482620004a9565b81815260059190911b8301840190848101908e8311156200061857600080fd5b938501935b8285101562000643578451620006338162000447565b825293850193908501906200061d565b60c08e015190975094505050808311156200065d57600080fd5b50506200066d8a828b01620004cf565b91505092959891949750929550565b634e487b7160e01b600052603260045260246000fd5b634e487b7160e01b600052601160045260246000fd5b61ffff818116838216019080821115620006c657620006c662000692565b5092915050565b600060018201620006e257620006e262000692565b5060010190565b61386180620006f96000396000f3fe608060405234801561001057600080fd5b50600436106102275760003560e01c806374e6310e11610130578063bb25d5df116100b8578063e17f212e1161007c578063e17f212e146105c5578063ef88bf13146105d9578063f5a98383146105ec578063fd587daf146105f4578063fff507531461060757600080fd5b8063bb25d5df14610561578063c452e47f14610574578063cc8356ca14610596578063d5e50a63146105a9578063debfda30146105b257600080fd5b80638f7d0957116100ff5780638f7d0957146104cb5780639508858e146104de578063987a45001461051b578063b00c0b761461053b578063b61b57fa1461054e57600080fd5b806374e6310e1461044f5780637c2cb9211461047057806387ad4ecf146104835780638c6457281461049657600080fd5b8063457c2e47116101b35780635267a15d116101825780635267a15d146103e75780635aa6e6751461040e5780635ff270791461041657806362354e031461042957806367fc40291461043c57600080fd5b8063457c2e47146103635780634f5a99681461037657806350b1d61b146103c157806352131823146103d457600080fd5b80632cc2c0f6116101fa5780632cc2c0f6146102a7578063369e9434146102d257806339661f5f146102f2578063448436b11461031357806344b571d91461032657600080fd5b806318d1812d1461022c5780631e3f047e14610241578063201f267e1461027457806329a2e5ed14610287575b600080fd5b61023f61023a366004612be1565b610627565b005b61026161024f366004612be1565b60046020526000908152604090205481565b6040519081526020015b60405180910390f35b610261610282366004612c05565b6106b0565b61029a610295366004612c31565b6107cd565b60405161026b9190612c8e565b600a546102ba906001600160a01b031681565b6040516001600160a01b03909116815260200161026b565b6102616102e0366004612c31565b60009081526005602052604090205490565b610305610300366004612c31565b610895565b60405161026b929190612cd1565b61023f610321366004612be1565b610968565b610339610334366004612cf6565b6109c3565b60408051948552602085019390935261ffff9182169284019290925216606082015260800161026b565b61029a610371366004612c31565b610ba1565b6103b1610384366004612c05565b60009081526005602090815260408083206001600160a01b03949094168352600190930190522054151590565b604051901515815260200161026b565b6008546102ba906001600160a01b031681565b61023f6103e2366004612c31565b610c0d565b7f714f205b2abd25bef1d06a1af944e38c113fe6160375c4e1d6d5cf28848e7719546102ba565b6102ba610c92565b61023f610424366004612d26565b610d2e565b6000546102ba906001600160a01b031681565b61023f61044a366004612d26565b610fb4565b61046261045d366004612d26565b611090565b60405161026b929190612da0565b61029a61047e366004612c31565b611135565b6009546102ba906001600160a01b031681565b6104a96104a4366004612cf6565b6111b8565b604080516001600160a01b03909316835261ffff90911660208301520161026b565b61023f6104d9366004612dc1565b6112fe565b6104f16104ec366004612c31565b61140a565b604080516001600160801b03909416845261ffff928316602085015291169082015260600161026b565b61052e610529366004612c31565b611463565b60405161026b9190612e02565b61023f610549366004612f7a565b61152a565b61029a61055c366004612c31565b611609565b6007546102ba906001600160a01b031681565b610587610582366004612c31565b61168c565b60405161026b93929190613033565b61029a6105a4366004612c31565b611b70565b61026160035481565b6103b16105c0366004612be1565b611bf3565b6000546103b190600160a81b900460ff1681565b61023f6105e736600461309b565b611c76565b61023f611ddc565b61023f610602366004612c31565b611ea2565b610261610615366004612c31565b60066020526000908152604090205481565b600a546001600160a01b031633146106905760405162461bcd60e51b815260206004820152602160248201527f6f6e6c792073797374656d20726567697374726174696f6e20636f6e747261636044820152601d60fa1b60648201526084015b60405180910390fd5b60008061069c83611f1e565b915091506106ab838383612110565b505050565b60008054600160b01b900460ff16806106d35750600054600160a81b900460ff16155b156107bc576106e06125e3565b60075460408051637056269760e01b815290516000926001600160a01b03169163705626979160048083019260209291908290030181865afa15801561072a573d6000803e3d6000fd5b505050506040513d601f19601f8201168201806040525081019061074e91906130c9565b62ffffff16905061075f8382613104565b6001600160a01b038516600081815260046020908152604091829020849055815192835282018390529193507f0c2fcef22ab22997ed46cd27f7f0aa308600145401a7a141065d61c5d87341d2910160405180910390a1506107c7565b6107c760003661261d565b92915050565b6000818152600560205260409020600201546060906001600160801b03166108075760405162461bcd60e51b815260040161068790613117565b60085460008381526005602090815260408083206006909252918290205491516369fe610d60e01b81526001600160a01b03909316926369fe610d92610850929160040161314e565b600060405180830381865afa15801561086d573d6000803e3d6000fd5b505050506040513d6000823e601f3d908101601f191682016040526107c791908101906131a7565b60008181526005602052604090206002015460609081906001600160801b03166108d15760405162461bcd60e51b815260040161068790613117565b600854600084815260056020908152604080832060069092529182902054915163bda9a28b60e01b81526001600160a01b039093169263bda9a28b9261091a929160040161314e565b600060405180830381865afa158015610937573d6000803e3d6000fd5b505050506040513d6000823e601f3d908101601f1916820160405261095f919081019061329c565b91509150915091565b600054600160b01b900460ff168061098a5750600054600160a81b900460ff16155b156109b5576109976125e3565b600a80546001600160a01b0319166001600160a01b03831617905550565b6109c060003661261d565b50565b60008281526005602052604081206002810154829182918291906001600160801b031680610a035760405162461bcd60e51b815260040161068790613117565b60008881526006602052604080822054600854915163385e3b1360e21b81526001600160a01b038b8116600483015260248201839052919392919091169063e178ec4c90604401602060405180830381865afa158015610a67573d6000803e3d6000fd5b505050506040513d601f19601f82011682018060405250810190610a8b91906132f6565b6001600160a01b038116600090815260018601602052604090205490915080610aed5760405162461bcd60e51b81526020600482015260146024820152731d9bdd195c881b9bdd081c9959da5cdd195c995960621b6044820152606401610687565b83610afa61ffff83613313565b610b04919061332a565b600854604051631110456160e01b81526001600160a01b038581166004830152602482018790529299509116906311104561906044016040805180830381865afa158015610b56573d6000803e3d6000fd5b505050506040513d601f19601f82011682018060405250810190610b7a919061334c565b60029690960154909c959b509699505050600160901b90940461ffff169550909350505050565b600081815260056020908152604091829020805483518184028101840190945280845260609392830182828015610c0157602002820191906000526020600020905b81546001600160a01b03168152600190910190602001808311610be3575b50505050509050919050565b6007546001600160a01b03163314610c635760405162461bcd60e51b815260206004820152601960248201527837b7363c90333630b9329039bcb9ba32b69036b0b730b3b2b960391b6044820152606401610687565b60008181526006602052604090205415610c7f57610c7f613370565b6000908152600660205260409020439055565b60008054600160a81b900460ff16610cb457506001546001600160a01b031690565b60008054906101000a90046001600160a01b03166001600160a01b031663732524946040518163ffffffff1660e01b8152600401602060405180830381865afa158015610d05573d6000803e3d6000fd5b505050506040513d601f19601f82011682018060405250810190610d2991906132f6565b905090565b610d3733611bf3565b610d735760405162461bcd60e51b815260206004820152600d60248201526c37b7363c9032bc32b1baba37b960991b6044820152606401610687565b6001600160e01b0319811660009081526002602052604081208054909103610ddd5760405162461bcd60e51b815260206004820152601a60248201527f74696d656c6f636b3a20696e76616c69642073656c6563746f720000000000006044820152606401610687565b8054421015610e2e5760405162461bcd60e51b815260206004820152601960248201527f74696d656c6f636b3a206e6f7420616c6c6f77656420796574000000000000006044820152606401610687565b6000816001018054610e3f90613386565b80601f0160208091040260200160405190810160405280929190818152602001828054610e6b90613386565b8015610eb85780601f10610e8d57610100808354040283529160200191610eb8565b820191906000526020600020905b815481529060010190602001808311610e9b57829003601f168201915b505050506001600160e01b0319851660009081526002602052604081208181559293509050610eea6001830182612b7e565b50506000805460ff60b01b1916600160b01b1781556040513090610f0f9084906133c0565b6000604051808303816000865af19150503d8060008114610f4c576040519150601f19603f3d011682016040523d82523d6000602084013e610f51565b606091505b50506000805460ff60b01b19169055604080516001600160e01b0319871681524260208201529192507fa7326b57fc9cfe267aaea5e7f0b01757154d265620a0585819416ee9ddd2c438910160405180910390a1610fae81612769565b50505050565b610fbc612786565b6001600160e01b0319811660009081526002602052604081205490036110245760405162461bcd60e51b815260206004820152601a60248201527f74696d656c6f636b3a20696e76616c69642073656c6563746f720000000000006044820152606401610687565b604080516001600160e01b0319831681524260208201527f7735b2391c38a81419c513e30ca578db7158eadd7101511b23e221c654d19cf8910160405180910390a16001600160e01b031981166000908152600260205260408120818155906106ab6001830182612b7e565b600260205260009081526040902080546001820180549192916110b290613386565b80601f01602080910402602001604051908101604052809291908181526020018280546110de90613386565b801561112b5780601f106111005761010080835404028352916020019161112b565b820191906000526020600020905b81548152906001019060200180831161110e57829003601f168201915b5050505050905082565b6000818152600560205260409020600201546060906001600160801b031661116f5760405162461bcd60e51b815260040161068790613117565b6008546000838152600560209081526040808320600690925291829020549151631594a52760e21b81526001600160a01b0390931692635652949c92610850929160040161314e565b600082815260056020526040812060028101548291906001600160801b0316806111f45760405162461bcd60e51b815260040161068790613117565b6008546000878152600660205260409081902054905163385e3b1360e21b81526001600160a01b038881166004830152602482019290925291169063e178ec4c90604401602060405180830381865afa158015611255573d6000803e3d6000fd5b505050506040513d601f19601f8201168201806040525081019061127991906132f6565b6001600160a01b0381166000908152600184016020526040902054909450806112db5760405162461bcd60e51b81526020600482015260146024820152731d9bdd195c881b9bdd081c9959da5cdd195c995960621b6044820152606401610687565b816112e861ffff83613313565b6112f2919061332a565b93505050509250929050565b60008061130a84611f1e565b6040805162ffffff84166020808301919091526001600160a01b03891682840152825180830384018152606090920190925280519101207f19457468657265756d205369676e6564204d6573736167653a0a3332000000006000908152601c829052603c8120939550919350919050600061139b8261138c60208901896133dc565b886020013589604001356127e0565b905083606001516001600160a01b0316816001600160a01b0316146113f65760405162461bcd60e51b8152602060048201526011602482015270696e76616c6964207369676e617475726560781b6044820152606401610687565b611401878686612110565b50505050505050565b600081815260056020526040902060028101546001600160801b0381169161ffff600160801b8304811692600160901b900416908361145b5760405162461bcd60e51b815260040161068790613117565b509193909250565b6000818152600560205260409020600201546060906001600160801b031661149d5760405162461bcd60e51b815260040161068790613117565b600854600083815260056020908152604080832060069092529182902054915162b6465960e31b81526001600160a01b03909316926305b232c8926114e5929160040161314e565b600060405180830381865afa158015611502573d6000803e3d6000fd5b505050506040513d6000823e601f3d908101601f191682016040526107c791908101906133ff565b7f714f205b2abd25bef1d06a1af944e38c113fe6160375c4e1d6d5cf28848e7719546001600160a01b0316336001600160a01b0316146115a35760405162461bcd60e51b815260206004820152601460248201527337b7363c9030b2323932b9b9903ab83230ba32b960611b6044820152606401610687565b6115fb6115d783836040518060400160405280600e81526020016d20b2323932b9b9aab83230ba32b960911b81525061280e565b7f714f205b2abd25bef1d06a1af944e38c113fe6160375c4e1d6d5cf28848e771955565b61160582826128e9565b5050565b6000818152600560205260409020600201546060906001600160801b03166116435760405162461bcd60e51b815260040161068790613117565b6008546000838152600560209081526040808320600690925291829020549151636558b56b60e01b81526001600160a01b0390931692636558b56b92610850929160040161314e565b60075460609081906000906001600160a01b031633146116ea5760405162461bcd60e51b815260206004820152601960248201527837b7363c90333630b9329039bcb9ba32b69036b0b730b3b2b960391b6044820152606401610687565b600084815260056020526040902080548061170757611707613370565b60008167ffffffffffffffff81111561172257611722612e9b565b60405190808252806020026020018201604052801561174b578160200160208202803683370190505b50905060008267ffffffffffffffff81111561176957611769612e9b565b604051908082528060200260200182016040528015611792578160200160208202803683370190505b5090506000805b8481101561189e578560000181815481106117b6576117b6613525565b9060005260206000200160009054906101000a90046001600160a01b03168482815181106117e6576117e6613525565b60200260200101906001600160a01b031690816001600160a01b03168152505085600101600085838151811061181e5761181e613525565b60200260200101516001600160a01b03166001600160a01b031681526020019081526020016000205483828151811061185957611859613525565b60200260200101818152505082818151811061187757611877613525565b60200260200101518261188a9190613104565b9150806118968161353b565b915050611799565b5060085460008a815260066020526040908190205490516369fe610d60e01b81526001600160a01b03909216916369fe610d916118e091879190600401613554565b600060405180830381865afa1580156118fd573d6000803e3d6000fd5b505050506040513d6000823e601f3d908101601f1916820160405261192591908101906131a7565b60085460008b81526006602052604080822054905163bda9a28b60e01b8152939b50909283926001600160a01b03169163bda9a28b91611969918991600401613554565b600060405180830381865afa158015611986573d6000803e3d6000fd5b505050506040513d6000823e601f3d908101601f191682016040526119ae919081019061329c565b915091508567ffffffffffffffff8111156119cb576119cb612e9b565b6040519080825280602002602001820160405280156119f4578160200160208202803683370190505b5098506000805b87811015611b0c578461ffff8016878381518110611a1b57611a1b613525565b6020026020010151611a2d9190613313565b611a37919061332a565b8b8281518110611a4957611a49613525565b602002602001019061ffff16908161ffff16815250508a8181518110611a7157611a71613525565b60200260200101518a611a849190613576565b99506000801b848281518110611a9c57611a9c613525565b6020026020010151141580611acd57506000801b838281518110611ac257611ac2613525565b602002602001015114155b15611afa578a8181518110611ae457611ae4613525565b602002602001015182611af79190613576565b91505b80611b048161353b565b9150506119fb565b506002909701805461ffff988916600160901b0261ffff60901b19998b16600160801b0271ffffffffffffffffffffffffffffffffffff199092166001600160801b0390961695909517179790971692909217909555509597949650929450505050565b6000818152600560205260409020600201546060906001600160801b0316611baa5760405162461bcd60e51b815260040161068790613117565b6008546000838152600560209081526040808320600690925291829020549151631bef8f8d60e31b81526001600160a01b039093169263df7c7c6892610850929160040161314e565b60008054600160a01b900460ff1680156107c75750600054604051630debfda360e41b81526001600160a01b0384811660048301529091169063debfda3090602401602060405180830381865afa158015611c52573d6000803e3d6000fd5b505050506040513d601f19601f820116820180604052508101906107c791906135ad565b600054600160a01b900460ff1615611cc75760405162461bcd60e51b8152602060048201526014602482015273696e697469616c6973656420213d2066616c736560601b6044820152606401610687565b6001600160a01b038216611d1d5760405162461bcd60e51b815260206004820152601860248201527f676f7665726e616e63652073657474696e6773207a65726f00000000000000006044820152606401610687565b6001600160a01b038116611d665760405162461bcd60e51b815260206004820152601060248201526f5f676f7665726e616e6365207a65726f60801b6044820152606401610687565b600080546001600160a01b038481166001600160a81b031990921691909117600160a01b17909155600180549183166001600160a01b0319909216821790556040519081527f9789733827840833afc031fb2ef9ab6894271f77bad2085687cf4ae5c7bee4db9060200160405180910390a15050565b611de4612786565b600054600160a81b900460ff1615611e3e5760405162461bcd60e51b815260206004820152601a60248201527f616c726561647920696e2070726f64756374696f6e206d6f64650000000000006044820152606401610687565b600180546001600160a01b031916905560008054600160a81b60ff60a81b198216179091556040516001600160a01b0390911681527f83af113638b5422f9e977cebc0aaf0eaf2188eb9a8baae7f9d46c42b33a1560c9060200160405180910390a1565b600054600160b01b900460ff1680611ec45750600054600160a81b900460ff16155b156109b557611ed16125e3565b61ffff811115611f195760405162461bcd60e51b81526020600482015260136024820152720bedac2f0acdee8cae4e640e8dede40d0d2ced606b1b6044820152606401610687565b600355565b6040805160808101825260008082526020820181905291810182905260608101829052600760009054906101000a90046001600160a01b03166001600160a01b031663705626976040518163ffffffff1660e01b8152600401602060405180830381865afa158015611f94573d6000803e3d6000fd5b505050506040513d601f19601f82011682018060405250810190611fb891906130c9565b611fc39060016135c8565b6001600160a01b038416600090815260046020526040902054909250801580611ff157508262ffffff168111155b61202d5760405162461bcd60e51b815260206004820152600d60248201526c1d9bdd195c8818da1a5b1b1959609a1b6044820152606401610687565b62ffffff8316600090815260066020526040812054908190036120925760405162461bcd60e51b815260206004820152601e60248201527f726567697374726174696f6e206e6f7420617661696c61626c652079657400006044820152606401610687565b60085460405163ba77118b60e01b81526001600160a01b038781166004830152602482018490529091169063ba77118b90604401608060405180830381865afa1580156120e3573d6000803e3d6000fd5b505050506040513d601f19601f8201168201806040525081019061210791906135e4565b92505050915091565b6007546040516302e074f160e31b815262ffffff8416600482015260009182916001600160a01b0390911690631703a788906024016040805180830381865afa158015612161573d6000803e3d6000fd5b505050506040513d601f19601f820116820180604052508101906121859190613669565b91509150816000036121d15760405162461bcd60e51b8152602060048201526015602482015274766f746520706f77657220626c6f636b207a65726f60581b6044820152606401610687565b8061221e5760405162461bcd60e51b815260206004820152601e60248201527f766f74657220726567697374726174696f6e206e6f7420656e61626c656400006044820152606401610687565b60095483516040516357b58c5f60e01b81526001600160a01b038881166004830152918216602482015262ffffff871660448201526064810185905260009291909116906357b58c5f906084016020604051808303816000875af115801561228a573d6000803e3d6000fd5b505050506040513d601f19601f820116820180604052508101906122ae9190613695565b9050600081116122f45760405162461bcd60e51b8152602060048201526011602482015270766f74657220776569676874207a65726f60781b6044820152606401610687565b62ffffff851660009081526005602090815260408083206001600160a01b038a1684526001810190925290912054156123645760405162461bcd60e51b8152602060048201526012602482015271185b1c9958591e481c9959da5cdd195c995960721b6044820152606401610687565b80546003548110156123b6578154600180820184556000848152602080822090930180546001600160a01b0319166001600160a01b038d16908117909155815290840190915260409020839055612544565b6000600019815b8381101561242a5760008560000182815481106123dc576123dc613525565b60009182526020808320909101546001600160a01b03168083526001890190915260409091205490915080841115612415578093508294505b505080806124229061353b565b9150506123bd565b5084811061246f5760405162461bcd60e51b8152602060048201526012602482015271766f746520706f77657220746f6f206c6f7760701b6044820152606401610687565b600084600001838154811061248657612486613525565b60009182526020808320909101546001600160a01b031680835260018801909152604082209190915585549091508b908690859081106124c8576124c8613525565b600091825260208083209190910180546001600160a01b0319166001600160a01b039485161790558d831682526001880181526040918290208990558151928416835262ffffff8d16908301527f98a7f87f8e2aa2f23f43769eff67782bb12946384b142d1ce1e8e38e05d9a3e6910160405180910390a15050505b7f36e64c7339af9c00a1b00e5da00d8c2159dff48c9c7020a2088b622e117778208888886060015189600001518a602001518b60400151896040516125d197969594939291906001600160a01b03978816815262ffffff969096166020870152938616604086015291851660608501528416608084015290921660a082015260c081019190915260e00190565b60405180910390a15050505050505050565b600054600160b01b900460ff16156126135733301461260457612604613370565b6000805460ff60b01b19169055565b61261b612786565b565b612625612786565b6000805460408051636221a54b60e01b81529051853593926001600160a01b031691636221a54b9160048083019260209291908290030181865afa158015612671573d6000803e3d6000fd5b505050506040513d601f19601f820116820180604052508101906126959190613695565b905060006126a38242613104565b9050604051806040016040528082815260200186868080601f01602080910402602001604051908101604052809392919081815260200183838082843760009201829052509390945250506001600160e01b0319861681526002602090815260409091208351815590830151909150600182019061272190826136fc565b509050507fed948300a3694aa01d4a6b258bfd664350193d770c0b51f8387277f6d83ea3b68382878760405161275a94939291906137bc565b60405180910390a15050505050565b3d604051818101604052816000823e8215612782578181f35b8181fd5b61278e610c92565b6001600160a01b0316336001600160a01b03161461261b5760405162461bcd60e51b815260206004820152600f60248201526e6f6e6c7920676f7665726e616e636560881b6044820152606401610687565b6000806000806127f2888888886129f6565b9250925092506128028282612ac5565b50909695505050505050565b600080826040516020016128229190613802565b6040516020818303038152906040528051906020012090506000805b865181101561289a5786818151811061285957612859613525565b602002602001015183036128885785818151811061287957612879613525565b6020026020010151915061289a565b806128928161353b565b91505061283e565b506001600160a01b0381166128e05760405162461bcd60e51b815260206004820152600c60248201526b61646472657373207a65726f60a01b6044820152606401610687565b95945050505050565b61291e828260405180604001604052806012815260200171233630b932a9bcb9ba32b6a6b0b730b3b2b960711b81525061280e565b600760006101000a8154816001600160a01b0302191690836001600160a01b0316021790555061297482826040518060400160405280600d81526020016c22b73a34ba3ca6b0b730b3b2b960991b81525061280e565b600860006101000a8154816001600160a01b0302191690836001600160a01b031602179055506129d2828260405180604001604052806015815260200174233630b932a9bcb9ba32b6a1b0b631bab630ba37b960591b81525061280e565b600980546001600160a01b0319166001600160a01b03929092169190911790555050565b600080807f7fffffffffffffffffffffffffffffff5d576e7357a4501ddfe92f46681b20a0841115612a315750600091506003905082612abb565b604080516000808252602082018084528a905260ff891692820192909252606081018790526080810186905260019060a0016020604051602081039080840390855afa158015612a85573d6000803e3d6000fd5b5050604051601f1901519150506001600160a01b038116612ab157506000925060019150829050612abb565b9250600091508190505b9450945094915050565b6000826003811115612ad957612ad9613815565b03612ae2575050565b6001826003811115612af657612af6613815565b03612b145760405163f645eedf60e01b815260040160405180910390fd5b6002826003811115612b2857612b28613815565b03612b495760405163fce698f760e01b815260048101829052602401610687565b6003826003811115612b5d57612b5d613815565b03611605576040516335e2f38360e21b815260048101829052602401610687565b508054612b8a90613386565b6000825580601f10612b9a575050565b601f0160209004906000526020600020908101906109c091905b80821115612bc85760008155600101612bb4565b5090565b6001600160a01b03811681146109c057600080fd5b600060208284031215612bf357600080fd5b8135612bfe81612bcc565b9392505050565b60008060408385031215612c1857600080fd5b8235612c2381612bcc565b946020939093013593505050565b600060208284031215612c4357600080fd5b5035919050565b600081518084526020808501945080840160005b83811015612c835781516001600160a01b031687529582019590820190600101612c5e565b509495945050505050565b602081526000612bfe6020830184612c4a565b600081518084526020808501945080840160005b83811015612c8357815187529582019590820190600101612cb5565b604081526000612ce46040830185612ca1565b82810360208401526128e08185612ca1565b60008060408385031215612d0957600080fd5b823591506020830135612d1b81612bcc565b809150509250929050565b600060208284031215612d3857600080fd5b81356001600160e01b031981168114612bfe57600080fd5b60005b83811015612d6b578181015183820152602001612d53565b50506000910152565b60008151808452612d8c816020860160208601612d50565b601f01601f19169290920160200192915050565b828152604060208201526000612db96040830184612d74565b949350505050565b6000808284036080811215612dd557600080fd5b8335612de081612bcc565b92506060601f1982011215612df457600080fd5b506020830190509250929050565b6000602080830181845280855180835260408601915060408160051b87010192508387016000805b83811015612e8d57888603603f19018552825180518088529088019088880190845b81811015612e775783516bffffffffffffffffffffffff19168352928a0192918a0191600101612e4c565b5090975050509386019391860191600101612e2a565b509398975050505050505050565b634e487b7160e01b600052604160045260246000fd5b604051601f8201601f1916810167ffffffffffffffff81118282101715612eda57612eda612e9b565b604052919050565b600067ffffffffffffffff821115612efc57612efc612e9b565b5060051b60200190565b600082601f830112612f1757600080fd5b81356020612f2c612f2783612ee2565b612eb1565b82815260059290921b84018101918181019086841115612f4b57600080fd5b8286015b84811015612f6f578035612f6281612bcc565b8352918301918301612f4f565b509695505050505050565b60008060408385031215612f8d57600080fd5b823567ffffffffffffffff80821115612fa557600080fd5b818501915085601f830112612fb957600080fd5b81356020612fc9612f2783612ee2565b82815260059290921b84018101918181019089841115612fe857600080fd5b948201945b8386101561300657853582529482019490820190612fed565b9650508601359250508082111561301c57600080fd5b5061302985828601612f06565b9150509250929050565b6060815260006130466060830186612c4a565b82810360208481019190915285518083528682019282019060005b8181101561308157845161ffff1683529383019391830191600101613061565b505080935050505061ffff83166040830152949350505050565b600080604083850312156130ae57600080fd5b82356130b981612bcc565b91506020830135612d1b81612bcc565b6000602082840312156130db57600080fd5b815162ffffff81168114612bfe57600080fd5b634e487b7160e01b600052601160045260246000fd5b808201808211156107c7576107c76130ee565b6020808252601d908201527f7265776172642065706f6368206964206e6f7420737570706f72746564000000604082015260600190565b6000604082016040835280855480835260608501915086600052602092508260002060005b828110156131985781546001600160a01b031684529284019260019182019101613173565b50505092019290925292915050565b600060208083850312156131ba57600080fd5b825167ffffffffffffffff8111156131d157600080fd5b8301601f810185136131e257600080fd5b80516131f0612f2782612ee2565b81815260059190911b8201830190838101908783111561320f57600080fd5b928401925b8284101561323657835161322781612bcc565b82529284019290840190613214565b979650505050505050565b600082601f83011261325257600080fd5b81516020613262612f2783612ee2565b82815260059290921b8401810191818101908684111561328157600080fd5b8286015b84811015612f6f5780518352918301918301613285565b600080604083850312156132af57600080fd5b825167ffffffffffffffff808211156132c757600080fd5b6132d386838701613241565b935060208501519150808211156132e957600080fd5b5061302985828601613241565b60006020828403121561330857600080fd5b8151612bfe81612bcc565b80820281158282048414176107c7576107c76130ee565b60008261334757634e487b7160e01b600052601260045260246000fd5b500490565b6000806040838503121561335f57600080fd5b505080516020909101519092909150565b634e487b7160e01b600052600160045260246000fd5b600181811c9082168061339a57607f821691505b6020821081036133ba57634e487b7160e01b600052602260045260246000fd5b50919050565b600082516133d2818460208701612d50565b9190910192915050565b6000602082840312156133ee57600080fd5b813560ff81168114612bfe57600080fd5b6000602080838503121561341257600080fd5b825167ffffffffffffffff8082111561342a57600080fd5b818501915085601f83011261343e57600080fd5b815161344c612f2782612ee2565b818152600591821b840185019185820191908984111561346b57600080fd5b8686015b84811015613516578051868111156134875760008081fd5b8701603f81018c136134995760008081fd5b8881015160406134ab612f2783612ee2565b82815291851b83018101918b8101908f8411156134c85760008081fd5b938201935b8385101561350557845192506bffffffffffffffffffffffff19831683146134f55760008081fd5b828252938c0193908c01906134cd565b88525050509388019350870161346f565b50909998505050505050505050565b634e487b7160e01b600052603260045260246000fd5b60006001820161354d5761354d6130ee565b5060010190565b6040815260006135676040830185612c4a565b90508260208301529392505050565b61ffff818116838216019080821115613591576135916130ee565b5092915050565b805180151581146135a857600080fd5b919050565b6000602082840312156135bf57600080fd5b612bfe82613598565b62ffffff818116838216019080821115613591576135916130ee565b6000608082840312156135f657600080fd5b6040516080810181811067ffffffffffffffff8211171561361957613619612e9b565b604052825161362781612bcc565b8152602083015161363781612bcc565b6020820152604083015161364a81612bcc565b6040820152606083015161365d81612bcc565b60608201529392505050565b6000806040838503121561367c57600080fd5b8251915061368c60208401613598565b90509250929050565b6000602082840312156136a757600080fd5b5051919050565b601f8211156106ab57600081815260208120601f850160051c810160208610156136d55750805b601f850160051c820191505b818110156136f4578281556001016136e1565b505050505050565b815167ffffffffffffffff81111561371657613716612e9b565b61372a816137248454613386565b846136ae565b602080601f83116001811461375f57600084156137475750858301515b600019600386901b1c1916600185901b1785556136f4565b600085815260208120601f198616915b8281101561378e5788860151825594840194600190910190840161376f565b50858210156137ac5787850151600019600388901b60f8161c191681555b5050505050600190811b01905550565b63ffffffff60e01b8516815283602082015260606040820152816060820152818360808301376000818301608090810191909152601f909201601f191601019392505050565b602081526000612bfe6020830184612d74565b634e487b7160e01b600052602160045260246000fdfea2646970667358221220b135b8312c3342b63328a85c0ab08fe0bcfdbe32681f7b05d6b02aa96366808d64736f6c63430008140033",
  "linkReferences": {},
  "deployedLinkReferences": {}
}