{
  "_format": "hh-sol-artifact-1",
  "contractName": "VoterRegistry",
  "sourceName": "contracts/protocol/implementation/VoterRegistry.sol",
  "abi": [
    {
      "inputs": [
        {
          "internalType": "contract IGovernanceSettings",
          "name": "_governanceSettings",
          "type": "address"
        },
        {
          "internalType": "address",
          "name": "_initialGovernance",
          "type": "address"
        },
        {
          "internalType": "address",
          "name": "_addressUpdater",
          "type": "address"
        },
        {
          "internalType": "uint256",
          "name": "_maxVoters",
          "type": "uint256"
        },
        {
          "internalType": "uint256",
          "name": "_initialRewardEpochId",
          "type": "uint256"
        },
        {
          "internalType": "uint256",
          "name": "_initialNewSigningPolicyInitializationStartBlockNumber",
          "type": "uint256"
        },
        {
          "internalType": "uint16",
          "name": "_initialNormalisedWeightsSumOfVotersWithPublicKeys",
          "type": "uint16"
        },
        {
          "internalType": "address[]",
          "name": "_initialVoters",
          "type": "address[]"
        },
        {
          "internalType": "uint256[]",
          "name": "_initialRegistrationWeights",
          "type": "uint256[]"
        }
      ],
      "stateMutability": "nonpayable",
      "type": "constructor"
    },
    {
      "inputs": [],
      "name": "ECDSAInvalidSignature",
      "type": "error"
    },
    {
      "inputs": [
        {
          "internalType": "uint256",
          "name": "length",
          "type": "uint256"
        }
      ],
      "name": "ECDSAInvalidSignatureLength",
      "type": "error"
    },
    {
      "inputs": [
        {
          "internalType": "bytes32",
          "name": "s",
          "type": "bytes32"
        }
      ],
      "name": "ECDSAInvalidSignatureS",
      "type": "error"
    },
    {
      "anonymous": false,
      "inputs": [
        {
          "indexed": true,
          "internalType": "bytes20",
          "name": "beneficiary",
          "type": "bytes20"
        },
        {
          "indexed": false,
          "internalType": "uint256",
          "name": "untilRewardEpochId",
          "type": "uint256"
        }
      ],
      "name": "BeneficiaryChilled",
      "type": "event"
    },
    {
      "anonymous": false,
      "inputs": [
        {
          "indexed": false,
          "internalType": "bytes4",
          "name": "selector",
          "type": "bytes4"
        },
        {
          "indexed": false,
          "internalType": "uint256",
          "name": "allowedAfterTimestamp",
          "type": "uint256"
        },
        {
          "indexed": false,
          "internalType": "bytes",
          "name": "encodedCall",
          "type": "bytes"
        }
      ],
      "name": "GovernanceCallTimelocked",
      "type": "event"
    },
    {
      "anonymous": false,
      "inputs": [
        {
          "indexed": false,
          "internalType": "address",
          "name": "initialGovernance",
          "type": "address"
        }
      ],
      "name": "GovernanceInitialised",
      "type": "event"
    },
    {
      "anonymous": false,
      "inputs": [
        {
          "indexed": false,
          "internalType": "address",
          "name": "governanceSettings",
          "type": "address"
        }
      ],
      "name": "GovernedProductionModeEntered",
      "type": "event"
    },
    {
      "anonymous": false,
      "inputs": [
        {
          "indexed": false,
          "internalType": "bytes4",
          "name": "selector",
          "type": "bytes4"
        },
        {
          "indexed": false,
          "internalType": "uint256",
          "name": "timestamp",
          "type": "uint256"
        }
      ],
      "name": "TimelockedGovernanceCallCanceled",
      "type": "event"
    },
    {
      "anonymous": false,
      "inputs": [
        {
          "indexed": false,
          "internalType": "bytes4",
          "name": "selector",
          "type": "bytes4"
        },
        {
          "indexed": false,
          "internalType": "uint256",
          "name": "timestamp",
          "type": "uint256"
        }
      ],
      "name": "TimelockedGovernanceCallExecuted",
      "type": "event"
    },
    {
      "anonymous": false,
      "inputs": [
        {
          "indexed": true,
          "internalType": "address",
          "name": "voter",
          "type": "address"
        },
        {
          "indexed": true,
          "internalType": "uint24",
          "name": "rewardEpochId",
          "type": "uint24"
        },
        {
          "indexed": true,
          "internalType": "address",
          "name": "signingPolicyAddress",
          "type": "address"
        },
        {
          "indexed": false,
          "internalType": "address",
          "name": "submitAddress",
          "type": "address"
        },
        {
          "indexed": false,
          "internalType": "address",
          "name": "submitSignaturesAddress",
          "type": "address"
        },
        {
          "indexed": false,
          "internalType": "bytes32",
          "name": "publicKeyPart1",
          "type": "bytes32"
        },
        {
          "indexed": false,
          "internalType": "bytes32",
          "name": "publicKeyPart2",
          "type": "bytes32"
        },
        {
          "indexed": false,
          "internalType": "uint256",
          "name": "registrationWeight",
          "type": "uint256"
        }
      ],
      "name": "VoterRegistered",
      "type": "event"
    },
    {
      "anonymous": false,
      "inputs": [
        {
          "indexed": true,
          "internalType": "address",
          "name": "voter",
          "type": "address"
        },
        {
          "indexed": true,
          "internalType": "uint256",
          "name": "rewardEpochId",
          "type": "uint256"
        }
      ],
      "name": "VoterRemoved",
      "type": "event"
    },
    {
      "inputs": [
        {
          "internalType": "bytes4",
          "name": "_selector",
          "type": "bytes4"
        }
      ],
      "name": "cancelGovernanceCall",
      "outputs": [],
      "stateMutability": "nonpayable",
      "type": "function"
    },
    {
      "inputs": [
        {
          "internalType": "bytes20[]",
          "name": "_beneficiaryList",
          "type": "bytes20[]"
        },
        {
          "internalType": "uint256",
          "name": "_noOfRewardEpochs",
          "type": "uint256"
        }
      ],
      "name": "chill",
      "outputs": [
        {
          "internalType": "uint256",
          "name": "_untilRewardEpochId",
          "type": "uint256"
        }
      ],
      "stateMutability": "nonpayable",
      "type": "function"
    },
    {
      "inputs": [
        {
          "internalType": "bytes20",
          "name": "beneficiary",
          "type": "bytes20"
        }
      ],
      "name": "chilledUntilRewardEpochId",
      "outputs": [
        {
          "internalType": "uint256",
          "name": "",
          "type": "uint256"
        }
      ],
      "stateMutability": "view",
      "type": "function"
    },
    {
      "inputs": [
        {
          "internalType": "uint256",
          "name": "_rewardEpochId",
          "type": "uint256"
        }
      ],
      "name": "createSigningPolicySnapshot",
      "outputs": [
        {
          "internalType": "address[]",
          "name": "_signingPolicyAddresses",
          "type": "address[]"
        },
        {
          "internalType": "uint16[]",
          "name": "_normalisedWeights",
          "type": "uint16[]"
        },
        {
          "internalType": "uint16",
          "name": "_normalisedWeightsSum",
          "type": "uint16"
        }
      ],
      "stateMutability": "nonpayable",
      "type": "function"
    },
    {
      "inputs": [],
      "name": "entityManager",
      "outputs": [
        {
          "internalType": "contract IIEntityManager",
          "name": "",
          "type": "address"
        }
      ],
      "stateMutability": "view",
      "type": "function"
    },
    {
      "inputs": [
        {
          "internalType": "bytes4",
          "name": "_selector",
          "type": "bytes4"
        }
      ],
      "name": "executeGovernanceCall",
      "outputs": [],
      "stateMutability": "nonpayable",
      "type": "function"
    },
    {
      "inputs": [],
      "name": "flareSystemsCalculator",
      "outputs": [
        {
          "internalType": "contract IIFlareSystemsCalculator",
          "name": "",
          "type": "address"
        }
      ],
      "stateMutability": "view",
      "type": "function"
    },
    {
      "inputs": [],
      "name": "flareSystemsManager",
      "outputs": [
        {
          "internalType": "contract IIFlareSystemsManager",
          "name": "",
          "type": "address"
        }
      ],
      "stateMutability": "view",
      "type": "function"
    },
    {
      "inputs": [],
      "name": "getAddressUpdater",
      "outputs": [
        {
          "internalType": "address",
          "name": "_addressUpdater",
          "type": "address"
        }
      ],
      "stateMutability": "view",
      "type": "function"
    },
    {
      "inputs": [
        {
          "internalType": "uint256",
          "name": "_rewardEpochId",
          "type": "uint256"
        }
      ],
      "name": "getNumberOfRegisteredVoters",
      "outputs": [
        {
          "internalType": "uint256",
          "name": "",
          "type": "uint256"
        }
      ],
      "stateMutability": "view",
      "type": "function"
    },
    {
      "inputs": [
        {
          "internalType": "uint256",
          "name": "_rewardEpochId",
          "type": "uint256"
        },
        {
          "internalType": "address",
          "name": "_signingPolicyAddress",
          "type": "address"
        }
      ],
      "name": "getPublicKeyAndNormalisedWeight",
      "outputs": [
        {
          "internalType": "bytes32",
          "name": "_publicKeyPart1",
          "type": "bytes32"
        },
        {
          "internalType": "bytes32",
          "name": "_publicKeyPart2",
          "type": "bytes32"
        },
        {
          "internalType": "uint16",
          "name": "_normalisedWeight",
          "type": "uint16"
        },
        {
          "internalType": "uint16",
          "name": "_normalisedWeightsSumOfVotersWithPublicKeys",
          "type": "uint16"
        }
      ],
      "stateMutability": "view",
      "type": "function"
    },
    {
      "inputs": [
        {
          "internalType": "uint256",
          "name": "_rewardEpochId",
          "type": "uint256"
        }
      ],
      "name": "getRegisteredDelegationAddresses",
      "outputs": [
        {
          "internalType": "address[]",
          "name": "_delegationAddresses",
          "type": "address[]"
        }
      ],
      "stateMutability": "view",
      "type": "function"
    },
    {
      "inputs": [
        {
          "internalType": "uint256",
          "name": "_rewardEpochId",
          "type": "uint256"
        }
      ],
      "name": "getRegisteredNodeIds",
      "outputs": [
        {
          "internalType": "bytes20[][]",
          "name": "_nodeIds",
          "type": "bytes20[][]"
        }
      ],
      "stateMutability": "view",
      "type": "function"
    },
    {
      "inputs": [
        {
          "internalType": "uint256",
          "name": "_rewardEpochId",
          "type": "uint256"
        }
      ],
      "name": "getRegisteredPublicKeys",
      "outputs": [
        {
          "internalType": "bytes32[]",
          "name": "_parts1",
          "type": "bytes32[]"
        },
        {
          "internalType": "bytes32[]",
          "name": "_parts2",
          "type": "bytes32[]"
        }
      ],
      "stateMutability": "view",
      "type": "function"
    },
    {
      "inputs": [
        {
          "internalType": "uint256",
          "name": "_rewardEpochId",
          "type": "uint256"
        }
      ],
      "name": "getRegisteredSigningPolicyAddresses",
      "outputs": [
        {
          "internalType": "address[]",
          "name": "_signingPolicyAddresses",
          "type": "address[]"
        }
      ],
      "stateMutability": "view",
      "type": "function"
    },
    {
      "inputs": [
        {
          "internalType": "uint256",
          "name": "_rewardEpochId",
          "type": "uint256"
        }
      ],
      "name": "getRegisteredSubmitAddresses",
      "outputs": [
        {
          "internalType": "address[]",
          "name": "",
          "type": "address[]"
        }
      ],
      "stateMutability": "view",
      "type": "function"
    },
    {
      "inputs": [
        {
          "internalType": "uint256",
          "name": "_rewardEpochId",
          "type": "uint256"
        }
      ],
      "name": "getRegisteredSubmitSignaturesAddresses",
      "outputs": [
        {
          "internalType": "address[]",
          "name": "_signingPolicyAddresses",
          "type": "address[]"
        }
      ],
      "stateMutability": "view",
      "type": "function"
    },
    {
      "inputs": [
        {
          "internalType": "uint256",
          "name": "_rewardEpochId",
          "type": "uint256"
        }
      ],
      "name": "getRegisteredVoters",
      "outputs": [
        {
          "internalType": "address[]",
          "name": "",
          "type": "address[]"
        }
      ],
      "stateMutability": "view",
      "type": "function"
    },
    {
      "inputs": [
        {
          "internalType": "uint256",
          "name": "_rewardEpochId",
          "type": "uint256"
        }
      ],
      "name": "getRegisteredVotersAndNormalisedWeights",
      "outputs": [
        {
          "internalType": "address[]",
          "name": "_voters",
          "type": "address[]"
        },
        {
          "internalType": "uint16[]",
          "name": "_normalisedWeights",
          "type": "uint16[]"
        }
      ],
      "stateMutability": "view",
      "type": "function"
    },
    {
      "inputs": [
        {
          "internalType": "uint256",
          "name": "_rewardEpochId",
          "type": "uint256"
        }
      ],
      "name": "getRegisteredVotersAndRegistrationWeights",
      "outputs": [
        {
          "internalType": "address[]",
          "name": "_voters",
          "type": "address[]"
        },
        {
          "internalType": "uint256[]",
          "name": "_registrationWeights",
          "type": "uint256[]"
        }
      ],
      "stateMutability": "view",
      "type": "function"
    },
    {
      "inputs": [
        {
          "internalType": "address",
          "name": "_voter",
          "type": "address"
        },
        {
          "internalType": "uint256",
          "name": "_rewardEpochId",
          "type": "uint256"
        }
      ],
      "name": "getVoterNormalisedWeight",
      "outputs": [
        {
          "internalType": "uint16",
          "name": "_normalisedWeight",
          "type": "uint16"
        }
      ],
      "stateMutability": "view",
      "type": "function"
    },
    {
      "inputs": [
        {
          "internalType": "address",
          "name": "_voter",
          "type": "address"
        },
        {
          "internalType": "uint256",
          "name": "_rewardEpochId",
          "type": "uint256"
        }
      ],
      "name": "getVoterRegistrationWeight",
      "outputs": [
        {
          "internalType": "uint256",
          "name": "_registrationWeight",
          "type": "uint256"
        }
      ],
      "stateMutability": "view",
      "type": "function"
    },
    {
      "inputs": [
        {
          "internalType": "uint256",
          "name": "_rewardEpochId",
          "type": "uint256"
        },
        {
          "internalType": "address",
          "name": "_signingPolicyAddress",
          "type": "address"
        }
      ],
      "name": "getVoterWithNormalisedWeight",
      "outputs": [
        {
          "internalType": "address",
          "name": "_voter",
          "type": "address"
        },
        {
          "internalType": "uint16",
          "name": "_normalisedWeight",
          "type": "uint16"
        }
      ],
      "stateMutability": "view",
      "type": "function"
    },
    {
      "inputs": [
        {
          "internalType": "uint256",
          "name": "_rewardEpochId",
          "type": "uint256"
        }
      ],
      "name": "getWeightsSums",
      "outputs": [
        {
          "internalType": "uint128",
          "name": "_weightsSum",
          "type": "uint128"
        },
        {
          "internalType": "uint16",
          "name": "_normalisedWeightsSum",
          "type": "uint16"
        },
        {
          "internalType": "uint16",
          "name": "_normalisedWeightsSumOfVotersWithPublicKeys",
          "type": "uint16"
        }
      ],
      "stateMutability": "view",
      "type": "function"
    },
    {
      "inputs": [],
      "name": "governance",
      "outputs": [
        {
          "internalType": "address",
          "name": "",
          "type": "address"
        }
      ],
      "stateMutability": "view",
      "type": "function"
    },
    {
      "inputs": [],
      "name": "governanceSettings",
      "outputs": [
        {
          "internalType": "contract IGovernanceSettings",
          "name": "",
          "type": "address"
        }
      ],
      "stateMutability": "view",
      "type": "function"
    },
    {
      "inputs": [
        {
          "internalType": "contract IGovernanceSettings",
          "name": "_governanceSettings",
          "type": "address"
        },
        {
          "internalType": "address",
          "name": "_initialGovernance",
          "type": "address"
        }
      ],
      "name": "initialise",
      "outputs": [],
      "stateMutability": "nonpayable",
      "type": "function"
    },
    {
      "inputs": [
        {
          "internalType": "address",
          "name": "_address",
          "type": "address"
        }
      ],
      "name": "isExecutor",
      "outputs": [
        {
          "internalType": "bool",
          "name": "",
          "type": "bool"
        }
      ],
      "stateMutability": "view",
      "type": "function"
    },
    {
      "inputs": [
        {
          "internalType": "address",
          "name": "_voter",
          "type": "address"
        },
        {
          "internalType": "uint256",
          "name": "_rewardEpochId",
          "type": "uint256"
        }
      ],
      "name": "isVoterRegistered",
      "outputs": [
        {
          "internalType": "bool",
          "name": "",
          "type": "bool"
        }
      ],
      "stateMutability": "view",
      "type": "function"
    },
    {
      "inputs": [],
      "name": "maxVoters",
      "outputs": [
        {
          "internalType": "uint256",
          "name": "",
          "type": "uint256"
        }
      ],
      "stateMutability": "view",
      "type": "function"
    },
    {
      "inputs": [
        {
          "internalType": "uint256",
          "name": "rewardEpochId",
          "type": "uint256"
        }
      ],
      "name": "newSigningPolicyInitializationStartBlockNumber",
      "outputs": [
        {
          "internalType": "uint256",
          "name": "",
          "type": "uint256"
        }
      ],
      "stateMutability": "view",
      "type": "function"
    },
    {
      "inputs": [],
      "name": "productionMode",
      "outputs": [
        {
          "internalType": "bool",
          "name": "",
          "type": "bool"
        }
      ],
      "stateMutability": "view",
      "type": "function"
    },
    {
      "inputs": [],
      "name": "publicKeyRequired",
      "outputs": [
        {
          "internalType": "bool",
          "name": "",
          "type": "bool"
        }
      ],
      "stateMutability": "view",
      "type": "function"
    },
    {
      "inputs": [
        {
          "internalType": "address",
          "name": "_voter",
          "type": "address"
        },
        {
          "components": [
            {
              "internalType": "uint8",
              "name": "v",
              "type": "uint8"
            },
            {
              "internalType": "bytes32",
              "name": "r",
              "type": "bytes32"
            },
            {
              "internalType": "bytes32",
              "name": "s",
              "type": "bytes32"
            }
          ],
          "internalType": "struct IVoterRegistry.Signature",
          "name": "_signature",
          "type": "tuple"
        }
      ],
      "name": "registerVoter",
      "outputs": [],
      "stateMutability": "nonpayable",
      "type": "function"
    },
    {
      "inputs": [
        {
          "internalType": "uint256",
          "name": "_maxVoters",
          "type": "uint256"
        }
      ],
      "name": "setMaxVoters",
      "outputs": [],
      "stateMutability": "nonpayable",
      "type": "function"
    },
    {
      "inputs": [
        {
          "internalType": "uint256",
          "name": "_rewardEpochId",
          "type": "uint256"
        }
      ],
      "name": "setNewSigningPolicyInitializationStartBlockNumber",
      "outputs": [],
      "stateMutability": "nonpayable",
      "type": "function"
    },
    {
      "inputs": [
        {
          "internalType": "bool",
          "name": "_publicKeyRequired",
          "type": "bool"
        }
      ],
      "name": "setPublicKeyRequired",
      "outputs": [],
      "stateMutability": "nonpayable",
      "type": "function"
    },
    {
      "inputs": [
        {
          "internalType": "address",
          "name": "_systemRegistrationContractAddress",
          "type": "address"
        }
      ],
      "name": "setSystemRegistrationContractAddress",
      "outputs": [],
      "stateMutability": "nonpayable",
      "type": "function"
    },
    {
      "inputs": [],
      "name": "switchToProductionMode",
      "outputs": [],
      "stateMutability": "nonpayable",
      "type": "function"
    },
    {
      "inputs": [
        {
          "internalType": "address",
          "name": "_voter",
          "type": "address"
        }
      ],
      "name": "systemRegistration",
      "outputs": [],
      "stateMutability": "nonpayable",
      "type": "function"
    },
    {
      "inputs": [],
      "name": "systemRegistrationContractAddress",
      "outputs": [
        {
          "internalType": "address",
          "name": "",
          "type": "address"
        }
      ],
      "stateMutability": "view",
      "type": "function"
    },
    {
      "inputs": [
        {
          "internalType": "bytes4",
          "name": "selector",
          "type": "bytes4"
        }
      ],
      "name": "timelockedCalls",
      "outputs": [
        {
          "internalType": "uint256",
          "name": "allowedAfterTimestamp",
          "type": "uint256"
        },
        {
          "internalType": "bytes",
          "name": "encodedCall",
          "type": "bytes"
        }
      ],
      "stateMutability": "view",
      "type": "function"
    },
    {
      "inputs": [
        {
          "internalType": "bytes32[]",
          "name": "_contractNameHashes",
          "type": "bytes32[]"
        },
        {
          "internalType": "address[]",
          "name": "_contractAddresses",
          "type": "address[]"
        }
      ],
      "name": "updateContractAddresses",
      "outputs": [],
      "stateMutability": "nonpayable",
      "type": "function"
    }
  ],
  "bytecode": "0x60806040523480156200001157600080fd5b5060405162004c8f38038062004c8f833981016040819052620000349162000761565b8689896200004382826200045f565b506200006f9050817f714f205b2abd25bef1d06a1af944e38c113fe6160375c4e1d6d5cf28848e771955565b5061ffff861115620000c85760405162461bcd60e51b815260206004820152601360248201527f5f6d6178566f7465727320746f6f20686967680000000000000000000000000060448201526064015b60405180910390fd5b600386905581518015801590620000df5750868111155b6200012d5760405162461bcd60e51b815260206004820152601d60248201527f5f696e697469616c566f74657273206c656e67746820696e76616c69640000006044820152606401620000bf565b815181146200017f5760405162461bcd60e51b815260206004820152601a60248201527f6172726179206c656e6774687320646f206e6f74206d617463680000000000006044820152606401620000bf565b438510620001f65760405162461bcd60e51b815260206004820152603e60248201527f5f696e697469616c4e65775369676e696e67506f6c696379496e697469616c6960448201527f7a6174696f6e5374617274426c6f636b4e756d62657220696e76616c696400006064820152608401620000bf565b6000868152600660209081526040808320889055600590915281209080805b8481101562000319578360000187828151811062000237576200023762000839565b60209081029190910181015182546001810184556000938452919092200180546001600160a01b0319166001600160a01b03909216919091179055855186908290811062000289576200028962000839565b6020026020010151846001016000898481518110620002ac57620002ac62000839565b60200260200101516001600160a01b03166001600160a01b0316815260200190815260200160002081905550858181518110620002ed57620002ed62000839565b60200260200101518362000302919062000865565b925080620003108162000881565b91505062000215565b5060005b8481101562000384578261ffff801687838151811062000341576200034162000839565b60200260200101516200035591906200089d565b620003619190620008b7565b6200036d9083620008da565b9150806200037b8162000881565b9150506200031d565b508061ffff168761ffff161115620004055760405162461bcd60e51b815260206004820152603a60248201527f5f696e697469616c4e6f726d616c697365645765696768747353756d4f66566f60448201527f74657273576974685075626c69634b65797320696e76616c69640000000000006064820152608401620000bf565b60029290920180546001600160801b03929092166001600160901b031990921691909117600160801b61ffff938416021761ffff60901b1916600160901b96909216959095021790935550620008ff975050505050505050565b600054600160a01b900460ff1615620004bb5760405162461bcd60e51b815260206004820152601460248201527f696e697469616c6973656420213d2066616c73650000000000000000000000006044820152606401620000bf565b6001600160a01b038216620005135760405162461bcd60e51b815260206004820152601860248201527f676f7665726e616e63652073657474696e6773207a65726f00000000000000006044820152606401620000bf565b6001600160a01b0381166200055e5760405162461bcd60e51b815260206004820152601060248201526f5f676f7665726e616e6365207a65726f60801b6044820152606401620000bf565b600080546001600160a01b038481166001600160a81b031990921691909117600160a01b17909155600180549183166001600160a01b0319909216821790556040519081527f9789733827840833afc031fb2ef9ab6894271f77bad2085687cf4ae5c7bee4db9060200160405180910390a15050565b6001600160a01b0381168114620005ea57600080fd5b50565b8051620005fa81620005d4565b919050565b805161ffff81168114620005fa57600080fd5b634e487b7160e01b600052604160045260246000fd5b604051601f8201601f191681016001600160401b038111828210171562000653576200065362000612565b604052919050565b60006001600160401b0382111562000677576200067762000612565b5060051b60200190565b600082601f8301126200069357600080fd5b81516020620006ac620006a6836200065b565b62000628565b82815260059290921b84018101918181019086841115620006cc57600080fd5b8286015b84811015620006f4578051620006e681620005d4565b8352918301918301620006d0565b509695505050505050565b600082601f8301126200071157600080fd5b8151602062000724620006a6836200065b565b82815260059290921b840181019181810190868411156200074457600080fd5b8286015b84811015620006f4578051835291830191830162000748565b60008060008060008060008060006101208a8c0312156200078157600080fd5b89516200078e81620005d4565b60208b0151909950620007a181620005d4565b9750620007b160408b01620005ed565b965060608a0151955060808a0151945060a08a01519350620007d660c08b01620005ff565b60e08b01519093506001600160401b0380821115620007f457600080fd5b620008028d838e0162000681565b93506101008c01519150808211156200081a57600080fd5b50620008298c828d01620006ff565b9150509295985092959850929598565b634e487b7160e01b600052603260045260246000fd5b634e487b7160e01b600052601160045260246000fd5b808201808211156200087b576200087b6200084f565b92915050565b6000600182016200089657620008966200084f565b5060010190565b80820281158282048414176200087b576200087b6200084f565b600082620008d557634e487b7160e01b600052601260045260246000fd5b500490565b61ffff818116838216019080821115620008f857620008f86200084f565b5092915050565b614380806200090f6000396000f3fe608060405234801561001057600080fd5b50600436106102695760003560e01c806374e6310e11610151578063b9111169116100c3578063e17f212e11610087578063e17f212e1461069a578063ef88bf13146106ae578063f5a98383146106c1578063faae7fc9146106c9578063fd587daf146106dc578063fff50753146106ef57600080fd5b8063b911116914610628578063c452e47f14610649578063cc8356ca1461066b578063d5e50a631461067e578063debfda301461068757600080fd5b806392e3e45f1161011557806392e3e45f1461057e5780639508858e14610592578063987a4500146105cf578063aeacaa6f146105ef578063b00c0b7614610602578063b61b57fa1461061557600080fd5b806374e6310e146104ef5780637c2cb921146105105780638c645728146105235780638e467784146105585780638f7d09571461056b57600080fd5b806344b571d9116101ea5780635267a15d116101ae5780635267a15d146104615780635aa6e675146104885780635ff270791461049057806362354e03146104a357806367fc4029146104b65780636ddcd4bc146104c957600080fd5b806344b571d9146103a0578063457c2e47146103dd5780634f5a9968146103f057806350b1d61b1461043b578063521318231461044e57600080fd5b80633399408111610231578063339940811461030b578063369e94341461032c57806339661f5f1461034c5780633c5cb76f1461036d578063448436b11461038d57600080fd5b806317da6b311461026e57806318d1812d1461028357806328be8e3a1461029657806329a2e5ed146102c05780632cc2c0f6146102e0575b600080fd5b61028161027c366004613555565b61070f565b005b610281610291366004613587565b610766565b6102a96102a43660046135a4565b6107ef565b6040516102b7929190613601565b60405180910390f35b6102d36102ce3660046135a4565b610926565b6040516102b79190613658565b600a546102f3906001600160a01b031681565b6040516001600160a01b0390911681526020016102b7565b61031e61031936600461366b565b6109f4565b6040519081526020016102b7565b61031e61033a3660046135a4565b60009081526005602052604090205490565b61035f61035a3660046135a4565b610a37565b6040516102b79291906136c7565b61031e61037b366004613702565b60046020526000908152604090205481565b61028161039b366004613587565b610b0a565b6103b36103ae36600461371f565b610b57565b60408051948552602085019390935261ffff918216928401929092521660608201526080016102b7565b6102d36103eb3660046135a4565b610d6e565b61042b6103fe36600461366b565b60009081526005602090815260408083206001600160a01b03949094168352600190930190522054151590565b60405190151581526020016102b7565b6008546102f3906001600160a01b031681565b61028161045c3660046135a4565b610dda565b7f714f205b2abd25bef1d06a1af944e38c113fe6160375c4e1d6d5cf28848e7719546102f3565b6102f3610e5f565b61028161049e36600461374f565b610efb565b6000546102f3906001600160a01b031681565b6102816104c436600461374f565b611181565b6104dc6104d736600461366b565b61125d565b60405161ffff90911681526020016102b7565b6105026104fd36600461374f565b6112ef565b6040516102b79291906137c9565b6102d361051e3660046135a4565b611394565b61053661053136600461371f565b611417565b604080516001600160a01b03909316835261ffff9091166020830152016102b7565b6009546102f3906001600160a01b031681565b6102816105793660046137ea565b611596565b600a5461042b90600160a01b900460ff1681565b6105a56105a03660046135a4565b6116a2565b604080516001600160801b03909416845261ffff92831660208501529116908201526060016102b7565b6105e26105dd3660046135a4565b6116fb565b6040516102b7919061382b565b61031e6105fd3660046138bf565b61181e565b610281610610366004613a16565b6119c6565b6102d36106233660046135a4565b611aa5565b61063b6106363660046135a4565b611b28565b6040516102b7929190613b02565b61065c6106573660046135a4565b611cac565b6040516102b793929190613b27565b6102d36106793660046135a4565b61218d565b61031e60035481565b61042b610695366004613587565b61226b565b60005461042b90600160a81b900460ff1681565b6102816106bc366004613b61565b6122ee565b610281612454565b6007546102f3906001600160a01b031681565b6102816106ea3660046135a4565b61251a565b61031e6106fd3660046135a4565b60066020526000908152604090205481565b600054600160b01b900460ff16806107315750600054600160a81b900460ff16155b156107585761073e612655565b600a805460ff60a01b1916600160a01b8315150217905550565b61076360003661268f565b50565b600a546001600160a01b031633146107cf5760405162461bcd60e51b815260206004820152602160248201527f6f6e6c792073797374656d20726567697374726174696f6e20636f6e747261636044820152601d60fa1b60648201526084015b60405180910390fd5b6000806107db836127db565b915091506107ea838383612a86565b505050565b600081815260056020908152604091829020805483518184028101840190945280845260609384939091839183018282801561085457602002820191906000526020600020905b81546001600160a01b03168152600190910190602001808311610836575b5050835193965083925050506001600160401b0381111561087757610877613939565b6040519080825280602002602001820160405280156108a0578160200160208202803683370190505b50925060005b8181101561091e578260010160008683815181106108c6576108c6613b8f565b60200260200101516001600160a01b03166001600160a01b031681526020019081526020016000205484828151811061090157610901613b8f565b60209081029190910101528061091681613bbb565b9150506108a6565b505050915091565b6000818152600560205260409020600201546060906001600160801b03166109605760405162461bcd60e51b81526004016107c690613bd4565b60085460008381526005602090815260408083206006909252918290205491516369fe610d60e01b81526001600160a01b03909316926369fe610d926109a99291600401613c49565b600060405180830381865afa1580156109c6573d6000803e3d6000fd5b505050506040513d6000823e601f3d908101601f191682016040526109ee9190810190613c6b565b92915050565b60008181526005602090815260408083206001600160a01b0386168452600101909152902054806109ee5760405162461bcd60e51b81526004016107c690613d04565b60008181526005602052604090206002015460609081906001600160801b0316610a735760405162461bcd60e51b81526004016107c690613bd4565b600854600084815260056020908152604080832060069092529182902054915163bda9a28b60e01b81526001600160a01b039093169263bda9a28b92610abc9291600401613c49565b600060405180830381865afa158015610ad9573d6000803e3d6000fd5b505050506040513d6000823e601f3d908101601f19168201604052610b019190810190613d8d565b91509150915091565b600054600160b01b900460ff1680610b2c5750600054600160a81b900460ff16155b1561075857610b39612655565b600a80546001600160a01b0319166001600160a01b03831617905550565b60008281526005602052604081206002810154829182918291906001600160801b031680610b975760405162461bcd60e51b81526004016107c690613bd4565b60008881526006602052604080822054600854915163385e3b1360e21b81526001600160a01b038b8116600483015260248201839052919392919091169063e178ec4c90604401602060405180830381865afa158015610bfb573d6000803e3d6000fd5b505050506040513d601f19601f82011682018060405250810190610c1f9190613de6565b9050886001600160a01b0316816001600160a01b031603610c825760405162461bcd60e51b815260206004820152601e60248201527f696e76616c6964207369676e696e6720706f6c6963792061646472657373000060448201526064016107c6565b6001600160a01b038116600090815260018501602052604090205480610cba5760405162461bcd60e51b81526004016107c690613d04565b83610cc761ffff83613e03565b610cd19190613e1a565b600854604051631110456160e01b81526001600160a01b038581166004830152602482018790529299509116906311104561906044016040805180830381865afa158015610d23573d6000803e3d6000fd5b505050506040513d601f19601f82011682018060405250810190610d479190613e3c565b60029690960154909c959b509699505050600160901b90940461ffff169550909350505050565b600081815260056020908152604091829020805483518184028101840190945280845260609392830182828015610dce57602002820191906000526020600020905b81546001600160a01b03168152600190910190602001808311610db0575b50505050509050919050565b6007546001600160a01b03163314610e305760405162461bcd60e51b815260206004820152601960248201527837b7363c90333630b9329039bcb9ba32b69036b0b730b3b2b960391b60448201526064016107c6565b60008181526006602052604090205415610e4c57610e4c613e60565b6000908152600660205260409020439055565b60008054600160a81b900460ff16610e8157506001546001600160a01b031690565b60008054906101000a90046001600160a01b03166001600160a01b031663732524946040518163ffffffff1660e01b8152600401602060405180830381865afa158015610ed2573d6000803e3d6000fd5b505050506040513d601f19601f82011682018060405250810190610ef69190613de6565b905090565b610f043361226b565b610f405760405162461bcd60e51b815260206004820152600d60248201526c37b7363c9032bc32b1baba37b960991b60448201526064016107c6565b6001600160e01b0319811660009081526002602052604081208054909103610faa5760405162461bcd60e51b815260206004820152601a60248201527f74696d656c6f636b3a20696e76616c69642073656c6563746f7200000000000060448201526064016107c6565b8054421015610ffb5760405162461bcd60e51b815260206004820152601960248201527f74696d656c6f636b3a206e6f7420616c6c6f776564207965740000000000000060448201526064016107c6565b600081600101805461100c90613e76565b80601f016020809104026020016040519081016040528092919081815260200182805461103890613e76565b80156110855780601f1061105a57610100808354040283529160200191611085565b820191906000526020600020905b81548152906001019060200180831161106857829003601f168201915b505050506001600160e01b03198516600090815260026020526040812081815592935090506110b760018301826134f9565b50506000805460ff60b01b1916600160b01b17815560405130906110dc908490613eb0565b6000604051808303816000865af19150503d8060008114611119576040519150601f19603f3d011682016040523d82523d6000602084013e61111e565b606091505b50506000805460ff60b01b19169055604080516001600160e01b0319871681524260208201529192507fa7326b57fc9cfe267aaea5e7f0b01757154d265620a0585819416ee9ddd2c438910160405180910390a161117b816130e2565b50505050565b6111896130ff565b6001600160e01b0319811660009081526002602052604081205490036111f15760405162461bcd60e51b815260206004820152601a60248201527f74696d656c6f636b3a20696e76616c69642073656c6563746f7200000000000060448201526064016107c6565b604080516001600160e01b0319831681524260208201527f7735b2391c38a81419c513e30ca578db7158eadd7101511b23e221c654d19cf8910160405180910390a16001600160e01b031981166000908152600260205260408120818155906107ea60018301826134f9565b600081815260056020526040812060028101546001600160801b0316806112965760405162461bcd60e51b81526004016107c690613bd4565b6001600160a01b0385166000908152600183016020526040902054806112ce5760405162461bcd60e51b81526004016107c690613d04565b816112db61ffff83613e03565b6112e59190613e1a565b9695505050505050565b6002602052600090815260409020805460018201805491929161131190613e76565b80601f016020809104026020016040519081016040528092919081815260200182805461133d90613e76565b801561138a5780601f1061135f5761010080835404028352916020019161138a565b820191906000526020600020905b81548152906001019060200180831161136d57829003601f168201915b5050505050905082565b6000818152600560205260409020600201546060906001600160801b03166113ce5760405162461bcd60e51b81526004016107c690613bd4565b6008546000838152600560209081526040808320600690925291829020549151631594a52760e21b81526001600160a01b0390931692635652949c926109a99291600401613c49565b600082815260056020526040812060028101548291906001600160801b0316806114535760405162461bcd60e51b81526004016107c690613bd4565b6008546000878152600660205260409081902054905163385e3b1360e21b81526001600160a01b038881166004830152602482019290925291169063e178ec4c90604401602060405180830381865afa1580156114b4573d6000803e3d6000fd5b505050506040513d601f19601f820116820180604052508101906114d89190613de6565b9350846001600160a01b0316846001600160a01b03160361153b5760405162461bcd60e51b815260206004820152601e60248201527f696e76616c6964207369676e696e6720706f6c6963792061646472657373000060448201526064016107c6565b6001600160a01b0384166000908152600183016020526040902054806115735760405162461bcd60e51b81526004016107c690613d04565b8161158061ffff83613e03565b61158a9190613e1a565b93505050509250929050565b6000806115a2846127db565b6040805162ffffff84166020808301919091526001600160a01b03891682840152825180830384018152606090920190925280519101207f19457468657265756d205369676e6564204d6573736167653a0a3332000000006000908152601c829052603c81209395509193509190506000611633826116246020890189613ecc565b88602001358960400135613159565b905083604001516001600160a01b0316816001600160a01b03161461168e5760405162461bcd60e51b8152602060048201526011602482015270696e76616c6964207369676e617475726560781b60448201526064016107c6565b611699878686612a86565b50505050505050565b600081815260056020526040902060028101546001600160801b0381169161ffff600160801b8304811692600160901b90041690836116f35760405162461bcd60e51b81526004016107c690613bd4565b509193909250565b6000818152600560205260409020600201546060906001600160801b03166117355760405162461bcd60e51b81526004016107c690613bd4565b600854600083815260056020526040908190206007549151636131910b60e11b8152600481018690526001600160a01b03938416936305b232c893169063c263221690602401602060405180830381865afa158015611798573d6000803e3d6000fd5b505050506040513d601f19601f820116820180604052508101906117bc9190613eef565b6040518363ffffffff1660e01b81526004016117d9929190613f18565b600060405180830381865afa1580156117f6573d6000803e3d6000fd5b505050506040513d6000823e601f3d908101601f191682016040526109ee9190810190613f43565b60008054600160b01b900460ff16806118415750600054600160a81b900460ff16155b156119b45761184e612655565b60075460408051637056269760e01b815290516000926001600160a01b03169163705626979160048083019260209291908290030181865afa158015611898573d6000803e3d6000fd5b505050506040513d601f19601f820116820180604052508101906118bc9190614055565b62ffffff1690506118cd838261407a565b6118d890600161407a565b915060005b848110156119ad5782600460008888858181106118fc576118fc613b8f565b90506020020160208101906119119190613702565b6001600160601b031916815260208101919091526040016000205585858281811061193e5761193e613b8f565b90506020020160208101906119539190613702565b6bffffffffffffffffffffffff19167f0a5e087b026d8f1c57e75d9d0cb0394c2ad3535e7a15d97d553be80476274cd08460405161199391815260200190565b60405180910390a2806119a581613bbb565b9150506118dd565b50506119bf565b6119bf60003661268f565b9392505050565b7f714f205b2abd25bef1d06a1af944e38c113fe6160375c4e1d6d5cf28848e7719546001600160a01b0316336001600160a01b031614611a3f5760405162461bcd60e51b815260206004820152601460248201527337b7363c9030b2323932b9b9903ab83230ba32b960611b60448201526064016107c6565b611a97611a7383836040518060400160405280600e81526020016d20b2323932b9b9aab83230ba32b960911b815250613187565b7f714f205b2abd25bef1d06a1af944e38c113fe6160375c4e1d6d5cf28848e771955565b611aa18282613262565b5050565b6000818152600560205260409020600201546060906001600160801b0316611adf5760405162461bcd60e51b81526004016107c690613bd4565b6008546000838152600560209081526040808320600690925291829020549151636558b56b60e01b81526001600160a01b0390931692636558b56b926109a99291600401613c49565b6000818152600560205260409020600281015460609182916001600160801b031680611b665760405162461bcd60e51b81526004016107c690613bd4565b815460408051602080840282018101909252828152918491830182828015611bb757602002820191906000526020600020905b81546001600160a01b03168152600190910190602001808311611b99575b5050835193975083925050506001600160401b03811115611bda57611bda613939565b604051908082528060200260200182016040528015611c03578160200160208202803683370190505b50935060005b81811015611ca3578261ffff8016856001016000898581518110611c2f57611c2f613b8f565b60200260200101516001600160a01b03166001600160a01b0316815260200190815260200160002054611c629190613e03565b611c6c9190613e1a565b858281518110611c7e57611c7e613b8f565b61ffff9092166020928302919091019091015280611c9b81613bbb565b915050611c09565b50505050915091565b60075460609081906000906001600160a01b03163314611d0a5760405162461bcd60e51b815260206004820152601960248201527837b7363c90333630b9329039bcb9ba32b69036b0b730b3b2b960391b60448201526064016107c6565b6000848152600560205260409020805480611d2757611d27613e60565b6000816001600160401b03811115611d4157611d41613939565b604051908082528060200260200182016040528015611d6a578160200160208202803683370190505b5090506000826001600160401b03811115611d8757611d87613939565b604051908082528060200260200182016040528015611db0578160200160208202803683370190505b5090506000805b84811015611ebc57856000018181548110611dd457611dd4613b8f565b9060005260206000200160009054906101000a90046001600160a01b0316848281518110611e0457611e04613b8f565b60200260200101906001600160a01b031690816001600160a01b031681525050856001016000858381518110611e3c57611e3c613b8f565b60200260200101516001600160a01b03166001600160a01b0316815260200190815260200160002054838281518110611e7757611e77613b8f565b602002602001018181525050828181518110611e9557611e95613b8f565b602002602001015182611ea8919061407a565b915080611eb481613bbb565b915050611db7565b5060085460008a815260066020526040908190205490516369fe610d60e01b81526001600160a01b03909216916369fe610d91611efe9187919060040161408d565b600060405180830381865afa158015611f1b573d6000803e3d6000fd5b505050506040513d6000823e601f3d908101601f19168201604052611f439190810190613c6b565b60085460008b81526006602052604080822054905163bda9a28b60e01b8152939b50909283926001600160a01b03169163bda9a28b91611f8791899160040161408d565b600060405180830381865afa158015611fa4573d6000803e3d6000fd5b505050506040513d6000823e601f3d908101601f19168201604052611fcc9190810190613d8d565b91509150856001600160401b03811115611fe857611fe8613939565b604051908082528060200260200182016040528015612011578160200160208202803683370190505b5098506000805b87811015612129578461ffff801687838151811061203857612038613b8f565b602002602001015161204a9190613e03565b6120549190613e1a565b8b828151811061206657612066613b8f565b602002602001019061ffff16908161ffff16815250508a818151811061208e5761208e613b8f565b60200260200101518a6120a191906140a0565b99506000801b8482815181106120b9576120b9613b8f565b60200260200101511415806120ea57506000801b8382815181106120df576120df613b8f565b602002602001015114155b15612117578a818151811061210157612101613b8f565b60200260200101518261211491906140a0565b91505b8061212181613bbb565b915050612018565b506002909701805461ffff988916600160901b0261ffff60901b19998b16600160801b0271ffffffffffffffffffffffffffffffffffff199092166001600160801b0390961695909517179790971692909217909555509597949650929450505050565b6000818152600560205260409020600201546060906001600160801b03166121c75760405162461bcd60e51b81526004016107c690613bd4565b600854600083815260056020526040908190206007549151636131910b60e11b8152600481018690526001600160a01b039384169363df7c7c6893169063c263221690602401602060405180830381865afa15801561222a573d6000803e3d6000fd5b505050506040513d601f19601f8201168201806040525081019061224e9190613eef565b6040518363ffffffff1660e01b81526004016109a9929190613f18565b60008054600160a01b900460ff1680156109ee5750600054604051630debfda360e41b81526001600160a01b0384811660048301529091169063debfda3090602401602060405180830381865afa1580156122ca573d6000803e3d6000fd5b505050506040513d601f19601f820116820180604052508101906109ee91906140c2565b600054600160a01b900460ff161561233f5760405162461bcd60e51b8152602060048201526014602482015273696e697469616c6973656420213d2066616c736560601b60448201526064016107c6565b6001600160a01b0382166123955760405162461bcd60e51b815260206004820152601860248201527f676f7665726e616e63652073657474696e6773207a65726f000000000000000060448201526064016107c6565b6001600160a01b0381166123de5760405162461bcd60e51b815260206004820152601060248201526f5f676f7665726e616e6365207a65726f60801b60448201526064016107c6565b600080546001600160a01b038481166001600160a81b031990921691909117600160a01b17909155600180549183166001600160a01b0319909216821790556040519081527f9789733827840833afc031fb2ef9ab6894271f77bad2085687cf4ae5c7bee4db9060200160405180910390a15050565b61245c6130ff565b600054600160a81b900460ff16156124b65760405162461bcd60e51b815260206004820152601a60248201527f616c726561647920696e2070726f64756374696f6e206d6f646500000000000060448201526064016107c6565b600180546001600160a01b031916905560008054600160a81b60ff60a81b198216179091556040516001600160a01b0390911681527f83af113638b5422f9e977cebc0aaf0eaf2188eb9a8baae7f9d46c42b33a1560c9060200160405180910390a1565b600054600160b01b900460ff168061253c5750600054600160a81b900460ff16155b1561075857612549612655565b61ffff8111156125915760405162461bcd60e51b81526020600482015260136024820152720bedac2f0acdee8cae4e640e8dede40d0d2ced606b1b60448201526064016107c6565b600760009054906101000a90046001600160a01b03166001600160a01b0316632e3645f86040518163ffffffff1660e01b8152600401602060405180830381865afa1580156125e4573d6000803e3d6000fd5b505050506040513d601f19601f8201168201806040525081019061260891906140df565b61ffff168110156126505760405162461bcd60e51b81526020600482015260126024820152715f6d6178566f7465727320746f6f206c6f7760701b60448201526064016107c6565b600355565b600054600160b01b900460ff16156126855733301461267657612676613e60565b6000805460ff60b01b19169055565b61268d6130ff565b565b6126976130ff565b6000805460408051636221a54b60e01b81529051853593926001600160a01b031691636221a54b9160048083019260209291908290030181865afa1580156126e3573d6000803e3d6000fd5b505050506040513d601f19601f820116820180604052508101906127079190614103565b90506000612715824261407a565b9050604051806040016040528082815260200186868080601f01602080910402602001604051908101604052809392919081815260200183838082843760009201829052509390945250506001600160e01b03198616815260026020908152604090912083518155908301519091506001820190612793908261416a565b509050507fed948300a3694aa01d4a6b258bfd664350193d770c0b51f8387277f6d83ea3b6838287876040516127cc9493929190614229565b60405180910390a15050505050565b60408051606081018252600080825260208201819052918101829052600760009054906101000a90046001600160a01b03166001600160a01b031663705626976040518163ffffffff1660e01b8152600401602060405180830381865afa15801561284a573d6000803e3d6000fd5b505050506040513d601f19601f8201168201806040525081019061286e9190614055565b61287990600161426f565b62ffffff81166000908152600660205260408120549193508190036128e05760405162461bcd60e51b815260206004820152601e60248201527f726567697374726174696f6e206e6f7420617661696c61626c6520796574000060448201526064016107c6565b60085460405163164a335960e31b81526001600160a01b038681166004830152602482018490529091169063b2519ac890604401606060405180830381865afa158015612931573d6000803e3d6000fd5b505050506040513d601f19601f82011682018060405250810190612955919061428b565b9150836001600160a01b031682604001516001600160a01b0316036129bc5760405162461bcd60e51b815260206004820152601e60248201527f7369676e696e6720706f6c6963792061646472657373206e6f7420736574000060448201526064016107c6565b81516001600160a01b03808616911603612a115760405162461bcd60e51b81526020600482015260166024820152751cdd589b5a5d081859191c995cdcc81b9bdd081cd95d60521b60448201526064016107c6565b836001600160a01b031682602001516001600160a01b031603612a805760405162461bcd60e51b815260206004820152602160248201527f7375626d6974207369676e6174757265732061646472657373206e6f742073656044820152601d60fa1b60648201526084016107c6565b50915091565b6007546040516302e074f160e31b815262ffffff8416600482015260009182916001600160a01b0390911690631703a788906024016040805180830381865afa158015612ad7573d6000803e3d6000fd5b505050506040513d601f19601f82011682018060405250810190612afb91906142fc565b9150915081600003612b475760405162461bcd60e51b8152602060048201526015602482015274766f746520706f77657220626c6f636b207a65726f60581b60448201526064016107c6565b80612b945760405162461bcd60e51b815260206004820152601e60248201527f766f74657220726567697374726174696f6e206e6f7420656e61626c6564000060448201526064016107c6565b6008546040516315f6dfbd60e11b81526001600160a01b038781166004830181905260248301869052921690632bedbf7a90604401602060405180830381865afa158015612be6573d6000803e3d6000fd5b505050506040513d601f19601f82011682018060405250810190612c0a9190613de6565b6001600160a01b031603612c605760405162461bcd60e51b815260206004820152601a60248201527f64656c65676174696f6e2061646472657373206e6f742073657400000000000060448201526064016107c6565b600954604051635b28c2eb60e11b81526001600160a01b03878116600483015262ffffff8716602483015260448201859052600092169063b65185d6906064016020604051808303816000875af1158015612cbf573d6000803e3d6000fd5b505050506040513d601f19601f82011682018060405250810190612ce39190614103565b905060008111612d295760405162461bcd60e51b8152602060048201526011602482015270766f74657220776569676874207a65726f60781b60448201526064016107c6565b60085462ffffff8616600090815260066020526040808220549051631110456160e01b81526001600160a01b038a811660048301526024820192909252919283929116906311104561906044016040805180830381865afa158015612d92573d6000803e3d6000fd5b505050506040513d601f19601f82011682018060405250810190612db69190613e3c565b600a549193509150600160a01b900460ff168015612dd2575081155b8015612ddc575080155b15612e1f5760405162461bcd60e51b81526020600482015260136024820152721c1d589b1a58c81ad95e481c995c5d5a5c9959606a1b60448201526064016107c6565b62ffffff871660009081526005602090815260408083206001600160a01b038c168452600181019092529091205415612e8f5760405162461bcd60e51b8152602060048201526012602482015271185b1c9958591e481c9959da5cdd195c995960721b60448201526064016107c6565b8054600354811015612ee1578154600180820184556000848152602080822090930180546001600160a01b0319166001600160a01b038f16908117909155815290840190915260409020859055613060565b6000600019815b83811015612f55576000856000018281548110612f0757612f07613b8f565b60009182526020808320909101546001600160a01b03168083526001890190915260409091205490915080841115612f40578093508294505b50508080612f4d90613bbb565b915050612ee8565b50868110612f9a5760405162461bcd60e51b8152602060048201526012602482015271766f746520706f77657220746f6f206c6f7760701b60448201526064016107c6565b6000846000018381548110612fb157612fb1613b8f565b60009182526020808320909101546001600160a01b031680835260018801909152604082209190915585549091508d90869085908110612ff357612ff3613b8f565b600091825260208083209190910180546001600160a01b0319166001600160a01b039485161790558f8316825260018801905260408082208b90555162ffffff8f16928416917f98a7f87f8e2aa2f23f43769eff67782bb12946384b142d1ce1e8e38e05d9a3e691a35050505b60408089015189516020808c015184516001600160a01b0393841681529083169181019190915292830187905260608301869052608083018890529081169162ffffff8c16918d16907f824bc2cc10bfe21ead60b8c8a90716eb325b9335aa73eaede799abf38fce062c9060a00160405180910390a450505050505050505050565b3d604051818101604052816000823e82156130fb578181f35b8181fd5b613107610e5f565b6001600160a01b0316336001600160a01b03161461268d5760405162461bcd60e51b815260206004820152600f60248201526e6f6e6c7920676f7665726e616e636560881b60448201526064016107c6565b60008060008061316b88888888613371565b92509250925061317b8282613440565b50909695505050505050565b6000808260405160200161319b9190614321565b6040516020818303038152906040528051906020012090506000805b8651811015613213578681815181106131d2576131d2613b8f565b60200260200101518303613201578581815181106131f2576131f2613b8f565b60200260200101519150613213565b8061320b81613bbb565b9150506131b7565b506001600160a01b0381166132595760405162461bcd60e51b815260206004820152600c60248201526b61646472657373207a65726f60a01b60448201526064016107c6565b95945050505050565b613298828260405180604001604052806013815260200172233630b932a9bcb9ba32b6b9a6b0b730b3b2b960691b815250613187565b600760006101000a8154816001600160a01b0302191690836001600160a01b031602179055506132ee82826040518060400160405280600d81526020016c22b73a34ba3ca6b0b730b3b2b960991b815250613187565b600860006101000a8154816001600160a01b0302191690836001600160a01b0316021790555061334d828260405180604001604052806016815260200175233630b932a9bcb9ba32b6b9a1b0b631bab630ba37b960511b815250613187565b600980546001600160a01b0319166001600160a01b03929092169190911790555050565b600080807f7fffffffffffffffffffffffffffffff5d576e7357a4501ddfe92f46681b20a08411156133ac5750600091506003905082613436565b604080516000808252602082018084528a905260ff891692820192909252606081018790526080810186905260019060a0016020604051602081039080840390855afa158015613400573d6000803e3d6000fd5b5050604051601f1901519150506001600160a01b03811661342c57506000925060019150829050613436565b9250600091508190505b9450945094915050565b600082600381111561345457613454614334565b0361345d575050565b600182600381111561347157613471614334565b0361348f5760405163f645eedf60e01b815260040160405180910390fd5b60028260038111156134a3576134a3614334565b036134c45760405163fce698f760e01b8152600481018290526024016107c6565b60038260038111156134d8576134d8614334565b03611aa1576040516335e2f38360e21b8152600481018290526024016107c6565b50805461350590613e76565b6000825580601f10613515575050565b601f01602090049060005260206000209081019061076391905b80821115613543576000815560010161352f565b5090565b801515811461076357600080fd5b60006020828403121561356757600080fd5b81356119bf81613547565b6001600160a01b038116811461076357600080fd5b60006020828403121561359957600080fd5b81356119bf81613572565b6000602082840312156135b657600080fd5b5035919050565b600081518084526020808501945080840160005b838110156135f65781516001600160a01b0316875295820195908201906001016135d1565b509495945050505050565b60408152600061361460408301856135bd565b82810360208481019190915284518083528582019282019060005b8181101561364b5784518352938301939183019160010161362f565b5090979650505050505050565b6020815260006119bf60208301846135bd565b6000806040838503121561367e57600080fd5b823561368981613572565b946020939093013593505050565b600081518084526020808501945080840160005b838110156135f6578151875295820195908201906001016136ab565b6040815260006136da6040830185613697565b82810360208401526132598185613697565b6001600160601b03198116811461076357600080fd5b60006020828403121561371457600080fd5b81356119bf816136ec565b6000806040838503121561373257600080fd5b82359150602083013561374481613572565b809150509250929050565b60006020828403121561376157600080fd5b81356001600160e01b0319811681146119bf57600080fd5b60005b8381101561379457818101518382015260200161377c565b50506000910152565b600081518084526137b5816020860160208601613779565b601f01601f19169290920160200192915050565b8281526040602082015260006137e2604083018461379d565b949350505050565b60008082840360808112156137fe57600080fd5b833561380981613572565b92506060601f198201121561381d57600080fd5b506020830190509250929050565b6000602080830181845280855180835260408601915060408160051b87010192508387016000805b838110156138b157888603603f19018552825180518088529088019088880190845b8181101561389b5783516001600160601b0319168352928a0192918a0191600101613875565b5090975050509386019391860191600101613853565b509398975050505050505050565b6000806000604084860312156138d457600080fd5b83356001600160401b03808211156138eb57600080fd5b818601915086601f8301126138ff57600080fd5b81358181111561390e57600080fd5b8760208260051b850101111561392357600080fd5b6020928301989097509590910135949350505050565b634e487b7160e01b600052604160045260246000fd5b604051601f8201601f191681016001600160401b038111828210171561397757613977613939565b604052919050565b60006001600160401b0382111561399857613998613939565b5060051b60200190565b600082601f8301126139b357600080fd5b813560206139c86139c38361397f565b61394f565b82815260059290921b840181019181810190868411156139e757600080fd5b8286015b84811015613a0b5780356139fe81613572565b83529183019183016139eb565b509695505050505050565b60008060408385031215613a2957600080fd5b82356001600160401b0380821115613a4057600080fd5b818501915085601f830112613a5457600080fd5b81356020613a646139c38361397f565b82815260059290921b84018101918181019089841115613a8357600080fd5b948201945b83861015613aa157853582529482019490820190613a88565b96505086013592505080821115613ab757600080fd5b50613ac4858286016139a2565b9150509250929050565b600081518084526020808501945080840160005b838110156135f657815161ffff1687529582019590820190600101613ae2565b604081526000613b1560408301856135bd565b82810360208401526132598185613ace565b606081526000613b3a60608301866135bd565b8281036020840152613b4c8186613ace565b91505061ffff83166040830152949350505050565b60008060408385031215613b7457600080fd5b8235613b7f81613572565b9150602083013561374481613572565b634e487b7160e01b600052603260045260246000fd5b634e487b7160e01b600052601160045260246000fd5b600060018201613bcd57613bcd613ba5565b5060010190565b6020808252601d908201527f7265776172642065706f6368206964206e6f7420737570706f72746564000000604082015260600190565b6000815480845260208085019450836000528060002060005b838110156135f65781546001600160a01b031687529582019560019182019101613c24565b604081526000613c5c6040830185613c0b565b90508260208301529392505050565b60006020808385031215613c7e57600080fd5b82516001600160401b03811115613c9457600080fd5b8301601f81018513613ca557600080fd5b8051613cb36139c38261397f565b81815260059190911b82018301908381019087831115613cd257600080fd5b928401925b82841015613cf9578351613cea81613572565b82529284019290840190613cd7565b979650505050505050565b6020808252601490820152731d9bdd195c881b9bdd081c9959da5cdd195c995960621b604082015260600190565b600082601f830112613d4357600080fd5b81516020613d536139c38361397f565b82815260059290921b84018101918181019086841115613d7257600080fd5b8286015b84811015613a0b5780518352918301918301613d76565b60008060408385031215613da057600080fd5b82516001600160401b0380821115613db757600080fd5b613dc386838701613d32565b93506020850151915080821115613dd957600080fd5b50613ac485828601613d32565b600060208284031215613df857600080fd5b81516119bf81613572565b80820281158282048414176109ee576109ee613ba5565b600082613e3757634e487b7160e01b600052601260045260246000fd5b500490565b60008060408385031215613e4f57600080fd5b505080516020909101519092909150565b634e487b7160e01b600052600160045260246000fd5b600181811c90821680613e8a57607f821691505b602082108103613eaa57634e487b7160e01b600052602260045260246000fd5b50919050565b60008251613ec2818460208701613779565b9190910192915050565b600060208284031215613ede57600080fd5b813560ff811681146119bf57600080fd5b600060208284031215613f0157600080fd5b81516001600160401b03811681146119bf57600080fd5b604081526000613f2b6040830185613c0b565b90506001600160401b03831660208301529392505050565b60006020808385031215613f5657600080fd5b82516001600160401b0380821115613f6d57600080fd5b818501915085601f830112613f8157600080fd5b8151613f8f6139c38261397f565b818152600591821b8401850191858201919089841115613fae57600080fd5b8686015b8481101561404657805186811115613fca5760008081fd5b8701603f81018c13613fdc5760008081fd5b888101516040613fee6139c38361397f565b82815291851b83018101918b8101908f84111561400b5760008081fd5b938201935b838510156140355784519250614025836136ec565b828252938c0193908c0190614010565b885250505093880193508701613fb2565b50909998505050505050505050565b60006020828403121561406757600080fd5b815162ffffff811681146119bf57600080fd5b808201808211156109ee576109ee613ba5565b604081526000613c5c60408301856135bd565b61ffff8181168382160190808211156140bb576140bb613ba5565b5092915050565b6000602082840312156140d457600080fd5b81516119bf81613547565b6000602082840312156140f157600080fd5b815161ffff811681146119bf57600080fd5b60006020828403121561411557600080fd5b5051919050565b601f8211156107ea57600081815260208120601f850160051c810160208610156141435750805b601f850160051c820191505b818110156141625782815560010161414f565b505050505050565b81516001600160401b0381111561418357614183613939565b614197816141918454613e76565b8461411c565b602080601f8311600181146141cc57600084156141b45750858301515b600019600386901b1c1916600185901b178555614162565b600085815260208120601f198616915b828110156141fb578886015182559484019460019091019084016141dc565b50858210156142195787850151600019600388901b60f8161c191681555b5050505050600190811b01905550565b63ffffffff60e01b8516815283602082015260606040820152816060820152818360808301376000818301608090810191909152601f909201601f191601019392505050565b62ffffff8181168382160190808211156140bb576140bb613ba5565b60006060828403121561429d57600080fd5b604051606081018181106001600160401b03821117156142bf576142bf613939565b60405282516142cd81613572565b815260208301516142dd81613572565b602082015260408301516142f081613572565b60408201529392505050565b6000806040838503121561430f57600080fd5b82519150602083015161374481613547565b6020815260006119bf602083018461379d565b634e487b7160e01b600052602160045260246000fdfea26469706673582212200760044682c80809f36dc85732a8a123a48e7d0dca7b27ba5bd0cd21207c840664736f6c63430008140033",
  "linkReferences": {},
  "deployedLinkReferences": {}
}