{
  "_format": "hh-sol-artifact-1",
  "contractName": "VoterRegistry",
  "sourceName": "contracts/protocol/implementation/VoterRegistry.sol",
  "abi": [
    {
      "inputs": [
        {
          "internalType": "contract IGovernanceSettings",
          "name": "_governanceSettings",
          "type": "address"
        },
        {
          "internalType": "address",
          "name": "_initialGovernance",
          "type": "address"
        },
        {
          "internalType": "address",
          "name": "_addressUpdater",
          "type": "address"
        },
        {
          "internalType": "uint256",
          "name": "_maxVoters",
          "type": "uint256"
        },
        {
          "internalType": "uint256",
          "name": "_firstRewardEpochId",
          "type": "uint256"
        },
        {
          "internalType": "address[]",
          "name": "_initialVoters",
          "type": "address[]"
        },
        {
          "internalType": "uint16[]",
          "name": "_initialNormalisedWeights",
          "type": "uint16[]"
        }
      ],
      "stateMutability": "nonpayable",
      "type": "constructor"
    },
    {
      "inputs": [],
      "name": "ECDSAInvalidSignature",
      "type": "error"
    },
    {
      "inputs": [
        {
          "internalType": "uint256",
          "name": "length",
          "type": "uint256"
        }
      ],
      "name": "ECDSAInvalidSignatureLength",
      "type": "error"
    },
    {
      "inputs": [
        {
          "internalType": "bytes32",
          "name": "s",
          "type": "bytes32"
        }
      ],
      "name": "ECDSAInvalidSignatureS",
      "type": "error"
    },
    {
      "anonymous": false,
      "inputs": [
        {
          "indexed": false,
          "internalType": "bytes4",
          "name": "selector",
          "type": "bytes4"
        },
        {
          "indexed": false,
          "internalType": "uint256",
          "name": "allowedAfterTimestamp",
          "type": "uint256"
        },
        {
          "indexed": false,
          "internalType": "bytes",
          "name": "encodedCall",
          "type": "bytes"
        }
      ],
      "name": "GovernanceCallTimelocked",
      "type": "event"
    },
    {
      "anonymous": false,
      "inputs": [
        {
          "indexed": false,
          "internalType": "address",
          "name": "initialGovernance",
          "type": "address"
        }
      ],
      "name": "GovernanceInitialised",
      "type": "event"
    },
    {
      "anonymous": false,
      "inputs": [
        {
          "indexed": false,
          "internalType": "address",
          "name": "governanceSettings",
          "type": "address"
        }
      ],
      "name": "GovernedProductionModeEntered",
      "type": "event"
    },
    {
      "anonymous": false,
      "inputs": [
        {
          "indexed": false,
          "internalType": "bytes4",
          "name": "selector",
          "type": "bytes4"
        },
        {
          "indexed": false,
          "internalType": "uint256",
          "name": "timestamp",
          "type": "uint256"
        }
      ],
      "name": "TimelockedGovernanceCallCanceled",
      "type": "event"
    },
    {
      "anonymous": false,
      "inputs": [
        {
          "indexed": false,
          "internalType": "bytes4",
          "name": "selector",
          "type": "bytes4"
        },
        {
          "indexed": false,
          "internalType": "uint256",
          "name": "timestamp",
          "type": "uint256"
        }
      ],
      "name": "TimelockedGovernanceCallExecuted",
      "type": "event"
    },
    {
      "anonymous": false,
      "inputs": [
        {
          "indexed": false,
          "internalType": "address",
          "name": "voter",
          "type": "address"
        },
        {
          "indexed": false,
          "internalType": "uint256",
          "name": "untilRewardEpochId",
          "type": "uint256"
        }
      ],
      "name": "VoterChilled",
      "type": "event"
    },
    {
      "anonymous": false,
      "inputs": [
        {
          "indexed": false,
          "internalType": "address",
          "name": "voter",
          "type": "address"
        },
        {
          "indexed": false,
          "internalType": "uint256",
          "name": "rewardEpochId",
          "type": "uint256"
        },
        {
          "indexed": false,
          "internalType": "address",
          "name": "signingPolicyAddress",
          "type": "address"
        },
        {
          "indexed": false,
          "internalType": "address",
          "name": "delegationAddress",
          "type": "address"
        },
        {
          "indexed": false,
          "internalType": "address",
          "name": "submitAddress",
          "type": "address"
        },
        {
          "indexed": false,
          "internalType": "address",
          "name": "submitSignaturesAddress",
          "type": "address"
        },
        {
          "indexed": false,
          "internalType": "uint256",
          "name": "weight",
          "type": "uint256"
        },
        {
          "indexed": false,
          "internalType": "uint256",
          "name": "wNatWeight",
          "type": "uint256"
        },
        {
          "indexed": false,
          "internalType": "uint256",
          "name": "cChainStakeWeight",
          "type": "uint256"
        },
        {
          "indexed": false,
          "internalType": "bytes20[]",
          "name": "nodeIds",
          "type": "bytes20[]"
        },
        {
          "indexed": false,
          "internalType": "uint256[]",
          "name": "nodeWeights",
          "type": "uint256[]"
        }
      ],
      "name": "VoterRegistered",
      "type": "event"
    },
    {
      "anonymous": false,
      "inputs": [
        {
          "indexed": false,
          "internalType": "address",
          "name": "voter",
          "type": "address"
        },
        {
          "indexed": false,
          "internalType": "uint256",
          "name": "rewardEpochId",
          "type": "uint256"
        }
      ],
      "name": "VoterRemoved",
      "type": "event"
    },
    {
      "inputs": [],
      "name": "cChainStake",
      "outputs": [
        {
          "internalType": "contract ICChainStake",
          "name": "",
          "type": "address"
        }
      ],
      "stateMutability": "view",
      "type": "function"
    },
    {
      "inputs": [],
      "name": "cChainStakeEnabled",
      "outputs": [
        {
          "internalType": "bool",
          "name": "",
          "type": "bool"
        }
      ],
      "stateMutability": "view",
      "type": "function"
    },
    {
      "inputs": [
        {
          "internalType": "bytes4",
          "name": "_selector",
          "type": "bytes4"
        }
      ],
      "name": "cancelGovernanceCall",
      "outputs": [],
      "stateMutability": "nonpayable",
      "type": "function"
    },
    {
      "inputs": [
        {
          "internalType": "address",
          "name": "_voter",
          "type": "address"
        },
        {
          "internalType": "uint256",
          "name": "_noOfRewardEpochIds",
          "type": "uint256"
        }
      ],
      "name": "chillVoter",
      "outputs": [
        {
          "internalType": "uint256",
          "name": "_untilRewardEpochId",
          "type": "uint256"
        }
      ],
      "stateMutability": "nonpayable",
      "type": "function"
    },
    {
      "inputs": [
        {
          "internalType": "address",
          "name": "",
          "type": "address"
        }
      ],
      "name": "chilledUntilRewardEpochId",
      "outputs": [
        {
          "internalType": "uint256",
          "name": "",
          "type": "uint256"
        }
      ],
      "stateMutability": "view",
      "type": "function"
    },
    {
      "inputs": [
        {
          "internalType": "uint256",
          "name": "_rewardEpochId",
          "type": "uint256"
        }
      ],
      "name": "createSigningPolicySnapshot",
      "outputs": [
        {
          "internalType": "address[]",
          "name": "_signingPolicyAddresses",
          "type": "address[]"
        },
        {
          "internalType": "uint16[]",
          "name": "_normalisedWeights",
          "type": "uint16[]"
        },
        {
          "internalType": "uint16",
          "name": "_normalisedWeightsSum",
          "type": "uint16"
        }
      ],
      "stateMutability": "nonpayable",
      "type": "function"
    },
    {
      "inputs": [],
      "name": "enableCChainStake",
      "outputs": [],
      "stateMutability": "nonpayable",
      "type": "function"
    },
    {
      "inputs": [],
      "name": "entityManager",
      "outputs": [
        {
          "internalType": "contract EntityManager",
          "name": "",
          "type": "address"
        }
      ],
      "stateMutability": "view",
      "type": "function"
    },
    {
      "inputs": [
        {
          "internalType": "bytes4",
          "name": "_selector",
          "type": "bytes4"
        }
      ],
      "name": "executeGovernanceCall",
      "outputs": [],
      "stateMutability": "nonpayable",
      "type": "function"
    },
    {
      "inputs": [],
      "name": "flareSystemManager",
      "outputs": [
        {
          "internalType": "contract FlareSystemManager",
          "name": "",
          "type": "address"
        }
      ],
      "stateMutability": "view",
      "type": "function"
    },
    {
      "inputs": [],
      "name": "getAddressUpdater",
      "outputs": [
        {
          "internalType": "address",
          "name": "_addressUpdater",
          "type": "address"
        }
      ],
      "stateMutability": "view",
      "type": "function"
    },
    {
      "inputs": [
        {
          "internalType": "uint256",
          "name": "_rewardEpochId",
          "type": "uint256"
        }
      ],
      "name": "getNumberOfRegisteredVoters",
      "outputs": [
        {
          "internalType": "uint256",
          "name": "",
          "type": "uint256"
        }
      ],
      "stateMutability": "view",
      "type": "function"
    },
    {
      "inputs": [
        {
          "internalType": "uint256",
          "name": "_rewardEpochId",
          "type": "uint256"
        }
      ],
      "name": "getRegisteredSigningPolicyAddresses",
      "outputs": [
        {
          "internalType": "address[]",
          "name": "_signingPolicyAddresses",
          "type": "address[]"
        }
      ],
      "stateMutability": "view",
      "type": "function"
    },
    {
      "inputs": [
        {
          "internalType": "uint256",
          "name": "_rewardEpochId",
          "type": "uint256"
        }
      ],
      "name": "getRegisteredSubmitAddresses",
      "outputs": [
        {
          "internalType": "address[]",
          "name": "",
          "type": "address[]"
        }
      ],
      "stateMutability": "view",
      "type": "function"
    },
    {
      "inputs": [
        {
          "internalType": "uint256",
          "name": "_rewardEpochId",
          "type": "uint256"
        }
      ],
      "name": "getRegisteredSubmitSignaturesAddresses",
      "outputs": [
        {
          "internalType": "address[]",
          "name": "_signingPolicyAddresses",
          "type": "address[]"
        }
      ],
      "stateMutability": "view",
      "type": "function"
    },
    {
      "inputs": [
        {
          "internalType": "uint256",
          "name": "_rewardEpochId",
          "type": "uint256"
        }
      ],
      "name": "getRegisteredVoters",
      "outputs": [
        {
          "internalType": "address[]",
          "name": "",
          "type": "address[]"
        }
      ],
      "stateMutability": "view",
      "type": "function"
    },
    {
      "inputs": [
        {
          "internalType": "uint256",
          "name": "_rewardEpochId",
          "type": "uint256"
        },
        {
          "internalType": "address",
          "name": "_signingPolicyAddress",
          "type": "address"
        }
      ],
      "name": "getVoterWithNormalisedWeight",
      "outputs": [
        {
          "internalType": "address",
          "name": "_voter",
          "type": "address"
        },
        {
          "internalType": "uint16",
          "name": "_normalisedWeight",
          "type": "uint16"
        }
      ],
      "stateMutability": "view",
      "type": "function"
    },
    {
      "inputs": [],
      "name": "governance",
      "outputs": [
        {
          "internalType": "address",
          "name": "",
          "type": "address"
        }
      ],
      "stateMutability": "view",
      "type": "function"
    },
    {
      "inputs": [],
      "name": "governanceSettings",
      "outputs": [
        {
          "internalType": "contract IGovernanceSettings",
          "name": "",
          "type": "address"
        }
      ],
      "stateMutability": "view",
      "type": "function"
    },
    {
      "inputs": [
        {
          "internalType": "contract IGovernanceSettings",
          "name": "_governanceSettings",
          "type": "address"
        },
        {
          "internalType": "address",
          "name": "_initialGovernance",
          "type": "address"
        }
      ],
      "name": "initialise",
      "outputs": [],
      "stateMutability": "nonpayable",
      "type": "function"
    },
    {
      "inputs": [
        {
          "internalType": "address",
          "name": "_address",
          "type": "address"
        }
      ],
      "name": "isExecutor",
      "outputs": [
        {
          "internalType": "bool",
          "name": "",
          "type": "bool"
        }
      ],
      "stateMutability": "view",
      "type": "function"
    },
    {
      "inputs": [
        {
          "internalType": "address",
          "name": "_voter",
          "type": "address"
        },
        {
          "internalType": "uint256",
          "name": "_rewardEpochId",
          "type": "uint256"
        }
      ],
      "name": "isVoterRegistered",
      "outputs": [
        {
          "internalType": "bool",
          "name": "",
          "type": "bool"
        }
      ],
      "stateMutability": "view",
      "type": "function"
    },
    {
      "inputs": [],
      "name": "maxVoters",
      "outputs": [
        {
          "internalType": "uint256",
          "name": "",
          "type": "uint256"
        }
      ],
      "stateMutability": "view",
      "type": "function"
    },
    {
      "inputs": [
        {
          "internalType": "uint256",
          "name": "",
          "type": "uint256"
        }
      ],
      "name": "newSigningPolicyInitializationStartBlockNumber",
      "outputs": [
        {
          "internalType": "uint256",
          "name": "",
          "type": "uint256"
        }
      ],
      "stateMutability": "view",
      "type": "function"
    },
    {
      "inputs": [],
      "name": "pChainStakeMirror",
      "outputs": [
        {
          "internalType": "contract IPChainStakeMirror",
          "name": "",
          "type": "address"
        }
      ],
      "stateMutability": "view",
      "type": "function"
    },
    {
      "inputs": [],
      "name": "productionMode",
      "outputs": [
        {
          "internalType": "bool",
          "name": "",
          "type": "bool"
        }
      ],
      "stateMutability": "view",
      "type": "function"
    },
    {
      "inputs": [
        {
          "internalType": "address",
          "name": "_voter",
          "type": "address"
        },
        {
          "components": [
            {
              "internalType": "uint8",
              "name": "v",
              "type": "uint8"
            },
            {
              "internalType": "bytes32",
              "name": "r",
              "type": "bytes32"
            },
            {
              "internalType": "bytes32",
              "name": "s",
              "type": "bytes32"
            }
          ],
          "internalType": "struct VoterRegistry.Signature",
          "name": "_signature",
          "type": "tuple"
        }
      ],
      "name": "registerVoter",
      "outputs": [],
      "stateMutability": "nonpayable",
      "type": "function"
    },
    {
      "inputs": [
        {
          "internalType": "uint256",
          "name": "_maxVoters",
          "type": "uint256"
        }
      ],
      "name": "setMaxVoters",
      "outputs": [],
      "stateMutability": "nonpayable",
      "type": "function"
    },
    {
      "inputs": [
        {
          "internalType": "uint256",
          "name": "_rewardEpochId",
          "type": "uint256"
        }
      ],
      "name": "setNewSigningPolicyInitializationStartBlockNumber",
      "outputs": [],
      "stateMutability": "nonpayable",
      "type": "function"
    },
    {
      "inputs": [],
      "name": "switchToProductionMode",
      "outputs": [],
      "stateMutability": "nonpayable",
      "type": "function"
    },
    {
      "inputs": [
        {
          "internalType": "bytes4",
          "name": "",
          "type": "bytes4"
        }
      ],
      "name": "timelockedCalls",
      "outputs": [
        {
          "internalType": "uint256",
          "name": "allowedAfterTimestamp",
          "type": "uint256"
        },
        {
          "internalType": "bytes",
          "name": "encodedCall",
          "type": "bytes"
        }
      ],
      "stateMutability": "view",
      "type": "function"
    },
    {
      "inputs": [
        {
          "internalType": "bytes32[]",
          "name": "_contractNameHashes",
          "type": "bytes32[]"
        },
        {
          "internalType": "address[]",
          "name": "_contractAddresses",
          "type": "address[]"
        }
      ],
      "name": "updateContractAddresses",
      "outputs": [],
      "stateMutability": "nonpayable",
      "type": "function"
    },
    {
      "inputs": [],
      "name": "wNat",
      "outputs": [
        {
          "internalType": "contract IWNat",
          "name": "",
          "type": "address"
        }
      ],
      "stateMutability": "view",
      "type": "function"
    }
  ],
  "bytecode": "0x60806040523480156200001157600080fd5b5060405162003b0d38038062003b0d833981016040819052620000349162000554565b848787620000438282620002d2565b506200006f9050817f714f205b2abd25bef1d06a1af944e38c113fe6160375c4e1d6d5cf28848e771955565b5061ffff841115620000c85760405162461bcd60e51b815260206004820152601360248201527f5f6d6178566f7465727320746f6f20686967680000000000000000000000000060448201526064015b60405180910390fd5b600384905581518015801590620000df5750848111155b6200012d5760405162461bcd60e51b815260206004820152601d60248201527f5f696e697469616c566f74657273206c656e67746820696e76616c69640000006044820152606401620000bf565b815181146200017f5760405162461bcd60e51b815260206004820152601a60248201527f6172726179206c656e6774687320646f206e6f74206d617463680000000000006044820152606401620000bf565b600084815260056020526040812090805b83811015620002985782600001868281518110620001b257620001b26200067c565b60209081029190910181015182546001810184556000938452919092200180546001600160a01b0319166001600160a01b0390921691909117905584518590829081106200020457620002046200067c565b602002602001015161ffff168360010160008884815181106200022b576200022b6200067c565b60200260200101516001600160a01b03166001600160a01b03168152602001908152602001600020819055508481815181106200026c576200026c6200067c565b602002602001015182620002819190620006a8565b9150806200028f81620006cd565b91505062000190565b5060029091018054600160801b61ffff9093169283026001600160901b031990911690921791909117905550620006e99650505050505050565b600054600160a01b900460ff16156200032e5760405162461bcd60e51b815260206004820152601460248201527f696e697469616c6973656420213d2066616c73650000000000000000000000006044820152606401620000bf565b6001600160a01b038216620003865760405162461bcd60e51b815260206004820152601860248201527f676f7665726e616e63652073657474696e6773207a65726f00000000000000006044820152606401620000bf565b6001600160a01b038116620003d15760405162461bcd60e51b815260206004820152601060248201526f5f676f7665726e616e6365207a65726f60801b6044820152606401620000bf565b600080546001600160a01b038481166001600160a81b031990921691909117600160a01b17909155600180549183166001600160a01b0319909216821790556040519081527f9789733827840833afc031fb2ef9ab6894271f77bad2085687cf4ae5c7bee4db9060200160405180910390a15050565b6001600160a01b03811681146200045d57600080fd5b50565b634e487b7160e01b600052604160045260246000fd5b604051601f8201601f191681016001600160401b0381118282101715620004a157620004a162000460565b604052919050565b60006001600160401b03821115620004c557620004c562000460565b5060051b60200190565b600082601f830112620004e157600080fd5b81516020620004fa620004f483620004a9565b62000476565b82815260059290921b840181019181810190868411156200051a57600080fd5b8286015b848110156200054957805161ffff811681146200053b5760008081fd5b83529183019183016200051e565b509695505050505050565b600080600080600080600060e0888a0312156200057057600080fd5b87516200057d8162000447565b80975050602080890151620005928162000447565b60408a0151909750620005a58162000447565b60608a015160808b015160a08c015192985090965094506001600160401b0380821115620005d257600080fd5b818b0191508b601f830112620005e757600080fd5b8151620005f8620004f482620004a9565b81815260059190911b8301840190848101908e8311156200061857600080fd5b938501935b8285101562000643578451620006338162000447565b825293850193908501906200061d565b60c08e015190975094505050808311156200065d57600080fd5b50506200066d8a828b01620004cf565b91505092959891949750929550565b634e487b7160e01b600052603260045260246000fd5b634e487b7160e01b600052601160045260246000fd5b61ffff818116838216019080821115620006c657620006c662000692565b5092915050565b600060018201620006e257620006e262000692565b5060010190565b61341480620006f96000396000f3fe608060405234801561001057600080fd5b50600436106101fb5760003560e01c80637c2cb9211161011a578063d5e50a63116100ad578063ef88bf131161007c578063ef88bf13146104e0578063f5a98383146104f3578063fd587daf146104fb578063fd95b2e01461050e578063fff507531461051657600080fd5b8063d5e50a631461049d578063debfda30146104a6578063e17f212e146104b9578063e7dea8e6146104cd57600080fd5b8063b00c0b76116100e9578063b00c0b7614610442578063b61b57fa14610455578063bb25d5df14610468578063c452e47f1461047b57600080fd5b80637c2cb921146103d45780638c645728146103e75780638f7d09571461041c5780639edbf0071461042f57600080fd5b8063521318231161019257806362354e031161016157806362354e031461037a57806362d9c89a1461038d57806367fc4029146103a057806374e6310e146103b357600080fd5b806352131823146103235780635267a15d146103385780635aa6e6751461035f5780635ff270791461036757600080fd5b8063369e9434116101ce578063369e94341461028a578063457c2e47146102aa5780634f5a9968146102bd57806350b1d61b146102f857600080fd5b8063064be532146102005780631e3f047e14610229578063201f267e1461025757806329a2e5ed1461026a575b600080fd5b600b5461021490600160a01b900460ff1681565b60405190151581526020015b60405180910390f35b610249610237366004612898565b60046020526000908152604090205481565b604051908152602001610220565b6102496102653660046128b5565b610536565b61027d6102783660046128e1565b610653565b604051610220919061293e565b6102496102983660046128e1565b60009081526005602052604090205490565b61027d6102b83660046128e1565b6106e4565b6102146102cb3660046128b5565b60009081526005602090815260408083206001600160a01b03949094168352600190930190522054151590565b60085461030b906001600160a01b031681565b6040516001600160a01b039091168152602001610220565b6103366103313660046128e1565b610750565b005b7f714f205b2abd25bef1d06a1af944e38c113fe6160375c4e1d6d5cf28848e77195461030b565b61030b6107da565b610336610375366004612951565b610876565b60005461030b906001600160a01b031681565b60095461030b906001600160a01b031681565b6103366103ae366004612951565b610afc565b6103c66103c1366004612951565b610bdd565b6040516102209291906129cb565b61027d6103e23660046128e1565b610c82565b6103fa6103f53660046129ec565b610cce565b604080516001600160a01b03909316835261ffff909116602083015201610220565b61033661042a366004612a1c565b610e4c565b600a5461030b906001600160a01b031681565b610336610450366004612b3c565b611103565b61027d6104633660046128e1565b6111e2565b60075461030b906001600160a01b031681565b61048e6104893660046128e1565b61122e565b60405161022093929190612bf5565b61024960035481565b6102146104b4366004612898565b6115f8565b60005461021490600160a81b900460ff1681565b600b5461030b906001600160a01b031681565b6103366104ee366004612c5d565b61167b565b6103366117e1565b6103366105093660046128e1565b6118a7565b610336611931565b6102496105243660046128e1565b60066020526000908152604090205481565b60008054600160b01b900460ff16806105595750600054600160a81b900460ff16155b1561064257610566611982565b60075460408051637056269760e01b815290516000926001600160a01b03169163705626979160048083019260209291908290030181865afa1580156105b0573d6000803e3d6000fd5b505050506040513d601f19601f820116820180604052508101906105d49190612c8b565b62ffffff1690506105e58382612cc6565b6001600160a01b038516600081815260046020908152604091829020849055815192835282018390529193507f0c2fcef22ab22997ed46cd27f7f0aa308600145401a7a141065d61c5d87341d2910160405180910390a15061064d565b61064d6000366119ba565b92915050565b60085460008281526005602090815260408083206006909252918290205491516369fe610d60e01b81526060936001600160a01b0316926369fe610d9261069f92909190600401612cd9565b600060405180830381865afa1580156106bc573d6000803e3d6000fd5b505050506040513d6000823e601f3d908101601f1916820160405261064d9190810190612d32565b60008181526005602090815260409182902080548351818402810184019094528084526060939283018282801561074457602002820191906000526020600020905b81546001600160a01b03168152600190910190602001808311610726575b50505050509050919050565b6007546001600160a01b031633146107ab5760405162461bcd60e51b815260206004820152601960248201527837b7363c90333630b9329039bcb9ba32b69036b0b730b3b2b960391b60448201526064015b60405180910390fd5b600081815260066020526040902054156107c7576107c7612dcc565b6000908152600660205260409020439055565b60008054600160a81b900460ff166107fc57506001546001600160a01b031690565b60008054906101000a90046001600160a01b03166001600160a01b031663732524946040518163ffffffff1660e01b8152600401602060405180830381865afa15801561084d573d6000803e3d6000fd5b505050506040513d601f19601f820116820180604052508101906108719190612de2565b905090565b61087f336115f8565b6108bb5760405162461bcd60e51b815260206004820152600d60248201526c37b7363c9032bc32b1baba37b960991b60448201526064016107a2565b6001600160e01b03198116600090815260026020526040812080549091036109255760405162461bcd60e51b815260206004820152601a60248201527f74696d656c6f636b3a20696e76616c69642073656c6563746f7200000000000060448201526064016107a2565b80544210156109765760405162461bcd60e51b815260206004820152601960248201527f74696d656c6f636b3a206e6f7420616c6c6f776564207965740000000000000060448201526064016107a2565b600081600101805461098790612dff565b80601f01602080910402602001604051908101604052809291908181526020018280546109b390612dff565b8015610a005780601f106109d557610100808354040283529160200191610a00565b820191906000526020600020905b8154815290600101906020018083116109e357829003601f168201915b505050506001600160e01b0319851660009081526002602052604081208181559293509050610a326001830182612835565b50506000805460ff60b01b1916600160b01b1781556040513090610a57908490612e39565b6000604051808303816000865af19150503d8060008114610a94576040519150601f19603f3d011682016040523d82523d6000602084013e610a99565b606091505b50506000805460ff60b01b19169055604080516001600160e01b0319871681524260208201529192507fa7326b57fc9cfe267aaea5e7f0b01757154d265620a0585819416ee9ddd2c438910160405180910390a1610af681611b06565b50505050565b610b04611b23565b6001600160e01b031981166000908152600260205260408120549003610b6c5760405162461bcd60e51b815260206004820152601a60248201527f74696d656c6f636b3a20696e76616c69642073656c6563746f7200000000000060448201526064016107a2565b604080516001600160e01b0319831681524260208201527f7735b2391c38a81419c513e30ca578db7158eadd7101511b23e221c654d19cf8910160405180910390a16001600160e01b03198116600090815260026020526040812081815590610bd86001830182612835565b505050565b60026020526000908152604090208054600182018054919291610bff90612dff565b80601f0160208091040260200160405190810160405280929190818152602001828054610c2b90612dff565b8015610c785780601f10610c4d57610100808354040283529160200191610c78565b820191906000526020600020905b815481529060010190602001808311610c5b57829003601f168201915b5050505050905082565b6008546000828152600560209081526040808320600690925291829020549151631594a52760e21b81526060936001600160a01b031692635652949c9261069f92909190600401612cd9565b60008281526005602052604081206002015481906001600160801b031680610d385760405162461bcd60e51b815260206004820152601d60248201527f7265776172642065706f6368206964206e6f7420737570706f7274656400000060448201526064016107a2565b6008546000868152600660205260409081902054905163385e3b1360e21b81526001600160a01b038781166004830152602482019290925291169063e178ec4c90604401602060405180830381865afa158015610d99573d6000803e3d6000fd5b505050506040513d601f19601f82011682018060405250810190610dbd9190612de2565b60008681526005602090815260408083206001600160a01b038516845260010190915290205490935080610e2a5760405162461bcd60e51b81526020600482015260146024820152731d9bdd195c881b9bdd081c9959da5cdd195c995960621b60448201526064016107a2565b81610e3761ffff83612e55565b610e419190612e6c565b925050509250929050565b6001600160a01b038083166000908152600460208181526040808420546007548251637056269760e01b815292519196169363705626979383820193909291908290030181865afa158015610ea5573d6000803e3d6000fd5b505050506040513d601f19601f82011682018060405250810190610ec99190612c8b565b610ed4906001612e8e565b62ffffff169050811580610eee57508063ffffffff168211155b610f2a5760405162461bcd60e51b815260206004820152600d60248201526c1d9bdd195c8818da1a5b1b1959609a1b60448201526064016107a2565b6040805163ffffffff83166020808301919091526001600160a01b03871682840152825180830384018152606090920190925280519101207f19457468657265756d205369676e6564204d6573736167653a0a3332000000006000908152601c829052603c812090506000610fb582610fa66020890189612eb1565b88602001358960400135611b7d565b63ffffffff851660009081526006602052604080822054600854915163ba77118b60e01b81526001600160a01b038c811660048301526024820183905294955090939091169063ba77118b90604401608060405180830381865afa158015611021573d6000803e3d6000fd5b505050506040513d601f19601f820116820180604052508101906110459190612ed4565b905080606001516001600160a01b0316836001600160a01b0316146110a05760405162461bcd60e51b8152602060048201526011602482015270696e76616c6964207369676e617475726560781b60448201526064016107a2565b60006110b38a838963ffffffff16611bab565b9050806110f75760405162461bcd60e51b8152602060048201526012602482015271766f746520706f77657220746f6f206c6f7760701b60448201526064016107a2565b50505050505050505050565b7f714f205b2abd25bef1d06a1af944e38c113fe6160375c4e1d6d5cf28848e7719546001600160a01b0316336001600160a01b03161461117c5760405162461bcd60e51b815260206004820152601460248201527337b7363c9030b2323932b9b9903ab83230ba32b960611b60448201526064016107a2565b6111d46111b083836040518060400160405280600e81526020016d20b2323932b9b9aab83230ba32b960911b815250611f76565b7f714f205b2abd25bef1d06a1af944e38c113fe6160375c4e1d6d5cf28848e771955565b6111de8282612051565b5050565b6008546000828152600560209081526040808320600690925291829020549151636558b56b60e01b81526060936001600160a01b031692636558b56b9261069f92909190600401612cd9565b60075460609081906000906001600160a01b0316331461128c5760405162461bcd60e51b815260206004820152601960248201527837b7363c90333630b9329039bcb9ba32b69036b0b730b3b2b960391b60448201526064016107a2565b60008481526005602052604090208054806112a9576112a9612dcc565b60008167ffffffffffffffff8111156112c4576112c4612a5d565b6040519080825280602002602001820160405280156112ed578160200160208202803683370190505b50905060008267ffffffffffffffff81111561130b5761130b612a5d565b604051908082528060200260200182016040528015611334578160200160208202803683370190505b5090506000805b848110156114405785600001818154811061135857611358612f59565b9060005260206000200160009054906101000a90046001600160a01b031684828151811061138857611388612f59565b60200260200101906001600160a01b031690816001600160a01b0316815250508560010160008583815181106113c0576113c0612f59565b60200260200101516001600160a01b03166001600160a01b03168152602001908152602001600020548382815181106113fb576113fb612f59565b60200260200101818152505082818151811061141957611419612f59565b60200260200101518261142c9190612cc6565b91508061143881612f6f565b91505061133b565b5060085460008a815260066020526040908190205490516369fe610d60e01b81526001600160a01b03909216916369fe610d9161148291879190600401612f88565b600060405180830381865afa15801561149f573d6000803e3d6000fd5b505050506040513d6000823e601f3d908101601f191682016040526114c79190810190612d32565b97508367ffffffffffffffff8111156114e2576114e2612a5d565b60405190808252806020026020018201604052801561150b578160200160208202803683370190505b50965060005b848110156115ae578161ffff801684838151811061153157611531612f59565b60200260200101516115439190612e55565b61154d9190612e6c565b88828151811061155f5761155f612f59565b602002602001019061ffff16908161ffff168152505087818151811061158757611587612f59565b60200260200101518761159a9190612faa565b9650806115a681612f6f565b915050611511565b5060029490940180546001600160801b0390951671ffffffffffffffffffffffffffffffffffff1990951694909417600160801b61ffff8716021790935550939592945090925050565b60008054600160a01b900460ff16801561064d5750600054604051630debfda360e41b81526001600160a01b0384811660048301529091169063debfda3090602401602060405180830381865afa158015611657573d6000803e3d6000fd5b505050506040513d601f19601f8201168201806040525081019061064d9190612fda565b600054600160a01b900460ff16156116cc5760405162461bcd60e51b8152602060048201526014602482015273696e697469616c6973656420213d2066616c736560601b60448201526064016107a2565b6001600160a01b0382166117225760405162461bcd60e51b815260206004820152601860248201527f676f7665726e616e63652073657474696e6773207a65726f000000000000000060448201526064016107a2565b6001600160a01b03811661176b5760405162461bcd60e51b815260206004820152601060248201526f5f676f7665726e616e6365207a65726f60801b60448201526064016107a2565b600080546001600160a01b038481166001600160a81b031990921691909117600160a01b17909155600180549183166001600160a01b0319909216821790556040519081527f9789733827840833afc031fb2ef9ab6894271f77bad2085687cf4ae5c7bee4db9060200160405180910390a15050565b6117e9611b23565b600054600160a81b900460ff16156118435760405162461bcd60e51b815260206004820152601a60248201527f616c726561647920696e2070726f64756374696f6e206d6f646500000000000060448201526064016107a2565b600180546001600160a01b031916905560008054600160a81b60ff60a81b198216179091556040516001600160a01b0390911681527f83af113638b5422f9e977cebc0aaf0eaf2188eb9a8baae7f9d46c42b33a1560c9060200160405180910390a1565b600054600160b01b900460ff16806118c95750600054600160a81b900460ff16155b15611923576118d6611982565b61ffff81111561191e5760405162461bcd60e51b81526020600482015260136024820152720bedac2f0acdee8cae4e640e8dede40d0d2ced606b1b60448201526064016107a2565b600355565b61192e6000366119ba565b50565b600054600160b01b900460ff16806119535750600054600160a81b900460ff16155b1561197557611960611982565b600b805460ff60a01b1916600160a01b179055565b6119806000366119ba565b565b600054600160b01b900460ff16156119b2573330146119a3576119a3612dcc565b6000805460ff60b01b19169055565b611980611b23565b6119c2611b23565b6000805460408051636221a54b60e01b81529051853593926001600160a01b031691636221a54b9160048083019260209291908290030181865afa158015611a0e573d6000803e3d6000fd5b505050506040513d601f19601f82011682018060405250810190611a329190612ff5565b90506000611a408242612cc6565b9050604051806040016040528082815260200186868080601f01602080910402602001604051908101604052809392919081815260200183838082843760009201829052509390945250506001600160e01b03198616815260026020908152604090912083518155908301519091506001820190611abe908261305c565b509050507fed948300a3694aa01d4a6b258bfd664350193d770c0b51f8387277f6d83ea3b683828787604051611af7949392919061311c565b60405180910390a15050505050565b3d604051818101604052816000823e8215611b1f578181f35b8181fd5b611b2b6107da565b6001600160a01b0316336001600160a01b0316146119805760405162461bcd60e51b815260206004820152600f60248201526e6f6e6c7920676f7665726e616e636560881b60448201526064016107a2565b600080600080611b8f88888888612202565b925092509250611b9f82826122d1565b50909695505050505050565b6007546040516302e074f160e31b815260048101839052600091829182916001600160a01b031690631703a788906024016040805180830381865afa158015611bf8573d6000803e3d6000fd5b505050506040513d601f19601f82011682018060405250810190611c1c9190613162565b9150915081600003611c685760405162461bcd60e51b8152602060048201526015602482015274766f746520706f77657220626c6f636b207a65726f60581b60448201526064016107a2565b80611cb55760405162461bcd60e51b815260206004820152601e60248201527f766f74657220726567697374726174696f6e20706861736520656e646564000060448201526064016107a2565b6000611cc68787600001518561238a565b8051909150611d0b5760405162461bcd60e51b8152602060048201526011602482015270766f74657220776569676874207a65726f60781b60448201526064016107a2565b60008581526005602090815260408083206001600160a01b038b168452600181019092529091205415611d45576001945050505050611f6f565b8054600354811015611d99578154600180820184556000848152602080822090930180546001600160a01b0319166001600160a01b038e169081179091558651908252918501909252604090912055611ef6565b6000600019815b83811015611e0d576000856000018281548110611dbf57611dbf612f59565b60009182526020808320909101546001600160a01b03168083526001890190915260409091205490915080841115611df8578093508294505b50508080611e0590612f6f565b915050611da0565b5084518110611e26576000975050505050505050611f6f565b6000846000018381548110611e3d57611e3d612f59565b60009182526020808320909101546001600160a01b031680835260018801909152604082209190915585549091508c90869085908110611e7f57611e7f612f59565b600091825260208083209190910180546001600160a01b0319166001600160a01b0394851617905588518f84168352600189018252604092839020558151928416835282018c90527f98a7f87f8e2aa2f23f43769eff67782bb12946384b142d1ce1e8e38e05d9a3e6910160405180910390a15050505b7f7381ab026a11ac8bd6327eba663b6a4be10c9e4d10491cd367c53d642bfebda889888a606001518b600001518c602001518d6040015189600001518a602001518b604001518c606001518d60800151604051611f5d9b9a999897969594939291906131cd565b60405180910390a16001955050505050505b9392505050565b60008082604051602001611f8a919061327a565b6040516020818303038152906040528051906020012090506000805b865181101561200257868181518110611fc157611fc1612f59565b60200260200101518303611ff057858181518110611fe157611fe1612f59565b60200260200101519150612002565b80611ffa81612f6f565b915050611fa6565b506001600160a01b0381166120485760405162461bcd60e51b815260206004820152600c60248201526b61646472657373207a65726f60a01b60448201526064016107a2565b95945050505050565b612086828260405180604001604052806012815260200171233630b932a9bcb9ba32b6a6b0b730b3b2b960711b815250611f76565b600760006101000a8154816001600160a01b0302191690836001600160a01b031602179055506120dc82826040518060400160405280600d81526020016c22b73a34ba3ca6b0b730b3b2b960991b815250611f76565b600860006101000a8154816001600160a01b0302191690836001600160a01b031602179055506121368282604051806040016040528060118152602001702821b430b4b729ba30b5b2a6b4b93937b960791b815250611f76565b600980546001600160a01b0319166001600160a01b0392909216919091179055600b54600160a01b900460ff16156121b75761219682826040518060400160405280600b81526020016a43436861696e5374616b6560a81b815250611f76565b600b80546001600160a01b0319166001600160a01b03929092169190911790555b6121de82826040518060400160405280600481526020016315d3985d60e21b815250611f76565b600a80546001600160a01b0319166001600160a01b03929092169190911790555050565b600080807f7fffffffffffffffffffffffffffffff5d576e7357a4501ddfe92f46681b20a084111561223d57506000915060039050826122c7565b604080516000808252602082018084528a905260ff891692820192909252606081018790526080810186905260019060a0016020604051602081039080840390855afa158015612291573d6000803e3d6000fd5b5050604051601f1901519150506001600160a01b0381166122bd575060009250600191508290506122c7565b9250600091508190505b9450945094915050565b60008260038111156122e5576122e561328d565b036122ee575050565b60018260038111156123025761230261328d565b036123205760405163f645eedf60e01b815260040160405180910390fd5b60028260038111156123345761233461328d565b036123555760405163fce698f760e01b8152600481018290526024016107a2565b60038260038111156123695761236961328d565b036111de576040516335e2f38360e21b8152600481018290526024016107a2565b6123bc6040518060a0016040528060008152602001600081526020016000815260200160608152602001606081525090565b600854604051632da5f2f960e11b81526001600160a01b0386811660048301526024820185905290911690635b4be5f290604401600060405180830381865afa15801561240d573d6000803e3d6000fd5b505050506040513d6000823e601f3d908101601f1916820160405261243591908101906132a3565b60608201819052518067ffffffffffffffff81111561245657612456612a5d565b60405190808252806020026020018201604052801561247f578160200160208202803683370190505b506080830152600954606083015160405163a9e7019960e01b81526000926001600160a01b03169163a9e70199916124bc91908890600401613345565b600060405180830381865afa1580156124d9573d6000803e3d6000fd5b505050506040513d6000823e601f3d908101601f191682016040526125019190810190613358565b905060005b8281101561258a5781818151811061252057612520612f59565b60200260200101518460800151828151811061253e5761253e612f59565b60200260200101818152505081818151811061255c5761255c612f59565b6020026020010151846000018181516125759190612cc6565b9052508061258281612f6f565b915050612506565b50600954604051631f2d513560e11b8152600481018690526000916001600160a01b031690633e5aa26a90602401602060405180830381865afa1580156125d5573d6000803e3d6000fd5b505050506040513d601f19601f820116820180604052508101906125f99190612ff5565b600b549091506001600160a01b03161561271557600b54604051631257fcdb60e31b81526001600160a01b03898116600483015260248201889052909116906392bfe6d890604401602060405180830381865afa15801561265e573d6000803e3d6000fd5b505050506040513d601f19601f820116820180604052508101906126829190612ff5565b604085810191909152600b549051631f2d513560e11b8152600481018790526000916001600160a01b031690633e5aa26a90602401602060405180830381865afa1580156126d4573d6000803e3d6000fd5b505050506040513d601f19601f820116820180604052508101906126f89190612ff5565b90508460400151856000018181516127109190612cc6565b905250505b600a54604051631257fcdb60e31b81526001600160a01b03888116600483015260248201889052909116906392bfe6d890604401602060405180830381865afa158015612766573d6000803e3d6000fd5b505050506040513d601f19601f8201168201806040525081019061278a9190612ff5565b602085015283511561282b57600a54604051631f2d513560e11b8152600481018790526000916001600160a01b031690633e5aa26a90602401602060405180830381865afa1580156127e0573d6000803e3d6000fd5b505050506040513d601f19601f820116820180604052508101906128049190612ff5565b9050600485602001516128179190612e6c565b85518690612826908390612cc6565b905250505b5050509392505050565b50805461284190612dff565b6000825580601f10612851575050565b601f01602090049060005260206000209081019061192e91905b8082111561287f576000815560010161286b565b5090565b6001600160a01b038116811461192e57600080fd5b6000602082840312156128aa57600080fd5b8135611f6f81612883565b600080604083850312156128c857600080fd5b82356128d381612883565b946020939093013593505050565b6000602082840312156128f357600080fd5b5035919050565b600081518084526020808501945080840160005b838110156129335781516001600160a01b03168752958201959082019060010161290e565b509495945050505050565b602081526000611f6f60208301846128fa565b60006020828403121561296357600080fd5b81356001600160e01b031981168114611f6f57600080fd5b60005b8381101561299657818101518382015260200161297e565b50506000910152565b600081518084526129b781602086016020860161297b565b601f01601f19169290920160200192915050565b8281526040602082015260006129e4604083018461299f565b949350505050565b600080604083850312156129ff57600080fd5b823591506020830135612a1181612883565b809150509250929050565b6000808284036080811215612a3057600080fd5b8335612a3b81612883565b92506060601f1982011215612a4f57600080fd5b506020830190509250929050565b634e487b7160e01b600052604160045260246000fd5b604051601f8201601f1916810167ffffffffffffffff81118282101715612a9c57612a9c612a5d565b604052919050565b600067ffffffffffffffff821115612abe57612abe612a5d565b5060051b60200190565b600082601f830112612ad957600080fd5b81356020612aee612ae983612aa4565b612a73565b82815260059290921b84018101918181019086841115612b0d57600080fd5b8286015b84811015612b31578035612b2481612883565b8352918301918301612b11565b509695505050505050565b60008060408385031215612b4f57600080fd5b823567ffffffffffffffff80821115612b6757600080fd5b818501915085601f830112612b7b57600080fd5b81356020612b8b612ae983612aa4565b82815260059290921b84018101918181019089841115612baa57600080fd5b948201945b83861015612bc857853582529482019490820190612baf565b96505086013592505080821115612bde57600080fd5b50612beb85828601612ac8565b9150509250929050565b606081526000612c0860608301866128fa565b82810360208481019190915285518083528682019282019060005b81811015612c4357845161ffff1683529383019391830191600101612c23565b505080935050505061ffff83166040830152949350505050565b60008060408385031215612c7057600080fd5b8235612c7b81612883565b91506020830135612a1181612883565b600060208284031215612c9d57600080fd5b815162ffffff81168114611f6f57600080fd5b634e487b7160e01b600052601160045260246000fd5b8082018082111561064d5761064d612cb0565b6000604082016040835280855480835260608501915086600052602092508260002060005b82811015612d235781546001600160a01b031684529284019260019182019101612cfe565b50505092019290925292915050565b60006020808385031215612d4557600080fd5b825167ffffffffffffffff811115612d5c57600080fd5b8301601f81018513612d6d57600080fd5b8051612d7b612ae982612aa4565b81815260059190911b82018301908381019087831115612d9a57600080fd5b928401925b82841015612dc1578351612db281612883565b82529284019290840190612d9f565b979650505050505050565b634e487b7160e01b600052600160045260246000fd5b600060208284031215612df457600080fd5b8151611f6f81612883565b600181811c90821680612e1357607f821691505b602082108103612e3357634e487b7160e01b600052602260045260246000fd5b50919050565b60008251612e4b81846020870161297b565b9190910192915050565b808202811582820484141761064d5761064d612cb0565b600082612e8957634e487b7160e01b600052601260045260246000fd5b500490565b62ffffff818116838216019080821115612eaa57612eaa612cb0565b5092915050565b600060208284031215612ec357600080fd5b813560ff81168114611f6f57600080fd5b600060808284031215612ee657600080fd5b6040516080810181811067ffffffffffffffff82111715612f0957612f09612a5d565b6040528251612f1781612883565b81526020830151612f2781612883565b60208201526040830151612f3a81612883565b60408201526060830151612f4d81612883565b60608201529392505050565b634e487b7160e01b600052603260045260246000fd5b600060018201612f8157612f81612cb0565b5060010190565b604081526000612f9b60408301856128fa565b90508260208301529392505050565b61ffff818116838216019080821115612eaa57612eaa612cb0565b80518015158114612fd557600080fd5b919050565b600060208284031215612fec57600080fd5b611f6f82612fc5565b60006020828403121561300757600080fd5b5051919050565b601f821115610bd857600081815260208120601f850160051c810160208610156130355750805b601f850160051c820191505b8181101561305457828155600101613041565b505050505050565b815167ffffffffffffffff81111561307657613076612a5d565b61308a816130848454612dff565b8461300e565b602080601f8311600181146130bf57600084156130a75750858301515b600019600386901b1c1916600185901b178555613054565b600085815260208120601f198616915b828110156130ee578886015182559484019460019091019084016130cf565b508582101561310c5787850151600019600388901b60f8161c191681555b5050505050600190811b01905550565b63ffffffff60e01b8516815283602082015260606040820152816060820152818360808301376000818301608090810191909152601f909201601f191601019392505050565b6000806040838503121561317557600080fd5b8251915061318560208401612fc5565b90509250929050565b600081518084526020808501945080840160005b838110156129335781516bffffffffffffffffffffffff1916875295820195908201906001016131a2565b600061016060018060a01b03808f16845260208e81860152818e166040860152818d166060860152818c166080860152818b1660a08601528960c08601528860e0860152876101008601528261012086015261322b8386018861318e565b85810361014087015286518082528288019450908201925060005b8181101561326257845184529382019392820192600101613246565b50505080925050509c9b505050505050505050505050565b602081526000611f6f602083018461299f565b634e487b7160e01b600052602160045260246000fd5b600060208083850312156132b657600080fd5b825167ffffffffffffffff8111156132cd57600080fd5b8301601f810185136132de57600080fd5b80516132ec612ae982612aa4565b81815260059190911b8201830190838101908783111561330b57600080fd5b928401925b82841015612dc15783516bffffffffffffffffffffffff19811681146133365760008081fd5b82529284019290840190613310565b604081526000612f9b604083018561318e565b6000602080838503121561336b57600080fd5b825167ffffffffffffffff81111561338257600080fd5b8301601f8101851361339357600080fd5b80516133a1612ae982612aa4565b81815260059190911b820183019083810190878311156133c057600080fd5b928401925b82841015612dc1578351825292840192908401906133c556fea2646970667358221220e91d7ccc1ef2a1693c5095e4cad68d4f484f7878cb59e2351552e743e766a49664736f6c63430008140033",
  "linkReferences": {},
  "deployedLinkReferences": {}
}