{
  "_format": "hh-sol-artifact-1",
  "contractName": "VoterRegistry",
  "sourceName": "contracts/protocol/implementation/VoterRegistry.sol",
  "abi": [
    {
      "inputs": [
        {
          "internalType": "contract IGovernanceSettings",
          "name": "_governanceSettings",
          "type": "address"
        },
        {
          "internalType": "address",
          "name": "_initialGovernance",
          "type": "address"
        },
        {
          "internalType": "address",
          "name": "_addressUpdater",
          "type": "address"
        },
        {
          "internalType": "uint256",
          "name": "_maxVoters",
          "type": "uint256"
        },
        {
          "internalType": "uint256",
          "name": "_firstRewardEpochId",
          "type": "uint256"
        },
        {
          "internalType": "address[]",
          "name": "_initialVoters",
          "type": "address[]"
        },
        {
          "internalType": "uint16[]",
          "name": "_initialNormalisedWeights",
          "type": "uint16[]"
        }
      ],
      "stateMutability": "nonpayable",
      "type": "constructor"
    },
    {
      "inputs": [],
      "name": "ECDSAInvalidSignature",
      "type": "error"
    },
    {
      "inputs": [
        {
          "internalType": "uint256",
          "name": "length",
          "type": "uint256"
        }
      ],
      "name": "ECDSAInvalidSignatureLength",
      "type": "error"
    },
    {
      "inputs": [
        {
          "internalType": "bytes32",
          "name": "s",
          "type": "bytes32"
        }
      ],
      "name": "ECDSAInvalidSignatureS",
      "type": "error"
    },
    {
      "anonymous": false,
      "inputs": [
        {
          "indexed": false,
          "internalType": "bytes4",
          "name": "selector",
          "type": "bytes4"
        },
        {
          "indexed": false,
          "internalType": "uint256",
          "name": "allowedAfterTimestamp",
          "type": "uint256"
        },
        {
          "indexed": false,
          "internalType": "bytes",
          "name": "encodedCall",
          "type": "bytes"
        }
      ],
      "name": "GovernanceCallTimelocked",
      "type": "event"
    },
    {
      "anonymous": false,
      "inputs": [
        {
          "indexed": false,
          "internalType": "address",
          "name": "initialGovernance",
          "type": "address"
        }
      ],
      "name": "GovernanceInitialised",
      "type": "event"
    },
    {
      "anonymous": false,
      "inputs": [
        {
          "indexed": false,
          "internalType": "address",
          "name": "governanceSettings",
          "type": "address"
        }
      ],
      "name": "GovernedProductionModeEntered",
      "type": "event"
    },
    {
      "anonymous": false,
      "inputs": [
        {
          "indexed": false,
          "internalType": "bytes4",
          "name": "selector",
          "type": "bytes4"
        },
        {
          "indexed": false,
          "internalType": "uint256",
          "name": "timestamp",
          "type": "uint256"
        }
      ],
      "name": "TimelockedGovernanceCallCanceled",
      "type": "event"
    },
    {
      "anonymous": false,
      "inputs": [
        {
          "indexed": false,
          "internalType": "bytes4",
          "name": "selector",
          "type": "bytes4"
        },
        {
          "indexed": false,
          "internalType": "uint256",
          "name": "timestamp",
          "type": "uint256"
        }
      ],
      "name": "TimelockedGovernanceCallExecuted",
      "type": "event"
    },
    {
      "anonymous": false,
      "inputs": [
        {
          "indexed": false,
          "internalType": "address",
          "name": "voter",
          "type": "address"
        },
        {
          "indexed": false,
          "internalType": "uint256",
          "name": "untilRewardEpochId",
          "type": "uint256"
        }
      ],
      "name": "VoterChilled",
      "type": "event"
    },
    {
      "anonymous": false,
      "inputs": [
        {
          "indexed": false,
          "internalType": "address",
          "name": "voter",
          "type": "address"
        },
        {
          "indexed": false,
          "internalType": "uint24",
          "name": "rewardEpochId",
          "type": "uint24"
        },
        {
          "indexed": false,
          "internalType": "address",
          "name": "signingPolicyAddress",
          "type": "address"
        },
        {
          "indexed": false,
          "internalType": "address",
          "name": "delegationAddress",
          "type": "address"
        },
        {
          "indexed": false,
          "internalType": "address",
          "name": "submitAddress",
          "type": "address"
        },
        {
          "indexed": false,
          "internalType": "address",
          "name": "submitSignaturesAddress",
          "type": "address"
        },
        {
          "indexed": false,
          "internalType": "uint256",
          "name": "registrationWeight",
          "type": "uint256"
        }
      ],
      "name": "VoterRegistered",
      "type": "event"
    },
    {
      "anonymous": false,
      "inputs": [
        {
          "indexed": false,
          "internalType": "address",
          "name": "voter",
          "type": "address"
        },
        {
          "indexed": false,
          "internalType": "uint256",
          "name": "rewardEpochId",
          "type": "uint256"
        }
      ],
      "name": "VoterRemoved",
      "type": "event"
    },
    {
      "inputs": [
        {
          "internalType": "bytes4",
          "name": "_selector",
          "type": "bytes4"
        }
      ],
      "name": "cancelGovernanceCall",
      "outputs": [],
      "stateMutability": "nonpayable",
      "type": "function"
    },
    {
      "inputs": [
        {
          "internalType": "address",
          "name": "_voter",
          "type": "address"
        },
        {
          "internalType": "uint256",
          "name": "_noOfRewardEpochs",
          "type": "uint256"
        }
      ],
      "name": "chillVoter",
      "outputs": [
        {
          "internalType": "uint256",
          "name": "_untilRewardEpochId",
          "type": "uint256"
        }
      ],
      "stateMutability": "nonpayable",
      "type": "function"
    },
    {
      "inputs": [
        {
          "internalType": "address",
          "name": "",
          "type": "address"
        }
      ],
      "name": "chilledUntilRewardEpochId",
      "outputs": [
        {
          "internalType": "uint256",
          "name": "",
          "type": "uint256"
        }
      ],
      "stateMutability": "view",
      "type": "function"
    },
    {
      "inputs": [
        {
          "internalType": "uint256",
          "name": "_rewardEpochId",
          "type": "uint256"
        }
      ],
      "name": "createSigningPolicySnapshot",
      "outputs": [
        {
          "internalType": "address[]",
          "name": "_signingPolicyAddresses",
          "type": "address[]"
        },
        {
          "internalType": "uint16[]",
          "name": "_normalisedWeights",
          "type": "uint16[]"
        },
        {
          "internalType": "uint16",
          "name": "_normalisedWeightsSum",
          "type": "uint16"
        }
      ],
      "stateMutability": "nonpayable",
      "type": "function"
    },
    {
      "inputs": [],
      "name": "entityManager",
      "outputs": [
        {
          "internalType": "contract EntityManager",
          "name": "",
          "type": "address"
        }
      ],
      "stateMutability": "view",
      "type": "function"
    },
    {
      "inputs": [
        {
          "internalType": "bytes4",
          "name": "_selector",
          "type": "bytes4"
        }
      ],
      "name": "executeGovernanceCall",
      "outputs": [],
      "stateMutability": "nonpayable",
      "type": "function"
    },
    {
      "inputs": [],
      "name": "flareSystemCalculator",
      "outputs": [
        {
          "internalType": "contract FlareSystemCalculator",
          "name": "",
          "type": "address"
        }
      ],
      "stateMutability": "view",
      "type": "function"
    },
    {
      "inputs": [],
      "name": "flareSystemManager",
      "outputs": [
        {
          "internalType": "contract FlareSystemManager",
          "name": "",
          "type": "address"
        }
      ],
      "stateMutability": "view",
      "type": "function"
    },
    {
      "inputs": [],
      "name": "getAddressUpdater",
      "outputs": [
        {
          "internalType": "address",
          "name": "_addressUpdater",
          "type": "address"
        }
      ],
      "stateMutability": "view",
      "type": "function"
    },
    {
      "inputs": [
        {
          "internalType": "uint256",
          "name": "_rewardEpochId",
          "type": "uint256"
        }
      ],
      "name": "getNumberOfRegisteredVoters",
      "outputs": [
        {
          "internalType": "uint256",
          "name": "",
          "type": "uint256"
        }
      ],
      "stateMutability": "view",
      "type": "function"
    },
    {
      "inputs": [
        {
          "internalType": "uint256",
          "name": "_rewardEpochId",
          "type": "uint256"
        },
        {
          "internalType": "address",
          "name": "_signingPolicyAddress",
          "type": "address"
        }
      ],
      "name": "getPublicKeyAndNormalisedWeight",
      "outputs": [
        {
          "internalType": "bytes32",
          "name": "_publicKeyPart1",
          "type": "bytes32"
        },
        {
          "internalType": "bytes32",
          "name": "_publicKeyPart2",
          "type": "bytes32"
        },
        {
          "internalType": "uint16",
          "name": "_normalisedWeight",
          "type": "uint16"
        }
      ],
      "stateMutability": "view",
      "type": "function"
    },
    {
      "inputs": [
        {
          "internalType": "uint256",
          "name": "_rewardEpochId",
          "type": "uint256"
        }
      ],
      "name": "getRegisteredDelegationAddresses",
      "outputs": [
        {
          "internalType": "address[]",
          "name": "_delegationAddresses",
          "type": "address[]"
        }
      ],
      "stateMutability": "view",
      "type": "function"
    },
    {
      "inputs": [
        {
          "internalType": "uint256",
          "name": "_rewardEpochId",
          "type": "uint256"
        }
      ],
      "name": "getRegisteredSigningPolicyAddresses",
      "outputs": [
        {
          "internalType": "address[]",
          "name": "_signingPolicyAddresses",
          "type": "address[]"
        }
      ],
      "stateMutability": "view",
      "type": "function"
    },
    {
      "inputs": [
        {
          "internalType": "uint256",
          "name": "_rewardEpochId",
          "type": "uint256"
        }
      ],
      "name": "getRegisteredSubmitAddresses",
      "outputs": [
        {
          "internalType": "address[]",
          "name": "",
          "type": "address[]"
        }
      ],
      "stateMutability": "view",
      "type": "function"
    },
    {
      "inputs": [
        {
          "internalType": "uint256",
          "name": "_rewardEpochId",
          "type": "uint256"
        }
      ],
      "name": "getRegisteredSubmitSignaturesAddresses",
      "outputs": [
        {
          "internalType": "address[]",
          "name": "_signingPolicyAddresses",
          "type": "address[]"
        }
      ],
      "stateMutability": "view",
      "type": "function"
    },
    {
      "inputs": [
        {
          "internalType": "uint256",
          "name": "_rewardEpochId",
          "type": "uint256"
        }
      ],
      "name": "getRegisteredVoters",
      "outputs": [
        {
          "internalType": "address[]",
          "name": "",
          "type": "address[]"
        }
      ],
      "stateMutability": "view",
      "type": "function"
    },
    {
      "inputs": [
        {
          "internalType": "uint256",
          "name": "_rewardEpochId",
          "type": "uint256"
        },
        {
          "internalType": "address",
          "name": "_signingPolicyAddress",
          "type": "address"
        }
      ],
      "name": "getVoterWithNormalisedWeight",
      "outputs": [
        {
          "internalType": "address",
          "name": "_voter",
          "type": "address"
        },
        {
          "internalType": "uint16",
          "name": "_normalisedWeight",
          "type": "uint16"
        }
      ],
      "stateMutability": "view",
      "type": "function"
    },
    {
      "inputs": [],
      "name": "governance",
      "outputs": [
        {
          "internalType": "address",
          "name": "",
          "type": "address"
        }
      ],
      "stateMutability": "view",
      "type": "function"
    },
    {
      "inputs": [],
      "name": "governanceSettings",
      "outputs": [
        {
          "internalType": "contract IGovernanceSettings",
          "name": "",
          "type": "address"
        }
      ],
      "stateMutability": "view",
      "type": "function"
    },
    {
      "inputs": [
        {
          "internalType": "contract IGovernanceSettings",
          "name": "_governanceSettings",
          "type": "address"
        },
        {
          "internalType": "address",
          "name": "_initialGovernance",
          "type": "address"
        }
      ],
      "name": "initialise",
      "outputs": [],
      "stateMutability": "nonpayable",
      "type": "function"
    },
    {
      "inputs": [
        {
          "internalType": "address",
          "name": "_address",
          "type": "address"
        }
      ],
      "name": "isExecutor",
      "outputs": [
        {
          "internalType": "bool",
          "name": "",
          "type": "bool"
        }
      ],
      "stateMutability": "view",
      "type": "function"
    },
    {
      "inputs": [
        {
          "internalType": "address",
          "name": "_voter",
          "type": "address"
        },
        {
          "internalType": "uint256",
          "name": "_rewardEpochId",
          "type": "uint256"
        }
      ],
      "name": "isVoterRegistered",
      "outputs": [
        {
          "internalType": "bool",
          "name": "",
          "type": "bool"
        }
      ],
      "stateMutability": "view",
      "type": "function"
    },
    {
      "inputs": [],
      "name": "maxVoters",
      "outputs": [
        {
          "internalType": "uint256",
          "name": "",
          "type": "uint256"
        }
      ],
      "stateMutability": "view",
      "type": "function"
    },
    {
      "inputs": [
        {
          "internalType": "uint256",
          "name": "",
          "type": "uint256"
        }
      ],
      "name": "newSigningPolicyInitializationStartBlockNumber",
      "outputs": [
        {
          "internalType": "uint256",
          "name": "",
          "type": "uint256"
        }
      ],
      "stateMutability": "view",
      "type": "function"
    },
    {
      "inputs": [],
      "name": "productionMode",
      "outputs": [
        {
          "internalType": "bool",
          "name": "",
          "type": "bool"
        }
      ],
      "stateMutability": "view",
      "type": "function"
    },
    {
      "inputs": [
        {
          "internalType": "address",
          "name": "_voter",
          "type": "address"
        },
        {
          "components": [
            {
              "internalType": "uint8",
              "name": "v",
              "type": "uint8"
            },
            {
              "internalType": "bytes32",
              "name": "r",
              "type": "bytes32"
            },
            {
              "internalType": "bytes32",
              "name": "s",
              "type": "bytes32"
            }
          ],
          "internalType": "struct VoterRegistry.Signature",
          "name": "_signature",
          "type": "tuple"
        }
      ],
      "name": "registerVoter",
      "outputs": [],
      "stateMutability": "nonpayable",
      "type": "function"
    },
    {
      "inputs": [
        {
          "internalType": "uint256",
          "name": "_maxVoters",
          "type": "uint256"
        }
      ],
      "name": "setMaxVoters",
      "outputs": [],
      "stateMutability": "nonpayable",
      "type": "function"
    },
    {
      "inputs": [
        {
          "internalType": "uint256",
          "name": "_rewardEpochId",
          "type": "uint256"
        }
      ],
      "name": "setNewSigningPolicyInitializationStartBlockNumber",
      "outputs": [],
      "stateMutability": "nonpayable",
      "type": "function"
    },
    {
      "inputs": [
        {
          "internalType": "string",
          "name": "_contractName",
          "type": "string"
        }
      ],
      "name": "setSystemRegistrationContractName",
      "outputs": [],
      "stateMutability": "nonpayable",
      "type": "function"
    },
    {
      "inputs": [],
      "name": "switchToProductionMode",
      "outputs": [],
      "stateMutability": "nonpayable",
      "type": "function"
    },
    {
      "inputs": [
        {
          "internalType": "address",
          "name": "_voter",
          "type": "address"
        }
      ],
      "name": "systemRegistration",
      "outputs": [],
      "stateMutability": "nonpayable",
      "type": "function"
    },
    {
      "inputs": [],
      "name": "systemRegistrationContractAddress",
      "outputs": [
        {
          "internalType": "address",
          "name": "",
          "type": "address"
        }
      ],
      "stateMutability": "view",
      "type": "function"
    },
    {
      "inputs": [],
      "name": "systemRegistrationContractName",
      "outputs": [
        {
          "internalType": "string",
          "name": "",
          "type": "string"
        }
      ],
      "stateMutability": "view",
      "type": "function"
    },
    {
      "inputs": [
        {
          "internalType": "bytes4",
          "name": "",
          "type": "bytes4"
        }
      ],
      "name": "timelockedCalls",
      "outputs": [
        {
          "internalType": "uint256",
          "name": "allowedAfterTimestamp",
          "type": "uint256"
        },
        {
          "internalType": "bytes",
          "name": "encodedCall",
          "type": "bytes"
        }
      ],
      "stateMutability": "view",
      "type": "function"
    },
    {
      "inputs": [
        {
          "internalType": "bytes32[]",
          "name": "_contractNameHashes",
          "type": "bytes32[]"
        },
        {
          "internalType": "address[]",
          "name": "_contractAddresses",
          "type": "address[]"
        }
      ],
      "name": "updateContractAddresses",
      "outputs": [],
      "stateMutability": "nonpayable",
      "type": "function"
    }
  ],
  "bytecode": "0x60806040523480156200001157600080fd5b5060405162003b5a38038062003b5a833981016040819052620000349162000554565b848787620000438282620002d2565b506200006f9050817f714f205b2abd25bef1d06a1af944e38c113fe6160375c4e1d6d5cf28848e771955565b5061ffff841115620000c85760405162461bcd60e51b815260206004820152601360248201527f5f6d6178566f7465727320746f6f20686967680000000000000000000000000060448201526064015b60405180910390fd5b600384905581518015801590620000df5750848111155b6200012d5760405162461bcd60e51b815260206004820152601d60248201527f5f696e697469616c566f74657273206c656e67746820696e76616c69640000006044820152606401620000bf565b815181146200017f5760405162461bcd60e51b815260206004820152601a60248201527f6172726179206c656e6774687320646f206e6f74206d617463680000000000006044820152606401620000bf565b600084815260056020526040812090805b83811015620002985782600001868281518110620001b257620001b26200067c565b60209081029190910181015182546001810184556000938452919092200180546001600160a01b0319166001600160a01b0390921691909117905584518590829081106200020457620002046200067c565b602002602001015161ffff168360010160008884815181106200022b576200022b6200067c565b60200260200101516001600160a01b03166001600160a01b03168152602001908152602001600020819055508481815181106200026c576200026c6200067c565b602002602001015182620002819190620006a8565b9150806200028f81620006cd565b91505062000190565b5060029091018054600160801b61ffff9093169283026001600160901b031990911690921791909117905550620006e99650505050505050565b600054600160a01b900460ff16156200032e5760405162461bcd60e51b815260206004820152601460248201527f696e697469616c6973656420213d2066616c73650000000000000000000000006044820152606401620000bf565b6001600160a01b038216620003865760405162461bcd60e51b815260206004820152601860248201527f676f7665726e616e63652073657474696e6773207a65726f00000000000000006044820152606401620000bf565b6001600160a01b038116620003d15760405162461bcd60e51b815260206004820152601060248201526f5f676f7665726e616e6365207a65726f60801b6044820152606401620000bf565b600080546001600160a01b038481166001600160a81b031990921691909117600160a01b17909155600180549183166001600160a01b0319909216821790556040519081527f9789733827840833afc031fb2ef9ab6894271f77bad2085687cf4ae5c7bee4db9060200160405180910390a15050565b6001600160a01b03811681146200045d57600080fd5b50565b634e487b7160e01b600052604160045260246000fd5b604051601f8201601f191681016001600160401b0381118282101715620004a157620004a162000460565b604052919050565b60006001600160401b03821115620004c557620004c562000460565b5060051b60200190565b600082601f830112620004e157600080fd5b81516020620004fa620004f483620004a9565b62000476565b82815260059290921b840181019181810190868411156200051a57600080fd5b8286015b848110156200054957805161ffff811681146200053b5760008081fd5b83529183019183016200051e565b509695505050505050565b600080600080600080600060e0888a0312156200057057600080fd5b87516200057d8162000447565b80975050602080890151620005928162000447565b60408a0151909750620005a58162000447565b60608a015160808b015160a08c015192985090965094506001600160401b0380821115620005d257600080fd5b818b0191508b601f830112620005e757600080fd5b8151620005f8620004f482620004a9565b81815260059190911b8301840190848101908e8311156200061857600080fd5b938501935b8285101562000643578451620006338162000447565b825293850193908501906200061d565b60c08e015190975094505050808311156200065d57600080fd5b50506200066d8a828b01620004cf565b91505092959891949750929550565b634e487b7160e01b600052603260045260246000fd5b634e487b7160e01b600052601160045260246000fd5b61ffff818116838216019080821115620006c657620006c662000692565b5092915050565b600060018201620006e257620006e262000692565b5060010190565b61346180620006f96000396000f3fe608060405234801561001057600080fd5b50600436106102115760003560e01c80637c2cb92111610125578063c452e47f116100ad578063e17f212e1161007c578063e17f212e1461053b578063ef88bf131461054f578063f5a9838314610562578063fd587daf1461056a578063fff507531461057d57600080fd5b8063c452e47f146104ea578063cc8356ca1461050c578063d5e50a631461051f578063debfda301461052857600080fd5b80638d3efa35116100f45780638d3efa351461048b5780638f7d09571461049e578063b00c0b76146104b1578063b61b57fa146104c4578063bb25d5df146104d757600080fd5b80637c2cb9211461041b57806387ad4ecf1461042e5780638ad32648146104415780638c6457281461045657600080fd5b80634f5a9968116101a85780635aa6e675116101775780635aa6e675146103b95780635ff27079146103c157806362354e03146103d457806367fc4029146103e757806374e6310e146103fa57600080fd5b80634f5a99681461032157806350b1d61b1461036c578063521318231461037f5780635267a15d1461039257600080fd5b80632cc2c0f6116101e45780632cc2c0f614610291578063369e9434146102bc57806344b571d9146102dc578063457c2e471461030e57600080fd5b806318d1812d146102165780631e3f047e1461022b578063201f267e1461025e57806329a2e5ed14610271575b600080fd5b6102296102243660046129c1565b61059d565b005b61024b6102393660046129c1565b60046020526000908152604090205481565b6040519081526020015b60405180910390f35b61024b61026c3660046129e5565b610626565b61028461027f366004612a11565b610743565b6040516102559190612a6e565b600b546102a4906001600160a01b031681565b6040516001600160a01b039091168152602001610255565b61024b6102ca366004612a11565b60009081526005602052604090205490565b6102ef6102ea366004612a81565b6107d4565b60408051938452602084019290925261ffff1690820152606001610255565b61028461031c366004612a11565b6109d4565b61035c61032f3660046129e5565b60009081526005602090815260408083206001600160a01b03949094168352600190930190522054151590565b6040519015158152602001610255565b6008546102a4906001600160a01b031681565b61022961038d366004612a11565b610a40565b7f714f205b2abd25bef1d06a1af944e38c113fe6160375c4e1d6d5cf28848e7719546102a4565b6102a4610ac5565b6102296103cf366004612ab1565b610b61565b6000546102a4906001600160a01b031681565b6102296103f5366004612ab1565b610de7565b61040d610408366004612ab1565b610ec3565b604051610255929190612b2b565b610284610429366004612a11565b610f68565b6009546102a4906001600160a01b031681565b610449610fb4565b6040516102559190612b4c565b610469610464366004612a81565b611042565b604080516001600160a01b03909316835261ffff909116602083015201610255565b610229610499366004612ba6565b6111c0565b6102296104ac366004612c3b565b611278565b6102296104bf366004612d14565b611384565b6102846104d2366004612a11565b611463565b6007546102a4906001600160a01b031681565b6104fd6104f8366004612a11565b6114af565b60405161025593929190612dcd565b61028461051a366004612a11565b611879565b61024b60035481565b61035c6105363660046129c1565b6118c5565b60005461035c90600160a81b900460ff1681565b61022961055d366004612e35565b611948565b610229611aae565b610229610578366004612a11565b611b74565b61024b61058b366004612a11565b60066020526000908152604090205481565b600b546001600160a01b031633146106065760405162461bcd60e51b815260206004820152602160248201527f6f6e6c792073797374656d20726567697374726174696f6e20636f6e747261636044820152601d60fa1b60648201526084015b60405180910390fd5b60008061061283611bf0565b91509150610621838383611de2565b505050565b60008054600160b01b900460ff16806106495750600054600160a81b900460ff16155b15610732576106566122b5565b60075460408051637056269760e01b815290516000926001600160a01b03169163705626979160048083019260209291908290030181865afa1580156106a0573d6000803e3d6000fd5b505050506040513d601f19601f820116820180604052508101906106c49190612e63565b62ffffff1690506106d58382612e9e565b6001600160a01b038516600081815260046020908152604091829020849055815192835282018390529193507f0c2fcef22ab22997ed46cd27f7f0aa308600145401a7a141065d61c5d87341d2910160405180910390a15061073d565b61073d6000366122ef565b92915050565b60085460008281526005602090815260408083206006909252918290205491516369fe610d60e01b81526060936001600160a01b0316926369fe610d9261078f92909190600401612eb1565b600060405180830381865afa1580156107ac573d6000803e3d6000fd5b505050506040513d6000823e601f3d908101601f1916820160405261073d9190810190612f0a565b600082815260056020526040812060020154819081906001600160801b0316806108405760405162461bcd60e51b815260206004820152601d60248201527f7265776172642065706f6368206964206e6f7420737570706f7274656400000060448201526064016105fd565b60008681526006602052604080822054600854915163385e3b1360e21b81526001600160a01b03898116600483015260248201839052919392919091169063e178ec4c90604401602060405180830381865afa1580156108a4573d6000803e3d6000fd5b505050506040513d601f19601f820116820180604052508101906108c89190612fa4565b60008981526005602090815260408083206001600160a01b0385168452600101909152902054909150806109355760405162461bcd60e51b81526020600482015260146024820152731d9bdd195c881b9bdd081c9959da5cdd195c995960621b60448201526064016105fd565b8361094261ffff83612fc1565b61094c9190612fd8565b600854604051631110456160e01b81526001600160a01b038581166004830152602482018790529297509116906311104561906044016040805180830381865afa15801561099e573d6000803e3d6000fd5b505050506040513d601f19601f820116820180604052508101906109c29190612ffa565b909a9099509497509395505050505050565b600081815260056020908152604091829020805483518184028101840190945280845260609392830182828015610a3457602002820191906000526020600020905b81546001600160a01b03168152600190910190602001808311610a16575b50505050509050919050565b6007546001600160a01b03163314610a965760405162461bcd60e51b815260206004820152601960248201527837b7363c90333630b9329039bcb9ba32b69036b0b730b3b2b960391b60448201526064016105fd565b60008181526006602052604090205415610ab257610ab261301e565b6000908152600660205260409020439055565b60008054600160a81b900460ff16610ae757506001546001600160a01b031690565b60008054906101000a90046001600160a01b03166001600160a01b031663732524946040518163ffffffff1660e01b8152600401602060405180830381865afa158015610b38573d6000803e3d6000fd5b505050506040513d601f19601f82011682018060405250810190610b5c9190612fa4565b905090565b610b6a336118c5565b610ba65760405162461bcd60e51b815260206004820152600d60248201526c37b7363c9032bc32b1baba37b960991b60448201526064016105fd565b6001600160e01b0319811660009081526002602052604081208054909103610c105760405162461bcd60e51b815260206004820152601a60248201527f74696d656c6f636b3a20696e76616c69642073656c6563746f7200000000000060448201526064016105fd565b8054421015610c615760405162461bcd60e51b815260206004820152601960248201527f74696d656c6f636b3a206e6f7420616c6c6f776564207965740000000000000060448201526064016105fd565b6000816001018054610c7290613034565b80601f0160208091040260200160405190810160405280929190818152602001828054610c9e90613034565b8015610ceb5780601f10610cc057610100808354040283529160200191610ceb565b820191906000526020600020905b815481529060010190602001808311610cce57829003601f168201915b505050506001600160e01b0319851660009081526002602052604081208181559293509050610d1d600183018261295e565b50506000805460ff60b01b1916600160b01b1781556040513090610d4290849061306e565b6000604051808303816000865af19150503d8060008114610d7f576040519150601f19603f3d011682016040523d82523d6000602084013e610d84565b606091505b50506000805460ff60b01b19169055604080516001600160e01b0319871681524260208201529192507fa7326b57fc9cfe267aaea5e7f0b01757154d265620a0585819416ee9ddd2c438910160405180910390a1610de18161243b565b50505050565b610def612458565b6001600160e01b031981166000908152600260205260408120549003610e575760405162461bcd60e51b815260206004820152601a60248201527f74696d656c6f636b3a20696e76616c69642073656c6563746f7200000000000060448201526064016105fd565b604080516001600160e01b0319831681524260208201527f7735b2391c38a81419c513e30ca578db7158eadd7101511b23e221c654d19cf8910160405180910390a16001600160e01b03198116600090815260026020526040812081815590610621600183018261295e565b60026020526000908152604090208054600182018054919291610ee590613034565b80601f0160208091040260200160405190810160405280929190818152602001828054610f1190613034565b8015610f5e5780601f10610f3357610100808354040283529160200191610f5e565b820191906000526020600020905b815481529060010190602001808311610f4157829003601f168201915b5050505050905082565b6008546000828152600560209081526040808320600690925291829020549151631594a52760e21b81526060936001600160a01b031692635652949c9261078f92909190600401612eb1565b600a8054610fc190613034565b80601f0160208091040260200160405190810160405280929190818152602001828054610fed90613034565b801561103a5780601f1061100f5761010080835404028352916020019161103a565b820191906000526020600020905b81548152906001019060200180831161101d57829003601f168201915b505050505081565b60008281526005602052604081206002015481906001600160801b0316806110ac5760405162461bcd60e51b815260206004820152601d60248201527f7265776172642065706f6368206964206e6f7420737570706f7274656400000060448201526064016105fd565b6008546000868152600660205260409081902054905163385e3b1360e21b81526001600160a01b038781166004830152602482019290925291169063e178ec4c90604401602060405180830381865afa15801561110d573d6000803e3d6000fd5b505050506040513d601f19601f820116820180604052508101906111319190612fa4565b60008681526005602090815260408083206001600160a01b03851684526001019091529020549093508061119e5760405162461bcd60e51b81526020600482015260146024820152731d9bdd195c881b9bdd081c9959da5cdd195c995960621b60448201526064016105fd565b816111ab61ffff83612fc1565b6111b59190612fd8565b925050509250929050565b600054600160b01b900460ff16806111e25750600054600160a81b900460ff16155b1561126d576111ef6122b5565b600a6111fb82826130d8565b5060405160200161121790602080825260009082015260400190565b604051602081830303815290604052805190602001208160405160200161123e9190612b4c565b604051602081830303815290604052805190602001200361126a57600b80546001600160a01b03191690555b50565b61126a6000366122ef565b60008061128484611bf0565b6040805162ffffff84166020808301919091526001600160a01b03891682840152825180830384018152606090920190925280519101207f19457468657265756d205369676e6564204d6573736167653a0a3332000000006000908152601c829052603c81209395509193509190506000611315826113066020890189613198565b886020013589604001356124b2565b905083606001516001600160a01b0316816001600160a01b0316146113705760405162461bcd60e51b8152602060048201526011602482015270696e76616c6964207369676e617475726560781b60448201526064016105fd565b61137b878686611de2565b50505050505050565b7f714f205b2abd25bef1d06a1af944e38c113fe6160375c4e1d6d5cf28848e7719546001600160a01b0316336001600160a01b0316146113fd5760405162461bcd60e51b815260206004820152601460248201527337b7363c9030b2323932b9b9903ab83230ba32b960611b60448201526064016105fd565b61145561143183836040518060400160405280600e81526020016d20b2323932b9b9aab83230ba32b960911b8152506124e0565b7f714f205b2abd25bef1d06a1af944e38c113fe6160375c4e1d6d5cf28848e771955565b61145f82826125bb565b5050565b6008546000828152600560209081526040808320600690925291829020549151636558b56b60e01b81526060936001600160a01b031692636558b56b9261078f92909190600401612eb1565b60075460609081906000906001600160a01b0316331461150d5760405162461bcd60e51b815260206004820152601960248201527837b7363c90333630b9329039bcb9ba32b69036b0b730b3b2b960391b60448201526064016105fd565b600084815260056020526040902080548061152a5761152a61301e565b60008167ffffffffffffffff81111561154557611545612b5f565b60405190808252806020026020018201604052801561156e578160200160208202803683370190505b50905060008267ffffffffffffffff81111561158c5761158c612b5f565b6040519080825280602002602001820160405280156115b5578160200160208202803683370190505b5090506000805b848110156116c1578560000181815481106115d9576115d96131bb565b9060005260206000200160009054906101000a90046001600160a01b0316848281518110611609576116096131bb565b60200260200101906001600160a01b031690816001600160a01b031681525050856001016000858381518110611641576116416131bb565b60200260200101516001600160a01b03166001600160a01b031681526020019081526020016000205483828151811061167c5761167c6131bb565b60200260200101818152505082818151811061169a5761169a6131bb565b6020026020010151826116ad9190612e9e565b9150806116b9816131d1565b9150506115bc565b5060085460008a815260066020526040908190205490516369fe610d60e01b81526001600160a01b03909216916369fe610d91611703918791906004016131ea565b600060405180830381865afa158015611720573d6000803e3d6000fd5b505050506040513d6000823e601f3d908101601f191682016040526117489190810190612f0a565b97508367ffffffffffffffff81111561176357611763612b5f565b60405190808252806020026020018201604052801561178c578160200160208202803683370190505b50965060005b8481101561182f578161ffff80168483815181106117b2576117b26131bb565b60200260200101516117c49190612fc1565b6117ce9190612fd8565b8882815181106117e0576117e06131bb565b602002602001019061ffff16908161ffff1681525050878181518110611808576118086131bb565b60200260200101518761181b919061320c565b965080611827816131d1565b915050611792565b5060029490940180546001600160801b0390951671ffffffffffffffffffffffffffffffffffff1990951694909417600160801b61ffff8716021790935550939592945090925050565b6008546000828152600560209081526040808320600690925291829020549151631bef8f8d60e31b81526060936001600160a01b03169263df7c7c689261078f92909190600401612eb1565b60008054600160a01b900460ff16801561073d5750600054604051630debfda360e41b81526001600160a01b0384811660048301529091169063debfda3090602401602060405180830381865afa158015611924573d6000803e3d6000fd5b505050506040513d601f19601f8201168201806040525081019061073d9190613243565b600054600160a01b900460ff16156119995760405162461bcd60e51b8152602060048201526014602482015273696e697469616c6973656420213d2066616c736560601b60448201526064016105fd565b6001600160a01b0382166119ef5760405162461bcd60e51b815260206004820152601860248201527f676f7665726e616e63652073657474696e6773207a65726f000000000000000060448201526064016105fd565b6001600160a01b038116611a385760405162461bcd60e51b815260206004820152601060248201526f5f676f7665726e616e6365207a65726f60801b60448201526064016105fd565b600080546001600160a01b038481166001600160a81b031990921691909117600160a01b17909155600180549183166001600160a01b0319909216821790556040519081527f9789733827840833afc031fb2ef9ab6894271f77bad2085687cf4ae5c7bee4db9060200160405180910390a15050565b611ab6612458565b600054600160a81b900460ff1615611b105760405162461bcd60e51b815260206004820152601a60248201527f616c726561647920696e2070726f64756374696f6e206d6f646500000000000060448201526064016105fd565b600180546001600160a01b031916905560008054600160a81b60ff60a81b198216179091556040516001600160a01b0390911681527f83af113638b5422f9e977cebc0aaf0eaf2188eb9a8baae7f9d46c42b33a1560c9060200160405180910390a1565b600054600160b01b900460ff1680611b965750600054600160a81b900460ff16155b1561126d57611ba36122b5565b61ffff811115611beb5760405162461bcd60e51b81526020600482015260136024820152720bedac2f0acdee8cae4e640e8dede40d0d2ced606b1b60448201526064016105fd565b600355565b6040805160808101825260008082526020820181905291810182905260608101829052600760009054906101000a90046001600160a01b03166001600160a01b031663705626976040518163ffffffff1660e01b8152600401602060405180830381865afa158015611c66573d6000803e3d6000fd5b505050506040513d601f19601f82011682018060405250810190611c8a9190612e63565b611c9590600161325e565b6001600160a01b038416600090815260046020526040902054909250801580611cc357508262ffffff168111155b611cff5760405162461bcd60e51b815260206004820152600d60248201526c1d9bdd195c8818da1a5b1b1959609a1b60448201526064016105fd565b62ffffff831660009081526006602052604081205490819003611d645760405162461bcd60e51b815260206004820152601e60248201527f726567697374726174696f6e206e6f7420617661696c61626c6520796574000060448201526064016105fd565b60085460405163ba77118b60e01b81526001600160a01b038781166004830152602482018490529091169063ba77118b90604401608060405180830381865afa158015611db5573d6000803e3d6000fd5b505050506040513d601f19601f82011682018060405250810190611dd9919061327a565b92505050915091565b6007546040516302e074f160e31b815262ffffff8416600482015260009182916001600160a01b0390911690631703a788906024016040805180830381865afa158015611e33573d6000803e3d6000fd5b505050506040513d601f19601f82011682018060405250810190611e5791906132ff565b9150915081600003611ea35760405162461bcd60e51b8152602060048201526015602482015274766f746520706f77657220626c6f636b207a65726f60581b60448201526064016105fd565b80611ef05760405162461bcd60e51b815260206004820152601e60248201527f766f74657220726567697374726174696f6e206e6f7420656e61626c6564000060448201526064016105fd565b60095483516040516357b58c5f60e01b81526001600160a01b038881166004830152918216602482015262ffffff871660448201526064810185905260009291909116906357b58c5f906084016020604051808303816000875af1158015611f5c573d6000803e3d6000fd5b505050506040513d601f19601f82011682018060405250810190611f80919061332b565b905060008111611fc65760405162461bcd60e51b8152602060048201526011602482015270766f74657220776569676874207a65726f60781b60448201526064016105fd565b62ffffff851660009081526005602090815260408083206001600160a01b038a1684526001810190925290912054156120365760405162461bcd60e51b8152602060048201526012602482015271185b1c9958591e481c9959da5cdd195c995960721b60448201526064016105fd565b8054600354811015612088578154600180820184556000848152602080822090930180546001600160a01b0319166001600160a01b038d16908117909155815290840190915260409020839055612216565b6000600019815b838110156120fc5760008560000182815481106120ae576120ae6131bb565b60009182526020808320909101546001600160a01b031680835260018901909152604090912054909150808411156120e7578093508294505b505080806120f4906131d1565b91505061208f565b508481106121415760405162461bcd60e51b8152602060048201526012602482015271766f746520706f77657220746f6f206c6f7760701b60448201526064016105fd565b6000846000018381548110612158576121586131bb565b60009182526020808320909101546001600160a01b031680835260018801909152604082209190915585549091508b9086908590811061219a5761219a6131bb565b600091825260208083209190910180546001600160a01b0319166001600160a01b039485161790558d831682526001880181526040918290208990558151928416835262ffffff8d16908301527f98a7f87f8e2aa2f23f43769eff67782bb12946384b142d1ce1e8e38e05d9a3e6910160405180910390a15050505b7f36e64c7339af9c00a1b00e5da00d8c2159dff48c9c7020a2088b622e117778208888886060015189600001518a602001518b60400151896040516122a397969594939291906001600160a01b03978816815262ffffff969096166020870152938616604086015291851660608501528416608084015290921660a082015260c081019190915260e00190565b60405180910390a15050505050505050565b600054600160b01b900460ff16156122e5573330146122d6576122d661301e565b6000805460ff60b01b19169055565b6122ed612458565b565b6122f7612458565b6000805460408051636221a54b60e01b81529051853593926001600160a01b031691636221a54b9160048083019260209291908290030181865afa158015612343573d6000803e3d6000fd5b505050506040513d601f19601f82011682018060405250810190612367919061332b565b905060006123758242612e9e565b9050604051806040016040528082815260200186868080601f01602080910402602001604051908101604052809392919081815260200183838082843760009201829052509390945250506001600160e01b031986168152600260209081526040909120835181559083015190915060018201906123f390826130d8565b509050507fed948300a3694aa01d4a6b258bfd664350193d770c0b51f8387277f6d83ea3b68382878760405161242c9493929190613344565b60405180910390a15050505050565b3d604051818101604052816000823e8215612454578181f35b8181fd5b612460610ac5565b6001600160a01b0316336001600160a01b0316146122ed5760405162461bcd60e51b815260206004820152600f60248201526e6f6e6c7920676f7665726e616e636560881b60448201526064016105fd565b6000806000806124c4888888886127d6565b9250925092506124d482826128a5565b50909695505050505050565b600080826040516020016124f49190612b4c565b6040516020818303038152906040528051906020012090506000805b865181101561256c5786818151811061252b5761252b6131bb565b6020026020010151830361255a5785818151811061254b5761254b6131bb565b6020026020010151915061256c565b80612564816131d1565b915050612510565b506001600160a01b0381166125b25760405162461bcd60e51b815260206004820152600c60248201526b61646472657373207a65726f60a01b60448201526064016105fd565b95945050505050565b6125f0828260405180604001604052806012815260200171233630b932a9bcb9ba32b6a6b0b730b3b2b960711b8152506124e0565b600760006101000a8154816001600160a01b0302191690836001600160a01b0316021790555061264682826040518060400160405280600d81526020016c22b73a34ba3ca6b0b730b3b2b960991b8152506124e0565b600860006101000a8154816001600160a01b0302191690836001600160a01b031602179055506126a4828260405180604001604052806015815260200174233630b932a9bcb9ba32b6a1b0b631bab630ba37b960591b8152506124e0565b600980546001600160a01b0319166001600160a01b03929092169190911790556040805160208082015260009181019190915260600160405160208183030381529060405280519060200120600a604051602001612702919061338a565b604051602081830303815290604052805190602001201461145f576127b28282600a805461272f90613034565b80601f016020809104026020016040519081016040528092919081815260200182805461275b90613034565b80156127a85780601f1061277d576101008083540402835291602001916127a8565b820191906000526020600020905b81548152906001019060200180831161278b57829003601f168201915b50505050506124e0565b600b80546001600160a01b0319166001600160a01b03929092169190911790555050565b600080807f7fffffffffffffffffffffffffffffff5d576e7357a4501ddfe92f46681b20a0841115612811575060009150600390508261289b565b604080516000808252602082018084528a905260ff891692820192909252606081018790526080810186905260019060a0016020604051602081039080840390855afa158015612865573d6000803e3d6000fd5b5050604051601f1901519150506001600160a01b0381166128915750600092506001915082905061289b565b9250600091508190505b9450945094915050565b60008260038111156128b9576128b9613415565b036128c2575050565b60018260038111156128d6576128d6613415565b036128f45760405163f645eedf60e01b815260040160405180910390fd5b600282600381111561290857612908613415565b036129295760405163fce698f760e01b8152600481018290526024016105fd565b600382600381111561293d5761293d613415565b0361145f576040516335e2f38360e21b8152600481018290526024016105fd565b50805461296a90613034565b6000825580601f1061297a575050565b601f01602090049060005260206000209081019061126a91905b808211156129a85760008155600101612994565b5090565b6001600160a01b038116811461126a57600080fd5b6000602082840312156129d357600080fd5b81356129de816129ac565b9392505050565b600080604083850312156129f857600080fd5b8235612a03816129ac565b946020939093013593505050565b600060208284031215612a2357600080fd5b5035919050565b600081518084526020808501945080840160005b83811015612a635781516001600160a01b031687529582019590820190600101612a3e565b509495945050505050565b6020815260006129de6020830184612a2a565b60008060408385031215612a9457600080fd5b823591506020830135612aa6816129ac565b809150509250929050565b600060208284031215612ac357600080fd5b81356001600160e01b0319811681146129de57600080fd5b60005b83811015612af6578181015183820152602001612ade565b50506000910152565b60008151808452612b17816020860160208601612adb565b601f01601f19169290920160200192915050565b828152604060208201526000612b446040830184612aff565b949350505050565b6020815260006129de6020830184612aff565b634e487b7160e01b600052604160045260246000fd5b604051601f8201601f1916810167ffffffffffffffff81118282101715612b9e57612b9e612b5f565b604052919050565b60006020808385031215612bb957600080fd5b823567ffffffffffffffff80821115612bd157600080fd5b818501915085601f830112612be557600080fd5b813581811115612bf757612bf7612b5f565b612c09601f8201601f19168501612b75565b91508082528684828501011115612c1f57600080fd5b8084840185840137600090820190930192909252509392505050565b6000808284036080811215612c4f57600080fd5b8335612c5a816129ac565b92506060601f1982011215612c6e57600080fd5b506020830190509250929050565b600067ffffffffffffffff821115612c9657612c96612b5f565b5060051b60200190565b600082601f830112612cb157600080fd5b81356020612cc6612cc183612c7c565b612b75565b82815260059290921b84018101918181019086841115612ce557600080fd5b8286015b84811015612d09578035612cfc816129ac565b8352918301918301612ce9565b509695505050505050565b60008060408385031215612d2757600080fd5b823567ffffffffffffffff80821115612d3f57600080fd5b818501915085601f830112612d5357600080fd5b81356020612d63612cc183612c7c565b82815260059290921b84018101918181019089841115612d8257600080fd5b948201945b83861015612da057853582529482019490820190612d87565b96505086013592505080821115612db657600080fd5b50612dc385828601612ca0565b9150509250929050565b606081526000612de06060830186612a2a565b82810360208481019190915285518083528682019282019060005b81811015612e1b57845161ffff1683529383019391830191600101612dfb565b505080935050505061ffff83166040830152949350505050565b60008060408385031215612e4857600080fd5b8235612e53816129ac565b91506020830135612aa6816129ac565b600060208284031215612e7557600080fd5b815162ffffff811681146129de57600080fd5b634e487b7160e01b600052601160045260246000fd5b8082018082111561073d5761073d612e88565b6000604082016040835280855480835260608501915086600052602092508260002060005b82811015612efb5781546001600160a01b031684529284019260019182019101612ed6565b50505092019290925292915050565b60006020808385031215612f1d57600080fd5b825167ffffffffffffffff811115612f3457600080fd5b8301601f81018513612f4557600080fd5b8051612f53612cc182612c7c565b81815260059190911b82018301908381019087831115612f7257600080fd5b928401925b82841015612f99578351612f8a816129ac565b82529284019290840190612f77565b979650505050505050565b600060208284031215612fb657600080fd5b81516129de816129ac565b808202811582820484141761073d5761073d612e88565b600082612ff557634e487b7160e01b600052601260045260246000fd5b500490565b6000806040838503121561300d57600080fd5b505080516020909101519092909150565b634e487b7160e01b600052600160045260246000fd5b600181811c9082168061304857607f821691505b60208210810361306857634e487b7160e01b600052602260045260246000fd5b50919050565b60008251613080818460208701612adb565b9190910192915050565b601f82111561062157600081815260208120601f850160051c810160208610156130b15750805b601f850160051c820191505b818110156130d0578281556001016130bd565b505050505050565b815167ffffffffffffffff8111156130f2576130f2612b5f565b613106816131008454613034565b8461308a565b602080601f83116001811461313b57600084156131235750858301515b600019600386901b1c1916600185901b1785556130d0565b600085815260208120601f198616915b8281101561316a5788860151825594840194600190910190840161314b565b50858210156131885787850151600019600388901b60f8161c191681555b5050505050600190811b01905550565b6000602082840312156131aa57600080fd5b813560ff811681146129de57600080fd5b634e487b7160e01b600052603260045260246000fd5b6000600182016131e3576131e3612e88565b5060010190565b6040815260006131fd6040830185612a2a565b90508260208301529392505050565b61ffff81811683821601908082111561322757613227612e88565b5092915050565b8051801515811461323e57600080fd5b919050565b60006020828403121561325557600080fd5b6129de8261322e565b62ffffff81811683821601908082111561322757613227612e88565b60006080828403121561328c57600080fd5b6040516080810181811067ffffffffffffffff821117156132af576132af612b5f565b60405282516132bd816129ac565b815260208301516132cd816129ac565b602082015260408301516132e0816129ac565b604082015260608301516132f3816129ac565b60608201529392505050565b6000806040838503121561331257600080fd5b825191506133226020840161322e565b90509250929050565b60006020828403121561333d57600080fd5b5051919050565b63ffffffff60e01b8516815283602082015260606040820152816060820152818360808301376000818301608090810191909152601f909201601f191601019392505050565b600060208083526000845461339e81613034565b808487015260406001808416600081146133bf57600181146133d957613407565b60ff1985168984015283151560051b890183019550613407565b896000528660002060005b858110156133ff5781548b82018601529083019088016133e4565b8a0184019650505b509398975050505050505050565b634e487b7160e01b600052602160045260246000fdfea2646970667358221220149213974983aa500172f3f3700dbd5ac618e50a7a553b938c1620f56c5ec7e664736f6c63430008140033",
  "linkReferences": {},
  "deployedLinkReferences": {}
}