{
  "_format": "hh-sol-artifact-1",
  "contractName": "VoterRegistry",
  "sourceName": "contracts/protocol/implementation/VoterRegistry.sol",
  "abi": [
    {
      "inputs": [
        {
          "internalType": "contract IGovernanceSettings",
          "name": "_governanceSettings",
          "type": "address"
        },
        {
          "internalType": "address",
          "name": "_initialGovernance",
          "type": "address"
        },
        {
          "internalType": "address",
          "name": "_addressUpdater",
          "type": "address"
        },
        {
          "internalType": "uint256",
          "name": "_maxVoters",
          "type": "uint256"
        },
        {
          "internalType": "uint256",
          "name": "_initialRewardEpochId",
          "type": "uint256"
        },
        {
          "internalType": "address[]",
          "name": "_initialVoters",
          "type": "address[]"
        },
        {
          "internalType": "uint16[]",
          "name": "_initialNormalisedWeights",
          "type": "uint16[]"
        }
      ],
      "stateMutability": "nonpayable",
      "type": "constructor"
    },
    {
      "inputs": [],
      "name": "ECDSAInvalidSignature",
      "type": "error"
    },
    {
      "inputs": [
        {
          "internalType": "uint256",
          "name": "length",
          "type": "uint256"
        }
      ],
      "name": "ECDSAInvalidSignatureLength",
      "type": "error"
    },
    {
      "inputs": [
        {
          "internalType": "bytes32",
          "name": "s",
          "type": "bytes32"
        }
      ],
      "name": "ECDSAInvalidSignatureS",
      "type": "error"
    },
    {
      "anonymous": false,
      "inputs": [
        {
          "indexed": true,
          "internalType": "bytes20",
          "name": "beneficiary",
          "type": "bytes20"
        },
        {
          "indexed": false,
          "internalType": "uint256",
          "name": "untilRewardEpochId",
          "type": "uint256"
        }
      ],
      "name": "BeneficiaryChilled",
      "type": "event"
    },
    {
      "anonymous": false,
      "inputs": [
        {
          "indexed": false,
          "internalType": "bytes4",
          "name": "selector",
          "type": "bytes4"
        },
        {
          "indexed": false,
          "internalType": "uint256",
          "name": "allowedAfterTimestamp",
          "type": "uint256"
        },
        {
          "indexed": false,
          "internalType": "bytes",
          "name": "encodedCall",
          "type": "bytes"
        }
      ],
      "name": "GovernanceCallTimelocked",
      "type": "event"
    },
    {
      "anonymous": false,
      "inputs": [
        {
          "indexed": false,
          "internalType": "address",
          "name": "initialGovernance",
          "type": "address"
        }
      ],
      "name": "GovernanceInitialised",
      "type": "event"
    },
    {
      "anonymous": false,
      "inputs": [
        {
          "indexed": false,
          "internalType": "address",
          "name": "governanceSettings",
          "type": "address"
        }
      ],
      "name": "GovernedProductionModeEntered",
      "type": "event"
    },
    {
      "anonymous": false,
      "inputs": [
        {
          "indexed": false,
          "internalType": "bytes4",
          "name": "selector",
          "type": "bytes4"
        },
        {
          "indexed": false,
          "internalType": "uint256",
          "name": "timestamp",
          "type": "uint256"
        }
      ],
      "name": "TimelockedGovernanceCallCanceled",
      "type": "event"
    },
    {
      "anonymous": false,
      "inputs": [
        {
          "indexed": false,
          "internalType": "bytes4",
          "name": "selector",
          "type": "bytes4"
        },
        {
          "indexed": false,
          "internalType": "uint256",
          "name": "timestamp",
          "type": "uint256"
        }
      ],
      "name": "TimelockedGovernanceCallExecuted",
      "type": "event"
    },
    {
      "anonymous": false,
      "inputs": [
        {
          "indexed": true,
          "internalType": "address",
          "name": "voter",
          "type": "address"
        },
        {
          "indexed": true,
          "internalType": "uint24",
          "name": "rewardEpochId",
          "type": "uint24"
        },
        {
          "indexed": true,
          "internalType": "address",
          "name": "signingPolicyAddress",
          "type": "address"
        },
        {
          "indexed": false,
          "internalType": "address",
          "name": "submitAddress",
          "type": "address"
        },
        {
          "indexed": false,
          "internalType": "address",
          "name": "submitSignaturesAddress",
          "type": "address"
        },
        {
          "indexed": false,
          "internalType": "bytes32",
          "name": "publicKeyPart1",
          "type": "bytes32"
        },
        {
          "indexed": false,
          "internalType": "bytes32",
          "name": "publicKeyPart2",
          "type": "bytes32"
        },
        {
          "indexed": false,
          "internalType": "uint256",
          "name": "registrationWeight",
          "type": "uint256"
        }
      ],
      "name": "VoterRegistered",
      "type": "event"
    },
    {
      "anonymous": false,
      "inputs": [
        {
          "indexed": true,
          "internalType": "address",
          "name": "voter",
          "type": "address"
        },
        {
          "indexed": true,
          "internalType": "uint256",
          "name": "rewardEpochId",
          "type": "uint256"
        }
      ],
      "name": "VoterRemoved",
      "type": "event"
    },
    {
      "inputs": [
        {
          "internalType": "bytes4",
          "name": "_selector",
          "type": "bytes4"
        }
      ],
      "name": "cancelGovernanceCall",
      "outputs": [],
      "stateMutability": "nonpayable",
      "type": "function"
    },
    {
      "inputs": [
        {
          "internalType": "bytes20[]",
          "name": "_beneficiaryList",
          "type": "bytes20[]"
        },
        {
          "internalType": "uint256",
          "name": "_noOfRewardEpochs",
          "type": "uint256"
        }
      ],
      "name": "chill",
      "outputs": [
        {
          "internalType": "uint256",
          "name": "_untilRewardEpochId",
          "type": "uint256"
        }
      ],
      "stateMutability": "nonpayable",
      "type": "function"
    },
    {
      "inputs": [
        {
          "internalType": "bytes20",
          "name": "beneficiary",
          "type": "bytes20"
        }
      ],
      "name": "chilledUntilRewardEpochId",
      "outputs": [
        {
          "internalType": "uint256",
          "name": "",
          "type": "uint256"
        }
      ],
      "stateMutability": "view",
      "type": "function"
    },
    {
      "inputs": [
        {
          "internalType": "uint256",
          "name": "_rewardEpochId",
          "type": "uint256"
        }
      ],
      "name": "createSigningPolicySnapshot",
      "outputs": [
        {
          "internalType": "address[]",
          "name": "_signingPolicyAddresses",
          "type": "address[]"
        },
        {
          "internalType": "uint16[]",
          "name": "_normalisedWeights",
          "type": "uint16[]"
        },
        {
          "internalType": "uint16",
          "name": "_normalisedWeightsSum",
          "type": "uint16"
        }
      ],
      "stateMutability": "nonpayable",
      "type": "function"
    },
    {
      "inputs": [],
      "name": "entityManager",
      "outputs": [
        {
          "internalType": "contract IIEntityManager",
          "name": "",
          "type": "address"
        }
      ],
      "stateMutability": "view",
      "type": "function"
    },
    {
      "inputs": [
        {
          "internalType": "bytes4",
          "name": "_selector",
          "type": "bytes4"
        }
      ],
      "name": "executeGovernanceCall",
      "outputs": [],
      "stateMutability": "nonpayable",
      "type": "function"
    },
    {
      "inputs": [],
      "name": "flareSystemsCalculator",
      "outputs": [
        {
          "internalType": "contract IIFlareSystemsCalculator",
          "name": "",
          "type": "address"
        }
      ],
      "stateMutability": "view",
      "type": "function"
    },
    {
      "inputs": [],
      "name": "flareSystemsManager",
      "outputs": [
        {
          "internalType": "contract IFlareSystemsManager",
          "name": "",
          "type": "address"
        }
      ],
      "stateMutability": "view",
      "type": "function"
    },
    {
      "inputs": [],
      "name": "getAddressUpdater",
      "outputs": [
        {
          "internalType": "address",
          "name": "_addressUpdater",
          "type": "address"
        }
      ],
      "stateMutability": "view",
      "type": "function"
    },
    {
      "inputs": [
        {
          "internalType": "uint256",
          "name": "_rewardEpochId",
          "type": "uint256"
        }
      ],
      "name": "getNumberOfRegisteredVoters",
      "outputs": [
        {
          "internalType": "uint256",
          "name": "",
          "type": "uint256"
        }
      ],
      "stateMutability": "view",
      "type": "function"
    },
    {
      "inputs": [
        {
          "internalType": "uint256",
          "name": "_rewardEpochId",
          "type": "uint256"
        },
        {
          "internalType": "address",
          "name": "_signingPolicyAddress",
          "type": "address"
        }
      ],
      "name": "getPublicKeyAndNormalisedWeight",
      "outputs": [
        {
          "internalType": "bytes32",
          "name": "_publicKeyPart1",
          "type": "bytes32"
        },
        {
          "internalType": "bytes32",
          "name": "_publicKeyPart2",
          "type": "bytes32"
        },
        {
          "internalType": "uint16",
          "name": "_normalisedWeight",
          "type": "uint16"
        },
        {
          "internalType": "uint16",
          "name": "_normalisedWeightsSumOfVotersWithPublicKeys",
          "type": "uint16"
        }
      ],
      "stateMutability": "view",
      "type": "function"
    },
    {
      "inputs": [
        {
          "internalType": "uint256",
          "name": "_rewardEpochId",
          "type": "uint256"
        }
      ],
      "name": "getRegisteredDelegationAddresses",
      "outputs": [
        {
          "internalType": "address[]",
          "name": "_delegationAddresses",
          "type": "address[]"
        }
      ],
      "stateMutability": "view",
      "type": "function"
    },
    {
      "inputs": [
        {
          "internalType": "uint256",
          "name": "_rewardEpochId",
          "type": "uint256"
        }
      ],
      "name": "getRegisteredNodeIds",
      "outputs": [
        {
          "internalType": "bytes20[][]",
          "name": "_nodeIds",
          "type": "bytes20[][]"
        }
      ],
      "stateMutability": "view",
      "type": "function"
    },
    {
      "inputs": [
        {
          "internalType": "uint256",
          "name": "_rewardEpochId",
          "type": "uint256"
        }
      ],
      "name": "getRegisteredPublicKeys",
      "outputs": [
        {
          "internalType": "bytes32[]",
          "name": "_parts1",
          "type": "bytes32[]"
        },
        {
          "internalType": "bytes32[]",
          "name": "_parts2",
          "type": "bytes32[]"
        }
      ],
      "stateMutability": "view",
      "type": "function"
    },
    {
      "inputs": [
        {
          "internalType": "uint256",
          "name": "_rewardEpochId",
          "type": "uint256"
        }
      ],
      "name": "getRegisteredSigningPolicyAddresses",
      "outputs": [
        {
          "internalType": "address[]",
          "name": "_signingPolicyAddresses",
          "type": "address[]"
        }
      ],
      "stateMutability": "view",
      "type": "function"
    },
    {
      "inputs": [
        {
          "internalType": "uint256",
          "name": "_rewardEpochId",
          "type": "uint256"
        }
      ],
      "name": "getRegisteredSubmitAddresses",
      "outputs": [
        {
          "internalType": "address[]",
          "name": "",
          "type": "address[]"
        }
      ],
      "stateMutability": "view",
      "type": "function"
    },
    {
      "inputs": [
        {
          "internalType": "uint256",
          "name": "_rewardEpochId",
          "type": "uint256"
        }
      ],
      "name": "getRegisteredSubmitSignaturesAddresses",
      "outputs": [
        {
          "internalType": "address[]",
          "name": "_signingPolicyAddresses",
          "type": "address[]"
        }
      ],
      "stateMutability": "view",
      "type": "function"
    },
    {
      "inputs": [
        {
          "internalType": "uint256",
          "name": "_rewardEpochId",
          "type": "uint256"
        }
      ],
      "name": "getRegisteredVoters",
      "outputs": [
        {
          "internalType": "address[]",
          "name": "",
          "type": "address[]"
        }
      ],
      "stateMutability": "view",
      "type": "function"
    },
    {
      "inputs": [
        {
          "internalType": "address",
          "name": "_voter",
          "type": "address"
        },
        {
          "internalType": "uint256",
          "name": "_rewardEpochId",
          "type": "uint256"
        }
      ],
      "name": "getVoterRegistrationWeight",
      "outputs": [
        {
          "internalType": "uint256",
          "name": "_registrationWeight",
          "type": "uint256"
        }
      ],
      "stateMutability": "view",
      "type": "function"
    },
    {
      "inputs": [
        {
          "internalType": "uint256",
          "name": "_rewardEpochId",
          "type": "uint256"
        },
        {
          "internalType": "address",
          "name": "_signingPolicyAddress",
          "type": "address"
        }
      ],
      "name": "getVoterWithNormalisedWeight",
      "outputs": [
        {
          "internalType": "address",
          "name": "_voter",
          "type": "address"
        },
        {
          "internalType": "uint16",
          "name": "_normalisedWeight",
          "type": "uint16"
        }
      ],
      "stateMutability": "view",
      "type": "function"
    },
    {
      "inputs": [
        {
          "internalType": "uint256",
          "name": "_rewardEpochId",
          "type": "uint256"
        }
      ],
      "name": "getWeightsSums",
      "outputs": [
        {
          "internalType": "uint128",
          "name": "_weightsSum",
          "type": "uint128"
        },
        {
          "internalType": "uint16",
          "name": "_normalisedWeightsSum",
          "type": "uint16"
        },
        {
          "internalType": "uint16",
          "name": "_normalisedWeightsSumOfVotersWithPublicKeys",
          "type": "uint16"
        }
      ],
      "stateMutability": "view",
      "type": "function"
    },
    {
      "inputs": [],
      "name": "governance",
      "outputs": [
        {
          "internalType": "address",
          "name": "",
          "type": "address"
        }
      ],
      "stateMutability": "view",
      "type": "function"
    },
    {
      "inputs": [],
      "name": "governanceSettings",
      "outputs": [
        {
          "internalType": "contract IGovernanceSettings",
          "name": "",
          "type": "address"
        }
      ],
      "stateMutability": "view",
      "type": "function"
    },
    {
      "inputs": [
        {
          "internalType": "contract IGovernanceSettings",
          "name": "_governanceSettings",
          "type": "address"
        },
        {
          "internalType": "address",
          "name": "_initialGovernance",
          "type": "address"
        }
      ],
      "name": "initialise",
      "outputs": [],
      "stateMutability": "nonpayable",
      "type": "function"
    },
    {
      "inputs": [
        {
          "internalType": "address",
          "name": "_address",
          "type": "address"
        }
      ],
      "name": "isExecutor",
      "outputs": [
        {
          "internalType": "bool",
          "name": "",
          "type": "bool"
        }
      ],
      "stateMutability": "view",
      "type": "function"
    },
    {
      "inputs": [
        {
          "internalType": "address",
          "name": "_voter",
          "type": "address"
        },
        {
          "internalType": "uint256",
          "name": "_rewardEpochId",
          "type": "uint256"
        }
      ],
      "name": "isVoterRegistered",
      "outputs": [
        {
          "internalType": "bool",
          "name": "",
          "type": "bool"
        }
      ],
      "stateMutability": "view",
      "type": "function"
    },
    {
      "inputs": [],
      "name": "maxVoters",
      "outputs": [
        {
          "internalType": "uint256",
          "name": "",
          "type": "uint256"
        }
      ],
      "stateMutability": "view",
      "type": "function"
    },
    {
      "inputs": [
        {
          "internalType": "uint256",
          "name": "rewardEpochId",
          "type": "uint256"
        }
      ],
      "name": "newSigningPolicyInitializationStartBlockNumber",
      "outputs": [
        {
          "internalType": "uint256",
          "name": "",
          "type": "uint256"
        }
      ],
      "stateMutability": "view",
      "type": "function"
    },
    {
      "inputs": [],
      "name": "productionMode",
      "outputs": [
        {
          "internalType": "bool",
          "name": "",
          "type": "bool"
        }
      ],
      "stateMutability": "view",
      "type": "function"
    },
    {
      "inputs": [],
      "name": "publicKeyRequired",
      "outputs": [
        {
          "internalType": "bool",
          "name": "",
          "type": "bool"
        }
      ],
      "stateMutability": "view",
      "type": "function"
    },
    {
      "inputs": [
        {
          "internalType": "address",
          "name": "_voter",
          "type": "address"
        },
        {
          "components": [
            {
              "internalType": "uint8",
              "name": "v",
              "type": "uint8"
            },
            {
              "internalType": "bytes32",
              "name": "r",
              "type": "bytes32"
            },
            {
              "internalType": "bytes32",
              "name": "s",
              "type": "bytes32"
            }
          ],
          "internalType": "struct IVoterRegistry.Signature",
          "name": "_signature",
          "type": "tuple"
        }
      ],
      "name": "registerVoter",
      "outputs": [],
      "stateMutability": "nonpayable",
      "type": "function"
    },
    {
      "inputs": [
        {
          "internalType": "uint256",
          "name": "_maxVoters",
          "type": "uint256"
        }
      ],
      "name": "setMaxVoters",
      "outputs": [],
      "stateMutability": "nonpayable",
      "type": "function"
    },
    {
      "inputs": [
        {
          "internalType": "uint256",
          "name": "_rewardEpochId",
          "type": "uint256"
        }
      ],
      "name": "setNewSigningPolicyInitializationStartBlockNumber",
      "outputs": [],
      "stateMutability": "nonpayable",
      "type": "function"
    },
    {
      "inputs": [
        {
          "internalType": "bool",
          "name": "_publicKeyRequired",
          "type": "bool"
        }
      ],
      "name": "setPublicKeyRequired",
      "outputs": [],
      "stateMutability": "nonpayable",
      "type": "function"
    },
    {
      "inputs": [
        {
          "internalType": "address",
          "name": "_systemRegistrationContractAddress",
          "type": "address"
        }
      ],
      "name": "setSystemRegistrationContractAddress",
      "outputs": [],
      "stateMutability": "nonpayable",
      "type": "function"
    },
    {
      "inputs": [],
      "name": "switchToProductionMode",
      "outputs": [],
      "stateMutability": "nonpayable",
      "type": "function"
    },
    {
      "inputs": [
        {
          "internalType": "address",
          "name": "_voter",
          "type": "address"
        }
      ],
      "name": "systemRegistration",
      "outputs": [],
      "stateMutability": "nonpayable",
      "type": "function"
    },
    {
      "inputs": [],
      "name": "systemRegistrationContractAddress",
      "outputs": [
        {
          "internalType": "address",
          "name": "",
          "type": "address"
        }
      ],
      "stateMutability": "view",
      "type": "function"
    },
    {
      "inputs": [
        {
          "internalType": "bytes4",
          "name": "selector",
          "type": "bytes4"
        }
      ],
      "name": "timelockedCalls",
      "outputs": [
        {
          "internalType": "uint256",
          "name": "allowedAfterTimestamp",
          "type": "uint256"
        },
        {
          "internalType": "bytes",
          "name": "encodedCall",
          "type": "bytes"
        }
      ],
      "stateMutability": "view",
      "type": "function"
    },
    {
      "inputs": [
        {
          "internalType": "bytes32[]",
          "name": "_contractNameHashes",
          "type": "bytes32[]"
        },
        {
          "internalType": "address[]",
          "name": "_contractAddresses",
          "type": "address[]"
        }
      ],
      "name": "updateContractAddresses",
      "outputs": [],
      "stateMutability": "nonpayable",
      "type": "function"
    }
  ],
  "bytecode": "0x60806040523480156200001157600080fd5b506040516200428938038062004289833981016040819052620000349162000554565b848787620000438282620002d2565b506200006f9050817f714f205b2abd25bef1d06a1af944e38c113fe6160375c4e1d6d5cf28848e771955565b5061ffff841115620000c85760405162461bcd60e51b815260206004820152601360248201527f5f6d6178566f7465727320746f6f20686967680000000000000000000000000060448201526064015b60405180910390fd5b600384905581518015801590620000df5750848111155b6200012d5760405162461bcd60e51b815260206004820152601d60248201527f5f696e697469616c566f74657273206c656e67746820696e76616c69640000006044820152606401620000bf565b815181146200017f5760405162461bcd60e51b815260206004820152601a60248201527f6172726179206c656e6774687320646f206e6f74206d617463680000000000006044820152606401620000bf565b600084815260056020526040812090805b83811015620002985782600001868281518110620001b257620001b26200067c565b60209081029190910181015182546001810184556000938452919092200180546001600160a01b0319166001600160a01b0390921691909117905584518590829081106200020457620002046200067c565b602002602001015161ffff168360010160008884815181106200022b576200022b6200067c565b60200260200101516001600160a01b03166001600160a01b03168152602001908152602001600020819055508481815181106200026c576200026c6200067c565b602002602001015182620002819190620006a8565b9150806200028f81620006cd565b91505062000190565b5060029091018054600160801b61ffff9093169283026001600160901b031990911690921791909117905550620006e99650505050505050565b600054600160a01b900460ff16156200032e5760405162461bcd60e51b815260206004820152601460248201527f696e697469616c6973656420213d2066616c73650000000000000000000000006044820152606401620000bf565b6001600160a01b038216620003865760405162461bcd60e51b815260206004820152601860248201527f676f7665726e616e63652073657474696e6773207a65726f00000000000000006044820152606401620000bf565b6001600160a01b038116620003d15760405162461bcd60e51b815260206004820152601060248201526f5f676f7665726e616e6365207a65726f60801b6044820152606401620000bf565b600080546001600160a01b038481166001600160a81b031990921691909117600160a01b17909155600180549183166001600160a01b0319909216821790556040519081527f9789733827840833afc031fb2ef9ab6894271f77bad2085687cf4ae5c7bee4db9060200160405180910390a15050565b6001600160a01b03811681146200045d57600080fd5b50565b634e487b7160e01b600052604160045260246000fd5b604051601f8201601f191681016001600160401b0381118282101715620004a157620004a162000460565b604052919050565b60006001600160401b03821115620004c557620004c562000460565b5060051b60200190565b600082601f830112620004e157600080fd5b81516020620004fa620004f483620004a9565b62000476565b82815260059290921b840181019181810190868411156200051a57600080fd5b8286015b848110156200054957805161ffff811681146200053b5760008081fd5b83529183019183016200051e565b509695505050505050565b600080600080600080600060e0888a0312156200057057600080fd5b87516200057d8162000447565b80975050602080890151620005928162000447565b60408a0151909750620005a58162000447565b60608a015160808b015160a08c015192985090965094506001600160401b0380821115620005d257600080fd5b818b0191508b601f830112620005e757600080fd5b8151620005f8620004f482620004a9565b81815260059190911b8301840190848101908e8311156200061857600080fd5b938501935b8285101562000643578451620006338162000447565b825293850193908501906200061d565b60c08e015190975094505050808311156200065d57600080fd5b50506200066d8a828b01620004cf565b91505092959891949750929550565b634e487b7160e01b600052603260045260246000fd5b634e487b7160e01b600052601160045260246000fd5b61ffff818116838216019080821115620006c657620006c662000692565b5092915050565b600060018201620006e257620006e262000692565b5060010190565b613b9080620006f96000396000f3fe608060405234801561001057600080fd5b50600436106102485760003560e01c80637c2cb9211161013b578063c452e47f116100b8578063ef88bf131161007c578063ef88bf1314610625578063f5a9838314610638578063faae7fc914610640578063fd587daf14610653578063fff507531461066657600080fd5b8063c452e47f146105c0578063cc8356ca146105e2578063d5e50a63146105f5578063debfda30146105fe578063e17f212e1461061157600080fd5b80639508858e116100ff5780639508858e1461052a578063987a450014610567578063aeacaa6f14610587578063b00c0b761461059a578063b61b57fa146105ad57600080fd5b80637c2cb921146104a85780638c645728146104bb5780638e467784146104f05780638f7d09571461050357806392e3e45f1461051657600080fd5b8063457c2e47116101c95780635aa6e6751161018d5780635aa6e675146104465780635ff270791461044e57806362354e031461046157806367fc40291461047457806374e6310e1461048757600080fd5b8063457c2e471461039b5780634f5a9968146103ae57806350b1d61b146103f9578063521318231461040c5780635267a15d1461041f57600080fd5b8063369e943411610210578063369e9434146102ea57806339661f5f1461030a5780633c5cb76f1461032b578063448436b11461034b57806344b571d91461035e57600080fd5b806317da6b311461024d57806318d1812d1461026257806329a2e5ed146102755780632cc2c0f61461029e57806333994081146102c9575b600080fd5b61026061025b366004612e0b565b610686565b005b610260610270366004612e3d565b6106dd565b610288610283366004612e5a565b610766565b6040516102959190612eb7565b60405180910390f35b600a546102b1906001600160a01b031681565b6040516001600160a01b039091168152602001610295565b6102dc6102d7366004612eca565b610834565b604051908152602001610295565b6102dc6102f8366004612e5a565b60009081526005602052604090205490565b61031d610318366004612e5a565b610877565b604051610295929190612f26565b6102dc610339366004612f61565b60046020526000908152604090205481565b610260610359366004612e3d565b61094a565b61037161036c366004612f7e565b610997565b60408051948552602085019390935261ffff91821692840192909252166060820152608001610295565b6102886103a9366004612e5a565b610b4e565b6103e96103bc366004612eca565b60009081526005602090815260408083206001600160a01b03949094168352600190930190522054151590565b6040519015158152602001610295565b6008546102b1906001600160a01b031681565b61026061041a366004612e5a565b610bba565b7f714f205b2abd25bef1d06a1af944e38c113fe6160375c4e1d6d5cf28848e7719546102b1565b6102b1610c3f565b61026061045c366004612fae565b610cdb565b6000546102b1906001600160a01b031681565b610260610482366004612fae565b610f61565b61049a610495366004612fae565b61103d565b604051610295929190613028565b6102886104b6366004612e5a565b6110e2565b6104ce6104c9366004612f7e565b611165565b604080516001600160a01b03909316835261ffff909116602083015201610295565b6009546102b1906001600160a01b031681565b610260610511366004613049565b611284565b600a546103e990600160a01b900460ff1681565b61053d610538366004612e5a565b611390565b604080516001600160801b03909416845261ffff9283166020850152911690820152606001610295565b61057a610575366004612e5a565b6113e9565b604051610295919061308a565b6102dc61059536600461311e565b61150c565b6102606105a8366004613275565b6116b4565b6102886105bb366004612e5a565b611793565b6105d36105ce366004612e5a565b611816565b6040516102959392919061332d565b6102886105f0366004612e5a565b611cf7565b6102dc60035481565b6103e961060c366004612e3d565b611dd5565b6000546103e990600160a81b900460ff1681565b610260610633366004613395565b611e58565b610260611fbe565b6007546102b1906001600160a01b031681565b610260610661366004612e5a565b612084565b6102dc610674366004612e5a565b60066020526000908152604090205481565b600054600160b01b900460ff16806106a85750600054600160a81b900460ff16155b156106cf576106b5612100565b600a805460ff60a01b1916600160a01b8315150217905550565b6106da60003661213a565b50565b600a546001600160a01b031633146107465760405162461bcd60e51b815260206004820152602160248201527f6f6e6c792073797374656d20726567697374726174696f6e20636f6e747261636044820152601d60fa1b60648201526084015b60405180910390fd5b60008061075283612286565b91509150610761838383612408565b505050565b6000818152600560205260409020600201546060906001600160801b03166107a05760405162461bcd60e51b815260040161073d906133c3565b60085460008381526005602090815260408083206006909252918290205491516369fe610d60e01b81526001600160a01b03909316926369fe610d926107e99291600401613438565b600060405180830381865afa158015610806573d6000803e3d6000fd5b505050506040513d6000823e601f3d908101601f1916820160405261082e919081019061345a565b92915050565b60008181526005602090815260408083206001600160a01b03861684526001019091529020548061082e5760405162461bcd60e51b815260040161073d906134f3565b60008181526005602052604090206002015460609081906001600160801b03166108b35760405162461bcd60e51b815260040161073d906133c3565b600854600084815260056020908152604080832060069092529182902054915163bda9a28b60e01b81526001600160a01b039093169263bda9a28b926108fc9291600401613438565b600060405180830381865afa158015610919573d6000803e3d6000fd5b505050506040513d6000823e601f3d908101601f19168201604052610941919081019061357c565b91509150915091565b600054600160b01b900460ff168061096c5750600054600160a81b900460ff16155b156106cf57610979612100565b600a80546001600160a01b0319166001600160a01b03831617905550565b60008281526005602052604081206002810154829182918291906001600160801b0316806109d75760405162461bcd60e51b815260040161073d906133c3565b60008881526006602052604080822054600854915163385e3b1360e21b81526001600160a01b038b8116600483015260248201839052919392919091169063e178ec4c90604401602060405180830381865afa158015610a3b573d6000803e3d6000fd5b505050506040513d601f19601f82011682018060405250810190610a5f91906135d5565b6001600160a01b038116600090815260018601602052604090205490915080610a9a5760405162461bcd60e51b815260040161073d906134f3565b83610aa761ffff83613608565b610ab1919061361f565b600854604051631110456160e01b81526001600160a01b038581166004830152602482018790529299509116906311104561906044016040805180830381865afa158015610b03573d6000803e3d6000fd5b505050506040513d601f19601f82011682018060405250810190610b279190613641565b60029690960154909c959b509699505050600160901b90940461ffff169550909350505050565b600081815260056020908152604091829020805483518184028101840190945280845260609392830182828015610bae57602002820191906000526020600020905b81546001600160a01b03168152600190910190602001808311610b90575b50505050509050919050565b6007546001600160a01b03163314610c105760405162461bcd60e51b815260206004820152601960248201527837b7363c90333630b9329039bcb9ba32b69036b0b730b3b2b960391b604482015260640161073d565b60008181526006602052604090205415610c2c57610c2c613665565b6000908152600660205260409020439055565b60008054600160a81b900460ff16610c6157506001546001600160a01b031690565b60008054906101000a90046001600160a01b03166001600160a01b031663732524946040518163ffffffff1660e01b8152600401602060405180830381865afa158015610cb2573d6000803e3d6000fd5b505050506040513d601f19601f82011682018060405250810190610cd691906135d5565b905090565b610ce433611dd5565b610d205760405162461bcd60e51b815260206004820152600d60248201526c37b7363c9032bc32b1baba37b960991b604482015260640161073d565b6001600160e01b0319811660009081526002602052604081208054909103610d8a5760405162461bcd60e51b815260206004820152601a60248201527f74696d656c6f636b3a20696e76616c69642073656c6563746f72000000000000604482015260640161073d565b8054421015610ddb5760405162461bcd60e51b815260206004820152601960248201527f74696d656c6f636b3a206e6f7420616c6c6f7765642079657400000000000000604482015260640161073d565b6000816001018054610dec9061367b565b80601f0160208091040260200160405190810160405280929190818152602001828054610e189061367b565b8015610e655780601f10610e3a57610100808354040283529160200191610e65565b820191906000526020600020905b815481529060010190602001808311610e4857829003601f168201915b505050506001600160e01b0319851660009081526002602052604081208181559293509050610e976001830182612daf565b50506000805460ff60b01b1916600160b01b1781556040513090610ebc9084906136b5565b6000604051808303816000865af19150503d8060008114610ef9576040519150601f19603f3d011682016040523d82523d6000602084013e610efe565b606091505b50506000805460ff60b01b19169055604080516001600160e01b0319871681524260208201529192507fa7326b57fc9cfe267aaea5e7f0b01757154d265620a0585819416ee9ddd2c438910160405180910390a1610f5b81612998565b50505050565b610f696129b5565b6001600160e01b031981166000908152600260205260408120549003610fd15760405162461bcd60e51b815260206004820152601a60248201527f74696d656c6f636b3a20696e76616c69642073656c6563746f72000000000000604482015260640161073d565b604080516001600160e01b0319831681524260208201527f7735b2391c38a81419c513e30ca578db7158eadd7101511b23e221c654d19cf8910160405180910390a16001600160e01b031981166000908152600260205260408120818155906107616001830182612daf565b6002602052600090815260409020805460018201805491929161105f9061367b565b80601f016020809104026020016040519081016040528092919081815260200182805461108b9061367b565b80156110d85780601f106110ad576101008083540402835291602001916110d8565b820191906000526020600020905b8154815290600101906020018083116110bb57829003601f168201915b5050505050905082565b6000818152600560205260409020600201546060906001600160801b031661111c5760405162461bcd60e51b815260040161073d906133c3565b6008546000838152600560209081526040808320600690925291829020549151631594a52760e21b81526001600160a01b0390931692635652949c926107e99291600401613438565b600082815260056020526040812060028101548291906001600160801b0316806111a15760405162461bcd60e51b815260040161073d906133c3565b6008546000878152600660205260409081902054905163385e3b1360e21b81526001600160a01b038881166004830152602482019290925291169063e178ec4c90604401602060405180830381865afa158015611202573d6000803e3d6000fd5b505050506040513d601f19601f8201168201806040525081019061122691906135d5565b6001600160a01b0381166000908152600184016020526040902054909450806112615760405162461bcd60e51b815260040161073d906134f3565b8161126e61ffff83613608565b611278919061361f565b93505050509250929050565b60008061129084612286565b6040805162ffffff84166020808301919091526001600160a01b03891682840152825180830384018152606090920190925280519101207f19457468657265756d205369676e6564204d6573736167653a0a3332000000006000908152601c829052603c812093955091935091905060006113218261131260208901896136d1565b88602001358960400135612a0f565b905083604001516001600160a01b0316816001600160a01b03161461137c5760405162461bcd60e51b8152602060048201526011602482015270696e76616c6964207369676e617475726560781b604482015260640161073d565b611387878686612408565b50505050505050565b600081815260056020526040902060028101546001600160801b0381169161ffff600160801b8304811692600160901b90041690836113e15760405162461bcd60e51b815260040161073d906133c3565b509193909250565b6000818152600560205260409020600201546060906001600160801b03166114235760405162461bcd60e51b815260040161073d906133c3565b600854600083815260056020526040908190206007549151636131910b60e11b8152600481018690526001600160a01b03938416936305b232c893169063c263221690602401602060405180830381865afa158015611486573d6000803e3d6000fd5b505050506040513d601f19601f820116820180604052508101906114aa91906136f4565b6040518363ffffffff1660e01b81526004016114c792919061371d565b600060405180830381865afa1580156114e4573d6000803e3d6000fd5b505050506040513d6000823e601f3d908101601f1916820160405261082e9190810190613748565b60008054600160b01b900460ff168061152f5750600054600160a81b900460ff16155b156116a25761153c612100565b60075460408051637056269760e01b815290516000926001600160a01b03169163705626979160048083019260209291908290030181865afa158015611586573d6000803e3d6000fd5b505050506040513d601f19601f820116820180604052508101906115aa919061385a565b62ffffff1690506115bb838261387f565b6115c690600161387f565b915060005b8481101561169b5782600460008888858181106115ea576115ea613892565b90506020020160208101906115ff9190612f61565b6001600160601b031916815260208101919091526040016000205585858281811061162c5761162c613892565b90506020020160208101906116419190612f61565b6bffffffffffffffffffffffff19167f0a5e087b026d8f1c57e75d9d0cb0394c2ad3535e7a15d97d553be80476274cd08460405161168191815260200190565b60405180910390a280611693816138a8565b9150506115cb565b50506116ad565b6116ad60003661213a565b9392505050565b7f714f205b2abd25bef1d06a1af944e38c113fe6160375c4e1d6d5cf28848e7719546001600160a01b0316336001600160a01b03161461172d5760405162461bcd60e51b815260206004820152601460248201527337b7363c9030b2323932b9b9903ab83230ba32b960611b604482015260640161073d565b61178561176183836040518060400160405280600e81526020016d20b2323932b9b9aab83230ba32b960911b815250612a3d565b7f714f205b2abd25bef1d06a1af944e38c113fe6160375c4e1d6d5cf28848e771955565b61178f8282612b18565b5050565b6000818152600560205260409020600201546060906001600160801b03166117cd5760405162461bcd60e51b815260040161073d906133c3565b6008546000838152600560209081526040808320600690925291829020549151636558b56b60e01b81526001600160a01b0390931692636558b56b926107e99291600401613438565b60075460609081906000906001600160a01b031633146118745760405162461bcd60e51b815260206004820152601960248201527837b7363c90333630b9329039bcb9ba32b69036b0b730b3b2b960391b604482015260640161073d565b600084815260056020526040902080548061189157611891613665565b6000816001600160401b038111156118ab576118ab613198565b6040519080825280602002602001820160405280156118d4578160200160208202803683370190505b5090506000826001600160401b038111156118f1576118f1613198565b60405190808252806020026020018201604052801561191a578160200160208202803683370190505b5090506000805b84811015611a265785600001818154811061193e5761193e613892565b9060005260206000200160009054906101000a90046001600160a01b031684828151811061196e5761196e613892565b60200260200101906001600160a01b031690816001600160a01b0316815250508560010160008583815181106119a6576119a6613892565b60200260200101516001600160a01b03166001600160a01b03168152602001908152602001600020548382815181106119e1576119e1613892565b6020026020010181815250508281815181106119ff576119ff613892565b602002602001015182611a12919061387f565b915080611a1e816138a8565b915050611921565b5060085460008a815260066020526040908190205490516369fe610d60e01b81526001600160a01b03909216916369fe610d91611a68918791906004016138c1565b600060405180830381865afa158015611a85573d6000803e3d6000fd5b505050506040513d6000823e601f3d908101601f19168201604052611aad919081019061345a565b60085460008b81526006602052604080822054905163bda9a28b60e01b8152939b50909283926001600160a01b03169163bda9a28b91611af19189916004016138c1565b600060405180830381865afa158015611b0e573d6000803e3d6000fd5b505050506040513d6000823e601f3d908101601f19168201604052611b36919081019061357c565b91509150856001600160401b03811115611b5257611b52613198565b604051908082528060200260200182016040528015611b7b578160200160208202803683370190505b5098506000805b87811015611c93578461ffff8016878381518110611ba257611ba2613892565b6020026020010151611bb49190613608565b611bbe919061361f565b8b8281518110611bd057611bd0613892565b602002602001019061ffff16908161ffff16815250508a8181518110611bf857611bf8613892565b60200260200101518a611c0b91906138d4565b99506000801b848281518110611c2357611c23613892565b6020026020010151141580611c5457506000801b838281518110611c4957611c49613892565b602002602001015114155b15611c81578a8181518110611c6b57611c6b613892565b602002602001015182611c7e91906138d4565b91505b80611c8b816138a8565b915050611b82565b506002909701805461ffff988916600160901b0261ffff60901b19998b16600160801b0271ffffffffffffffffffffffffffffffffffff199092166001600160801b0390961695909517179790971692909217909555509597949650929450505050565b6000818152600560205260409020600201546060906001600160801b0316611d315760405162461bcd60e51b815260040161073d906133c3565b600854600083815260056020526040908190206007549151636131910b60e11b8152600481018690526001600160a01b039384169363df7c7c6893169063c263221690602401602060405180830381865afa158015611d94573d6000803e3d6000fd5b505050506040513d601f19601f82011682018060405250810190611db891906136f4565b6040518363ffffffff1660e01b81526004016107e992919061371d565b60008054600160a01b900460ff16801561082e5750600054604051630debfda360e41b81526001600160a01b0384811660048301529091169063debfda3090602401602060405180830381865afa158015611e34573d6000803e3d6000fd5b505050506040513d601f19601f8201168201806040525081019061082e91906138f6565b600054600160a01b900460ff1615611ea95760405162461bcd60e51b8152602060048201526014602482015273696e697469616c6973656420213d2066616c736560601b604482015260640161073d565b6001600160a01b038216611eff5760405162461bcd60e51b815260206004820152601860248201527f676f7665726e616e63652073657474696e6773207a65726f0000000000000000604482015260640161073d565b6001600160a01b038116611f485760405162461bcd60e51b815260206004820152601060248201526f5f676f7665726e616e6365207a65726f60801b604482015260640161073d565b600080546001600160a01b038481166001600160a81b031990921691909117600160a01b17909155600180549183166001600160a01b0319909216821790556040519081527f9789733827840833afc031fb2ef9ab6894271f77bad2085687cf4ae5c7bee4db9060200160405180910390a15050565b611fc66129b5565b600054600160a81b900460ff16156120205760405162461bcd60e51b815260206004820152601a60248201527f616c726561647920696e2070726f64756374696f6e206d6f6465000000000000604482015260640161073d565b600180546001600160a01b031916905560008054600160a81b60ff60a81b198216179091556040516001600160a01b0390911681527f83af113638b5422f9e977cebc0aaf0eaf2188eb9a8baae7f9d46c42b33a1560c9060200160405180910390a1565b600054600160b01b900460ff16806120a65750600054600160a81b900460ff16155b156106cf576120b3612100565b61ffff8111156120fb5760405162461bcd60e51b81526020600482015260136024820152720bedac2f0acdee8cae4e640e8dede40d0d2ced606b1b604482015260640161073d565b600355565b600054600160b01b900460ff16156121305733301461212157612121613665565b6000805460ff60b01b19169055565b6121386129b5565b565b6121426129b5565b6000805460408051636221a54b60e01b81529051853593926001600160a01b031691636221a54b9160048083019260209291908290030181865afa15801561218e573d6000803e3d6000fd5b505050506040513d601f19601f820116820180604052508101906121b29190613913565b905060006121c0824261387f565b9050604051806040016040528082815260200186868080601f01602080910402602001604051908101604052809392919081815260200183838082843760009201829052509390945250506001600160e01b0319861681526002602090815260409091208351815590830151909150600182019061223e908261397a565b509050507fed948300a3694aa01d4a6b258bfd664350193d770c0b51f8387277f6d83ea3b6838287876040516122779493929190613a39565b60405180910390a15050505050565b60408051606081018252600080825260208201819052918101829052600760009054906101000a90046001600160a01b03166001600160a01b031663705626976040518163ffffffff1660e01b8152600401602060405180830381865afa1580156122f5573d6000803e3d6000fd5b505050506040513d601f19601f82011682018060405250810190612319919061385a565b612324906001613a7f565b62ffffff811660009081526006602052604081205491935081900361238b5760405162461bcd60e51b815260206004820152601e60248201527f726567697374726174696f6e206e6f7420617661696c61626c65207965740000604482015260640161073d565b60085460405163164a335960e31b81526001600160a01b038681166004830152602482018490529091169063b2519ac890604401606060405180830381865afa1580156123dc573d6000803e3d6000fd5b505050506040513d601f19601f820116820180604052508101906124009190613a9b565b915050915091565b6007546040516302e074f160e31b815262ffffff8416600482015260009182916001600160a01b0390911690631703a788906024016040805180830381865afa158015612459573d6000803e3d6000fd5b505050506040513d601f19601f8201168201806040525081019061247d9190613b0c565b91509150816000036124c95760405162461bcd60e51b8152602060048201526015602482015274766f746520706f77657220626c6f636b207a65726f60581b604482015260640161073d565b806125165760405162461bcd60e51b815260206004820152601e60248201527f766f74657220726567697374726174696f6e206e6f7420656e61626c65640000604482015260640161073d565b600954604051635b28c2eb60e11b81526001600160a01b03878116600483015262ffffff8716602483015260448201859052600092169063b65185d6906064016020604051808303816000875af1158015612575573d6000803e3d6000fd5b505050506040513d601f19601f820116820180604052508101906125999190613913565b9050600081116125df5760405162461bcd60e51b8152602060048201526011602482015270766f74657220776569676874207a65726f60781b604482015260640161073d565b60085462ffffff8616600090815260066020526040808220549051631110456160e01b81526001600160a01b038a811660048301526024820192909252919283929116906311104561906044016040805180830381865afa158015612648573d6000803e3d6000fd5b505050506040513d601f19601f8201168201806040525081019061266c9190613641565b600a549193509150600160a01b900460ff168015612688575081155b8015612692575080155b156126d55760405162461bcd60e51b81526020600482015260136024820152721c1d589b1a58c81ad95e481c995c5d5a5c9959606a1b604482015260640161073d565b62ffffff871660009081526005602090815260408083206001600160a01b038c1684526001810190925290912054156127455760405162461bcd60e51b8152602060048201526012602482015271185b1c9958591e481c9959da5cdd195c995960721b604482015260640161073d565b8054600354811015612797578154600180820184556000848152602080822090930180546001600160a01b0319166001600160a01b038f16908117909155815290840190915260409020859055612916565b6000600019815b8381101561280b5760008560000182815481106127bd576127bd613892565b60009182526020808320909101546001600160a01b031680835260018901909152604090912054909150808411156127f6578093508294505b50508080612803906138a8565b91505061279e565b508681106128505760405162461bcd60e51b8152602060048201526012602482015271766f746520706f77657220746f6f206c6f7760701b604482015260640161073d565b600084600001838154811061286757612867613892565b60009182526020808320909101546001600160a01b031680835260018801909152604082209190915585549091508d908690859081106128a9576128a9613892565b600091825260208083209190910180546001600160a01b0319166001600160a01b039485161790558f8316825260018801905260408082208b90555162ffffff8f16928416917f98a7f87f8e2aa2f23f43769eff67782bb12946384b142d1ce1e8e38e05d9a3e691a35050505b60408089015189516020808c015184516001600160a01b0393841681529083169181019190915292830187905260608301869052608083018890529081169162ffffff8c16918d16907f824bc2cc10bfe21ead60b8c8a90716eb325b9335aa73eaede799abf38fce062c9060a00160405180910390a450505050505050505050565b3d604051818101604052816000823e82156129b1578181f35b8181fd5b6129bd610c3f565b6001600160a01b0316336001600160a01b0316146121385760405162461bcd60e51b815260206004820152600f60248201526e6f6e6c7920676f7665726e616e636560881b604482015260640161073d565b600080600080612a2188888888612c27565b925092509250612a318282612cf6565b50909695505050505050565b60008082604051602001612a519190613b31565b6040516020818303038152906040528051906020012090506000805b8651811015612ac957868181518110612a8857612a88613892565b60200260200101518303612ab757858181518110612aa857612aa8613892565b60200260200101519150612ac9565b80612ac1816138a8565b915050612a6d565b506001600160a01b038116612b0f5760405162461bcd60e51b815260206004820152600c60248201526b61646472657373207a65726f60a01b604482015260640161073d565b95945050505050565b612b4e828260405180604001604052806013815260200172233630b932a9bcb9ba32b6b9a6b0b730b3b2b960691b815250612a3d565b600760006101000a8154816001600160a01b0302191690836001600160a01b03160217905550612ba482826040518060400160405280600d81526020016c22b73a34ba3ca6b0b730b3b2b960991b815250612a3d565b600860006101000a8154816001600160a01b0302191690836001600160a01b03160217905550612c03828260405180604001604052806016815260200175233630b932a9bcb9ba32b6b9a1b0b631bab630ba37b960511b815250612a3d565b600980546001600160a01b0319166001600160a01b03929092169190911790555050565b600080807f7fffffffffffffffffffffffffffffff5d576e7357a4501ddfe92f46681b20a0841115612c625750600091506003905082612cec565b604080516000808252602082018084528a905260ff891692820192909252606081018790526080810186905260019060a0016020604051602081039080840390855afa158015612cb6573d6000803e3d6000fd5b5050604051601f1901519150506001600160a01b038116612ce257506000925060019150829050612cec565b9250600091508190505b9450945094915050565b6000826003811115612d0a57612d0a613b44565b03612d13575050565b6001826003811115612d2757612d27613b44565b03612d455760405163f645eedf60e01b815260040160405180910390fd5b6002826003811115612d5957612d59613b44565b03612d7a5760405163fce698f760e01b81526004810182905260240161073d565b6003826003811115612d8e57612d8e613b44565b0361178f576040516335e2f38360e21b81526004810182905260240161073d565b508054612dbb9061367b565b6000825580601f10612dcb575050565b601f0160209004906000526020600020908101906106da91905b80821115612df95760008155600101612de5565b5090565b80151581146106da57600080fd5b600060208284031215612e1d57600080fd5b81356116ad81612dfd565b6001600160a01b03811681146106da57600080fd5b600060208284031215612e4f57600080fd5b81356116ad81612e28565b600060208284031215612e6c57600080fd5b5035919050565b600081518084526020808501945080840160005b83811015612eac5781516001600160a01b031687529582019590820190600101612e87565b509495945050505050565b6020815260006116ad6020830184612e73565b60008060408385031215612edd57600080fd5b8235612ee881612e28565b946020939093013593505050565b600081518084526020808501945080840160005b83811015612eac57815187529582019590820190600101612f0a565b604081526000612f396040830185612ef6565b8281036020840152612b0f8185612ef6565b6001600160601b0319811681146106da57600080fd5b600060208284031215612f7357600080fd5b81356116ad81612f4b565b60008060408385031215612f9157600080fd5b823591506020830135612fa381612e28565b809150509250929050565b600060208284031215612fc057600080fd5b81356001600160e01b0319811681146116ad57600080fd5b60005b83811015612ff3578181015183820152602001612fdb565b50506000910152565b60008151808452613014816020860160208601612fd8565b601f01601f19169290920160200192915050565b8281526040602082015260006130416040830184612ffc565b949350505050565b600080828403608081121561305d57600080fd5b833561306881612e28565b92506060601f198201121561307c57600080fd5b506020830190509250929050565b6000602080830181845280855180835260408601915060408160051b87010192508387016000805b8381101561311057888603603f19018552825180518088529088019088880190845b818110156130fa5783516001600160601b0319168352928a0192918a01916001016130d4565b50909750505093860193918601916001016130b2565b509398975050505050505050565b60008060006040848603121561313357600080fd5b83356001600160401b038082111561314a57600080fd5b818601915086601f83011261315e57600080fd5b81358181111561316d57600080fd5b8760208260051b850101111561318257600080fd5b6020928301989097509590910135949350505050565b634e487b7160e01b600052604160045260246000fd5b604051601f8201601f191681016001600160401b03811182821017156131d6576131d6613198565b604052919050565b60006001600160401b038211156131f7576131f7613198565b5060051b60200190565b600082601f83011261321257600080fd5b81356020613227613222836131de565b6131ae565b82815260059290921b8401810191818101908684111561324657600080fd5b8286015b8481101561326a57803561325d81612e28565b835291830191830161324a565b509695505050505050565b6000806040838503121561328857600080fd5b82356001600160401b038082111561329f57600080fd5b818501915085601f8301126132b357600080fd5b813560206132c3613222836131de565b82815260059290921b840181019181810190898411156132e257600080fd5b948201945b83861015613300578535825294820194908201906132e7565b9650508601359250508082111561331657600080fd5b5061332385828601613201565b9150509250929050565b6060815260006133406060830186612e73565b82810360208481019190915285518083528682019282019060005b8181101561337b57845161ffff168352938301939183019160010161335b565b505080935050505061ffff83166040830152949350505050565b600080604083850312156133a857600080fd5b82356133b381612e28565b91506020830135612fa381612e28565b6020808252601d908201527f7265776172642065706f6368206964206e6f7420737570706f72746564000000604082015260600190565b6000815480845260208085019450836000528060002060005b83811015612eac5781546001600160a01b031687529582019560019182019101613413565b60408152600061344b60408301856133fa565b90508260208301529392505050565b6000602080838503121561346d57600080fd5b82516001600160401b0381111561348357600080fd5b8301601f8101851361349457600080fd5b80516134a2613222826131de565b81815260059190911b820183019083810190878311156134c157600080fd5b928401925b828410156134e85783516134d981612e28565b825292840192908401906134c6565b979650505050505050565b6020808252601490820152731d9bdd195c881b9bdd081c9959da5cdd195c995960621b604082015260600190565b600082601f83011261353257600080fd5b81516020613542613222836131de565b82815260059290921b8401810191818101908684111561356157600080fd5b8286015b8481101561326a5780518352918301918301613565565b6000806040838503121561358f57600080fd5b82516001600160401b03808211156135a657600080fd5b6135b286838701613521565b935060208501519150808211156135c857600080fd5b5061332385828601613521565b6000602082840312156135e757600080fd5b81516116ad81612e28565b634e487b7160e01b600052601160045260246000fd5b808202811582820484141761082e5761082e6135f2565b60008261363c57634e487b7160e01b600052601260045260246000fd5b500490565b6000806040838503121561365457600080fd5b505080516020909101519092909150565b634e487b7160e01b600052600160045260246000fd5b600181811c9082168061368f57607f821691505b6020821081036136af57634e487b7160e01b600052602260045260246000fd5b50919050565b600082516136c7818460208701612fd8565b9190910192915050565b6000602082840312156136e357600080fd5b813560ff811681146116ad57600080fd5b60006020828403121561370657600080fd5b81516001600160401b03811681146116ad57600080fd5b60408152600061373060408301856133fa565b90506001600160401b03831660208301529392505050565b6000602080838503121561375b57600080fd5b82516001600160401b038082111561377257600080fd5b818501915085601f83011261378657600080fd5b8151613794613222826131de565b818152600591821b84018501918582019190898411156137b357600080fd5b8686015b8481101561384b578051868111156137cf5760008081fd5b8701603f81018c136137e15760008081fd5b8881015160406137f3613222836131de565b82815291851b83018101918b8101908f8411156138105760008081fd5b938201935b8385101561383a578451925061382a83612f4b565b828252938c0193908c0190613815565b8852505050938801935087016137b7565b50909998505050505050505050565b60006020828403121561386c57600080fd5b815162ffffff811681146116ad57600080fd5b8082018082111561082e5761082e6135f2565b634e487b7160e01b600052603260045260246000fd5b6000600182016138ba576138ba6135f2565b5060010190565b60408152600061344b6040830185612e73565b61ffff8181168382160190808211156138ef576138ef6135f2565b5092915050565b60006020828403121561390857600080fd5b81516116ad81612dfd565b60006020828403121561392557600080fd5b5051919050565b601f82111561076157600081815260208120601f850160051c810160208610156139535750805b601f850160051c820191505b818110156139725782815560010161395f565b505050505050565b81516001600160401b0381111561399357613993613198565b6139a7816139a1845461367b565b8461392c565b602080601f8311600181146139dc57600084156139c45750858301515b600019600386901b1c1916600185901b178555613972565b600085815260208120601f198616915b82811015613a0b578886015182559484019460019091019084016139ec565b5085821015613a295787850151600019600388901b60f8161c191681555b5050505050600190811b01905550565b63ffffffff60e01b8516815283602082015260606040820152816060820152818360808301376000818301608090810191909152601f909201601f191601019392505050565b62ffffff8181168382160190808211156138ef576138ef6135f2565b600060608284031215613aad57600080fd5b604051606081018181106001600160401b0382111715613acf57613acf613198565b6040528251613add81612e28565b81526020830151613aed81612e28565b60208201526040830151613b0081612e28565b60408201529392505050565b60008060408385031215613b1f57600080fd5b825191506020830151612fa381612dfd565b6020815260006116ad6020830184612ffc565b634e487b7160e01b600052602160045260246000fdfea26469706673582212207be5feae64173ded04ebb06017cfc1f7f3724a507672aa8f233451147c26102064736f6c63430008140033",
  "linkReferences": {},
  "deployedLinkReferences": {}
}