{
  "_format": "hh-sol-artifact-1",
  "contractName": "VoterRegistry",
  "sourceName": "contracts/protocol/implementation/VoterRegistry.sol",
  "abi": [
    {
      "inputs": [
        {
          "internalType": "contract IGovernanceSettings",
          "name": "_governanceSettings",
          "type": "address"
        },
        {
          "internalType": "address",
          "name": "_initialGovernance",
          "type": "address"
        },
        {
          "internalType": "address",
          "name": "_addressUpdater",
          "type": "address"
        },
        {
          "internalType": "uint256",
          "name": "_maxVoters",
          "type": "uint256"
        },
        {
          "internalType": "uint256",
          "name": "_initialRewardEpochId",
          "type": "uint256"
        },
        {
          "internalType": "address[]",
          "name": "_initialVoters",
          "type": "address[]"
        },
        {
          "internalType": "uint16[]",
          "name": "_initialNormalisedWeights",
          "type": "uint16[]"
        }
      ],
      "stateMutability": "nonpayable",
      "type": "constructor"
    },
    {
      "inputs": [],
      "name": "ECDSAInvalidSignature",
      "type": "error"
    },
    {
      "inputs": [
        {
          "internalType": "uint256",
          "name": "length",
          "type": "uint256"
        }
      ],
      "name": "ECDSAInvalidSignatureLength",
      "type": "error"
    },
    {
      "inputs": [
        {
          "internalType": "bytes32",
          "name": "s",
          "type": "bytes32"
        }
      ],
      "name": "ECDSAInvalidSignatureS",
      "type": "error"
    },
    {
      "anonymous": false,
      "inputs": [
        {
          "indexed": true,
          "internalType": "bytes20",
          "name": "beneficiary",
          "type": "bytes20"
        },
        {
          "indexed": false,
          "internalType": "uint256",
          "name": "untilRewardEpochId",
          "type": "uint256"
        }
      ],
      "name": "BeneficiaryChilled",
      "type": "event"
    },
    {
      "anonymous": false,
      "inputs": [
        {
          "indexed": false,
          "internalType": "bytes4",
          "name": "selector",
          "type": "bytes4"
        },
        {
          "indexed": false,
          "internalType": "uint256",
          "name": "allowedAfterTimestamp",
          "type": "uint256"
        },
        {
          "indexed": false,
          "internalType": "bytes",
          "name": "encodedCall",
          "type": "bytes"
        }
      ],
      "name": "GovernanceCallTimelocked",
      "type": "event"
    },
    {
      "anonymous": false,
      "inputs": [
        {
          "indexed": false,
          "internalType": "address",
          "name": "initialGovernance",
          "type": "address"
        }
      ],
      "name": "GovernanceInitialised",
      "type": "event"
    },
    {
      "anonymous": false,
      "inputs": [
        {
          "indexed": false,
          "internalType": "address",
          "name": "governanceSettings",
          "type": "address"
        }
      ],
      "name": "GovernedProductionModeEntered",
      "type": "event"
    },
    {
      "anonymous": false,
      "inputs": [
        {
          "indexed": false,
          "internalType": "bytes4",
          "name": "selector",
          "type": "bytes4"
        },
        {
          "indexed": false,
          "internalType": "uint256",
          "name": "timestamp",
          "type": "uint256"
        }
      ],
      "name": "TimelockedGovernanceCallCanceled",
      "type": "event"
    },
    {
      "anonymous": false,
      "inputs": [
        {
          "indexed": false,
          "internalType": "bytes4",
          "name": "selector",
          "type": "bytes4"
        },
        {
          "indexed": false,
          "internalType": "uint256",
          "name": "timestamp",
          "type": "uint256"
        }
      ],
      "name": "TimelockedGovernanceCallExecuted",
      "type": "event"
    },
    {
      "anonymous": false,
      "inputs": [
        {
          "indexed": true,
          "internalType": "address",
          "name": "voter",
          "type": "address"
        },
        {
          "indexed": true,
          "internalType": "uint24",
          "name": "rewardEpochId",
          "type": "uint24"
        },
        {
          "indexed": true,
          "internalType": "address",
          "name": "signingPolicyAddress",
          "type": "address"
        },
        {
          "indexed": false,
          "internalType": "address",
          "name": "submitAddress",
          "type": "address"
        },
        {
          "indexed": false,
          "internalType": "address",
          "name": "submitSignaturesAddress",
          "type": "address"
        },
        {
          "indexed": false,
          "internalType": "bytes32",
          "name": "publicKeyPart1",
          "type": "bytes32"
        },
        {
          "indexed": false,
          "internalType": "bytes32",
          "name": "publicKeyPart2",
          "type": "bytes32"
        },
        {
          "indexed": false,
          "internalType": "uint256",
          "name": "registrationWeight",
          "type": "uint256"
        }
      ],
      "name": "VoterRegistered",
      "type": "event"
    },
    {
      "anonymous": false,
      "inputs": [
        {
          "indexed": true,
          "internalType": "address",
          "name": "voter",
          "type": "address"
        },
        {
          "indexed": true,
          "internalType": "uint256",
          "name": "rewardEpochId",
          "type": "uint256"
        }
      ],
      "name": "VoterRemoved",
      "type": "event"
    },
    {
      "inputs": [
        {
          "internalType": "bytes4",
          "name": "_selector",
          "type": "bytes4"
        }
      ],
      "name": "cancelGovernanceCall",
      "outputs": [],
      "stateMutability": "nonpayable",
      "type": "function"
    },
    {
      "inputs": [
        {
          "internalType": "bytes20[]",
          "name": "_beneficiaryList",
          "type": "bytes20[]"
        },
        {
          "internalType": "uint256",
          "name": "_noOfRewardEpochs",
          "type": "uint256"
        }
      ],
      "name": "chill",
      "outputs": [
        {
          "internalType": "uint256",
          "name": "_untilRewardEpochId",
          "type": "uint256"
        }
      ],
      "stateMutability": "nonpayable",
      "type": "function"
    },
    {
      "inputs": [
        {
          "internalType": "bytes20",
          "name": "beneficiary",
          "type": "bytes20"
        }
      ],
      "name": "chilledUntilRewardEpochId",
      "outputs": [
        {
          "internalType": "uint256",
          "name": "",
          "type": "uint256"
        }
      ],
      "stateMutability": "view",
      "type": "function"
    },
    {
      "inputs": [
        {
          "internalType": "uint256",
          "name": "_rewardEpochId",
          "type": "uint256"
        }
      ],
      "name": "createSigningPolicySnapshot",
      "outputs": [
        {
          "internalType": "address[]",
          "name": "_signingPolicyAddresses",
          "type": "address[]"
        },
        {
          "internalType": "uint16[]",
          "name": "_normalisedWeights",
          "type": "uint16[]"
        },
        {
          "internalType": "uint16",
          "name": "_normalisedWeightsSum",
          "type": "uint16"
        }
      ],
      "stateMutability": "nonpayable",
      "type": "function"
    },
    {
      "inputs": [],
      "name": "entityManager",
      "outputs": [
        {
          "internalType": "contract IIEntityManager",
          "name": "",
          "type": "address"
        }
      ],
      "stateMutability": "view",
      "type": "function"
    },
    {
      "inputs": [
        {
          "internalType": "bytes4",
          "name": "_selector",
          "type": "bytes4"
        }
      ],
      "name": "executeGovernanceCall",
      "outputs": [],
      "stateMutability": "nonpayable",
      "type": "function"
    },
    {
      "inputs": [],
      "name": "flareSystemsCalculator",
      "outputs": [
        {
          "internalType": "contract IIFlareSystemsCalculator",
          "name": "",
          "type": "address"
        }
      ],
      "stateMutability": "view",
      "type": "function"
    },
    {
      "inputs": [],
      "name": "flareSystemsManager",
      "outputs": [
        {
          "internalType": "contract IIFlareSystemsManager",
          "name": "",
          "type": "address"
        }
      ],
      "stateMutability": "view",
      "type": "function"
    },
    {
      "inputs": [],
      "name": "getAddressUpdater",
      "outputs": [
        {
          "internalType": "address",
          "name": "_addressUpdater",
          "type": "address"
        }
      ],
      "stateMutability": "view",
      "type": "function"
    },
    {
      "inputs": [
        {
          "internalType": "uint256",
          "name": "_rewardEpochId",
          "type": "uint256"
        }
      ],
      "name": "getNumberOfRegisteredVoters",
      "outputs": [
        {
          "internalType": "uint256",
          "name": "",
          "type": "uint256"
        }
      ],
      "stateMutability": "view",
      "type": "function"
    },
    {
      "inputs": [
        {
          "internalType": "uint256",
          "name": "_rewardEpochId",
          "type": "uint256"
        },
        {
          "internalType": "address",
          "name": "_signingPolicyAddress",
          "type": "address"
        }
      ],
      "name": "getPublicKeyAndNormalisedWeight",
      "outputs": [
        {
          "internalType": "bytes32",
          "name": "_publicKeyPart1",
          "type": "bytes32"
        },
        {
          "internalType": "bytes32",
          "name": "_publicKeyPart2",
          "type": "bytes32"
        },
        {
          "internalType": "uint16",
          "name": "_normalisedWeight",
          "type": "uint16"
        },
        {
          "internalType": "uint16",
          "name": "_normalisedWeightsSumOfVotersWithPublicKeys",
          "type": "uint16"
        }
      ],
      "stateMutability": "view",
      "type": "function"
    },
    {
      "inputs": [
        {
          "internalType": "uint256",
          "name": "_rewardEpochId",
          "type": "uint256"
        }
      ],
      "name": "getRegisteredDelegationAddresses",
      "outputs": [
        {
          "internalType": "address[]",
          "name": "_delegationAddresses",
          "type": "address[]"
        }
      ],
      "stateMutability": "view",
      "type": "function"
    },
    {
      "inputs": [
        {
          "internalType": "uint256",
          "name": "_rewardEpochId",
          "type": "uint256"
        }
      ],
      "name": "getRegisteredNodeIds",
      "outputs": [
        {
          "internalType": "bytes20[][]",
          "name": "_nodeIds",
          "type": "bytes20[][]"
        }
      ],
      "stateMutability": "view",
      "type": "function"
    },
    {
      "inputs": [
        {
          "internalType": "uint256",
          "name": "_rewardEpochId",
          "type": "uint256"
        }
      ],
      "name": "getRegisteredPublicKeys",
      "outputs": [
        {
          "internalType": "bytes32[]",
          "name": "_parts1",
          "type": "bytes32[]"
        },
        {
          "internalType": "bytes32[]",
          "name": "_parts2",
          "type": "bytes32[]"
        }
      ],
      "stateMutability": "view",
      "type": "function"
    },
    {
      "inputs": [
        {
          "internalType": "uint256",
          "name": "_rewardEpochId",
          "type": "uint256"
        }
      ],
      "name": "getRegisteredSigningPolicyAddresses",
      "outputs": [
        {
          "internalType": "address[]",
          "name": "_signingPolicyAddresses",
          "type": "address[]"
        }
      ],
      "stateMutability": "view",
      "type": "function"
    },
    {
      "inputs": [
        {
          "internalType": "uint256",
          "name": "_rewardEpochId",
          "type": "uint256"
        }
      ],
      "name": "getRegisteredSubmitAddresses",
      "outputs": [
        {
          "internalType": "address[]",
          "name": "",
          "type": "address[]"
        }
      ],
      "stateMutability": "view",
      "type": "function"
    },
    {
      "inputs": [
        {
          "internalType": "uint256",
          "name": "_rewardEpochId",
          "type": "uint256"
        }
      ],
      "name": "getRegisteredSubmitSignaturesAddresses",
      "outputs": [
        {
          "internalType": "address[]",
          "name": "_signingPolicyAddresses",
          "type": "address[]"
        }
      ],
      "stateMutability": "view",
      "type": "function"
    },
    {
      "inputs": [
        {
          "internalType": "uint256",
          "name": "_rewardEpochId",
          "type": "uint256"
        }
      ],
      "name": "getRegisteredVoters",
      "outputs": [
        {
          "internalType": "address[]",
          "name": "",
          "type": "address[]"
        }
      ],
      "stateMutability": "view",
      "type": "function"
    },
    {
      "inputs": [
        {
          "internalType": "uint256",
          "name": "_rewardEpochId",
          "type": "uint256"
        }
      ],
      "name": "getRegisteredVotersAndNormalisedWeights",
      "outputs": [
        {
          "internalType": "address[]",
          "name": "_voters",
          "type": "address[]"
        },
        {
          "internalType": "uint16[]",
          "name": "_normalisedWeights",
          "type": "uint16[]"
        }
      ],
      "stateMutability": "view",
      "type": "function"
    },
    {
      "inputs": [
        {
          "internalType": "uint256",
          "name": "_rewardEpochId",
          "type": "uint256"
        }
      ],
      "name": "getRegisteredVotersAndRegistrationWeights",
      "outputs": [
        {
          "internalType": "address[]",
          "name": "_voters",
          "type": "address[]"
        },
        {
          "internalType": "uint256[]",
          "name": "_registrationWeights",
          "type": "uint256[]"
        }
      ],
      "stateMutability": "view",
      "type": "function"
    },
    {
      "inputs": [
        {
          "internalType": "address",
          "name": "_voter",
          "type": "address"
        },
        {
          "internalType": "uint256",
          "name": "_rewardEpochId",
          "type": "uint256"
        }
      ],
      "name": "getVoterNormalisedWeight",
      "outputs": [
        {
          "internalType": "uint16",
          "name": "_normalisedWeight",
          "type": "uint16"
        }
      ],
      "stateMutability": "view",
      "type": "function"
    },
    {
      "inputs": [
        {
          "internalType": "address",
          "name": "_voter",
          "type": "address"
        },
        {
          "internalType": "uint256",
          "name": "_rewardEpochId",
          "type": "uint256"
        }
      ],
      "name": "getVoterRegistrationWeight",
      "outputs": [
        {
          "internalType": "uint256",
          "name": "_registrationWeight",
          "type": "uint256"
        }
      ],
      "stateMutability": "view",
      "type": "function"
    },
    {
      "inputs": [
        {
          "internalType": "uint256",
          "name": "_rewardEpochId",
          "type": "uint256"
        },
        {
          "internalType": "address",
          "name": "_signingPolicyAddress",
          "type": "address"
        }
      ],
      "name": "getVoterWithNormalisedWeight",
      "outputs": [
        {
          "internalType": "address",
          "name": "_voter",
          "type": "address"
        },
        {
          "internalType": "uint16",
          "name": "_normalisedWeight",
          "type": "uint16"
        }
      ],
      "stateMutability": "view",
      "type": "function"
    },
    {
      "inputs": [
        {
          "internalType": "uint256",
          "name": "_rewardEpochId",
          "type": "uint256"
        }
      ],
      "name": "getWeightsSums",
      "outputs": [
        {
          "internalType": "uint128",
          "name": "_weightsSum",
          "type": "uint128"
        },
        {
          "internalType": "uint16",
          "name": "_normalisedWeightsSum",
          "type": "uint16"
        },
        {
          "internalType": "uint16",
          "name": "_normalisedWeightsSumOfVotersWithPublicKeys",
          "type": "uint16"
        }
      ],
      "stateMutability": "view",
      "type": "function"
    },
    {
      "inputs": [],
      "name": "governance",
      "outputs": [
        {
          "internalType": "address",
          "name": "",
          "type": "address"
        }
      ],
      "stateMutability": "view",
      "type": "function"
    },
    {
      "inputs": [],
      "name": "governanceSettings",
      "outputs": [
        {
          "internalType": "contract IGovernanceSettings",
          "name": "",
          "type": "address"
        }
      ],
      "stateMutability": "view",
      "type": "function"
    },
    {
      "inputs": [
        {
          "internalType": "contract IGovernanceSettings",
          "name": "_governanceSettings",
          "type": "address"
        },
        {
          "internalType": "address",
          "name": "_initialGovernance",
          "type": "address"
        }
      ],
      "name": "initialise",
      "outputs": [],
      "stateMutability": "nonpayable",
      "type": "function"
    },
    {
      "inputs": [
        {
          "internalType": "address",
          "name": "_address",
          "type": "address"
        }
      ],
      "name": "isExecutor",
      "outputs": [
        {
          "internalType": "bool",
          "name": "",
          "type": "bool"
        }
      ],
      "stateMutability": "view",
      "type": "function"
    },
    {
      "inputs": [
        {
          "internalType": "address",
          "name": "_voter",
          "type": "address"
        },
        {
          "internalType": "uint256",
          "name": "_rewardEpochId",
          "type": "uint256"
        }
      ],
      "name": "isVoterRegistered",
      "outputs": [
        {
          "internalType": "bool",
          "name": "",
          "type": "bool"
        }
      ],
      "stateMutability": "view",
      "type": "function"
    },
    {
      "inputs": [],
      "name": "maxVoters",
      "outputs": [
        {
          "internalType": "uint256",
          "name": "",
          "type": "uint256"
        }
      ],
      "stateMutability": "view",
      "type": "function"
    },
    {
      "inputs": [
        {
          "internalType": "uint256",
          "name": "rewardEpochId",
          "type": "uint256"
        }
      ],
      "name": "newSigningPolicyInitializationStartBlockNumber",
      "outputs": [
        {
          "internalType": "uint256",
          "name": "",
          "type": "uint256"
        }
      ],
      "stateMutability": "view",
      "type": "function"
    },
    {
      "inputs": [],
      "name": "productionMode",
      "outputs": [
        {
          "internalType": "bool",
          "name": "",
          "type": "bool"
        }
      ],
      "stateMutability": "view",
      "type": "function"
    },
    {
      "inputs": [],
      "name": "publicKeyRequired",
      "outputs": [
        {
          "internalType": "bool",
          "name": "",
          "type": "bool"
        }
      ],
      "stateMutability": "view",
      "type": "function"
    },
    {
      "inputs": [
        {
          "internalType": "address",
          "name": "_voter",
          "type": "address"
        },
        {
          "components": [
            {
              "internalType": "uint8",
              "name": "v",
              "type": "uint8"
            },
            {
              "internalType": "bytes32",
              "name": "r",
              "type": "bytes32"
            },
            {
              "internalType": "bytes32",
              "name": "s",
              "type": "bytes32"
            }
          ],
          "internalType": "struct IVoterRegistry.Signature",
          "name": "_signature",
          "type": "tuple"
        }
      ],
      "name": "registerVoter",
      "outputs": [],
      "stateMutability": "nonpayable",
      "type": "function"
    },
    {
      "inputs": [
        {
          "internalType": "uint256",
          "name": "_maxVoters",
          "type": "uint256"
        }
      ],
      "name": "setMaxVoters",
      "outputs": [],
      "stateMutability": "nonpayable",
      "type": "function"
    },
    {
      "inputs": [
        {
          "internalType": "uint256",
          "name": "_rewardEpochId",
          "type": "uint256"
        }
      ],
      "name": "setNewSigningPolicyInitializationStartBlockNumber",
      "outputs": [],
      "stateMutability": "nonpayable",
      "type": "function"
    },
    {
      "inputs": [
        {
          "internalType": "bool",
          "name": "_publicKeyRequired",
          "type": "bool"
        }
      ],
      "name": "setPublicKeyRequired",
      "outputs": [],
      "stateMutability": "nonpayable",
      "type": "function"
    },
    {
      "inputs": [
        {
          "internalType": "address",
          "name": "_systemRegistrationContractAddress",
          "type": "address"
        }
      ],
      "name": "setSystemRegistrationContractAddress",
      "outputs": [],
      "stateMutability": "nonpayable",
      "type": "function"
    },
    {
      "inputs": [],
      "name": "switchToProductionMode",
      "outputs": [],
      "stateMutability": "nonpayable",
      "type": "function"
    },
    {
      "inputs": [
        {
          "internalType": "address",
          "name": "_voter",
          "type": "address"
        }
      ],
      "name": "systemRegistration",
      "outputs": [],
      "stateMutability": "nonpayable",
      "type": "function"
    },
    {
      "inputs": [],
      "name": "systemRegistrationContractAddress",
      "outputs": [
        {
          "internalType": "address",
          "name": "",
          "type": "address"
        }
      ],
      "stateMutability": "view",
      "type": "function"
    },
    {
      "inputs": [
        {
          "internalType": "bytes4",
          "name": "selector",
          "type": "bytes4"
        }
      ],
      "name": "timelockedCalls",
      "outputs": [
        {
          "internalType": "uint256",
          "name": "allowedAfterTimestamp",
          "type": "uint256"
        },
        {
          "internalType": "bytes",
          "name": "encodedCall",
          "type": "bytes"
        }
      ],
      "stateMutability": "view",
      "type": "function"
    },
    {
      "inputs": [
        {
          "internalType": "bytes32[]",
          "name": "_contractNameHashes",
          "type": "bytes32[]"
        },
        {
          "internalType": "address[]",
          "name": "_contractAddresses",
          "type": "address[]"
        }
      ],
      "name": "updateContractAddresses",
      "outputs": [],
      "stateMutability": "nonpayable",
      "type": "function"
    }
  ],
  "bytecode": "0x60806040523480156200001157600080fd5b50604051620047c4380380620047c4833981016040819052620000349162000554565b848787620000438282620002d2565b506200006f9050817f714f205b2abd25bef1d06a1af944e38c113fe6160375c4e1d6d5cf28848e771955565b5061ffff841115620000c85760405162461bcd60e51b815260206004820152601360248201527f5f6d6178566f7465727320746f6f20686967680000000000000000000000000060448201526064015b60405180910390fd5b600384905581518015801590620000df5750848111155b6200012d5760405162461bcd60e51b815260206004820152601d60248201527f5f696e697469616c566f74657273206c656e67746820696e76616c69640000006044820152606401620000bf565b815181146200017f5760405162461bcd60e51b815260206004820152601a60248201527f6172726179206c656e6774687320646f206e6f74206d617463680000000000006044820152606401620000bf565b600084815260056020526040812090805b83811015620002985782600001868281518110620001b257620001b26200067c565b60209081029190910181015182546001810184556000938452919092200180546001600160a01b0319166001600160a01b0390921691909117905584518590829081106200020457620002046200067c565b602002602001015161ffff168360010160008884815181106200022b576200022b6200067c565b60200260200101516001600160a01b03166001600160a01b03168152602001908152602001600020819055508481815181106200026c576200026c6200067c565b602002602001015182620002819190620006a8565b9150806200028f81620006cd565b91505062000190565b5060029091018054600160801b61ffff9093169283026001600160901b031990911690921791909117905550620006e99650505050505050565b600054600160a01b900460ff16156200032e5760405162461bcd60e51b815260206004820152601460248201527f696e697469616c6973656420213d2066616c73650000000000000000000000006044820152606401620000bf565b6001600160a01b038216620003865760405162461bcd60e51b815260206004820152601860248201527f676f7665726e616e63652073657474696e6773207a65726f00000000000000006044820152606401620000bf565b6001600160a01b038116620003d15760405162461bcd60e51b815260206004820152601060248201526f5f676f7665726e616e6365207a65726f60801b6044820152606401620000bf565b600080546001600160a01b038481166001600160a81b031990921691909117600160a01b17909155600180549183166001600160a01b0319909216821790556040519081527f9789733827840833afc031fb2ef9ab6894271f77bad2085687cf4ae5c7bee4db9060200160405180910390a15050565b6001600160a01b03811681146200045d57600080fd5b50565b634e487b7160e01b600052604160045260246000fd5b604051601f8201601f191681016001600160401b0381118282101715620004a157620004a162000460565b604052919050565b60006001600160401b03821115620004c557620004c562000460565b5060051b60200190565b600082601f830112620004e157600080fd5b81516020620004fa620004f483620004a9565b62000476565b82815260059290921b840181019181810190868411156200051a57600080fd5b8286015b848110156200054957805161ffff811681146200053b5760008081fd5b83529183019183016200051e565b509695505050505050565b600080600080600080600060e0888a0312156200057057600080fd5b87516200057d8162000447565b80975050602080890151620005928162000447565b60408a0151909750620005a58162000447565b60608a015160808b015160a08c015192985090965094506001600160401b0380821115620005d257600080fd5b818b0191508b601f830112620005e757600080fd5b8151620005f8620004f482620004a9565b81815260059190911b8301840190848101908e8311156200061857600080fd5b938501935b8285101562000643578451620006338162000447565b825293850193908501906200061d565b60c08e015190975094505050808311156200065d57600080fd5b50506200066d8a828b01620004cf565b91505092959891949750929550565b634e487b7160e01b600052603260045260246000fd5b634e487b7160e01b600052601160045260246000fd5b61ffff818116838216019080821115620006c657620006c662000692565b5092915050565b600060018201620006e257620006e262000692565b5060010190565b6140cb80620006f96000396000f3fe608060405234801561001057600080fd5b50600436106102695760003560e01c806374e6310e11610151578063b9111169116100c3578063e17f212e11610087578063e17f212e1461069a578063ef88bf13146106ae578063f5a98383146106c1578063faae7fc9146106c9578063fd587daf146106dc578063fff50753146106ef57600080fd5b8063b911116914610628578063c452e47f14610649578063cc8356ca1461066b578063d5e50a631461067e578063debfda301461068757600080fd5b806392e3e45f1161011557806392e3e45f1461057e5780639508858e14610592578063987a4500146105cf578063aeacaa6f146105ef578063b00c0b7614610602578063b61b57fa1461061557600080fd5b806374e6310e146104ef5780637c2cb921146105105780638c645728146105235780638e467784146105585780638f7d09571461056b57600080fd5b806344b571d9116101ea5780635267a15d116101ae5780635267a15d146104615780635aa6e675146104885780635ff270791461049057806362354e03146104a357806367fc4029146104b65780636ddcd4bc146104c957600080fd5b806344b571d9146103a0578063457c2e47146103dd5780634f5a9968146103f057806350b1d61b1461043b578063521318231461044e57600080fd5b80633399408111610231578063339940811461030b578063369e94341461032c57806339661f5f1461034c5780633c5cb76f1461036d578063448436b11461038d57600080fd5b806317da6b311461026e57806318d1812d1461028357806328be8e3a1461029657806329a2e5ed146102c05780632cc2c0f6146102e0575b600080fd5b61028161027c3660046132a0565b61070f565b005b6102816102913660046132d2565b610766565b6102a96102a43660046132ef565b6107ef565b6040516102b792919061334c565b60405180910390f35b6102d36102ce3660046132ef565b610926565b6040516102b791906133a3565b600a546102f3906001600160a01b031681565b6040516001600160a01b0390911681526020016102b7565b61031e6103193660046133b6565b6109f4565b6040519081526020016102b7565b61031e61033a3660046132ef565b60009081526005602052604090205490565b61035f61035a3660046132ef565b610a37565b6040516102b7929190613412565b61031e61037b36600461344d565b60046020526000908152604090205481565b61028161039b3660046132d2565b610b0a565b6103b36103ae36600461346a565b610b57565b60408051948552602085019390935261ffff918216928401929092521660608201526080016102b7565b6102d36103eb3660046132ef565b610d0e565b61042b6103fe3660046133b6565b60009081526005602090815260408083206001600160a01b03949094168352600190930190522054151590565b60405190151581526020016102b7565b6008546102f3906001600160a01b031681565b61028161045c3660046132ef565b610d7a565b7f714f205b2abd25bef1d06a1af944e38c113fe6160375c4e1d6d5cf28848e7719546102f3565b6102f3610dff565b61028161049e36600461349a565b610e9b565b6000546102f3906001600160a01b031681565b6102816104c436600461349a565b611121565b6104dc6104d73660046133b6565b6111fd565b60405161ffff90911681526020016102b7565b6105026104fd36600461349a565b61128f565b6040516102b7929190613514565b6102d361051e3660046132ef565b611334565b61053661053136600461346a565b6113b7565b604080516001600160a01b03909316835261ffff9091166020830152016102b7565b6009546102f3906001600160a01b031681565b610281610579366004613535565b6114d6565b600a5461042b90600160a01b900460ff1681565b6105a56105a03660046132ef565b6115e2565b604080516001600160801b03909416845261ffff92831660208501529116908201526060016102b7565b6105e26105dd3660046132ef565b61163b565b6040516102b79190613576565b61031e6105fd36600461360a565b61175e565b610281610610366004613761565b611906565b6102d36106233660046132ef565b6119e5565b61063b6106363660046132ef565b611a68565b6040516102b792919061384d565b61065c6106573660046132ef565b611bec565b6040516102b793929190613872565b6102d36106793660046132ef565b6120cd565b61031e60035481565b61042b6106953660046132d2565b6121ab565b60005461042b90600160a81b900460ff1681565b6102816106bc3660046138ac565b61222e565b610281612394565b6007546102f3906001600160a01b031681565b6102816106ea3660046132ef565b61245a565b61031e6106fd3660046132ef565b60066020526000908152604090205481565b600054600160b01b900460ff16806107315750600054600160a81b900460ff16155b156107585761073e612595565b600a805460ff60a01b1916600160a01b8315150217905550565b6107636000366125cf565b50565b600a546001600160a01b031633146107cf5760405162461bcd60e51b815260206004820152602160248201527f6f6e6c792073797374656d20726567697374726174696f6e20636f6e747261636044820152601d60fa1b60648201526084015b60405180910390fd5b6000806107db8361271b565b915091506107ea83838361289d565b505050565b600081815260056020908152604091829020805483518184028101840190945280845260609384939091839183018282801561085457602002820191906000526020600020905b81546001600160a01b03168152600190910190602001808311610836575b5050835193965083925050506001600160401b0381111561087757610877613684565b6040519080825280602002602001820160405280156108a0578160200160208202803683370190505b50925060005b8181101561091e578260010160008683815181106108c6576108c66138da565b60200260200101516001600160a01b03166001600160a01b0316815260200190815260200160002054848281518110610901576109016138da565b60209081029190910101528061091681613906565b9150506108a6565b505050915091565b6000818152600560205260409020600201546060906001600160801b03166109605760405162461bcd60e51b81526004016107c69061391f565b60085460008381526005602090815260408083206006909252918290205491516369fe610d60e01b81526001600160a01b03909316926369fe610d926109a99291600401613994565b600060405180830381865afa1580156109c6573d6000803e3d6000fd5b505050506040513d6000823e601f3d908101601f191682016040526109ee91908101906139b6565b92915050565b60008181526005602090815260408083206001600160a01b0386168452600101909152902054806109ee5760405162461bcd60e51b81526004016107c690613a4f565b60008181526005602052604090206002015460609081906001600160801b0316610a735760405162461bcd60e51b81526004016107c69061391f565b600854600084815260056020908152604080832060069092529182902054915163bda9a28b60e01b81526001600160a01b039093169263bda9a28b92610abc9291600401613994565b600060405180830381865afa158015610ad9573d6000803e3d6000fd5b505050506040513d6000823e601f3d908101601f19168201604052610b019190810190613ad8565b91509150915091565b600054600160b01b900460ff1680610b2c5750600054600160a81b900460ff16155b1561075857610b39612595565b600a80546001600160a01b0319166001600160a01b03831617905550565b60008281526005602052604081206002810154829182918291906001600160801b031680610b975760405162461bcd60e51b81526004016107c69061391f565b60008881526006602052604080822054600854915163385e3b1360e21b81526001600160a01b038b8116600483015260248201839052919392919091169063e178ec4c90604401602060405180830381865afa158015610bfb573d6000803e3d6000fd5b505050506040513d601f19601f82011682018060405250810190610c1f9190613b31565b6001600160a01b038116600090815260018601602052604090205490915080610c5a5760405162461bcd60e51b81526004016107c690613a4f565b83610c6761ffff83613b4e565b610c719190613b65565b600854604051631110456160e01b81526001600160a01b038581166004830152602482018790529299509116906311104561906044016040805180830381865afa158015610cc3573d6000803e3d6000fd5b505050506040513d601f19601f82011682018060405250810190610ce79190613b87565b60029690960154909c959b509699505050600160901b90940461ffff169550909350505050565b600081815260056020908152604091829020805483518184028101840190945280845260609392830182828015610d6e57602002820191906000526020600020905b81546001600160a01b03168152600190910190602001808311610d50575b50505050509050919050565b6007546001600160a01b03163314610dd05760405162461bcd60e51b815260206004820152601960248201527837b7363c90333630b9329039bcb9ba32b69036b0b730b3b2b960391b60448201526064016107c6565b60008181526006602052604090205415610dec57610dec613bab565b6000908152600660205260409020439055565b60008054600160a81b900460ff16610e2157506001546001600160a01b031690565b60008054906101000a90046001600160a01b03166001600160a01b031663732524946040518163ffffffff1660e01b8152600401602060405180830381865afa158015610e72573d6000803e3d6000fd5b505050506040513d601f19601f82011682018060405250810190610e969190613b31565b905090565b610ea4336121ab565b610ee05760405162461bcd60e51b815260206004820152600d60248201526c37b7363c9032bc32b1baba37b960991b60448201526064016107c6565b6001600160e01b0319811660009081526002602052604081208054909103610f4a5760405162461bcd60e51b815260206004820152601a60248201527f74696d656c6f636b3a20696e76616c69642073656c6563746f7200000000000060448201526064016107c6565b8054421015610f9b5760405162461bcd60e51b815260206004820152601960248201527f74696d656c6f636b3a206e6f7420616c6c6f776564207965740000000000000060448201526064016107c6565b6000816001018054610fac90613bc1565b80601f0160208091040260200160405190810160405280929190818152602001828054610fd890613bc1565b80156110255780601f10610ffa57610100808354040283529160200191611025565b820191906000526020600020905b81548152906001019060200180831161100857829003601f168201915b505050506001600160e01b03198516600090815260026020526040812081815592935090506110576001830182613244565b50506000805460ff60b01b1916600160b01b178155604051309061107c908490613bfb565b6000604051808303816000865af19150503d80600081146110b9576040519150601f19603f3d011682016040523d82523d6000602084013e6110be565b606091505b50506000805460ff60b01b19169055604080516001600160e01b0319871681524260208201529192507fa7326b57fc9cfe267aaea5e7f0b01757154d265620a0585819416ee9ddd2c438910160405180910390a161111b81612e2d565b50505050565b611129612e4a565b6001600160e01b0319811660009081526002602052604081205490036111915760405162461bcd60e51b815260206004820152601a60248201527f74696d656c6f636b3a20696e76616c69642073656c6563746f7200000000000060448201526064016107c6565b604080516001600160e01b0319831681524260208201527f7735b2391c38a81419c513e30ca578db7158eadd7101511b23e221c654d19cf8910160405180910390a16001600160e01b031981166000908152600260205260408120818155906107ea6001830182613244565b600081815260056020526040812060028101546001600160801b0316806112365760405162461bcd60e51b81526004016107c69061391f565b6001600160a01b03851660009081526001830160205260409020548061126e5760405162461bcd60e51b81526004016107c690613a4f565b8161127b61ffff83613b4e565b6112859190613b65565b9695505050505050565b600260205260009081526040902080546001820180549192916112b190613bc1565b80601f01602080910402602001604051908101604052809291908181526020018280546112dd90613bc1565b801561132a5780601f106112ff5761010080835404028352916020019161132a565b820191906000526020600020905b81548152906001019060200180831161130d57829003601f168201915b5050505050905082565b6000818152600560205260409020600201546060906001600160801b031661136e5760405162461bcd60e51b81526004016107c69061391f565b6008546000838152600560209081526040808320600690925291829020549151631594a52760e21b81526001600160a01b0390931692635652949c926109a99291600401613994565b600082815260056020526040812060028101548291906001600160801b0316806113f35760405162461bcd60e51b81526004016107c69061391f565b6008546000878152600660205260409081902054905163385e3b1360e21b81526001600160a01b038881166004830152602482019290925291169063e178ec4c90604401602060405180830381865afa158015611454573d6000803e3d6000fd5b505050506040513d601f19601f820116820180604052508101906114789190613b31565b6001600160a01b0381166000908152600184016020526040902054909450806114b35760405162461bcd60e51b81526004016107c690613a4f565b816114c061ffff83613b4e565b6114ca9190613b65565b93505050509250929050565b6000806114e28461271b565b6040805162ffffff84166020808301919091526001600160a01b03891682840152825180830384018152606090920190925280519101207f19457468657265756d205369676e6564204d6573736167653a0a3332000000006000908152601c829052603c81209395509193509190506000611573826115646020890189613c17565b88602001358960400135612ea4565b905083604001516001600160a01b0316816001600160a01b0316146115ce5760405162461bcd60e51b8152602060048201526011602482015270696e76616c6964207369676e617475726560781b60448201526064016107c6565b6115d987868661289d565b50505050505050565b600081815260056020526040902060028101546001600160801b0381169161ffff600160801b8304811692600160901b90041690836116335760405162461bcd60e51b81526004016107c69061391f565b509193909250565b6000818152600560205260409020600201546060906001600160801b03166116755760405162461bcd60e51b81526004016107c69061391f565b600854600083815260056020526040908190206007549151636131910b60e11b8152600481018690526001600160a01b03938416936305b232c893169063c263221690602401602060405180830381865afa1580156116d8573d6000803e3d6000fd5b505050506040513d601f19601f820116820180604052508101906116fc9190613c3a565b6040518363ffffffff1660e01b8152600401611719929190613c63565b600060405180830381865afa158015611736573d6000803e3d6000fd5b505050506040513d6000823e601f3d908101601f191682016040526109ee9190810190613c8e565b60008054600160b01b900460ff16806117815750600054600160a81b900460ff16155b156118f45761178e612595565b60075460408051637056269760e01b815290516000926001600160a01b03169163705626979160048083019260209291908290030181865afa1580156117d8573d6000803e3d6000fd5b505050506040513d601f19601f820116820180604052508101906117fc9190613da0565b62ffffff16905061180d8382613dc5565b611818906001613dc5565b915060005b848110156118ed57826004600088888581811061183c5761183c6138da565b9050602002016020810190611851919061344d565b6001600160601b031916815260208101919091526040016000205585858281811061187e5761187e6138da565b9050602002016020810190611893919061344d565b6bffffffffffffffffffffffff19167f0a5e087b026d8f1c57e75d9d0cb0394c2ad3535e7a15d97d553be80476274cd0846040516118d391815260200190565b60405180910390a2806118e581613906565b91505061181d565b50506118ff565b6118ff6000366125cf565b9392505050565b7f714f205b2abd25bef1d06a1af944e38c113fe6160375c4e1d6d5cf28848e7719546001600160a01b0316336001600160a01b03161461197f5760405162461bcd60e51b815260206004820152601460248201527337b7363c9030b2323932b9b9903ab83230ba32b960611b60448201526064016107c6565b6119d76119b383836040518060400160405280600e81526020016d20b2323932b9b9aab83230ba32b960911b815250612ed2565b7f714f205b2abd25bef1d06a1af944e38c113fe6160375c4e1d6d5cf28848e771955565b6119e18282612fad565b5050565b6000818152600560205260409020600201546060906001600160801b0316611a1f5760405162461bcd60e51b81526004016107c69061391f565b6008546000838152600560209081526040808320600690925291829020549151636558b56b60e01b81526001600160a01b0390931692636558b56b926109a99291600401613994565b6000818152600560205260409020600281015460609182916001600160801b031680611aa65760405162461bcd60e51b81526004016107c69061391f565b815460408051602080840282018101909252828152918491830182828015611af757602002820191906000526020600020905b81546001600160a01b03168152600190910190602001808311611ad9575b5050835193975083925050506001600160401b03811115611b1a57611b1a613684565b604051908082528060200260200182016040528015611b43578160200160208202803683370190505b50935060005b81811015611be3578261ffff8016856001016000898581518110611b6f57611b6f6138da565b60200260200101516001600160a01b03166001600160a01b0316815260200190815260200160002054611ba29190613b4e565b611bac9190613b65565b858281518110611bbe57611bbe6138da565b61ffff9092166020928302919091019091015280611bdb81613906565b915050611b49565b50505050915091565b60075460609081906000906001600160a01b03163314611c4a5760405162461bcd60e51b815260206004820152601960248201527837b7363c90333630b9329039bcb9ba32b69036b0b730b3b2b960391b60448201526064016107c6565b6000848152600560205260409020805480611c6757611c67613bab565b6000816001600160401b03811115611c8157611c81613684565b604051908082528060200260200182016040528015611caa578160200160208202803683370190505b5090506000826001600160401b03811115611cc757611cc7613684565b604051908082528060200260200182016040528015611cf0578160200160208202803683370190505b5090506000805b84811015611dfc57856000018181548110611d1457611d146138da565b9060005260206000200160009054906101000a90046001600160a01b0316848281518110611d4457611d446138da565b60200260200101906001600160a01b031690816001600160a01b031681525050856001016000858381518110611d7c57611d7c6138da565b60200260200101516001600160a01b03166001600160a01b0316815260200190815260200160002054838281518110611db757611db76138da565b602002602001018181525050828181518110611dd557611dd56138da565b602002602001015182611de89190613dc5565b915080611df481613906565b915050611cf7565b5060085460008a815260066020526040908190205490516369fe610d60e01b81526001600160a01b03909216916369fe610d91611e3e91879190600401613dd8565b600060405180830381865afa158015611e5b573d6000803e3d6000fd5b505050506040513d6000823e601f3d908101601f19168201604052611e8391908101906139b6565b60085460008b81526006602052604080822054905163bda9a28b60e01b8152939b50909283926001600160a01b03169163bda9a28b91611ec7918991600401613dd8565b600060405180830381865afa158015611ee4573d6000803e3d6000fd5b505050506040513d6000823e601f3d908101601f19168201604052611f0c9190810190613ad8565b91509150856001600160401b03811115611f2857611f28613684565b604051908082528060200260200182016040528015611f51578160200160208202803683370190505b5098506000805b87811015612069578461ffff8016878381518110611f7857611f786138da565b6020026020010151611f8a9190613b4e565b611f949190613b65565b8b8281518110611fa657611fa66138da565b602002602001019061ffff16908161ffff16815250508a8181518110611fce57611fce6138da565b60200260200101518a611fe19190613deb565b99506000801b848281518110611ff957611ff96138da565b602002602001015114158061202a57506000801b83828151811061201f5761201f6138da565b602002602001015114155b15612057578a8181518110612041576120416138da565b6020026020010151826120549190613deb565b91505b8061206181613906565b915050611f58565b506002909701805461ffff988916600160901b0261ffff60901b19998b16600160801b0271ffffffffffffffffffffffffffffffffffff199092166001600160801b0390961695909517179790971692909217909555509597949650929450505050565b6000818152600560205260409020600201546060906001600160801b03166121075760405162461bcd60e51b81526004016107c69061391f565b600854600083815260056020526040908190206007549151636131910b60e11b8152600481018690526001600160a01b039384169363df7c7c6893169063c263221690602401602060405180830381865afa15801561216a573d6000803e3d6000fd5b505050506040513d601f19601f8201168201806040525081019061218e9190613c3a565b6040518363ffffffff1660e01b81526004016109a9929190613c63565b60008054600160a01b900460ff1680156109ee5750600054604051630debfda360e41b81526001600160a01b0384811660048301529091169063debfda3090602401602060405180830381865afa15801561220a573d6000803e3d6000fd5b505050506040513d601f19601f820116820180604052508101906109ee9190613e0d565b600054600160a01b900460ff161561227f5760405162461bcd60e51b8152602060048201526014602482015273696e697469616c6973656420213d2066616c736560601b60448201526064016107c6565b6001600160a01b0382166122d55760405162461bcd60e51b815260206004820152601860248201527f676f7665726e616e63652073657474696e6773207a65726f000000000000000060448201526064016107c6565b6001600160a01b03811661231e5760405162461bcd60e51b815260206004820152601060248201526f5f676f7665726e616e6365207a65726f60801b60448201526064016107c6565b600080546001600160a01b038481166001600160a81b031990921691909117600160a01b17909155600180549183166001600160a01b0319909216821790556040519081527f9789733827840833afc031fb2ef9ab6894271f77bad2085687cf4ae5c7bee4db9060200160405180910390a15050565b61239c612e4a565b600054600160a81b900460ff16156123f65760405162461bcd60e51b815260206004820152601a60248201527f616c726561647920696e2070726f64756374696f6e206d6f646500000000000060448201526064016107c6565b600180546001600160a01b031916905560008054600160a81b60ff60a81b198216179091556040516001600160a01b0390911681527f83af113638b5422f9e977cebc0aaf0eaf2188eb9a8baae7f9d46c42b33a1560c9060200160405180910390a1565b600054600160b01b900460ff168061247c5750600054600160a81b900460ff16155b1561075857612489612595565b61ffff8111156124d15760405162461bcd60e51b81526020600482015260136024820152720bedac2f0acdee8cae4e640e8dede40d0d2ced606b1b60448201526064016107c6565b600760009054906101000a90046001600160a01b03166001600160a01b0316632e3645f86040518163ffffffff1660e01b8152600401602060405180830381865afa158015612524573d6000803e3d6000fd5b505050506040513d601f19601f820116820180604052508101906125489190613e2a565b61ffff168110156125905760405162461bcd60e51b81526020600482015260126024820152715f6d6178566f7465727320746f6f206c6f7760701b60448201526064016107c6565b600355565b600054600160b01b900460ff16156125c5573330146125b6576125b6613bab565b6000805460ff60b01b19169055565b6125cd612e4a565b565b6125d7612e4a565b6000805460408051636221a54b60e01b81529051853593926001600160a01b031691636221a54b9160048083019260209291908290030181865afa158015612623573d6000803e3d6000fd5b505050506040513d601f19601f820116820180604052508101906126479190613e4e565b905060006126558242613dc5565b9050604051806040016040528082815260200186868080601f01602080910402602001604051908101604052809392919081815260200183838082843760009201829052509390945250506001600160e01b031986168152600260209081526040909120835181559083015190915060018201906126d39082613eb5565b509050507fed948300a3694aa01d4a6b258bfd664350193d770c0b51f8387277f6d83ea3b68382878760405161270c9493929190613f74565b60405180910390a15050505050565b60408051606081018252600080825260208201819052918101829052600760009054906101000a90046001600160a01b03166001600160a01b031663705626976040518163ffffffff1660e01b8152600401602060405180830381865afa15801561278a573d6000803e3d6000fd5b505050506040513d601f19601f820116820180604052508101906127ae9190613da0565b6127b9906001613fba565b62ffffff81166000908152600660205260408120549193508190036128205760405162461bcd60e51b815260206004820152601e60248201527f726567697374726174696f6e206e6f7420617661696c61626c6520796574000060448201526064016107c6565b60085460405163164a335960e31b81526001600160a01b038681166004830152602482018490529091169063b2519ac890604401606060405180830381865afa158015612871573d6000803e3d6000fd5b505050506040513d601f19601f820116820180604052508101906128959190613fd6565b915050915091565b6007546040516302e074f160e31b815262ffffff8416600482015260009182916001600160a01b0390911690631703a788906024016040805180830381865afa1580156128ee573d6000803e3d6000fd5b505050506040513d601f19601f820116820180604052508101906129129190614047565b915091508160000361295e5760405162461bcd60e51b8152602060048201526015602482015274766f746520706f77657220626c6f636b207a65726f60581b60448201526064016107c6565b806129ab5760405162461bcd60e51b815260206004820152601e60248201527f766f74657220726567697374726174696f6e206e6f7420656e61626c6564000060448201526064016107c6565b600954604051635b28c2eb60e11b81526001600160a01b03878116600483015262ffffff8716602483015260448201859052600092169063b65185d6906064016020604051808303816000875af1158015612a0a573d6000803e3d6000fd5b505050506040513d601f19601f82011682018060405250810190612a2e9190613e4e565b905060008111612a745760405162461bcd60e51b8152602060048201526011602482015270766f74657220776569676874207a65726f60781b60448201526064016107c6565b60085462ffffff8616600090815260066020526040808220549051631110456160e01b81526001600160a01b038a811660048301526024820192909252919283929116906311104561906044016040805180830381865afa158015612add573d6000803e3d6000fd5b505050506040513d601f19601f82011682018060405250810190612b019190613b87565b600a549193509150600160a01b900460ff168015612b1d575081155b8015612b27575080155b15612b6a5760405162461bcd60e51b81526020600482015260136024820152721c1d589b1a58c81ad95e481c995c5d5a5c9959606a1b60448201526064016107c6565b62ffffff871660009081526005602090815260408083206001600160a01b038c168452600181019092529091205415612bda5760405162461bcd60e51b8152602060048201526012602482015271185b1c9958591e481c9959da5cdd195c995960721b60448201526064016107c6565b8054600354811015612c2c578154600180820184556000848152602080822090930180546001600160a01b0319166001600160a01b038f16908117909155815290840190915260409020859055612dab565b6000600019815b83811015612ca0576000856000018281548110612c5257612c526138da565b60009182526020808320909101546001600160a01b03168083526001890190915260409091205490915080841115612c8b578093508294505b50508080612c9890613906565b915050612c33565b50868110612ce55760405162461bcd60e51b8152602060048201526012602482015271766f746520706f77657220746f6f206c6f7760701b60448201526064016107c6565b6000846000018381548110612cfc57612cfc6138da565b60009182526020808320909101546001600160a01b031680835260018801909152604082209190915585549091508d90869085908110612d3e57612d3e6138da565b600091825260208083209190910180546001600160a01b0319166001600160a01b039485161790558f8316825260018801905260408082208b90555162ffffff8f16928416917f98a7f87f8e2aa2f23f43769eff67782bb12946384b142d1ce1e8e38e05d9a3e691a35050505b60408089015189516020808c015184516001600160a01b0393841681529083169181019190915292830187905260608301869052608083018890529081169162ffffff8c16918d16907f824bc2cc10bfe21ead60b8c8a90716eb325b9335aa73eaede799abf38fce062c9060a00160405180910390a450505050505050505050565b3d604051818101604052816000823e8215612e46578181f35b8181fd5b612e52610dff565b6001600160a01b0316336001600160a01b0316146125cd5760405162461bcd60e51b815260206004820152600f60248201526e6f6e6c7920676f7665726e616e636560881b60448201526064016107c6565b600080600080612eb6888888886130bc565b925092509250612ec6828261318b565b50909695505050505050565b60008082604051602001612ee6919061406c565b6040516020818303038152906040528051906020012090506000805b8651811015612f5e57868181518110612f1d57612f1d6138da565b60200260200101518303612f4c57858181518110612f3d57612f3d6138da565b60200260200101519150612f5e565b80612f5681613906565b915050612f02565b506001600160a01b038116612fa45760405162461bcd60e51b815260206004820152600c60248201526b61646472657373207a65726f60a01b60448201526064016107c6565b95945050505050565b612fe3828260405180604001604052806013815260200172233630b932a9bcb9ba32b6b9a6b0b730b3b2b960691b815250612ed2565b600760006101000a8154816001600160a01b0302191690836001600160a01b0316021790555061303982826040518060400160405280600d81526020016c22b73a34ba3ca6b0b730b3b2b960991b815250612ed2565b600860006101000a8154816001600160a01b0302191690836001600160a01b03160217905550613098828260405180604001604052806016815260200175233630b932a9bcb9ba32b6b9a1b0b631bab630ba37b960511b815250612ed2565b600980546001600160a01b0319166001600160a01b03929092169190911790555050565b600080807f7fffffffffffffffffffffffffffffff5d576e7357a4501ddfe92f46681b20a08411156130f75750600091506003905082613181565b604080516000808252602082018084528a905260ff891692820192909252606081018790526080810186905260019060a0016020604051602081039080840390855afa15801561314b573d6000803e3d6000fd5b5050604051601f1901519150506001600160a01b03811661317757506000925060019150829050613181565b9250600091508190505b9450945094915050565b600082600381111561319f5761319f61407f565b036131a8575050565b60018260038111156131bc576131bc61407f565b036131da5760405163f645eedf60e01b815260040160405180910390fd5b60028260038111156131ee576131ee61407f565b0361320f5760405163fce698f760e01b8152600481018290526024016107c6565b60038260038111156132235761322361407f565b036119e1576040516335e2f38360e21b8152600481018290526024016107c6565b50805461325090613bc1565b6000825580601f10613260575050565b601f01602090049060005260206000209081019061076391905b8082111561328e576000815560010161327a565b5090565b801515811461076357600080fd5b6000602082840312156132b257600080fd5b81356118ff81613292565b6001600160a01b038116811461076357600080fd5b6000602082840312156132e457600080fd5b81356118ff816132bd565b60006020828403121561330157600080fd5b5035919050565b600081518084526020808501945080840160005b838110156133415781516001600160a01b03168752958201959082019060010161331c565b509495945050505050565b60408152600061335f6040830185613308565b82810360208481019190915284518083528582019282019060005b818110156133965784518352938301939183019160010161337a565b5090979650505050505050565b6020815260006118ff6020830184613308565b600080604083850312156133c957600080fd5b82356133d4816132bd565b946020939093013593505050565b600081518084526020808501945080840160005b83811015613341578151875295820195908201906001016133f6565b60408152600061342560408301856133e2565b8281036020840152612fa481856133e2565b6001600160601b03198116811461076357600080fd5b60006020828403121561345f57600080fd5b81356118ff81613437565b6000806040838503121561347d57600080fd5b82359150602083013561348f816132bd565b809150509250929050565b6000602082840312156134ac57600080fd5b81356001600160e01b0319811681146118ff57600080fd5b60005b838110156134df5781810151838201526020016134c7565b50506000910152565b600081518084526135008160208601602086016134c4565b601f01601f19169290920160200192915050565b82815260406020820152600061352d60408301846134e8565b949350505050565b600080828403608081121561354957600080fd5b8335613554816132bd565b92506060601f198201121561356857600080fd5b506020830190509250929050565b6000602080830181845280855180835260408601915060408160051b87010192508387016000805b838110156135fc57888603603f19018552825180518088529088019088880190845b818110156135e65783516001600160601b0319168352928a0192918a01916001016135c0565b509097505050938601939186019160010161359e565b509398975050505050505050565b60008060006040848603121561361f57600080fd5b83356001600160401b038082111561363657600080fd5b818601915086601f83011261364a57600080fd5b81358181111561365957600080fd5b8760208260051b850101111561366e57600080fd5b6020928301989097509590910135949350505050565b634e487b7160e01b600052604160045260246000fd5b604051601f8201601f191681016001600160401b03811182821017156136c2576136c2613684565b604052919050565b60006001600160401b038211156136e3576136e3613684565b5060051b60200190565b600082601f8301126136fe57600080fd5b8135602061371361370e836136ca565b61369a565b82815260059290921b8401810191818101908684111561373257600080fd5b8286015b84811015613756578035613749816132bd565b8352918301918301613736565b509695505050505050565b6000806040838503121561377457600080fd5b82356001600160401b038082111561378b57600080fd5b818501915085601f83011261379f57600080fd5b813560206137af61370e836136ca565b82815260059290921b840181019181810190898411156137ce57600080fd5b948201945b838610156137ec578535825294820194908201906137d3565b9650508601359250508082111561380257600080fd5b5061380f858286016136ed565b9150509250929050565b600081518084526020808501945080840160005b8381101561334157815161ffff168752958201959082019060010161382d565b6040815260006138606040830185613308565b8281036020840152612fa48185613819565b6060815260006138856060830186613308565b82810360208401526138978186613819565b91505061ffff83166040830152949350505050565b600080604083850312156138bf57600080fd5b82356138ca816132bd565b9150602083013561348f816132bd565b634e487b7160e01b600052603260045260246000fd5b634e487b7160e01b600052601160045260246000fd5b600060018201613918576139186138f0565b5060010190565b6020808252601d908201527f7265776172642065706f6368206964206e6f7420737570706f72746564000000604082015260600190565b6000815480845260208085019450836000528060002060005b838110156133415781546001600160a01b03168752958201956001918201910161396f565b6040815260006139a76040830185613956565b90508260208301529392505050565b600060208083850312156139c957600080fd5b82516001600160401b038111156139df57600080fd5b8301601f810185136139f057600080fd5b80516139fe61370e826136ca565b81815260059190911b82018301908381019087831115613a1d57600080fd5b928401925b82841015613a44578351613a35816132bd565b82529284019290840190613a22565b979650505050505050565b6020808252601490820152731d9bdd195c881b9bdd081c9959da5cdd195c995960621b604082015260600190565b600082601f830112613a8e57600080fd5b81516020613a9e61370e836136ca565b82815260059290921b84018101918181019086841115613abd57600080fd5b8286015b848110156137565780518352918301918301613ac1565b60008060408385031215613aeb57600080fd5b82516001600160401b0380821115613b0257600080fd5b613b0e86838701613a7d565b93506020850151915080821115613b2457600080fd5b5061380f85828601613a7d565b600060208284031215613b4357600080fd5b81516118ff816132bd565b80820281158282048414176109ee576109ee6138f0565b600082613b8257634e487b7160e01b600052601260045260246000fd5b500490565b60008060408385031215613b9a57600080fd5b505080516020909101519092909150565b634e487b7160e01b600052600160045260246000fd5b600181811c90821680613bd557607f821691505b602082108103613bf557634e487b7160e01b600052602260045260246000fd5b50919050565b60008251613c0d8184602087016134c4565b9190910192915050565b600060208284031215613c2957600080fd5b813560ff811681146118ff57600080fd5b600060208284031215613c4c57600080fd5b81516001600160401b03811681146118ff57600080fd5b604081526000613c766040830185613956565b90506001600160401b03831660208301529392505050565b60006020808385031215613ca157600080fd5b82516001600160401b0380821115613cb857600080fd5b818501915085601f830112613ccc57600080fd5b8151613cda61370e826136ca565b818152600591821b8401850191858201919089841115613cf957600080fd5b8686015b84811015613d9157805186811115613d155760008081fd5b8701603f81018c13613d275760008081fd5b888101516040613d3961370e836136ca565b82815291851b83018101918b8101908f841115613d565760008081fd5b938201935b83851015613d805784519250613d7083613437565b828252938c0193908c0190613d5b565b885250505093880193508701613cfd565b50909998505050505050505050565b600060208284031215613db257600080fd5b815162ffffff811681146118ff57600080fd5b808201808211156109ee576109ee6138f0565b6040815260006139a76040830185613308565b61ffff818116838216019080821115613e0657613e066138f0565b5092915050565b600060208284031215613e1f57600080fd5b81516118ff81613292565b600060208284031215613e3c57600080fd5b815161ffff811681146118ff57600080fd5b600060208284031215613e6057600080fd5b5051919050565b601f8211156107ea57600081815260208120601f850160051c81016020861015613e8e5750805b601f850160051c820191505b81811015613ead57828155600101613e9a565b505050505050565b81516001600160401b03811115613ece57613ece613684565b613ee281613edc8454613bc1565b84613e67565b602080601f831160018114613f175760008415613eff5750858301515b600019600386901b1c1916600185901b178555613ead565b600085815260208120601f198616915b82811015613f4657888601518255948401946001909101908401613f27565b5085821015613f645787850151600019600388901b60f8161c191681555b5050505050600190811b01905550565b63ffffffff60e01b8516815283602082015260606040820152816060820152818360808301376000818301608090810191909152601f909201601f191601019392505050565b62ffffff818116838216019080821115613e0657613e066138f0565b600060608284031215613fe857600080fd5b604051606081018181106001600160401b038211171561400a5761400a613684565b6040528251614018816132bd565b81526020830151614028816132bd565b6020820152604083015161403b816132bd565b60408201529392505050565b6000806040838503121561405a57600080fd5b82519150602083015161348f81613292565b6020815260006118ff60208301846134e8565b634e487b7160e01b600052602160045260246000fdfea264697066735822122038fce6217892199d2628bb8731aa932fad6a707cd63e82e83cc5a2fc85094ef764736f6c63430008140033",
  "linkReferences": {},
  "deployedLinkReferences": {}
}